{
	"https://github.com/succinctlabs/sp1-contracts/blob/main/contracts/src/v3.0.0/Groth16Verifier.sol": {
		"Groth16Verifier": {
			"abi": [
				{
					"inputs": [],
					"name": "ProofInvalid",
					"type": "error"
				},
				{
					"inputs": [],
					"name": "PublicInputNotInField",
					"type": "error"
				},
				{
					"inputs": [
						{
							"internalType": "uint256[8]",
							"name": "proof",
							"type": "uint256[8]"
						},
						{
							"internalType": "uint256[2]",
							"name": "input",
							"type": "uint256[2]"
						}
					],
					"name": "Verify",
					"outputs": [],
					"stateMutability": "view",
					"type": "function"
				},
				{
					"inputs": [
						{
							"internalType": "uint256[8]",
							"name": "proof",
							"type": "uint256[8]"
						}
					],
					"name": "compressProof",
					"outputs": [
						{
							"internalType": "uint256[4]",
							"name": "compressed",
							"type": "uint256[4]"
						}
					],
					"stateMutability": "view",
					"type": "function"
				},
				{
					"inputs": [
						{
							"internalType": "uint256[4]",
							"name": "compressedProof",
							"type": "uint256[4]"
						},
						{
							"internalType": "uint256[2]",
							"name": "input",
							"type": "uint256[2]"
						}
					],
					"name": "verifyCompressedProof",
					"outputs": [],
					"stateMutability": "view",
					"type": "function"
				}
			],
			"devdoc": {
				"author": "Remco Bloemen",
				"errors": {
					"ProofInvalid()": [
						{
							"details": "This can mean that provided Groth16 proof points are not on their curves, that pairing equation fails, or that the proof is not for the provided public input."
						}
					],
					"PublicInputNotInField()": [
						{
							"details": "Public input elements are not automatically reduced, as this is can be a dangerous source of bugs."
						}
					]
				},
				"kind": "dev",
				"methods": {
					"Verify(uint256[8],uint256[2])": {
						"params": {
							"input": "the public input field elements in the scalar field Fr. Elements must be reduced.",
							"proof": "the points (A, B, C) in EIP-197 format matching the output of compressProof."
						}
					},
					"compressProof(uint256[8])": {
						"params": {
							"proof": "The uncompressed Groth16 proof. Elements are in the same order as for verifyProof. I.e. Groth16 points (A, B, C) encoded as in EIP-197."
						},
						"returns": {
							"compressed": "The compressed proof. Elements are in the same order as for verifyCompressedProof. I.e. points (A, B, C) in compressed format."
						}
					},
					"verifyCompressedProof(uint256[4],uint256[2])": {
						"params": {
							"compressedProof": "the points (A, B, C) in compressed format matching the output of compressProof.",
							"input": "the public input field elements in the scalar field Fr. Elements must be reduced."
						}
					}
				},
				"title": "Groth16 verifier template.",
				"version": 1
			},
			"evm": {
				"assembly": "    /* \"https://github.com/succinctlabs/sp1-contracts/blob/main/contracts/src/v3.0.0/Groth16Verifier.sol\":383:25297  contract Groth16Verifier {... */\n  mstore(0x40, 0x80)\n  callvalue\n  dup1\n  iszero\n  tag_1\n  jumpi\n  revert(0x00, 0x00)\ntag_1:\n  pop\n  dataSize(sub_0)\n  dup1\n  dataOffset(sub_0)\n  0x00\n  codecopy\n  0x00\n  return\nstop\n\nsub_0: assembly {\n        /* \"https://github.com/succinctlabs/sp1-contracts/blob/main/contracts/src/v3.0.0/Groth16Verifier.sol\":383:25297  contract Groth16Verifier {... */\n      mstore(0x40, 0x80)\n      callvalue\n      dup1\n      iszero\n      tag_1\n      jumpi\n      revert(0x00, 0x00)\n    tag_1:\n      pop\n      jumpi(tag_2, lt(calldatasize, 0x04))\n      shr(0xe0, calldataload(0x00))\n      dup1\n      0x44f63692\n      eq\n      tag_3\n      jumpi\n      dup1\n      0xeddf243c\n      eq\n      tag_4\n      jumpi\n      dup1\n      0xf11817b2\n      eq\n      tag_5\n      jumpi\n    tag_2:\n      revert(0x00, 0x00)\n        /* \"https://github.com/succinctlabs/sp1-contracts/blob/main/contracts/src/v3.0.0/Groth16Verifier.sol\":19527:19871  function compressProof(uint256[8] calldata proof)... */\n    tag_3:\n      tag_6\n      0x04\n      dup1\n      calldatasize\n      sub\n      dup2\n      add\n      swap1\n      tag_7\n      swap2\n      swap1\n      tag_8\n      jump\t// in\n    tag_7:\n      tag_9\n      jump\t// in\n    tag_6:\n      mload(0x40)\n      tag_10\n      swap2\n      swap1\n      tag_11\n      jump\t// in\n    tag_10:\n      mload(0x40)\n      dup1\n      swap2\n      sub\n      swap1\n      return\n        /* \"https://github.com/succinctlabs/sp1-contracts/blob/main/contracts/src/v3.0.0/Groth16Verifier.sol\":23195:25295  function Verify(uint256[8] calldata proof, uint256[2] calldata input) public view {... */\n    tag_4:\n      tag_12\n      0x04\n      dup1\n      calldatasize\n      sub\n      dup2\n      add\n      swap1\n      tag_13\n      swap2\n      swap1\n      tag_14\n      jump\t// in\n    tag_13:\n      tag_15\n      jump\t// in\n    tag_12:\n      stop\n        /* \"https://github.com/succinctlabs/sp1-contracts/blob/main/contracts/src/v3.0.0/Groth16Verifier.sol\":20419:22669  function verifyCompressedProof(uint256[4] calldata compressedProof, uint256[2] calldata input)... */\n    tag_5:\n      tag_16\n      0x04\n      dup1\n      calldatasize\n      sub\n      dup2\n      add\n      swap1\n      tag_17\n      swap2\n      swap1\n      tag_18\n      jump\t// in\n    tag_17:\n      tag_19\n      jump\t// in\n    tag_16:\n      stop\n        /* \"https://github.com/succinctlabs/sp1-contracts/blob/main/contracts/src/v3.0.0/Groth16Verifier.sol\":19527:19871  function compressProof(uint256[8] calldata proof)... */\n    tag_9:\n        /* \"https://github.com/succinctlabs/sp1-contracts/blob/main/contracts/src/v3.0.0/Groth16Verifier.sol\":19622:19650  uint256[4] memory compressed */\n      tag_20\n      tag_21\n      jump\t// in\n    tag_20:\n        /* \"https://github.com/succinctlabs/sp1-contracts/blob/main/contracts/src/v3.0.0/Groth16Verifier.sol\":19682:19713  compress_g1(proof[0], proof[1]) */\n      tag_23\n        /* \"https://github.com/succinctlabs/sp1-contracts/blob/main/contracts/src/v3.0.0/Groth16Verifier.sol\":19694:19699  proof */\n      dup3\n        /* \"https://github.com/succinctlabs/sp1-contracts/blob/main/contracts/src/v3.0.0/Groth16Verifier.sol\":19700:19701  0 */\n      0x00\n        /* \"https://github.com/succinctlabs/sp1-contracts/blob/main/contracts/src/v3.0.0/Groth16Verifier.sol\":19694:19702  proof[0] */\n      0x08\n      dup2\n      lt\n      tag_24\n      jumpi\n      tag_25\n      tag_26\n      jump\t// in\n    tag_25:\n    tag_24:\n      0x20\n      mul\n      add\n      calldataload\n        /* \"https://github.com/succinctlabs/sp1-contracts/blob/main/contracts/src/v3.0.0/Groth16Verifier.sol\":19704:19709  proof */\n      dup4\n        /* \"https://github.com/succinctlabs/sp1-contracts/blob/main/contracts/src/v3.0.0/Groth16Verifier.sol\":19710:19711  1 */\n      0x01\n        /* \"https://github.com/succinctlabs/sp1-contracts/blob/main/contracts/src/v3.0.0/Groth16Verifier.sol\":19704:19712  proof[1] */\n      0x08\n      dup2\n      lt\n      tag_27\n      jumpi\n      tag_28\n      tag_26\n      jump\t// in\n    tag_28:\n    tag_27:\n      0x20\n      mul\n      add\n      calldataload\n        /* \"https://github.com/succinctlabs/sp1-contracts/blob/main/contracts/src/v3.0.0/Groth16Verifier.sol\":19682:19693  compress_g1 */\n      tag_29\n        /* \"https://github.com/succinctlabs/sp1-contracts/blob/main/contracts/src/v3.0.0/Groth16Verifier.sol\":19682:19713  compress_g1(proof[0], proof[1]) */\n      jump\t// in\n    tag_23:\n        /* \"https://github.com/succinctlabs/sp1-contracts/blob/main/contracts/src/v3.0.0/Groth16Verifier.sol\":19666:19676  compressed */\n      dup2\n        /* \"https://github.com/succinctlabs/sp1-contracts/blob/main/contracts/src/v3.0.0/Groth16Verifier.sol\":19677:19678  0 */\n      0x00\n        /* \"https://github.com/succinctlabs/sp1-contracts/blob/main/contracts/src/v3.0.0/Groth16Verifier.sol\":19666:19679  compressed[0] */\n      0x04\n      dup2\n      lt\n      tag_30\n      jumpi\n      tag_31\n      tag_26\n      jump\t// in\n    tag_31:\n    tag_30:\n      0x20\n      mul\n      add\n        /* \"https://github.com/succinctlabs/sp1-contracts/blob/main/contracts/src/v3.0.0/Groth16Verifier.sol\":19666:19713  compressed[0] = compress_g1(proof[0], proof[1]) */\n      dup2\n      dup2\n      mstore\n      pop\n      pop\n        /* \"https://github.com/succinctlabs/sp1-contracts/blob/main/contracts/src/v3.0.0/Groth16Verifier.sol\":19756:19807  compress_g2(proof[3], proof[2], proof[5], proof[4]) */\n      tag_32\n        /* \"https://github.com/succinctlabs/sp1-contracts/blob/main/contracts/src/v3.0.0/Groth16Verifier.sol\":19768:19773  proof */\n      dup3\n        /* \"https://github.com/succinctlabs/sp1-contracts/blob/main/contracts/src/v3.0.0/Groth16Verifier.sol\":19774:19775  3 */\n      0x03\n        /* \"https://github.com/succinctlabs/sp1-contracts/blob/main/contracts/src/v3.0.0/Groth16Verifier.sol\":19768:19776  proof[3] */\n      0x08\n      dup2\n      lt\n      tag_33\n      jumpi\n      tag_34\n      tag_26\n      jump\t// in\n    tag_34:\n    tag_33:\n      0x20\n      mul\n      add\n      calldataload\n        /* \"https://github.com/succinctlabs/sp1-contracts/blob/main/contracts/src/v3.0.0/Groth16Verifier.sol\":19778:19783  proof */\n      dup4\n        /* \"https://github.com/succinctlabs/sp1-contracts/blob/main/contracts/src/v3.0.0/Groth16Verifier.sol\":19784:19785  2 */\n      0x02\n        /* \"https://github.com/succinctlabs/sp1-contracts/blob/main/contracts/src/v3.0.0/Groth16Verifier.sol\":19778:19786  proof[2] */\n      0x08\n      dup2\n      lt\n      tag_35\n      jumpi\n      tag_36\n      tag_26\n      jump\t// in\n    tag_36:\n    tag_35:\n      0x20\n      mul\n      add\n      calldataload\n        /* \"https://github.com/succinctlabs/sp1-contracts/blob/main/contracts/src/v3.0.0/Groth16Verifier.sol\":19788:19793  proof */\n      dup5\n        /* \"https://github.com/succinctlabs/sp1-contracts/blob/main/contracts/src/v3.0.0/Groth16Verifier.sol\":19794:19795  5 */\n      0x05\n        /* \"https://github.com/succinctlabs/sp1-contracts/blob/main/contracts/src/v3.0.0/Groth16Verifier.sol\":19788:19796  proof[5] */\n      0x08\n      dup2\n      lt\n      tag_37\n      jumpi\n      tag_38\n      tag_26\n      jump\t// in\n    tag_38:\n    tag_37:\n      0x20\n      mul\n      add\n      calldataload\n        /* \"https://github.com/succinctlabs/sp1-contracts/blob/main/contracts/src/v3.0.0/Groth16Verifier.sol\":19798:19803  proof */\n      dup6\n        /* \"https://github.com/succinctlabs/sp1-contracts/blob/main/contracts/src/v3.0.0/Groth16Verifier.sol\":19804:19805  4 */\n      0x04\n        /* \"https://github.com/succinctlabs/sp1-contracts/blob/main/contracts/src/v3.0.0/Groth16Verifier.sol\":19798:19806  proof[4] */\n      0x08\n      dup2\n      lt\n      tag_39\n      jumpi\n      tag_40\n      tag_26\n      jump\t// in\n    tag_40:\n    tag_39:\n      0x20\n      mul\n      add\n      calldataload\n        /* \"https://github.com/succinctlabs/sp1-contracts/blob/main/contracts/src/v3.0.0/Groth16Verifier.sol\":19756:19767  compress_g2 */\n      tag_41\n        /* \"https://github.com/succinctlabs/sp1-contracts/blob/main/contracts/src/v3.0.0/Groth16Verifier.sol\":19756:19807  compress_g2(proof[3], proof[2], proof[5], proof[4]) */\n      jump\t// in\n    tag_32:\n        /* \"https://github.com/succinctlabs/sp1-contracts/blob/main/contracts/src/v3.0.0/Groth16Verifier.sol\":19724:19734  compressed */\n      dup3\n        /* \"https://github.com/succinctlabs/sp1-contracts/blob/main/contracts/src/v3.0.0/Groth16Verifier.sol\":19735:19736  2 */\n      0x02\n        /* \"https://github.com/succinctlabs/sp1-contracts/blob/main/contracts/src/v3.0.0/Groth16Verifier.sol\":19724:19737  compressed[2] */\n      0x04\n      dup2\n      lt\n      tag_42\n      jumpi\n      tag_43\n      tag_26\n      jump\t// in\n    tag_43:\n    tag_42:\n      0x20\n      mul\n      add\n        /* \"https://github.com/succinctlabs/sp1-contracts/blob/main/contracts/src/v3.0.0/Groth16Verifier.sol\":19739:19749  compressed */\n      dup4\n        /* \"https://github.com/succinctlabs/sp1-contracts/blob/main/contracts/src/v3.0.0/Groth16Verifier.sol\":19750:19751  1 */\n      0x01\n        /* \"https://github.com/succinctlabs/sp1-contracts/blob/main/contracts/src/v3.0.0/Groth16Verifier.sol\":19739:19752  compressed[1] */\n      0x04\n      dup2\n      lt\n      tag_44\n      jumpi\n      tag_45\n      tag_26\n      jump\t// in\n    tag_45:\n    tag_44:\n      0x20\n      mul\n      add\n        /* \"https://github.com/succinctlabs/sp1-contracts/blob/main/contracts/src/v3.0.0/Groth16Verifier.sol\":19723:19807  (compressed[2], compressed[1]) = compress_g2(proof[3], proof[2], proof[5], proof[4]) */\n      dup3\n      dup2\n      mstore\n      pop\n      dup3\n      dup2\n      mstore\n      pop\n      pop\n      pop\n        /* \"https://github.com/succinctlabs/sp1-contracts/blob/main/contracts/src/v3.0.0/Groth16Verifier.sol\":19833:19864  compress_g1(proof[6], proof[7]) */\n      tag_46\n        /* \"https://github.com/succinctlabs/sp1-contracts/blob/main/contracts/src/v3.0.0/Groth16Verifier.sol\":19845:19850  proof */\n      dup3\n        /* \"https://github.com/succinctlabs/sp1-contracts/blob/main/contracts/src/v3.0.0/Groth16Verifier.sol\":19851:19852  6 */\n      0x06\n        /* \"https://github.com/succinctlabs/sp1-contracts/blob/main/contracts/src/v3.0.0/Groth16Verifier.sol\":19845:19853  proof[6] */\n      0x08\n      dup2\n      lt\n      tag_47\n      jumpi\n      tag_48\n      tag_26\n      jump\t// in\n    tag_48:\n    tag_47:\n      0x20\n      mul\n      add\n      calldataload\n        /* \"https://github.com/succinctlabs/sp1-contracts/blob/main/contracts/src/v3.0.0/Groth16Verifier.sol\":19855:19860  proof */\n      dup4\n        /* \"https://github.com/succinctlabs/sp1-contracts/blob/main/contracts/src/v3.0.0/Groth16Verifier.sol\":19861:19862  7 */\n      0x07\n        /* \"https://github.com/succinctlabs/sp1-contracts/blob/main/contracts/src/v3.0.0/Groth16Verifier.sol\":19855:19863  proof[7] */\n      0x08\n      dup2\n      lt\n      tag_49\n      jumpi\n      tag_50\n      tag_26\n      jump\t// in\n    tag_50:\n    tag_49:\n      0x20\n      mul\n      add\n      calldataload\n        /* \"https://github.com/succinctlabs/sp1-contracts/blob/main/contracts/src/v3.0.0/Groth16Verifier.sol\":19833:19844  compress_g1 */\n      tag_29\n        /* \"https://github.com/succinctlabs/sp1-contracts/blob/main/contracts/src/v3.0.0/Groth16Verifier.sol\":19833:19864  compress_g1(proof[6], proof[7]) */\n      jump\t// in\n    tag_46:\n        /* \"https://github.com/succinctlabs/sp1-contracts/blob/main/contracts/src/v3.0.0/Groth16Verifier.sol\":19817:19827  compressed */\n      dup2\n        /* \"https://github.com/succinctlabs/sp1-contracts/blob/main/contracts/src/v3.0.0/Groth16Verifier.sol\":19828:19829  3 */\n      0x03\n        /* \"https://github.com/succinctlabs/sp1-contracts/blob/main/contracts/src/v3.0.0/Groth16Verifier.sol\":19817:19830  compressed[3] */\n      0x04\n      dup2\n      lt\n      tag_51\n      jumpi\n      tag_52\n      tag_26\n      jump\t// in\n    tag_52:\n    tag_51:\n      0x20\n      mul\n      add\n        /* \"https://github.com/succinctlabs/sp1-contracts/blob/main/contracts/src/v3.0.0/Groth16Verifier.sol\":19817:19864  compressed[3] = compress_g1(proof[6], proof[7]) */\n      dup2\n      dup2\n      mstore\n      pop\n      pop\n        /* \"https://github.com/succinctlabs/sp1-contracts/blob/main/contracts/src/v3.0.0/Groth16Verifier.sol\":19527:19871  function compressProof(uint256[8] calldata proof)... */\n      swap2\n      swap1\n      pop\n      jump\t// out\n        /* \"https://github.com/succinctlabs/sp1-contracts/blob/main/contracts/src/v3.0.0/Groth16Verifier.sol\":23195:25295  function Verify(uint256[8] calldata proof, uint256[2] calldata input) public view {... */\n    tag_15:\n        /* \"https://github.com/succinctlabs/sp1-contracts/blob/main/contracts/src/v3.0.0/Groth16Verifier.sol\":23288:23297  uint256 x */\n      0x00\n        /* \"https://github.com/succinctlabs/sp1-contracts/blob/main/contracts/src/v3.0.0/Groth16Verifier.sol\":23299:23308  uint256 y */\n      0x00\n        /* \"https://github.com/succinctlabs/sp1-contracts/blob/main/contracts/src/v3.0.0/Groth16Verifier.sol\":23312:23333  publicInputMSM(input) */\n      tag_54\n        /* \"https://github.com/succinctlabs/sp1-contracts/blob/main/contracts/src/v3.0.0/Groth16Verifier.sol\":23327:23332  input */\n      dup4\n        /* \"https://github.com/succinctlabs/sp1-contracts/blob/main/contracts/src/v3.0.0/Groth16Verifier.sol\":23312:23326  publicInputMSM */\n      tag_55\n        /* \"https://github.com/succinctlabs/sp1-contracts/blob/main/contracts/src/v3.0.0/Groth16Verifier.sol\":23312:23333  publicInputMSM(input) */\n      jump\t// in\n    tag_54:\n        /* \"https://github.com/succinctlabs/sp1-contracts/blob/main/contracts/src/v3.0.0/Groth16Verifier.sol\":23287:23333  (uint256 x, uint256 y) = publicInputMSM(input) */\n      swap2\n      pop\n      swap2\n      pop\n        /* \"https://github.com/succinctlabs/sp1-contracts/blob/main/contracts/src/v3.0.0/Groth16Verifier.sol\":23520:23532  bool success */\n      0x00\n        /* \"https://github.com/succinctlabs/sp1-contracts/blob/main/contracts/src/v3.0.0/Groth16Verifier.sol\":23596:23600  0x40 */\n      0x40\n        /* \"https://github.com/succinctlabs/sp1-contracts/blob/main/contracts/src/v3.0.0/Groth16Verifier.sol\":23590:23601  mload(0x40) */\n      mload\n        /* \"https://github.com/succinctlabs/sp1-contracts/blob/main/contracts/src/v3.0.0/Groth16Verifier.sol\":23808:23813  0x100 */\n      0x0100\n        /* \"https://github.com/succinctlabs/sp1-contracts/blob/main/contracts/src/v3.0.0/Groth16Verifier.sol\":23801:23806  proof */\n      dup7\n        /* \"https://github.com/succinctlabs/sp1-contracts/blob/main/contracts/src/v3.0.0/Groth16Verifier.sol\":23798:23799  f */\n      dup3\n        /* \"https://github.com/succinctlabs/sp1-contracts/blob/main/contracts/src/v3.0.0/Groth16Verifier.sol\":23785:23814  calldatacopy(f, proof, 0x100) */\n      calldatacopy\n        /* \"https://github.com/succinctlabs/sp1-contracts/blob/main/contracts/src/v3.0.0/Groth16Verifier.sol\":24116:24129  DELTA_NEG_X_1 */\n      0x21ab438b0ad9688f8d9afc96ed0ab25e6ab7f19ed6f7d58a9dc136d68de55e3e\n        /* \"https://github.com/succinctlabs/sp1-contracts/blob/main/contracts/src/v3.0.0/Groth16Verifier.sol\":24108:24113  0x100 */\n      0x0100\n        /* \"https://github.com/succinctlabs/sp1-contracts/blob/main/contracts/src/v3.0.0/Groth16Verifier.sol\":24105:24106  f */\n      dup3\n        /* \"https://github.com/succinctlabs/sp1-contracts/blob/main/contracts/src/v3.0.0/Groth16Verifier.sol\":24101:24114  add(f, 0x100) */\n      add\n        /* \"https://github.com/succinctlabs/sp1-contracts/blob/main/contracts/src/v3.0.0/Groth16Verifier.sol\":24094:24130  mstore(add(f, 0x100), DELTA_NEG_X_1) */\n      mstore\n        /* \"https://github.com/succinctlabs/sp1-contracts/blob/main/contracts/src/v3.0.0/Groth16Verifier.sol\":24165:24178  DELTA_NEG_X_0 */\n      0x2d1f461ca03a65528393919e9e412f6b82d7096e44fa039bd7642a5112188af7\n        /* \"https://github.com/succinctlabs/sp1-contracts/blob/main/contracts/src/v3.0.0/Groth16Verifier.sol\":24157:24162  0x120 */\n      0x0120\n        /* \"https://github.com/succinctlabs/sp1-contracts/blob/main/contracts/src/v3.0.0/Groth16Verifier.sol\":24154:24155  f */\n      dup3\n        /* \"https://github.com/succinctlabs/sp1-contracts/blob/main/contracts/src/v3.0.0/Groth16Verifier.sol\":24150:24163  add(f, 0x120) */\n      add\n        /* \"https://github.com/succinctlabs/sp1-contracts/blob/main/contracts/src/v3.0.0/Groth16Verifier.sol\":24143:24179  mstore(add(f, 0x120), DELTA_NEG_X_0) */\n      mstore\n        /* \"https://github.com/succinctlabs/sp1-contracts/blob/main/contracts/src/v3.0.0/Groth16Verifier.sol\":24214:24227  DELTA_NEG_Y_1 */\n      0x100f76d4ac45886c1334d58716121dc0ffa8463738f3f2adf793e15b8ecd7e1d\n        /* \"https://github.com/succinctlabs/sp1-contracts/blob/main/contracts/src/v3.0.0/Groth16Verifier.sol\":24206:24211  0x140 */\n      0x0140\n        /* \"https://github.com/succinctlabs/sp1-contracts/blob/main/contracts/src/v3.0.0/Groth16Verifier.sol\":24203:24204  f */\n      dup3\n        /* \"https://github.com/succinctlabs/sp1-contracts/blob/main/contracts/src/v3.0.0/Groth16Verifier.sol\":24199:24212  add(f, 0x140) */\n      add\n        /* \"https://github.com/succinctlabs/sp1-contracts/blob/main/contracts/src/v3.0.0/Groth16Verifier.sol\":24192:24228  mstore(add(f, 0x140), DELTA_NEG_Y_1) */\n      mstore\n        /* \"https://github.com/succinctlabs/sp1-contracts/blob/main/contracts/src/v3.0.0/Groth16Verifier.sol\":24263:24276  DELTA_NEG_Y_0 */\n      0x2bf21e8bb2f9419034373c2156cdd7bddf273519dcd7f674ef21e2748ced89f2\n        /* \"https://github.com/succinctlabs/sp1-contracts/blob/main/contracts/src/v3.0.0/Groth16Verifier.sol\":24255:24260  0x160 */\n      0x0160\n        /* \"https://github.com/succinctlabs/sp1-contracts/blob/main/contracts/src/v3.0.0/Groth16Verifier.sol\":24252:24253  f */\n      dup3\n        /* \"https://github.com/succinctlabs/sp1-contracts/blob/main/contracts/src/v3.0.0/Groth16Verifier.sol\":24248:24261  add(f, 0x160) */\n      add\n        /* \"https://github.com/succinctlabs/sp1-contracts/blob/main/contracts/src/v3.0.0/Groth16Verifier.sol\":24241:24277  mstore(add(f, 0x160), DELTA_NEG_Y_0) */\n      mstore\n        /* \"https://github.com/succinctlabs/sp1-contracts/blob/main/contracts/src/v3.0.0/Groth16Verifier.sol\":24312:24319  ALPHA_X */\n      0x2d4d9aa7e302d9df41749d5507949d05dbea33fbb16c643b22f599a2be6df2e2\n        /* \"https://github.com/succinctlabs/sp1-contracts/blob/main/contracts/src/v3.0.0/Groth16Verifier.sol\":24304:24309  0x180 */\n      0x0180\n        /* \"https://github.com/succinctlabs/sp1-contracts/blob/main/contracts/src/v3.0.0/Groth16Verifier.sol\":24301:24302  f */\n      dup3\n        /* \"https://github.com/succinctlabs/sp1-contracts/blob/main/contracts/src/v3.0.0/Groth16Verifier.sol\":24297:24310  add(f, 0x180) */\n      add\n        /* \"https://github.com/succinctlabs/sp1-contracts/blob/main/contracts/src/v3.0.0/Groth16Verifier.sol\":24290:24320  mstore(add(f, 0x180), ALPHA_X) */\n      mstore\n        /* \"https://github.com/succinctlabs/sp1-contracts/blob/main/contracts/src/v3.0.0/Groth16Verifier.sol\":24355:24362  ALPHA_Y */\n      0x14bedd503c37ceb061d8ec60209fe345ce89830a19230301f076caff004d1926\n        /* \"https://github.com/succinctlabs/sp1-contracts/blob/main/contracts/src/v3.0.0/Groth16Verifier.sol\":24347:24352  0x1a0 */\n      0x01a0\n        /* \"https://github.com/succinctlabs/sp1-contracts/blob/main/contracts/src/v3.0.0/Groth16Verifier.sol\":24344:24345  f */\n      dup3\n        /* \"https://github.com/succinctlabs/sp1-contracts/blob/main/contracts/src/v3.0.0/Groth16Verifier.sol\":24340:24353  add(f, 0x1a0) */\n      add\n        /* \"https://github.com/succinctlabs/sp1-contracts/blob/main/contracts/src/v3.0.0/Groth16Verifier.sol\":24333:24363  mstore(add(f, 0x1a0), ALPHA_Y) */\n      mstore\n        /* \"https://github.com/succinctlabs/sp1-contracts/blob/main/contracts/src/v3.0.0/Groth16Verifier.sol\":24398:24410  BETA_NEG_X_1 */\n      0x0967032fcbf776d1afc985f88877f182d38480a653f2decaa9794cbc3bf3060c\n        /* \"https://github.com/succinctlabs/sp1-contracts/blob/main/contracts/src/v3.0.0/Groth16Verifier.sol\":24390:24395  0x1c0 */\n      0x01c0\n        /* \"https://github.com/succinctlabs/sp1-contracts/blob/main/contracts/src/v3.0.0/Groth16Verifier.sol\":24387:24388  f */\n      dup3\n        /* \"https://github.com/succinctlabs/sp1-contracts/blob/main/contracts/src/v3.0.0/Groth16Verifier.sol\":24383:24396  add(f, 0x1c0) */\n      add\n        /* \"https://github.com/succinctlabs/sp1-contracts/blob/main/contracts/src/v3.0.0/Groth16Verifier.sol\":24376:24411  mstore(add(f, 0x1c0), BETA_NEG_X_1) */\n      mstore\n        /* \"https://github.com/succinctlabs/sp1-contracts/blob/main/contracts/src/v3.0.0/Groth16Verifier.sol\":24446:24458  BETA_NEG_X_0 */\n      0x0e187847ad4c798374d0d6732bf501847dd68bc0e071241e0213bc7fc13db7ab\n        /* \"https://github.com/succinctlabs/sp1-contracts/blob/main/contracts/src/v3.0.0/Groth16Verifier.sol\":24438:24443  0x1e0 */\n      0x01e0\n        /* \"https://github.com/succinctlabs/sp1-contracts/blob/main/contracts/src/v3.0.0/Groth16Verifier.sol\":24435:24436  f */\n      dup3\n        /* \"https://github.com/succinctlabs/sp1-contracts/blob/main/contracts/src/v3.0.0/Groth16Verifier.sol\":24431:24444  add(f, 0x1e0) */\n      add\n        /* \"https://github.com/succinctlabs/sp1-contracts/blob/main/contracts/src/v3.0.0/Groth16Verifier.sol\":24424:24459  mstore(add(f, 0x1e0), BETA_NEG_X_0) */\n      mstore\n        /* \"https://github.com/succinctlabs/sp1-contracts/blob/main/contracts/src/v3.0.0/Groth16Verifier.sol\":24494:24506  BETA_NEG_Y_1 */\n      0x1752a100a72fdf1e5a5d6ea841cc20ec838bccfcf7bd559e79f1c9c759b6a0\n        /* \"https://github.com/succinctlabs/sp1-contracts/blob/main/contracts/src/v3.0.0/Groth16Verifier.sol\":24486:24491  0x200 */\n      0x0200\n        /* \"https://github.com/succinctlabs/sp1-contracts/blob/main/contracts/src/v3.0.0/Groth16Verifier.sol\":24483:24484  f */\n      dup3\n        /* \"https://github.com/succinctlabs/sp1-contracts/blob/main/contracts/src/v3.0.0/Groth16Verifier.sol\":24479:24492  add(f, 0x200) */\n      add\n        /* \"https://github.com/succinctlabs/sp1-contracts/blob/main/contracts/src/v3.0.0/Groth16Verifier.sol\":24472:24507  mstore(add(f, 0x200), BETA_NEG_Y_1) */\n      mstore\n        /* \"https://github.com/succinctlabs/sp1-contracts/blob/main/contracts/src/v3.0.0/Groth16Verifier.sol\":24542:24554  BETA_NEG_Y_0 */\n      0x192a8cc13cd9f762871f21e43451c6ca9eeab2cb2987c4e366a185c25dac2e7f\n        /* \"https://github.com/succinctlabs/sp1-contracts/blob/main/contracts/src/v3.0.0/Groth16Verifier.sol\":24534:24539  0x220 */\n      0x0220\n        /* \"https://github.com/succinctlabs/sp1-contracts/blob/main/contracts/src/v3.0.0/Groth16Verifier.sol\":24531:24532  f */\n      dup3\n        /* \"https://github.com/succinctlabs/sp1-contracts/blob/main/contracts/src/v3.0.0/Groth16Verifier.sol\":24527:24540  add(f, 0x220) */\n      add\n        /* \"https://github.com/succinctlabs/sp1-contracts/blob/main/contracts/src/v3.0.0/Groth16Verifier.sol\":24520:24555  mstore(add(f, 0x220), BETA_NEG_Y_0) */\n      mstore\n        /* \"https://github.com/succinctlabs/sp1-contracts/blob/main/contracts/src/v3.0.0/Groth16Verifier.sol\":24590:24591  x */\n      dup4\n        /* \"https://github.com/succinctlabs/sp1-contracts/blob/main/contracts/src/v3.0.0/Groth16Verifier.sol\":24582:24587  0x240 */\n      0x0240\n        /* \"https://github.com/succinctlabs/sp1-contracts/blob/main/contracts/src/v3.0.0/Groth16Verifier.sol\":24579:24580  f */\n      dup3\n        /* \"https://github.com/succinctlabs/sp1-contracts/blob/main/contracts/src/v3.0.0/Groth16Verifier.sol\":24575:24588  add(f, 0x240) */\n      add\n        /* \"https://github.com/succinctlabs/sp1-contracts/blob/main/contracts/src/v3.0.0/Groth16Verifier.sol\":24568:24592  mstore(add(f, 0x240), x) */\n      mstore\n        /* \"https://github.com/succinctlabs/sp1-contracts/blob/main/contracts/src/v3.0.0/Groth16Verifier.sol\":24627:24628  y */\n      dup3\n        /* \"https://github.com/succinctlabs/sp1-contracts/blob/main/contracts/src/v3.0.0/Groth16Verifier.sol\":24619:24624  0x260 */\n      0x0260\n        /* \"https://github.com/succinctlabs/sp1-contracts/blob/main/contracts/src/v3.0.0/Groth16Verifier.sol\":24616:24617  f */\n      dup3\n        /* \"https://github.com/succinctlabs/sp1-contracts/blob/main/contracts/src/v3.0.0/Groth16Verifier.sol\":24612:24625  add(f, 0x260) */\n      add\n        /* \"https://github.com/succinctlabs/sp1-contracts/blob/main/contracts/src/v3.0.0/Groth16Verifier.sol\":24605:24629  mstore(add(f, 0x260), y) */\n      mstore\n        /* \"https://github.com/succinctlabs/sp1-contracts/blob/main/contracts/src/v3.0.0/Groth16Verifier.sol\":24664:24677  GAMMA_NEG_X_1 */\n      0x198e9393920d483a7260bfb731fb5d25f1aa493335a9e71297e485b7aef312c2\n        /* \"https://github.com/succinctlabs/sp1-contracts/blob/main/contracts/src/v3.0.0/Groth16Verifier.sol\":24656:24661  0x280 */\n      0x0280\n        /* \"https://github.com/succinctlabs/sp1-contracts/blob/main/contracts/src/v3.0.0/Groth16Verifier.sol\":24653:24654  f */\n      dup3\n        /* \"https://github.com/succinctlabs/sp1-contracts/blob/main/contracts/src/v3.0.0/Groth16Verifier.sol\":24649:24662  add(f, 0x280) */\n      add\n        /* \"https://github.com/succinctlabs/sp1-contracts/blob/main/contracts/src/v3.0.0/Groth16Verifier.sol\":24642:24678  mstore(add(f, 0x280), GAMMA_NEG_X_1) */\n      mstore\n        /* \"https://github.com/succinctlabs/sp1-contracts/blob/main/contracts/src/v3.0.0/Groth16Verifier.sol\":24713:24726  GAMMA_NEG_X_0 */\n      0x1800deef121f1e76426a00665e5c4479674322d4f75edadd46debd5cd992f6ed\n        /* \"https://github.com/succinctlabs/sp1-contracts/blob/main/contracts/src/v3.0.0/Groth16Verifier.sol\":24705:24710  0x2a0 */\n      0x02a0\n        /* \"https://github.com/succinctlabs/sp1-contracts/blob/main/contracts/src/v3.0.0/Groth16Verifier.sol\":24702:24703  f */\n      dup3\n        /* \"https://github.com/succinctlabs/sp1-contracts/blob/main/contracts/src/v3.0.0/Groth16Verifier.sol\":24698:24711  add(f, 0x2a0) */\n      add\n        /* \"https://github.com/succinctlabs/sp1-contracts/blob/main/contracts/src/v3.0.0/Groth16Verifier.sol\":24691:24727  mstore(add(f, 0x2a0), GAMMA_NEG_X_0) */\n      mstore\n        /* \"https://github.com/succinctlabs/sp1-contracts/blob/main/contracts/src/v3.0.0/Groth16Verifier.sol\":24762:24775  GAMMA_NEG_Y_1 */\n      0x275dc4a288d1afb3cbb1ac09187524c7db36395df7be3b99e673b13a075a65ec\n        /* \"https://github.com/succinctlabs/sp1-contracts/blob/main/contracts/src/v3.0.0/Groth16Verifier.sol\":24754:24759  0x2c0 */\n      0x02c0\n        /* \"https://github.com/succinctlabs/sp1-contracts/blob/main/contracts/src/v3.0.0/Groth16Verifier.sol\":24751:24752  f */\n      dup3\n        /* \"https://github.com/succinctlabs/sp1-contracts/blob/main/contracts/src/v3.0.0/Groth16Verifier.sol\":24747:24760  add(f, 0x2c0) */\n      add\n        /* \"https://github.com/succinctlabs/sp1-contracts/blob/main/contracts/src/v3.0.0/Groth16Verifier.sol\":24740:24776  mstore(add(f, 0x2c0), GAMMA_NEG_Y_1) */\n      mstore\n        /* \"https://github.com/succinctlabs/sp1-contracts/blob/main/contracts/src/v3.0.0/Groth16Verifier.sol\":24811:24824  GAMMA_NEG_Y_0 */\n      0x1d9befcd05a5323e6da4d435f3b617cdb3af83285c2df711ef39c01571827f9d\n        /* \"https://github.com/succinctlabs/sp1-contracts/blob/main/contracts/src/v3.0.0/Groth16Verifier.sol\":24803:24808  0x2e0 */\n      0x02e0\n        /* \"https://github.com/succinctlabs/sp1-contracts/blob/main/contracts/src/v3.0.0/Groth16Verifier.sol\":24800:24801  f */\n      dup3\n        /* \"https://github.com/succinctlabs/sp1-contracts/blob/main/contracts/src/v3.0.0/Groth16Verifier.sol\":24796:24809  add(f, 0x2e0) */\n      add\n        /* \"https://github.com/succinctlabs/sp1-contracts/blob/main/contracts/src/v3.0.0/Groth16Verifier.sol\":24789:24825  mstore(add(f, 0x2e0), GAMMA_NEG_Y_0) */\n      mstore\n        /* \"https://github.com/succinctlabs/sp1-contracts/blob/main/contracts/src/v3.0.0/Groth16Verifier.sol\":24939:24943  0x20 */\n      0x20\n        /* \"https://github.com/succinctlabs/sp1-contracts/blob/main/contracts/src/v3.0.0/Groth16Verifier.sol\":24936:24937  f */\n      dup2\n        /* \"https://github.com/succinctlabs/sp1-contracts/blob/main/contracts/src/v3.0.0/Groth16Verifier.sol\":24929:24934  0x300 */\n      0x0300\n        /* \"https://github.com/succinctlabs/sp1-contracts/blob/main/contracts/src/v3.0.0/Groth16Verifier.sol\":24926:24927  f */\n      dup4\n        /* \"https://github.com/succinctlabs/sp1-contracts/blob/main/contracts/src/v3.0.0/Groth16Verifier.sol\":24907:24924  PRECOMPILE_VERIFY */\n      0x08\n        /* \"https://github.com/succinctlabs/sp1-contracts/blob/main/contracts/src/v3.0.0/Groth16Verifier.sol\":24900:24905  gas() */\n      gas\n        /* \"https://github.com/succinctlabs/sp1-contracts/blob/main/contracts/src/v3.0.0/Groth16Verifier.sol\":24889:24944  staticcall(gas(), PRECOMPILE_VERIFY, f, 0x300, f, 0x20) */\n      staticcall\n        /* \"https://github.com/succinctlabs/sp1-contracts/blob/main/contracts/src/v3.0.0/Groth16Verifier.sol\":24878:24944  success := staticcall(gas(), PRECOMPILE_VERIFY, f, 0x300, f, 0x20) */\n      swap2\n      pop\n        /* \"https://github.com/succinctlabs/sp1-contracts/blob/main/contracts/src/v3.0.0/Groth16Verifier.sol\":25054:25055  f */\n      dup1\n        /* \"https://github.com/succinctlabs/sp1-contracts/blob/main/contracts/src/v3.0.0/Groth16Verifier.sol\":25048:25056  mload(f) */\n      mload\n        /* \"https://github.com/succinctlabs/sp1-contracts/blob/main/contracts/src/v3.0.0/Groth16Verifier.sol\":25039:25046  success */\n      dup3\n        /* \"https://github.com/succinctlabs/sp1-contracts/blob/main/contracts/src/v3.0.0/Groth16Verifier.sol\":25035:25057  and(success, mload(f)) */\n      and\n        /* \"https://github.com/succinctlabs/sp1-contracts/blob/main/contracts/src/v3.0.0/Groth16Verifier.sol\":25024:25057  success := and(success, mload(f)) */\n      swap2\n      pop\n        /* \"https://github.com/succinctlabs/sp1-contracts/blob/main/contracts/src/v3.0.0/Groth16Verifier.sol\":23567:25067  {... */\n      pop\n        /* \"https://github.com/succinctlabs/sp1-contracts/blob/main/contracts/src/v3.0.0/Groth16Verifier.sol\":25081:25088  success */\n      dup1\n        /* \"https://github.com/succinctlabs/sp1-contracts/blob/main/contracts/src/v3.0.0/Groth16Verifier.sol\":25076:25289  if (!success) {... */\n      tag_56\n      jumpi\n        /* \"https://github.com/succinctlabs/sp1-contracts/blob/main/contracts/src/v3.0.0/Groth16Verifier.sol\":25264:25278  ProofInvalid() */\n      mload(0x40)\n      0x7fcdd1f400000000000000000000000000000000000000000000000000000000\n      dup2\n      mstore\n      0x04\n      add\n      mload(0x40)\n      dup1\n      swap2\n      sub\n      swap1\n      revert\n        /* \"https://github.com/succinctlabs/sp1-contracts/blob/main/contracts/src/v3.0.0/Groth16Verifier.sol\":25076:25289  if (!success) {... */\n    tag_56:\n        /* \"https://github.com/succinctlabs/sp1-contracts/blob/main/contracts/src/v3.0.0/Groth16Verifier.sol\":23277:25295  {... */\n      pop\n      pop\n      pop\n        /* \"https://github.com/succinctlabs/sp1-contracts/blob/main/contracts/src/v3.0.0/Groth16Verifier.sol\":23195:25295  function Verify(uint256[8] calldata proof, uint256[2] calldata input) public view {... */\n      pop\n      pop\n      jump\t// out\n        /* \"https://github.com/succinctlabs/sp1-contracts/blob/main/contracts/src/v3.0.0/Groth16Verifier.sol\":20419:22669  function verifyCompressedProof(uint256[4] calldata compressedProof, uint256[2] calldata input)... */\n    tag_19:\n        /* \"https://github.com/succinctlabs/sp1-contracts/blob/main/contracts/src/v3.0.0/Groth16Verifier.sol\":20556:20583  uint256[24] memory pairings */\n      tag_58\n      tag_59\n      jump\t// in\n    tag_58:\n        /* \"https://github.com/succinctlabs/sp1-contracts/blob/main/contracts/src/v3.0.0/Groth16Verifier.sol\":20609:20619  uint256 Ax */\n      0x00\n        /* \"https://github.com/succinctlabs/sp1-contracts/blob/main/contracts/src/v3.0.0/Groth16Verifier.sol\":20621:20631  uint256 Ay */\n      0x00\n        /* \"https://github.com/succinctlabs/sp1-contracts/blob/main/contracts/src/v3.0.0/Groth16Verifier.sol\":20635:20668  decompress_g1(compressedProof[0]) */\n      tag_60\n        /* \"https://github.com/succinctlabs/sp1-contracts/blob/main/contracts/src/v3.0.0/Groth16Verifier.sol\":20649:20664  compressedProof */\n      dup6\n        /* \"https://github.com/succinctlabs/sp1-contracts/blob/main/contracts/src/v3.0.0/Groth16Verifier.sol\":20665:20666  0 */\n      0x00\n        /* \"https://github.com/succinctlabs/sp1-contracts/blob/main/contracts/src/v3.0.0/Groth16Verifier.sol\":20649:20667  compressedProof[0] */\n      0x04\n      dup2\n      lt\n      tag_61\n      jumpi\n      tag_62\n      tag_26\n      jump\t// in\n    tag_62:\n    tag_61:\n      0x20\n      mul\n      add\n      calldataload\n        /* \"https://github.com/succinctlabs/sp1-contracts/blob/main/contracts/src/v3.0.0/Groth16Verifier.sol\":20635:20648  decompress_g1 */\n      tag_63\n        /* \"https://github.com/succinctlabs/sp1-contracts/blob/main/contracts/src/v3.0.0/Groth16Verifier.sol\":20635:20668  decompress_g1(compressedProof[0]) */\n      jump\t// in\n    tag_60:\n        /* \"https://github.com/succinctlabs/sp1-contracts/blob/main/contracts/src/v3.0.0/Groth16Verifier.sol\":20608:20668  (uint256 Ax, uint256 Ay) = decompress_g1(compressedProof[0]) */\n      swap2\n      pop\n      swap2\n      pop\n        /* \"https://github.com/succinctlabs/sp1-contracts/blob/main/contracts/src/v3.0.0/Groth16Verifier.sol\":20683:20694  uint256 Bx0 */\n      0x00\n        /* \"https://github.com/succinctlabs/sp1-contracts/blob/main/contracts/src/v3.0.0/Groth16Verifier.sol\":20696:20707  uint256 Bx1 */\n      0x00\n        /* \"https://github.com/succinctlabs/sp1-contracts/blob/main/contracts/src/v3.0.0/Groth16Verifier.sol\":20709:20720  uint256 By0 */\n      0x00\n        /* \"https://github.com/succinctlabs/sp1-contracts/blob/main/contracts/src/v3.0.0/Groth16Verifier.sol\":20722:20733  uint256 By1 */\n      0x00\n        /* \"https://github.com/succinctlabs/sp1-contracts/blob/main/contracts/src/v3.0.0/Groth16Verifier.sol\":20753:20806  decompress_g2(compressedProof[2], compressedProof[1]) */\n      tag_64\n        /* \"https://github.com/succinctlabs/sp1-contracts/blob/main/contracts/src/v3.0.0/Groth16Verifier.sol\":20767:20782  compressedProof */\n      dup10\n        /* \"https://github.com/succinctlabs/sp1-contracts/blob/main/contracts/src/v3.0.0/Groth16Verifier.sol\":20783:20784  2 */\n      0x02\n        /* \"https://github.com/succinctlabs/sp1-contracts/blob/main/contracts/src/v3.0.0/Groth16Verifier.sol\":20767:20785  compressedProof[2] */\n      0x04\n      dup2\n      lt\n      tag_65\n      jumpi\n      tag_66\n      tag_26\n      jump\t// in\n    tag_66:\n    tag_65:\n      0x20\n      mul\n      add\n      calldataload\n        /* \"https://github.com/succinctlabs/sp1-contracts/blob/main/contracts/src/v3.0.0/Groth16Verifier.sol\":20787:20802  compressedProof */\n      dup11\n        /* \"https://github.com/succinctlabs/sp1-contracts/blob/main/contracts/src/v3.0.0/Groth16Verifier.sol\":20803:20804  1 */\n      0x01\n        /* \"https://github.com/succinctlabs/sp1-contracts/blob/main/contracts/src/v3.0.0/Groth16Verifier.sol\":20787:20805  compressedProof[1] */\n      0x04\n      dup2\n      lt\n      tag_67\n      jumpi\n      tag_68\n      tag_26\n      jump\t// in\n    tag_68:\n    tag_67:\n      0x20\n      mul\n      add\n      calldataload\n        /* \"https://github.com/succinctlabs/sp1-contracts/blob/main/contracts/src/v3.0.0/Groth16Verifier.sol\":20753:20766  decompress_g2 */\n      tag_69\n        /* \"https://github.com/succinctlabs/sp1-contracts/blob/main/contracts/src/v3.0.0/Groth16Verifier.sol\":20753:20806  decompress_g2(compressedProof[2], compressedProof[1]) */\n      jump\t// in\n    tag_64:\n        /* \"https://github.com/succinctlabs/sp1-contracts/blob/main/contracts/src/v3.0.0/Groth16Verifier.sol\":20682:20806  (uint256 Bx0, uint256 Bx1, uint256 By0, uint256 By1) =... */\n      swap4\n      pop\n      swap4\n      pop\n      swap4\n      pop\n      swap4\n      pop\n        /* \"https://github.com/succinctlabs/sp1-contracts/blob/main/contracts/src/v3.0.0/Groth16Verifier.sol\":20821:20831  uint256 Cx */\n      0x00\n        /* \"https://github.com/succinctlabs/sp1-contracts/blob/main/contracts/src/v3.0.0/Groth16Verifier.sol\":20833:20843  uint256 Cy */\n      0x00\n        /* \"https://github.com/succinctlabs/sp1-contracts/blob/main/contracts/src/v3.0.0/Groth16Verifier.sol\":20847:20880  decompress_g1(compressedProof[3]) */\n      tag_70\n        /* \"https://github.com/succinctlabs/sp1-contracts/blob/main/contracts/src/v3.0.0/Groth16Verifier.sol\":20861:20876  compressedProof */\n      dup12\n        /* \"https://github.com/succinctlabs/sp1-contracts/blob/main/contracts/src/v3.0.0/Groth16Verifier.sol\":20877:20878  3 */\n      0x03\n        /* \"https://github.com/succinctlabs/sp1-contracts/blob/main/contracts/src/v3.0.0/Groth16Verifier.sol\":20861:20879  compressedProof[3] */\n      0x04\n      dup2\n      lt\n      tag_71\n      jumpi\n      tag_72\n      tag_26\n      jump\t// in\n    tag_72:\n    tag_71:\n      0x20\n      mul\n      add\n      calldataload\n        /* \"https://github.com/succinctlabs/sp1-contracts/blob/main/contracts/src/v3.0.0/Groth16Verifier.sol\":20847:20860  decompress_g1 */\n      tag_63\n        /* \"https://github.com/succinctlabs/sp1-contracts/blob/main/contracts/src/v3.0.0/Groth16Verifier.sol\":20847:20880  decompress_g1(compressedProof[3]) */\n      jump\t// in\n    tag_70:\n        /* \"https://github.com/succinctlabs/sp1-contracts/blob/main/contracts/src/v3.0.0/Groth16Verifier.sol\":20820:20880  (uint256 Cx, uint256 Cy) = decompress_g1(compressedProof[3]) */\n      swap2\n      pop\n      swap2\n      pop\n        /* \"https://github.com/succinctlabs/sp1-contracts/blob/main/contracts/src/v3.0.0/Groth16Verifier.sol\":20895:20905  uint256 Lx */\n      0x00\n        /* \"https://github.com/succinctlabs/sp1-contracts/blob/main/contracts/src/v3.0.0/Groth16Verifier.sol\":20907:20917  uint256 Ly */\n      0x00\n        /* \"https://github.com/succinctlabs/sp1-contracts/blob/main/contracts/src/v3.0.0/Groth16Verifier.sol\":20921:20942  publicInputMSM(input) */\n      tag_73\n        /* \"https://github.com/succinctlabs/sp1-contracts/blob/main/contracts/src/v3.0.0/Groth16Verifier.sol\":20936:20941  input */\n      dup13\n        /* \"https://github.com/succinctlabs/sp1-contracts/blob/main/contracts/src/v3.0.0/Groth16Verifier.sol\":20921:20935  publicInputMSM */\n      tag_55\n        /* \"https://github.com/succinctlabs/sp1-contracts/blob/main/contracts/src/v3.0.0/Groth16Verifier.sol\":20921:20942  publicInputMSM(input) */\n      jump\t// in\n    tag_73:\n        /* \"https://github.com/succinctlabs/sp1-contracts/blob/main/contracts/src/v3.0.0/Groth16Verifier.sol\":20894:20942  (uint256 Lx, uint256 Ly) = publicInputMSM(input) */\n      swap2\n      pop\n      swap2\n      pop\n        /* \"https://github.com/succinctlabs/sp1-contracts/blob/main/contracts/src/v3.0.0/Groth16Verifier.sol\":21212:21214  Ax */\n      dup10\n        /* \"https://github.com/succinctlabs/sp1-contracts/blob/main/contracts/src/v3.0.0/Groth16Verifier.sol\":21198:21206  pairings */\n      dup12\n        /* \"https://github.com/succinctlabs/sp1-contracts/blob/main/contracts/src/v3.0.0/Groth16Verifier.sol\":21207:21208  0 */\n      0x00\n        /* \"https://github.com/succinctlabs/sp1-contracts/blob/main/contracts/src/v3.0.0/Groth16Verifier.sol\":21198:21209  pairings[0] */\n      0x18\n      dup2\n      lt\n      tag_74\n      jumpi\n      tag_75\n      tag_26\n      jump\t// in\n    tag_75:\n    tag_74:\n      0x20\n      mul\n      add\n        /* \"https://github.com/succinctlabs/sp1-contracts/blob/main/contracts/src/v3.0.0/Groth16Verifier.sol\":21198:21214  pairings[0] = Ax */\n      dup2\n      dup2\n      mstore\n      pop\n      pop\n        /* \"https://github.com/succinctlabs/sp1-contracts/blob/main/contracts/src/v3.0.0/Groth16Verifier.sol\":21242:21244  Ay */\n      dup9\n        /* \"https://github.com/succinctlabs/sp1-contracts/blob/main/contracts/src/v3.0.0/Groth16Verifier.sol\":21228:21236  pairings */\n      dup12\n        /* \"https://github.com/succinctlabs/sp1-contracts/blob/main/contracts/src/v3.0.0/Groth16Verifier.sol\":21237:21238  1 */\n      0x01\n        /* \"https://github.com/succinctlabs/sp1-contracts/blob/main/contracts/src/v3.0.0/Groth16Verifier.sol\":21228:21239  pairings[1] */\n      0x18\n      dup2\n      lt\n      tag_76\n      jumpi\n      tag_77\n      tag_26\n      jump\t// in\n    tag_77:\n    tag_76:\n      0x20\n      mul\n      add\n        /* \"https://github.com/succinctlabs/sp1-contracts/blob/main/contracts/src/v3.0.0/Groth16Verifier.sol\":21228:21244  pairings[1] = Ay */\n      dup2\n      dup2\n      mstore\n      pop\n      pop\n        /* \"https://github.com/succinctlabs/sp1-contracts/blob/main/contracts/src/v3.0.0/Groth16Verifier.sol\":21272:21275  Bx1 */\n      dup7\n        /* \"https://github.com/succinctlabs/sp1-contracts/blob/main/contracts/src/v3.0.0/Groth16Verifier.sol\":21258:21266  pairings */\n      dup12\n        /* \"https://github.com/succinctlabs/sp1-contracts/blob/main/contracts/src/v3.0.0/Groth16Verifier.sol\":21267:21268  2 */\n      0x02\n        /* \"https://github.com/succinctlabs/sp1-contracts/blob/main/contracts/src/v3.0.0/Groth16Verifier.sol\":21258:21269  pairings[2] */\n      0x18\n      dup2\n      lt\n      tag_78\n      jumpi\n      tag_79\n      tag_26\n      jump\t// in\n    tag_79:\n    tag_78:\n      0x20\n      mul\n      add\n        /* \"https://github.com/succinctlabs/sp1-contracts/blob/main/contracts/src/v3.0.0/Groth16Verifier.sol\":21258:21275  pairings[2] = Bx1 */\n      dup2\n      dup2\n      mstore\n      pop\n      pop\n        /* \"https://github.com/succinctlabs/sp1-contracts/blob/main/contracts/src/v3.0.0/Groth16Verifier.sol\":21303:21306  Bx0 */\n      dup8\n        /* \"https://github.com/succinctlabs/sp1-contracts/blob/main/contracts/src/v3.0.0/Groth16Verifier.sol\":21289:21297  pairings */\n      dup12\n        /* \"https://github.com/succinctlabs/sp1-contracts/blob/main/contracts/src/v3.0.0/Groth16Verifier.sol\":21298:21299  3 */\n      0x03\n        /* \"https://github.com/succinctlabs/sp1-contracts/blob/main/contracts/src/v3.0.0/Groth16Verifier.sol\":21289:21300  pairings[3] */\n      0x18\n      dup2\n      lt\n      tag_80\n      jumpi\n      tag_81\n      tag_26\n      jump\t// in\n    tag_81:\n    tag_80:\n      0x20\n      mul\n      add\n        /* \"https://github.com/succinctlabs/sp1-contracts/blob/main/contracts/src/v3.0.0/Groth16Verifier.sol\":21289:21306  pairings[3] = Bx0 */\n      dup2\n      dup2\n      mstore\n      pop\n      pop\n        /* \"https://github.com/succinctlabs/sp1-contracts/blob/main/contracts/src/v3.0.0/Groth16Verifier.sol\":21334:21337  By1 */\n      dup5\n        /* \"https://github.com/succinctlabs/sp1-contracts/blob/main/contracts/src/v3.0.0/Groth16Verifier.sol\":21320:21328  pairings */\n      dup12\n        /* \"https://github.com/succinctlabs/sp1-contracts/blob/main/contracts/src/v3.0.0/Groth16Verifier.sol\":21329:21330  4 */\n      0x04\n        /* \"https://github.com/succinctlabs/sp1-contracts/blob/main/contracts/src/v3.0.0/Groth16Verifier.sol\":21320:21331  pairings[4] */\n      0x18\n      dup2\n      lt\n      tag_82\n      jumpi\n      tag_83\n      tag_26\n      jump\t// in\n    tag_83:\n    tag_82:\n      0x20\n      mul\n      add\n        /* \"https://github.com/succinctlabs/sp1-contracts/blob/main/contracts/src/v3.0.0/Groth16Verifier.sol\":21320:21337  pairings[4] = By1 */\n      dup2\n      dup2\n      mstore\n      pop\n      pop\n        /* \"https://github.com/succinctlabs/sp1-contracts/blob/main/contracts/src/v3.0.0/Groth16Verifier.sol\":21365:21368  By0 */\n      dup6\n        /* \"https://github.com/succinctlabs/sp1-contracts/blob/main/contracts/src/v3.0.0/Groth16Verifier.sol\":21351:21359  pairings */\n      dup12\n        /* \"https://github.com/succinctlabs/sp1-contracts/blob/main/contracts/src/v3.0.0/Groth16Verifier.sol\":21360:21361  5 */\n      0x05\n        /* \"https://github.com/succinctlabs/sp1-contracts/blob/main/contracts/src/v3.0.0/Groth16Verifier.sol\":21351:21362  pairings[5] */\n      0x18\n      dup2\n      lt\n      tag_84\n      jumpi\n      tag_85\n      tag_26\n      jump\t// in\n    tag_85:\n    tag_84:\n      0x20\n      mul\n      add\n        /* \"https://github.com/succinctlabs/sp1-contracts/blob/main/contracts/src/v3.0.0/Groth16Verifier.sol\":21351:21368  pairings[5] = By0 */\n      dup2\n      dup2\n      mstore\n      pop\n      pop\n        /* \"https://github.com/succinctlabs/sp1-contracts/blob/main/contracts/src/v3.0.0/Groth16Verifier.sol\":21421:21423  Cx */\n      dup4\n        /* \"https://github.com/succinctlabs/sp1-contracts/blob/main/contracts/src/v3.0.0/Groth16Verifier.sol\":21407:21415  pairings */\n      dup12\n        /* \"https://github.com/succinctlabs/sp1-contracts/blob/main/contracts/src/v3.0.0/Groth16Verifier.sol\":21416:21417  6 */\n      0x06\n        /* \"https://github.com/succinctlabs/sp1-contracts/blob/main/contracts/src/v3.0.0/Groth16Verifier.sol\":21407:21418  pairings[6] */\n      0x18\n      dup2\n      lt\n      tag_86\n      jumpi\n      tag_87\n      tag_26\n      jump\t// in\n    tag_87:\n    tag_86:\n      0x20\n      mul\n      add\n        /* \"https://github.com/succinctlabs/sp1-contracts/blob/main/contracts/src/v3.0.0/Groth16Verifier.sol\":21407:21423  pairings[6] = Cx */\n      dup2\n      dup2\n      mstore\n      pop\n      pop\n        /* \"https://github.com/succinctlabs/sp1-contracts/blob/main/contracts/src/v3.0.0/Groth16Verifier.sol\":21451:21453  Cy */\n      dup3\n        /* \"https://github.com/succinctlabs/sp1-contracts/blob/main/contracts/src/v3.0.0/Groth16Verifier.sol\":21437:21445  pairings */\n      dup12\n        /* \"https://github.com/succinctlabs/sp1-contracts/blob/main/contracts/src/v3.0.0/Groth16Verifier.sol\":21446:21447  7 */\n      0x07\n        /* \"https://github.com/succinctlabs/sp1-contracts/blob/main/contracts/src/v3.0.0/Groth16Verifier.sol\":21437:21448  pairings[7] */\n      0x18\n      dup2\n      lt\n      tag_88\n      jumpi\n      tag_89\n      tag_26\n      jump\t// in\n    tag_89:\n    tag_88:\n      0x20\n      mul\n      add\n        /* \"https://github.com/succinctlabs/sp1-contracts/blob/main/contracts/src/v3.0.0/Groth16Verifier.sol\":21437:21453  pairings[7] = Cy */\n      dup2\n      dup2\n      mstore\n      pop\n      pop\n        /* \"https://github.com/succinctlabs/sp1-contracts/blob/main/contracts/src/v3.0.0/Groth16Verifier.sol\":4277:4354  15228921016905275799965683851057599185732146900672862119304638397355443707454 */\n      0x21ab438b0ad9688f8d9afc96ed0ab25e6ab7f19ed6f7d58a9dc136d68de55e3e\n        /* \"https://github.com/succinctlabs/sp1-contracts/blob/main/contracts/src/v3.0.0/Groth16Verifier.sol\":21467:21475  pairings */\n      dup12\n        /* \"https://github.com/succinctlabs/sp1-contracts/blob/main/contracts/src/v3.0.0/Groth16Verifier.sol\":21476:21477  8 */\n      0x08\n        /* \"https://github.com/succinctlabs/sp1-contracts/blob/main/contracts/src/v3.0.0/Groth16Verifier.sol\":21467:21478  pairings[8] */\n      0x18\n      dup2\n      lt\n      tag_90\n      jumpi\n      tag_91\n      tag_26\n      jump\t// in\n    tag_91:\n    tag_90:\n      0x20\n      mul\n      add\n        /* \"https://github.com/succinctlabs/sp1-contracts/blob/main/contracts/src/v3.0.0/Groth16Verifier.sol\":21467:21494  pairings[8] = DELTA_NEG_X_1 */\n      dup2\n      dup2\n      mstore\n      pop\n      pop\n        /* \"https://github.com/succinctlabs/sp1-contracts/blob/main/contracts/src/v3.0.0/Groth16Verifier.sol\":4153:4230  20409334339251888712441068872870136503388893688417321778880931483231354129143 */\n      0x2d1f461ca03a65528393919e9e412f6b82d7096e44fa039bd7642a5112188af7\n        /* \"https://github.com/succinctlabs/sp1-contracts/blob/main/contracts/src/v3.0.0/Groth16Verifier.sol\":21508:21516  pairings */\n      dup12\n        /* \"https://github.com/succinctlabs/sp1-contracts/blob/main/contracts/src/v3.0.0/Groth16Verifier.sol\":21517:21518  9 */\n      0x09\n        /* \"https://github.com/succinctlabs/sp1-contracts/blob/main/contracts/src/v3.0.0/Groth16Verifier.sol\":21508:21519  pairings[9] */\n      0x18\n      dup2\n      lt\n      tag_92\n      jumpi\n      tag_93\n      tag_26\n      jump\t// in\n    tag_93:\n    tag_92:\n      0x20\n      mul\n      add\n        /* \"https://github.com/succinctlabs/sp1-contracts/blob/main/contracts/src/v3.0.0/Groth16Verifier.sol\":21508:21535  pairings[9] = DELTA_NEG_X_0 */\n      dup2\n      dup2\n      mstore\n      pop\n      pop\n        /* \"https://github.com/succinctlabs/sp1-contracts/blob/main/contracts/src/v3.0.0/Groth16Verifier.sol\":4525:4601  7264328423023871043957062501982202910010974353266020262517510882033855725085 */\n      0x100f76d4ac45886c1334d58716121dc0ffa8463738f3f2adf793e15b8ecd7e1d\n        /* \"https://github.com/succinctlabs/sp1-contracts/blob/main/contracts/src/v3.0.0/Groth16Verifier.sol\":21549:21557  pairings */\n      dup12\n        /* \"https://github.com/succinctlabs/sp1-contracts/blob/main/contracts/src/v3.0.0/Groth16Verifier.sol\":21558:21560  10 */\n      0x0a\n        /* \"https://github.com/succinctlabs/sp1-contracts/blob/main/contracts/src/v3.0.0/Groth16Verifier.sol\":21549:21561  pairings[10] */\n      0x18\n      dup2\n      lt\n      tag_94\n      jumpi\n      tag_95\n      tag_26\n      jump\t// in\n    tag_95:\n    tag_94:\n      0x20\n      mul\n      add\n        /* \"https://github.com/succinctlabs/sp1-contracts/blob/main/contracts/src/v3.0.0/Groth16Verifier.sol\":21549:21577  pairings[10] = DELTA_NEG_Y_1 */\n      dup2\n      dup2\n      mstore\n      pop\n      pop\n        /* \"https://github.com/succinctlabs/sp1-contracts/blob/main/contracts/src/v3.0.0/Groth16Verifier.sol\":4401:4478  19877240297427940090516929163964707799250026674662843458659550601453241207282 */\n      0x2bf21e8bb2f9419034373c2156cdd7bddf273519dcd7f674ef21e2748ced89f2\n        /* \"https://github.com/succinctlabs/sp1-contracts/blob/main/contracts/src/v3.0.0/Groth16Verifier.sol\":21591:21599  pairings */\n      dup12\n        /* \"https://github.com/succinctlabs/sp1-contracts/blob/main/contracts/src/v3.0.0/Groth16Verifier.sol\":21600:21602  11 */\n      0x0b\n        /* \"https://github.com/succinctlabs/sp1-contracts/blob/main/contracts/src/v3.0.0/Groth16Verifier.sol\":21591:21603  pairings[11] */\n      0x18\n      dup2\n      lt\n      tag_96\n      jumpi\n      tag_97\n      tag_26\n      jump\t// in\n    tag_97:\n    tag_96:\n      0x20\n      mul\n      add\n        /* \"https://github.com/succinctlabs/sp1-contracts/blob/main/contracts/src/v3.0.0/Groth16Verifier.sol\":21591:21619  pairings[11] = DELTA_NEG_Y_0 */\n      dup2\n      dup2\n      mstore\n      pop\n      pop\n        /* \"https://github.com/succinctlabs/sp1-contracts/blob/main/contracts/src/v3.0.0/Groth16Verifier.sol\":2783:2860  20491192805390485299153009773594534940189261866228447918068658471970481763042 */\n      0x2d4d9aa7e302d9df41749d5507949d05dbea33fbb16c643b22f599a2be6df2e2\n        /* \"https://github.com/succinctlabs/sp1-contracts/blob/main/contracts/src/v3.0.0/Groth16Verifier.sol\":21659:21667  pairings */\n      dup12\n        /* \"https://github.com/succinctlabs/sp1-contracts/blob/main/contracts/src/v3.0.0/Groth16Verifier.sol\":21668:21670  12 */\n      0x0c\n        /* \"https://github.com/succinctlabs/sp1-contracts/blob/main/contracts/src/v3.0.0/Groth16Verifier.sol\":21659:21671  pairings[12] */\n      0x18\n      dup2\n      lt\n      tag_98\n      jumpi\n      tag_99\n      tag_26\n      jump\t// in\n    tag_99:\n    tag_98:\n      0x20\n      mul\n      add\n        /* \"https://github.com/succinctlabs/sp1-contracts/blob/main/contracts/src/v3.0.0/Groth16Verifier.sol\":21659:21681  pairings[12] = ALPHA_X */\n      dup2\n      dup2\n      mstore\n      pop\n      pop\n        /* \"https://github.com/succinctlabs/sp1-contracts/blob/main/contracts/src/v3.0.0/Groth16Verifier.sol\":2901:2977  9383485363053290200918347156157836566562967994039712273449902621266178545958 */\n      0x14bedd503c37ceb061d8ec60209fe345ce89830a19230301f076caff004d1926\n        /* \"https://github.com/succinctlabs/sp1-contracts/blob/main/contracts/src/v3.0.0/Groth16Verifier.sol\":21695:21703  pairings */\n      dup12\n        /* \"https://github.com/succinctlabs/sp1-contracts/blob/main/contracts/src/v3.0.0/Groth16Verifier.sol\":21704:21706  13 */\n      0x0d\n        /* \"https://github.com/succinctlabs/sp1-contracts/blob/main/contracts/src/v3.0.0/Groth16Verifier.sol\":21695:21707  pairings[13] */\n      0x18\n      dup2\n      lt\n      tag_100\n      jumpi\n      tag_101\n      tag_26\n      jump\t// in\n    tag_101:\n    tag_100:\n      0x20\n      mul\n      add\n        /* \"https://github.com/succinctlabs/sp1-contracts/blob/main/contracts/src/v3.0.0/Groth16Verifier.sol\":21695:21717  pairings[13] = ALPHA_Y */\n      dup2\n      dup2\n      mstore\n      pop\n      pop\n        /* \"https://github.com/succinctlabs/sp1-contracts/blob/main/contracts/src/v3.0.0/Groth16Verifier.sol\":3193:3269  4252822878758300859123897981450591353533073413197771768651442665752259397132 */\n      0x0967032fcbf776d1afc985f88877f182d38480a653f2decaa9794cbc3bf3060c\n        /* \"https://github.com/succinctlabs/sp1-contracts/blob/main/contracts/src/v3.0.0/Groth16Verifier.sol\":21731:21739  pairings */\n      dup12\n        /* \"https://github.com/succinctlabs/sp1-contracts/blob/main/contracts/src/v3.0.0/Groth16Verifier.sol\":21740:21742  14 */\n      0x0e\n        /* \"https://github.com/succinctlabs/sp1-contracts/blob/main/contracts/src/v3.0.0/Groth16Verifier.sol\":21731:21743  pairings[14] */\n      0x18\n      dup2\n      lt\n      tag_102\n      jumpi\n      tag_103\n      tag_26\n      jump\t// in\n    tag_103:\n    tag_102:\n      0x20\n      mul\n      add\n        /* \"https://github.com/succinctlabs/sp1-contracts/blob/main/contracts/src/v3.0.0/Groth16Verifier.sol\":21731:21758  pairings[14] = BETA_NEG_X_1 */\n      dup2\n      dup2\n      mstore\n      pop\n      pop\n        /* \"https://github.com/succinctlabs/sp1-contracts/blob/main/contracts/src/v3.0.0/Groth16Verifier.sol\":3071:3147  6375614351688725206403948262868962793625744043794305715222011528459656738731 */\n      0x0e187847ad4c798374d0d6732bf501847dd68bc0e071241e0213bc7fc13db7ab\n        /* \"https://github.com/succinctlabs/sp1-contracts/blob/main/contracts/src/v3.0.0/Groth16Verifier.sol\":21772:21780  pairings */\n      dup12\n        /* \"https://github.com/succinctlabs/sp1-contracts/blob/main/contracts/src/v3.0.0/Groth16Verifier.sol\":21781:21783  15 */\n      0x0f\n        /* \"https://github.com/succinctlabs/sp1-contracts/blob/main/contracts/src/v3.0.0/Groth16Verifier.sol\":21772:21784  pairings[15] */\n      0x18\n      dup2\n      lt\n      tag_104\n      jumpi\n      tag_105\n      tag_26\n      jump\t// in\n    tag_105:\n    tag_104:\n      0x20\n      mul\n      add\n        /* \"https://github.com/succinctlabs/sp1-contracts/blob/main/contracts/src/v3.0.0/Groth16Verifier.sol\":21772:21799  pairings[15] = BETA_NEG_X_0 */\n      dup2\n      dup2\n      mstore\n      pop\n      pop\n        /* \"https://github.com/succinctlabs/sp1-contracts/blob/main/contracts/src/v3.0.0/Groth16Verifier.sol\":3438:3512  41207766310529818958173054109690360505148424997958324311878202295167071904 */\n      0x1752a100a72fdf1e5a5d6ea841cc20ec838bccfcf7bd559e79f1c9c759b6a0\n        /* \"https://github.com/succinctlabs/sp1-contracts/blob/main/contracts/src/v3.0.0/Groth16Verifier.sol\":21813:21821  pairings */\n      dup12\n        /* \"https://github.com/succinctlabs/sp1-contracts/blob/main/contracts/src/v3.0.0/Groth16Verifier.sol\":21822:21824  16 */\n      0x10\n        /* \"https://github.com/succinctlabs/sp1-contracts/blob/main/contracts/src/v3.0.0/Groth16Verifier.sol\":21813:21825  pairings[16] */\n      0x18\n      dup2\n      lt\n      tag_106\n      jumpi\n      tag_107\n      tag_26\n      jump\t// in\n    tag_107:\n    tag_106:\n      0x20\n      mul\n      add\n        /* \"https://github.com/succinctlabs/sp1-contracts/blob/main/contracts/src/v3.0.0/Groth16Verifier.sol\":21813:21840  pairings[16] = BETA_NEG_Y_1 */\n      dup2\n      dup2\n      mstore\n      pop\n      pop\n        /* \"https://github.com/succinctlabs/sp1-contracts/blob/main/contracts/src/v3.0.0/Groth16Verifier.sol\":3315:3392  11383000245469012944693504663162918391286475477077232690815866754273895001727 */\n      0x192a8cc13cd9f762871f21e43451c6ca9eeab2cb2987c4e366a185c25dac2e7f\n        /* \"https://github.com/succinctlabs/sp1-contracts/blob/main/contracts/src/v3.0.0/Groth16Verifier.sol\":21854:21862  pairings */\n      dup12\n        /* \"https://github.com/succinctlabs/sp1-contracts/blob/main/contracts/src/v3.0.0/Groth16Verifier.sol\":21863:21865  17 */\n      0x11\n        /* \"https://github.com/succinctlabs/sp1-contracts/blob/main/contracts/src/v3.0.0/Groth16Verifier.sol\":21854:21866  pairings[17] */\n      0x18\n      dup2\n      lt\n      tag_108\n      jumpi\n      tag_109\n      tag_26\n      jump\t// in\n    tag_109:\n    tag_108:\n      0x20\n      mul\n      add\n        /* \"https://github.com/succinctlabs/sp1-contracts/blob/main/contracts/src/v3.0.0/Groth16Verifier.sol\":21854:21881  pairings[17] = BETA_NEG_Y_0 */\n      dup2\n      dup2\n      mstore\n      pop\n      pop\n        /* \"https://github.com/succinctlabs/sp1-contracts/blob/main/contracts/src/v3.0.0/Groth16Verifier.sol\":21939:21941  Lx */\n      dup2\n        /* \"https://github.com/succinctlabs/sp1-contracts/blob/main/contracts/src/v3.0.0/Groth16Verifier.sol\":21924:21932  pairings */\n      dup12\n        /* \"https://github.com/succinctlabs/sp1-contracts/blob/main/contracts/src/v3.0.0/Groth16Verifier.sol\":21933:21935  18 */\n      0x12\n        /* \"https://github.com/succinctlabs/sp1-contracts/blob/main/contracts/src/v3.0.0/Groth16Verifier.sol\":21924:21936  pairings[18] */\n      0x18\n      dup2\n      lt\n      tag_110\n      jumpi\n      tag_111\n      tag_26\n      jump\t// in\n    tag_111:\n    tag_110:\n      0x20\n      mul\n      add\n        /* \"https://github.com/succinctlabs/sp1-contracts/blob/main/contracts/src/v3.0.0/Groth16Verifier.sol\":21924:21941  pairings[18] = Lx */\n      dup2\n      dup2\n      mstore\n      pop\n      pop\n        /* \"https://github.com/succinctlabs/sp1-contracts/blob/main/contracts/src/v3.0.0/Groth16Verifier.sol\":21970:21972  Ly */\n      dup1\n        /* \"https://github.com/succinctlabs/sp1-contracts/blob/main/contracts/src/v3.0.0/Groth16Verifier.sol\":21955:21963  pairings */\n      dup12\n        /* \"https://github.com/succinctlabs/sp1-contracts/blob/main/contracts/src/v3.0.0/Groth16Verifier.sol\":21964:21966  19 */\n      0x13\n        /* \"https://github.com/succinctlabs/sp1-contracts/blob/main/contracts/src/v3.0.0/Groth16Verifier.sol\":21955:21967  pairings[19] */\n      0x18\n      dup2\n      lt\n      tag_112\n      jumpi\n      tag_113\n      tag_26\n      jump\t// in\n    tag_113:\n    tag_112:\n      0x20\n      mul\n      add\n        /* \"https://github.com/succinctlabs/sp1-contracts/blob/main/contracts/src/v3.0.0/Groth16Verifier.sol\":21955:21972  pairings[19] = Ly */\n      dup2\n      dup2\n      mstore\n      pop\n      pop\n        /* \"https://github.com/succinctlabs/sp1-contracts/blob/main/contracts/src/v3.0.0/Groth16Verifier.sol\":3732:3809  11559732032986387107991004021392285783925812861821192530917403151452391805634 */\n      0x198e9393920d483a7260bfb731fb5d25f1aa493335a9e71297e485b7aef312c2\n        /* \"https://github.com/succinctlabs/sp1-contracts/blob/main/contracts/src/v3.0.0/Groth16Verifier.sol\":21986:21994  pairings */\n      dup12\n        /* \"https://github.com/succinctlabs/sp1-contracts/blob/main/contracts/src/v3.0.0/Groth16Verifier.sol\":21995:21997  20 */\n      0x14\n        /* \"https://github.com/succinctlabs/sp1-contracts/blob/main/contracts/src/v3.0.0/Groth16Verifier.sol\":21986:21998  pairings[20] */\n      0x18\n      dup2\n      lt\n      tag_114\n      jumpi\n      tag_115\n      tag_26\n      jump\t// in\n    tag_115:\n    tag_114:\n      0x20\n      mul\n      add\n        /* \"https://github.com/succinctlabs/sp1-contracts/blob/main/contracts/src/v3.0.0/Groth16Verifier.sol\":21986:22014  pairings[20] = GAMMA_NEG_X_1 */\n      dup2\n      dup2\n      mstore\n      pop\n      pop\n        /* \"https://github.com/succinctlabs/sp1-contracts/blob/main/contracts/src/v3.0.0/Groth16Verifier.sol\":3608:3685  10857046999023057135944570762232829481370756359578518086990519993285655852781 */\n      0x1800deef121f1e76426a00665e5c4479674322d4f75edadd46debd5cd992f6ed\n        /* \"https://github.com/succinctlabs/sp1-contracts/blob/main/contracts/src/v3.0.0/Groth16Verifier.sol\":22028:22036  pairings */\n      dup12\n        /* \"https://github.com/succinctlabs/sp1-contracts/blob/main/contracts/src/v3.0.0/Groth16Verifier.sol\":22037:22039  21 */\n      0x15\n        /* \"https://github.com/succinctlabs/sp1-contracts/blob/main/contracts/src/v3.0.0/Groth16Verifier.sol\":22028:22040  pairings[21] */\n      0x18\n      dup2\n      lt\n      tag_116\n      jumpi\n      tag_117\n      tag_26\n      jump\t// in\n    tag_117:\n    tag_116:\n      0x20\n      mul\n      add\n        /* \"https://github.com/succinctlabs/sp1-contracts/blob/main/contracts/src/v3.0.0/Groth16Verifier.sol\":22028:22056  pairings[21] = GAMMA_NEG_X_0 */\n      dup2\n      dup2\n      mstore\n      pop\n      pop\n        /* \"https://github.com/succinctlabs/sp1-contracts/blob/main/contracts/src/v3.0.0/Groth16Verifier.sol\":3980:4057  17805874995975841540914202342111839520379459829704422454583296818431106115052 */\n      0x275dc4a288d1afb3cbb1ac09187524c7db36395df7be3b99e673b13a075a65ec\n        /* \"https://github.com/succinctlabs/sp1-contracts/blob/main/contracts/src/v3.0.0/Groth16Verifier.sol\":22070:22078  pairings */\n      dup12\n        /* \"https://github.com/succinctlabs/sp1-contracts/blob/main/contracts/src/v3.0.0/Groth16Verifier.sol\":22079:22081  22 */\n      0x16\n        /* \"https://github.com/succinctlabs/sp1-contracts/blob/main/contracts/src/v3.0.0/Groth16Verifier.sol\":22070:22082  pairings[22] */\n      0x18\n      dup2\n      lt\n      tag_118\n      jumpi\n      tag_119\n      tag_26\n      jump\t// in\n    tag_119:\n    tag_118:\n      0x20\n      mul\n      add\n        /* \"https://github.com/succinctlabs/sp1-contracts/blob/main/contracts/src/v3.0.0/Groth16Verifier.sol\":22070:22098  pairings[22] = GAMMA_NEG_Y_1 */\n      dup2\n      dup2\n      mstore\n      pop\n      pop\n        /* \"https://github.com/succinctlabs/sp1-contracts/blob/main/contracts/src/v3.0.0/Groth16Verifier.sol\":3856:3933  13392588948715843804641432497768002650278120570034223513918757245338268106653 */\n      0x1d9befcd05a5323e6da4d435f3b617cdb3af83285c2df711ef39c01571827f9d\n        /* \"https://github.com/succinctlabs/sp1-contracts/blob/main/contracts/src/v3.0.0/Groth16Verifier.sol\":22112:22120  pairings */\n      dup12\n        /* \"https://github.com/succinctlabs/sp1-contracts/blob/main/contracts/src/v3.0.0/Groth16Verifier.sol\":22121:22123  23 */\n      0x17\n        /* \"https://github.com/succinctlabs/sp1-contracts/blob/main/contracts/src/v3.0.0/Groth16Verifier.sol\":22112:22124  pairings[23] */\n      0x18\n      dup2\n      lt\n      tag_120\n      jumpi\n      tag_121\n      tag_26\n      jump\t// in\n    tag_121:\n    tag_120:\n      0x20\n      mul\n      add\n        /* \"https://github.com/succinctlabs/sp1-contracts/blob/main/contracts/src/v3.0.0/Groth16Verifier.sol\":22112:22140  pairings[23] = GAMMA_NEG_Y_0 */\n      dup2\n      dup2\n      mstore\n      pop\n      pop\n        /* \"https://github.com/succinctlabs/sp1-contracts/blob/main/contracts/src/v3.0.0/Groth16Verifier.sol\":22194:22206  bool success */\n      0x00\n        /* \"https://github.com/succinctlabs/sp1-contracts/blob/main/contracts/src/v3.0.0/Groth16Verifier.sol\":22220:22244  uint256[1] memory output */\n      tag_122\n      tag_123\n      jump\t// in\n    tag_122:\n        /* \"https://github.com/succinctlabs/sp1-contracts/blob/main/contracts/src/v3.0.0/Groth16Verifier.sol\":22374:22378  0x20 */\n      0x20\n        /* \"https://github.com/succinctlabs/sp1-contracts/blob/main/contracts/src/v3.0.0/Groth16Verifier.sol\":22366:22372  output */\n      dup2\n        /* \"https://github.com/succinctlabs/sp1-contracts/blob/main/contracts/src/v3.0.0/Groth16Verifier.sol\":22359:22364  0x300 */\n      0x0300\n        /* \"https://github.com/succinctlabs/sp1-contracts/blob/main/contracts/src/v3.0.0/Groth16Verifier.sol\":22349:22357  pairings */\n      dup16\n        /* \"https://github.com/succinctlabs/sp1-contracts/blob/main/contracts/src/v3.0.0/Groth16Verifier.sol\":22330:22347  PRECOMPILE_VERIFY */\n      0x08\n        /* \"https://github.com/succinctlabs/sp1-contracts/blob/main/contracts/src/v3.0.0/Groth16Verifier.sol\":22323:22328  gas() */\n      gas\n        /* \"https://github.com/succinctlabs/sp1-contracts/blob/main/contracts/src/v3.0.0/Groth16Verifier.sol\":22312:22379  staticcall(gas(), PRECOMPILE_VERIFY, pairings, 0x300, output, 0x20) */\n      staticcall\n        /* \"https://github.com/succinctlabs/sp1-contracts/blob/main/contracts/src/v3.0.0/Groth16Verifier.sol\":22301:22379  success := staticcall(gas(), PRECOMPILE_VERIFY, pairings, 0x300, output, 0x20) */\n      swap2\n      pop\n        /* \"https://github.com/succinctlabs/sp1-contracts/blob/main/contracts/src/v3.0.0/Groth16Verifier.sol\":22411:22418  success */\n      dup2\n        /* \"https://github.com/succinctlabs/sp1-contracts/blob/main/contracts/src/v3.0.0/Groth16Verifier.sol\":22410:22418  !success */\n      iszero\n        /* \"https://github.com/succinctlabs/sp1-contracts/blob/main/contracts/src/v3.0.0/Groth16Verifier.sol\":22410:22436  !success || output[0] != 1 */\n      dup1\n      tag_124\n      jumpi\n      pop\n        /* \"https://github.com/succinctlabs/sp1-contracts/blob/main/contracts/src/v3.0.0/Groth16Verifier.sol\":22435:22436  1 */\n      0x01\n        /* \"https://github.com/succinctlabs/sp1-contracts/blob/main/contracts/src/v3.0.0/Groth16Verifier.sol\":22422:22428  output */\n      dup2\n        /* \"https://github.com/succinctlabs/sp1-contracts/blob/main/contracts/src/v3.0.0/Groth16Verifier.sol\":22429:22430  0 */\n      0x00\n        /* \"https://github.com/succinctlabs/sp1-contracts/blob/main/contracts/src/v3.0.0/Groth16Verifier.sol\":22422:22431  output[0] */\n      0x01\n      dup2\n      lt\n      tag_125\n      jumpi\n      tag_126\n      tag_26\n      jump\t// in\n    tag_126:\n    tag_125:\n      0x20\n      mul\n      add\n      mload\n        /* \"https://github.com/succinctlabs/sp1-contracts/blob/main/contracts/src/v3.0.0/Groth16Verifier.sol\":22422:22436  output[0] != 1 */\n      eq\n      iszero\n        /* \"https://github.com/succinctlabs/sp1-contracts/blob/main/contracts/src/v3.0.0/Groth16Verifier.sol\":22410:22436  !success || output[0] != 1 */\n    tag_124:\n        /* \"https://github.com/succinctlabs/sp1-contracts/blob/main/contracts/src/v3.0.0/Groth16Verifier.sol\":22406:22653  if (!success || output[0] != 1) {... */\n      iszero\n      tag_127\n      jumpi\n        /* \"https://github.com/succinctlabs/sp1-contracts/blob/main/contracts/src/v3.0.0/Groth16Verifier.sol\":22624:22638  ProofInvalid() */\n      mload(0x40)\n      0x7fcdd1f400000000000000000000000000000000000000000000000000000000\n      dup2\n      mstore\n      0x04\n      add\n      mload(0x40)\n      dup1\n      swap2\n      sub\n      swap1\n      revert\n        /* \"https://github.com/succinctlabs/sp1-contracts/blob/main/contracts/src/v3.0.0/Groth16Verifier.sol\":22406:22653  if (!success || output[0] != 1) {... */\n    tag_127:\n        /* \"https://github.com/succinctlabs/sp1-contracts/blob/main/contracts/src/v3.0.0/Groth16Verifier.sol\":20594:22663  {... */\n      pop\n      pop\n      pop\n      pop\n      pop\n      pop\n      pop\n      pop\n      pop\n      pop\n      pop\n      pop\n        /* \"https://github.com/succinctlabs/sp1-contracts/blob/main/contracts/src/v3.0.0/Groth16Verifier.sol\":20546:22669  {... */\n      pop\n        /* \"https://github.com/succinctlabs/sp1-contracts/blob/main/contracts/src/v3.0.0/Groth16Verifier.sol\":20419:22669  function verifyCompressedProof(uint256[4] calldata compressedProof, uint256[2] calldata input)... */\n      pop\n      pop\n      jump\t// out\n        /* \"https://github.com/succinctlabs/sp1-contracts/blob/main/contracts/src/v3.0.0/Groth16Verifier.sol\":9997:10697  function compress_g1(uint256 x, uint256 y) internal view returns (uint256 c) {... */\n    tag_29:\n        /* \"https://github.com/succinctlabs/sp1-contracts/blob/main/contracts/src/v3.0.0/Groth16Verifier.sol\":10063:10072  uint256 c */\n      0x00\n        /* \"https://github.com/succinctlabs/sp1-contracts/blob/main/contracts/src/v3.0.0/Groth16Verifier.sol\":1394:1460  0x30644e72e131a029b85045b68181585d97816a916871ca8d3c208c16d87cfd47 */\n      0x30644e72e131a029b85045b68181585d97816a916871ca8d3c208c16d87cfd47\n        /* \"https://github.com/succinctlabs/sp1-contracts/blob/main/contracts/src/v3.0.0/Groth16Verifier.sol\":10088:10089  x */\n      dup4\n        /* \"https://github.com/succinctlabs/sp1-contracts/blob/main/contracts/src/v3.0.0/Groth16Verifier.sol\":10088:10094  x >= P */\n      lt\n      iszero\n        /* \"https://github.com/succinctlabs/sp1-contracts/blob/main/contracts/src/v3.0.0/Groth16Verifier.sol\":10088:10104  x >= P || y >= P */\n      dup1\n      tag_129\n      jumpi\n      pop\n        /* \"https://github.com/succinctlabs/sp1-contracts/blob/main/contracts/src/v3.0.0/Groth16Verifier.sol\":1394:1460  0x30644e72e131a029b85045b68181585d97816a916871ca8d3c208c16d87cfd47 */\n      0x30644e72e131a029b85045b68181585d97816a916871ca8d3c208c16d87cfd47\n        /* \"https://github.com/succinctlabs/sp1-contracts/blob/main/contracts/src/v3.0.0/Groth16Verifier.sol\":10098:10099  y */\n      dup3\n        /* \"https://github.com/succinctlabs/sp1-contracts/blob/main/contracts/src/v3.0.0/Groth16Verifier.sol\":10098:10104  y >= P */\n      lt\n      iszero\n        /* \"https://github.com/succinctlabs/sp1-contracts/blob/main/contracts/src/v3.0.0/Groth16Verifier.sol\":10088:10104  x >= P || y >= P */\n    tag_129:\n        /* \"https://github.com/succinctlabs/sp1-contracts/blob/main/contracts/src/v3.0.0/Groth16Verifier.sol\":10084:10190  if (x >= P || y >= P) {... */\n      iszero\n      tag_130\n      jumpi\n        /* \"https://github.com/succinctlabs/sp1-contracts/blob/main/contracts/src/v3.0.0/Groth16Verifier.sol\":10165:10179  ProofInvalid() */\n      mload(0x40)\n      0x7fcdd1f400000000000000000000000000000000000000000000000000000000\n      dup2\n      mstore\n      0x04\n      add\n      mload(0x40)\n      dup1\n      swap2\n      sub\n      swap1\n      revert\n        /* \"https://github.com/succinctlabs/sp1-contracts/blob/main/contracts/src/v3.0.0/Groth16Verifier.sol\":10084:10190  if (x >= P || y >= P) {... */\n    tag_130:\n        /* \"https://github.com/succinctlabs/sp1-contracts/blob/main/contracts/src/v3.0.0/Groth16Verifier.sol\":10208:10209  0 */\n      0x00\n        /* \"https://github.com/succinctlabs/sp1-contracts/blob/main/contracts/src/v3.0.0/Groth16Verifier.sol\":10203:10204  x */\n      dup4\n        /* \"https://github.com/succinctlabs/sp1-contracts/blob/main/contracts/src/v3.0.0/Groth16Verifier.sol\":10203:10209  x == 0 */\n      eq\n        /* \"https://github.com/succinctlabs/sp1-contracts/blob/main/contracts/src/v3.0.0/Groth16Verifier.sol\":10203:10219  x == 0 && y == 0 */\n      dup1\n      iszero\n      tag_131\n      jumpi\n      pop\n        /* \"https://github.com/succinctlabs/sp1-contracts/blob/main/contracts/src/v3.0.0/Groth16Verifier.sol\":10218:10219  0 */\n      0x00\n        /* \"https://github.com/succinctlabs/sp1-contracts/blob/main/contracts/src/v3.0.0/Groth16Verifier.sol\":10213:10214  y */\n      dup3\n        /* \"https://github.com/succinctlabs/sp1-contracts/blob/main/contracts/src/v3.0.0/Groth16Verifier.sol\":10213:10219  y == 0 */\n      eq\n        /* \"https://github.com/succinctlabs/sp1-contracts/blob/main/contracts/src/v3.0.0/Groth16Verifier.sol\":10203:10219  x == 0 && y == 0 */\n    tag_131:\n        /* \"https://github.com/succinctlabs/sp1-contracts/blob/main/contracts/src/v3.0.0/Groth16Verifier.sol\":10199:10287  if (x == 0 && y == 0) {... */\n      iszero\n      tag_132\n      jumpi\n        /* \"https://github.com/succinctlabs/sp1-contracts/blob/main/contracts/src/v3.0.0/Groth16Verifier.sol\":10275:10276  0 */\n      0x00\n        /* \"https://github.com/succinctlabs/sp1-contracts/blob/main/contracts/src/v3.0.0/Groth16Verifier.sol\":10268:10276  return 0 */\n      swap1\n      pop\n      jump(tag_128)\n        /* \"https://github.com/succinctlabs/sp1-contracts/blob/main/contracts/src/v3.0.0/Groth16Verifier.sol\":10199:10287  if (x == 0 && y == 0) {... */\n    tag_132:\n        /* \"https://github.com/succinctlabs/sp1-contracts/blob/main/contracts/src/v3.0.0/Groth16Verifier.sol\":10389:10402  uint256 y_pos */\n      0x00\n        /* \"https://github.com/succinctlabs/sp1-contracts/blob/main/contracts/src/v3.0.0/Groth16Verifier.sol\":10405:10457  sqrt_Fp(addmod(mulmod(mulmod(x, x, P), x, P), 3, P)) */\n      tag_133\n        /* \"https://github.com/succinctlabs/sp1-contracts/blob/main/contracts/src/v3.0.0/Groth16Verifier.sol\":1394:1460  0x30644e72e131a029b85045b68181585d97816a916871ca8d3c208c16d87cfd47 */\n      0x30644e72e131a029b85045b68181585d97816a916871ca8d3c208c16d87cfd47\n        /* \"https://github.com/succinctlabs/sp1-contracts/blob/main/contracts/src/v3.0.0/Groth16Verifier.sol\":10413:10456  addmod(mulmod(mulmod(x, x, P), x, P), 3, P) */\n      dup1\n      tag_134\n      jumpi\n      tag_135\n      tag_136\n      jump\t// in\n    tag_135:\n    tag_134:\n        /* \"https://github.com/succinctlabs/sp1-contracts/blob/main/contracts/src/v3.0.0/Groth16Verifier.sol\":10451:10452  3 */\n      0x03\n        /* \"https://github.com/succinctlabs/sp1-contracts/blob/main/contracts/src/v3.0.0/Groth16Verifier.sol\":1394:1460  0x30644e72e131a029b85045b68181585d97816a916871ca8d3c208c16d87cfd47 */\n      0x30644e72e131a029b85045b68181585d97816a916871ca8d3c208c16d87cfd47\n        /* \"https://github.com/succinctlabs/sp1-contracts/blob/main/contracts/src/v3.0.0/Groth16Verifier.sol\":10420:10449  mulmod(mulmod(x, x, P), x, P) */\n      dup1\n      tag_137\n      jumpi\n      tag_138\n      tag_136\n      jump\t// in\n    tag_138:\n    tag_137:\n        /* \"https://github.com/succinctlabs/sp1-contracts/blob/main/contracts/src/v3.0.0/Groth16Verifier.sol\":10444:10445  x */\n      dup8\n        /* \"https://github.com/succinctlabs/sp1-contracts/blob/main/contracts/src/v3.0.0/Groth16Verifier.sol\":1394:1460  0x30644e72e131a029b85045b68181585d97816a916871ca8d3c208c16d87cfd47 */\n      0x30644e72e131a029b85045b68181585d97816a916871ca8d3c208c16d87cfd47\n        /* \"https://github.com/succinctlabs/sp1-contracts/blob/main/contracts/src/v3.0.0/Groth16Verifier.sol\":10427:10442  mulmod(x, x, P) */\n      dup1\n      tag_139\n      jumpi\n      tag_140\n      tag_136\n      jump\t// in\n    tag_140:\n    tag_139:\n        /* \"https://github.com/succinctlabs/sp1-contracts/blob/main/contracts/src/v3.0.0/Groth16Verifier.sol\":10437:10438  x */\n      dup10\n        /* \"https://github.com/succinctlabs/sp1-contracts/blob/main/contracts/src/v3.0.0/Groth16Verifier.sol\":10434:10435  x */\n      dup11\n        /* \"https://github.com/succinctlabs/sp1-contracts/blob/main/contracts/src/v3.0.0/Groth16Verifier.sol\":10427:10442  mulmod(x, x, P) */\n      mulmod\n        /* \"https://github.com/succinctlabs/sp1-contracts/blob/main/contracts/src/v3.0.0/Groth16Verifier.sol\":10420:10449  mulmod(mulmod(x, x, P), x, P) */\n      mulmod\n        /* \"https://github.com/succinctlabs/sp1-contracts/blob/main/contracts/src/v3.0.0/Groth16Verifier.sol\":10413:10456  addmod(mulmod(mulmod(x, x, P), x, P), 3, P) */\n      addmod\n        /* \"https://github.com/succinctlabs/sp1-contracts/blob/main/contracts/src/v3.0.0/Groth16Verifier.sol\":10405:10412  sqrt_Fp */\n      tag_141\n        /* \"https://github.com/succinctlabs/sp1-contracts/blob/main/contracts/src/v3.0.0/Groth16Verifier.sol\":10405:10457  sqrt_Fp(addmod(mulmod(mulmod(x, x, P), x, P), 3, P)) */\n      jump\t// in\n    tag_133:\n        /* \"https://github.com/succinctlabs/sp1-contracts/blob/main/contracts/src/v3.0.0/Groth16Verifier.sol\":10389:10457  uint256 y_pos = sqrt_Fp(addmod(mulmod(mulmod(x, x, P), x, P), 3, P)) */\n      swap1\n      pop\n        /* \"https://github.com/succinctlabs/sp1-contracts/blob/main/contracts/src/v3.0.0/Groth16Verifier.sol\":10476:10481  y_pos */\n      dup1\n        /* \"https://github.com/succinctlabs/sp1-contracts/blob/main/contracts/src/v3.0.0/Groth16Verifier.sol\":10471:10472  y */\n      dup4\n        /* \"https://github.com/succinctlabs/sp1-contracts/blob/main/contracts/src/v3.0.0/Groth16Verifier.sol\":10471:10481  y == y_pos */\n      sub\n        /* \"https://github.com/succinctlabs/sp1-contracts/blob/main/contracts/src/v3.0.0/Groth16Verifier.sol\":10467:10691  if (y == y_pos) {... */\n      tag_142\n      jumpi\n        /* \"https://github.com/succinctlabs/sp1-contracts/blob/main/contracts/src/v3.0.0/Groth16Verifier.sol\":10515:10516  0 */\n      0x00\n        /* \"https://github.com/succinctlabs/sp1-contracts/blob/main/contracts/src/v3.0.0/Groth16Verifier.sol\":10510:10511  1 */\n      0x01\n        /* \"https://github.com/succinctlabs/sp1-contracts/blob/main/contracts/src/v3.0.0/Groth16Verifier.sol\":10505:10506  x */\n      dup6\n        /* \"https://github.com/succinctlabs/sp1-contracts/blob/main/contracts/src/v3.0.0/Groth16Verifier.sol\":10505:10511  x << 1 */\n      swap1\n      shl\n        /* \"https://github.com/succinctlabs/sp1-contracts/blob/main/contracts/src/v3.0.0/Groth16Verifier.sol\":10504:10516  (x << 1) | 0 */\n      or\n        /* \"https://github.com/succinctlabs/sp1-contracts/blob/main/contracts/src/v3.0.0/Groth16Verifier.sol\":10497:10516  return (x << 1) | 0 */\n      swap2\n      pop\n      pop\n      jump(tag_128)\n        /* \"https://github.com/succinctlabs/sp1-contracts/blob/main/contracts/src/v3.0.0/Groth16Verifier.sol\":10467:10691  if (y == y_pos) {... */\n    tag_142:\n        /* \"https://github.com/succinctlabs/sp1-contracts/blob/main/contracts/src/v3.0.0/Groth16Verifier.sol\":10542:10555  negate(y_pos) */\n      tag_144\n        /* \"https://github.com/succinctlabs/sp1-contracts/blob/main/contracts/src/v3.0.0/Groth16Verifier.sol\":10549:10554  y_pos */\n      dup2\n        /* \"https://github.com/succinctlabs/sp1-contracts/blob/main/contracts/src/v3.0.0/Groth16Verifier.sol\":10542:10548  negate */\n      tag_145\n        /* \"https://github.com/succinctlabs/sp1-contracts/blob/main/contracts/src/v3.0.0/Groth16Verifier.sol\":10542:10555  negate(y_pos) */\n      jump\t// in\n    tag_144:\n        /* \"https://github.com/succinctlabs/sp1-contracts/blob/main/contracts/src/v3.0.0/Groth16Verifier.sol\":10537:10538  y */\n      dup4\n        /* \"https://github.com/succinctlabs/sp1-contracts/blob/main/contracts/src/v3.0.0/Groth16Verifier.sol\":10537:10555  y == negate(y_pos) */\n      sub\n        /* \"https://github.com/succinctlabs/sp1-contracts/blob/main/contracts/src/v3.0.0/Groth16Verifier.sol\":10533:10691  if (y == negate(y_pos)) {... */\n      tag_146\n      jumpi\n        /* \"https://github.com/succinctlabs/sp1-contracts/blob/main/contracts/src/v3.0.0/Groth16Verifier.sol\":10589:10590  1 */\n      0x01\n        /* \"https://github.com/succinctlabs/sp1-contracts/blob/main/contracts/src/v3.0.0/Groth16Verifier.sol\":10584:10585  1 */\n      dup1\n        /* \"https://github.com/succinctlabs/sp1-contracts/blob/main/contracts/src/v3.0.0/Groth16Verifier.sol\":10579:10580  x */\n      dup6\n        /* \"https://github.com/succinctlabs/sp1-contracts/blob/main/contracts/src/v3.0.0/Groth16Verifier.sol\":10579:10585  x << 1 */\n      swap1\n      shl\n        /* \"https://github.com/succinctlabs/sp1-contracts/blob/main/contracts/src/v3.0.0/Groth16Verifier.sol\":10578:10590  (x << 1) | 1 */\n      or\n        /* \"https://github.com/succinctlabs/sp1-contracts/blob/main/contracts/src/v3.0.0/Groth16Verifier.sol\":10571:10590  return (x << 1) | 1 */\n      swap2\n      pop\n      pop\n      jump(tag_128)\n        /* \"https://github.com/succinctlabs/sp1-contracts/blob/main/contracts/src/v3.0.0/Groth16Verifier.sol\":10533:10691  if (y == negate(y_pos)) {... */\n    tag_146:\n        /* \"https://github.com/succinctlabs/sp1-contracts/blob/main/contracts/src/v3.0.0/Groth16Verifier.sol\":10666:10680  ProofInvalid() */\n      mload(0x40)\n      0x7fcdd1f400000000000000000000000000000000000000000000000000000000\n      dup2\n      mstore\n      0x04\n      add\n      mload(0x40)\n      dup1\n      swap2\n      sub\n      swap1\n      revert\n        /* \"https://github.com/succinctlabs/sp1-contracts/blob/main/contracts/src/v3.0.0/Groth16Verifier.sol\":9997:10697  function compress_g1(uint256 x, uint256 y) internal view returns (uint256 c) {... */\n    tag_128:\n      swap3\n      swap2\n      pop\n      pop\n      jump\t// out\n        /* \"https://github.com/succinctlabs/sp1-contracts/blob/main/contracts/src/v3.0.0/Groth16Verifier.sol\":12692:14375  function compress_g2(uint256 x0, uint256 x1, uint256 y0, uint256 y1)... */\n    tag_41:\n        /* \"https://github.com/succinctlabs/sp1-contracts/blob/main/contracts/src/v3.0.0/Groth16Verifier.sol\":12808:12818  uint256 c0 */\n      0x00\n        /* \"https://github.com/succinctlabs/sp1-contracts/blob/main/contracts/src/v3.0.0/Groth16Verifier.sol\":12820:12830  uint256 c1 */\n      0x00\n        /* \"https://github.com/succinctlabs/sp1-contracts/blob/main/contracts/src/v3.0.0/Groth16Verifier.sol\":1394:1460  0x30644e72e131a029b85045b68181585d97816a916871ca8d3c208c16d87cfd47 */\n      0x30644e72e131a029b85045b68181585d97816a916871ca8d3c208c16d87cfd47\n        /* \"https://github.com/succinctlabs/sp1-contracts/blob/main/contracts/src/v3.0.0/Groth16Verifier.sol\":12850:12852  x0 */\n      dup7\n        /* \"https://github.com/succinctlabs/sp1-contracts/blob/main/contracts/src/v3.0.0/Groth16Verifier.sol\":12850:12857  x0 >= P */\n      lt\n      iszero\n        /* \"https://github.com/succinctlabs/sp1-contracts/blob/main/contracts/src/v3.0.0/Groth16Verifier.sol\":12850:12868  x0 >= P || x1 >= P */\n      dup1\n      tag_149\n      jumpi\n      pop\n        /* \"https://github.com/succinctlabs/sp1-contracts/blob/main/contracts/src/v3.0.0/Groth16Verifier.sol\":1394:1460  0x30644e72e131a029b85045b68181585d97816a916871ca8d3c208c16d87cfd47 */\n      0x30644e72e131a029b85045b68181585d97816a916871ca8d3c208c16d87cfd47\n        /* \"https://github.com/succinctlabs/sp1-contracts/blob/main/contracts/src/v3.0.0/Groth16Verifier.sol\":12861:12863  x1 */\n      dup6\n        /* \"https://github.com/succinctlabs/sp1-contracts/blob/main/contracts/src/v3.0.0/Groth16Verifier.sol\":12861:12868  x1 >= P */\n      lt\n      iszero\n        /* \"https://github.com/succinctlabs/sp1-contracts/blob/main/contracts/src/v3.0.0/Groth16Verifier.sol\":12850:12868  x0 >= P || x1 >= P */\n    tag_149:\n        /* \"https://github.com/succinctlabs/sp1-contracts/blob/main/contracts/src/v3.0.0/Groth16Verifier.sol\":12850:12879  x0 >= P || x1 >= P || y0 >= P */\n      dup1\n      tag_150\n      jumpi\n      pop\n        /* \"https://github.com/succinctlabs/sp1-contracts/blob/main/contracts/src/v3.0.0/Groth16Verifier.sol\":1394:1460  0x30644e72e131a029b85045b68181585d97816a916871ca8d3c208c16d87cfd47 */\n      0x30644e72e131a029b85045b68181585d97816a916871ca8d3c208c16d87cfd47\n        /* \"https://github.com/succinctlabs/sp1-contracts/blob/main/contracts/src/v3.0.0/Groth16Verifier.sol\":12872:12874  y0 */\n      dup5\n        /* \"https://github.com/succinctlabs/sp1-contracts/blob/main/contracts/src/v3.0.0/Groth16Verifier.sol\":12872:12879  y0 >= P */\n      lt\n      iszero\n        /* \"https://github.com/succinctlabs/sp1-contracts/blob/main/contracts/src/v3.0.0/Groth16Verifier.sol\":12850:12879  x0 >= P || x1 >= P || y0 >= P */\n    tag_150:\n        /* \"https://github.com/succinctlabs/sp1-contracts/blob/main/contracts/src/v3.0.0/Groth16Verifier.sol\":12850:12890  x0 >= P || x1 >= P || y0 >= P || y1 >= P */\n      dup1\n      tag_151\n      jumpi\n      pop\n        /* \"https://github.com/succinctlabs/sp1-contracts/blob/main/contracts/src/v3.0.0/Groth16Verifier.sol\":1394:1460  0x30644e72e131a029b85045b68181585d97816a916871ca8d3c208c16d87cfd47 */\n      0x30644e72e131a029b85045b68181585d97816a916871ca8d3c208c16d87cfd47\n        /* \"https://github.com/succinctlabs/sp1-contracts/blob/main/contracts/src/v3.0.0/Groth16Verifier.sol\":12883:12885  y1 */\n      dup4\n        /* \"https://github.com/succinctlabs/sp1-contracts/blob/main/contracts/src/v3.0.0/Groth16Verifier.sol\":12883:12890  y1 >= P */\n      lt\n      iszero\n        /* \"https://github.com/succinctlabs/sp1-contracts/blob/main/contracts/src/v3.0.0/Groth16Verifier.sol\":12850:12890  x0 >= P || x1 >= P || y0 >= P || y1 >= P */\n    tag_151:\n        /* \"https://github.com/succinctlabs/sp1-contracts/blob/main/contracts/src/v3.0.0/Groth16Verifier.sol\":12846:12976  if (x0 >= P || x1 >= P || y0 >= P || y1 >= P) {... */\n      iszero\n      tag_152\n      jumpi\n        /* \"https://github.com/succinctlabs/sp1-contracts/blob/main/contracts/src/v3.0.0/Groth16Verifier.sol\":12951:12965  ProofInvalid() */\n      mload(0x40)\n      0x7fcdd1f400000000000000000000000000000000000000000000000000000000\n      dup2\n      mstore\n      0x04\n      add\n      mload(0x40)\n      dup1\n      swap2\n      sub\n      swap1\n      revert\n        /* \"https://github.com/succinctlabs/sp1-contracts/blob/main/contracts/src/v3.0.0/Groth16Verifier.sol\":12846:12976  if (x0 >= P || x1 >= P || y0 >= P || y1 >= P) {... */\n    tag_152:\n        /* \"https://github.com/succinctlabs/sp1-contracts/blob/main/contracts/src/v3.0.0/Groth16Verifier.sol\":13012:13013  0 */\n      0x00\n        /* \"https://github.com/succinctlabs/sp1-contracts/blob/main/contracts/src/v3.0.0/Groth16Verifier.sol\":13005:13007  y1 */\n      dup4\n        /* \"https://github.com/succinctlabs/sp1-contracts/blob/main/contracts/src/v3.0.0/Groth16Verifier.sol\":13000:13002  y0 */\n      dup6\n        /* \"https://github.com/succinctlabs/sp1-contracts/blob/main/contracts/src/v3.0.0/Groth16Verifier.sol\":12995:12997  x1 */\n      dup8\n        /* \"https://github.com/succinctlabs/sp1-contracts/blob/main/contracts/src/v3.0.0/Groth16Verifier.sol\":12990:12992  x0 */\n      dup10\n        /* \"https://github.com/succinctlabs/sp1-contracts/blob/main/contracts/src/v3.0.0/Groth16Verifier.sol\":12990:12997  x0 | x1 */\n      or\n        /* \"https://github.com/succinctlabs/sp1-contracts/blob/main/contracts/src/v3.0.0/Groth16Verifier.sol\":12990:13002  x0 | x1 | y0 */\n      or\n        /* \"https://github.com/succinctlabs/sp1-contracts/blob/main/contracts/src/v3.0.0/Groth16Verifier.sol\":12990:13007  x0 | x1 | y0 | y1 */\n      or\n        /* \"https://github.com/succinctlabs/sp1-contracts/blob/main/contracts/src/v3.0.0/Groth16Verifier.sol\":12989:13013  (x0 | x1 | y0 | y1) == 0 */\n      sub\n        /* \"https://github.com/succinctlabs/sp1-contracts/blob/main/contracts/src/v3.0.0/Groth16Verifier.sol\":12985:13086  if ((x0 | x1 | y0 | y1) == 0) {... */\n      tag_153\n      jumpi\n        /* \"https://github.com/succinctlabs/sp1-contracts/blob/main/contracts/src/v3.0.0/Groth16Verifier.sol\":13070:13071  0 */\n      0x00\n        /* \"https://github.com/succinctlabs/sp1-contracts/blob/main/contracts/src/v3.0.0/Groth16Verifier.sol\":13073:13074  0 */\n      0x00\n        /* \"https://github.com/succinctlabs/sp1-contracts/blob/main/contracts/src/v3.0.0/Groth16Verifier.sol\":13062:13075  return (0, 0) */\n      swap2\n      pop\n      swap2\n      pop\n      jump(tag_148)\n        /* \"https://github.com/succinctlabs/sp1-contracts/blob/main/contracts/src/v3.0.0/Groth16Verifier.sol\":12985:13086  if ((x0 | x1 | y0 | y1) == 0) {... */\n    tag_153:\n        /* \"https://github.com/succinctlabs/sp1-contracts/blob/main/contracts/src/v3.0.0/Groth16Verifier.sol\":13192:13206  uint256 y0_pos */\n      0x00\n        /* \"https://github.com/succinctlabs/sp1-contracts/blob/main/contracts/src/v3.0.0/Groth16Verifier.sol\":13216:13230  uint256 y1_pos */\n      0x00\n        /* \"https://github.com/succinctlabs/sp1-contracts/blob/main/contracts/src/v3.0.0/Groth16Verifier.sol\":13254:13266  uint256 n3ab */\n      0x00\n        /* \"https://github.com/succinctlabs/sp1-contracts/blob/main/contracts/src/v3.0.0/Groth16Verifier.sol\":1394:1460  0x30644e72e131a029b85045b68181585d97816a916871ca8d3c208c16d87cfd47 */\n      0x30644e72e131a029b85045b68181585d97816a916871ca8d3c208c16d87cfd47\n        /* \"https://github.com/succinctlabs/sp1-contracts/blob/main/contracts/src/v3.0.0/Groth16Verifier.sol\":13269:13304  mulmod(mulmod(x0, x1, P), P - 3, P) */\n      dup1\n      tag_154\n      jumpi\n      tag_155\n      tag_136\n      jump\t// in\n    tag_155:\n    tag_154:\n        /* \"https://github.com/succinctlabs/sp1-contracts/blob/main/contracts/src/v3.0.0/Groth16Verifier.sol\":13299:13300  3 */\n      0x03\n        /* \"https://github.com/succinctlabs/sp1-contracts/blob/main/contracts/src/v3.0.0/Groth16Verifier.sol\":1394:1460  0x30644e72e131a029b85045b68181585d97816a916871ca8d3c208c16d87cfd47 */\n      0x30644e72e131a029b85045b68181585d97816a916871ca8d3c208c16d87cfd47\n        /* \"https://github.com/succinctlabs/sp1-contracts/blob/main/contracts/src/v3.0.0/Groth16Verifier.sol\":13295:13300  P - 3 */\n      tag_156\n      swap2\n      swap1\n      tag_157\n      jump\t// in\n    tag_156:\n        /* \"https://github.com/succinctlabs/sp1-contracts/blob/main/contracts/src/v3.0.0/Groth16Verifier.sol\":1394:1460  0x30644e72e131a029b85045b68181585d97816a916871ca8d3c208c16d87cfd47 */\n      0x30644e72e131a029b85045b68181585d97816a916871ca8d3c208c16d87cfd47\n        /* \"https://github.com/succinctlabs/sp1-contracts/blob/main/contracts/src/v3.0.0/Groth16Verifier.sol\":13276:13293  mulmod(x0, x1, P) */\n      dup1\n      tag_158\n      jumpi\n      tag_159\n      tag_136\n      jump\t// in\n    tag_159:\n    tag_158:\n        /* \"https://github.com/succinctlabs/sp1-contracts/blob/main/contracts/src/v3.0.0/Groth16Verifier.sol\":13287:13289  x1 */\n      dup11\n        /* \"https://github.com/succinctlabs/sp1-contracts/blob/main/contracts/src/v3.0.0/Groth16Verifier.sol\":13283:13285  x0 */\n      dup13\n        /* \"https://github.com/succinctlabs/sp1-contracts/blob/main/contracts/src/v3.0.0/Groth16Verifier.sol\":13276:13293  mulmod(x0, x1, P) */\n      mulmod\n        /* \"https://github.com/succinctlabs/sp1-contracts/blob/main/contracts/src/v3.0.0/Groth16Verifier.sol\":13269:13304  mulmod(mulmod(x0, x1, P), P - 3, P) */\n      mulmod\n        /* \"https://github.com/succinctlabs/sp1-contracts/blob/main/contracts/src/v3.0.0/Groth16Verifier.sol\":13254:13304  uint256 n3ab = mulmod(mulmod(x0, x1, P), P - 3, P) */\n      swap1\n      pop\n        /* \"https://github.com/succinctlabs/sp1-contracts/blob/main/contracts/src/v3.0.0/Groth16Verifier.sol\":13318:13329  uint256 a_3 */\n      0x00\n        /* \"https://github.com/succinctlabs/sp1-contracts/blob/main/contracts/src/v3.0.0/Groth16Verifier.sol\":1394:1460  0x30644e72e131a029b85045b68181585d97816a916871ca8d3c208c16d87cfd47 */\n      0x30644e72e131a029b85045b68181585d97816a916871ca8d3c208c16d87cfd47\n        /* \"https://github.com/succinctlabs/sp1-contracts/blob/main/contracts/src/v3.0.0/Groth16Verifier.sol\":13332:13364  mulmod(mulmod(x0, x0, P), x0, P) */\n      dup1\n      tag_160\n      jumpi\n      tag_161\n      tag_136\n      jump\t// in\n    tag_161:\n    tag_160:\n        /* \"https://github.com/succinctlabs/sp1-contracts/blob/main/contracts/src/v3.0.0/Groth16Verifier.sol\":13358:13360  x0 */\n      dup11\n        /* \"https://github.com/succinctlabs/sp1-contracts/blob/main/contracts/src/v3.0.0/Groth16Verifier.sol\":1394:1460  0x30644e72e131a029b85045b68181585d97816a916871ca8d3c208c16d87cfd47 */\n      0x30644e72e131a029b85045b68181585d97816a916871ca8d3c208c16d87cfd47\n        /* \"https://github.com/succinctlabs/sp1-contracts/blob/main/contracts/src/v3.0.0/Groth16Verifier.sol\":13339:13356  mulmod(x0, x0, P) */\n      dup1\n      tag_162\n      jumpi\n      tag_163\n      tag_136\n      jump\t// in\n    tag_163:\n    tag_162:\n        /* \"https://github.com/succinctlabs/sp1-contracts/blob/main/contracts/src/v3.0.0/Groth16Verifier.sol\":13350:13352  x0 */\n      dup13\n        /* \"https://github.com/succinctlabs/sp1-contracts/blob/main/contracts/src/v3.0.0/Groth16Verifier.sol\":13346:13348  x0 */\n      dup14\n        /* \"https://github.com/succinctlabs/sp1-contracts/blob/main/contracts/src/v3.0.0/Groth16Verifier.sol\":13339:13356  mulmod(x0, x0, P) */\n      mulmod\n        /* \"https://github.com/succinctlabs/sp1-contracts/blob/main/contracts/src/v3.0.0/Groth16Verifier.sol\":13332:13364  mulmod(mulmod(x0, x0, P), x0, P) */\n      mulmod\n        /* \"https://github.com/succinctlabs/sp1-contracts/blob/main/contracts/src/v3.0.0/Groth16Verifier.sol\":13318:13364  uint256 a_3 = mulmod(mulmod(x0, x0, P), x0, P) */\n      swap1\n      pop\n        /* \"https://github.com/succinctlabs/sp1-contracts/blob/main/contracts/src/v3.0.0/Groth16Verifier.sol\":13378:13389  uint256 b_3 */\n      0x00\n        /* \"https://github.com/succinctlabs/sp1-contracts/blob/main/contracts/src/v3.0.0/Groth16Verifier.sol\":1394:1460  0x30644e72e131a029b85045b68181585d97816a916871ca8d3c208c16d87cfd47 */\n      0x30644e72e131a029b85045b68181585d97816a916871ca8d3c208c16d87cfd47\n        /* \"https://github.com/succinctlabs/sp1-contracts/blob/main/contracts/src/v3.0.0/Groth16Verifier.sol\":13392:13424  mulmod(mulmod(x1, x1, P), x1, P) */\n      dup1\n      tag_164\n      jumpi\n      tag_165\n      tag_136\n      jump\t// in\n    tag_165:\n    tag_164:\n        /* \"https://github.com/succinctlabs/sp1-contracts/blob/main/contracts/src/v3.0.0/Groth16Verifier.sol\":13418:13420  x1 */\n      dup11\n        /* \"https://github.com/succinctlabs/sp1-contracts/blob/main/contracts/src/v3.0.0/Groth16Verifier.sol\":1394:1460  0x30644e72e131a029b85045b68181585d97816a916871ca8d3c208c16d87cfd47 */\n      0x30644e72e131a029b85045b68181585d97816a916871ca8d3c208c16d87cfd47\n        /* \"https://github.com/succinctlabs/sp1-contracts/blob/main/contracts/src/v3.0.0/Groth16Verifier.sol\":13399:13416  mulmod(x1, x1, P) */\n      dup1\n      tag_166\n      jumpi\n      tag_167\n      tag_136\n      jump\t// in\n    tag_167:\n    tag_166:\n        /* \"https://github.com/succinctlabs/sp1-contracts/blob/main/contracts/src/v3.0.0/Groth16Verifier.sol\":13410:13412  x1 */\n      dup13\n        /* \"https://github.com/succinctlabs/sp1-contracts/blob/main/contracts/src/v3.0.0/Groth16Verifier.sol\":13406:13408  x1 */\n      dup14\n        /* \"https://github.com/succinctlabs/sp1-contracts/blob/main/contracts/src/v3.0.0/Groth16Verifier.sol\":13399:13416  mulmod(x1, x1, P) */\n      mulmod\n        /* \"https://github.com/succinctlabs/sp1-contracts/blob/main/contracts/src/v3.0.0/Groth16Verifier.sol\":13392:13424  mulmod(mulmod(x1, x1, P), x1, P) */\n      mulmod\n        /* \"https://github.com/succinctlabs/sp1-contracts/blob/main/contracts/src/v3.0.0/Groth16Verifier.sol\":13378:13424  uint256 b_3 = mulmod(mulmod(x1, x1, P), x1, P) */\n      swap1\n      pop\n        /* \"https://github.com/succinctlabs/sp1-contracts/blob/main/contracts/src/v3.0.0/Groth16Verifier.sol\":1394:1460  0x30644e72e131a029b85045b68181585d97816a916871ca8d3c208c16d87cfd47 */\n      0x30644e72e131a029b85045b68181585d97816a916871ca8d3c208c16d87cfd47\n        /* \"https://github.com/succinctlabs/sp1-contracts/blob/main/contracts/src/v3.0.0/Groth16Verifier.sol\":13447:13512  addmod(FRACTION_27_82_FP, addmod(a_3, mulmod(n3ab, x1, P), P), P) */\n      dup1\n      tag_168\n      jumpi\n      tag_169\n      tag_136\n      jump\t// in\n    tag_169:\n    tag_168:\n        /* \"https://github.com/succinctlabs/sp1-contracts/blob/main/contracts/src/v3.0.0/Groth16Verifier.sol\":1394:1460  0x30644e72e131a029b85045b68181585d97816a916871ca8d3c208c16d87cfd47 */\n      0x30644e72e131a029b85045b68181585d97816a916871ca8d3c208c16d87cfd47\n        /* \"https://github.com/succinctlabs/sp1-contracts/blob/main/contracts/src/v3.0.0/Groth16Verifier.sol\":13473:13508  addmod(a_3, mulmod(n3ab, x1, P), P) */\n      dup1\n      tag_170\n      jumpi\n      tag_171\n      tag_136\n      jump\t// in\n    tag_171:\n    tag_170:\n        /* \"https://github.com/succinctlabs/sp1-contracts/blob/main/contracts/src/v3.0.0/Groth16Verifier.sol\":1394:1460  0x30644e72e131a029b85045b68181585d97816a916871ca8d3c208c16d87cfd47 */\n      0x30644e72e131a029b85045b68181585d97816a916871ca8d3c208c16d87cfd47\n        /* \"https://github.com/succinctlabs/sp1-contracts/blob/main/contracts/src/v3.0.0/Groth16Verifier.sol\":13485:13504  mulmod(n3ab, x1, P) */\n      dup1\n      tag_172\n      jumpi\n      tag_173\n      tag_136\n      jump\t// in\n    tag_173:\n    tag_172:\n        /* \"https://github.com/succinctlabs/sp1-contracts/blob/main/contracts/src/v3.0.0/Groth16Verifier.sol\":13498:13500  x1 */\n      dup13\n        /* \"https://github.com/succinctlabs/sp1-contracts/blob/main/contracts/src/v3.0.0/Groth16Verifier.sol\":13492:13496  n3ab */\n      dup7\n        /* \"https://github.com/succinctlabs/sp1-contracts/blob/main/contracts/src/v3.0.0/Groth16Verifier.sol\":13485:13504  mulmod(n3ab, x1, P) */\n      mulmod\n        /* \"https://github.com/succinctlabs/sp1-contracts/blob/main/contracts/src/v3.0.0/Groth16Verifier.sol\":13480:13483  a_3 */\n      dup5\n        /* \"https://github.com/succinctlabs/sp1-contracts/blob/main/contracts/src/v3.0.0/Groth16Verifier.sol\":13473:13508  addmod(a_3, mulmod(n3ab, x1, P), P) */\n      addmod\n        /* \"https://github.com/succinctlabs/sp1-contracts/blob/main/contracts/src/v3.0.0/Groth16Verifier.sol\":2229:2295  0x2b149d40ceb8aaae81be18991be06ac3b5b4c5e559dbefa33267e6dc24a138e5 */\n      0x2b149d40ceb8aaae81be18991be06ac3b5b4c5e559dbefa33267e6dc24a138e5\n        /* \"https://github.com/succinctlabs/sp1-contracts/blob/main/contracts/src/v3.0.0/Groth16Verifier.sol\":13447:13512  addmod(FRACTION_27_82_FP, addmod(a_3, mulmod(n3ab, x1, P), P), P) */\n      addmod\n        /* \"https://github.com/succinctlabs/sp1-contracts/blob/main/contracts/src/v3.0.0/Groth16Verifier.sol\":13438:13512  y0_pos = addmod(FRACTION_27_82_FP, addmod(a_3, mulmod(n3ab, x1, P), P), P) */\n      swap5\n      pop\n        /* \"https://github.com/succinctlabs/sp1-contracts/blob/main/contracts/src/v3.0.0/Groth16Verifier.sol\":13535:13607  negate(addmod(FRACTION_3_82_FP, addmod(b_3, mulmod(n3ab, x0, P), P), P)) */\n      tag_174\n        /* \"https://github.com/succinctlabs/sp1-contracts/blob/main/contracts/src/v3.0.0/Groth16Verifier.sol\":1394:1460  0x30644e72e131a029b85045b68181585d97816a916871ca8d3c208c16d87cfd47 */\n      0x30644e72e131a029b85045b68181585d97816a916871ca8d3c208c16d87cfd47\n        /* \"https://github.com/succinctlabs/sp1-contracts/blob/main/contracts/src/v3.0.0/Groth16Verifier.sol\":13542:13606  addmod(FRACTION_3_82_FP, addmod(b_3, mulmod(n3ab, x0, P), P), P) */\n      dup1\n      tag_175\n      jumpi\n      tag_176\n      tag_136\n      jump\t// in\n    tag_176:\n    tag_175:\n        /* \"https://github.com/succinctlabs/sp1-contracts/blob/main/contracts/src/v3.0.0/Groth16Verifier.sol\":1394:1460  0x30644e72e131a029b85045b68181585d97816a916871ca8d3c208c16d87cfd47 */\n      0x30644e72e131a029b85045b68181585d97816a916871ca8d3c208c16d87cfd47\n        /* \"https://github.com/succinctlabs/sp1-contracts/blob/main/contracts/src/v3.0.0/Groth16Verifier.sol\":13567:13602  addmod(b_3, mulmod(n3ab, x0, P), P) */\n      dup1\n      tag_177\n      jumpi\n      tag_178\n      tag_136\n      jump\t// in\n    tag_178:\n    tag_177:\n        /* \"https://github.com/succinctlabs/sp1-contracts/blob/main/contracts/src/v3.0.0/Groth16Verifier.sol\":1394:1460  0x30644e72e131a029b85045b68181585d97816a916871ca8d3c208c16d87cfd47 */\n      0x30644e72e131a029b85045b68181585d97816a916871ca8d3c208c16d87cfd47\n        /* \"https://github.com/succinctlabs/sp1-contracts/blob/main/contracts/src/v3.0.0/Groth16Verifier.sol\":13579:13598  mulmod(n3ab, x0, P) */\n      dup1\n      tag_179\n      jumpi\n      tag_180\n      tag_136\n      jump\t// in\n    tag_180:\n    tag_179:\n        /* \"https://github.com/succinctlabs/sp1-contracts/blob/main/contracts/src/v3.0.0/Groth16Verifier.sol\":13592:13594  x0 */\n      dup15\n        /* \"https://github.com/succinctlabs/sp1-contracts/blob/main/contracts/src/v3.0.0/Groth16Verifier.sol\":13586:13590  n3ab */\n      dup8\n        /* \"https://github.com/succinctlabs/sp1-contracts/blob/main/contracts/src/v3.0.0/Groth16Verifier.sol\":13579:13598  mulmod(n3ab, x0, P) */\n      mulmod\n        /* \"https://github.com/succinctlabs/sp1-contracts/blob/main/contracts/src/v3.0.0/Groth16Verifier.sol\":13574:13577  b_3 */\n      dup5\n        /* \"https://github.com/succinctlabs/sp1-contracts/blob/main/contracts/src/v3.0.0/Groth16Verifier.sol\":13567:13602  addmod(b_3, mulmod(n3ab, x0, P), P) */\n      addmod\n        /* \"https://github.com/succinctlabs/sp1-contracts/blob/main/contracts/src/v3.0.0/Groth16Verifier.sol\":2345:2411  0x2fcd3ac2a640a154eb23960892a85a68f031ca0c8344b23a577dcf1052b9e775 */\n      0x2fcd3ac2a640a154eb23960892a85a68f031ca0c8344b23a577dcf1052b9e775\n        /* \"https://github.com/succinctlabs/sp1-contracts/blob/main/contracts/src/v3.0.0/Groth16Verifier.sol\":13542:13606  addmod(FRACTION_3_82_FP, addmod(b_3, mulmod(n3ab, x0, P), P), P) */\n      addmod\n        /* \"https://github.com/succinctlabs/sp1-contracts/blob/main/contracts/src/v3.0.0/Groth16Verifier.sol\":13535:13541  negate */\n      tag_145\n        /* \"https://github.com/succinctlabs/sp1-contracts/blob/main/contracts/src/v3.0.0/Groth16Verifier.sol\":13535:13607  negate(addmod(FRACTION_3_82_FP, addmod(b_3, mulmod(n3ab, x0, P), P), P)) */\n      jump\t// in\n    tag_174:\n        /* \"https://github.com/succinctlabs/sp1-contracts/blob/main/contracts/src/v3.0.0/Groth16Verifier.sol\":13526:13607  y1_pos = negate(addmod(FRACTION_3_82_FP, addmod(b_3, mulmod(n3ab, x0, P), P), P)) */\n      swap4\n      pop\n        /* \"https://github.com/succinctlabs/sp1-contracts/blob/main/contracts/src/v3.0.0/Groth16Verifier.sol\":13240:13618  {... */\n      pop\n      pop\n      pop\n        /* \"https://github.com/succinctlabs/sp1-contracts/blob/main/contracts/src/v3.0.0/Groth16Verifier.sol\":13726:13735  bool hint */\n      0x00\n        /* \"https://github.com/succinctlabs/sp1-contracts/blob/main/contracts/src/v3.0.0/Groth16Verifier.sol\":13759:13768  uint256 d */\n      0x00\n        /* \"https://github.com/succinctlabs/sp1-contracts/blob/main/contracts/src/v3.0.0/Groth16Verifier.sol\":13771:13843  sqrt_Fp(addmod(mulmod(y0_pos, y0_pos, P), mulmod(y1_pos, y1_pos, P), P)) */\n      tag_181\n        /* \"https://github.com/succinctlabs/sp1-contracts/blob/main/contracts/src/v3.0.0/Groth16Verifier.sol\":1394:1460  0x30644e72e131a029b85045b68181585d97816a916871ca8d3c208c16d87cfd47 */\n      0x30644e72e131a029b85045b68181585d97816a916871ca8d3c208c16d87cfd47\n        /* \"https://github.com/succinctlabs/sp1-contracts/blob/main/contracts/src/v3.0.0/Groth16Verifier.sol\":13779:13842  addmod(mulmod(y0_pos, y0_pos, P), mulmod(y1_pos, y1_pos, P), P) */\n      dup1\n      tag_182\n      jumpi\n      tag_183\n      tag_136\n      jump\t// in\n    tag_183:\n    tag_182:\n        /* \"https://github.com/succinctlabs/sp1-contracts/blob/main/contracts/src/v3.0.0/Groth16Verifier.sol\":1394:1460  0x30644e72e131a029b85045b68181585d97816a916871ca8d3c208c16d87cfd47 */\n      0x30644e72e131a029b85045b68181585d97816a916871ca8d3c208c16d87cfd47\n        /* \"https://github.com/succinctlabs/sp1-contracts/blob/main/contracts/src/v3.0.0/Groth16Verifier.sol\":13813:13838  mulmod(y1_pos, y1_pos, P) */\n      dup1\n      tag_184\n      jumpi\n      tag_185\n      tag_136\n      jump\t// in\n    tag_185:\n    tag_184:\n        /* \"https://github.com/succinctlabs/sp1-contracts/blob/main/contracts/src/v3.0.0/Groth16Verifier.sol\":13828:13834  y1_pos */\n      dup6\n        /* \"https://github.com/succinctlabs/sp1-contracts/blob/main/contracts/src/v3.0.0/Groth16Verifier.sol\":13820:13826  y1_pos */\n      dup7\n        /* \"https://github.com/succinctlabs/sp1-contracts/blob/main/contracts/src/v3.0.0/Groth16Verifier.sol\":13813:13838  mulmod(y1_pos, y1_pos, P) */\n      mulmod\n        /* \"https://github.com/succinctlabs/sp1-contracts/blob/main/contracts/src/v3.0.0/Groth16Verifier.sol\":1394:1460  0x30644e72e131a029b85045b68181585d97816a916871ca8d3c208c16d87cfd47 */\n      0x30644e72e131a029b85045b68181585d97816a916871ca8d3c208c16d87cfd47\n        /* \"https://github.com/succinctlabs/sp1-contracts/blob/main/contracts/src/v3.0.0/Groth16Verifier.sol\":13786:13811  mulmod(y0_pos, y0_pos, P) */\n      dup1\n      tag_186\n      jumpi\n      tag_187\n      tag_136\n      jump\t// in\n    tag_187:\n    tag_186:\n        /* \"https://github.com/succinctlabs/sp1-contracts/blob/main/contracts/src/v3.0.0/Groth16Verifier.sol\":13801:13807  y0_pos */\n      dup8\n        /* \"https://github.com/succinctlabs/sp1-contracts/blob/main/contracts/src/v3.0.0/Groth16Verifier.sol\":13793:13799  y0_pos */\n      dup9\n        /* \"https://github.com/succinctlabs/sp1-contracts/blob/main/contracts/src/v3.0.0/Groth16Verifier.sol\":13786:13811  mulmod(y0_pos, y0_pos, P) */\n      mulmod\n        /* \"https://github.com/succinctlabs/sp1-contracts/blob/main/contracts/src/v3.0.0/Groth16Verifier.sol\":13779:13842  addmod(mulmod(y0_pos, y0_pos, P), mulmod(y1_pos, y1_pos, P), P) */\n      addmod\n        /* \"https://github.com/succinctlabs/sp1-contracts/blob/main/contracts/src/v3.0.0/Groth16Verifier.sol\":13771:13778  sqrt_Fp */\n      tag_141\n        /* \"https://github.com/succinctlabs/sp1-contracts/blob/main/contracts/src/v3.0.0/Groth16Verifier.sol\":13771:13843  sqrt_Fp(addmod(mulmod(y0_pos, y0_pos, P), mulmod(y1_pos, y1_pos, P), P)) */\n      jump\t// in\n    tag_181:\n        /* \"https://github.com/succinctlabs/sp1-contracts/blob/main/contracts/src/v3.0.0/Groth16Verifier.sol\":13759:13843  uint256 d = sqrt_Fp(addmod(mulmod(y0_pos, y0_pos, P), mulmod(y1_pos, y1_pos, P), P)) */\n      swap1\n      pop\n        /* \"https://github.com/succinctlabs/sp1-contracts/blob/main/contracts/src/v3.0.0/Groth16Verifier.sol\":13865:13926  isSquare_Fp(mulmod(addmod(y0_pos, d, P), FRACTION_1_2_FP, P)) */\n      tag_188\n        /* \"https://github.com/succinctlabs/sp1-contracts/blob/main/contracts/src/v3.0.0/Groth16Verifier.sol\":1394:1460  0x30644e72e131a029b85045b68181585d97816a916871ca8d3c208c16d87cfd47 */\n      0x30644e72e131a029b85045b68181585d97816a916871ca8d3c208c16d87cfd47\n        /* \"https://github.com/succinctlabs/sp1-contracts/blob/main/contracts/src/v3.0.0/Groth16Verifier.sol\":13877:13925  mulmod(addmod(y0_pos, d, P), FRACTION_1_2_FP, P) */\n      dup1\n      tag_189\n      jumpi\n      tag_190\n      tag_136\n      jump\t// in\n    tag_190:\n    tag_189:\n        /* \"https://github.com/succinctlabs/sp1-contracts/blob/main/contracts/src/v3.0.0/Groth16Verifier.sol\":2112:2178  0x183227397098d014dc2822db40c0ac2ecbc0b548b438e5469e10460b6c3e7ea4 */\n      0x183227397098d014dc2822db40c0ac2ecbc0b548b438e5469e10460b6c3e7ea4\n        /* \"https://github.com/succinctlabs/sp1-contracts/blob/main/contracts/src/v3.0.0/Groth16Verifier.sol\":1394:1460  0x30644e72e131a029b85045b68181585d97816a916871ca8d3c208c16d87cfd47 */\n      0x30644e72e131a029b85045b68181585d97816a916871ca8d3c208c16d87cfd47\n        /* \"https://github.com/succinctlabs/sp1-contracts/blob/main/contracts/src/v3.0.0/Groth16Verifier.sol\":13884:13904  addmod(y0_pos, d, P) */\n      dup1\n      tag_191\n      jumpi\n      tag_192\n      tag_136\n      jump\t// in\n    tag_192:\n    tag_191:\n        /* \"https://github.com/succinctlabs/sp1-contracts/blob/main/contracts/src/v3.0.0/Groth16Verifier.sol\":13899:13900  d */\n      dup5\n        /* \"https://github.com/succinctlabs/sp1-contracts/blob/main/contracts/src/v3.0.0/Groth16Verifier.sol\":13891:13897  y0_pos */\n      dup9\n        /* \"https://github.com/succinctlabs/sp1-contracts/blob/main/contracts/src/v3.0.0/Groth16Verifier.sol\":13884:13904  addmod(y0_pos, d, P) */\n      addmod\n        /* \"https://github.com/succinctlabs/sp1-contracts/blob/main/contracts/src/v3.0.0/Groth16Verifier.sol\":13877:13925  mulmod(addmod(y0_pos, d, P), FRACTION_1_2_FP, P) */\n      mulmod\n        /* \"https://github.com/succinctlabs/sp1-contracts/blob/main/contracts/src/v3.0.0/Groth16Verifier.sol\":13865:13876  isSquare_Fp */\n      tag_193\n        /* \"https://github.com/succinctlabs/sp1-contracts/blob/main/contracts/src/v3.0.0/Groth16Verifier.sol\":13865:13926  isSquare_Fp(mulmod(addmod(y0_pos, d, P), FRACTION_1_2_FP, P)) */\n      jump\t// in\n    tag_188:\n        /* \"https://github.com/succinctlabs/sp1-contracts/blob/main/contracts/src/v3.0.0/Groth16Verifier.sol\":13864:13926  !isSquare_Fp(mulmod(addmod(y0_pos, d, P), FRACTION_1_2_FP, P)) */\n      iszero\n        /* \"https://github.com/succinctlabs/sp1-contracts/blob/main/contracts/src/v3.0.0/Groth16Verifier.sol\":13857:13926  hint = !isSquare_Fp(mulmod(addmod(y0_pos, d, P), FRACTION_1_2_FP, P)) */\n      swap2\n      pop\n        /* \"https://github.com/succinctlabs/sp1-contracts/blob/main/contracts/src/v3.0.0/Groth16Verifier.sol\":13745:13937  {... */\n      pop\n        /* \"https://github.com/succinctlabs/sp1-contracts/blob/main/contracts/src/v3.0.0/Groth16Verifier.sol\":13987:14017  sqrt_Fp2(y0_pos, y1_pos, hint) */\n      tag_194\n        /* \"https://github.com/succinctlabs/sp1-contracts/blob/main/contracts/src/v3.0.0/Groth16Verifier.sol\":13996:14002  y0_pos */\n      dup4\n        /* \"https://github.com/succinctlabs/sp1-contracts/blob/main/contracts/src/v3.0.0/Groth16Verifier.sol\":14004:14010  y1_pos */\n      dup4\n        /* \"https://github.com/succinctlabs/sp1-contracts/blob/main/contracts/src/v3.0.0/Groth16Verifier.sol\":14012:14016  hint */\n      dup4\n        /* \"https://github.com/succinctlabs/sp1-contracts/blob/main/contracts/src/v3.0.0/Groth16Verifier.sol\":13987:13995  sqrt_Fp2 */\n      tag_195\n        /* \"https://github.com/succinctlabs/sp1-contracts/blob/main/contracts/src/v3.0.0/Groth16Verifier.sol\":13987:14017  sqrt_Fp2(y0_pos, y1_pos, hint) */\n      jump\t// in\n    tag_194:\n        /* \"https://github.com/succinctlabs/sp1-contracts/blob/main/contracts/src/v3.0.0/Groth16Verifier.sol\":13968:14017  (y0_pos, y1_pos) = sqrt_Fp2(y0_pos, y1_pos, hint) */\n      dup1\n      swap4\n      pop\n      dup2\n      swap5\n      pop\n      pop\n      pop\n        /* \"https://github.com/succinctlabs/sp1-contracts/blob/main/contracts/src/v3.0.0/Groth16Verifier.sol\":14037:14043  y0_pos */\n      dup3\n        /* \"https://github.com/succinctlabs/sp1-contracts/blob/main/contracts/src/v3.0.0/Groth16Verifier.sol\":14031:14033  y0 */\n      dup8\n        /* \"https://github.com/succinctlabs/sp1-contracts/blob/main/contracts/src/v3.0.0/Groth16Verifier.sol\":14031:14043  y0 == y0_pos */\n      eq\n        /* \"https://github.com/succinctlabs/sp1-contracts/blob/main/contracts/src/v3.0.0/Groth16Verifier.sol\":14031:14059  y0 == y0_pos && y1 == y1_pos */\n      dup1\n      iszero\n      tag_196\n      jumpi\n      pop\n        /* \"https://github.com/succinctlabs/sp1-contracts/blob/main/contracts/src/v3.0.0/Groth16Verifier.sol\":14053:14059  y1_pos */\n      dup2\n        /* \"https://github.com/succinctlabs/sp1-contracts/blob/main/contracts/src/v3.0.0/Groth16Verifier.sol\":14047:14049  y1 */\n      dup7\n        /* \"https://github.com/succinctlabs/sp1-contracts/blob/main/contracts/src/v3.0.0/Groth16Verifier.sol\":14047:14059  y1 == y1_pos */\n      eq\n        /* \"https://github.com/succinctlabs/sp1-contracts/blob/main/contracts/src/v3.0.0/Groth16Verifier.sol\":14031:14059  y0 == y0_pos && y1 == y1_pos */\n    tag_196:\n        /* \"https://github.com/succinctlabs/sp1-contracts/blob/main/contracts/src/v3.0.0/Groth16Verifier.sol\":14027:14369  if (y0 == y0_pos && y1 == y1_pos) {... */\n      iszero\n      tag_197\n      jumpi\n        /* \"https://github.com/succinctlabs/sp1-contracts/blob/main/contracts/src/v3.0.0/Groth16Verifier.sol\":14109:14110  0 */\n      0x00\n        /* \"https://github.com/succinctlabs/sp1-contracts/blob/main/contracts/src/v3.0.0/Groth16Verifier.sol\":14093:14097  hint */\n      dup2\n        /* \"https://github.com/succinctlabs/sp1-contracts/blob/main/contracts/src/v3.0.0/Groth16Verifier.sol\":14093:14105  hint ? 2 : 0 */\n      tag_198\n      jumpi\n        /* \"https://github.com/succinctlabs/sp1-contracts/blob/main/contracts/src/v3.0.0/Groth16Verifier.sol\":14104:14105  0 */\n      0x00\n        /* \"https://github.com/succinctlabs/sp1-contracts/blob/main/contracts/src/v3.0.0/Groth16Verifier.sol\":14093:14105  hint ? 2 : 0 */\n      jump(tag_199)\n    tag_198:\n        /* \"https://github.com/succinctlabs/sp1-contracts/blob/main/contracts/src/v3.0.0/Groth16Verifier.sol\":14100:14101  2 */\n      0x02\n        /* \"https://github.com/succinctlabs/sp1-contracts/blob/main/contracts/src/v3.0.0/Groth16Verifier.sol\":14093:14105  hint ? 2 : 0 */\n    tag_199:\n        /* \"https://github.com/succinctlabs/sp1-contracts/blob/main/contracts/src/v3.0.0/Groth16Verifier.sol\":14080:14106  (x0 << 2) | (hint ? 2 : 0) */\n      0xff\n      and\n        /* \"https://github.com/succinctlabs/sp1-contracts/blob/main/contracts/src/v3.0.0/Groth16Verifier.sol\":14087:14088  2 */\n      0x02\n        /* \"https://github.com/succinctlabs/sp1-contracts/blob/main/contracts/src/v3.0.0/Groth16Verifier.sol\":14081:14083  x0 */\n      dup12\n        /* \"https://github.com/succinctlabs/sp1-contracts/blob/main/contracts/src/v3.0.0/Groth16Verifier.sol\":14081:14088  x0 << 2 */\n      swap1\n      shl\n        /* \"https://github.com/succinctlabs/sp1-contracts/blob/main/contracts/src/v3.0.0/Groth16Verifier.sol\":14080:14106  (x0 << 2) | (hint ? 2 : 0) */\n      or\n        /* \"https://github.com/succinctlabs/sp1-contracts/blob/main/contracts/src/v3.0.0/Groth16Verifier.sol\":14080:14110  (x0 << 2) | (hint ? 2 : 0) | 0 */\n      or\n        /* \"https://github.com/succinctlabs/sp1-contracts/blob/main/contracts/src/v3.0.0/Groth16Verifier.sol\":14075:14110  c0 = (x0 << 2) | (hint ? 2 : 0) | 0 */\n      swap5\n      pop\n        /* \"https://github.com/succinctlabs/sp1-contracts/blob/main/contracts/src/v3.0.0/Groth16Verifier.sol\":14129:14131  x1 */\n      dup8\n        /* \"https://github.com/succinctlabs/sp1-contracts/blob/main/contracts/src/v3.0.0/Groth16Verifier.sol\":14124:14131  c1 = x1 */\n      swap4\n      pop\n        /* \"https://github.com/succinctlabs/sp1-contracts/blob/main/contracts/src/v3.0.0/Groth16Verifier.sol\":14027:14369  if (y0 == y0_pos && y1 == y1_pos) {... */\n      jump(tag_200)\n    tag_197:\n        /* \"https://github.com/succinctlabs/sp1-contracts/blob/main/contracts/src/v3.0.0/Groth16Verifier.sol\":14158:14172  negate(y0_pos) */\n      tag_201\n        /* \"https://github.com/succinctlabs/sp1-contracts/blob/main/contracts/src/v3.0.0/Groth16Verifier.sol\":14165:14171  y0_pos */\n      dup4\n        /* \"https://github.com/succinctlabs/sp1-contracts/blob/main/contracts/src/v3.0.0/Groth16Verifier.sol\":14158:14164  negate */\n      tag_145\n        /* \"https://github.com/succinctlabs/sp1-contracts/blob/main/contracts/src/v3.0.0/Groth16Verifier.sol\":14158:14172  negate(y0_pos) */\n      jump\t// in\n    tag_201:\n        /* \"https://github.com/succinctlabs/sp1-contracts/blob/main/contracts/src/v3.0.0/Groth16Verifier.sol\":14152:14154  y0 */\n      dup8\n        /* \"https://github.com/succinctlabs/sp1-contracts/blob/main/contracts/src/v3.0.0/Groth16Verifier.sol\":14152:14172  y0 == negate(y0_pos) */\n      eq\n        /* \"https://github.com/succinctlabs/sp1-contracts/blob/main/contracts/src/v3.0.0/Groth16Verifier.sol\":14152:14196  y0 == negate(y0_pos) && y1 == negate(y1_pos) */\n      dup1\n      iszero\n      tag_202\n      jumpi\n      pop\n        /* \"https://github.com/succinctlabs/sp1-contracts/blob/main/contracts/src/v3.0.0/Groth16Verifier.sol\":14182:14196  negate(y1_pos) */\n      tag_203\n        /* \"https://github.com/succinctlabs/sp1-contracts/blob/main/contracts/src/v3.0.0/Groth16Verifier.sol\":14189:14195  y1_pos */\n      dup3\n        /* \"https://github.com/succinctlabs/sp1-contracts/blob/main/contracts/src/v3.0.0/Groth16Verifier.sol\":14182:14188  negate */\n      tag_145\n        /* \"https://github.com/succinctlabs/sp1-contracts/blob/main/contracts/src/v3.0.0/Groth16Verifier.sol\":14182:14196  negate(y1_pos) */\n      jump\t// in\n    tag_203:\n        /* \"https://github.com/succinctlabs/sp1-contracts/blob/main/contracts/src/v3.0.0/Groth16Verifier.sol\":14176:14178  y1 */\n      dup7\n        /* \"https://github.com/succinctlabs/sp1-contracts/blob/main/contracts/src/v3.0.0/Groth16Verifier.sol\":14176:14196  y1 == negate(y1_pos) */\n      eq\n        /* \"https://github.com/succinctlabs/sp1-contracts/blob/main/contracts/src/v3.0.0/Groth16Verifier.sol\":14152:14196  y0 == negate(y0_pos) && y1 == negate(y1_pos) */\n    tag_202:\n        /* \"https://github.com/succinctlabs/sp1-contracts/blob/main/contracts/src/v3.0.0/Groth16Verifier.sol\":14148:14369  if (y0 == negate(y0_pos) && y1 == negate(y1_pos)) {... */\n      iszero\n      tag_204\n      jumpi\n        /* \"https://github.com/succinctlabs/sp1-contracts/blob/main/contracts/src/v3.0.0/Groth16Verifier.sol\":14246:14247  1 */\n      0x01\n        /* \"https://github.com/succinctlabs/sp1-contracts/blob/main/contracts/src/v3.0.0/Groth16Verifier.sol\":14230:14234  hint */\n      dup2\n        /* \"https://github.com/succinctlabs/sp1-contracts/blob/main/contracts/src/v3.0.0/Groth16Verifier.sol\":14230:14242  hint ? 2 : 0 */\n      tag_205\n      jumpi\n        /* \"https://github.com/succinctlabs/sp1-contracts/blob/main/contracts/src/v3.0.0/Groth16Verifier.sol\":14241:14242  0 */\n      0x00\n        /* \"https://github.com/succinctlabs/sp1-contracts/blob/main/contracts/src/v3.0.0/Groth16Verifier.sol\":14230:14242  hint ? 2 : 0 */\n      jump(tag_206)\n    tag_205:\n        /* \"https://github.com/succinctlabs/sp1-contracts/blob/main/contracts/src/v3.0.0/Groth16Verifier.sol\":14237:14238  2 */\n      0x02\n        /* \"https://github.com/succinctlabs/sp1-contracts/blob/main/contracts/src/v3.0.0/Groth16Verifier.sol\":14230:14242  hint ? 2 : 0 */\n    tag_206:\n        /* \"https://github.com/succinctlabs/sp1-contracts/blob/main/contracts/src/v3.0.0/Groth16Verifier.sol\":14217:14243  (x0 << 2) | (hint ? 2 : 0) */\n      0xff\n      and\n        /* \"https://github.com/succinctlabs/sp1-contracts/blob/main/contracts/src/v3.0.0/Groth16Verifier.sol\":14224:14225  2 */\n      0x02\n        /* \"https://github.com/succinctlabs/sp1-contracts/blob/main/contracts/src/v3.0.0/Groth16Verifier.sol\":14218:14220  x0 */\n      dup12\n        /* \"https://github.com/succinctlabs/sp1-contracts/blob/main/contracts/src/v3.0.0/Groth16Verifier.sol\":14218:14225  x0 << 2 */\n      swap1\n      shl\n        /* \"https://github.com/succinctlabs/sp1-contracts/blob/main/contracts/src/v3.0.0/Groth16Verifier.sol\":14217:14243  (x0 << 2) | (hint ? 2 : 0) */\n      or\n        /* \"https://github.com/succinctlabs/sp1-contracts/blob/main/contracts/src/v3.0.0/Groth16Verifier.sol\":14217:14247  (x0 << 2) | (hint ? 2 : 0) | 1 */\n      or\n        /* \"https://github.com/succinctlabs/sp1-contracts/blob/main/contracts/src/v3.0.0/Groth16Verifier.sol\":14212:14247  c0 = (x0 << 2) | (hint ? 2 : 0) | 1 */\n      swap5\n      pop\n        /* \"https://github.com/succinctlabs/sp1-contracts/blob/main/contracts/src/v3.0.0/Groth16Verifier.sol\":14266:14268  x1 */\n      dup8\n        /* \"https://github.com/succinctlabs/sp1-contracts/blob/main/contracts/src/v3.0.0/Groth16Verifier.sol\":14261:14268  c1 = x1 */\n      swap4\n      pop\n        /* \"https://github.com/succinctlabs/sp1-contracts/blob/main/contracts/src/v3.0.0/Groth16Verifier.sol\":14148:14369  if (y0 == negate(y0_pos) && y1 == negate(y1_pos)) {... */\n      jump(tag_207)\n    tag_204:\n        /* \"https://github.com/succinctlabs/sp1-contracts/blob/main/contracts/src/v3.0.0/Groth16Verifier.sol\":14344:14358  ProofInvalid() */\n      mload(0x40)\n      0x7fcdd1f400000000000000000000000000000000000000000000000000000000\n      dup2\n      mstore\n      0x04\n      add\n      mload(0x40)\n      dup1\n      swap2\n      sub\n      swap1\n      revert\n        /* \"https://github.com/succinctlabs/sp1-contracts/blob/main/contracts/src/v3.0.0/Groth16Verifier.sol\":14148:14369  if (y0 == negate(y0_pos) && y1 == negate(y1_pos)) {... */\n    tag_207:\n        /* \"https://github.com/succinctlabs/sp1-contracts/blob/main/contracts/src/v3.0.0/Groth16Verifier.sol\":14027:14369  if (y0 == y0_pos && y1 == y1_pos) {... */\n    tag_200:\n        /* \"https://github.com/succinctlabs/sp1-contracts/blob/main/contracts/src/v3.0.0/Groth16Verifier.sol\":12836:14375  {... */\n      pop\n      pop\n      pop\n        /* \"https://github.com/succinctlabs/sp1-contracts/blob/main/contracts/src/v3.0.0/Groth16Verifier.sol\":12692:14375  function compress_g2(uint256 x0, uint256 x1, uint256 y0, uint256 y1)... */\n    tag_148:\n      swap5\n      pop\n      swap5\n      swap3\n      pop\n      pop\n      pop\n      jump\t// out\n        /* \"https://github.com/succinctlabs/sp1-contracts/blob/main/contracts/src/v3.0.0/Groth16Verifier.sol\":17016:19043  function publicInputMSM(uint256[2] calldata input)... */\n    tag_55:\n        /* \"https://github.com/succinctlabs/sp1-contracts/blob/main/contracts/src/v3.0.0/Groth16Verifier.sol\":17114:17123  uint256 x */\n      0x00\n        /* \"https://github.com/succinctlabs/sp1-contracts/blob/main/contracts/src/v3.0.0/Groth16Verifier.sol\":17125:17134  uint256 y */\n      0x00\n        /* \"https://github.com/succinctlabs/sp1-contracts/blob/main/contracts/src/v3.0.0/Groth16Verifier.sol\":17743:17755  bool success */\n      0x00\n        /* \"https://github.com/succinctlabs/sp1-contracts/blob/main/contracts/src/v3.0.0/Groth16Verifier.sol\":17758:17762  true */\n      0x01\n        /* \"https://github.com/succinctlabs/sp1-contracts/blob/main/contracts/src/v3.0.0/Groth16Verifier.sol\":17743:17762  bool success = true */\n      swap1\n      pop\n        /* \"https://github.com/succinctlabs/sp1-contracts/blob/main/contracts/src/v3.0.0/Groth16Verifier.sol\":17826:17830  0x40 */\n      0x40\n        /* \"https://github.com/succinctlabs/sp1-contracts/blob/main/contracts/src/v3.0.0/Groth16Verifier.sol\":17820:17831  mload(0x40) */\n      mload\n        /* \"https://github.com/succinctlabs/sp1-contracts/blob/main/contracts/src/v3.0.0/Groth16Verifier.sol\":17860:17864  0x40 */\n      0x40\n        /* \"https://github.com/succinctlabs/sp1-contracts/blob/main/contracts/src/v3.0.0/Groth16Verifier.sol\":17857:17858  f */\n      dup2\n        /* \"https://github.com/succinctlabs/sp1-contracts/blob/main/contracts/src/v3.0.0/Groth16Verifier.sol\":17853:17865  add(f, 0x40) */\n      add\n        /* \"https://github.com/succinctlabs/sp1-contracts/blob/main/contracts/src/v3.0.0/Groth16Verifier.sol\":17878:17883  let s */\n      0x00\n        /* \"https://github.com/succinctlabs/sp1-contracts/blob/main/contracts/src/v3.0.0/Groth16Verifier.sol\":17906:17916  CONSTANT_X */\n      0x0251859caefe66b516c5549d3768d1ba94146083cb044026abebc99089919248\n        /* \"https://github.com/succinctlabs/sp1-contracts/blob/main/contracts/src/v3.0.0/Groth16Verifier.sol\":17903:17904  f */\n      dup4\n        /* \"https://github.com/succinctlabs/sp1-contracts/blob/main/contracts/src/v3.0.0/Groth16Verifier.sol\":17896:17917  mstore(f, CONSTANT_X) */\n      mstore\n        /* \"https://github.com/succinctlabs/sp1-contracts/blob/main/contracts/src/v3.0.0/Groth16Verifier.sol\":17951:17961  CONSTANT_Y */\n      0x2c1e789b2dcafdaa6853d0934c4443d223b8f050ce3466d068f2ab7efa29bc03\n        /* \"https://github.com/succinctlabs/sp1-contracts/blob/main/contracts/src/v3.0.0/Groth16Verifier.sol\":17944:17948  0x20 */\n      0x20\n        /* \"https://github.com/succinctlabs/sp1-contracts/blob/main/contracts/src/v3.0.0/Groth16Verifier.sol\":17941:17942  f */\n      dup5\n        /* \"https://github.com/succinctlabs/sp1-contracts/blob/main/contracts/src/v3.0.0/Groth16Verifier.sol\":17937:17949  add(f, 0x20) */\n      add\n        /* \"https://github.com/succinctlabs/sp1-contracts/blob/main/contracts/src/v3.0.0/Groth16Verifier.sol\":17930:17962  mstore(add(f, 0x20), CONSTANT_Y) */\n      mstore\n        /* \"https://github.com/succinctlabs/sp1-contracts/blob/main/contracts/src/v3.0.0/Groth16Verifier.sol\":17985:17992  PUB_0_X */\n      0x13a264f6a5d0e3938bea4e4431d417f2980774db501085ceafd0d7e76a7f128b\n        /* \"https://github.com/succinctlabs/sp1-contracts/blob/main/contracts/src/v3.0.0/Groth16Verifier.sol\":17982:17983  g */\n      dup3\n        /* \"https://github.com/succinctlabs/sp1-contracts/blob/main/contracts/src/v3.0.0/Groth16Verifier.sol\":17975:17993  mstore(g, PUB_0_X) */\n      mstore\n        /* \"https://github.com/succinctlabs/sp1-contracts/blob/main/contracts/src/v3.0.0/Groth16Verifier.sol\":18027:18034  PUB_0_Y */\n      0x155351b5ccccb7a37222f2b82fa4a968f33523326364fe52bb87d1ea3f47c697\n        /* \"https://github.com/succinctlabs/sp1-contracts/blob/main/contracts/src/v3.0.0/Groth16Verifier.sol\":18020:18024  0x20 */\n      0x20\n        /* \"https://github.com/succinctlabs/sp1-contracts/blob/main/contracts/src/v3.0.0/Groth16Verifier.sol\":18017:18018  g */\n      dup4\n        /* \"https://github.com/succinctlabs/sp1-contracts/blob/main/contracts/src/v3.0.0/Groth16Verifier.sol\":18013:18025  add(g, 0x20) */\n      add\n        /* \"https://github.com/succinctlabs/sp1-contracts/blob/main/contracts/src/v3.0.0/Groth16Verifier.sol\":18006:18035  mstore(add(g, 0x20), PUB_0_Y) */\n      mstore\n        /* \"https://github.com/succinctlabs/sp1-contracts/blob/main/contracts/src/v3.0.0/Groth16Verifier.sol\":18066:18071  input */\n      dup7\n        /* \"https://github.com/succinctlabs/sp1-contracts/blob/main/contracts/src/v3.0.0/Groth16Verifier.sol\":18053:18072  calldataload(input) */\n      calldataload\n        /* \"https://github.com/succinctlabs/sp1-contracts/blob/main/contracts/src/v3.0.0/Groth16Verifier.sol\":18048:18072  s := calldataload(input) */\n      swap1\n      pop\n        /* \"https://github.com/succinctlabs/sp1-contracts/blob/main/contracts/src/v3.0.0/Groth16Verifier.sol\":18106:18107  s */\n      dup1\n        /* \"https://github.com/succinctlabs/sp1-contracts/blob/main/contracts/src/v3.0.0/Groth16Verifier.sol\":18099:18103  0x40 */\n      0x40\n        /* \"https://github.com/succinctlabs/sp1-contracts/blob/main/contracts/src/v3.0.0/Groth16Verifier.sol\":18096:18097  g */\n      dup4\n        /* \"https://github.com/succinctlabs/sp1-contracts/blob/main/contracts/src/v3.0.0/Groth16Verifier.sol\":18092:18104  add(g, 0x40) */\n      add\n        /* \"https://github.com/succinctlabs/sp1-contracts/blob/main/contracts/src/v3.0.0/Groth16Verifier.sol\":18085:18108  mstore(add(g, 0x40), s) */\n      mstore\n        /* \"https://github.com/succinctlabs/sp1-contracts/blob/main/contracts/src/v3.0.0/Groth16Verifier.sol\":18151:18152  R */\n      0x30644e72e131a029b85045b68181585d2833e84879b9709143e1f593f0000001\n        /* \"https://github.com/succinctlabs/sp1-contracts/blob/main/contracts/src/v3.0.0/Groth16Verifier.sol\":18148:18149  s */\n      dup2\n        /* \"https://github.com/succinctlabs/sp1-contracts/blob/main/contracts/src/v3.0.0/Groth16Verifier.sol\":18145:18153  lt(s, R) */\n      lt\n        /* \"https://github.com/succinctlabs/sp1-contracts/blob/main/contracts/src/v3.0.0/Groth16Verifier.sol\":18136:18143  success */\n      dup5\n        /* \"https://github.com/succinctlabs/sp1-contracts/blob/main/contracts/src/v3.0.0/Groth16Verifier.sol\":18132:18154  and(success, lt(s, R)) */\n      and\n        /* \"https://github.com/succinctlabs/sp1-contracts/blob/main/contracts/src/v3.0.0/Groth16Verifier.sol\":18121:18154  success := and(success, lt(s, R)) */\n      swap4\n      pop\n        /* \"https://github.com/succinctlabs/sp1-contracts/blob/main/contracts/src/v3.0.0/Groth16Verifier.sol\":18237:18241  0x40 */\n      0x40\n        /* \"https://github.com/succinctlabs/sp1-contracts/blob/main/contracts/src/v3.0.0/Groth16Verifier.sol\":18234:18235  g */\n      dup3\n        /* \"https://github.com/succinctlabs/sp1-contracts/blob/main/contracts/src/v3.0.0/Groth16Verifier.sol\":18228:18232  0x60 */\n      0x60\n        /* \"https://github.com/succinctlabs/sp1-contracts/blob/main/contracts/src/v3.0.0/Groth16Verifier.sol\":18225:18226  g */\n      dup5\n        /* \"https://github.com/succinctlabs/sp1-contracts/blob/main/contracts/src/v3.0.0/Groth16Verifier.sol\":18209:18223  PRECOMPILE_MUL */\n      0x07\n        /* \"https://github.com/succinctlabs/sp1-contracts/blob/main/contracts/src/v3.0.0/Groth16Verifier.sol\":18202:18207  gas() */\n      gas\n        /* \"https://github.com/succinctlabs/sp1-contracts/blob/main/contracts/src/v3.0.0/Groth16Verifier.sol\":18191:18242  staticcall(gas(), PRECOMPILE_MUL, g, 0x60, g, 0x40) */\n      staticcall\n        /* \"https://github.com/succinctlabs/sp1-contracts/blob/main/contracts/src/v3.0.0/Groth16Verifier.sol\":18182:18189  success */\n      dup5\n        /* \"https://github.com/succinctlabs/sp1-contracts/blob/main/contracts/src/v3.0.0/Groth16Verifier.sol\":18178:18243  and(success, staticcall(gas(), PRECOMPILE_MUL, g, 0x60, g, 0x40)) */\n      and\n        /* \"https://github.com/succinctlabs/sp1-contracts/blob/main/contracts/src/v3.0.0/Groth16Verifier.sol\":18167:18243  success := and(success, staticcall(gas(), PRECOMPILE_MUL, g, 0x60, g, 0x40)) */\n      swap4\n      pop\n        /* \"https://github.com/succinctlabs/sp1-contracts/blob/main/contracts/src/v3.0.0/Groth16Verifier.sol\":18326:18330  0x40 */\n      0x40\n        /* \"https://github.com/succinctlabs/sp1-contracts/blob/main/contracts/src/v3.0.0/Groth16Verifier.sol\":18323:18324  f */\n      dup4\n        /* \"https://github.com/succinctlabs/sp1-contracts/blob/main/contracts/src/v3.0.0/Groth16Verifier.sol\":18317:18321  0x80 */\n      0x80\n        /* \"https://github.com/succinctlabs/sp1-contracts/blob/main/contracts/src/v3.0.0/Groth16Verifier.sol\":18314:18315  f */\n      dup6\n        /* \"https://github.com/succinctlabs/sp1-contracts/blob/main/contracts/src/v3.0.0/Groth16Verifier.sol\":18298:18312  PRECOMPILE_ADD */\n      0x06\n        /* \"https://github.com/succinctlabs/sp1-contracts/blob/main/contracts/src/v3.0.0/Groth16Verifier.sol\":18291:18296  gas() */\n      gas\n        /* \"https://github.com/succinctlabs/sp1-contracts/blob/main/contracts/src/v3.0.0/Groth16Verifier.sol\":18280:18331  staticcall(gas(), PRECOMPILE_ADD, f, 0x80, f, 0x40) */\n      staticcall\n        /* \"https://github.com/succinctlabs/sp1-contracts/blob/main/contracts/src/v3.0.0/Groth16Verifier.sol\":18271:18278  success */\n      dup5\n        /* \"https://github.com/succinctlabs/sp1-contracts/blob/main/contracts/src/v3.0.0/Groth16Verifier.sol\":18267:18332  and(success, staticcall(gas(), PRECOMPILE_ADD, f, 0x80, f, 0x40)) */\n      and\n        /* \"https://github.com/succinctlabs/sp1-contracts/blob/main/contracts/src/v3.0.0/Groth16Verifier.sol\":18256:18332  success := and(success, staticcall(gas(), PRECOMPILE_ADD, f, 0x80, f, 0x40)) */\n      swap4\n      pop\n        /* \"https://github.com/succinctlabs/sp1-contracts/blob/main/contracts/src/v3.0.0/Groth16Verifier.sol\":18355:18362  PUB_1_X */\n      0x03777818388f77b4065a87d01e141b5fec2ee452d1ada3493892aca2c4da5d40\n        /* \"https://github.com/succinctlabs/sp1-contracts/blob/main/contracts/src/v3.0.0/Groth16Verifier.sol\":18352:18353  g */\n      dup3\n        /* \"https://github.com/succinctlabs/sp1-contracts/blob/main/contracts/src/v3.0.0/Groth16Verifier.sol\":18345:18363  mstore(g, PUB_1_X) */\n      mstore\n        /* \"https://github.com/succinctlabs/sp1-contracts/blob/main/contracts/src/v3.0.0/Groth16Verifier.sol\":18397:18404  PUB_1_Y */\n      0x0fb2382a8c87c5992ee8385e493ffd96983c8c42c5545a4daaab264f482865b5\n        /* \"https://github.com/succinctlabs/sp1-contracts/blob/main/contracts/src/v3.0.0/Groth16Verifier.sol\":18390:18394  0x20 */\n      0x20\n        /* \"https://github.com/succinctlabs/sp1-contracts/blob/main/contracts/src/v3.0.0/Groth16Verifier.sol\":18387:18388  g */\n      dup4\n        /* \"https://github.com/succinctlabs/sp1-contracts/blob/main/contracts/src/v3.0.0/Groth16Verifier.sol\":18383:18395  add(g, 0x20) */\n      add\n        /* \"https://github.com/succinctlabs/sp1-contracts/blob/main/contracts/src/v3.0.0/Groth16Verifier.sol\":18376:18405  mstore(add(g, 0x20), PUB_1_Y) */\n      mstore\n        /* \"https://github.com/succinctlabs/sp1-contracts/blob/main/contracts/src/v3.0.0/Groth16Verifier.sol\":18447:18449  32 */\n      0x20\n        /* \"https://github.com/succinctlabs/sp1-contracts/blob/main/contracts/src/v3.0.0/Groth16Verifier.sol\":18440:18445  input */\n      dup8\n        /* \"https://github.com/succinctlabs/sp1-contracts/blob/main/contracts/src/v3.0.0/Groth16Verifier.sol\":18436:18450  add(input, 32) */\n      add\n        /* \"https://github.com/succinctlabs/sp1-contracts/blob/main/contracts/src/v3.0.0/Groth16Verifier.sol\":18423:18451  calldataload(add(input, 32)) */\n      calldataload\n        /* \"https://github.com/succinctlabs/sp1-contracts/blob/main/contracts/src/v3.0.0/Groth16Verifier.sol\":18418:18451  s := calldataload(add(input, 32)) */\n      swap1\n      pop\n        /* \"https://github.com/succinctlabs/sp1-contracts/blob/main/contracts/src/v3.0.0/Groth16Verifier.sol\":18485:18486  s */\n      dup1\n        /* \"https://github.com/succinctlabs/sp1-contracts/blob/main/contracts/src/v3.0.0/Groth16Verifier.sol\":18478:18482  0x40 */\n      0x40\n        /* \"https://github.com/succinctlabs/sp1-contracts/blob/main/contracts/src/v3.0.0/Groth16Verifier.sol\":18475:18476  g */\n      dup4\n        /* \"https://github.com/succinctlabs/sp1-contracts/blob/main/contracts/src/v3.0.0/Groth16Verifier.sol\":18471:18483  add(g, 0x40) */\n      add\n        /* \"https://github.com/succinctlabs/sp1-contracts/blob/main/contracts/src/v3.0.0/Groth16Verifier.sol\":18464:18487  mstore(add(g, 0x40), s) */\n      mstore\n        /* \"https://github.com/succinctlabs/sp1-contracts/blob/main/contracts/src/v3.0.0/Groth16Verifier.sol\":18530:18531  R */\n      0x30644e72e131a029b85045b68181585d2833e84879b9709143e1f593f0000001\n        /* \"https://github.com/succinctlabs/sp1-contracts/blob/main/contracts/src/v3.0.0/Groth16Verifier.sol\":18527:18528  s */\n      dup2\n        /* \"https://github.com/succinctlabs/sp1-contracts/blob/main/contracts/src/v3.0.0/Groth16Verifier.sol\":18524:18532  lt(s, R) */\n      lt\n        /* \"https://github.com/succinctlabs/sp1-contracts/blob/main/contracts/src/v3.0.0/Groth16Verifier.sol\":18515:18522  success */\n      dup5\n        /* \"https://github.com/succinctlabs/sp1-contracts/blob/main/contracts/src/v3.0.0/Groth16Verifier.sol\":18511:18533  and(success, lt(s, R)) */\n      and\n        /* \"https://github.com/succinctlabs/sp1-contracts/blob/main/contracts/src/v3.0.0/Groth16Verifier.sol\":18500:18533  success := and(success, lt(s, R)) */\n      swap4\n      pop\n        /* \"https://github.com/succinctlabs/sp1-contracts/blob/main/contracts/src/v3.0.0/Groth16Verifier.sol\":18616:18620  0x40 */\n      0x40\n        /* \"https://github.com/succinctlabs/sp1-contracts/blob/main/contracts/src/v3.0.0/Groth16Verifier.sol\":18613:18614  g */\n      dup3\n        /* \"https://github.com/succinctlabs/sp1-contracts/blob/main/contracts/src/v3.0.0/Groth16Verifier.sol\":18607:18611  0x60 */\n      0x60\n        /* \"https://github.com/succinctlabs/sp1-contracts/blob/main/contracts/src/v3.0.0/Groth16Verifier.sol\":18604:18605  g */\n      dup5\n        /* \"https://github.com/succinctlabs/sp1-contracts/blob/main/contracts/src/v3.0.0/Groth16Verifier.sol\":18588:18602  PRECOMPILE_MUL */\n      0x07\n        /* \"https://github.com/succinctlabs/sp1-contracts/blob/main/contracts/src/v3.0.0/Groth16Verifier.sol\":18581:18586  gas() */\n      gas\n        /* \"https://github.com/succinctlabs/sp1-contracts/blob/main/contracts/src/v3.0.0/Groth16Verifier.sol\":18570:18621  staticcall(gas(), PRECOMPILE_MUL, g, 0x60, g, 0x40) */\n      staticcall\n        /* \"https://github.com/succinctlabs/sp1-contracts/blob/main/contracts/src/v3.0.0/Groth16Verifier.sol\":18561:18568  success */\n      dup5\n        /* \"https://github.com/succinctlabs/sp1-contracts/blob/main/contracts/src/v3.0.0/Groth16Verifier.sol\":18557:18622  and(success, staticcall(gas(), PRECOMPILE_MUL, g, 0x60, g, 0x40)) */\n      and\n        /* \"https://github.com/succinctlabs/sp1-contracts/blob/main/contracts/src/v3.0.0/Groth16Verifier.sol\":18546:18622  success := and(success, staticcall(gas(), PRECOMPILE_MUL, g, 0x60, g, 0x40)) */\n      swap4\n      pop\n        /* \"https://github.com/succinctlabs/sp1-contracts/blob/main/contracts/src/v3.0.0/Groth16Verifier.sol\":18705:18709  0x40 */\n      0x40\n        /* \"https://github.com/succinctlabs/sp1-contracts/blob/main/contracts/src/v3.0.0/Groth16Verifier.sol\":18702:18703  f */\n      dup4\n        /* \"https://github.com/succinctlabs/sp1-contracts/blob/main/contracts/src/v3.0.0/Groth16Verifier.sol\":18696:18700  0x80 */\n      0x80\n        /* \"https://github.com/succinctlabs/sp1-contracts/blob/main/contracts/src/v3.0.0/Groth16Verifier.sol\":18693:18694  f */\n      dup6\n        /* \"https://github.com/succinctlabs/sp1-contracts/blob/main/contracts/src/v3.0.0/Groth16Verifier.sol\":18677:18691  PRECOMPILE_ADD */\n      0x06\n        /* \"https://github.com/succinctlabs/sp1-contracts/blob/main/contracts/src/v3.0.0/Groth16Verifier.sol\":18670:18675  gas() */\n      gas\n        /* \"https://github.com/succinctlabs/sp1-contracts/blob/main/contracts/src/v3.0.0/Groth16Verifier.sol\":18659:18710  staticcall(gas(), PRECOMPILE_ADD, f, 0x80, f, 0x40) */\n      staticcall\n        /* \"https://github.com/succinctlabs/sp1-contracts/blob/main/contracts/src/v3.0.0/Groth16Verifier.sol\":18650:18657  success */\n      dup5\n        /* \"https://github.com/succinctlabs/sp1-contracts/blob/main/contracts/src/v3.0.0/Groth16Verifier.sol\":18646:18711  and(success, staticcall(gas(), PRECOMPILE_ADD, f, 0x80, f, 0x40)) */\n      and\n        /* \"https://github.com/succinctlabs/sp1-contracts/blob/main/contracts/src/v3.0.0/Groth16Verifier.sol\":18635:18711  success := and(success, staticcall(gas(), PRECOMPILE_ADD, f, 0x80, f, 0x40)) */\n      swap4\n      pop\n        /* \"https://github.com/succinctlabs/sp1-contracts/blob/main/contracts/src/v3.0.0/Groth16Verifier.sol\":18736:18737  f */\n      dup3\n        /* \"https://github.com/succinctlabs/sp1-contracts/blob/main/contracts/src/v3.0.0/Groth16Verifier.sol\":18730:18738  mload(f) */\n      mload\n        /* \"https://github.com/succinctlabs/sp1-contracts/blob/main/contracts/src/v3.0.0/Groth16Verifier.sol\":18725:18738  x := mload(f) */\n      swap6\n      pop\n        /* \"https://github.com/succinctlabs/sp1-contracts/blob/main/contracts/src/v3.0.0/Groth16Verifier.sol\":18769:18773  0x20 */\n      0x20\n        /* \"https://github.com/succinctlabs/sp1-contracts/blob/main/contracts/src/v3.0.0/Groth16Verifier.sol\":18766:18767  f */\n      dup4\n        /* \"https://github.com/succinctlabs/sp1-contracts/blob/main/contracts/src/v3.0.0/Groth16Verifier.sol\":18762:18774  add(f, 0x20) */\n      add\n        /* \"https://github.com/succinctlabs/sp1-contracts/blob/main/contracts/src/v3.0.0/Groth16Verifier.sol\":18756:18775  mload(add(f, 0x20)) */\n      mload\n        /* \"https://github.com/succinctlabs/sp1-contracts/blob/main/contracts/src/v3.0.0/Groth16Verifier.sol\":18751:18775  y := mload(add(f, 0x20)) */\n      swap5\n      pop\n        /* \"https://github.com/succinctlabs/sp1-contracts/blob/main/contracts/src/v3.0.0/Groth16Verifier.sol\":17797:18785  {... */\n      pop\n      pop\n      pop\n        /* \"https://github.com/succinctlabs/sp1-contracts/blob/main/contracts/src/v3.0.0/Groth16Verifier.sol\":18799:18806  success */\n      dup1\n        /* \"https://github.com/succinctlabs/sp1-contracts/blob/main/contracts/src/v3.0.0/Groth16Verifier.sol\":18794:19037  if (!success) {... */\n      tag_209\n      jumpi\n        /* \"https://github.com/succinctlabs/sp1-contracts/blob/main/contracts/src/v3.0.0/Groth16Verifier.sol\":19003:19026  PublicInputNotInField() */\n      mload(0x40)\n      0xa54f8e2700000000000000000000000000000000000000000000000000000000\n      dup2\n      mstore\n      0x04\n      add\n      mload(0x40)\n      dup1\n      swap2\n      sub\n      swap1\n      revert\n        /* \"https://github.com/succinctlabs/sp1-contracts/blob/main/contracts/src/v3.0.0/Groth16Verifier.sol\":18794:19037  if (!success) {... */\n    tag_209:\n        /* \"https://github.com/succinctlabs/sp1-contracts/blob/main/contracts/src/v3.0.0/Groth16Verifier.sol\":17140:19043  {... */\n      pop\n        /* \"https://github.com/succinctlabs/sp1-contracts/blob/main/contracts/src/v3.0.0/Groth16Verifier.sol\":17016:19043  function publicInputMSM(uint256[2] calldata input)... */\n      swap2\n      pop\n      swap2\n      jump\t// out\n        /* \"https://github.com/succinctlabs/sp1-contracts/blob/main/contracts/src/v3.0.0/Groth16Verifier.sol\":11048:11924  function decompress_g1(uint256 c) internal view returns (uint256 x, uint256 y) {... */\n    tag_63:\n        /* \"https://github.com/succinctlabs/sp1-contracts/blob/main/contracts/src/v3.0.0/Groth16Verifier.sol\":11105:11114  uint256 x */\n      0x00\n        /* \"https://github.com/succinctlabs/sp1-contracts/blob/main/contracts/src/v3.0.0/Groth16Verifier.sol\":11116:11125  uint256 y */\n      0x00\n        /* \"https://github.com/succinctlabs/sp1-contracts/blob/main/contracts/src/v3.0.0/Groth16Verifier.sol\":11292:11293  0 */\n      0x00\n        /* \"https://github.com/succinctlabs/sp1-contracts/blob/main/contracts/src/v3.0.0/Groth16Verifier.sol\":11287:11288  c */\n      dup4\n        /* \"https://github.com/succinctlabs/sp1-contracts/blob/main/contracts/src/v3.0.0/Groth16Verifier.sol\":11287:11293  c == 0 */\n      sub\n        /* \"https://github.com/succinctlabs/sp1-contracts/blob/main/contracts/src/v3.0.0/Groth16Verifier.sol\":11283:11399  if (c == 0) {... */\n      tag_211\n      jumpi\n        /* \"https://github.com/succinctlabs/sp1-contracts/blob/main/contracts/src/v3.0.0/Groth16Verifier.sol\":11383:11384  0 */\n      0x00\n        /* \"https://github.com/succinctlabs/sp1-contracts/blob/main/contracts/src/v3.0.0/Groth16Verifier.sol\":11386:11387  0 */\n      0x00\n        /* \"https://github.com/succinctlabs/sp1-contracts/blob/main/contracts/src/v3.0.0/Groth16Verifier.sol\":11375:11388  return (0, 0) */\n      swap2\n      pop\n      swap2\n      pop\n      jump(tag_210)\n        /* \"https://github.com/succinctlabs/sp1-contracts/blob/main/contracts/src/v3.0.0/Groth16Verifier.sol\":11283:11399  if (c == 0) {... */\n    tag_211:\n        /* \"https://github.com/succinctlabs/sp1-contracts/blob/main/contracts/src/v3.0.0/Groth16Verifier.sol\":11408:11425  bool negate_point */\n      0x00\n        /* \"https://github.com/succinctlabs/sp1-contracts/blob/main/contracts/src/v3.0.0/Groth16Verifier.sol\":11437:11438  1 */\n      0x01\n        /* \"https://github.com/succinctlabs/sp1-contracts/blob/main/contracts/src/v3.0.0/Groth16Verifier.sol\":11432:11433  1 */\n      dup1\n        /* \"https://github.com/succinctlabs/sp1-contracts/blob/main/contracts/src/v3.0.0/Groth16Verifier.sol\":11428:11429  c */\n      dup6\n        /* \"https://github.com/succinctlabs/sp1-contracts/blob/main/contracts/src/v3.0.0/Groth16Verifier.sol\":11428:11433  c & 1 */\n      and\n        /* \"https://github.com/succinctlabs/sp1-contracts/blob/main/contracts/src/v3.0.0/Groth16Verifier.sol\":11428:11438  c & 1 == 1 */\n      eq\n        /* \"https://github.com/succinctlabs/sp1-contracts/blob/main/contracts/src/v3.0.0/Groth16Verifier.sol\":11408:11438  bool negate_point = c & 1 == 1 */\n      swap1\n      pop\n        /* \"https://github.com/succinctlabs/sp1-contracts/blob/main/contracts/src/v3.0.0/Groth16Verifier.sol\":11457:11458  1 */\n      0x01\n        /* \"https://github.com/succinctlabs/sp1-contracts/blob/main/contracts/src/v3.0.0/Groth16Verifier.sol\":11452:11453  c */\n      dup5\n        /* \"https://github.com/succinctlabs/sp1-contracts/blob/main/contracts/src/v3.0.0/Groth16Verifier.sol\":11452:11458  c >> 1 */\n      swap1\n      shr\n        /* \"https://github.com/succinctlabs/sp1-contracts/blob/main/contracts/src/v3.0.0/Groth16Verifier.sol\":11448:11458  x = c >> 1 */\n      swap3\n      pop\n        /* \"https://github.com/succinctlabs/sp1-contracts/blob/main/contracts/src/v3.0.0/Groth16Verifier.sol\":1394:1460  0x30644e72e131a029b85045b68181585d97816a916871ca8d3c208c16d87cfd47 */\n      0x30644e72e131a029b85045b68181585d97816a916871ca8d3c208c16d87cfd47\n        /* \"https://github.com/succinctlabs/sp1-contracts/blob/main/contracts/src/v3.0.0/Groth16Verifier.sol\":11472:11473  x */\n      dup4\n        /* \"https://github.com/succinctlabs/sp1-contracts/blob/main/contracts/src/v3.0.0/Groth16Verifier.sol\":11472:11478  x >= P */\n      lt\n        /* \"https://github.com/succinctlabs/sp1-contracts/blob/main/contracts/src/v3.0.0/Groth16Verifier.sol\":11468:11571  if (x >= P) {... */\n      tag_212\n      jumpi\n        /* \"https://github.com/succinctlabs/sp1-contracts/blob/main/contracts/src/v3.0.0/Groth16Verifier.sol\":11546:11560  ProofInvalid() */\n      mload(0x40)\n      0x7fcdd1f400000000000000000000000000000000000000000000000000000000\n      dup2\n      mstore\n      0x04\n      add\n      mload(0x40)\n      dup1\n      swap2\n      sub\n      swap1\n      revert\n        /* \"https://github.com/succinctlabs/sp1-contracts/blob/main/contracts/src/v3.0.0/Groth16Verifier.sol\":11468:11571  if (x >= P) {... */\n    tag_212:\n        /* \"https://github.com/succinctlabs/sp1-contracts/blob/main/contracts/src/v3.0.0/Groth16Verifier.sol\":11800:11852  sqrt_Fp(addmod(mulmod(mulmod(x, x, P), x, P), 3, P)) */\n      tag_213\n        /* \"https://github.com/succinctlabs/sp1-contracts/blob/main/contracts/src/v3.0.0/Groth16Verifier.sol\":1394:1460  0x30644e72e131a029b85045b68181585d97816a916871ca8d3c208c16d87cfd47 */\n      0x30644e72e131a029b85045b68181585d97816a916871ca8d3c208c16d87cfd47\n        /* \"https://github.com/succinctlabs/sp1-contracts/blob/main/contracts/src/v3.0.0/Groth16Verifier.sol\":11808:11851  addmod(mulmod(mulmod(x, x, P), x, P), 3, P) */\n      dup1\n      tag_214\n      jumpi\n      tag_215\n      tag_136\n      jump\t// in\n    tag_215:\n    tag_214:\n        /* \"https://github.com/succinctlabs/sp1-contracts/blob/main/contracts/src/v3.0.0/Groth16Verifier.sol\":11846:11847  3 */\n      0x03\n        /* \"https://github.com/succinctlabs/sp1-contracts/blob/main/contracts/src/v3.0.0/Groth16Verifier.sol\":1394:1460  0x30644e72e131a029b85045b68181585d97816a916871ca8d3c208c16d87cfd47 */\n      0x30644e72e131a029b85045b68181585d97816a916871ca8d3c208c16d87cfd47\n        /* \"https://github.com/succinctlabs/sp1-contracts/blob/main/contracts/src/v3.0.0/Groth16Verifier.sol\":11815:11844  mulmod(mulmod(x, x, P), x, P) */\n      dup1\n      tag_216\n      jumpi\n      tag_217\n      tag_136\n      jump\t// in\n    tag_217:\n    tag_216:\n        /* \"https://github.com/succinctlabs/sp1-contracts/blob/main/contracts/src/v3.0.0/Groth16Verifier.sol\":11839:11840  x */\n      dup7\n        /* \"https://github.com/succinctlabs/sp1-contracts/blob/main/contracts/src/v3.0.0/Groth16Verifier.sol\":1394:1460  0x30644e72e131a029b85045b68181585d97816a916871ca8d3c208c16d87cfd47 */\n      0x30644e72e131a029b85045b68181585d97816a916871ca8d3c208c16d87cfd47\n        /* \"https://github.com/succinctlabs/sp1-contracts/blob/main/contracts/src/v3.0.0/Groth16Verifier.sol\":11822:11837  mulmod(x, x, P) */\n      dup1\n      tag_218\n      jumpi\n      tag_219\n      tag_136\n      jump\t// in\n    tag_219:\n    tag_218:\n        /* \"https://github.com/succinctlabs/sp1-contracts/blob/main/contracts/src/v3.0.0/Groth16Verifier.sol\":11832:11833  x */\n      dup9\n        /* \"https://github.com/succinctlabs/sp1-contracts/blob/main/contracts/src/v3.0.0/Groth16Verifier.sol\":11829:11830  x */\n      dup10\n        /* \"https://github.com/succinctlabs/sp1-contracts/blob/main/contracts/src/v3.0.0/Groth16Verifier.sol\":11822:11837  mulmod(x, x, P) */\n      mulmod\n        /* \"https://github.com/succinctlabs/sp1-contracts/blob/main/contracts/src/v3.0.0/Groth16Verifier.sol\":11815:11844  mulmod(mulmod(x, x, P), x, P) */\n      mulmod\n        /* \"https://github.com/succinctlabs/sp1-contracts/blob/main/contracts/src/v3.0.0/Groth16Verifier.sol\":11808:11851  addmod(mulmod(mulmod(x, x, P), x, P), 3, P) */\n      addmod\n        /* \"https://github.com/succinctlabs/sp1-contracts/blob/main/contracts/src/v3.0.0/Groth16Verifier.sol\":11800:11807  sqrt_Fp */\n      tag_141\n        /* \"https://github.com/succinctlabs/sp1-contracts/blob/main/contracts/src/v3.0.0/Groth16Verifier.sol\":11800:11852  sqrt_Fp(addmod(mulmod(mulmod(x, x, P), x, P), 3, P)) */\n      jump\t// in\n    tag_213:\n        /* \"https://github.com/succinctlabs/sp1-contracts/blob/main/contracts/src/v3.0.0/Groth16Verifier.sol\":11796:11852  y = sqrt_Fp(addmod(mulmod(mulmod(x, x, P), x, P), 3, P)) */\n      swap2\n      pop\n        /* \"https://github.com/succinctlabs/sp1-contracts/blob/main/contracts/src/v3.0.0/Groth16Verifier.sol\":11866:11878  negate_point */\n      dup1\n        /* \"https://github.com/succinctlabs/sp1-contracts/blob/main/contracts/src/v3.0.0/Groth16Verifier.sol\":11862:11918  if (negate_point) {... */\n      iszero\n      tag_220\n      jumpi\n        /* \"https://github.com/succinctlabs/sp1-contracts/blob/main/contracts/src/v3.0.0/Groth16Verifier.sol\":11898:11907  negate(y) */\n      tag_221\n        /* \"https://github.com/succinctlabs/sp1-contracts/blob/main/contracts/src/v3.0.0/Groth16Verifier.sol\":11905:11906  y */\n      dup3\n        /* \"https://github.com/succinctlabs/sp1-contracts/blob/main/contracts/src/v3.0.0/Groth16Verifier.sol\":11898:11904  negate */\n      tag_145\n        /* \"https://github.com/succinctlabs/sp1-contracts/blob/main/contracts/src/v3.0.0/Groth16Verifier.sol\":11898:11907  negate(y) */\n      jump\t// in\n    tag_221:\n        /* \"https://github.com/succinctlabs/sp1-contracts/blob/main/contracts/src/v3.0.0/Groth16Verifier.sol\":11894:11907  y = negate(y) */\n      swap2\n      pop\n        /* \"https://github.com/succinctlabs/sp1-contracts/blob/main/contracts/src/v3.0.0/Groth16Verifier.sol\":11862:11918  if (negate_point) {... */\n    tag_220:\n        /* \"https://github.com/succinctlabs/sp1-contracts/blob/main/contracts/src/v3.0.0/Groth16Verifier.sol\":11127:11924  {... */\n      pop\n        /* \"https://github.com/succinctlabs/sp1-contracts/blob/main/contracts/src/v3.0.0/Groth16Verifier.sol\":11048:11924  function decompress_g1(uint256 c) internal view returns (uint256 x, uint256 y) {... */\n    tag_210:\n      swap2\n      pop\n      swap2\n      jump\t// out\n        /* \"https://github.com/succinctlabs/sp1-contracts/blob/main/contracts/src/v3.0.0/Groth16Verifier.sol\":15113:16517  function decompress_g2(uint256 c0, uint256 c1)... */\n    tag_69:\n        /* \"https://github.com/succinctlabs/sp1-contracts/blob/main/contracts/src/v3.0.0/Groth16Verifier.sol\":15207:15217  uint256 x0 */\n      0x00\n        /* \"https://github.com/succinctlabs/sp1-contracts/blob/main/contracts/src/v3.0.0/Groth16Verifier.sol\":15219:15229  uint256 x1 */\n      0x00\n        /* \"https://github.com/succinctlabs/sp1-contracts/blob/main/contracts/src/v3.0.0/Groth16Verifier.sol\":15231:15241  uint256 y0 */\n      0x00\n        /* \"https://github.com/succinctlabs/sp1-contracts/blob/main/contracts/src/v3.0.0/Groth16Verifier.sol\":15243:15253  uint256 y1 */\n      0x00\n        /* \"https://github.com/succinctlabs/sp1-contracts/blob/main/contracts/src/v3.0.0/Groth16Verifier.sol\":15434:15435  0 */\n      0x00\n        /* \"https://github.com/succinctlabs/sp1-contracts/blob/main/contracts/src/v3.0.0/Groth16Verifier.sol\":15428:15430  c0 */\n      dup7\n        /* \"https://github.com/succinctlabs/sp1-contracts/blob/main/contracts/src/v3.0.0/Groth16Verifier.sol\":15428:15435  c0 == 0 */\n      eq\n        /* \"https://github.com/succinctlabs/sp1-contracts/blob/main/contracts/src/v3.0.0/Groth16Verifier.sol\":15428:15446  c0 == 0 && c1 == 0 */\n      dup1\n      iszero\n      tag_223\n      jumpi\n      pop\n        /* \"https://github.com/succinctlabs/sp1-contracts/blob/main/contracts/src/v3.0.0/Groth16Verifier.sol\":15445:15446  0 */\n      0x00\n        /* \"https://github.com/succinctlabs/sp1-contracts/blob/main/contracts/src/v3.0.0/Groth16Verifier.sol\":15439:15441  c1 */\n      dup6\n        /* \"https://github.com/succinctlabs/sp1-contracts/blob/main/contracts/src/v3.0.0/Groth16Verifier.sol\":15439:15446  c1 == 0 */\n      eq\n        /* \"https://github.com/succinctlabs/sp1-contracts/blob/main/contracts/src/v3.0.0/Groth16Verifier.sol\":15428:15446  c0 == 0 && c1 == 0 */\n    tag_223:\n        /* \"https://github.com/succinctlabs/sp1-contracts/blob/main/contracts/src/v3.0.0/Groth16Verifier.sol\":15424:15547  if (c0 == 0 && c1 == 0) {... */\n      iszero\n      tag_224\n      jumpi\n        /* \"https://github.com/succinctlabs/sp1-contracts/blob/main/contracts/src/v3.0.0/Groth16Verifier.sol\":15525:15526  0 */\n      0x00\n        /* \"https://github.com/succinctlabs/sp1-contracts/blob/main/contracts/src/v3.0.0/Groth16Verifier.sol\":15528:15529  0 */\n      0x00\n        /* \"https://github.com/succinctlabs/sp1-contracts/blob/main/contracts/src/v3.0.0/Groth16Verifier.sol\":15531:15532  0 */\n      0x00\n        /* \"https://github.com/succinctlabs/sp1-contracts/blob/main/contracts/src/v3.0.0/Groth16Verifier.sol\":15534:15535  0 */\n      0x00\n        /* \"https://github.com/succinctlabs/sp1-contracts/blob/main/contracts/src/v3.0.0/Groth16Verifier.sol\":15517:15536  return (0, 0, 0, 0) */\n      swap4\n      pop\n      swap4\n      pop\n      swap4\n      pop\n      swap4\n      pop\n      jump(tag_222)\n        /* \"https://github.com/succinctlabs/sp1-contracts/blob/main/contracts/src/v3.0.0/Groth16Verifier.sol\":15424:15547  if (c0 == 0 && c1 == 0) {... */\n    tag_224:\n        /* \"https://github.com/succinctlabs/sp1-contracts/blob/main/contracts/src/v3.0.0/Groth16Verifier.sol\":15556:15573  bool negate_point */\n      0x00\n        /* \"https://github.com/succinctlabs/sp1-contracts/blob/main/contracts/src/v3.0.0/Groth16Verifier.sol\":15586:15587  1 */\n      0x01\n        /* \"https://github.com/succinctlabs/sp1-contracts/blob/main/contracts/src/v3.0.0/Groth16Verifier.sol\":15581:15582  1 */\n      dup1\n        /* \"https://github.com/succinctlabs/sp1-contracts/blob/main/contracts/src/v3.0.0/Groth16Verifier.sol\":15576:15578  c0 */\n      dup9\n        /* \"https://github.com/succinctlabs/sp1-contracts/blob/main/contracts/src/v3.0.0/Groth16Verifier.sol\":15576:15582  c0 & 1 */\n      and\n        /* \"https://github.com/succinctlabs/sp1-contracts/blob/main/contracts/src/v3.0.0/Groth16Verifier.sol\":15576:15587  c0 & 1 == 1 */\n      eq\n        /* \"https://github.com/succinctlabs/sp1-contracts/blob/main/contracts/src/v3.0.0/Groth16Verifier.sol\":15556:15587  bool negate_point = c0 & 1 == 1 */\n      swap1\n      pop\n        /* \"https://github.com/succinctlabs/sp1-contracts/blob/main/contracts/src/v3.0.0/Groth16Verifier.sol\":15597:15606  bool hint */\n      0x00\n        /* \"https://github.com/succinctlabs/sp1-contracts/blob/main/contracts/src/v3.0.0/Groth16Verifier.sol\":15619:15620  2 */\n      0x02\n        /* \"https://github.com/succinctlabs/sp1-contracts/blob/main/contracts/src/v3.0.0/Groth16Verifier.sol\":15614:15615  2 */\n      dup1\n        /* \"https://github.com/succinctlabs/sp1-contracts/blob/main/contracts/src/v3.0.0/Groth16Verifier.sol\":15609:15611  c0 */\n      dup10\n        /* \"https://github.com/succinctlabs/sp1-contracts/blob/main/contracts/src/v3.0.0/Groth16Verifier.sol\":15609:15615  c0 & 2 */\n      and\n        /* \"https://github.com/succinctlabs/sp1-contracts/blob/main/contracts/src/v3.0.0/Groth16Verifier.sol\":15609:15620  c0 & 2 == 2 */\n      eq\n        /* \"https://github.com/succinctlabs/sp1-contracts/blob/main/contracts/src/v3.0.0/Groth16Verifier.sol\":15597:15620  bool hint = c0 & 2 == 2 */\n      swap1\n      pop\n        /* \"https://github.com/succinctlabs/sp1-contracts/blob/main/contracts/src/v3.0.0/Groth16Verifier.sol\":15641:15642  2 */\n      0x02\n        /* \"https://github.com/succinctlabs/sp1-contracts/blob/main/contracts/src/v3.0.0/Groth16Verifier.sol\":15635:15637  c0 */\n      dup9\n        /* \"https://github.com/succinctlabs/sp1-contracts/blob/main/contracts/src/v3.0.0/Groth16Verifier.sol\":15635:15642  c0 >> 2 */\n      swap1\n      shr\n        /* \"https://github.com/succinctlabs/sp1-contracts/blob/main/contracts/src/v3.0.0/Groth16Verifier.sol\":15630:15642  x0 = c0 >> 2 */\n      swap6\n      pop\n        /* \"https://github.com/succinctlabs/sp1-contracts/blob/main/contracts/src/v3.0.0/Groth16Verifier.sol\":15657:15659  c1 */\n      dup7\n        /* \"https://github.com/succinctlabs/sp1-contracts/blob/main/contracts/src/v3.0.0/Groth16Verifier.sol\":15652:15659  x1 = c1 */\n      swap5\n      pop\n        /* \"https://github.com/succinctlabs/sp1-contracts/blob/main/contracts/src/v3.0.0/Groth16Verifier.sol\":1394:1460  0x30644e72e131a029b85045b68181585d97816a916871ca8d3c208c16d87cfd47 */\n      0x30644e72e131a029b85045b68181585d97816a916871ca8d3c208c16d87cfd47\n        /* \"https://github.com/succinctlabs/sp1-contracts/blob/main/contracts/src/v3.0.0/Groth16Verifier.sol\":15673:15675  x0 */\n      dup7\n        /* \"https://github.com/succinctlabs/sp1-contracts/blob/main/contracts/src/v3.0.0/Groth16Verifier.sol\":15673:15680  x0 >= P */\n      lt\n      iszero\n        /* \"https://github.com/succinctlabs/sp1-contracts/blob/main/contracts/src/v3.0.0/Groth16Verifier.sol\":15673:15691  x0 >= P || x1 >= P */\n      dup1\n      tag_225\n      jumpi\n      pop\n        /* \"https://github.com/succinctlabs/sp1-contracts/blob/main/contracts/src/v3.0.0/Groth16Verifier.sol\":1394:1460  0x30644e72e131a029b85045b68181585d97816a916871ca8d3c208c16d87cfd47 */\n      0x30644e72e131a029b85045b68181585d97816a916871ca8d3c208c16d87cfd47\n        /* \"https://github.com/succinctlabs/sp1-contracts/blob/main/contracts/src/v3.0.0/Groth16Verifier.sol\":15684:15686  x1 */\n      dup6\n        /* \"https://github.com/succinctlabs/sp1-contracts/blob/main/contracts/src/v3.0.0/Groth16Verifier.sol\":15684:15691  x1 >= P */\n      lt\n      iszero\n        /* \"https://github.com/succinctlabs/sp1-contracts/blob/main/contracts/src/v3.0.0/Groth16Verifier.sol\":15673:15691  x0 >= P || x1 >= P */\n    tag_225:\n        /* \"https://github.com/succinctlabs/sp1-contracts/blob/main/contracts/src/v3.0.0/Groth16Verifier.sol\":15669:15792  if (x0 >= P || x1 >= P) {... */\n      iszero\n      tag_226\n      jumpi\n        /* \"https://github.com/succinctlabs/sp1-contracts/blob/main/contracts/src/v3.0.0/Groth16Verifier.sol\":15767:15781  ProofInvalid() */\n      mload(0x40)\n      0x7fcdd1f400000000000000000000000000000000000000000000000000000000\n      dup2\n      mstore\n      0x04\n      add\n      mload(0x40)\n      dup1\n      swap2\n      sub\n      swap1\n      revert\n        /* \"https://github.com/succinctlabs/sp1-contracts/blob/main/contracts/src/v3.0.0/Groth16Verifier.sol\":15669:15792  if (x0 >= P || x1 >= P) {... */\n    tag_226:\n        /* \"https://github.com/succinctlabs/sp1-contracts/blob/main/contracts/src/v3.0.0/Groth16Verifier.sol\":15802:15814  uint256 n3ab */\n      0x00\n        /* \"https://github.com/succinctlabs/sp1-contracts/blob/main/contracts/src/v3.0.0/Groth16Verifier.sol\":1394:1460  0x30644e72e131a029b85045b68181585d97816a916871ca8d3c208c16d87cfd47 */\n      0x30644e72e131a029b85045b68181585d97816a916871ca8d3c208c16d87cfd47\n        /* \"https://github.com/succinctlabs/sp1-contracts/blob/main/contracts/src/v3.0.0/Groth16Verifier.sol\":15817:15852  mulmod(mulmod(x0, x1, P), P - 3, P) */\n      dup1\n      tag_227\n      jumpi\n      tag_228\n      tag_136\n      jump\t// in\n    tag_228:\n    tag_227:\n        /* \"https://github.com/succinctlabs/sp1-contracts/blob/main/contracts/src/v3.0.0/Groth16Verifier.sol\":15847:15848  3 */\n      0x03\n        /* \"https://github.com/succinctlabs/sp1-contracts/blob/main/contracts/src/v3.0.0/Groth16Verifier.sol\":1394:1460  0x30644e72e131a029b85045b68181585d97816a916871ca8d3c208c16d87cfd47 */\n      0x30644e72e131a029b85045b68181585d97816a916871ca8d3c208c16d87cfd47\n        /* \"https://github.com/succinctlabs/sp1-contracts/blob/main/contracts/src/v3.0.0/Groth16Verifier.sol\":15843:15848  P - 3 */\n      tag_229\n      swap2\n      swap1\n      tag_157\n      jump\t// in\n    tag_229:\n        /* \"https://github.com/succinctlabs/sp1-contracts/blob/main/contracts/src/v3.0.0/Groth16Verifier.sol\":1394:1460  0x30644e72e131a029b85045b68181585d97816a916871ca8d3c208c16d87cfd47 */\n      0x30644e72e131a029b85045b68181585d97816a916871ca8d3c208c16d87cfd47\n        /* \"https://github.com/succinctlabs/sp1-contracts/blob/main/contracts/src/v3.0.0/Groth16Verifier.sol\":15824:15841  mulmod(x0, x1, P) */\n      dup1\n      tag_230\n      jumpi\n      tag_231\n      tag_136\n      jump\t// in\n    tag_231:\n    tag_230:\n        /* \"https://github.com/succinctlabs/sp1-contracts/blob/main/contracts/src/v3.0.0/Groth16Verifier.sol\":15835:15837  x1 */\n      dup9\n        /* \"https://github.com/succinctlabs/sp1-contracts/blob/main/contracts/src/v3.0.0/Groth16Verifier.sol\":15831:15833  x0 */\n      dup11\n        /* \"https://github.com/succinctlabs/sp1-contracts/blob/main/contracts/src/v3.0.0/Groth16Verifier.sol\":15824:15841  mulmod(x0, x1, P) */\n      mulmod\n        /* \"https://github.com/succinctlabs/sp1-contracts/blob/main/contracts/src/v3.0.0/Groth16Verifier.sol\":15817:15852  mulmod(mulmod(x0, x1, P), P - 3, P) */\n      mulmod\n        /* \"https://github.com/succinctlabs/sp1-contracts/blob/main/contracts/src/v3.0.0/Groth16Verifier.sol\":15802:15852  uint256 n3ab = mulmod(mulmod(x0, x1, P), P - 3, P) */\n      swap1\n      pop\n        /* \"https://github.com/succinctlabs/sp1-contracts/blob/main/contracts/src/v3.0.0/Groth16Verifier.sol\":15862:15873  uint256 a_3 */\n      0x00\n        /* \"https://github.com/succinctlabs/sp1-contracts/blob/main/contracts/src/v3.0.0/Groth16Verifier.sol\":1394:1460  0x30644e72e131a029b85045b68181585d97816a916871ca8d3c208c16d87cfd47 */\n      0x30644e72e131a029b85045b68181585d97816a916871ca8d3c208c16d87cfd47\n        /* \"https://github.com/succinctlabs/sp1-contracts/blob/main/contracts/src/v3.0.0/Groth16Verifier.sol\":15876:15908  mulmod(mulmod(x0, x0, P), x0, P) */\n      dup1\n      tag_232\n      jumpi\n      tag_233\n      tag_136\n      jump\t// in\n    tag_233:\n    tag_232:\n        /* \"https://github.com/succinctlabs/sp1-contracts/blob/main/contracts/src/v3.0.0/Groth16Verifier.sol\":15902:15904  x0 */\n      dup9\n        /* \"https://github.com/succinctlabs/sp1-contracts/blob/main/contracts/src/v3.0.0/Groth16Verifier.sol\":1394:1460  0x30644e72e131a029b85045b68181585d97816a916871ca8d3c208c16d87cfd47 */\n      0x30644e72e131a029b85045b68181585d97816a916871ca8d3c208c16d87cfd47\n        /* \"https://github.com/succinctlabs/sp1-contracts/blob/main/contracts/src/v3.0.0/Groth16Verifier.sol\":15883:15900  mulmod(x0, x0, P) */\n      dup1\n      tag_234\n      jumpi\n      tag_235\n      tag_136\n      jump\t// in\n    tag_235:\n    tag_234:\n        /* \"https://github.com/succinctlabs/sp1-contracts/blob/main/contracts/src/v3.0.0/Groth16Verifier.sol\":15894:15896  x0 */\n      dup11\n        /* \"https://github.com/succinctlabs/sp1-contracts/blob/main/contracts/src/v3.0.0/Groth16Verifier.sol\":15890:15892  x0 */\n      dup12\n        /* \"https://github.com/succinctlabs/sp1-contracts/blob/main/contracts/src/v3.0.0/Groth16Verifier.sol\":15883:15900  mulmod(x0, x0, P) */\n      mulmod\n        /* \"https://github.com/succinctlabs/sp1-contracts/blob/main/contracts/src/v3.0.0/Groth16Verifier.sol\":15876:15908  mulmod(mulmod(x0, x0, P), x0, P) */\n      mulmod\n        /* \"https://github.com/succinctlabs/sp1-contracts/blob/main/contracts/src/v3.0.0/Groth16Verifier.sol\":15862:15908  uint256 a_3 = mulmod(mulmod(x0, x0, P), x0, P) */\n      swap1\n      pop\n        /* \"https://github.com/succinctlabs/sp1-contracts/blob/main/contracts/src/v3.0.0/Groth16Verifier.sol\":15918:15929  uint256 b_3 */\n      0x00\n        /* \"https://github.com/succinctlabs/sp1-contracts/blob/main/contracts/src/v3.0.0/Groth16Verifier.sol\":1394:1460  0x30644e72e131a029b85045b68181585d97816a916871ca8d3c208c16d87cfd47 */\n      0x30644e72e131a029b85045b68181585d97816a916871ca8d3c208c16d87cfd47\n        /* \"https://github.com/succinctlabs/sp1-contracts/blob/main/contracts/src/v3.0.0/Groth16Verifier.sol\":15932:15964  mulmod(mulmod(x1, x1, P), x1, P) */\n      dup1\n      tag_236\n      jumpi\n      tag_237\n      tag_136\n      jump\t// in\n    tag_237:\n    tag_236:\n        /* \"https://github.com/succinctlabs/sp1-contracts/blob/main/contracts/src/v3.0.0/Groth16Verifier.sol\":15958:15960  x1 */\n      dup9\n        /* \"https://github.com/succinctlabs/sp1-contracts/blob/main/contracts/src/v3.0.0/Groth16Verifier.sol\":1394:1460  0x30644e72e131a029b85045b68181585d97816a916871ca8d3c208c16d87cfd47 */\n      0x30644e72e131a029b85045b68181585d97816a916871ca8d3c208c16d87cfd47\n        /* \"https://github.com/succinctlabs/sp1-contracts/blob/main/contracts/src/v3.0.0/Groth16Verifier.sol\":15939:15956  mulmod(x1, x1, P) */\n      dup1\n      tag_238\n      jumpi\n      tag_239\n      tag_136\n      jump\t// in\n    tag_239:\n    tag_238:\n        /* \"https://github.com/succinctlabs/sp1-contracts/blob/main/contracts/src/v3.0.0/Groth16Verifier.sol\":15950:15952  x1 */\n      dup11\n        /* \"https://github.com/succinctlabs/sp1-contracts/blob/main/contracts/src/v3.0.0/Groth16Verifier.sol\":15946:15948  x1 */\n      dup12\n        /* \"https://github.com/succinctlabs/sp1-contracts/blob/main/contracts/src/v3.0.0/Groth16Verifier.sol\":15939:15956  mulmod(x1, x1, P) */\n      mulmod\n        /* \"https://github.com/succinctlabs/sp1-contracts/blob/main/contracts/src/v3.0.0/Groth16Verifier.sol\":15932:15964  mulmod(mulmod(x1, x1, P), x1, P) */\n      mulmod\n        /* \"https://github.com/succinctlabs/sp1-contracts/blob/main/contracts/src/v3.0.0/Groth16Verifier.sol\":15918:15964  uint256 b_3 = mulmod(mulmod(x1, x1, P), x1, P) */\n      swap1\n      pop\n        /* \"https://github.com/succinctlabs/sp1-contracts/blob/main/contracts/src/v3.0.0/Groth16Verifier.sol\":1394:1460  0x30644e72e131a029b85045b68181585d97816a916871ca8d3c208c16d87cfd47 */\n      0x30644e72e131a029b85045b68181585d97816a916871ca8d3c208c16d87cfd47\n        /* \"https://github.com/succinctlabs/sp1-contracts/blob/main/contracts/src/v3.0.0/Groth16Verifier.sol\":15980:16045  addmod(FRACTION_27_82_FP, addmod(a_3, mulmod(n3ab, x1, P), P), P) */\n      dup1\n      tag_240\n      jumpi\n      tag_241\n      tag_136\n      jump\t// in\n    tag_241:\n    tag_240:\n        /* \"https://github.com/succinctlabs/sp1-contracts/blob/main/contracts/src/v3.0.0/Groth16Verifier.sol\":1394:1460  0x30644e72e131a029b85045b68181585d97816a916871ca8d3c208c16d87cfd47 */\n      0x30644e72e131a029b85045b68181585d97816a916871ca8d3c208c16d87cfd47\n        /* \"https://github.com/succinctlabs/sp1-contracts/blob/main/contracts/src/v3.0.0/Groth16Verifier.sol\":16006:16041  addmod(a_3, mulmod(n3ab, x1, P), P) */\n      dup1\n      tag_242\n      jumpi\n      tag_243\n      tag_136\n      jump\t// in\n    tag_243:\n    tag_242:\n        /* \"https://github.com/succinctlabs/sp1-contracts/blob/main/contracts/src/v3.0.0/Groth16Verifier.sol\":1394:1460  0x30644e72e131a029b85045b68181585d97816a916871ca8d3c208c16d87cfd47 */\n      0x30644e72e131a029b85045b68181585d97816a916871ca8d3c208c16d87cfd47\n        /* \"https://github.com/succinctlabs/sp1-contracts/blob/main/contracts/src/v3.0.0/Groth16Verifier.sol\":16018:16037  mulmod(n3ab, x1, P) */\n      dup1\n      tag_244\n      jumpi\n      tag_245\n      tag_136\n      jump\t// in\n    tag_245:\n    tag_244:\n        /* \"https://github.com/succinctlabs/sp1-contracts/blob/main/contracts/src/v3.0.0/Groth16Verifier.sol\":16031:16033  x1 */\n      dup11\n        /* \"https://github.com/succinctlabs/sp1-contracts/blob/main/contracts/src/v3.0.0/Groth16Verifier.sol\":16025:16029  n3ab */\n      dup7\n        /* \"https://github.com/succinctlabs/sp1-contracts/blob/main/contracts/src/v3.0.0/Groth16Verifier.sol\":16018:16037  mulmod(n3ab, x1, P) */\n      mulmod\n        /* \"https://github.com/succinctlabs/sp1-contracts/blob/main/contracts/src/v3.0.0/Groth16Verifier.sol\":16013:16016  a_3 */\n      dup5\n        /* \"https://github.com/succinctlabs/sp1-contracts/blob/main/contracts/src/v3.0.0/Groth16Verifier.sol\":16006:16041  addmod(a_3, mulmod(n3ab, x1, P), P) */\n      addmod\n        /* \"https://github.com/succinctlabs/sp1-contracts/blob/main/contracts/src/v3.0.0/Groth16Verifier.sol\":2229:2295  0x2b149d40ceb8aaae81be18991be06ac3b5b4c5e559dbefa33267e6dc24a138e5 */\n      0x2b149d40ceb8aaae81be18991be06ac3b5b4c5e559dbefa33267e6dc24a138e5\n        /* \"https://github.com/succinctlabs/sp1-contracts/blob/main/contracts/src/v3.0.0/Groth16Verifier.sol\":15980:16045  addmod(FRACTION_27_82_FP, addmod(a_3, mulmod(n3ab, x1, P), P), P) */\n      addmod\n        /* \"https://github.com/succinctlabs/sp1-contracts/blob/main/contracts/src/v3.0.0/Groth16Verifier.sol\":15975:16045  y0 = addmod(FRACTION_27_82_FP, addmod(a_3, mulmod(n3ab, x1, P), P), P) */\n      swap7\n      pop\n        /* \"https://github.com/succinctlabs/sp1-contracts/blob/main/contracts/src/v3.0.0/Groth16Verifier.sol\":16060:16132  negate(addmod(FRACTION_3_82_FP, addmod(b_3, mulmod(n3ab, x0, P), P), P)) */\n      tag_246\n        /* \"https://github.com/succinctlabs/sp1-contracts/blob/main/contracts/src/v3.0.0/Groth16Verifier.sol\":1394:1460  0x30644e72e131a029b85045b68181585d97816a916871ca8d3c208c16d87cfd47 */\n      0x30644e72e131a029b85045b68181585d97816a916871ca8d3c208c16d87cfd47\n        /* \"https://github.com/succinctlabs/sp1-contracts/blob/main/contracts/src/v3.0.0/Groth16Verifier.sol\":16067:16131  addmod(FRACTION_3_82_FP, addmod(b_3, mulmod(n3ab, x0, P), P), P) */\n      dup1\n      tag_247\n      jumpi\n      tag_248\n      tag_136\n      jump\t// in\n    tag_248:\n    tag_247:\n        /* \"https://github.com/succinctlabs/sp1-contracts/blob/main/contracts/src/v3.0.0/Groth16Verifier.sol\":1394:1460  0x30644e72e131a029b85045b68181585d97816a916871ca8d3c208c16d87cfd47 */\n      0x30644e72e131a029b85045b68181585d97816a916871ca8d3c208c16d87cfd47\n        /* \"https://github.com/succinctlabs/sp1-contracts/blob/main/contracts/src/v3.0.0/Groth16Verifier.sol\":16092:16127  addmod(b_3, mulmod(n3ab, x0, P), P) */\n      dup1\n      tag_249\n      jumpi\n      tag_250\n      tag_136\n      jump\t// in\n    tag_250:\n    tag_249:\n        /* \"https://github.com/succinctlabs/sp1-contracts/blob/main/contracts/src/v3.0.0/Groth16Verifier.sol\":1394:1460  0x30644e72e131a029b85045b68181585d97816a916871ca8d3c208c16d87cfd47 */\n      0x30644e72e131a029b85045b68181585d97816a916871ca8d3c208c16d87cfd47\n        /* \"https://github.com/succinctlabs/sp1-contracts/blob/main/contracts/src/v3.0.0/Groth16Verifier.sol\":16104:16123  mulmod(n3ab, x0, P) */\n      dup1\n      tag_251\n      jumpi\n      tag_252\n      tag_136\n      jump\t// in\n    tag_252:\n    tag_251:\n        /* \"https://github.com/succinctlabs/sp1-contracts/blob/main/contracts/src/v3.0.0/Groth16Verifier.sol\":16117:16119  x0 */\n      dup13\n        /* \"https://github.com/succinctlabs/sp1-contracts/blob/main/contracts/src/v3.0.0/Groth16Verifier.sol\":16111:16115  n3ab */\n      dup8\n        /* \"https://github.com/succinctlabs/sp1-contracts/blob/main/contracts/src/v3.0.0/Groth16Verifier.sol\":16104:16123  mulmod(n3ab, x0, P) */\n      mulmod\n        /* \"https://github.com/succinctlabs/sp1-contracts/blob/main/contracts/src/v3.0.0/Groth16Verifier.sol\":16099:16102  b_3 */\n      dup5\n        /* \"https://github.com/succinctlabs/sp1-contracts/blob/main/contracts/src/v3.0.0/Groth16Verifier.sol\":16092:16127  addmod(b_3, mulmod(n3ab, x0, P), P) */\n      addmod\n        /* \"https://github.com/succinctlabs/sp1-contracts/blob/main/contracts/src/v3.0.0/Groth16Verifier.sol\":2345:2411  0x2fcd3ac2a640a154eb23960892a85a68f031ca0c8344b23a577dcf1052b9e775 */\n      0x2fcd3ac2a640a154eb23960892a85a68f031ca0c8344b23a577dcf1052b9e775\n        /* \"https://github.com/succinctlabs/sp1-contracts/blob/main/contracts/src/v3.0.0/Groth16Verifier.sol\":16067:16131  addmod(FRACTION_3_82_FP, addmod(b_3, mulmod(n3ab, x0, P), P), P) */\n      addmod\n        /* \"https://github.com/succinctlabs/sp1-contracts/blob/main/contracts/src/v3.0.0/Groth16Verifier.sol\":16060:16066  negate */\n      tag_145\n        /* \"https://github.com/succinctlabs/sp1-contracts/blob/main/contracts/src/v3.0.0/Groth16Verifier.sol\":16060:16132  negate(addmod(FRACTION_3_82_FP, addmod(b_3, mulmod(n3ab, x0, P), P), P)) */\n      jump\t// in\n    tag_246:\n        /* \"https://github.com/succinctlabs/sp1-contracts/blob/main/contracts/src/v3.0.0/Groth16Verifier.sol\":16055:16132  y1 = negate(addmod(FRACTION_3_82_FP, addmod(b_3, mulmod(n3ab, x0, P), P), P)) */\n      swap6\n      pop\n        /* \"https://github.com/succinctlabs/sp1-contracts/blob/main/contracts/src/v3.0.0/Groth16Verifier.sol\":16392:16414  sqrt_Fp2(y0, y1, hint) */\n      tag_253\n        /* \"https://github.com/succinctlabs/sp1-contracts/blob/main/contracts/src/v3.0.0/Groth16Verifier.sol\":16401:16403  y0 */\n      dup8\n        /* \"https://github.com/succinctlabs/sp1-contracts/blob/main/contracts/src/v3.0.0/Groth16Verifier.sol\":16405:16407  y1 */\n      dup8\n        /* \"https://github.com/succinctlabs/sp1-contracts/blob/main/contracts/src/v3.0.0/Groth16Verifier.sol\":16409:16413  hint */\n      dup7\n        /* \"https://github.com/succinctlabs/sp1-contracts/blob/main/contracts/src/v3.0.0/Groth16Verifier.sol\":16392:16400  sqrt_Fp2 */\n      tag_195\n        /* \"https://github.com/succinctlabs/sp1-contracts/blob/main/contracts/src/v3.0.0/Groth16Verifier.sol\":16392:16414  sqrt_Fp2(y0, y1, hint) */\n      jump\t// in\n    tag_253:\n        /* \"https://github.com/succinctlabs/sp1-contracts/blob/main/contracts/src/v3.0.0/Groth16Verifier.sol\":16381:16414  (y0, y1) = sqrt_Fp2(y0, y1, hint) */\n      dup1\n      swap8\n      pop\n      dup2\n      swap9\n      pop\n      pop\n      pop\n        /* \"https://github.com/succinctlabs/sp1-contracts/blob/main/contracts/src/v3.0.0/Groth16Verifier.sol\":16428:16440  negate_point */\n      dup5\n        /* \"https://github.com/succinctlabs/sp1-contracts/blob/main/contracts/src/v3.0.0/Groth16Verifier.sol\":16424:16511  if (negate_point) {... */\n      iszero\n      tag_254\n      jumpi\n        /* \"https://github.com/succinctlabs/sp1-contracts/blob/main/contracts/src/v3.0.0/Groth16Verifier.sol\":16461:16471  negate(y0) */\n      tag_255\n        /* \"https://github.com/succinctlabs/sp1-contracts/blob/main/contracts/src/v3.0.0/Groth16Verifier.sol\":16468:16470  y0 */\n      dup8\n        /* \"https://github.com/succinctlabs/sp1-contracts/blob/main/contracts/src/v3.0.0/Groth16Verifier.sol\":16461:16467  negate */\n      tag_145\n        /* \"https://github.com/succinctlabs/sp1-contracts/blob/main/contracts/src/v3.0.0/Groth16Verifier.sol\":16461:16471  negate(y0) */\n      jump\t// in\n    tag_255:\n        /* \"https://github.com/succinctlabs/sp1-contracts/blob/main/contracts/src/v3.0.0/Groth16Verifier.sol\":16456:16471  y0 = negate(y0) */\n      swap7\n      pop\n        /* \"https://github.com/succinctlabs/sp1-contracts/blob/main/contracts/src/v3.0.0/Groth16Verifier.sol\":16490:16500  negate(y1) */\n      tag_256\n        /* \"https://github.com/succinctlabs/sp1-contracts/blob/main/contracts/src/v3.0.0/Groth16Verifier.sol\":16497:16499  y1 */\n      dup7\n        /* \"https://github.com/succinctlabs/sp1-contracts/blob/main/contracts/src/v3.0.0/Groth16Verifier.sol\":16490:16496  negate */\n      tag_145\n        /* \"https://github.com/succinctlabs/sp1-contracts/blob/main/contracts/src/v3.0.0/Groth16Verifier.sol\":16490:16500  negate(y1) */\n      jump\t// in\n    tag_256:\n        /* \"https://github.com/succinctlabs/sp1-contracts/blob/main/contracts/src/v3.0.0/Groth16Verifier.sol\":16485:16500  y1 = negate(y1) */\n      swap6\n      pop\n        /* \"https://github.com/succinctlabs/sp1-contracts/blob/main/contracts/src/v3.0.0/Groth16Verifier.sol\":16424:16511  if (negate_point) {... */\n    tag_254:\n        /* \"https://github.com/succinctlabs/sp1-contracts/blob/main/contracts/src/v3.0.0/Groth16Verifier.sol\":15259:16517  {... */\n      pop\n      pop\n      pop\n      pop\n      pop\n        /* \"https://github.com/succinctlabs/sp1-contracts/blob/main/contracts/src/v3.0.0/Groth16Verifier.sol\":15113:16517  function decompress_g2(uint256 c0, uint256 c1)... */\n    tag_222:\n      swap3\n      swap6\n      swap2\n      swap5\n      pop\n      swap3\n      pop\n      jump\t// out\n        /* \"https://github.com/succinctlabs/sp1-contracts/blob/main/contracts/src/v3.0.0/Groth16Verifier.sol\":7421:7721  function sqrt_Fp(uint256 a) internal view returns (uint256 x) {... */\n    tag_141:\n        /* \"https://github.com/succinctlabs/sp1-contracts/blob/main/contracts/src/v3.0.0/Groth16Verifier.sol\":7472:7481  uint256 x */\n      0x00\n        /* \"https://github.com/succinctlabs/sp1-contracts/blob/main/contracts/src/v3.0.0/Groth16Verifier.sol\":7497:7516  exp(a, EXP_SQRT_FP) */\n      tag_258\n        /* \"https://github.com/succinctlabs/sp1-contracts/blob/main/contracts/src/v3.0.0/Groth16Verifier.sol\":7501:7502  a */\n      dup3\n        /* \"https://github.com/succinctlabs/sp1-contracts/blob/main/contracts/src/v3.0.0/Groth16Verifier.sol\":2627:2692  0xC19139CB84C680A6E14116DA060561765E05AA45A1C72A34F082305B61F3F52 */\n      0x0c19139cb84c680a6e14116da060561765e05aa45a1c72a34f082305b61f3f52\n        /* \"https://github.com/succinctlabs/sp1-contracts/blob/main/contracts/src/v3.0.0/Groth16Verifier.sol\":7497:7500  exp */\n      tag_259\n        /* \"https://github.com/succinctlabs/sp1-contracts/blob/main/contracts/src/v3.0.0/Groth16Verifier.sol\":7497:7516  exp(a, EXP_SQRT_FP) */\n      jump\t// in\n    tag_258:\n        /* \"https://github.com/succinctlabs/sp1-contracts/blob/main/contracts/src/v3.0.0/Groth16Verifier.sol\":7493:7516  x = exp(a, EXP_SQRT_FP) */\n      swap1\n      pop\n        /* \"https://github.com/succinctlabs/sp1-contracts/blob/main/contracts/src/v3.0.0/Groth16Verifier.sol\":7549:7550  a */\n      dup2\n        /* \"https://github.com/succinctlabs/sp1-contracts/blob/main/contracts/src/v3.0.0/Groth16Verifier.sol\":1394:1460  0x30644e72e131a029b85045b68181585d97816a916871ca8d3c208c16d87cfd47 */\n      0x30644e72e131a029b85045b68181585d97816a916871ca8d3c208c16d87cfd47\n        /* \"https://github.com/succinctlabs/sp1-contracts/blob/main/contracts/src/v3.0.0/Groth16Verifier.sol\":7530:7545  mulmod(x, x, P) */\n      dup1\n      tag_260\n      jumpi\n      tag_261\n      tag_136\n      jump\t// in\n    tag_261:\n    tag_260:\n        /* \"https://github.com/succinctlabs/sp1-contracts/blob/main/contracts/src/v3.0.0/Groth16Verifier.sol\":7540:7541  x */\n      dup3\n        /* \"https://github.com/succinctlabs/sp1-contracts/blob/main/contracts/src/v3.0.0/Groth16Verifier.sol\":7537:7538  x */\n      dup4\n        /* \"https://github.com/succinctlabs/sp1-contracts/blob/main/contracts/src/v3.0.0/Groth16Verifier.sol\":7530:7545  mulmod(x, x, P) */\n      mulmod\n        /* \"https://github.com/succinctlabs/sp1-contracts/blob/main/contracts/src/v3.0.0/Groth16Verifier.sol\":7530:7550  mulmod(x, x, P) != a */\n      eq\n        /* \"https://github.com/succinctlabs/sp1-contracts/blob/main/contracts/src/v3.0.0/Groth16Verifier.sol\":7526:7715  if (mulmod(x, x, P) != a) {... */\n      tag_262\n      jumpi\n        /* \"https://github.com/succinctlabs/sp1-contracts/blob/main/contracts/src/v3.0.0/Groth16Verifier.sol\":7690:7704  ProofInvalid() */\n      mload(0x40)\n      0x7fcdd1f400000000000000000000000000000000000000000000000000000000\n      dup2\n      mstore\n      0x04\n      add\n      mload(0x40)\n      dup1\n      swap2\n      sub\n      swap1\n      revert\n        /* \"https://github.com/succinctlabs/sp1-contracts/blob/main/contracts/src/v3.0.0/Groth16Verifier.sol\":7526:7715  if (mulmod(x, x, P) != a) {... */\n    tag_262:\n        /* \"https://github.com/succinctlabs/sp1-contracts/blob/main/contracts/src/v3.0.0/Groth16Verifier.sol\":7421:7721  function sqrt_Fp(uint256 a) internal view returns (uint256 x) {... */\n      swap2\n      swap1\n      pop\n      jump\t// out\n        /* \"https://github.com/succinctlabs/sp1-contracts/blob/main/contracts/src/v3.0.0/Groth16Verifier.sol\":5554:5723  function negate(uint256 a) internal pure returns (uint256 x) {... */\n    tag_145:\n        /* \"https://github.com/succinctlabs/sp1-contracts/blob/main/contracts/src/v3.0.0/Groth16Verifier.sol\":5604:5613  uint256 x */\n      0x00\n        /* \"https://github.com/succinctlabs/sp1-contracts/blob/main/contracts/src/v3.0.0/Groth16Verifier.sol\":1394:1460  0x30644e72e131a029b85045b68181585d97816a916871ca8d3c208c16d87cfd47 */\n      0x30644e72e131a029b85045b68181585d97816a916871ca8d3c208c16d87cfd47\n      dup1\n        /* \"https://github.com/succinctlabs/sp1-contracts/blob/main/contracts/src/v3.0.0/Groth16Verifier.sol\":5659:5660  a */\n      dup4\n        /* \"https://github.com/succinctlabs/sp1-contracts/blob/main/contracts/src/v3.0.0/Groth16Verifier.sol\":5659:5664  a % P */\n      dup2\n      tag_264\n      jumpi\n      tag_265\n      tag_136\n      jump\t// in\n    tag_265:\n    tag_264:\n      mod\n        /* \"https://github.com/succinctlabs/sp1-contracts/blob/main/contracts/src/v3.0.0/Groth16Verifier.sol\":1394:1460  0x30644e72e131a029b85045b68181585d97816a916871ca8d3c208c16d87cfd47 */\n      0x30644e72e131a029b85045b68181585d97816a916871ca8d3c208c16d87cfd47\n        /* \"https://github.com/succinctlabs/sp1-contracts/blob/main/contracts/src/v3.0.0/Groth16Verifier.sol\":5654:5665  P - (a % P) */\n      sub\n        /* \"https://github.com/succinctlabs/sp1-contracts/blob/main/contracts/src/v3.0.0/Groth16Verifier.sol\":5653:5670  (P - (a % P)) % P */\n      dup2\n      tag_266\n      jumpi\n      tag_267\n      tag_136\n      jump\t// in\n    tag_267:\n    tag_266:\n      mod\n        /* \"https://github.com/succinctlabs/sp1-contracts/blob/main/contracts/src/v3.0.0/Groth16Verifier.sol\":5649:5670  x = (P - (a % P)) % P */\n      swap1\n      pop\n        /* \"https://github.com/succinctlabs/sp1-contracts/blob/main/contracts/src/v3.0.0/Groth16Verifier.sol\":5554:5723  function negate(uint256 a) internal pure returns (uint256 x) {... */\n      swap2\n      swap1\n      pop\n      jump\t// out\n        /* \"https://github.com/succinctlabs/sp1-contracts/blob/main/contracts/src/v3.0.0/Groth16Verifier.sol\":7991:8137  function isSquare_Fp(uint256 a) internal view returns (bool) {... */\n    tag_193:\n        /* \"https://github.com/succinctlabs/sp1-contracts/blob/main/contracts/src/v3.0.0/Groth16Verifier.sol\":8046:8050  bool */\n      0x00\n        /* \"https://github.com/succinctlabs/sp1-contracts/blob/main/contracts/src/v3.0.0/Groth16Verifier.sol\":8062:8071  uint256 x */\n      0x00\n        /* \"https://github.com/succinctlabs/sp1-contracts/blob/main/contracts/src/v3.0.0/Groth16Verifier.sol\":8074:8093  exp(a, EXP_SQRT_FP) */\n      tag_269\n        /* \"https://github.com/succinctlabs/sp1-contracts/blob/main/contracts/src/v3.0.0/Groth16Verifier.sol\":8078:8079  a */\n      dup4\n        /* \"https://github.com/succinctlabs/sp1-contracts/blob/main/contracts/src/v3.0.0/Groth16Verifier.sol\":2627:2692  0xC19139CB84C680A6E14116DA060561765E05AA45A1C72A34F082305B61F3F52 */\n      0x0c19139cb84c680a6e14116da060561765e05aa45a1c72a34f082305b61f3f52\n        /* \"https://github.com/succinctlabs/sp1-contracts/blob/main/contracts/src/v3.0.0/Groth16Verifier.sol\":8074:8077  exp */\n      tag_259\n        /* \"https://github.com/succinctlabs/sp1-contracts/blob/main/contracts/src/v3.0.0/Groth16Verifier.sol\":8074:8093  exp(a, EXP_SQRT_FP) */\n      jump\t// in\n    tag_269:\n        /* \"https://github.com/succinctlabs/sp1-contracts/blob/main/contracts/src/v3.0.0/Groth16Verifier.sol\":8062:8093  uint256 x = exp(a, EXP_SQRT_FP) */\n      swap1\n      pop\n        /* \"https://github.com/succinctlabs/sp1-contracts/blob/main/contracts/src/v3.0.0/Groth16Verifier.sol\":8129:8130  a */\n      dup3\n        /* \"https://github.com/succinctlabs/sp1-contracts/blob/main/contracts/src/v3.0.0/Groth16Verifier.sol\":1394:1460  0x30644e72e131a029b85045b68181585d97816a916871ca8d3c208c16d87cfd47 */\n      0x30644e72e131a029b85045b68181585d97816a916871ca8d3c208c16d87cfd47\n        /* \"https://github.com/succinctlabs/sp1-contracts/blob/main/contracts/src/v3.0.0/Groth16Verifier.sol\":8110:8125  mulmod(x, x, P) */\n      dup1\n      tag_270\n      jumpi\n      tag_271\n      tag_136\n      jump\t// in\n    tag_271:\n    tag_270:\n        /* \"https://github.com/succinctlabs/sp1-contracts/blob/main/contracts/src/v3.0.0/Groth16Verifier.sol\":8120:8121  x */\n      dup3\n        /* \"https://github.com/succinctlabs/sp1-contracts/blob/main/contracts/src/v3.0.0/Groth16Verifier.sol\":8117:8118  x */\n      dup4\n        /* \"https://github.com/succinctlabs/sp1-contracts/blob/main/contracts/src/v3.0.0/Groth16Verifier.sol\":8110:8125  mulmod(x, x, P) */\n      mulmod\n        /* \"https://github.com/succinctlabs/sp1-contracts/blob/main/contracts/src/v3.0.0/Groth16Verifier.sol\":8110:8130  mulmod(x, x, P) == a */\n      eq\n        /* \"https://github.com/succinctlabs/sp1-contracts/blob/main/contracts/src/v3.0.0/Groth16Verifier.sol\":8103:8130  return mulmod(x, x, P) == a */\n      swap2\n      pop\n      pop\n        /* \"https://github.com/succinctlabs/sp1-contracts/blob/main/contracts/src/v3.0.0/Groth16Verifier.sol\":7991:8137  function isSquare_Fp(uint256 a) internal view returns (bool) {... */\n      swap2\n      swap1\n      pop\n      jump\t// out\n        /* \"https://github.com/succinctlabs/sp1-contracts/blob/main/contracts/src/v3.0.0/Groth16Verifier.sol\":8768:9616  function sqrt_Fp2(uint256 a0, uint256 a1, bool hint)... */\n    tag_195:\n        /* \"https://github.com/succinctlabs/sp1-contracts/blob/main/contracts/src/v3.0.0/Groth16Verifier.sol\":8868:8878  uint256 x0 */\n      0x00\n        /* \"https://github.com/succinctlabs/sp1-contracts/blob/main/contracts/src/v3.0.0/Groth16Verifier.sol\":8880:8890  uint256 x1 */\n      0x00\n        /* \"https://github.com/succinctlabs/sp1-contracts/blob/main/contracts/src/v3.0.0/Groth16Verifier.sol\":8974:8983  uint256 d */\n      0x00\n        /* \"https://github.com/succinctlabs/sp1-contracts/blob/main/contracts/src/v3.0.0/Groth16Verifier.sol\":8986:9042  sqrt_Fp(addmod(mulmod(a0, a0, P), mulmod(a1, a1, P), P)) */\n      tag_273\n        /* \"https://github.com/succinctlabs/sp1-contracts/blob/main/contracts/src/v3.0.0/Groth16Verifier.sol\":1394:1460  0x30644e72e131a029b85045b68181585d97816a916871ca8d3c208c16d87cfd47 */\n      0x30644e72e131a029b85045b68181585d97816a916871ca8d3c208c16d87cfd47\n        /* \"https://github.com/succinctlabs/sp1-contracts/blob/main/contracts/src/v3.0.0/Groth16Verifier.sol\":8994:9041  addmod(mulmod(a0, a0, P), mulmod(a1, a1, P), P) */\n      dup1\n      tag_274\n      jumpi\n      tag_275\n      tag_136\n      jump\t// in\n    tag_275:\n    tag_274:\n        /* \"https://github.com/succinctlabs/sp1-contracts/blob/main/contracts/src/v3.0.0/Groth16Verifier.sol\":1394:1460  0x30644e72e131a029b85045b68181585d97816a916871ca8d3c208c16d87cfd47 */\n      0x30644e72e131a029b85045b68181585d97816a916871ca8d3c208c16d87cfd47\n        /* \"https://github.com/succinctlabs/sp1-contracts/blob/main/contracts/src/v3.0.0/Groth16Verifier.sol\":9020:9037  mulmod(a1, a1, P) */\n      dup1\n      tag_276\n      jumpi\n      tag_277\n      tag_136\n      jump\t// in\n    tag_277:\n    tag_276:\n        /* \"https://github.com/succinctlabs/sp1-contracts/blob/main/contracts/src/v3.0.0/Groth16Verifier.sol\":9031:9033  a1 */\n      dup8\n        /* \"https://github.com/succinctlabs/sp1-contracts/blob/main/contracts/src/v3.0.0/Groth16Verifier.sol\":9027:9029  a1 */\n      dup9\n        /* \"https://github.com/succinctlabs/sp1-contracts/blob/main/contracts/src/v3.0.0/Groth16Verifier.sol\":9020:9037  mulmod(a1, a1, P) */\n      mulmod\n        /* \"https://github.com/succinctlabs/sp1-contracts/blob/main/contracts/src/v3.0.0/Groth16Verifier.sol\":1394:1460  0x30644e72e131a029b85045b68181585d97816a916871ca8d3c208c16d87cfd47 */\n      0x30644e72e131a029b85045b68181585d97816a916871ca8d3c208c16d87cfd47\n        /* \"https://github.com/succinctlabs/sp1-contracts/blob/main/contracts/src/v3.0.0/Groth16Verifier.sol\":9001:9018  mulmod(a0, a0, P) */\n      dup1\n      tag_278\n      jumpi\n      tag_279\n      tag_136\n      jump\t// in\n    tag_279:\n    tag_278:\n        /* \"https://github.com/succinctlabs/sp1-contracts/blob/main/contracts/src/v3.0.0/Groth16Verifier.sol\":9012:9014  a0 */\n      dup10\n        /* \"https://github.com/succinctlabs/sp1-contracts/blob/main/contracts/src/v3.0.0/Groth16Verifier.sol\":9008:9010  a0 */\n      dup11\n        /* \"https://github.com/succinctlabs/sp1-contracts/blob/main/contracts/src/v3.0.0/Groth16Verifier.sol\":9001:9018  mulmod(a0, a0, P) */\n      mulmod\n        /* \"https://github.com/succinctlabs/sp1-contracts/blob/main/contracts/src/v3.0.0/Groth16Verifier.sol\":8994:9041  addmod(mulmod(a0, a0, P), mulmod(a1, a1, P), P) */\n      addmod\n        /* \"https://github.com/succinctlabs/sp1-contracts/blob/main/contracts/src/v3.0.0/Groth16Verifier.sol\":8986:8993  sqrt_Fp */\n      tag_141\n        /* \"https://github.com/succinctlabs/sp1-contracts/blob/main/contracts/src/v3.0.0/Groth16Verifier.sol\":8986:9042  sqrt_Fp(addmod(mulmod(a0, a0, P), mulmod(a1, a1, P), P)) */\n      jump\t// in\n    tag_273:\n        /* \"https://github.com/succinctlabs/sp1-contracts/blob/main/contracts/src/v3.0.0/Groth16Verifier.sol\":8974:9042  uint256 d = sqrt_Fp(addmod(mulmod(a0, a0, P), mulmod(a1, a1, P), P)) */\n      swap1\n      pop\n        /* \"https://github.com/succinctlabs/sp1-contracts/blob/main/contracts/src/v3.0.0/Groth16Verifier.sol\":9056:9060  hint */\n      dup4\n        /* \"https://github.com/succinctlabs/sp1-contracts/blob/main/contracts/src/v3.0.0/Groth16Verifier.sol\":9052:9100  if (hint) {... */\n      iszero\n      tag_280\n      jumpi\n        /* \"https://github.com/succinctlabs/sp1-contracts/blob/main/contracts/src/v3.0.0/Groth16Verifier.sol\":9080:9089  negate(d) */\n      tag_281\n        /* \"https://github.com/succinctlabs/sp1-contracts/blob/main/contracts/src/v3.0.0/Groth16Verifier.sol\":9087:9088  d */\n      dup2\n        /* \"https://github.com/succinctlabs/sp1-contracts/blob/main/contracts/src/v3.0.0/Groth16Verifier.sol\":9080:9086  negate */\n      tag_145\n        /* \"https://github.com/succinctlabs/sp1-contracts/blob/main/contracts/src/v3.0.0/Groth16Verifier.sol\":9080:9089  negate(d) */\n      jump\t// in\n    tag_281:\n        /* \"https://github.com/succinctlabs/sp1-contracts/blob/main/contracts/src/v3.0.0/Groth16Verifier.sol\":9076:9089  d = negate(d) */\n      swap1\n      pop\n        /* \"https://github.com/succinctlabs/sp1-contracts/blob/main/contracts/src/v3.0.0/Groth16Verifier.sol\":9052:9100  if (hint) {... */\n    tag_280:\n        /* \"https://github.com/succinctlabs/sp1-contracts/blob/main/contracts/src/v3.0.0/Groth16Verifier.sol\":9182:9235  sqrt_Fp(mulmod(addmod(a0, d, P), FRACTION_1_2_FP, P)) */\n      tag_282\n        /* \"https://github.com/succinctlabs/sp1-contracts/blob/main/contracts/src/v3.0.0/Groth16Verifier.sol\":1394:1460  0x30644e72e131a029b85045b68181585d97816a916871ca8d3c208c16d87cfd47 */\n      0x30644e72e131a029b85045b68181585d97816a916871ca8d3c208c16d87cfd47\n        /* \"https://github.com/succinctlabs/sp1-contracts/blob/main/contracts/src/v3.0.0/Groth16Verifier.sol\":9190:9234  mulmod(addmod(a0, d, P), FRACTION_1_2_FP, P) */\n      dup1\n      tag_283\n      jumpi\n      tag_284\n      tag_136\n      jump\t// in\n    tag_284:\n    tag_283:\n        /* \"https://github.com/succinctlabs/sp1-contracts/blob/main/contracts/src/v3.0.0/Groth16Verifier.sol\":2112:2178  0x183227397098d014dc2822db40c0ac2ecbc0b548b438e5469e10460b6c3e7ea4 */\n      0x183227397098d014dc2822db40c0ac2ecbc0b548b438e5469e10460b6c3e7ea4\n        /* \"https://github.com/succinctlabs/sp1-contracts/blob/main/contracts/src/v3.0.0/Groth16Verifier.sol\":1394:1460  0x30644e72e131a029b85045b68181585d97816a916871ca8d3c208c16d87cfd47 */\n      0x30644e72e131a029b85045b68181585d97816a916871ca8d3c208c16d87cfd47\n        /* \"https://github.com/succinctlabs/sp1-contracts/blob/main/contracts/src/v3.0.0/Groth16Verifier.sol\":9197:9213  addmod(a0, d, P) */\n      dup1\n      tag_285\n      jumpi\n      tag_286\n      tag_136\n      jump\t// in\n    tag_286:\n    tag_285:\n        /* \"https://github.com/succinctlabs/sp1-contracts/blob/main/contracts/src/v3.0.0/Groth16Verifier.sol\":9208:9209  d */\n      dup5\n        /* \"https://github.com/succinctlabs/sp1-contracts/blob/main/contracts/src/v3.0.0/Groth16Verifier.sol\":9204:9206  a0 */\n      dup11\n        /* \"https://github.com/succinctlabs/sp1-contracts/blob/main/contracts/src/v3.0.0/Groth16Verifier.sol\":9197:9213  addmod(a0, d, P) */\n      addmod\n        /* \"https://github.com/succinctlabs/sp1-contracts/blob/main/contracts/src/v3.0.0/Groth16Verifier.sol\":9190:9234  mulmod(addmod(a0, d, P), FRACTION_1_2_FP, P) */\n      mulmod\n        /* \"https://github.com/succinctlabs/sp1-contracts/blob/main/contracts/src/v3.0.0/Groth16Verifier.sol\":9182:9189  sqrt_Fp */\n      tag_141\n        /* \"https://github.com/succinctlabs/sp1-contracts/blob/main/contracts/src/v3.0.0/Groth16Verifier.sol\":9182:9235  sqrt_Fp(mulmod(addmod(a0, d, P), FRACTION_1_2_FP, P)) */\n      jump\t// in\n    tag_282:\n        /* \"https://github.com/succinctlabs/sp1-contracts/blob/main/contracts/src/v3.0.0/Groth16Verifier.sol\":9177:9235  x0 = sqrt_Fp(mulmod(addmod(a0, d, P), FRACTION_1_2_FP, P)) */\n      swap3\n      pop\n        /* \"https://github.com/succinctlabs/sp1-contracts/blob/main/contracts/src/v3.0.0/Groth16Verifier.sol\":1394:1460  0x30644e72e131a029b85045b68181585d97816a916871ca8d3c208c16d87cfd47 */\n      0x30644e72e131a029b85045b68181585d97816a916871ca8d3c208c16d87cfd47\n        /* \"https://github.com/succinctlabs/sp1-contracts/blob/main/contracts/src/v3.0.0/Groth16Verifier.sol\":9250:9292  mulmod(a1, invert_Fp(mulmod(x0, 2, P)), P) */\n      dup1\n      tag_287\n      jumpi\n      tag_288\n      tag_136\n      jump\t// in\n    tag_288:\n    tag_287:\n        /* \"https://github.com/succinctlabs/sp1-contracts/blob/main/contracts/src/v3.0.0/Groth16Verifier.sol\":9261:9288  invert_Fp(mulmod(x0, 2, P)) */\n      tag_289\n        /* \"https://github.com/succinctlabs/sp1-contracts/blob/main/contracts/src/v3.0.0/Groth16Verifier.sol\":1394:1460  0x30644e72e131a029b85045b68181585d97816a916871ca8d3c208c16d87cfd47 */\n      0x30644e72e131a029b85045b68181585d97816a916871ca8d3c208c16d87cfd47\n        /* \"https://github.com/succinctlabs/sp1-contracts/blob/main/contracts/src/v3.0.0/Groth16Verifier.sol\":9271:9287  mulmod(x0, 2, P) */\n      dup1\n      tag_290\n      jumpi\n      tag_291\n      tag_136\n      jump\t// in\n    tag_291:\n    tag_290:\n        /* \"https://github.com/succinctlabs/sp1-contracts/blob/main/contracts/src/v3.0.0/Groth16Verifier.sol\":9282:9283  2 */\n      0x02\n        /* \"https://github.com/succinctlabs/sp1-contracts/blob/main/contracts/src/v3.0.0/Groth16Verifier.sol\":9278:9280  x0 */\n      dup7\n        /* \"https://github.com/succinctlabs/sp1-contracts/blob/main/contracts/src/v3.0.0/Groth16Verifier.sol\":9271:9287  mulmod(x0, 2, P) */\n      mulmod\n        /* \"https://github.com/succinctlabs/sp1-contracts/blob/main/contracts/src/v3.0.0/Groth16Verifier.sol\":9261:9270  invert_Fp */\n      tag_292\n        /* \"https://github.com/succinctlabs/sp1-contracts/blob/main/contracts/src/v3.0.0/Groth16Verifier.sol\":9261:9288  invert_Fp(mulmod(x0, 2, P)) */\n      jump\t// in\n    tag_289:\n        /* \"https://github.com/succinctlabs/sp1-contracts/blob/main/contracts/src/v3.0.0/Groth16Verifier.sol\":9257:9259  a1 */\n      dup7\n        /* \"https://github.com/succinctlabs/sp1-contracts/blob/main/contracts/src/v3.0.0/Groth16Verifier.sol\":9250:9292  mulmod(a1, invert_Fp(mulmod(x0, 2, P)), P) */\n      mulmod\n        /* \"https://github.com/succinctlabs/sp1-contracts/blob/main/contracts/src/v3.0.0/Groth16Verifier.sol\":9245:9292  x1 = mulmod(a1, invert_Fp(mulmod(x0, 2, P)), P) */\n      swap2\n      pop\n        /* \"https://github.com/succinctlabs/sp1-contracts/blob/main/contracts/src/v3.0.0/Groth16Verifier.sol\":1394:1460  0x30644e72e131a029b85045b68181585d97816a916871ca8d3c208c16d87cfd47 */\n      0x30644e72e131a029b85045b68181585d97816a916871ca8d3c208c16d87cfd47\n        /* \"https://github.com/succinctlabs/sp1-contracts/blob/main/contracts/src/v3.0.0/Groth16Verifier.sol\":9441:9496  addmod(mulmod(x0, x0, P), negate(mulmod(x1, x1, P)), P) */\n      dup1\n      tag_293\n      jumpi\n      tag_294\n      tag_136\n      jump\t// in\n    tag_294:\n    tag_293:\n        /* \"https://github.com/succinctlabs/sp1-contracts/blob/main/contracts/src/v3.0.0/Groth16Verifier.sol\":9467:9492  negate(mulmod(x1, x1, P)) */\n      tag_295\n        /* \"https://github.com/succinctlabs/sp1-contracts/blob/main/contracts/src/v3.0.0/Groth16Verifier.sol\":1394:1460  0x30644e72e131a029b85045b68181585d97816a916871ca8d3c208c16d87cfd47 */\n      0x30644e72e131a029b85045b68181585d97816a916871ca8d3c208c16d87cfd47\n        /* \"https://github.com/succinctlabs/sp1-contracts/blob/main/contracts/src/v3.0.0/Groth16Verifier.sol\":9474:9491  mulmod(x1, x1, P) */\n      dup1\n      tag_296\n      jumpi\n      tag_297\n      tag_136\n      jump\t// in\n    tag_297:\n    tag_296:\n        /* \"https://github.com/succinctlabs/sp1-contracts/blob/main/contracts/src/v3.0.0/Groth16Verifier.sol\":9485:9487  x1 */\n      dup5\n        /* \"https://github.com/succinctlabs/sp1-contracts/blob/main/contracts/src/v3.0.0/Groth16Verifier.sol\":9481:9483  x1 */\n      dup6\n        /* \"https://github.com/succinctlabs/sp1-contracts/blob/main/contracts/src/v3.0.0/Groth16Verifier.sol\":9474:9491  mulmod(x1, x1, P) */\n      mulmod\n        /* \"https://github.com/succinctlabs/sp1-contracts/blob/main/contracts/src/v3.0.0/Groth16Verifier.sol\":9467:9473  negate */\n      tag_145\n        /* \"https://github.com/succinctlabs/sp1-contracts/blob/main/contracts/src/v3.0.0/Groth16Verifier.sol\":9467:9492  negate(mulmod(x1, x1, P)) */\n      jump\t// in\n    tag_295:\n        /* \"https://github.com/succinctlabs/sp1-contracts/blob/main/contracts/src/v3.0.0/Groth16Verifier.sol\":1394:1460  0x30644e72e131a029b85045b68181585d97816a916871ca8d3c208c16d87cfd47 */\n      0x30644e72e131a029b85045b68181585d97816a916871ca8d3c208c16d87cfd47\n        /* \"https://github.com/succinctlabs/sp1-contracts/blob/main/contracts/src/v3.0.0/Groth16Verifier.sol\":9448:9465  mulmod(x0, x0, P) */\n      dup1\n      tag_298\n      jumpi\n      tag_299\n      tag_136\n      jump\t// in\n    tag_299:\n    tag_298:\n        /* \"https://github.com/succinctlabs/sp1-contracts/blob/main/contracts/src/v3.0.0/Groth16Verifier.sol\":9459:9461  x0 */\n      dup6\n        /* \"https://github.com/succinctlabs/sp1-contracts/blob/main/contracts/src/v3.0.0/Groth16Verifier.sol\":9455:9457  x0 */\n      dup7\n        /* \"https://github.com/succinctlabs/sp1-contracts/blob/main/contracts/src/v3.0.0/Groth16Verifier.sol\":9448:9465  mulmod(x0, x0, P) */\n      mulmod\n        /* \"https://github.com/succinctlabs/sp1-contracts/blob/main/contracts/src/v3.0.0/Groth16Verifier.sol\":9441:9496  addmod(mulmod(x0, x0, P), negate(mulmod(x1, x1, P)), P) */\n      addmod\n        /* \"https://github.com/succinctlabs/sp1-contracts/blob/main/contracts/src/v3.0.0/Groth16Verifier.sol\":9435:9437  a0 */\n      dup7\n        /* \"https://github.com/succinctlabs/sp1-contracts/blob/main/contracts/src/v3.0.0/Groth16Verifier.sol\":9435:9496  a0 != addmod(mulmod(x0, x0, P), negate(mulmod(x1, x1, P)), P) */\n      eq\n      iszero\n        /* \"https://github.com/succinctlabs/sp1-contracts/blob/main/contracts/src/v3.0.0/Groth16Verifier.sol\":9435:9553  a0 != addmod(mulmod(x0, x0, P), negate(mulmod(x1, x1, P)), P)... */\n      dup1\n      tag_300\n      jumpi\n      pop\n        /* \"https://github.com/succinctlabs/sp1-contracts/blob/main/contracts/src/v3.0.0/Groth16Verifier.sol\":1394:1460  0x30644e72e131a029b85045b68181585d97816a916871ca8d3c208c16d87cfd47 */\n      0x30644e72e131a029b85045b68181585d97816a916871ca8d3c208c16d87cfd47\n        /* \"https://github.com/succinctlabs/sp1-contracts/blob/main/contracts/src/v3.0.0/Groth16Verifier.sol\":9522:9553  mulmod(2, mulmod(x0, x1, P), P) */\n      dup1\n      tag_301\n      jumpi\n      tag_302\n      tag_136\n      jump\t// in\n    tag_302:\n    tag_301:\n        /* \"https://github.com/succinctlabs/sp1-contracts/blob/main/contracts/src/v3.0.0/Groth16Verifier.sol\":1394:1460  0x30644e72e131a029b85045b68181585d97816a916871ca8d3c208c16d87cfd47 */\n      0x30644e72e131a029b85045b68181585d97816a916871ca8d3c208c16d87cfd47\n        /* \"https://github.com/succinctlabs/sp1-contracts/blob/main/contracts/src/v3.0.0/Groth16Verifier.sol\":9532:9549  mulmod(x0, x1, P) */\n      dup1\n      tag_303\n      jumpi\n      tag_304\n      tag_136\n      jump\t// in\n    tag_304:\n    tag_303:\n        /* \"https://github.com/succinctlabs/sp1-contracts/blob/main/contracts/src/v3.0.0/Groth16Verifier.sol\":9543:9545  x1 */\n      dup4\n        /* \"https://github.com/succinctlabs/sp1-contracts/blob/main/contracts/src/v3.0.0/Groth16Verifier.sol\":9539:9541  x0 */\n      dup6\n        /* \"https://github.com/succinctlabs/sp1-contracts/blob/main/contracts/src/v3.0.0/Groth16Verifier.sol\":9532:9549  mulmod(x0, x1, P) */\n      mulmod\n        /* \"https://github.com/succinctlabs/sp1-contracts/blob/main/contracts/src/v3.0.0/Groth16Verifier.sol\":9529:9530  2 */\n      0x02\n        /* \"https://github.com/succinctlabs/sp1-contracts/blob/main/contracts/src/v3.0.0/Groth16Verifier.sol\":9522:9553  mulmod(2, mulmod(x0, x1, P), P) */\n      mulmod\n        /* \"https://github.com/succinctlabs/sp1-contracts/blob/main/contracts/src/v3.0.0/Groth16Verifier.sol\":9516:9518  a1 */\n      dup6\n        /* \"https://github.com/succinctlabs/sp1-contracts/blob/main/contracts/src/v3.0.0/Groth16Verifier.sol\":9516:9553  a1 != mulmod(2, mulmod(x0, x1, P), P) */\n      eq\n      iszero\n        /* \"https://github.com/succinctlabs/sp1-contracts/blob/main/contracts/src/v3.0.0/Groth16Verifier.sol\":9435:9553  a0 != addmod(mulmod(x0, x0, P), negate(mulmod(x1, x1, P)), P)... */\n    tag_300:\n        /* \"https://github.com/succinctlabs/sp1-contracts/blob/main/contracts/src/v3.0.0/Groth16Verifier.sol\":9418:9610  if (... */\n      iszero\n      tag_305\n      jumpi\n        /* \"https://github.com/succinctlabs/sp1-contracts/blob/main/contracts/src/v3.0.0/Groth16Verifier.sol\":9585:9599  ProofInvalid() */\n      mload(0x40)\n      0x7fcdd1f400000000000000000000000000000000000000000000000000000000\n      dup2\n      mstore\n      0x04\n      add\n      mload(0x40)\n      dup1\n      swap2\n      sub\n      swap1\n      revert\n        /* \"https://github.com/succinctlabs/sp1-contracts/blob/main/contracts/src/v3.0.0/Groth16Verifier.sol\":9418:9610  if (... */\n    tag_305:\n        /* \"https://github.com/succinctlabs/sp1-contracts/blob/main/contracts/src/v3.0.0/Groth16Verifier.sol\":8896:9616  {... */\n      pop\n        /* \"https://github.com/succinctlabs/sp1-contracts/blob/main/contracts/src/v3.0.0/Groth16Verifier.sol\":8768:9616  function sqrt_Fp2(uint256 a0, uint256 a1, bool hint)... */\n      swap4\n      pop\n      swap4\n      swap2\n      pop\n      pop\n      jump\t// out\n        /* \"https://github.com/succinctlabs/sp1-contracts/blob/main/contracts/src/v3.0.0/Groth16Verifier.sol\":5961:6596  function exp(uint256 a, uint256 e) internal view returns (uint256 x) {... */\n    tag_259:\n        /* \"https://github.com/succinctlabs/sp1-contracts/blob/main/contracts/src/v3.0.0/Groth16Verifier.sol\":6019:6028  uint256 x */\n      0x00\n        /* \"https://github.com/succinctlabs/sp1-contracts/blob/main/contracts/src/v3.0.0/Groth16Verifier.sol\":6040:6052  bool success */\n      0x00\n        /* \"https://github.com/succinctlabs/sp1-contracts/blob/main/contracts/src/v3.0.0/Groth16Verifier.sol\":6116:6120  0x40 */\n      0x40\n        /* \"https://github.com/succinctlabs/sp1-contracts/blob/main/contracts/src/v3.0.0/Groth16Verifier.sol\":6110:6121  mload(0x40) */\n      mload\n        /* \"https://github.com/succinctlabs/sp1-contracts/blob/main/contracts/src/v3.0.0/Groth16Verifier.sol\":6144:6148  0x20 */\n      0x20\n        /* \"https://github.com/succinctlabs/sp1-contracts/blob/main/contracts/src/v3.0.0/Groth16Verifier.sol\":6141:6142  f */\n      dup2\n        /* \"https://github.com/succinctlabs/sp1-contracts/blob/main/contracts/src/v3.0.0/Groth16Verifier.sol\":6134:6149  mstore(f, 0x20) */\n      mstore\n        /* \"https://github.com/succinctlabs/sp1-contracts/blob/main/contracts/src/v3.0.0/Groth16Verifier.sol\":6183:6187  0x20 */\n      0x20\n        /* \"https://github.com/succinctlabs/sp1-contracts/blob/main/contracts/src/v3.0.0/Groth16Verifier.sol\":6176:6180  0x20 */\n      dup1\n        /* \"https://github.com/succinctlabs/sp1-contracts/blob/main/contracts/src/v3.0.0/Groth16Verifier.sol\":6173:6174  f */\n      dup3\n        /* \"https://github.com/succinctlabs/sp1-contracts/blob/main/contracts/src/v3.0.0/Groth16Verifier.sol\":6169:6181  add(f, 0x20) */\n      add\n        /* \"https://github.com/succinctlabs/sp1-contracts/blob/main/contracts/src/v3.0.0/Groth16Verifier.sol\":6162:6188  mstore(add(f, 0x20), 0x20) */\n      mstore\n        /* \"https://github.com/succinctlabs/sp1-contracts/blob/main/contracts/src/v3.0.0/Groth16Verifier.sol\":6222:6226  0x20 */\n      0x20\n        /* \"https://github.com/succinctlabs/sp1-contracts/blob/main/contracts/src/v3.0.0/Groth16Verifier.sol\":6215:6219  0x40 */\n      0x40\n        /* \"https://github.com/succinctlabs/sp1-contracts/blob/main/contracts/src/v3.0.0/Groth16Verifier.sol\":6212:6213  f */\n      dup3\n        /* \"https://github.com/succinctlabs/sp1-contracts/blob/main/contracts/src/v3.0.0/Groth16Verifier.sol\":6208:6220  add(f, 0x40) */\n      add\n        /* \"https://github.com/succinctlabs/sp1-contracts/blob/main/contracts/src/v3.0.0/Groth16Verifier.sol\":6201:6227  mstore(add(f, 0x40), 0x20) */\n      mstore\n        /* \"https://github.com/succinctlabs/sp1-contracts/blob/main/contracts/src/v3.0.0/Groth16Verifier.sol\":6261:6262  a */\n      dup5\n        /* \"https://github.com/succinctlabs/sp1-contracts/blob/main/contracts/src/v3.0.0/Groth16Verifier.sol\":6254:6258  0x60 */\n      0x60\n        /* \"https://github.com/succinctlabs/sp1-contracts/blob/main/contracts/src/v3.0.0/Groth16Verifier.sol\":6251:6252  f */\n      dup3\n        /* \"https://github.com/succinctlabs/sp1-contracts/blob/main/contracts/src/v3.0.0/Groth16Verifier.sol\":6247:6259  add(f, 0x60) */\n      add\n        /* \"https://github.com/succinctlabs/sp1-contracts/blob/main/contracts/src/v3.0.0/Groth16Verifier.sol\":6240:6263  mstore(add(f, 0x60), a) */\n      mstore\n        /* \"https://github.com/succinctlabs/sp1-contracts/blob/main/contracts/src/v3.0.0/Groth16Verifier.sol\":6297:6298  e */\n      dup4\n        /* \"https://github.com/succinctlabs/sp1-contracts/blob/main/contracts/src/v3.0.0/Groth16Verifier.sol\":6290:6294  0x80 */\n      0x80\n        /* \"https://github.com/succinctlabs/sp1-contracts/blob/main/contracts/src/v3.0.0/Groth16Verifier.sol\":6287:6288  f */\n      dup3\n        /* \"https://github.com/succinctlabs/sp1-contracts/blob/main/contracts/src/v3.0.0/Groth16Verifier.sol\":6283:6295  add(f, 0x80) */\n      add\n        /* \"https://github.com/succinctlabs/sp1-contracts/blob/main/contracts/src/v3.0.0/Groth16Verifier.sol\":6276:6299  mstore(add(f, 0x80), e) */\n      mstore\n        /* \"https://github.com/succinctlabs/sp1-contracts/blob/main/contracts/src/v3.0.0/Groth16Verifier.sol\":6333:6334  P */\n      0x30644e72e131a029b85045b68181585d97816a916871ca8d3c208c16d87cfd47\n        /* \"https://github.com/succinctlabs/sp1-contracts/blob/main/contracts/src/v3.0.0/Groth16Verifier.sol\":6326:6330  0xa0 */\n      0xa0\n        /* \"https://github.com/succinctlabs/sp1-contracts/blob/main/contracts/src/v3.0.0/Groth16Verifier.sol\":6323:6324  f */\n      dup3\n        /* \"https://github.com/succinctlabs/sp1-contracts/blob/main/contracts/src/v3.0.0/Groth16Verifier.sol\":6319:6331  add(f, 0xa0) */\n      add\n        /* \"https://github.com/succinctlabs/sp1-contracts/blob/main/contracts/src/v3.0.0/Groth16Verifier.sol\":6312:6335  mstore(add(f, 0xa0), P) */\n      mstore\n        /* \"https://github.com/succinctlabs/sp1-contracts/blob/main/contracts/src/v3.0.0/Groth16Verifier.sol\":6408:6412  0x20 */\n      0x20\n        /* \"https://github.com/succinctlabs/sp1-contracts/blob/main/contracts/src/v3.0.0/Groth16Verifier.sol\":6405:6406  f */\n      dup2\n        /* \"https://github.com/succinctlabs/sp1-contracts/blob/main/contracts/src/v3.0.0/Groth16Verifier.sol\":6399:6403  0xc0 */\n      0xc0\n        /* \"https://github.com/succinctlabs/sp1-contracts/blob/main/contracts/src/v3.0.0/Groth16Verifier.sol\":6396:6397  f */\n      dup4\n        /* \"https://github.com/succinctlabs/sp1-contracts/blob/main/contracts/src/v3.0.0/Groth16Verifier.sol\":6377:6394  PRECOMPILE_MODEXP */\n      0x05\n        /* \"https://github.com/succinctlabs/sp1-contracts/blob/main/contracts/src/v3.0.0/Groth16Verifier.sol\":6370:6375  gas() */\n      gas\n        /* \"https://github.com/succinctlabs/sp1-contracts/blob/main/contracts/src/v3.0.0/Groth16Verifier.sol\":6359:6413  staticcall(gas(), PRECOMPILE_MODEXP, f, 0xc0, f, 0x20) */\n      staticcall\n        /* \"https://github.com/succinctlabs/sp1-contracts/blob/main/contracts/src/v3.0.0/Groth16Verifier.sol\":6348:6413  success := staticcall(gas(), PRECOMPILE_MODEXP, f, 0xc0, f, 0x20) */\n      swap2\n      pop\n        /* \"https://github.com/succinctlabs/sp1-contracts/blob/main/contracts/src/v3.0.0/Groth16Verifier.sol\":6437:6438  f */\n      dup1\n        /* \"https://github.com/succinctlabs/sp1-contracts/blob/main/contracts/src/v3.0.0/Groth16Verifier.sol\":6431:6439  mload(f) */\n      mload\n        /* \"https://github.com/succinctlabs/sp1-contracts/blob/main/contracts/src/v3.0.0/Groth16Verifier.sol\":6426:6439  x := mload(f) */\n      swap3\n      pop\n        /* \"https://github.com/succinctlabs/sp1-contracts/blob/main/contracts/src/v3.0.0/Groth16Verifier.sol\":6087:6449  {... */\n      pop\n        /* \"https://github.com/succinctlabs/sp1-contracts/blob/main/contracts/src/v3.0.0/Groth16Verifier.sol\":6463:6470  success */\n      dup1\n        /* \"https://github.com/succinctlabs/sp1-contracts/blob/main/contracts/src/v3.0.0/Groth16Verifier.sol\":6458:6590  if (!success) {... */\n      tag_307\n      jumpi\n        /* \"https://github.com/succinctlabs/sp1-contracts/blob/main/contracts/src/v3.0.0/Groth16Verifier.sol\":6565:6579  ProofInvalid() */\n      mload(0x40)\n      0x7fcdd1f400000000000000000000000000000000000000000000000000000000\n      dup2\n      mstore\n      0x04\n      add\n      mload(0x40)\n      dup1\n      swap2\n      sub\n      swap1\n      revert\n        /* \"https://github.com/succinctlabs/sp1-contracts/blob/main/contracts/src/v3.0.0/Groth16Verifier.sol\":6458:6590  if (!success) {... */\n    tag_307:\n        /* \"https://github.com/succinctlabs/sp1-contracts/blob/main/contracts/src/v3.0.0/Groth16Verifier.sol\":6030:6596  {... */\n      pop\n        /* \"https://github.com/succinctlabs/sp1-contracts/blob/main/contracts/src/v3.0.0/Groth16Verifier.sol\":5961:6596  function exp(uint256 a, uint256 e) internal view returns (uint256 x) {... */\n      swap3\n      swap2\n      pop\n      pop\n      jump\t// out\n        /* \"https://github.com/succinctlabs/sp1-contracts/blob/main/contracts/src/v3.0.0/Groth16Verifier.sol\":6877:7166  function invert_Fp(uint256 a) internal view returns (uint256 x) {... */\n    tag_292:\n        /* \"https://github.com/succinctlabs/sp1-contracts/blob/main/contracts/src/v3.0.0/Groth16Verifier.sol\":6930:6939  uint256 x */\n      0x00\n        /* \"https://github.com/succinctlabs/sp1-contracts/blob/main/contracts/src/v3.0.0/Groth16Verifier.sol\":6955:6977  exp(a, EXP_INVERSE_FP) */\n      tag_309\n        /* \"https://github.com/succinctlabs/sp1-contracts/blob/main/contracts/src/v3.0.0/Groth16Verifier.sol\":6959:6960  a */\n      dup3\n        /* \"https://github.com/succinctlabs/sp1-contracts/blob/main/contracts/src/v3.0.0/Groth16Verifier.sol\":2515:2581  0x30644E72E131A029B85045B68181585D97816A916871CA8D3C208C16D87CFD45 */\n      0x30644e72e131a029b85045b68181585d97816a916871ca8d3c208c16d87cfd45\n        /* \"https://github.com/succinctlabs/sp1-contracts/blob/main/contracts/src/v3.0.0/Groth16Verifier.sol\":6955:6958  exp */\n      tag_259\n        /* \"https://github.com/succinctlabs/sp1-contracts/blob/main/contracts/src/v3.0.0/Groth16Verifier.sol\":6955:6977  exp(a, EXP_INVERSE_FP) */\n      jump\t// in\n    tag_309:\n        /* \"https://github.com/succinctlabs/sp1-contracts/blob/main/contracts/src/v3.0.0/Groth16Verifier.sol\":6951:6977  x = exp(a, EXP_INVERSE_FP) */\n      swap1\n      pop\n        /* \"https://github.com/succinctlabs/sp1-contracts/blob/main/contracts/src/v3.0.0/Groth16Verifier.sol\":7010:7011  1 */\n      0x01\n        /* \"https://github.com/succinctlabs/sp1-contracts/blob/main/contracts/src/v3.0.0/Groth16Verifier.sol\":1394:1460  0x30644e72e131a029b85045b68181585d97816a916871ca8d3c208c16d87cfd47 */\n      0x30644e72e131a029b85045b68181585d97816a916871ca8d3c208c16d87cfd47\n        /* \"https://github.com/succinctlabs/sp1-contracts/blob/main/contracts/src/v3.0.0/Groth16Verifier.sol\":6991:7006  mulmod(a, x, P) */\n      dup1\n      tag_310\n      jumpi\n      tag_311\n      tag_136\n      jump\t// in\n    tag_311:\n    tag_310:\n        /* \"https://github.com/succinctlabs/sp1-contracts/blob/main/contracts/src/v3.0.0/Groth16Verifier.sol\":7001:7002  x */\n      dup3\n        /* \"https://github.com/succinctlabs/sp1-contracts/blob/main/contracts/src/v3.0.0/Groth16Verifier.sol\":6998:6999  a */\n      dup5\n        /* \"https://github.com/succinctlabs/sp1-contracts/blob/main/contracts/src/v3.0.0/Groth16Verifier.sol\":6991:7006  mulmod(a, x, P) */\n      mulmod\n        /* \"https://github.com/succinctlabs/sp1-contracts/blob/main/contracts/src/v3.0.0/Groth16Verifier.sol\":6991:7011  mulmod(a, x, P) != 1 */\n      eq\n        /* \"https://github.com/succinctlabs/sp1-contracts/blob/main/contracts/src/v3.0.0/Groth16Verifier.sol\":6987:7160  if (mulmod(a, x, P) != 1) {... */\n      tag_312\n      jumpi\n        /* \"https://github.com/succinctlabs/sp1-contracts/blob/main/contracts/src/v3.0.0/Groth16Verifier.sol\":7135:7149  ProofInvalid() */\n      mload(0x40)\n      0x7fcdd1f400000000000000000000000000000000000000000000000000000000\n      dup2\n      mstore\n      0x04\n      add\n      mload(0x40)\n      dup1\n      swap2\n      sub\n      swap1\n      revert\n        /* \"https://github.com/succinctlabs/sp1-contracts/blob/main/contracts/src/v3.0.0/Groth16Verifier.sol\":6987:7160  if (mulmod(a, x, P) != 1) {... */\n    tag_312:\n        /* \"https://github.com/succinctlabs/sp1-contracts/blob/main/contracts/src/v3.0.0/Groth16Verifier.sol\":6877:7166  function invert_Fp(uint256 a) internal view returns (uint256 x) {... */\n      swap2\n      swap1\n      pop\n      jump\t// out\n    tag_21:\n      mload(0x40)\n      dup1\n      0x80\n      add\n      0x40\n      mstore\n      dup1\n      0x04\n      swap1\n      0x20\n      dup3\n      mul\n      dup1\n      calldatasize\n      dup4\n      calldatacopy\n      dup1\n      dup3\n      add\n      swap2\n      pop\n      pop\n      swap1\n      pop\n      pop\n      swap1\n      jump\t// out\n    tag_59:\n      mload(0x40)\n      dup1\n      0x0300\n      add\n      0x40\n      mstore\n      dup1\n      0x18\n      swap1\n      0x20\n      dup3\n      mul\n      dup1\n      calldatasize\n      dup4\n      calldatacopy\n      dup1\n      dup3\n      add\n      swap2\n      pop\n      pop\n      swap1\n      pop\n      pop\n      swap1\n      jump\t// out\n    tag_123:\n      mload(0x40)\n      dup1\n      0x20\n      add\n      0x40\n      mstore\n      dup1\n      0x01\n      swap1\n      0x20\n      dup3\n      mul\n      dup1\n      calldatasize\n      dup4\n      calldatacopy\n      dup1\n      dup3\n      add\n      swap2\n      pop\n      pop\n      swap1\n      pop\n      pop\n      swap1\n      jump\t// out\n        /* \"#utility.yul\":88:205   */\n    tag_314:\n        /* \"#utility.yul\":197:198   */\n      0x00\n        /* \"#utility.yul\":194:195   */\n      0x00\n        /* \"#utility.yul\":187:199   */\n      revert\n        /* \"#utility.yul\":334:451   */\n    tag_316:\n        /* \"#utility.yul\":443:444   */\n      0x00\n        /* \"#utility.yul\":440:441   */\n      0x00\n        /* \"#utility.yul\":433:445   */\n      revert\n        /* \"#utility.yul\":475:724   */\n    tag_317:\n        /* \"#utility.yul\":546:554   */\n      0x00\n        /* \"#utility.yul\":577:583   */\n      dup2\n        /* \"#utility.yul\":565:583   */\n      swap1\n      pop\n        /* \"#utility.yul\":630:633   */\n      dup3\n        /* \"#utility.yul\":622:626   */\n      0x20\n        /* \"#utility.yul\":616:620   */\n      0x08\n        /* \"#utility.yul\":612:627   */\n      mul\n        /* \"#utility.yul\":602:610   */\n      dup3\n        /* \"#utility.yul\":598:628   */\n      add\n        /* \"#utility.yul\":595:634   */\n      gt\n        /* \"#utility.yul\":592:718   */\n      iszero\n      tag_335\n      jumpi\n        /* \"#utility.yul\":637:716   */\n      tag_336\n      tag_316\n      jump\t// in\n    tag_336:\n        /* \"#utility.yul\":592:718   */\n    tag_335:\n        /* \"#utility.yul\":475:724   */\n      swap3\n      swap2\n      pop\n      pop\n      jump\t// out\n        /* \"#utility.yul\":730:1110   */\n    tag_8:\n        /* \"#utility.yul\":814:820   */\n      0x00\n        /* \"#utility.yul\":863:866   */\n      0x0100\n        /* \"#utility.yul\":851:860   */\n      dup3\n        /* \"#utility.yul\":842:849   */\n      dup5\n        /* \"#utility.yul\":838:861   */\n      sub\n        /* \"#utility.yul\":834:867   */\n      slt\n        /* \"#utility.yul\":831:951   */\n      iszero\n      tag_338\n      jumpi\n        /* \"#utility.yul\":870:949   */\n      tag_339\n      tag_314\n      jump\t// in\n    tag_339:\n        /* \"#utility.yul\":831:951   */\n    tag_338:\n        /* \"#utility.yul\":990:991   */\n      0x00\n        /* \"#utility.yul\":1015:1093   */\n      tag_340\n        /* \"#utility.yul\":1085:1092   */\n      dup5\n        /* \"#utility.yul\":1076:1082   */\n      dup3\n        /* \"#utility.yul\":1065:1074   */\n      dup6\n        /* \"#utility.yul\":1061:1083   */\n      add\n        /* \"#utility.yul\":1015:1093   */\n      tag_317\n      jump\t// in\n    tag_340:\n        /* \"#utility.yul\":1005:1093   */\n      swap2\n      pop\n        /* \"#utility.yul\":961:1103   */\n      pop\n        /* \"#utility.yul\":730:1110   */\n      swap3\n      swap2\n      pop\n      pop\n      jump\t// out\n        /* \"#utility.yul\":1116:1220   */\n    tag_318:\n        /* \"#utility.yul\":1181:1187   */\n      0x00\n        /* \"#utility.yul\":1209:1213   */\n      0x04\n        /* \"#utility.yul\":1199:1213   */\n      swap1\n      pop\n        /* \"#utility.yul\":1116:1220   */\n      swap2\n      swap1\n      pop\n      jump\t// out\n        /* \"#utility.yul\":1226:1369   */\n    tag_319:\n        /* \"#utility.yul\":1323:1334   */\n      0x00\n        /* \"#utility.yul\":1360:1363   */\n      dup2\n        /* \"#utility.yul\":1345:1363   */\n      swap1\n      pop\n        /* \"#utility.yul\":1226:1369   */\n      swap3\n      swap2\n      pop\n      pop\n      jump\t// out\n        /* \"#utility.yul\":1375:1473   */\n    tag_320:\n        /* \"#utility.yul\":1440:1444   */\n      0x00\n        /* \"#utility.yul\":1463:1466   */\n      dup2\n        /* \"#utility.yul\":1455:1466   */\n      swap1\n      pop\n        /* \"#utility.yul\":1375:1473   */\n      swap2\n      swap1\n      pop\n      jump\t// out\n        /* \"#utility.yul\":1479:1556   */\n    tag_321:\n        /* \"#utility.yul\":1516:1523   */\n      0x00\n        /* \"#utility.yul\":1545:1550   */\n      dup2\n        /* \"#utility.yul\":1534:1550   */\n      swap1\n      pop\n        /* \"#utility.yul\":1479:1556   */\n      swap2\n      swap1\n      pop\n      jump\t// out\n        /* \"#utility.yul\":1562:1670   */\n    tag_322:\n        /* \"#utility.yul\":1639:1663   */\n      tag_346\n        /* \"#utility.yul\":1657:1662   */\n      dup2\n        /* \"#utility.yul\":1639:1663   */\n      tag_321\n      jump\t// in\n    tag_346:\n        /* \"#utility.yul\":1634:1637   */\n      dup3\n        /* \"#utility.yul\":1627:1664   */\n      mstore\n        /* \"#utility.yul\":1562:1670   */\n      pop\n      pop\n      jump\t// out\n        /* \"#utility.yul\":1676:1855   */\n    tag_323:\n        /* \"#utility.yul\":1745:1755   */\n      0x00\n        /* \"#utility.yul\":1766:1812   */\n      tag_348\n        /* \"#utility.yul\":1808:1811   */\n      dup4\n        /* \"#utility.yul\":1800:1806   */\n      dup4\n        /* \"#utility.yul\":1766:1812   */\n      tag_322\n      jump\t// in\n    tag_348:\n        /* \"#utility.yul\":1844:1848   */\n      0x20\n        /* \"#utility.yul\":1839:1842   */\n      dup4\n        /* \"#utility.yul\":1835:1849   */\n      add\n        /* \"#utility.yul\":1821:1849   */\n      swap1\n      pop\n        /* \"#utility.yul\":1676:1855   */\n      swap3\n      swap2\n      pop\n      pop\n      jump\t// out\n        /* \"#utility.yul\":1861:1972   */\n    tag_324:\n        /* \"#utility.yul\":1929:1933   */\n      0x00\n        /* \"#utility.yul\":1961:1965   */\n      0x20\n        /* \"#utility.yul\":1956:1959   */\n      dup3\n        /* \"#utility.yul\":1952:1966   */\n      add\n        /* \"#utility.yul\":1944:1966   */\n      swap1\n      pop\n        /* \"#utility.yul\":1861:1972   */\n      swap2\n      swap1\n      pop\n      jump\t// out\n        /* \"#utility.yul\":2010:2704   */\n    tag_325:\n        /* \"#utility.yul\":2146:2198   */\n      tag_351\n        /* \"#utility.yul\":2192:2197   */\n      dup2\n        /* \"#utility.yul\":2146:2198   */\n      tag_318\n      jump\t// in\n    tag_351:\n        /* \"#utility.yul\":2214:2298   */\n      tag_352\n        /* \"#utility.yul\":2291:2297   */\n      dup2\n        /* \"#utility.yul\":2286:2289   */\n      dup5\n        /* \"#utility.yul\":2214:2298   */\n      tag_319\n      jump\t// in\n    tag_352:\n        /* \"#utility.yul\":2207:2298   */\n      swap3\n      pop\n        /* \"#utility.yul\":2322:2376   */\n      tag_353\n        /* \"#utility.yul\":2370:2375   */\n      dup3\n        /* \"#utility.yul\":2322:2376   */\n      tag_320\n      jump\t// in\n    tag_353:\n        /* \"#utility.yul\":2399:2406   */\n      dup1\n        /* \"#utility.yul\":2430:2431   */\n      0x00\n        /* \"#utility.yul\":2415:2697   */\n    tag_354:\n        /* \"#utility.yul\":2440:2446   */\n      dup4\n        /* \"#utility.yul\":2437:2438   */\n      dup2\n        /* \"#utility.yul\":2434:2447   */\n      lt\n        /* \"#utility.yul\":2415:2697   */\n      iszero\n      tag_356\n      jumpi\n        /* \"#utility.yul\":2516:2522   */\n      dup2\n        /* \"#utility.yul\":2510:2523   */\n      mload\n        /* \"#utility.yul\":2543:2606   */\n      tag_357\n        /* \"#utility.yul\":2602:2605   */\n      dup8\n        /* \"#utility.yul\":2587:2600   */\n      dup3\n        /* \"#utility.yul\":2543:2606   */\n      tag_323\n      jump\t// in\n    tag_357:\n        /* \"#utility.yul\":2536:2606   */\n      swap7\n      pop\n        /* \"#utility.yul\":2629:2687   */\n      tag_358\n        /* \"#utility.yul\":2680:2686   */\n      dup4\n        /* \"#utility.yul\":2629:2687   */\n      tag_324\n      jump\t// in\n    tag_358:\n        /* \"#utility.yul\":2619:2687   */\n      swap3\n      pop\n        /* \"#utility.yul\":2475:2697   */\n      pop\n        /* \"#utility.yul\":2462:2463   */\n      0x01\n        /* \"#utility.yul\":2459:2460   */\n      dup2\n        /* \"#utility.yul\":2455:2464   */\n      add\n        /* \"#utility.yul\":2450:2464   */\n      swap1\n      pop\n        /* \"#utility.yul\":2415:2697   */\n      jump(tag_354)\n    tag_356:\n        /* \"#utility.yul\":2419:2433   */\n      pop\n        /* \"#utility.yul\":2122:2704   */\n      pop\n      pop\n      pop\n        /* \"#utility.yul\":2010:2704   */\n      pop\n      pop\n      jump\t// out\n        /* \"#utility.yul\":2710:3025   */\n    tag_11:\n        /* \"#utility.yul\":2849:2853   */\n      0x00\n        /* \"#utility.yul\":2887:2890   */\n      0x80\n        /* \"#utility.yul\":2876:2885   */\n      dup3\n        /* \"#utility.yul\":2872:2891   */\n      add\n        /* \"#utility.yul\":2864:2891   */\n      swap1\n      pop\n        /* \"#utility.yul\":2901:3018   */\n      tag_360\n        /* \"#utility.yul\":3015:3016   */\n      0x00\n        /* \"#utility.yul\":3004:3013   */\n      dup4\n        /* \"#utility.yul\":3000:3017   */\n      add\n        /* \"#utility.yul\":2991:2997   */\n      dup5\n        /* \"#utility.yul\":2901:3018   */\n      tag_325\n      jump\t// in\n    tag_360:\n        /* \"#utility.yul\":2710:3025   */\n      swap3\n      swap2\n      pop\n      pop\n      jump\t// out\n        /* \"#utility.yul\":3049:3298   */\n    tag_326:\n        /* \"#utility.yul\":3120:3128   */\n      0x00\n        /* \"#utility.yul\":3151:3157   */\n      dup2\n        /* \"#utility.yul\":3139:3157   */\n      swap1\n      pop\n        /* \"#utility.yul\":3204:3207   */\n      dup3\n        /* \"#utility.yul\":3196:3200   */\n      0x20\n        /* \"#utility.yul\":3190:3194   */\n      0x02\n        /* \"#utility.yul\":3186:3201   */\n      mul\n        /* \"#utility.yul\":3176:3184   */\n      dup3\n        /* \"#utility.yul\":3172:3202   */\n      add\n        /* \"#utility.yul\":3169:3208   */\n      gt\n        /* \"#utility.yul\":3166:3292   */\n      iszero\n      tag_362\n      jumpi\n        /* \"#utility.yul\":3211:3290   */\n      tag_363\n      tag_316\n      jump\t// in\n    tag_363:\n        /* \"#utility.yul\":3166:3292   */\n    tag_362:\n        /* \"#utility.yul\":3049:3298   */\n      swap3\n      swap2\n      pop\n      pop\n      jump\t// out\n        /* \"#utility.yul\":3304:3880   */\n    tag_14:\n        /* \"#utility.yul\":3422:3428   */\n      0x00\n        /* \"#utility.yul\":3430:3436   */\n      0x00\n        /* \"#utility.yul\":3479:3482   */\n      0x0140\n        /* \"#utility.yul\":3467:3476   */\n      dup4\n        /* \"#utility.yul\":3458:3465   */\n      dup6\n        /* \"#utility.yul\":3454:3477   */\n      sub\n        /* \"#utility.yul\":3450:3483   */\n      slt\n        /* \"#utility.yul\":3447:3567   */\n      iszero\n      tag_365\n      jumpi\n        /* \"#utility.yul\":3486:3565   */\n      tag_366\n      tag_314\n      jump\t// in\n    tag_366:\n        /* \"#utility.yul\":3447:3567   */\n    tag_365:\n        /* \"#utility.yul\":3606:3607   */\n      0x00\n        /* \"#utility.yul\":3631:3709   */\n      tag_367\n        /* \"#utility.yul\":3701:3708   */\n      dup6\n        /* \"#utility.yul\":3692:3698   */\n      dup3\n        /* \"#utility.yul\":3681:3690   */\n      dup7\n        /* \"#utility.yul\":3677:3699   */\n      add\n        /* \"#utility.yul\":3631:3709   */\n      tag_317\n      jump\t// in\n    tag_367:\n        /* \"#utility.yul\":3621:3709   */\n      swap3\n      pop\n        /* \"#utility.yul\":3577:3719   */\n      pop\n        /* \"#utility.yul\":3758:3761   */\n      0x0100\n        /* \"#utility.yul\":3785:3863   */\n      tag_368\n        /* \"#utility.yul\":3855:3862   */\n      dup6\n        /* \"#utility.yul\":3846:3852   */\n      dup3\n        /* \"#utility.yul\":3835:3844   */\n      dup7\n        /* \"#utility.yul\":3831:3853   */\n      add\n        /* \"#utility.yul\":3785:3863   */\n      tag_326\n      jump\t// in\n    tag_368:\n        /* \"#utility.yul\":3775:3863   */\n      swap2\n      pop\n        /* \"#utility.yul\":3729:3873   */\n      pop\n        /* \"#utility.yul\":3304:3880   */\n      swap3\n      pop\n      swap3\n      swap1\n      pop\n      jump\t// out\n        /* \"#utility.yul\":3904:4153   */\n    tag_327:\n        /* \"#utility.yul\":3975:3983   */\n      0x00\n        /* \"#utility.yul\":4006:4012   */\n      dup2\n        /* \"#utility.yul\":3994:4012   */\n      swap1\n      pop\n        /* \"#utility.yul\":4059:4062   */\n      dup3\n        /* \"#utility.yul\":4051:4055   */\n      0x20\n        /* \"#utility.yul\":4045:4049   */\n      0x04\n        /* \"#utility.yul\":4041:4056   */\n      mul\n        /* \"#utility.yul\":4031:4039   */\n      dup3\n        /* \"#utility.yul\":4027:4057   */\n      add\n        /* \"#utility.yul\":4024:4063   */\n      gt\n        /* \"#utility.yul\":4021:4147   */\n      iszero\n      tag_370\n      jumpi\n        /* \"#utility.yul\":4066:4145   */\n      tag_371\n      tag_316\n      jump\t// in\n    tag_371:\n        /* \"#utility.yul\":4021:4147   */\n    tag_370:\n        /* \"#utility.yul\":3904:4153   */\n      swap3\n      swap2\n      pop\n      pop\n      jump\t// out\n        /* \"#utility.yul\":4159:4735   */\n    tag_18:\n        /* \"#utility.yul\":4277:4283   */\n      0x00\n        /* \"#utility.yul\":4285:4291   */\n      0x00\n        /* \"#utility.yul\":4334:4337   */\n      0xc0\n        /* \"#utility.yul\":4322:4331   */\n      dup4\n        /* \"#utility.yul\":4313:4320   */\n      dup6\n        /* \"#utility.yul\":4309:4332   */\n      sub\n        /* \"#utility.yul\":4305:4338   */\n      slt\n        /* \"#utility.yul\":4302:4422   */\n      iszero\n      tag_373\n      jumpi\n        /* \"#utility.yul\":4341:4420   */\n      tag_374\n      tag_314\n      jump\t// in\n    tag_374:\n        /* \"#utility.yul\":4302:4422   */\n    tag_373:\n        /* \"#utility.yul\":4461:4462   */\n      0x00\n        /* \"#utility.yul\":4486:4564   */\n      tag_375\n        /* \"#utility.yul\":4556:4563   */\n      dup6\n        /* \"#utility.yul\":4547:4553   */\n      dup3\n        /* \"#utility.yul\":4536:4545   */\n      dup7\n        /* \"#utility.yul\":4532:4554   */\n      add\n        /* \"#utility.yul\":4486:4564   */\n      tag_327\n      jump\t// in\n    tag_375:\n        /* \"#utility.yul\":4476:4564   */\n      swap3\n      pop\n        /* \"#utility.yul\":4432:4574   */\n      pop\n        /* \"#utility.yul\":4613:4616   */\n      0x80\n        /* \"#utility.yul\":4640:4718   */\n      tag_376\n        /* \"#utility.yul\":4710:4717   */\n      dup6\n        /* \"#utility.yul\":4701:4707   */\n      dup3\n        /* \"#utility.yul\":4690:4699   */\n      dup7\n        /* \"#utility.yul\":4686:4708   */\n      add\n        /* \"#utility.yul\":4640:4718   */\n      tag_326\n      jump\t// in\n    tag_376:\n        /* \"#utility.yul\":4630:4718   */\n      swap2\n      pop\n        /* \"#utility.yul\":4584:4728   */\n      pop\n        /* \"#utility.yul\":4159:4735   */\n      swap3\n      pop\n      swap3\n      swap1\n      pop\n      jump\t// out\n        /* \"#utility.yul\":4741:4921   */\n    tag_26:\n        /* \"#utility.yul\":4789:4866   */\n      0x4e487b7100000000000000000000000000000000000000000000000000000000\n        /* \"#utility.yul\":4786:4787   */\n      0x00\n        /* \"#utility.yul\":4779:4867   */\n      mstore\n        /* \"#utility.yul\":4886:4890   */\n      0x32\n        /* \"#utility.yul\":4883:4884   */\n      0x04\n        /* \"#utility.yul\":4876:4891   */\n      mstore\n        /* \"#utility.yul\":4910:4914   */\n      0x24\n        /* \"#utility.yul\":4907:4908   */\n      0x00\n        /* \"#utility.yul\":4900:4915   */\n      revert\n        /* \"#utility.yul\":4927:5107   */\n    tag_136:\n        /* \"#utility.yul\":4975:5052   */\n      0x4e487b7100000000000000000000000000000000000000000000000000000000\n        /* \"#utility.yul\":4972:4973   */\n      0x00\n        /* \"#utility.yul\":4965:5053   */\n      mstore\n        /* \"#utility.yul\":5072:5076   */\n      0x12\n        /* \"#utility.yul\":5069:5070   */\n      0x04\n        /* \"#utility.yul\":5062:5077   */\n      mstore\n        /* \"#utility.yul\":5096:5100   */\n      0x24\n        /* \"#utility.yul\":5093:5094   */\n      0x00\n        /* \"#utility.yul\":5086:5101   */\n      revert\n        /* \"#utility.yul\":5113:5293   */\n    tag_328:\n        /* \"#utility.yul\":5161:5238   */\n      0x4e487b7100000000000000000000000000000000000000000000000000000000\n        /* \"#utility.yul\":5158:5159   */\n      0x00\n        /* \"#utility.yul\":5151:5239   */\n      mstore\n        /* \"#utility.yul\":5258:5262   */\n      0x11\n        /* \"#utility.yul\":5255:5256   */\n      0x04\n        /* \"#utility.yul\":5248:5263   */\n      mstore\n        /* \"#utility.yul\":5282:5286   */\n      0x24\n        /* \"#utility.yul\":5279:5280   */\n      0x00\n        /* \"#utility.yul\":5272:5287   */\n      revert\n        /* \"#utility.yul\":5299:5493   */\n    tag_157:\n        /* \"#utility.yul\":5339:5343   */\n      0x00\n        /* \"#utility.yul\":5359:5379   */\n      tag_381\n        /* \"#utility.yul\":5377:5378   */\n      dup3\n        /* \"#utility.yul\":5359:5379   */\n      tag_321\n      jump\t// in\n    tag_381:\n        /* \"#utility.yul\":5354:5379   */\n      swap2\n      pop\n        /* \"#utility.yul\":5393:5413   */\n      tag_382\n        /* \"#utility.yul\":5411:5412   */\n      dup4\n        /* \"#utility.yul\":5393:5413   */\n      tag_321\n      jump\t// in\n    tag_382:\n        /* \"#utility.yul\":5388:5413   */\n      swap3\n      pop\n        /* \"#utility.yul\":5437:5438   */\n      dup3\n        /* \"#utility.yul\":5434:5435   */\n      dup3\n        /* \"#utility.yul\":5430:5439   */\n      sub\n        /* \"#utility.yul\":5422:5439   */\n      swap1\n      pop\n        /* \"#utility.yul\":5461:5462   */\n      dup2\n        /* \"#utility.yul\":5455:5459   */\n      dup2\n        /* \"#utility.yul\":5452:5463   */\n      gt\n        /* \"#utility.yul\":5449:5486   */\n      iszero\n      tag_383\n      jumpi\n        /* \"#utility.yul\":5466:5484   */\n      tag_384\n      tag_328\n      jump\t// in\n    tag_384:\n        /* \"#utility.yul\":5449:5486   */\n    tag_383:\n        /* \"#utility.yul\":5299:5493   */\n      swap3\n      swap2\n      pop\n      pop\n      jump\t// out\n\n    auxdata: 0xa264697066735822122038d1aa2d8b9d451d530ec28b7f0eea0f6b464b4d788c3c437cebb14ca764dae364736f6c634300081e0033\n}\n",
				"bytecode": {
					"linkReferences": {},
					"object": "6080604052348015600e575f5ffd5b5061218e8061001c5f395ff3fe608060405234801561000f575f5ffd5b506004361061003f575f3560e01c806344f6369214610043578063eddf243c14610073578063f11817b21461008f575b5f5ffd5b61005d60048036038101906100589190611eeb565b6100ab565b60405161006a9190611fc5565b60405180910390f35b61008d60048036038101906100889190611fff565b61020a565b005b6100a960048036038101906100a49190612060565b6104a4565b005b6100b3611e5b565b6100ec825f600881106100c9576100c861209e565b5b6020020135836001600881106100e2576100e161209e565b5b6020020135610a5f565b815f600481106100ff576100fe61209e565b5b6020020181815250506101748260036008811061011f5761011e61209e565b5b6020020135836002600881106101385761013761209e565b5b6020020135846005600881106101515761015061209e565b5b60200201358560046008811061016a5761016961209e565b5b6020020135610c0d565b826002600481106101885761018761209e565b5b60200201836001600481106101a05761019f61209e565b5b60200201828152508281525050506101e8826006600881106101c5576101c461209e565b5b6020020135836007600881106101de576101dd61209e565b5b6020020135610a5f565b816003600481106101fc576101fb61209e565b5b602002018181525050919050565b5f5f610215836111d9565b915091505f6040516101008682377f21ab438b0ad9688f8d9afc96ed0ab25e6ab7f19ed6f7d58a9dc136d68de55e3e6101008201527f2d1f461ca03a65528393919e9e412f6b82d7096e44fa039bd7642a5112188af76101208201527f100f76d4ac45886c1334d58716121dc0ffa8463738f3f2adf793e15b8ecd7e1d6101408201527f2bf21e8bb2f9419034373c2156cdd7bddf273519dcd7f674ef21e2748ced89f26101608201527f2d4d9aa7e302d9df41749d5507949d05dbea33fbb16c643b22f599a2be6df2e26101808201527f14bedd503c37ceb061d8ec60209fe345ce89830a19230301f076caff004d19266101a08201527f0967032fcbf776d1afc985f88877f182d38480a653f2decaa9794cbc3bf3060c6101c08201527f0e187847ad4c798374d0d6732bf501847dd68bc0e071241e0213bc7fc13db7ab6101e08201527e1752a100a72fdf1e5a5d6ea841cc20ec838bccfcf7bd559e79f1c9c759b6a06102008201527f192a8cc13cd9f762871f21e43451c6ca9eeab2cb2987c4e366a185c25dac2e7f61022082015283610240820152826102608201527f198e9393920d483a7260bfb731fb5d25f1aa493335a9e71297e485b7aef312c26102808201527f1800deef121f1e76426a00665e5c4479674322d4f75edadd46debd5cd992f6ed6102a08201527f275dc4a288d1afb3cbb1ac09187524c7db36395df7be3b99e673b13a075a65ec6102c08201527f1d9befcd05a5323e6da4d435f3b617cdb3af83285c2df711ef39c01571827f9d6102e08201526020816103008360085afa9150805182169150508061049d576040517f7fcdd1f400000000000000000000000000000000000000000000000000000000815260040160405180910390fd5b5050505050565b6104ac611e7d565b5f5f6104ce855f600481106104c4576104c361209e565b5b60200201356113ab565b915091505f5f5f5f610510896002600481106104ed576104ec61209e565b5b60200201358a6001600481106105065761050561209e565b5b60200201356114e0565b93509350935093505f5f61053b8b6003600481106105315761053061209e565b5b60200201356113ab565b915091505f5f61054a8c6111d9565b91509150898b5f601881106105625761056161209e565b5b602002018181525050888b6001601881106105805761057f61209e565b5b602002018181525050868b60026018811061059e5761059d61209e565b5b602002018181525050878b6003601881106105bc576105bb61209e565b5b602002018181525050848b6004601881106105da576105d961209e565b5b602002018181525050858b6005601881106105f8576105f761209e565b5b602002018181525050838b6006601881106106165761061561209e565b5b602002018181525050828b6007601881106106345761063361209e565b5b6020020181815250507f21ab438b0ad9688f8d9afc96ed0ab25e6ab7f19ed6f7d58a9dc136d68de55e3e8b6008601881106106725761067161209e565b5b6020020181815250507f2d1f461ca03a65528393919e9e412f6b82d7096e44fa039bd7642a5112188af78b6009601881106106b0576106af61209e565b5b6020020181815250507f100f76d4ac45886c1334d58716121dc0ffa8463738f3f2adf793e15b8ecd7e1d8b600a601881106106ee576106ed61209e565b5b6020020181815250507f2bf21e8bb2f9419034373c2156cdd7bddf273519dcd7f674ef21e2748ced89f28b600b6018811061072c5761072b61209e565b5b6020020181815250507f2d4d9aa7e302d9df41749d5507949d05dbea33fbb16c643b22f599a2be6df2e28b600c6018811061076a5761076961209e565b5b6020020181815250507f14bedd503c37ceb061d8ec60209fe345ce89830a19230301f076caff004d19268b600d601881106107a8576107a761209e565b5b6020020181815250507f0967032fcbf776d1afc985f88877f182d38480a653f2decaa9794cbc3bf3060c8b600e601881106107e6576107e561209e565b5b6020020181815250507f0e187847ad4c798374d0d6732bf501847dd68bc0e071241e0213bc7fc13db7ab8b600f601881106108245761082361209e565b5b6020020181815250507e1752a100a72fdf1e5a5d6ea841cc20ec838bccfcf7bd559e79f1c9c759b6a08b6010601881106108615761086061209e565b5b6020020181815250507f192a8cc13cd9f762871f21e43451c6ca9eeab2cb2987c4e366a185c25dac2e7f8b60116018811061089f5761089e61209e565b5b602002018181525050818b6012601881106108bd576108bc61209e565b5b602002018181525050808b6013601881106108db576108da61209e565b5b6020020181815250507f198e9393920d483a7260bfb731fb5d25f1aa493335a9e71297e485b7aef312c28b6014601881106109195761091861209e565b5b6020020181815250507f1800deef121f1e76426a00665e5c4479674322d4f75edadd46debd5cd992f6ed8b6015601881106109575761095661209e565b5b6020020181815250507f275dc4a288d1afb3cbb1ac09187524c7db36395df7be3b99e673b13a075a65ec8b6016601881106109955761099461209e565b5b6020020181815250507f1d9befcd05a5323e6da4d435f3b617cdb3af83285c2df711ef39c01571827f9d8b6017601881106109d3576109d261209e565b5b6020020181815250505f6109e5611ea0565b6020816103008f60085afa9150811580610a1757506001815f60018110610a0f57610a0e61209e565b5b602002015114155b15610a4e576040517f7fcdd1f400000000000000000000000000000000000000000000000000000000815260040160405180910390fd5b505050505050505050505050505050565b5f7f30644e72e131a029b85045b68181585d97816a916871ca8d3c208c16d87cfd4783101580610aaf57507f30644e72e131a029b85045b68181585d97816a916871ca8d3c208c16d87cfd478210155b15610ae6576040517f7fcdd1f400000000000000000000000000000000000000000000000000000000815260040160405180910390fd5b5f83148015610af457505f82145b15610b01575f9050610c07565b5f610b9f7f30644e72e131a029b85045b68181585d97816a916871ca8d3c208c16d87cfd4780610b3457610b336120cb565b5b60037f30644e72e131a029b85045b68181585d97816a916871ca8d3c208c16d87cfd4780610b6557610b646120cb565b5b877f30644e72e131a029b85045b68181585d97816a916871ca8d3c208c16d87cfd4780610b9557610b946120cb565b5b898a0909086118bb565b9050808303610bb7575f600185901b17915050610c07565b610bc081611957565b8303610bd55760018085901b17915050610c07565b6040517f7fcdd1f400000000000000000000000000000000000000000000000000000000815260040160405180910390fd5b92915050565b5f5f7f30644e72e131a029b85045b68181585d97816a916871ca8d3c208c16d87cfd4786101580610c5e57507f30644e72e131a029b85045b68181585d97816a916871ca8d3c208c16d87cfd478510155b80610c8957507f30644e72e131a029b85045b68181585d97816a916871ca8d3c208c16d87cfd478410155b80610cb457507f30644e72e131a029b85045b68181585d97816a916871ca8d3c208c16d87cfd478310155b15610ceb576040517f7fcdd1f400000000000000000000000000000000000000000000000000000000815260040160405180910390fd5b5f8385878917171703610d03575f5f915091506111d0565b5f5f5f7f30644e72e131a029b85045b68181585d97816a916871ca8d3c208c16d87cfd4780610d3557610d346120cb565b5b60037f30644e72e131a029b85045b68181585d97816a916871ca8d3c208c16d87cfd47610d629190612125565b7f30644e72e131a029b85045b68181585d97816a916871ca8d3c208c16d87cfd4780610d9157610d906120cb565b5b8a8c090990505f7f30644e72e131a029b85045b68181585d97816a916871ca8d3c208c16d87cfd4780610dc757610dc66120cb565b5b8a7f30644e72e131a029b85045b68181585d97816a916871ca8d3c208c16d87cfd4780610df757610df66120cb565b5b8c8d090990505f7f30644e72e131a029b85045b68181585d97816a916871ca8d3c208c16d87cfd4780610e2d57610e2c6120cb565b5b8a7f30644e72e131a029b85045b68181585d97816a916871ca8d3c208c16d87cfd4780610e5d57610e5c6120cb565b5b8c8d090990507f30644e72e131a029b85045b68181585d97816a916871ca8d3c208c16d87cfd4780610e9257610e916120cb565b5b7f30644e72e131a029b85045b68181585d97816a916871ca8d3c208c16d87cfd4780610ec157610ec06120cb565b5b7f30644e72e131a029b85045b68181585d97816a916871ca8d3c208c16d87cfd4780610ef057610eef6120cb565b5b8c860984087f2b149d40ceb8aaae81be18991be06ac3b5b4c5e559dbefa33267e6dc24a138e5089450610fd57f30644e72e131a029b85045b68181585d97816a916871ca8d3c208c16d87cfd4780610f4b57610f4a6120cb565b5b7f30644e72e131a029b85045b68181585d97816a916871ca8d3c208c16d87cfd4780610f7a57610f796120cb565b5b7f30644e72e131a029b85045b68181585d97816a916871ca8d3c208c16d87cfd4780610fa957610fa86120cb565b5b8e870984087f2fcd3ac2a640a154eb23960892a85a68f031ca0c8344b23a577dcf1052b9e77508611957565b93505050505f5f6110787f30644e72e131a029b85045b68181585d97816a916871ca8d3c208c16d87cfd478061100e5761100d6120cb565b5b7f30644e72e131a029b85045b68181585d97816a916871ca8d3c208c16d87cfd478061103d5761103c6120cb565b5b8586097f30644e72e131a029b85045b68181585d97816a916871ca8d3c208c16d87cfd478061106f5761106e6120cb565b5b878809086118bb565b90506111057f30644e72e131a029b85045b68181585d97816a916871ca8d3c208c16d87cfd47806110ac576110ab6120cb565b5b7f183227397098d014dc2822db40c0ac2ecbc0b548b438e5469e10460b6c3e7ea47f30644e72e131a029b85045b68181585d97816a916871ca8d3c208c16d87cfd47806110fc576110fb6120cb565b5b848808096119c2565b15915050611114838383611a2c565b8093508194505050828714801561112a57508186145b15611152575f8161113b575f61113e565b60025b60ff1660028b901b171794508793506111cc565b61115b83611957565b87148015611170575061116d82611957565b86145b1561119957600181611182575f611185565b60025b60ff1660028b901b171794508793506111cb565b6040517f7fcdd1f400000000000000000000000000000000000000000000000000000000815260040160405180910390fd5b5b5050505b94509492505050565b5f5f5f60019050604051604081015f7f0251859caefe66b516c5549d3768d1ba94146083cb044026abebc9908991924883527f2c1e789b2dcafdaa6853d0934c4443d223b8f050ce3466d068f2ab7efa29bc0360208401527f13a264f6a5d0e3938bea4e4431d417f2980774db501085ceafd0d7e76a7f128b82527f155351b5ccccb7a37222f2b82fa4a968f33523326364fe52bb87d1ea3f47c6976020830152863590508060408301527f30644e72e131a029b85045b68181585d2833e84879b9709143e1f593f000000181108416935060408260608460075afa8416935060408360808560065afa841693507f03777818388f77b4065a87d01e141b5fec2ee452d1ada3493892aca2c4da5d4082527f0fb2382a8c87c5992ee8385e493ffd96983c8c42c5545a4daaab264f482865b56020830152602087013590508060408301527f30644e72e131a029b85045b68181585d2833e84879b9709143e1f593f000000181108416935060408260608460075afa8416935060408360808560065afa841693508251955060208301519450505050806113a5576040517fa54f8e2700000000000000000000000000000000000000000000000000000000815260040160405180910390fd5b50915091565b5f5f5f83036113bf575f5f915091506114db565b5f6001808516149050600184901c92507f30644e72e131a029b85045b68181585d97816a916871ca8d3c208c16d87cfd478310611428576040517f7fcdd1f400000000000000000000000000000000000000000000000000000000815260040160405180910390fd5b6114c57f30644e72e131a029b85045b68181585d97816a916871ca8d3c208c16d87cfd478061145a576114596120cb565b5b60037f30644e72e131a029b85045b68181585d97816a916871ca8d3c208c16d87cfd478061148b5761148a6120cb565b5b867f30644e72e131a029b85045b68181585d97816a916871ca8d3c208c16d87cfd47806114bb576114ba6120cb565b5b88890909086118bb565b915080156114d9576114d682611957565b91505b505b915091565b5f5f5f5f5f861480156114f257505f85145b15611508575f5f5f5f93509350935093506118b2565b5f60018088161490505f6002808916149050600288901c95508694507f30644e72e131a029b85045b68181585d97816a916871ca8d3c208c16d87cfd478610158061157357507f30644e72e131a029b85045b68181585d97816a916871ca8d3c208c16d87cfd478510155b156115aa576040517f7fcdd1f400000000000000000000000000000000000000000000000000000000815260040160405180910390fd5b5f7f30644e72e131a029b85045b68181585d97816a916871ca8d3c208c16d87cfd47806115da576115d96120cb565b5b60037f30644e72e131a029b85045b68181585d97816a916871ca8d3c208c16d87cfd476116079190612125565b7f30644e72e131a029b85045b68181585d97816a916871ca8d3c208c16d87cfd4780611636576116356120cb565b5b888a090990505f7f30644e72e131a029b85045b68181585d97816a916871ca8d3c208c16d87cfd478061166c5761166b6120cb565b5b887f30644e72e131a029b85045b68181585d97816a916871ca8d3c208c16d87cfd478061169c5761169b6120cb565b5b8a8b090990505f7f30644e72e131a029b85045b68181585d97816a916871ca8d3c208c16d87cfd47806116d2576116d16120cb565b5b887f30644e72e131a029b85045b68181585d97816a916871ca8d3c208c16d87cfd4780611702576117016120cb565b5b8a8b090990507f30644e72e131a029b85045b68181585d97816a916871ca8d3c208c16d87cfd4780611737576117366120cb565b5b7f30644e72e131a029b85045b68181585d97816a916871ca8d3c208c16d87cfd4780611766576117656120cb565b5b7f30644e72e131a029b85045b68181585d97816a916871ca8d3c208c16d87cfd4780611795576117946120cb565b5b8a860984087f2b149d40ceb8aaae81be18991be06ac3b5b4c5e559dbefa33267e6dc24a138e508965061187a7f30644e72e131a029b85045b68181585d97816a916871ca8d3c208c16d87cfd47806117f0576117ef6120cb565b5b7f30644e72e131a029b85045b68181585d97816a916871ca8d3c208c16d87cfd478061181f5761181e6120cb565b5b7f30644e72e131a029b85045b68181585d97816a916871ca8d3c208c16d87cfd478061184e5761184d6120cb565b5b8c870984087f2fcd3ac2a640a154eb23960892a85a68f031ca0c8344b23a577dcf1052b9e77508611957565b9550611887878786611a2c565b809750819850505084156118ac5761189e87611957565b96506118a986611957565b95505b50505050505b92959194509250565b5f6118e6827f0c19139cb84c680a6e14116da060561765e05aa45a1c72a34f082305b61f3f52611d27565b9050817f30644e72e131a029b85045b68181585d97816a916871ca8d3c208c16d87cfd4780611918576119176120cb565b5b82830914611952576040517f7fcdd1f400000000000000000000000000000000000000000000000000000000815260040160405180910390fd5b919050565b5f7f30644e72e131a029b85045b68181585d97816a916871ca8d3c208c16d87cfd47808381611989576119886120cb565b5b067f30644e72e131a029b85045b68181585d97816a916871ca8d3c208c16d87cfd4703816119ba576119b96120cb565b5b069050919050565b5f5f6119ee837f0c19139cb84c680a6e14116da060561765e05aa45a1c72a34f082305b61f3f52611d27565b9050827f30644e72e131a029b85045b68181585d97816a916871ca8d3c208c16d87cfd4780611a2057611a1f6120cb565b5b82830914915050919050565b5f5f5f611acb7f30644e72e131a029b85045b68181585d97816a916871ca8d3c208c16d87cfd4780611a6157611a606120cb565b5b7f30644e72e131a029b85045b68181585d97816a916871ca8d3c208c16d87cfd4780611a9057611a8f6120cb565b5b8788097f30644e72e131a029b85045b68181585d97816a916871ca8d3c208c16d87cfd4780611ac257611ac16120cb565b5b898a09086118bb565b90508315611adf57611adc81611957565b90505b611b6a7f30644e72e131a029b85045b68181585d97816a916871ca8d3c208c16d87cfd4780611b1157611b106120cb565b5b7f183227397098d014dc2822db40c0ac2ecbc0b548b438e5469e10460b6c3e7ea47f30644e72e131a029b85045b68181585d97816a916871ca8d3c208c16d87cfd4780611b6157611b606120cb565b5b848a08096118bb565b92507f30644e72e131a029b85045b68181585d97816a916871ca8d3c208c16d87cfd4780611b9b57611b9a6120cb565b5b611bd67f30644e72e131a029b85045b68181585d97816a916871ca8d3c208c16d87cfd4780611bcd57611bcc6120cb565b5b60028609611dbe565b860991507f30644e72e131a029b85045b68181585d97816a916871ca8d3c208c16d87cfd4780611c0957611c086120cb565b5b611c437f30644e72e131a029b85045b68181585d97816a916871ca8d3c208c16d87cfd4780611c3b57611c3a6120cb565b5b848509611957565b7f30644e72e131a029b85045b68181585d97816a916871ca8d3c208c16d87cfd4780611c7257611c716120cb565b5b8586090886141580611ce757507f30644e72e131a029b85045b68181585d97816a916871ca8d3c208c16d87cfd4780611cae57611cad6120cb565b5b7f30644e72e131a029b85045b68181585d97816a916871ca8d3c208c16d87cfd4780611cdd57611cdc6120cb565b5b8385096002098514155b15611d1e576040517f7fcdd1f400000000000000000000000000000000000000000000000000000000815260040160405180910390fd5b50935093915050565b5f5f60405160208152602080820152602060408201528460608201528360808201527f30644e72e131a029b85045b68181585d97816a916871ca8d3c208c16d87cfd4760a082015260208160c08360055afa9150805192505080611db7576040517f7fcdd1f400000000000000000000000000000000000000000000000000000000815260040160405180910390fd5b5092915050565b5f611de9827f30644e72e131a029b85045b68181585d97816a916871ca8d3c208c16d87cfd45611d27565b905060017f30644e72e131a029b85045b68181585d97816a916871ca8d3c208c16d87cfd4780611e1c57611e1b6120cb565b5b82840914611e56576040517f7fcdd1f400000000000000000000000000000000000000000000000000000000815260040160405180910390fd5b919050565b6040518060800160405280600490602082028036833780820191505090505090565b604051806103000160405280601890602082028036833780820191505090505090565b6040518060200160405280600190602082028036833780820191505090505090565b5f5ffd5b5f5ffd5b5f81905082602060080282011115611ee557611ee4611ec6565b5b92915050565b5f6101008284031215611f0157611f00611ec2565b5b5f611f0e84828501611eca565b91505092915050565b5f60049050919050565b5f81905092915050565b5f819050919050565b5f819050919050565b611f4681611f34565b82525050565b5f611f578383611f3d565b60208301905092915050565b5f602082019050919050565b611f7881611f17565b611f828184611f21565b9250611f8d82611f2b565b805f5b83811015611fbd578151611fa48782611f4c565b9650611faf83611f63565b925050600181019050611f90565b505050505050565b5f608082019050611fd85f830184611f6f565b92915050565b5f81905082602060020282011115611ff957611ff8611ec6565b5b92915050565b5f5f610140838503121561201657612015611ec2565b5b5f61202385828601611eca565b92505061010061203585828601611fde565b9150509250929050565b5f8190508260206004028201111561205a57612059611ec6565b5b92915050565b5f5f60c0838503121561207657612075611ec2565b5b5f6120838582860161203f565b925050608061209485828601611fde565b9150509250929050565b7f4e487b71000000000000000000000000000000000000000000000000000000005f52603260045260245ffd5b7f4e487b71000000000000000000000000000000000000000000000000000000005f52601260045260245ffd5b7f4e487b71000000000000000000000000000000000000000000000000000000005f52601160045260245ffd5b5f61212f82611f34565b915061213a83611f34565b9250828203905081811115612152576121516120f8565b5b9291505056fea264697066735822122038d1aa2d8b9d451d530ec28b7f0eea0f6b464b4d788c3c437cebb14ca764dae364736f6c634300081e0033",
					"opcodes": "PUSH1 0x80 PUSH1 0x40 MSTORE CALLVALUE DUP1 ISZERO PUSH1 0xE JUMPI PUSH0 PUSH0 REVERT JUMPDEST POP PUSH2 0x218E DUP1 PUSH2 0x1C PUSH0 CODECOPY PUSH0 RETURN INVALID PUSH1 0x80 PUSH1 0x40 MSTORE CALLVALUE DUP1 ISZERO PUSH2 0xF JUMPI PUSH0 PUSH0 REVERT JUMPDEST POP PUSH1 0x4 CALLDATASIZE LT PUSH2 0x3F JUMPI PUSH0 CALLDATALOAD PUSH1 0xE0 SHR DUP1 PUSH4 0x44F63692 EQ PUSH2 0x43 JUMPI DUP1 PUSH4 0xEDDF243C EQ PUSH2 0x73 JUMPI DUP1 PUSH4 0xF11817B2 EQ PUSH2 0x8F JUMPI JUMPDEST PUSH0 PUSH0 REVERT JUMPDEST PUSH2 0x5D PUSH1 0x4 DUP1 CALLDATASIZE SUB DUP2 ADD SWAP1 PUSH2 0x58 SWAP2 SWAP1 PUSH2 0x1EEB JUMP JUMPDEST PUSH2 0xAB JUMP JUMPDEST PUSH1 0x40 MLOAD PUSH2 0x6A SWAP2 SWAP1 PUSH2 0x1FC5 JUMP JUMPDEST PUSH1 0x40 MLOAD DUP1 SWAP2 SUB SWAP1 RETURN JUMPDEST PUSH2 0x8D PUSH1 0x4 DUP1 CALLDATASIZE SUB DUP2 ADD SWAP1 PUSH2 0x88 SWAP2 SWAP1 PUSH2 0x1FFF JUMP JUMPDEST PUSH2 0x20A JUMP JUMPDEST STOP JUMPDEST PUSH2 0xA9 PUSH1 0x4 DUP1 CALLDATASIZE SUB DUP2 ADD SWAP1 PUSH2 0xA4 SWAP2 SWAP1 PUSH2 0x2060 JUMP JUMPDEST PUSH2 0x4A4 JUMP JUMPDEST STOP JUMPDEST PUSH2 0xB3 PUSH2 0x1E5B JUMP JUMPDEST PUSH2 0xEC DUP3 PUSH0 PUSH1 0x8 DUP2 LT PUSH2 0xC9 JUMPI PUSH2 0xC8 PUSH2 0x209E JUMP JUMPDEST JUMPDEST PUSH1 0x20 MUL ADD CALLDATALOAD DUP4 PUSH1 0x1 PUSH1 0x8 DUP2 LT PUSH2 0xE2 JUMPI PUSH2 0xE1 PUSH2 0x209E JUMP JUMPDEST JUMPDEST PUSH1 0x20 MUL ADD CALLDATALOAD PUSH2 0xA5F JUMP JUMPDEST DUP2 PUSH0 PUSH1 0x4 DUP2 LT PUSH2 0xFF JUMPI PUSH2 0xFE PUSH2 0x209E JUMP JUMPDEST JUMPDEST PUSH1 0x20 MUL ADD DUP2 DUP2 MSTORE POP POP PUSH2 0x174 DUP3 PUSH1 0x3 PUSH1 0x8 DUP2 LT PUSH2 0x11F JUMPI PUSH2 0x11E PUSH2 0x209E JUMP JUMPDEST JUMPDEST PUSH1 0x20 MUL ADD CALLDATALOAD DUP4 PUSH1 0x2 PUSH1 0x8 DUP2 LT PUSH2 0x138 JUMPI PUSH2 0x137 PUSH2 0x209E JUMP JUMPDEST JUMPDEST PUSH1 0x20 MUL ADD CALLDATALOAD DUP5 PUSH1 0x5 PUSH1 0x8 DUP2 LT PUSH2 0x151 JUMPI PUSH2 0x150 PUSH2 0x209E JUMP JUMPDEST JUMPDEST PUSH1 0x20 MUL ADD CALLDATALOAD DUP6 PUSH1 0x4 PUSH1 0x8 DUP2 LT PUSH2 0x16A JUMPI PUSH2 0x169 PUSH2 0x209E JUMP JUMPDEST JUMPDEST PUSH1 0x20 MUL ADD CALLDATALOAD PUSH2 0xC0D JUMP JUMPDEST DUP3 PUSH1 0x2 PUSH1 0x4 DUP2 LT PUSH2 0x188 JUMPI PUSH2 0x187 PUSH2 0x209E JUMP JUMPDEST JUMPDEST PUSH1 0x20 MUL ADD DUP4 PUSH1 0x1 PUSH1 0x4 DUP2 LT PUSH2 0x1A0 JUMPI PUSH2 0x19F PUSH2 0x209E JUMP JUMPDEST JUMPDEST PUSH1 0x20 MUL ADD DUP3 DUP2 MSTORE POP DUP3 DUP2 MSTORE POP POP POP PUSH2 0x1E8 DUP3 PUSH1 0x6 PUSH1 0x8 DUP2 LT PUSH2 0x1C5 JUMPI PUSH2 0x1C4 PUSH2 0x209E JUMP JUMPDEST JUMPDEST PUSH1 0x20 MUL ADD CALLDATALOAD DUP4 PUSH1 0x7 PUSH1 0x8 DUP2 LT PUSH2 0x1DE JUMPI PUSH2 0x1DD PUSH2 0x209E JUMP JUMPDEST JUMPDEST PUSH1 0x20 MUL ADD CALLDATALOAD PUSH2 0xA5F JUMP JUMPDEST DUP2 PUSH1 0x3 PUSH1 0x4 DUP2 LT PUSH2 0x1FC JUMPI PUSH2 0x1FB PUSH2 0x209E JUMP JUMPDEST JUMPDEST PUSH1 0x20 MUL ADD DUP2 DUP2 MSTORE POP POP SWAP2 SWAP1 POP JUMP JUMPDEST PUSH0 PUSH0 PUSH2 0x215 DUP4 PUSH2 0x11D9 JUMP JUMPDEST SWAP2 POP SWAP2 POP PUSH0 PUSH1 0x40 MLOAD PUSH2 0x100 DUP7 DUP3 CALLDATACOPY PUSH32 0x21AB438B0AD9688F8D9AFC96ED0AB25E6AB7F19ED6F7D58A9DC136D68DE55E3E PUSH2 0x100 DUP3 ADD MSTORE PUSH32 0x2D1F461CA03A65528393919E9E412F6B82D7096E44FA039BD7642A5112188AF7 PUSH2 0x120 DUP3 ADD MSTORE PUSH32 0x100F76D4AC45886C1334D58716121DC0FFA8463738F3F2ADF793E15B8ECD7E1D PUSH2 0x140 DUP3 ADD MSTORE PUSH32 0x2BF21E8BB2F9419034373C2156CDD7BDDF273519DCD7F674EF21E2748CED89F2 PUSH2 0x160 DUP3 ADD MSTORE PUSH32 0x2D4D9AA7E302D9DF41749D5507949D05DBEA33FBB16C643B22F599A2BE6DF2E2 PUSH2 0x180 DUP3 ADD MSTORE PUSH32 0x14BEDD503C37CEB061D8EC60209FE345CE89830A19230301F076CAFF004D1926 PUSH2 0x1A0 DUP3 ADD MSTORE PUSH32 0x967032FCBF776D1AFC985F88877F182D38480A653F2DECAA9794CBC3BF3060C PUSH2 0x1C0 DUP3 ADD MSTORE PUSH32 0xE187847AD4C798374D0D6732BF501847DD68BC0E071241E0213BC7FC13DB7AB PUSH2 0x1E0 DUP3 ADD MSTORE PUSH31 0x1752A100A72FDF1E5A5D6EA841CC20EC838BCCFCF7BD559E79F1C9C759B6A0 PUSH2 0x200 DUP3 ADD MSTORE PUSH32 0x192A8CC13CD9F762871F21E43451C6CA9EEAB2CB2987C4E366A185C25DAC2E7F PUSH2 0x220 DUP3 ADD MSTORE DUP4 PUSH2 0x240 DUP3 ADD MSTORE DUP3 PUSH2 0x260 DUP3 ADD MSTORE PUSH32 0x198E9393920D483A7260BFB731FB5D25F1AA493335A9E71297E485B7AEF312C2 PUSH2 0x280 DUP3 ADD MSTORE PUSH32 0x1800DEEF121F1E76426A00665E5C4479674322D4F75EDADD46DEBD5CD992F6ED PUSH2 0x2A0 DUP3 ADD MSTORE PUSH32 0x275DC4A288D1AFB3CBB1AC09187524C7DB36395DF7BE3B99E673B13A075A65EC PUSH2 0x2C0 DUP3 ADD MSTORE PUSH32 0x1D9BEFCD05A5323E6DA4D435F3B617CDB3AF83285C2DF711EF39C01571827F9D PUSH2 0x2E0 DUP3 ADD MSTORE PUSH1 0x20 DUP2 PUSH2 0x300 DUP4 PUSH1 0x8 GAS STATICCALL SWAP2 POP DUP1 MLOAD DUP3 AND SWAP2 POP POP DUP1 PUSH2 0x49D JUMPI PUSH1 0x40 MLOAD PUSH32 0x7FCDD1F400000000000000000000000000000000000000000000000000000000 DUP2 MSTORE PUSH1 0x4 ADD PUSH1 0x40 MLOAD DUP1 SWAP2 SUB SWAP1 REVERT JUMPDEST POP POP POP POP POP JUMP JUMPDEST PUSH2 0x4AC PUSH2 0x1E7D JUMP JUMPDEST PUSH0 PUSH0 PUSH2 0x4CE DUP6 PUSH0 PUSH1 0x4 DUP2 LT PUSH2 0x4C4 JUMPI PUSH2 0x4C3 PUSH2 0x209E JUMP JUMPDEST JUMPDEST PUSH1 0x20 MUL ADD CALLDATALOAD PUSH2 0x13AB JUMP JUMPDEST SWAP2 POP SWAP2 POP PUSH0 PUSH0 PUSH0 PUSH0 PUSH2 0x510 DUP10 PUSH1 0x2 PUSH1 0x4 DUP2 LT PUSH2 0x4ED JUMPI PUSH2 0x4EC PUSH2 0x209E JUMP JUMPDEST JUMPDEST PUSH1 0x20 MUL ADD CALLDATALOAD DUP11 PUSH1 0x1 PUSH1 0x4 DUP2 LT PUSH2 0x506 JUMPI PUSH2 0x505 PUSH2 0x209E JUMP JUMPDEST JUMPDEST PUSH1 0x20 MUL ADD CALLDATALOAD PUSH2 0x14E0 JUMP JUMPDEST SWAP4 POP SWAP4 POP SWAP4 POP SWAP4 POP PUSH0 PUSH0 PUSH2 0x53B DUP12 PUSH1 0x3 PUSH1 0x4 DUP2 LT PUSH2 0x531 JUMPI PUSH2 0x530 PUSH2 0x209E JUMP JUMPDEST JUMPDEST PUSH1 0x20 MUL ADD CALLDATALOAD PUSH2 0x13AB JUMP JUMPDEST SWAP2 POP SWAP2 POP PUSH0 PUSH0 PUSH2 0x54A DUP13 PUSH2 0x11D9 JUMP JUMPDEST SWAP2 POP SWAP2 POP DUP10 DUP12 PUSH0 PUSH1 0x18 DUP2 LT PUSH2 0x562 JUMPI PUSH2 0x561 PUSH2 0x209E JUMP JUMPDEST JUMPDEST PUSH1 0x20 MUL ADD DUP2 DUP2 MSTORE POP POP DUP9 DUP12 PUSH1 0x1 PUSH1 0x18 DUP2 LT PUSH2 0x580 JUMPI PUSH2 0x57F PUSH2 0x209E JUMP JUMPDEST JUMPDEST PUSH1 0x20 MUL ADD DUP2 DUP2 MSTORE POP POP DUP7 DUP12 PUSH1 0x2 PUSH1 0x18 DUP2 LT PUSH2 0x59E JUMPI PUSH2 0x59D PUSH2 0x209E JUMP JUMPDEST JUMPDEST PUSH1 0x20 MUL ADD DUP2 DUP2 MSTORE POP POP DUP8 DUP12 PUSH1 0x3 PUSH1 0x18 DUP2 LT PUSH2 0x5BC JUMPI PUSH2 0x5BB PUSH2 0x209E JUMP JUMPDEST JUMPDEST PUSH1 0x20 MUL ADD DUP2 DUP2 MSTORE POP POP DUP5 DUP12 PUSH1 0x4 PUSH1 0x18 DUP2 LT PUSH2 0x5DA JUMPI PUSH2 0x5D9 PUSH2 0x209E JUMP JUMPDEST JUMPDEST PUSH1 0x20 MUL ADD DUP2 DUP2 MSTORE POP POP DUP6 DUP12 PUSH1 0x5 PUSH1 0x18 DUP2 LT PUSH2 0x5F8 JUMPI PUSH2 0x5F7 PUSH2 0x209E JUMP JUMPDEST JUMPDEST PUSH1 0x20 MUL ADD DUP2 DUP2 MSTORE POP POP DUP4 DUP12 PUSH1 0x6 PUSH1 0x18 DUP2 LT PUSH2 0x616 JUMPI PUSH2 0x615 PUSH2 0x209E JUMP JUMPDEST JUMPDEST PUSH1 0x20 MUL ADD DUP2 DUP2 MSTORE POP POP DUP3 DUP12 PUSH1 0x7 PUSH1 0x18 DUP2 LT PUSH2 0x634 JUMPI PUSH2 0x633 PUSH2 0x209E JUMP JUMPDEST JUMPDEST PUSH1 0x20 MUL ADD DUP2 DUP2 MSTORE POP POP PUSH32 0x21AB438B0AD9688F8D9AFC96ED0AB25E6AB7F19ED6F7D58A9DC136D68DE55E3E DUP12 PUSH1 0x8 PUSH1 0x18 DUP2 LT PUSH2 0x672 JUMPI PUSH2 0x671 PUSH2 0x209E JUMP JUMPDEST JUMPDEST PUSH1 0x20 MUL ADD DUP2 DUP2 MSTORE POP POP PUSH32 0x2D1F461CA03A65528393919E9E412F6B82D7096E44FA039BD7642A5112188AF7 DUP12 PUSH1 0x9 PUSH1 0x18 DUP2 LT PUSH2 0x6B0 JUMPI PUSH2 0x6AF PUSH2 0x209E JUMP JUMPDEST JUMPDEST PUSH1 0x20 MUL ADD DUP2 DUP2 MSTORE POP POP PUSH32 0x100F76D4AC45886C1334D58716121DC0FFA8463738F3F2ADF793E15B8ECD7E1D DUP12 PUSH1 0xA PUSH1 0x18 DUP2 LT PUSH2 0x6EE JUMPI PUSH2 0x6ED PUSH2 0x209E JUMP JUMPDEST JUMPDEST PUSH1 0x20 MUL ADD DUP2 DUP2 MSTORE POP POP PUSH32 0x2BF21E8BB2F9419034373C2156CDD7BDDF273519DCD7F674EF21E2748CED89F2 DUP12 PUSH1 0xB PUSH1 0x18 DUP2 LT PUSH2 0x72C JUMPI PUSH2 0x72B PUSH2 0x209E JUMP JUMPDEST JUMPDEST PUSH1 0x20 MUL ADD DUP2 DUP2 MSTORE POP POP PUSH32 0x2D4D9AA7E302D9DF41749D5507949D05DBEA33FBB16C643B22F599A2BE6DF2E2 DUP12 PUSH1 0xC PUSH1 0x18 DUP2 LT PUSH2 0x76A JUMPI PUSH2 0x769 PUSH2 0x209E JUMP JUMPDEST JUMPDEST PUSH1 0x20 MUL ADD DUP2 DUP2 MSTORE POP POP PUSH32 0x14BEDD503C37CEB061D8EC60209FE345CE89830A19230301F076CAFF004D1926 DUP12 PUSH1 0xD PUSH1 0x18 DUP2 LT PUSH2 0x7A8 JUMPI PUSH2 0x7A7 PUSH2 0x209E JUMP JUMPDEST JUMPDEST PUSH1 0x20 MUL ADD DUP2 DUP2 MSTORE POP POP PUSH32 0x967032FCBF776D1AFC985F88877F182D38480A653F2DECAA9794CBC3BF3060C DUP12 PUSH1 0xE PUSH1 0x18 DUP2 LT PUSH2 0x7E6 JUMPI PUSH2 0x7E5 PUSH2 0x209E JUMP JUMPDEST JUMPDEST PUSH1 0x20 MUL ADD DUP2 DUP2 MSTORE POP POP PUSH32 0xE187847AD4C798374D0D6732BF501847DD68BC0E071241E0213BC7FC13DB7AB DUP12 PUSH1 0xF PUSH1 0x18 DUP2 LT PUSH2 0x824 JUMPI PUSH2 0x823 PUSH2 0x209E JUMP JUMPDEST JUMPDEST PUSH1 0x20 MUL ADD DUP2 DUP2 MSTORE POP POP PUSH31 0x1752A100A72FDF1E5A5D6EA841CC20EC838BCCFCF7BD559E79F1C9C759B6A0 DUP12 PUSH1 0x10 PUSH1 0x18 DUP2 LT PUSH2 0x861 JUMPI PUSH2 0x860 PUSH2 0x209E JUMP JUMPDEST JUMPDEST PUSH1 0x20 MUL ADD DUP2 DUP2 MSTORE POP POP PUSH32 0x192A8CC13CD9F762871F21E43451C6CA9EEAB2CB2987C4E366A185C25DAC2E7F DUP12 PUSH1 0x11 PUSH1 0x18 DUP2 LT PUSH2 0x89F JUMPI PUSH2 0x89E PUSH2 0x209E JUMP JUMPDEST JUMPDEST PUSH1 0x20 MUL ADD DUP2 DUP2 MSTORE POP POP DUP2 DUP12 PUSH1 0x12 PUSH1 0x18 DUP2 LT PUSH2 0x8BD JUMPI PUSH2 0x8BC PUSH2 0x209E JUMP JUMPDEST JUMPDEST PUSH1 0x20 MUL ADD DUP2 DUP2 MSTORE POP POP DUP1 DUP12 PUSH1 0x13 PUSH1 0x18 DUP2 LT PUSH2 0x8DB JUMPI PUSH2 0x8DA PUSH2 0x209E JUMP JUMPDEST JUMPDEST PUSH1 0x20 MUL ADD DUP2 DUP2 MSTORE POP POP PUSH32 0x198E9393920D483A7260BFB731FB5D25F1AA493335A9E71297E485B7AEF312C2 DUP12 PUSH1 0x14 PUSH1 0x18 DUP2 LT PUSH2 0x919 JUMPI PUSH2 0x918 PUSH2 0x209E JUMP JUMPDEST JUMPDEST PUSH1 0x20 MUL ADD DUP2 DUP2 MSTORE POP POP PUSH32 0x1800DEEF121F1E76426A00665E5C4479674322D4F75EDADD46DEBD5CD992F6ED DUP12 PUSH1 0x15 PUSH1 0x18 DUP2 LT PUSH2 0x957 JUMPI PUSH2 0x956 PUSH2 0x209E JUMP JUMPDEST JUMPDEST PUSH1 0x20 MUL ADD DUP2 DUP2 MSTORE POP POP PUSH32 0x275DC4A288D1AFB3CBB1AC09187524C7DB36395DF7BE3B99E673B13A075A65EC DUP12 PUSH1 0x16 PUSH1 0x18 DUP2 LT PUSH2 0x995 JUMPI PUSH2 0x994 PUSH2 0x209E JUMP JUMPDEST JUMPDEST PUSH1 0x20 MUL ADD DUP2 DUP2 MSTORE POP POP PUSH32 0x1D9BEFCD05A5323E6DA4D435F3B617CDB3AF83285C2DF711EF39C01571827F9D DUP12 PUSH1 0x17 PUSH1 0x18 DUP2 LT PUSH2 0x9D3 JUMPI PUSH2 0x9D2 PUSH2 0x209E JUMP JUMPDEST JUMPDEST PUSH1 0x20 MUL ADD DUP2 DUP2 MSTORE POP POP PUSH0 PUSH2 0x9E5 PUSH2 0x1EA0 JUMP JUMPDEST PUSH1 0x20 DUP2 PUSH2 0x300 DUP16 PUSH1 0x8 GAS STATICCALL SWAP2 POP DUP2 ISZERO DUP1 PUSH2 0xA17 JUMPI POP PUSH1 0x1 DUP2 PUSH0 PUSH1 0x1 DUP2 LT PUSH2 0xA0F JUMPI PUSH2 0xA0E PUSH2 0x209E JUMP JUMPDEST JUMPDEST PUSH1 0x20 MUL ADD MLOAD EQ ISZERO JUMPDEST ISZERO PUSH2 0xA4E JUMPI PUSH1 0x40 MLOAD PUSH32 0x7FCDD1F400000000000000000000000000000000000000000000000000000000 DUP2 MSTORE PUSH1 0x4 ADD PUSH1 0x40 MLOAD DUP1 SWAP2 SUB SWAP1 REVERT JUMPDEST POP POP POP POP POP POP POP POP POP POP POP POP POP POP POP JUMP JUMPDEST PUSH0 PUSH32 0x30644E72E131A029B85045B68181585D97816A916871CA8D3C208C16D87CFD47 DUP4 LT ISZERO DUP1 PUSH2 0xAAF JUMPI POP PUSH32 0x30644E72E131A029B85045B68181585D97816A916871CA8D3C208C16D87CFD47 DUP3 LT ISZERO JUMPDEST ISZERO PUSH2 0xAE6 JUMPI PUSH1 0x40 MLOAD PUSH32 0x7FCDD1F400000000000000000000000000000000000000000000000000000000 DUP2 MSTORE PUSH1 0x4 ADD PUSH1 0x40 MLOAD DUP1 SWAP2 SUB SWAP1 REVERT JUMPDEST PUSH0 DUP4 EQ DUP1 ISZERO PUSH2 0xAF4 JUMPI POP PUSH0 DUP3 EQ JUMPDEST ISZERO PUSH2 0xB01 JUMPI PUSH0 SWAP1 POP PUSH2 0xC07 JUMP JUMPDEST PUSH0 PUSH2 0xB9F PUSH32 0x30644E72E131A029B85045B68181585D97816A916871CA8D3C208C16D87CFD47 DUP1 PUSH2 0xB34 JUMPI PUSH2 0xB33 PUSH2 0x20CB JUMP JUMPDEST JUMPDEST PUSH1 0x3 PUSH32 0x30644E72E131A029B85045B68181585D97816A916871CA8D3C208C16D87CFD47 DUP1 PUSH2 0xB65 JUMPI PUSH2 0xB64 PUSH2 0x20CB JUMP JUMPDEST JUMPDEST DUP8 PUSH32 0x30644E72E131A029B85045B68181585D97816A916871CA8D3C208C16D87CFD47 DUP1 PUSH2 0xB95 JUMPI PUSH2 0xB94 PUSH2 0x20CB JUMP JUMPDEST JUMPDEST DUP10 DUP11 MULMOD MULMOD ADDMOD PUSH2 0x18BB JUMP JUMPDEST SWAP1 POP DUP1 DUP4 SUB PUSH2 0xBB7 JUMPI PUSH0 PUSH1 0x1 DUP6 SWAP1 SHL OR SWAP2 POP POP PUSH2 0xC07 JUMP JUMPDEST PUSH2 0xBC0 DUP2 PUSH2 0x1957 JUMP JUMPDEST DUP4 SUB PUSH2 0xBD5 JUMPI PUSH1 0x1 DUP1 DUP6 SWAP1 SHL OR SWAP2 POP POP PUSH2 0xC07 JUMP JUMPDEST PUSH1 0x40 MLOAD PUSH32 0x7FCDD1F400000000000000000000000000000000000000000000000000000000 DUP2 MSTORE PUSH1 0x4 ADD PUSH1 0x40 MLOAD DUP1 SWAP2 SUB SWAP1 REVERT JUMPDEST SWAP3 SWAP2 POP POP JUMP JUMPDEST PUSH0 PUSH0 PUSH32 0x30644E72E131A029B85045B68181585D97816A916871CA8D3C208C16D87CFD47 DUP7 LT ISZERO DUP1 PUSH2 0xC5E JUMPI POP PUSH32 0x30644E72E131A029B85045B68181585D97816A916871CA8D3C208C16D87CFD47 DUP6 LT ISZERO JUMPDEST DUP1 PUSH2 0xC89 JUMPI POP PUSH32 0x30644E72E131A029B85045B68181585D97816A916871CA8D3C208C16D87CFD47 DUP5 LT ISZERO JUMPDEST DUP1 PUSH2 0xCB4 JUMPI POP PUSH32 0x30644E72E131A029B85045B68181585D97816A916871CA8D3C208C16D87CFD47 DUP4 LT ISZERO JUMPDEST ISZERO PUSH2 0xCEB JUMPI PUSH1 0x40 MLOAD PUSH32 0x7FCDD1F400000000000000000000000000000000000000000000000000000000 DUP2 MSTORE PUSH1 0x4 ADD PUSH1 0x40 MLOAD DUP1 SWAP2 SUB SWAP1 REVERT JUMPDEST PUSH0 DUP4 DUP6 DUP8 DUP10 OR OR OR SUB PUSH2 0xD03 JUMPI PUSH0 PUSH0 SWAP2 POP SWAP2 POP PUSH2 0x11D0 JUMP JUMPDEST PUSH0 PUSH0 PUSH0 PUSH32 0x30644E72E131A029B85045B68181585D97816A916871CA8D3C208C16D87CFD47 DUP1 PUSH2 0xD35 JUMPI PUSH2 0xD34 PUSH2 0x20CB JUMP JUMPDEST JUMPDEST PUSH1 0x3 PUSH32 0x30644E72E131A029B85045B68181585D97816A916871CA8D3C208C16D87CFD47 PUSH2 0xD62 SWAP2 SWAP1 PUSH2 0x2125 JUMP JUMPDEST PUSH32 0x30644E72E131A029B85045B68181585D97816A916871CA8D3C208C16D87CFD47 DUP1 PUSH2 0xD91 JUMPI PUSH2 0xD90 PUSH2 0x20CB JUMP JUMPDEST JUMPDEST DUP11 DUP13 MULMOD MULMOD SWAP1 POP PUSH0 PUSH32 0x30644E72E131A029B85045B68181585D97816A916871CA8D3C208C16D87CFD47 DUP1 PUSH2 0xDC7 JUMPI PUSH2 0xDC6 PUSH2 0x20CB JUMP JUMPDEST JUMPDEST DUP11 PUSH32 0x30644E72E131A029B85045B68181585D97816A916871CA8D3C208C16D87CFD47 DUP1 PUSH2 0xDF7 JUMPI PUSH2 0xDF6 PUSH2 0x20CB JUMP JUMPDEST JUMPDEST DUP13 DUP14 MULMOD MULMOD SWAP1 POP PUSH0 PUSH32 0x30644E72E131A029B85045B68181585D97816A916871CA8D3C208C16D87CFD47 DUP1 PUSH2 0xE2D JUMPI PUSH2 0xE2C PUSH2 0x20CB JUMP JUMPDEST JUMPDEST DUP11 PUSH32 0x30644E72E131A029B85045B68181585D97816A916871CA8D3C208C16D87CFD47 DUP1 PUSH2 0xE5D JUMPI PUSH2 0xE5C PUSH2 0x20CB JUMP JUMPDEST JUMPDEST DUP13 DUP14 MULMOD MULMOD SWAP1 POP PUSH32 0x30644E72E131A029B85045B68181585D97816A916871CA8D3C208C16D87CFD47 DUP1 PUSH2 0xE92 JUMPI PUSH2 0xE91 PUSH2 0x20CB JUMP JUMPDEST JUMPDEST PUSH32 0x30644E72E131A029B85045B68181585D97816A916871CA8D3C208C16D87CFD47 DUP1 PUSH2 0xEC1 JUMPI PUSH2 0xEC0 PUSH2 0x20CB JUMP JUMPDEST JUMPDEST PUSH32 0x30644E72E131A029B85045B68181585D97816A916871CA8D3C208C16D87CFD47 DUP1 PUSH2 0xEF0 JUMPI PUSH2 0xEEF PUSH2 0x20CB JUMP JUMPDEST JUMPDEST DUP13 DUP7 MULMOD DUP5 ADDMOD PUSH32 0x2B149D40CEB8AAAE81BE18991BE06AC3B5B4C5E559DBEFA33267E6DC24A138E5 ADDMOD SWAP5 POP PUSH2 0xFD5 PUSH32 0x30644E72E131A029B85045B68181585D97816A916871CA8D3C208C16D87CFD47 DUP1 PUSH2 0xF4B JUMPI PUSH2 0xF4A PUSH2 0x20CB JUMP JUMPDEST JUMPDEST PUSH32 0x30644E72E131A029B85045B68181585D97816A916871CA8D3C208C16D87CFD47 DUP1 PUSH2 0xF7A JUMPI PUSH2 0xF79 PUSH2 0x20CB JUMP JUMPDEST JUMPDEST PUSH32 0x30644E72E131A029B85045B68181585D97816A916871CA8D3C208C16D87CFD47 DUP1 PUSH2 0xFA9 JUMPI PUSH2 0xFA8 PUSH2 0x20CB JUMP JUMPDEST JUMPDEST DUP15 DUP8 MULMOD DUP5 ADDMOD PUSH32 0x2FCD3AC2A640A154EB23960892A85A68F031CA0C8344B23A577DCF1052B9E775 ADDMOD PUSH2 0x1957 JUMP JUMPDEST SWAP4 POP POP POP POP PUSH0 PUSH0 PUSH2 0x1078 PUSH32 0x30644E72E131A029B85045B68181585D97816A916871CA8D3C208C16D87CFD47 DUP1 PUSH2 0x100E JUMPI PUSH2 0x100D PUSH2 0x20CB JUMP JUMPDEST JUMPDEST PUSH32 0x30644E72E131A029B85045B68181585D97816A916871CA8D3C208C16D87CFD47 DUP1 PUSH2 0x103D JUMPI PUSH2 0x103C PUSH2 0x20CB JUMP JUMPDEST JUMPDEST DUP6 DUP7 MULMOD PUSH32 0x30644E72E131A029B85045B68181585D97816A916871CA8D3C208C16D87CFD47 DUP1 PUSH2 0x106F JUMPI PUSH2 0x106E PUSH2 0x20CB JUMP JUMPDEST JUMPDEST DUP8 DUP9 MULMOD ADDMOD PUSH2 0x18BB JUMP JUMPDEST SWAP1 POP PUSH2 0x1105 PUSH32 0x30644E72E131A029B85045B68181585D97816A916871CA8D3C208C16D87CFD47 DUP1 PUSH2 0x10AC JUMPI PUSH2 0x10AB PUSH2 0x20CB JUMP JUMPDEST JUMPDEST PUSH32 0x183227397098D014DC2822DB40C0AC2ECBC0B548B438E5469E10460B6C3E7EA4 PUSH32 0x30644E72E131A029B85045B68181585D97816A916871CA8D3C208C16D87CFD47 DUP1 PUSH2 0x10FC JUMPI PUSH2 0x10FB PUSH2 0x20CB JUMP JUMPDEST JUMPDEST DUP5 DUP9 ADDMOD MULMOD PUSH2 0x19C2 JUMP JUMPDEST ISZERO SWAP2 POP POP PUSH2 0x1114 DUP4 DUP4 DUP4 PUSH2 0x1A2C JUMP JUMPDEST DUP1 SWAP4 POP DUP2 SWAP5 POP POP POP DUP3 DUP8 EQ DUP1 ISZERO PUSH2 0x112A JUMPI POP DUP2 DUP7 EQ JUMPDEST ISZERO PUSH2 0x1152 JUMPI PUSH0 DUP2 PUSH2 0x113B JUMPI PUSH0 PUSH2 0x113E JUMP JUMPDEST PUSH1 0x2 JUMPDEST PUSH1 0xFF AND PUSH1 0x2 DUP12 SWAP1 SHL OR OR SWAP5 POP DUP8 SWAP4 POP PUSH2 0x11CC JUMP JUMPDEST PUSH2 0x115B DUP4 PUSH2 0x1957 JUMP JUMPDEST DUP8 EQ DUP1 ISZERO PUSH2 0x1170 JUMPI POP PUSH2 0x116D DUP3 PUSH2 0x1957 JUMP JUMPDEST DUP7 EQ JUMPDEST ISZERO PUSH2 0x1199 JUMPI PUSH1 0x1 DUP2 PUSH2 0x1182 JUMPI PUSH0 PUSH2 0x1185 JUMP JUMPDEST PUSH1 0x2 JUMPDEST PUSH1 0xFF AND PUSH1 0x2 DUP12 SWAP1 SHL OR OR SWAP5 POP DUP8 SWAP4 POP PUSH2 0x11CB JUMP JUMPDEST PUSH1 0x40 MLOAD PUSH32 0x7FCDD1F400000000000000000000000000000000000000000000000000000000 DUP2 MSTORE PUSH1 0x4 ADD PUSH1 0x40 MLOAD DUP1 SWAP2 SUB SWAP1 REVERT JUMPDEST JUMPDEST POP POP POP JUMPDEST SWAP5 POP SWAP5 SWAP3 POP POP POP JUMP JUMPDEST PUSH0 PUSH0 PUSH0 PUSH1 0x1 SWAP1 POP PUSH1 0x40 MLOAD PUSH1 0x40 DUP2 ADD PUSH0 PUSH32 0x251859CAEFE66B516C5549D3768D1BA94146083CB044026ABEBC99089919248 DUP4 MSTORE PUSH32 0x2C1E789B2DCAFDAA6853D0934C4443D223B8F050CE3466D068F2AB7EFA29BC03 PUSH1 0x20 DUP5 ADD MSTORE PUSH32 0x13A264F6A5D0E3938BEA4E4431D417F2980774DB501085CEAFD0D7E76A7F128B DUP3 MSTORE PUSH32 0x155351B5CCCCB7A37222F2B82FA4A968F33523326364FE52BB87D1EA3F47C697 PUSH1 0x20 DUP4 ADD MSTORE DUP7 CALLDATALOAD SWAP1 POP DUP1 PUSH1 0x40 DUP4 ADD MSTORE PUSH32 0x30644E72E131A029B85045B68181585D2833E84879B9709143E1F593F0000001 DUP2 LT DUP5 AND SWAP4 POP PUSH1 0x40 DUP3 PUSH1 0x60 DUP5 PUSH1 0x7 GAS STATICCALL DUP5 AND SWAP4 POP PUSH1 0x40 DUP4 PUSH1 0x80 DUP6 PUSH1 0x6 GAS STATICCALL DUP5 AND SWAP4 POP PUSH32 0x3777818388F77B4065A87D01E141B5FEC2EE452D1ADA3493892ACA2C4DA5D40 DUP3 MSTORE PUSH32 0xFB2382A8C87C5992EE8385E493FFD96983C8C42C5545A4DAAAB264F482865B5 PUSH1 0x20 DUP4 ADD MSTORE PUSH1 0x20 DUP8 ADD CALLDATALOAD SWAP1 POP DUP1 PUSH1 0x40 DUP4 ADD MSTORE PUSH32 0x30644E72E131A029B85045B68181585D2833E84879B9709143E1F593F0000001 DUP2 LT DUP5 AND SWAP4 POP PUSH1 0x40 DUP3 PUSH1 0x60 DUP5 PUSH1 0x7 GAS STATICCALL DUP5 AND SWAP4 POP PUSH1 0x40 DUP4 PUSH1 0x80 DUP6 PUSH1 0x6 GAS STATICCALL DUP5 AND SWAP4 POP DUP3 MLOAD SWAP6 POP PUSH1 0x20 DUP4 ADD MLOAD SWAP5 POP POP POP POP DUP1 PUSH2 0x13A5 JUMPI PUSH1 0x40 MLOAD PUSH32 0xA54F8E2700000000000000000000000000000000000000000000000000000000 DUP2 MSTORE PUSH1 0x4 ADD PUSH1 0x40 MLOAD DUP1 SWAP2 SUB SWAP1 REVERT JUMPDEST POP SWAP2 POP SWAP2 JUMP JUMPDEST PUSH0 PUSH0 PUSH0 DUP4 SUB PUSH2 0x13BF JUMPI PUSH0 PUSH0 SWAP2 POP SWAP2 POP PUSH2 0x14DB JUMP JUMPDEST PUSH0 PUSH1 0x1 DUP1 DUP6 AND EQ SWAP1 POP PUSH1 0x1 DUP5 SWAP1 SHR SWAP3 POP PUSH32 0x30644E72E131A029B85045B68181585D97816A916871CA8D3C208C16D87CFD47 DUP4 LT PUSH2 0x1428 JUMPI PUSH1 0x40 MLOAD PUSH32 0x7FCDD1F400000000000000000000000000000000000000000000000000000000 DUP2 MSTORE PUSH1 0x4 ADD PUSH1 0x40 MLOAD DUP1 SWAP2 SUB SWAP1 REVERT JUMPDEST PUSH2 0x14C5 PUSH32 0x30644E72E131A029B85045B68181585D97816A916871CA8D3C208C16D87CFD47 DUP1 PUSH2 0x145A JUMPI PUSH2 0x1459 PUSH2 0x20CB JUMP JUMPDEST JUMPDEST PUSH1 0x3 PUSH32 0x30644E72E131A029B85045B68181585D97816A916871CA8D3C208C16D87CFD47 DUP1 PUSH2 0x148B JUMPI PUSH2 0x148A PUSH2 0x20CB JUMP JUMPDEST JUMPDEST DUP7 PUSH32 0x30644E72E131A029B85045B68181585D97816A916871CA8D3C208C16D87CFD47 DUP1 PUSH2 0x14BB JUMPI PUSH2 0x14BA PUSH2 0x20CB JUMP JUMPDEST JUMPDEST DUP9 DUP10 MULMOD MULMOD ADDMOD PUSH2 0x18BB JUMP JUMPDEST SWAP2 POP DUP1 ISZERO PUSH2 0x14D9 JUMPI PUSH2 0x14D6 DUP3 PUSH2 0x1957 JUMP JUMPDEST SWAP2 POP JUMPDEST POP JUMPDEST SWAP2 POP SWAP2 JUMP JUMPDEST PUSH0 PUSH0 PUSH0 PUSH0 PUSH0 DUP7 EQ DUP1 ISZERO PUSH2 0x14F2 JUMPI POP PUSH0 DUP6 EQ JUMPDEST ISZERO PUSH2 0x1508 JUMPI PUSH0 PUSH0 PUSH0 PUSH0 SWAP4 POP SWAP4 POP SWAP4 POP SWAP4 POP PUSH2 0x18B2 JUMP JUMPDEST PUSH0 PUSH1 0x1 DUP1 DUP9 AND EQ SWAP1 POP PUSH0 PUSH1 0x2 DUP1 DUP10 AND EQ SWAP1 POP PUSH1 0x2 DUP9 SWAP1 SHR SWAP6 POP DUP7 SWAP5 POP PUSH32 0x30644E72E131A029B85045B68181585D97816A916871CA8D3C208C16D87CFD47 DUP7 LT ISZERO DUP1 PUSH2 0x1573 JUMPI POP PUSH32 0x30644E72E131A029B85045B68181585D97816A916871CA8D3C208C16D87CFD47 DUP6 LT ISZERO JUMPDEST ISZERO PUSH2 0x15AA JUMPI PUSH1 0x40 MLOAD PUSH32 0x7FCDD1F400000000000000000000000000000000000000000000000000000000 DUP2 MSTORE PUSH1 0x4 ADD PUSH1 0x40 MLOAD DUP1 SWAP2 SUB SWAP1 REVERT JUMPDEST PUSH0 PUSH32 0x30644E72E131A029B85045B68181585D97816A916871CA8D3C208C16D87CFD47 DUP1 PUSH2 0x15DA JUMPI PUSH2 0x15D9 PUSH2 0x20CB JUMP JUMPDEST JUMPDEST PUSH1 0x3 PUSH32 0x30644E72E131A029B85045B68181585D97816A916871CA8D3C208C16D87CFD47 PUSH2 0x1607 SWAP2 SWAP1 PUSH2 0x2125 JUMP JUMPDEST PUSH32 0x30644E72E131A029B85045B68181585D97816A916871CA8D3C208C16D87CFD47 DUP1 PUSH2 0x1636 JUMPI PUSH2 0x1635 PUSH2 0x20CB JUMP JUMPDEST JUMPDEST DUP9 DUP11 MULMOD MULMOD SWAP1 POP PUSH0 PUSH32 0x30644E72E131A029B85045B68181585D97816A916871CA8D3C208C16D87CFD47 DUP1 PUSH2 0x166C JUMPI PUSH2 0x166B PUSH2 0x20CB JUMP JUMPDEST JUMPDEST DUP9 PUSH32 0x30644E72E131A029B85045B68181585D97816A916871CA8D3C208C16D87CFD47 DUP1 PUSH2 0x169C JUMPI PUSH2 0x169B PUSH2 0x20CB JUMP JUMPDEST JUMPDEST DUP11 DUP12 MULMOD MULMOD SWAP1 POP PUSH0 PUSH32 0x30644E72E131A029B85045B68181585D97816A916871CA8D3C208C16D87CFD47 DUP1 PUSH2 0x16D2 JUMPI PUSH2 0x16D1 PUSH2 0x20CB JUMP JUMPDEST JUMPDEST DUP9 PUSH32 0x30644E72E131A029B85045B68181585D97816A916871CA8D3C208C16D87CFD47 DUP1 PUSH2 0x1702 JUMPI PUSH2 0x1701 PUSH2 0x20CB JUMP JUMPDEST JUMPDEST DUP11 DUP12 MULMOD MULMOD SWAP1 POP PUSH32 0x30644E72E131A029B85045B68181585D97816A916871CA8D3C208C16D87CFD47 DUP1 PUSH2 0x1737 JUMPI PUSH2 0x1736 PUSH2 0x20CB JUMP JUMPDEST JUMPDEST PUSH32 0x30644E72E131A029B85045B68181585D97816A916871CA8D3C208C16D87CFD47 DUP1 PUSH2 0x1766 JUMPI PUSH2 0x1765 PUSH2 0x20CB JUMP JUMPDEST JUMPDEST PUSH32 0x30644E72E131A029B85045B68181585D97816A916871CA8D3C208C16D87CFD47 DUP1 PUSH2 0x1795 JUMPI PUSH2 0x1794 PUSH2 0x20CB JUMP JUMPDEST JUMPDEST DUP11 DUP7 MULMOD DUP5 ADDMOD PUSH32 0x2B149D40CEB8AAAE81BE18991BE06AC3B5B4C5E559DBEFA33267E6DC24A138E5 ADDMOD SWAP7 POP PUSH2 0x187A PUSH32 0x30644E72E131A029B85045B68181585D97816A916871CA8D3C208C16D87CFD47 DUP1 PUSH2 0x17F0 JUMPI PUSH2 0x17EF PUSH2 0x20CB JUMP JUMPDEST JUMPDEST PUSH32 0x30644E72E131A029B85045B68181585D97816A916871CA8D3C208C16D87CFD47 DUP1 PUSH2 0x181F JUMPI PUSH2 0x181E PUSH2 0x20CB JUMP JUMPDEST JUMPDEST PUSH32 0x30644E72E131A029B85045B68181585D97816A916871CA8D3C208C16D87CFD47 DUP1 PUSH2 0x184E JUMPI PUSH2 0x184D PUSH2 0x20CB JUMP JUMPDEST JUMPDEST DUP13 DUP8 MULMOD DUP5 ADDMOD PUSH32 0x2FCD3AC2A640A154EB23960892A85A68F031CA0C8344B23A577DCF1052B9E775 ADDMOD PUSH2 0x1957 JUMP JUMPDEST SWAP6 POP PUSH2 0x1887 DUP8 DUP8 DUP7 PUSH2 0x1A2C JUMP JUMPDEST DUP1 SWAP8 POP DUP2 SWAP9 POP POP POP DUP5 ISZERO PUSH2 0x18AC JUMPI PUSH2 0x189E DUP8 PUSH2 0x1957 JUMP JUMPDEST SWAP7 POP PUSH2 0x18A9 DUP7 PUSH2 0x1957 JUMP JUMPDEST SWAP6 POP JUMPDEST POP POP POP POP POP JUMPDEST SWAP3 SWAP6 SWAP2 SWAP5 POP SWAP3 POP JUMP JUMPDEST PUSH0 PUSH2 0x18E6 DUP3 PUSH32 0xC19139CB84C680A6E14116DA060561765E05AA45A1C72A34F082305B61F3F52 PUSH2 0x1D27 JUMP JUMPDEST SWAP1 POP DUP2 PUSH32 0x30644E72E131A029B85045B68181585D97816A916871CA8D3C208C16D87CFD47 DUP1 PUSH2 0x1918 JUMPI PUSH2 0x1917 PUSH2 0x20CB JUMP JUMPDEST JUMPDEST DUP3 DUP4 MULMOD EQ PUSH2 0x1952 JUMPI PUSH1 0x40 MLOAD PUSH32 0x7FCDD1F400000000000000000000000000000000000000000000000000000000 DUP2 MSTORE PUSH1 0x4 ADD PUSH1 0x40 MLOAD DUP1 SWAP2 SUB SWAP1 REVERT JUMPDEST SWAP2 SWAP1 POP JUMP JUMPDEST PUSH0 PUSH32 0x30644E72E131A029B85045B68181585D97816A916871CA8D3C208C16D87CFD47 DUP1 DUP4 DUP2 PUSH2 0x1989 JUMPI PUSH2 0x1988 PUSH2 0x20CB JUMP JUMPDEST JUMPDEST MOD PUSH32 0x30644E72E131A029B85045B68181585D97816A916871CA8D3C208C16D87CFD47 SUB DUP2 PUSH2 0x19BA JUMPI PUSH2 0x19B9 PUSH2 0x20CB JUMP JUMPDEST JUMPDEST MOD SWAP1 POP SWAP2 SWAP1 POP JUMP JUMPDEST PUSH0 PUSH0 PUSH2 0x19EE DUP4 PUSH32 0xC19139CB84C680A6E14116DA060561765E05AA45A1C72A34F082305B61F3F52 PUSH2 0x1D27 JUMP JUMPDEST SWAP1 POP DUP3 PUSH32 0x30644E72E131A029B85045B68181585D97816A916871CA8D3C208C16D87CFD47 DUP1 PUSH2 0x1A20 JUMPI PUSH2 0x1A1F PUSH2 0x20CB JUMP JUMPDEST JUMPDEST DUP3 DUP4 MULMOD EQ SWAP2 POP POP SWAP2 SWAP1 POP JUMP JUMPDEST PUSH0 PUSH0 PUSH0 PUSH2 0x1ACB PUSH32 0x30644E72E131A029B85045B68181585D97816A916871CA8D3C208C16D87CFD47 DUP1 PUSH2 0x1A61 JUMPI PUSH2 0x1A60 PUSH2 0x20CB JUMP JUMPDEST JUMPDEST PUSH32 0x30644E72E131A029B85045B68181585D97816A916871CA8D3C208C16D87CFD47 DUP1 PUSH2 0x1A90 JUMPI PUSH2 0x1A8F PUSH2 0x20CB JUMP JUMPDEST JUMPDEST DUP8 DUP9 MULMOD PUSH32 0x30644E72E131A029B85045B68181585D97816A916871CA8D3C208C16D87CFD47 DUP1 PUSH2 0x1AC2 JUMPI PUSH2 0x1AC1 PUSH2 0x20CB JUMP JUMPDEST JUMPDEST DUP10 DUP11 MULMOD ADDMOD PUSH2 0x18BB JUMP JUMPDEST SWAP1 POP DUP4 ISZERO PUSH2 0x1ADF JUMPI PUSH2 0x1ADC DUP2 PUSH2 0x1957 JUMP JUMPDEST SWAP1 POP JUMPDEST PUSH2 0x1B6A PUSH32 0x30644E72E131A029B85045B68181585D97816A916871CA8D3C208C16D87CFD47 DUP1 PUSH2 0x1B11 JUMPI PUSH2 0x1B10 PUSH2 0x20CB JUMP JUMPDEST JUMPDEST PUSH32 0x183227397098D014DC2822DB40C0AC2ECBC0B548B438E5469E10460B6C3E7EA4 PUSH32 0x30644E72E131A029B85045B68181585D97816A916871CA8D3C208C16D87CFD47 DUP1 PUSH2 0x1B61 JUMPI PUSH2 0x1B60 PUSH2 0x20CB JUMP JUMPDEST JUMPDEST DUP5 DUP11 ADDMOD MULMOD PUSH2 0x18BB JUMP JUMPDEST SWAP3 POP PUSH32 0x30644E72E131A029B85045B68181585D97816A916871CA8D3C208C16D87CFD47 DUP1 PUSH2 0x1B9B JUMPI PUSH2 0x1B9A PUSH2 0x20CB JUMP JUMPDEST JUMPDEST PUSH2 0x1BD6 PUSH32 0x30644E72E131A029B85045B68181585D97816A916871CA8D3C208C16D87CFD47 DUP1 PUSH2 0x1BCD JUMPI PUSH2 0x1BCC PUSH2 0x20CB JUMP JUMPDEST JUMPDEST PUSH1 0x2 DUP7 MULMOD PUSH2 0x1DBE JUMP JUMPDEST DUP7 MULMOD SWAP2 POP PUSH32 0x30644E72E131A029B85045B68181585D97816A916871CA8D3C208C16D87CFD47 DUP1 PUSH2 0x1C09 JUMPI PUSH2 0x1C08 PUSH2 0x20CB JUMP JUMPDEST JUMPDEST PUSH2 0x1C43 PUSH32 0x30644E72E131A029B85045B68181585D97816A916871CA8D3C208C16D87CFD47 DUP1 PUSH2 0x1C3B JUMPI PUSH2 0x1C3A PUSH2 0x20CB JUMP JUMPDEST JUMPDEST DUP5 DUP6 MULMOD PUSH2 0x1957 JUMP JUMPDEST PUSH32 0x30644E72E131A029B85045B68181585D97816A916871CA8D3C208C16D87CFD47 DUP1 PUSH2 0x1C72 JUMPI PUSH2 0x1C71 PUSH2 0x20CB JUMP JUMPDEST JUMPDEST DUP6 DUP7 MULMOD ADDMOD DUP7 EQ ISZERO DUP1 PUSH2 0x1CE7 JUMPI POP PUSH32 0x30644E72E131A029B85045B68181585D97816A916871CA8D3C208C16D87CFD47 DUP1 PUSH2 0x1CAE JUMPI PUSH2 0x1CAD PUSH2 0x20CB JUMP JUMPDEST JUMPDEST PUSH32 0x30644E72E131A029B85045B68181585D97816A916871CA8D3C208C16D87CFD47 DUP1 PUSH2 0x1CDD JUMPI PUSH2 0x1CDC PUSH2 0x20CB JUMP JUMPDEST JUMPDEST DUP4 DUP6 MULMOD PUSH1 0x2 MULMOD DUP6 EQ ISZERO JUMPDEST ISZERO PUSH2 0x1D1E JUMPI PUSH1 0x40 MLOAD PUSH32 0x7FCDD1F400000000000000000000000000000000000000000000000000000000 DUP2 MSTORE PUSH1 0x4 ADD PUSH1 0x40 MLOAD DUP1 SWAP2 SUB SWAP1 REVERT JUMPDEST POP SWAP4 POP SWAP4 SWAP2 POP POP JUMP JUMPDEST PUSH0 PUSH0 PUSH1 0x40 MLOAD PUSH1 0x20 DUP2 MSTORE PUSH1 0x20 DUP1 DUP3 ADD MSTORE PUSH1 0x20 PUSH1 0x40 DUP3 ADD MSTORE DUP5 PUSH1 0x60 DUP3 ADD MSTORE DUP4 PUSH1 0x80 DUP3 ADD MSTORE PUSH32 0x30644E72E131A029B85045B68181585D97816A916871CA8D3C208C16D87CFD47 PUSH1 0xA0 DUP3 ADD MSTORE PUSH1 0x20 DUP2 PUSH1 0xC0 DUP4 PUSH1 0x5 GAS STATICCALL SWAP2 POP DUP1 MLOAD SWAP3 POP POP DUP1 PUSH2 0x1DB7 JUMPI PUSH1 0x40 MLOAD PUSH32 0x7FCDD1F400000000000000000000000000000000000000000000000000000000 DUP2 MSTORE PUSH1 0x4 ADD PUSH1 0x40 MLOAD DUP1 SWAP2 SUB SWAP1 REVERT JUMPDEST POP SWAP3 SWAP2 POP POP JUMP JUMPDEST PUSH0 PUSH2 0x1DE9 DUP3 PUSH32 0x30644E72E131A029B85045B68181585D97816A916871CA8D3C208C16D87CFD45 PUSH2 0x1D27 JUMP JUMPDEST SWAP1 POP PUSH1 0x1 PUSH32 0x30644E72E131A029B85045B68181585D97816A916871CA8D3C208C16D87CFD47 DUP1 PUSH2 0x1E1C JUMPI PUSH2 0x1E1B PUSH2 0x20CB JUMP JUMPDEST JUMPDEST DUP3 DUP5 MULMOD EQ PUSH2 0x1E56 JUMPI PUSH1 0x40 MLOAD PUSH32 0x7FCDD1F400000000000000000000000000000000000000000000000000000000 DUP2 MSTORE PUSH1 0x4 ADD PUSH1 0x40 MLOAD DUP1 SWAP2 SUB SWAP1 REVERT JUMPDEST SWAP2 SWAP1 POP JUMP JUMPDEST PUSH1 0x40 MLOAD DUP1 PUSH1 0x80 ADD PUSH1 0x40 MSTORE DUP1 PUSH1 0x4 SWAP1 PUSH1 0x20 DUP3 MUL DUP1 CALLDATASIZE DUP4 CALLDATACOPY DUP1 DUP3 ADD SWAP2 POP POP SWAP1 POP POP SWAP1 JUMP JUMPDEST PUSH1 0x40 MLOAD DUP1 PUSH2 0x300 ADD PUSH1 0x40 MSTORE DUP1 PUSH1 0x18 SWAP1 PUSH1 0x20 DUP3 MUL DUP1 CALLDATASIZE DUP4 CALLDATACOPY DUP1 DUP3 ADD SWAP2 POP POP SWAP1 POP POP SWAP1 JUMP JUMPDEST PUSH1 0x40 MLOAD DUP1 PUSH1 0x20 ADD PUSH1 0x40 MSTORE DUP1 PUSH1 0x1 SWAP1 PUSH1 0x20 DUP3 MUL DUP1 CALLDATASIZE DUP4 CALLDATACOPY DUP1 DUP3 ADD SWAP2 POP POP SWAP1 POP POP SWAP1 JUMP JUMPDEST PUSH0 PUSH0 REVERT JUMPDEST PUSH0 PUSH0 REVERT JUMPDEST PUSH0 DUP2 SWAP1 POP DUP3 PUSH1 0x20 PUSH1 0x8 MUL DUP3 ADD GT ISZERO PUSH2 0x1EE5 JUMPI PUSH2 0x1EE4 PUSH2 0x1EC6 JUMP JUMPDEST JUMPDEST SWAP3 SWAP2 POP POP JUMP JUMPDEST PUSH0 PUSH2 0x100 DUP3 DUP5 SUB SLT ISZERO PUSH2 0x1F01 JUMPI PUSH2 0x1F00 PUSH2 0x1EC2 JUMP JUMPDEST JUMPDEST PUSH0 PUSH2 0x1F0E DUP5 DUP3 DUP6 ADD PUSH2 0x1ECA JUMP JUMPDEST SWAP2 POP POP SWAP3 SWAP2 POP POP JUMP JUMPDEST PUSH0 PUSH1 0x4 SWAP1 POP SWAP2 SWAP1 POP JUMP JUMPDEST PUSH0 DUP2 SWAP1 POP SWAP3 SWAP2 POP POP JUMP JUMPDEST PUSH0 DUP2 SWAP1 POP SWAP2 SWAP1 POP JUMP JUMPDEST PUSH0 DUP2 SWAP1 POP SWAP2 SWAP1 POP JUMP JUMPDEST PUSH2 0x1F46 DUP2 PUSH2 0x1F34 JUMP JUMPDEST DUP3 MSTORE POP POP JUMP JUMPDEST PUSH0 PUSH2 0x1F57 DUP4 DUP4 PUSH2 0x1F3D JUMP JUMPDEST PUSH1 0x20 DUP4 ADD SWAP1 POP SWAP3 SWAP2 POP POP JUMP JUMPDEST PUSH0 PUSH1 0x20 DUP3 ADD SWAP1 POP SWAP2 SWAP1 POP JUMP JUMPDEST PUSH2 0x1F78 DUP2 PUSH2 0x1F17 JUMP JUMPDEST PUSH2 0x1F82 DUP2 DUP5 PUSH2 0x1F21 JUMP JUMPDEST SWAP3 POP PUSH2 0x1F8D DUP3 PUSH2 0x1F2B JUMP JUMPDEST DUP1 PUSH0 JUMPDEST DUP4 DUP2 LT ISZERO PUSH2 0x1FBD JUMPI DUP2 MLOAD PUSH2 0x1FA4 DUP8 DUP3 PUSH2 0x1F4C JUMP JUMPDEST SWAP7 POP PUSH2 0x1FAF DUP4 PUSH2 0x1F63 JUMP JUMPDEST SWAP3 POP POP PUSH1 0x1 DUP2 ADD SWAP1 POP PUSH2 0x1F90 JUMP JUMPDEST POP POP POP POP POP POP JUMP JUMPDEST PUSH0 PUSH1 0x80 DUP3 ADD SWAP1 POP PUSH2 0x1FD8 PUSH0 DUP4 ADD DUP5 PUSH2 0x1F6F JUMP JUMPDEST SWAP3 SWAP2 POP POP JUMP JUMPDEST PUSH0 DUP2 SWAP1 POP DUP3 PUSH1 0x20 PUSH1 0x2 MUL DUP3 ADD GT ISZERO PUSH2 0x1FF9 JUMPI PUSH2 0x1FF8 PUSH2 0x1EC6 JUMP JUMPDEST JUMPDEST SWAP3 SWAP2 POP POP JUMP JUMPDEST PUSH0 PUSH0 PUSH2 0x140 DUP4 DUP6 SUB SLT ISZERO PUSH2 0x2016 JUMPI PUSH2 0x2015 PUSH2 0x1EC2 JUMP JUMPDEST JUMPDEST PUSH0 PUSH2 0x2023 DUP6 DUP3 DUP7 ADD PUSH2 0x1ECA JUMP JUMPDEST SWAP3 POP POP PUSH2 0x100 PUSH2 0x2035 DUP6 DUP3 DUP7 ADD PUSH2 0x1FDE JUMP JUMPDEST SWAP2 POP POP SWAP3 POP SWAP3 SWAP1 POP JUMP JUMPDEST PUSH0 DUP2 SWAP1 POP DUP3 PUSH1 0x20 PUSH1 0x4 MUL DUP3 ADD GT ISZERO PUSH2 0x205A JUMPI PUSH2 0x2059 PUSH2 0x1EC6 JUMP JUMPDEST JUMPDEST SWAP3 SWAP2 POP POP JUMP JUMPDEST PUSH0 PUSH0 PUSH1 0xC0 DUP4 DUP6 SUB SLT ISZERO PUSH2 0x2076 JUMPI PUSH2 0x2075 PUSH2 0x1EC2 JUMP JUMPDEST JUMPDEST PUSH0 PUSH2 0x2083 DUP6 DUP3 DUP7 ADD PUSH2 0x203F JUMP JUMPDEST SWAP3 POP POP PUSH1 0x80 PUSH2 0x2094 DUP6 DUP3 DUP7 ADD PUSH2 0x1FDE JUMP JUMPDEST SWAP2 POP POP SWAP3 POP SWAP3 SWAP1 POP JUMP JUMPDEST PUSH32 0x4E487B7100000000000000000000000000000000000000000000000000000000 PUSH0 MSTORE PUSH1 0x32 PUSH1 0x4 MSTORE PUSH1 0x24 PUSH0 REVERT JUMPDEST PUSH32 0x4E487B7100000000000000000000000000000000000000000000000000000000 PUSH0 MSTORE PUSH1 0x12 PUSH1 0x4 MSTORE PUSH1 0x24 PUSH0 REVERT JUMPDEST PUSH32 0x4E487B7100000000000000000000000000000000000000000000000000000000 PUSH0 MSTORE PUSH1 0x11 PUSH1 0x4 MSTORE PUSH1 0x24 PUSH0 REVERT JUMPDEST PUSH0 PUSH2 0x212F DUP3 PUSH2 0x1F34 JUMP JUMPDEST SWAP2 POP PUSH2 0x213A DUP4 PUSH2 0x1F34 JUMP JUMPDEST SWAP3 POP DUP3 DUP3 SUB SWAP1 POP DUP2 DUP2 GT ISZERO PUSH2 0x2152 JUMPI PUSH2 0x2151 PUSH2 0x20F8 JUMP JUMPDEST JUMPDEST SWAP3 SWAP2 POP POP JUMP INVALID LOG2 PUSH5 0x6970667358 0x22 SLT KECCAK256 CODESIZE DATALOADN 0xAA2D DUP12 SWAP14 GASLIMIT SAR MSTORE8 0xE 0xC2 DUP12 PUSH32 0xEEA0F6B464B4D788C3C437CEBB14CA764DAE364736F6C634300081E00330000 "
				},
				"gasEstimates": {
					"creation": {
						"codeDepositCost": "1718000",
						"executionCost": "1804",
						"totalCost": "1719804"
					},
					"external": {
						"Verify(uint256[8],uint256[2])": "infinite",
						"compressProof(uint256[8])": "infinite",
						"verifyCompressedProof(uint256[4],uint256[2])": "infinite"
					},
					"internal": {
						"compress_g1(uint256,uint256)": "infinite",
						"compress_g2(uint256,uint256,uint256,uint256)": "infinite",
						"decompress_g1(uint256)": "infinite",
						"decompress_g2(uint256,uint256)": "infinite",
						"exp(uint256,uint256)": "infinite",
						"invert_Fp(uint256)": "infinite",
						"isSquare_Fp(uint256)": "infinite",
						"negate(uint256)": "83",
						"publicInputMSM(uint256[2] calldata)": "infinite",
						"sqrt_Fp(uint256)": "infinite",
						"sqrt_Fp2(uint256,uint256,bool)": "infinite"
					}
				},
				"methodIdentifiers": {
					"Verify(uint256[8],uint256[2])": "eddf243c",
					"compressProof(uint256[8])": "44f63692",
					"verifyCompressedProof(uint256[4],uint256[2])": "f11817b2"
				}
			},
			"storageLayout": {
				"storage": [],
				"types": null
			},
			"userdoc": {
				"errors": {
					"ProofInvalid()": [
						{
							"notice": "The proof is invalid."
						}
					],
					"PublicInputNotInField()": [
						{
							"notice": "Some of the provided public input values are larger than the field modulus."
						}
					]
				},
				"kind": "user",
				"methods": {
					"Verify(uint256[8],uint256[2])": {
						"notice": "Verify an uncompressed Groth16 proof.Reverts with InvalidProof if the proof is invalid or with PublicInputNotInField the public input is not reduced.There is no return value. If the function does not revert, the proof was successfully verified."
					},
					"compressProof(uint256[8])": {
						"notice": "Compress a proof.Will revert with InvalidProof if the curve points are invalid, but does not verify the proof itself."
					},
					"verifyCompressedProof(uint256[4],uint256[2])": {
						"notice": "Verify a Groth16 proof with compressed points.Reverts with InvalidProof if the proof is invalid or with PublicInputNotInField the public input is not reduced.There is no return value. If the function does not revert, the proof was successfully verified."
					}
				},
				"notice": "Supports verifying Groth16 proofs. Proofs can be in uncompressed (256 bytes) and compressed (128 bytes) format. A view function is provided to compress proofs.See <https://2π.com/23/bn254-compression> for further explanation.",
				"version": 1
			}
		}
	}
}