{
	".deps/github/succinctlabs/sp1-contracts/contracts/src/v3.0.0/SP1VerifierGroth16.sol": {
		"SP1Verifier": {
			"abi": [
				{
					"inputs": [],
					"name": "InvalidProof",
					"type": "error"
				},
				{
					"inputs": [],
					"name": "ProofInvalid",
					"type": "error"
				},
				{
					"inputs": [],
					"name": "PublicInputNotInField",
					"type": "error"
				},
				{
					"inputs": [
						{
							"internalType": "bytes4",
							"name": "received",
							"type": "bytes4"
						},
						{
							"internalType": "bytes4",
							"name": "expected",
							"type": "bytes4"
						}
					],
					"name": "WrongVerifierSelector",
					"type": "error"
				},
				{
					"inputs": [],
					"name": "VERIFIER_HASH",
					"outputs": [
						{
							"internalType": "bytes32",
							"name": "",
							"type": "bytes32"
						}
					],
					"stateMutability": "pure",
					"type": "function"
				},
				{
					"inputs": [],
					"name": "VERSION",
					"outputs": [
						{
							"internalType": "string",
							"name": "",
							"type": "string"
						}
					],
					"stateMutability": "pure",
					"type": "function"
				},
				{
					"inputs": [
						{
							"internalType": "uint256[8]",
							"name": "proof",
							"type": "uint256[8]"
						},
						{
							"internalType": "uint256[2]",
							"name": "input",
							"type": "uint256[2]"
						}
					],
					"name": "Verify",
					"outputs": [],
					"stateMutability": "view",
					"type": "function"
				},
				{
					"inputs": [
						{
							"internalType": "uint256[8]",
							"name": "proof",
							"type": "uint256[8]"
						}
					],
					"name": "compressProof",
					"outputs": [
						{
							"internalType": "uint256[4]",
							"name": "compressed",
							"type": "uint256[4]"
						}
					],
					"stateMutability": "view",
					"type": "function"
				},
				{
					"inputs": [
						{
							"internalType": "bytes",
							"name": "publicValues",
							"type": "bytes"
						}
					],
					"name": "hashPublicValues",
					"outputs": [
						{
							"internalType": "bytes32",
							"name": "",
							"type": "bytes32"
						}
					],
					"stateMutability": "pure",
					"type": "function"
				},
				{
					"inputs": [
						{
							"internalType": "uint256[4]",
							"name": "compressedProof",
							"type": "uint256[4]"
						},
						{
							"internalType": "uint256[2]",
							"name": "input",
							"type": "uint256[2]"
						}
					],
					"name": "verifyCompressedProof",
					"outputs": [],
					"stateMutability": "view",
					"type": "function"
				},
				{
					"inputs": [
						{
							"internalType": "bytes32",
							"name": "programVKey",
							"type": "bytes32"
						},
						{
							"internalType": "bytes",
							"name": "publicValues",
							"type": "bytes"
						},
						{
							"internalType": "bytes",
							"name": "proofBytes",
							"type": "bytes"
						}
					],
					"name": "verifyProof",
					"outputs": [],
					"stateMutability": "view",
					"type": "function"
				}
			],
			"devdoc": {
				"author": "Succinct Labs",
				"errors": {
					"ProofInvalid()": [
						{
							"details": "This can mean that provided Groth16 proof points are not on their curves, that pairing equation fails, or that the proof is not for the provided public input."
						}
					],
					"PublicInputNotInField()": [
						{
							"details": "Public input elements are not automatically reduced, as this is can be a dangerous source of bugs."
						}
					],
					"WrongVerifierSelector(bytes4,bytes4)": [
						{
							"params": {
								"expected": "The verifier selector from the first 4 bytes of the VERIFIER_HASH().",
								"received": "The verifier selector from the first 4 bytes of the proof."
							}
						}
					]
				},
				"kind": "dev",
				"methods": {
					"Verify(uint256[8],uint256[2])": {
						"params": {
							"input": "the public input field elements in the scalar field Fr. Elements must be reduced.",
							"proof": "the points (A, B, C) in EIP-197 format matching the output of compressProof."
						}
					},
					"compressProof(uint256[8])": {
						"params": {
							"proof": "The uncompressed Groth16 proof. Elements are in the same order as for verifyProof. I.e. Groth16 points (A, B, C) encoded as in EIP-197."
						},
						"returns": {
							"compressed": "The compressed proof. Elements are in the same order as for verifyCompressedProof. I.e. points (A, B, C) in compressed format."
						}
					},
					"hashPublicValues(bytes)": {
						"params": {
							"publicValues": "The public values."
						}
					},
					"verifyCompressedProof(uint256[4],uint256[2])": {
						"params": {
							"compressedProof": "the points (A, B, C) in compressed format matching the output of compressProof.",
							"input": "the public input field elements in the scalar field Fr. Elements must be reduced."
						}
					},
					"verifyProof(bytes32,bytes,bytes)": {
						"params": {
							"programVKey": "The verification key for the RISC-V program.",
							"proofBytes": "The proof of the program execution the SP1 zkVM encoded as bytes.",
							"publicValues": "The public values encoded as bytes."
						}
					}
				},
				"title": "SP1 Verifier",
				"version": 1
			},
			"evm": {
				"assembly": "    /* \".deps/github/succinctlabs/sp1-contracts/contracts/src/v3.0.0/SP1VerifierGroth16.sol\":312:2516  contract SP1Verifier is Groth16Verifier, ISP1VerifierWithHash {... */\n  mstore(0x40, 0x80)\n  callvalue\n  dup1\n  iszero\n  tag_1\n  jumpi\n  revert(0x00, 0x00)\ntag_1:\n  pop\n  dataSize(sub_0)\n  dup1\n  dataOffset(sub_0)\n  0x00\n  codecopy\n  0x00\n  return\nstop\n\nsub_0: assembly {\n        /* \".deps/github/succinctlabs/sp1-contracts/contracts/src/v3.0.0/SP1VerifierGroth16.sol\":312:2516  contract SP1Verifier is Groth16Verifier, ISP1VerifierWithHash {... */\n      mstore(0x40, 0x80)\n      callvalue\n      dup1\n      iszero\n      tag_1\n      jumpi\n      revert(0x00, 0x00)\n    tag_1:\n      pop\n      jumpi(tag_2, lt(calldatasize, 0x04))\n      shr(0xe0, calldataload(0x00))\n      dup1\n      0x6b61d8e7\n      gt\n      tag_10\n      jumpi\n      dup1\n      0x6b61d8e7\n      eq\n      tag_6\n      jumpi\n      dup1\n      0xeddf243c\n      eq\n      tag_7\n      jumpi\n      dup1\n      0xf11817b2\n      eq\n      tag_8\n      jumpi\n      dup1\n      0xffa1ad74\n      eq\n      tag_9\n      jumpi\n      jump(tag_2)\n    tag_10:\n      dup1\n      0x2a510436\n      eq\n      tag_3\n      jumpi\n      dup1\n      0x41493c60\n      eq\n      tag_4\n      jumpi\n      dup1\n      0x44f63692\n      eq\n      tag_5\n      jumpi\n    tag_2:\n      revert(0x00, 0x00)\n        /* \".deps/github/succinctlabs/sp1-contracts/contracts/src/v3.0.0/SP1VerifierGroth16.sol\":1030:1177  function VERIFIER_HASH() public pure returns (bytes32) {... */\n    tag_3:\n      tag_11\n      tag_12\n      jump\t// in\n    tag_11:\n      mload(0x40)\n      tag_13\n      swap2\n      swap1\n      tag_14\n      jump\t// in\n    tag_13:\n      mload(0x40)\n      dup1\n      swap2\n      sub\n      swap1\n      return\n        /* \".deps/github/succinctlabs/sp1-contracts/contracts/src/v3.0.0/SP1VerifierGroth16.sol\":1783:2513  function verifyProof(... */\n    tag_4:\n      tag_15\n      0x04\n      dup1\n      calldatasize\n      sub\n      dup2\n      add\n      swap1\n      tag_16\n      swap2\n      swap1\n      tag_17\n      jump\t// in\n    tag_16:\n      tag_18\n      jump\t// in\n    tag_15:\n      stop\n        /* \".deps/github/succinctlabs/sp1-contracts/contracts/src/v3.0.0/Groth16Verifier.sol\":19972:20324  function compressProof(uint256[8] calldata proof)... */\n    tag_5:\n      tag_19\n      0x04\n      dup1\n      calldatasize\n      sub\n      dup2\n      add\n      swap1\n      tag_20\n      swap2\n      swap1\n      tag_21\n      jump\t// in\n    tag_20:\n      tag_22\n      jump\t// in\n    tag_19:\n      mload(0x40)\n      tag_23\n      swap2\n      swap1\n      tag_24\n      jump\t// in\n    tag_23:\n      mload(0x40)\n      dup1\n      swap2\n      sub\n      swap1\n      return\n        /* \".deps/github/succinctlabs/sp1-contracts/contracts/src/v3.0.0/SP1VerifierGroth16.sol\":1309:1475  function hashPublicValues(bytes calldata publicValues) public pure returns (bytes32) {... */\n    tag_6:\n      tag_25\n      0x04\n      dup1\n      calldatasize\n      sub\n      dup2\n      add\n      swap1\n      tag_26\n      swap2\n      swap1\n      tag_27\n      jump\t// in\n    tag_26:\n      tag_28\n      jump\t// in\n    tag_25:\n      mload(0x40)\n      tag_29\n      swap2\n      swap1\n      tag_14\n      jump\t// in\n    tag_29:\n      mload(0x40)\n      dup1\n      swap2\n      sub\n      swap1\n      return\n        /* \".deps/github/succinctlabs/sp1-contracts/contracts/src/v3.0.0/Groth16Verifier.sol\":23727:25871  function Verify(uint256[8] calldata proof, uint256[2] calldata input) public view {... */\n    tag_7:\n      tag_30\n      0x04\n      dup1\n      calldatasize\n      sub\n      dup2\n      add\n      swap1\n      tag_31\n      swap2\n      swap1\n      tag_32\n      jump\t// in\n    tag_31:\n      tag_33\n      jump\t// in\n    tag_30:\n      stop\n        /* \".deps/github/succinctlabs/sp1-contracts/contracts/src/v3.0.0/Groth16Verifier.sol\":20883:23190  function verifyCompressedProof(uint256[4] calldata compressedProof, uint256[2] calldata input)... */\n    tag_8:\n      tag_34\n      0x04\n      dup1\n      calldatasize\n      sub\n      dup2\n      add\n      swap1\n      tag_35\n      swap2\n      swap1\n      tag_36\n      jump\t// in\n    tag_35:\n      tag_37\n      jump\t// in\n    tag_34:\n      stop\n        /* \".deps/github/succinctlabs/sp1-contracts/contracts/src/v3.0.0/SP1VerifierGroth16.sol\":889:980  function VERSION() external pure returns (string memory) {... */\n    tag_9:\n      tag_38\n      tag_39\n      jump\t// in\n    tag_38:\n      mload(0x40)\n      tag_40\n      swap2\n      swap1\n      tag_41\n      jump\t// in\n    tag_40:\n      mload(0x40)\n      dup1\n      swap2\n      sub\n      swap1\n      return\n        /* \".deps/github/succinctlabs/sp1-contracts/contracts/src/v3.0.0/SP1VerifierGroth16.sol\":1030:1177  function VERIFIER_HASH() public pure returns (bytes32) {... */\n    tag_12:\n        /* \".deps/github/succinctlabs/sp1-contracts/contracts/src/v3.0.0/SP1VerifierGroth16.sol\":1076:1083  bytes32 */\n      0x00\n        /* \".deps/github/succinctlabs/sp1-contracts/contracts/src/v3.0.0/SP1VerifierGroth16.sol\":1103:1169  0x090690902a12d1d02c07a1ad25aa76bded5f6499e12a11ba127669501b553998 */\n      0x090690902a12d1d02c07a1ad25aa76bded5f6499e12a11ba127669501b553998\n        /* \".deps/github/succinctlabs/sp1-contracts/contracts/src/v3.0.0/SP1VerifierGroth16.sol\":1096:1169  return 0x090690902a12d1d02c07a1ad25aa76bded5f6499e12a11ba127669501b553998 */\n      0x00\n      shl\n      swap1\n      pop\n        /* \".deps/github/succinctlabs/sp1-contracts/contracts/src/v3.0.0/SP1VerifierGroth16.sol\":1030:1177  function VERIFIER_HASH() public pure returns (bytes32) {... */\n      swap1\n      jump\t// out\n        /* \".deps/github/succinctlabs/sp1-contracts/contracts/src/v3.0.0/SP1VerifierGroth16.sol\":1783:2513  function verifyProof(... */\n    tag_18:\n        /* \".deps/github/succinctlabs/sp1-contracts/contracts/src/v3.0.0/SP1VerifierGroth16.sol\":1940:1963  bytes4 receivedSelector */\n      0x00\n        /* \".deps/github/succinctlabs/sp1-contracts/contracts/src/v3.0.0/SP1VerifierGroth16.sol\":1973:1983  proofBytes */\n      dup3\n      dup3\n        /* \".deps/github/succinctlabs/sp1-contracts/contracts/src/v3.0.0/SP1VerifierGroth16.sol\":1973:1987  proofBytes[:4] */\n      0x00\n      swap1\n        /* \".deps/github/succinctlabs/sp1-contracts/contracts/src/v3.0.0/SP1VerifierGroth16.sol\":1985:1986  4 */\n      0x04\n        /* \".deps/github/succinctlabs/sp1-contracts/contracts/src/v3.0.0/SP1VerifierGroth16.sol\":1973:1987  proofBytes[:4] */\n      swap3\n      tag_44\n      swap4\n      swap3\n      swap2\n      swap1\n      tag_45\n      jump\t// in\n    tag_44:\n        /* \".deps/github/succinctlabs/sp1-contracts/contracts/src/v3.0.0/SP1VerifierGroth16.sol\":1966:1988  bytes4(proofBytes[:4]) */\n      swap1\n      tag_46\n      swap2\n      swap1\n      tag_47\n      jump\t// in\n    tag_46:\n        /* \".deps/github/succinctlabs/sp1-contracts/contracts/src/v3.0.0/SP1VerifierGroth16.sol\":1940:1988  bytes4 receivedSelector = bytes4(proofBytes[:4]) */\n      swap1\n      pop\n        /* \".deps/github/succinctlabs/sp1-contracts/contracts/src/v3.0.0/SP1VerifierGroth16.sol\":1999:2022  bytes4 expectedSelector */\n      0x00\n        /* \".deps/github/succinctlabs/sp1-contracts/contracts/src/v3.0.0/SP1VerifierGroth16.sol\":2032:2047  VERIFIER_HASH() */\n      tag_48\n        /* \".deps/github/succinctlabs/sp1-contracts/contracts/src/v3.0.0/SP1VerifierGroth16.sol\":2032:2045  VERIFIER_HASH */\n      tag_12\n        /* \".deps/github/succinctlabs/sp1-contracts/contracts/src/v3.0.0/SP1VerifierGroth16.sol\":2032:2047  VERIFIER_HASH() */\n      jump\t// in\n    tag_48:\n        /* \".deps/github/succinctlabs/sp1-contracts/contracts/src/v3.0.0/SP1VerifierGroth16.sol\":1999:2048  bytes4 expectedSelector = bytes4(VERIFIER_HASH()) */\n      swap1\n      pop\n        /* \".deps/github/succinctlabs/sp1-contracts/contracts/src/v3.0.0/SP1VerifierGroth16.sol\":2083:2099  expectedSelector */\n      dup1\n        /* \".deps/github/succinctlabs/sp1-contracts/contracts/src/v3.0.0/SP1VerifierGroth16.sol\":2063:2099  receivedSelector != expectedSelector */\n      not(0xffffffffffffffffffffffffffffffffffffffffffffffffffffffff)\n      and\n        /* \".deps/github/succinctlabs/sp1-contracts/contracts/src/v3.0.0/SP1VerifierGroth16.sol\":2063:2079  receivedSelector */\n      dup3\n        /* \".deps/github/succinctlabs/sp1-contracts/contracts/src/v3.0.0/SP1VerifierGroth16.sol\":2063:2099  receivedSelector != expectedSelector */\n      not(0xffffffffffffffffffffffffffffffffffffffffffffffffffffffff)\n      and\n      eq\n        /* \".deps/github/succinctlabs/sp1-contracts/contracts/src/v3.0.0/SP1VerifierGroth16.sol\":2059:2192  if (receivedSelector != expectedSelector) {... */\n      tag_49\n      jumpi\n        /* \".deps/github/succinctlabs/sp1-contracts/contracts/src/v3.0.0/SP1VerifierGroth16.sol\":2145:2161  receivedSelector */\n      dup2\n        /* \".deps/github/succinctlabs/sp1-contracts/contracts/src/v3.0.0/SP1VerifierGroth16.sol\":2163:2179  expectedSelector */\n      dup2\n        /* \".deps/github/succinctlabs/sp1-contracts/contracts/src/v3.0.0/SP1VerifierGroth16.sol\":2123:2180  WrongVerifierSelector(receivedSelector, expectedSelector) */\n      mload(0x40)\n      0x988066a100000000000000000000000000000000000000000000000000000000\n      dup2\n      mstore\n      0x04\n      add\n      tag_50\n      swap3\n      swap2\n      swap1\n      tag_51\n      jump\t// in\n    tag_50:\n      mload(0x40)\n      dup1\n      swap2\n      sub\n      swap1\n      revert\n        /* \".deps/github/succinctlabs/sp1-contracts/contracts/src/v3.0.0/SP1VerifierGroth16.sol\":2059:2192  if (receivedSelector != expectedSelector) {... */\n    tag_49:\n        /* \".deps/github/succinctlabs/sp1-contracts/contracts/src/v3.0.0/SP1VerifierGroth16.sol\":2204:2230  bytes32 publicValuesDigest */\n      0x00\n        /* \".deps/github/succinctlabs/sp1-contracts/contracts/src/v3.0.0/SP1VerifierGroth16.sol\":2233:2263  hashPublicValues(publicValues) */\n      tag_52\n        /* \".deps/github/succinctlabs/sp1-contracts/contracts/src/v3.0.0/SP1VerifierGroth16.sol\":2250:2262  publicValues */\n      dup8\n      dup8\n        /* \".deps/github/succinctlabs/sp1-contracts/contracts/src/v3.0.0/SP1VerifierGroth16.sol\":2233:2249  hashPublicValues */\n      tag_28\n        /* \".deps/github/succinctlabs/sp1-contracts/contracts/src/v3.0.0/SP1VerifierGroth16.sol\":2233:2263  hashPublicValues(publicValues) */\n      jump\t// in\n    tag_52:\n        /* \".deps/github/succinctlabs/sp1-contracts/contracts/src/v3.0.0/SP1VerifierGroth16.sol\":2204:2263  bytes32 publicValuesDigest = hashPublicValues(publicValues) */\n      swap1\n      pop\n        /* \".deps/github/succinctlabs/sp1-contracts/contracts/src/v3.0.0/SP1VerifierGroth16.sol\":2274:2298  uint256[2] memory inputs */\n      tag_53\n      tag_54\n      jump\t// in\n    tag_53:\n        /* \".deps/github/succinctlabs/sp1-contracts/contracts/src/v3.0.0/SP1VerifierGroth16.sol\":2329:2340  programVKey */\n      dup9\n        /* \".deps/github/succinctlabs/sp1-contracts/contracts/src/v3.0.0/SP1VerifierGroth16.sol\":2321:2341  uint256(programVKey) */\n      0x00\n      shr\n        /* \".deps/github/succinctlabs/sp1-contracts/contracts/src/v3.0.0/SP1VerifierGroth16.sol\":2309:2315  inputs */\n      dup2\n        /* \".deps/github/succinctlabs/sp1-contracts/contracts/src/v3.0.0/SP1VerifierGroth16.sol\":2316:2317  0 */\n      0x00\n        /* \".deps/github/succinctlabs/sp1-contracts/contracts/src/v3.0.0/SP1VerifierGroth16.sol\":2309:2318  inputs[0] */\n      0x02\n      dup2\n      lt\n      tag_55\n      jumpi\n      tag_56\n      tag_57\n      jump\t// in\n    tag_56:\n    tag_55:\n      0x20\n      mul\n      add\n        /* \".deps/github/succinctlabs/sp1-contracts/contracts/src/v3.0.0/SP1VerifierGroth16.sol\":2309:2341  inputs[0] = uint256(programVKey) */\n      dup2\n      dup2\n      mstore\n      pop\n      pop\n        /* \".deps/github/succinctlabs/sp1-contracts/contracts/src/v3.0.0/SP1VerifierGroth16.sol\":2372:2390  publicValuesDigest */\n      dup2\n        /* \".deps/github/succinctlabs/sp1-contracts/contracts/src/v3.0.0/SP1VerifierGroth16.sol\":2364:2391  uint256(publicValuesDigest) */\n      0x00\n      shr\n        /* \".deps/github/succinctlabs/sp1-contracts/contracts/src/v3.0.0/SP1VerifierGroth16.sol\":2352:2358  inputs */\n      dup2\n        /* \".deps/github/succinctlabs/sp1-contracts/contracts/src/v3.0.0/SP1VerifierGroth16.sol\":2359:2360  1 */\n      0x01\n        /* \".deps/github/succinctlabs/sp1-contracts/contracts/src/v3.0.0/SP1VerifierGroth16.sol\":2352:2361  inputs[1] */\n      0x02\n      dup2\n      lt\n      tag_58\n      jumpi\n      tag_59\n      tag_57\n      jump\t// in\n    tag_59:\n    tag_58:\n      0x20\n      mul\n      add\n        /* \".deps/github/succinctlabs/sp1-contracts/contracts/src/v3.0.0/SP1VerifierGroth16.sol\":2352:2391  inputs[1] = uint256(publicValuesDigest) */\n      dup2\n      dup2\n      mstore\n      pop\n      pop\n        /* \".deps/github/succinctlabs/sp1-contracts/contracts/src/v3.0.0/SP1VerifierGroth16.sol\":2402:2425  uint256[8] memory proof */\n      0x00\n        /* \".deps/github/succinctlabs/sp1-contracts/contracts/src/v3.0.0/SP1VerifierGroth16.sol\":2439:2449  proofBytes */\n      dup7\n      dup7\n        /* \".deps/github/succinctlabs/sp1-contracts/contracts/src/v3.0.0/SP1VerifierGroth16.sol\":2450:2451  4 */\n      0x04\n        /* \".deps/github/succinctlabs/sp1-contracts/contracts/src/v3.0.0/SP1VerifierGroth16.sol\":2439:2453  proofBytes[4:] */\n      swap1\n      dup1\n      swap3\n      tag_60\n      swap4\n      swap3\n      swap2\n      swap1\n      tag_45\n      jump\t// in\n    tag_60:\n        /* \".deps/github/succinctlabs/sp1-contracts/contracts/src/v3.0.0/SP1VerifierGroth16.sol\":2428:2468  abi.decode(proofBytes[4:], (uint256[8])) */\n      dup2\n      add\n      swap1\n      tag_61\n      swap2\n      swap1\n      tag_62\n      jump\t// in\n    tag_61:\n        /* \".deps/github/succinctlabs/sp1-contracts/contracts/src/v3.0.0/SP1VerifierGroth16.sol\":2402:2468  uint256[8] memory proof = abi.decode(proofBytes[4:], (uint256[8])) */\n      swap1\n      pop\n        /* \".deps/github/succinctlabs/sp1-contracts/contracts/src/v3.0.0/SP1VerifierGroth16.sol\":2479:2483  this */\n      address\n        /* \".deps/github/succinctlabs/sp1-contracts/contracts/src/v3.0.0/SP1VerifierGroth16.sol\":2479:2490  this.Verify */\n      0xffffffffffffffffffffffffffffffffffffffff\n      and\n      0xeddf243c\n        /* \".deps/github/succinctlabs/sp1-contracts/contracts/src/v3.0.0/SP1VerifierGroth16.sol\":2491:2496  proof */\n      dup3\n        /* \".deps/github/succinctlabs/sp1-contracts/contracts/src/v3.0.0/SP1VerifierGroth16.sol\":2498:2504  inputs */\n      dup5\n        /* \".deps/github/succinctlabs/sp1-contracts/contracts/src/v3.0.0/SP1VerifierGroth16.sol\":2479:2505  this.Verify(proof, inputs) */\n      mload(0x40)\n      dup4\n      0xffffffff\n      and\n      0xe0\n      shl\n      dup2\n      mstore\n      0x04\n      add\n      tag_63\n      swap3\n      swap2\n      swap1\n      tag_64\n      jump\t// in\n    tag_63:\n      0x00\n      mload(0x40)\n      dup1\n      dup4\n      sub\n      dup2\n      dup7\n      dup1\n      extcodesize\n      iszero\n      dup1\n      iszero\n      tag_65\n      jumpi\n      revert(0x00, 0x00)\n    tag_65:\n      pop\n      gas\n      staticcall\n      iszero\n      dup1\n      iszero\n      tag_67\n      jumpi\n      returndatacopy(0x00, 0x00, returndatasize)\n      revert(0x00, returndatasize)\n    tag_67:\n      pop\n      pop\n      pop\n      pop\n        /* \".deps/github/succinctlabs/sp1-contracts/contracts/src/v3.0.0/SP1VerifierGroth16.sol\":1929:2513  {... */\n      pop\n      pop\n      pop\n      pop\n      pop\n        /* \".deps/github/succinctlabs/sp1-contracts/contracts/src/v3.0.0/SP1VerifierGroth16.sol\":1783:2513  function verifyProof(... */\n      pop\n      pop\n      pop\n      pop\n      pop\n      jump\t// out\n        /* \".deps/github/succinctlabs/sp1-contracts/contracts/src/v3.0.0/Groth16Verifier.sol\":19972:20324  function compressProof(uint256[8] calldata proof)... */\n    tag_22:\n        /* \".deps/github/succinctlabs/sp1-contracts/contracts/src/v3.0.0/Groth16Verifier.sol\":20070:20098  uint256[4] memory compressed */\n      tag_68\n      tag_69\n      jump\t// in\n    tag_68:\n        /* \".deps/github/succinctlabs/sp1-contracts/contracts/src/v3.0.0/Groth16Verifier.sol\":20132:20163  compress_g1(proof[0], proof[1]) */\n      tag_71\n        /* \".deps/github/succinctlabs/sp1-contracts/contracts/src/v3.0.0/Groth16Verifier.sol\":20144:20149  proof */\n      dup3\n        /* \".deps/github/succinctlabs/sp1-contracts/contracts/src/v3.0.0/Groth16Verifier.sol\":20150:20151  0 */\n      0x00\n        /* \".deps/github/succinctlabs/sp1-contracts/contracts/src/v3.0.0/Groth16Verifier.sol\":20144:20152  proof[0] */\n      0x08\n      dup2\n      lt\n      tag_72\n      jumpi\n      tag_73\n      tag_57\n      jump\t// in\n    tag_73:\n    tag_72:\n      0x20\n      mul\n      add\n      calldataload\n        /* \".deps/github/succinctlabs/sp1-contracts/contracts/src/v3.0.0/Groth16Verifier.sol\":20154:20159  proof */\n      dup4\n        /* \".deps/github/succinctlabs/sp1-contracts/contracts/src/v3.0.0/Groth16Verifier.sol\":20160:20161  1 */\n      0x01\n        /* \".deps/github/succinctlabs/sp1-contracts/contracts/src/v3.0.0/Groth16Verifier.sol\":20154:20162  proof[1] */\n      0x08\n      dup2\n      lt\n      tag_74\n      jumpi\n      tag_75\n      tag_57\n      jump\t// in\n    tag_75:\n    tag_74:\n      0x20\n      mul\n      add\n      calldataload\n        /* \".deps/github/succinctlabs/sp1-contracts/contracts/src/v3.0.0/Groth16Verifier.sol\":20132:20143  compress_g1 */\n      tag_76\n        /* \".deps/github/succinctlabs/sp1-contracts/contracts/src/v3.0.0/Groth16Verifier.sol\":20132:20163  compress_g1(proof[0], proof[1]) */\n      jump\t// in\n    tag_71:\n        /* \".deps/github/succinctlabs/sp1-contracts/contracts/src/v3.0.0/Groth16Verifier.sol\":20116:20126  compressed */\n      dup2\n        /* \".deps/github/succinctlabs/sp1-contracts/contracts/src/v3.0.0/Groth16Verifier.sol\":20127:20128  0 */\n      0x00\n        /* \".deps/github/succinctlabs/sp1-contracts/contracts/src/v3.0.0/Groth16Verifier.sol\":20116:20129  compressed[0] */\n      0x04\n      dup2\n      lt\n      tag_77\n      jumpi\n      tag_78\n      tag_57\n      jump\t// in\n    tag_78:\n    tag_77:\n      0x20\n      mul\n      add\n        /* \".deps/github/succinctlabs/sp1-contracts/contracts/src/v3.0.0/Groth16Verifier.sol\":20116:20163  compressed[0] = compress_g1(proof[0], proof[1]) */\n      dup2\n      dup2\n      mstore\n      pop\n      pop\n        /* \".deps/github/succinctlabs/sp1-contracts/contracts/src/v3.0.0/Groth16Verifier.sol\":20207:20258  compress_g2(proof[3], proof[2], proof[5], proof[4]) */\n      tag_79\n        /* \".deps/github/succinctlabs/sp1-contracts/contracts/src/v3.0.0/Groth16Verifier.sol\":20219:20224  proof */\n      dup3\n        /* \".deps/github/succinctlabs/sp1-contracts/contracts/src/v3.0.0/Groth16Verifier.sol\":20225:20226  3 */\n      0x03\n        /* \".deps/github/succinctlabs/sp1-contracts/contracts/src/v3.0.0/Groth16Verifier.sol\":20219:20227  proof[3] */\n      0x08\n      dup2\n      lt\n      tag_80\n      jumpi\n      tag_81\n      tag_57\n      jump\t// in\n    tag_81:\n    tag_80:\n      0x20\n      mul\n      add\n      calldataload\n        /* \".deps/github/succinctlabs/sp1-contracts/contracts/src/v3.0.0/Groth16Verifier.sol\":20229:20234  proof */\n      dup4\n        /* \".deps/github/succinctlabs/sp1-contracts/contracts/src/v3.0.0/Groth16Verifier.sol\":20235:20236  2 */\n      0x02\n        /* \".deps/github/succinctlabs/sp1-contracts/contracts/src/v3.0.0/Groth16Verifier.sol\":20229:20237  proof[2] */\n      0x08\n      dup2\n      lt\n      tag_82\n      jumpi\n      tag_83\n      tag_57\n      jump\t// in\n    tag_83:\n    tag_82:\n      0x20\n      mul\n      add\n      calldataload\n        /* \".deps/github/succinctlabs/sp1-contracts/contracts/src/v3.0.0/Groth16Verifier.sol\":20239:20244  proof */\n      dup5\n        /* \".deps/github/succinctlabs/sp1-contracts/contracts/src/v3.0.0/Groth16Verifier.sol\":20245:20246  5 */\n      0x05\n        /* \".deps/github/succinctlabs/sp1-contracts/contracts/src/v3.0.0/Groth16Verifier.sol\":20239:20247  proof[5] */\n      0x08\n      dup2\n      lt\n      tag_84\n      jumpi\n      tag_85\n      tag_57\n      jump\t// in\n    tag_85:\n    tag_84:\n      0x20\n      mul\n      add\n      calldataload\n        /* \".deps/github/succinctlabs/sp1-contracts/contracts/src/v3.0.0/Groth16Verifier.sol\":20249:20254  proof */\n      dup6\n        /* \".deps/github/succinctlabs/sp1-contracts/contracts/src/v3.0.0/Groth16Verifier.sol\":20255:20256  4 */\n      0x04\n        /* \".deps/github/succinctlabs/sp1-contracts/contracts/src/v3.0.0/Groth16Verifier.sol\":20249:20257  proof[4] */\n      0x08\n      dup2\n      lt\n      tag_86\n      jumpi\n      tag_87\n      tag_57\n      jump\t// in\n    tag_87:\n    tag_86:\n      0x20\n      mul\n      add\n      calldataload\n        /* \".deps/github/succinctlabs/sp1-contracts/contracts/src/v3.0.0/Groth16Verifier.sol\":20207:20218  compress_g2 */\n      tag_88\n        /* \".deps/github/succinctlabs/sp1-contracts/contracts/src/v3.0.0/Groth16Verifier.sol\":20207:20258  compress_g2(proof[3], proof[2], proof[5], proof[4]) */\n      jump\t// in\n    tag_79:\n        /* \".deps/github/succinctlabs/sp1-contracts/contracts/src/v3.0.0/Groth16Verifier.sol\":20175:20185  compressed */\n      dup3\n        /* \".deps/github/succinctlabs/sp1-contracts/contracts/src/v3.0.0/Groth16Verifier.sol\":20186:20187  2 */\n      0x02\n        /* \".deps/github/succinctlabs/sp1-contracts/contracts/src/v3.0.0/Groth16Verifier.sol\":20175:20188  compressed[2] */\n      0x04\n      dup2\n      lt\n      tag_89\n      jumpi\n      tag_90\n      tag_57\n      jump\t// in\n    tag_90:\n    tag_89:\n      0x20\n      mul\n      add\n        /* \".deps/github/succinctlabs/sp1-contracts/contracts/src/v3.0.0/Groth16Verifier.sol\":20190:20200  compressed */\n      dup4\n        /* \".deps/github/succinctlabs/sp1-contracts/contracts/src/v3.0.0/Groth16Verifier.sol\":20201:20202  1 */\n      0x01\n        /* \".deps/github/succinctlabs/sp1-contracts/contracts/src/v3.0.0/Groth16Verifier.sol\":20190:20203  compressed[1] */\n      0x04\n      dup2\n      lt\n      tag_91\n      jumpi\n      tag_92\n      tag_57\n      jump\t// in\n    tag_92:\n    tag_91:\n      0x20\n      mul\n      add\n        /* \".deps/github/succinctlabs/sp1-contracts/contracts/src/v3.0.0/Groth16Verifier.sol\":20174:20258  (compressed[2], compressed[1]) = compress_g2(proof[3], proof[2], proof[5], proof[4]) */\n      dup3\n      dup2\n      mstore\n      pop\n      dup3\n      dup2\n      mstore\n      pop\n      pop\n      pop\n        /* \".deps/github/succinctlabs/sp1-contracts/contracts/src/v3.0.0/Groth16Verifier.sol\":20285:20316  compress_g1(proof[6], proof[7]) */\n      tag_93\n        /* \".deps/github/succinctlabs/sp1-contracts/contracts/src/v3.0.0/Groth16Verifier.sol\":20297:20302  proof */\n      dup3\n        /* \".deps/github/succinctlabs/sp1-contracts/contracts/src/v3.0.0/Groth16Verifier.sol\":20303:20304  6 */\n      0x06\n        /* \".deps/github/succinctlabs/sp1-contracts/contracts/src/v3.0.0/Groth16Verifier.sol\":20297:20305  proof[6] */\n      0x08\n      dup2\n      lt\n      tag_94\n      jumpi\n      tag_95\n      tag_57\n      jump\t// in\n    tag_95:\n    tag_94:\n      0x20\n      mul\n      add\n      calldataload\n        /* \".deps/github/succinctlabs/sp1-contracts/contracts/src/v3.0.0/Groth16Verifier.sol\":20307:20312  proof */\n      dup4\n        /* \".deps/github/succinctlabs/sp1-contracts/contracts/src/v3.0.0/Groth16Verifier.sol\":20313:20314  7 */\n      0x07\n        /* \".deps/github/succinctlabs/sp1-contracts/contracts/src/v3.0.0/Groth16Verifier.sol\":20307:20315  proof[7] */\n      0x08\n      dup2\n      lt\n      tag_96\n      jumpi\n      tag_97\n      tag_57\n      jump\t// in\n    tag_97:\n    tag_96:\n      0x20\n      mul\n      add\n      calldataload\n        /* \".deps/github/succinctlabs/sp1-contracts/contracts/src/v3.0.0/Groth16Verifier.sol\":20285:20296  compress_g1 */\n      tag_76\n        /* \".deps/github/succinctlabs/sp1-contracts/contracts/src/v3.0.0/Groth16Verifier.sol\":20285:20316  compress_g1(proof[6], proof[7]) */\n      jump\t// in\n    tag_93:\n        /* \".deps/github/succinctlabs/sp1-contracts/contracts/src/v3.0.0/Groth16Verifier.sol\":20269:20279  compressed */\n      dup2\n        /* \".deps/github/succinctlabs/sp1-contracts/contracts/src/v3.0.0/Groth16Verifier.sol\":20280:20281  3 */\n      0x03\n        /* \".deps/github/succinctlabs/sp1-contracts/contracts/src/v3.0.0/Groth16Verifier.sol\":20269:20282  compressed[3] */\n      0x04\n      dup2\n      lt\n      tag_98\n      jumpi\n      tag_99\n      tag_57\n      jump\t// in\n    tag_99:\n    tag_98:\n      0x20\n      mul\n      add\n        /* \".deps/github/succinctlabs/sp1-contracts/contracts/src/v3.0.0/Groth16Verifier.sol\":20269:20316  compressed[3] = compress_g1(proof[6], proof[7]) */\n      dup2\n      dup2\n      mstore\n      pop\n      pop\n        /* \".deps/github/succinctlabs/sp1-contracts/contracts/src/v3.0.0/Groth16Verifier.sol\":19972:20324  function compressProof(uint256[8] calldata proof)... */\n      swap2\n      swap1\n      pop\n      jump\t// out\n        /* \".deps/github/succinctlabs/sp1-contracts/contracts/src/v3.0.0/SP1VerifierGroth16.sol\":1309:1475  function hashPublicValues(bytes calldata publicValues) public pure returns (bytes32) {... */\n    tag_28:\n        /* \".deps/github/succinctlabs/sp1-contracts/contracts/src/v3.0.0/SP1VerifierGroth16.sol\":1385:1392  bytes32 */\n      0x00\n        /* \".deps/github/succinctlabs/sp1-contracts/contracts/src/v3.0.0/SP1VerifierGroth16.sol\":1451:1465  (1 << 253) - 1 */\n      0x1fffffffffffffffffffffffffffffffffffffffffffffffffffffffffffffff\n        /* \".deps/github/succinctlabs/sp1-contracts/contracts/src/v3.0.0/SP1VerifierGroth16.sol\":1435:1467  bytes32(uint256((1 << 253) - 1)) */\n      0x00\n      shl\n        /* \".deps/github/succinctlabs/sp1-contracts/contracts/src/v3.0.0/SP1VerifierGroth16.sol\":1412:1432  sha256(publicValues) */\n      0x02\n        /* \".deps/github/succinctlabs/sp1-contracts/contracts/src/v3.0.0/SP1VerifierGroth16.sol\":1419:1431  publicValues */\n      dup5\n      dup5\n        /* \".deps/github/succinctlabs/sp1-contracts/contracts/src/v3.0.0/SP1VerifierGroth16.sol\":1412:1432  sha256(publicValues) */\n      mload(0x40)\n      tag_101\n      swap3\n      swap2\n      swap1\n      tag_102\n      jump\t// in\n    tag_101:\n      0x20\n      mload(0x40)\n      dup1\n      dup4\n      sub\n      dup2\n      dup6\n      gas\n      staticcall\n      iszero\n      dup1\n      iszero\n      tag_104\n      jumpi\n      returndatacopy(0x00, 0x00, returndatasize)\n      revert(0x00, returndatasize)\n    tag_104:\n      pop\n      pop\n      pop\n      mload(0x40)\n      returndatasize\n      not(0x1f)\n      0x1f\n      dup3\n      add\n      and\n      dup3\n      add\n      dup1\n      0x40\n      mstore\n      pop\n      dup2\n      add\n      swap1\n      tag_105\n      swap2\n      swap1\n      tag_106\n      jump\t// in\n    tag_105:\n        /* \".deps/github/succinctlabs/sp1-contracts/contracts/src/v3.0.0/SP1VerifierGroth16.sol\":1412:1467  sha256(publicValues) & bytes32(uint256((1 << 253) - 1)) */\n      and\n        /* \".deps/github/succinctlabs/sp1-contracts/contracts/src/v3.0.0/SP1VerifierGroth16.sol\":1405:1467  return sha256(publicValues) & bytes32(uint256((1 << 253) - 1)) */\n      swap1\n      pop\n        /* \".deps/github/succinctlabs/sp1-contracts/contracts/src/v3.0.0/SP1VerifierGroth16.sol\":1309:1475  function hashPublicValues(bytes calldata publicValues) public pure returns (bytes32) {... */\n      swap3\n      swap2\n      pop\n      pop\n      jump\t// out\n        /* \".deps/github/succinctlabs/sp1-contracts/contracts/src/v3.0.0/Groth16Verifier.sol\":23727:25871  function Verify(uint256[8] calldata proof, uint256[2] calldata input) public view {... */\n    tag_33:\n        /* \".deps/github/succinctlabs/sp1-contracts/contracts/src/v3.0.0/Groth16Verifier.sol\":23821:23830  uint256 x */\n      0x00\n        /* \".deps/github/succinctlabs/sp1-contracts/contracts/src/v3.0.0/Groth16Verifier.sol\":23832:23841  uint256 y */\n      0x00\n        /* \".deps/github/succinctlabs/sp1-contracts/contracts/src/v3.0.0/Groth16Verifier.sol\":23845:23866  publicInputMSM(input) */\n      tag_108\n        /* \".deps/github/succinctlabs/sp1-contracts/contracts/src/v3.0.0/Groth16Verifier.sol\":23860:23865  input */\n      dup4\n        /* \".deps/github/succinctlabs/sp1-contracts/contracts/src/v3.0.0/Groth16Verifier.sol\":23845:23859  publicInputMSM */\n      tag_109\n        /* \".deps/github/succinctlabs/sp1-contracts/contracts/src/v3.0.0/Groth16Verifier.sol\":23845:23866  publicInputMSM(input) */\n      jump\t// in\n    tag_108:\n        /* \".deps/github/succinctlabs/sp1-contracts/contracts/src/v3.0.0/Groth16Verifier.sol\":23820:23866  (uint256 x, uint256 y) = publicInputMSM(input) */\n      swap2\n      pop\n      swap2\n      pop\n        /* \".deps/github/succinctlabs/sp1-contracts/contracts/src/v3.0.0/Groth16Verifier.sol\":24057:24069  bool success */\n      0x00\n        /* \".deps/github/succinctlabs/sp1-contracts/contracts/src/v3.0.0/Groth16Verifier.sol\":24135:24139  0x40 */\n      0x40\n        /* \".deps/github/succinctlabs/sp1-contracts/contracts/src/v3.0.0/Groth16Verifier.sol\":24129:24140  mload(0x40) */\n      mload\n        /* \".deps/github/succinctlabs/sp1-contracts/contracts/src/v3.0.0/Groth16Verifier.sol\":24351:24356  0x100 */\n      0x0100\n        /* \".deps/github/succinctlabs/sp1-contracts/contracts/src/v3.0.0/Groth16Verifier.sol\":24344:24349  proof */\n      dup7\n        /* \".deps/github/succinctlabs/sp1-contracts/contracts/src/v3.0.0/Groth16Verifier.sol\":24341:24342  f */\n      dup3\n        /* \".deps/github/succinctlabs/sp1-contracts/contracts/src/v3.0.0/Groth16Verifier.sol\":24328:24357  calldatacopy(f, proof, 0x100) */\n      calldatacopy\n        /* \".deps/github/succinctlabs/sp1-contracts/contracts/src/v3.0.0/Groth16Verifier.sol\":24665:24678  DELTA_NEG_X_1 */\n      0x21ab438b0ad9688f8d9afc96ed0ab25e6ab7f19ed6f7d58a9dc136d68de55e3e\n        /* \".deps/github/succinctlabs/sp1-contracts/contracts/src/v3.0.0/Groth16Verifier.sol\":24657:24662  0x100 */\n      0x0100\n        /* \".deps/github/succinctlabs/sp1-contracts/contracts/src/v3.0.0/Groth16Verifier.sol\":24654:24655  f */\n      dup3\n        /* \".deps/github/succinctlabs/sp1-contracts/contracts/src/v3.0.0/Groth16Verifier.sol\":24650:24663  add(f, 0x100) */\n      add\n        /* \".deps/github/succinctlabs/sp1-contracts/contracts/src/v3.0.0/Groth16Verifier.sol\":24643:24679  mstore(add(f, 0x100), DELTA_NEG_X_1) */\n      mstore\n        /* \".deps/github/succinctlabs/sp1-contracts/contracts/src/v3.0.0/Groth16Verifier.sol\":24715:24728  DELTA_NEG_X_0 */\n      0x2d1f461ca03a65528393919e9e412f6b82d7096e44fa039bd7642a5112188af7\n        /* \".deps/github/succinctlabs/sp1-contracts/contracts/src/v3.0.0/Groth16Verifier.sol\":24707:24712  0x120 */\n      0x0120\n        /* \".deps/github/succinctlabs/sp1-contracts/contracts/src/v3.0.0/Groth16Verifier.sol\":24704:24705  f */\n      dup3\n        /* \".deps/github/succinctlabs/sp1-contracts/contracts/src/v3.0.0/Groth16Verifier.sol\":24700:24713  add(f, 0x120) */\n      add\n        /* \".deps/github/succinctlabs/sp1-contracts/contracts/src/v3.0.0/Groth16Verifier.sol\":24693:24729  mstore(add(f, 0x120), DELTA_NEG_X_0) */\n      mstore\n        /* \".deps/github/succinctlabs/sp1-contracts/contracts/src/v3.0.0/Groth16Verifier.sol\":24765:24778  DELTA_NEG_Y_1 */\n      0x100f76d4ac45886c1334d58716121dc0ffa8463738f3f2adf793e15b8ecd7e1d\n        /* \".deps/github/succinctlabs/sp1-contracts/contracts/src/v3.0.0/Groth16Verifier.sol\":24757:24762  0x140 */\n      0x0140\n        /* \".deps/github/succinctlabs/sp1-contracts/contracts/src/v3.0.0/Groth16Verifier.sol\":24754:24755  f */\n      dup3\n        /* \".deps/github/succinctlabs/sp1-contracts/contracts/src/v3.0.0/Groth16Verifier.sol\":24750:24763  add(f, 0x140) */\n      add\n        /* \".deps/github/succinctlabs/sp1-contracts/contracts/src/v3.0.0/Groth16Verifier.sol\":24743:24779  mstore(add(f, 0x140), DELTA_NEG_Y_1) */\n      mstore\n        /* \".deps/github/succinctlabs/sp1-contracts/contracts/src/v3.0.0/Groth16Verifier.sol\":24815:24828  DELTA_NEG_Y_0 */\n      0x2bf21e8bb2f9419034373c2156cdd7bddf273519dcd7f674ef21e2748ced89f2\n        /* \".deps/github/succinctlabs/sp1-contracts/contracts/src/v3.0.0/Groth16Verifier.sol\":24807:24812  0x160 */\n      0x0160\n        /* \".deps/github/succinctlabs/sp1-contracts/contracts/src/v3.0.0/Groth16Verifier.sol\":24804:24805  f */\n      dup3\n        /* \".deps/github/succinctlabs/sp1-contracts/contracts/src/v3.0.0/Groth16Verifier.sol\":24800:24813  add(f, 0x160) */\n      add\n        /* \".deps/github/succinctlabs/sp1-contracts/contracts/src/v3.0.0/Groth16Verifier.sol\":24793:24829  mstore(add(f, 0x160), DELTA_NEG_Y_0) */\n      mstore\n        /* \".deps/github/succinctlabs/sp1-contracts/contracts/src/v3.0.0/Groth16Verifier.sol\":24865:24872  ALPHA_X */\n      0x2d4d9aa7e302d9df41749d5507949d05dbea33fbb16c643b22f599a2be6df2e2\n        /* \".deps/github/succinctlabs/sp1-contracts/contracts/src/v3.0.0/Groth16Verifier.sol\":24857:24862  0x180 */\n      0x0180\n        /* \".deps/github/succinctlabs/sp1-contracts/contracts/src/v3.0.0/Groth16Verifier.sol\":24854:24855  f */\n      dup3\n        /* \".deps/github/succinctlabs/sp1-contracts/contracts/src/v3.0.0/Groth16Verifier.sol\":24850:24863  add(f, 0x180) */\n      add\n        /* \".deps/github/succinctlabs/sp1-contracts/contracts/src/v3.0.0/Groth16Verifier.sol\":24843:24873  mstore(add(f, 0x180), ALPHA_X) */\n      mstore\n        /* \".deps/github/succinctlabs/sp1-contracts/contracts/src/v3.0.0/Groth16Verifier.sol\":24909:24916  ALPHA_Y */\n      0x14bedd503c37ceb061d8ec60209fe345ce89830a19230301f076caff004d1926\n        /* \".deps/github/succinctlabs/sp1-contracts/contracts/src/v3.0.0/Groth16Verifier.sol\":24901:24906  0x1a0 */\n      0x01a0\n        /* \".deps/github/succinctlabs/sp1-contracts/contracts/src/v3.0.0/Groth16Verifier.sol\":24898:24899  f */\n      dup3\n        /* \".deps/github/succinctlabs/sp1-contracts/contracts/src/v3.0.0/Groth16Verifier.sol\":24894:24907  add(f, 0x1a0) */\n      add\n        /* \".deps/github/succinctlabs/sp1-contracts/contracts/src/v3.0.0/Groth16Verifier.sol\":24887:24917  mstore(add(f, 0x1a0), ALPHA_Y) */\n      mstore\n        /* \".deps/github/succinctlabs/sp1-contracts/contracts/src/v3.0.0/Groth16Verifier.sol\":24953:24965  BETA_NEG_X_1 */\n      0x0967032fcbf776d1afc985f88877f182d38480a653f2decaa9794cbc3bf3060c\n        /* \".deps/github/succinctlabs/sp1-contracts/contracts/src/v3.0.0/Groth16Verifier.sol\":24945:24950  0x1c0 */\n      0x01c0\n        /* \".deps/github/succinctlabs/sp1-contracts/contracts/src/v3.0.0/Groth16Verifier.sol\":24942:24943  f */\n      dup3\n        /* \".deps/github/succinctlabs/sp1-contracts/contracts/src/v3.0.0/Groth16Verifier.sol\":24938:24951  add(f, 0x1c0) */\n      add\n        /* \".deps/github/succinctlabs/sp1-contracts/contracts/src/v3.0.0/Groth16Verifier.sol\":24931:24966  mstore(add(f, 0x1c0), BETA_NEG_X_1) */\n      mstore\n        /* \".deps/github/succinctlabs/sp1-contracts/contracts/src/v3.0.0/Groth16Verifier.sol\":25002:25014  BETA_NEG_X_0 */\n      0x0e187847ad4c798374d0d6732bf501847dd68bc0e071241e0213bc7fc13db7ab\n        /* \".deps/github/succinctlabs/sp1-contracts/contracts/src/v3.0.0/Groth16Verifier.sol\":24994:24999  0x1e0 */\n      0x01e0\n        /* \".deps/github/succinctlabs/sp1-contracts/contracts/src/v3.0.0/Groth16Verifier.sol\":24991:24992  f */\n      dup3\n        /* \".deps/github/succinctlabs/sp1-contracts/contracts/src/v3.0.0/Groth16Verifier.sol\":24987:25000  add(f, 0x1e0) */\n      add\n        /* \".deps/github/succinctlabs/sp1-contracts/contracts/src/v3.0.0/Groth16Verifier.sol\":24980:25015  mstore(add(f, 0x1e0), BETA_NEG_X_0) */\n      mstore\n        /* \".deps/github/succinctlabs/sp1-contracts/contracts/src/v3.0.0/Groth16Verifier.sol\":25051:25063  BETA_NEG_Y_1 */\n      0x1752a100a72fdf1e5a5d6ea841cc20ec838bccfcf7bd559e79f1c9c759b6a0\n        /* \".deps/github/succinctlabs/sp1-contracts/contracts/src/v3.0.0/Groth16Verifier.sol\":25043:25048  0x200 */\n      0x0200\n        /* \".deps/github/succinctlabs/sp1-contracts/contracts/src/v3.0.0/Groth16Verifier.sol\":25040:25041  f */\n      dup3\n        /* \".deps/github/succinctlabs/sp1-contracts/contracts/src/v3.0.0/Groth16Verifier.sol\":25036:25049  add(f, 0x200) */\n      add\n        /* \".deps/github/succinctlabs/sp1-contracts/contracts/src/v3.0.0/Groth16Verifier.sol\":25029:25064  mstore(add(f, 0x200), BETA_NEG_Y_1) */\n      mstore\n        /* \".deps/github/succinctlabs/sp1-contracts/contracts/src/v3.0.0/Groth16Verifier.sol\":25100:25112  BETA_NEG_Y_0 */\n      0x192a8cc13cd9f762871f21e43451c6ca9eeab2cb2987c4e366a185c25dac2e7f\n        /* \".deps/github/succinctlabs/sp1-contracts/contracts/src/v3.0.0/Groth16Verifier.sol\":25092:25097  0x220 */\n      0x0220\n        /* \".deps/github/succinctlabs/sp1-contracts/contracts/src/v3.0.0/Groth16Verifier.sol\":25089:25090  f */\n      dup3\n        /* \".deps/github/succinctlabs/sp1-contracts/contracts/src/v3.0.0/Groth16Verifier.sol\":25085:25098  add(f, 0x220) */\n      add\n        /* \".deps/github/succinctlabs/sp1-contracts/contracts/src/v3.0.0/Groth16Verifier.sol\":25078:25113  mstore(add(f, 0x220), BETA_NEG_Y_0) */\n      mstore\n        /* \".deps/github/succinctlabs/sp1-contracts/contracts/src/v3.0.0/Groth16Verifier.sol\":25149:25150  x */\n      dup4\n        /* \".deps/github/succinctlabs/sp1-contracts/contracts/src/v3.0.0/Groth16Verifier.sol\":25141:25146  0x240 */\n      0x0240\n        /* \".deps/github/succinctlabs/sp1-contracts/contracts/src/v3.0.0/Groth16Verifier.sol\":25138:25139  f */\n      dup3\n        /* \".deps/github/succinctlabs/sp1-contracts/contracts/src/v3.0.0/Groth16Verifier.sol\":25134:25147  add(f, 0x240) */\n      add\n        /* \".deps/github/succinctlabs/sp1-contracts/contracts/src/v3.0.0/Groth16Verifier.sol\":25127:25151  mstore(add(f, 0x240), x) */\n      mstore\n        /* \".deps/github/succinctlabs/sp1-contracts/contracts/src/v3.0.0/Groth16Verifier.sol\":25187:25188  y */\n      dup3\n        /* \".deps/github/succinctlabs/sp1-contracts/contracts/src/v3.0.0/Groth16Verifier.sol\":25179:25184  0x260 */\n      0x0260\n        /* \".deps/github/succinctlabs/sp1-contracts/contracts/src/v3.0.0/Groth16Verifier.sol\":25176:25177  f */\n      dup3\n        /* \".deps/github/succinctlabs/sp1-contracts/contracts/src/v3.0.0/Groth16Verifier.sol\":25172:25185  add(f, 0x260) */\n      add\n        /* \".deps/github/succinctlabs/sp1-contracts/contracts/src/v3.0.0/Groth16Verifier.sol\":25165:25189  mstore(add(f, 0x260), y) */\n      mstore\n        /* \".deps/github/succinctlabs/sp1-contracts/contracts/src/v3.0.0/Groth16Verifier.sol\":25225:25238  GAMMA_NEG_X_1 */\n      0x198e9393920d483a7260bfb731fb5d25f1aa493335a9e71297e485b7aef312c2\n        /* \".deps/github/succinctlabs/sp1-contracts/contracts/src/v3.0.0/Groth16Verifier.sol\":25217:25222  0x280 */\n      0x0280\n        /* \".deps/github/succinctlabs/sp1-contracts/contracts/src/v3.0.0/Groth16Verifier.sol\":25214:25215  f */\n      dup3\n        /* \".deps/github/succinctlabs/sp1-contracts/contracts/src/v3.0.0/Groth16Verifier.sol\":25210:25223  add(f, 0x280) */\n      add\n        /* \".deps/github/succinctlabs/sp1-contracts/contracts/src/v3.0.0/Groth16Verifier.sol\":25203:25239  mstore(add(f, 0x280), GAMMA_NEG_X_1) */\n      mstore\n        /* \".deps/github/succinctlabs/sp1-contracts/contracts/src/v3.0.0/Groth16Verifier.sol\":25275:25288  GAMMA_NEG_X_0 */\n      0x1800deef121f1e76426a00665e5c4479674322d4f75edadd46debd5cd992f6ed\n        /* \".deps/github/succinctlabs/sp1-contracts/contracts/src/v3.0.0/Groth16Verifier.sol\":25267:25272  0x2a0 */\n      0x02a0\n        /* \".deps/github/succinctlabs/sp1-contracts/contracts/src/v3.0.0/Groth16Verifier.sol\":25264:25265  f */\n      dup3\n        /* \".deps/github/succinctlabs/sp1-contracts/contracts/src/v3.0.0/Groth16Verifier.sol\":25260:25273  add(f, 0x2a0) */\n      add\n        /* \".deps/github/succinctlabs/sp1-contracts/contracts/src/v3.0.0/Groth16Verifier.sol\":25253:25289  mstore(add(f, 0x2a0), GAMMA_NEG_X_0) */\n      mstore\n        /* \".deps/github/succinctlabs/sp1-contracts/contracts/src/v3.0.0/Groth16Verifier.sol\":25325:25338  GAMMA_NEG_Y_1 */\n      0x275dc4a288d1afb3cbb1ac09187524c7db36395df7be3b99e673b13a075a65ec\n        /* \".deps/github/succinctlabs/sp1-contracts/contracts/src/v3.0.0/Groth16Verifier.sol\":25317:25322  0x2c0 */\n      0x02c0\n        /* \".deps/github/succinctlabs/sp1-contracts/contracts/src/v3.0.0/Groth16Verifier.sol\":25314:25315  f */\n      dup3\n        /* \".deps/github/succinctlabs/sp1-contracts/contracts/src/v3.0.0/Groth16Verifier.sol\":25310:25323  add(f, 0x2c0) */\n      add\n        /* \".deps/github/succinctlabs/sp1-contracts/contracts/src/v3.0.0/Groth16Verifier.sol\":25303:25339  mstore(add(f, 0x2c0), GAMMA_NEG_Y_1) */\n      mstore\n        /* \".deps/github/succinctlabs/sp1-contracts/contracts/src/v3.0.0/Groth16Verifier.sol\":25375:25388  GAMMA_NEG_Y_0 */\n      0x1d9befcd05a5323e6da4d435f3b617cdb3af83285c2df711ef39c01571827f9d\n        /* \".deps/github/succinctlabs/sp1-contracts/contracts/src/v3.0.0/Groth16Verifier.sol\":25367:25372  0x2e0 */\n      0x02e0\n        /* \".deps/github/succinctlabs/sp1-contracts/contracts/src/v3.0.0/Groth16Verifier.sol\":25364:25365  f */\n      dup3\n        /* \".deps/github/succinctlabs/sp1-contracts/contracts/src/v3.0.0/Groth16Verifier.sol\":25360:25373  add(f, 0x2e0) */\n      add\n        /* \".deps/github/succinctlabs/sp1-contracts/contracts/src/v3.0.0/Groth16Verifier.sol\":25353:25389  mstore(add(f, 0x2e0), GAMMA_NEG_Y_0) */\n      mstore\n        /* \".deps/github/succinctlabs/sp1-contracts/contracts/src/v3.0.0/Groth16Verifier.sol\":25506:25510  0x20 */\n      0x20\n        /* \".deps/github/succinctlabs/sp1-contracts/contracts/src/v3.0.0/Groth16Verifier.sol\":25503:25504  f */\n      dup2\n        /* \".deps/github/succinctlabs/sp1-contracts/contracts/src/v3.0.0/Groth16Verifier.sol\":25496:25501  0x300 */\n      0x0300\n        /* \".deps/github/succinctlabs/sp1-contracts/contracts/src/v3.0.0/Groth16Verifier.sol\":25493:25494  f */\n      dup4\n        /* \".deps/github/succinctlabs/sp1-contracts/contracts/src/v3.0.0/Groth16Verifier.sol\":25474:25491  PRECOMPILE_VERIFY */\n      0x08\n        /* \".deps/github/succinctlabs/sp1-contracts/contracts/src/v3.0.0/Groth16Verifier.sol\":25467:25472  gas() */\n      gas\n        /* \".deps/github/succinctlabs/sp1-contracts/contracts/src/v3.0.0/Groth16Verifier.sol\":25456:25511  staticcall(gas(), PRECOMPILE_VERIFY, f, 0x300, f, 0x20) */\n      staticcall\n        /* \".deps/github/succinctlabs/sp1-contracts/contracts/src/v3.0.0/Groth16Verifier.sol\":25445:25511  success := staticcall(gas(), PRECOMPILE_VERIFY, f, 0x300, f, 0x20) */\n      swap2\n      pop\n        /* \".deps/github/succinctlabs/sp1-contracts/contracts/src/v3.0.0/Groth16Verifier.sol\":25623:25624  f */\n      dup1\n        /* \".deps/github/succinctlabs/sp1-contracts/contracts/src/v3.0.0/Groth16Verifier.sol\":25617:25625  mload(f) */\n      mload\n        /* \".deps/github/succinctlabs/sp1-contracts/contracts/src/v3.0.0/Groth16Verifier.sol\":25608:25615  success */\n      dup3\n        /* \".deps/github/succinctlabs/sp1-contracts/contracts/src/v3.0.0/Groth16Verifier.sol\":25604:25626  and(success, mload(f)) */\n      and\n        /* \".deps/github/succinctlabs/sp1-contracts/contracts/src/v3.0.0/Groth16Verifier.sol\":25593:25626  success := and(success, mload(f)) */\n      swap2\n      pop\n        /* \".deps/github/succinctlabs/sp1-contracts/contracts/src/v3.0.0/Groth16Verifier.sol\":24105:25637  {... */\n      pop\n        /* \".deps/github/succinctlabs/sp1-contracts/contracts/src/v3.0.0/Groth16Verifier.sol\":25652:25659  success */\n      dup1\n        /* \".deps/github/succinctlabs/sp1-contracts/contracts/src/v3.0.0/Groth16Verifier.sol\":25647:25864  if (!success) {... */\n      tag_110\n      jumpi\n        /* \".deps/github/succinctlabs/sp1-contracts/contracts/src/v3.0.0/Groth16Verifier.sol\":25838:25852  ProofInvalid() */\n      mload(0x40)\n      0x7fcdd1f400000000000000000000000000000000000000000000000000000000\n      dup2\n      mstore\n      0x04\n      add\n      mload(0x40)\n      dup1\n      swap2\n      sub\n      swap1\n      revert\n        /* \".deps/github/succinctlabs/sp1-contracts/contracts/src/v3.0.0/Groth16Verifier.sol\":25647:25864  if (!success) {... */\n    tag_110:\n        /* \".deps/github/succinctlabs/sp1-contracts/contracts/src/v3.0.0/Groth16Verifier.sol\":23809:25871  {... */\n      pop\n      pop\n      pop\n        /* \".deps/github/succinctlabs/sp1-contracts/contracts/src/v3.0.0/Groth16Verifier.sol\":23727:25871  function Verify(uint256[8] calldata proof, uint256[2] calldata input) public view {... */\n      pop\n      pop\n      jump\t// out\n        /* \".deps/github/succinctlabs/sp1-contracts/contracts/src/v3.0.0/Groth16Verifier.sol\":20883:23190  function verifyCompressedProof(uint256[4] calldata compressedProof, uint256[2] calldata input)... */\n    tag_37:\n        /* \".deps/github/succinctlabs/sp1-contracts/contracts/src/v3.0.0/Groth16Verifier.sol\":21024:21051  uint256[24] memory pairings */\n      tag_112\n      tag_113\n      jump\t// in\n    tag_112:\n        /* \".deps/github/succinctlabs/sp1-contracts/contracts/src/v3.0.0/Groth16Verifier.sol\":21080:21090  uint256 Ax */\n      0x00\n        /* \".deps/github/succinctlabs/sp1-contracts/contracts/src/v3.0.0/Groth16Verifier.sol\":21092:21102  uint256 Ay */\n      0x00\n        /* \".deps/github/succinctlabs/sp1-contracts/contracts/src/v3.0.0/Groth16Verifier.sol\":21106:21139  decompress_g1(compressedProof[0]) */\n      tag_114\n        /* \".deps/github/succinctlabs/sp1-contracts/contracts/src/v3.0.0/Groth16Verifier.sol\":21120:21135  compressedProof */\n      dup6\n        /* \".deps/github/succinctlabs/sp1-contracts/contracts/src/v3.0.0/Groth16Verifier.sol\":21136:21137  0 */\n      0x00\n        /* \".deps/github/succinctlabs/sp1-contracts/contracts/src/v3.0.0/Groth16Verifier.sol\":21120:21138  compressedProof[0] */\n      0x04\n      dup2\n      lt\n      tag_115\n      jumpi\n      tag_116\n      tag_57\n      jump\t// in\n    tag_116:\n    tag_115:\n      0x20\n      mul\n      add\n      calldataload\n        /* \".deps/github/succinctlabs/sp1-contracts/contracts/src/v3.0.0/Groth16Verifier.sol\":21106:21119  decompress_g1 */\n      tag_117\n        /* \".deps/github/succinctlabs/sp1-contracts/contracts/src/v3.0.0/Groth16Verifier.sol\":21106:21139  decompress_g1(compressedProof[0]) */\n      jump\t// in\n    tag_114:\n        /* \".deps/github/succinctlabs/sp1-contracts/contracts/src/v3.0.0/Groth16Verifier.sol\":21079:21139  (uint256 Ax, uint256 Ay) = decompress_g1(compressedProof[0]) */\n      swap2\n      pop\n      swap2\n      pop\n        /* \".deps/github/succinctlabs/sp1-contracts/contracts/src/v3.0.0/Groth16Verifier.sol\":21155:21166  uint256 Bx0 */\n      0x00\n        /* \".deps/github/succinctlabs/sp1-contracts/contracts/src/v3.0.0/Groth16Verifier.sol\":21168:21179  uint256 Bx1 */\n      0x00\n        /* \".deps/github/succinctlabs/sp1-contracts/contracts/src/v3.0.0/Groth16Verifier.sol\":21181:21192  uint256 By0 */\n      0x00\n        /* \".deps/github/succinctlabs/sp1-contracts/contracts/src/v3.0.0/Groth16Verifier.sol\":21194:21205  uint256 By1 */\n      0x00\n        /* \".deps/github/succinctlabs/sp1-contracts/contracts/src/v3.0.0/Groth16Verifier.sol\":21226:21279  decompress_g2(compressedProof[2], compressedProof[1]) */\n      tag_118\n        /* \".deps/github/succinctlabs/sp1-contracts/contracts/src/v3.0.0/Groth16Verifier.sol\":21240:21255  compressedProof */\n      dup10\n        /* \".deps/github/succinctlabs/sp1-contracts/contracts/src/v3.0.0/Groth16Verifier.sol\":21256:21257  2 */\n      0x02\n        /* \".deps/github/succinctlabs/sp1-contracts/contracts/src/v3.0.0/Groth16Verifier.sol\":21240:21258  compressedProof[2] */\n      0x04\n      dup2\n      lt\n      tag_119\n      jumpi\n      tag_120\n      tag_57\n      jump\t// in\n    tag_120:\n    tag_119:\n      0x20\n      mul\n      add\n      calldataload\n        /* \".deps/github/succinctlabs/sp1-contracts/contracts/src/v3.0.0/Groth16Verifier.sol\":21260:21275  compressedProof */\n      dup11\n        /* \".deps/github/succinctlabs/sp1-contracts/contracts/src/v3.0.0/Groth16Verifier.sol\":21276:21277  1 */\n      0x01\n        /* \".deps/github/succinctlabs/sp1-contracts/contracts/src/v3.0.0/Groth16Verifier.sol\":21260:21278  compressedProof[1] */\n      0x04\n      dup2\n      lt\n      tag_121\n      jumpi\n      tag_122\n      tag_57\n      jump\t// in\n    tag_122:\n    tag_121:\n      0x20\n      mul\n      add\n      calldataload\n        /* \".deps/github/succinctlabs/sp1-contracts/contracts/src/v3.0.0/Groth16Verifier.sol\":21226:21239  decompress_g2 */\n      tag_123\n        /* \".deps/github/succinctlabs/sp1-contracts/contracts/src/v3.0.0/Groth16Verifier.sol\":21226:21279  decompress_g2(compressedProof[2], compressedProof[1]) */\n      jump\t// in\n    tag_118:\n        /* \".deps/github/succinctlabs/sp1-contracts/contracts/src/v3.0.0/Groth16Verifier.sol\":21154:21279  (uint256 Bx0, uint256 Bx1, uint256 By0, uint256 By1) =... */\n      swap4\n      pop\n      swap4\n      pop\n      swap4\n      pop\n      swap4\n      pop\n        /* \".deps/github/succinctlabs/sp1-contracts/contracts/src/v3.0.0/Groth16Verifier.sol\":21295:21305  uint256 Cx */\n      0x00\n        /* \".deps/github/succinctlabs/sp1-contracts/contracts/src/v3.0.0/Groth16Verifier.sol\":21307:21317  uint256 Cy */\n      0x00\n        /* \".deps/github/succinctlabs/sp1-contracts/contracts/src/v3.0.0/Groth16Verifier.sol\":21321:21354  decompress_g1(compressedProof[3]) */\n      tag_124\n        /* \".deps/github/succinctlabs/sp1-contracts/contracts/src/v3.0.0/Groth16Verifier.sol\":21335:21350  compressedProof */\n      dup12\n        /* \".deps/github/succinctlabs/sp1-contracts/contracts/src/v3.0.0/Groth16Verifier.sol\":21351:21352  3 */\n      0x03\n        /* \".deps/github/succinctlabs/sp1-contracts/contracts/src/v3.0.0/Groth16Verifier.sol\":21335:21353  compressedProof[3] */\n      0x04\n      dup2\n      lt\n      tag_125\n      jumpi\n      tag_126\n      tag_57\n      jump\t// in\n    tag_126:\n    tag_125:\n      0x20\n      mul\n      add\n      calldataload\n        /* \".deps/github/succinctlabs/sp1-contracts/contracts/src/v3.0.0/Groth16Verifier.sol\":21321:21334  decompress_g1 */\n      tag_117\n        /* \".deps/github/succinctlabs/sp1-contracts/contracts/src/v3.0.0/Groth16Verifier.sol\":21321:21354  decompress_g1(compressedProof[3]) */\n      jump\t// in\n    tag_124:\n        /* \".deps/github/succinctlabs/sp1-contracts/contracts/src/v3.0.0/Groth16Verifier.sol\":21294:21354  (uint256 Cx, uint256 Cy) = decompress_g1(compressedProof[3]) */\n      swap2\n      pop\n      swap2\n      pop\n        /* \".deps/github/succinctlabs/sp1-contracts/contracts/src/v3.0.0/Groth16Verifier.sol\":21370:21380  uint256 Lx */\n      0x00\n        /* \".deps/github/succinctlabs/sp1-contracts/contracts/src/v3.0.0/Groth16Verifier.sol\":21382:21392  uint256 Ly */\n      0x00\n        /* \".deps/github/succinctlabs/sp1-contracts/contracts/src/v3.0.0/Groth16Verifier.sol\":21396:21417  publicInputMSM(input) */\n      tag_127\n        /* \".deps/github/succinctlabs/sp1-contracts/contracts/src/v3.0.0/Groth16Verifier.sol\":21411:21416  input */\n      dup13\n        /* \".deps/github/succinctlabs/sp1-contracts/contracts/src/v3.0.0/Groth16Verifier.sol\":21396:21410  publicInputMSM */\n      tag_109\n        /* \".deps/github/succinctlabs/sp1-contracts/contracts/src/v3.0.0/Groth16Verifier.sol\":21396:21417  publicInputMSM(input) */\n      jump\t// in\n    tag_127:\n        /* \".deps/github/succinctlabs/sp1-contracts/contracts/src/v3.0.0/Groth16Verifier.sol\":21369:21417  (uint256 Lx, uint256 Ly) = publicInputMSM(input) */\n      swap2\n      pop\n      swap2\n      pop\n        /* \".deps/github/succinctlabs/sp1-contracts/contracts/src/v3.0.0/Groth16Verifier.sol\":21693:21695  Ax */\n      dup10\n        /* \".deps/github/succinctlabs/sp1-contracts/contracts/src/v3.0.0/Groth16Verifier.sol\":21679:21687  pairings */\n      dup12\n        /* \".deps/github/succinctlabs/sp1-contracts/contracts/src/v3.0.0/Groth16Verifier.sol\":21688:21689  0 */\n      0x00\n        /* \".deps/github/succinctlabs/sp1-contracts/contracts/src/v3.0.0/Groth16Verifier.sol\":21679:21690  pairings[0] */\n      0x18\n      dup2\n      lt\n      tag_128\n      jumpi\n      tag_129\n      tag_57\n      jump\t// in\n    tag_129:\n    tag_128:\n      0x20\n      mul\n      add\n        /* \".deps/github/succinctlabs/sp1-contracts/contracts/src/v3.0.0/Groth16Verifier.sol\":21679:21695  pairings[0] = Ax */\n      dup2\n      dup2\n      mstore\n      pop\n      pop\n        /* \".deps/github/succinctlabs/sp1-contracts/contracts/src/v3.0.0/Groth16Verifier.sol\":21724:21726  Ay */\n      dup9\n        /* \".deps/github/succinctlabs/sp1-contracts/contracts/src/v3.0.0/Groth16Verifier.sol\":21710:21718  pairings */\n      dup12\n        /* \".deps/github/succinctlabs/sp1-contracts/contracts/src/v3.0.0/Groth16Verifier.sol\":21719:21720  1 */\n      0x01\n        /* \".deps/github/succinctlabs/sp1-contracts/contracts/src/v3.0.0/Groth16Verifier.sol\":21710:21721  pairings[1] */\n      0x18\n      dup2\n      lt\n      tag_130\n      jumpi\n      tag_131\n      tag_57\n      jump\t// in\n    tag_131:\n    tag_130:\n      0x20\n      mul\n      add\n        /* \".deps/github/succinctlabs/sp1-contracts/contracts/src/v3.0.0/Groth16Verifier.sol\":21710:21726  pairings[1] = Ay */\n      dup2\n      dup2\n      mstore\n      pop\n      pop\n        /* \".deps/github/succinctlabs/sp1-contracts/contracts/src/v3.0.0/Groth16Verifier.sol\":21755:21758  Bx1 */\n      dup7\n        /* \".deps/github/succinctlabs/sp1-contracts/contracts/src/v3.0.0/Groth16Verifier.sol\":21741:21749  pairings */\n      dup12\n        /* \".deps/github/succinctlabs/sp1-contracts/contracts/src/v3.0.0/Groth16Verifier.sol\":21750:21751  2 */\n      0x02\n        /* \".deps/github/succinctlabs/sp1-contracts/contracts/src/v3.0.0/Groth16Verifier.sol\":21741:21752  pairings[2] */\n      0x18\n      dup2\n      lt\n      tag_132\n      jumpi\n      tag_133\n      tag_57\n      jump\t// in\n    tag_133:\n    tag_132:\n      0x20\n      mul\n      add\n        /* \".deps/github/succinctlabs/sp1-contracts/contracts/src/v3.0.0/Groth16Verifier.sol\":21741:21758  pairings[2] = Bx1 */\n      dup2\n      dup2\n      mstore\n      pop\n      pop\n        /* \".deps/github/succinctlabs/sp1-contracts/contracts/src/v3.0.0/Groth16Verifier.sol\":21787:21790  Bx0 */\n      dup8\n        /* \".deps/github/succinctlabs/sp1-contracts/contracts/src/v3.0.0/Groth16Verifier.sol\":21773:21781  pairings */\n      dup12\n        /* \".deps/github/succinctlabs/sp1-contracts/contracts/src/v3.0.0/Groth16Verifier.sol\":21782:21783  3 */\n      0x03\n        /* \".deps/github/succinctlabs/sp1-contracts/contracts/src/v3.0.0/Groth16Verifier.sol\":21773:21784  pairings[3] */\n      0x18\n      dup2\n      lt\n      tag_134\n      jumpi\n      tag_135\n      tag_57\n      jump\t// in\n    tag_135:\n    tag_134:\n      0x20\n      mul\n      add\n        /* \".deps/github/succinctlabs/sp1-contracts/contracts/src/v3.0.0/Groth16Verifier.sol\":21773:21790  pairings[3] = Bx0 */\n      dup2\n      dup2\n      mstore\n      pop\n      pop\n        /* \".deps/github/succinctlabs/sp1-contracts/contracts/src/v3.0.0/Groth16Verifier.sol\":21819:21822  By1 */\n      dup5\n        /* \".deps/github/succinctlabs/sp1-contracts/contracts/src/v3.0.0/Groth16Verifier.sol\":21805:21813  pairings */\n      dup12\n        /* \".deps/github/succinctlabs/sp1-contracts/contracts/src/v3.0.0/Groth16Verifier.sol\":21814:21815  4 */\n      0x04\n        /* \".deps/github/succinctlabs/sp1-contracts/contracts/src/v3.0.0/Groth16Verifier.sol\":21805:21816  pairings[4] */\n      0x18\n      dup2\n      lt\n      tag_136\n      jumpi\n      tag_137\n      tag_57\n      jump\t// in\n    tag_137:\n    tag_136:\n      0x20\n      mul\n      add\n        /* \".deps/github/succinctlabs/sp1-contracts/contracts/src/v3.0.0/Groth16Verifier.sol\":21805:21822  pairings[4] = By1 */\n      dup2\n      dup2\n      mstore\n      pop\n      pop\n        /* \".deps/github/succinctlabs/sp1-contracts/contracts/src/v3.0.0/Groth16Verifier.sol\":21851:21854  By0 */\n      dup6\n        /* \".deps/github/succinctlabs/sp1-contracts/contracts/src/v3.0.0/Groth16Verifier.sol\":21837:21845  pairings */\n      dup12\n        /* \".deps/github/succinctlabs/sp1-contracts/contracts/src/v3.0.0/Groth16Verifier.sol\":21846:21847  5 */\n      0x05\n        /* \".deps/github/succinctlabs/sp1-contracts/contracts/src/v3.0.0/Groth16Verifier.sol\":21837:21848  pairings[5] */\n      0x18\n      dup2\n      lt\n      tag_138\n      jumpi\n      tag_139\n      tag_57\n      jump\t// in\n    tag_139:\n    tag_138:\n      0x20\n      mul\n      add\n        /* \".deps/github/succinctlabs/sp1-contracts/contracts/src/v3.0.0/Groth16Verifier.sol\":21837:21854  pairings[5] = By0 */\n      dup2\n      dup2\n      mstore\n      pop\n      pop\n        /* \".deps/github/succinctlabs/sp1-contracts/contracts/src/v3.0.0/Groth16Verifier.sol\":21909:21911  Cx */\n      dup4\n        /* \".deps/github/succinctlabs/sp1-contracts/contracts/src/v3.0.0/Groth16Verifier.sol\":21895:21903  pairings */\n      dup12\n        /* \".deps/github/succinctlabs/sp1-contracts/contracts/src/v3.0.0/Groth16Verifier.sol\":21904:21905  6 */\n      0x06\n        /* \".deps/github/succinctlabs/sp1-contracts/contracts/src/v3.0.0/Groth16Verifier.sol\":21895:21906  pairings[6] */\n      0x18\n      dup2\n      lt\n      tag_140\n      jumpi\n      tag_141\n      tag_57\n      jump\t// in\n    tag_141:\n    tag_140:\n      0x20\n      mul\n      add\n        /* \".deps/github/succinctlabs/sp1-contracts/contracts/src/v3.0.0/Groth16Verifier.sol\":21895:21911  pairings[6] = Cx */\n      dup2\n      dup2\n      mstore\n      pop\n      pop\n        /* \".deps/github/succinctlabs/sp1-contracts/contracts/src/v3.0.0/Groth16Verifier.sol\":21940:21942  Cy */\n      dup3\n        /* \".deps/github/succinctlabs/sp1-contracts/contracts/src/v3.0.0/Groth16Verifier.sol\":21926:21934  pairings */\n      dup12\n        /* \".deps/github/succinctlabs/sp1-contracts/contracts/src/v3.0.0/Groth16Verifier.sol\":21935:21936  7 */\n      0x07\n        /* \".deps/github/succinctlabs/sp1-contracts/contracts/src/v3.0.0/Groth16Verifier.sol\":21926:21937  pairings[7] */\n      0x18\n      dup2\n      lt\n      tag_142\n      jumpi\n      tag_143\n      tag_57\n      jump\t// in\n    tag_143:\n    tag_142:\n      0x20\n      mul\n      add\n        /* \".deps/github/succinctlabs/sp1-contracts/contracts/src/v3.0.0/Groth16Verifier.sol\":21926:21942  pairings[7] = Cy */\n      dup2\n      dup2\n      mstore\n      pop\n      pop\n        /* \".deps/github/succinctlabs/sp1-contracts/contracts/src/v3.0.0/Groth16Verifier.sol\":4363:4440  15228921016905275799965683851057599185732146900672862119304638397355443707454 */\n      0x21ab438b0ad9688f8d9afc96ed0ab25e6ab7f19ed6f7d58a9dc136d68de55e3e\n        /* \".deps/github/succinctlabs/sp1-contracts/contracts/src/v3.0.0/Groth16Verifier.sol\":21957:21965  pairings */\n      dup12\n        /* \".deps/github/succinctlabs/sp1-contracts/contracts/src/v3.0.0/Groth16Verifier.sol\":21966:21967  8 */\n      0x08\n        /* \".deps/github/succinctlabs/sp1-contracts/contracts/src/v3.0.0/Groth16Verifier.sol\":21957:21968  pairings[8] */\n      0x18\n      dup2\n      lt\n      tag_144\n      jumpi\n      tag_145\n      tag_57\n      jump\t// in\n    tag_145:\n    tag_144:\n      0x20\n      mul\n      add\n        /* \".deps/github/succinctlabs/sp1-contracts/contracts/src/v3.0.0/Groth16Verifier.sol\":21957:21984  pairings[8] = DELTA_NEG_X_1 */\n      dup2\n      dup2\n      mstore\n      pop\n      pop\n        /* \".deps/github/succinctlabs/sp1-contracts/contracts/src/v3.0.0/Groth16Verifier.sol\":4237:4314  20409334339251888712441068872870136503388893688417321778880931483231354129143 */\n      0x2d1f461ca03a65528393919e9e412f6b82d7096e44fa039bd7642a5112188af7\n        /* \".deps/github/succinctlabs/sp1-contracts/contracts/src/v3.0.0/Groth16Verifier.sol\":21999:22007  pairings */\n      dup12\n        /* \".deps/github/succinctlabs/sp1-contracts/contracts/src/v3.0.0/Groth16Verifier.sol\":22008:22009  9 */\n      0x09\n        /* \".deps/github/succinctlabs/sp1-contracts/contracts/src/v3.0.0/Groth16Verifier.sol\":21999:22010  pairings[9] */\n      0x18\n      dup2\n      lt\n      tag_146\n      jumpi\n      tag_147\n      tag_57\n      jump\t// in\n    tag_147:\n    tag_146:\n      0x20\n      mul\n      add\n        /* \".deps/github/succinctlabs/sp1-contracts/contracts/src/v3.0.0/Groth16Verifier.sol\":21999:22026  pairings[9] = DELTA_NEG_X_0 */\n      dup2\n      dup2\n      mstore\n      pop\n      pop\n        /* \".deps/github/succinctlabs/sp1-contracts/contracts/src/v3.0.0/Groth16Verifier.sol\":4615:4691  7264328423023871043957062501982202910010974353266020262517510882033855725085 */\n      0x100f76d4ac45886c1334d58716121dc0ffa8463738f3f2adf793e15b8ecd7e1d\n        /* \".deps/github/succinctlabs/sp1-contracts/contracts/src/v3.0.0/Groth16Verifier.sol\":22041:22049  pairings */\n      dup12\n        /* \".deps/github/succinctlabs/sp1-contracts/contracts/src/v3.0.0/Groth16Verifier.sol\":22050:22052  10 */\n      0x0a\n        /* \".deps/github/succinctlabs/sp1-contracts/contracts/src/v3.0.0/Groth16Verifier.sol\":22041:22053  pairings[10] */\n      0x18\n      dup2\n      lt\n      tag_148\n      jumpi\n      tag_149\n      tag_57\n      jump\t// in\n    tag_149:\n    tag_148:\n      0x20\n      mul\n      add\n        /* \".deps/github/succinctlabs/sp1-contracts/contracts/src/v3.0.0/Groth16Verifier.sol\":22041:22069  pairings[10] = DELTA_NEG_Y_1 */\n      dup2\n      dup2\n      mstore\n      pop\n      pop\n        /* \".deps/github/succinctlabs/sp1-contracts/contracts/src/v3.0.0/Groth16Verifier.sol\":4489:4566  19877240297427940090516929163964707799250026674662843458659550601453241207282 */\n      0x2bf21e8bb2f9419034373c2156cdd7bddf273519dcd7f674ef21e2748ced89f2\n        /* \".deps/github/succinctlabs/sp1-contracts/contracts/src/v3.0.0/Groth16Verifier.sol\":22084:22092  pairings */\n      dup12\n        /* \".deps/github/succinctlabs/sp1-contracts/contracts/src/v3.0.0/Groth16Verifier.sol\":22093:22095  11 */\n      0x0b\n        /* \".deps/github/succinctlabs/sp1-contracts/contracts/src/v3.0.0/Groth16Verifier.sol\":22084:22096  pairings[11] */\n      0x18\n      dup2\n      lt\n      tag_150\n      jumpi\n      tag_151\n      tag_57\n      jump\t// in\n    tag_151:\n    tag_150:\n      0x20\n      mul\n      add\n        /* \".deps/github/succinctlabs/sp1-contracts/contracts/src/v3.0.0/Groth16Verifier.sol\":22084:22112  pairings[11] = DELTA_NEG_Y_0 */\n      dup2\n      dup2\n      mstore\n      pop\n      pop\n        /* \".deps/github/succinctlabs/sp1-contracts/contracts/src/v3.0.0/Groth16Verifier.sol\":2841:2918  20491192805390485299153009773594534940189261866228447918068658471970481763042 */\n      0x2d4d9aa7e302d9df41749d5507949d05dbea33fbb16c643b22f599a2be6df2e2\n        /* \".deps/github/succinctlabs/sp1-contracts/contracts/src/v3.0.0/Groth16Verifier.sol\":22154:22162  pairings */\n      dup12\n        /* \".deps/github/succinctlabs/sp1-contracts/contracts/src/v3.0.0/Groth16Verifier.sol\":22163:22165  12 */\n      0x0c\n        /* \".deps/github/succinctlabs/sp1-contracts/contracts/src/v3.0.0/Groth16Verifier.sol\":22154:22166  pairings[12] */\n      0x18\n      dup2\n      lt\n      tag_152\n      jumpi\n      tag_153\n      tag_57\n      jump\t// in\n    tag_153:\n    tag_152:\n      0x20\n      mul\n      add\n        /* \".deps/github/succinctlabs/sp1-contracts/contracts/src/v3.0.0/Groth16Verifier.sol\":22154:22176  pairings[12] = ALPHA_X */\n      dup2\n      dup2\n      mstore\n      pop\n      pop\n        /* \".deps/github/succinctlabs/sp1-contracts/contracts/src/v3.0.0/Groth16Verifier.sol\":2961:3037  9383485363053290200918347156157836566562967994039712273449902621266178545958 */\n      0x14bedd503c37ceb061d8ec60209fe345ce89830a19230301f076caff004d1926\n        /* \".deps/github/succinctlabs/sp1-contracts/contracts/src/v3.0.0/Groth16Verifier.sol\":22191:22199  pairings */\n      dup12\n        /* \".deps/github/succinctlabs/sp1-contracts/contracts/src/v3.0.0/Groth16Verifier.sol\":22200:22202  13 */\n      0x0d\n        /* \".deps/github/succinctlabs/sp1-contracts/contracts/src/v3.0.0/Groth16Verifier.sol\":22191:22203  pairings[13] */\n      0x18\n      dup2\n      lt\n      tag_154\n      jumpi\n      tag_155\n      tag_57\n      jump\t// in\n    tag_155:\n    tag_154:\n      0x20\n      mul\n      add\n        /* \".deps/github/succinctlabs/sp1-contracts/contracts/src/v3.0.0/Groth16Verifier.sol\":22191:22213  pairings[13] = ALPHA_Y */\n      dup2\n      dup2\n      mstore\n      pop\n      pop\n        /* \".deps/github/succinctlabs/sp1-contracts/contracts/src/v3.0.0/Groth16Verifier.sol\":3259:3335  4252822878758300859123897981450591353533073413197771768651442665752259397132 */\n      0x0967032fcbf776d1afc985f88877f182d38480a653f2decaa9794cbc3bf3060c\n        /* \".deps/github/succinctlabs/sp1-contracts/contracts/src/v3.0.0/Groth16Verifier.sol\":22228:22236  pairings */\n      dup12\n        /* \".deps/github/succinctlabs/sp1-contracts/contracts/src/v3.0.0/Groth16Verifier.sol\":22237:22239  14 */\n      0x0e\n        /* \".deps/github/succinctlabs/sp1-contracts/contracts/src/v3.0.0/Groth16Verifier.sol\":22228:22240  pairings[14] */\n      0x18\n      dup2\n      lt\n      tag_156\n      jumpi\n      tag_157\n      tag_57\n      jump\t// in\n    tag_157:\n    tag_156:\n      0x20\n      mul\n      add\n        /* \".deps/github/succinctlabs/sp1-contracts/contracts/src/v3.0.0/Groth16Verifier.sol\":22228:22255  pairings[14] = BETA_NEG_X_1 */\n      dup2\n      dup2\n      mstore\n      pop\n      pop\n        /* \".deps/github/succinctlabs/sp1-contracts/contracts/src/v3.0.0/Groth16Verifier.sol\":3135:3211  6375614351688725206403948262868962793625744043794305715222011528459656738731 */\n      0x0e187847ad4c798374d0d6732bf501847dd68bc0e071241e0213bc7fc13db7ab\n        /* \".deps/github/succinctlabs/sp1-contracts/contracts/src/v3.0.0/Groth16Verifier.sol\":22270:22278  pairings */\n      dup12\n        /* \".deps/github/succinctlabs/sp1-contracts/contracts/src/v3.0.0/Groth16Verifier.sol\":22279:22281  15 */\n      0x0f\n        /* \".deps/github/succinctlabs/sp1-contracts/contracts/src/v3.0.0/Groth16Verifier.sol\":22270:22282  pairings[15] */\n      0x18\n      dup2\n      lt\n      tag_158\n      jumpi\n      tag_159\n      tag_57\n      jump\t// in\n    tag_159:\n    tag_158:\n      0x20\n      mul\n      add\n        /* \".deps/github/succinctlabs/sp1-contracts/contracts/src/v3.0.0/Groth16Verifier.sol\":22270:22297  pairings[15] = BETA_NEG_X_0 */\n      dup2\n      dup2\n      mstore\n      pop\n      pop\n        /* \".deps/github/succinctlabs/sp1-contracts/contracts/src/v3.0.0/Groth16Verifier.sol\":3508:3582  41207766310529818958173054109690360505148424997958324311878202295167071904 */\n      0x1752a100a72fdf1e5a5d6ea841cc20ec838bccfcf7bd559e79f1c9c759b6a0\n        /* \".deps/github/succinctlabs/sp1-contracts/contracts/src/v3.0.0/Groth16Verifier.sol\":22312:22320  pairings */\n      dup12\n        /* \".deps/github/succinctlabs/sp1-contracts/contracts/src/v3.0.0/Groth16Verifier.sol\":22321:22323  16 */\n      0x10\n        /* \".deps/github/succinctlabs/sp1-contracts/contracts/src/v3.0.0/Groth16Verifier.sol\":22312:22324  pairings[16] */\n      0x18\n      dup2\n      lt\n      tag_160\n      jumpi\n      tag_161\n      tag_57\n      jump\t// in\n    tag_161:\n    tag_160:\n      0x20\n      mul\n      add\n        /* \".deps/github/succinctlabs/sp1-contracts/contracts/src/v3.0.0/Groth16Verifier.sol\":22312:22339  pairings[16] = BETA_NEG_Y_1 */\n      dup2\n      dup2\n      mstore\n      pop\n      pop\n        /* \".deps/github/succinctlabs/sp1-contracts/contracts/src/v3.0.0/Groth16Verifier.sol\":3383:3460  11383000245469012944693504663162918391286475477077232690815866754273895001727 */\n      0x192a8cc13cd9f762871f21e43451c6ca9eeab2cb2987c4e366a185c25dac2e7f\n        /* \".deps/github/succinctlabs/sp1-contracts/contracts/src/v3.0.0/Groth16Verifier.sol\":22354:22362  pairings */\n      dup12\n        /* \".deps/github/succinctlabs/sp1-contracts/contracts/src/v3.0.0/Groth16Verifier.sol\":22363:22365  17 */\n      0x11\n        /* \".deps/github/succinctlabs/sp1-contracts/contracts/src/v3.0.0/Groth16Verifier.sol\":22354:22366  pairings[17] */\n      0x18\n      dup2\n      lt\n      tag_162\n      jumpi\n      tag_163\n      tag_57\n      jump\t// in\n    tag_163:\n    tag_162:\n      0x20\n      mul\n      add\n        /* \".deps/github/succinctlabs/sp1-contracts/contracts/src/v3.0.0/Groth16Verifier.sol\":22354:22381  pairings[17] = BETA_NEG_Y_0 */\n      dup2\n      dup2\n      mstore\n      pop\n      pop\n        /* \".deps/github/succinctlabs/sp1-contracts/contracts/src/v3.0.0/Groth16Verifier.sol\":22441:22443  Lx */\n      dup2\n        /* \".deps/github/succinctlabs/sp1-contracts/contracts/src/v3.0.0/Groth16Verifier.sol\":22426:22434  pairings */\n      dup12\n        /* \".deps/github/succinctlabs/sp1-contracts/contracts/src/v3.0.0/Groth16Verifier.sol\":22435:22437  18 */\n      0x12\n        /* \".deps/github/succinctlabs/sp1-contracts/contracts/src/v3.0.0/Groth16Verifier.sol\":22426:22438  pairings[18] */\n      0x18\n      dup2\n      lt\n      tag_164\n      jumpi\n      tag_165\n      tag_57\n      jump\t// in\n    tag_165:\n    tag_164:\n      0x20\n      mul\n      add\n        /* \".deps/github/succinctlabs/sp1-contracts/contracts/src/v3.0.0/Groth16Verifier.sol\":22426:22443  pairings[18] = Lx */\n      dup2\n      dup2\n      mstore\n      pop\n      pop\n        /* \".deps/github/succinctlabs/sp1-contracts/contracts/src/v3.0.0/Groth16Verifier.sol\":22473:22475  Ly */\n      dup1\n        /* \".deps/github/succinctlabs/sp1-contracts/contracts/src/v3.0.0/Groth16Verifier.sol\":22458:22466  pairings */\n      dup12\n        /* \".deps/github/succinctlabs/sp1-contracts/contracts/src/v3.0.0/Groth16Verifier.sol\":22467:22469  19 */\n      0x13\n        /* \".deps/github/succinctlabs/sp1-contracts/contracts/src/v3.0.0/Groth16Verifier.sol\":22458:22470  pairings[19] */\n      0x18\n      dup2\n      lt\n      tag_166\n      jumpi\n      tag_167\n      tag_57\n      jump\t// in\n    tag_167:\n    tag_166:\n      0x20\n      mul\n      add\n        /* \".deps/github/succinctlabs/sp1-contracts/contracts/src/v3.0.0/Groth16Verifier.sol\":22458:22475  pairings[19] = Ly */\n      dup2\n      dup2\n      mstore\n      pop\n      pop\n        /* \".deps/github/succinctlabs/sp1-contracts/contracts/src/v3.0.0/Groth16Verifier.sol\":3808:3885  11559732032986387107991004021392285783925812861821192530917403151452391805634 */\n      0x198e9393920d483a7260bfb731fb5d25f1aa493335a9e71297e485b7aef312c2\n        /* \".deps/github/succinctlabs/sp1-contracts/contracts/src/v3.0.0/Groth16Verifier.sol\":22490:22498  pairings */\n      dup12\n        /* \".deps/github/succinctlabs/sp1-contracts/contracts/src/v3.0.0/Groth16Verifier.sol\":22499:22501  20 */\n      0x14\n        /* \".deps/github/succinctlabs/sp1-contracts/contracts/src/v3.0.0/Groth16Verifier.sol\":22490:22502  pairings[20] */\n      0x18\n      dup2\n      lt\n      tag_168\n      jumpi\n      tag_169\n      tag_57\n      jump\t// in\n    tag_169:\n    tag_168:\n      0x20\n      mul\n      add\n        /* \".deps/github/succinctlabs/sp1-contracts/contracts/src/v3.0.0/Groth16Verifier.sol\":22490:22518  pairings[20] = GAMMA_NEG_X_1 */\n      dup2\n      dup2\n      mstore\n      pop\n      pop\n        /* \".deps/github/succinctlabs/sp1-contracts/contracts/src/v3.0.0/Groth16Verifier.sol\":3682:3759  10857046999023057135944570762232829481370756359578518086990519993285655852781 */\n      0x1800deef121f1e76426a00665e5c4479674322d4f75edadd46debd5cd992f6ed\n        /* \".deps/github/succinctlabs/sp1-contracts/contracts/src/v3.0.0/Groth16Verifier.sol\":22533:22541  pairings */\n      dup12\n        /* \".deps/github/succinctlabs/sp1-contracts/contracts/src/v3.0.0/Groth16Verifier.sol\":22542:22544  21 */\n      0x15\n        /* \".deps/github/succinctlabs/sp1-contracts/contracts/src/v3.0.0/Groth16Verifier.sol\":22533:22545  pairings[21] */\n      0x18\n      dup2\n      lt\n      tag_170\n      jumpi\n      tag_171\n      tag_57\n      jump\t// in\n    tag_171:\n    tag_170:\n      0x20\n      mul\n      add\n        /* \".deps/github/succinctlabs/sp1-contracts/contracts/src/v3.0.0/Groth16Verifier.sol\":22533:22561  pairings[21] = GAMMA_NEG_X_0 */\n      dup2\n      dup2\n      mstore\n      pop\n      pop\n        /* \".deps/github/succinctlabs/sp1-contracts/contracts/src/v3.0.0/Groth16Verifier.sol\":4060:4137  17805874995975841540914202342111839520379459829704422454583296818431106115052 */\n      0x275dc4a288d1afb3cbb1ac09187524c7db36395df7be3b99e673b13a075a65ec\n        /* \".deps/github/succinctlabs/sp1-contracts/contracts/src/v3.0.0/Groth16Verifier.sol\":22576:22584  pairings */\n      dup12\n        /* \".deps/github/succinctlabs/sp1-contracts/contracts/src/v3.0.0/Groth16Verifier.sol\":22585:22587  22 */\n      0x16\n        /* \".deps/github/succinctlabs/sp1-contracts/contracts/src/v3.0.0/Groth16Verifier.sol\":22576:22588  pairings[22] */\n      0x18\n      dup2\n      lt\n      tag_172\n      jumpi\n      tag_173\n      tag_57\n      jump\t// in\n    tag_173:\n    tag_172:\n      0x20\n      mul\n      add\n        /* \".deps/github/succinctlabs/sp1-contracts/contracts/src/v3.0.0/Groth16Verifier.sol\":22576:22604  pairings[22] = GAMMA_NEG_Y_1 */\n      dup2\n      dup2\n      mstore\n      pop\n      pop\n        /* \".deps/github/succinctlabs/sp1-contracts/contracts/src/v3.0.0/Groth16Verifier.sol\":3934:4011  13392588948715843804641432497768002650278120570034223513918757245338268106653 */\n      0x1d9befcd05a5323e6da4d435f3b617cdb3af83285c2df711ef39c01571827f9d\n        /* \".deps/github/succinctlabs/sp1-contracts/contracts/src/v3.0.0/Groth16Verifier.sol\":22619:22627  pairings */\n      dup12\n        /* \".deps/github/succinctlabs/sp1-contracts/contracts/src/v3.0.0/Groth16Verifier.sol\":22628:22630  23 */\n      0x17\n        /* \".deps/github/succinctlabs/sp1-contracts/contracts/src/v3.0.0/Groth16Verifier.sol\":22619:22631  pairings[23] */\n      0x18\n      dup2\n      lt\n      tag_174\n      jumpi\n      tag_175\n      tag_57\n      jump\t// in\n    tag_175:\n    tag_174:\n      0x20\n      mul\n      add\n        /* \".deps/github/succinctlabs/sp1-contracts/contracts/src/v3.0.0/Groth16Verifier.sol\":22619:22647  pairings[23] = GAMMA_NEG_Y_0 */\n      dup2\n      dup2\n      mstore\n      pop\n      pop\n        /* \".deps/github/succinctlabs/sp1-contracts/contracts/src/v3.0.0/Groth16Verifier.sol\":22704:22716  bool success */\n      0x00\n        /* \".deps/github/succinctlabs/sp1-contracts/contracts/src/v3.0.0/Groth16Verifier.sol\":22731:22755  uint256[1] memory output */\n      tag_176\n      tag_177\n      jump\t// in\n    tag_176:\n        /* \".deps/github/succinctlabs/sp1-contracts/contracts/src/v3.0.0/Groth16Verifier.sol\":22887:22891  0x20 */\n      0x20\n        /* \".deps/github/succinctlabs/sp1-contracts/contracts/src/v3.0.0/Groth16Verifier.sol\":22879:22885  output */\n      dup2\n        /* \".deps/github/succinctlabs/sp1-contracts/contracts/src/v3.0.0/Groth16Verifier.sol\":22872:22877  0x300 */\n      0x0300\n        /* \".deps/github/succinctlabs/sp1-contracts/contracts/src/v3.0.0/Groth16Verifier.sol\":22862:22870  pairings */\n      dup16\n        /* \".deps/github/succinctlabs/sp1-contracts/contracts/src/v3.0.0/Groth16Verifier.sol\":22843:22860  PRECOMPILE_VERIFY */\n      0x08\n        /* \".deps/github/succinctlabs/sp1-contracts/contracts/src/v3.0.0/Groth16Verifier.sol\":22836:22841  gas() */\n      gas\n        /* \".deps/github/succinctlabs/sp1-contracts/contracts/src/v3.0.0/Groth16Verifier.sol\":22825:22892  staticcall(gas(), PRECOMPILE_VERIFY, pairings, 0x300, output, 0x20) */\n      staticcall\n        /* \".deps/github/succinctlabs/sp1-contracts/contracts/src/v3.0.0/Groth16Verifier.sol\":22814:22892  success := staticcall(gas(), PRECOMPILE_VERIFY, pairings, 0x300, output, 0x20) */\n      swap2\n      pop\n        /* \".deps/github/succinctlabs/sp1-contracts/contracts/src/v3.0.0/Groth16Verifier.sol\":22926:22933  success */\n      dup2\n        /* \".deps/github/succinctlabs/sp1-contracts/contracts/src/v3.0.0/Groth16Verifier.sol\":22925:22933  !success */\n      iszero\n        /* \".deps/github/succinctlabs/sp1-contracts/contracts/src/v3.0.0/Groth16Verifier.sol\":22925:22951  !success || output[0] != 1 */\n      dup1\n      tag_178\n      jumpi\n      pop\n        /* \".deps/github/succinctlabs/sp1-contracts/contracts/src/v3.0.0/Groth16Verifier.sol\":22950:22951  1 */\n      0x01\n        /* \".deps/github/succinctlabs/sp1-contracts/contracts/src/v3.0.0/Groth16Verifier.sol\":22937:22943  output */\n      dup2\n        /* \".deps/github/succinctlabs/sp1-contracts/contracts/src/v3.0.0/Groth16Verifier.sol\":22944:22945  0 */\n      0x00\n        /* \".deps/github/succinctlabs/sp1-contracts/contracts/src/v3.0.0/Groth16Verifier.sol\":22937:22946  output[0] */\n      0x01\n      dup2\n      lt\n      tag_179\n      jumpi\n      tag_180\n      tag_57\n      jump\t// in\n    tag_180:\n    tag_179:\n      0x20\n      mul\n      add\n      mload\n        /* \".deps/github/succinctlabs/sp1-contracts/contracts/src/v3.0.0/Groth16Verifier.sol\":22937:22951  output[0] != 1 */\n      eq\n      iszero\n        /* \".deps/github/succinctlabs/sp1-contracts/contracts/src/v3.0.0/Groth16Verifier.sol\":22925:22951  !success || output[0] != 1 */\n    tag_178:\n        /* \".deps/github/succinctlabs/sp1-contracts/contracts/src/v3.0.0/Groth16Verifier.sol\":22921:23172  if (!success || output[0] != 1) {... */\n      iszero\n      tag_181\n      jumpi\n        /* \".deps/github/succinctlabs/sp1-contracts/contracts/src/v3.0.0/Groth16Verifier.sol\":23142:23156  ProofInvalid() */\n      mload(0x40)\n      0x7fcdd1f400000000000000000000000000000000000000000000000000000000\n      dup2\n      mstore\n      0x04\n      add\n      mload(0x40)\n      dup1\n      swap2\n      sub\n      swap1\n      revert\n        /* \".deps/github/succinctlabs/sp1-contracts/contracts/src/v3.0.0/Groth16Verifier.sol\":22921:23172  if (!success || output[0] != 1) {... */\n    tag_181:\n        /* \".deps/github/succinctlabs/sp1-contracts/contracts/src/v3.0.0/Groth16Verifier.sol\":21064:23183  {... */\n      pop\n      pop\n      pop\n      pop\n      pop\n      pop\n      pop\n      pop\n      pop\n      pop\n      pop\n      pop\n        /* \".deps/github/succinctlabs/sp1-contracts/contracts/src/v3.0.0/Groth16Verifier.sol\":21013:23190  {... */\n      pop\n        /* \".deps/github/succinctlabs/sp1-contracts/contracts/src/v3.0.0/Groth16Verifier.sol\":20883:23190  function verifyCompressedProof(uint256[4] calldata compressedProof, uint256[2] calldata input)... */\n      pop\n      pop\n      jump\t// out\n        /* \".deps/github/succinctlabs/sp1-contracts/contracts/src/v3.0.0/SP1VerifierGroth16.sol\":889:980  function VERSION() external pure returns (string memory) {... */\n    tag_39:\n        /* \".deps/github/succinctlabs/sp1-contracts/contracts/src/v3.0.0/SP1VerifierGroth16.sol\":931:944  string memory */\n      0x60\n        /* \".deps/github/succinctlabs/sp1-contracts/contracts/src/v3.0.0/SP1VerifierGroth16.sol\":957:972  return \"v3.0.0\" */\n      mload(0x40)\n      dup1\n      0x40\n      add\n      0x40\n      mstore\n      dup1\n      0x06\n      dup2\n      mstore\n      0x20\n      add\n      0x76332e302e300000000000000000000000000000000000000000000000000000\n      dup2\n      mstore\n      pop\n      swap1\n      pop\n        /* \".deps/github/succinctlabs/sp1-contracts/contracts/src/v3.0.0/SP1VerifierGroth16.sol\":889:980  function VERSION() external pure returns (string memory) {... */\n      swap1\n      jump\t// out\n        /* \".deps/github/succinctlabs/sp1-contracts/contracts/src/v3.0.0/Groth16Verifier.sol\":10224:10944  function compress_g1(uint256 x, uint256 y) internal view returns (uint256 c) {... */\n    tag_76:\n        /* \".deps/github/succinctlabs/sp1-contracts/contracts/src/v3.0.0/Groth16Verifier.sol\":10290:10299  uint256 c */\n      0x00\n        /* \".deps/github/succinctlabs/sp1-contracts/contracts/src/v3.0.0/Groth16Verifier.sol\":1427:1493  0x30644e72e131a029b85045b68181585d97816a916871ca8d3c208c16d87cfd47 */\n      0x30644e72e131a029b85045b68181585d97816a916871ca8d3c208c16d87cfd47\n        /* \".deps/github/succinctlabs/sp1-contracts/contracts/src/v3.0.0/Groth16Verifier.sol\":10316:10317  x */\n      dup4\n        /* \".deps/github/succinctlabs/sp1-contracts/contracts/src/v3.0.0/Groth16Verifier.sol\":10316:10322  x >= P */\n      lt\n      iszero\n        /* \".deps/github/succinctlabs/sp1-contracts/contracts/src/v3.0.0/Groth16Verifier.sol\":10316:10332  x >= P || y >= P */\n      dup1\n      tag_184\n      jumpi\n      pop\n        /* \".deps/github/succinctlabs/sp1-contracts/contracts/src/v3.0.0/Groth16Verifier.sol\":1427:1493  0x30644e72e131a029b85045b68181585d97816a916871ca8d3c208c16d87cfd47 */\n      0x30644e72e131a029b85045b68181585d97816a916871ca8d3c208c16d87cfd47\n        /* \".deps/github/succinctlabs/sp1-contracts/contracts/src/v3.0.0/Groth16Verifier.sol\":10326:10327  y */\n      dup3\n        /* \".deps/github/succinctlabs/sp1-contracts/contracts/src/v3.0.0/Groth16Verifier.sol\":10326:10332  y >= P */\n      lt\n      iszero\n        /* \".deps/github/succinctlabs/sp1-contracts/contracts/src/v3.0.0/Groth16Verifier.sol\":10316:10332  x >= P || y >= P */\n    tag_184:\n        /* \".deps/github/succinctlabs/sp1-contracts/contracts/src/v3.0.0/Groth16Verifier.sol\":10312:10421  if (x >= P || y >= P) {... */\n      iszero\n      tag_185\n      jumpi\n        /* \".deps/github/succinctlabs/sp1-contracts/contracts/src/v3.0.0/Groth16Verifier.sol\":10395:10409  ProofInvalid() */\n      mload(0x40)\n      0x7fcdd1f400000000000000000000000000000000000000000000000000000000\n      dup2\n      mstore\n      0x04\n      add\n      mload(0x40)\n      dup1\n      swap2\n      sub\n      swap1\n      revert\n        /* \".deps/github/succinctlabs/sp1-contracts/contracts/src/v3.0.0/Groth16Verifier.sol\":10312:10421  if (x >= P || y >= P) {... */\n    tag_185:\n        /* \".deps/github/succinctlabs/sp1-contracts/contracts/src/v3.0.0/Groth16Verifier.sol\":10440:10441  0 */\n      0x00\n        /* \".deps/github/succinctlabs/sp1-contracts/contracts/src/v3.0.0/Groth16Verifier.sol\":10435:10436  x */\n      dup4\n        /* \".deps/github/succinctlabs/sp1-contracts/contracts/src/v3.0.0/Groth16Verifier.sol\":10435:10441  x == 0 */\n      eq\n        /* \".deps/github/succinctlabs/sp1-contracts/contracts/src/v3.0.0/Groth16Verifier.sol\":10435:10451  x == 0 && y == 0 */\n      dup1\n      iszero\n      tag_186\n      jumpi\n      pop\n        /* \".deps/github/succinctlabs/sp1-contracts/contracts/src/v3.0.0/Groth16Verifier.sol\":10450:10451  0 */\n      0x00\n        /* \".deps/github/succinctlabs/sp1-contracts/contracts/src/v3.0.0/Groth16Verifier.sol\":10445:10446  y */\n      dup3\n        /* \".deps/github/succinctlabs/sp1-contracts/contracts/src/v3.0.0/Groth16Verifier.sol\":10445:10451  y == 0 */\n      eq\n        /* \".deps/github/succinctlabs/sp1-contracts/contracts/src/v3.0.0/Groth16Verifier.sol\":10435:10451  x == 0 && y == 0 */\n    tag_186:\n        /* \".deps/github/succinctlabs/sp1-contracts/contracts/src/v3.0.0/Groth16Verifier.sol\":10431:10522  if (x == 0 && y == 0) {... */\n      iszero\n      tag_187\n      jumpi\n        /* \".deps/github/succinctlabs/sp1-contracts/contracts/src/v3.0.0/Groth16Verifier.sol\":10509:10510  0 */\n      0x00\n        /* \".deps/github/succinctlabs/sp1-contracts/contracts/src/v3.0.0/Groth16Verifier.sol\":10502:10510  return 0 */\n      swap1\n      pop\n      jump(tag_183)\n        /* \".deps/github/succinctlabs/sp1-contracts/contracts/src/v3.0.0/Groth16Verifier.sol\":10431:10522  if (x == 0 && y == 0) {... */\n    tag_187:\n        /* \".deps/github/succinctlabs/sp1-contracts/contracts/src/v3.0.0/Groth16Verifier.sol\":10627:10640  uint256 y_pos */\n      0x00\n        /* \".deps/github/succinctlabs/sp1-contracts/contracts/src/v3.0.0/Groth16Verifier.sol\":10643:10695  sqrt_Fp(addmod(mulmod(mulmod(x, x, P), x, P), 3, P)) */\n      tag_188\n        /* \".deps/github/succinctlabs/sp1-contracts/contracts/src/v3.0.0/Groth16Verifier.sol\":1427:1493  0x30644e72e131a029b85045b68181585d97816a916871ca8d3c208c16d87cfd47 */\n      0x30644e72e131a029b85045b68181585d97816a916871ca8d3c208c16d87cfd47\n        /* \".deps/github/succinctlabs/sp1-contracts/contracts/src/v3.0.0/Groth16Verifier.sol\":10651:10694  addmod(mulmod(mulmod(x, x, P), x, P), 3, P) */\n      dup1\n      tag_189\n      jumpi\n      tag_190\n      tag_191\n      jump\t// in\n    tag_190:\n    tag_189:\n        /* \".deps/github/succinctlabs/sp1-contracts/contracts/src/v3.0.0/Groth16Verifier.sol\":10689:10690  3 */\n      0x03\n        /* \".deps/github/succinctlabs/sp1-contracts/contracts/src/v3.0.0/Groth16Verifier.sol\":1427:1493  0x30644e72e131a029b85045b68181585d97816a916871ca8d3c208c16d87cfd47 */\n      0x30644e72e131a029b85045b68181585d97816a916871ca8d3c208c16d87cfd47\n        /* \".deps/github/succinctlabs/sp1-contracts/contracts/src/v3.0.0/Groth16Verifier.sol\":10658:10687  mulmod(mulmod(x, x, P), x, P) */\n      dup1\n      tag_192\n      jumpi\n      tag_193\n      tag_191\n      jump\t// in\n    tag_193:\n    tag_192:\n        /* \".deps/github/succinctlabs/sp1-contracts/contracts/src/v3.0.0/Groth16Verifier.sol\":10682:10683  x */\n      dup8\n        /* \".deps/github/succinctlabs/sp1-contracts/contracts/src/v3.0.0/Groth16Verifier.sol\":1427:1493  0x30644e72e131a029b85045b68181585d97816a916871ca8d3c208c16d87cfd47 */\n      0x30644e72e131a029b85045b68181585d97816a916871ca8d3c208c16d87cfd47\n        /* \".deps/github/succinctlabs/sp1-contracts/contracts/src/v3.0.0/Groth16Verifier.sol\":10665:10680  mulmod(x, x, P) */\n      dup1\n      tag_194\n      jumpi\n      tag_195\n      tag_191\n      jump\t// in\n    tag_195:\n    tag_194:\n        /* \".deps/github/succinctlabs/sp1-contracts/contracts/src/v3.0.0/Groth16Verifier.sol\":10675:10676  x */\n      dup10\n        /* \".deps/github/succinctlabs/sp1-contracts/contracts/src/v3.0.0/Groth16Verifier.sol\":10672:10673  x */\n      dup11\n        /* \".deps/github/succinctlabs/sp1-contracts/contracts/src/v3.0.0/Groth16Verifier.sol\":10665:10680  mulmod(x, x, P) */\n      mulmod\n        /* \".deps/github/succinctlabs/sp1-contracts/contracts/src/v3.0.0/Groth16Verifier.sol\":10658:10687  mulmod(mulmod(x, x, P), x, P) */\n      mulmod\n        /* \".deps/github/succinctlabs/sp1-contracts/contracts/src/v3.0.0/Groth16Verifier.sol\":10651:10694  addmod(mulmod(mulmod(x, x, P), x, P), 3, P) */\n      addmod\n        /* \".deps/github/succinctlabs/sp1-contracts/contracts/src/v3.0.0/Groth16Verifier.sol\":10643:10650  sqrt_Fp */\n      tag_196\n        /* \".deps/github/succinctlabs/sp1-contracts/contracts/src/v3.0.0/Groth16Verifier.sol\":10643:10695  sqrt_Fp(addmod(mulmod(mulmod(x, x, P), x, P), 3, P)) */\n      jump\t// in\n    tag_188:\n        /* \".deps/github/succinctlabs/sp1-contracts/contracts/src/v3.0.0/Groth16Verifier.sol\":10627:10695  uint256 y_pos = sqrt_Fp(addmod(mulmod(mulmod(x, x, P), x, P), 3, P)) */\n      swap1\n      pop\n        /* \".deps/github/succinctlabs/sp1-contracts/contracts/src/v3.0.0/Groth16Verifier.sol\":10715:10720  y_pos */\n      dup1\n        /* \".deps/github/succinctlabs/sp1-contracts/contracts/src/v3.0.0/Groth16Verifier.sol\":10710:10711  y */\n      dup4\n        /* \".deps/github/succinctlabs/sp1-contracts/contracts/src/v3.0.0/Groth16Verifier.sol\":10710:10720  y == y_pos */\n      sub\n        /* \".deps/github/succinctlabs/sp1-contracts/contracts/src/v3.0.0/Groth16Verifier.sol\":10706:10937  if (y == y_pos) {... */\n      tag_197\n      jumpi\n        /* \".deps/github/succinctlabs/sp1-contracts/contracts/src/v3.0.0/Groth16Verifier.sol\":10755:10756  0 */\n      0x00\n        /* \".deps/github/succinctlabs/sp1-contracts/contracts/src/v3.0.0/Groth16Verifier.sol\":10750:10751  1 */\n      0x01\n        /* \".deps/github/succinctlabs/sp1-contracts/contracts/src/v3.0.0/Groth16Verifier.sol\":10745:10746  x */\n      dup6\n        /* \".deps/github/succinctlabs/sp1-contracts/contracts/src/v3.0.0/Groth16Verifier.sol\":10745:10751  x << 1 */\n      swap1\n      shl\n        /* \".deps/github/succinctlabs/sp1-contracts/contracts/src/v3.0.0/Groth16Verifier.sol\":10744:10756  (x << 1) | 0 */\n      or\n        /* \".deps/github/succinctlabs/sp1-contracts/contracts/src/v3.0.0/Groth16Verifier.sol\":10737:10756  return (x << 1) | 0 */\n      swap2\n      pop\n      pop\n      jump(tag_183)\n        /* \".deps/github/succinctlabs/sp1-contracts/contracts/src/v3.0.0/Groth16Verifier.sol\":10706:10937  if (y == y_pos) {... */\n    tag_197:\n        /* \".deps/github/succinctlabs/sp1-contracts/contracts/src/v3.0.0/Groth16Verifier.sol\":10783:10796  negate(y_pos) */\n      tag_199\n        /* \".deps/github/succinctlabs/sp1-contracts/contracts/src/v3.0.0/Groth16Verifier.sol\":10790:10795  y_pos */\n      dup2\n        /* \".deps/github/succinctlabs/sp1-contracts/contracts/src/v3.0.0/Groth16Verifier.sol\":10783:10789  negate */\n      tag_200\n        /* \".deps/github/succinctlabs/sp1-contracts/contracts/src/v3.0.0/Groth16Verifier.sol\":10783:10796  negate(y_pos) */\n      jump\t// in\n    tag_199:\n        /* \".deps/github/succinctlabs/sp1-contracts/contracts/src/v3.0.0/Groth16Verifier.sol\":10778:10779  y */\n      dup4\n        /* \".deps/github/succinctlabs/sp1-contracts/contracts/src/v3.0.0/Groth16Verifier.sol\":10778:10796  y == negate(y_pos) */\n      sub\n        /* \".deps/github/succinctlabs/sp1-contracts/contracts/src/v3.0.0/Groth16Verifier.sol\":10774:10937  if (y == negate(y_pos)) {... */\n      tag_201\n      jumpi\n        /* \".deps/github/succinctlabs/sp1-contracts/contracts/src/v3.0.0/Groth16Verifier.sol\":10831:10832  1 */\n      0x01\n        /* \".deps/github/succinctlabs/sp1-contracts/contracts/src/v3.0.0/Groth16Verifier.sol\":10826:10827  1 */\n      dup1\n        /* \".deps/github/succinctlabs/sp1-contracts/contracts/src/v3.0.0/Groth16Verifier.sol\":10821:10822  x */\n      dup6\n        /* \".deps/github/succinctlabs/sp1-contracts/contracts/src/v3.0.0/Groth16Verifier.sol\":10821:10827  x << 1 */\n      swap1\n      shl\n        /* \".deps/github/succinctlabs/sp1-contracts/contracts/src/v3.0.0/Groth16Verifier.sol\":10820:10832  (x << 1) | 1 */\n      or\n        /* \".deps/github/succinctlabs/sp1-contracts/contracts/src/v3.0.0/Groth16Verifier.sol\":10813:10832  return (x << 1) | 1 */\n      swap2\n      pop\n      pop\n      jump(tag_183)\n        /* \".deps/github/succinctlabs/sp1-contracts/contracts/src/v3.0.0/Groth16Verifier.sol\":10774:10937  if (y == negate(y_pos)) {... */\n    tag_201:\n        /* \".deps/github/succinctlabs/sp1-contracts/contracts/src/v3.0.0/Groth16Verifier.sol\":10911:10925  ProofInvalid() */\n      mload(0x40)\n      0x7fcdd1f400000000000000000000000000000000000000000000000000000000\n      dup2\n      mstore\n      0x04\n      add\n      mload(0x40)\n      dup1\n      swap2\n      sub\n      swap1\n      revert\n        /* \".deps/github/succinctlabs/sp1-contracts/contracts/src/v3.0.0/Groth16Verifier.sol\":10224:10944  function compress_g1(uint256 x, uint256 y) internal view returns (uint256 c) {... */\n    tag_183:\n      swap3\n      swap2\n      pop\n      pop\n      jump\t// out\n        /* \".deps/github/succinctlabs/sp1-contracts/contracts/src/v3.0.0/Groth16Verifier.sol\":12982:14711  function compress_g2(uint256 x0, uint256 x1, uint256 y0, uint256 y1)... */\n    tag_88:\n        /* \".deps/github/succinctlabs/sp1-contracts/contracts/src/v3.0.0/Groth16Verifier.sol\":13101:13111  uint256 c0 */\n      0x00\n        /* \".deps/github/succinctlabs/sp1-contracts/contracts/src/v3.0.0/Groth16Verifier.sol\":13113:13123  uint256 c1 */\n      0x00\n        /* \".deps/github/succinctlabs/sp1-contracts/contracts/src/v3.0.0/Groth16Verifier.sol\":1427:1493  0x30644e72e131a029b85045b68181585d97816a916871ca8d3c208c16d87cfd47 */\n      0x30644e72e131a029b85045b68181585d97816a916871ca8d3c208c16d87cfd47\n        /* \".deps/github/succinctlabs/sp1-contracts/contracts/src/v3.0.0/Groth16Verifier.sol\":13145:13147  x0 */\n      dup7\n        /* \".deps/github/succinctlabs/sp1-contracts/contracts/src/v3.0.0/Groth16Verifier.sol\":13145:13152  x0 >= P */\n      lt\n      iszero\n        /* \".deps/github/succinctlabs/sp1-contracts/contracts/src/v3.0.0/Groth16Verifier.sol\":13145:13163  x0 >= P || x1 >= P */\n      dup1\n      tag_204\n      jumpi\n      pop\n        /* \".deps/github/succinctlabs/sp1-contracts/contracts/src/v3.0.0/Groth16Verifier.sol\":1427:1493  0x30644e72e131a029b85045b68181585d97816a916871ca8d3c208c16d87cfd47 */\n      0x30644e72e131a029b85045b68181585d97816a916871ca8d3c208c16d87cfd47\n        /* \".deps/github/succinctlabs/sp1-contracts/contracts/src/v3.0.0/Groth16Verifier.sol\":13156:13158  x1 */\n      dup6\n        /* \".deps/github/succinctlabs/sp1-contracts/contracts/src/v3.0.0/Groth16Verifier.sol\":13156:13163  x1 >= P */\n      lt\n      iszero\n        /* \".deps/github/succinctlabs/sp1-contracts/contracts/src/v3.0.0/Groth16Verifier.sol\":13145:13163  x0 >= P || x1 >= P */\n    tag_204:\n        /* \".deps/github/succinctlabs/sp1-contracts/contracts/src/v3.0.0/Groth16Verifier.sol\":13145:13174  x0 >= P || x1 >= P || y0 >= P */\n      dup1\n      tag_205\n      jumpi\n      pop\n        /* \".deps/github/succinctlabs/sp1-contracts/contracts/src/v3.0.0/Groth16Verifier.sol\":1427:1493  0x30644e72e131a029b85045b68181585d97816a916871ca8d3c208c16d87cfd47 */\n      0x30644e72e131a029b85045b68181585d97816a916871ca8d3c208c16d87cfd47\n        /* \".deps/github/succinctlabs/sp1-contracts/contracts/src/v3.0.0/Groth16Verifier.sol\":13167:13169  y0 */\n      dup5\n        /* \".deps/github/succinctlabs/sp1-contracts/contracts/src/v3.0.0/Groth16Verifier.sol\":13167:13174  y0 >= P */\n      lt\n      iszero\n        /* \".deps/github/succinctlabs/sp1-contracts/contracts/src/v3.0.0/Groth16Verifier.sol\":13145:13174  x0 >= P || x1 >= P || y0 >= P */\n    tag_205:\n        /* \".deps/github/succinctlabs/sp1-contracts/contracts/src/v3.0.0/Groth16Verifier.sol\":13145:13185  x0 >= P || x1 >= P || y0 >= P || y1 >= P */\n      dup1\n      tag_206\n      jumpi\n      pop\n        /* \".deps/github/succinctlabs/sp1-contracts/contracts/src/v3.0.0/Groth16Verifier.sol\":1427:1493  0x30644e72e131a029b85045b68181585d97816a916871ca8d3c208c16d87cfd47 */\n      0x30644e72e131a029b85045b68181585d97816a916871ca8d3c208c16d87cfd47\n        /* \".deps/github/succinctlabs/sp1-contracts/contracts/src/v3.0.0/Groth16Verifier.sol\":13178:13180  y1 */\n      dup4\n        /* \".deps/github/succinctlabs/sp1-contracts/contracts/src/v3.0.0/Groth16Verifier.sol\":13178:13185  y1 >= P */\n      lt\n      iszero\n        /* \".deps/github/succinctlabs/sp1-contracts/contracts/src/v3.0.0/Groth16Verifier.sol\":13145:13185  x0 >= P || x1 >= P || y0 >= P || y1 >= P */\n    tag_206:\n        /* \".deps/github/succinctlabs/sp1-contracts/contracts/src/v3.0.0/Groth16Verifier.sol\":13141:13274  if (x0 >= P || x1 >= P || y0 >= P || y1 >= P) {... */\n      iszero\n      tag_207\n      jumpi\n        /* \".deps/github/succinctlabs/sp1-contracts/contracts/src/v3.0.0/Groth16Verifier.sol\":13248:13262  ProofInvalid() */\n      mload(0x40)\n      0x7fcdd1f400000000000000000000000000000000000000000000000000000000\n      dup2\n      mstore\n      0x04\n      add\n      mload(0x40)\n      dup1\n      swap2\n      sub\n      swap1\n      revert\n        /* \".deps/github/succinctlabs/sp1-contracts/contracts/src/v3.0.0/Groth16Verifier.sol\":13141:13274  if (x0 >= P || x1 >= P || y0 >= P || y1 >= P) {... */\n    tag_207:\n        /* \".deps/github/succinctlabs/sp1-contracts/contracts/src/v3.0.0/Groth16Verifier.sol\":13311:13312  0 */\n      0x00\n        /* \".deps/github/succinctlabs/sp1-contracts/contracts/src/v3.0.0/Groth16Verifier.sol\":13304:13306  y1 */\n      dup4\n        /* \".deps/github/succinctlabs/sp1-contracts/contracts/src/v3.0.0/Groth16Verifier.sol\":13299:13301  y0 */\n      dup6\n        /* \".deps/github/succinctlabs/sp1-contracts/contracts/src/v3.0.0/Groth16Verifier.sol\":13294:13296  x1 */\n      dup8\n        /* \".deps/github/succinctlabs/sp1-contracts/contracts/src/v3.0.0/Groth16Verifier.sol\":13289:13291  x0 */\n      dup10\n        /* \".deps/github/succinctlabs/sp1-contracts/contracts/src/v3.0.0/Groth16Verifier.sol\":13289:13296  x0 | x1 */\n      or\n        /* \".deps/github/succinctlabs/sp1-contracts/contracts/src/v3.0.0/Groth16Verifier.sol\":13289:13301  x0 | x1 | y0 */\n      or\n        /* \".deps/github/succinctlabs/sp1-contracts/contracts/src/v3.0.0/Groth16Verifier.sol\":13289:13306  x0 | x1 | y0 | y1 */\n      or\n        /* \".deps/github/succinctlabs/sp1-contracts/contracts/src/v3.0.0/Groth16Verifier.sol\":13288:13312  (x0 | x1 | y0 | y1) == 0 */\n      sub\n        /* \".deps/github/succinctlabs/sp1-contracts/contracts/src/v3.0.0/Groth16Verifier.sol\":13284:13388  if ((x0 | x1 | y0 | y1) == 0) {... */\n      tag_208\n      jumpi\n        /* \".deps/github/succinctlabs/sp1-contracts/contracts/src/v3.0.0/Groth16Verifier.sol\":13371:13372  0 */\n      0x00\n        /* \".deps/github/succinctlabs/sp1-contracts/contracts/src/v3.0.0/Groth16Verifier.sol\":13374:13375  0 */\n      0x00\n        /* \".deps/github/succinctlabs/sp1-contracts/contracts/src/v3.0.0/Groth16Verifier.sol\":13363:13376  return (0, 0) */\n      swap2\n      pop\n      swap2\n      pop\n      jump(tag_203)\n        /* \".deps/github/succinctlabs/sp1-contracts/contracts/src/v3.0.0/Groth16Verifier.sol\":13284:13388  if ((x0 | x1 | y0 | y1) == 0) {... */\n    tag_208:\n        /* \".deps/github/succinctlabs/sp1-contracts/contracts/src/v3.0.0/Groth16Verifier.sol\":13498:13512  uint256 y0_pos */\n      0x00\n        /* \".deps/github/succinctlabs/sp1-contracts/contracts/src/v3.0.0/Groth16Verifier.sol\":13523:13537  uint256 y1_pos */\n      0x00\n        /* \".deps/github/succinctlabs/sp1-contracts/contracts/src/v3.0.0/Groth16Verifier.sol\":13563:13575  uint256 n3ab */\n      0x00\n        /* \".deps/github/succinctlabs/sp1-contracts/contracts/src/v3.0.0/Groth16Verifier.sol\":1427:1493  0x30644e72e131a029b85045b68181585d97816a916871ca8d3c208c16d87cfd47 */\n      0x30644e72e131a029b85045b68181585d97816a916871ca8d3c208c16d87cfd47\n        /* \".deps/github/succinctlabs/sp1-contracts/contracts/src/v3.0.0/Groth16Verifier.sol\":13578:13613  mulmod(mulmod(x0, x1, P), P - 3, P) */\n      dup1\n      tag_209\n      jumpi\n      tag_210\n      tag_191\n      jump\t// in\n    tag_210:\n    tag_209:\n        /* \".deps/github/succinctlabs/sp1-contracts/contracts/src/v3.0.0/Groth16Verifier.sol\":13608:13609  3 */\n      0x03\n        /* \".deps/github/succinctlabs/sp1-contracts/contracts/src/v3.0.0/Groth16Verifier.sol\":1427:1493  0x30644e72e131a029b85045b68181585d97816a916871ca8d3c208c16d87cfd47 */\n      0x30644e72e131a029b85045b68181585d97816a916871ca8d3c208c16d87cfd47\n        /* \".deps/github/succinctlabs/sp1-contracts/contracts/src/v3.0.0/Groth16Verifier.sol\":13604:13609  P - 3 */\n      tag_211\n      swap2\n      swap1\n      tag_212\n      jump\t// in\n    tag_211:\n        /* \".deps/github/succinctlabs/sp1-contracts/contracts/src/v3.0.0/Groth16Verifier.sol\":1427:1493  0x30644e72e131a029b85045b68181585d97816a916871ca8d3c208c16d87cfd47 */\n      0x30644e72e131a029b85045b68181585d97816a916871ca8d3c208c16d87cfd47\n        /* \".deps/github/succinctlabs/sp1-contracts/contracts/src/v3.0.0/Groth16Verifier.sol\":13585:13602  mulmod(x0, x1, P) */\n      dup1\n      tag_213\n      jumpi\n      tag_214\n      tag_191\n      jump\t// in\n    tag_214:\n    tag_213:\n        /* \".deps/github/succinctlabs/sp1-contracts/contracts/src/v3.0.0/Groth16Verifier.sol\":13596:13598  x1 */\n      dup11\n        /* \".deps/github/succinctlabs/sp1-contracts/contracts/src/v3.0.0/Groth16Verifier.sol\":13592:13594  x0 */\n      dup13\n        /* \".deps/github/succinctlabs/sp1-contracts/contracts/src/v3.0.0/Groth16Verifier.sol\":13585:13602  mulmod(x0, x1, P) */\n      mulmod\n        /* \".deps/github/succinctlabs/sp1-contracts/contracts/src/v3.0.0/Groth16Verifier.sol\":13578:13613  mulmod(mulmod(x0, x1, P), P - 3, P) */\n      mulmod\n        /* \".deps/github/succinctlabs/sp1-contracts/contracts/src/v3.0.0/Groth16Verifier.sol\":13563:13613  uint256 n3ab = mulmod(mulmod(x0, x1, P), P - 3, P) */\n      swap1\n      pop\n        /* \".deps/github/succinctlabs/sp1-contracts/contracts/src/v3.0.0/Groth16Verifier.sol\":13628:13639  uint256 a_3 */\n      0x00\n        /* \".deps/github/succinctlabs/sp1-contracts/contracts/src/v3.0.0/Groth16Verifier.sol\":1427:1493  0x30644e72e131a029b85045b68181585d97816a916871ca8d3c208c16d87cfd47 */\n      0x30644e72e131a029b85045b68181585d97816a916871ca8d3c208c16d87cfd47\n        /* \".deps/github/succinctlabs/sp1-contracts/contracts/src/v3.0.0/Groth16Verifier.sol\":13642:13674  mulmod(mulmod(x0, x0, P), x0, P) */\n      dup1\n      tag_215\n      jumpi\n      tag_216\n      tag_191\n      jump\t// in\n    tag_216:\n    tag_215:\n        /* \".deps/github/succinctlabs/sp1-contracts/contracts/src/v3.0.0/Groth16Verifier.sol\":13668:13670  x0 */\n      dup11\n        /* \".deps/github/succinctlabs/sp1-contracts/contracts/src/v3.0.0/Groth16Verifier.sol\":1427:1493  0x30644e72e131a029b85045b68181585d97816a916871ca8d3c208c16d87cfd47 */\n      0x30644e72e131a029b85045b68181585d97816a916871ca8d3c208c16d87cfd47\n        /* \".deps/github/succinctlabs/sp1-contracts/contracts/src/v3.0.0/Groth16Verifier.sol\":13649:13666  mulmod(x0, x0, P) */\n      dup1\n      tag_217\n      jumpi\n      tag_218\n      tag_191\n      jump\t// in\n    tag_218:\n    tag_217:\n        /* \".deps/github/succinctlabs/sp1-contracts/contracts/src/v3.0.0/Groth16Verifier.sol\":13660:13662  x0 */\n      dup13\n        /* \".deps/github/succinctlabs/sp1-contracts/contracts/src/v3.0.0/Groth16Verifier.sol\":13656:13658  x0 */\n      dup14\n        /* \".deps/github/succinctlabs/sp1-contracts/contracts/src/v3.0.0/Groth16Verifier.sol\":13649:13666  mulmod(x0, x0, P) */\n      mulmod\n        /* \".deps/github/succinctlabs/sp1-contracts/contracts/src/v3.0.0/Groth16Verifier.sol\":13642:13674  mulmod(mulmod(x0, x0, P), x0, P) */\n      mulmod\n        /* \".deps/github/succinctlabs/sp1-contracts/contracts/src/v3.0.0/Groth16Verifier.sol\":13628:13674  uint256 a_3 = mulmod(mulmod(x0, x0, P), x0, P) */\n      swap1\n      pop\n        /* \".deps/github/succinctlabs/sp1-contracts/contracts/src/v3.0.0/Groth16Verifier.sol\":13689:13700  uint256 b_3 */\n      0x00\n        /* \".deps/github/succinctlabs/sp1-contracts/contracts/src/v3.0.0/Groth16Verifier.sol\":1427:1493  0x30644e72e131a029b85045b68181585d97816a916871ca8d3c208c16d87cfd47 */\n      0x30644e72e131a029b85045b68181585d97816a916871ca8d3c208c16d87cfd47\n        /* \".deps/github/succinctlabs/sp1-contracts/contracts/src/v3.0.0/Groth16Verifier.sol\":13703:13735  mulmod(mulmod(x1, x1, P), x1, P) */\n      dup1\n      tag_219\n      jumpi\n      tag_220\n      tag_191\n      jump\t// in\n    tag_220:\n    tag_219:\n        /* \".deps/github/succinctlabs/sp1-contracts/contracts/src/v3.0.0/Groth16Verifier.sol\":13729:13731  x1 */\n      dup11\n        /* \".deps/github/succinctlabs/sp1-contracts/contracts/src/v3.0.0/Groth16Verifier.sol\":1427:1493  0x30644e72e131a029b85045b68181585d97816a916871ca8d3c208c16d87cfd47 */\n      0x30644e72e131a029b85045b68181585d97816a916871ca8d3c208c16d87cfd47\n        /* \".deps/github/succinctlabs/sp1-contracts/contracts/src/v3.0.0/Groth16Verifier.sol\":13710:13727  mulmod(x1, x1, P) */\n      dup1\n      tag_221\n      jumpi\n      tag_222\n      tag_191\n      jump\t// in\n    tag_222:\n    tag_221:\n        /* \".deps/github/succinctlabs/sp1-contracts/contracts/src/v3.0.0/Groth16Verifier.sol\":13721:13723  x1 */\n      dup13\n        /* \".deps/github/succinctlabs/sp1-contracts/contracts/src/v3.0.0/Groth16Verifier.sol\":13717:13719  x1 */\n      dup14\n        /* \".deps/github/succinctlabs/sp1-contracts/contracts/src/v3.0.0/Groth16Verifier.sol\":13710:13727  mulmod(x1, x1, P) */\n      mulmod\n        /* \".deps/github/succinctlabs/sp1-contracts/contracts/src/v3.0.0/Groth16Verifier.sol\":13703:13735  mulmod(mulmod(x1, x1, P), x1, P) */\n      mulmod\n        /* \".deps/github/succinctlabs/sp1-contracts/contracts/src/v3.0.0/Groth16Verifier.sol\":13689:13735  uint256 b_3 = mulmod(mulmod(x1, x1, P), x1, P) */\n      swap1\n      pop\n        /* \".deps/github/succinctlabs/sp1-contracts/contracts/src/v3.0.0/Groth16Verifier.sol\":1427:1493  0x30644e72e131a029b85045b68181585d97816a916871ca8d3c208c16d87cfd47 */\n      0x30644e72e131a029b85045b68181585d97816a916871ca8d3c208c16d87cfd47\n        /* \".deps/github/succinctlabs/sp1-contracts/contracts/src/v3.0.0/Groth16Verifier.sol\":13759:13824  addmod(FRACTION_27_82_FP, addmod(a_3, mulmod(n3ab, x1, P), P), P) */\n      dup1\n      tag_223\n      jumpi\n      tag_224\n      tag_191\n      jump\t// in\n    tag_224:\n    tag_223:\n        /* \".deps/github/succinctlabs/sp1-contracts/contracts/src/v3.0.0/Groth16Verifier.sol\":1427:1493  0x30644e72e131a029b85045b68181585d97816a916871ca8d3c208c16d87cfd47 */\n      0x30644e72e131a029b85045b68181585d97816a916871ca8d3c208c16d87cfd47\n        /* \".deps/github/succinctlabs/sp1-contracts/contracts/src/v3.0.0/Groth16Verifier.sol\":13785:13820  addmod(a_3, mulmod(n3ab, x1, P), P) */\n      dup1\n      tag_225\n      jumpi\n      tag_226\n      tag_191\n      jump\t// in\n    tag_226:\n    tag_225:\n        /* \".deps/github/succinctlabs/sp1-contracts/contracts/src/v3.0.0/Groth16Verifier.sol\":1427:1493  0x30644e72e131a029b85045b68181585d97816a916871ca8d3c208c16d87cfd47 */\n      0x30644e72e131a029b85045b68181585d97816a916871ca8d3c208c16d87cfd47\n        /* \".deps/github/succinctlabs/sp1-contracts/contracts/src/v3.0.0/Groth16Verifier.sol\":13797:13816  mulmod(n3ab, x1, P) */\n      dup1\n      tag_227\n      jumpi\n      tag_228\n      tag_191\n      jump\t// in\n    tag_228:\n    tag_227:\n        /* \".deps/github/succinctlabs/sp1-contracts/contracts/src/v3.0.0/Groth16Verifier.sol\":13810:13812  x1 */\n      dup13\n        /* \".deps/github/succinctlabs/sp1-contracts/contracts/src/v3.0.0/Groth16Verifier.sol\":13804:13808  n3ab */\n      dup7\n        /* \".deps/github/succinctlabs/sp1-contracts/contracts/src/v3.0.0/Groth16Verifier.sol\":13797:13816  mulmod(n3ab, x1, P) */\n      mulmod\n        /* \".deps/github/succinctlabs/sp1-contracts/contracts/src/v3.0.0/Groth16Verifier.sol\":13792:13795  a_3 */\n      dup5\n        /* \".deps/github/succinctlabs/sp1-contracts/contracts/src/v3.0.0/Groth16Verifier.sol\":13785:13820  addmod(a_3, mulmod(n3ab, x1, P), P) */\n      addmod\n        /* \".deps/github/succinctlabs/sp1-contracts/contracts/src/v3.0.0/Groth16Verifier.sol\":2276:2342  0x2b149d40ceb8aaae81be18991be06ac3b5b4c5e559dbefa33267e6dc24a138e5 */\n      0x2b149d40ceb8aaae81be18991be06ac3b5b4c5e559dbefa33267e6dc24a138e5\n        /* \".deps/github/succinctlabs/sp1-contracts/contracts/src/v3.0.0/Groth16Verifier.sol\":13759:13824  addmod(FRACTION_27_82_FP, addmod(a_3, mulmod(n3ab, x1, P), P), P) */\n      addmod\n        /* \".deps/github/succinctlabs/sp1-contracts/contracts/src/v3.0.0/Groth16Verifier.sol\":13750:13824  y0_pos = addmod(FRACTION_27_82_FP, addmod(a_3, mulmod(n3ab, x1, P), P), P) */\n      swap5\n      pop\n        /* \".deps/github/succinctlabs/sp1-contracts/contracts/src/v3.0.0/Groth16Verifier.sol\":13848:13920  negate(addmod(FRACTION_3_82_FP, addmod(b_3, mulmod(n3ab, x0, P), P), P)) */\n      tag_229\n        /* \".deps/github/succinctlabs/sp1-contracts/contracts/src/v3.0.0/Groth16Verifier.sol\":1427:1493  0x30644e72e131a029b85045b68181585d97816a916871ca8d3c208c16d87cfd47 */\n      0x30644e72e131a029b85045b68181585d97816a916871ca8d3c208c16d87cfd47\n        /* \".deps/github/succinctlabs/sp1-contracts/contracts/src/v3.0.0/Groth16Verifier.sol\":13855:13919  addmod(FRACTION_3_82_FP, addmod(b_3, mulmod(n3ab, x0, P), P), P) */\n      dup1\n      tag_230\n      jumpi\n      tag_231\n      tag_191\n      jump\t// in\n    tag_231:\n    tag_230:\n        /* \".deps/github/succinctlabs/sp1-contracts/contracts/src/v3.0.0/Groth16Verifier.sol\":1427:1493  0x30644e72e131a029b85045b68181585d97816a916871ca8d3c208c16d87cfd47 */\n      0x30644e72e131a029b85045b68181585d97816a916871ca8d3c208c16d87cfd47\n        /* \".deps/github/succinctlabs/sp1-contracts/contracts/src/v3.0.0/Groth16Verifier.sol\":13880:13915  addmod(b_3, mulmod(n3ab, x0, P), P) */\n      dup1\n      tag_232\n      jumpi\n      tag_233\n      tag_191\n      jump\t// in\n    tag_233:\n    tag_232:\n        /* \".deps/github/succinctlabs/sp1-contracts/contracts/src/v3.0.0/Groth16Verifier.sol\":1427:1493  0x30644e72e131a029b85045b68181585d97816a916871ca8d3c208c16d87cfd47 */\n      0x30644e72e131a029b85045b68181585d97816a916871ca8d3c208c16d87cfd47\n        /* \".deps/github/succinctlabs/sp1-contracts/contracts/src/v3.0.0/Groth16Verifier.sol\":13892:13911  mulmod(n3ab, x0, P) */\n      dup1\n      tag_234\n      jumpi\n      tag_235\n      tag_191\n      jump\t// in\n    tag_235:\n    tag_234:\n        /* \".deps/github/succinctlabs/sp1-contracts/contracts/src/v3.0.0/Groth16Verifier.sol\":13905:13907  x0 */\n      dup15\n        /* \".deps/github/succinctlabs/sp1-contracts/contracts/src/v3.0.0/Groth16Verifier.sol\":13899:13903  n3ab */\n      dup8\n        /* \".deps/github/succinctlabs/sp1-contracts/contracts/src/v3.0.0/Groth16Verifier.sol\":13892:13911  mulmod(n3ab, x0, P) */\n      mulmod\n        /* \".deps/github/succinctlabs/sp1-contracts/contracts/src/v3.0.0/Groth16Verifier.sol\":13887:13890  b_3 */\n      dup5\n        /* \".deps/github/succinctlabs/sp1-contracts/contracts/src/v3.0.0/Groth16Verifier.sol\":13880:13915  addmod(b_3, mulmod(n3ab, x0, P), P) */\n      addmod\n        /* \".deps/github/succinctlabs/sp1-contracts/contracts/src/v3.0.0/Groth16Verifier.sol\":2394:2460  0x2fcd3ac2a640a154eb23960892a85a68f031ca0c8344b23a577dcf1052b9e775 */\n      0x2fcd3ac2a640a154eb23960892a85a68f031ca0c8344b23a577dcf1052b9e775\n        /* \".deps/github/succinctlabs/sp1-contracts/contracts/src/v3.0.0/Groth16Verifier.sol\":13855:13919  addmod(FRACTION_3_82_FP, addmod(b_3, mulmod(n3ab, x0, P), P), P) */\n      addmod\n        /* \".deps/github/succinctlabs/sp1-contracts/contracts/src/v3.0.0/Groth16Verifier.sol\":13848:13854  negate */\n      tag_200\n        /* \".deps/github/succinctlabs/sp1-contracts/contracts/src/v3.0.0/Groth16Verifier.sol\":13848:13920  negate(addmod(FRACTION_3_82_FP, addmod(b_3, mulmod(n3ab, x0, P), P), P)) */\n      jump\t// in\n    tag_229:\n        /* \".deps/github/succinctlabs/sp1-contracts/contracts/src/v3.0.0/Groth16Verifier.sol\":13839:13920  y1_pos = negate(addmod(FRACTION_3_82_FP, addmod(b_3, mulmod(n3ab, x0, P), P), P)) */\n      swap4\n      pop\n        /* \".deps/github/succinctlabs/sp1-contracts/contracts/src/v3.0.0/Groth16Verifier.sol\":13548:13932  {... */\n      pop\n      pop\n      pop\n        /* \".deps/github/succinctlabs/sp1-contracts/contracts/src/v3.0.0/Groth16Verifier.sol\":14044:14053  bool hint */\n      0x00\n        /* \".deps/github/succinctlabs/sp1-contracts/contracts/src/v3.0.0/Groth16Verifier.sol\":14079:14088  uint256 d */\n      0x00\n        /* \".deps/github/succinctlabs/sp1-contracts/contracts/src/v3.0.0/Groth16Verifier.sol\":14091:14163  sqrt_Fp(addmod(mulmod(y0_pos, y0_pos, P), mulmod(y1_pos, y1_pos, P), P)) */\n      tag_236\n        /* \".deps/github/succinctlabs/sp1-contracts/contracts/src/v3.0.0/Groth16Verifier.sol\":1427:1493  0x30644e72e131a029b85045b68181585d97816a916871ca8d3c208c16d87cfd47 */\n      0x30644e72e131a029b85045b68181585d97816a916871ca8d3c208c16d87cfd47\n        /* \".deps/github/succinctlabs/sp1-contracts/contracts/src/v3.0.0/Groth16Verifier.sol\":14099:14162  addmod(mulmod(y0_pos, y0_pos, P), mulmod(y1_pos, y1_pos, P), P) */\n      dup1\n      tag_237\n      jumpi\n      tag_238\n      tag_191\n      jump\t// in\n    tag_238:\n    tag_237:\n        /* \".deps/github/succinctlabs/sp1-contracts/contracts/src/v3.0.0/Groth16Verifier.sol\":1427:1493  0x30644e72e131a029b85045b68181585d97816a916871ca8d3c208c16d87cfd47 */\n      0x30644e72e131a029b85045b68181585d97816a916871ca8d3c208c16d87cfd47\n        /* \".deps/github/succinctlabs/sp1-contracts/contracts/src/v3.0.0/Groth16Verifier.sol\":14133:14158  mulmod(y1_pos, y1_pos, P) */\n      dup1\n      tag_239\n      jumpi\n      tag_240\n      tag_191\n      jump\t// in\n    tag_240:\n    tag_239:\n        /* \".deps/github/succinctlabs/sp1-contracts/contracts/src/v3.0.0/Groth16Verifier.sol\":14148:14154  y1_pos */\n      dup6\n        /* \".deps/github/succinctlabs/sp1-contracts/contracts/src/v3.0.0/Groth16Verifier.sol\":14140:14146  y1_pos */\n      dup7\n        /* \".deps/github/succinctlabs/sp1-contracts/contracts/src/v3.0.0/Groth16Verifier.sol\":14133:14158  mulmod(y1_pos, y1_pos, P) */\n      mulmod\n        /* \".deps/github/succinctlabs/sp1-contracts/contracts/src/v3.0.0/Groth16Verifier.sol\":1427:1493  0x30644e72e131a029b85045b68181585d97816a916871ca8d3c208c16d87cfd47 */\n      0x30644e72e131a029b85045b68181585d97816a916871ca8d3c208c16d87cfd47\n        /* \".deps/github/succinctlabs/sp1-contracts/contracts/src/v3.0.0/Groth16Verifier.sol\":14106:14131  mulmod(y0_pos, y0_pos, P) */\n      dup1\n      tag_241\n      jumpi\n      tag_242\n      tag_191\n      jump\t// in\n    tag_242:\n    tag_241:\n        /* \".deps/github/succinctlabs/sp1-contracts/contracts/src/v3.0.0/Groth16Verifier.sol\":14121:14127  y0_pos */\n      dup8\n        /* \".deps/github/succinctlabs/sp1-contracts/contracts/src/v3.0.0/Groth16Verifier.sol\":14113:14119  y0_pos */\n      dup9\n        /* \".deps/github/succinctlabs/sp1-contracts/contracts/src/v3.0.0/Groth16Verifier.sol\":14106:14131  mulmod(y0_pos, y0_pos, P) */\n      mulmod\n        /* \".deps/github/succinctlabs/sp1-contracts/contracts/src/v3.0.0/Groth16Verifier.sol\":14099:14162  addmod(mulmod(y0_pos, y0_pos, P), mulmod(y1_pos, y1_pos, P), P) */\n      addmod\n        /* \".deps/github/succinctlabs/sp1-contracts/contracts/src/v3.0.0/Groth16Verifier.sol\":14091:14098  sqrt_Fp */\n      tag_196\n        /* \".deps/github/succinctlabs/sp1-contracts/contracts/src/v3.0.0/Groth16Verifier.sol\":14091:14163  sqrt_Fp(addmod(mulmod(y0_pos, y0_pos, P), mulmod(y1_pos, y1_pos, P), P)) */\n      jump\t// in\n    tag_236:\n        /* \".deps/github/succinctlabs/sp1-contracts/contracts/src/v3.0.0/Groth16Verifier.sol\":14079:14163  uint256 d = sqrt_Fp(addmod(mulmod(y0_pos, y0_pos, P), mulmod(y1_pos, y1_pos, P), P)) */\n      swap1\n      pop\n        /* \".deps/github/succinctlabs/sp1-contracts/contracts/src/v3.0.0/Groth16Verifier.sol\":14186:14247  isSquare_Fp(mulmod(addmod(y0_pos, d, P), FRACTION_1_2_FP, P)) */\n      tag_243\n        /* \".deps/github/succinctlabs/sp1-contracts/contracts/src/v3.0.0/Groth16Verifier.sol\":1427:1493  0x30644e72e131a029b85045b68181585d97816a916871ca8d3c208c16d87cfd47 */\n      0x30644e72e131a029b85045b68181585d97816a916871ca8d3c208c16d87cfd47\n        /* \".deps/github/succinctlabs/sp1-contracts/contracts/src/v3.0.0/Groth16Verifier.sol\":14198:14246  mulmod(addmod(y0_pos, d, P), FRACTION_1_2_FP, P) */\n      dup1\n      tag_244\n      jumpi\n      tag_245\n      tag_191\n      jump\t// in\n    tag_245:\n    tag_244:\n        /* \".deps/github/succinctlabs/sp1-contracts/contracts/src/v3.0.0/Groth16Verifier.sol\":2157:2223  0x183227397098d014dc2822db40c0ac2ecbc0b548b438e5469e10460b6c3e7ea4 */\n      0x183227397098d014dc2822db40c0ac2ecbc0b548b438e5469e10460b6c3e7ea4\n        /* \".deps/github/succinctlabs/sp1-contracts/contracts/src/v3.0.0/Groth16Verifier.sol\":1427:1493  0x30644e72e131a029b85045b68181585d97816a916871ca8d3c208c16d87cfd47 */\n      0x30644e72e131a029b85045b68181585d97816a916871ca8d3c208c16d87cfd47\n        /* \".deps/github/succinctlabs/sp1-contracts/contracts/src/v3.0.0/Groth16Verifier.sol\":14205:14225  addmod(y0_pos, d, P) */\n      dup1\n      tag_246\n      jumpi\n      tag_247\n      tag_191\n      jump\t// in\n    tag_247:\n    tag_246:\n        /* \".deps/github/succinctlabs/sp1-contracts/contracts/src/v3.0.0/Groth16Verifier.sol\":14220:14221  d */\n      dup5\n        /* \".deps/github/succinctlabs/sp1-contracts/contracts/src/v3.0.0/Groth16Verifier.sol\":14212:14218  y0_pos */\n      dup9\n        /* \".deps/github/succinctlabs/sp1-contracts/contracts/src/v3.0.0/Groth16Verifier.sol\":14205:14225  addmod(y0_pos, d, P) */\n      addmod\n        /* \".deps/github/succinctlabs/sp1-contracts/contracts/src/v3.0.0/Groth16Verifier.sol\":14198:14246  mulmod(addmod(y0_pos, d, P), FRACTION_1_2_FP, P) */\n      mulmod\n        /* \".deps/github/succinctlabs/sp1-contracts/contracts/src/v3.0.0/Groth16Verifier.sol\":14186:14197  isSquare_Fp */\n      tag_248\n        /* \".deps/github/succinctlabs/sp1-contracts/contracts/src/v3.0.0/Groth16Verifier.sol\":14186:14247  isSquare_Fp(mulmod(addmod(y0_pos, d, P), FRACTION_1_2_FP, P)) */\n      jump\t// in\n    tag_243:\n        /* \".deps/github/succinctlabs/sp1-contracts/contracts/src/v3.0.0/Groth16Verifier.sol\":14185:14247  !isSquare_Fp(mulmod(addmod(y0_pos, d, P), FRACTION_1_2_FP, P)) */\n      iszero\n        /* \".deps/github/succinctlabs/sp1-contracts/contracts/src/v3.0.0/Groth16Verifier.sol\":14178:14247  hint = !isSquare_Fp(mulmod(addmod(y0_pos, d, P), FRACTION_1_2_FP, P)) */\n      swap2\n      pop\n        /* \".deps/github/succinctlabs/sp1-contracts/contracts/src/v3.0.0/Groth16Verifier.sol\":14064:14259  {... */\n      pop\n        /* \".deps/github/succinctlabs/sp1-contracts/contracts/src/v3.0.0/Groth16Verifier.sol\":14312:14342  sqrt_Fp2(y0_pos, y1_pos, hint) */\n      tag_249\n        /* \".deps/github/succinctlabs/sp1-contracts/contracts/src/v3.0.0/Groth16Verifier.sol\":14321:14327  y0_pos */\n      dup4\n        /* \".deps/github/succinctlabs/sp1-contracts/contracts/src/v3.0.0/Groth16Verifier.sol\":14329:14335  y1_pos */\n      dup4\n        /* \".deps/github/succinctlabs/sp1-contracts/contracts/src/v3.0.0/Groth16Verifier.sol\":14337:14341  hint */\n      dup4\n        /* \".deps/github/succinctlabs/sp1-contracts/contracts/src/v3.0.0/Groth16Verifier.sol\":14312:14320  sqrt_Fp2 */\n      tag_250\n        /* \".deps/github/succinctlabs/sp1-contracts/contracts/src/v3.0.0/Groth16Verifier.sol\":14312:14342  sqrt_Fp2(y0_pos, y1_pos, hint) */\n      jump\t// in\n    tag_249:\n        /* \".deps/github/succinctlabs/sp1-contracts/contracts/src/v3.0.0/Groth16Verifier.sol\":14293:14342  (y0_pos, y1_pos) = sqrt_Fp2(y0_pos, y1_pos, hint) */\n      dup1\n      swap4\n      pop\n      dup2\n      swap5\n      pop\n      pop\n      pop\n        /* \".deps/github/succinctlabs/sp1-contracts/contracts/src/v3.0.0/Groth16Verifier.sol\":14363:14369  y0_pos */\n      dup3\n        /* \".deps/github/succinctlabs/sp1-contracts/contracts/src/v3.0.0/Groth16Verifier.sol\":14357:14359  y0 */\n      dup8\n        /* \".deps/github/succinctlabs/sp1-contracts/contracts/src/v3.0.0/Groth16Verifier.sol\":14357:14369  y0 == y0_pos */\n      eq\n        /* \".deps/github/succinctlabs/sp1-contracts/contracts/src/v3.0.0/Groth16Verifier.sol\":14357:14385  y0 == y0_pos && y1 == y1_pos */\n      dup1\n      iszero\n      tag_251\n      jumpi\n      pop\n        /* \".deps/github/succinctlabs/sp1-contracts/contracts/src/v3.0.0/Groth16Verifier.sol\":14379:14385  y1_pos */\n      dup2\n        /* \".deps/github/succinctlabs/sp1-contracts/contracts/src/v3.0.0/Groth16Verifier.sol\":14373:14375  y1 */\n      dup7\n        /* \".deps/github/succinctlabs/sp1-contracts/contracts/src/v3.0.0/Groth16Verifier.sol\":14373:14385  y1 == y1_pos */\n      eq\n        /* \".deps/github/succinctlabs/sp1-contracts/contracts/src/v3.0.0/Groth16Verifier.sol\":14357:14385  y0 == y0_pos && y1 == y1_pos */\n    tag_251:\n        /* \".deps/github/succinctlabs/sp1-contracts/contracts/src/v3.0.0/Groth16Verifier.sol\":14353:14704  if (y0 == y0_pos && y1 == y1_pos) {... */\n      iszero\n      tag_252\n      jumpi\n        /* \".deps/github/succinctlabs/sp1-contracts/contracts/src/v3.0.0/Groth16Verifier.sol\":14436:14437  0 */\n      0x00\n        /* \".deps/github/succinctlabs/sp1-contracts/contracts/src/v3.0.0/Groth16Verifier.sol\":14420:14424  hint */\n      dup2\n        /* \".deps/github/succinctlabs/sp1-contracts/contracts/src/v3.0.0/Groth16Verifier.sol\":14420:14432  hint ? 2 : 0 */\n      tag_253\n      jumpi\n        /* \".deps/github/succinctlabs/sp1-contracts/contracts/src/v3.0.0/Groth16Verifier.sol\":14431:14432  0 */\n      0x00\n        /* \".deps/github/succinctlabs/sp1-contracts/contracts/src/v3.0.0/Groth16Verifier.sol\":14420:14432  hint ? 2 : 0 */\n      jump(tag_254)\n    tag_253:\n        /* \".deps/github/succinctlabs/sp1-contracts/contracts/src/v3.0.0/Groth16Verifier.sol\":14427:14428  2 */\n      0x02\n        /* \".deps/github/succinctlabs/sp1-contracts/contracts/src/v3.0.0/Groth16Verifier.sol\":14420:14432  hint ? 2 : 0 */\n    tag_254:\n        /* \".deps/github/succinctlabs/sp1-contracts/contracts/src/v3.0.0/Groth16Verifier.sol\":14407:14433  (x0 << 2) | (hint ? 2 : 0) */\n      0xff\n      and\n        /* \".deps/github/succinctlabs/sp1-contracts/contracts/src/v3.0.0/Groth16Verifier.sol\":14414:14415  2 */\n      0x02\n        /* \".deps/github/succinctlabs/sp1-contracts/contracts/src/v3.0.0/Groth16Verifier.sol\":14408:14410  x0 */\n      dup12\n        /* \".deps/github/succinctlabs/sp1-contracts/contracts/src/v3.0.0/Groth16Verifier.sol\":14408:14415  x0 << 2 */\n      swap1\n      shl\n        /* \".deps/github/succinctlabs/sp1-contracts/contracts/src/v3.0.0/Groth16Verifier.sol\":14407:14433  (x0 << 2) | (hint ? 2 : 0) */\n      or\n        /* \".deps/github/succinctlabs/sp1-contracts/contracts/src/v3.0.0/Groth16Verifier.sol\":14407:14437  (x0 << 2) | (hint ? 2 : 0) | 0 */\n      or\n        /* \".deps/github/succinctlabs/sp1-contracts/contracts/src/v3.0.0/Groth16Verifier.sol\":14402:14437  c0 = (x0 << 2) | (hint ? 2 : 0) | 0 */\n      swap5\n      pop\n        /* \".deps/github/succinctlabs/sp1-contracts/contracts/src/v3.0.0/Groth16Verifier.sol\":14457:14459  x1 */\n      dup8\n        /* \".deps/github/succinctlabs/sp1-contracts/contracts/src/v3.0.0/Groth16Verifier.sol\":14452:14459  c1 = x1 */\n      swap4\n      pop\n        /* \".deps/github/succinctlabs/sp1-contracts/contracts/src/v3.0.0/Groth16Verifier.sol\":14353:14704  if (y0 == y0_pos && y1 == y1_pos) {... */\n      jump(tag_255)\n    tag_252:\n        /* \".deps/github/succinctlabs/sp1-contracts/contracts/src/v3.0.0/Groth16Verifier.sol\":14487:14501  negate(y0_pos) */\n      tag_256\n        /* \".deps/github/succinctlabs/sp1-contracts/contracts/src/v3.0.0/Groth16Verifier.sol\":14494:14500  y0_pos */\n      dup4\n        /* \".deps/github/succinctlabs/sp1-contracts/contracts/src/v3.0.0/Groth16Verifier.sol\":14487:14493  negate */\n      tag_200\n        /* \".deps/github/succinctlabs/sp1-contracts/contracts/src/v3.0.0/Groth16Verifier.sol\":14487:14501  negate(y0_pos) */\n      jump\t// in\n    tag_256:\n        /* \".deps/github/succinctlabs/sp1-contracts/contracts/src/v3.0.0/Groth16Verifier.sol\":14481:14483  y0 */\n      dup8\n        /* \".deps/github/succinctlabs/sp1-contracts/contracts/src/v3.0.0/Groth16Verifier.sol\":14481:14501  y0 == negate(y0_pos) */\n      eq\n        /* \".deps/github/succinctlabs/sp1-contracts/contracts/src/v3.0.0/Groth16Verifier.sol\":14481:14525  y0 == negate(y0_pos) && y1 == negate(y1_pos) */\n      dup1\n      iszero\n      tag_257\n      jumpi\n      pop\n        /* \".deps/github/succinctlabs/sp1-contracts/contracts/src/v3.0.0/Groth16Verifier.sol\":14511:14525  negate(y1_pos) */\n      tag_258\n        /* \".deps/github/succinctlabs/sp1-contracts/contracts/src/v3.0.0/Groth16Verifier.sol\":14518:14524  y1_pos */\n      dup3\n        /* \".deps/github/succinctlabs/sp1-contracts/contracts/src/v3.0.0/Groth16Verifier.sol\":14511:14517  negate */\n      tag_200\n        /* \".deps/github/succinctlabs/sp1-contracts/contracts/src/v3.0.0/Groth16Verifier.sol\":14511:14525  negate(y1_pos) */\n      jump\t// in\n    tag_258:\n        /* \".deps/github/succinctlabs/sp1-contracts/contracts/src/v3.0.0/Groth16Verifier.sol\":14505:14507  y1 */\n      dup7\n        /* \".deps/github/succinctlabs/sp1-contracts/contracts/src/v3.0.0/Groth16Verifier.sol\":14505:14525  y1 == negate(y1_pos) */\n      eq\n        /* \".deps/github/succinctlabs/sp1-contracts/contracts/src/v3.0.0/Groth16Verifier.sol\":14481:14525  y0 == negate(y0_pos) && y1 == negate(y1_pos) */\n    tag_257:\n        /* \".deps/github/succinctlabs/sp1-contracts/contracts/src/v3.0.0/Groth16Verifier.sol\":14477:14704  if (y0 == negate(y0_pos) && y1 == negate(y1_pos)) {... */\n      iszero\n      tag_259\n      jumpi\n        /* \".deps/github/succinctlabs/sp1-contracts/contracts/src/v3.0.0/Groth16Verifier.sol\":14576:14577  1 */\n      0x01\n        /* \".deps/github/succinctlabs/sp1-contracts/contracts/src/v3.0.0/Groth16Verifier.sol\":14560:14564  hint */\n      dup2\n        /* \".deps/github/succinctlabs/sp1-contracts/contracts/src/v3.0.0/Groth16Verifier.sol\":14560:14572  hint ? 2 : 0 */\n      tag_260\n      jumpi\n        /* \".deps/github/succinctlabs/sp1-contracts/contracts/src/v3.0.0/Groth16Verifier.sol\":14571:14572  0 */\n      0x00\n        /* \".deps/github/succinctlabs/sp1-contracts/contracts/src/v3.0.0/Groth16Verifier.sol\":14560:14572  hint ? 2 : 0 */\n      jump(tag_261)\n    tag_260:\n        /* \".deps/github/succinctlabs/sp1-contracts/contracts/src/v3.0.0/Groth16Verifier.sol\":14567:14568  2 */\n      0x02\n        /* \".deps/github/succinctlabs/sp1-contracts/contracts/src/v3.0.0/Groth16Verifier.sol\":14560:14572  hint ? 2 : 0 */\n    tag_261:\n        /* \".deps/github/succinctlabs/sp1-contracts/contracts/src/v3.0.0/Groth16Verifier.sol\":14547:14573  (x0 << 2) | (hint ? 2 : 0) */\n      0xff\n      and\n        /* \".deps/github/succinctlabs/sp1-contracts/contracts/src/v3.0.0/Groth16Verifier.sol\":14554:14555  2 */\n      0x02\n        /* \".deps/github/succinctlabs/sp1-contracts/contracts/src/v3.0.0/Groth16Verifier.sol\":14548:14550  x0 */\n      dup12\n        /* \".deps/github/succinctlabs/sp1-contracts/contracts/src/v3.0.0/Groth16Verifier.sol\":14548:14555  x0 << 2 */\n      swap1\n      shl\n        /* \".deps/github/succinctlabs/sp1-contracts/contracts/src/v3.0.0/Groth16Verifier.sol\":14547:14573  (x0 << 2) | (hint ? 2 : 0) */\n      or\n        /* \".deps/github/succinctlabs/sp1-contracts/contracts/src/v3.0.0/Groth16Verifier.sol\":14547:14577  (x0 << 2) | (hint ? 2 : 0) | 1 */\n      or\n        /* \".deps/github/succinctlabs/sp1-contracts/contracts/src/v3.0.0/Groth16Verifier.sol\":14542:14577  c0 = (x0 << 2) | (hint ? 2 : 0) | 1 */\n      swap5\n      pop\n        /* \".deps/github/succinctlabs/sp1-contracts/contracts/src/v3.0.0/Groth16Verifier.sol\":14597:14599  x1 */\n      dup8\n        /* \".deps/github/succinctlabs/sp1-contracts/contracts/src/v3.0.0/Groth16Verifier.sol\":14592:14599  c1 = x1 */\n      swap4\n      pop\n        /* \".deps/github/succinctlabs/sp1-contracts/contracts/src/v3.0.0/Groth16Verifier.sol\":14477:14704  if (y0 == negate(y0_pos) && y1 == negate(y1_pos)) {... */\n      jump(tag_262)\n    tag_259:\n        /* \".deps/github/succinctlabs/sp1-contracts/contracts/src/v3.0.0/Groth16Verifier.sol\":14678:14692  ProofInvalid() */\n      mload(0x40)\n      0x7fcdd1f400000000000000000000000000000000000000000000000000000000\n      dup2\n      mstore\n      0x04\n      add\n      mload(0x40)\n      dup1\n      swap2\n      sub\n      swap1\n      revert\n        /* \".deps/github/succinctlabs/sp1-contracts/contracts/src/v3.0.0/Groth16Verifier.sol\":14477:14704  if (y0 == negate(y0_pos) && y1 == negate(y1_pos)) {... */\n    tag_262:\n        /* \".deps/github/succinctlabs/sp1-contracts/contracts/src/v3.0.0/Groth16Verifier.sol\":14353:14704  if (y0 == y0_pos && y1 == y1_pos) {... */\n    tag_255:\n        /* \".deps/github/succinctlabs/sp1-contracts/contracts/src/v3.0.0/Groth16Verifier.sol\":13130:14711  {... */\n      pop\n      pop\n      pop\n        /* \".deps/github/succinctlabs/sp1-contracts/contracts/src/v3.0.0/Groth16Verifier.sol\":12982:14711  function compress_g2(uint256 x0, uint256 x1, uint256 y0, uint256 y1)... */\n    tag_203:\n      swap5\n      pop\n      swap5\n      swap3\n      pop\n      pop\n      pop\n      jump\t// out\n        /* \".deps/github/succinctlabs/sp1-contracts/contracts/src/v3.0.0/Groth16Verifier.sol\":17409:19479  function publicInputMSM(uint256[2] calldata input)... */\n    tag_109:\n        /* \".deps/github/succinctlabs/sp1-contracts/contracts/src/v3.0.0/Groth16Verifier.sol\":17510:17519  uint256 x */\n      0x00\n        /* \".deps/github/succinctlabs/sp1-contracts/contracts/src/v3.0.0/Groth16Verifier.sol\":17521:17530  uint256 y */\n      0x00\n        /* \".deps/github/succinctlabs/sp1-contracts/contracts/src/v3.0.0/Groth16Verifier.sol\":18149:18161  bool success */\n      0x00\n        /* \".deps/github/succinctlabs/sp1-contracts/contracts/src/v3.0.0/Groth16Verifier.sol\":18164:18168  true */\n      0x01\n        /* \".deps/github/succinctlabs/sp1-contracts/contracts/src/v3.0.0/Groth16Verifier.sol\":18149:18168  bool success = true */\n      swap1\n      pop\n        /* \".deps/github/succinctlabs/sp1-contracts/contracts/src/v3.0.0/Groth16Verifier.sol\":18234:18238  0x40 */\n      0x40\n        /* \".deps/github/succinctlabs/sp1-contracts/contracts/src/v3.0.0/Groth16Verifier.sol\":18228:18239  mload(0x40) */\n      mload\n        /* \".deps/github/succinctlabs/sp1-contracts/contracts/src/v3.0.0/Groth16Verifier.sol\":18269:18273  0x40 */\n      0x40\n        /* \".deps/github/succinctlabs/sp1-contracts/contracts/src/v3.0.0/Groth16Verifier.sol\":18266:18267  f */\n      dup2\n        /* \".deps/github/succinctlabs/sp1-contracts/contracts/src/v3.0.0/Groth16Verifier.sol\":18262:18274  add(f, 0x40) */\n      add\n        /* \".deps/github/succinctlabs/sp1-contracts/contracts/src/v3.0.0/Groth16Verifier.sol\":18288:18293  let s */\n      0x00\n        /* \".deps/github/succinctlabs/sp1-contracts/contracts/src/v3.0.0/Groth16Verifier.sol\":18317:18327  CONSTANT_X */\n      0x0251859caefe66b516c5549d3768d1ba94146083cb044026abebc99089919248\n        /* \".deps/github/succinctlabs/sp1-contracts/contracts/src/v3.0.0/Groth16Verifier.sol\":18314:18315  f */\n      dup4\n        /* \".deps/github/succinctlabs/sp1-contracts/contracts/src/v3.0.0/Groth16Verifier.sol\":18307:18328  mstore(f, CONSTANT_X) */\n      mstore\n        /* \".deps/github/succinctlabs/sp1-contracts/contracts/src/v3.0.0/Groth16Verifier.sol\":18363:18373  CONSTANT_Y */\n      0x2c1e789b2dcafdaa6853d0934c4443d223b8f050ce3466d068f2ab7efa29bc03\n        /* \".deps/github/succinctlabs/sp1-contracts/contracts/src/v3.0.0/Groth16Verifier.sol\":18356:18360  0x20 */\n      0x20\n        /* \".deps/github/succinctlabs/sp1-contracts/contracts/src/v3.0.0/Groth16Verifier.sol\":18353:18354  f */\n      dup5\n        /* \".deps/github/succinctlabs/sp1-contracts/contracts/src/v3.0.0/Groth16Verifier.sol\":18349:18361  add(f, 0x20) */\n      add\n        /* \".deps/github/succinctlabs/sp1-contracts/contracts/src/v3.0.0/Groth16Verifier.sol\":18342:18374  mstore(add(f, 0x20), CONSTANT_Y) */\n      mstore\n        /* \".deps/github/succinctlabs/sp1-contracts/contracts/src/v3.0.0/Groth16Verifier.sol\":18398:18405  PUB_0_X */\n      0x13a264f6a5d0e3938bea4e4431d417f2980774db501085ceafd0d7e76a7f128b\n        /* \".deps/github/succinctlabs/sp1-contracts/contracts/src/v3.0.0/Groth16Verifier.sol\":18395:18396  g */\n      dup3\n        /* \".deps/github/succinctlabs/sp1-contracts/contracts/src/v3.0.0/Groth16Verifier.sol\":18388:18406  mstore(g, PUB_0_X) */\n      mstore\n        /* \".deps/github/succinctlabs/sp1-contracts/contracts/src/v3.0.0/Groth16Verifier.sol\":18441:18448  PUB_0_Y */\n      0x155351b5ccccb7a37222f2b82fa4a968f33523326364fe52bb87d1ea3f47c697\n        /* \".deps/github/succinctlabs/sp1-contracts/contracts/src/v3.0.0/Groth16Verifier.sol\":18434:18438  0x20 */\n      0x20\n        /* \".deps/github/succinctlabs/sp1-contracts/contracts/src/v3.0.0/Groth16Verifier.sol\":18431:18432  g */\n      dup4\n        /* \".deps/github/succinctlabs/sp1-contracts/contracts/src/v3.0.0/Groth16Verifier.sol\":18427:18439  add(g, 0x20) */\n      add\n        /* \".deps/github/succinctlabs/sp1-contracts/contracts/src/v3.0.0/Groth16Verifier.sol\":18420:18449  mstore(add(g, 0x20), PUB_0_Y) */\n      mstore\n        /* \".deps/github/succinctlabs/sp1-contracts/contracts/src/v3.0.0/Groth16Verifier.sol\":18481:18486  input */\n      dup7\n        /* \".deps/github/succinctlabs/sp1-contracts/contracts/src/v3.0.0/Groth16Verifier.sol\":18468:18487  calldataload(input) */\n      calldataload\n        /* \".deps/github/succinctlabs/sp1-contracts/contracts/src/v3.0.0/Groth16Verifier.sol\":18463:18487  s := calldataload(input) */\n      swap1\n      pop\n        /* \".deps/github/succinctlabs/sp1-contracts/contracts/src/v3.0.0/Groth16Verifier.sol\":18522:18523  s */\n      dup1\n        /* \".deps/github/succinctlabs/sp1-contracts/contracts/src/v3.0.0/Groth16Verifier.sol\":18515:18519  0x40 */\n      0x40\n        /* \".deps/github/succinctlabs/sp1-contracts/contracts/src/v3.0.0/Groth16Verifier.sol\":18512:18513  g */\n      dup4\n        /* \".deps/github/succinctlabs/sp1-contracts/contracts/src/v3.0.0/Groth16Verifier.sol\":18508:18520  add(g, 0x40) */\n      add\n        /* \".deps/github/succinctlabs/sp1-contracts/contracts/src/v3.0.0/Groth16Verifier.sol\":18501:18524  mstore(add(g, 0x40), s) */\n      mstore\n        /* \".deps/github/succinctlabs/sp1-contracts/contracts/src/v3.0.0/Groth16Verifier.sol\":18568:18569  R */\n      0x30644e72e131a029b85045b68181585d2833e84879b9709143e1f593f0000001\n        /* \".deps/github/succinctlabs/sp1-contracts/contracts/src/v3.0.0/Groth16Verifier.sol\":18565:18566  s */\n      dup2\n        /* \".deps/github/succinctlabs/sp1-contracts/contracts/src/v3.0.0/Groth16Verifier.sol\":18562:18570  lt(s, R) */\n      lt\n        /* \".deps/github/succinctlabs/sp1-contracts/contracts/src/v3.0.0/Groth16Verifier.sol\":18553:18560  success */\n      dup5\n        /* \".deps/github/succinctlabs/sp1-contracts/contracts/src/v3.0.0/Groth16Verifier.sol\":18549:18571  and(success, lt(s, R)) */\n      and\n        /* \".deps/github/succinctlabs/sp1-contracts/contracts/src/v3.0.0/Groth16Verifier.sol\":18538:18571  success := and(success, lt(s, R)) */\n      swap4\n      pop\n        /* \".deps/github/succinctlabs/sp1-contracts/contracts/src/v3.0.0/Groth16Verifier.sol\":18655:18659  0x40 */\n      0x40\n        /* \".deps/github/succinctlabs/sp1-contracts/contracts/src/v3.0.0/Groth16Verifier.sol\":18652:18653  g */\n      dup3\n        /* \".deps/github/succinctlabs/sp1-contracts/contracts/src/v3.0.0/Groth16Verifier.sol\":18646:18650  0x60 */\n      0x60\n        /* \".deps/github/succinctlabs/sp1-contracts/contracts/src/v3.0.0/Groth16Verifier.sol\":18643:18644  g */\n      dup5\n        /* \".deps/github/succinctlabs/sp1-contracts/contracts/src/v3.0.0/Groth16Verifier.sol\":18627:18641  PRECOMPILE_MUL */\n      0x07\n        /* \".deps/github/succinctlabs/sp1-contracts/contracts/src/v3.0.0/Groth16Verifier.sol\":18620:18625  gas() */\n      gas\n        /* \".deps/github/succinctlabs/sp1-contracts/contracts/src/v3.0.0/Groth16Verifier.sol\":18609:18660  staticcall(gas(), PRECOMPILE_MUL, g, 0x60, g, 0x40) */\n      staticcall\n        /* \".deps/github/succinctlabs/sp1-contracts/contracts/src/v3.0.0/Groth16Verifier.sol\":18600:18607  success */\n      dup5\n        /* \".deps/github/succinctlabs/sp1-contracts/contracts/src/v3.0.0/Groth16Verifier.sol\":18596:18661  and(success, staticcall(gas(), PRECOMPILE_MUL, g, 0x60, g, 0x40)) */\n      and\n        /* \".deps/github/succinctlabs/sp1-contracts/contracts/src/v3.0.0/Groth16Verifier.sol\":18585:18661  success := and(success, staticcall(gas(), PRECOMPILE_MUL, g, 0x60, g, 0x40)) */\n      swap4\n      pop\n        /* \".deps/github/succinctlabs/sp1-contracts/contracts/src/v3.0.0/Groth16Verifier.sol\":18745:18749  0x40 */\n      0x40\n        /* \".deps/github/succinctlabs/sp1-contracts/contracts/src/v3.0.0/Groth16Verifier.sol\":18742:18743  f */\n      dup4\n        /* \".deps/github/succinctlabs/sp1-contracts/contracts/src/v3.0.0/Groth16Verifier.sol\":18736:18740  0x80 */\n      0x80\n        /* \".deps/github/succinctlabs/sp1-contracts/contracts/src/v3.0.0/Groth16Verifier.sol\":18733:18734  f */\n      dup6\n        /* \".deps/github/succinctlabs/sp1-contracts/contracts/src/v3.0.0/Groth16Verifier.sol\":18717:18731  PRECOMPILE_ADD */\n      0x06\n        /* \".deps/github/succinctlabs/sp1-contracts/contracts/src/v3.0.0/Groth16Verifier.sol\":18710:18715  gas() */\n      gas\n        /* \".deps/github/succinctlabs/sp1-contracts/contracts/src/v3.0.0/Groth16Verifier.sol\":18699:18750  staticcall(gas(), PRECOMPILE_ADD, f, 0x80, f, 0x40) */\n      staticcall\n        /* \".deps/github/succinctlabs/sp1-contracts/contracts/src/v3.0.0/Groth16Verifier.sol\":18690:18697  success */\n      dup5\n        /* \".deps/github/succinctlabs/sp1-contracts/contracts/src/v3.0.0/Groth16Verifier.sol\":18686:18751  and(success, staticcall(gas(), PRECOMPILE_ADD, f, 0x80, f, 0x40)) */\n      and\n        /* \".deps/github/succinctlabs/sp1-contracts/contracts/src/v3.0.0/Groth16Verifier.sol\":18675:18751  success := and(success, staticcall(gas(), PRECOMPILE_ADD, f, 0x80, f, 0x40)) */\n      swap4\n      pop\n        /* \".deps/github/succinctlabs/sp1-contracts/contracts/src/v3.0.0/Groth16Verifier.sol\":18775:18782  PUB_1_X */\n      0x03777818388f77b4065a87d01e141b5fec2ee452d1ada3493892aca2c4da5d40\n        /* \".deps/github/succinctlabs/sp1-contracts/contracts/src/v3.0.0/Groth16Verifier.sol\":18772:18773  g */\n      dup3\n        /* \".deps/github/succinctlabs/sp1-contracts/contracts/src/v3.0.0/Groth16Verifier.sol\":18765:18783  mstore(g, PUB_1_X) */\n      mstore\n        /* \".deps/github/succinctlabs/sp1-contracts/contracts/src/v3.0.0/Groth16Verifier.sol\":18818:18825  PUB_1_Y */\n      0x0fb2382a8c87c5992ee8385e493ffd96983c8c42c5545a4daaab264f482865b5\n        /* \".deps/github/succinctlabs/sp1-contracts/contracts/src/v3.0.0/Groth16Verifier.sol\":18811:18815  0x20 */\n      0x20\n        /* \".deps/github/succinctlabs/sp1-contracts/contracts/src/v3.0.0/Groth16Verifier.sol\":18808:18809  g */\n      dup4\n        /* \".deps/github/succinctlabs/sp1-contracts/contracts/src/v3.0.0/Groth16Verifier.sol\":18804:18816  add(g, 0x20) */\n      add\n        /* \".deps/github/succinctlabs/sp1-contracts/contracts/src/v3.0.0/Groth16Verifier.sol\":18797:18826  mstore(add(g, 0x20), PUB_1_Y) */\n      mstore\n        /* \".deps/github/succinctlabs/sp1-contracts/contracts/src/v3.0.0/Groth16Verifier.sol\":18869:18871  32 */\n      0x20\n        /* \".deps/github/succinctlabs/sp1-contracts/contracts/src/v3.0.0/Groth16Verifier.sol\":18862:18867  input */\n      dup8\n        /* \".deps/github/succinctlabs/sp1-contracts/contracts/src/v3.0.0/Groth16Verifier.sol\":18858:18872  add(input, 32) */\n      add\n        /* \".deps/github/succinctlabs/sp1-contracts/contracts/src/v3.0.0/Groth16Verifier.sol\":18845:18873  calldataload(add(input, 32)) */\n      calldataload\n        /* \".deps/github/succinctlabs/sp1-contracts/contracts/src/v3.0.0/Groth16Verifier.sol\":18840:18873  s := calldataload(add(input, 32)) */\n      swap1\n      pop\n        /* \".deps/github/succinctlabs/sp1-contracts/contracts/src/v3.0.0/Groth16Verifier.sol\":18908:18909  s */\n      dup1\n        /* \".deps/github/succinctlabs/sp1-contracts/contracts/src/v3.0.0/Groth16Verifier.sol\":18901:18905  0x40 */\n      0x40\n        /* \".deps/github/succinctlabs/sp1-contracts/contracts/src/v3.0.0/Groth16Verifier.sol\":18898:18899  g */\n      dup4\n        /* \".deps/github/succinctlabs/sp1-contracts/contracts/src/v3.0.0/Groth16Verifier.sol\":18894:18906  add(g, 0x40) */\n      add\n        /* \".deps/github/succinctlabs/sp1-contracts/contracts/src/v3.0.0/Groth16Verifier.sol\":18887:18910  mstore(add(g, 0x40), s) */\n      mstore\n        /* \".deps/github/succinctlabs/sp1-contracts/contracts/src/v3.0.0/Groth16Verifier.sol\":18954:18955  R */\n      0x30644e72e131a029b85045b68181585d2833e84879b9709143e1f593f0000001\n        /* \".deps/github/succinctlabs/sp1-contracts/contracts/src/v3.0.0/Groth16Verifier.sol\":18951:18952  s */\n      dup2\n        /* \".deps/github/succinctlabs/sp1-contracts/contracts/src/v3.0.0/Groth16Verifier.sol\":18948:18956  lt(s, R) */\n      lt\n        /* \".deps/github/succinctlabs/sp1-contracts/contracts/src/v3.0.0/Groth16Verifier.sol\":18939:18946  success */\n      dup5\n        /* \".deps/github/succinctlabs/sp1-contracts/contracts/src/v3.0.0/Groth16Verifier.sol\":18935:18957  and(success, lt(s, R)) */\n      and\n        /* \".deps/github/succinctlabs/sp1-contracts/contracts/src/v3.0.0/Groth16Verifier.sol\":18924:18957  success := and(success, lt(s, R)) */\n      swap4\n      pop\n        /* \".deps/github/succinctlabs/sp1-contracts/contracts/src/v3.0.0/Groth16Verifier.sol\":19041:19045  0x40 */\n      0x40\n        /* \".deps/github/succinctlabs/sp1-contracts/contracts/src/v3.0.0/Groth16Verifier.sol\":19038:19039  g */\n      dup3\n        /* \".deps/github/succinctlabs/sp1-contracts/contracts/src/v3.0.0/Groth16Verifier.sol\":19032:19036  0x60 */\n      0x60\n        /* \".deps/github/succinctlabs/sp1-contracts/contracts/src/v3.0.0/Groth16Verifier.sol\":19029:19030  g */\n      dup5\n        /* \".deps/github/succinctlabs/sp1-contracts/contracts/src/v3.0.0/Groth16Verifier.sol\":19013:19027  PRECOMPILE_MUL */\n      0x07\n        /* \".deps/github/succinctlabs/sp1-contracts/contracts/src/v3.0.0/Groth16Verifier.sol\":19006:19011  gas() */\n      gas\n        /* \".deps/github/succinctlabs/sp1-contracts/contracts/src/v3.0.0/Groth16Verifier.sol\":18995:19046  staticcall(gas(), PRECOMPILE_MUL, g, 0x60, g, 0x40) */\n      staticcall\n        /* \".deps/github/succinctlabs/sp1-contracts/contracts/src/v3.0.0/Groth16Verifier.sol\":18986:18993  success */\n      dup5\n        /* \".deps/github/succinctlabs/sp1-contracts/contracts/src/v3.0.0/Groth16Verifier.sol\":18982:19047  and(success, staticcall(gas(), PRECOMPILE_MUL, g, 0x60, g, 0x40)) */\n      and\n        /* \".deps/github/succinctlabs/sp1-contracts/contracts/src/v3.0.0/Groth16Verifier.sol\":18971:19047  success := and(success, staticcall(gas(), PRECOMPILE_MUL, g, 0x60, g, 0x40)) */\n      swap4\n      pop\n        /* \".deps/github/succinctlabs/sp1-contracts/contracts/src/v3.0.0/Groth16Verifier.sol\":19131:19135  0x40 */\n      0x40\n        /* \".deps/github/succinctlabs/sp1-contracts/contracts/src/v3.0.0/Groth16Verifier.sol\":19128:19129  f */\n      dup4\n        /* \".deps/github/succinctlabs/sp1-contracts/contracts/src/v3.0.0/Groth16Verifier.sol\":19122:19126  0x80 */\n      0x80\n        /* \".deps/github/succinctlabs/sp1-contracts/contracts/src/v3.0.0/Groth16Verifier.sol\":19119:19120  f */\n      dup6\n        /* \".deps/github/succinctlabs/sp1-contracts/contracts/src/v3.0.0/Groth16Verifier.sol\":19103:19117  PRECOMPILE_ADD */\n      0x06\n        /* \".deps/github/succinctlabs/sp1-contracts/contracts/src/v3.0.0/Groth16Verifier.sol\":19096:19101  gas() */\n      gas\n        /* \".deps/github/succinctlabs/sp1-contracts/contracts/src/v3.0.0/Groth16Verifier.sol\":19085:19136  staticcall(gas(), PRECOMPILE_ADD, f, 0x80, f, 0x40) */\n      staticcall\n        /* \".deps/github/succinctlabs/sp1-contracts/contracts/src/v3.0.0/Groth16Verifier.sol\":19076:19083  success */\n      dup5\n        /* \".deps/github/succinctlabs/sp1-contracts/contracts/src/v3.0.0/Groth16Verifier.sol\":19072:19137  and(success, staticcall(gas(), PRECOMPILE_ADD, f, 0x80, f, 0x40)) */\n      and\n        /* \".deps/github/succinctlabs/sp1-contracts/contracts/src/v3.0.0/Groth16Verifier.sol\":19061:19137  success := and(success, staticcall(gas(), PRECOMPILE_ADD, f, 0x80, f, 0x40)) */\n      swap4\n      pop\n        /* \".deps/github/succinctlabs/sp1-contracts/contracts/src/v3.0.0/Groth16Verifier.sol\":19164:19165  f */\n      dup3\n        /* \".deps/github/succinctlabs/sp1-contracts/contracts/src/v3.0.0/Groth16Verifier.sol\":19158:19166  mload(f) */\n      mload\n        /* \".deps/github/succinctlabs/sp1-contracts/contracts/src/v3.0.0/Groth16Verifier.sol\":19153:19166  x := mload(f) */\n      swap6\n      pop\n        /* \".deps/github/succinctlabs/sp1-contracts/contracts/src/v3.0.0/Groth16Verifier.sol\":19198:19202  0x20 */\n      0x20\n        /* \".deps/github/succinctlabs/sp1-contracts/contracts/src/v3.0.0/Groth16Verifier.sol\":19195:19196  f */\n      dup4\n        /* \".deps/github/succinctlabs/sp1-contracts/contracts/src/v3.0.0/Groth16Verifier.sol\":19191:19203  add(f, 0x20) */\n      add\n        /* \".deps/github/succinctlabs/sp1-contracts/contracts/src/v3.0.0/Groth16Verifier.sol\":19185:19204  mload(add(f, 0x20)) */\n      mload\n        /* \".deps/github/succinctlabs/sp1-contracts/contracts/src/v3.0.0/Groth16Verifier.sol\":19180:19204  y := mload(add(f, 0x20)) */\n      swap5\n      pop\n        /* \".deps/github/succinctlabs/sp1-contracts/contracts/src/v3.0.0/Groth16Verifier.sol\":18204:19215  {... */\n      pop\n      pop\n      pop\n        /* \".deps/github/succinctlabs/sp1-contracts/contracts/src/v3.0.0/Groth16Verifier.sol\":19230:19237  success */\n      dup1\n        /* \".deps/github/succinctlabs/sp1-contracts/contracts/src/v3.0.0/Groth16Verifier.sol\":19225:19472  if (!success) {... */\n      tag_264\n      jumpi\n        /* \".deps/github/succinctlabs/sp1-contracts/contracts/src/v3.0.0/Groth16Verifier.sol\":19437:19460  PublicInputNotInField() */\n      mload(0x40)\n      0xa54f8e2700000000000000000000000000000000000000000000000000000000\n      dup2\n      mstore\n      0x04\n      add\n      mload(0x40)\n      dup1\n      swap2\n      sub\n      swap1\n      revert\n        /* \".deps/github/succinctlabs/sp1-contracts/contracts/src/v3.0.0/Groth16Verifier.sol\":19225:19472  if (!success) {... */\n    tag_264:\n        /* \".deps/github/succinctlabs/sp1-contracts/contracts/src/v3.0.0/Groth16Verifier.sol\":17537:19479  {... */\n      pop\n        /* \".deps/github/succinctlabs/sp1-contracts/contracts/src/v3.0.0/Groth16Verifier.sol\":17409:19479  function publicInputMSM(uint256[2] calldata input)... */\n      swap2\n      pop\n      swap2\n      jump\t// out\n        /* \".deps/github/succinctlabs/sp1-contracts/contracts/src/v3.0.0/Groth16Verifier.sol\":11303:12200  function decompress_g1(uint256 c) internal view returns (uint256 x, uint256 y) {... */\n    tag_117:\n        /* \".deps/github/succinctlabs/sp1-contracts/contracts/src/v3.0.0/Groth16Verifier.sol\":11360:11369  uint256 x */\n      0x00\n        /* \".deps/github/succinctlabs/sp1-contracts/contracts/src/v3.0.0/Groth16Verifier.sol\":11371:11380  uint256 y */\n      0x00\n        /* \".deps/github/succinctlabs/sp1-contracts/contracts/src/v3.0.0/Groth16Verifier.sol\":11550:11551  0 */\n      0x00\n        /* \".deps/github/succinctlabs/sp1-contracts/contracts/src/v3.0.0/Groth16Verifier.sol\":11545:11546  c */\n      dup4\n        /* \".deps/github/succinctlabs/sp1-contracts/contracts/src/v3.0.0/Groth16Verifier.sol\":11545:11551  c == 0 */\n      sub\n        /* \".deps/github/succinctlabs/sp1-contracts/contracts/src/v3.0.0/Groth16Verifier.sol\":11541:11660  if (c == 0) {... */\n      tag_266\n      jumpi\n        /* \".deps/github/succinctlabs/sp1-contracts/contracts/src/v3.0.0/Groth16Verifier.sol\":11643:11644  0 */\n      0x00\n        /* \".deps/github/succinctlabs/sp1-contracts/contracts/src/v3.0.0/Groth16Verifier.sol\":11646:11647  0 */\n      0x00\n        /* \".deps/github/succinctlabs/sp1-contracts/contracts/src/v3.0.0/Groth16Verifier.sol\":11635:11648  return (0, 0) */\n      swap2\n      pop\n      swap2\n      pop\n      jump(tag_265)\n        /* \".deps/github/succinctlabs/sp1-contracts/contracts/src/v3.0.0/Groth16Verifier.sol\":11541:11660  if (c == 0) {... */\n    tag_266:\n        /* \".deps/github/succinctlabs/sp1-contracts/contracts/src/v3.0.0/Groth16Verifier.sol\":11670:11687  bool negate_point */\n      0x00\n        /* \".deps/github/succinctlabs/sp1-contracts/contracts/src/v3.0.0/Groth16Verifier.sol\":11699:11700  1 */\n      0x01\n        /* \".deps/github/succinctlabs/sp1-contracts/contracts/src/v3.0.0/Groth16Verifier.sol\":11694:11695  1 */\n      dup1\n        /* \".deps/github/succinctlabs/sp1-contracts/contracts/src/v3.0.0/Groth16Verifier.sol\":11690:11691  c */\n      dup6\n        /* \".deps/github/succinctlabs/sp1-contracts/contracts/src/v3.0.0/Groth16Verifier.sol\":11690:11695  c & 1 */\n      and\n        /* \".deps/github/succinctlabs/sp1-contracts/contracts/src/v3.0.0/Groth16Verifier.sol\":11690:11700  c & 1 == 1 */\n      eq\n        /* \".deps/github/succinctlabs/sp1-contracts/contracts/src/v3.0.0/Groth16Verifier.sol\":11670:11700  bool negate_point = c & 1 == 1 */\n      swap1\n      pop\n        /* \".deps/github/succinctlabs/sp1-contracts/contracts/src/v3.0.0/Groth16Verifier.sol\":11720:11721  1 */\n      0x01\n        /* \".deps/github/succinctlabs/sp1-contracts/contracts/src/v3.0.0/Groth16Verifier.sol\":11715:11716  c */\n      dup5\n        /* \".deps/github/succinctlabs/sp1-contracts/contracts/src/v3.0.0/Groth16Verifier.sol\":11715:11721  c >> 1 */\n      swap1\n      shr\n        /* \".deps/github/succinctlabs/sp1-contracts/contracts/src/v3.0.0/Groth16Verifier.sol\":11711:11721  x = c >> 1 */\n      swap3\n      pop\n        /* \".deps/github/succinctlabs/sp1-contracts/contracts/src/v3.0.0/Groth16Verifier.sol\":1427:1493  0x30644e72e131a029b85045b68181585d97816a916871ca8d3c208c16d87cfd47 */\n      0x30644e72e131a029b85045b68181585d97816a916871ca8d3c208c16d87cfd47\n        /* \".deps/github/succinctlabs/sp1-contracts/contracts/src/v3.0.0/Groth16Verifier.sol\":11736:11737  x */\n      dup4\n        /* \".deps/github/succinctlabs/sp1-contracts/contracts/src/v3.0.0/Groth16Verifier.sol\":11736:11742  x >= P */\n      lt\n        /* \".deps/github/succinctlabs/sp1-contracts/contracts/src/v3.0.0/Groth16Verifier.sol\":11732:11838  if (x >= P) {... */\n      tag_267\n      jumpi\n        /* \".deps/github/succinctlabs/sp1-contracts/contracts/src/v3.0.0/Groth16Verifier.sol\":11812:11826  ProofInvalid() */\n      mload(0x40)\n      0x7fcdd1f400000000000000000000000000000000000000000000000000000000\n      dup2\n      mstore\n      0x04\n      add\n      mload(0x40)\n      dup1\n      swap2\n      sub\n      swap1\n      revert\n        /* \".deps/github/succinctlabs/sp1-contracts/contracts/src/v3.0.0/Groth16Verifier.sol\":11732:11838  if (x >= P) {... */\n    tag_267:\n        /* \".deps/github/succinctlabs/sp1-contracts/contracts/src/v3.0.0/Groth16Verifier.sol\":12072:12124  sqrt_Fp(addmod(mulmod(mulmod(x, x, P), x, P), 3, P)) */\n      tag_268\n        /* \".deps/github/succinctlabs/sp1-contracts/contracts/src/v3.0.0/Groth16Verifier.sol\":1427:1493  0x30644e72e131a029b85045b68181585d97816a916871ca8d3c208c16d87cfd47 */\n      0x30644e72e131a029b85045b68181585d97816a916871ca8d3c208c16d87cfd47\n        /* \".deps/github/succinctlabs/sp1-contracts/contracts/src/v3.0.0/Groth16Verifier.sol\":12080:12123  addmod(mulmod(mulmod(x, x, P), x, P), 3, P) */\n      dup1\n      tag_269\n      jumpi\n      tag_270\n      tag_191\n      jump\t// in\n    tag_270:\n    tag_269:\n        /* \".deps/github/succinctlabs/sp1-contracts/contracts/src/v3.0.0/Groth16Verifier.sol\":12118:12119  3 */\n      0x03\n        /* \".deps/github/succinctlabs/sp1-contracts/contracts/src/v3.0.0/Groth16Verifier.sol\":1427:1493  0x30644e72e131a029b85045b68181585d97816a916871ca8d3c208c16d87cfd47 */\n      0x30644e72e131a029b85045b68181585d97816a916871ca8d3c208c16d87cfd47\n        /* \".deps/github/succinctlabs/sp1-contracts/contracts/src/v3.0.0/Groth16Verifier.sol\":12087:12116  mulmod(mulmod(x, x, P), x, P) */\n      dup1\n      tag_271\n      jumpi\n      tag_272\n      tag_191\n      jump\t// in\n    tag_272:\n    tag_271:\n        /* \".deps/github/succinctlabs/sp1-contracts/contracts/src/v3.0.0/Groth16Verifier.sol\":12111:12112  x */\n      dup7\n        /* \".deps/github/succinctlabs/sp1-contracts/contracts/src/v3.0.0/Groth16Verifier.sol\":1427:1493  0x30644e72e131a029b85045b68181585d97816a916871ca8d3c208c16d87cfd47 */\n      0x30644e72e131a029b85045b68181585d97816a916871ca8d3c208c16d87cfd47\n        /* \".deps/github/succinctlabs/sp1-contracts/contracts/src/v3.0.0/Groth16Verifier.sol\":12094:12109  mulmod(x, x, P) */\n      dup1\n      tag_273\n      jumpi\n      tag_274\n      tag_191\n      jump\t// in\n    tag_274:\n    tag_273:\n        /* \".deps/github/succinctlabs/sp1-contracts/contracts/src/v3.0.0/Groth16Verifier.sol\":12104:12105  x */\n      dup9\n        /* \".deps/github/succinctlabs/sp1-contracts/contracts/src/v3.0.0/Groth16Verifier.sol\":12101:12102  x */\n      dup10\n        /* \".deps/github/succinctlabs/sp1-contracts/contracts/src/v3.0.0/Groth16Verifier.sol\":12094:12109  mulmod(x, x, P) */\n      mulmod\n        /* \".deps/github/succinctlabs/sp1-contracts/contracts/src/v3.0.0/Groth16Verifier.sol\":12087:12116  mulmod(mulmod(x, x, P), x, P) */\n      mulmod\n        /* \".deps/github/succinctlabs/sp1-contracts/contracts/src/v3.0.0/Groth16Verifier.sol\":12080:12123  addmod(mulmod(mulmod(x, x, P), x, P), 3, P) */\n      addmod\n        /* \".deps/github/succinctlabs/sp1-contracts/contracts/src/v3.0.0/Groth16Verifier.sol\":12072:12079  sqrt_Fp */\n      tag_196\n        /* \".deps/github/succinctlabs/sp1-contracts/contracts/src/v3.0.0/Groth16Verifier.sol\":12072:12124  sqrt_Fp(addmod(mulmod(mulmod(x, x, P), x, P), 3, P)) */\n      jump\t// in\n    tag_268:\n        /* \".deps/github/succinctlabs/sp1-contracts/contracts/src/v3.0.0/Groth16Verifier.sol\":12068:12124  y = sqrt_Fp(addmod(mulmod(mulmod(x, x, P), x, P), 3, P)) */\n      swap2\n      pop\n        /* \".deps/github/succinctlabs/sp1-contracts/contracts/src/v3.0.0/Groth16Verifier.sol\":12139:12151  negate_point */\n      dup1\n        /* \".deps/github/succinctlabs/sp1-contracts/contracts/src/v3.0.0/Groth16Verifier.sol\":12135:12193  if (negate_point) {... */\n      iszero\n      tag_275\n      jumpi\n        /* \".deps/github/succinctlabs/sp1-contracts/contracts/src/v3.0.0/Groth16Verifier.sol\":12172:12181  negate(y) */\n      tag_276\n        /* \".deps/github/succinctlabs/sp1-contracts/contracts/src/v3.0.0/Groth16Verifier.sol\":12179:12180  y */\n      dup3\n        /* \".deps/github/succinctlabs/sp1-contracts/contracts/src/v3.0.0/Groth16Verifier.sol\":12172:12178  negate */\n      tag_200\n        /* \".deps/github/succinctlabs/sp1-contracts/contracts/src/v3.0.0/Groth16Verifier.sol\":12172:12181  negate(y) */\n      jump\t// in\n    tag_276:\n        /* \".deps/github/succinctlabs/sp1-contracts/contracts/src/v3.0.0/Groth16Verifier.sol\":12168:12181  y = negate(y) */\n      swap2\n      pop\n        /* \".deps/github/succinctlabs/sp1-contracts/contracts/src/v3.0.0/Groth16Verifier.sol\":12135:12193  if (negate_point) {... */\n    tag_275:\n        /* \".deps/github/succinctlabs/sp1-contracts/contracts/src/v3.0.0/Groth16Verifier.sol\":11382:12200  {... */\n      pop\n        /* \".deps/github/succinctlabs/sp1-contracts/contracts/src/v3.0.0/Groth16Verifier.sol\":11303:12200  function decompress_g1(uint256 c) internal view returns (uint256 x, uint256 y) {... */\n    tag_265:\n      swap2\n      pop\n      swap2\n      jump\t// out\n        /* \".deps/github/succinctlabs/sp1-contracts/contracts/src/v3.0.0/Groth16Verifier.sol\":15462:16901  function decompress_g2(uint256 c0, uint256 c1)... */\n    tag_123:\n        /* \".deps/github/succinctlabs/sp1-contracts/contracts/src/v3.0.0/Groth16Verifier.sol\":15559:15569  uint256 x0 */\n      0x00\n        /* \".deps/github/succinctlabs/sp1-contracts/contracts/src/v3.0.0/Groth16Verifier.sol\":15571:15581  uint256 x1 */\n      0x00\n        /* \".deps/github/succinctlabs/sp1-contracts/contracts/src/v3.0.0/Groth16Verifier.sol\":15583:15593  uint256 y0 */\n      0x00\n        /* \".deps/github/succinctlabs/sp1-contracts/contracts/src/v3.0.0/Groth16Verifier.sol\":15595:15605  uint256 y1 */\n      0x00\n        /* \".deps/github/succinctlabs/sp1-contracts/contracts/src/v3.0.0/Groth16Verifier.sol\":15790:15791  0 */\n      0x00\n        /* \".deps/github/succinctlabs/sp1-contracts/contracts/src/v3.0.0/Groth16Verifier.sol\":15784:15786  c0 */\n      dup7\n        /* \".deps/github/succinctlabs/sp1-contracts/contracts/src/v3.0.0/Groth16Verifier.sol\":15784:15791  c0 == 0 */\n      eq\n        /* \".deps/github/succinctlabs/sp1-contracts/contracts/src/v3.0.0/Groth16Verifier.sol\":15784:15802  c0 == 0 && c1 == 0 */\n      dup1\n      iszero\n      tag_278\n      jumpi\n      pop\n        /* \".deps/github/succinctlabs/sp1-contracts/contracts/src/v3.0.0/Groth16Verifier.sol\":15801:15802  0 */\n      0x00\n        /* \".deps/github/succinctlabs/sp1-contracts/contracts/src/v3.0.0/Groth16Verifier.sol\":15795:15797  c1 */\n      dup6\n        /* \".deps/github/succinctlabs/sp1-contracts/contracts/src/v3.0.0/Groth16Verifier.sol\":15795:15802  c1 == 0 */\n      eq\n        /* \".deps/github/succinctlabs/sp1-contracts/contracts/src/v3.0.0/Groth16Verifier.sol\":15784:15802  c0 == 0 && c1 == 0 */\n    tag_278:\n        /* \".deps/github/succinctlabs/sp1-contracts/contracts/src/v3.0.0/Groth16Verifier.sol\":15780:15906  if (c0 == 0 && c1 == 0) {... */\n      iszero\n      tag_279\n      jumpi\n        /* \".deps/github/succinctlabs/sp1-contracts/contracts/src/v3.0.0/Groth16Verifier.sol\":15883:15884  0 */\n      0x00\n        /* \".deps/github/succinctlabs/sp1-contracts/contracts/src/v3.0.0/Groth16Verifier.sol\":15886:15887  0 */\n      0x00\n        /* \".deps/github/succinctlabs/sp1-contracts/contracts/src/v3.0.0/Groth16Verifier.sol\":15889:15890  0 */\n      0x00\n        /* \".deps/github/succinctlabs/sp1-contracts/contracts/src/v3.0.0/Groth16Verifier.sol\":15892:15893  0 */\n      0x00\n        /* \".deps/github/succinctlabs/sp1-contracts/contracts/src/v3.0.0/Groth16Verifier.sol\":15875:15894  return (0, 0, 0, 0) */\n      swap4\n      pop\n      swap4\n      pop\n      swap4\n      pop\n      swap4\n      pop\n      jump(tag_277)\n        /* \".deps/github/succinctlabs/sp1-contracts/contracts/src/v3.0.0/Groth16Verifier.sol\":15780:15906  if (c0 == 0 && c1 == 0) {... */\n    tag_279:\n        /* \".deps/github/succinctlabs/sp1-contracts/contracts/src/v3.0.0/Groth16Verifier.sol\":15916:15933  bool negate_point */\n      0x00\n        /* \".deps/github/succinctlabs/sp1-contracts/contracts/src/v3.0.0/Groth16Verifier.sol\":15946:15947  1 */\n      0x01\n        /* \".deps/github/succinctlabs/sp1-contracts/contracts/src/v3.0.0/Groth16Verifier.sol\":15941:15942  1 */\n      dup1\n        /* \".deps/github/succinctlabs/sp1-contracts/contracts/src/v3.0.0/Groth16Verifier.sol\":15936:15938  c0 */\n      dup9\n        /* \".deps/github/succinctlabs/sp1-contracts/contracts/src/v3.0.0/Groth16Verifier.sol\":15936:15942  c0 & 1 */\n      and\n        /* \".deps/github/succinctlabs/sp1-contracts/contracts/src/v3.0.0/Groth16Verifier.sol\":15936:15947  c0 & 1 == 1 */\n      eq\n        /* \".deps/github/succinctlabs/sp1-contracts/contracts/src/v3.0.0/Groth16Verifier.sol\":15916:15947  bool negate_point = c0 & 1 == 1 */\n      swap1\n      pop\n        /* \".deps/github/succinctlabs/sp1-contracts/contracts/src/v3.0.0/Groth16Verifier.sol\":15958:15967  bool hint */\n      0x00\n        /* \".deps/github/succinctlabs/sp1-contracts/contracts/src/v3.0.0/Groth16Verifier.sol\":15980:15981  2 */\n      0x02\n        /* \".deps/github/succinctlabs/sp1-contracts/contracts/src/v3.0.0/Groth16Verifier.sol\":15975:15976  2 */\n      dup1\n        /* \".deps/github/succinctlabs/sp1-contracts/contracts/src/v3.0.0/Groth16Verifier.sol\":15970:15972  c0 */\n      dup10\n        /* \".deps/github/succinctlabs/sp1-contracts/contracts/src/v3.0.0/Groth16Verifier.sol\":15970:15976  c0 & 2 */\n      and\n        /* \".deps/github/succinctlabs/sp1-contracts/contracts/src/v3.0.0/Groth16Verifier.sol\":15970:15981  c0 & 2 == 2 */\n      eq\n        /* \".deps/github/succinctlabs/sp1-contracts/contracts/src/v3.0.0/Groth16Verifier.sol\":15958:15981  bool hint = c0 & 2 == 2 */\n      swap1\n      pop\n        /* \".deps/github/succinctlabs/sp1-contracts/contracts/src/v3.0.0/Groth16Verifier.sol\":16003:16004  2 */\n      0x02\n        /* \".deps/github/succinctlabs/sp1-contracts/contracts/src/v3.0.0/Groth16Verifier.sol\":15997:15999  c0 */\n      dup9\n        /* \".deps/github/succinctlabs/sp1-contracts/contracts/src/v3.0.0/Groth16Verifier.sol\":15997:16004  c0 >> 2 */\n      swap1\n      shr\n        /* \".deps/github/succinctlabs/sp1-contracts/contracts/src/v3.0.0/Groth16Verifier.sol\":15992:16004  x0 = c0 >> 2 */\n      swap6\n      pop\n        /* \".deps/github/succinctlabs/sp1-contracts/contracts/src/v3.0.0/Groth16Verifier.sol\":16020:16022  c1 */\n      dup7\n        /* \".deps/github/succinctlabs/sp1-contracts/contracts/src/v3.0.0/Groth16Verifier.sol\":16015:16022  x1 = c1 */\n      swap5\n      pop\n        /* \".deps/github/succinctlabs/sp1-contracts/contracts/src/v3.0.0/Groth16Verifier.sol\":1427:1493  0x30644e72e131a029b85045b68181585d97816a916871ca8d3c208c16d87cfd47 */\n      0x30644e72e131a029b85045b68181585d97816a916871ca8d3c208c16d87cfd47\n        /* \".deps/github/succinctlabs/sp1-contracts/contracts/src/v3.0.0/Groth16Verifier.sol\":16037:16039  x0 */\n      dup7\n        /* \".deps/github/succinctlabs/sp1-contracts/contracts/src/v3.0.0/Groth16Verifier.sol\":16037:16044  x0 >= P */\n      lt\n      iszero\n        /* \".deps/github/succinctlabs/sp1-contracts/contracts/src/v3.0.0/Groth16Verifier.sol\":16037:16055  x0 >= P || x1 >= P */\n      dup1\n      tag_280\n      jumpi\n      pop\n        /* \".deps/github/succinctlabs/sp1-contracts/contracts/src/v3.0.0/Groth16Verifier.sol\":1427:1493  0x30644e72e131a029b85045b68181585d97816a916871ca8d3c208c16d87cfd47 */\n      0x30644e72e131a029b85045b68181585d97816a916871ca8d3c208c16d87cfd47\n        /* \".deps/github/succinctlabs/sp1-contracts/contracts/src/v3.0.0/Groth16Verifier.sol\":16048:16050  x1 */\n      dup6\n        /* \".deps/github/succinctlabs/sp1-contracts/contracts/src/v3.0.0/Groth16Verifier.sol\":16048:16055  x1 >= P */\n      lt\n      iszero\n        /* \".deps/github/succinctlabs/sp1-contracts/contracts/src/v3.0.0/Groth16Verifier.sol\":16037:16055  x0 >= P || x1 >= P */\n    tag_280:\n        /* \".deps/github/succinctlabs/sp1-contracts/contracts/src/v3.0.0/Groth16Verifier.sol\":16033:16159  if (x0 >= P || x1 >= P) {... */\n      iszero\n      tag_281\n      jumpi\n        /* \".deps/github/succinctlabs/sp1-contracts/contracts/src/v3.0.0/Groth16Verifier.sol\":16133:16147  ProofInvalid() */\n      mload(0x40)\n      0x7fcdd1f400000000000000000000000000000000000000000000000000000000\n      dup2\n      mstore\n      0x04\n      add\n      mload(0x40)\n      dup1\n      swap2\n      sub\n      swap1\n      revert\n        /* \".deps/github/succinctlabs/sp1-contracts/contracts/src/v3.0.0/Groth16Verifier.sol\":16033:16159  if (x0 >= P || x1 >= P) {... */\n    tag_281:\n        /* \".deps/github/succinctlabs/sp1-contracts/contracts/src/v3.0.0/Groth16Verifier.sol\":16171:16183  uint256 n3ab */\n      0x00\n        /* \".deps/github/succinctlabs/sp1-contracts/contracts/src/v3.0.0/Groth16Verifier.sol\":1427:1493  0x30644e72e131a029b85045b68181585d97816a916871ca8d3c208c16d87cfd47 */\n      0x30644e72e131a029b85045b68181585d97816a916871ca8d3c208c16d87cfd47\n        /* \".deps/github/succinctlabs/sp1-contracts/contracts/src/v3.0.0/Groth16Verifier.sol\":16186:16221  mulmod(mulmod(x0, x1, P), P - 3, P) */\n      dup1\n      tag_282\n      jumpi\n      tag_283\n      tag_191\n      jump\t// in\n    tag_283:\n    tag_282:\n        /* \".deps/github/succinctlabs/sp1-contracts/contracts/src/v3.0.0/Groth16Verifier.sol\":16216:16217  3 */\n      0x03\n        /* \".deps/github/succinctlabs/sp1-contracts/contracts/src/v3.0.0/Groth16Verifier.sol\":1427:1493  0x30644e72e131a029b85045b68181585d97816a916871ca8d3c208c16d87cfd47 */\n      0x30644e72e131a029b85045b68181585d97816a916871ca8d3c208c16d87cfd47\n        /* \".deps/github/succinctlabs/sp1-contracts/contracts/src/v3.0.0/Groth16Verifier.sol\":16212:16217  P - 3 */\n      tag_284\n      swap2\n      swap1\n      tag_212\n      jump\t// in\n    tag_284:\n        /* \".deps/github/succinctlabs/sp1-contracts/contracts/src/v3.0.0/Groth16Verifier.sol\":1427:1493  0x30644e72e131a029b85045b68181585d97816a916871ca8d3c208c16d87cfd47 */\n      0x30644e72e131a029b85045b68181585d97816a916871ca8d3c208c16d87cfd47\n        /* \".deps/github/succinctlabs/sp1-contracts/contracts/src/v3.0.0/Groth16Verifier.sol\":16193:16210  mulmod(x0, x1, P) */\n      dup1\n      tag_285\n      jumpi\n      tag_286\n      tag_191\n      jump\t// in\n    tag_286:\n    tag_285:\n        /* \".deps/github/succinctlabs/sp1-contracts/contracts/src/v3.0.0/Groth16Verifier.sol\":16204:16206  x1 */\n      dup9\n        /* \".deps/github/succinctlabs/sp1-contracts/contracts/src/v3.0.0/Groth16Verifier.sol\":16200:16202  x0 */\n      dup11\n        /* \".deps/github/succinctlabs/sp1-contracts/contracts/src/v3.0.0/Groth16Verifier.sol\":16193:16210  mulmod(x0, x1, P) */\n      mulmod\n        /* \".deps/github/succinctlabs/sp1-contracts/contracts/src/v3.0.0/Groth16Verifier.sol\":16186:16221  mulmod(mulmod(x0, x1, P), P - 3, P) */\n      mulmod\n        /* \".deps/github/succinctlabs/sp1-contracts/contracts/src/v3.0.0/Groth16Verifier.sol\":16171:16221  uint256 n3ab = mulmod(mulmod(x0, x1, P), P - 3, P) */\n      swap1\n      pop\n        /* \".deps/github/succinctlabs/sp1-contracts/contracts/src/v3.0.0/Groth16Verifier.sol\":16232:16243  uint256 a_3 */\n      0x00\n        /* \".deps/github/succinctlabs/sp1-contracts/contracts/src/v3.0.0/Groth16Verifier.sol\":1427:1493  0x30644e72e131a029b85045b68181585d97816a916871ca8d3c208c16d87cfd47 */\n      0x30644e72e131a029b85045b68181585d97816a916871ca8d3c208c16d87cfd47\n        /* \".deps/github/succinctlabs/sp1-contracts/contracts/src/v3.0.0/Groth16Verifier.sol\":16246:16278  mulmod(mulmod(x0, x0, P), x0, P) */\n      dup1\n      tag_287\n      jumpi\n      tag_288\n      tag_191\n      jump\t// in\n    tag_288:\n    tag_287:\n        /* \".deps/github/succinctlabs/sp1-contracts/contracts/src/v3.0.0/Groth16Verifier.sol\":16272:16274  x0 */\n      dup9\n        /* \".deps/github/succinctlabs/sp1-contracts/contracts/src/v3.0.0/Groth16Verifier.sol\":1427:1493  0x30644e72e131a029b85045b68181585d97816a916871ca8d3c208c16d87cfd47 */\n      0x30644e72e131a029b85045b68181585d97816a916871ca8d3c208c16d87cfd47\n        /* \".deps/github/succinctlabs/sp1-contracts/contracts/src/v3.0.0/Groth16Verifier.sol\":16253:16270  mulmod(x0, x0, P) */\n      dup1\n      tag_289\n      jumpi\n      tag_290\n      tag_191\n      jump\t// in\n    tag_290:\n    tag_289:\n        /* \".deps/github/succinctlabs/sp1-contracts/contracts/src/v3.0.0/Groth16Verifier.sol\":16264:16266  x0 */\n      dup11\n        /* \".deps/github/succinctlabs/sp1-contracts/contracts/src/v3.0.0/Groth16Verifier.sol\":16260:16262  x0 */\n      dup12\n        /* \".deps/github/succinctlabs/sp1-contracts/contracts/src/v3.0.0/Groth16Verifier.sol\":16253:16270  mulmod(x0, x0, P) */\n      mulmod\n        /* \".deps/github/succinctlabs/sp1-contracts/contracts/src/v3.0.0/Groth16Verifier.sol\":16246:16278  mulmod(mulmod(x0, x0, P), x0, P) */\n      mulmod\n        /* \".deps/github/succinctlabs/sp1-contracts/contracts/src/v3.0.0/Groth16Verifier.sol\":16232:16278  uint256 a_3 = mulmod(mulmod(x0, x0, P), x0, P) */\n      swap1\n      pop\n        /* \".deps/github/succinctlabs/sp1-contracts/contracts/src/v3.0.0/Groth16Verifier.sol\":16289:16300  uint256 b_3 */\n      0x00\n        /* \".deps/github/succinctlabs/sp1-contracts/contracts/src/v3.0.0/Groth16Verifier.sol\":1427:1493  0x30644e72e131a029b85045b68181585d97816a916871ca8d3c208c16d87cfd47 */\n      0x30644e72e131a029b85045b68181585d97816a916871ca8d3c208c16d87cfd47\n        /* \".deps/github/succinctlabs/sp1-contracts/contracts/src/v3.0.0/Groth16Verifier.sol\":16303:16335  mulmod(mulmod(x1, x1, P), x1, P) */\n      dup1\n      tag_291\n      jumpi\n      tag_292\n      tag_191\n      jump\t// in\n    tag_292:\n    tag_291:\n        /* \".deps/github/succinctlabs/sp1-contracts/contracts/src/v3.0.0/Groth16Verifier.sol\":16329:16331  x1 */\n      dup9\n        /* \".deps/github/succinctlabs/sp1-contracts/contracts/src/v3.0.0/Groth16Verifier.sol\":1427:1493  0x30644e72e131a029b85045b68181585d97816a916871ca8d3c208c16d87cfd47 */\n      0x30644e72e131a029b85045b68181585d97816a916871ca8d3c208c16d87cfd47\n        /* \".deps/github/succinctlabs/sp1-contracts/contracts/src/v3.0.0/Groth16Verifier.sol\":16310:16327  mulmod(x1, x1, P) */\n      dup1\n      tag_293\n      jumpi\n      tag_294\n      tag_191\n      jump\t// in\n    tag_294:\n    tag_293:\n        /* \".deps/github/succinctlabs/sp1-contracts/contracts/src/v3.0.0/Groth16Verifier.sol\":16321:16323  x1 */\n      dup11\n        /* \".deps/github/succinctlabs/sp1-contracts/contracts/src/v3.0.0/Groth16Verifier.sol\":16317:16319  x1 */\n      dup12\n        /* \".deps/github/succinctlabs/sp1-contracts/contracts/src/v3.0.0/Groth16Verifier.sol\":16310:16327  mulmod(x1, x1, P) */\n      mulmod\n        /* \".deps/github/succinctlabs/sp1-contracts/contracts/src/v3.0.0/Groth16Verifier.sol\":16303:16335  mulmod(mulmod(x1, x1, P), x1, P) */\n      mulmod\n        /* \".deps/github/succinctlabs/sp1-contracts/contracts/src/v3.0.0/Groth16Verifier.sol\":16289:16335  uint256 b_3 = mulmod(mulmod(x1, x1, P), x1, P) */\n      swap1\n      pop\n        /* \".deps/github/succinctlabs/sp1-contracts/contracts/src/v3.0.0/Groth16Verifier.sol\":1427:1493  0x30644e72e131a029b85045b68181585d97816a916871ca8d3c208c16d87cfd47 */\n      0x30644e72e131a029b85045b68181585d97816a916871ca8d3c208c16d87cfd47\n        /* \".deps/github/succinctlabs/sp1-contracts/contracts/src/v3.0.0/Groth16Verifier.sol\":16353:16418  addmod(FRACTION_27_82_FP, addmod(a_3, mulmod(n3ab, x1, P), P), P) */\n      dup1\n      tag_295\n      jumpi\n      tag_296\n      tag_191\n      jump\t// in\n    tag_296:\n    tag_295:\n        /* \".deps/github/succinctlabs/sp1-contracts/contracts/src/v3.0.0/Groth16Verifier.sol\":1427:1493  0x30644e72e131a029b85045b68181585d97816a916871ca8d3c208c16d87cfd47 */\n      0x30644e72e131a029b85045b68181585d97816a916871ca8d3c208c16d87cfd47\n        /* \".deps/github/succinctlabs/sp1-contracts/contracts/src/v3.0.0/Groth16Verifier.sol\":16379:16414  addmod(a_3, mulmod(n3ab, x1, P), P) */\n      dup1\n      tag_297\n      jumpi\n      tag_298\n      tag_191\n      jump\t// in\n    tag_298:\n    tag_297:\n        /* \".deps/github/succinctlabs/sp1-contracts/contracts/src/v3.0.0/Groth16Verifier.sol\":1427:1493  0x30644e72e131a029b85045b68181585d97816a916871ca8d3c208c16d87cfd47 */\n      0x30644e72e131a029b85045b68181585d97816a916871ca8d3c208c16d87cfd47\n        /* \".deps/github/succinctlabs/sp1-contracts/contracts/src/v3.0.0/Groth16Verifier.sol\":16391:16410  mulmod(n3ab, x1, P) */\n      dup1\n      tag_299\n      jumpi\n      tag_300\n      tag_191\n      jump\t// in\n    tag_300:\n    tag_299:\n        /* \".deps/github/succinctlabs/sp1-contracts/contracts/src/v3.0.0/Groth16Verifier.sol\":16404:16406  x1 */\n      dup11\n        /* \".deps/github/succinctlabs/sp1-contracts/contracts/src/v3.0.0/Groth16Verifier.sol\":16398:16402  n3ab */\n      dup7\n        /* \".deps/github/succinctlabs/sp1-contracts/contracts/src/v3.0.0/Groth16Verifier.sol\":16391:16410  mulmod(n3ab, x1, P) */\n      mulmod\n        /* \".deps/github/succinctlabs/sp1-contracts/contracts/src/v3.0.0/Groth16Verifier.sol\":16386:16389  a_3 */\n      dup5\n        /* \".deps/github/succinctlabs/sp1-contracts/contracts/src/v3.0.0/Groth16Verifier.sol\":16379:16414  addmod(a_3, mulmod(n3ab, x1, P), P) */\n      addmod\n        /* \".deps/github/succinctlabs/sp1-contracts/contracts/src/v3.0.0/Groth16Verifier.sol\":2276:2342  0x2b149d40ceb8aaae81be18991be06ac3b5b4c5e559dbefa33267e6dc24a138e5 */\n      0x2b149d40ceb8aaae81be18991be06ac3b5b4c5e559dbefa33267e6dc24a138e5\n        /* \".deps/github/succinctlabs/sp1-contracts/contracts/src/v3.0.0/Groth16Verifier.sol\":16353:16418  addmod(FRACTION_27_82_FP, addmod(a_3, mulmod(n3ab, x1, P), P), P) */\n      addmod\n        /* \".deps/github/succinctlabs/sp1-contracts/contracts/src/v3.0.0/Groth16Verifier.sol\":16348:16418  y0 = addmod(FRACTION_27_82_FP, addmod(a_3, mulmod(n3ab, x1, P), P), P) */\n      swap7\n      pop\n        /* \".deps/github/succinctlabs/sp1-contracts/contracts/src/v3.0.0/Groth16Verifier.sol\":16434:16506  negate(addmod(FRACTION_3_82_FP, addmod(b_3, mulmod(n3ab, x0, P), P), P)) */\n      tag_301\n        /* \".deps/github/succinctlabs/sp1-contracts/contracts/src/v3.0.0/Groth16Verifier.sol\":1427:1493  0x30644e72e131a029b85045b68181585d97816a916871ca8d3c208c16d87cfd47 */\n      0x30644e72e131a029b85045b68181585d97816a916871ca8d3c208c16d87cfd47\n        /* \".deps/github/succinctlabs/sp1-contracts/contracts/src/v3.0.0/Groth16Verifier.sol\":16441:16505  addmod(FRACTION_3_82_FP, addmod(b_3, mulmod(n3ab, x0, P), P), P) */\n      dup1\n      tag_302\n      jumpi\n      tag_303\n      tag_191\n      jump\t// in\n    tag_303:\n    tag_302:\n        /* \".deps/github/succinctlabs/sp1-contracts/contracts/src/v3.0.0/Groth16Verifier.sol\":1427:1493  0x30644e72e131a029b85045b68181585d97816a916871ca8d3c208c16d87cfd47 */\n      0x30644e72e131a029b85045b68181585d97816a916871ca8d3c208c16d87cfd47\n        /* \".deps/github/succinctlabs/sp1-contracts/contracts/src/v3.0.0/Groth16Verifier.sol\":16466:16501  addmod(b_3, mulmod(n3ab, x0, P), P) */\n      dup1\n      tag_304\n      jumpi\n      tag_305\n      tag_191\n      jump\t// in\n    tag_305:\n    tag_304:\n        /* \".deps/github/succinctlabs/sp1-contracts/contracts/src/v3.0.0/Groth16Verifier.sol\":1427:1493  0x30644e72e131a029b85045b68181585d97816a916871ca8d3c208c16d87cfd47 */\n      0x30644e72e131a029b85045b68181585d97816a916871ca8d3c208c16d87cfd47\n        /* \".deps/github/succinctlabs/sp1-contracts/contracts/src/v3.0.0/Groth16Verifier.sol\":16478:16497  mulmod(n3ab, x0, P) */\n      dup1\n      tag_306\n      jumpi\n      tag_307\n      tag_191\n      jump\t// in\n    tag_307:\n    tag_306:\n        /* \".deps/github/succinctlabs/sp1-contracts/contracts/src/v3.0.0/Groth16Verifier.sol\":16491:16493  x0 */\n      dup13\n        /* \".deps/github/succinctlabs/sp1-contracts/contracts/src/v3.0.0/Groth16Verifier.sol\":16485:16489  n3ab */\n      dup8\n        /* \".deps/github/succinctlabs/sp1-contracts/contracts/src/v3.0.0/Groth16Verifier.sol\":16478:16497  mulmod(n3ab, x0, P) */\n      mulmod\n        /* \".deps/github/succinctlabs/sp1-contracts/contracts/src/v3.0.0/Groth16Verifier.sol\":16473:16476  b_3 */\n      dup5\n        /* \".deps/github/succinctlabs/sp1-contracts/contracts/src/v3.0.0/Groth16Verifier.sol\":16466:16501  addmod(b_3, mulmod(n3ab, x0, P), P) */\n      addmod\n        /* \".deps/github/succinctlabs/sp1-contracts/contracts/src/v3.0.0/Groth16Verifier.sol\":2394:2460  0x2fcd3ac2a640a154eb23960892a85a68f031ca0c8344b23a577dcf1052b9e775 */\n      0x2fcd3ac2a640a154eb23960892a85a68f031ca0c8344b23a577dcf1052b9e775\n        /* \".deps/github/succinctlabs/sp1-contracts/contracts/src/v3.0.0/Groth16Verifier.sol\":16441:16505  addmod(FRACTION_3_82_FP, addmod(b_3, mulmod(n3ab, x0, P), P), P) */\n      addmod\n        /* \".deps/github/succinctlabs/sp1-contracts/contracts/src/v3.0.0/Groth16Verifier.sol\":16434:16440  negate */\n      tag_200\n        /* \".deps/github/succinctlabs/sp1-contracts/contracts/src/v3.0.0/Groth16Verifier.sol\":16434:16506  negate(addmod(FRACTION_3_82_FP, addmod(b_3, mulmod(n3ab, x0, P), P), P)) */\n      jump\t// in\n    tag_301:\n        /* \".deps/github/succinctlabs/sp1-contracts/contracts/src/v3.0.0/Groth16Verifier.sol\":16429:16506  y1 = negate(addmod(FRACTION_3_82_FP, addmod(b_3, mulmod(n3ab, x0, P), P), P)) */\n      swap6\n      pop\n        /* \".deps/github/succinctlabs/sp1-contracts/contracts/src/v3.0.0/Groth16Verifier.sol\":16771:16793  sqrt_Fp2(y0, y1, hint) */\n      tag_308\n        /* \".deps/github/succinctlabs/sp1-contracts/contracts/src/v3.0.0/Groth16Verifier.sol\":16780:16782  y0 */\n      dup8\n        /* \".deps/github/succinctlabs/sp1-contracts/contracts/src/v3.0.0/Groth16Verifier.sol\":16784:16786  y1 */\n      dup8\n        /* \".deps/github/succinctlabs/sp1-contracts/contracts/src/v3.0.0/Groth16Verifier.sol\":16788:16792  hint */\n      dup7\n        /* \".deps/github/succinctlabs/sp1-contracts/contracts/src/v3.0.0/Groth16Verifier.sol\":16771:16779  sqrt_Fp2 */\n      tag_250\n        /* \".deps/github/succinctlabs/sp1-contracts/contracts/src/v3.0.0/Groth16Verifier.sol\":16771:16793  sqrt_Fp2(y0, y1, hint) */\n      jump\t// in\n    tag_308:\n        /* \".deps/github/succinctlabs/sp1-contracts/contracts/src/v3.0.0/Groth16Verifier.sol\":16760:16793  (y0, y1) = sqrt_Fp2(y0, y1, hint) */\n      dup1\n      swap8\n      pop\n      dup2\n      swap9\n      pop\n      pop\n      pop\n        /* \".deps/github/succinctlabs/sp1-contracts/contracts/src/v3.0.0/Groth16Verifier.sol\":16808:16820  negate_point */\n      dup5\n        /* \".deps/github/succinctlabs/sp1-contracts/contracts/src/v3.0.0/Groth16Verifier.sol\":16804:16894  if (negate_point) {... */\n      iszero\n      tag_309\n      jumpi\n        /* \".deps/github/succinctlabs/sp1-contracts/contracts/src/v3.0.0/Groth16Verifier.sol\":16842:16852  negate(y0) */\n      tag_310\n        /* \".deps/github/succinctlabs/sp1-contracts/contracts/src/v3.0.0/Groth16Verifier.sol\":16849:16851  y0 */\n      dup8\n        /* \".deps/github/succinctlabs/sp1-contracts/contracts/src/v3.0.0/Groth16Verifier.sol\":16842:16848  negate */\n      tag_200\n        /* \".deps/github/succinctlabs/sp1-contracts/contracts/src/v3.0.0/Groth16Verifier.sol\":16842:16852  negate(y0) */\n      jump\t// in\n    tag_310:\n        /* \".deps/github/succinctlabs/sp1-contracts/contracts/src/v3.0.0/Groth16Verifier.sol\":16837:16852  y0 = negate(y0) */\n      swap7\n      pop\n        /* \".deps/github/succinctlabs/sp1-contracts/contracts/src/v3.0.0/Groth16Verifier.sol\":16872:16882  negate(y1) */\n      tag_311\n        /* \".deps/github/succinctlabs/sp1-contracts/contracts/src/v3.0.0/Groth16Verifier.sol\":16879:16881  y1 */\n      dup7\n        /* \".deps/github/succinctlabs/sp1-contracts/contracts/src/v3.0.0/Groth16Verifier.sol\":16872:16878  negate */\n      tag_200\n        /* \".deps/github/succinctlabs/sp1-contracts/contracts/src/v3.0.0/Groth16Verifier.sol\":16872:16882  negate(y1) */\n      jump\t// in\n    tag_311:\n        /* \".deps/github/succinctlabs/sp1-contracts/contracts/src/v3.0.0/Groth16Verifier.sol\":16867:16882  y1 = negate(y1) */\n      swap6\n      pop\n        /* \".deps/github/succinctlabs/sp1-contracts/contracts/src/v3.0.0/Groth16Verifier.sol\":16804:16894  if (negate_point) {... */\n    tag_309:\n        /* \".deps/github/succinctlabs/sp1-contracts/contracts/src/v3.0.0/Groth16Verifier.sol\":15612:16901  {... */\n      pop\n      pop\n      pop\n      pop\n      pop\n        /* \".deps/github/succinctlabs/sp1-contracts/contracts/src/v3.0.0/Groth16Verifier.sol\":15462:16901  function decompress_g2(uint256 c0, uint256 c1)... */\n    tag_277:\n      swap3\n      swap6\n      swap2\n      swap5\n      pop\n      swap3\n      pop\n      jump\t// out\n        /* \".deps/github/succinctlabs/sp1-contracts/contracts/src/v3.0.0/Groth16Verifier.sol\":7585:7892  function sqrt_Fp(uint256 a) internal view returns (uint256 x) {... */\n    tag_196:\n        /* \".deps/github/succinctlabs/sp1-contracts/contracts/src/v3.0.0/Groth16Verifier.sol\":7636:7645  uint256 x */\n      0x00\n        /* \".deps/github/succinctlabs/sp1-contracts/contracts/src/v3.0.0/Groth16Verifier.sol\":7662:7681  exp(a, EXP_SQRT_FP) */\n      tag_313\n        /* \".deps/github/succinctlabs/sp1-contracts/contracts/src/v3.0.0/Groth16Verifier.sol\":7666:7667  a */\n      dup3\n        /* \".deps/github/succinctlabs/sp1-contracts/contracts/src/v3.0.0/Groth16Verifier.sol\":2681:2746  0xC19139CB84C680A6E14116DA060561765E05AA45A1C72A34F082305B61F3F52 */\n      0x0c19139cb84c680a6e14116da060561765e05aa45a1c72a34f082305b61f3f52\n        /* \".deps/github/succinctlabs/sp1-contracts/contracts/src/v3.0.0/Groth16Verifier.sol\":7662:7665  exp */\n      tag_314\n        /* \".deps/github/succinctlabs/sp1-contracts/contracts/src/v3.0.0/Groth16Verifier.sol\":7662:7681  exp(a, EXP_SQRT_FP) */\n      jump\t// in\n    tag_313:\n        /* \".deps/github/succinctlabs/sp1-contracts/contracts/src/v3.0.0/Groth16Verifier.sol\":7658:7681  x = exp(a, EXP_SQRT_FP) */\n      swap1\n      pop\n        /* \".deps/github/succinctlabs/sp1-contracts/contracts/src/v3.0.0/Groth16Verifier.sol\":7715:7716  a */\n      dup2\n        /* \".deps/github/succinctlabs/sp1-contracts/contracts/src/v3.0.0/Groth16Verifier.sol\":1427:1493  0x30644e72e131a029b85045b68181585d97816a916871ca8d3c208c16d87cfd47 */\n      0x30644e72e131a029b85045b68181585d97816a916871ca8d3c208c16d87cfd47\n        /* \".deps/github/succinctlabs/sp1-contracts/contracts/src/v3.0.0/Groth16Verifier.sol\":7696:7711  mulmod(x, x, P) */\n      dup1\n      tag_315\n      jumpi\n      tag_316\n      tag_191\n      jump\t// in\n    tag_316:\n    tag_315:\n        /* \".deps/github/succinctlabs/sp1-contracts/contracts/src/v3.0.0/Groth16Verifier.sol\":7706:7707  x */\n      dup3\n        /* \".deps/github/succinctlabs/sp1-contracts/contracts/src/v3.0.0/Groth16Verifier.sol\":7703:7704  x */\n      dup4\n        /* \".deps/github/succinctlabs/sp1-contracts/contracts/src/v3.0.0/Groth16Verifier.sol\":7696:7711  mulmod(x, x, P) */\n      mulmod\n        /* \".deps/github/succinctlabs/sp1-contracts/contracts/src/v3.0.0/Groth16Verifier.sol\":7696:7716  mulmod(x, x, P) != a */\n      eq\n        /* \".deps/github/succinctlabs/sp1-contracts/contracts/src/v3.0.0/Groth16Verifier.sol\":7692:7885  if (mulmod(x, x, P) != a) {... */\n      tag_317\n      jumpi\n        /* \".deps/github/succinctlabs/sp1-contracts/contracts/src/v3.0.0/Groth16Verifier.sol\":7859:7873  ProofInvalid() */\n      mload(0x40)\n      0x7fcdd1f400000000000000000000000000000000000000000000000000000000\n      dup2\n      mstore\n      0x04\n      add\n      mload(0x40)\n      dup1\n      swap2\n      sub\n      swap1\n      revert\n        /* \".deps/github/succinctlabs/sp1-contracts/contracts/src/v3.0.0/Groth16Verifier.sol\":7692:7885  if (mulmod(x, x, P) != a) {... */\n    tag_317:\n        /* \".deps/github/succinctlabs/sp1-contracts/contracts/src/v3.0.0/Groth16Verifier.sol\":7585:7892  function sqrt_Fp(uint256 a) internal view returns (uint256 x) {... */\n      swap2\n      swap1\n      pop\n      jump\t// out\n        /* \".deps/github/succinctlabs/sp1-contracts/contracts/src/v3.0.0/Groth16Verifier.sol\":5665:5838  function negate(uint256 a) internal pure returns (uint256 x) {... */\n    tag_200:\n        /* \".deps/github/succinctlabs/sp1-contracts/contracts/src/v3.0.0/Groth16Verifier.sol\":5715:5724  uint256 x */\n      0x00\n        /* \".deps/github/succinctlabs/sp1-contracts/contracts/src/v3.0.0/Groth16Verifier.sol\":1427:1493  0x30644e72e131a029b85045b68181585d97816a916871ca8d3c208c16d87cfd47 */\n      0x30644e72e131a029b85045b68181585d97816a916871ca8d3c208c16d87cfd47\n      dup1\n        /* \".deps/github/succinctlabs/sp1-contracts/contracts/src/v3.0.0/Groth16Verifier.sol\":5772:5773  a */\n      dup4\n        /* \".deps/github/succinctlabs/sp1-contracts/contracts/src/v3.0.0/Groth16Verifier.sol\":5772:5777  a % P */\n      dup2\n      tag_319\n      jumpi\n      tag_320\n      tag_191\n      jump\t// in\n    tag_320:\n    tag_319:\n      mod\n        /* \".deps/github/succinctlabs/sp1-contracts/contracts/src/v3.0.0/Groth16Verifier.sol\":1427:1493  0x30644e72e131a029b85045b68181585d97816a916871ca8d3c208c16d87cfd47 */\n      0x30644e72e131a029b85045b68181585d97816a916871ca8d3c208c16d87cfd47\n        /* \".deps/github/succinctlabs/sp1-contracts/contracts/src/v3.0.0/Groth16Verifier.sol\":5767:5778  P - (a % P) */\n      sub\n        /* \".deps/github/succinctlabs/sp1-contracts/contracts/src/v3.0.0/Groth16Verifier.sol\":5766:5783  (P - (a % P)) % P */\n      dup2\n      tag_321\n      jumpi\n      tag_322\n      tag_191\n      jump\t// in\n    tag_322:\n    tag_321:\n      mod\n        /* \".deps/github/succinctlabs/sp1-contracts/contracts/src/v3.0.0/Groth16Verifier.sol\":5762:5783  x = (P - (a % P)) % P */\n      swap1\n      pop\n        /* \".deps/github/succinctlabs/sp1-contracts/contracts/src/v3.0.0/Groth16Verifier.sol\":5665:5838  function negate(uint256 a) internal pure returns (uint256 x) {... */\n      swap2\n      swap1\n      pop\n      jump\t// out\n        /* \".deps/github/succinctlabs/sp1-contracts/contracts/src/v3.0.0/Groth16Verifier.sol\":8170:8319  function isSquare_Fp(uint256 a) internal view returns (bool) {... */\n    tag_248:\n        /* \".deps/github/succinctlabs/sp1-contracts/contracts/src/v3.0.0/Groth16Verifier.sol\":8225:8229  bool */\n      0x00\n        /* \".deps/github/succinctlabs/sp1-contracts/contracts/src/v3.0.0/Groth16Verifier.sol\":8242:8251  uint256 x */\n      0x00\n        /* \".deps/github/succinctlabs/sp1-contracts/contracts/src/v3.0.0/Groth16Verifier.sol\":8254:8273  exp(a, EXP_SQRT_FP) */\n      tag_324\n        /* \".deps/github/succinctlabs/sp1-contracts/contracts/src/v3.0.0/Groth16Verifier.sol\":8258:8259  a */\n      dup4\n        /* \".deps/github/succinctlabs/sp1-contracts/contracts/src/v3.0.0/Groth16Verifier.sol\":2681:2746  0xC19139CB84C680A6E14116DA060561765E05AA45A1C72A34F082305B61F3F52 */\n      0x0c19139cb84c680a6e14116da060561765e05aa45a1c72a34f082305b61f3f52\n        /* \".deps/github/succinctlabs/sp1-contracts/contracts/src/v3.0.0/Groth16Verifier.sol\":8254:8257  exp */\n      tag_314\n        /* \".deps/github/succinctlabs/sp1-contracts/contracts/src/v3.0.0/Groth16Verifier.sol\":8254:8273  exp(a, EXP_SQRT_FP) */\n      jump\t// in\n    tag_324:\n        /* \".deps/github/succinctlabs/sp1-contracts/contracts/src/v3.0.0/Groth16Verifier.sol\":8242:8273  uint256 x = exp(a, EXP_SQRT_FP) */\n      swap1\n      pop\n        /* \".deps/github/succinctlabs/sp1-contracts/contracts/src/v3.0.0/Groth16Verifier.sol\":8310:8311  a */\n      dup3\n        /* \".deps/github/succinctlabs/sp1-contracts/contracts/src/v3.0.0/Groth16Verifier.sol\":1427:1493  0x30644e72e131a029b85045b68181585d97816a916871ca8d3c208c16d87cfd47 */\n      0x30644e72e131a029b85045b68181585d97816a916871ca8d3c208c16d87cfd47\n        /* \".deps/github/succinctlabs/sp1-contracts/contracts/src/v3.0.0/Groth16Verifier.sol\":8291:8306  mulmod(x, x, P) */\n      dup1\n      tag_325\n      jumpi\n      tag_326\n      tag_191\n      jump\t// in\n    tag_326:\n    tag_325:\n        /* \".deps/github/succinctlabs/sp1-contracts/contracts/src/v3.0.0/Groth16Verifier.sol\":8301:8302  x */\n      dup3\n        /* \".deps/github/succinctlabs/sp1-contracts/contracts/src/v3.0.0/Groth16Verifier.sol\":8298:8299  x */\n      dup4\n        /* \".deps/github/succinctlabs/sp1-contracts/contracts/src/v3.0.0/Groth16Verifier.sol\":8291:8306  mulmod(x, x, P) */\n      mulmod\n        /* \".deps/github/succinctlabs/sp1-contracts/contracts/src/v3.0.0/Groth16Verifier.sol\":8291:8311  mulmod(x, x, P) == a */\n      eq\n        /* \".deps/github/succinctlabs/sp1-contracts/contracts/src/v3.0.0/Groth16Verifier.sol\":8284:8311  return mulmod(x, x, P) == a */\n      swap2\n      pop\n      pop\n        /* \".deps/github/succinctlabs/sp1-contracts/contracts/src/v3.0.0/Groth16Verifier.sol\":8170:8319  function isSquare_Fp(uint256 a) internal view returns (bool) {... */\n      swap2\n      swap1\n      pop\n      jump\t// out\n        /* \".deps/github/succinctlabs/sp1-contracts/contracts/src/v3.0.0/Groth16Verifier.sol\":8964:9834  function sqrt_Fp2(uint256 a0, uint256 a1, bool hint)... */\n    tag_250:\n        /* \".deps/github/succinctlabs/sp1-contracts/contracts/src/v3.0.0/Groth16Verifier.sol\":9067:9077  uint256 x0 */\n      0x00\n        /* \".deps/github/succinctlabs/sp1-contracts/contracts/src/v3.0.0/Groth16Verifier.sol\":9079:9089  uint256 x1 */\n      0x00\n        /* \".deps/github/succinctlabs/sp1-contracts/contracts/src/v3.0.0/Groth16Verifier.sol\":9176:9185  uint256 d */\n      0x00\n        /* \".deps/github/succinctlabs/sp1-contracts/contracts/src/v3.0.0/Groth16Verifier.sol\":9188:9244  sqrt_Fp(addmod(mulmod(a0, a0, P), mulmod(a1, a1, P), P)) */\n      tag_328\n        /* \".deps/github/succinctlabs/sp1-contracts/contracts/src/v3.0.0/Groth16Verifier.sol\":1427:1493  0x30644e72e131a029b85045b68181585d97816a916871ca8d3c208c16d87cfd47 */\n      0x30644e72e131a029b85045b68181585d97816a916871ca8d3c208c16d87cfd47\n        /* \".deps/github/succinctlabs/sp1-contracts/contracts/src/v3.0.0/Groth16Verifier.sol\":9196:9243  addmod(mulmod(a0, a0, P), mulmod(a1, a1, P), P) */\n      dup1\n      tag_329\n      jumpi\n      tag_330\n      tag_191\n      jump\t// in\n    tag_330:\n    tag_329:\n        /* \".deps/github/succinctlabs/sp1-contracts/contracts/src/v3.0.0/Groth16Verifier.sol\":1427:1493  0x30644e72e131a029b85045b68181585d97816a916871ca8d3c208c16d87cfd47 */\n      0x30644e72e131a029b85045b68181585d97816a916871ca8d3c208c16d87cfd47\n        /* \".deps/github/succinctlabs/sp1-contracts/contracts/src/v3.0.0/Groth16Verifier.sol\":9222:9239  mulmod(a1, a1, P) */\n      dup1\n      tag_331\n      jumpi\n      tag_332\n      tag_191\n      jump\t// in\n    tag_332:\n    tag_331:\n        /* \".deps/github/succinctlabs/sp1-contracts/contracts/src/v3.0.0/Groth16Verifier.sol\":9233:9235  a1 */\n      dup8\n        /* \".deps/github/succinctlabs/sp1-contracts/contracts/src/v3.0.0/Groth16Verifier.sol\":9229:9231  a1 */\n      dup9\n        /* \".deps/github/succinctlabs/sp1-contracts/contracts/src/v3.0.0/Groth16Verifier.sol\":9222:9239  mulmod(a1, a1, P) */\n      mulmod\n        /* \".deps/github/succinctlabs/sp1-contracts/contracts/src/v3.0.0/Groth16Verifier.sol\":1427:1493  0x30644e72e131a029b85045b68181585d97816a916871ca8d3c208c16d87cfd47 */\n      0x30644e72e131a029b85045b68181585d97816a916871ca8d3c208c16d87cfd47\n        /* \".deps/github/succinctlabs/sp1-contracts/contracts/src/v3.0.0/Groth16Verifier.sol\":9203:9220  mulmod(a0, a0, P) */\n      dup1\n      tag_333\n      jumpi\n      tag_334\n      tag_191\n      jump\t// in\n    tag_334:\n    tag_333:\n        /* \".deps/github/succinctlabs/sp1-contracts/contracts/src/v3.0.0/Groth16Verifier.sol\":9214:9216  a0 */\n      dup10\n        /* \".deps/github/succinctlabs/sp1-contracts/contracts/src/v3.0.0/Groth16Verifier.sol\":9210:9212  a0 */\n      dup11\n        /* \".deps/github/succinctlabs/sp1-contracts/contracts/src/v3.0.0/Groth16Verifier.sol\":9203:9220  mulmod(a0, a0, P) */\n      mulmod\n        /* \".deps/github/succinctlabs/sp1-contracts/contracts/src/v3.0.0/Groth16Verifier.sol\":9196:9243  addmod(mulmod(a0, a0, P), mulmod(a1, a1, P), P) */\n      addmod\n        /* \".deps/github/succinctlabs/sp1-contracts/contracts/src/v3.0.0/Groth16Verifier.sol\":9188:9195  sqrt_Fp */\n      tag_196\n        /* \".deps/github/succinctlabs/sp1-contracts/contracts/src/v3.0.0/Groth16Verifier.sol\":9188:9244  sqrt_Fp(addmod(mulmod(a0, a0, P), mulmod(a1, a1, P), P)) */\n      jump\t// in\n    tag_328:\n        /* \".deps/github/succinctlabs/sp1-contracts/contracts/src/v3.0.0/Groth16Verifier.sol\":9176:9244  uint256 d = sqrt_Fp(addmod(mulmod(a0, a0, P), mulmod(a1, a1, P), P)) */\n      swap1\n      pop\n        /* \".deps/github/succinctlabs/sp1-contracts/contracts/src/v3.0.0/Groth16Verifier.sol\":9259:9263  hint */\n      dup4\n        /* \".deps/github/succinctlabs/sp1-contracts/contracts/src/v3.0.0/Groth16Verifier.sol\":9255:9305  if (hint) {... */\n      iszero\n      tag_335\n      jumpi\n        /* \".deps/github/succinctlabs/sp1-contracts/contracts/src/v3.0.0/Groth16Verifier.sol\":9284:9293  negate(d) */\n      tag_336\n        /* \".deps/github/succinctlabs/sp1-contracts/contracts/src/v3.0.0/Groth16Verifier.sol\":9291:9292  d */\n      dup2\n        /* \".deps/github/succinctlabs/sp1-contracts/contracts/src/v3.0.0/Groth16Verifier.sol\":9284:9290  negate */\n      tag_200\n        /* \".deps/github/succinctlabs/sp1-contracts/contracts/src/v3.0.0/Groth16Verifier.sol\":9284:9293  negate(d) */\n      jump\t// in\n    tag_336:\n        /* \".deps/github/succinctlabs/sp1-contracts/contracts/src/v3.0.0/Groth16Verifier.sol\":9280:9293  d = negate(d) */\n      swap1\n      pop\n        /* \".deps/github/succinctlabs/sp1-contracts/contracts/src/v3.0.0/Groth16Verifier.sol\":9255:9305  if (hint) {... */\n    tag_335:\n        /* \".deps/github/succinctlabs/sp1-contracts/contracts/src/v3.0.0/Groth16Verifier.sol\":9389:9442  sqrt_Fp(mulmod(addmod(a0, d, P), FRACTION_1_2_FP, P)) */\n      tag_337\n        /* \".deps/github/succinctlabs/sp1-contracts/contracts/src/v3.0.0/Groth16Verifier.sol\":1427:1493  0x30644e72e131a029b85045b68181585d97816a916871ca8d3c208c16d87cfd47 */\n      0x30644e72e131a029b85045b68181585d97816a916871ca8d3c208c16d87cfd47\n        /* \".deps/github/succinctlabs/sp1-contracts/contracts/src/v3.0.0/Groth16Verifier.sol\":9397:9441  mulmod(addmod(a0, d, P), FRACTION_1_2_FP, P) */\n      dup1\n      tag_338\n      jumpi\n      tag_339\n      tag_191\n      jump\t// in\n    tag_339:\n    tag_338:\n        /* \".deps/github/succinctlabs/sp1-contracts/contracts/src/v3.0.0/Groth16Verifier.sol\":2157:2223  0x183227397098d014dc2822db40c0ac2ecbc0b548b438e5469e10460b6c3e7ea4 */\n      0x183227397098d014dc2822db40c0ac2ecbc0b548b438e5469e10460b6c3e7ea4\n        /* \".deps/github/succinctlabs/sp1-contracts/contracts/src/v3.0.0/Groth16Verifier.sol\":1427:1493  0x30644e72e131a029b85045b68181585d97816a916871ca8d3c208c16d87cfd47 */\n      0x30644e72e131a029b85045b68181585d97816a916871ca8d3c208c16d87cfd47\n        /* \".deps/github/succinctlabs/sp1-contracts/contracts/src/v3.0.0/Groth16Verifier.sol\":9404:9420  addmod(a0, d, P) */\n      dup1\n      tag_340\n      jumpi\n      tag_341\n      tag_191\n      jump\t// in\n    tag_341:\n    tag_340:\n        /* \".deps/github/succinctlabs/sp1-contracts/contracts/src/v3.0.0/Groth16Verifier.sol\":9415:9416  d */\n      dup5\n        /* \".deps/github/succinctlabs/sp1-contracts/contracts/src/v3.0.0/Groth16Verifier.sol\":9411:9413  a0 */\n      dup11\n        /* \".deps/github/succinctlabs/sp1-contracts/contracts/src/v3.0.0/Groth16Verifier.sol\":9404:9420  addmod(a0, d, P) */\n      addmod\n        /* \".deps/github/succinctlabs/sp1-contracts/contracts/src/v3.0.0/Groth16Verifier.sol\":9397:9441  mulmod(addmod(a0, d, P), FRACTION_1_2_FP, P) */\n      mulmod\n        /* \".deps/github/succinctlabs/sp1-contracts/contracts/src/v3.0.0/Groth16Verifier.sol\":9389:9396  sqrt_Fp */\n      tag_196\n        /* \".deps/github/succinctlabs/sp1-contracts/contracts/src/v3.0.0/Groth16Verifier.sol\":9389:9442  sqrt_Fp(mulmod(addmod(a0, d, P), FRACTION_1_2_FP, P)) */\n      jump\t// in\n    tag_337:\n        /* \".deps/github/succinctlabs/sp1-contracts/contracts/src/v3.0.0/Groth16Verifier.sol\":9384:9442  x0 = sqrt_Fp(mulmod(addmod(a0, d, P), FRACTION_1_2_FP, P)) */\n      swap3\n      pop\n        /* \".deps/github/succinctlabs/sp1-contracts/contracts/src/v3.0.0/Groth16Verifier.sol\":1427:1493  0x30644e72e131a029b85045b68181585d97816a916871ca8d3c208c16d87cfd47 */\n      0x30644e72e131a029b85045b68181585d97816a916871ca8d3c208c16d87cfd47\n        /* \".deps/github/succinctlabs/sp1-contracts/contracts/src/v3.0.0/Groth16Verifier.sol\":9458:9500  mulmod(a1, invert_Fp(mulmod(x0, 2, P)), P) */\n      dup1\n      tag_342\n      jumpi\n      tag_343\n      tag_191\n      jump\t// in\n    tag_343:\n    tag_342:\n        /* \".deps/github/succinctlabs/sp1-contracts/contracts/src/v3.0.0/Groth16Verifier.sol\":9469:9496  invert_Fp(mulmod(x0, 2, P)) */\n      tag_344\n        /* \".deps/github/succinctlabs/sp1-contracts/contracts/src/v3.0.0/Groth16Verifier.sol\":1427:1493  0x30644e72e131a029b85045b68181585d97816a916871ca8d3c208c16d87cfd47 */\n      0x30644e72e131a029b85045b68181585d97816a916871ca8d3c208c16d87cfd47\n        /* \".deps/github/succinctlabs/sp1-contracts/contracts/src/v3.0.0/Groth16Verifier.sol\":9479:9495  mulmod(x0, 2, P) */\n      dup1\n      tag_345\n      jumpi\n      tag_346\n      tag_191\n      jump\t// in\n    tag_346:\n    tag_345:\n        /* \".deps/github/succinctlabs/sp1-contracts/contracts/src/v3.0.0/Groth16Verifier.sol\":9490:9491  2 */\n      0x02\n        /* \".deps/github/succinctlabs/sp1-contracts/contracts/src/v3.0.0/Groth16Verifier.sol\":9486:9488  x0 */\n      dup7\n        /* \".deps/github/succinctlabs/sp1-contracts/contracts/src/v3.0.0/Groth16Verifier.sol\":9479:9495  mulmod(x0, 2, P) */\n      mulmod\n        /* \".deps/github/succinctlabs/sp1-contracts/contracts/src/v3.0.0/Groth16Verifier.sol\":9469:9478  invert_Fp */\n      tag_347\n        /* \".deps/github/succinctlabs/sp1-contracts/contracts/src/v3.0.0/Groth16Verifier.sol\":9469:9496  invert_Fp(mulmod(x0, 2, P)) */\n      jump\t// in\n    tag_344:\n        /* \".deps/github/succinctlabs/sp1-contracts/contracts/src/v3.0.0/Groth16Verifier.sol\":9465:9467  a1 */\n      dup7\n        /* \".deps/github/succinctlabs/sp1-contracts/contracts/src/v3.0.0/Groth16Verifier.sol\":9458:9500  mulmod(a1, invert_Fp(mulmod(x0, 2, P)), P) */\n      mulmod\n        /* \".deps/github/succinctlabs/sp1-contracts/contracts/src/v3.0.0/Groth16Verifier.sol\":9453:9500  x1 = mulmod(a1, invert_Fp(mulmod(x0, 2, P)), P) */\n      swap2\n      pop\n        /* \".deps/github/succinctlabs/sp1-contracts/contracts/src/v3.0.0/Groth16Verifier.sol\":1427:1493  0x30644e72e131a029b85045b68181585d97816a916871ca8d3c208c16d87cfd47 */\n      0x30644e72e131a029b85045b68181585d97816a916871ca8d3c208c16d87cfd47\n        /* \".deps/github/succinctlabs/sp1-contracts/contracts/src/v3.0.0/Groth16Verifier.sol\":9654:9709  addmod(mulmod(x0, x0, P), negate(mulmod(x1, x1, P)), P) */\n      dup1\n      tag_348\n      jumpi\n      tag_349\n      tag_191\n      jump\t// in\n    tag_349:\n    tag_348:\n        /* \".deps/github/succinctlabs/sp1-contracts/contracts/src/v3.0.0/Groth16Verifier.sol\":9680:9705  negate(mulmod(x1, x1, P)) */\n      tag_350\n        /* \".deps/github/succinctlabs/sp1-contracts/contracts/src/v3.0.0/Groth16Verifier.sol\":1427:1493  0x30644e72e131a029b85045b68181585d97816a916871ca8d3c208c16d87cfd47 */\n      0x30644e72e131a029b85045b68181585d97816a916871ca8d3c208c16d87cfd47\n        /* \".deps/github/succinctlabs/sp1-contracts/contracts/src/v3.0.0/Groth16Verifier.sol\":9687:9704  mulmod(x1, x1, P) */\n      dup1\n      tag_351\n      jumpi\n      tag_352\n      tag_191\n      jump\t// in\n    tag_352:\n    tag_351:\n        /* \".deps/github/succinctlabs/sp1-contracts/contracts/src/v3.0.0/Groth16Verifier.sol\":9698:9700  x1 */\n      dup5\n        /* \".deps/github/succinctlabs/sp1-contracts/contracts/src/v3.0.0/Groth16Verifier.sol\":9694:9696  x1 */\n      dup6\n        /* \".deps/github/succinctlabs/sp1-contracts/contracts/src/v3.0.0/Groth16Verifier.sol\":9687:9704  mulmod(x1, x1, P) */\n      mulmod\n        /* \".deps/github/succinctlabs/sp1-contracts/contracts/src/v3.0.0/Groth16Verifier.sol\":9680:9686  negate */\n      tag_200\n        /* \".deps/github/succinctlabs/sp1-contracts/contracts/src/v3.0.0/Groth16Verifier.sol\":9680:9705  negate(mulmod(x1, x1, P)) */\n      jump\t// in\n    tag_350:\n        /* \".deps/github/succinctlabs/sp1-contracts/contracts/src/v3.0.0/Groth16Verifier.sol\":1427:1493  0x30644e72e131a029b85045b68181585d97816a916871ca8d3c208c16d87cfd47 */\n      0x30644e72e131a029b85045b68181585d97816a916871ca8d3c208c16d87cfd47\n        /* \".deps/github/succinctlabs/sp1-contracts/contracts/src/v3.0.0/Groth16Verifier.sol\":9661:9678  mulmod(x0, x0, P) */\n      dup1\n      tag_353\n      jumpi\n      tag_354\n      tag_191\n      jump\t// in\n    tag_354:\n    tag_353:\n        /* \".deps/github/succinctlabs/sp1-contracts/contracts/src/v3.0.0/Groth16Verifier.sol\":9672:9674  x0 */\n      dup6\n        /* \".deps/github/succinctlabs/sp1-contracts/contracts/src/v3.0.0/Groth16Verifier.sol\":9668:9670  x0 */\n      dup7\n        /* \".deps/github/succinctlabs/sp1-contracts/contracts/src/v3.0.0/Groth16Verifier.sol\":9661:9678  mulmod(x0, x0, P) */\n      mulmod\n        /* \".deps/github/succinctlabs/sp1-contracts/contracts/src/v3.0.0/Groth16Verifier.sol\":9654:9709  addmod(mulmod(x0, x0, P), negate(mulmod(x1, x1, P)), P) */\n      addmod\n        /* \".deps/github/succinctlabs/sp1-contracts/contracts/src/v3.0.0/Groth16Verifier.sol\":9648:9650  a0 */\n      dup7\n        /* \".deps/github/succinctlabs/sp1-contracts/contracts/src/v3.0.0/Groth16Verifier.sol\":9648:9709  a0 != addmod(mulmod(x0, x0, P), negate(mulmod(x1, x1, P)), P) */\n      eq\n      iszero\n        /* \".deps/github/succinctlabs/sp1-contracts/contracts/src/v3.0.0/Groth16Verifier.sol\":9648:9767  a0 != addmod(mulmod(x0, x0, P), negate(mulmod(x1, x1, P)), P)... */\n      dup1\n      tag_355\n      jumpi\n      pop\n        /* \".deps/github/succinctlabs/sp1-contracts/contracts/src/v3.0.0/Groth16Verifier.sol\":1427:1493  0x30644e72e131a029b85045b68181585d97816a916871ca8d3c208c16d87cfd47 */\n      0x30644e72e131a029b85045b68181585d97816a916871ca8d3c208c16d87cfd47\n        /* \".deps/github/succinctlabs/sp1-contracts/contracts/src/v3.0.0/Groth16Verifier.sol\":9736:9767  mulmod(2, mulmod(x0, x1, P), P) */\n      dup1\n      tag_356\n      jumpi\n      tag_357\n      tag_191\n      jump\t// in\n    tag_357:\n    tag_356:\n        /* \".deps/github/succinctlabs/sp1-contracts/contracts/src/v3.0.0/Groth16Verifier.sol\":1427:1493  0x30644e72e131a029b85045b68181585d97816a916871ca8d3c208c16d87cfd47 */\n      0x30644e72e131a029b85045b68181585d97816a916871ca8d3c208c16d87cfd47\n        /* \".deps/github/succinctlabs/sp1-contracts/contracts/src/v3.0.0/Groth16Verifier.sol\":9746:9763  mulmod(x0, x1, P) */\n      dup1\n      tag_358\n      jumpi\n      tag_359\n      tag_191\n      jump\t// in\n    tag_359:\n    tag_358:\n        /* \".deps/github/succinctlabs/sp1-contracts/contracts/src/v3.0.0/Groth16Verifier.sol\":9757:9759  x1 */\n      dup4\n        /* \".deps/github/succinctlabs/sp1-contracts/contracts/src/v3.0.0/Groth16Verifier.sol\":9753:9755  x0 */\n      dup6\n        /* \".deps/github/succinctlabs/sp1-contracts/contracts/src/v3.0.0/Groth16Verifier.sol\":9746:9763  mulmod(x0, x1, P) */\n      mulmod\n        /* \".deps/github/succinctlabs/sp1-contracts/contracts/src/v3.0.0/Groth16Verifier.sol\":9743:9744  2 */\n      0x02\n        /* \".deps/github/succinctlabs/sp1-contracts/contracts/src/v3.0.0/Groth16Verifier.sol\":9736:9767  mulmod(2, mulmod(x0, x1, P), P) */\n      mulmod\n        /* \".deps/github/succinctlabs/sp1-contracts/contracts/src/v3.0.0/Groth16Verifier.sol\":9730:9732  a1 */\n      dup6\n        /* \".deps/github/succinctlabs/sp1-contracts/contracts/src/v3.0.0/Groth16Verifier.sol\":9730:9767  a1 != mulmod(2, mulmod(x0, x1, P), P) */\n      eq\n      iszero\n        /* \".deps/github/succinctlabs/sp1-contracts/contracts/src/v3.0.0/Groth16Verifier.sol\":9648:9767  a0 != addmod(mulmod(x0, x0, P), negate(mulmod(x1, x1, P)), P)... */\n    tag_355:\n        /* \".deps/github/succinctlabs/sp1-contracts/contracts/src/v3.0.0/Groth16Verifier.sol\":9630:9827  if (... */\n      iszero\n      tag_360\n      jumpi\n        /* \".deps/github/succinctlabs/sp1-contracts/contracts/src/v3.0.0/Groth16Verifier.sol\":9801:9815  ProofInvalid() */\n      mload(0x40)\n      0x7fcdd1f400000000000000000000000000000000000000000000000000000000\n      dup2\n      mstore\n      0x04\n      add\n      mload(0x40)\n      dup1\n      swap2\n      sub\n      swap1\n      revert\n        /* \".deps/github/succinctlabs/sp1-contracts/contracts/src/v3.0.0/Groth16Verifier.sol\":9630:9827  if (... */\n    tag_360:\n        /* \".deps/github/succinctlabs/sp1-contracts/contracts/src/v3.0.0/Groth16Verifier.sol\":9096:9834  {... */\n      pop\n        /* \".deps/github/succinctlabs/sp1-contracts/contracts/src/v3.0.0/Groth16Verifier.sol\":8964:9834  function sqrt_Fp2(uint256 a0, uint256 a1, bool hint)... */\n      swap4\n      pop\n      swap4\n      swap2\n      pop\n      pop\n      jump\t// out\n        /* \".deps/github/succinctlabs/sp1-contracts/contracts/src/v3.0.0/Groth16Verifier.sol\":6084:6737  function exp(uint256 a, uint256 e) internal view returns (uint256 x) {... */\n    tag_314:\n        /* \".deps/github/succinctlabs/sp1-contracts/contracts/src/v3.0.0/Groth16Verifier.sol\":6142:6151  uint256 x */\n      0x00\n        /* \".deps/github/succinctlabs/sp1-contracts/contracts/src/v3.0.0/Groth16Verifier.sol\":6164:6176  bool success */\n      0x00\n        /* \".deps/github/succinctlabs/sp1-contracts/contracts/src/v3.0.0/Groth16Verifier.sol\":6242:6246  0x40 */\n      0x40\n        /* \".deps/github/succinctlabs/sp1-contracts/contracts/src/v3.0.0/Groth16Verifier.sol\":6236:6247  mload(0x40) */\n      mload\n        /* \".deps/github/succinctlabs/sp1-contracts/contracts/src/v3.0.0/Groth16Verifier.sol\":6271:6275  0x20 */\n      0x20\n        /* \".deps/github/succinctlabs/sp1-contracts/contracts/src/v3.0.0/Groth16Verifier.sol\":6268:6269  f */\n      dup2\n        /* \".deps/github/succinctlabs/sp1-contracts/contracts/src/v3.0.0/Groth16Verifier.sol\":6261:6276  mstore(f, 0x20) */\n      mstore\n        /* \".deps/github/succinctlabs/sp1-contracts/contracts/src/v3.0.0/Groth16Verifier.sol\":6311:6315  0x20 */\n      0x20\n        /* \".deps/github/succinctlabs/sp1-contracts/contracts/src/v3.0.0/Groth16Verifier.sol\":6304:6308  0x20 */\n      dup1\n        /* \".deps/github/succinctlabs/sp1-contracts/contracts/src/v3.0.0/Groth16Verifier.sol\":6301:6302  f */\n      dup3\n        /* \".deps/github/succinctlabs/sp1-contracts/contracts/src/v3.0.0/Groth16Verifier.sol\":6297:6309  add(f, 0x20) */\n      add\n        /* \".deps/github/succinctlabs/sp1-contracts/contracts/src/v3.0.0/Groth16Verifier.sol\":6290:6316  mstore(add(f, 0x20), 0x20) */\n      mstore\n        /* \".deps/github/succinctlabs/sp1-contracts/contracts/src/v3.0.0/Groth16Verifier.sol\":6351:6355  0x20 */\n      0x20\n        /* \".deps/github/succinctlabs/sp1-contracts/contracts/src/v3.0.0/Groth16Verifier.sol\":6344:6348  0x40 */\n      0x40\n        /* \".deps/github/succinctlabs/sp1-contracts/contracts/src/v3.0.0/Groth16Verifier.sol\":6341:6342  f */\n      dup3\n        /* \".deps/github/succinctlabs/sp1-contracts/contracts/src/v3.0.0/Groth16Verifier.sol\":6337:6349  add(f, 0x40) */\n      add\n        /* \".deps/github/succinctlabs/sp1-contracts/contracts/src/v3.0.0/Groth16Verifier.sol\":6330:6356  mstore(add(f, 0x40), 0x20) */\n      mstore\n        /* \".deps/github/succinctlabs/sp1-contracts/contracts/src/v3.0.0/Groth16Verifier.sol\":6391:6392  a */\n      dup5\n        /* \".deps/github/succinctlabs/sp1-contracts/contracts/src/v3.0.0/Groth16Verifier.sol\":6384:6388  0x60 */\n      0x60\n        /* \".deps/github/succinctlabs/sp1-contracts/contracts/src/v3.0.0/Groth16Verifier.sol\":6381:6382  f */\n      dup3\n        /* \".deps/github/succinctlabs/sp1-contracts/contracts/src/v3.0.0/Groth16Verifier.sol\":6377:6389  add(f, 0x60) */\n      add\n        /* \".deps/github/succinctlabs/sp1-contracts/contracts/src/v3.0.0/Groth16Verifier.sol\":6370:6393  mstore(add(f, 0x60), a) */\n      mstore\n        /* \".deps/github/succinctlabs/sp1-contracts/contracts/src/v3.0.0/Groth16Verifier.sol\":6428:6429  e */\n      dup4\n        /* \".deps/github/succinctlabs/sp1-contracts/contracts/src/v3.0.0/Groth16Verifier.sol\":6421:6425  0x80 */\n      0x80\n        /* \".deps/github/succinctlabs/sp1-contracts/contracts/src/v3.0.0/Groth16Verifier.sol\":6418:6419  f */\n      dup3\n        /* \".deps/github/succinctlabs/sp1-contracts/contracts/src/v3.0.0/Groth16Verifier.sol\":6414:6426  add(f, 0x80) */\n      add\n        /* \".deps/github/succinctlabs/sp1-contracts/contracts/src/v3.0.0/Groth16Verifier.sol\":6407:6430  mstore(add(f, 0x80), e) */\n      mstore\n        /* \".deps/github/succinctlabs/sp1-contracts/contracts/src/v3.0.0/Groth16Verifier.sol\":6465:6466  P */\n      0x30644e72e131a029b85045b68181585d97816a916871ca8d3c208c16d87cfd47\n        /* \".deps/github/succinctlabs/sp1-contracts/contracts/src/v3.0.0/Groth16Verifier.sol\":6458:6462  0xa0 */\n      0xa0\n        /* \".deps/github/succinctlabs/sp1-contracts/contracts/src/v3.0.0/Groth16Verifier.sol\":6455:6456  f */\n      dup3\n        /* \".deps/github/succinctlabs/sp1-contracts/contracts/src/v3.0.0/Groth16Verifier.sol\":6451:6463  add(f, 0xa0) */\n      add\n        /* \".deps/github/succinctlabs/sp1-contracts/contracts/src/v3.0.0/Groth16Verifier.sol\":6444:6467  mstore(add(f, 0xa0), P) */\n      mstore\n        /* \".deps/github/succinctlabs/sp1-contracts/contracts/src/v3.0.0/Groth16Verifier.sol\":6541:6545  0x20 */\n      0x20\n        /* \".deps/github/succinctlabs/sp1-contracts/contracts/src/v3.0.0/Groth16Verifier.sol\":6538:6539  f */\n      dup2\n        /* \".deps/github/succinctlabs/sp1-contracts/contracts/src/v3.0.0/Groth16Verifier.sol\":6532:6536  0xc0 */\n      0xc0\n        /* \".deps/github/succinctlabs/sp1-contracts/contracts/src/v3.0.0/Groth16Verifier.sol\":6529:6530  f */\n      dup4\n        /* \".deps/github/succinctlabs/sp1-contracts/contracts/src/v3.0.0/Groth16Verifier.sol\":6510:6527  PRECOMPILE_MODEXP */\n      0x05\n        /* \".deps/github/succinctlabs/sp1-contracts/contracts/src/v3.0.0/Groth16Verifier.sol\":6503:6508  gas() */\n      gas\n        /* \".deps/github/succinctlabs/sp1-contracts/contracts/src/v3.0.0/Groth16Verifier.sol\":6492:6546  staticcall(gas(), PRECOMPILE_MODEXP, f, 0xc0, f, 0x20) */\n      staticcall\n        /* \".deps/github/succinctlabs/sp1-contracts/contracts/src/v3.0.0/Groth16Verifier.sol\":6481:6546  success := staticcall(gas(), PRECOMPILE_MODEXP, f, 0xc0, f, 0x20) */\n      swap2\n      pop\n        /* \".deps/github/succinctlabs/sp1-contracts/contracts/src/v3.0.0/Groth16Verifier.sol\":6571:6572  f */\n      dup1\n        /* \".deps/github/succinctlabs/sp1-contracts/contracts/src/v3.0.0/Groth16Verifier.sol\":6565:6573  mload(f) */\n      mload\n        /* \".deps/github/succinctlabs/sp1-contracts/contracts/src/v3.0.0/Groth16Verifier.sol\":6560:6573  x := mload(f) */\n      swap3\n      pop\n        /* \".deps/github/succinctlabs/sp1-contracts/contracts/src/v3.0.0/Groth16Verifier.sol\":6212:6584  {... */\n      pop\n        /* \".deps/github/succinctlabs/sp1-contracts/contracts/src/v3.0.0/Groth16Verifier.sol\":6599:6606  success */\n      dup1\n        /* \".deps/github/succinctlabs/sp1-contracts/contracts/src/v3.0.0/Groth16Verifier.sol\":6594:6730  if (!success) {... */\n      tag_362\n      jumpi\n        /* \".deps/github/succinctlabs/sp1-contracts/contracts/src/v3.0.0/Groth16Verifier.sol\":6704:6718  ProofInvalid() */\n      mload(0x40)\n      0x7fcdd1f400000000000000000000000000000000000000000000000000000000\n      dup2\n      mstore\n      0x04\n      add\n      mload(0x40)\n      dup1\n      swap2\n      sub\n      swap1\n      revert\n        /* \".deps/github/succinctlabs/sp1-contracts/contracts/src/v3.0.0/Groth16Verifier.sol\":6594:6730  if (!success) {... */\n    tag_362:\n        /* \".deps/github/succinctlabs/sp1-contracts/contracts/src/v3.0.0/Groth16Verifier.sol\":6153:6737  {... */\n      pop\n        /* \".deps/github/succinctlabs/sp1-contracts/contracts/src/v3.0.0/Groth16Verifier.sol\":6084:6737  function exp(uint256 a, uint256 e) internal view returns (uint256 x) {... */\n      swap3\n      swap2\n      pop\n      pop\n      jump\t// out\n        /* \".deps/github/succinctlabs/sp1-contracts/contracts/src/v3.0.0/Groth16Verifier.sol\":7026:7322  function invert_Fp(uint256 a) internal view returns (uint256 x) {... */\n    tag_347:\n        /* \".deps/github/succinctlabs/sp1-contracts/contracts/src/v3.0.0/Groth16Verifier.sol\":7079:7088  uint256 x */\n      0x00\n        /* \".deps/github/succinctlabs/sp1-contracts/contracts/src/v3.0.0/Groth16Verifier.sol\":7105:7127  exp(a, EXP_INVERSE_FP) */\n      tag_364\n        /* \".deps/github/succinctlabs/sp1-contracts/contracts/src/v3.0.0/Groth16Verifier.sol\":7109:7110  a */\n      dup3\n        /* \".deps/github/succinctlabs/sp1-contracts/contracts/src/v3.0.0/Groth16Verifier.sol\":2568:2634  0x30644E72E131A029B85045B68181585D97816A916871CA8D3C208C16D87CFD45 */\n      0x30644e72e131a029b85045b68181585d97816a916871ca8d3c208c16d87cfd45\n        /* \".deps/github/succinctlabs/sp1-contracts/contracts/src/v3.0.0/Groth16Verifier.sol\":7105:7108  exp */\n      tag_314\n        /* \".deps/github/succinctlabs/sp1-contracts/contracts/src/v3.0.0/Groth16Verifier.sol\":7105:7127  exp(a, EXP_INVERSE_FP) */\n      jump\t// in\n    tag_364:\n        /* \".deps/github/succinctlabs/sp1-contracts/contracts/src/v3.0.0/Groth16Verifier.sol\":7101:7127  x = exp(a, EXP_INVERSE_FP) */\n      swap1\n      pop\n        /* \".deps/github/succinctlabs/sp1-contracts/contracts/src/v3.0.0/Groth16Verifier.sol\":7161:7162  1 */\n      0x01\n        /* \".deps/github/succinctlabs/sp1-contracts/contracts/src/v3.0.0/Groth16Verifier.sol\":1427:1493  0x30644e72e131a029b85045b68181585d97816a916871ca8d3c208c16d87cfd47 */\n      0x30644e72e131a029b85045b68181585d97816a916871ca8d3c208c16d87cfd47\n        /* \".deps/github/succinctlabs/sp1-contracts/contracts/src/v3.0.0/Groth16Verifier.sol\":7142:7157  mulmod(a, x, P) */\n      dup1\n      tag_365\n      jumpi\n      tag_366\n      tag_191\n      jump\t// in\n    tag_366:\n    tag_365:\n        /* \".deps/github/succinctlabs/sp1-contracts/contracts/src/v3.0.0/Groth16Verifier.sol\":7152:7153  x */\n      dup3\n        /* \".deps/github/succinctlabs/sp1-contracts/contracts/src/v3.0.0/Groth16Verifier.sol\":7149:7150  a */\n      dup5\n        /* \".deps/github/succinctlabs/sp1-contracts/contracts/src/v3.0.0/Groth16Verifier.sol\":7142:7157  mulmod(a, x, P) */\n      mulmod\n        /* \".deps/github/succinctlabs/sp1-contracts/contracts/src/v3.0.0/Groth16Verifier.sol\":7142:7162  mulmod(a, x, P) != 1 */\n      eq\n        /* \".deps/github/succinctlabs/sp1-contracts/contracts/src/v3.0.0/Groth16Verifier.sol\":7138:7315  if (mulmod(a, x, P) != 1) {... */\n      tag_367\n      jumpi\n        /* \".deps/github/succinctlabs/sp1-contracts/contracts/src/v3.0.0/Groth16Verifier.sol\":7289:7303  ProofInvalid() */\n      mload(0x40)\n      0x7fcdd1f400000000000000000000000000000000000000000000000000000000\n      dup2\n      mstore\n      0x04\n      add\n      mload(0x40)\n      dup1\n      swap2\n      sub\n      swap1\n      revert\n        /* \".deps/github/succinctlabs/sp1-contracts/contracts/src/v3.0.0/Groth16Verifier.sol\":7138:7315  if (mulmod(a, x, P) != 1) {... */\n    tag_367:\n        /* \".deps/github/succinctlabs/sp1-contracts/contracts/src/v3.0.0/Groth16Verifier.sol\":7026:7322  function invert_Fp(uint256 a) internal view returns (uint256 x) {... */\n      swap2\n      swap1\n      pop\n      jump\t// out\n    tag_54:\n      mload(0x40)\n      dup1\n      0x40\n      add\n      0x40\n      mstore\n      dup1\n      0x02\n      swap1\n      0x20\n      dup3\n      mul\n      dup1\n      calldatasize\n      dup4\n      calldatacopy\n      dup1\n      dup3\n      add\n      swap2\n      pop\n      pop\n      swap1\n      pop\n      pop\n      swap1\n      jump\t// out\n    tag_69:\n      mload(0x40)\n      dup1\n      0x80\n      add\n      0x40\n      mstore\n      dup1\n      0x04\n      swap1\n      0x20\n      dup3\n      mul\n      dup1\n      calldatasize\n      dup4\n      calldatacopy\n      dup1\n      dup3\n      add\n      swap2\n      pop\n      pop\n      swap1\n      pop\n      pop\n      swap1\n      jump\t// out\n    tag_113:\n      mload(0x40)\n      dup1\n      0x0300\n      add\n      0x40\n      mstore\n      dup1\n      0x18\n      swap1\n      0x20\n      dup3\n      mul\n      dup1\n      calldatasize\n      dup4\n      calldatacopy\n      dup1\n      dup3\n      add\n      swap2\n      pop\n      pop\n      swap1\n      pop\n      pop\n      swap1\n      jump\t// out\n    tag_177:\n      mload(0x40)\n      dup1\n      0x20\n      add\n      0x40\n      mstore\n      dup1\n      0x01\n      swap1\n      0x20\n      dup3\n      mul\n      dup1\n      calldatasize\n      dup4\n      calldatacopy\n      dup1\n      dup3\n      add\n      swap2\n      pop\n      pop\n      swap1\n      pop\n      pop\n      swap1\n      jump\t// out\n        /* \"#utility.yul\":7:84   */\n    tag_368:\n        /* \"#utility.yul\":44:51   */\n      0x00\n        /* \"#utility.yul\":73:78   */\n      dup2\n        /* \"#utility.yul\":62:78   */\n      swap1\n      pop\n        /* \"#utility.yul\":7:84   */\n      swap2\n      swap1\n      pop\n      jump\t// out\n        /* \"#utility.yul\":90:208   */\n    tag_369:\n        /* \"#utility.yul\":177:201   */\n      tag_428\n        /* \"#utility.yul\":195:200   */\n      dup2\n        /* \"#utility.yul\":177:201   */\n      tag_368\n      jump\t// in\n    tag_428:\n        /* \"#utility.yul\":172:175   */\n      dup3\n        /* \"#utility.yul\":165:202   */\n      mstore\n        /* \"#utility.yul\":90:208   */\n      pop\n      pop\n      jump\t// out\n        /* \"#utility.yul\":214:436   */\n    tag_14:\n        /* \"#utility.yul\":307:311   */\n      0x00\n        /* \"#utility.yul\":345:347   */\n      0x20\n        /* \"#utility.yul\":334:343   */\n      dup3\n        /* \"#utility.yul\":330:348   */\n      add\n        /* \"#utility.yul\":322:348   */\n      swap1\n      pop\n        /* \"#utility.yul\":358:429   */\n      tag_430\n        /* \"#utility.yul\":426:427   */\n      0x00\n        /* \"#utility.yul\":415:424   */\n      dup4\n        /* \"#utility.yul\":411:428   */\n      add\n        /* \"#utility.yul\":402:408   */\n      dup5\n        /* \"#utility.yul\":358:429   */\n      tag_369\n      jump\t// in\n    tag_430:\n        /* \"#utility.yul\":214:436   */\n      swap3\n      swap2\n      pop\n      pop\n      jump\t// out\n        /* \"#utility.yul\":442:517   */\n    tag_370:\n        /* \"#utility.yul\":475:481   */\n      0x00\n        /* \"#utility.yul\":508:510   */\n      0x40\n        /* \"#utility.yul\":502:511   */\n      mload\n        /* \"#utility.yul\":492:511   */\n      swap1\n      pop\n        /* \"#utility.yul\":442:517   */\n      swap1\n      jump\t// out\n        /* \"#utility.yul\":523:640   */\n    tag_371:\n        /* \"#utility.yul\":632:633   */\n      0x00\n        /* \"#utility.yul\":629:630   */\n      0x00\n        /* \"#utility.yul\":622:634   */\n      revert\n        /* \"#utility.yul\":646:763   */\n    tag_372:\n        /* \"#utility.yul\":755:756   */\n      0x00\n        /* \"#utility.yul\":752:753   */\n      0x00\n        /* \"#utility.yul\":745:757   */\n      revert\n        /* \"#utility.yul\":769:891   */\n    tag_373:\n        /* \"#utility.yul\":842:866   */\n      tag_435\n        /* \"#utility.yul\":860:865   */\n      dup2\n        /* \"#utility.yul\":842:866   */\n      tag_368\n      jump\t// in\n    tag_435:\n        /* \"#utility.yul\":835:840   */\n      dup2\n        /* \"#utility.yul\":832:867   */\n      eq\n        /* \"#utility.yul\":822:885   */\n      tag_436\n      jumpi\n        /* \"#utility.yul\":881:882   */\n      0x00\n        /* \"#utility.yul\":878:879   */\n      0x00\n        /* \"#utility.yul\":871:883   */\n      revert\n        /* \"#utility.yul\":822:885   */\n    tag_436:\n        /* \"#utility.yul\":769:891   */\n      pop\n      jump\t// out\n        /* \"#utility.yul\":897:1036   */\n    tag_374:\n        /* \"#utility.yul\":943:948   */\n      0x00\n        /* \"#utility.yul\":981:987   */\n      dup2\n        /* \"#utility.yul\":968:988   */\n      calldataload\n        /* \"#utility.yul\":959:988   */\n      swap1\n      pop\n        /* \"#utility.yul\":997:1030   */\n      tag_438\n        /* \"#utility.yul\":1024:1029   */\n      dup2\n        /* \"#utility.yul\":997:1030   */\n      tag_373\n      jump\t// in\n    tag_438:\n        /* \"#utility.yul\":897:1036   */\n      swap3\n      swap2\n      pop\n      pop\n      jump\t// out\n        /* \"#utility.yul\":1042:1159   */\n    tag_375:\n        /* \"#utility.yul\":1151:1152   */\n      0x00\n        /* \"#utility.yul\":1148:1149   */\n      0x00\n        /* \"#utility.yul\":1141:1153   */\n      revert\n        /* \"#utility.yul\":1165:1282   */\n    tag_376:\n        /* \"#utility.yul\":1274:1275   */\n      0x00\n        /* \"#utility.yul\":1271:1272   */\n      0x00\n        /* \"#utility.yul\":1264:1276   */\n      revert\n        /* \"#utility.yul\":1288:1405   */\n    tag_377:\n        /* \"#utility.yul\":1397:1398   */\n      0x00\n        /* \"#utility.yul\":1394:1395   */\n      0x00\n        /* \"#utility.yul\":1387:1399   */\n      revert\n        /* \"#utility.yul\":1424:1976   */\n    tag_378:\n        /* \"#utility.yul\":1481:1489   */\n      0x00\n        /* \"#utility.yul\":1491:1497   */\n      0x00\n        /* \"#utility.yul\":1541:1544   */\n      dup4\n        /* \"#utility.yul\":1534:1538   */\n      0x1f\n        /* \"#utility.yul\":1526:1532   */\n      dup5\n        /* \"#utility.yul\":1522:1539   */\n      add\n        /* \"#utility.yul\":1518:1545   */\n      slt\n        /* \"#utility.yul\":1508:1630   */\n      tag_443\n      jumpi\n        /* \"#utility.yul\":1549:1628   */\n      tag_444\n      tag_375\n      jump\t// in\n    tag_444:\n        /* \"#utility.yul\":1508:1630   */\n    tag_443:\n        /* \"#utility.yul\":1662:1668   */\n      dup3\n        /* \"#utility.yul\":1649:1669   */\n      calldataload\n        /* \"#utility.yul\":1639:1669   */\n      swap1\n      pop\n        /* \"#utility.yul\":1692:1710   */\n      0xffffffffffffffff\n        /* \"#utility.yul\":1684:1690   */\n      dup2\n        /* \"#utility.yul\":1681:1711   */\n      gt\n        /* \"#utility.yul\":1678:1795   */\n      iszero\n      tag_445\n      jumpi\n        /* \"#utility.yul\":1714:1793   */\n      tag_446\n      tag_376\n      jump\t// in\n    tag_446:\n        /* \"#utility.yul\":1678:1795   */\n    tag_445:\n        /* \"#utility.yul\":1828:1832   */\n      0x20\n        /* \"#utility.yul\":1820:1826   */\n      dup4\n        /* \"#utility.yul\":1816:1833   */\n      add\n        /* \"#utility.yul\":1804:1833   */\n      swap2\n      pop\n        /* \"#utility.yul\":1882:1885   */\n      dup4\n        /* \"#utility.yul\":1874:1878   */\n      0x01\n        /* \"#utility.yul\":1866:1872   */\n      dup3\n        /* \"#utility.yul\":1862:1879   */\n      mul\n        /* \"#utility.yul\":1852:1860   */\n      dup4\n        /* \"#utility.yul\":1848:1880   */\n      add\n        /* \"#utility.yul\":1845:1886   */\n      gt\n        /* \"#utility.yul\":1842:1970   */\n      iszero\n      tag_447\n      jumpi\n        /* \"#utility.yul\":1889:1968   */\n      tag_448\n      tag_377\n      jump\t// in\n    tag_448:\n        /* \"#utility.yul\":1842:1970   */\n    tag_447:\n        /* \"#utility.yul\":1424:1976   */\n      swap3\n      pop\n      swap3\n      swap1\n      pop\n      jump\t// out\n        /* \"#utility.yul\":1982:2997   */\n    tag_17:\n        /* \"#utility.yul\":2081:2087   */\n      0x00\n        /* \"#utility.yul\":2089:2095   */\n      0x00\n        /* \"#utility.yul\":2097:2103   */\n      0x00\n        /* \"#utility.yul\":2105:2111   */\n      0x00\n        /* \"#utility.yul\":2113:2119   */\n      0x00\n        /* \"#utility.yul\":2162:2164   */\n      0x60\n        /* \"#utility.yul\":2150:2159   */\n      dup7\n        /* \"#utility.yul\":2141:2148   */\n      dup9\n        /* \"#utility.yul\":2137:2160   */\n      sub\n        /* \"#utility.yul\":2133:2165   */\n      slt\n        /* \"#utility.yul\":2130:2249   */\n      iszero\n      tag_450\n      jumpi\n        /* \"#utility.yul\":2168:2247   */\n      tag_451\n      tag_371\n      jump\t// in\n    tag_451:\n        /* \"#utility.yul\":2130:2249   */\n    tag_450:\n        /* \"#utility.yul\":2288:2289   */\n      0x00\n        /* \"#utility.yul\":2313:2366   */\n      tag_452\n        /* \"#utility.yul\":2358:2365   */\n      dup9\n        /* \"#utility.yul\":2349:2355   */\n      dup3\n        /* \"#utility.yul\":2338:2347   */\n      dup10\n        /* \"#utility.yul\":2334:2356   */\n      add\n        /* \"#utility.yul\":2313:2366   */\n      tag_374\n      jump\t// in\n    tag_452:\n        /* \"#utility.yul\":2303:2366   */\n      swap6\n      pop\n        /* \"#utility.yul\":2259:2376   */\n      pop\n        /* \"#utility.yul\":2443:2445   */\n      0x20\n        /* \"#utility.yul\":2432:2441   */\n      dup7\n        /* \"#utility.yul\":2428:2446   */\n      add\n        /* \"#utility.yul\":2415:2447   */\n      calldataload\n        /* \"#utility.yul\":2474:2492   */\n      0xffffffffffffffff\n        /* \"#utility.yul\":2466:2472   */\n      dup2\n        /* \"#utility.yul\":2463:2493   */\n      gt\n        /* \"#utility.yul\":2460:2577   */\n      iszero\n      tag_453\n      jumpi\n        /* \"#utility.yul\":2496:2575   */\n      tag_454\n      tag_372\n      jump\t// in\n    tag_454:\n        /* \"#utility.yul\":2460:2577   */\n    tag_453:\n        /* \"#utility.yul\":2609:2673   */\n      tag_455\n        /* \"#utility.yul\":2665:2672   */\n      dup9\n        /* \"#utility.yul\":2656:2662   */\n      dup3\n        /* \"#utility.yul\":2645:2654   */\n      dup10\n        /* \"#utility.yul\":2641:2663   */\n      add\n        /* \"#utility.yul\":2609:2673   */\n      tag_378\n      jump\t// in\n    tag_455:\n        /* \"#utility.yul\":2591:2673   */\n      swap5\n      pop\n      swap5\n      pop\n        /* \"#utility.yul\":2386:2683   */\n      pop\n        /* \"#utility.yul\":2750:2752   */\n      0x40\n        /* \"#utility.yul\":2739:2748   */\n      dup7\n        /* \"#utility.yul\":2735:2753   */\n      add\n        /* \"#utility.yul\":2722:2754   */\n      calldataload\n        /* \"#utility.yul\":2781:2799   */\n      0xffffffffffffffff\n        /* \"#utility.yul\":2773:2779   */\n      dup2\n        /* \"#utility.yul\":2770:2800   */\n      gt\n        /* \"#utility.yul\":2767:2884   */\n      iszero\n      tag_456\n      jumpi\n        /* \"#utility.yul\":2803:2882   */\n      tag_457\n      tag_372\n      jump\t// in\n    tag_457:\n        /* \"#utility.yul\":2767:2884   */\n    tag_456:\n        /* \"#utility.yul\":2916:2980   */\n      tag_458\n        /* \"#utility.yul\":2972:2979   */\n      dup9\n        /* \"#utility.yul\":2963:2969   */\n      dup3\n        /* \"#utility.yul\":2952:2961   */\n      dup10\n        /* \"#utility.yul\":2948:2970   */\n      add\n        /* \"#utility.yul\":2916:2980   */\n      tag_378\n      jump\t// in\n    tag_458:\n        /* \"#utility.yul\":2898:2980   */\n      swap3\n      pop\n      swap3\n      pop\n        /* \"#utility.yul\":2693:2990   */\n      pop\n        /* \"#utility.yul\":1982:2997   */\n      swap3\n      swap6\n      pop\n      swap3\n      swap6\n      swap1\n      swap4\n      pop\n      jump\t// out\n        /* \"#utility.yul\":3021:3270   */\n    tag_379:\n        /* \"#utility.yul\":3092:3100   */\n      0x00\n        /* \"#utility.yul\":3123:3129   */\n      dup2\n        /* \"#utility.yul\":3111:3129   */\n      swap1\n      pop\n        /* \"#utility.yul\":3176:3179   */\n      dup3\n        /* \"#utility.yul\":3168:3172   */\n      0x20\n        /* \"#utility.yul\":3162:3166   */\n      0x08\n        /* \"#utility.yul\":3158:3173   */\n      mul\n        /* \"#utility.yul\":3148:3156   */\n      dup3\n        /* \"#utility.yul\":3144:3174   */\n      add\n        /* \"#utility.yul\":3141:3180   */\n      gt\n        /* \"#utility.yul\":3138:3264   */\n      iszero\n      tag_460\n      jumpi\n        /* \"#utility.yul\":3183:3262   */\n      tag_461\n      tag_377\n      jump\t// in\n    tag_461:\n        /* \"#utility.yul\":3138:3264   */\n    tag_460:\n        /* \"#utility.yul\":3021:3270   */\n      swap3\n      swap2\n      pop\n      pop\n      jump\t// out\n        /* \"#utility.yul\":3276:3656   */\n    tag_21:\n        /* \"#utility.yul\":3360:3366   */\n      0x00\n        /* \"#utility.yul\":3409:3412   */\n      0x0100\n        /* \"#utility.yul\":3397:3406   */\n      dup3\n        /* \"#utility.yul\":3388:3395   */\n      dup5\n        /* \"#utility.yul\":3384:3407   */\n      sub\n        /* \"#utility.yul\":3380:3413   */\n      slt\n        /* \"#utility.yul\":3377:3497   */\n      iszero\n      tag_463\n      jumpi\n        /* \"#utility.yul\":3416:3495   */\n      tag_464\n      tag_371\n      jump\t// in\n    tag_464:\n        /* \"#utility.yul\":3377:3497   */\n    tag_463:\n        /* \"#utility.yul\":3536:3537   */\n      0x00\n        /* \"#utility.yul\":3561:3639   */\n      tag_465\n        /* \"#utility.yul\":3631:3638   */\n      dup5\n        /* \"#utility.yul\":3622:3628   */\n      dup3\n        /* \"#utility.yul\":3611:3620   */\n      dup6\n        /* \"#utility.yul\":3607:3629   */\n      add\n        /* \"#utility.yul\":3561:3639   */\n      tag_379\n      jump\t// in\n    tag_465:\n        /* \"#utility.yul\":3551:3639   */\n      swap2\n      pop\n        /* \"#utility.yul\":3507:3649   */\n      pop\n        /* \"#utility.yul\":3276:3656   */\n      swap3\n      swap2\n      pop\n      pop\n      jump\t// out\n        /* \"#utility.yul\":3662:3766   */\n    tag_380:\n        /* \"#utility.yul\":3727:3733   */\n      0x00\n        /* \"#utility.yul\":3755:3759   */\n      0x04\n        /* \"#utility.yul\":3745:3759   */\n      swap1\n      pop\n        /* \"#utility.yul\":3662:3766   */\n      swap2\n      swap1\n      pop\n      jump\t// out\n        /* \"#utility.yul\":3772:3915   */\n    tag_381:\n        /* \"#utility.yul\":3869:3880   */\n      0x00\n        /* \"#utility.yul\":3906:3909   */\n      dup2\n        /* \"#utility.yul\":3891:3909   */\n      swap1\n      pop\n        /* \"#utility.yul\":3772:3915   */\n      swap3\n      swap2\n      pop\n      pop\n      jump\t// out\n        /* \"#utility.yul\":3921:4019   */\n    tag_382:\n        /* \"#utility.yul\":3986:3990   */\n      0x00\n        /* \"#utility.yul\":4009:4012   */\n      dup2\n        /* \"#utility.yul\":4001:4012   */\n      swap1\n      pop\n        /* \"#utility.yul\":3921:4019   */\n      swap2\n      swap1\n      pop\n      jump\t// out\n        /* \"#utility.yul\":4025:4102   */\n    tag_383:\n        /* \"#utility.yul\":4062:4069   */\n      0x00\n        /* \"#utility.yul\":4091:4096   */\n      dup2\n        /* \"#utility.yul\":4080:4096   */\n      swap1\n      pop\n        /* \"#utility.yul\":4025:4102   */\n      swap2\n      swap1\n      pop\n      jump\t// out\n        /* \"#utility.yul\":4108:4216   */\n    tag_384:\n        /* \"#utility.yul\":4185:4209   */\n      tag_471\n        /* \"#utility.yul\":4203:4208   */\n      dup2\n        /* \"#utility.yul\":4185:4209   */\n      tag_383\n      jump\t// in\n    tag_471:\n        /* \"#utility.yul\":4180:4183   */\n      dup3\n        /* \"#utility.yul\":4173:4210   */\n      mstore\n        /* \"#utility.yul\":4108:4216   */\n      pop\n      pop\n      jump\t// out\n        /* \"#utility.yul\":4222:4401   */\n    tag_385:\n        /* \"#utility.yul\":4291:4301   */\n      0x00\n        /* \"#utility.yul\":4312:4358   */\n      tag_473\n        /* \"#utility.yul\":4354:4357   */\n      dup4\n        /* \"#utility.yul\":4346:4352   */\n      dup4\n        /* \"#utility.yul\":4312:4358   */\n      tag_384\n      jump\t// in\n    tag_473:\n        /* \"#utility.yul\":4390:4394   */\n      0x20\n        /* \"#utility.yul\":4385:4388   */\n      dup4\n        /* \"#utility.yul\":4381:4395   */\n      add\n        /* \"#utility.yul\":4367:4395   */\n      swap1\n      pop\n        /* \"#utility.yul\":4222:4401   */\n      swap3\n      swap2\n      pop\n      pop\n      jump\t// out\n        /* \"#utility.yul\":4407:4518   */\n    tag_386:\n        /* \"#utility.yul\":4475:4479   */\n      0x00\n        /* \"#utility.yul\":4507:4511   */\n      0x20\n        /* \"#utility.yul\":4502:4505   */\n      dup3\n        /* \"#utility.yul\":4498:4512   */\n      add\n        /* \"#utility.yul\":4490:4512   */\n      swap1\n      pop\n        /* \"#utility.yul\":4407:4518   */\n      swap2\n      swap1\n      pop\n      jump\t// out\n        /* \"#utility.yul\":4556:5250   */\n    tag_387:\n        /* \"#utility.yul\":4692:4744   */\n      tag_476\n        /* \"#utility.yul\":4738:4743   */\n      dup2\n        /* \"#utility.yul\":4692:4744   */\n      tag_380\n      jump\t// in\n    tag_476:\n        /* \"#utility.yul\":4760:4844   */\n      tag_477\n        /* \"#utility.yul\":4837:4843   */\n      dup2\n        /* \"#utility.yul\":4832:4835   */\n      dup5\n        /* \"#utility.yul\":4760:4844   */\n      tag_381\n      jump\t// in\n    tag_477:\n        /* \"#utility.yul\":4753:4844   */\n      swap3\n      pop\n        /* \"#utility.yul\":4868:4922   */\n      tag_478\n        /* \"#utility.yul\":4916:4921   */\n      dup3\n        /* \"#utility.yul\":4868:4922   */\n      tag_382\n      jump\t// in\n    tag_478:\n        /* \"#utility.yul\":4945:4952   */\n      dup1\n        /* \"#utility.yul\":4976:4977   */\n      0x00\n        /* \"#utility.yul\":4961:5243   */\n    tag_479:\n        /* \"#utility.yul\":4986:4992   */\n      dup4\n        /* \"#utility.yul\":4983:4984   */\n      dup2\n        /* \"#utility.yul\":4980:4993   */\n      lt\n        /* \"#utility.yul\":4961:5243   */\n      iszero\n      tag_481\n      jumpi\n        /* \"#utility.yul\":5062:5068   */\n      dup2\n        /* \"#utility.yul\":5056:5069   */\n      mload\n        /* \"#utility.yul\":5089:5152   */\n      tag_482\n        /* \"#utility.yul\":5148:5151   */\n      dup8\n        /* \"#utility.yul\":5133:5146   */\n      dup3\n        /* \"#utility.yul\":5089:5152   */\n      tag_385\n      jump\t// in\n    tag_482:\n        /* \"#utility.yul\":5082:5152   */\n      swap7\n      pop\n        /* \"#utility.yul\":5175:5233   */\n      tag_483\n        /* \"#utility.yul\":5226:5232   */\n      dup4\n        /* \"#utility.yul\":5175:5233   */\n      tag_386\n      jump\t// in\n    tag_483:\n        /* \"#utility.yul\":5165:5233   */\n      swap3\n      pop\n        /* \"#utility.yul\":5021:5243   */\n      pop\n        /* \"#utility.yul\":5008:5009   */\n      0x01\n        /* \"#utility.yul\":5005:5006   */\n      dup2\n        /* \"#utility.yul\":5001:5010   */\n      add\n        /* \"#utility.yul\":4996:5010   */\n      swap1\n      pop\n        /* \"#utility.yul\":4961:5243   */\n      jump(tag_479)\n    tag_481:\n        /* \"#utility.yul\":4965:4979   */\n      pop\n        /* \"#utility.yul\":4668:5250   */\n      pop\n      pop\n      pop\n        /* \"#utility.yul\":4556:5250   */\n      pop\n      pop\n      jump\t// out\n        /* \"#utility.yul\":5256:5571   */\n    tag_24:\n        /* \"#utility.yul\":5395:5399   */\n      0x00\n        /* \"#utility.yul\":5433:5436   */\n      0x80\n        /* \"#utility.yul\":5422:5431   */\n      dup3\n        /* \"#utility.yul\":5418:5437   */\n      add\n        /* \"#utility.yul\":5410:5437   */\n      swap1\n      pop\n        /* \"#utility.yul\":5447:5564   */\n      tag_485\n        /* \"#utility.yul\":5561:5562   */\n      0x00\n        /* \"#utility.yul\":5550:5559   */\n      dup4\n        /* \"#utility.yul\":5546:5563   */\n      add\n        /* \"#utility.yul\":5537:5543   */\n      dup5\n        /* \"#utility.yul\":5447:5564   */\n      tag_387\n      jump\t// in\n    tag_485:\n        /* \"#utility.yul\":5256:5571   */\n      swap3\n      swap2\n      pop\n      pop\n      jump\t// out\n        /* \"#utility.yul\":5577:6104   */\n    tag_27:\n        /* \"#utility.yul\":5647:5653   */\n      0x00\n        /* \"#utility.yul\":5655:5661   */\n      0x00\n        /* \"#utility.yul\":5704:5706   */\n      0x20\n        /* \"#utility.yul\":5692:5701   */\n      dup4\n        /* \"#utility.yul\":5683:5690   */\n      dup6\n        /* \"#utility.yul\":5679:5702   */\n      sub\n        /* \"#utility.yul\":5675:5707   */\n      slt\n        /* \"#utility.yul\":5672:5791   */\n      iszero\n      tag_487\n      jumpi\n        /* \"#utility.yul\":5710:5789   */\n      tag_488\n      tag_371\n      jump\t// in\n    tag_488:\n        /* \"#utility.yul\":5672:5791   */\n    tag_487:\n        /* \"#utility.yul\":5858:5859   */\n      0x00\n        /* \"#utility.yul\":5847:5856   */\n      dup4\n        /* \"#utility.yul\":5843:5860   */\n      add\n        /* \"#utility.yul\":5830:5861   */\n      calldataload\n        /* \"#utility.yul\":5888:5906   */\n      0xffffffffffffffff\n        /* \"#utility.yul\":5880:5886   */\n      dup2\n        /* \"#utility.yul\":5877:5907   */\n      gt\n        /* \"#utility.yul\":5874:5991   */\n      iszero\n      tag_489\n      jumpi\n        /* \"#utility.yul\":5910:5989   */\n      tag_490\n      tag_372\n      jump\t// in\n    tag_490:\n        /* \"#utility.yul\":5874:5991   */\n    tag_489:\n        /* \"#utility.yul\":6023:6087   */\n      tag_491\n        /* \"#utility.yul\":6079:6086   */\n      dup6\n        /* \"#utility.yul\":6070:6076   */\n      dup3\n        /* \"#utility.yul\":6059:6068   */\n      dup7\n        /* \"#utility.yul\":6055:6077   */\n      add\n        /* \"#utility.yul\":6023:6087   */\n      tag_378\n      jump\t// in\n    tag_491:\n        /* \"#utility.yul\":6005:6087   */\n      swap3\n      pop\n      swap3\n      pop\n        /* \"#utility.yul\":5801:6097   */\n      pop\n        /* \"#utility.yul\":5577:6104   */\n      swap3\n      pop\n      swap3\n      swap1\n      pop\n      jump\t// out\n        /* \"#utility.yul\":6128:6377   */\n    tag_388:\n        /* \"#utility.yul\":6199:6207   */\n      0x00\n        /* \"#utility.yul\":6230:6236   */\n      dup2\n        /* \"#utility.yul\":6218:6236   */\n      swap1\n      pop\n        /* \"#utility.yul\":6283:6286   */\n      dup3\n        /* \"#utility.yul\":6275:6279   */\n      0x20\n        /* \"#utility.yul\":6269:6273   */\n      0x02\n        /* \"#utility.yul\":6265:6280   */\n      mul\n        /* \"#utility.yul\":6255:6263   */\n      dup3\n        /* \"#utility.yul\":6251:6281   */\n      add\n        /* \"#utility.yul\":6248:6287   */\n      gt\n        /* \"#utility.yul\":6245:6371   */\n      iszero\n      tag_493\n      jumpi\n        /* \"#utility.yul\":6290:6369   */\n      tag_494\n      tag_377\n      jump\t// in\n    tag_494:\n        /* \"#utility.yul\":6245:6371   */\n    tag_493:\n        /* \"#utility.yul\":6128:6377   */\n      swap3\n      swap2\n      pop\n      pop\n      jump\t// out\n        /* \"#utility.yul\":6383:6959   */\n    tag_32:\n        /* \"#utility.yul\":6501:6507   */\n      0x00\n        /* \"#utility.yul\":6509:6515   */\n      0x00\n        /* \"#utility.yul\":6558:6561   */\n      0x0140\n        /* \"#utility.yul\":6546:6555   */\n      dup4\n        /* \"#utility.yul\":6537:6544   */\n      dup6\n        /* \"#utility.yul\":6533:6556   */\n      sub\n        /* \"#utility.yul\":6529:6562   */\n      slt\n        /* \"#utility.yul\":6526:6646   */\n      iszero\n      tag_496\n      jumpi\n        /* \"#utility.yul\":6565:6644   */\n      tag_497\n      tag_371\n      jump\t// in\n    tag_497:\n        /* \"#utility.yul\":6526:6646   */\n    tag_496:\n        /* \"#utility.yul\":6685:6686   */\n      0x00\n        /* \"#utility.yul\":6710:6788   */\n      tag_498\n        /* \"#utility.yul\":6780:6787   */\n      dup6\n        /* \"#utility.yul\":6771:6777   */\n      dup3\n        /* \"#utility.yul\":6760:6769   */\n      dup7\n        /* \"#utility.yul\":6756:6778   */\n      add\n        /* \"#utility.yul\":6710:6788   */\n      tag_379\n      jump\t// in\n    tag_498:\n        /* \"#utility.yul\":6700:6788   */\n      swap3\n      pop\n        /* \"#utility.yul\":6656:6798   */\n      pop\n        /* \"#utility.yul\":6837:6840   */\n      0x0100\n        /* \"#utility.yul\":6864:6942   */\n      tag_499\n        /* \"#utility.yul\":6934:6941   */\n      dup6\n        /* \"#utility.yul\":6925:6931   */\n      dup3\n        /* \"#utility.yul\":6914:6923   */\n      dup7\n        /* \"#utility.yul\":6910:6932   */\n      add\n        /* \"#utility.yul\":6864:6942   */\n      tag_388\n      jump\t// in\n    tag_499:\n        /* \"#utility.yul\":6854:6942   */\n      swap2\n      pop\n        /* \"#utility.yul\":6808:6952   */\n      pop\n        /* \"#utility.yul\":6383:6959   */\n      swap3\n      pop\n      swap3\n      swap1\n      pop\n      jump\t// out\n        /* \"#utility.yul\":6983:7232   */\n    tag_389:\n        /* \"#utility.yul\":7054:7062   */\n      0x00\n        /* \"#utility.yul\":7085:7091   */\n      dup2\n        /* \"#utility.yul\":7073:7091   */\n      swap1\n      pop\n        /* \"#utility.yul\":7138:7141   */\n      dup3\n        /* \"#utility.yul\":7130:7134   */\n      0x20\n        /* \"#utility.yul\":7124:7128   */\n      0x04\n        /* \"#utility.yul\":7120:7135   */\n      mul\n        /* \"#utility.yul\":7110:7118   */\n      dup3\n        /* \"#utility.yul\":7106:7136   */\n      add\n        /* \"#utility.yul\":7103:7142   */\n      gt\n        /* \"#utility.yul\":7100:7226   */\n      iszero\n      tag_501\n      jumpi\n        /* \"#utility.yul\":7145:7224   */\n      tag_502\n      tag_377\n      jump\t// in\n    tag_502:\n        /* \"#utility.yul\":7100:7226   */\n    tag_501:\n        /* \"#utility.yul\":6983:7232   */\n      swap3\n      swap2\n      pop\n      pop\n      jump\t// out\n        /* \"#utility.yul\":7238:7814   */\n    tag_36:\n        /* \"#utility.yul\":7356:7362   */\n      0x00\n        /* \"#utility.yul\":7364:7370   */\n      0x00\n        /* \"#utility.yul\":7413:7416   */\n      0xc0\n        /* \"#utility.yul\":7401:7410   */\n      dup4\n        /* \"#utility.yul\":7392:7399   */\n      dup6\n        /* \"#utility.yul\":7388:7411   */\n      sub\n        /* \"#utility.yul\":7384:7417   */\n      slt\n        /* \"#utility.yul\":7381:7501   */\n      iszero\n      tag_504\n      jumpi\n        /* \"#utility.yul\":7420:7499   */\n      tag_505\n      tag_371\n      jump\t// in\n    tag_505:\n        /* \"#utility.yul\":7381:7501   */\n    tag_504:\n        /* \"#utility.yul\":7540:7541   */\n      0x00\n        /* \"#utility.yul\":7565:7643   */\n      tag_506\n        /* \"#utility.yul\":7635:7642   */\n      dup6\n        /* \"#utility.yul\":7626:7632   */\n      dup3\n        /* \"#utility.yul\":7615:7624   */\n      dup7\n        /* \"#utility.yul\":7611:7633   */\n      add\n        /* \"#utility.yul\":7565:7643   */\n      tag_389\n      jump\t// in\n    tag_506:\n        /* \"#utility.yul\":7555:7643   */\n      swap3\n      pop\n        /* \"#utility.yul\":7511:7653   */\n      pop\n        /* \"#utility.yul\":7692:7695   */\n      0x80\n        /* \"#utility.yul\":7719:7797   */\n      tag_507\n        /* \"#utility.yul\":7789:7796   */\n      dup6\n        /* \"#utility.yul\":7780:7786   */\n      dup3\n        /* \"#utility.yul\":7769:7778   */\n      dup7\n        /* \"#utility.yul\":7765:7787   */\n      add\n        /* \"#utility.yul\":7719:7797   */\n      tag_388\n      jump\t// in\n    tag_507:\n        /* \"#utility.yul\":7709:7797   */\n      swap2\n      pop\n        /* \"#utility.yul\":7663:7807   */\n      pop\n        /* \"#utility.yul\":7238:7814   */\n      swap3\n      pop\n      swap3\n      swap1\n      pop\n      jump\t// out\n        /* \"#utility.yul\":7820:7919   */\n    tag_390:\n        /* \"#utility.yul\":7872:7878   */\n      0x00\n        /* \"#utility.yul\":7906:7911   */\n      dup2\n        /* \"#utility.yul\":7900:7912   */\n      mload\n        /* \"#utility.yul\":7890:7912   */\n      swap1\n      pop\n        /* \"#utility.yul\":7820:7919   */\n      swap2\n      swap1\n      pop\n      jump\t// out\n        /* \"#utility.yul\":7925:8094   */\n    tag_391:\n        /* \"#utility.yul\":8009:8020   */\n      0x00\n        /* \"#utility.yul\":8043:8049   */\n      dup3\n        /* \"#utility.yul\":8038:8041   */\n      dup3\n        /* \"#utility.yul\":8031:8050   */\n      mstore\n        /* \"#utility.yul\":8083:8087   */\n      0x20\n        /* \"#utility.yul\":8078:8081   */\n      dup3\n        /* \"#utility.yul\":8074:8088   */\n      add\n        /* \"#utility.yul\":8059:8088   */\n      swap1\n      pop\n        /* \"#utility.yul\":7925:8094   */\n      swap3\n      swap2\n      pop\n      pop\n      jump\t// out\n        /* \"#utility.yul\":8100:8239   */\n    tag_392:\n        /* \"#utility.yul\":8189:8195   */\n      dup3\n        /* \"#utility.yul\":8184:8187   */\n      dup2\n        /* \"#utility.yul\":8179:8182   */\n      dup4\n        /* \"#utility.yul\":8173:8196   */\n      mcopy\n        /* \"#utility.yul\":8230:8231   */\n      0x00\n        /* \"#utility.yul\":8221:8227   */\n      dup4\n        /* \"#utility.yul\":8216:8219   */\n      dup4\n        /* \"#utility.yul\":8212:8228   */\n      add\n        /* \"#utility.yul\":8205:8232   */\n      mstore\n        /* \"#utility.yul\":8100:8239   */\n      pop\n      pop\n      pop\n      jump\t// out\n        /* \"#utility.yul\":8245:8347   */\n    tag_393:\n        /* \"#utility.yul\":8286:8292   */\n      0x00\n        /* \"#utility.yul\":8337:8339   */\n      0x1f\n        /* \"#utility.yul\":8333:8340   */\n      not\n        /* \"#utility.yul\":8328:8330   */\n      0x1f\n        /* \"#utility.yul\":8321:8326   */\n      dup4\n        /* \"#utility.yul\":8317:8331   */\n      add\n        /* \"#utility.yul\":8313:8341   */\n      and\n        /* \"#utility.yul\":8303:8341   */\n      swap1\n      pop\n        /* \"#utility.yul\":8245:8347   */\n      swap2\n      swap1\n      pop\n      jump\t// out\n        /* \"#utility.yul\":8353:8730   */\n    tag_394:\n        /* \"#utility.yul\":8441:8444   */\n      0x00\n        /* \"#utility.yul\":8469:8508   */\n      tag_513\n        /* \"#utility.yul\":8502:8507   */\n      dup3\n        /* \"#utility.yul\":8469:8508   */\n      tag_390\n      jump\t// in\n    tag_513:\n        /* \"#utility.yul\":8524:8595   */\n      tag_514\n        /* \"#utility.yul\":8588:8594   */\n      dup2\n        /* \"#utility.yul\":8583:8586   */\n      dup6\n        /* \"#utility.yul\":8524:8595   */\n      tag_391\n      jump\t// in\n    tag_514:\n        /* \"#utility.yul\":8517:8595   */\n      swap4\n      pop\n        /* \"#utility.yul\":8604:8669   */\n      tag_515\n        /* \"#utility.yul\":8662:8668   */\n      dup2\n        /* \"#utility.yul\":8657:8660   */\n      dup6\n        /* \"#utility.yul\":8650:8654   */\n      0x20\n        /* \"#utility.yul\":8643:8648   */\n      dup7\n        /* \"#utility.yul\":8639:8655   */\n      add\n        /* \"#utility.yul\":8604:8669   */\n      tag_392\n      jump\t// in\n    tag_515:\n        /* \"#utility.yul\":8694:8723   */\n      tag_516\n        /* \"#utility.yul\":8716:8722   */\n      dup2\n        /* \"#utility.yul\":8694:8723   */\n      tag_393\n      jump\t// in\n    tag_516:\n        /* \"#utility.yul\":8689:8692   */\n      dup5\n        /* \"#utility.yul\":8685:8724   */\n      add\n        /* \"#utility.yul\":8678:8724   */\n      swap2\n      pop\n        /* \"#utility.yul\":8445:8730   */\n      pop\n        /* \"#utility.yul\":8353:8730   */\n      swap3\n      swap2\n      pop\n      pop\n      jump\t// out\n        /* \"#utility.yul\":8736:9049   */\n    tag_41:\n        /* \"#utility.yul\":8849:8853   */\n      0x00\n        /* \"#utility.yul\":8887:8889   */\n      0x20\n        /* \"#utility.yul\":8876:8885   */\n      dup3\n        /* \"#utility.yul\":8872:8890   */\n      add\n        /* \"#utility.yul\":8864:8890   */\n      swap1\n      pop\n        /* \"#utility.yul\":8936:8945   */\n      dup2\n        /* \"#utility.yul\":8930:8934   */\n      dup2\n        /* \"#utility.yul\":8926:8946   */\n      sub\n        /* \"#utility.yul\":8922:8923   */\n      0x00\n        /* \"#utility.yul\":8911:8920   */\n      dup4\n        /* \"#utility.yul\":8907:8924   */\n      add\n        /* \"#utility.yul\":8900:8947   */\n      mstore\n        /* \"#utility.yul\":8964:9042   */\n      tag_518\n        /* \"#utility.yul\":9037:9041   */\n      dup2\n        /* \"#utility.yul\":9028:9034   */\n      dup5\n        /* \"#utility.yul\":8964:9042   */\n      tag_394\n      jump\t// in\n    tag_518:\n        /* \"#utility.yul\":8956:9042   */\n      swap1\n      pop\n        /* \"#utility.yul\":8736:9049   */\n      swap3\n      swap2\n      pop\n      pop\n      jump\t// out\n        /* \"#utility.yul\":9055:9172   */\n    tag_395:\n        /* \"#utility.yul\":9164:9165   */\n      0x00\n        /* \"#utility.yul\":9161:9162   */\n      0x00\n        /* \"#utility.yul\":9154:9166   */\n      revert\n        /* \"#utility.yul\":9178:9295   */\n    tag_396:\n        /* \"#utility.yul\":9287:9288   */\n      0x00\n        /* \"#utility.yul\":9284:9285   */\n      0x00\n        /* \"#utility.yul\":9277:9289   */\n      revert\n        /* \"#utility.yul\":9301:9770   */\n    tag_45:\n        /* \"#utility.yul\":9406:9415   */\n      0x00\n        /* \"#utility.yul\":9417:9426   */\n      0x00\n        /* \"#utility.yul\":9455:9463   */\n      dup6\n        /* \"#utility.yul\":9443:9453   */\n      dup6\n        /* \"#utility.yul\":9440:9464   */\n      gt\n        /* \"#utility.yul\":9437:9548   */\n      iszero\n      tag_522\n      jumpi\n        /* \"#utility.yul\":9467:9546   */\n      tag_523\n      tag_395\n      jump\t// in\n    tag_523:\n        /* \"#utility.yul\":9437:9548   */\n    tag_522:\n        /* \"#utility.yul\":9573:9579   */\n      dup4\n        /* \"#utility.yul\":9563:9571   */\n      dup7\n        /* \"#utility.yul\":9560:9580   */\n      gt\n        /* \"#utility.yul\":9557:9664   */\n      iszero\n      tag_524\n      jumpi\n        /* \"#utility.yul\":9583:9662   */\n      tag_525\n      tag_396\n      jump\t// in\n    tag_525:\n        /* \"#utility.yul\":9557:9664   */\n    tag_524:\n        /* \"#utility.yul\":9714:9715   */\n      0x01\n        /* \"#utility.yul\":9702:9712   */\n      dup6\n        /* \"#utility.yul\":9698:9716   */\n      mul\n        /* \"#utility.yul\":9690:9696   */\n      dup4\n        /* \"#utility.yul\":9686:9717   */\n      add\n        /* \"#utility.yul\":9673:9717   */\n      swap2\n      pop\n        /* \"#utility.yul\":9753:9763   */\n      dup5\n        /* \"#utility.yul\":9743:9751   */\n      dup7\n        /* \"#utility.yul\":9739:9764   */\n      sub\n        /* \"#utility.yul\":9726:9764   */\n      swap1\n      pop\n        /* \"#utility.yul\":9301:9770   */\n      swap5\n      pop\n      swap5\n      swap3\n      pop\n      pop\n      pop\n      jump\t// out\n        /* \"#utility.yul\":9776:9872   */\n    tag_397:\n        /* \"#utility.yul\":9834:9840   */\n      0x00\n        /* \"#utility.yul\":9862:9865   */\n      dup3\n        /* \"#utility.yul\":9852:9865   */\n      swap1\n      pop\n        /* \"#utility.yul\":9776:9872   */\n      swap3\n      swap2\n      pop\n      pop\n      jump\t// out\n        /* \"#utility.yul\":9970:10119   */\n    tag_399:\n        /* \"#utility.yul\":10006:10013   */\n      0x00\n        /* \"#utility.yul\":10046:10112   */\n      0xffffffff00000000000000000000000000000000000000000000000000000000\n        /* \"#utility.yul\":10039:10044   */\n      dup3\n        /* \"#utility.yul\":10035:10113   */\n      and\n        /* \"#utility.yul\":10024:10113   */\n      swap1\n      pop\n        /* \"#utility.yul\":9970:10119   */\n      swap2\n      swap1\n      pop\n      jump\t// out\n        /* \"#utility.yul\":10125:10232   */\n    tag_400:\n        /* \"#utility.yul\":10169:10177   */\n      0x00\n        /* \"#utility.yul\":10219:10224   */\n      dup3\n        /* \"#utility.yul\":10213:10217   */\n      dup3\n        /* \"#utility.yul\":10209:10225   */\n      shl\n        /* \"#utility.yul\":10188:10225   */\n      swap1\n      pop\n        /* \"#utility.yul\":10125:10232   */\n      swap3\n      swap2\n      pop\n      pop\n      jump\t// out\n        /* \"#utility.yul\":10238:10786   */\n    tag_47:\n        /* \"#utility.yul\":10328:10333   */\n      0x00\n        /* \"#utility.yul\":10359:10404   */\n      tag_531\n        /* \"#utility.yul\":10400:10403   */\n      dup4\n        /* \"#utility.yul\":10393:10398   */\n      dup4\n        /* \"#utility.yul\":10359:10404   */\n      tag_397\n      jump\t// in\n    tag_531:\n        /* \"#utility.yul\":10429:10434   */\n      dup3\n        /* \"#utility.yul\":10453:10493   */\n      tag_532\n        /* \"#utility.yul\":10483:10491   */\n      dup2\n        /* \"#utility.yul\":10470:10492   */\n      calldataload\n        /* \"#utility.yul\":10453:10493   */\n      tag_399\n      jump\t// in\n    tag_532:\n        /* \"#utility.yul\":10444:10493   */\n      swap3\n      pop\n        /* \"#utility.yul\":10517:10518   */\n      0x04\n        /* \"#utility.yul\":10509:10515   */\n      dup3\n        /* \"#utility.yul\":10506:10519   */\n      lt\n        /* \"#utility.yul\":10503:10779   */\n      iszero\n      tag_533\n      jumpi\n        /* \"#utility.yul\":10587:10755   */\n      tag_534\n        /* \"#utility.yul\":10671:10737   */\n      0xffffffff00000000000000000000000000000000000000000000000000000000\n        /* \"#utility.yul\":10641:10647   */\n      dup4\n        /* \"#utility.yul\":10638:10639   */\n      0x04\n        /* \"#utility.yul\":10634:10648   */\n      sub\n        /* \"#utility.yul\":10631:10632   */\n      0x08\n        /* \"#utility.yul\":10627:10649   */\n      mul\n        /* \"#utility.yul\":10587:10755   */\n      tag_400\n      jump\t// in\n    tag_534:\n        /* \"#utility.yul\":10564:10569   */\n      dup4\n        /* \"#utility.yul\":10543:10769   */\n      and\n        /* \"#utility.yul\":10534:10769   */\n      swap3\n      pop\n        /* \"#utility.yul\":10503:10779   */\n    tag_533:\n        /* \"#utility.yul\":10334:10786   */\n      pop\n      pop\n        /* \"#utility.yul\":10238:10786   */\n      swap3\n      swap2\n      pop\n      pop\n      jump\t// out\n        /* \"#utility.yul\":10792:10907   */\n    tag_401:\n        /* \"#utility.yul\":10877:10900   */\n      tag_536\n        /* \"#utility.yul\":10894:10899   */\n      dup2\n        /* \"#utility.yul\":10877:10900   */\n      tag_399\n      jump\t// in\n    tag_536:\n        /* \"#utility.yul\":10872:10875   */\n      dup3\n        /* \"#utility.yul\":10865:10901   */\n      mstore\n        /* \"#utility.yul\":10792:10907   */\n      pop\n      pop\n      jump\t// out\n        /* \"#utility.yul\":10913:11237   */\n    tag_51:\n        /* \"#utility.yul\":11030:11034   */\n      0x00\n        /* \"#utility.yul\":11068:11070   */\n      0x40\n        /* \"#utility.yul\":11057:11066   */\n      dup3\n        /* \"#utility.yul\":11053:11071   */\n      add\n        /* \"#utility.yul\":11045:11071   */\n      swap1\n      pop\n        /* \"#utility.yul\":11081:11150   */\n      tag_538\n        /* \"#utility.yul\":11147:11148   */\n      0x00\n        /* \"#utility.yul\":11136:11145   */\n      dup4\n        /* \"#utility.yul\":11132:11149   */\n      add\n        /* \"#utility.yul\":11123:11129   */\n      dup6\n        /* \"#utility.yul\":11081:11150   */\n      tag_401\n      jump\t// in\n    tag_538:\n        /* \"#utility.yul\":11160:11230   */\n      tag_539\n        /* \"#utility.yul\":11226:11228   */\n      0x20\n        /* \"#utility.yul\":11215:11224   */\n      dup4\n        /* \"#utility.yul\":11211:11229   */\n      add\n        /* \"#utility.yul\":11202:11208   */\n      dup5\n        /* \"#utility.yul\":11160:11230   */\n      tag_401\n      jump\t// in\n    tag_539:\n        /* \"#utility.yul\":10913:11237   */\n      swap4\n      swap3\n      pop\n      pop\n      pop\n      jump\t// out\n        /* \"#utility.yul\":11243:11423   */\n    tag_57:\n        /* \"#utility.yul\":11291:11368   */\n      0x4e487b7100000000000000000000000000000000000000000000000000000000\n        /* \"#utility.yul\":11288:11289   */\n      0x00\n        /* \"#utility.yul\":11281:11369   */\n      mstore\n        /* \"#utility.yul\":11388:11392   */\n      0x32\n        /* \"#utility.yul\":11385:11386   */\n      0x04\n        /* \"#utility.yul\":11378:11393   */\n      mstore\n        /* \"#utility.yul\":11412:11416   */\n      0x24\n        /* \"#utility.yul\":11409:11410   */\n      0x00\n        /* \"#utility.yul\":11402:11417   */\n      revert\n        /* \"#utility.yul\":11429:11609   */\n    tag_402:\n        /* \"#utility.yul\":11477:11554   */\n      0x4e487b7100000000000000000000000000000000000000000000000000000000\n        /* \"#utility.yul\":11474:11475   */\n      0x00\n        /* \"#utility.yul\":11467:11555   */\n      mstore\n        /* \"#utility.yul\":11574:11578   */\n      0x41\n        /* \"#utility.yul\":11571:11572   */\n      0x04\n        /* \"#utility.yul\":11564:11579   */\n      mstore\n        /* \"#utility.yul\":11598:11602   */\n      0x24\n        /* \"#utility.yul\":11595:11596   */\n      0x00\n        /* \"#utility.yul\":11588:11603   */\n      revert\n        /* \"#utility.yul\":11615:11896   */\n    tag_403:\n        /* \"#utility.yul\":11698:11725   */\n      tag_543\n        /* \"#utility.yul\":11720:11724   */\n      dup3\n        /* \"#utility.yul\":11698:11725   */\n      tag_393\n      jump\t// in\n    tag_543:\n        /* \"#utility.yul\":11690:11696   */\n      dup2\n        /* \"#utility.yul\":11686:11726   */\n      add\n        /* \"#utility.yul\":11828:11834   */\n      dup2\n        /* \"#utility.yul\":11816:11826   */\n      dup2\n        /* \"#utility.yul\":11813:11835   */\n      lt\n        /* \"#utility.yul\":11792:11810   */\n      0xffffffffffffffff\n        /* \"#utility.yul\":11780:11790   */\n      dup3\n        /* \"#utility.yul\":11777:11811   */\n      gt\n        /* \"#utility.yul\":11774:11836   */\n      or\n        /* \"#utility.yul\":11771:11859   */\n      iszero\n      tag_544\n      jumpi\n        /* \"#utility.yul\":11839:11857   */\n      tag_545\n      tag_402\n      jump\t// in\n    tag_545:\n        /* \"#utility.yul\":11771:11859   */\n    tag_544:\n        /* \"#utility.yul\":11879:11889   */\n      dup1\n        /* \"#utility.yul\":11875:11877   */\n      0x40\n        /* \"#utility.yul\":11868:11890   */\n      mstore\n        /* \"#utility.yul\":11658:11896   */\n      pop\n        /* \"#utility.yul\":11615:11896   */\n      pop\n      pop\n      jump\t// out\n        /* \"#utility.yul\":11902:12031   */\n    tag_404:\n        /* \"#utility.yul\":11936:11942   */\n      0x00\n        /* \"#utility.yul\":11963:11983   */\n      tag_547\n      tag_370\n      jump\t// in\n    tag_547:\n        /* \"#utility.yul\":11953:11983   */\n      swap1\n      pop\n        /* \"#utility.yul\":11992:12025   */\n      tag_548\n        /* \"#utility.yul\":12020:12024   */\n      dup3\n        /* \"#utility.yul\":12012:12018   */\n      dup3\n        /* \"#utility.yul\":11992:12025   */\n      tag_403\n      jump\t// in\n    tag_548:\n        /* \"#utility.yul\":11902:12031   */\n      swap2\n      swap1\n      pop\n      jump\t// out\n        /* \"#utility.yul\":12037:12286   */\n    tag_405:\n        /* \"#utility.yul\":12112:12116   */\n      0x00\n        /* \"#utility.yul\":12202:12220   */\n      0xffffffffffffffff\n        /* \"#utility.yul\":12194:12200   */\n      dup3\n        /* \"#utility.yul\":12191:12221   */\n      gt\n        /* \"#utility.yul\":12188:12244   */\n      iszero\n      tag_550\n      jumpi\n        /* \"#utility.yul\":12224:12242   */\n      tag_551\n      tag_402\n      jump\t// in\n    tag_551:\n        /* \"#utility.yul\":12188:12244   */\n    tag_550:\n        /* \"#utility.yul\":12274:12278   */\n      0x20\n        /* \"#utility.yul\":12266:12272   */\n      dup3\n        /* \"#utility.yul\":12262:12279   */\n      mul\n        /* \"#utility.yul\":12254:12279   */\n      swap1\n      pop\n        /* \"#utility.yul\":12037:12286   */\n      swap2\n      swap1\n      pop\n      jump\t// out\n        /* \"#utility.yul\":12292:12414   */\n    tag_406:\n        /* \"#utility.yul\":12365:12389   */\n      tag_553\n        /* \"#utility.yul\":12383:12388   */\n      dup2\n        /* \"#utility.yul\":12365:12389   */\n      tag_383\n      jump\t// in\n    tag_553:\n        /* \"#utility.yul\":12358:12363   */\n      dup2\n        /* \"#utility.yul\":12355:12390   */\n      eq\n        /* \"#utility.yul\":12345:12408   */\n      tag_554\n      jumpi\n        /* \"#utility.yul\":12404:12405   */\n      0x00\n        /* \"#utility.yul\":12401:12402   */\n      0x00\n        /* \"#utility.yul\":12394:12406   */\n      revert\n        /* \"#utility.yul\":12345:12408   */\n    tag_554:\n        /* \"#utility.yul\":12292:12414   */\n      pop\n      jump\t// out\n        /* \"#utility.yul\":12420:12559   */\n    tag_407:\n        /* \"#utility.yul\":12466:12471   */\n      0x00\n        /* \"#utility.yul\":12504:12510   */\n      dup2\n        /* \"#utility.yul\":12491:12511   */\n      calldataload\n        /* \"#utility.yul\":12482:12511   */\n      swap1\n      pop\n        /* \"#utility.yul\":12520:12553   */\n      tag_556\n        /* \"#utility.yul\":12547:12552   */\n      dup2\n        /* \"#utility.yul\":12520:12553   */\n      tag_406\n      jump\t// in\n    tag_556:\n        /* \"#utility.yul\":12420:12559   */\n      swap3\n      swap2\n      pop\n      pop\n      jump\t// out\n        /* \"#utility.yul\":12583:13226   */\n    tag_408:\n        /* \"#utility.yul\":12677:12682   */\n      0x00\n        /* \"#utility.yul\":12702:12781   */\n      tag_558\n        /* \"#utility.yul\":12718:12780   */\n      tag_559\n        /* \"#utility.yul\":12773:12779   */\n      dup5\n        /* \"#utility.yul\":12718:12780   */\n      tag_405\n      jump\t// in\n    tag_559:\n        /* \"#utility.yul\":12702:12781   */\n      tag_404\n      jump\t// in\n    tag_558:\n        /* \"#utility.yul\":12693:12781   */\n      swap1\n      pop\n        /* \"#utility.yul\":12801:12806   */\n      dup1\n        /* \"#utility.yul\":12854:12858   */\n      0x20\n        /* \"#utility.yul\":12846:12852   */\n      dup5\n        /* \"#utility.yul\":12842:12859   */\n      mul\n        /* \"#utility.yul\":12834:12840   */\n      dup4\n        /* \"#utility.yul\":12830:12860   */\n      add\n        /* \"#utility.yul\":12883:12886   */\n      dup6\n        /* \"#utility.yul\":12875:12881   */\n      dup2\n        /* \"#utility.yul\":12872:12887   */\n      gt\n        /* \"#utility.yul\":12869:12991   */\n      iszero\n      tag_560\n      jumpi\n        /* \"#utility.yul\":12902:12981   */\n      tag_561\n      tag_377\n      jump\t// in\n    tag_561:\n        /* \"#utility.yul\":12869:12991   */\n    tag_560:\n        /* \"#utility.yul\":13017:13023   */\n      dup4\n        /* \"#utility.yul\":13000:13220   */\n    tag_562:\n        /* \"#utility.yul\":13034:13040   */\n      dup2\n        /* \"#utility.yul\":13029:13032   */\n      dup2\n        /* \"#utility.yul\":13026:13041   */\n      lt\n        /* \"#utility.yul\":13000:13220   */\n      iszero\n      tag_564\n      jumpi\n        /* \"#utility.yul\":13109:13112   */\n      dup1\n        /* \"#utility.yul\":13138:13175   */\n      tag_565\n        /* \"#utility.yul\":13171:13174   */\n      dup9\n        /* \"#utility.yul\":13159:13169   */\n      dup3\n        /* \"#utility.yul\":13138:13175   */\n      tag_407\n      jump\t// in\n    tag_565:\n        /* \"#utility.yul\":13133:13136   */\n      dup5\n        /* \"#utility.yul\":13126:13176   */\n      mstore\n        /* \"#utility.yul\":13205:13209   */\n      0x20\n        /* \"#utility.yul\":13200:13203   */\n      dup5\n        /* \"#utility.yul\":13196:13210   */\n      add\n        /* \"#utility.yul\":13189:13210   */\n      swap4\n      pop\n        /* \"#utility.yul\":13076:13220   */\n      pop\n        /* \"#utility.yul\":13060:13064   */\n      0x20\n        /* \"#utility.yul\":13055:13058   */\n      dup2\n        /* \"#utility.yul\":13051:13065   */\n      add\n        /* \"#utility.yul\":13044:13065   */\n      swap1\n      pop\n        /* \"#utility.yul\":13000:13220   */\n      jump(tag_562)\n    tag_564:\n        /* \"#utility.yul\":13004:13025   */\n      pop\n        /* \"#utility.yul\":12683:13226   */\n      pop\n      pop\n        /* \"#utility.yul\":12583:13226   */\n      swap4\n      swap3\n      pop\n      pop\n      pop\n      jump\t// out\n        /* \"#utility.yul\":13250:13589   */\n    tag_409:\n        /* \"#utility.yul\":13319:13324   */\n      0x00\n        /* \"#utility.yul\":13368:13371   */\n      dup3\n        /* \"#utility.yul\":13361:13365   */\n      0x1f\n        /* \"#utility.yul\":13353:13359   */\n      dup4\n        /* \"#utility.yul\":13349:13366   */\n      add\n        /* \"#utility.yul\":13345:13372   */\n      slt\n        /* \"#utility.yul\":13335:13457   */\n      tag_567\n      jumpi\n        /* \"#utility.yul\":13376:13455   */\n      tag_568\n      tag_375\n      jump\t// in\n    tag_568:\n        /* \"#utility.yul\":13335:13457   */\n    tag_567:\n        /* \"#utility.yul\":13480:13484   */\n      0x08\n        /* \"#utility.yul\":13502:13583   */\n      tag_569\n        /* \"#utility.yul\":13579:13582   */\n      dup5\n        /* \"#utility.yul\":13571:13577   */\n      dup3\n        /* \"#utility.yul\":13563:13569   */\n      dup6\n        /* \"#utility.yul\":13502:13583   */\n      tag_408\n      jump\t// in\n    tag_569:\n        /* \"#utility.yul\":13493:13583   */\n      swap2\n      pop\n        /* \"#utility.yul\":13325:13589   */\n      pop\n        /* \"#utility.yul\":13250:13589   */\n      swap3\n      swap2\n      pop\n      pop\n      jump\t// out\n        /* \"#utility.yul\":13595:13971   */\n    tag_62:\n        /* \"#utility.yul\":13677:13683   */\n      0x00\n        /* \"#utility.yul\":13726:13729   */\n      0x0100\n        /* \"#utility.yul\":13714:13723   */\n      dup3\n        /* \"#utility.yul\":13705:13712   */\n      dup5\n        /* \"#utility.yul\":13701:13724   */\n      sub\n        /* \"#utility.yul\":13697:13730   */\n      slt\n        /* \"#utility.yul\":13694:13814   */\n      iszero\n      tag_571\n      jumpi\n        /* \"#utility.yul\":13733:13812   */\n      tag_572\n      tag_371\n      jump\t// in\n    tag_572:\n        /* \"#utility.yul\":13694:13814   */\n    tag_571:\n        /* \"#utility.yul\":13853:13854   */\n      0x00\n        /* \"#utility.yul\":13878:13954   */\n      tag_573\n        /* \"#utility.yul\":13946:13953   */\n      dup5\n        /* \"#utility.yul\":13937:13943   */\n      dup3\n        /* \"#utility.yul\":13926:13935   */\n      dup6\n        /* \"#utility.yul\":13922:13944   */\n      add\n        /* \"#utility.yul\":13878:13954   */\n      tag_409\n      jump\t// in\n    tag_573:\n        /* \"#utility.yul\":13868:13954   */\n      swap2\n      pop\n        /* \"#utility.yul\":13824:13964   */\n      pop\n        /* \"#utility.yul\":13595:13971   */\n      swap3\n      swap2\n      pop\n      pop\n      jump\t// out\n        /* \"#utility.yul\":13977:14081   */\n    tag_410:\n        /* \"#utility.yul\":14042:14048   */\n      0x00\n        /* \"#utility.yul\":14070:14074   */\n      0x08\n        /* \"#utility.yul\":14060:14074   */\n      swap1\n      pop\n        /* \"#utility.yul\":13977:14081   */\n      swap2\n      swap1\n      pop\n      jump\t// out\n        /* \"#utility.yul\":14087:14230   */\n    tag_411:\n        /* \"#utility.yul\":14184:14195   */\n      0x00\n        /* \"#utility.yul\":14221:14224   */\n      dup2\n        /* \"#utility.yul\":14206:14224   */\n      swap1\n      pop\n        /* \"#utility.yul\":14087:14230   */\n      swap3\n      swap2\n      pop\n      pop\n      jump\t// out\n        /* \"#utility.yul\":14236:14334   */\n    tag_412:\n        /* \"#utility.yul\":14301:14305   */\n      0x00\n        /* \"#utility.yul\":14324:14327   */\n      dup2\n        /* \"#utility.yul\":14316:14327   */\n      swap1\n      pop\n        /* \"#utility.yul\":14236:14334   */\n      swap2\n      swap1\n      pop\n      jump\t// out\n        /* \"#utility.yul\":14340:14451   */\n    tag_413:\n        /* \"#utility.yul\":14408:14412   */\n      0x00\n        /* \"#utility.yul\":14440:14444   */\n      0x20\n        /* \"#utility.yul\":14435:14438   */\n      dup3\n        /* \"#utility.yul\":14431:14445   */\n      add\n        /* \"#utility.yul\":14423:14445   */\n      swap1\n      pop\n        /* \"#utility.yul\":14340:14451   */\n      swap2\n      swap1\n      pop\n      jump\t// out\n        /* \"#utility.yul\":14489:15183   */\n    tag_414:\n        /* \"#utility.yul\":14625:14677   */\n      tag_579\n        /* \"#utility.yul\":14671:14676   */\n      dup2\n        /* \"#utility.yul\":14625:14677   */\n      tag_410\n      jump\t// in\n    tag_579:\n        /* \"#utility.yul\":14693:14777   */\n      tag_580\n        /* \"#utility.yul\":14770:14776   */\n      dup2\n        /* \"#utility.yul\":14765:14768   */\n      dup5\n        /* \"#utility.yul\":14693:14777   */\n      tag_411\n      jump\t// in\n    tag_580:\n        /* \"#utility.yul\":14686:14777   */\n      swap3\n      pop\n        /* \"#utility.yul\":14801:14855   */\n      tag_581\n        /* \"#utility.yul\":14849:14854   */\n      dup3\n        /* \"#utility.yul\":14801:14855   */\n      tag_412\n      jump\t// in\n    tag_581:\n        /* \"#utility.yul\":14878:14885   */\n      dup1\n        /* \"#utility.yul\":14909:14910   */\n      0x00\n        /* \"#utility.yul\":14894:15176   */\n    tag_582:\n        /* \"#utility.yul\":14919:14925   */\n      dup4\n        /* \"#utility.yul\":14916:14917   */\n      dup2\n        /* \"#utility.yul\":14913:14926   */\n      lt\n        /* \"#utility.yul\":14894:15176   */\n      iszero\n      tag_584\n      jumpi\n        /* \"#utility.yul\":14995:15001   */\n      dup2\n        /* \"#utility.yul\":14989:15002   */\n      mload\n        /* \"#utility.yul\":15022:15085   */\n      tag_585\n        /* \"#utility.yul\":15081:15084   */\n      dup8\n        /* \"#utility.yul\":15066:15079   */\n      dup3\n        /* \"#utility.yul\":15022:15085   */\n      tag_385\n      jump\t// in\n    tag_585:\n        /* \"#utility.yul\":15015:15085   */\n      swap7\n      pop\n        /* \"#utility.yul\":15108:15166   */\n      tag_586\n        /* \"#utility.yul\":15159:15165   */\n      dup4\n        /* \"#utility.yul\":15108:15166   */\n      tag_413\n      jump\t// in\n    tag_586:\n        /* \"#utility.yul\":15098:15166   */\n      swap3\n      pop\n        /* \"#utility.yul\":14954:15176   */\n      pop\n        /* \"#utility.yul\":14941:14942   */\n      0x01\n        /* \"#utility.yul\":14938:14939   */\n      dup2\n        /* \"#utility.yul\":14934:14943   */\n      add\n        /* \"#utility.yul\":14929:14943   */\n      swap1\n      pop\n        /* \"#utility.yul\":14894:15176   */\n      jump(tag_582)\n    tag_584:\n        /* \"#utility.yul\":14898:14912   */\n      pop\n        /* \"#utility.yul\":14601:15183   */\n      pop\n      pop\n      pop\n        /* \"#utility.yul\":14489:15183   */\n      pop\n      pop\n      jump\t// out\n        /* \"#utility.yul\":15189:15293   */\n    tag_415:\n        /* \"#utility.yul\":15254:15260   */\n      0x00\n        /* \"#utility.yul\":15282:15286   */\n      0x02\n        /* \"#utility.yul\":15272:15286   */\n      swap1\n      pop\n        /* \"#utility.yul\":15189:15293   */\n      swap2\n      swap1\n      pop\n      jump\t// out\n        /* \"#utility.yul\":15299:15442   */\n    tag_416:\n        /* \"#utility.yul\":15396:15407   */\n      0x00\n        /* \"#utility.yul\":15433:15436   */\n      dup2\n        /* \"#utility.yul\":15418:15436   */\n      swap1\n      pop\n        /* \"#utility.yul\":15299:15442   */\n      swap3\n      swap2\n      pop\n      pop\n      jump\t// out\n        /* \"#utility.yul\":15448:15546   */\n    tag_417:\n        /* \"#utility.yul\":15513:15517   */\n      0x00\n        /* \"#utility.yul\":15536:15539   */\n      dup2\n        /* \"#utility.yul\":15528:15539   */\n      swap1\n      pop\n        /* \"#utility.yul\":15448:15546   */\n      swap2\n      swap1\n      pop\n      jump\t// out\n        /* \"#utility.yul\":15552:15663   */\n    tag_418:\n        /* \"#utility.yul\":15620:15624   */\n      0x00\n        /* \"#utility.yul\":15652:15656   */\n      0x20\n        /* \"#utility.yul\":15647:15650   */\n      dup3\n        /* \"#utility.yul\":15643:15657   */\n      add\n        /* \"#utility.yul\":15635:15657   */\n      swap1\n      pop\n        /* \"#utility.yul\":15552:15663   */\n      swap2\n      swap1\n      pop\n      jump\t// out\n        /* \"#utility.yul\":15701:16395   */\n    tag_419:\n        /* \"#utility.yul\":15837:15889   */\n      tag_592\n        /* \"#utility.yul\":15883:15888   */\n      dup2\n        /* \"#utility.yul\":15837:15889   */\n      tag_415\n      jump\t// in\n    tag_592:\n        /* \"#utility.yul\":15905:15989   */\n      tag_593\n        /* \"#utility.yul\":15982:15988   */\n      dup2\n        /* \"#utility.yul\":15977:15980   */\n      dup5\n        /* \"#utility.yul\":15905:15989   */\n      tag_416\n      jump\t// in\n    tag_593:\n        /* \"#utility.yul\":15898:15989   */\n      swap3\n      pop\n        /* \"#utility.yul\":16013:16067   */\n      tag_594\n        /* \"#utility.yul\":16061:16066   */\n      dup3\n        /* \"#utility.yul\":16013:16067   */\n      tag_417\n      jump\t// in\n    tag_594:\n        /* \"#utility.yul\":16090:16097   */\n      dup1\n        /* \"#utility.yul\":16121:16122   */\n      0x00\n        /* \"#utility.yul\":16106:16388   */\n    tag_595:\n        /* \"#utility.yul\":16131:16137   */\n      dup4\n        /* \"#utility.yul\":16128:16129   */\n      dup2\n        /* \"#utility.yul\":16125:16138   */\n      lt\n        /* \"#utility.yul\":16106:16388   */\n      iszero\n      tag_597\n      jumpi\n        /* \"#utility.yul\":16207:16213   */\n      dup2\n        /* \"#utility.yul\":16201:16214   */\n      mload\n        /* \"#utility.yul\":16234:16297   */\n      tag_598\n        /* \"#utility.yul\":16293:16296   */\n      dup8\n        /* \"#utility.yul\":16278:16291   */\n      dup3\n        /* \"#utility.yul\":16234:16297   */\n      tag_385\n      jump\t// in\n    tag_598:\n        /* \"#utility.yul\":16227:16297   */\n      swap7\n      pop\n        /* \"#utility.yul\":16320:16378   */\n      tag_599\n        /* \"#utility.yul\":16371:16377   */\n      dup4\n        /* \"#utility.yul\":16320:16378   */\n      tag_418\n      jump\t// in\n    tag_599:\n        /* \"#utility.yul\":16310:16378   */\n      swap3\n      pop\n        /* \"#utility.yul\":16166:16388   */\n      pop\n        /* \"#utility.yul\":16153:16154   */\n      0x01\n        /* \"#utility.yul\":16150:16151   */\n      dup2\n        /* \"#utility.yul\":16146:16155   */\n      add\n        /* \"#utility.yul\":16141:16155   */\n      swap1\n      pop\n        /* \"#utility.yul\":16106:16388   */\n      jump(tag_595)\n    tag_597:\n        /* \"#utility.yul\":16110:16124   */\n      pop\n        /* \"#utility.yul\":15813:16395   */\n      pop\n      pop\n      pop\n        /* \"#utility.yul\":15701:16395   */\n      pop\n      pop\n      jump\t// out\n        /* \"#utility.yul\":16401:16919   */\n    tag_64:\n        /* \"#utility.yul\":16614:16618   */\n      0x00\n        /* \"#utility.yul\":16652:16655   */\n      0x0140\n        /* \"#utility.yul\":16641:16650   */\n      dup3\n        /* \"#utility.yul\":16637:16656   */\n      add\n        /* \"#utility.yul\":16629:16656   */\n      swap1\n      pop\n        /* \"#utility.yul\":16666:16783   */\n      tag_601\n        /* \"#utility.yul\":16780:16781   */\n      0x00\n        /* \"#utility.yul\":16769:16778   */\n      dup4\n        /* \"#utility.yul\":16765:16782   */\n      add\n        /* \"#utility.yul\":16756:16762   */\n      dup6\n        /* \"#utility.yul\":16666:16783   */\n      tag_414\n      jump\t// in\n    tag_601:\n        /* \"#utility.yul\":16793:16912   */\n      tag_602\n        /* \"#utility.yul\":16907:16910   */\n      0x0100\n        /* \"#utility.yul\":16896:16905   */\n      dup4\n        /* \"#utility.yul\":16892:16911   */\n      add\n        /* \"#utility.yul\":16883:16889   */\n      dup5\n        /* \"#utility.yul\":16793:16912   */\n      tag_419\n      jump\t// in\n    tag_602:\n        /* \"#utility.yul\":16401:16919   */\n      swap4\n      swap3\n      pop\n      pop\n      pop\n      jump\t// out\n        /* \"#utility.yul\":16925:17072   */\n    tag_420:\n        /* \"#utility.yul\":17026:17037   */\n      0x00\n        /* \"#utility.yul\":17063:17066   */\n      dup2\n        /* \"#utility.yul\":17048:17066   */\n      swap1\n      pop\n        /* \"#utility.yul\":16925:17072   */\n      swap3\n      swap2\n      pop\n      pop\n      jump\t// out\n        /* \"#utility.yul\":17078:17226   */\n    tag_421:\n        /* \"#utility.yul\":17176:17182   */\n      dup3\n        /* \"#utility.yul\":17171:17174   */\n      dup2\n        /* \"#utility.yul\":17166:17169   */\n      dup4\n        /* \"#utility.yul\":17153:17183   */\n      calldatacopy\n        /* \"#utility.yul\":17217:17218   */\n      0x00\n        /* \"#utility.yul\":17208:17214   */\n      dup4\n        /* \"#utility.yul\":17203:17206   */\n      dup4\n        /* \"#utility.yul\":17199:17215   */\n      add\n        /* \"#utility.yul\":17192:17219   */\n      mstore\n        /* \"#utility.yul\":17078:17226   */\n      pop\n      pop\n      pop\n      jump\t// out\n        /* \"#utility.yul\":17254:17581   */\n    tag_422:\n        /* \"#utility.yul\":17368:17371   */\n      0x00\n        /* \"#utility.yul\":17389:17477   */\n      tag_606\n        /* \"#utility.yul\":17470:17476   */\n      dup4\n        /* \"#utility.yul\":17465:17468   */\n      dup6\n        /* \"#utility.yul\":17389:17477   */\n      tag_420\n      jump\t// in\n    tag_606:\n        /* \"#utility.yul\":17382:17477   */\n      swap4\n      pop\n        /* \"#utility.yul\":17487:17543   */\n      tag_607\n        /* \"#utility.yul\":17536:17542   */\n      dup4\n        /* \"#utility.yul\":17531:17534   */\n      dup6\n        /* \"#utility.yul\":17524:17529   */\n      dup5\n        /* \"#utility.yul\":17487:17543   */\n      tag_421\n      jump\t// in\n    tag_607:\n        /* \"#utility.yul\":17568:17574   */\n      dup3\n        /* \"#utility.yul\":17563:17566   */\n      dup5\n        /* \"#utility.yul\":17559:17575   */\n      add\n        /* \"#utility.yul\":17552:17575   */\n      swap1\n      pop\n        /* \"#utility.yul\":17254:17581   */\n      swap4\n      swap3\n      pop\n      pop\n      pop\n      jump\t// out\n        /* \"#utility.yul\":17587:17878   */\n    tag_102:\n        /* \"#utility.yul\":17727:17730   */\n      0x00\n        /* \"#utility.yul\":17749:17852   */\n      tag_609\n        /* \"#utility.yul\":17848:17851   */\n      dup3\n        /* \"#utility.yul\":17839:17845   */\n      dup5\n        /* \"#utility.yul\":17831:17837   */\n      dup7\n        /* \"#utility.yul\":17749:17852   */\n      tag_422\n      jump\t// in\n    tag_609:\n        /* \"#utility.yul\":17742:17852   */\n      swap2\n      pop\n        /* \"#utility.yul\":17869:17872   */\n      dup2\n        /* \"#utility.yul\":17862:17872   */\n      swap1\n      pop\n        /* \"#utility.yul\":17587:17878   */\n      swap4\n      swap3\n      pop\n      pop\n      pop\n      jump\t// out\n        /* \"#utility.yul\":17884:18027   */\n    tag_423:\n        /* \"#utility.yul\":17941:17946   */\n      0x00\n        /* \"#utility.yul\":17972:17978   */\n      dup2\n        /* \"#utility.yul\":17966:17979   */\n      mload\n        /* \"#utility.yul\":17957:17979   */\n      swap1\n      pop\n        /* \"#utility.yul\":17988:18021   */\n      tag_611\n        /* \"#utility.yul\":18015:18020   */\n      dup2\n        /* \"#utility.yul\":17988:18021   */\n      tag_373\n      jump\t// in\n    tag_611:\n        /* \"#utility.yul\":17884:18027   */\n      swap3\n      swap2\n      pop\n      pop\n      jump\t// out\n        /* \"#utility.yul\":18033:18384   */\n    tag_106:\n        /* \"#utility.yul\":18103:18109   */\n      0x00\n        /* \"#utility.yul\":18152:18154   */\n      0x20\n        /* \"#utility.yul\":18140:18149   */\n      dup3\n        /* \"#utility.yul\":18131:18138   */\n      dup5\n        /* \"#utility.yul\":18127:18150   */\n      sub\n        /* \"#utility.yul\":18123:18155   */\n      slt\n        /* \"#utility.yul\":18120:18239   */\n      iszero\n      tag_613\n      jumpi\n        /* \"#utility.yul\":18158:18237   */\n      tag_614\n      tag_371\n      jump\t// in\n    tag_614:\n        /* \"#utility.yul\":18120:18239   */\n    tag_613:\n        /* \"#utility.yul\":18278:18279   */\n      0x00\n        /* \"#utility.yul\":18303:18367   */\n      tag_615\n        /* \"#utility.yul\":18359:18366   */\n      dup5\n        /* \"#utility.yul\":18350:18356   */\n      dup3\n        /* \"#utility.yul\":18339:18348   */\n      dup6\n        /* \"#utility.yul\":18335:18357   */\n      add\n        /* \"#utility.yul\":18303:18367   */\n      tag_423\n      jump\t// in\n    tag_615:\n        /* \"#utility.yul\":18293:18367   */\n      swap2\n      pop\n        /* \"#utility.yul\":18249:18377   */\n      pop\n        /* \"#utility.yul\":18033:18384   */\n      swap3\n      swap2\n      pop\n      pop\n      jump\t// out\n        /* \"#utility.yul\":18390:18570   */\n    tag_191:\n        /* \"#utility.yul\":18438:18515   */\n      0x4e487b7100000000000000000000000000000000000000000000000000000000\n        /* \"#utility.yul\":18435:18436   */\n      0x00\n        /* \"#utility.yul\":18428:18516   */\n      mstore\n        /* \"#utility.yul\":18535:18539   */\n      0x12\n        /* \"#utility.yul\":18532:18533   */\n      0x04\n        /* \"#utility.yul\":18525:18540   */\n      mstore\n        /* \"#utility.yul\":18559:18563   */\n      0x24\n        /* \"#utility.yul\":18556:18557   */\n      0x00\n        /* \"#utility.yul\":18549:18564   */\n      revert\n        /* \"#utility.yul\":18576:18756   */\n    tag_424:\n        /* \"#utility.yul\":18624:18701   */\n      0x4e487b7100000000000000000000000000000000000000000000000000000000\n        /* \"#utility.yul\":18621:18622   */\n      0x00\n        /* \"#utility.yul\":18614:18702   */\n      mstore\n        /* \"#utility.yul\":18721:18725   */\n      0x11\n        /* \"#utility.yul\":18718:18719   */\n      0x04\n        /* \"#utility.yul\":18711:18726   */\n      mstore\n        /* \"#utility.yul\":18745:18749   */\n      0x24\n        /* \"#utility.yul\":18742:18743   */\n      0x00\n        /* \"#utility.yul\":18735:18750   */\n      revert\n        /* \"#utility.yul\":18762:18956   */\n    tag_212:\n        /* \"#utility.yul\":18802:18806   */\n      0x00\n        /* \"#utility.yul\":18822:18842   */\n      tag_619\n        /* \"#utility.yul\":18840:18841   */\n      dup3\n        /* \"#utility.yul\":18822:18842   */\n      tag_383\n      jump\t// in\n    tag_619:\n        /* \"#utility.yul\":18817:18842   */\n      swap2\n      pop\n        /* \"#utility.yul\":18856:18876   */\n      tag_620\n        /* \"#utility.yul\":18874:18875   */\n      dup4\n        /* \"#utility.yul\":18856:18876   */\n      tag_383\n      jump\t// in\n    tag_620:\n        /* \"#utility.yul\":18851:18876   */\n      swap3\n      pop\n        /* \"#utility.yul\":18900:18901   */\n      dup3\n        /* \"#utility.yul\":18897:18898   */\n      dup3\n        /* \"#utility.yul\":18893:18902   */\n      sub\n        /* \"#utility.yul\":18885:18902   */\n      swap1\n      pop\n        /* \"#utility.yul\":18924:18925   */\n      dup2\n        /* \"#utility.yul\":18918:18922   */\n      dup2\n        /* \"#utility.yul\":18915:18926   */\n      gt\n        /* \"#utility.yul\":18912:18949   */\n      iszero\n      tag_621\n      jumpi\n        /* \"#utility.yul\":18929:18947   */\n      tag_622\n      tag_424\n      jump\t// in\n    tag_622:\n        /* \"#utility.yul\":18912:18949   */\n    tag_621:\n        /* \"#utility.yul\":18762:18956   */\n      swap3\n      swap2\n      pop\n      pop\n      jump\t// out\n\n    auxdata: 0xa2646970667358221220ffde65774e86353b7010d0c0585e25fbc8d6af6c571d01452616c2a64937579664736f6c634300081e0033\n}\n",
				"bytecode": {
					"linkReferences": {},
					"object": "6080604052348015600e575f5ffd5b50612b6f8061001c5f395ff3fe608060405234801561000f575f5ffd5b506004361061007b575f3560e01c80636b61d8e7116100595780636b61d8e7146100e9578063eddf243c14610119578063f11817b214610135578063ffa1ad74146101515761007b565b80632a5104361461007f57806341493c601461009d57806344f63692146100b9575b5f5ffd5b61008761016f565b604051610094919061223d565b60405180910390f35b6100b760048036038101906100b291906122f2565b610198565b005b6100d360048036038101906100ce91906123a4565b610332565b6040516100e0919061247e565b60405180910390f35b61010360048036038101906100fe9190612497565b610491565b604051610110919061223d565b60405180910390f35b610133600480360381019061012e9190612503565b61050e565b005b61014f600480360381019061014a9190612564565b6107a8565b005b610159610d63565b6040516101669190612612565b60405180910390f35b5f7f090690902a12d1d02c07a1ad25aa76bded5f6499e12a11ba127669501b5539985f1b905090565b5f82825f906004926101ac9392919061263a565b906101b791906126b5565b90505f6101c261016f565b9050807bffffffffffffffffffffffffffffffffffffffffffffffffffffffff1916827bffffffffffffffffffffffffffffffffffffffffffffffffffffffff1916146102485781816040517f988066a100000000000000000000000000000000000000000000000000000000815260040161023f929190612722565b60405180910390fd5b5f6102538787610491565b905061025d61219c565b885f1c815f6002811061027357610272612749565b5b602002018181525050815f1c8160016002811061029357610292612749565b5b6020020181815250505f868660049080926102b09392919061263a565b8101906102bd91906128c6565b90503073ffffffffffffffffffffffffffffffffffffffff1663eddf243c82846040518363ffffffff1660e01b81526004016102fa9291906129f0565b5f6040518083038186803b158015610310575f5ffd5b505afa158015610322573d5f5f3e3d5ffd5b5050505050505050505050505050565b61033a6121be565b610373825f600881106103505761034f612749565b5b60200201358360016008811061036957610368612749565b5b6020020135610da0565b815f6004811061038657610385612749565b5b6020020181815250506103fb826003600881106103a6576103a5612749565b5b6020020135836002600881106103bf576103be612749565b5b6020020135846005600881106103d8576103d7612749565b5b6020020135856004600881106103f1576103f0612749565b5b6020020135610f4e565b8260026004811061040f5761040e612749565b5b602002018360016004811061042757610426612749565b5b602002018281525082815250505061046f8260066008811061044c5761044b612749565b5b60200201358360076008811061046557610464612749565b5b6020020135610da0565b8160036004811061048357610482612749565b5b602002018181525050919050565b5f7f1fffffffffffffffffffffffffffffffffffffffffffffffffffffffffffffff5f1b600284846040516104c7929190612a55565b602060405180830381855afa1580156104e2573d5f5f3e3d5ffd5b5050506040513d601f19601f820116820180604052508101906105059190612a81565b16905092915050565b5f5f6105198361151a565b915091505f6040516101008682377f21ab438b0ad9688f8d9afc96ed0ab25e6ab7f19ed6f7d58a9dc136d68de55e3e6101008201527f2d1f461ca03a65528393919e9e412f6b82d7096e44fa039bd7642a5112188af76101208201527f100f76d4ac45886c1334d58716121dc0ffa8463738f3f2adf793e15b8ecd7e1d6101408201527f2bf21e8bb2f9419034373c2156cdd7bddf273519dcd7f674ef21e2748ced89f26101608201527f2d4d9aa7e302d9df41749d5507949d05dbea33fbb16c643b22f599a2be6df2e26101808201527f14bedd503c37ceb061d8ec60209fe345ce89830a19230301f076caff004d19266101a08201527f0967032fcbf776d1afc985f88877f182d38480a653f2decaa9794cbc3bf3060c6101c08201527f0e187847ad4c798374d0d6732bf501847dd68bc0e071241e0213bc7fc13db7ab6101e08201527e1752a100a72fdf1e5a5d6ea841cc20ec838bccfcf7bd559e79f1c9c759b6a06102008201527f192a8cc13cd9f762871f21e43451c6ca9eeab2cb2987c4e366a185c25dac2e7f61022082015283610240820152826102608201527f198e9393920d483a7260bfb731fb5d25f1aa493335a9e71297e485b7aef312c26102808201527f1800deef121f1e76426a00665e5c4479674322d4f75edadd46debd5cd992f6ed6102a08201527f275dc4a288d1afb3cbb1ac09187524c7db36395df7be3b99e673b13a075a65ec6102c08201527f1d9befcd05a5323e6da4d435f3b617cdb3af83285c2df711ef39c01571827f9d6102e08201526020816103008360085afa915080518216915050806107a1576040517f7fcdd1f400000000000000000000000000000000000000000000000000000000815260040160405180910390fd5b5050505050565b6107b06121e0565b5f5f6107d2855f600481106107c8576107c7612749565b5b60200201356116ec565b915091505f5f5f5f610814896002600481106107f1576107f0612749565b5b60200201358a60016004811061080a57610809612749565b5b6020020135611821565b93509350935093505f5f61083f8b60036004811061083557610834612749565b5b60200201356116ec565b915091505f5f61084e8c61151a565b91509150898b5f6018811061086657610865612749565b5b602002018181525050888b60016018811061088457610883612749565b5b602002018181525050868b6002601881106108a2576108a1612749565b5b602002018181525050878b6003601881106108c0576108bf612749565b5b602002018181525050848b6004601881106108de576108dd612749565b5b602002018181525050858b6005601881106108fc576108fb612749565b5b602002018181525050838b60066018811061091a57610919612749565b5b602002018181525050828b60076018811061093857610937612749565b5b6020020181815250507f21ab438b0ad9688f8d9afc96ed0ab25e6ab7f19ed6f7d58a9dc136d68de55e3e8b60086018811061097657610975612749565b5b6020020181815250507f2d1f461ca03a65528393919e9e412f6b82d7096e44fa039bd7642a5112188af78b6009601881106109b4576109b3612749565b5b6020020181815250507f100f76d4ac45886c1334d58716121dc0ffa8463738f3f2adf793e15b8ecd7e1d8b600a601881106109f2576109f1612749565b5b6020020181815250507f2bf21e8bb2f9419034373c2156cdd7bddf273519dcd7f674ef21e2748ced89f28b600b60188110610a3057610a2f612749565b5b6020020181815250507f2d4d9aa7e302d9df41749d5507949d05dbea33fbb16c643b22f599a2be6df2e28b600c60188110610a6e57610a6d612749565b5b6020020181815250507f14bedd503c37ceb061d8ec60209fe345ce89830a19230301f076caff004d19268b600d60188110610aac57610aab612749565b5b6020020181815250507f0967032fcbf776d1afc985f88877f182d38480a653f2decaa9794cbc3bf3060c8b600e60188110610aea57610ae9612749565b5b6020020181815250507f0e187847ad4c798374d0d6732bf501847dd68bc0e071241e0213bc7fc13db7ab8b600f60188110610b2857610b27612749565b5b6020020181815250507e1752a100a72fdf1e5a5d6ea841cc20ec838bccfcf7bd559e79f1c9c759b6a08b601060188110610b6557610b64612749565b5b6020020181815250507f192a8cc13cd9f762871f21e43451c6ca9eeab2cb2987c4e366a185c25dac2e7f8b601160188110610ba357610ba2612749565b5b602002018181525050818b601260188110610bc157610bc0612749565b5b602002018181525050808b601360188110610bdf57610bde612749565b5b6020020181815250507f198e9393920d483a7260bfb731fb5d25f1aa493335a9e71297e485b7aef312c28b601460188110610c1d57610c1c612749565b5b6020020181815250507f1800deef121f1e76426a00665e5c4479674322d4f75edadd46debd5cd992f6ed8b601560188110610c5b57610c5a612749565b5b6020020181815250507f275dc4a288d1afb3cbb1ac09187524c7db36395df7be3b99e673b13a075a65ec8b601660188110610c9957610c98612749565b5b6020020181815250507f1d9befcd05a5323e6da4d435f3b617cdb3af83285c2df711ef39c01571827f9d8b601760188110610cd757610cd6612749565b5b6020020181815250505f610ce9612203565b6020816103008f60085afa9150811580610d1b57506001815f60018110610d1357610d12612749565b5b602002015114155b15610d52576040517f7fcdd1f400000000000000000000000000000000000000000000000000000000815260040160405180910390fd5b505050505050505050505050505050565b60606040518060400160405280600681526020017f76332e302e300000000000000000000000000000000000000000000000000000815250905090565b5f7f30644e72e131a029b85045b68181585d97816a916871ca8d3c208c16d87cfd4783101580610df057507f30644e72e131a029b85045b68181585d97816a916871ca8d3c208c16d87cfd478210155b15610e27576040517f7fcdd1f400000000000000000000000000000000000000000000000000000000815260040160405180910390fd5b5f83148015610e3557505f82145b15610e42575f9050610f48565b5f610ee07f30644e72e131a029b85045b68181585d97816a916871ca8d3c208c16d87cfd4780610e7557610e74612aac565b5b60037f30644e72e131a029b85045b68181585d97816a916871ca8d3c208c16d87cfd4780610ea657610ea5612aac565b5b877f30644e72e131a029b85045b68181585d97816a916871ca8d3c208c16d87cfd4780610ed657610ed5612aac565b5b898a090908611bfc565b9050808303610ef8575f600185901b17915050610f48565b610f0181611c98565b8303610f165760018085901b17915050610f48565b6040517f7fcdd1f400000000000000000000000000000000000000000000000000000000815260040160405180910390fd5b92915050565b5f5f7f30644e72e131a029b85045b68181585d97816a916871ca8d3c208c16d87cfd4786101580610f9f57507f30644e72e131a029b85045b68181585d97816a916871ca8d3c208c16d87cfd478510155b80610fca57507f30644e72e131a029b85045b68181585d97816a916871ca8d3c208c16d87cfd478410155b80610ff557507f30644e72e131a029b85045b68181585d97816a916871ca8d3c208c16d87cfd478310155b1561102c576040517f7fcdd1f400000000000000000000000000000000000000000000000000000000815260040160405180910390fd5b5f8385878917171703611044575f5f91509150611511565b5f5f5f7f30644e72e131a029b85045b68181585d97816a916871ca8d3c208c16d87cfd478061107657611075612aac565b5b60037f30644e72e131a029b85045b68181585d97816a916871ca8d3c208c16d87cfd476110a39190612b06565b7f30644e72e131a029b85045b68181585d97816a916871ca8d3c208c16d87cfd47806110d2576110d1612aac565b5b8a8c090990505f7f30644e72e131a029b85045b68181585d97816a916871ca8d3c208c16d87cfd478061110857611107612aac565b5b8a7f30644e72e131a029b85045b68181585d97816a916871ca8d3c208c16d87cfd478061113857611137612aac565b5b8c8d090990505f7f30644e72e131a029b85045b68181585d97816a916871ca8d3c208c16d87cfd478061116e5761116d612aac565b5b8a7f30644e72e131a029b85045b68181585d97816a916871ca8d3c208c16d87cfd478061119e5761119d612aac565b5b8c8d090990507f30644e72e131a029b85045b68181585d97816a916871ca8d3c208c16d87cfd47806111d3576111d2612aac565b5b7f30644e72e131a029b85045b68181585d97816a916871ca8d3c208c16d87cfd478061120257611201612aac565b5b7f30644e72e131a029b85045b68181585d97816a916871ca8d3c208c16d87cfd478061123157611230612aac565b5b8c860984087f2b149d40ceb8aaae81be18991be06ac3b5b4c5e559dbefa33267e6dc24a138e50894506113167f30644e72e131a029b85045b68181585d97816a916871ca8d3c208c16d87cfd478061128c5761128b612aac565b5b7f30644e72e131a029b85045b68181585d97816a916871ca8d3c208c16d87cfd47806112bb576112ba612aac565b5b7f30644e72e131a029b85045b68181585d97816a916871ca8d3c208c16d87cfd47806112ea576112e9612aac565b5b8e870984087f2fcd3ac2a640a154eb23960892a85a68f031ca0c8344b23a577dcf1052b9e77508611c98565b93505050505f5f6113b97f30644e72e131a029b85045b68181585d97816a916871ca8d3c208c16d87cfd478061134f5761134e612aac565b5b7f30644e72e131a029b85045b68181585d97816a916871ca8d3c208c16d87cfd478061137e5761137d612aac565b5b8586097f30644e72e131a029b85045b68181585d97816a916871ca8d3c208c16d87cfd47806113b0576113af612aac565b5b87880908611bfc565b90506114467f30644e72e131a029b85045b68181585d97816a916871ca8d3c208c16d87cfd47806113ed576113ec612aac565b5b7f183227397098d014dc2822db40c0ac2ecbc0b548b438e5469e10460b6c3e7ea47f30644e72e131a029b85045b68181585d97816a916871ca8d3c208c16d87cfd478061143d5761143c612aac565b5b84880809611d03565b15915050611455838383611d6d565b8093508194505050828714801561146b57508186145b15611493575f8161147c575f61147f565b60025b60ff1660028b901b1717945087935061150d565b61149c83611c98565b871480156114b157506114ae82611c98565b86145b156114da576001816114c3575f6114c6565b60025b60ff1660028b901b1717945087935061150c565b6040517f7fcdd1f400000000000000000000000000000000000000000000000000000000815260040160405180910390fd5b5b5050505b94509492505050565b5f5f5f60019050604051604081015f7f0251859caefe66b516c5549d3768d1ba94146083cb044026abebc9908991924883527f2c1e789b2dcafdaa6853d0934c4443d223b8f050ce3466d068f2ab7efa29bc0360208401527f13a264f6a5d0e3938bea4e4431d417f2980774db501085ceafd0d7e76a7f128b82527f155351b5ccccb7a37222f2b82fa4a968f33523326364fe52bb87d1ea3f47c6976020830152863590508060408301527f30644e72e131a029b85045b68181585d2833e84879b9709143e1f593f000000181108416935060408260608460075afa8416935060408360808560065afa841693507f03777818388f77b4065a87d01e141b5fec2ee452d1ada3493892aca2c4da5d4082527f0fb2382a8c87c5992ee8385e493ffd96983c8c42c5545a4daaab264f482865b56020830152602087013590508060408301527f30644e72e131a029b85045b68181585d2833e84879b9709143e1f593f000000181108416935060408260608460075afa8416935060408360808560065afa841693508251955060208301519450505050806116e6576040517fa54f8e2700000000000000000000000000000000000000000000000000000000815260040160405180910390fd5b50915091565b5f5f5f8303611700575f5f9150915061181c565b5f6001808516149050600184901c92507f30644e72e131a029b85045b68181585d97816a916871ca8d3c208c16d87cfd478310611769576040517f7fcdd1f400000000000000000000000000000000000000000000000000000000815260040160405180910390fd5b6118067f30644e72e131a029b85045b68181585d97816a916871ca8d3c208c16d87cfd478061179b5761179a612aac565b5b60037f30644e72e131a029b85045b68181585d97816a916871ca8d3c208c16d87cfd47806117cc576117cb612aac565b5b867f30644e72e131a029b85045b68181585d97816a916871ca8d3c208c16d87cfd47806117fc576117fb612aac565b5b8889090908611bfc565b9150801561181a5761181782611c98565b91505b505b915091565b5f5f5f5f5f8614801561183357505f85145b15611849575f5f5f5f9350935093509350611bf3565b5f60018088161490505f6002808916149050600288901c95508694507f30644e72e131a029b85045b68181585d97816a916871ca8d3c208c16d87cfd47861015806118b457507f30644e72e131a029b85045b68181585d97816a916871ca8d3c208c16d87cfd478510155b156118eb576040517f7fcdd1f400000000000000000000000000000000000000000000000000000000815260040160405180910390fd5b5f7f30644e72e131a029b85045b68181585d97816a916871ca8d3c208c16d87cfd478061191b5761191a612aac565b5b60037f30644e72e131a029b85045b68181585d97816a916871ca8d3c208c16d87cfd476119489190612b06565b7f30644e72e131a029b85045b68181585d97816a916871ca8d3c208c16d87cfd478061197757611976612aac565b5b888a090990505f7f30644e72e131a029b85045b68181585d97816a916871ca8d3c208c16d87cfd47806119ad576119ac612aac565b5b887f30644e72e131a029b85045b68181585d97816a916871ca8d3c208c16d87cfd47806119dd576119dc612aac565b5b8a8b090990505f7f30644e72e131a029b85045b68181585d97816a916871ca8d3c208c16d87cfd4780611a1357611a12612aac565b5b887f30644e72e131a029b85045b68181585d97816a916871ca8d3c208c16d87cfd4780611a4357611a42612aac565b5b8a8b090990507f30644e72e131a029b85045b68181585d97816a916871ca8d3c208c16d87cfd4780611a7857611a77612aac565b5b7f30644e72e131a029b85045b68181585d97816a916871ca8d3c208c16d87cfd4780611aa757611aa6612aac565b5b7f30644e72e131a029b85045b68181585d97816a916871ca8d3c208c16d87cfd4780611ad657611ad5612aac565b5b8a860984087f2b149d40ceb8aaae81be18991be06ac3b5b4c5e559dbefa33267e6dc24a138e5089650611bbb7f30644e72e131a029b85045b68181585d97816a916871ca8d3c208c16d87cfd4780611b3157611b30612aac565b5b7f30644e72e131a029b85045b68181585d97816a916871ca8d3c208c16d87cfd4780611b6057611b5f612aac565b5b7f30644e72e131a029b85045b68181585d97816a916871ca8d3c208c16d87cfd4780611b8f57611b8e612aac565b5b8c870984087f2fcd3ac2a640a154eb23960892a85a68f031ca0c8344b23a577dcf1052b9e77508611c98565b9550611bc8878786611d6d565b80975081985050508415611bed57611bdf87611c98565b9650611bea86611c98565b95505b50505050505b92959194509250565b5f611c27827f0c19139cb84c680a6e14116da060561765e05aa45a1c72a34f082305b61f3f52612068565b9050817f30644e72e131a029b85045b68181585d97816a916871ca8d3c208c16d87cfd4780611c5957611c58612aac565b5b82830914611c93576040517f7fcdd1f400000000000000000000000000000000000000000000000000000000815260040160405180910390fd5b919050565b5f7f30644e72e131a029b85045b68181585d97816a916871ca8d3c208c16d87cfd47808381611cca57611cc9612aac565b5b067f30644e72e131a029b85045b68181585d97816a916871ca8d3c208c16d87cfd470381611cfb57611cfa612aac565b5b069050919050565b5f5f611d2f837f0c19139cb84c680a6e14116da060561765e05aa45a1c72a34f082305b61f3f52612068565b9050827f30644e72e131a029b85045b68181585d97816a916871ca8d3c208c16d87cfd4780611d6157611d60612aac565b5b82830914915050919050565b5f5f5f611e0c7f30644e72e131a029b85045b68181585d97816a916871ca8d3c208c16d87cfd4780611da257611da1612aac565b5b7f30644e72e131a029b85045b68181585d97816a916871ca8d3c208c16d87cfd4780611dd157611dd0612aac565b5b8788097f30644e72e131a029b85045b68181585d97816a916871ca8d3c208c16d87cfd4780611e0357611e02612aac565b5b898a0908611bfc565b90508315611e2057611e1d81611c98565b90505b611eab7f30644e72e131a029b85045b68181585d97816a916871ca8d3c208c16d87cfd4780611e5257611e51612aac565b5b7f183227397098d014dc2822db40c0ac2ecbc0b548b438e5469e10460b6c3e7ea47f30644e72e131a029b85045b68181585d97816a916871ca8d3c208c16d87cfd4780611ea257611ea1612aac565b5b848a0809611bfc565b92507f30644e72e131a029b85045b68181585d97816a916871ca8d3c208c16d87cfd4780611edc57611edb612aac565b5b611f177f30644e72e131a029b85045b68181585d97816a916871ca8d3c208c16d87cfd4780611f0e57611f0d612aac565b5b600286096120ff565b860991507f30644e72e131a029b85045b68181585d97816a916871ca8d3c208c16d87cfd4780611f4a57611f49612aac565b5b611f847f30644e72e131a029b85045b68181585d97816a916871ca8d3c208c16d87cfd4780611f7c57611f7b612aac565b5b848509611c98565b7f30644e72e131a029b85045b68181585d97816a916871ca8d3c208c16d87cfd4780611fb357611fb2612aac565b5b858609088614158061202857507f30644e72e131a029b85045b68181585d97816a916871ca8d3c208c16d87cfd4780611fef57611fee612aac565b5b7f30644e72e131a029b85045b68181585d97816a916871ca8d3c208c16d87cfd478061201e5761201d612aac565b5b8385096002098514155b1561205f576040517f7fcdd1f400000000000000000000000000000000000000000000000000000000815260040160405180910390fd5b50935093915050565b5f5f60405160208152602080820152602060408201528460608201528360808201527f30644e72e131a029b85045b68181585d97816a916871ca8d3c208c16d87cfd4760a082015260208160c08360055afa91508051925050806120f8576040517f7fcdd1f400000000000000000000000000000000000000000000000000000000815260040160405180910390fd5b5092915050565b5f61212a827f30644e72e131a029b85045b68181585d97816a916871ca8d3c208c16d87cfd45612068565b905060017f30644e72e131a029b85045b68181585d97816a916871ca8d3c208c16d87cfd478061215d5761215c612aac565b5b82840914612197576040517f7fcdd1f400000000000000000000000000000000000000000000000000000000815260040160405180910390fd5b919050565b6040518060400160405280600290602082028036833780820191505090505090565b6040518060800160405280600490602082028036833780820191505090505090565b604051806103000160405280601890602082028036833780820191505090505090565b6040518060200160405280600190602082028036833780820191505090505090565b5f819050919050565b61223781612225565b82525050565b5f6020820190506122505f83018461222e565b92915050565b5f604051905090565b5f5ffd5b5f5ffd5b61227081612225565b811461227a575f5ffd5b50565b5f8135905061228b81612267565b92915050565b5f5ffd5b5f5ffd5b5f5ffd5b5f5f83601f8401126122b2576122b1612291565b5b8235905067ffffffffffffffff8111156122cf576122ce612295565b5b6020830191508360018202830111156122eb576122ea612299565b5b9250929050565b5f5f5f5f5f6060868803121561230b5761230a61225f565b5b5f6123188882890161227d565b955050602086013567ffffffffffffffff81111561233957612338612263565b5b6123458882890161229d565b9450945050604086013567ffffffffffffffff81111561236857612367612263565b5b6123748882890161229d565b92509250509295509295909350565b5f8190508260206008028201111561239e5761239d612299565b5b92915050565b5f61010082840312156123ba576123b961225f565b5b5f6123c784828501612383565b91505092915050565b5f60049050919050565b5f81905092915050565b5f819050919050565b5f819050919050565b6123ff816123ed565b82525050565b5f61241083836123f6565b60208301905092915050565b5f602082019050919050565b612431816123d0565b61243b81846123da565b9250612446826123e4565b805f5b8381101561247657815161245d8782612405565b96506124688361241c565b925050600181019050612449565b505050505050565b5f6080820190506124915f830184612428565b92915050565b5f5f602083850312156124ad576124ac61225f565b5b5f83013567ffffffffffffffff8111156124ca576124c9612263565b5b6124d68582860161229d565b92509250509250929050565b5f819050826020600202820111156124fd576124fc612299565b5b92915050565b5f5f610140838503121561251a5761251961225f565b5b5f61252785828601612383565b925050610100612539858286016124e2565b9150509250929050565b5f8190508260206004028201111561255e5761255d612299565b5b92915050565b5f5f60c0838503121561257a5761257961225f565b5b5f61258785828601612543565b9250506080612598858286016124e2565b9150509250929050565b5f81519050919050565b5f82825260208201905092915050565b8281835e5f83830152505050565b5f601f19601f8301169050919050565b5f6125e4826125a2565b6125ee81856125ac565b93506125fe8185602086016125bc565b612607816125ca565b840191505092915050565b5f6020820190508181035f83015261262a81846125da565b905092915050565b5f5ffd5b5f5ffd5b5f5f8585111561264d5761264c612632565b5b8386111561265e5761265d612636565b5b6001850283019150848603905094509492505050565b5f82905092915050565b5f7fffffffff0000000000000000000000000000000000000000000000000000000082169050919050565b5f82821b905092915050565b5f6126c08383612674565b826126cb813561267e565b9250600482101561270b576127067fffffffff00000000000000000000000000000000000000000000000000000000836004036008026126a9565b831692505b505092915050565b61271c8161267e565b82525050565b5f6040820190506127355f830185612713565b6127426020830184612713565b9392505050565b7f4e487b71000000000000000000000000000000000000000000000000000000005f52603260045260245ffd5b7f4e487b71000000000000000000000000000000000000000000000000000000005f52604160045260245ffd5b6127ac826125ca565b810181811067ffffffffffffffff821117156127cb576127ca612776565b5b80604052505050565b5f6127dd612256565b90506127e982826127a3565b919050565b5f67ffffffffffffffff82111561280857612807612776565b5b602082029050919050565b61281c816123ed565b8114612826575f5ffd5b50565b5f8135905061283781612813565b92915050565b5f61284f61284a846127ee565b6127d4565b9050806020840283018581111561286957612868612299565b5b835b81811015612892578061287e8882612829565b84526020840193505060208101905061286b565b5050509392505050565b5f82601f8301126128b0576128af612291565b5b60086128bd84828561283d565b91505092915050565b5f61010082840312156128dc576128db61225f565b5b5f6128e98482850161289c565b91505092915050565b5f60089050919050565b5f81905092915050565b5f819050919050565b5f602082019050919050565b612924816128f2565b61292e81846128fc565b925061293982612906565b805f5b838110156129695781516129508782612405565b965061295b8361290f565b92505060018101905061293c565b505050505050565b5f60029050919050565b5f81905092915050565b5f819050919050565b5f602082019050919050565b6129a381612971565b6129ad818461297b565b92506129b882612985565b805f5b838110156129e85781516129cf8782612405565b96506129da8361298e565b9250506001810190506129bb565b505050505050565b5f61014082019050612a045f83018561291b565b612a1261010083018461299a565b9392505050565b5f81905092915050565b828183375f83830152505050565b5f612a3c8385612a19565b9350612a49838584612a23565b82840190509392505050565b5f612a61828486612a31565b91508190509392505050565b5f81519050612a7b81612267565b92915050565b5f60208284031215612a9657612a9561225f565b5b5f612aa384828501612a6d565b91505092915050565b7f4e487b71000000000000000000000000000000000000000000000000000000005f52601260045260245ffd5b7f4e487b71000000000000000000000000000000000000000000000000000000005f52601160045260245ffd5b5f612b10826123ed565b9150612b1b836123ed565b9250828203905081811115612b3357612b32612ad9565b5b9291505056fea2646970667358221220ffde65774e86353b7010d0c0585e25fbc8d6af6c571d01452616c2a64937579664736f6c634300081e0033",
					"opcodes": "PUSH1 0x80 PUSH1 0x40 MSTORE CALLVALUE DUP1 ISZERO PUSH1 0xE JUMPI PUSH0 PUSH0 REVERT JUMPDEST POP PUSH2 0x2B6F DUP1 PUSH2 0x1C PUSH0 CODECOPY PUSH0 RETURN INVALID PUSH1 0x80 PUSH1 0x40 MSTORE CALLVALUE DUP1 ISZERO PUSH2 0xF JUMPI PUSH0 PUSH0 REVERT JUMPDEST POP PUSH1 0x4 CALLDATASIZE LT PUSH2 0x7B JUMPI PUSH0 CALLDATALOAD PUSH1 0xE0 SHR DUP1 PUSH4 0x6B61D8E7 GT PUSH2 0x59 JUMPI DUP1 PUSH4 0x6B61D8E7 EQ PUSH2 0xE9 JUMPI DUP1 PUSH4 0xEDDF243C EQ PUSH2 0x119 JUMPI DUP1 PUSH4 0xF11817B2 EQ PUSH2 0x135 JUMPI DUP1 PUSH4 0xFFA1AD74 EQ PUSH2 0x151 JUMPI PUSH2 0x7B JUMP JUMPDEST DUP1 PUSH4 0x2A510436 EQ PUSH2 0x7F JUMPI DUP1 PUSH4 0x41493C60 EQ PUSH2 0x9D JUMPI DUP1 PUSH4 0x44F63692 EQ PUSH2 0xB9 JUMPI JUMPDEST PUSH0 PUSH0 REVERT JUMPDEST PUSH2 0x87 PUSH2 0x16F JUMP JUMPDEST PUSH1 0x40 MLOAD PUSH2 0x94 SWAP2 SWAP1 PUSH2 0x223D JUMP JUMPDEST PUSH1 0x40 MLOAD DUP1 SWAP2 SUB SWAP1 RETURN JUMPDEST PUSH2 0xB7 PUSH1 0x4 DUP1 CALLDATASIZE SUB DUP2 ADD SWAP1 PUSH2 0xB2 SWAP2 SWAP1 PUSH2 0x22F2 JUMP JUMPDEST PUSH2 0x198 JUMP JUMPDEST STOP JUMPDEST PUSH2 0xD3 PUSH1 0x4 DUP1 CALLDATASIZE SUB DUP2 ADD SWAP1 PUSH2 0xCE SWAP2 SWAP1 PUSH2 0x23A4 JUMP JUMPDEST PUSH2 0x332 JUMP JUMPDEST PUSH1 0x40 MLOAD PUSH2 0xE0 SWAP2 SWAP1 PUSH2 0x247E JUMP JUMPDEST PUSH1 0x40 MLOAD DUP1 SWAP2 SUB SWAP1 RETURN JUMPDEST PUSH2 0x103 PUSH1 0x4 DUP1 CALLDATASIZE SUB DUP2 ADD SWAP1 PUSH2 0xFE SWAP2 SWAP1 PUSH2 0x2497 JUMP JUMPDEST PUSH2 0x491 JUMP JUMPDEST PUSH1 0x40 MLOAD PUSH2 0x110 SWAP2 SWAP1 PUSH2 0x223D JUMP JUMPDEST PUSH1 0x40 MLOAD DUP1 SWAP2 SUB SWAP1 RETURN JUMPDEST PUSH2 0x133 PUSH1 0x4 DUP1 CALLDATASIZE SUB DUP2 ADD SWAP1 PUSH2 0x12E SWAP2 SWAP1 PUSH2 0x2503 JUMP JUMPDEST PUSH2 0x50E JUMP JUMPDEST STOP JUMPDEST PUSH2 0x14F PUSH1 0x4 DUP1 CALLDATASIZE SUB DUP2 ADD SWAP1 PUSH2 0x14A SWAP2 SWAP1 PUSH2 0x2564 JUMP JUMPDEST PUSH2 0x7A8 JUMP JUMPDEST STOP JUMPDEST PUSH2 0x159 PUSH2 0xD63 JUMP JUMPDEST PUSH1 0x40 MLOAD PUSH2 0x166 SWAP2 SWAP1 PUSH2 0x2612 JUMP JUMPDEST PUSH1 0x40 MLOAD DUP1 SWAP2 SUB SWAP1 RETURN JUMPDEST PUSH0 PUSH32 0x90690902A12D1D02C07A1AD25AA76BDED5F6499E12A11BA127669501B553998 PUSH0 SHL SWAP1 POP SWAP1 JUMP JUMPDEST PUSH0 DUP3 DUP3 PUSH0 SWAP1 PUSH1 0x4 SWAP3 PUSH2 0x1AC SWAP4 SWAP3 SWAP2 SWAP1 PUSH2 0x263A JUMP JUMPDEST SWAP1 PUSH2 0x1B7 SWAP2 SWAP1 PUSH2 0x26B5 JUMP JUMPDEST SWAP1 POP PUSH0 PUSH2 0x1C2 PUSH2 0x16F JUMP JUMPDEST SWAP1 POP DUP1 PUSH28 0xFFFFFFFFFFFFFFFFFFFFFFFFFFFFFFFFFFFFFFFFFFFFFFFFFFFFFFFF NOT AND DUP3 PUSH28 0xFFFFFFFFFFFFFFFFFFFFFFFFFFFFFFFFFFFFFFFFFFFFFFFFFFFFFFFF NOT AND EQ PUSH2 0x248 JUMPI DUP2 DUP2 PUSH1 0x40 MLOAD PUSH32 0x988066A100000000000000000000000000000000000000000000000000000000 DUP2 MSTORE PUSH1 0x4 ADD PUSH2 0x23F SWAP3 SWAP2 SWAP1 PUSH2 0x2722 JUMP JUMPDEST PUSH1 0x40 MLOAD DUP1 SWAP2 SUB SWAP1 REVERT JUMPDEST PUSH0 PUSH2 0x253 DUP8 DUP8 PUSH2 0x491 JUMP JUMPDEST SWAP1 POP PUSH2 0x25D PUSH2 0x219C JUMP JUMPDEST DUP9 PUSH0 SHR DUP2 PUSH0 PUSH1 0x2 DUP2 LT PUSH2 0x273 JUMPI PUSH2 0x272 PUSH2 0x2749 JUMP JUMPDEST JUMPDEST PUSH1 0x20 MUL ADD DUP2 DUP2 MSTORE POP POP DUP2 PUSH0 SHR DUP2 PUSH1 0x1 PUSH1 0x2 DUP2 LT PUSH2 0x293 JUMPI PUSH2 0x292 PUSH2 0x2749 JUMP JUMPDEST JUMPDEST PUSH1 0x20 MUL ADD DUP2 DUP2 MSTORE POP POP PUSH0 DUP7 DUP7 PUSH1 0x4 SWAP1 DUP1 SWAP3 PUSH2 0x2B0 SWAP4 SWAP3 SWAP2 SWAP1 PUSH2 0x263A JUMP JUMPDEST DUP2 ADD SWAP1 PUSH2 0x2BD SWAP2 SWAP1 PUSH2 0x28C6 JUMP JUMPDEST SWAP1 POP ADDRESS PUSH20 0xFFFFFFFFFFFFFFFFFFFFFFFFFFFFFFFFFFFFFFFF AND PUSH4 0xEDDF243C DUP3 DUP5 PUSH1 0x40 MLOAD DUP4 PUSH4 0xFFFFFFFF AND PUSH1 0xE0 SHL DUP2 MSTORE PUSH1 0x4 ADD PUSH2 0x2FA SWAP3 SWAP2 SWAP1 PUSH2 0x29F0 JUMP JUMPDEST PUSH0 PUSH1 0x40 MLOAD DUP1 DUP4 SUB DUP2 DUP7 DUP1 EXTCODESIZE ISZERO DUP1 ISZERO PUSH2 0x310 JUMPI PUSH0 PUSH0 REVERT JUMPDEST POP GAS STATICCALL ISZERO DUP1 ISZERO PUSH2 0x322 JUMPI RETURNDATASIZE PUSH0 PUSH0 RETURNDATACOPY RETURNDATASIZE PUSH0 REVERT JUMPDEST POP POP POP POP POP POP POP POP POP POP POP POP POP POP JUMP JUMPDEST PUSH2 0x33A PUSH2 0x21BE JUMP JUMPDEST PUSH2 0x373 DUP3 PUSH0 PUSH1 0x8 DUP2 LT PUSH2 0x350 JUMPI PUSH2 0x34F PUSH2 0x2749 JUMP JUMPDEST JUMPDEST PUSH1 0x20 MUL ADD CALLDATALOAD DUP4 PUSH1 0x1 PUSH1 0x8 DUP2 LT PUSH2 0x369 JUMPI PUSH2 0x368 PUSH2 0x2749 JUMP JUMPDEST JUMPDEST PUSH1 0x20 MUL ADD CALLDATALOAD PUSH2 0xDA0 JUMP JUMPDEST DUP2 PUSH0 PUSH1 0x4 DUP2 LT PUSH2 0x386 JUMPI PUSH2 0x385 PUSH2 0x2749 JUMP JUMPDEST JUMPDEST PUSH1 0x20 MUL ADD DUP2 DUP2 MSTORE POP POP PUSH2 0x3FB DUP3 PUSH1 0x3 PUSH1 0x8 DUP2 LT PUSH2 0x3A6 JUMPI PUSH2 0x3A5 PUSH2 0x2749 JUMP JUMPDEST JUMPDEST PUSH1 0x20 MUL ADD CALLDATALOAD DUP4 PUSH1 0x2 PUSH1 0x8 DUP2 LT PUSH2 0x3BF JUMPI PUSH2 0x3BE PUSH2 0x2749 JUMP JUMPDEST JUMPDEST PUSH1 0x20 MUL ADD CALLDATALOAD DUP5 PUSH1 0x5 PUSH1 0x8 DUP2 LT PUSH2 0x3D8 JUMPI PUSH2 0x3D7 PUSH2 0x2749 JUMP JUMPDEST JUMPDEST PUSH1 0x20 MUL ADD CALLDATALOAD DUP6 PUSH1 0x4 PUSH1 0x8 DUP2 LT PUSH2 0x3F1 JUMPI PUSH2 0x3F0 PUSH2 0x2749 JUMP JUMPDEST JUMPDEST PUSH1 0x20 MUL ADD CALLDATALOAD PUSH2 0xF4E JUMP JUMPDEST DUP3 PUSH1 0x2 PUSH1 0x4 DUP2 LT PUSH2 0x40F JUMPI PUSH2 0x40E PUSH2 0x2749 JUMP JUMPDEST JUMPDEST PUSH1 0x20 MUL ADD DUP4 PUSH1 0x1 PUSH1 0x4 DUP2 LT PUSH2 0x427 JUMPI PUSH2 0x426 PUSH2 0x2749 JUMP JUMPDEST JUMPDEST PUSH1 0x20 MUL ADD DUP3 DUP2 MSTORE POP DUP3 DUP2 MSTORE POP POP POP PUSH2 0x46F DUP3 PUSH1 0x6 PUSH1 0x8 DUP2 LT PUSH2 0x44C JUMPI PUSH2 0x44B PUSH2 0x2749 JUMP JUMPDEST JUMPDEST PUSH1 0x20 MUL ADD CALLDATALOAD DUP4 PUSH1 0x7 PUSH1 0x8 DUP2 LT PUSH2 0x465 JUMPI PUSH2 0x464 PUSH2 0x2749 JUMP JUMPDEST JUMPDEST PUSH1 0x20 MUL ADD CALLDATALOAD PUSH2 0xDA0 JUMP JUMPDEST DUP2 PUSH1 0x3 PUSH1 0x4 DUP2 LT PUSH2 0x483 JUMPI PUSH2 0x482 PUSH2 0x2749 JUMP JUMPDEST JUMPDEST PUSH1 0x20 MUL ADD DUP2 DUP2 MSTORE POP POP SWAP2 SWAP1 POP JUMP JUMPDEST PUSH0 PUSH32 0x1FFFFFFFFFFFFFFFFFFFFFFFFFFFFFFFFFFFFFFFFFFFFFFFFFFFFFFFFFFFFFFF PUSH0 SHL PUSH1 0x2 DUP5 DUP5 PUSH1 0x40 MLOAD PUSH2 0x4C7 SWAP3 SWAP2 SWAP1 PUSH2 0x2A55 JUMP JUMPDEST PUSH1 0x20 PUSH1 0x40 MLOAD DUP1 DUP4 SUB DUP2 DUP6 GAS STATICCALL ISZERO DUP1 ISZERO PUSH2 0x4E2 JUMPI RETURNDATASIZE PUSH0 PUSH0 RETURNDATACOPY RETURNDATASIZE PUSH0 REVERT JUMPDEST POP POP POP PUSH1 0x40 MLOAD RETURNDATASIZE PUSH1 0x1F NOT PUSH1 0x1F DUP3 ADD AND DUP3 ADD DUP1 PUSH1 0x40 MSTORE POP DUP2 ADD SWAP1 PUSH2 0x505 SWAP2 SWAP1 PUSH2 0x2A81 JUMP JUMPDEST AND SWAP1 POP SWAP3 SWAP2 POP POP JUMP JUMPDEST PUSH0 PUSH0 PUSH2 0x519 DUP4 PUSH2 0x151A JUMP JUMPDEST SWAP2 POP SWAP2 POP PUSH0 PUSH1 0x40 MLOAD PUSH2 0x100 DUP7 DUP3 CALLDATACOPY PUSH32 0x21AB438B0AD9688F8D9AFC96ED0AB25E6AB7F19ED6F7D58A9DC136D68DE55E3E PUSH2 0x100 DUP3 ADD MSTORE PUSH32 0x2D1F461CA03A65528393919E9E412F6B82D7096E44FA039BD7642A5112188AF7 PUSH2 0x120 DUP3 ADD MSTORE PUSH32 0x100F76D4AC45886C1334D58716121DC0FFA8463738F3F2ADF793E15B8ECD7E1D PUSH2 0x140 DUP3 ADD MSTORE PUSH32 0x2BF21E8BB2F9419034373C2156CDD7BDDF273519DCD7F674EF21E2748CED89F2 PUSH2 0x160 DUP3 ADD MSTORE PUSH32 0x2D4D9AA7E302D9DF41749D5507949D05DBEA33FBB16C643B22F599A2BE6DF2E2 PUSH2 0x180 DUP3 ADD MSTORE PUSH32 0x14BEDD503C37CEB061D8EC60209FE345CE89830A19230301F076CAFF004D1926 PUSH2 0x1A0 DUP3 ADD MSTORE PUSH32 0x967032FCBF776D1AFC985F88877F182D38480A653F2DECAA9794CBC3BF3060C PUSH2 0x1C0 DUP3 ADD MSTORE PUSH32 0xE187847AD4C798374D0D6732BF501847DD68BC0E071241E0213BC7FC13DB7AB PUSH2 0x1E0 DUP3 ADD MSTORE PUSH31 0x1752A100A72FDF1E5A5D6EA841CC20EC838BCCFCF7BD559E79F1C9C759B6A0 PUSH2 0x200 DUP3 ADD MSTORE PUSH32 0x192A8CC13CD9F762871F21E43451C6CA9EEAB2CB2987C4E366A185C25DAC2E7F PUSH2 0x220 DUP3 ADD MSTORE DUP4 PUSH2 0x240 DUP3 ADD MSTORE DUP3 PUSH2 0x260 DUP3 ADD MSTORE PUSH32 0x198E9393920D483A7260BFB731FB5D25F1AA493335A9E71297E485B7AEF312C2 PUSH2 0x280 DUP3 ADD MSTORE PUSH32 0x1800DEEF121F1E76426A00665E5C4479674322D4F75EDADD46DEBD5CD992F6ED PUSH2 0x2A0 DUP3 ADD MSTORE PUSH32 0x275DC4A288D1AFB3CBB1AC09187524C7DB36395DF7BE3B99E673B13A075A65EC PUSH2 0x2C0 DUP3 ADD MSTORE PUSH32 0x1D9BEFCD05A5323E6DA4D435F3B617CDB3AF83285C2DF711EF39C01571827F9D PUSH2 0x2E0 DUP3 ADD MSTORE PUSH1 0x20 DUP2 PUSH2 0x300 DUP4 PUSH1 0x8 GAS STATICCALL SWAP2 POP DUP1 MLOAD DUP3 AND SWAP2 POP POP DUP1 PUSH2 0x7A1 JUMPI PUSH1 0x40 MLOAD PUSH32 0x7FCDD1F400000000000000000000000000000000000000000000000000000000 DUP2 MSTORE PUSH1 0x4 ADD PUSH1 0x40 MLOAD DUP1 SWAP2 SUB SWAP1 REVERT JUMPDEST POP POP POP POP POP JUMP JUMPDEST PUSH2 0x7B0 PUSH2 0x21E0 JUMP JUMPDEST PUSH0 PUSH0 PUSH2 0x7D2 DUP6 PUSH0 PUSH1 0x4 DUP2 LT PUSH2 0x7C8 JUMPI PUSH2 0x7C7 PUSH2 0x2749 JUMP JUMPDEST JUMPDEST PUSH1 0x20 MUL ADD CALLDATALOAD PUSH2 0x16EC JUMP JUMPDEST SWAP2 POP SWAP2 POP PUSH0 PUSH0 PUSH0 PUSH0 PUSH2 0x814 DUP10 PUSH1 0x2 PUSH1 0x4 DUP2 LT PUSH2 0x7F1 JUMPI PUSH2 0x7F0 PUSH2 0x2749 JUMP JUMPDEST JUMPDEST PUSH1 0x20 MUL ADD CALLDATALOAD DUP11 PUSH1 0x1 PUSH1 0x4 DUP2 LT PUSH2 0x80A JUMPI PUSH2 0x809 PUSH2 0x2749 JUMP JUMPDEST JUMPDEST PUSH1 0x20 MUL ADD CALLDATALOAD PUSH2 0x1821 JUMP JUMPDEST SWAP4 POP SWAP4 POP SWAP4 POP SWAP4 POP PUSH0 PUSH0 PUSH2 0x83F DUP12 PUSH1 0x3 PUSH1 0x4 DUP2 LT PUSH2 0x835 JUMPI PUSH2 0x834 PUSH2 0x2749 JUMP JUMPDEST JUMPDEST PUSH1 0x20 MUL ADD CALLDATALOAD PUSH2 0x16EC JUMP JUMPDEST SWAP2 POP SWAP2 POP PUSH0 PUSH0 PUSH2 0x84E DUP13 PUSH2 0x151A JUMP JUMPDEST SWAP2 POP SWAP2 POP DUP10 DUP12 PUSH0 PUSH1 0x18 DUP2 LT PUSH2 0x866 JUMPI PUSH2 0x865 PUSH2 0x2749 JUMP JUMPDEST JUMPDEST PUSH1 0x20 MUL ADD DUP2 DUP2 MSTORE POP POP DUP9 DUP12 PUSH1 0x1 PUSH1 0x18 DUP2 LT PUSH2 0x884 JUMPI PUSH2 0x883 PUSH2 0x2749 JUMP JUMPDEST JUMPDEST PUSH1 0x20 MUL ADD DUP2 DUP2 MSTORE POP POP DUP7 DUP12 PUSH1 0x2 PUSH1 0x18 DUP2 LT PUSH2 0x8A2 JUMPI PUSH2 0x8A1 PUSH2 0x2749 JUMP JUMPDEST JUMPDEST PUSH1 0x20 MUL ADD DUP2 DUP2 MSTORE POP POP DUP8 DUP12 PUSH1 0x3 PUSH1 0x18 DUP2 LT PUSH2 0x8C0 JUMPI PUSH2 0x8BF PUSH2 0x2749 JUMP JUMPDEST JUMPDEST PUSH1 0x20 MUL ADD DUP2 DUP2 MSTORE POP POP DUP5 DUP12 PUSH1 0x4 PUSH1 0x18 DUP2 LT PUSH2 0x8DE JUMPI PUSH2 0x8DD PUSH2 0x2749 JUMP JUMPDEST JUMPDEST PUSH1 0x20 MUL ADD DUP2 DUP2 MSTORE POP POP DUP6 DUP12 PUSH1 0x5 PUSH1 0x18 DUP2 LT PUSH2 0x8FC JUMPI PUSH2 0x8FB PUSH2 0x2749 JUMP JUMPDEST JUMPDEST PUSH1 0x20 MUL ADD DUP2 DUP2 MSTORE POP POP DUP4 DUP12 PUSH1 0x6 PUSH1 0x18 DUP2 LT PUSH2 0x91A JUMPI PUSH2 0x919 PUSH2 0x2749 JUMP JUMPDEST JUMPDEST PUSH1 0x20 MUL ADD DUP2 DUP2 MSTORE POP POP DUP3 DUP12 PUSH1 0x7 PUSH1 0x18 DUP2 LT PUSH2 0x938 JUMPI PUSH2 0x937 PUSH2 0x2749 JUMP JUMPDEST JUMPDEST PUSH1 0x20 MUL ADD DUP2 DUP2 MSTORE POP POP PUSH32 0x21AB438B0AD9688F8D9AFC96ED0AB25E6AB7F19ED6F7D58A9DC136D68DE55E3E DUP12 PUSH1 0x8 PUSH1 0x18 DUP2 LT PUSH2 0x976 JUMPI PUSH2 0x975 PUSH2 0x2749 JUMP JUMPDEST JUMPDEST PUSH1 0x20 MUL ADD DUP2 DUP2 MSTORE POP POP PUSH32 0x2D1F461CA03A65528393919E9E412F6B82D7096E44FA039BD7642A5112188AF7 DUP12 PUSH1 0x9 PUSH1 0x18 DUP2 LT PUSH2 0x9B4 JUMPI PUSH2 0x9B3 PUSH2 0x2749 JUMP JUMPDEST JUMPDEST PUSH1 0x20 MUL ADD DUP2 DUP2 MSTORE POP POP PUSH32 0x100F76D4AC45886C1334D58716121DC0FFA8463738F3F2ADF793E15B8ECD7E1D DUP12 PUSH1 0xA PUSH1 0x18 DUP2 LT PUSH2 0x9F2 JUMPI PUSH2 0x9F1 PUSH2 0x2749 JUMP JUMPDEST JUMPDEST PUSH1 0x20 MUL ADD DUP2 DUP2 MSTORE POP POP PUSH32 0x2BF21E8BB2F9419034373C2156CDD7BDDF273519DCD7F674EF21E2748CED89F2 DUP12 PUSH1 0xB PUSH1 0x18 DUP2 LT PUSH2 0xA30 JUMPI PUSH2 0xA2F PUSH2 0x2749 JUMP JUMPDEST JUMPDEST PUSH1 0x20 MUL ADD DUP2 DUP2 MSTORE POP POP PUSH32 0x2D4D9AA7E302D9DF41749D5507949D05DBEA33FBB16C643B22F599A2BE6DF2E2 DUP12 PUSH1 0xC PUSH1 0x18 DUP2 LT PUSH2 0xA6E JUMPI PUSH2 0xA6D PUSH2 0x2749 JUMP JUMPDEST JUMPDEST PUSH1 0x20 MUL ADD DUP2 DUP2 MSTORE POP POP PUSH32 0x14BEDD503C37CEB061D8EC60209FE345CE89830A19230301F076CAFF004D1926 DUP12 PUSH1 0xD PUSH1 0x18 DUP2 LT PUSH2 0xAAC JUMPI PUSH2 0xAAB PUSH2 0x2749 JUMP JUMPDEST JUMPDEST PUSH1 0x20 MUL ADD DUP2 DUP2 MSTORE POP POP PUSH32 0x967032FCBF776D1AFC985F88877F182D38480A653F2DECAA9794CBC3BF3060C DUP12 PUSH1 0xE PUSH1 0x18 DUP2 LT PUSH2 0xAEA JUMPI PUSH2 0xAE9 PUSH2 0x2749 JUMP JUMPDEST JUMPDEST PUSH1 0x20 MUL ADD DUP2 DUP2 MSTORE POP POP PUSH32 0xE187847AD4C798374D0D6732BF501847DD68BC0E071241E0213BC7FC13DB7AB DUP12 PUSH1 0xF PUSH1 0x18 DUP2 LT PUSH2 0xB28 JUMPI PUSH2 0xB27 PUSH2 0x2749 JUMP JUMPDEST JUMPDEST PUSH1 0x20 MUL ADD DUP2 DUP2 MSTORE POP POP PUSH31 0x1752A100A72FDF1E5A5D6EA841CC20EC838BCCFCF7BD559E79F1C9C759B6A0 DUP12 PUSH1 0x10 PUSH1 0x18 DUP2 LT PUSH2 0xB65 JUMPI PUSH2 0xB64 PUSH2 0x2749 JUMP JUMPDEST JUMPDEST PUSH1 0x20 MUL ADD DUP2 DUP2 MSTORE POP POP PUSH32 0x192A8CC13CD9F762871F21E43451C6CA9EEAB2CB2987C4E366A185C25DAC2E7F DUP12 PUSH1 0x11 PUSH1 0x18 DUP2 LT PUSH2 0xBA3 JUMPI PUSH2 0xBA2 PUSH2 0x2749 JUMP JUMPDEST JUMPDEST PUSH1 0x20 MUL ADD DUP2 DUP2 MSTORE POP POP DUP2 DUP12 PUSH1 0x12 PUSH1 0x18 DUP2 LT PUSH2 0xBC1 JUMPI PUSH2 0xBC0 PUSH2 0x2749 JUMP JUMPDEST JUMPDEST PUSH1 0x20 MUL ADD DUP2 DUP2 MSTORE POP POP DUP1 DUP12 PUSH1 0x13 PUSH1 0x18 DUP2 LT PUSH2 0xBDF JUMPI PUSH2 0xBDE PUSH2 0x2749 JUMP JUMPDEST JUMPDEST PUSH1 0x20 MUL ADD DUP2 DUP2 MSTORE POP POP PUSH32 0x198E9393920D483A7260BFB731FB5D25F1AA493335A9E71297E485B7AEF312C2 DUP12 PUSH1 0x14 PUSH1 0x18 DUP2 LT PUSH2 0xC1D JUMPI PUSH2 0xC1C PUSH2 0x2749 JUMP JUMPDEST JUMPDEST PUSH1 0x20 MUL ADD DUP2 DUP2 MSTORE POP POP PUSH32 0x1800DEEF121F1E76426A00665E5C4479674322D4F75EDADD46DEBD5CD992F6ED DUP12 PUSH1 0x15 PUSH1 0x18 DUP2 LT PUSH2 0xC5B JUMPI PUSH2 0xC5A PUSH2 0x2749 JUMP JUMPDEST JUMPDEST PUSH1 0x20 MUL ADD DUP2 DUP2 MSTORE POP POP PUSH32 0x275DC4A288D1AFB3CBB1AC09187524C7DB36395DF7BE3B99E673B13A075A65EC DUP12 PUSH1 0x16 PUSH1 0x18 DUP2 LT PUSH2 0xC99 JUMPI PUSH2 0xC98 PUSH2 0x2749 JUMP JUMPDEST JUMPDEST PUSH1 0x20 MUL ADD DUP2 DUP2 MSTORE POP POP PUSH32 0x1D9BEFCD05A5323E6DA4D435F3B617CDB3AF83285C2DF711EF39C01571827F9D DUP12 PUSH1 0x17 PUSH1 0x18 DUP2 LT PUSH2 0xCD7 JUMPI PUSH2 0xCD6 PUSH2 0x2749 JUMP JUMPDEST JUMPDEST PUSH1 0x20 MUL ADD DUP2 DUP2 MSTORE POP POP PUSH0 PUSH2 0xCE9 PUSH2 0x2203 JUMP JUMPDEST PUSH1 0x20 DUP2 PUSH2 0x300 DUP16 PUSH1 0x8 GAS STATICCALL SWAP2 POP DUP2 ISZERO DUP1 PUSH2 0xD1B JUMPI POP PUSH1 0x1 DUP2 PUSH0 PUSH1 0x1 DUP2 LT PUSH2 0xD13 JUMPI PUSH2 0xD12 PUSH2 0x2749 JUMP JUMPDEST JUMPDEST PUSH1 0x20 MUL ADD MLOAD EQ ISZERO JUMPDEST ISZERO PUSH2 0xD52 JUMPI PUSH1 0x40 MLOAD PUSH32 0x7FCDD1F400000000000000000000000000000000000000000000000000000000 DUP2 MSTORE PUSH1 0x4 ADD PUSH1 0x40 MLOAD DUP1 SWAP2 SUB SWAP1 REVERT JUMPDEST POP POP POP POP POP POP POP POP POP POP POP POP POP POP POP JUMP JUMPDEST PUSH1 0x60 PUSH1 0x40 MLOAD DUP1 PUSH1 0x40 ADD PUSH1 0x40 MSTORE DUP1 PUSH1 0x6 DUP2 MSTORE PUSH1 0x20 ADD PUSH32 0x76332E302E300000000000000000000000000000000000000000000000000000 DUP2 MSTORE POP SWAP1 POP SWAP1 JUMP JUMPDEST PUSH0 PUSH32 0x30644E72E131A029B85045B68181585D97816A916871CA8D3C208C16D87CFD47 DUP4 LT ISZERO DUP1 PUSH2 0xDF0 JUMPI POP PUSH32 0x30644E72E131A029B85045B68181585D97816A916871CA8D3C208C16D87CFD47 DUP3 LT ISZERO JUMPDEST ISZERO PUSH2 0xE27 JUMPI PUSH1 0x40 MLOAD PUSH32 0x7FCDD1F400000000000000000000000000000000000000000000000000000000 DUP2 MSTORE PUSH1 0x4 ADD PUSH1 0x40 MLOAD DUP1 SWAP2 SUB SWAP1 REVERT JUMPDEST PUSH0 DUP4 EQ DUP1 ISZERO PUSH2 0xE35 JUMPI POP PUSH0 DUP3 EQ JUMPDEST ISZERO PUSH2 0xE42 JUMPI PUSH0 SWAP1 POP PUSH2 0xF48 JUMP JUMPDEST PUSH0 PUSH2 0xEE0 PUSH32 0x30644E72E131A029B85045B68181585D97816A916871CA8D3C208C16D87CFD47 DUP1 PUSH2 0xE75 JUMPI PUSH2 0xE74 PUSH2 0x2AAC JUMP JUMPDEST JUMPDEST PUSH1 0x3 PUSH32 0x30644E72E131A029B85045B68181585D97816A916871CA8D3C208C16D87CFD47 DUP1 PUSH2 0xEA6 JUMPI PUSH2 0xEA5 PUSH2 0x2AAC JUMP JUMPDEST JUMPDEST DUP8 PUSH32 0x30644E72E131A029B85045B68181585D97816A916871CA8D3C208C16D87CFD47 DUP1 PUSH2 0xED6 JUMPI PUSH2 0xED5 PUSH2 0x2AAC JUMP JUMPDEST JUMPDEST DUP10 DUP11 MULMOD MULMOD ADDMOD PUSH2 0x1BFC JUMP JUMPDEST SWAP1 POP DUP1 DUP4 SUB PUSH2 0xEF8 JUMPI PUSH0 PUSH1 0x1 DUP6 SWAP1 SHL OR SWAP2 POP POP PUSH2 0xF48 JUMP JUMPDEST PUSH2 0xF01 DUP2 PUSH2 0x1C98 JUMP JUMPDEST DUP4 SUB PUSH2 0xF16 JUMPI PUSH1 0x1 DUP1 DUP6 SWAP1 SHL OR SWAP2 POP POP PUSH2 0xF48 JUMP JUMPDEST PUSH1 0x40 MLOAD PUSH32 0x7FCDD1F400000000000000000000000000000000000000000000000000000000 DUP2 MSTORE PUSH1 0x4 ADD PUSH1 0x40 MLOAD DUP1 SWAP2 SUB SWAP1 REVERT JUMPDEST SWAP3 SWAP2 POP POP JUMP JUMPDEST PUSH0 PUSH0 PUSH32 0x30644E72E131A029B85045B68181585D97816A916871CA8D3C208C16D87CFD47 DUP7 LT ISZERO DUP1 PUSH2 0xF9F JUMPI POP PUSH32 0x30644E72E131A029B85045B68181585D97816A916871CA8D3C208C16D87CFD47 DUP6 LT ISZERO JUMPDEST DUP1 PUSH2 0xFCA JUMPI POP PUSH32 0x30644E72E131A029B85045B68181585D97816A916871CA8D3C208C16D87CFD47 DUP5 LT ISZERO JUMPDEST DUP1 PUSH2 0xFF5 JUMPI POP PUSH32 0x30644E72E131A029B85045B68181585D97816A916871CA8D3C208C16D87CFD47 DUP4 LT ISZERO JUMPDEST ISZERO PUSH2 0x102C JUMPI PUSH1 0x40 MLOAD PUSH32 0x7FCDD1F400000000000000000000000000000000000000000000000000000000 DUP2 MSTORE PUSH1 0x4 ADD PUSH1 0x40 MLOAD DUP1 SWAP2 SUB SWAP1 REVERT JUMPDEST PUSH0 DUP4 DUP6 DUP8 DUP10 OR OR OR SUB PUSH2 0x1044 JUMPI PUSH0 PUSH0 SWAP2 POP SWAP2 POP PUSH2 0x1511 JUMP JUMPDEST PUSH0 PUSH0 PUSH0 PUSH32 0x30644E72E131A029B85045B68181585D97816A916871CA8D3C208C16D87CFD47 DUP1 PUSH2 0x1076 JUMPI PUSH2 0x1075 PUSH2 0x2AAC JUMP JUMPDEST JUMPDEST PUSH1 0x3 PUSH32 0x30644E72E131A029B85045B68181585D97816A916871CA8D3C208C16D87CFD47 PUSH2 0x10A3 SWAP2 SWAP1 PUSH2 0x2B06 JUMP JUMPDEST PUSH32 0x30644E72E131A029B85045B68181585D97816A916871CA8D3C208C16D87CFD47 DUP1 PUSH2 0x10D2 JUMPI PUSH2 0x10D1 PUSH2 0x2AAC JUMP JUMPDEST JUMPDEST DUP11 DUP13 MULMOD MULMOD SWAP1 POP PUSH0 PUSH32 0x30644E72E131A029B85045B68181585D97816A916871CA8D3C208C16D87CFD47 DUP1 PUSH2 0x1108 JUMPI PUSH2 0x1107 PUSH2 0x2AAC JUMP JUMPDEST JUMPDEST DUP11 PUSH32 0x30644E72E131A029B85045B68181585D97816A916871CA8D3C208C16D87CFD47 DUP1 PUSH2 0x1138 JUMPI PUSH2 0x1137 PUSH2 0x2AAC JUMP JUMPDEST JUMPDEST DUP13 DUP14 MULMOD MULMOD SWAP1 POP PUSH0 PUSH32 0x30644E72E131A029B85045B68181585D97816A916871CA8D3C208C16D87CFD47 DUP1 PUSH2 0x116E JUMPI PUSH2 0x116D PUSH2 0x2AAC JUMP JUMPDEST JUMPDEST DUP11 PUSH32 0x30644E72E131A029B85045B68181585D97816A916871CA8D3C208C16D87CFD47 DUP1 PUSH2 0x119E JUMPI PUSH2 0x119D PUSH2 0x2AAC JUMP JUMPDEST JUMPDEST DUP13 DUP14 MULMOD MULMOD SWAP1 POP PUSH32 0x30644E72E131A029B85045B68181585D97816A916871CA8D3C208C16D87CFD47 DUP1 PUSH2 0x11D3 JUMPI PUSH2 0x11D2 PUSH2 0x2AAC JUMP JUMPDEST JUMPDEST PUSH32 0x30644E72E131A029B85045B68181585D97816A916871CA8D3C208C16D87CFD47 DUP1 PUSH2 0x1202 JUMPI PUSH2 0x1201 PUSH2 0x2AAC JUMP JUMPDEST JUMPDEST PUSH32 0x30644E72E131A029B85045B68181585D97816A916871CA8D3C208C16D87CFD47 DUP1 PUSH2 0x1231 JUMPI PUSH2 0x1230 PUSH2 0x2AAC JUMP JUMPDEST JUMPDEST DUP13 DUP7 MULMOD DUP5 ADDMOD PUSH32 0x2B149D40CEB8AAAE81BE18991BE06AC3B5B4C5E559DBEFA33267E6DC24A138E5 ADDMOD SWAP5 POP PUSH2 0x1316 PUSH32 0x30644E72E131A029B85045B68181585D97816A916871CA8D3C208C16D87CFD47 DUP1 PUSH2 0x128C JUMPI PUSH2 0x128B PUSH2 0x2AAC JUMP JUMPDEST JUMPDEST PUSH32 0x30644E72E131A029B85045B68181585D97816A916871CA8D3C208C16D87CFD47 DUP1 PUSH2 0x12BB JUMPI PUSH2 0x12BA PUSH2 0x2AAC JUMP JUMPDEST JUMPDEST PUSH32 0x30644E72E131A029B85045B68181585D97816A916871CA8D3C208C16D87CFD47 DUP1 PUSH2 0x12EA JUMPI PUSH2 0x12E9 PUSH2 0x2AAC JUMP JUMPDEST JUMPDEST DUP15 DUP8 MULMOD DUP5 ADDMOD PUSH32 0x2FCD3AC2A640A154EB23960892A85A68F031CA0C8344B23A577DCF1052B9E775 ADDMOD PUSH2 0x1C98 JUMP JUMPDEST SWAP4 POP POP POP POP PUSH0 PUSH0 PUSH2 0x13B9 PUSH32 0x30644E72E131A029B85045B68181585D97816A916871CA8D3C208C16D87CFD47 DUP1 PUSH2 0x134F JUMPI PUSH2 0x134E PUSH2 0x2AAC JUMP JUMPDEST JUMPDEST PUSH32 0x30644E72E131A029B85045B68181585D97816A916871CA8D3C208C16D87CFD47 DUP1 PUSH2 0x137E JUMPI PUSH2 0x137D PUSH2 0x2AAC JUMP JUMPDEST JUMPDEST DUP6 DUP7 MULMOD PUSH32 0x30644E72E131A029B85045B68181585D97816A916871CA8D3C208C16D87CFD47 DUP1 PUSH2 0x13B0 JUMPI PUSH2 0x13AF PUSH2 0x2AAC JUMP JUMPDEST JUMPDEST DUP8 DUP9 MULMOD ADDMOD PUSH2 0x1BFC JUMP JUMPDEST SWAP1 POP PUSH2 0x1446 PUSH32 0x30644E72E131A029B85045B68181585D97816A916871CA8D3C208C16D87CFD47 DUP1 PUSH2 0x13ED JUMPI PUSH2 0x13EC PUSH2 0x2AAC JUMP JUMPDEST JUMPDEST PUSH32 0x183227397098D014DC2822DB40C0AC2ECBC0B548B438E5469E10460B6C3E7EA4 PUSH32 0x30644E72E131A029B85045B68181585D97816A916871CA8D3C208C16D87CFD47 DUP1 PUSH2 0x143D JUMPI PUSH2 0x143C PUSH2 0x2AAC JUMP JUMPDEST JUMPDEST DUP5 DUP9 ADDMOD MULMOD PUSH2 0x1D03 JUMP JUMPDEST ISZERO SWAP2 POP POP PUSH2 0x1455 DUP4 DUP4 DUP4 PUSH2 0x1D6D JUMP JUMPDEST DUP1 SWAP4 POP DUP2 SWAP5 POP POP POP DUP3 DUP8 EQ DUP1 ISZERO PUSH2 0x146B JUMPI POP DUP2 DUP7 EQ JUMPDEST ISZERO PUSH2 0x1493 JUMPI PUSH0 DUP2 PUSH2 0x147C JUMPI PUSH0 PUSH2 0x147F JUMP JUMPDEST PUSH1 0x2 JUMPDEST PUSH1 0xFF AND PUSH1 0x2 DUP12 SWAP1 SHL OR OR SWAP5 POP DUP8 SWAP4 POP PUSH2 0x150D JUMP JUMPDEST PUSH2 0x149C DUP4 PUSH2 0x1C98 JUMP JUMPDEST DUP8 EQ DUP1 ISZERO PUSH2 0x14B1 JUMPI POP PUSH2 0x14AE DUP3 PUSH2 0x1C98 JUMP JUMPDEST DUP7 EQ JUMPDEST ISZERO PUSH2 0x14DA JUMPI PUSH1 0x1 DUP2 PUSH2 0x14C3 JUMPI PUSH0 PUSH2 0x14C6 JUMP JUMPDEST PUSH1 0x2 JUMPDEST PUSH1 0xFF AND PUSH1 0x2 DUP12 SWAP1 SHL OR OR SWAP5 POP DUP8 SWAP4 POP PUSH2 0x150C JUMP JUMPDEST PUSH1 0x40 MLOAD PUSH32 0x7FCDD1F400000000000000000000000000000000000000000000000000000000 DUP2 MSTORE PUSH1 0x4 ADD PUSH1 0x40 MLOAD DUP1 SWAP2 SUB SWAP1 REVERT JUMPDEST JUMPDEST POP POP POP JUMPDEST SWAP5 POP SWAP5 SWAP3 POP POP POP JUMP JUMPDEST PUSH0 PUSH0 PUSH0 PUSH1 0x1 SWAP1 POP PUSH1 0x40 MLOAD PUSH1 0x40 DUP2 ADD PUSH0 PUSH32 0x251859CAEFE66B516C5549D3768D1BA94146083CB044026ABEBC99089919248 DUP4 MSTORE PUSH32 0x2C1E789B2DCAFDAA6853D0934C4443D223B8F050CE3466D068F2AB7EFA29BC03 PUSH1 0x20 DUP5 ADD MSTORE PUSH32 0x13A264F6A5D0E3938BEA4E4431D417F2980774DB501085CEAFD0D7E76A7F128B DUP3 MSTORE PUSH32 0x155351B5CCCCB7A37222F2B82FA4A968F33523326364FE52BB87D1EA3F47C697 PUSH1 0x20 DUP4 ADD MSTORE DUP7 CALLDATALOAD SWAP1 POP DUP1 PUSH1 0x40 DUP4 ADD MSTORE PUSH32 0x30644E72E131A029B85045B68181585D2833E84879B9709143E1F593F0000001 DUP2 LT DUP5 AND SWAP4 POP PUSH1 0x40 DUP3 PUSH1 0x60 DUP5 PUSH1 0x7 GAS STATICCALL DUP5 AND SWAP4 POP PUSH1 0x40 DUP4 PUSH1 0x80 DUP6 PUSH1 0x6 GAS STATICCALL DUP5 AND SWAP4 POP PUSH32 0x3777818388F77B4065A87D01E141B5FEC2EE452D1ADA3493892ACA2C4DA5D40 DUP3 MSTORE PUSH32 0xFB2382A8C87C5992EE8385E493FFD96983C8C42C5545A4DAAAB264F482865B5 PUSH1 0x20 DUP4 ADD MSTORE PUSH1 0x20 DUP8 ADD CALLDATALOAD SWAP1 POP DUP1 PUSH1 0x40 DUP4 ADD MSTORE PUSH32 0x30644E72E131A029B85045B68181585D2833E84879B9709143E1F593F0000001 DUP2 LT DUP5 AND SWAP4 POP PUSH1 0x40 DUP3 PUSH1 0x60 DUP5 PUSH1 0x7 GAS STATICCALL DUP5 AND SWAP4 POP PUSH1 0x40 DUP4 PUSH1 0x80 DUP6 PUSH1 0x6 GAS STATICCALL DUP5 AND SWAP4 POP DUP3 MLOAD SWAP6 POP PUSH1 0x20 DUP4 ADD MLOAD SWAP5 POP POP POP POP DUP1 PUSH2 0x16E6 JUMPI PUSH1 0x40 MLOAD PUSH32 0xA54F8E2700000000000000000000000000000000000000000000000000000000 DUP2 MSTORE PUSH1 0x4 ADD PUSH1 0x40 MLOAD DUP1 SWAP2 SUB SWAP1 REVERT JUMPDEST POP SWAP2 POP SWAP2 JUMP JUMPDEST PUSH0 PUSH0 PUSH0 DUP4 SUB PUSH2 0x1700 JUMPI PUSH0 PUSH0 SWAP2 POP SWAP2 POP PUSH2 0x181C JUMP JUMPDEST PUSH0 PUSH1 0x1 DUP1 DUP6 AND EQ SWAP1 POP PUSH1 0x1 DUP5 SWAP1 SHR SWAP3 POP PUSH32 0x30644E72E131A029B85045B68181585D97816A916871CA8D3C208C16D87CFD47 DUP4 LT PUSH2 0x1769 JUMPI PUSH1 0x40 MLOAD PUSH32 0x7FCDD1F400000000000000000000000000000000000000000000000000000000 DUP2 MSTORE PUSH1 0x4 ADD PUSH1 0x40 MLOAD DUP1 SWAP2 SUB SWAP1 REVERT JUMPDEST PUSH2 0x1806 PUSH32 0x30644E72E131A029B85045B68181585D97816A916871CA8D3C208C16D87CFD47 DUP1 PUSH2 0x179B JUMPI PUSH2 0x179A PUSH2 0x2AAC JUMP JUMPDEST JUMPDEST PUSH1 0x3 PUSH32 0x30644E72E131A029B85045B68181585D97816A916871CA8D3C208C16D87CFD47 DUP1 PUSH2 0x17CC JUMPI PUSH2 0x17CB PUSH2 0x2AAC JUMP JUMPDEST JUMPDEST DUP7 PUSH32 0x30644E72E131A029B85045B68181585D97816A916871CA8D3C208C16D87CFD47 DUP1 PUSH2 0x17FC JUMPI PUSH2 0x17FB PUSH2 0x2AAC JUMP JUMPDEST JUMPDEST DUP9 DUP10 MULMOD MULMOD ADDMOD PUSH2 0x1BFC JUMP JUMPDEST SWAP2 POP DUP1 ISZERO PUSH2 0x181A JUMPI PUSH2 0x1817 DUP3 PUSH2 0x1C98 JUMP JUMPDEST SWAP2 POP JUMPDEST POP JUMPDEST SWAP2 POP SWAP2 JUMP JUMPDEST PUSH0 PUSH0 PUSH0 PUSH0 PUSH0 DUP7 EQ DUP1 ISZERO PUSH2 0x1833 JUMPI POP PUSH0 DUP6 EQ JUMPDEST ISZERO PUSH2 0x1849 JUMPI PUSH0 PUSH0 PUSH0 PUSH0 SWAP4 POP SWAP4 POP SWAP4 POP SWAP4 POP PUSH2 0x1BF3 JUMP JUMPDEST PUSH0 PUSH1 0x1 DUP1 DUP9 AND EQ SWAP1 POP PUSH0 PUSH1 0x2 DUP1 DUP10 AND EQ SWAP1 POP PUSH1 0x2 DUP9 SWAP1 SHR SWAP6 POP DUP7 SWAP5 POP PUSH32 0x30644E72E131A029B85045B68181585D97816A916871CA8D3C208C16D87CFD47 DUP7 LT ISZERO DUP1 PUSH2 0x18B4 JUMPI POP PUSH32 0x30644E72E131A029B85045B68181585D97816A916871CA8D3C208C16D87CFD47 DUP6 LT ISZERO JUMPDEST ISZERO PUSH2 0x18EB JUMPI PUSH1 0x40 MLOAD PUSH32 0x7FCDD1F400000000000000000000000000000000000000000000000000000000 DUP2 MSTORE PUSH1 0x4 ADD PUSH1 0x40 MLOAD DUP1 SWAP2 SUB SWAP1 REVERT JUMPDEST PUSH0 PUSH32 0x30644E72E131A029B85045B68181585D97816A916871CA8D3C208C16D87CFD47 DUP1 PUSH2 0x191B JUMPI PUSH2 0x191A PUSH2 0x2AAC JUMP JUMPDEST JUMPDEST PUSH1 0x3 PUSH32 0x30644E72E131A029B85045B68181585D97816A916871CA8D3C208C16D87CFD47 PUSH2 0x1948 SWAP2 SWAP1 PUSH2 0x2B06 JUMP JUMPDEST PUSH32 0x30644E72E131A029B85045B68181585D97816A916871CA8D3C208C16D87CFD47 DUP1 PUSH2 0x1977 JUMPI PUSH2 0x1976 PUSH2 0x2AAC JUMP JUMPDEST JUMPDEST DUP9 DUP11 MULMOD MULMOD SWAP1 POP PUSH0 PUSH32 0x30644E72E131A029B85045B68181585D97816A916871CA8D3C208C16D87CFD47 DUP1 PUSH2 0x19AD JUMPI PUSH2 0x19AC PUSH2 0x2AAC JUMP JUMPDEST JUMPDEST DUP9 PUSH32 0x30644E72E131A029B85045B68181585D97816A916871CA8D3C208C16D87CFD47 DUP1 PUSH2 0x19DD JUMPI PUSH2 0x19DC PUSH2 0x2AAC JUMP JUMPDEST JUMPDEST DUP11 DUP12 MULMOD MULMOD SWAP1 POP PUSH0 PUSH32 0x30644E72E131A029B85045B68181585D97816A916871CA8D3C208C16D87CFD47 DUP1 PUSH2 0x1A13 JUMPI PUSH2 0x1A12 PUSH2 0x2AAC JUMP JUMPDEST JUMPDEST DUP9 PUSH32 0x30644E72E131A029B85045B68181585D97816A916871CA8D3C208C16D87CFD47 DUP1 PUSH2 0x1A43 JUMPI PUSH2 0x1A42 PUSH2 0x2AAC JUMP JUMPDEST JUMPDEST DUP11 DUP12 MULMOD MULMOD SWAP1 POP PUSH32 0x30644E72E131A029B85045B68181585D97816A916871CA8D3C208C16D87CFD47 DUP1 PUSH2 0x1A78 JUMPI PUSH2 0x1A77 PUSH2 0x2AAC JUMP JUMPDEST JUMPDEST PUSH32 0x30644E72E131A029B85045B68181585D97816A916871CA8D3C208C16D87CFD47 DUP1 PUSH2 0x1AA7 JUMPI PUSH2 0x1AA6 PUSH2 0x2AAC JUMP JUMPDEST JUMPDEST PUSH32 0x30644E72E131A029B85045B68181585D97816A916871CA8D3C208C16D87CFD47 DUP1 PUSH2 0x1AD6 JUMPI PUSH2 0x1AD5 PUSH2 0x2AAC JUMP JUMPDEST JUMPDEST DUP11 DUP7 MULMOD DUP5 ADDMOD PUSH32 0x2B149D40CEB8AAAE81BE18991BE06AC3B5B4C5E559DBEFA33267E6DC24A138E5 ADDMOD SWAP7 POP PUSH2 0x1BBB PUSH32 0x30644E72E131A029B85045B68181585D97816A916871CA8D3C208C16D87CFD47 DUP1 PUSH2 0x1B31 JUMPI PUSH2 0x1B30 PUSH2 0x2AAC JUMP JUMPDEST JUMPDEST PUSH32 0x30644E72E131A029B85045B68181585D97816A916871CA8D3C208C16D87CFD47 DUP1 PUSH2 0x1B60 JUMPI PUSH2 0x1B5F PUSH2 0x2AAC JUMP JUMPDEST JUMPDEST PUSH32 0x30644E72E131A029B85045B68181585D97816A916871CA8D3C208C16D87CFD47 DUP1 PUSH2 0x1B8F JUMPI PUSH2 0x1B8E PUSH2 0x2AAC JUMP JUMPDEST JUMPDEST DUP13 DUP8 MULMOD DUP5 ADDMOD PUSH32 0x2FCD3AC2A640A154EB23960892A85A68F031CA0C8344B23A577DCF1052B9E775 ADDMOD PUSH2 0x1C98 JUMP JUMPDEST SWAP6 POP PUSH2 0x1BC8 DUP8 DUP8 DUP7 PUSH2 0x1D6D JUMP JUMPDEST DUP1 SWAP8 POP DUP2 SWAP9 POP POP POP DUP5 ISZERO PUSH2 0x1BED JUMPI PUSH2 0x1BDF DUP8 PUSH2 0x1C98 JUMP JUMPDEST SWAP7 POP PUSH2 0x1BEA DUP7 PUSH2 0x1C98 JUMP JUMPDEST SWAP6 POP JUMPDEST POP POP POP POP POP JUMPDEST SWAP3 SWAP6 SWAP2 SWAP5 POP SWAP3 POP JUMP JUMPDEST PUSH0 PUSH2 0x1C27 DUP3 PUSH32 0xC19139CB84C680A6E14116DA060561765E05AA45A1C72A34F082305B61F3F52 PUSH2 0x2068 JUMP JUMPDEST SWAP1 POP DUP2 PUSH32 0x30644E72E131A029B85045B68181585D97816A916871CA8D3C208C16D87CFD47 DUP1 PUSH2 0x1C59 JUMPI PUSH2 0x1C58 PUSH2 0x2AAC JUMP JUMPDEST JUMPDEST DUP3 DUP4 MULMOD EQ PUSH2 0x1C93 JUMPI PUSH1 0x40 MLOAD PUSH32 0x7FCDD1F400000000000000000000000000000000000000000000000000000000 DUP2 MSTORE PUSH1 0x4 ADD PUSH1 0x40 MLOAD DUP1 SWAP2 SUB SWAP1 REVERT JUMPDEST SWAP2 SWAP1 POP JUMP JUMPDEST PUSH0 PUSH32 0x30644E72E131A029B85045B68181585D97816A916871CA8D3C208C16D87CFD47 DUP1 DUP4 DUP2 PUSH2 0x1CCA JUMPI PUSH2 0x1CC9 PUSH2 0x2AAC JUMP JUMPDEST JUMPDEST MOD PUSH32 0x30644E72E131A029B85045B68181585D97816A916871CA8D3C208C16D87CFD47 SUB DUP2 PUSH2 0x1CFB JUMPI PUSH2 0x1CFA PUSH2 0x2AAC JUMP JUMPDEST JUMPDEST MOD SWAP1 POP SWAP2 SWAP1 POP JUMP JUMPDEST PUSH0 PUSH0 PUSH2 0x1D2F DUP4 PUSH32 0xC19139CB84C680A6E14116DA060561765E05AA45A1C72A34F082305B61F3F52 PUSH2 0x2068 JUMP JUMPDEST SWAP1 POP DUP3 PUSH32 0x30644E72E131A029B85045B68181585D97816A916871CA8D3C208C16D87CFD47 DUP1 PUSH2 0x1D61 JUMPI PUSH2 0x1D60 PUSH2 0x2AAC JUMP JUMPDEST JUMPDEST DUP3 DUP4 MULMOD EQ SWAP2 POP POP SWAP2 SWAP1 POP JUMP JUMPDEST PUSH0 PUSH0 PUSH0 PUSH2 0x1E0C PUSH32 0x30644E72E131A029B85045B68181585D97816A916871CA8D3C208C16D87CFD47 DUP1 PUSH2 0x1DA2 JUMPI PUSH2 0x1DA1 PUSH2 0x2AAC JUMP JUMPDEST JUMPDEST PUSH32 0x30644E72E131A029B85045B68181585D97816A916871CA8D3C208C16D87CFD47 DUP1 PUSH2 0x1DD1 JUMPI PUSH2 0x1DD0 PUSH2 0x2AAC JUMP JUMPDEST JUMPDEST DUP8 DUP9 MULMOD PUSH32 0x30644E72E131A029B85045B68181585D97816A916871CA8D3C208C16D87CFD47 DUP1 PUSH2 0x1E03 JUMPI PUSH2 0x1E02 PUSH2 0x2AAC JUMP JUMPDEST JUMPDEST DUP10 DUP11 MULMOD ADDMOD PUSH2 0x1BFC JUMP JUMPDEST SWAP1 POP DUP4 ISZERO PUSH2 0x1E20 JUMPI PUSH2 0x1E1D DUP2 PUSH2 0x1C98 JUMP JUMPDEST SWAP1 POP JUMPDEST PUSH2 0x1EAB PUSH32 0x30644E72E131A029B85045B68181585D97816A916871CA8D3C208C16D87CFD47 DUP1 PUSH2 0x1E52 JUMPI PUSH2 0x1E51 PUSH2 0x2AAC JUMP JUMPDEST JUMPDEST PUSH32 0x183227397098D014DC2822DB40C0AC2ECBC0B548B438E5469E10460B6C3E7EA4 PUSH32 0x30644E72E131A029B85045B68181585D97816A916871CA8D3C208C16D87CFD47 DUP1 PUSH2 0x1EA2 JUMPI PUSH2 0x1EA1 PUSH2 0x2AAC JUMP JUMPDEST JUMPDEST DUP5 DUP11 ADDMOD MULMOD PUSH2 0x1BFC JUMP JUMPDEST SWAP3 POP PUSH32 0x30644E72E131A029B85045B68181585D97816A916871CA8D3C208C16D87CFD47 DUP1 PUSH2 0x1EDC JUMPI PUSH2 0x1EDB PUSH2 0x2AAC JUMP JUMPDEST JUMPDEST PUSH2 0x1F17 PUSH32 0x30644E72E131A029B85045B68181585D97816A916871CA8D3C208C16D87CFD47 DUP1 PUSH2 0x1F0E JUMPI PUSH2 0x1F0D PUSH2 0x2AAC JUMP JUMPDEST JUMPDEST PUSH1 0x2 DUP7 MULMOD PUSH2 0x20FF JUMP JUMPDEST DUP7 MULMOD SWAP2 POP PUSH32 0x30644E72E131A029B85045B68181585D97816A916871CA8D3C208C16D87CFD47 DUP1 PUSH2 0x1F4A JUMPI PUSH2 0x1F49 PUSH2 0x2AAC JUMP JUMPDEST JUMPDEST PUSH2 0x1F84 PUSH32 0x30644E72E131A029B85045B68181585D97816A916871CA8D3C208C16D87CFD47 DUP1 PUSH2 0x1F7C JUMPI PUSH2 0x1F7B PUSH2 0x2AAC JUMP JUMPDEST JUMPDEST DUP5 DUP6 MULMOD PUSH2 0x1C98 JUMP JUMPDEST PUSH32 0x30644E72E131A029B85045B68181585D97816A916871CA8D3C208C16D87CFD47 DUP1 PUSH2 0x1FB3 JUMPI PUSH2 0x1FB2 PUSH2 0x2AAC JUMP JUMPDEST JUMPDEST DUP6 DUP7 MULMOD ADDMOD DUP7 EQ ISZERO DUP1 PUSH2 0x2028 JUMPI POP PUSH32 0x30644E72E131A029B85045B68181585D97816A916871CA8D3C208C16D87CFD47 DUP1 PUSH2 0x1FEF JUMPI PUSH2 0x1FEE PUSH2 0x2AAC JUMP JUMPDEST JUMPDEST PUSH32 0x30644E72E131A029B85045B68181585D97816A916871CA8D3C208C16D87CFD47 DUP1 PUSH2 0x201E JUMPI PUSH2 0x201D PUSH2 0x2AAC JUMP JUMPDEST JUMPDEST DUP4 DUP6 MULMOD PUSH1 0x2 MULMOD DUP6 EQ ISZERO JUMPDEST ISZERO PUSH2 0x205F JUMPI PUSH1 0x40 MLOAD PUSH32 0x7FCDD1F400000000000000000000000000000000000000000000000000000000 DUP2 MSTORE PUSH1 0x4 ADD PUSH1 0x40 MLOAD DUP1 SWAP2 SUB SWAP1 REVERT JUMPDEST POP SWAP4 POP SWAP4 SWAP2 POP POP JUMP JUMPDEST PUSH0 PUSH0 PUSH1 0x40 MLOAD PUSH1 0x20 DUP2 MSTORE PUSH1 0x20 DUP1 DUP3 ADD MSTORE PUSH1 0x20 PUSH1 0x40 DUP3 ADD MSTORE DUP5 PUSH1 0x60 DUP3 ADD MSTORE DUP4 PUSH1 0x80 DUP3 ADD MSTORE PUSH32 0x30644E72E131A029B85045B68181585D97816A916871CA8D3C208C16D87CFD47 PUSH1 0xA0 DUP3 ADD MSTORE PUSH1 0x20 DUP2 PUSH1 0xC0 DUP4 PUSH1 0x5 GAS STATICCALL SWAP2 POP DUP1 MLOAD SWAP3 POP POP DUP1 PUSH2 0x20F8 JUMPI PUSH1 0x40 MLOAD PUSH32 0x7FCDD1F400000000000000000000000000000000000000000000000000000000 DUP2 MSTORE PUSH1 0x4 ADD PUSH1 0x40 MLOAD DUP1 SWAP2 SUB SWAP1 REVERT JUMPDEST POP SWAP3 SWAP2 POP POP JUMP JUMPDEST PUSH0 PUSH2 0x212A DUP3 PUSH32 0x30644E72E131A029B85045B68181585D97816A916871CA8D3C208C16D87CFD45 PUSH2 0x2068 JUMP JUMPDEST SWAP1 POP PUSH1 0x1 PUSH32 0x30644E72E131A029B85045B68181585D97816A916871CA8D3C208C16D87CFD47 DUP1 PUSH2 0x215D JUMPI PUSH2 0x215C PUSH2 0x2AAC JUMP JUMPDEST JUMPDEST DUP3 DUP5 MULMOD EQ PUSH2 0x2197 JUMPI PUSH1 0x40 MLOAD PUSH32 0x7FCDD1F400000000000000000000000000000000000000000000000000000000 DUP2 MSTORE PUSH1 0x4 ADD PUSH1 0x40 MLOAD DUP1 SWAP2 SUB SWAP1 REVERT JUMPDEST SWAP2 SWAP1 POP JUMP JUMPDEST PUSH1 0x40 MLOAD DUP1 PUSH1 0x40 ADD PUSH1 0x40 MSTORE DUP1 PUSH1 0x2 SWAP1 PUSH1 0x20 DUP3 MUL DUP1 CALLDATASIZE DUP4 CALLDATACOPY DUP1 DUP3 ADD SWAP2 POP POP SWAP1 POP POP SWAP1 JUMP JUMPDEST PUSH1 0x40 MLOAD DUP1 PUSH1 0x80 ADD PUSH1 0x40 MSTORE DUP1 PUSH1 0x4 SWAP1 PUSH1 0x20 DUP3 MUL DUP1 CALLDATASIZE DUP4 CALLDATACOPY DUP1 DUP3 ADD SWAP2 POP POP SWAP1 POP POP SWAP1 JUMP JUMPDEST PUSH1 0x40 MLOAD DUP1 PUSH2 0x300 ADD PUSH1 0x40 MSTORE DUP1 PUSH1 0x18 SWAP1 PUSH1 0x20 DUP3 MUL DUP1 CALLDATASIZE DUP4 CALLDATACOPY DUP1 DUP3 ADD SWAP2 POP POP SWAP1 POP POP SWAP1 JUMP JUMPDEST PUSH1 0x40 MLOAD DUP1 PUSH1 0x20 ADD PUSH1 0x40 MSTORE DUP1 PUSH1 0x1 SWAP1 PUSH1 0x20 DUP3 MUL DUP1 CALLDATASIZE DUP4 CALLDATACOPY DUP1 DUP3 ADD SWAP2 POP POP SWAP1 POP POP SWAP1 JUMP JUMPDEST PUSH0 DUP2 SWAP1 POP SWAP2 SWAP1 POP JUMP JUMPDEST PUSH2 0x2237 DUP2 PUSH2 0x2225 JUMP JUMPDEST DUP3 MSTORE POP POP JUMP JUMPDEST PUSH0 PUSH1 0x20 DUP3 ADD SWAP1 POP PUSH2 0x2250 PUSH0 DUP4 ADD DUP5 PUSH2 0x222E JUMP JUMPDEST SWAP3 SWAP2 POP POP JUMP JUMPDEST PUSH0 PUSH1 0x40 MLOAD SWAP1 POP SWAP1 JUMP JUMPDEST PUSH0 PUSH0 REVERT JUMPDEST PUSH0 PUSH0 REVERT JUMPDEST PUSH2 0x2270 DUP2 PUSH2 0x2225 JUMP JUMPDEST DUP2 EQ PUSH2 0x227A JUMPI PUSH0 PUSH0 REVERT JUMPDEST POP JUMP JUMPDEST PUSH0 DUP2 CALLDATALOAD SWAP1 POP PUSH2 0x228B DUP2 PUSH2 0x2267 JUMP JUMPDEST SWAP3 SWAP2 POP POP JUMP JUMPDEST PUSH0 PUSH0 REVERT JUMPDEST PUSH0 PUSH0 REVERT JUMPDEST PUSH0 PUSH0 REVERT JUMPDEST PUSH0 PUSH0 DUP4 PUSH1 0x1F DUP5 ADD SLT PUSH2 0x22B2 JUMPI PUSH2 0x22B1 PUSH2 0x2291 JUMP JUMPDEST JUMPDEST DUP3 CALLDATALOAD SWAP1 POP PUSH8 0xFFFFFFFFFFFFFFFF DUP2 GT ISZERO PUSH2 0x22CF JUMPI PUSH2 0x22CE PUSH2 0x2295 JUMP JUMPDEST JUMPDEST PUSH1 0x20 DUP4 ADD SWAP2 POP DUP4 PUSH1 0x1 DUP3 MUL DUP4 ADD GT ISZERO PUSH2 0x22EB JUMPI PUSH2 0x22EA PUSH2 0x2299 JUMP JUMPDEST JUMPDEST SWAP3 POP SWAP3 SWAP1 POP JUMP JUMPDEST PUSH0 PUSH0 PUSH0 PUSH0 PUSH0 PUSH1 0x60 DUP7 DUP9 SUB SLT ISZERO PUSH2 0x230B JUMPI PUSH2 0x230A PUSH2 0x225F JUMP JUMPDEST JUMPDEST PUSH0 PUSH2 0x2318 DUP9 DUP3 DUP10 ADD PUSH2 0x227D JUMP JUMPDEST SWAP6 POP POP PUSH1 0x20 DUP7 ADD CALLDATALOAD PUSH8 0xFFFFFFFFFFFFFFFF DUP2 GT ISZERO PUSH2 0x2339 JUMPI PUSH2 0x2338 PUSH2 0x2263 JUMP JUMPDEST JUMPDEST PUSH2 0x2345 DUP9 DUP3 DUP10 ADD PUSH2 0x229D JUMP JUMPDEST SWAP5 POP SWAP5 POP POP PUSH1 0x40 DUP7 ADD CALLDATALOAD PUSH8 0xFFFFFFFFFFFFFFFF DUP2 GT ISZERO PUSH2 0x2368 JUMPI PUSH2 0x2367 PUSH2 0x2263 JUMP JUMPDEST JUMPDEST PUSH2 0x2374 DUP9 DUP3 DUP10 ADD PUSH2 0x229D JUMP JUMPDEST SWAP3 POP SWAP3 POP POP SWAP3 SWAP6 POP SWAP3 SWAP6 SWAP1 SWAP4 POP JUMP JUMPDEST PUSH0 DUP2 SWAP1 POP DUP3 PUSH1 0x20 PUSH1 0x8 MUL DUP3 ADD GT ISZERO PUSH2 0x239E JUMPI PUSH2 0x239D PUSH2 0x2299 JUMP JUMPDEST JUMPDEST SWAP3 SWAP2 POP POP JUMP JUMPDEST PUSH0 PUSH2 0x100 DUP3 DUP5 SUB SLT ISZERO PUSH2 0x23BA JUMPI PUSH2 0x23B9 PUSH2 0x225F JUMP JUMPDEST JUMPDEST PUSH0 PUSH2 0x23C7 DUP5 DUP3 DUP6 ADD PUSH2 0x2383 JUMP JUMPDEST SWAP2 POP POP SWAP3 SWAP2 POP POP JUMP JUMPDEST PUSH0 PUSH1 0x4 SWAP1 POP SWAP2 SWAP1 POP JUMP JUMPDEST PUSH0 DUP2 SWAP1 POP SWAP3 SWAP2 POP POP JUMP JUMPDEST PUSH0 DUP2 SWAP1 POP SWAP2 SWAP1 POP JUMP JUMPDEST PUSH0 DUP2 SWAP1 POP SWAP2 SWAP1 POP JUMP JUMPDEST PUSH2 0x23FF DUP2 PUSH2 0x23ED JUMP JUMPDEST DUP3 MSTORE POP POP JUMP JUMPDEST PUSH0 PUSH2 0x2410 DUP4 DUP4 PUSH2 0x23F6 JUMP JUMPDEST PUSH1 0x20 DUP4 ADD SWAP1 POP SWAP3 SWAP2 POP POP JUMP JUMPDEST PUSH0 PUSH1 0x20 DUP3 ADD SWAP1 POP SWAP2 SWAP1 POP JUMP JUMPDEST PUSH2 0x2431 DUP2 PUSH2 0x23D0 JUMP JUMPDEST PUSH2 0x243B DUP2 DUP5 PUSH2 0x23DA JUMP JUMPDEST SWAP3 POP PUSH2 0x2446 DUP3 PUSH2 0x23E4 JUMP JUMPDEST DUP1 PUSH0 JUMPDEST DUP4 DUP2 LT ISZERO PUSH2 0x2476 JUMPI DUP2 MLOAD PUSH2 0x245D DUP8 DUP3 PUSH2 0x2405 JUMP JUMPDEST SWAP7 POP PUSH2 0x2468 DUP4 PUSH2 0x241C JUMP JUMPDEST SWAP3 POP POP PUSH1 0x1 DUP2 ADD SWAP1 POP PUSH2 0x2449 JUMP JUMPDEST POP POP POP POP POP POP JUMP JUMPDEST PUSH0 PUSH1 0x80 DUP3 ADD SWAP1 POP PUSH2 0x2491 PUSH0 DUP4 ADD DUP5 PUSH2 0x2428 JUMP JUMPDEST SWAP3 SWAP2 POP POP JUMP JUMPDEST PUSH0 PUSH0 PUSH1 0x20 DUP4 DUP6 SUB SLT ISZERO PUSH2 0x24AD JUMPI PUSH2 0x24AC PUSH2 0x225F JUMP JUMPDEST JUMPDEST PUSH0 DUP4 ADD CALLDATALOAD PUSH8 0xFFFFFFFFFFFFFFFF DUP2 GT ISZERO PUSH2 0x24CA JUMPI PUSH2 0x24C9 PUSH2 0x2263 JUMP JUMPDEST JUMPDEST PUSH2 0x24D6 DUP6 DUP3 DUP7 ADD PUSH2 0x229D JUMP JUMPDEST SWAP3 POP SWAP3 POP POP SWAP3 POP SWAP3 SWAP1 POP JUMP JUMPDEST PUSH0 DUP2 SWAP1 POP DUP3 PUSH1 0x20 PUSH1 0x2 MUL DUP3 ADD GT ISZERO PUSH2 0x24FD JUMPI PUSH2 0x24FC PUSH2 0x2299 JUMP JUMPDEST JUMPDEST SWAP3 SWAP2 POP POP JUMP JUMPDEST PUSH0 PUSH0 PUSH2 0x140 DUP4 DUP6 SUB SLT ISZERO PUSH2 0x251A JUMPI PUSH2 0x2519 PUSH2 0x225F JUMP JUMPDEST JUMPDEST PUSH0 PUSH2 0x2527 DUP6 DUP3 DUP7 ADD PUSH2 0x2383 JUMP JUMPDEST SWAP3 POP POP PUSH2 0x100 PUSH2 0x2539 DUP6 DUP3 DUP7 ADD PUSH2 0x24E2 JUMP JUMPDEST SWAP2 POP POP SWAP3 POP SWAP3 SWAP1 POP JUMP JUMPDEST PUSH0 DUP2 SWAP1 POP DUP3 PUSH1 0x20 PUSH1 0x4 MUL DUP3 ADD GT ISZERO PUSH2 0x255E JUMPI PUSH2 0x255D PUSH2 0x2299 JUMP JUMPDEST JUMPDEST SWAP3 SWAP2 POP POP JUMP JUMPDEST PUSH0 PUSH0 PUSH1 0xC0 DUP4 DUP6 SUB SLT ISZERO PUSH2 0x257A JUMPI PUSH2 0x2579 PUSH2 0x225F JUMP JUMPDEST JUMPDEST PUSH0 PUSH2 0x2587 DUP6 DUP3 DUP7 ADD PUSH2 0x2543 JUMP JUMPDEST SWAP3 POP POP PUSH1 0x80 PUSH2 0x2598 DUP6 DUP3 DUP7 ADD PUSH2 0x24E2 JUMP JUMPDEST SWAP2 POP POP SWAP3 POP SWAP3 SWAP1 POP JUMP JUMPDEST PUSH0 DUP2 MLOAD SWAP1 POP SWAP2 SWAP1 POP JUMP JUMPDEST PUSH0 DUP3 DUP3 MSTORE PUSH1 0x20 DUP3 ADD SWAP1 POP SWAP3 SWAP2 POP POP JUMP JUMPDEST DUP3 DUP2 DUP4 MCOPY PUSH0 DUP4 DUP4 ADD MSTORE POP POP POP JUMP JUMPDEST PUSH0 PUSH1 0x1F NOT PUSH1 0x1F DUP4 ADD AND SWAP1 POP SWAP2 SWAP1 POP JUMP JUMPDEST PUSH0 PUSH2 0x25E4 DUP3 PUSH2 0x25A2 JUMP JUMPDEST PUSH2 0x25EE DUP2 DUP6 PUSH2 0x25AC JUMP JUMPDEST SWAP4 POP PUSH2 0x25FE DUP2 DUP6 PUSH1 0x20 DUP7 ADD PUSH2 0x25BC JUMP JUMPDEST PUSH2 0x2607 DUP2 PUSH2 0x25CA JUMP JUMPDEST DUP5 ADD SWAP2 POP POP SWAP3 SWAP2 POP POP JUMP JUMPDEST PUSH0 PUSH1 0x20 DUP3 ADD SWAP1 POP DUP2 DUP2 SUB PUSH0 DUP4 ADD MSTORE PUSH2 0x262A DUP2 DUP5 PUSH2 0x25DA JUMP JUMPDEST SWAP1 POP SWAP3 SWAP2 POP POP JUMP JUMPDEST PUSH0 PUSH0 REVERT JUMPDEST PUSH0 PUSH0 REVERT JUMPDEST PUSH0 PUSH0 DUP6 DUP6 GT ISZERO PUSH2 0x264D JUMPI PUSH2 0x264C PUSH2 0x2632 JUMP JUMPDEST JUMPDEST DUP4 DUP7 GT ISZERO PUSH2 0x265E JUMPI PUSH2 0x265D PUSH2 0x2636 JUMP JUMPDEST JUMPDEST PUSH1 0x1 DUP6 MUL DUP4 ADD SWAP2 POP DUP5 DUP7 SUB SWAP1 POP SWAP5 POP SWAP5 SWAP3 POP POP POP JUMP JUMPDEST PUSH0 DUP3 SWAP1 POP SWAP3 SWAP2 POP POP JUMP JUMPDEST PUSH0 PUSH32 0xFFFFFFFF00000000000000000000000000000000000000000000000000000000 DUP3 AND SWAP1 POP SWAP2 SWAP1 POP JUMP JUMPDEST PUSH0 DUP3 DUP3 SHL SWAP1 POP SWAP3 SWAP2 POP POP JUMP JUMPDEST PUSH0 PUSH2 0x26C0 DUP4 DUP4 PUSH2 0x2674 JUMP JUMPDEST DUP3 PUSH2 0x26CB DUP2 CALLDATALOAD PUSH2 0x267E JUMP JUMPDEST SWAP3 POP PUSH1 0x4 DUP3 LT ISZERO PUSH2 0x270B JUMPI PUSH2 0x2706 PUSH32 0xFFFFFFFF00000000000000000000000000000000000000000000000000000000 DUP4 PUSH1 0x4 SUB PUSH1 0x8 MUL PUSH2 0x26A9 JUMP JUMPDEST DUP4 AND SWAP3 POP JUMPDEST POP POP SWAP3 SWAP2 POP POP JUMP JUMPDEST PUSH2 0x271C DUP2 PUSH2 0x267E JUMP JUMPDEST DUP3 MSTORE POP POP JUMP JUMPDEST PUSH0 PUSH1 0x40 DUP3 ADD SWAP1 POP PUSH2 0x2735 PUSH0 DUP4 ADD DUP6 PUSH2 0x2713 JUMP JUMPDEST PUSH2 0x2742 PUSH1 0x20 DUP4 ADD DUP5 PUSH2 0x2713 JUMP JUMPDEST SWAP4 SWAP3 POP POP POP JUMP JUMPDEST PUSH32 0x4E487B7100000000000000000000000000000000000000000000000000000000 PUSH0 MSTORE PUSH1 0x32 PUSH1 0x4 MSTORE PUSH1 0x24 PUSH0 REVERT JUMPDEST PUSH32 0x4E487B7100000000000000000000000000000000000000000000000000000000 PUSH0 MSTORE PUSH1 0x41 PUSH1 0x4 MSTORE PUSH1 0x24 PUSH0 REVERT JUMPDEST PUSH2 0x27AC DUP3 PUSH2 0x25CA JUMP JUMPDEST DUP2 ADD DUP2 DUP2 LT PUSH8 0xFFFFFFFFFFFFFFFF DUP3 GT OR ISZERO PUSH2 0x27CB JUMPI PUSH2 0x27CA PUSH2 0x2776 JUMP JUMPDEST JUMPDEST DUP1 PUSH1 0x40 MSTORE POP POP POP JUMP JUMPDEST PUSH0 PUSH2 0x27DD PUSH2 0x2256 JUMP JUMPDEST SWAP1 POP PUSH2 0x27E9 DUP3 DUP3 PUSH2 0x27A3 JUMP JUMPDEST SWAP2 SWAP1 POP JUMP JUMPDEST PUSH0 PUSH8 0xFFFFFFFFFFFFFFFF DUP3 GT ISZERO PUSH2 0x2808 JUMPI PUSH2 0x2807 PUSH2 0x2776 JUMP JUMPDEST JUMPDEST PUSH1 0x20 DUP3 MUL SWAP1 POP SWAP2 SWAP1 POP JUMP JUMPDEST PUSH2 0x281C DUP2 PUSH2 0x23ED JUMP JUMPDEST DUP2 EQ PUSH2 0x2826 JUMPI PUSH0 PUSH0 REVERT JUMPDEST POP JUMP JUMPDEST PUSH0 DUP2 CALLDATALOAD SWAP1 POP PUSH2 0x2837 DUP2 PUSH2 0x2813 JUMP JUMPDEST SWAP3 SWAP2 POP POP JUMP JUMPDEST PUSH0 PUSH2 0x284F PUSH2 0x284A DUP5 PUSH2 0x27EE JUMP JUMPDEST PUSH2 0x27D4 JUMP JUMPDEST SWAP1 POP DUP1 PUSH1 0x20 DUP5 MUL DUP4 ADD DUP6 DUP2 GT ISZERO PUSH2 0x2869 JUMPI PUSH2 0x2868 PUSH2 0x2299 JUMP JUMPDEST JUMPDEST DUP4 JUMPDEST DUP2 DUP2 LT ISZERO PUSH2 0x2892 JUMPI DUP1 PUSH2 0x287E DUP9 DUP3 PUSH2 0x2829 JUMP JUMPDEST DUP5 MSTORE PUSH1 0x20 DUP5 ADD SWAP4 POP POP PUSH1 0x20 DUP2 ADD SWAP1 POP PUSH2 0x286B JUMP JUMPDEST POP POP POP SWAP4 SWAP3 POP POP POP JUMP JUMPDEST PUSH0 DUP3 PUSH1 0x1F DUP4 ADD SLT PUSH2 0x28B0 JUMPI PUSH2 0x28AF PUSH2 0x2291 JUMP JUMPDEST JUMPDEST PUSH1 0x8 PUSH2 0x28BD DUP5 DUP3 DUP6 PUSH2 0x283D JUMP JUMPDEST SWAP2 POP POP SWAP3 SWAP2 POP POP JUMP JUMPDEST PUSH0 PUSH2 0x100 DUP3 DUP5 SUB SLT ISZERO PUSH2 0x28DC JUMPI PUSH2 0x28DB PUSH2 0x225F JUMP JUMPDEST JUMPDEST PUSH0 PUSH2 0x28E9 DUP5 DUP3 DUP6 ADD PUSH2 0x289C JUMP JUMPDEST SWAP2 POP POP SWAP3 SWAP2 POP POP JUMP JUMPDEST PUSH0 PUSH1 0x8 SWAP1 POP SWAP2 SWAP1 POP JUMP JUMPDEST PUSH0 DUP2 SWAP1 POP SWAP3 SWAP2 POP POP JUMP JUMPDEST PUSH0 DUP2 SWAP1 POP SWAP2 SWAP1 POP JUMP JUMPDEST PUSH0 PUSH1 0x20 DUP3 ADD SWAP1 POP SWAP2 SWAP1 POP JUMP JUMPDEST PUSH2 0x2924 DUP2 PUSH2 0x28F2 JUMP JUMPDEST PUSH2 0x292E DUP2 DUP5 PUSH2 0x28FC JUMP JUMPDEST SWAP3 POP PUSH2 0x2939 DUP3 PUSH2 0x2906 JUMP JUMPDEST DUP1 PUSH0 JUMPDEST DUP4 DUP2 LT ISZERO PUSH2 0x2969 JUMPI DUP2 MLOAD PUSH2 0x2950 DUP8 DUP3 PUSH2 0x2405 JUMP JUMPDEST SWAP7 POP PUSH2 0x295B DUP4 PUSH2 0x290F JUMP JUMPDEST SWAP3 POP POP PUSH1 0x1 DUP2 ADD SWAP1 POP PUSH2 0x293C JUMP JUMPDEST POP POP POP POP POP POP JUMP JUMPDEST PUSH0 PUSH1 0x2 SWAP1 POP SWAP2 SWAP1 POP JUMP JUMPDEST PUSH0 DUP2 SWAP1 POP SWAP3 SWAP2 POP POP JUMP JUMPDEST PUSH0 DUP2 SWAP1 POP SWAP2 SWAP1 POP JUMP JUMPDEST PUSH0 PUSH1 0x20 DUP3 ADD SWAP1 POP SWAP2 SWAP1 POP JUMP JUMPDEST PUSH2 0x29A3 DUP2 PUSH2 0x2971 JUMP JUMPDEST PUSH2 0x29AD DUP2 DUP5 PUSH2 0x297B JUMP JUMPDEST SWAP3 POP PUSH2 0x29B8 DUP3 PUSH2 0x2985 JUMP JUMPDEST DUP1 PUSH0 JUMPDEST DUP4 DUP2 LT ISZERO PUSH2 0x29E8 JUMPI DUP2 MLOAD PUSH2 0x29CF DUP8 DUP3 PUSH2 0x2405 JUMP JUMPDEST SWAP7 POP PUSH2 0x29DA DUP4 PUSH2 0x298E JUMP JUMPDEST SWAP3 POP POP PUSH1 0x1 DUP2 ADD SWAP1 POP PUSH2 0x29BB JUMP JUMPDEST POP POP POP POP POP POP JUMP JUMPDEST PUSH0 PUSH2 0x140 DUP3 ADD SWAP1 POP PUSH2 0x2A04 PUSH0 DUP4 ADD DUP6 PUSH2 0x291B JUMP JUMPDEST PUSH2 0x2A12 PUSH2 0x100 DUP4 ADD DUP5 PUSH2 0x299A JUMP JUMPDEST SWAP4 SWAP3 POP POP POP JUMP JUMPDEST PUSH0 DUP2 SWAP1 POP SWAP3 SWAP2 POP POP JUMP JUMPDEST DUP3 DUP2 DUP4 CALLDATACOPY PUSH0 DUP4 DUP4 ADD MSTORE POP POP POP JUMP JUMPDEST PUSH0 PUSH2 0x2A3C DUP4 DUP6 PUSH2 0x2A19 JUMP JUMPDEST SWAP4 POP PUSH2 0x2A49 DUP4 DUP6 DUP5 PUSH2 0x2A23 JUMP JUMPDEST DUP3 DUP5 ADD SWAP1 POP SWAP4 SWAP3 POP POP POP JUMP JUMPDEST PUSH0 PUSH2 0x2A61 DUP3 DUP5 DUP7 PUSH2 0x2A31 JUMP JUMPDEST SWAP2 POP DUP2 SWAP1 POP SWAP4 SWAP3 POP POP POP JUMP JUMPDEST PUSH0 DUP2 MLOAD SWAP1 POP PUSH2 0x2A7B DUP2 PUSH2 0x2267 JUMP JUMPDEST SWAP3 SWAP2 POP POP JUMP JUMPDEST PUSH0 PUSH1 0x20 DUP3 DUP5 SUB SLT ISZERO PUSH2 0x2A96 JUMPI PUSH2 0x2A95 PUSH2 0x225F JUMP JUMPDEST JUMPDEST PUSH0 PUSH2 0x2AA3 DUP5 DUP3 DUP6 ADD PUSH2 0x2A6D JUMP JUMPDEST SWAP2 POP POP SWAP3 SWAP2 POP POP JUMP JUMPDEST PUSH32 0x4E487B7100000000000000000000000000000000000000000000000000000000 PUSH0 MSTORE PUSH1 0x12 PUSH1 0x4 MSTORE PUSH1 0x24 PUSH0 REVERT JUMPDEST PUSH32 0x4E487B7100000000000000000000000000000000000000000000000000000000 PUSH0 MSTORE PUSH1 0x11 PUSH1 0x4 MSTORE PUSH1 0x24 PUSH0 REVERT JUMPDEST PUSH0 PUSH2 0x2B10 DUP3 PUSH2 0x23ED JUMP JUMPDEST SWAP2 POP PUSH2 0x2B1B DUP4 PUSH2 0x23ED JUMP JUMPDEST SWAP3 POP DUP3 DUP3 SUB SWAP1 POP DUP2 DUP2 GT ISZERO PUSH2 0x2B33 JUMPI PUSH2 0x2B32 PUSH2 0x2AD9 JUMP JUMPDEST JUMPDEST SWAP3 SWAP2 POP POP JUMP INVALID LOG2 PUSH5 0x6970667358 0x22 SLT KECCAK256 SELFDESTRUCT 0xDE PUSH6 0x774E86353B70 LT 0xD0 0xC0 PC MCOPY 0x25 EXTSTATICCALL 0xC8 0xD6 0xAF PUSH13 0x571D01452616C2A64937579664 PUSH20 0x6F6C634300081E00330000000000000000000000 "
				},
				"gasEstimates": {
					"creation": {
						"codeDepositCost": "2223800",
						"executionCost": "2373",
						"totalCost": "2226173"
					},
					"external": {
						"VERIFIER_HASH()": "338",
						"VERSION()": "infinite",
						"Verify(uint256[8],uint256[2])": "infinite",
						"compressProof(uint256[8])": "infinite",
						"hashPublicValues(bytes)": "infinite",
						"verifyCompressedProof(uint256[4],uint256[2])": "infinite",
						"verifyProof(bytes32,bytes,bytes)": "infinite"
					}
				},
				"methodIdentifiers": {
					"VERIFIER_HASH()": "2a510436",
					"VERSION()": "ffa1ad74",
					"Verify(uint256[8],uint256[2])": "eddf243c",
					"compressProof(uint256[8])": "44f63692",
					"hashPublicValues(bytes)": "6b61d8e7",
					"verifyCompressedProof(uint256[4],uint256[2])": "f11817b2",
					"verifyProof(bytes32,bytes,bytes)": "41493c60"
				}
			},
			"storageLayout": {
				"storage": [],
				"types": null
			},
			"userdoc": {
				"errors": {
					"InvalidProof()": [
						{
							"notice": "Thrown when the proof is invalid."
						}
					],
					"ProofInvalid()": [
						{
							"notice": "The proof is invalid."
						}
					],
					"PublicInputNotInField()": [
						{
							"notice": "Some of the provided public input values are larger than the field modulus."
						}
					],
					"WrongVerifierSelector(bytes4,bytes4)": [
						{
							"notice": "Thrown when the verifier selector from this proof does not match the one in this verifier. This indicates that this proof was sent to the wrong verifier."
						}
					]
				},
				"kind": "user",
				"methods": {
					"VERIFIER_HASH()": {
						"notice": "Returns the hash of the verifier."
					},
					"Verify(uint256[8],uint256[2])": {
						"notice": "Verify an uncompressed Groth16 proof.Reverts with InvalidProof if the proof is invalid or with PublicInputNotInField the public input is not reduced.There is no return value. If the function does not revert, the proof was successfully verified."
					},
					"compressProof(uint256[8])": {
						"notice": "Compress a proof.Will revert with InvalidProof if the curve points are invalid, but does not verify the proof itself."
					},
					"hashPublicValues(bytes)": {
						"notice": "Hashes the public values to a field elements inside Bn254."
					},
					"verifyCompressedProof(uint256[4],uint256[2])": {
						"notice": "Verify a Groth16 proof with compressed points.Reverts with InvalidProof if the proof is invalid or with PublicInputNotInField the public input is not reduced.There is no return value. If the function does not revert, the proof was successfully verified."
					},
					"verifyProof(bytes32,bytes,bytes)": {
						"notice": "Verifies a proof with given public values and vkey."
					}
				},
				"notice": "This contracts implements a solidity verifier for SP1.",
				"version": 1
			}
		}
	}
}