{
	".deps/github/succinctlabs/sp1-contracts/contracts/src/v3.0.0/Groth16Verifier.sol": {
		"Groth16Verifier": {
			"abi": [
				{
					"inputs": [],
					"name": "ProofInvalid",
					"type": "error"
				},
				{
					"inputs": [],
					"name": "PublicInputNotInField",
					"type": "error"
				},
				{
					"inputs": [
						{
							"internalType": "uint256[8]",
							"name": "proof",
							"type": "uint256[8]"
						},
						{
							"internalType": "uint256[2]",
							"name": "input",
							"type": "uint256[2]"
						}
					],
					"name": "Verify",
					"outputs": [],
					"stateMutability": "view",
					"type": "function"
				},
				{
					"inputs": [
						{
							"internalType": "uint256[8]",
							"name": "proof",
							"type": "uint256[8]"
						}
					],
					"name": "compressProof",
					"outputs": [
						{
							"internalType": "uint256[4]",
							"name": "compressed",
							"type": "uint256[4]"
						}
					],
					"stateMutability": "view",
					"type": "function"
				},
				{
					"inputs": [
						{
							"internalType": "uint256[4]",
							"name": "compressedProof",
							"type": "uint256[4]"
						},
						{
							"internalType": "uint256[2]",
							"name": "input",
							"type": "uint256[2]"
						}
					],
					"name": "verifyCompressedProof",
					"outputs": [],
					"stateMutability": "view",
					"type": "function"
				}
			],
			"devdoc": {
				"author": "Remco Bloemen",
				"errors": {
					"ProofInvalid()": [
						{
							"details": "This can mean that provided Groth16 proof points are not on their curves, that pairing equation fails, or that the proof is not for the provided public input."
						}
					],
					"PublicInputNotInField()": [
						{
							"details": "Public input elements are not automatically reduced, as this is can be a dangerous source of bugs."
						}
					]
				},
				"kind": "dev",
				"methods": {
					"Verify(uint256[8],uint256[2])": {
						"params": {
							"input": "the public input field elements in the scalar field Fr. Elements must be reduced.",
							"proof": "the points (A, B, C) in EIP-197 format matching the output of compressProof."
						}
					},
					"compressProof(uint256[8])": {
						"params": {
							"proof": "The uncompressed Groth16 proof. Elements are in the same order as for verifyProof. I.e. Groth16 points (A, B, C) encoded as in EIP-197."
						},
						"returns": {
							"compressed": "The compressed proof. Elements are in the same order as for verifyCompressedProof. I.e. points (A, B, C) in compressed format."
						}
					},
					"verifyCompressedProof(uint256[4],uint256[2])": {
						"params": {
							"compressedProof": "the points (A, B, C) in compressed format matching the output of compressProof.",
							"input": "the public input field elements in the scalar field Fr. Elements must be reduced."
						}
					}
				},
				"title": "Groth16 verifier template.",
				"version": 1
			},
			"evm": {
				"assembly": "    /* \".deps/github/succinctlabs/sp1-contracts/contracts/src/v3.0.0/Groth16Verifier.sol\":393:25874  contract Groth16Verifier {... */\n  mstore(0x40, 0x80)\n  callvalue\n  dup1\n  iszero\n  tag_1\n  jumpi\n  revert(0x00, 0x00)\ntag_1:\n  pop\n  dataSize(sub_0)\n  dup1\n  dataOffset(sub_0)\n  0x00\n  codecopy\n  0x00\n  return\nstop\n\nsub_0: assembly {\n        /* \".deps/github/succinctlabs/sp1-contracts/contracts/src/v3.0.0/Groth16Verifier.sol\":393:25874  contract Groth16Verifier {... */\n      mstore(0x40, 0x80)\n      callvalue\n      dup1\n      iszero\n      tag_1\n      jumpi\n      revert(0x00, 0x00)\n    tag_1:\n      pop\n      jumpi(tag_2, lt(calldatasize, 0x04))\n      shr(0xe0, calldataload(0x00))\n      dup1\n      0x44f63692\n      eq\n      tag_3\n      jumpi\n      dup1\n      0xeddf243c\n      eq\n      tag_4\n      jumpi\n      dup1\n      0xf11817b2\n      eq\n      tag_5\n      jumpi\n    tag_2:\n      revert(0x00, 0x00)\n        /* \".deps/github/succinctlabs/sp1-contracts/contracts/src/v3.0.0/Groth16Verifier.sol\":19972:20324  function compressProof(uint256[8] calldata proof)... */\n    tag_3:\n      tag_6\n      0x04\n      dup1\n      calldatasize\n      sub\n      dup2\n      add\n      swap1\n      tag_7\n      swap2\n      swap1\n      tag_8\n      jump\t// in\n    tag_7:\n      tag_9\n      jump\t// in\n    tag_6:\n      mload(0x40)\n      tag_10\n      swap2\n      swap1\n      tag_11\n      jump\t// in\n    tag_10:\n      mload(0x40)\n      dup1\n      swap2\n      sub\n      swap1\n      return\n        /* \".deps/github/succinctlabs/sp1-contracts/contracts/src/v3.0.0/Groth16Verifier.sol\":23727:25871  function Verify(uint256[8] calldata proof, uint256[2] calldata input) public view {... */\n    tag_4:\n      tag_12\n      0x04\n      dup1\n      calldatasize\n      sub\n      dup2\n      add\n      swap1\n      tag_13\n      swap2\n      swap1\n      tag_14\n      jump\t// in\n    tag_13:\n      tag_15\n      jump\t// in\n    tag_12:\n      stop\n        /* \".deps/github/succinctlabs/sp1-contracts/contracts/src/v3.0.0/Groth16Verifier.sol\":20883:23190  function verifyCompressedProof(uint256[4] calldata compressedProof, uint256[2] calldata input)... */\n    tag_5:\n      tag_16\n      0x04\n      dup1\n      calldatasize\n      sub\n      dup2\n      add\n      swap1\n      tag_17\n      swap2\n      swap1\n      tag_18\n      jump\t// in\n    tag_17:\n      tag_19\n      jump\t// in\n    tag_16:\n      stop\n        /* \".deps/github/succinctlabs/sp1-contracts/contracts/src/v3.0.0/Groth16Verifier.sol\":19972:20324  function compressProof(uint256[8] calldata proof)... */\n    tag_9:\n        /* \".deps/github/succinctlabs/sp1-contracts/contracts/src/v3.0.0/Groth16Verifier.sol\":20070:20098  uint256[4] memory compressed */\n      tag_20\n      tag_21\n      jump\t// in\n    tag_20:\n        /* \".deps/github/succinctlabs/sp1-contracts/contracts/src/v3.0.0/Groth16Verifier.sol\":20132:20163  compress_g1(proof[0], proof[1]) */\n      tag_23\n        /* \".deps/github/succinctlabs/sp1-contracts/contracts/src/v3.0.0/Groth16Verifier.sol\":20144:20149  proof */\n      dup3\n        /* \".deps/github/succinctlabs/sp1-contracts/contracts/src/v3.0.0/Groth16Verifier.sol\":20150:20151  0 */\n      0x00\n        /* \".deps/github/succinctlabs/sp1-contracts/contracts/src/v3.0.0/Groth16Verifier.sol\":20144:20152  proof[0] */\n      0x08\n      dup2\n      lt\n      tag_24\n      jumpi\n      tag_25\n      tag_26\n      jump\t// in\n    tag_25:\n    tag_24:\n      0x20\n      mul\n      add\n      calldataload\n        /* \".deps/github/succinctlabs/sp1-contracts/contracts/src/v3.0.0/Groth16Verifier.sol\":20154:20159  proof */\n      dup4\n        /* \".deps/github/succinctlabs/sp1-contracts/contracts/src/v3.0.0/Groth16Verifier.sol\":20160:20161  1 */\n      0x01\n        /* \".deps/github/succinctlabs/sp1-contracts/contracts/src/v3.0.0/Groth16Verifier.sol\":20154:20162  proof[1] */\n      0x08\n      dup2\n      lt\n      tag_27\n      jumpi\n      tag_28\n      tag_26\n      jump\t// in\n    tag_28:\n    tag_27:\n      0x20\n      mul\n      add\n      calldataload\n        /* \".deps/github/succinctlabs/sp1-contracts/contracts/src/v3.0.0/Groth16Verifier.sol\":20132:20143  compress_g1 */\n      tag_29\n        /* \".deps/github/succinctlabs/sp1-contracts/contracts/src/v3.0.0/Groth16Verifier.sol\":20132:20163  compress_g1(proof[0], proof[1]) */\n      jump\t// in\n    tag_23:\n        /* \".deps/github/succinctlabs/sp1-contracts/contracts/src/v3.0.0/Groth16Verifier.sol\":20116:20126  compressed */\n      dup2\n        /* \".deps/github/succinctlabs/sp1-contracts/contracts/src/v3.0.0/Groth16Verifier.sol\":20127:20128  0 */\n      0x00\n        /* \".deps/github/succinctlabs/sp1-contracts/contracts/src/v3.0.0/Groth16Verifier.sol\":20116:20129  compressed[0] */\n      0x04\n      dup2\n      lt\n      tag_30\n      jumpi\n      tag_31\n      tag_26\n      jump\t// in\n    tag_31:\n    tag_30:\n      0x20\n      mul\n      add\n        /* \".deps/github/succinctlabs/sp1-contracts/contracts/src/v3.0.0/Groth16Verifier.sol\":20116:20163  compressed[0] = compress_g1(proof[0], proof[1]) */\n      dup2\n      dup2\n      mstore\n      pop\n      pop\n        /* \".deps/github/succinctlabs/sp1-contracts/contracts/src/v3.0.0/Groth16Verifier.sol\":20207:20258  compress_g2(proof[3], proof[2], proof[5], proof[4]) */\n      tag_32\n        /* \".deps/github/succinctlabs/sp1-contracts/contracts/src/v3.0.0/Groth16Verifier.sol\":20219:20224  proof */\n      dup3\n        /* \".deps/github/succinctlabs/sp1-contracts/contracts/src/v3.0.0/Groth16Verifier.sol\":20225:20226  3 */\n      0x03\n        /* \".deps/github/succinctlabs/sp1-contracts/contracts/src/v3.0.0/Groth16Verifier.sol\":20219:20227  proof[3] */\n      0x08\n      dup2\n      lt\n      tag_33\n      jumpi\n      tag_34\n      tag_26\n      jump\t// in\n    tag_34:\n    tag_33:\n      0x20\n      mul\n      add\n      calldataload\n        /* \".deps/github/succinctlabs/sp1-contracts/contracts/src/v3.0.0/Groth16Verifier.sol\":20229:20234  proof */\n      dup4\n        /* \".deps/github/succinctlabs/sp1-contracts/contracts/src/v3.0.0/Groth16Verifier.sol\":20235:20236  2 */\n      0x02\n        /* \".deps/github/succinctlabs/sp1-contracts/contracts/src/v3.0.0/Groth16Verifier.sol\":20229:20237  proof[2] */\n      0x08\n      dup2\n      lt\n      tag_35\n      jumpi\n      tag_36\n      tag_26\n      jump\t// in\n    tag_36:\n    tag_35:\n      0x20\n      mul\n      add\n      calldataload\n        /* \".deps/github/succinctlabs/sp1-contracts/contracts/src/v3.0.0/Groth16Verifier.sol\":20239:20244  proof */\n      dup5\n        /* \".deps/github/succinctlabs/sp1-contracts/contracts/src/v3.0.0/Groth16Verifier.sol\":20245:20246  5 */\n      0x05\n        /* \".deps/github/succinctlabs/sp1-contracts/contracts/src/v3.0.0/Groth16Verifier.sol\":20239:20247  proof[5] */\n      0x08\n      dup2\n      lt\n      tag_37\n      jumpi\n      tag_38\n      tag_26\n      jump\t// in\n    tag_38:\n    tag_37:\n      0x20\n      mul\n      add\n      calldataload\n        /* \".deps/github/succinctlabs/sp1-contracts/contracts/src/v3.0.0/Groth16Verifier.sol\":20249:20254  proof */\n      dup6\n        /* \".deps/github/succinctlabs/sp1-contracts/contracts/src/v3.0.0/Groth16Verifier.sol\":20255:20256  4 */\n      0x04\n        /* \".deps/github/succinctlabs/sp1-contracts/contracts/src/v3.0.0/Groth16Verifier.sol\":20249:20257  proof[4] */\n      0x08\n      dup2\n      lt\n      tag_39\n      jumpi\n      tag_40\n      tag_26\n      jump\t// in\n    tag_40:\n    tag_39:\n      0x20\n      mul\n      add\n      calldataload\n        /* \".deps/github/succinctlabs/sp1-contracts/contracts/src/v3.0.0/Groth16Verifier.sol\":20207:20218  compress_g2 */\n      tag_41\n        /* \".deps/github/succinctlabs/sp1-contracts/contracts/src/v3.0.0/Groth16Verifier.sol\":20207:20258  compress_g2(proof[3], proof[2], proof[5], proof[4]) */\n      jump\t// in\n    tag_32:\n        /* \".deps/github/succinctlabs/sp1-contracts/contracts/src/v3.0.0/Groth16Verifier.sol\":20175:20185  compressed */\n      dup3\n        /* \".deps/github/succinctlabs/sp1-contracts/contracts/src/v3.0.0/Groth16Verifier.sol\":20186:20187  2 */\n      0x02\n        /* \".deps/github/succinctlabs/sp1-contracts/contracts/src/v3.0.0/Groth16Verifier.sol\":20175:20188  compressed[2] */\n      0x04\n      dup2\n      lt\n      tag_42\n      jumpi\n      tag_43\n      tag_26\n      jump\t// in\n    tag_43:\n    tag_42:\n      0x20\n      mul\n      add\n        /* \".deps/github/succinctlabs/sp1-contracts/contracts/src/v3.0.0/Groth16Verifier.sol\":20190:20200  compressed */\n      dup4\n        /* \".deps/github/succinctlabs/sp1-contracts/contracts/src/v3.0.0/Groth16Verifier.sol\":20201:20202  1 */\n      0x01\n        /* \".deps/github/succinctlabs/sp1-contracts/contracts/src/v3.0.0/Groth16Verifier.sol\":20190:20203  compressed[1] */\n      0x04\n      dup2\n      lt\n      tag_44\n      jumpi\n      tag_45\n      tag_26\n      jump\t// in\n    tag_45:\n    tag_44:\n      0x20\n      mul\n      add\n        /* \".deps/github/succinctlabs/sp1-contracts/contracts/src/v3.0.0/Groth16Verifier.sol\":20174:20258  (compressed[2], compressed[1]) = compress_g2(proof[3], proof[2], proof[5], proof[4]) */\n      dup3\n      dup2\n      mstore\n      pop\n      dup3\n      dup2\n      mstore\n      pop\n      pop\n      pop\n        /* \".deps/github/succinctlabs/sp1-contracts/contracts/src/v3.0.0/Groth16Verifier.sol\":20285:20316  compress_g1(proof[6], proof[7]) */\n      tag_46\n        /* \".deps/github/succinctlabs/sp1-contracts/contracts/src/v3.0.0/Groth16Verifier.sol\":20297:20302  proof */\n      dup3\n        /* \".deps/github/succinctlabs/sp1-contracts/contracts/src/v3.0.0/Groth16Verifier.sol\":20303:20304  6 */\n      0x06\n        /* \".deps/github/succinctlabs/sp1-contracts/contracts/src/v3.0.0/Groth16Verifier.sol\":20297:20305  proof[6] */\n      0x08\n      dup2\n      lt\n      tag_47\n      jumpi\n      tag_48\n      tag_26\n      jump\t// in\n    tag_48:\n    tag_47:\n      0x20\n      mul\n      add\n      calldataload\n        /* \".deps/github/succinctlabs/sp1-contracts/contracts/src/v3.0.0/Groth16Verifier.sol\":20307:20312  proof */\n      dup4\n        /* \".deps/github/succinctlabs/sp1-contracts/contracts/src/v3.0.0/Groth16Verifier.sol\":20313:20314  7 */\n      0x07\n        /* \".deps/github/succinctlabs/sp1-contracts/contracts/src/v3.0.0/Groth16Verifier.sol\":20307:20315  proof[7] */\n      0x08\n      dup2\n      lt\n      tag_49\n      jumpi\n      tag_50\n      tag_26\n      jump\t// in\n    tag_50:\n    tag_49:\n      0x20\n      mul\n      add\n      calldataload\n        /* \".deps/github/succinctlabs/sp1-contracts/contracts/src/v3.0.0/Groth16Verifier.sol\":20285:20296  compress_g1 */\n      tag_29\n        /* \".deps/github/succinctlabs/sp1-contracts/contracts/src/v3.0.0/Groth16Verifier.sol\":20285:20316  compress_g1(proof[6], proof[7]) */\n      jump\t// in\n    tag_46:\n        /* \".deps/github/succinctlabs/sp1-contracts/contracts/src/v3.0.0/Groth16Verifier.sol\":20269:20279  compressed */\n      dup2\n        /* \".deps/github/succinctlabs/sp1-contracts/contracts/src/v3.0.0/Groth16Verifier.sol\":20280:20281  3 */\n      0x03\n        /* \".deps/github/succinctlabs/sp1-contracts/contracts/src/v3.0.0/Groth16Verifier.sol\":20269:20282  compressed[3] */\n      0x04\n      dup2\n      lt\n      tag_51\n      jumpi\n      tag_52\n      tag_26\n      jump\t// in\n    tag_52:\n    tag_51:\n      0x20\n      mul\n      add\n        /* \".deps/github/succinctlabs/sp1-contracts/contracts/src/v3.0.0/Groth16Verifier.sol\":20269:20316  compressed[3] = compress_g1(proof[6], proof[7]) */\n      dup2\n      dup2\n      mstore\n      pop\n      pop\n        /* \".deps/github/succinctlabs/sp1-contracts/contracts/src/v3.0.0/Groth16Verifier.sol\":19972:20324  function compressProof(uint256[8] calldata proof)... */\n      swap2\n      swap1\n      pop\n      jump\t// out\n        /* \".deps/github/succinctlabs/sp1-contracts/contracts/src/v3.0.0/Groth16Verifier.sol\":23727:25871  function Verify(uint256[8] calldata proof, uint256[2] calldata input) public view {... */\n    tag_15:\n        /* \".deps/github/succinctlabs/sp1-contracts/contracts/src/v3.0.0/Groth16Verifier.sol\":23821:23830  uint256 x */\n      0x00\n        /* \".deps/github/succinctlabs/sp1-contracts/contracts/src/v3.0.0/Groth16Verifier.sol\":23832:23841  uint256 y */\n      0x00\n        /* \".deps/github/succinctlabs/sp1-contracts/contracts/src/v3.0.0/Groth16Verifier.sol\":23845:23866  publicInputMSM(input) */\n      tag_54\n        /* \".deps/github/succinctlabs/sp1-contracts/contracts/src/v3.0.0/Groth16Verifier.sol\":23860:23865  input */\n      dup4\n        /* \".deps/github/succinctlabs/sp1-contracts/contracts/src/v3.0.0/Groth16Verifier.sol\":23845:23859  publicInputMSM */\n      tag_55\n        /* \".deps/github/succinctlabs/sp1-contracts/contracts/src/v3.0.0/Groth16Verifier.sol\":23845:23866  publicInputMSM(input) */\n      jump\t// in\n    tag_54:\n        /* \".deps/github/succinctlabs/sp1-contracts/contracts/src/v3.0.0/Groth16Verifier.sol\":23820:23866  (uint256 x, uint256 y) = publicInputMSM(input) */\n      swap2\n      pop\n      swap2\n      pop\n        /* \".deps/github/succinctlabs/sp1-contracts/contracts/src/v3.0.0/Groth16Verifier.sol\":24057:24069  bool success */\n      0x00\n        /* \".deps/github/succinctlabs/sp1-contracts/contracts/src/v3.0.0/Groth16Verifier.sol\":24135:24139  0x40 */\n      0x40\n        /* \".deps/github/succinctlabs/sp1-contracts/contracts/src/v3.0.0/Groth16Verifier.sol\":24129:24140  mload(0x40) */\n      mload\n        /* \".deps/github/succinctlabs/sp1-contracts/contracts/src/v3.0.0/Groth16Verifier.sol\":24351:24356  0x100 */\n      0x0100\n        /* \".deps/github/succinctlabs/sp1-contracts/contracts/src/v3.0.0/Groth16Verifier.sol\":24344:24349  proof */\n      dup7\n        /* \".deps/github/succinctlabs/sp1-contracts/contracts/src/v3.0.0/Groth16Verifier.sol\":24341:24342  f */\n      dup3\n        /* \".deps/github/succinctlabs/sp1-contracts/contracts/src/v3.0.0/Groth16Verifier.sol\":24328:24357  calldatacopy(f, proof, 0x100) */\n      calldatacopy\n        /* \".deps/github/succinctlabs/sp1-contracts/contracts/src/v3.0.0/Groth16Verifier.sol\":24665:24678  DELTA_NEG_X_1 */\n      0x21ab438b0ad9688f8d9afc96ed0ab25e6ab7f19ed6f7d58a9dc136d68de55e3e\n        /* \".deps/github/succinctlabs/sp1-contracts/contracts/src/v3.0.0/Groth16Verifier.sol\":24657:24662  0x100 */\n      0x0100\n        /* \".deps/github/succinctlabs/sp1-contracts/contracts/src/v3.0.0/Groth16Verifier.sol\":24654:24655  f */\n      dup3\n        /* \".deps/github/succinctlabs/sp1-contracts/contracts/src/v3.0.0/Groth16Verifier.sol\":24650:24663  add(f, 0x100) */\n      add\n        /* \".deps/github/succinctlabs/sp1-contracts/contracts/src/v3.0.0/Groth16Verifier.sol\":24643:24679  mstore(add(f, 0x100), DELTA_NEG_X_1) */\n      mstore\n        /* \".deps/github/succinctlabs/sp1-contracts/contracts/src/v3.0.0/Groth16Verifier.sol\":24715:24728  DELTA_NEG_X_0 */\n      0x2d1f461ca03a65528393919e9e412f6b82d7096e44fa039bd7642a5112188af7\n        /* \".deps/github/succinctlabs/sp1-contracts/contracts/src/v3.0.0/Groth16Verifier.sol\":24707:24712  0x120 */\n      0x0120\n        /* \".deps/github/succinctlabs/sp1-contracts/contracts/src/v3.0.0/Groth16Verifier.sol\":24704:24705  f */\n      dup3\n        /* \".deps/github/succinctlabs/sp1-contracts/contracts/src/v3.0.0/Groth16Verifier.sol\":24700:24713  add(f, 0x120) */\n      add\n        /* \".deps/github/succinctlabs/sp1-contracts/contracts/src/v3.0.0/Groth16Verifier.sol\":24693:24729  mstore(add(f, 0x120), DELTA_NEG_X_0) */\n      mstore\n        /* \".deps/github/succinctlabs/sp1-contracts/contracts/src/v3.0.0/Groth16Verifier.sol\":24765:24778  DELTA_NEG_Y_1 */\n      0x100f76d4ac45886c1334d58716121dc0ffa8463738f3f2adf793e15b8ecd7e1d\n        /* \".deps/github/succinctlabs/sp1-contracts/contracts/src/v3.0.0/Groth16Verifier.sol\":24757:24762  0x140 */\n      0x0140\n        /* \".deps/github/succinctlabs/sp1-contracts/contracts/src/v3.0.0/Groth16Verifier.sol\":24754:24755  f */\n      dup3\n        /* \".deps/github/succinctlabs/sp1-contracts/contracts/src/v3.0.0/Groth16Verifier.sol\":24750:24763  add(f, 0x140) */\n      add\n        /* \".deps/github/succinctlabs/sp1-contracts/contracts/src/v3.0.0/Groth16Verifier.sol\":24743:24779  mstore(add(f, 0x140), DELTA_NEG_Y_1) */\n      mstore\n        /* \".deps/github/succinctlabs/sp1-contracts/contracts/src/v3.0.0/Groth16Verifier.sol\":24815:24828  DELTA_NEG_Y_0 */\n      0x2bf21e8bb2f9419034373c2156cdd7bddf273519dcd7f674ef21e2748ced89f2\n        /* \".deps/github/succinctlabs/sp1-contracts/contracts/src/v3.0.0/Groth16Verifier.sol\":24807:24812  0x160 */\n      0x0160\n        /* \".deps/github/succinctlabs/sp1-contracts/contracts/src/v3.0.0/Groth16Verifier.sol\":24804:24805  f */\n      dup3\n        /* \".deps/github/succinctlabs/sp1-contracts/contracts/src/v3.0.0/Groth16Verifier.sol\":24800:24813  add(f, 0x160) */\n      add\n        /* \".deps/github/succinctlabs/sp1-contracts/contracts/src/v3.0.0/Groth16Verifier.sol\":24793:24829  mstore(add(f, 0x160), DELTA_NEG_Y_0) */\n      mstore\n        /* \".deps/github/succinctlabs/sp1-contracts/contracts/src/v3.0.0/Groth16Verifier.sol\":24865:24872  ALPHA_X */\n      0x2d4d9aa7e302d9df41749d5507949d05dbea33fbb16c643b22f599a2be6df2e2\n        /* \".deps/github/succinctlabs/sp1-contracts/contracts/src/v3.0.0/Groth16Verifier.sol\":24857:24862  0x180 */\n      0x0180\n        /* \".deps/github/succinctlabs/sp1-contracts/contracts/src/v3.0.0/Groth16Verifier.sol\":24854:24855  f */\n      dup3\n        /* \".deps/github/succinctlabs/sp1-contracts/contracts/src/v3.0.0/Groth16Verifier.sol\":24850:24863  add(f, 0x180) */\n      add\n        /* \".deps/github/succinctlabs/sp1-contracts/contracts/src/v3.0.0/Groth16Verifier.sol\":24843:24873  mstore(add(f, 0x180), ALPHA_X) */\n      mstore\n        /* \".deps/github/succinctlabs/sp1-contracts/contracts/src/v3.0.0/Groth16Verifier.sol\":24909:24916  ALPHA_Y */\n      0x14bedd503c37ceb061d8ec60209fe345ce89830a19230301f076caff004d1926\n        /* \".deps/github/succinctlabs/sp1-contracts/contracts/src/v3.0.0/Groth16Verifier.sol\":24901:24906  0x1a0 */\n      0x01a0\n        /* \".deps/github/succinctlabs/sp1-contracts/contracts/src/v3.0.0/Groth16Verifier.sol\":24898:24899  f */\n      dup3\n        /* \".deps/github/succinctlabs/sp1-contracts/contracts/src/v3.0.0/Groth16Verifier.sol\":24894:24907  add(f, 0x1a0) */\n      add\n        /* \".deps/github/succinctlabs/sp1-contracts/contracts/src/v3.0.0/Groth16Verifier.sol\":24887:24917  mstore(add(f, 0x1a0), ALPHA_Y) */\n      mstore\n        /* \".deps/github/succinctlabs/sp1-contracts/contracts/src/v3.0.0/Groth16Verifier.sol\":24953:24965  BETA_NEG_X_1 */\n      0x0967032fcbf776d1afc985f88877f182d38480a653f2decaa9794cbc3bf3060c\n        /* \".deps/github/succinctlabs/sp1-contracts/contracts/src/v3.0.0/Groth16Verifier.sol\":24945:24950  0x1c0 */\n      0x01c0\n        /* \".deps/github/succinctlabs/sp1-contracts/contracts/src/v3.0.0/Groth16Verifier.sol\":24942:24943  f */\n      dup3\n        /* \".deps/github/succinctlabs/sp1-contracts/contracts/src/v3.0.0/Groth16Verifier.sol\":24938:24951  add(f, 0x1c0) */\n      add\n        /* \".deps/github/succinctlabs/sp1-contracts/contracts/src/v3.0.0/Groth16Verifier.sol\":24931:24966  mstore(add(f, 0x1c0), BETA_NEG_X_1) */\n      mstore\n        /* \".deps/github/succinctlabs/sp1-contracts/contracts/src/v3.0.0/Groth16Verifier.sol\":25002:25014  BETA_NEG_X_0 */\n      0x0e187847ad4c798374d0d6732bf501847dd68bc0e071241e0213bc7fc13db7ab\n        /* \".deps/github/succinctlabs/sp1-contracts/contracts/src/v3.0.0/Groth16Verifier.sol\":24994:24999  0x1e0 */\n      0x01e0\n        /* \".deps/github/succinctlabs/sp1-contracts/contracts/src/v3.0.0/Groth16Verifier.sol\":24991:24992  f */\n      dup3\n        /* \".deps/github/succinctlabs/sp1-contracts/contracts/src/v3.0.0/Groth16Verifier.sol\":24987:25000  add(f, 0x1e0) */\n      add\n        /* \".deps/github/succinctlabs/sp1-contracts/contracts/src/v3.0.0/Groth16Verifier.sol\":24980:25015  mstore(add(f, 0x1e0), BETA_NEG_X_0) */\n      mstore\n        /* \".deps/github/succinctlabs/sp1-contracts/contracts/src/v3.0.0/Groth16Verifier.sol\":25051:25063  BETA_NEG_Y_1 */\n      0x1752a100a72fdf1e5a5d6ea841cc20ec838bccfcf7bd559e79f1c9c759b6a0\n        /* \".deps/github/succinctlabs/sp1-contracts/contracts/src/v3.0.0/Groth16Verifier.sol\":25043:25048  0x200 */\n      0x0200\n        /* \".deps/github/succinctlabs/sp1-contracts/contracts/src/v3.0.0/Groth16Verifier.sol\":25040:25041  f */\n      dup3\n        /* \".deps/github/succinctlabs/sp1-contracts/contracts/src/v3.0.0/Groth16Verifier.sol\":25036:25049  add(f, 0x200) */\n      add\n        /* \".deps/github/succinctlabs/sp1-contracts/contracts/src/v3.0.0/Groth16Verifier.sol\":25029:25064  mstore(add(f, 0x200), BETA_NEG_Y_1) */\n      mstore\n        /* \".deps/github/succinctlabs/sp1-contracts/contracts/src/v3.0.0/Groth16Verifier.sol\":25100:25112  BETA_NEG_Y_0 */\n      0x192a8cc13cd9f762871f21e43451c6ca9eeab2cb2987c4e366a185c25dac2e7f\n        /* \".deps/github/succinctlabs/sp1-contracts/contracts/src/v3.0.0/Groth16Verifier.sol\":25092:25097  0x220 */\n      0x0220\n        /* \".deps/github/succinctlabs/sp1-contracts/contracts/src/v3.0.0/Groth16Verifier.sol\":25089:25090  f */\n      dup3\n        /* \".deps/github/succinctlabs/sp1-contracts/contracts/src/v3.0.0/Groth16Verifier.sol\":25085:25098  add(f, 0x220) */\n      add\n        /* \".deps/github/succinctlabs/sp1-contracts/contracts/src/v3.0.0/Groth16Verifier.sol\":25078:25113  mstore(add(f, 0x220), BETA_NEG_Y_0) */\n      mstore\n        /* \".deps/github/succinctlabs/sp1-contracts/contracts/src/v3.0.0/Groth16Verifier.sol\":25149:25150  x */\n      dup4\n        /* \".deps/github/succinctlabs/sp1-contracts/contracts/src/v3.0.0/Groth16Verifier.sol\":25141:25146  0x240 */\n      0x0240\n        /* \".deps/github/succinctlabs/sp1-contracts/contracts/src/v3.0.0/Groth16Verifier.sol\":25138:25139  f */\n      dup3\n        /* \".deps/github/succinctlabs/sp1-contracts/contracts/src/v3.0.0/Groth16Verifier.sol\":25134:25147  add(f, 0x240) */\n      add\n        /* \".deps/github/succinctlabs/sp1-contracts/contracts/src/v3.0.0/Groth16Verifier.sol\":25127:25151  mstore(add(f, 0x240), x) */\n      mstore\n        /* \".deps/github/succinctlabs/sp1-contracts/contracts/src/v3.0.0/Groth16Verifier.sol\":25187:25188  y */\n      dup3\n        /* \".deps/github/succinctlabs/sp1-contracts/contracts/src/v3.0.0/Groth16Verifier.sol\":25179:25184  0x260 */\n      0x0260\n        /* \".deps/github/succinctlabs/sp1-contracts/contracts/src/v3.0.0/Groth16Verifier.sol\":25176:25177  f */\n      dup3\n        /* \".deps/github/succinctlabs/sp1-contracts/contracts/src/v3.0.0/Groth16Verifier.sol\":25172:25185  add(f, 0x260) */\n      add\n        /* \".deps/github/succinctlabs/sp1-contracts/contracts/src/v3.0.0/Groth16Verifier.sol\":25165:25189  mstore(add(f, 0x260), y) */\n      mstore\n        /* \".deps/github/succinctlabs/sp1-contracts/contracts/src/v3.0.0/Groth16Verifier.sol\":25225:25238  GAMMA_NEG_X_1 */\n      0x198e9393920d483a7260bfb731fb5d25f1aa493335a9e71297e485b7aef312c2\n        /* \".deps/github/succinctlabs/sp1-contracts/contracts/src/v3.0.0/Groth16Verifier.sol\":25217:25222  0x280 */\n      0x0280\n        /* \".deps/github/succinctlabs/sp1-contracts/contracts/src/v3.0.0/Groth16Verifier.sol\":25214:25215  f */\n      dup3\n        /* \".deps/github/succinctlabs/sp1-contracts/contracts/src/v3.0.0/Groth16Verifier.sol\":25210:25223  add(f, 0x280) */\n      add\n        /* \".deps/github/succinctlabs/sp1-contracts/contracts/src/v3.0.0/Groth16Verifier.sol\":25203:25239  mstore(add(f, 0x280), GAMMA_NEG_X_1) */\n      mstore\n        /* \".deps/github/succinctlabs/sp1-contracts/contracts/src/v3.0.0/Groth16Verifier.sol\":25275:25288  GAMMA_NEG_X_0 */\n      0x1800deef121f1e76426a00665e5c4479674322d4f75edadd46debd5cd992f6ed\n        /* \".deps/github/succinctlabs/sp1-contracts/contracts/src/v3.0.0/Groth16Verifier.sol\":25267:25272  0x2a0 */\n      0x02a0\n        /* \".deps/github/succinctlabs/sp1-contracts/contracts/src/v3.0.0/Groth16Verifier.sol\":25264:25265  f */\n      dup3\n        /* \".deps/github/succinctlabs/sp1-contracts/contracts/src/v3.0.0/Groth16Verifier.sol\":25260:25273  add(f, 0x2a0) */\n      add\n        /* \".deps/github/succinctlabs/sp1-contracts/contracts/src/v3.0.0/Groth16Verifier.sol\":25253:25289  mstore(add(f, 0x2a0), GAMMA_NEG_X_0) */\n      mstore\n        /* \".deps/github/succinctlabs/sp1-contracts/contracts/src/v3.0.0/Groth16Verifier.sol\":25325:25338  GAMMA_NEG_Y_1 */\n      0x275dc4a288d1afb3cbb1ac09187524c7db36395df7be3b99e673b13a075a65ec\n        /* \".deps/github/succinctlabs/sp1-contracts/contracts/src/v3.0.0/Groth16Verifier.sol\":25317:25322  0x2c0 */\n      0x02c0\n        /* \".deps/github/succinctlabs/sp1-contracts/contracts/src/v3.0.0/Groth16Verifier.sol\":25314:25315  f */\n      dup3\n        /* \".deps/github/succinctlabs/sp1-contracts/contracts/src/v3.0.0/Groth16Verifier.sol\":25310:25323  add(f, 0x2c0) */\n      add\n        /* \".deps/github/succinctlabs/sp1-contracts/contracts/src/v3.0.0/Groth16Verifier.sol\":25303:25339  mstore(add(f, 0x2c0), GAMMA_NEG_Y_1) */\n      mstore\n        /* \".deps/github/succinctlabs/sp1-contracts/contracts/src/v3.0.0/Groth16Verifier.sol\":25375:25388  GAMMA_NEG_Y_0 */\n      0x1d9befcd05a5323e6da4d435f3b617cdb3af83285c2df711ef39c01571827f9d\n        /* \".deps/github/succinctlabs/sp1-contracts/contracts/src/v3.0.0/Groth16Verifier.sol\":25367:25372  0x2e0 */\n      0x02e0\n        /* \".deps/github/succinctlabs/sp1-contracts/contracts/src/v3.0.0/Groth16Verifier.sol\":25364:25365  f */\n      dup3\n        /* \".deps/github/succinctlabs/sp1-contracts/contracts/src/v3.0.0/Groth16Verifier.sol\":25360:25373  add(f, 0x2e0) */\n      add\n        /* \".deps/github/succinctlabs/sp1-contracts/contracts/src/v3.0.0/Groth16Verifier.sol\":25353:25389  mstore(add(f, 0x2e0), GAMMA_NEG_Y_0) */\n      mstore\n        /* \".deps/github/succinctlabs/sp1-contracts/contracts/src/v3.0.0/Groth16Verifier.sol\":25506:25510  0x20 */\n      0x20\n        /* \".deps/github/succinctlabs/sp1-contracts/contracts/src/v3.0.0/Groth16Verifier.sol\":25503:25504  f */\n      dup2\n        /* \".deps/github/succinctlabs/sp1-contracts/contracts/src/v3.0.0/Groth16Verifier.sol\":25496:25501  0x300 */\n      0x0300\n        /* \".deps/github/succinctlabs/sp1-contracts/contracts/src/v3.0.0/Groth16Verifier.sol\":25493:25494  f */\n      dup4\n        /* \".deps/github/succinctlabs/sp1-contracts/contracts/src/v3.0.0/Groth16Verifier.sol\":25474:25491  PRECOMPILE_VERIFY */\n      0x08\n        /* \".deps/github/succinctlabs/sp1-contracts/contracts/src/v3.0.0/Groth16Verifier.sol\":25467:25472  gas() */\n      gas\n        /* \".deps/github/succinctlabs/sp1-contracts/contracts/src/v3.0.0/Groth16Verifier.sol\":25456:25511  staticcall(gas(), PRECOMPILE_VERIFY, f, 0x300, f, 0x20) */\n      staticcall\n        /* \".deps/github/succinctlabs/sp1-contracts/contracts/src/v3.0.0/Groth16Verifier.sol\":25445:25511  success := staticcall(gas(), PRECOMPILE_VERIFY, f, 0x300, f, 0x20) */\n      swap2\n      pop\n        /* \".deps/github/succinctlabs/sp1-contracts/contracts/src/v3.0.0/Groth16Verifier.sol\":25623:25624  f */\n      dup1\n        /* \".deps/github/succinctlabs/sp1-contracts/contracts/src/v3.0.0/Groth16Verifier.sol\":25617:25625  mload(f) */\n      mload\n        /* \".deps/github/succinctlabs/sp1-contracts/contracts/src/v3.0.0/Groth16Verifier.sol\":25608:25615  success */\n      dup3\n        /* \".deps/github/succinctlabs/sp1-contracts/contracts/src/v3.0.0/Groth16Verifier.sol\":25604:25626  and(success, mload(f)) */\n      and\n        /* \".deps/github/succinctlabs/sp1-contracts/contracts/src/v3.0.0/Groth16Verifier.sol\":25593:25626  success := and(success, mload(f)) */\n      swap2\n      pop\n        /* \".deps/github/succinctlabs/sp1-contracts/contracts/src/v3.0.0/Groth16Verifier.sol\":24105:25637  {... */\n      pop\n        /* \".deps/github/succinctlabs/sp1-contracts/contracts/src/v3.0.0/Groth16Verifier.sol\":25652:25659  success */\n      dup1\n        /* \".deps/github/succinctlabs/sp1-contracts/contracts/src/v3.0.0/Groth16Verifier.sol\":25647:25864  if (!success) {... */\n      tag_56\n      jumpi\n        /* \".deps/github/succinctlabs/sp1-contracts/contracts/src/v3.0.0/Groth16Verifier.sol\":25838:25852  ProofInvalid() */\n      mload(0x40)\n      0x7fcdd1f400000000000000000000000000000000000000000000000000000000\n      dup2\n      mstore\n      0x04\n      add\n      mload(0x40)\n      dup1\n      swap2\n      sub\n      swap1\n      revert\n        /* \".deps/github/succinctlabs/sp1-contracts/contracts/src/v3.0.0/Groth16Verifier.sol\":25647:25864  if (!success) {... */\n    tag_56:\n        /* \".deps/github/succinctlabs/sp1-contracts/contracts/src/v3.0.0/Groth16Verifier.sol\":23809:25871  {... */\n      pop\n      pop\n      pop\n        /* \".deps/github/succinctlabs/sp1-contracts/contracts/src/v3.0.0/Groth16Verifier.sol\":23727:25871  function Verify(uint256[8] calldata proof, uint256[2] calldata input) public view {... */\n      pop\n      pop\n      jump\t// out\n        /* \".deps/github/succinctlabs/sp1-contracts/contracts/src/v3.0.0/Groth16Verifier.sol\":20883:23190  function verifyCompressedProof(uint256[4] calldata compressedProof, uint256[2] calldata input)... */\n    tag_19:\n        /* \".deps/github/succinctlabs/sp1-contracts/contracts/src/v3.0.0/Groth16Verifier.sol\":21024:21051  uint256[24] memory pairings */\n      tag_58\n      tag_59\n      jump\t// in\n    tag_58:\n        /* \".deps/github/succinctlabs/sp1-contracts/contracts/src/v3.0.0/Groth16Verifier.sol\":21080:21090  uint256 Ax */\n      0x00\n        /* \".deps/github/succinctlabs/sp1-contracts/contracts/src/v3.0.0/Groth16Verifier.sol\":21092:21102  uint256 Ay */\n      0x00\n        /* \".deps/github/succinctlabs/sp1-contracts/contracts/src/v3.0.0/Groth16Verifier.sol\":21106:21139  decompress_g1(compressedProof[0]) */\n      tag_60\n        /* \".deps/github/succinctlabs/sp1-contracts/contracts/src/v3.0.0/Groth16Verifier.sol\":21120:21135  compressedProof */\n      dup6\n        /* \".deps/github/succinctlabs/sp1-contracts/contracts/src/v3.0.0/Groth16Verifier.sol\":21136:21137  0 */\n      0x00\n        /* \".deps/github/succinctlabs/sp1-contracts/contracts/src/v3.0.0/Groth16Verifier.sol\":21120:21138  compressedProof[0] */\n      0x04\n      dup2\n      lt\n      tag_61\n      jumpi\n      tag_62\n      tag_26\n      jump\t// in\n    tag_62:\n    tag_61:\n      0x20\n      mul\n      add\n      calldataload\n        /* \".deps/github/succinctlabs/sp1-contracts/contracts/src/v3.0.0/Groth16Verifier.sol\":21106:21119  decompress_g1 */\n      tag_63\n        /* \".deps/github/succinctlabs/sp1-contracts/contracts/src/v3.0.0/Groth16Verifier.sol\":21106:21139  decompress_g1(compressedProof[0]) */\n      jump\t// in\n    tag_60:\n        /* \".deps/github/succinctlabs/sp1-contracts/contracts/src/v3.0.0/Groth16Verifier.sol\":21079:21139  (uint256 Ax, uint256 Ay) = decompress_g1(compressedProof[0]) */\n      swap2\n      pop\n      swap2\n      pop\n        /* \".deps/github/succinctlabs/sp1-contracts/contracts/src/v3.0.0/Groth16Verifier.sol\":21155:21166  uint256 Bx0 */\n      0x00\n        /* \".deps/github/succinctlabs/sp1-contracts/contracts/src/v3.0.0/Groth16Verifier.sol\":21168:21179  uint256 Bx1 */\n      0x00\n        /* \".deps/github/succinctlabs/sp1-contracts/contracts/src/v3.0.0/Groth16Verifier.sol\":21181:21192  uint256 By0 */\n      0x00\n        /* \".deps/github/succinctlabs/sp1-contracts/contracts/src/v3.0.0/Groth16Verifier.sol\":21194:21205  uint256 By1 */\n      0x00\n        /* \".deps/github/succinctlabs/sp1-contracts/contracts/src/v3.0.0/Groth16Verifier.sol\":21226:21279  decompress_g2(compressedProof[2], compressedProof[1]) */\n      tag_64\n        /* \".deps/github/succinctlabs/sp1-contracts/contracts/src/v3.0.0/Groth16Verifier.sol\":21240:21255  compressedProof */\n      dup10\n        /* \".deps/github/succinctlabs/sp1-contracts/contracts/src/v3.0.0/Groth16Verifier.sol\":21256:21257  2 */\n      0x02\n        /* \".deps/github/succinctlabs/sp1-contracts/contracts/src/v3.0.0/Groth16Verifier.sol\":21240:21258  compressedProof[2] */\n      0x04\n      dup2\n      lt\n      tag_65\n      jumpi\n      tag_66\n      tag_26\n      jump\t// in\n    tag_66:\n    tag_65:\n      0x20\n      mul\n      add\n      calldataload\n        /* \".deps/github/succinctlabs/sp1-contracts/contracts/src/v3.0.0/Groth16Verifier.sol\":21260:21275  compressedProof */\n      dup11\n        /* \".deps/github/succinctlabs/sp1-contracts/contracts/src/v3.0.0/Groth16Verifier.sol\":21276:21277  1 */\n      0x01\n        /* \".deps/github/succinctlabs/sp1-contracts/contracts/src/v3.0.0/Groth16Verifier.sol\":21260:21278  compressedProof[1] */\n      0x04\n      dup2\n      lt\n      tag_67\n      jumpi\n      tag_68\n      tag_26\n      jump\t// in\n    tag_68:\n    tag_67:\n      0x20\n      mul\n      add\n      calldataload\n        /* \".deps/github/succinctlabs/sp1-contracts/contracts/src/v3.0.0/Groth16Verifier.sol\":21226:21239  decompress_g2 */\n      tag_69\n        /* \".deps/github/succinctlabs/sp1-contracts/contracts/src/v3.0.0/Groth16Verifier.sol\":21226:21279  decompress_g2(compressedProof[2], compressedProof[1]) */\n      jump\t// in\n    tag_64:\n        /* \".deps/github/succinctlabs/sp1-contracts/contracts/src/v3.0.0/Groth16Verifier.sol\":21154:21279  (uint256 Bx0, uint256 Bx1, uint256 By0, uint256 By1) =... */\n      swap4\n      pop\n      swap4\n      pop\n      swap4\n      pop\n      swap4\n      pop\n        /* \".deps/github/succinctlabs/sp1-contracts/contracts/src/v3.0.0/Groth16Verifier.sol\":21295:21305  uint256 Cx */\n      0x00\n        /* \".deps/github/succinctlabs/sp1-contracts/contracts/src/v3.0.0/Groth16Verifier.sol\":21307:21317  uint256 Cy */\n      0x00\n        /* \".deps/github/succinctlabs/sp1-contracts/contracts/src/v3.0.0/Groth16Verifier.sol\":21321:21354  decompress_g1(compressedProof[3]) */\n      tag_70\n        /* \".deps/github/succinctlabs/sp1-contracts/contracts/src/v3.0.0/Groth16Verifier.sol\":21335:21350  compressedProof */\n      dup12\n        /* \".deps/github/succinctlabs/sp1-contracts/contracts/src/v3.0.0/Groth16Verifier.sol\":21351:21352  3 */\n      0x03\n        /* \".deps/github/succinctlabs/sp1-contracts/contracts/src/v3.0.0/Groth16Verifier.sol\":21335:21353  compressedProof[3] */\n      0x04\n      dup2\n      lt\n      tag_71\n      jumpi\n      tag_72\n      tag_26\n      jump\t// in\n    tag_72:\n    tag_71:\n      0x20\n      mul\n      add\n      calldataload\n        /* \".deps/github/succinctlabs/sp1-contracts/contracts/src/v3.0.0/Groth16Verifier.sol\":21321:21334  decompress_g1 */\n      tag_63\n        /* \".deps/github/succinctlabs/sp1-contracts/contracts/src/v3.0.0/Groth16Verifier.sol\":21321:21354  decompress_g1(compressedProof[3]) */\n      jump\t// in\n    tag_70:\n        /* \".deps/github/succinctlabs/sp1-contracts/contracts/src/v3.0.0/Groth16Verifier.sol\":21294:21354  (uint256 Cx, uint256 Cy) = decompress_g1(compressedProof[3]) */\n      swap2\n      pop\n      swap2\n      pop\n        /* \".deps/github/succinctlabs/sp1-contracts/contracts/src/v3.0.0/Groth16Verifier.sol\":21370:21380  uint256 Lx */\n      0x00\n        /* \".deps/github/succinctlabs/sp1-contracts/contracts/src/v3.0.0/Groth16Verifier.sol\":21382:21392  uint256 Ly */\n      0x00\n        /* \".deps/github/succinctlabs/sp1-contracts/contracts/src/v3.0.0/Groth16Verifier.sol\":21396:21417  publicInputMSM(input) */\n      tag_73\n        /* \".deps/github/succinctlabs/sp1-contracts/contracts/src/v3.0.0/Groth16Verifier.sol\":21411:21416  input */\n      dup13\n        /* \".deps/github/succinctlabs/sp1-contracts/contracts/src/v3.0.0/Groth16Verifier.sol\":21396:21410  publicInputMSM */\n      tag_55\n        /* \".deps/github/succinctlabs/sp1-contracts/contracts/src/v3.0.0/Groth16Verifier.sol\":21396:21417  publicInputMSM(input) */\n      jump\t// in\n    tag_73:\n        /* \".deps/github/succinctlabs/sp1-contracts/contracts/src/v3.0.0/Groth16Verifier.sol\":21369:21417  (uint256 Lx, uint256 Ly) = publicInputMSM(input) */\n      swap2\n      pop\n      swap2\n      pop\n        /* \".deps/github/succinctlabs/sp1-contracts/contracts/src/v3.0.0/Groth16Verifier.sol\":21693:21695  Ax */\n      dup10\n        /* \".deps/github/succinctlabs/sp1-contracts/contracts/src/v3.0.0/Groth16Verifier.sol\":21679:21687  pairings */\n      dup12\n        /* \".deps/github/succinctlabs/sp1-contracts/contracts/src/v3.0.0/Groth16Verifier.sol\":21688:21689  0 */\n      0x00\n        /* \".deps/github/succinctlabs/sp1-contracts/contracts/src/v3.0.0/Groth16Verifier.sol\":21679:21690  pairings[0] */\n      0x18\n      dup2\n      lt\n      tag_74\n      jumpi\n      tag_75\n      tag_26\n      jump\t// in\n    tag_75:\n    tag_74:\n      0x20\n      mul\n      add\n        /* \".deps/github/succinctlabs/sp1-contracts/contracts/src/v3.0.0/Groth16Verifier.sol\":21679:21695  pairings[0] = Ax */\n      dup2\n      dup2\n      mstore\n      pop\n      pop\n        /* \".deps/github/succinctlabs/sp1-contracts/contracts/src/v3.0.0/Groth16Verifier.sol\":21724:21726  Ay */\n      dup9\n        /* \".deps/github/succinctlabs/sp1-contracts/contracts/src/v3.0.0/Groth16Verifier.sol\":21710:21718  pairings */\n      dup12\n        /* \".deps/github/succinctlabs/sp1-contracts/contracts/src/v3.0.0/Groth16Verifier.sol\":21719:21720  1 */\n      0x01\n        /* \".deps/github/succinctlabs/sp1-contracts/contracts/src/v3.0.0/Groth16Verifier.sol\":21710:21721  pairings[1] */\n      0x18\n      dup2\n      lt\n      tag_76\n      jumpi\n      tag_77\n      tag_26\n      jump\t// in\n    tag_77:\n    tag_76:\n      0x20\n      mul\n      add\n        /* \".deps/github/succinctlabs/sp1-contracts/contracts/src/v3.0.0/Groth16Verifier.sol\":21710:21726  pairings[1] = Ay */\n      dup2\n      dup2\n      mstore\n      pop\n      pop\n        /* \".deps/github/succinctlabs/sp1-contracts/contracts/src/v3.0.0/Groth16Verifier.sol\":21755:21758  Bx1 */\n      dup7\n        /* \".deps/github/succinctlabs/sp1-contracts/contracts/src/v3.0.0/Groth16Verifier.sol\":21741:21749  pairings */\n      dup12\n        /* \".deps/github/succinctlabs/sp1-contracts/contracts/src/v3.0.0/Groth16Verifier.sol\":21750:21751  2 */\n      0x02\n        /* \".deps/github/succinctlabs/sp1-contracts/contracts/src/v3.0.0/Groth16Verifier.sol\":21741:21752  pairings[2] */\n      0x18\n      dup2\n      lt\n      tag_78\n      jumpi\n      tag_79\n      tag_26\n      jump\t// in\n    tag_79:\n    tag_78:\n      0x20\n      mul\n      add\n        /* \".deps/github/succinctlabs/sp1-contracts/contracts/src/v3.0.0/Groth16Verifier.sol\":21741:21758  pairings[2] = Bx1 */\n      dup2\n      dup2\n      mstore\n      pop\n      pop\n        /* \".deps/github/succinctlabs/sp1-contracts/contracts/src/v3.0.0/Groth16Verifier.sol\":21787:21790  Bx0 */\n      dup8\n        /* \".deps/github/succinctlabs/sp1-contracts/contracts/src/v3.0.0/Groth16Verifier.sol\":21773:21781  pairings */\n      dup12\n        /* \".deps/github/succinctlabs/sp1-contracts/contracts/src/v3.0.0/Groth16Verifier.sol\":21782:21783  3 */\n      0x03\n        /* \".deps/github/succinctlabs/sp1-contracts/contracts/src/v3.0.0/Groth16Verifier.sol\":21773:21784  pairings[3] */\n      0x18\n      dup2\n      lt\n      tag_80\n      jumpi\n      tag_81\n      tag_26\n      jump\t// in\n    tag_81:\n    tag_80:\n      0x20\n      mul\n      add\n        /* \".deps/github/succinctlabs/sp1-contracts/contracts/src/v3.0.0/Groth16Verifier.sol\":21773:21790  pairings[3] = Bx0 */\n      dup2\n      dup2\n      mstore\n      pop\n      pop\n        /* \".deps/github/succinctlabs/sp1-contracts/contracts/src/v3.0.0/Groth16Verifier.sol\":21819:21822  By1 */\n      dup5\n        /* \".deps/github/succinctlabs/sp1-contracts/contracts/src/v3.0.0/Groth16Verifier.sol\":21805:21813  pairings */\n      dup12\n        /* \".deps/github/succinctlabs/sp1-contracts/contracts/src/v3.0.0/Groth16Verifier.sol\":21814:21815  4 */\n      0x04\n        /* \".deps/github/succinctlabs/sp1-contracts/contracts/src/v3.0.0/Groth16Verifier.sol\":21805:21816  pairings[4] */\n      0x18\n      dup2\n      lt\n      tag_82\n      jumpi\n      tag_83\n      tag_26\n      jump\t// in\n    tag_83:\n    tag_82:\n      0x20\n      mul\n      add\n        /* \".deps/github/succinctlabs/sp1-contracts/contracts/src/v3.0.0/Groth16Verifier.sol\":21805:21822  pairings[4] = By1 */\n      dup2\n      dup2\n      mstore\n      pop\n      pop\n        /* \".deps/github/succinctlabs/sp1-contracts/contracts/src/v3.0.0/Groth16Verifier.sol\":21851:21854  By0 */\n      dup6\n        /* \".deps/github/succinctlabs/sp1-contracts/contracts/src/v3.0.0/Groth16Verifier.sol\":21837:21845  pairings */\n      dup12\n        /* \".deps/github/succinctlabs/sp1-contracts/contracts/src/v3.0.0/Groth16Verifier.sol\":21846:21847  5 */\n      0x05\n        /* \".deps/github/succinctlabs/sp1-contracts/contracts/src/v3.0.0/Groth16Verifier.sol\":21837:21848  pairings[5] */\n      0x18\n      dup2\n      lt\n      tag_84\n      jumpi\n      tag_85\n      tag_26\n      jump\t// in\n    tag_85:\n    tag_84:\n      0x20\n      mul\n      add\n        /* \".deps/github/succinctlabs/sp1-contracts/contracts/src/v3.0.0/Groth16Verifier.sol\":21837:21854  pairings[5] = By0 */\n      dup2\n      dup2\n      mstore\n      pop\n      pop\n        /* \".deps/github/succinctlabs/sp1-contracts/contracts/src/v3.0.0/Groth16Verifier.sol\":21909:21911  Cx */\n      dup4\n        /* \".deps/github/succinctlabs/sp1-contracts/contracts/src/v3.0.0/Groth16Verifier.sol\":21895:21903  pairings */\n      dup12\n        /* \".deps/github/succinctlabs/sp1-contracts/contracts/src/v3.0.0/Groth16Verifier.sol\":21904:21905  6 */\n      0x06\n        /* \".deps/github/succinctlabs/sp1-contracts/contracts/src/v3.0.0/Groth16Verifier.sol\":21895:21906  pairings[6] */\n      0x18\n      dup2\n      lt\n      tag_86\n      jumpi\n      tag_87\n      tag_26\n      jump\t// in\n    tag_87:\n    tag_86:\n      0x20\n      mul\n      add\n        /* \".deps/github/succinctlabs/sp1-contracts/contracts/src/v3.0.0/Groth16Verifier.sol\":21895:21911  pairings[6] = Cx */\n      dup2\n      dup2\n      mstore\n      pop\n      pop\n        /* \".deps/github/succinctlabs/sp1-contracts/contracts/src/v3.0.0/Groth16Verifier.sol\":21940:21942  Cy */\n      dup3\n        /* \".deps/github/succinctlabs/sp1-contracts/contracts/src/v3.0.0/Groth16Verifier.sol\":21926:21934  pairings */\n      dup12\n        /* \".deps/github/succinctlabs/sp1-contracts/contracts/src/v3.0.0/Groth16Verifier.sol\":21935:21936  7 */\n      0x07\n        /* \".deps/github/succinctlabs/sp1-contracts/contracts/src/v3.0.0/Groth16Verifier.sol\":21926:21937  pairings[7] */\n      0x18\n      dup2\n      lt\n      tag_88\n      jumpi\n      tag_89\n      tag_26\n      jump\t// in\n    tag_89:\n    tag_88:\n      0x20\n      mul\n      add\n        /* \".deps/github/succinctlabs/sp1-contracts/contracts/src/v3.0.0/Groth16Verifier.sol\":21926:21942  pairings[7] = Cy */\n      dup2\n      dup2\n      mstore\n      pop\n      pop\n        /* \".deps/github/succinctlabs/sp1-contracts/contracts/src/v3.0.0/Groth16Verifier.sol\":4363:4440  15228921016905275799965683851057599185732146900672862119304638397355443707454 */\n      0x21ab438b0ad9688f8d9afc96ed0ab25e6ab7f19ed6f7d58a9dc136d68de55e3e\n        /* \".deps/github/succinctlabs/sp1-contracts/contracts/src/v3.0.0/Groth16Verifier.sol\":21957:21965  pairings */\n      dup12\n        /* \".deps/github/succinctlabs/sp1-contracts/contracts/src/v3.0.0/Groth16Verifier.sol\":21966:21967  8 */\n      0x08\n        /* \".deps/github/succinctlabs/sp1-contracts/contracts/src/v3.0.0/Groth16Verifier.sol\":21957:21968  pairings[8] */\n      0x18\n      dup2\n      lt\n      tag_90\n      jumpi\n      tag_91\n      tag_26\n      jump\t// in\n    tag_91:\n    tag_90:\n      0x20\n      mul\n      add\n        /* \".deps/github/succinctlabs/sp1-contracts/contracts/src/v3.0.0/Groth16Verifier.sol\":21957:21984  pairings[8] = DELTA_NEG_X_1 */\n      dup2\n      dup2\n      mstore\n      pop\n      pop\n        /* \".deps/github/succinctlabs/sp1-contracts/contracts/src/v3.0.0/Groth16Verifier.sol\":4237:4314  20409334339251888712441068872870136503388893688417321778880931483231354129143 */\n      0x2d1f461ca03a65528393919e9e412f6b82d7096e44fa039bd7642a5112188af7\n        /* \".deps/github/succinctlabs/sp1-contracts/contracts/src/v3.0.0/Groth16Verifier.sol\":21999:22007  pairings */\n      dup12\n        /* \".deps/github/succinctlabs/sp1-contracts/contracts/src/v3.0.0/Groth16Verifier.sol\":22008:22009  9 */\n      0x09\n        /* \".deps/github/succinctlabs/sp1-contracts/contracts/src/v3.0.0/Groth16Verifier.sol\":21999:22010  pairings[9] */\n      0x18\n      dup2\n      lt\n      tag_92\n      jumpi\n      tag_93\n      tag_26\n      jump\t// in\n    tag_93:\n    tag_92:\n      0x20\n      mul\n      add\n        /* \".deps/github/succinctlabs/sp1-contracts/contracts/src/v3.0.0/Groth16Verifier.sol\":21999:22026  pairings[9] = DELTA_NEG_X_0 */\n      dup2\n      dup2\n      mstore\n      pop\n      pop\n        /* \".deps/github/succinctlabs/sp1-contracts/contracts/src/v3.0.0/Groth16Verifier.sol\":4615:4691  7264328423023871043957062501982202910010974353266020262517510882033855725085 */\n      0x100f76d4ac45886c1334d58716121dc0ffa8463738f3f2adf793e15b8ecd7e1d\n        /* \".deps/github/succinctlabs/sp1-contracts/contracts/src/v3.0.0/Groth16Verifier.sol\":22041:22049  pairings */\n      dup12\n        /* \".deps/github/succinctlabs/sp1-contracts/contracts/src/v3.0.0/Groth16Verifier.sol\":22050:22052  10 */\n      0x0a\n        /* \".deps/github/succinctlabs/sp1-contracts/contracts/src/v3.0.0/Groth16Verifier.sol\":22041:22053  pairings[10] */\n      0x18\n      dup2\n      lt\n      tag_94\n      jumpi\n      tag_95\n      tag_26\n      jump\t// in\n    tag_95:\n    tag_94:\n      0x20\n      mul\n      add\n        /* \".deps/github/succinctlabs/sp1-contracts/contracts/src/v3.0.0/Groth16Verifier.sol\":22041:22069  pairings[10] = DELTA_NEG_Y_1 */\n      dup2\n      dup2\n      mstore\n      pop\n      pop\n        /* \".deps/github/succinctlabs/sp1-contracts/contracts/src/v3.0.0/Groth16Verifier.sol\":4489:4566  19877240297427940090516929163964707799250026674662843458659550601453241207282 */\n      0x2bf21e8bb2f9419034373c2156cdd7bddf273519dcd7f674ef21e2748ced89f2\n        /* \".deps/github/succinctlabs/sp1-contracts/contracts/src/v3.0.0/Groth16Verifier.sol\":22084:22092  pairings */\n      dup12\n        /* \".deps/github/succinctlabs/sp1-contracts/contracts/src/v3.0.0/Groth16Verifier.sol\":22093:22095  11 */\n      0x0b\n        /* \".deps/github/succinctlabs/sp1-contracts/contracts/src/v3.0.0/Groth16Verifier.sol\":22084:22096  pairings[11] */\n      0x18\n      dup2\n      lt\n      tag_96\n      jumpi\n      tag_97\n      tag_26\n      jump\t// in\n    tag_97:\n    tag_96:\n      0x20\n      mul\n      add\n        /* \".deps/github/succinctlabs/sp1-contracts/contracts/src/v3.0.0/Groth16Verifier.sol\":22084:22112  pairings[11] = DELTA_NEG_Y_0 */\n      dup2\n      dup2\n      mstore\n      pop\n      pop\n        /* \".deps/github/succinctlabs/sp1-contracts/contracts/src/v3.0.0/Groth16Verifier.sol\":2841:2918  20491192805390485299153009773594534940189261866228447918068658471970481763042 */\n      0x2d4d9aa7e302d9df41749d5507949d05dbea33fbb16c643b22f599a2be6df2e2\n        /* \".deps/github/succinctlabs/sp1-contracts/contracts/src/v3.0.0/Groth16Verifier.sol\":22154:22162  pairings */\n      dup12\n        /* \".deps/github/succinctlabs/sp1-contracts/contracts/src/v3.0.0/Groth16Verifier.sol\":22163:22165  12 */\n      0x0c\n        /* \".deps/github/succinctlabs/sp1-contracts/contracts/src/v3.0.0/Groth16Verifier.sol\":22154:22166  pairings[12] */\n      0x18\n      dup2\n      lt\n      tag_98\n      jumpi\n      tag_99\n      tag_26\n      jump\t// in\n    tag_99:\n    tag_98:\n      0x20\n      mul\n      add\n        /* \".deps/github/succinctlabs/sp1-contracts/contracts/src/v3.0.0/Groth16Verifier.sol\":22154:22176  pairings[12] = ALPHA_X */\n      dup2\n      dup2\n      mstore\n      pop\n      pop\n        /* \".deps/github/succinctlabs/sp1-contracts/contracts/src/v3.0.0/Groth16Verifier.sol\":2961:3037  9383485363053290200918347156157836566562967994039712273449902621266178545958 */\n      0x14bedd503c37ceb061d8ec60209fe345ce89830a19230301f076caff004d1926\n        /* \".deps/github/succinctlabs/sp1-contracts/contracts/src/v3.0.0/Groth16Verifier.sol\":22191:22199  pairings */\n      dup12\n        /* \".deps/github/succinctlabs/sp1-contracts/contracts/src/v3.0.0/Groth16Verifier.sol\":22200:22202  13 */\n      0x0d\n        /* \".deps/github/succinctlabs/sp1-contracts/contracts/src/v3.0.0/Groth16Verifier.sol\":22191:22203  pairings[13] */\n      0x18\n      dup2\n      lt\n      tag_100\n      jumpi\n      tag_101\n      tag_26\n      jump\t// in\n    tag_101:\n    tag_100:\n      0x20\n      mul\n      add\n        /* \".deps/github/succinctlabs/sp1-contracts/contracts/src/v3.0.0/Groth16Verifier.sol\":22191:22213  pairings[13] = ALPHA_Y */\n      dup2\n      dup2\n      mstore\n      pop\n      pop\n        /* \".deps/github/succinctlabs/sp1-contracts/contracts/src/v3.0.0/Groth16Verifier.sol\":3259:3335  4252822878758300859123897981450591353533073413197771768651442665752259397132 */\n      0x0967032fcbf776d1afc985f88877f182d38480a653f2decaa9794cbc3bf3060c\n        /* \".deps/github/succinctlabs/sp1-contracts/contracts/src/v3.0.0/Groth16Verifier.sol\":22228:22236  pairings */\n      dup12\n        /* \".deps/github/succinctlabs/sp1-contracts/contracts/src/v3.0.0/Groth16Verifier.sol\":22237:22239  14 */\n      0x0e\n        /* \".deps/github/succinctlabs/sp1-contracts/contracts/src/v3.0.0/Groth16Verifier.sol\":22228:22240  pairings[14] */\n      0x18\n      dup2\n      lt\n      tag_102\n      jumpi\n      tag_103\n      tag_26\n      jump\t// in\n    tag_103:\n    tag_102:\n      0x20\n      mul\n      add\n        /* \".deps/github/succinctlabs/sp1-contracts/contracts/src/v3.0.0/Groth16Verifier.sol\":22228:22255  pairings[14] = BETA_NEG_X_1 */\n      dup2\n      dup2\n      mstore\n      pop\n      pop\n        /* \".deps/github/succinctlabs/sp1-contracts/contracts/src/v3.0.0/Groth16Verifier.sol\":3135:3211  6375614351688725206403948262868962793625744043794305715222011528459656738731 */\n      0x0e187847ad4c798374d0d6732bf501847dd68bc0e071241e0213bc7fc13db7ab\n        /* \".deps/github/succinctlabs/sp1-contracts/contracts/src/v3.0.0/Groth16Verifier.sol\":22270:22278  pairings */\n      dup12\n        /* \".deps/github/succinctlabs/sp1-contracts/contracts/src/v3.0.0/Groth16Verifier.sol\":22279:22281  15 */\n      0x0f\n        /* \".deps/github/succinctlabs/sp1-contracts/contracts/src/v3.0.0/Groth16Verifier.sol\":22270:22282  pairings[15] */\n      0x18\n      dup2\n      lt\n      tag_104\n      jumpi\n      tag_105\n      tag_26\n      jump\t// in\n    tag_105:\n    tag_104:\n      0x20\n      mul\n      add\n        /* \".deps/github/succinctlabs/sp1-contracts/contracts/src/v3.0.0/Groth16Verifier.sol\":22270:22297  pairings[15] = BETA_NEG_X_0 */\n      dup2\n      dup2\n      mstore\n      pop\n      pop\n        /* \".deps/github/succinctlabs/sp1-contracts/contracts/src/v3.0.0/Groth16Verifier.sol\":3508:3582  41207766310529818958173054109690360505148424997958324311878202295167071904 */\n      0x1752a100a72fdf1e5a5d6ea841cc20ec838bccfcf7bd559e79f1c9c759b6a0\n        /* \".deps/github/succinctlabs/sp1-contracts/contracts/src/v3.0.0/Groth16Verifier.sol\":22312:22320  pairings */\n      dup12\n        /* \".deps/github/succinctlabs/sp1-contracts/contracts/src/v3.0.0/Groth16Verifier.sol\":22321:22323  16 */\n      0x10\n        /* \".deps/github/succinctlabs/sp1-contracts/contracts/src/v3.0.0/Groth16Verifier.sol\":22312:22324  pairings[16] */\n      0x18\n      dup2\n      lt\n      tag_106\n      jumpi\n      tag_107\n      tag_26\n      jump\t// in\n    tag_107:\n    tag_106:\n      0x20\n      mul\n      add\n        /* \".deps/github/succinctlabs/sp1-contracts/contracts/src/v3.0.0/Groth16Verifier.sol\":22312:22339  pairings[16] = BETA_NEG_Y_1 */\n      dup2\n      dup2\n      mstore\n      pop\n      pop\n        /* \".deps/github/succinctlabs/sp1-contracts/contracts/src/v3.0.0/Groth16Verifier.sol\":3383:3460  11383000245469012944693504663162918391286475477077232690815866754273895001727 */\n      0x192a8cc13cd9f762871f21e43451c6ca9eeab2cb2987c4e366a185c25dac2e7f\n        /* \".deps/github/succinctlabs/sp1-contracts/contracts/src/v3.0.0/Groth16Verifier.sol\":22354:22362  pairings */\n      dup12\n        /* \".deps/github/succinctlabs/sp1-contracts/contracts/src/v3.0.0/Groth16Verifier.sol\":22363:22365  17 */\n      0x11\n        /* \".deps/github/succinctlabs/sp1-contracts/contracts/src/v3.0.0/Groth16Verifier.sol\":22354:22366  pairings[17] */\n      0x18\n      dup2\n      lt\n      tag_108\n      jumpi\n      tag_109\n      tag_26\n      jump\t// in\n    tag_109:\n    tag_108:\n      0x20\n      mul\n      add\n        /* \".deps/github/succinctlabs/sp1-contracts/contracts/src/v3.0.0/Groth16Verifier.sol\":22354:22381  pairings[17] = BETA_NEG_Y_0 */\n      dup2\n      dup2\n      mstore\n      pop\n      pop\n        /* \".deps/github/succinctlabs/sp1-contracts/contracts/src/v3.0.0/Groth16Verifier.sol\":22441:22443  Lx */\n      dup2\n        /* \".deps/github/succinctlabs/sp1-contracts/contracts/src/v3.0.0/Groth16Verifier.sol\":22426:22434  pairings */\n      dup12\n        /* \".deps/github/succinctlabs/sp1-contracts/contracts/src/v3.0.0/Groth16Verifier.sol\":22435:22437  18 */\n      0x12\n        /* \".deps/github/succinctlabs/sp1-contracts/contracts/src/v3.0.0/Groth16Verifier.sol\":22426:22438  pairings[18] */\n      0x18\n      dup2\n      lt\n      tag_110\n      jumpi\n      tag_111\n      tag_26\n      jump\t// in\n    tag_111:\n    tag_110:\n      0x20\n      mul\n      add\n        /* \".deps/github/succinctlabs/sp1-contracts/contracts/src/v3.0.0/Groth16Verifier.sol\":22426:22443  pairings[18] = Lx */\n      dup2\n      dup2\n      mstore\n      pop\n      pop\n        /* \".deps/github/succinctlabs/sp1-contracts/contracts/src/v3.0.0/Groth16Verifier.sol\":22473:22475  Ly */\n      dup1\n        /* \".deps/github/succinctlabs/sp1-contracts/contracts/src/v3.0.0/Groth16Verifier.sol\":22458:22466  pairings */\n      dup12\n        /* \".deps/github/succinctlabs/sp1-contracts/contracts/src/v3.0.0/Groth16Verifier.sol\":22467:22469  19 */\n      0x13\n        /* \".deps/github/succinctlabs/sp1-contracts/contracts/src/v3.0.0/Groth16Verifier.sol\":22458:22470  pairings[19] */\n      0x18\n      dup2\n      lt\n      tag_112\n      jumpi\n      tag_113\n      tag_26\n      jump\t// in\n    tag_113:\n    tag_112:\n      0x20\n      mul\n      add\n        /* \".deps/github/succinctlabs/sp1-contracts/contracts/src/v3.0.0/Groth16Verifier.sol\":22458:22475  pairings[19] = Ly */\n      dup2\n      dup2\n      mstore\n      pop\n      pop\n        /* \".deps/github/succinctlabs/sp1-contracts/contracts/src/v3.0.0/Groth16Verifier.sol\":3808:3885  11559732032986387107991004021392285783925812861821192530917403151452391805634 */\n      0x198e9393920d483a7260bfb731fb5d25f1aa493335a9e71297e485b7aef312c2\n        /* \".deps/github/succinctlabs/sp1-contracts/contracts/src/v3.0.0/Groth16Verifier.sol\":22490:22498  pairings */\n      dup12\n        /* \".deps/github/succinctlabs/sp1-contracts/contracts/src/v3.0.0/Groth16Verifier.sol\":22499:22501  20 */\n      0x14\n        /* \".deps/github/succinctlabs/sp1-contracts/contracts/src/v3.0.0/Groth16Verifier.sol\":22490:22502  pairings[20] */\n      0x18\n      dup2\n      lt\n      tag_114\n      jumpi\n      tag_115\n      tag_26\n      jump\t// in\n    tag_115:\n    tag_114:\n      0x20\n      mul\n      add\n        /* \".deps/github/succinctlabs/sp1-contracts/contracts/src/v3.0.0/Groth16Verifier.sol\":22490:22518  pairings[20] = GAMMA_NEG_X_1 */\n      dup2\n      dup2\n      mstore\n      pop\n      pop\n        /* \".deps/github/succinctlabs/sp1-contracts/contracts/src/v3.0.0/Groth16Verifier.sol\":3682:3759  10857046999023057135944570762232829481370756359578518086990519993285655852781 */\n      0x1800deef121f1e76426a00665e5c4479674322d4f75edadd46debd5cd992f6ed\n        /* \".deps/github/succinctlabs/sp1-contracts/contracts/src/v3.0.0/Groth16Verifier.sol\":22533:22541  pairings */\n      dup12\n        /* \".deps/github/succinctlabs/sp1-contracts/contracts/src/v3.0.0/Groth16Verifier.sol\":22542:22544  21 */\n      0x15\n        /* \".deps/github/succinctlabs/sp1-contracts/contracts/src/v3.0.0/Groth16Verifier.sol\":22533:22545  pairings[21] */\n      0x18\n      dup2\n      lt\n      tag_116\n      jumpi\n      tag_117\n      tag_26\n      jump\t// in\n    tag_117:\n    tag_116:\n      0x20\n      mul\n      add\n        /* \".deps/github/succinctlabs/sp1-contracts/contracts/src/v3.0.0/Groth16Verifier.sol\":22533:22561  pairings[21] = GAMMA_NEG_X_0 */\n      dup2\n      dup2\n      mstore\n      pop\n      pop\n        /* \".deps/github/succinctlabs/sp1-contracts/contracts/src/v3.0.0/Groth16Verifier.sol\":4060:4137  17805874995975841540914202342111839520379459829704422454583296818431106115052 */\n      0x275dc4a288d1afb3cbb1ac09187524c7db36395df7be3b99e673b13a075a65ec\n        /* \".deps/github/succinctlabs/sp1-contracts/contracts/src/v3.0.0/Groth16Verifier.sol\":22576:22584  pairings */\n      dup12\n        /* \".deps/github/succinctlabs/sp1-contracts/contracts/src/v3.0.0/Groth16Verifier.sol\":22585:22587  22 */\n      0x16\n        /* \".deps/github/succinctlabs/sp1-contracts/contracts/src/v3.0.0/Groth16Verifier.sol\":22576:22588  pairings[22] */\n      0x18\n      dup2\n      lt\n      tag_118\n      jumpi\n      tag_119\n      tag_26\n      jump\t// in\n    tag_119:\n    tag_118:\n      0x20\n      mul\n      add\n        /* \".deps/github/succinctlabs/sp1-contracts/contracts/src/v3.0.0/Groth16Verifier.sol\":22576:22604  pairings[22] = GAMMA_NEG_Y_1 */\n      dup2\n      dup2\n      mstore\n      pop\n      pop\n        /* \".deps/github/succinctlabs/sp1-contracts/contracts/src/v3.0.0/Groth16Verifier.sol\":3934:4011  13392588948715843804641432497768002650278120570034223513918757245338268106653 */\n      0x1d9befcd05a5323e6da4d435f3b617cdb3af83285c2df711ef39c01571827f9d\n        /* \".deps/github/succinctlabs/sp1-contracts/contracts/src/v3.0.0/Groth16Verifier.sol\":22619:22627  pairings */\n      dup12\n        /* \".deps/github/succinctlabs/sp1-contracts/contracts/src/v3.0.0/Groth16Verifier.sol\":22628:22630  23 */\n      0x17\n        /* \".deps/github/succinctlabs/sp1-contracts/contracts/src/v3.0.0/Groth16Verifier.sol\":22619:22631  pairings[23] */\n      0x18\n      dup2\n      lt\n      tag_120\n      jumpi\n      tag_121\n      tag_26\n      jump\t// in\n    tag_121:\n    tag_120:\n      0x20\n      mul\n      add\n        /* \".deps/github/succinctlabs/sp1-contracts/contracts/src/v3.0.0/Groth16Verifier.sol\":22619:22647  pairings[23] = GAMMA_NEG_Y_0 */\n      dup2\n      dup2\n      mstore\n      pop\n      pop\n        /* \".deps/github/succinctlabs/sp1-contracts/contracts/src/v3.0.0/Groth16Verifier.sol\":22704:22716  bool success */\n      0x00\n        /* \".deps/github/succinctlabs/sp1-contracts/contracts/src/v3.0.0/Groth16Verifier.sol\":22731:22755  uint256[1] memory output */\n      tag_122\n      tag_123\n      jump\t// in\n    tag_122:\n        /* \".deps/github/succinctlabs/sp1-contracts/contracts/src/v3.0.0/Groth16Verifier.sol\":22887:22891  0x20 */\n      0x20\n        /* \".deps/github/succinctlabs/sp1-contracts/contracts/src/v3.0.0/Groth16Verifier.sol\":22879:22885  output */\n      dup2\n        /* \".deps/github/succinctlabs/sp1-contracts/contracts/src/v3.0.0/Groth16Verifier.sol\":22872:22877  0x300 */\n      0x0300\n        /* \".deps/github/succinctlabs/sp1-contracts/contracts/src/v3.0.0/Groth16Verifier.sol\":22862:22870  pairings */\n      dup16\n        /* \".deps/github/succinctlabs/sp1-contracts/contracts/src/v3.0.0/Groth16Verifier.sol\":22843:22860  PRECOMPILE_VERIFY */\n      0x08\n        /* \".deps/github/succinctlabs/sp1-contracts/contracts/src/v3.0.0/Groth16Verifier.sol\":22836:22841  gas() */\n      gas\n        /* \".deps/github/succinctlabs/sp1-contracts/contracts/src/v3.0.0/Groth16Verifier.sol\":22825:22892  staticcall(gas(), PRECOMPILE_VERIFY, pairings, 0x300, output, 0x20) */\n      staticcall\n        /* \".deps/github/succinctlabs/sp1-contracts/contracts/src/v3.0.0/Groth16Verifier.sol\":22814:22892  success := staticcall(gas(), PRECOMPILE_VERIFY, pairings, 0x300, output, 0x20) */\n      swap2\n      pop\n        /* \".deps/github/succinctlabs/sp1-contracts/contracts/src/v3.0.0/Groth16Verifier.sol\":22926:22933  success */\n      dup2\n        /* \".deps/github/succinctlabs/sp1-contracts/contracts/src/v3.0.0/Groth16Verifier.sol\":22925:22933  !success */\n      iszero\n        /* \".deps/github/succinctlabs/sp1-contracts/contracts/src/v3.0.0/Groth16Verifier.sol\":22925:22951  !success || output[0] != 1 */\n      dup1\n      tag_124\n      jumpi\n      pop\n        /* \".deps/github/succinctlabs/sp1-contracts/contracts/src/v3.0.0/Groth16Verifier.sol\":22950:22951  1 */\n      0x01\n        /* \".deps/github/succinctlabs/sp1-contracts/contracts/src/v3.0.0/Groth16Verifier.sol\":22937:22943  output */\n      dup2\n        /* \".deps/github/succinctlabs/sp1-contracts/contracts/src/v3.0.0/Groth16Verifier.sol\":22944:22945  0 */\n      0x00\n        /* \".deps/github/succinctlabs/sp1-contracts/contracts/src/v3.0.0/Groth16Verifier.sol\":22937:22946  output[0] */\n      0x01\n      dup2\n      lt\n      tag_125\n      jumpi\n      tag_126\n      tag_26\n      jump\t// in\n    tag_126:\n    tag_125:\n      0x20\n      mul\n      add\n      mload\n        /* \".deps/github/succinctlabs/sp1-contracts/contracts/src/v3.0.0/Groth16Verifier.sol\":22937:22951  output[0] != 1 */\n      eq\n      iszero\n        /* \".deps/github/succinctlabs/sp1-contracts/contracts/src/v3.0.0/Groth16Verifier.sol\":22925:22951  !success || output[0] != 1 */\n    tag_124:\n        /* \".deps/github/succinctlabs/sp1-contracts/contracts/src/v3.0.0/Groth16Verifier.sol\":22921:23172  if (!success || output[0] != 1) {... */\n      iszero\n      tag_127\n      jumpi\n        /* \".deps/github/succinctlabs/sp1-contracts/contracts/src/v3.0.0/Groth16Verifier.sol\":23142:23156  ProofInvalid() */\n      mload(0x40)\n      0x7fcdd1f400000000000000000000000000000000000000000000000000000000\n      dup2\n      mstore\n      0x04\n      add\n      mload(0x40)\n      dup1\n      swap2\n      sub\n      swap1\n      revert\n        /* \".deps/github/succinctlabs/sp1-contracts/contracts/src/v3.0.0/Groth16Verifier.sol\":22921:23172  if (!success || output[0] != 1) {... */\n    tag_127:\n        /* \".deps/github/succinctlabs/sp1-contracts/contracts/src/v3.0.0/Groth16Verifier.sol\":21064:23183  {... */\n      pop\n      pop\n      pop\n      pop\n      pop\n      pop\n      pop\n      pop\n      pop\n      pop\n      pop\n      pop\n        /* \".deps/github/succinctlabs/sp1-contracts/contracts/src/v3.0.0/Groth16Verifier.sol\":21013:23190  {... */\n      pop\n        /* \".deps/github/succinctlabs/sp1-contracts/contracts/src/v3.0.0/Groth16Verifier.sol\":20883:23190  function verifyCompressedProof(uint256[4] calldata compressedProof, uint256[2] calldata input)... */\n      pop\n      pop\n      jump\t// out\n        /* \".deps/github/succinctlabs/sp1-contracts/contracts/src/v3.0.0/Groth16Verifier.sol\":10224:10944  function compress_g1(uint256 x, uint256 y) internal view returns (uint256 c) {... */\n    tag_29:\n        /* \".deps/github/succinctlabs/sp1-contracts/contracts/src/v3.0.0/Groth16Verifier.sol\":10290:10299  uint256 c */\n      0x00\n        /* \".deps/github/succinctlabs/sp1-contracts/contracts/src/v3.0.0/Groth16Verifier.sol\":1427:1493  0x30644e72e131a029b85045b68181585d97816a916871ca8d3c208c16d87cfd47 */\n      0x30644e72e131a029b85045b68181585d97816a916871ca8d3c208c16d87cfd47\n        /* \".deps/github/succinctlabs/sp1-contracts/contracts/src/v3.0.0/Groth16Verifier.sol\":10316:10317  x */\n      dup4\n        /* \".deps/github/succinctlabs/sp1-contracts/contracts/src/v3.0.0/Groth16Verifier.sol\":10316:10322  x >= P */\n      lt\n      iszero\n        /* \".deps/github/succinctlabs/sp1-contracts/contracts/src/v3.0.0/Groth16Verifier.sol\":10316:10332  x >= P || y >= P */\n      dup1\n      tag_129\n      jumpi\n      pop\n        /* \".deps/github/succinctlabs/sp1-contracts/contracts/src/v3.0.0/Groth16Verifier.sol\":1427:1493  0x30644e72e131a029b85045b68181585d97816a916871ca8d3c208c16d87cfd47 */\n      0x30644e72e131a029b85045b68181585d97816a916871ca8d3c208c16d87cfd47\n        /* \".deps/github/succinctlabs/sp1-contracts/contracts/src/v3.0.0/Groth16Verifier.sol\":10326:10327  y */\n      dup3\n        /* \".deps/github/succinctlabs/sp1-contracts/contracts/src/v3.0.0/Groth16Verifier.sol\":10326:10332  y >= P */\n      lt\n      iszero\n        /* \".deps/github/succinctlabs/sp1-contracts/contracts/src/v3.0.0/Groth16Verifier.sol\":10316:10332  x >= P || y >= P */\n    tag_129:\n        /* \".deps/github/succinctlabs/sp1-contracts/contracts/src/v3.0.0/Groth16Verifier.sol\":10312:10421  if (x >= P || y >= P) {... */\n      iszero\n      tag_130\n      jumpi\n        /* \".deps/github/succinctlabs/sp1-contracts/contracts/src/v3.0.0/Groth16Verifier.sol\":10395:10409  ProofInvalid() */\n      mload(0x40)\n      0x7fcdd1f400000000000000000000000000000000000000000000000000000000\n      dup2\n      mstore\n      0x04\n      add\n      mload(0x40)\n      dup1\n      swap2\n      sub\n      swap1\n      revert\n        /* \".deps/github/succinctlabs/sp1-contracts/contracts/src/v3.0.0/Groth16Verifier.sol\":10312:10421  if (x >= P || y >= P) {... */\n    tag_130:\n        /* \".deps/github/succinctlabs/sp1-contracts/contracts/src/v3.0.0/Groth16Verifier.sol\":10440:10441  0 */\n      0x00\n        /* \".deps/github/succinctlabs/sp1-contracts/contracts/src/v3.0.0/Groth16Verifier.sol\":10435:10436  x */\n      dup4\n        /* \".deps/github/succinctlabs/sp1-contracts/contracts/src/v3.0.0/Groth16Verifier.sol\":10435:10441  x == 0 */\n      eq\n        /* \".deps/github/succinctlabs/sp1-contracts/contracts/src/v3.0.0/Groth16Verifier.sol\":10435:10451  x == 0 && y == 0 */\n      dup1\n      iszero\n      tag_131\n      jumpi\n      pop\n        /* \".deps/github/succinctlabs/sp1-contracts/contracts/src/v3.0.0/Groth16Verifier.sol\":10450:10451  0 */\n      0x00\n        /* \".deps/github/succinctlabs/sp1-contracts/contracts/src/v3.0.0/Groth16Verifier.sol\":10445:10446  y */\n      dup3\n        /* \".deps/github/succinctlabs/sp1-contracts/contracts/src/v3.0.0/Groth16Verifier.sol\":10445:10451  y == 0 */\n      eq\n        /* \".deps/github/succinctlabs/sp1-contracts/contracts/src/v3.0.0/Groth16Verifier.sol\":10435:10451  x == 0 && y == 0 */\n    tag_131:\n        /* \".deps/github/succinctlabs/sp1-contracts/contracts/src/v3.0.0/Groth16Verifier.sol\":10431:10522  if (x == 0 && y == 0) {... */\n      iszero\n      tag_132\n      jumpi\n        /* \".deps/github/succinctlabs/sp1-contracts/contracts/src/v3.0.0/Groth16Verifier.sol\":10509:10510  0 */\n      0x00\n        /* \".deps/github/succinctlabs/sp1-contracts/contracts/src/v3.0.0/Groth16Verifier.sol\":10502:10510  return 0 */\n      swap1\n      pop\n      jump(tag_128)\n        /* \".deps/github/succinctlabs/sp1-contracts/contracts/src/v3.0.0/Groth16Verifier.sol\":10431:10522  if (x == 0 && y == 0) {... */\n    tag_132:\n        /* \".deps/github/succinctlabs/sp1-contracts/contracts/src/v3.0.0/Groth16Verifier.sol\":10627:10640  uint256 y_pos */\n      0x00\n        /* \".deps/github/succinctlabs/sp1-contracts/contracts/src/v3.0.0/Groth16Verifier.sol\":10643:10695  sqrt_Fp(addmod(mulmod(mulmod(x, x, P), x, P), 3, P)) */\n      tag_133\n        /* \".deps/github/succinctlabs/sp1-contracts/contracts/src/v3.0.0/Groth16Verifier.sol\":1427:1493  0x30644e72e131a029b85045b68181585d97816a916871ca8d3c208c16d87cfd47 */\n      0x30644e72e131a029b85045b68181585d97816a916871ca8d3c208c16d87cfd47\n        /* \".deps/github/succinctlabs/sp1-contracts/contracts/src/v3.0.0/Groth16Verifier.sol\":10651:10694  addmod(mulmod(mulmod(x, x, P), x, P), 3, P) */\n      dup1\n      tag_134\n      jumpi\n      tag_135\n      tag_136\n      jump\t// in\n    tag_135:\n    tag_134:\n        /* \".deps/github/succinctlabs/sp1-contracts/contracts/src/v3.0.0/Groth16Verifier.sol\":10689:10690  3 */\n      0x03\n        /* \".deps/github/succinctlabs/sp1-contracts/contracts/src/v3.0.0/Groth16Verifier.sol\":1427:1493  0x30644e72e131a029b85045b68181585d97816a916871ca8d3c208c16d87cfd47 */\n      0x30644e72e131a029b85045b68181585d97816a916871ca8d3c208c16d87cfd47\n        /* \".deps/github/succinctlabs/sp1-contracts/contracts/src/v3.0.0/Groth16Verifier.sol\":10658:10687  mulmod(mulmod(x, x, P), x, P) */\n      dup1\n      tag_137\n      jumpi\n      tag_138\n      tag_136\n      jump\t// in\n    tag_138:\n    tag_137:\n        /* \".deps/github/succinctlabs/sp1-contracts/contracts/src/v3.0.0/Groth16Verifier.sol\":10682:10683  x */\n      dup8\n        /* \".deps/github/succinctlabs/sp1-contracts/contracts/src/v3.0.0/Groth16Verifier.sol\":1427:1493  0x30644e72e131a029b85045b68181585d97816a916871ca8d3c208c16d87cfd47 */\n      0x30644e72e131a029b85045b68181585d97816a916871ca8d3c208c16d87cfd47\n        /* \".deps/github/succinctlabs/sp1-contracts/contracts/src/v3.0.0/Groth16Verifier.sol\":10665:10680  mulmod(x, x, P) */\n      dup1\n      tag_139\n      jumpi\n      tag_140\n      tag_136\n      jump\t// in\n    tag_140:\n    tag_139:\n        /* \".deps/github/succinctlabs/sp1-contracts/contracts/src/v3.0.0/Groth16Verifier.sol\":10675:10676  x */\n      dup10\n        /* \".deps/github/succinctlabs/sp1-contracts/contracts/src/v3.0.0/Groth16Verifier.sol\":10672:10673  x */\n      dup11\n        /* \".deps/github/succinctlabs/sp1-contracts/contracts/src/v3.0.0/Groth16Verifier.sol\":10665:10680  mulmod(x, x, P) */\n      mulmod\n        /* \".deps/github/succinctlabs/sp1-contracts/contracts/src/v3.0.0/Groth16Verifier.sol\":10658:10687  mulmod(mulmod(x, x, P), x, P) */\n      mulmod\n        /* \".deps/github/succinctlabs/sp1-contracts/contracts/src/v3.0.0/Groth16Verifier.sol\":10651:10694  addmod(mulmod(mulmod(x, x, P), x, P), 3, P) */\n      addmod\n        /* \".deps/github/succinctlabs/sp1-contracts/contracts/src/v3.0.0/Groth16Verifier.sol\":10643:10650  sqrt_Fp */\n      tag_141\n        /* \".deps/github/succinctlabs/sp1-contracts/contracts/src/v3.0.0/Groth16Verifier.sol\":10643:10695  sqrt_Fp(addmod(mulmod(mulmod(x, x, P), x, P), 3, P)) */\n      jump\t// in\n    tag_133:\n        /* \".deps/github/succinctlabs/sp1-contracts/contracts/src/v3.0.0/Groth16Verifier.sol\":10627:10695  uint256 y_pos = sqrt_Fp(addmod(mulmod(mulmod(x, x, P), x, P), 3, P)) */\n      swap1\n      pop\n        /* \".deps/github/succinctlabs/sp1-contracts/contracts/src/v3.0.0/Groth16Verifier.sol\":10715:10720  y_pos */\n      dup1\n        /* \".deps/github/succinctlabs/sp1-contracts/contracts/src/v3.0.0/Groth16Verifier.sol\":10710:10711  y */\n      dup4\n        /* \".deps/github/succinctlabs/sp1-contracts/contracts/src/v3.0.0/Groth16Verifier.sol\":10710:10720  y == y_pos */\n      sub\n        /* \".deps/github/succinctlabs/sp1-contracts/contracts/src/v3.0.0/Groth16Verifier.sol\":10706:10937  if (y == y_pos) {... */\n      tag_142\n      jumpi\n        /* \".deps/github/succinctlabs/sp1-contracts/contracts/src/v3.0.0/Groth16Verifier.sol\":10755:10756  0 */\n      0x00\n        /* \".deps/github/succinctlabs/sp1-contracts/contracts/src/v3.0.0/Groth16Verifier.sol\":10750:10751  1 */\n      0x01\n        /* \".deps/github/succinctlabs/sp1-contracts/contracts/src/v3.0.0/Groth16Verifier.sol\":10745:10746  x */\n      dup6\n        /* \".deps/github/succinctlabs/sp1-contracts/contracts/src/v3.0.0/Groth16Verifier.sol\":10745:10751  x << 1 */\n      swap1\n      shl\n        /* \".deps/github/succinctlabs/sp1-contracts/contracts/src/v3.0.0/Groth16Verifier.sol\":10744:10756  (x << 1) | 0 */\n      or\n        /* \".deps/github/succinctlabs/sp1-contracts/contracts/src/v3.0.0/Groth16Verifier.sol\":10737:10756  return (x << 1) | 0 */\n      swap2\n      pop\n      pop\n      jump(tag_128)\n        /* \".deps/github/succinctlabs/sp1-contracts/contracts/src/v3.0.0/Groth16Verifier.sol\":10706:10937  if (y == y_pos) {... */\n    tag_142:\n        /* \".deps/github/succinctlabs/sp1-contracts/contracts/src/v3.0.0/Groth16Verifier.sol\":10783:10796  negate(y_pos) */\n      tag_144\n        /* \".deps/github/succinctlabs/sp1-contracts/contracts/src/v3.0.0/Groth16Verifier.sol\":10790:10795  y_pos */\n      dup2\n        /* \".deps/github/succinctlabs/sp1-contracts/contracts/src/v3.0.0/Groth16Verifier.sol\":10783:10789  negate */\n      tag_145\n        /* \".deps/github/succinctlabs/sp1-contracts/contracts/src/v3.0.0/Groth16Verifier.sol\":10783:10796  negate(y_pos) */\n      jump\t// in\n    tag_144:\n        /* \".deps/github/succinctlabs/sp1-contracts/contracts/src/v3.0.0/Groth16Verifier.sol\":10778:10779  y */\n      dup4\n        /* \".deps/github/succinctlabs/sp1-contracts/contracts/src/v3.0.0/Groth16Verifier.sol\":10778:10796  y == negate(y_pos) */\n      sub\n        /* \".deps/github/succinctlabs/sp1-contracts/contracts/src/v3.0.0/Groth16Verifier.sol\":10774:10937  if (y == negate(y_pos)) {... */\n      tag_146\n      jumpi\n        /* \".deps/github/succinctlabs/sp1-contracts/contracts/src/v3.0.0/Groth16Verifier.sol\":10831:10832  1 */\n      0x01\n        /* \".deps/github/succinctlabs/sp1-contracts/contracts/src/v3.0.0/Groth16Verifier.sol\":10826:10827  1 */\n      dup1\n        /* \".deps/github/succinctlabs/sp1-contracts/contracts/src/v3.0.0/Groth16Verifier.sol\":10821:10822  x */\n      dup6\n        /* \".deps/github/succinctlabs/sp1-contracts/contracts/src/v3.0.0/Groth16Verifier.sol\":10821:10827  x << 1 */\n      swap1\n      shl\n        /* \".deps/github/succinctlabs/sp1-contracts/contracts/src/v3.0.0/Groth16Verifier.sol\":10820:10832  (x << 1) | 1 */\n      or\n        /* \".deps/github/succinctlabs/sp1-contracts/contracts/src/v3.0.0/Groth16Verifier.sol\":10813:10832  return (x << 1) | 1 */\n      swap2\n      pop\n      pop\n      jump(tag_128)\n        /* \".deps/github/succinctlabs/sp1-contracts/contracts/src/v3.0.0/Groth16Verifier.sol\":10774:10937  if (y == negate(y_pos)) {... */\n    tag_146:\n        /* \".deps/github/succinctlabs/sp1-contracts/contracts/src/v3.0.0/Groth16Verifier.sol\":10911:10925  ProofInvalid() */\n      mload(0x40)\n      0x7fcdd1f400000000000000000000000000000000000000000000000000000000\n      dup2\n      mstore\n      0x04\n      add\n      mload(0x40)\n      dup1\n      swap2\n      sub\n      swap1\n      revert\n        /* \".deps/github/succinctlabs/sp1-contracts/contracts/src/v3.0.0/Groth16Verifier.sol\":10224:10944  function compress_g1(uint256 x, uint256 y) internal view returns (uint256 c) {... */\n    tag_128:\n      swap3\n      swap2\n      pop\n      pop\n      jump\t// out\n        /* \".deps/github/succinctlabs/sp1-contracts/contracts/src/v3.0.0/Groth16Verifier.sol\":12982:14711  function compress_g2(uint256 x0, uint256 x1, uint256 y0, uint256 y1)... */\n    tag_41:\n        /* \".deps/github/succinctlabs/sp1-contracts/contracts/src/v3.0.0/Groth16Verifier.sol\":13101:13111  uint256 c0 */\n      0x00\n        /* \".deps/github/succinctlabs/sp1-contracts/contracts/src/v3.0.0/Groth16Verifier.sol\":13113:13123  uint256 c1 */\n      0x00\n        /* \".deps/github/succinctlabs/sp1-contracts/contracts/src/v3.0.0/Groth16Verifier.sol\":1427:1493  0x30644e72e131a029b85045b68181585d97816a916871ca8d3c208c16d87cfd47 */\n      0x30644e72e131a029b85045b68181585d97816a916871ca8d3c208c16d87cfd47\n        /* \".deps/github/succinctlabs/sp1-contracts/contracts/src/v3.0.0/Groth16Verifier.sol\":13145:13147  x0 */\n      dup7\n        /* \".deps/github/succinctlabs/sp1-contracts/contracts/src/v3.0.0/Groth16Verifier.sol\":13145:13152  x0 >= P */\n      lt\n      iszero\n        /* \".deps/github/succinctlabs/sp1-contracts/contracts/src/v3.0.0/Groth16Verifier.sol\":13145:13163  x0 >= P || x1 >= P */\n      dup1\n      tag_149\n      jumpi\n      pop\n        /* \".deps/github/succinctlabs/sp1-contracts/contracts/src/v3.0.0/Groth16Verifier.sol\":1427:1493  0x30644e72e131a029b85045b68181585d97816a916871ca8d3c208c16d87cfd47 */\n      0x30644e72e131a029b85045b68181585d97816a916871ca8d3c208c16d87cfd47\n        /* \".deps/github/succinctlabs/sp1-contracts/contracts/src/v3.0.0/Groth16Verifier.sol\":13156:13158  x1 */\n      dup6\n        /* \".deps/github/succinctlabs/sp1-contracts/contracts/src/v3.0.0/Groth16Verifier.sol\":13156:13163  x1 >= P */\n      lt\n      iszero\n        /* \".deps/github/succinctlabs/sp1-contracts/contracts/src/v3.0.0/Groth16Verifier.sol\":13145:13163  x0 >= P || x1 >= P */\n    tag_149:\n        /* \".deps/github/succinctlabs/sp1-contracts/contracts/src/v3.0.0/Groth16Verifier.sol\":13145:13174  x0 >= P || x1 >= P || y0 >= P */\n      dup1\n      tag_150\n      jumpi\n      pop\n        /* \".deps/github/succinctlabs/sp1-contracts/contracts/src/v3.0.0/Groth16Verifier.sol\":1427:1493  0x30644e72e131a029b85045b68181585d97816a916871ca8d3c208c16d87cfd47 */\n      0x30644e72e131a029b85045b68181585d97816a916871ca8d3c208c16d87cfd47\n        /* \".deps/github/succinctlabs/sp1-contracts/contracts/src/v3.0.0/Groth16Verifier.sol\":13167:13169  y0 */\n      dup5\n        /* \".deps/github/succinctlabs/sp1-contracts/contracts/src/v3.0.0/Groth16Verifier.sol\":13167:13174  y0 >= P */\n      lt\n      iszero\n        /* \".deps/github/succinctlabs/sp1-contracts/contracts/src/v3.0.0/Groth16Verifier.sol\":13145:13174  x0 >= P || x1 >= P || y0 >= P */\n    tag_150:\n        /* \".deps/github/succinctlabs/sp1-contracts/contracts/src/v3.0.0/Groth16Verifier.sol\":13145:13185  x0 >= P || x1 >= P || y0 >= P || y1 >= P */\n      dup1\n      tag_151\n      jumpi\n      pop\n        /* \".deps/github/succinctlabs/sp1-contracts/contracts/src/v3.0.0/Groth16Verifier.sol\":1427:1493  0x30644e72e131a029b85045b68181585d97816a916871ca8d3c208c16d87cfd47 */\n      0x30644e72e131a029b85045b68181585d97816a916871ca8d3c208c16d87cfd47\n        /* \".deps/github/succinctlabs/sp1-contracts/contracts/src/v3.0.0/Groth16Verifier.sol\":13178:13180  y1 */\n      dup4\n        /* \".deps/github/succinctlabs/sp1-contracts/contracts/src/v3.0.0/Groth16Verifier.sol\":13178:13185  y1 >= P */\n      lt\n      iszero\n        /* \".deps/github/succinctlabs/sp1-contracts/contracts/src/v3.0.0/Groth16Verifier.sol\":13145:13185  x0 >= P || x1 >= P || y0 >= P || y1 >= P */\n    tag_151:\n        /* \".deps/github/succinctlabs/sp1-contracts/contracts/src/v3.0.0/Groth16Verifier.sol\":13141:13274  if (x0 >= P || x1 >= P || y0 >= P || y1 >= P) {... */\n      iszero\n      tag_152\n      jumpi\n        /* \".deps/github/succinctlabs/sp1-contracts/contracts/src/v3.0.0/Groth16Verifier.sol\":13248:13262  ProofInvalid() */\n      mload(0x40)\n      0x7fcdd1f400000000000000000000000000000000000000000000000000000000\n      dup2\n      mstore\n      0x04\n      add\n      mload(0x40)\n      dup1\n      swap2\n      sub\n      swap1\n      revert\n        /* \".deps/github/succinctlabs/sp1-contracts/contracts/src/v3.0.0/Groth16Verifier.sol\":13141:13274  if (x0 >= P || x1 >= P || y0 >= P || y1 >= P) {... */\n    tag_152:\n        /* \".deps/github/succinctlabs/sp1-contracts/contracts/src/v3.0.0/Groth16Verifier.sol\":13311:13312  0 */\n      0x00\n        /* \".deps/github/succinctlabs/sp1-contracts/contracts/src/v3.0.0/Groth16Verifier.sol\":13304:13306  y1 */\n      dup4\n        /* \".deps/github/succinctlabs/sp1-contracts/contracts/src/v3.0.0/Groth16Verifier.sol\":13299:13301  y0 */\n      dup6\n        /* \".deps/github/succinctlabs/sp1-contracts/contracts/src/v3.0.0/Groth16Verifier.sol\":13294:13296  x1 */\n      dup8\n        /* \".deps/github/succinctlabs/sp1-contracts/contracts/src/v3.0.0/Groth16Verifier.sol\":13289:13291  x0 */\n      dup10\n        /* \".deps/github/succinctlabs/sp1-contracts/contracts/src/v3.0.0/Groth16Verifier.sol\":13289:13296  x0 | x1 */\n      or\n        /* \".deps/github/succinctlabs/sp1-contracts/contracts/src/v3.0.0/Groth16Verifier.sol\":13289:13301  x0 | x1 | y0 */\n      or\n        /* \".deps/github/succinctlabs/sp1-contracts/contracts/src/v3.0.0/Groth16Verifier.sol\":13289:13306  x0 | x1 | y0 | y1 */\n      or\n        /* \".deps/github/succinctlabs/sp1-contracts/contracts/src/v3.0.0/Groth16Verifier.sol\":13288:13312  (x0 | x1 | y0 | y1) == 0 */\n      sub\n        /* \".deps/github/succinctlabs/sp1-contracts/contracts/src/v3.0.0/Groth16Verifier.sol\":13284:13388  if ((x0 | x1 | y0 | y1) == 0) {... */\n      tag_153\n      jumpi\n        /* \".deps/github/succinctlabs/sp1-contracts/contracts/src/v3.0.0/Groth16Verifier.sol\":13371:13372  0 */\n      0x00\n        /* \".deps/github/succinctlabs/sp1-contracts/contracts/src/v3.0.0/Groth16Verifier.sol\":13374:13375  0 */\n      0x00\n        /* \".deps/github/succinctlabs/sp1-contracts/contracts/src/v3.0.0/Groth16Verifier.sol\":13363:13376  return (0, 0) */\n      swap2\n      pop\n      swap2\n      pop\n      jump(tag_148)\n        /* \".deps/github/succinctlabs/sp1-contracts/contracts/src/v3.0.0/Groth16Verifier.sol\":13284:13388  if ((x0 | x1 | y0 | y1) == 0) {... */\n    tag_153:\n        /* \".deps/github/succinctlabs/sp1-contracts/contracts/src/v3.0.0/Groth16Verifier.sol\":13498:13512  uint256 y0_pos */\n      0x00\n        /* \".deps/github/succinctlabs/sp1-contracts/contracts/src/v3.0.0/Groth16Verifier.sol\":13523:13537  uint256 y1_pos */\n      0x00\n        /* \".deps/github/succinctlabs/sp1-contracts/contracts/src/v3.0.0/Groth16Verifier.sol\":13563:13575  uint256 n3ab */\n      0x00\n        /* \".deps/github/succinctlabs/sp1-contracts/contracts/src/v3.0.0/Groth16Verifier.sol\":1427:1493  0x30644e72e131a029b85045b68181585d97816a916871ca8d3c208c16d87cfd47 */\n      0x30644e72e131a029b85045b68181585d97816a916871ca8d3c208c16d87cfd47\n        /* \".deps/github/succinctlabs/sp1-contracts/contracts/src/v3.0.0/Groth16Verifier.sol\":13578:13613  mulmod(mulmod(x0, x1, P), P - 3, P) */\n      dup1\n      tag_154\n      jumpi\n      tag_155\n      tag_136\n      jump\t// in\n    tag_155:\n    tag_154:\n        /* \".deps/github/succinctlabs/sp1-contracts/contracts/src/v3.0.0/Groth16Verifier.sol\":13608:13609  3 */\n      0x03\n        /* \".deps/github/succinctlabs/sp1-contracts/contracts/src/v3.0.0/Groth16Verifier.sol\":1427:1493  0x30644e72e131a029b85045b68181585d97816a916871ca8d3c208c16d87cfd47 */\n      0x30644e72e131a029b85045b68181585d97816a916871ca8d3c208c16d87cfd47\n        /* \".deps/github/succinctlabs/sp1-contracts/contracts/src/v3.0.0/Groth16Verifier.sol\":13604:13609  P - 3 */\n      tag_156\n      swap2\n      swap1\n      tag_157\n      jump\t// in\n    tag_156:\n        /* \".deps/github/succinctlabs/sp1-contracts/contracts/src/v3.0.0/Groth16Verifier.sol\":1427:1493  0x30644e72e131a029b85045b68181585d97816a916871ca8d3c208c16d87cfd47 */\n      0x30644e72e131a029b85045b68181585d97816a916871ca8d3c208c16d87cfd47\n        /* \".deps/github/succinctlabs/sp1-contracts/contracts/src/v3.0.0/Groth16Verifier.sol\":13585:13602  mulmod(x0, x1, P) */\n      dup1\n      tag_158\n      jumpi\n      tag_159\n      tag_136\n      jump\t// in\n    tag_159:\n    tag_158:\n        /* \".deps/github/succinctlabs/sp1-contracts/contracts/src/v3.0.0/Groth16Verifier.sol\":13596:13598  x1 */\n      dup11\n        /* \".deps/github/succinctlabs/sp1-contracts/contracts/src/v3.0.0/Groth16Verifier.sol\":13592:13594  x0 */\n      dup13\n        /* \".deps/github/succinctlabs/sp1-contracts/contracts/src/v3.0.0/Groth16Verifier.sol\":13585:13602  mulmod(x0, x1, P) */\n      mulmod\n        /* \".deps/github/succinctlabs/sp1-contracts/contracts/src/v3.0.0/Groth16Verifier.sol\":13578:13613  mulmod(mulmod(x0, x1, P), P - 3, P) */\n      mulmod\n        /* \".deps/github/succinctlabs/sp1-contracts/contracts/src/v3.0.0/Groth16Verifier.sol\":13563:13613  uint256 n3ab = mulmod(mulmod(x0, x1, P), P - 3, P) */\n      swap1\n      pop\n        /* \".deps/github/succinctlabs/sp1-contracts/contracts/src/v3.0.0/Groth16Verifier.sol\":13628:13639  uint256 a_3 */\n      0x00\n        /* \".deps/github/succinctlabs/sp1-contracts/contracts/src/v3.0.0/Groth16Verifier.sol\":1427:1493  0x30644e72e131a029b85045b68181585d97816a916871ca8d3c208c16d87cfd47 */\n      0x30644e72e131a029b85045b68181585d97816a916871ca8d3c208c16d87cfd47\n        /* \".deps/github/succinctlabs/sp1-contracts/contracts/src/v3.0.0/Groth16Verifier.sol\":13642:13674  mulmod(mulmod(x0, x0, P), x0, P) */\n      dup1\n      tag_160\n      jumpi\n      tag_161\n      tag_136\n      jump\t// in\n    tag_161:\n    tag_160:\n        /* \".deps/github/succinctlabs/sp1-contracts/contracts/src/v3.0.0/Groth16Verifier.sol\":13668:13670  x0 */\n      dup11\n        /* \".deps/github/succinctlabs/sp1-contracts/contracts/src/v3.0.0/Groth16Verifier.sol\":1427:1493  0x30644e72e131a029b85045b68181585d97816a916871ca8d3c208c16d87cfd47 */\n      0x30644e72e131a029b85045b68181585d97816a916871ca8d3c208c16d87cfd47\n        /* \".deps/github/succinctlabs/sp1-contracts/contracts/src/v3.0.0/Groth16Verifier.sol\":13649:13666  mulmod(x0, x0, P) */\n      dup1\n      tag_162\n      jumpi\n      tag_163\n      tag_136\n      jump\t// in\n    tag_163:\n    tag_162:\n        /* \".deps/github/succinctlabs/sp1-contracts/contracts/src/v3.0.0/Groth16Verifier.sol\":13660:13662  x0 */\n      dup13\n        /* \".deps/github/succinctlabs/sp1-contracts/contracts/src/v3.0.0/Groth16Verifier.sol\":13656:13658  x0 */\n      dup14\n        /* \".deps/github/succinctlabs/sp1-contracts/contracts/src/v3.0.0/Groth16Verifier.sol\":13649:13666  mulmod(x0, x0, P) */\n      mulmod\n        /* \".deps/github/succinctlabs/sp1-contracts/contracts/src/v3.0.0/Groth16Verifier.sol\":13642:13674  mulmod(mulmod(x0, x0, P), x0, P) */\n      mulmod\n        /* \".deps/github/succinctlabs/sp1-contracts/contracts/src/v3.0.0/Groth16Verifier.sol\":13628:13674  uint256 a_3 = mulmod(mulmod(x0, x0, P), x0, P) */\n      swap1\n      pop\n        /* \".deps/github/succinctlabs/sp1-contracts/contracts/src/v3.0.0/Groth16Verifier.sol\":13689:13700  uint256 b_3 */\n      0x00\n        /* \".deps/github/succinctlabs/sp1-contracts/contracts/src/v3.0.0/Groth16Verifier.sol\":1427:1493  0x30644e72e131a029b85045b68181585d97816a916871ca8d3c208c16d87cfd47 */\n      0x30644e72e131a029b85045b68181585d97816a916871ca8d3c208c16d87cfd47\n        /* \".deps/github/succinctlabs/sp1-contracts/contracts/src/v3.0.0/Groth16Verifier.sol\":13703:13735  mulmod(mulmod(x1, x1, P), x1, P) */\n      dup1\n      tag_164\n      jumpi\n      tag_165\n      tag_136\n      jump\t// in\n    tag_165:\n    tag_164:\n        /* \".deps/github/succinctlabs/sp1-contracts/contracts/src/v3.0.0/Groth16Verifier.sol\":13729:13731  x1 */\n      dup11\n        /* \".deps/github/succinctlabs/sp1-contracts/contracts/src/v3.0.0/Groth16Verifier.sol\":1427:1493  0x30644e72e131a029b85045b68181585d97816a916871ca8d3c208c16d87cfd47 */\n      0x30644e72e131a029b85045b68181585d97816a916871ca8d3c208c16d87cfd47\n        /* \".deps/github/succinctlabs/sp1-contracts/contracts/src/v3.0.0/Groth16Verifier.sol\":13710:13727  mulmod(x1, x1, P) */\n      dup1\n      tag_166\n      jumpi\n      tag_167\n      tag_136\n      jump\t// in\n    tag_167:\n    tag_166:\n        /* \".deps/github/succinctlabs/sp1-contracts/contracts/src/v3.0.0/Groth16Verifier.sol\":13721:13723  x1 */\n      dup13\n        /* \".deps/github/succinctlabs/sp1-contracts/contracts/src/v3.0.0/Groth16Verifier.sol\":13717:13719  x1 */\n      dup14\n        /* \".deps/github/succinctlabs/sp1-contracts/contracts/src/v3.0.0/Groth16Verifier.sol\":13710:13727  mulmod(x1, x1, P) */\n      mulmod\n        /* \".deps/github/succinctlabs/sp1-contracts/contracts/src/v3.0.0/Groth16Verifier.sol\":13703:13735  mulmod(mulmod(x1, x1, P), x1, P) */\n      mulmod\n        /* \".deps/github/succinctlabs/sp1-contracts/contracts/src/v3.0.0/Groth16Verifier.sol\":13689:13735  uint256 b_3 = mulmod(mulmod(x1, x1, P), x1, P) */\n      swap1\n      pop\n        /* \".deps/github/succinctlabs/sp1-contracts/contracts/src/v3.0.0/Groth16Verifier.sol\":1427:1493  0x30644e72e131a029b85045b68181585d97816a916871ca8d3c208c16d87cfd47 */\n      0x30644e72e131a029b85045b68181585d97816a916871ca8d3c208c16d87cfd47\n        /* \".deps/github/succinctlabs/sp1-contracts/contracts/src/v3.0.0/Groth16Verifier.sol\":13759:13824  addmod(FRACTION_27_82_FP, addmod(a_3, mulmod(n3ab, x1, P), P), P) */\n      dup1\n      tag_168\n      jumpi\n      tag_169\n      tag_136\n      jump\t// in\n    tag_169:\n    tag_168:\n        /* \".deps/github/succinctlabs/sp1-contracts/contracts/src/v3.0.0/Groth16Verifier.sol\":1427:1493  0x30644e72e131a029b85045b68181585d97816a916871ca8d3c208c16d87cfd47 */\n      0x30644e72e131a029b85045b68181585d97816a916871ca8d3c208c16d87cfd47\n        /* \".deps/github/succinctlabs/sp1-contracts/contracts/src/v3.0.0/Groth16Verifier.sol\":13785:13820  addmod(a_3, mulmod(n3ab, x1, P), P) */\n      dup1\n      tag_170\n      jumpi\n      tag_171\n      tag_136\n      jump\t// in\n    tag_171:\n    tag_170:\n        /* \".deps/github/succinctlabs/sp1-contracts/contracts/src/v3.0.0/Groth16Verifier.sol\":1427:1493  0x30644e72e131a029b85045b68181585d97816a916871ca8d3c208c16d87cfd47 */\n      0x30644e72e131a029b85045b68181585d97816a916871ca8d3c208c16d87cfd47\n        /* \".deps/github/succinctlabs/sp1-contracts/contracts/src/v3.0.0/Groth16Verifier.sol\":13797:13816  mulmod(n3ab, x1, P) */\n      dup1\n      tag_172\n      jumpi\n      tag_173\n      tag_136\n      jump\t// in\n    tag_173:\n    tag_172:\n        /* \".deps/github/succinctlabs/sp1-contracts/contracts/src/v3.0.0/Groth16Verifier.sol\":13810:13812  x1 */\n      dup13\n        /* \".deps/github/succinctlabs/sp1-contracts/contracts/src/v3.0.0/Groth16Verifier.sol\":13804:13808  n3ab */\n      dup7\n        /* \".deps/github/succinctlabs/sp1-contracts/contracts/src/v3.0.0/Groth16Verifier.sol\":13797:13816  mulmod(n3ab, x1, P) */\n      mulmod\n        /* \".deps/github/succinctlabs/sp1-contracts/contracts/src/v3.0.0/Groth16Verifier.sol\":13792:13795  a_3 */\n      dup5\n        /* \".deps/github/succinctlabs/sp1-contracts/contracts/src/v3.0.0/Groth16Verifier.sol\":13785:13820  addmod(a_3, mulmod(n3ab, x1, P), P) */\n      addmod\n        /* \".deps/github/succinctlabs/sp1-contracts/contracts/src/v3.0.0/Groth16Verifier.sol\":2276:2342  0x2b149d40ceb8aaae81be18991be06ac3b5b4c5e559dbefa33267e6dc24a138e5 */\n      0x2b149d40ceb8aaae81be18991be06ac3b5b4c5e559dbefa33267e6dc24a138e5\n        /* \".deps/github/succinctlabs/sp1-contracts/contracts/src/v3.0.0/Groth16Verifier.sol\":13759:13824  addmod(FRACTION_27_82_FP, addmod(a_3, mulmod(n3ab, x1, P), P), P) */\n      addmod\n        /* \".deps/github/succinctlabs/sp1-contracts/contracts/src/v3.0.0/Groth16Verifier.sol\":13750:13824  y0_pos = addmod(FRACTION_27_82_FP, addmod(a_3, mulmod(n3ab, x1, P), P), P) */\n      swap5\n      pop\n        /* \".deps/github/succinctlabs/sp1-contracts/contracts/src/v3.0.0/Groth16Verifier.sol\":13848:13920  negate(addmod(FRACTION_3_82_FP, addmod(b_3, mulmod(n3ab, x0, P), P), P)) */\n      tag_174\n        /* \".deps/github/succinctlabs/sp1-contracts/contracts/src/v3.0.0/Groth16Verifier.sol\":1427:1493  0x30644e72e131a029b85045b68181585d97816a916871ca8d3c208c16d87cfd47 */\n      0x30644e72e131a029b85045b68181585d97816a916871ca8d3c208c16d87cfd47\n        /* \".deps/github/succinctlabs/sp1-contracts/contracts/src/v3.0.0/Groth16Verifier.sol\":13855:13919  addmod(FRACTION_3_82_FP, addmod(b_3, mulmod(n3ab, x0, P), P), P) */\n      dup1\n      tag_175\n      jumpi\n      tag_176\n      tag_136\n      jump\t// in\n    tag_176:\n    tag_175:\n        /* \".deps/github/succinctlabs/sp1-contracts/contracts/src/v3.0.0/Groth16Verifier.sol\":1427:1493  0x30644e72e131a029b85045b68181585d97816a916871ca8d3c208c16d87cfd47 */\n      0x30644e72e131a029b85045b68181585d97816a916871ca8d3c208c16d87cfd47\n        /* \".deps/github/succinctlabs/sp1-contracts/contracts/src/v3.0.0/Groth16Verifier.sol\":13880:13915  addmod(b_3, mulmod(n3ab, x0, P), P) */\n      dup1\n      tag_177\n      jumpi\n      tag_178\n      tag_136\n      jump\t// in\n    tag_178:\n    tag_177:\n        /* \".deps/github/succinctlabs/sp1-contracts/contracts/src/v3.0.0/Groth16Verifier.sol\":1427:1493  0x30644e72e131a029b85045b68181585d97816a916871ca8d3c208c16d87cfd47 */\n      0x30644e72e131a029b85045b68181585d97816a916871ca8d3c208c16d87cfd47\n        /* \".deps/github/succinctlabs/sp1-contracts/contracts/src/v3.0.0/Groth16Verifier.sol\":13892:13911  mulmod(n3ab, x0, P) */\n      dup1\n      tag_179\n      jumpi\n      tag_180\n      tag_136\n      jump\t// in\n    tag_180:\n    tag_179:\n        /* \".deps/github/succinctlabs/sp1-contracts/contracts/src/v3.0.0/Groth16Verifier.sol\":13905:13907  x0 */\n      dup15\n        /* \".deps/github/succinctlabs/sp1-contracts/contracts/src/v3.0.0/Groth16Verifier.sol\":13899:13903  n3ab */\n      dup8\n        /* \".deps/github/succinctlabs/sp1-contracts/contracts/src/v3.0.0/Groth16Verifier.sol\":13892:13911  mulmod(n3ab, x0, P) */\n      mulmod\n        /* \".deps/github/succinctlabs/sp1-contracts/contracts/src/v3.0.0/Groth16Verifier.sol\":13887:13890  b_3 */\n      dup5\n        /* \".deps/github/succinctlabs/sp1-contracts/contracts/src/v3.0.0/Groth16Verifier.sol\":13880:13915  addmod(b_3, mulmod(n3ab, x0, P), P) */\n      addmod\n        /* \".deps/github/succinctlabs/sp1-contracts/contracts/src/v3.0.0/Groth16Verifier.sol\":2394:2460  0x2fcd3ac2a640a154eb23960892a85a68f031ca0c8344b23a577dcf1052b9e775 */\n      0x2fcd3ac2a640a154eb23960892a85a68f031ca0c8344b23a577dcf1052b9e775\n        /* \".deps/github/succinctlabs/sp1-contracts/contracts/src/v3.0.0/Groth16Verifier.sol\":13855:13919  addmod(FRACTION_3_82_FP, addmod(b_3, mulmod(n3ab, x0, P), P), P) */\n      addmod\n        /* \".deps/github/succinctlabs/sp1-contracts/contracts/src/v3.0.0/Groth16Verifier.sol\":13848:13854  negate */\n      tag_145\n        /* \".deps/github/succinctlabs/sp1-contracts/contracts/src/v3.0.0/Groth16Verifier.sol\":13848:13920  negate(addmod(FRACTION_3_82_FP, addmod(b_3, mulmod(n3ab, x0, P), P), P)) */\n      jump\t// in\n    tag_174:\n        /* \".deps/github/succinctlabs/sp1-contracts/contracts/src/v3.0.0/Groth16Verifier.sol\":13839:13920  y1_pos = negate(addmod(FRACTION_3_82_FP, addmod(b_3, mulmod(n3ab, x0, P), P), P)) */\n      swap4\n      pop\n        /* \".deps/github/succinctlabs/sp1-contracts/contracts/src/v3.0.0/Groth16Verifier.sol\":13548:13932  {... */\n      pop\n      pop\n      pop\n        /* \".deps/github/succinctlabs/sp1-contracts/contracts/src/v3.0.0/Groth16Verifier.sol\":14044:14053  bool hint */\n      0x00\n        /* \".deps/github/succinctlabs/sp1-contracts/contracts/src/v3.0.0/Groth16Verifier.sol\":14079:14088  uint256 d */\n      0x00\n        /* \".deps/github/succinctlabs/sp1-contracts/contracts/src/v3.0.0/Groth16Verifier.sol\":14091:14163  sqrt_Fp(addmod(mulmod(y0_pos, y0_pos, P), mulmod(y1_pos, y1_pos, P), P)) */\n      tag_181\n        /* \".deps/github/succinctlabs/sp1-contracts/contracts/src/v3.0.0/Groth16Verifier.sol\":1427:1493  0x30644e72e131a029b85045b68181585d97816a916871ca8d3c208c16d87cfd47 */\n      0x30644e72e131a029b85045b68181585d97816a916871ca8d3c208c16d87cfd47\n        /* \".deps/github/succinctlabs/sp1-contracts/contracts/src/v3.0.0/Groth16Verifier.sol\":14099:14162  addmod(mulmod(y0_pos, y0_pos, P), mulmod(y1_pos, y1_pos, P), P) */\n      dup1\n      tag_182\n      jumpi\n      tag_183\n      tag_136\n      jump\t// in\n    tag_183:\n    tag_182:\n        /* \".deps/github/succinctlabs/sp1-contracts/contracts/src/v3.0.0/Groth16Verifier.sol\":1427:1493  0x30644e72e131a029b85045b68181585d97816a916871ca8d3c208c16d87cfd47 */\n      0x30644e72e131a029b85045b68181585d97816a916871ca8d3c208c16d87cfd47\n        /* \".deps/github/succinctlabs/sp1-contracts/contracts/src/v3.0.0/Groth16Verifier.sol\":14133:14158  mulmod(y1_pos, y1_pos, P) */\n      dup1\n      tag_184\n      jumpi\n      tag_185\n      tag_136\n      jump\t// in\n    tag_185:\n    tag_184:\n        /* \".deps/github/succinctlabs/sp1-contracts/contracts/src/v3.0.0/Groth16Verifier.sol\":14148:14154  y1_pos */\n      dup6\n        /* \".deps/github/succinctlabs/sp1-contracts/contracts/src/v3.0.0/Groth16Verifier.sol\":14140:14146  y1_pos */\n      dup7\n        /* \".deps/github/succinctlabs/sp1-contracts/contracts/src/v3.0.0/Groth16Verifier.sol\":14133:14158  mulmod(y1_pos, y1_pos, P) */\n      mulmod\n        /* \".deps/github/succinctlabs/sp1-contracts/contracts/src/v3.0.0/Groth16Verifier.sol\":1427:1493  0x30644e72e131a029b85045b68181585d97816a916871ca8d3c208c16d87cfd47 */\n      0x30644e72e131a029b85045b68181585d97816a916871ca8d3c208c16d87cfd47\n        /* \".deps/github/succinctlabs/sp1-contracts/contracts/src/v3.0.0/Groth16Verifier.sol\":14106:14131  mulmod(y0_pos, y0_pos, P) */\n      dup1\n      tag_186\n      jumpi\n      tag_187\n      tag_136\n      jump\t// in\n    tag_187:\n    tag_186:\n        /* \".deps/github/succinctlabs/sp1-contracts/contracts/src/v3.0.0/Groth16Verifier.sol\":14121:14127  y0_pos */\n      dup8\n        /* \".deps/github/succinctlabs/sp1-contracts/contracts/src/v3.0.0/Groth16Verifier.sol\":14113:14119  y0_pos */\n      dup9\n        /* \".deps/github/succinctlabs/sp1-contracts/contracts/src/v3.0.0/Groth16Verifier.sol\":14106:14131  mulmod(y0_pos, y0_pos, P) */\n      mulmod\n        /* \".deps/github/succinctlabs/sp1-contracts/contracts/src/v3.0.0/Groth16Verifier.sol\":14099:14162  addmod(mulmod(y0_pos, y0_pos, P), mulmod(y1_pos, y1_pos, P), P) */\n      addmod\n        /* \".deps/github/succinctlabs/sp1-contracts/contracts/src/v3.0.0/Groth16Verifier.sol\":14091:14098  sqrt_Fp */\n      tag_141\n        /* \".deps/github/succinctlabs/sp1-contracts/contracts/src/v3.0.0/Groth16Verifier.sol\":14091:14163  sqrt_Fp(addmod(mulmod(y0_pos, y0_pos, P), mulmod(y1_pos, y1_pos, P), P)) */\n      jump\t// in\n    tag_181:\n        /* \".deps/github/succinctlabs/sp1-contracts/contracts/src/v3.0.0/Groth16Verifier.sol\":14079:14163  uint256 d = sqrt_Fp(addmod(mulmod(y0_pos, y0_pos, P), mulmod(y1_pos, y1_pos, P), P)) */\n      swap1\n      pop\n        /* \".deps/github/succinctlabs/sp1-contracts/contracts/src/v3.0.0/Groth16Verifier.sol\":14186:14247  isSquare_Fp(mulmod(addmod(y0_pos, d, P), FRACTION_1_2_FP, P)) */\n      tag_188\n        /* \".deps/github/succinctlabs/sp1-contracts/contracts/src/v3.0.0/Groth16Verifier.sol\":1427:1493  0x30644e72e131a029b85045b68181585d97816a916871ca8d3c208c16d87cfd47 */\n      0x30644e72e131a029b85045b68181585d97816a916871ca8d3c208c16d87cfd47\n        /* \".deps/github/succinctlabs/sp1-contracts/contracts/src/v3.0.0/Groth16Verifier.sol\":14198:14246  mulmod(addmod(y0_pos, d, P), FRACTION_1_2_FP, P) */\n      dup1\n      tag_189\n      jumpi\n      tag_190\n      tag_136\n      jump\t// in\n    tag_190:\n    tag_189:\n        /* \".deps/github/succinctlabs/sp1-contracts/contracts/src/v3.0.0/Groth16Verifier.sol\":2157:2223  0x183227397098d014dc2822db40c0ac2ecbc0b548b438e5469e10460b6c3e7ea4 */\n      0x183227397098d014dc2822db40c0ac2ecbc0b548b438e5469e10460b6c3e7ea4\n        /* \".deps/github/succinctlabs/sp1-contracts/contracts/src/v3.0.0/Groth16Verifier.sol\":1427:1493  0x30644e72e131a029b85045b68181585d97816a916871ca8d3c208c16d87cfd47 */\n      0x30644e72e131a029b85045b68181585d97816a916871ca8d3c208c16d87cfd47\n        /* \".deps/github/succinctlabs/sp1-contracts/contracts/src/v3.0.0/Groth16Verifier.sol\":14205:14225  addmod(y0_pos, d, P) */\n      dup1\n      tag_191\n      jumpi\n      tag_192\n      tag_136\n      jump\t// in\n    tag_192:\n    tag_191:\n        /* \".deps/github/succinctlabs/sp1-contracts/contracts/src/v3.0.0/Groth16Verifier.sol\":14220:14221  d */\n      dup5\n        /* \".deps/github/succinctlabs/sp1-contracts/contracts/src/v3.0.0/Groth16Verifier.sol\":14212:14218  y0_pos */\n      dup9\n        /* \".deps/github/succinctlabs/sp1-contracts/contracts/src/v3.0.0/Groth16Verifier.sol\":14205:14225  addmod(y0_pos, d, P) */\n      addmod\n        /* \".deps/github/succinctlabs/sp1-contracts/contracts/src/v3.0.0/Groth16Verifier.sol\":14198:14246  mulmod(addmod(y0_pos, d, P), FRACTION_1_2_FP, P) */\n      mulmod\n        /* \".deps/github/succinctlabs/sp1-contracts/contracts/src/v3.0.0/Groth16Verifier.sol\":14186:14197  isSquare_Fp */\n      tag_193\n        /* \".deps/github/succinctlabs/sp1-contracts/contracts/src/v3.0.0/Groth16Verifier.sol\":14186:14247  isSquare_Fp(mulmod(addmod(y0_pos, d, P), FRACTION_1_2_FP, P)) */\n      jump\t// in\n    tag_188:\n        /* \".deps/github/succinctlabs/sp1-contracts/contracts/src/v3.0.0/Groth16Verifier.sol\":14185:14247  !isSquare_Fp(mulmod(addmod(y0_pos, d, P), FRACTION_1_2_FP, P)) */\n      iszero\n        /* \".deps/github/succinctlabs/sp1-contracts/contracts/src/v3.0.0/Groth16Verifier.sol\":14178:14247  hint = !isSquare_Fp(mulmod(addmod(y0_pos, d, P), FRACTION_1_2_FP, P)) */\n      swap2\n      pop\n        /* \".deps/github/succinctlabs/sp1-contracts/contracts/src/v3.0.0/Groth16Verifier.sol\":14064:14259  {... */\n      pop\n        /* \".deps/github/succinctlabs/sp1-contracts/contracts/src/v3.0.0/Groth16Verifier.sol\":14312:14342  sqrt_Fp2(y0_pos, y1_pos, hint) */\n      tag_194\n        /* \".deps/github/succinctlabs/sp1-contracts/contracts/src/v3.0.0/Groth16Verifier.sol\":14321:14327  y0_pos */\n      dup4\n        /* \".deps/github/succinctlabs/sp1-contracts/contracts/src/v3.0.0/Groth16Verifier.sol\":14329:14335  y1_pos */\n      dup4\n        /* \".deps/github/succinctlabs/sp1-contracts/contracts/src/v3.0.0/Groth16Verifier.sol\":14337:14341  hint */\n      dup4\n        /* \".deps/github/succinctlabs/sp1-contracts/contracts/src/v3.0.0/Groth16Verifier.sol\":14312:14320  sqrt_Fp2 */\n      tag_195\n        /* \".deps/github/succinctlabs/sp1-contracts/contracts/src/v3.0.0/Groth16Verifier.sol\":14312:14342  sqrt_Fp2(y0_pos, y1_pos, hint) */\n      jump\t// in\n    tag_194:\n        /* \".deps/github/succinctlabs/sp1-contracts/contracts/src/v3.0.0/Groth16Verifier.sol\":14293:14342  (y0_pos, y1_pos) = sqrt_Fp2(y0_pos, y1_pos, hint) */\n      dup1\n      swap4\n      pop\n      dup2\n      swap5\n      pop\n      pop\n      pop\n        /* \".deps/github/succinctlabs/sp1-contracts/contracts/src/v3.0.0/Groth16Verifier.sol\":14363:14369  y0_pos */\n      dup3\n        /* \".deps/github/succinctlabs/sp1-contracts/contracts/src/v3.0.0/Groth16Verifier.sol\":14357:14359  y0 */\n      dup8\n        /* \".deps/github/succinctlabs/sp1-contracts/contracts/src/v3.0.0/Groth16Verifier.sol\":14357:14369  y0 == y0_pos */\n      eq\n        /* \".deps/github/succinctlabs/sp1-contracts/contracts/src/v3.0.0/Groth16Verifier.sol\":14357:14385  y0 == y0_pos && y1 == y1_pos */\n      dup1\n      iszero\n      tag_196\n      jumpi\n      pop\n        /* \".deps/github/succinctlabs/sp1-contracts/contracts/src/v3.0.0/Groth16Verifier.sol\":14379:14385  y1_pos */\n      dup2\n        /* \".deps/github/succinctlabs/sp1-contracts/contracts/src/v3.0.0/Groth16Verifier.sol\":14373:14375  y1 */\n      dup7\n        /* \".deps/github/succinctlabs/sp1-contracts/contracts/src/v3.0.0/Groth16Verifier.sol\":14373:14385  y1 == y1_pos */\n      eq\n        /* \".deps/github/succinctlabs/sp1-contracts/contracts/src/v3.0.0/Groth16Verifier.sol\":14357:14385  y0 == y0_pos && y1 == y1_pos */\n    tag_196:\n        /* \".deps/github/succinctlabs/sp1-contracts/contracts/src/v3.0.0/Groth16Verifier.sol\":14353:14704  if (y0 == y0_pos && y1 == y1_pos) {... */\n      iszero\n      tag_197\n      jumpi\n        /* \".deps/github/succinctlabs/sp1-contracts/contracts/src/v3.0.0/Groth16Verifier.sol\":14436:14437  0 */\n      0x00\n        /* \".deps/github/succinctlabs/sp1-contracts/contracts/src/v3.0.0/Groth16Verifier.sol\":14420:14424  hint */\n      dup2\n        /* \".deps/github/succinctlabs/sp1-contracts/contracts/src/v3.0.0/Groth16Verifier.sol\":14420:14432  hint ? 2 : 0 */\n      tag_198\n      jumpi\n        /* \".deps/github/succinctlabs/sp1-contracts/contracts/src/v3.0.0/Groth16Verifier.sol\":14431:14432  0 */\n      0x00\n        /* \".deps/github/succinctlabs/sp1-contracts/contracts/src/v3.0.0/Groth16Verifier.sol\":14420:14432  hint ? 2 : 0 */\n      jump(tag_199)\n    tag_198:\n        /* \".deps/github/succinctlabs/sp1-contracts/contracts/src/v3.0.0/Groth16Verifier.sol\":14427:14428  2 */\n      0x02\n        /* \".deps/github/succinctlabs/sp1-contracts/contracts/src/v3.0.0/Groth16Verifier.sol\":14420:14432  hint ? 2 : 0 */\n    tag_199:\n        /* \".deps/github/succinctlabs/sp1-contracts/contracts/src/v3.0.0/Groth16Verifier.sol\":14407:14433  (x0 << 2) | (hint ? 2 : 0) */\n      0xff\n      and\n        /* \".deps/github/succinctlabs/sp1-contracts/contracts/src/v3.0.0/Groth16Verifier.sol\":14414:14415  2 */\n      0x02\n        /* \".deps/github/succinctlabs/sp1-contracts/contracts/src/v3.0.0/Groth16Verifier.sol\":14408:14410  x0 */\n      dup12\n        /* \".deps/github/succinctlabs/sp1-contracts/contracts/src/v3.0.0/Groth16Verifier.sol\":14408:14415  x0 << 2 */\n      swap1\n      shl\n        /* \".deps/github/succinctlabs/sp1-contracts/contracts/src/v3.0.0/Groth16Verifier.sol\":14407:14433  (x0 << 2) | (hint ? 2 : 0) */\n      or\n        /* \".deps/github/succinctlabs/sp1-contracts/contracts/src/v3.0.0/Groth16Verifier.sol\":14407:14437  (x0 << 2) | (hint ? 2 : 0) | 0 */\n      or\n        /* \".deps/github/succinctlabs/sp1-contracts/contracts/src/v3.0.0/Groth16Verifier.sol\":14402:14437  c0 = (x0 << 2) | (hint ? 2 : 0) | 0 */\n      swap5\n      pop\n        /* \".deps/github/succinctlabs/sp1-contracts/contracts/src/v3.0.0/Groth16Verifier.sol\":14457:14459  x1 */\n      dup8\n        /* \".deps/github/succinctlabs/sp1-contracts/contracts/src/v3.0.0/Groth16Verifier.sol\":14452:14459  c1 = x1 */\n      swap4\n      pop\n        /* \".deps/github/succinctlabs/sp1-contracts/contracts/src/v3.0.0/Groth16Verifier.sol\":14353:14704  if (y0 == y0_pos && y1 == y1_pos) {... */\n      jump(tag_200)\n    tag_197:\n        /* \".deps/github/succinctlabs/sp1-contracts/contracts/src/v3.0.0/Groth16Verifier.sol\":14487:14501  negate(y0_pos) */\n      tag_201\n        /* \".deps/github/succinctlabs/sp1-contracts/contracts/src/v3.0.0/Groth16Verifier.sol\":14494:14500  y0_pos */\n      dup4\n        /* \".deps/github/succinctlabs/sp1-contracts/contracts/src/v3.0.0/Groth16Verifier.sol\":14487:14493  negate */\n      tag_145\n        /* \".deps/github/succinctlabs/sp1-contracts/contracts/src/v3.0.0/Groth16Verifier.sol\":14487:14501  negate(y0_pos) */\n      jump\t// in\n    tag_201:\n        /* \".deps/github/succinctlabs/sp1-contracts/contracts/src/v3.0.0/Groth16Verifier.sol\":14481:14483  y0 */\n      dup8\n        /* \".deps/github/succinctlabs/sp1-contracts/contracts/src/v3.0.0/Groth16Verifier.sol\":14481:14501  y0 == negate(y0_pos) */\n      eq\n        /* \".deps/github/succinctlabs/sp1-contracts/contracts/src/v3.0.0/Groth16Verifier.sol\":14481:14525  y0 == negate(y0_pos) && y1 == negate(y1_pos) */\n      dup1\n      iszero\n      tag_202\n      jumpi\n      pop\n        /* \".deps/github/succinctlabs/sp1-contracts/contracts/src/v3.0.0/Groth16Verifier.sol\":14511:14525  negate(y1_pos) */\n      tag_203\n        /* \".deps/github/succinctlabs/sp1-contracts/contracts/src/v3.0.0/Groth16Verifier.sol\":14518:14524  y1_pos */\n      dup3\n        /* \".deps/github/succinctlabs/sp1-contracts/contracts/src/v3.0.0/Groth16Verifier.sol\":14511:14517  negate */\n      tag_145\n        /* \".deps/github/succinctlabs/sp1-contracts/contracts/src/v3.0.0/Groth16Verifier.sol\":14511:14525  negate(y1_pos) */\n      jump\t// in\n    tag_203:\n        /* \".deps/github/succinctlabs/sp1-contracts/contracts/src/v3.0.0/Groth16Verifier.sol\":14505:14507  y1 */\n      dup7\n        /* \".deps/github/succinctlabs/sp1-contracts/contracts/src/v3.0.0/Groth16Verifier.sol\":14505:14525  y1 == negate(y1_pos) */\n      eq\n        /* \".deps/github/succinctlabs/sp1-contracts/contracts/src/v3.0.0/Groth16Verifier.sol\":14481:14525  y0 == negate(y0_pos) && y1 == negate(y1_pos) */\n    tag_202:\n        /* \".deps/github/succinctlabs/sp1-contracts/contracts/src/v3.0.0/Groth16Verifier.sol\":14477:14704  if (y0 == negate(y0_pos) && y1 == negate(y1_pos)) {... */\n      iszero\n      tag_204\n      jumpi\n        /* \".deps/github/succinctlabs/sp1-contracts/contracts/src/v3.0.0/Groth16Verifier.sol\":14576:14577  1 */\n      0x01\n        /* \".deps/github/succinctlabs/sp1-contracts/contracts/src/v3.0.0/Groth16Verifier.sol\":14560:14564  hint */\n      dup2\n        /* \".deps/github/succinctlabs/sp1-contracts/contracts/src/v3.0.0/Groth16Verifier.sol\":14560:14572  hint ? 2 : 0 */\n      tag_205\n      jumpi\n        /* \".deps/github/succinctlabs/sp1-contracts/contracts/src/v3.0.0/Groth16Verifier.sol\":14571:14572  0 */\n      0x00\n        /* \".deps/github/succinctlabs/sp1-contracts/contracts/src/v3.0.0/Groth16Verifier.sol\":14560:14572  hint ? 2 : 0 */\n      jump(tag_206)\n    tag_205:\n        /* \".deps/github/succinctlabs/sp1-contracts/contracts/src/v3.0.0/Groth16Verifier.sol\":14567:14568  2 */\n      0x02\n        /* \".deps/github/succinctlabs/sp1-contracts/contracts/src/v3.0.0/Groth16Verifier.sol\":14560:14572  hint ? 2 : 0 */\n    tag_206:\n        /* \".deps/github/succinctlabs/sp1-contracts/contracts/src/v3.0.0/Groth16Verifier.sol\":14547:14573  (x0 << 2) | (hint ? 2 : 0) */\n      0xff\n      and\n        /* \".deps/github/succinctlabs/sp1-contracts/contracts/src/v3.0.0/Groth16Verifier.sol\":14554:14555  2 */\n      0x02\n        /* \".deps/github/succinctlabs/sp1-contracts/contracts/src/v3.0.0/Groth16Verifier.sol\":14548:14550  x0 */\n      dup12\n        /* \".deps/github/succinctlabs/sp1-contracts/contracts/src/v3.0.0/Groth16Verifier.sol\":14548:14555  x0 << 2 */\n      swap1\n      shl\n        /* \".deps/github/succinctlabs/sp1-contracts/contracts/src/v3.0.0/Groth16Verifier.sol\":14547:14573  (x0 << 2) | (hint ? 2 : 0) */\n      or\n        /* \".deps/github/succinctlabs/sp1-contracts/contracts/src/v3.0.0/Groth16Verifier.sol\":14547:14577  (x0 << 2) | (hint ? 2 : 0) | 1 */\n      or\n        /* \".deps/github/succinctlabs/sp1-contracts/contracts/src/v3.0.0/Groth16Verifier.sol\":14542:14577  c0 = (x0 << 2) | (hint ? 2 : 0) | 1 */\n      swap5\n      pop\n        /* \".deps/github/succinctlabs/sp1-contracts/contracts/src/v3.0.0/Groth16Verifier.sol\":14597:14599  x1 */\n      dup8\n        /* \".deps/github/succinctlabs/sp1-contracts/contracts/src/v3.0.0/Groth16Verifier.sol\":14592:14599  c1 = x1 */\n      swap4\n      pop\n        /* \".deps/github/succinctlabs/sp1-contracts/contracts/src/v3.0.0/Groth16Verifier.sol\":14477:14704  if (y0 == negate(y0_pos) && y1 == negate(y1_pos)) {... */\n      jump(tag_207)\n    tag_204:\n        /* \".deps/github/succinctlabs/sp1-contracts/contracts/src/v3.0.0/Groth16Verifier.sol\":14678:14692  ProofInvalid() */\n      mload(0x40)\n      0x7fcdd1f400000000000000000000000000000000000000000000000000000000\n      dup2\n      mstore\n      0x04\n      add\n      mload(0x40)\n      dup1\n      swap2\n      sub\n      swap1\n      revert\n        /* \".deps/github/succinctlabs/sp1-contracts/contracts/src/v3.0.0/Groth16Verifier.sol\":14477:14704  if (y0 == negate(y0_pos) && y1 == negate(y1_pos)) {... */\n    tag_207:\n        /* \".deps/github/succinctlabs/sp1-contracts/contracts/src/v3.0.0/Groth16Verifier.sol\":14353:14704  if (y0 == y0_pos && y1 == y1_pos) {... */\n    tag_200:\n        /* \".deps/github/succinctlabs/sp1-contracts/contracts/src/v3.0.0/Groth16Verifier.sol\":13130:14711  {... */\n      pop\n      pop\n      pop\n        /* \".deps/github/succinctlabs/sp1-contracts/contracts/src/v3.0.0/Groth16Verifier.sol\":12982:14711  function compress_g2(uint256 x0, uint256 x1, uint256 y0, uint256 y1)... */\n    tag_148:\n      swap5\n      pop\n      swap5\n      swap3\n      pop\n      pop\n      pop\n      jump\t// out\n        /* \".deps/github/succinctlabs/sp1-contracts/contracts/src/v3.0.0/Groth16Verifier.sol\":17409:19479  function publicInputMSM(uint256[2] calldata input)... */\n    tag_55:\n        /* \".deps/github/succinctlabs/sp1-contracts/contracts/src/v3.0.0/Groth16Verifier.sol\":17510:17519  uint256 x */\n      0x00\n        /* \".deps/github/succinctlabs/sp1-contracts/contracts/src/v3.0.0/Groth16Verifier.sol\":17521:17530  uint256 y */\n      0x00\n        /* \".deps/github/succinctlabs/sp1-contracts/contracts/src/v3.0.0/Groth16Verifier.sol\":18149:18161  bool success */\n      0x00\n        /* \".deps/github/succinctlabs/sp1-contracts/contracts/src/v3.0.0/Groth16Verifier.sol\":18164:18168  true */\n      0x01\n        /* \".deps/github/succinctlabs/sp1-contracts/contracts/src/v3.0.0/Groth16Verifier.sol\":18149:18168  bool success = true */\n      swap1\n      pop\n        /* \".deps/github/succinctlabs/sp1-contracts/contracts/src/v3.0.0/Groth16Verifier.sol\":18234:18238  0x40 */\n      0x40\n        /* \".deps/github/succinctlabs/sp1-contracts/contracts/src/v3.0.0/Groth16Verifier.sol\":18228:18239  mload(0x40) */\n      mload\n        /* \".deps/github/succinctlabs/sp1-contracts/contracts/src/v3.0.0/Groth16Verifier.sol\":18269:18273  0x40 */\n      0x40\n        /* \".deps/github/succinctlabs/sp1-contracts/contracts/src/v3.0.0/Groth16Verifier.sol\":18266:18267  f */\n      dup2\n        /* \".deps/github/succinctlabs/sp1-contracts/contracts/src/v3.0.0/Groth16Verifier.sol\":18262:18274  add(f, 0x40) */\n      add\n        /* \".deps/github/succinctlabs/sp1-contracts/contracts/src/v3.0.0/Groth16Verifier.sol\":18288:18293  let s */\n      0x00\n        /* \".deps/github/succinctlabs/sp1-contracts/contracts/src/v3.0.0/Groth16Verifier.sol\":18317:18327  CONSTANT_X */\n      0x0251859caefe66b516c5549d3768d1ba94146083cb044026abebc99089919248\n        /* \".deps/github/succinctlabs/sp1-contracts/contracts/src/v3.0.0/Groth16Verifier.sol\":18314:18315  f */\n      dup4\n        /* \".deps/github/succinctlabs/sp1-contracts/contracts/src/v3.0.0/Groth16Verifier.sol\":18307:18328  mstore(f, CONSTANT_X) */\n      mstore\n        /* \".deps/github/succinctlabs/sp1-contracts/contracts/src/v3.0.0/Groth16Verifier.sol\":18363:18373  CONSTANT_Y */\n      0x2c1e789b2dcafdaa6853d0934c4443d223b8f050ce3466d068f2ab7efa29bc03\n        /* \".deps/github/succinctlabs/sp1-contracts/contracts/src/v3.0.0/Groth16Verifier.sol\":18356:18360  0x20 */\n      0x20\n        /* \".deps/github/succinctlabs/sp1-contracts/contracts/src/v3.0.0/Groth16Verifier.sol\":18353:18354  f */\n      dup5\n        /* \".deps/github/succinctlabs/sp1-contracts/contracts/src/v3.0.0/Groth16Verifier.sol\":18349:18361  add(f, 0x20) */\n      add\n        /* \".deps/github/succinctlabs/sp1-contracts/contracts/src/v3.0.0/Groth16Verifier.sol\":18342:18374  mstore(add(f, 0x20), CONSTANT_Y) */\n      mstore\n        /* \".deps/github/succinctlabs/sp1-contracts/contracts/src/v3.0.0/Groth16Verifier.sol\":18398:18405  PUB_0_X */\n      0x13a264f6a5d0e3938bea4e4431d417f2980774db501085ceafd0d7e76a7f128b\n        /* \".deps/github/succinctlabs/sp1-contracts/contracts/src/v3.0.0/Groth16Verifier.sol\":18395:18396  g */\n      dup3\n        /* \".deps/github/succinctlabs/sp1-contracts/contracts/src/v3.0.0/Groth16Verifier.sol\":18388:18406  mstore(g, PUB_0_X) */\n      mstore\n        /* \".deps/github/succinctlabs/sp1-contracts/contracts/src/v3.0.0/Groth16Verifier.sol\":18441:18448  PUB_0_Y */\n      0x155351b5ccccb7a37222f2b82fa4a968f33523326364fe52bb87d1ea3f47c697\n        /* \".deps/github/succinctlabs/sp1-contracts/contracts/src/v3.0.0/Groth16Verifier.sol\":18434:18438  0x20 */\n      0x20\n        /* \".deps/github/succinctlabs/sp1-contracts/contracts/src/v3.0.0/Groth16Verifier.sol\":18431:18432  g */\n      dup4\n        /* \".deps/github/succinctlabs/sp1-contracts/contracts/src/v3.0.0/Groth16Verifier.sol\":18427:18439  add(g, 0x20) */\n      add\n        /* \".deps/github/succinctlabs/sp1-contracts/contracts/src/v3.0.0/Groth16Verifier.sol\":18420:18449  mstore(add(g, 0x20), PUB_0_Y) */\n      mstore\n        /* \".deps/github/succinctlabs/sp1-contracts/contracts/src/v3.0.0/Groth16Verifier.sol\":18481:18486  input */\n      dup7\n        /* \".deps/github/succinctlabs/sp1-contracts/contracts/src/v3.0.0/Groth16Verifier.sol\":18468:18487  calldataload(input) */\n      calldataload\n        /* \".deps/github/succinctlabs/sp1-contracts/contracts/src/v3.0.0/Groth16Verifier.sol\":18463:18487  s := calldataload(input) */\n      swap1\n      pop\n        /* \".deps/github/succinctlabs/sp1-contracts/contracts/src/v3.0.0/Groth16Verifier.sol\":18522:18523  s */\n      dup1\n        /* \".deps/github/succinctlabs/sp1-contracts/contracts/src/v3.0.0/Groth16Verifier.sol\":18515:18519  0x40 */\n      0x40\n        /* \".deps/github/succinctlabs/sp1-contracts/contracts/src/v3.0.0/Groth16Verifier.sol\":18512:18513  g */\n      dup4\n        /* \".deps/github/succinctlabs/sp1-contracts/contracts/src/v3.0.0/Groth16Verifier.sol\":18508:18520  add(g, 0x40) */\n      add\n        /* \".deps/github/succinctlabs/sp1-contracts/contracts/src/v3.0.0/Groth16Verifier.sol\":18501:18524  mstore(add(g, 0x40), s) */\n      mstore\n        /* \".deps/github/succinctlabs/sp1-contracts/contracts/src/v3.0.0/Groth16Verifier.sol\":18568:18569  R */\n      0x30644e72e131a029b85045b68181585d2833e84879b9709143e1f593f0000001\n        /* \".deps/github/succinctlabs/sp1-contracts/contracts/src/v3.0.0/Groth16Verifier.sol\":18565:18566  s */\n      dup2\n        /* \".deps/github/succinctlabs/sp1-contracts/contracts/src/v3.0.0/Groth16Verifier.sol\":18562:18570  lt(s, R) */\n      lt\n        /* \".deps/github/succinctlabs/sp1-contracts/contracts/src/v3.0.0/Groth16Verifier.sol\":18553:18560  success */\n      dup5\n        /* \".deps/github/succinctlabs/sp1-contracts/contracts/src/v3.0.0/Groth16Verifier.sol\":18549:18571  and(success, lt(s, R)) */\n      and\n        /* \".deps/github/succinctlabs/sp1-contracts/contracts/src/v3.0.0/Groth16Verifier.sol\":18538:18571  success := and(success, lt(s, R)) */\n      swap4\n      pop\n        /* \".deps/github/succinctlabs/sp1-contracts/contracts/src/v3.0.0/Groth16Verifier.sol\":18655:18659  0x40 */\n      0x40\n        /* \".deps/github/succinctlabs/sp1-contracts/contracts/src/v3.0.0/Groth16Verifier.sol\":18652:18653  g */\n      dup3\n        /* \".deps/github/succinctlabs/sp1-contracts/contracts/src/v3.0.0/Groth16Verifier.sol\":18646:18650  0x60 */\n      0x60\n        /* \".deps/github/succinctlabs/sp1-contracts/contracts/src/v3.0.0/Groth16Verifier.sol\":18643:18644  g */\n      dup5\n        /* \".deps/github/succinctlabs/sp1-contracts/contracts/src/v3.0.0/Groth16Verifier.sol\":18627:18641  PRECOMPILE_MUL */\n      0x07\n        /* \".deps/github/succinctlabs/sp1-contracts/contracts/src/v3.0.0/Groth16Verifier.sol\":18620:18625  gas() */\n      gas\n        /* \".deps/github/succinctlabs/sp1-contracts/contracts/src/v3.0.0/Groth16Verifier.sol\":18609:18660  staticcall(gas(), PRECOMPILE_MUL, g, 0x60, g, 0x40) */\n      staticcall\n        /* \".deps/github/succinctlabs/sp1-contracts/contracts/src/v3.0.0/Groth16Verifier.sol\":18600:18607  success */\n      dup5\n        /* \".deps/github/succinctlabs/sp1-contracts/contracts/src/v3.0.0/Groth16Verifier.sol\":18596:18661  and(success, staticcall(gas(), PRECOMPILE_MUL, g, 0x60, g, 0x40)) */\n      and\n        /* \".deps/github/succinctlabs/sp1-contracts/contracts/src/v3.0.0/Groth16Verifier.sol\":18585:18661  success := and(success, staticcall(gas(), PRECOMPILE_MUL, g, 0x60, g, 0x40)) */\n      swap4\n      pop\n        /* \".deps/github/succinctlabs/sp1-contracts/contracts/src/v3.0.0/Groth16Verifier.sol\":18745:18749  0x40 */\n      0x40\n        /* \".deps/github/succinctlabs/sp1-contracts/contracts/src/v3.0.0/Groth16Verifier.sol\":18742:18743  f */\n      dup4\n        /* \".deps/github/succinctlabs/sp1-contracts/contracts/src/v3.0.0/Groth16Verifier.sol\":18736:18740  0x80 */\n      0x80\n        /* \".deps/github/succinctlabs/sp1-contracts/contracts/src/v3.0.0/Groth16Verifier.sol\":18733:18734  f */\n      dup6\n        /* \".deps/github/succinctlabs/sp1-contracts/contracts/src/v3.0.0/Groth16Verifier.sol\":18717:18731  PRECOMPILE_ADD */\n      0x06\n        /* \".deps/github/succinctlabs/sp1-contracts/contracts/src/v3.0.0/Groth16Verifier.sol\":18710:18715  gas() */\n      gas\n        /* \".deps/github/succinctlabs/sp1-contracts/contracts/src/v3.0.0/Groth16Verifier.sol\":18699:18750  staticcall(gas(), PRECOMPILE_ADD, f, 0x80, f, 0x40) */\n      staticcall\n        /* \".deps/github/succinctlabs/sp1-contracts/contracts/src/v3.0.0/Groth16Verifier.sol\":18690:18697  success */\n      dup5\n        /* \".deps/github/succinctlabs/sp1-contracts/contracts/src/v3.0.0/Groth16Verifier.sol\":18686:18751  and(success, staticcall(gas(), PRECOMPILE_ADD, f, 0x80, f, 0x40)) */\n      and\n        /* \".deps/github/succinctlabs/sp1-contracts/contracts/src/v3.0.0/Groth16Verifier.sol\":18675:18751  success := and(success, staticcall(gas(), PRECOMPILE_ADD, f, 0x80, f, 0x40)) */\n      swap4\n      pop\n        /* \".deps/github/succinctlabs/sp1-contracts/contracts/src/v3.0.0/Groth16Verifier.sol\":18775:18782  PUB_1_X */\n      0x03777818388f77b4065a87d01e141b5fec2ee452d1ada3493892aca2c4da5d40\n        /* \".deps/github/succinctlabs/sp1-contracts/contracts/src/v3.0.0/Groth16Verifier.sol\":18772:18773  g */\n      dup3\n        /* \".deps/github/succinctlabs/sp1-contracts/contracts/src/v3.0.0/Groth16Verifier.sol\":18765:18783  mstore(g, PUB_1_X) */\n      mstore\n        /* \".deps/github/succinctlabs/sp1-contracts/contracts/src/v3.0.0/Groth16Verifier.sol\":18818:18825  PUB_1_Y */\n      0x0fb2382a8c87c5992ee8385e493ffd96983c8c42c5545a4daaab264f482865b5\n        /* \".deps/github/succinctlabs/sp1-contracts/contracts/src/v3.0.0/Groth16Verifier.sol\":18811:18815  0x20 */\n      0x20\n        /* \".deps/github/succinctlabs/sp1-contracts/contracts/src/v3.0.0/Groth16Verifier.sol\":18808:18809  g */\n      dup4\n        /* \".deps/github/succinctlabs/sp1-contracts/contracts/src/v3.0.0/Groth16Verifier.sol\":18804:18816  add(g, 0x20) */\n      add\n        /* \".deps/github/succinctlabs/sp1-contracts/contracts/src/v3.0.0/Groth16Verifier.sol\":18797:18826  mstore(add(g, 0x20), PUB_1_Y) */\n      mstore\n        /* \".deps/github/succinctlabs/sp1-contracts/contracts/src/v3.0.0/Groth16Verifier.sol\":18869:18871  32 */\n      0x20\n        /* \".deps/github/succinctlabs/sp1-contracts/contracts/src/v3.0.0/Groth16Verifier.sol\":18862:18867  input */\n      dup8\n        /* \".deps/github/succinctlabs/sp1-contracts/contracts/src/v3.0.0/Groth16Verifier.sol\":18858:18872  add(input, 32) */\n      add\n        /* \".deps/github/succinctlabs/sp1-contracts/contracts/src/v3.0.0/Groth16Verifier.sol\":18845:18873  calldataload(add(input, 32)) */\n      calldataload\n        /* \".deps/github/succinctlabs/sp1-contracts/contracts/src/v3.0.0/Groth16Verifier.sol\":18840:18873  s := calldataload(add(input, 32)) */\n      swap1\n      pop\n        /* \".deps/github/succinctlabs/sp1-contracts/contracts/src/v3.0.0/Groth16Verifier.sol\":18908:18909  s */\n      dup1\n        /* \".deps/github/succinctlabs/sp1-contracts/contracts/src/v3.0.0/Groth16Verifier.sol\":18901:18905  0x40 */\n      0x40\n        /* \".deps/github/succinctlabs/sp1-contracts/contracts/src/v3.0.0/Groth16Verifier.sol\":18898:18899  g */\n      dup4\n        /* \".deps/github/succinctlabs/sp1-contracts/contracts/src/v3.0.0/Groth16Verifier.sol\":18894:18906  add(g, 0x40) */\n      add\n        /* \".deps/github/succinctlabs/sp1-contracts/contracts/src/v3.0.0/Groth16Verifier.sol\":18887:18910  mstore(add(g, 0x40), s) */\n      mstore\n        /* \".deps/github/succinctlabs/sp1-contracts/contracts/src/v3.0.0/Groth16Verifier.sol\":18954:18955  R */\n      0x30644e72e131a029b85045b68181585d2833e84879b9709143e1f593f0000001\n        /* \".deps/github/succinctlabs/sp1-contracts/contracts/src/v3.0.0/Groth16Verifier.sol\":18951:18952  s */\n      dup2\n        /* \".deps/github/succinctlabs/sp1-contracts/contracts/src/v3.0.0/Groth16Verifier.sol\":18948:18956  lt(s, R) */\n      lt\n        /* \".deps/github/succinctlabs/sp1-contracts/contracts/src/v3.0.0/Groth16Verifier.sol\":18939:18946  success */\n      dup5\n        /* \".deps/github/succinctlabs/sp1-contracts/contracts/src/v3.0.0/Groth16Verifier.sol\":18935:18957  and(success, lt(s, R)) */\n      and\n        /* \".deps/github/succinctlabs/sp1-contracts/contracts/src/v3.0.0/Groth16Verifier.sol\":18924:18957  success := and(success, lt(s, R)) */\n      swap4\n      pop\n        /* \".deps/github/succinctlabs/sp1-contracts/contracts/src/v3.0.0/Groth16Verifier.sol\":19041:19045  0x40 */\n      0x40\n        /* \".deps/github/succinctlabs/sp1-contracts/contracts/src/v3.0.0/Groth16Verifier.sol\":19038:19039  g */\n      dup3\n        /* \".deps/github/succinctlabs/sp1-contracts/contracts/src/v3.0.0/Groth16Verifier.sol\":19032:19036  0x60 */\n      0x60\n        /* \".deps/github/succinctlabs/sp1-contracts/contracts/src/v3.0.0/Groth16Verifier.sol\":19029:19030  g */\n      dup5\n        /* \".deps/github/succinctlabs/sp1-contracts/contracts/src/v3.0.0/Groth16Verifier.sol\":19013:19027  PRECOMPILE_MUL */\n      0x07\n        /* \".deps/github/succinctlabs/sp1-contracts/contracts/src/v3.0.0/Groth16Verifier.sol\":19006:19011  gas() */\n      gas\n        /* \".deps/github/succinctlabs/sp1-contracts/contracts/src/v3.0.0/Groth16Verifier.sol\":18995:19046  staticcall(gas(), PRECOMPILE_MUL, g, 0x60, g, 0x40) */\n      staticcall\n        /* \".deps/github/succinctlabs/sp1-contracts/contracts/src/v3.0.0/Groth16Verifier.sol\":18986:18993  success */\n      dup5\n        /* \".deps/github/succinctlabs/sp1-contracts/contracts/src/v3.0.0/Groth16Verifier.sol\":18982:19047  and(success, staticcall(gas(), PRECOMPILE_MUL, g, 0x60, g, 0x40)) */\n      and\n        /* \".deps/github/succinctlabs/sp1-contracts/contracts/src/v3.0.0/Groth16Verifier.sol\":18971:19047  success := and(success, staticcall(gas(), PRECOMPILE_MUL, g, 0x60, g, 0x40)) */\n      swap4\n      pop\n        /* \".deps/github/succinctlabs/sp1-contracts/contracts/src/v3.0.0/Groth16Verifier.sol\":19131:19135  0x40 */\n      0x40\n        /* \".deps/github/succinctlabs/sp1-contracts/contracts/src/v3.0.0/Groth16Verifier.sol\":19128:19129  f */\n      dup4\n        /* \".deps/github/succinctlabs/sp1-contracts/contracts/src/v3.0.0/Groth16Verifier.sol\":19122:19126  0x80 */\n      0x80\n        /* \".deps/github/succinctlabs/sp1-contracts/contracts/src/v3.0.0/Groth16Verifier.sol\":19119:19120  f */\n      dup6\n        /* \".deps/github/succinctlabs/sp1-contracts/contracts/src/v3.0.0/Groth16Verifier.sol\":19103:19117  PRECOMPILE_ADD */\n      0x06\n        /* \".deps/github/succinctlabs/sp1-contracts/contracts/src/v3.0.0/Groth16Verifier.sol\":19096:19101  gas() */\n      gas\n        /* \".deps/github/succinctlabs/sp1-contracts/contracts/src/v3.0.0/Groth16Verifier.sol\":19085:19136  staticcall(gas(), PRECOMPILE_ADD, f, 0x80, f, 0x40) */\n      staticcall\n        /* \".deps/github/succinctlabs/sp1-contracts/contracts/src/v3.0.0/Groth16Verifier.sol\":19076:19083  success */\n      dup5\n        /* \".deps/github/succinctlabs/sp1-contracts/contracts/src/v3.0.0/Groth16Verifier.sol\":19072:19137  and(success, staticcall(gas(), PRECOMPILE_ADD, f, 0x80, f, 0x40)) */\n      and\n        /* \".deps/github/succinctlabs/sp1-contracts/contracts/src/v3.0.0/Groth16Verifier.sol\":19061:19137  success := and(success, staticcall(gas(), PRECOMPILE_ADD, f, 0x80, f, 0x40)) */\n      swap4\n      pop\n        /* \".deps/github/succinctlabs/sp1-contracts/contracts/src/v3.0.0/Groth16Verifier.sol\":19164:19165  f */\n      dup3\n        /* \".deps/github/succinctlabs/sp1-contracts/contracts/src/v3.0.0/Groth16Verifier.sol\":19158:19166  mload(f) */\n      mload\n        /* \".deps/github/succinctlabs/sp1-contracts/contracts/src/v3.0.0/Groth16Verifier.sol\":19153:19166  x := mload(f) */\n      swap6\n      pop\n        /* \".deps/github/succinctlabs/sp1-contracts/contracts/src/v3.0.0/Groth16Verifier.sol\":19198:19202  0x20 */\n      0x20\n        /* \".deps/github/succinctlabs/sp1-contracts/contracts/src/v3.0.0/Groth16Verifier.sol\":19195:19196  f */\n      dup4\n        /* \".deps/github/succinctlabs/sp1-contracts/contracts/src/v3.0.0/Groth16Verifier.sol\":19191:19203  add(f, 0x20) */\n      add\n        /* \".deps/github/succinctlabs/sp1-contracts/contracts/src/v3.0.0/Groth16Verifier.sol\":19185:19204  mload(add(f, 0x20)) */\n      mload\n        /* \".deps/github/succinctlabs/sp1-contracts/contracts/src/v3.0.0/Groth16Verifier.sol\":19180:19204  y := mload(add(f, 0x20)) */\n      swap5\n      pop\n        /* \".deps/github/succinctlabs/sp1-contracts/contracts/src/v3.0.0/Groth16Verifier.sol\":18204:19215  {... */\n      pop\n      pop\n      pop\n        /* \".deps/github/succinctlabs/sp1-contracts/contracts/src/v3.0.0/Groth16Verifier.sol\":19230:19237  success */\n      dup1\n        /* \".deps/github/succinctlabs/sp1-contracts/contracts/src/v3.0.0/Groth16Verifier.sol\":19225:19472  if (!success) {... */\n      tag_209\n      jumpi\n        /* \".deps/github/succinctlabs/sp1-contracts/contracts/src/v3.0.0/Groth16Verifier.sol\":19437:19460  PublicInputNotInField() */\n      mload(0x40)\n      0xa54f8e2700000000000000000000000000000000000000000000000000000000\n      dup2\n      mstore\n      0x04\n      add\n      mload(0x40)\n      dup1\n      swap2\n      sub\n      swap1\n      revert\n        /* \".deps/github/succinctlabs/sp1-contracts/contracts/src/v3.0.0/Groth16Verifier.sol\":19225:19472  if (!success) {... */\n    tag_209:\n        /* \".deps/github/succinctlabs/sp1-contracts/contracts/src/v3.0.0/Groth16Verifier.sol\":17537:19479  {... */\n      pop\n        /* \".deps/github/succinctlabs/sp1-contracts/contracts/src/v3.0.0/Groth16Verifier.sol\":17409:19479  function publicInputMSM(uint256[2] calldata input)... */\n      swap2\n      pop\n      swap2\n      jump\t// out\n        /* \".deps/github/succinctlabs/sp1-contracts/contracts/src/v3.0.0/Groth16Verifier.sol\":11303:12200  function decompress_g1(uint256 c) internal view returns (uint256 x, uint256 y) {... */\n    tag_63:\n        /* \".deps/github/succinctlabs/sp1-contracts/contracts/src/v3.0.0/Groth16Verifier.sol\":11360:11369  uint256 x */\n      0x00\n        /* \".deps/github/succinctlabs/sp1-contracts/contracts/src/v3.0.0/Groth16Verifier.sol\":11371:11380  uint256 y */\n      0x00\n        /* \".deps/github/succinctlabs/sp1-contracts/contracts/src/v3.0.0/Groth16Verifier.sol\":11550:11551  0 */\n      0x00\n        /* \".deps/github/succinctlabs/sp1-contracts/contracts/src/v3.0.0/Groth16Verifier.sol\":11545:11546  c */\n      dup4\n        /* \".deps/github/succinctlabs/sp1-contracts/contracts/src/v3.0.0/Groth16Verifier.sol\":11545:11551  c == 0 */\n      sub\n        /* \".deps/github/succinctlabs/sp1-contracts/contracts/src/v3.0.0/Groth16Verifier.sol\":11541:11660  if (c == 0) {... */\n      tag_211\n      jumpi\n        /* \".deps/github/succinctlabs/sp1-contracts/contracts/src/v3.0.0/Groth16Verifier.sol\":11643:11644  0 */\n      0x00\n        /* \".deps/github/succinctlabs/sp1-contracts/contracts/src/v3.0.0/Groth16Verifier.sol\":11646:11647  0 */\n      0x00\n        /* \".deps/github/succinctlabs/sp1-contracts/contracts/src/v3.0.0/Groth16Verifier.sol\":11635:11648  return (0, 0) */\n      swap2\n      pop\n      swap2\n      pop\n      jump(tag_210)\n        /* \".deps/github/succinctlabs/sp1-contracts/contracts/src/v3.0.0/Groth16Verifier.sol\":11541:11660  if (c == 0) {... */\n    tag_211:\n        /* \".deps/github/succinctlabs/sp1-contracts/contracts/src/v3.0.0/Groth16Verifier.sol\":11670:11687  bool negate_point */\n      0x00\n        /* \".deps/github/succinctlabs/sp1-contracts/contracts/src/v3.0.0/Groth16Verifier.sol\":11699:11700  1 */\n      0x01\n        /* \".deps/github/succinctlabs/sp1-contracts/contracts/src/v3.0.0/Groth16Verifier.sol\":11694:11695  1 */\n      dup1\n        /* \".deps/github/succinctlabs/sp1-contracts/contracts/src/v3.0.0/Groth16Verifier.sol\":11690:11691  c */\n      dup6\n        /* \".deps/github/succinctlabs/sp1-contracts/contracts/src/v3.0.0/Groth16Verifier.sol\":11690:11695  c & 1 */\n      and\n        /* \".deps/github/succinctlabs/sp1-contracts/contracts/src/v3.0.0/Groth16Verifier.sol\":11690:11700  c & 1 == 1 */\n      eq\n        /* \".deps/github/succinctlabs/sp1-contracts/contracts/src/v3.0.0/Groth16Verifier.sol\":11670:11700  bool negate_point = c & 1 == 1 */\n      swap1\n      pop\n        /* \".deps/github/succinctlabs/sp1-contracts/contracts/src/v3.0.0/Groth16Verifier.sol\":11720:11721  1 */\n      0x01\n        /* \".deps/github/succinctlabs/sp1-contracts/contracts/src/v3.0.0/Groth16Verifier.sol\":11715:11716  c */\n      dup5\n        /* \".deps/github/succinctlabs/sp1-contracts/contracts/src/v3.0.0/Groth16Verifier.sol\":11715:11721  c >> 1 */\n      swap1\n      shr\n        /* \".deps/github/succinctlabs/sp1-contracts/contracts/src/v3.0.0/Groth16Verifier.sol\":11711:11721  x = c >> 1 */\n      swap3\n      pop\n        /* \".deps/github/succinctlabs/sp1-contracts/contracts/src/v3.0.0/Groth16Verifier.sol\":1427:1493  0x30644e72e131a029b85045b68181585d97816a916871ca8d3c208c16d87cfd47 */\n      0x30644e72e131a029b85045b68181585d97816a916871ca8d3c208c16d87cfd47\n        /* \".deps/github/succinctlabs/sp1-contracts/contracts/src/v3.0.0/Groth16Verifier.sol\":11736:11737  x */\n      dup4\n        /* \".deps/github/succinctlabs/sp1-contracts/contracts/src/v3.0.0/Groth16Verifier.sol\":11736:11742  x >= P */\n      lt\n        /* \".deps/github/succinctlabs/sp1-contracts/contracts/src/v3.0.0/Groth16Verifier.sol\":11732:11838  if (x >= P) {... */\n      tag_212\n      jumpi\n        /* \".deps/github/succinctlabs/sp1-contracts/contracts/src/v3.0.0/Groth16Verifier.sol\":11812:11826  ProofInvalid() */\n      mload(0x40)\n      0x7fcdd1f400000000000000000000000000000000000000000000000000000000\n      dup2\n      mstore\n      0x04\n      add\n      mload(0x40)\n      dup1\n      swap2\n      sub\n      swap1\n      revert\n        /* \".deps/github/succinctlabs/sp1-contracts/contracts/src/v3.0.0/Groth16Verifier.sol\":11732:11838  if (x >= P) {... */\n    tag_212:\n        /* \".deps/github/succinctlabs/sp1-contracts/contracts/src/v3.0.0/Groth16Verifier.sol\":12072:12124  sqrt_Fp(addmod(mulmod(mulmod(x, x, P), x, P), 3, P)) */\n      tag_213\n        /* \".deps/github/succinctlabs/sp1-contracts/contracts/src/v3.0.0/Groth16Verifier.sol\":1427:1493  0x30644e72e131a029b85045b68181585d97816a916871ca8d3c208c16d87cfd47 */\n      0x30644e72e131a029b85045b68181585d97816a916871ca8d3c208c16d87cfd47\n        /* \".deps/github/succinctlabs/sp1-contracts/contracts/src/v3.0.0/Groth16Verifier.sol\":12080:12123  addmod(mulmod(mulmod(x, x, P), x, P), 3, P) */\n      dup1\n      tag_214\n      jumpi\n      tag_215\n      tag_136\n      jump\t// in\n    tag_215:\n    tag_214:\n        /* \".deps/github/succinctlabs/sp1-contracts/contracts/src/v3.0.0/Groth16Verifier.sol\":12118:12119  3 */\n      0x03\n        /* \".deps/github/succinctlabs/sp1-contracts/contracts/src/v3.0.0/Groth16Verifier.sol\":1427:1493  0x30644e72e131a029b85045b68181585d97816a916871ca8d3c208c16d87cfd47 */\n      0x30644e72e131a029b85045b68181585d97816a916871ca8d3c208c16d87cfd47\n        /* \".deps/github/succinctlabs/sp1-contracts/contracts/src/v3.0.0/Groth16Verifier.sol\":12087:12116  mulmod(mulmod(x, x, P), x, P) */\n      dup1\n      tag_216\n      jumpi\n      tag_217\n      tag_136\n      jump\t// in\n    tag_217:\n    tag_216:\n        /* \".deps/github/succinctlabs/sp1-contracts/contracts/src/v3.0.0/Groth16Verifier.sol\":12111:12112  x */\n      dup7\n        /* \".deps/github/succinctlabs/sp1-contracts/contracts/src/v3.0.0/Groth16Verifier.sol\":1427:1493  0x30644e72e131a029b85045b68181585d97816a916871ca8d3c208c16d87cfd47 */\n      0x30644e72e131a029b85045b68181585d97816a916871ca8d3c208c16d87cfd47\n        /* \".deps/github/succinctlabs/sp1-contracts/contracts/src/v3.0.0/Groth16Verifier.sol\":12094:12109  mulmod(x, x, P) */\n      dup1\n      tag_218\n      jumpi\n      tag_219\n      tag_136\n      jump\t// in\n    tag_219:\n    tag_218:\n        /* \".deps/github/succinctlabs/sp1-contracts/contracts/src/v3.0.0/Groth16Verifier.sol\":12104:12105  x */\n      dup9\n        /* \".deps/github/succinctlabs/sp1-contracts/contracts/src/v3.0.0/Groth16Verifier.sol\":12101:12102  x */\n      dup10\n        /* \".deps/github/succinctlabs/sp1-contracts/contracts/src/v3.0.0/Groth16Verifier.sol\":12094:12109  mulmod(x, x, P) */\n      mulmod\n        /* \".deps/github/succinctlabs/sp1-contracts/contracts/src/v3.0.0/Groth16Verifier.sol\":12087:12116  mulmod(mulmod(x, x, P), x, P) */\n      mulmod\n        /* \".deps/github/succinctlabs/sp1-contracts/contracts/src/v3.0.0/Groth16Verifier.sol\":12080:12123  addmod(mulmod(mulmod(x, x, P), x, P), 3, P) */\n      addmod\n        /* \".deps/github/succinctlabs/sp1-contracts/contracts/src/v3.0.0/Groth16Verifier.sol\":12072:12079  sqrt_Fp */\n      tag_141\n        /* \".deps/github/succinctlabs/sp1-contracts/contracts/src/v3.0.0/Groth16Verifier.sol\":12072:12124  sqrt_Fp(addmod(mulmod(mulmod(x, x, P), x, P), 3, P)) */\n      jump\t// in\n    tag_213:\n        /* \".deps/github/succinctlabs/sp1-contracts/contracts/src/v3.0.0/Groth16Verifier.sol\":12068:12124  y = sqrt_Fp(addmod(mulmod(mulmod(x, x, P), x, P), 3, P)) */\n      swap2\n      pop\n        /* \".deps/github/succinctlabs/sp1-contracts/contracts/src/v3.0.0/Groth16Verifier.sol\":12139:12151  negate_point */\n      dup1\n        /* \".deps/github/succinctlabs/sp1-contracts/contracts/src/v3.0.0/Groth16Verifier.sol\":12135:12193  if (negate_point) {... */\n      iszero\n      tag_220\n      jumpi\n        /* \".deps/github/succinctlabs/sp1-contracts/contracts/src/v3.0.0/Groth16Verifier.sol\":12172:12181  negate(y) */\n      tag_221\n        /* \".deps/github/succinctlabs/sp1-contracts/contracts/src/v3.0.0/Groth16Verifier.sol\":12179:12180  y */\n      dup3\n        /* \".deps/github/succinctlabs/sp1-contracts/contracts/src/v3.0.0/Groth16Verifier.sol\":12172:12178  negate */\n      tag_145\n        /* \".deps/github/succinctlabs/sp1-contracts/contracts/src/v3.0.0/Groth16Verifier.sol\":12172:12181  negate(y) */\n      jump\t// in\n    tag_221:\n        /* \".deps/github/succinctlabs/sp1-contracts/contracts/src/v3.0.0/Groth16Verifier.sol\":12168:12181  y = negate(y) */\n      swap2\n      pop\n        /* \".deps/github/succinctlabs/sp1-contracts/contracts/src/v3.0.0/Groth16Verifier.sol\":12135:12193  if (negate_point) {... */\n    tag_220:\n        /* \".deps/github/succinctlabs/sp1-contracts/contracts/src/v3.0.0/Groth16Verifier.sol\":11382:12200  {... */\n      pop\n        /* \".deps/github/succinctlabs/sp1-contracts/contracts/src/v3.0.0/Groth16Verifier.sol\":11303:12200  function decompress_g1(uint256 c) internal view returns (uint256 x, uint256 y) {... */\n    tag_210:\n      swap2\n      pop\n      swap2\n      jump\t// out\n        /* \".deps/github/succinctlabs/sp1-contracts/contracts/src/v3.0.0/Groth16Verifier.sol\":15462:16901  function decompress_g2(uint256 c0, uint256 c1)... */\n    tag_69:\n        /* \".deps/github/succinctlabs/sp1-contracts/contracts/src/v3.0.0/Groth16Verifier.sol\":15559:15569  uint256 x0 */\n      0x00\n        /* \".deps/github/succinctlabs/sp1-contracts/contracts/src/v3.0.0/Groth16Verifier.sol\":15571:15581  uint256 x1 */\n      0x00\n        /* \".deps/github/succinctlabs/sp1-contracts/contracts/src/v3.0.0/Groth16Verifier.sol\":15583:15593  uint256 y0 */\n      0x00\n        /* \".deps/github/succinctlabs/sp1-contracts/contracts/src/v3.0.0/Groth16Verifier.sol\":15595:15605  uint256 y1 */\n      0x00\n        /* \".deps/github/succinctlabs/sp1-contracts/contracts/src/v3.0.0/Groth16Verifier.sol\":15790:15791  0 */\n      0x00\n        /* \".deps/github/succinctlabs/sp1-contracts/contracts/src/v3.0.0/Groth16Verifier.sol\":15784:15786  c0 */\n      dup7\n        /* \".deps/github/succinctlabs/sp1-contracts/contracts/src/v3.0.0/Groth16Verifier.sol\":15784:15791  c0 == 0 */\n      eq\n        /* \".deps/github/succinctlabs/sp1-contracts/contracts/src/v3.0.0/Groth16Verifier.sol\":15784:15802  c0 == 0 && c1 == 0 */\n      dup1\n      iszero\n      tag_223\n      jumpi\n      pop\n        /* \".deps/github/succinctlabs/sp1-contracts/contracts/src/v3.0.0/Groth16Verifier.sol\":15801:15802  0 */\n      0x00\n        /* \".deps/github/succinctlabs/sp1-contracts/contracts/src/v3.0.0/Groth16Verifier.sol\":15795:15797  c1 */\n      dup6\n        /* \".deps/github/succinctlabs/sp1-contracts/contracts/src/v3.0.0/Groth16Verifier.sol\":15795:15802  c1 == 0 */\n      eq\n        /* \".deps/github/succinctlabs/sp1-contracts/contracts/src/v3.0.0/Groth16Verifier.sol\":15784:15802  c0 == 0 && c1 == 0 */\n    tag_223:\n        /* \".deps/github/succinctlabs/sp1-contracts/contracts/src/v3.0.0/Groth16Verifier.sol\":15780:15906  if (c0 == 0 && c1 == 0) {... */\n      iszero\n      tag_224\n      jumpi\n        /* \".deps/github/succinctlabs/sp1-contracts/contracts/src/v3.0.0/Groth16Verifier.sol\":15883:15884  0 */\n      0x00\n        /* \".deps/github/succinctlabs/sp1-contracts/contracts/src/v3.0.0/Groth16Verifier.sol\":15886:15887  0 */\n      0x00\n        /* \".deps/github/succinctlabs/sp1-contracts/contracts/src/v3.0.0/Groth16Verifier.sol\":15889:15890  0 */\n      0x00\n        /* \".deps/github/succinctlabs/sp1-contracts/contracts/src/v3.0.0/Groth16Verifier.sol\":15892:15893  0 */\n      0x00\n        /* \".deps/github/succinctlabs/sp1-contracts/contracts/src/v3.0.0/Groth16Verifier.sol\":15875:15894  return (0, 0, 0, 0) */\n      swap4\n      pop\n      swap4\n      pop\n      swap4\n      pop\n      swap4\n      pop\n      jump(tag_222)\n        /* \".deps/github/succinctlabs/sp1-contracts/contracts/src/v3.0.0/Groth16Verifier.sol\":15780:15906  if (c0 == 0 && c1 == 0) {... */\n    tag_224:\n        /* \".deps/github/succinctlabs/sp1-contracts/contracts/src/v3.0.0/Groth16Verifier.sol\":15916:15933  bool negate_point */\n      0x00\n        /* \".deps/github/succinctlabs/sp1-contracts/contracts/src/v3.0.0/Groth16Verifier.sol\":15946:15947  1 */\n      0x01\n        /* \".deps/github/succinctlabs/sp1-contracts/contracts/src/v3.0.0/Groth16Verifier.sol\":15941:15942  1 */\n      dup1\n        /* \".deps/github/succinctlabs/sp1-contracts/contracts/src/v3.0.0/Groth16Verifier.sol\":15936:15938  c0 */\n      dup9\n        /* \".deps/github/succinctlabs/sp1-contracts/contracts/src/v3.0.0/Groth16Verifier.sol\":15936:15942  c0 & 1 */\n      and\n        /* \".deps/github/succinctlabs/sp1-contracts/contracts/src/v3.0.0/Groth16Verifier.sol\":15936:15947  c0 & 1 == 1 */\n      eq\n        /* \".deps/github/succinctlabs/sp1-contracts/contracts/src/v3.0.0/Groth16Verifier.sol\":15916:15947  bool negate_point = c0 & 1 == 1 */\n      swap1\n      pop\n        /* \".deps/github/succinctlabs/sp1-contracts/contracts/src/v3.0.0/Groth16Verifier.sol\":15958:15967  bool hint */\n      0x00\n        /* \".deps/github/succinctlabs/sp1-contracts/contracts/src/v3.0.0/Groth16Verifier.sol\":15980:15981  2 */\n      0x02\n        /* \".deps/github/succinctlabs/sp1-contracts/contracts/src/v3.0.0/Groth16Verifier.sol\":15975:15976  2 */\n      dup1\n        /* \".deps/github/succinctlabs/sp1-contracts/contracts/src/v3.0.0/Groth16Verifier.sol\":15970:15972  c0 */\n      dup10\n        /* \".deps/github/succinctlabs/sp1-contracts/contracts/src/v3.0.0/Groth16Verifier.sol\":15970:15976  c0 & 2 */\n      and\n        /* \".deps/github/succinctlabs/sp1-contracts/contracts/src/v3.0.0/Groth16Verifier.sol\":15970:15981  c0 & 2 == 2 */\n      eq\n        /* \".deps/github/succinctlabs/sp1-contracts/contracts/src/v3.0.0/Groth16Verifier.sol\":15958:15981  bool hint = c0 & 2 == 2 */\n      swap1\n      pop\n        /* \".deps/github/succinctlabs/sp1-contracts/contracts/src/v3.0.0/Groth16Verifier.sol\":16003:16004  2 */\n      0x02\n        /* \".deps/github/succinctlabs/sp1-contracts/contracts/src/v3.0.0/Groth16Verifier.sol\":15997:15999  c0 */\n      dup9\n        /* \".deps/github/succinctlabs/sp1-contracts/contracts/src/v3.0.0/Groth16Verifier.sol\":15997:16004  c0 >> 2 */\n      swap1\n      shr\n        /* \".deps/github/succinctlabs/sp1-contracts/contracts/src/v3.0.0/Groth16Verifier.sol\":15992:16004  x0 = c0 >> 2 */\n      swap6\n      pop\n        /* \".deps/github/succinctlabs/sp1-contracts/contracts/src/v3.0.0/Groth16Verifier.sol\":16020:16022  c1 */\n      dup7\n        /* \".deps/github/succinctlabs/sp1-contracts/contracts/src/v3.0.0/Groth16Verifier.sol\":16015:16022  x1 = c1 */\n      swap5\n      pop\n        /* \".deps/github/succinctlabs/sp1-contracts/contracts/src/v3.0.0/Groth16Verifier.sol\":1427:1493  0x30644e72e131a029b85045b68181585d97816a916871ca8d3c208c16d87cfd47 */\n      0x30644e72e131a029b85045b68181585d97816a916871ca8d3c208c16d87cfd47\n        /* \".deps/github/succinctlabs/sp1-contracts/contracts/src/v3.0.0/Groth16Verifier.sol\":16037:16039  x0 */\n      dup7\n        /* \".deps/github/succinctlabs/sp1-contracts/contracts/src/v3.0.0/Groth16Verifier.sol\":16037:16044  x0 >= P */\n      lt\n      iszero\n        /* \".deps/github/succinctlabs/sp1-contracts/contracts/src/v3.0.0/Groth16Verifier.sol\":16037:16055  x0 >= P || x1 >= P */\n      dup1\n      tag_225\n      jumpi\n      pop\n        /* \".deps/github/succinctlabs/sp1-contracts/contracts/src/v3.0.0/Groth16Verifier.sol\":1427:1493  0x30644e72e131a029b85045b68181585d97816a916871ca8d3c208c16d87cfd47 */\n      0x30644e72e131a029b85045b68181585d97816a916871ca8d3c208c16d87cfd47\n        /* \".deps/github/succinctlabs/sp1-contracts/contracts/src/v3.0.0/Groth16Verifier.sol\":16048:16050  x1 */\n      dup6\n        /* \".deps/github/succinctlabs/sp1-contracts/contracts/src/v3.0.0/Groth16Verifier.sol\":16048:16055  x1 >= P */\n      lt\n      iszero\n        /* \".deps/github/succinctlabs/sp1-contracts/contracts/src/v3.0.0/Groth16Verifier.sol\":16037:16055  x0 >= P || x1 >= P */\n    tag_225:\n        /* \".deps/github/succinctlabs/sp1-contracts/contracts/src/v3.0.0/Groth16Verifier.sol\":16033:16159  if (x0 >= P || x1 >= P) {... */\n      iszero\n      tag_226\n      jumpi\n        /* \".deps/github/succinctlabs/sp1-contracts/contracts/src/v3.0.0/Groth16Verifier.sol\":16133:16147  ProofInvalid() */\n      mload(0x40)\n      0x7fcdd1f400000000000000000000000000000000000000000000000000000000\n      dup2\n      mstore\n      0x04\n      add\n      mload(0x40)\n      dup1\n      swap2\n      sub\n      swap1\n      revert\n        /* \".deps/github/succinctlabs/sp1-contracts/contracts/src/v3.0.0/Groth16Verifier.sol\":16033:16159  if (x0 >= P || x1 >= P) {... */\n    tag_226:\n        /* \".deps/github/succinctlabs/sp1-contracts/contracts/src/v3.0.0/Groth16Verifier.sol\":16171:16183  uint256 n3ab */\n      0x00\n        /* \".deps/github/succinctlabs/sp1-contracts/contracts/src/v3.0.0/Groth16Verifier.sol\":1427:1493  0x30644e72e131a029b85045b68181585d97816a916871ca8d3c208c16d87cfd47 */\n      0x30644e72e131a029b85045b68181585d97816a916871ca8d3c208c16d87cfd47\n        /* \".deps/github/succinctlabs/sp1-contracts/contracts/src/v3.0.0/Groth16Verifier.sol\":16186:16221  mulmod(mulmod(x0, x1, P), P - 3, P) */\n      dup1\n      tag_227\n      jumpi\n      tag_228\n      tag_136\n      jump\t// in\n    tag_228:\n    tag_227:\n        /* \".deps/github/succinctlabs/sp1-contracts/contracts/src/v3.0.0/Groth16Verifier.sol\":16216:16217  3 */\n      0x03\n        /* \".deps/github/succinctlabs/sp1-contracts/contracts/src/v3.0.0/Groth16Verifier.sol\":1427:1493  0x30644e72e131a029b85045b68181585d97816a916871ca8d3c208c16d87cfd47 */\n      0x30644e72e131a029b85045b68181585d97816a916871ca8d3c208c16d87cfd47\n        /* \".deps/github/succinctlabs/sp1-contracts/contracts/src/v3.0.0/Groth16Verifier.sol\":16212:16217  P - 3 */\n      tag_229\n      swap2\n      swap1\n      tag_157\n      jump\t// in\n    tag_229:\n        /* \".deps/github/succinctlabs/sp1-contracts/contracts/src/v3.0.0/Groth16Verifier.sol\":1427:1493  0x30644e72e131a029b85045b68181585d97816a916871ca8d3c208c16d87cfd47 */\n      0x30644e72e131a029b85045b68181585d97816a916871ca8d3c208c16d87cfd47\n        /* \".deps/github/succinctlabs/sp1-contracts/contracts/src/v3.0.0/Groth16Verifier.sol\":16193:16210  mulmod(x0, x1, P) */\n      dup1\n      tag_230\n      jumpi\n      tag_231\n      tag_136\n      jump\t// in\n    tag_231:\n    tag_230:\n        /* \".deps/github/succinctlabs/sp1-contracts/contracts/src/v3.0.0/Groth16Verifier.sol\":16204:16206  x1 */\n      dup9\n        /* \".deps/github/succinctlabs/sp1-contracts/contracts/src/v3.0.0/Groth16Verifier.sol\":16200:16202  x0 */\n      dup11\n        /* \".deps/github/succinctlabs/sp1-contracts/contracts/src/v3.0.0/Groth16Verifier.sol\":16193:16210  mulmod(x0, x1, P) */\n      mulmod\n        /* \".deps/github/succinctlabs/sp1-contracts/contracts/src/v3.0.0/Groth16Verifier.sol\":16186:16221  mulmod(mulmod(x0, x1, P), P - 3, P) */\n      mulmod\n        /* \".deps/github/succinctlabs/sp1-contracts/contracts/src/v3.0.0/Groth16Verifier.sol\":16171:16221  uint256 n3ab = mulmod(mulmod(x0, x1, P), P - 3, P) */\n      swap1\n      pop\n        /* \".deps/github/succinctlabs/sp1-contracts/contracts/src/v3.0.0/Groth16Verifier.sol\":16232:16243  uint256 a_3 */\n      0x00\n        /* \".deps/github/succinctlabs/sp1-contracts/contracts/src/v3.0.0/Groth16Verifier.sol\":1427:1493  0x30644e72e131a029b85045b68181585d97816a916871ca8d3c208c16d87cfd47 */\n      0x30644e72e131a029b85045b68181585d97816a916871ca8d3c208c16d87cfd47\n        /* \".deps/github/succinctlabs/sp1-contracts/contracts/src/v3.0.0/Groth16Verifier.sol\":16246:16278  mulmod(mulmod(x0, x0, P), x0, P) */\n      dup1\n      tag_232\n      jumpi\n      tag_233\n      tag_136\n      jump\t// in\n    tag_233:\n    tag_232:\n        /* \".deps/github/succinctlabs/sp1-contracts/contracts/src/v3.0.0/Groth16Verifier.sol\":16272:16274  x0 */\n      dup9\n        /* \".deps/github/succinctlabs/sp1-contracts/contracts/src/v3.0.0/Groth16Verifier.sol\":1427:1493  0x30644e72e131a029b85045b68181585d97816a916871ca8d3c208c16d87cfd47 */\n      0x30644e72e131a029b85045b68181585d97816a916871ca8d3c208c16d87cfd47\n        /* \".deps/github/succinctlabs/sp1-contracts/contracts/src/v3.0.0/Groth16Verifier.sol\":16253:16270  mulmod(x0, x0, P) */\n      dup1\n      tag_234\n      jumpi\n      tag_235\n      tag_136\n      jump\t// in\n    tag_235:\n    tag_234:\n        /* \".deps/github/succinctlabs/sp1-contracts/contracts/src/v3.0.0/Groth16Verifier.sol\":16264:16266  x0 */\n      dup11\n        /* \".deps/github/succinctlabs/sp1-contracts/contracts/src/v3.0.0/Groth16Verifier.sol\":16260:16262  x0 */\n      dup12\n        /* \".deps/github/succinctlabs/sp1-contracts/contracts/src/v3.0.0/Groth16Verifier.sol\":16253:16270  mulmod(x0, x0, P) */\n      mulmod\n        /* \".deps/github/succinctlabs/sp1-contracts/contracts/src/v3.0.0/Groth16Verifier.sol\":16246:16278  mulmod(mulmod(x0, x0, P), x0, P) */\n      mulmod\n        /* \".deps/github/succinctlabs/sp1-contracts/contracts/src/v3.0.0/Groth16Verifier.sol\":16232:16278  uint256 a_3 = mulmod(mulmod(x0, x0, P), x0, P) */\n      swap1\n      pop\n        /* \".deps/github/succinctlabs/sp1-contracts/contracts/src/v3.0.0/Groth16Verifier.sol\":16289:16300  uint256 b_3 */\n      0x00\n        /* \".deps/github/succinctlabs/sp1-contracts/contracts/src/v3.0.0/Groth16Verifier.sol\":1427:1493  0x30644e72e131a029b85045b68181585d97816a916871ca8d3c208c16d87cfd47 */\n      0x30644e72e131a029b85045b68181585d97816a916871ca8d3c208c16d87cfd47\n        /* \".deps/github/succinctlabs/sp1-contracts/contracts/src/v3.0.0/Groth16Verifier.sol\":16303:16335  mulmod(mulmod(x1, x1, P), x1, P) */\n      dup1\n      tag_236\n      jumpi\n      tag_237\n      tag_136\n      jump\t// in\n    tag_237:\n    tag_236:\n        /* \".deps/github/succinctlabs/sp1-contracts/contracts/src/v3.0.0/Groth16Verifier.sol\":16329:16331  x1 */\n      dup9\n        /* \".deps/github/succinctlabs/sp1-contracts/contracts/src/v3.0.0/Groth16Verifier.sol\":1427:1493  0x30644e72e131a029b85045b68181585d97816a916871ca8d3c208c16d87cfd47 */\n      0x30644e72e131a029b85045b68181585d97816a916871ca8d3c208c16d87cfd47\n        /* \".deps/github/succinctlabs/sp1-contracts/contracts/src/v3.0.0/Groth16Verifier.sol\":16310:16327  mulmod(x1, x1, P) */\n      dup1\n      tag_238\n      jumpi\n      tag_239\n      tag_136\n      jump\t// in\n    tag_239:\n    tag_238:\n        /* \".deps/github/succinctlabs/sp1-contracts/contracts/src/v3.0.0/Groth16Verifier.sol\":16321:16323  x1 */\n      dup11\n        /* \".deps/github/succinctlabs/sp1-contracts/contracts/src/v3.0.0/Groth16Verifier.sol\":16317:16319  x1 */\n      dup12\n        /* \".deps/github/succinctlabs/sp1-contracts/contracts/src/v3.0.0/Groth16Verifier.sol\":16310:16327  mulmod(x1, x1, P) */\n      mulmod\n        /* \".deps/github/succinctlabs/sp1-contracts/contracts/src/v3.0.0/Groth16Verifier.sol\":16303:16335  mulmod(mulmod(x1, x1, P), x1, P) */\n      mulmod\n        /* \".deps/github/succinctlabs/sp1-contracts/contracts/src/v3.0.0/Groth16Verifier.sol\":16289:16335  uint256 b_3 = mulmod(mulmod(x1, x1, P), x1, P) */\n      swap1\n      pop\n        /* \".deps/github/succinctlabs/sp1-contracts/contracts/src/v3.0.0/Groth16Verifier.sol\":1427:1493  0x30644e72e131a029b85045b68181585d97816a916871ca8d3c208c16d87cfd47 */\n      0x30644e72e131a029b85045b68181585d97816a916871ca8d3c208c16d87cfd47\n        /* \".deps/github/succinctlabs/sp1-contracts/contracts/src/v3.0.0/Groth16Verifier.sol\":16353:16418  addmod(FRACTION_27_82_FP, addmod(a_3, mulmod(n3ab, x1, P), P), P) */\n      dup1\n      tag_240\n      jumpi\n      tag_241\n      tag_136\n      jump\t// in\n    tag_241:\n    tag_240:\n        /* \".deps/github/succinctlabs/sp1-contracts/contracts/src/v3.0.0/Groth16Verifier.sol\":1427:1493  0x30644e72e131a029b85045b68181585d97816a916871ca8d3c208c16d87cfd47 */\n      0x30644e72e131a029b85045b68181585d97816a916871ca8d3c208c16d87cfd47\n        /* \".deps/github/succinctlabs/sp1-contracts/contracts/src/v3.0.0/Groth16Verifier.sol\":16379:16414  addmod(a_3, mulmod(n3ab, x1, P), P) */\n      dup1\n      tag_242\n      jumpi\n      tag_243\n      tag_136\n      jump\t// in\n    tag_243:\n    tag_242:\n        /* \".deps/github/succinctlabs/sp1-contracts/contracts/src/v3.0.0/Groth16Verifier.sol\":1427:1493  0x30644e72e131a029b85045b68181585d97816a916871ca8d3c208c16d87cfd47 */\n      0x30644e72e131a029b85045b68181585d97816a916871ca8d3c208c16d87cfd47\n        /* \".deps/github/succinctlabs/sp1-contracts/contracts/src/v3.0.0/Groth16Verifier.sol\":16391:16410  mulmod(n3ab, x1, P) */\n      dup1\n      tag_244\n      jumpi\n      tag_245\n      tag_136\n      jump\t// in\n    tag_245:\n    tag_244:\n        /* \".deps/github/succinctlabs/sp1-contracts/contracts/src/v3.0.0/Groth16Verifier.sol\":16404:16406  x1 */\n      dup11\n        /* \".deps/github/succinctlabs/sp1-contracts/contracts/src/v3.0.0/Groth16Verifier.sol\":16398:16402  n3ab */\n      dup7\n        /* \".deps/github/succinctlabs/sp1-contracts/contracts/src/v3.0.0/Groth16Verifier.sol\":16391:16410  mulmod(n3ab, x1, P) */\n      mulmod\n        /* \".deps/github/succinctlabs/sp1-contracts/contracts/src/v3.0.0/Groth16Verifier.sol\":16386:16389  a_3 */\n      dup5\n        /* \".deps/github/succinctlabs/sp1-contracts/contracts/src/v3.0.0/Groth16Verifier.sol\":16379:16414  addmod(a_3, mulmod(n3ab, x1, P), P) */\n      addmod\n        /* \".deps/github/succinctlabs/sp1-contracts/contracts/src/v3.0.0/Groth16Verifier.sol\":2276:2342  0x2b149d40ceb8aaae81be18991be06ac3b5b4c5e559dbefa33267e6dc24a138e5 */\n      0x2b149d40ceb8aaae81be18991be06ac3b5b4c5e559dbefa33267e6dc24a138e5\n        /* \".deps/github/succinctlabs/sp1-contracts/contracts/src/v3.0.0/Groth16Verifier.sol\":16353:16418  addmod(FRACTION_27_82_FP, addmod(a_3, mulmod(n3ab, x1, P), P), P) */\n      addmod\n        /* \".deps/github/succinctlabs/sp1-contracts/contracts/src/v3.0.0/Groth16Verifier.sol\":16348:16418  y0 = addmod(FRACTION_27_82_FP, addmod(a_3, mulmod(n3ab, x1, P), P), P) */\n      swap7\n      pop\n        /* \".deps/github/succinctlabs/sp1-contracts/contracts/src/v3.0.0/Groth16Verifier.sol\":16434:16506  negate(addmod(FRACTION_3_82_FP, addmod(b_3, mulmod(n3ab, x0, P), P), P)) */\n      tag_246\n        /* \".deps/github/succinctlabs/sp1-contracts/contracts/src/v3.0.0/Groth16Verifier.sol\":1427:1493  0x30644e72e131a029b85045b68181585d97816a916871ca8d3c208c16d87cfd47 */\n      0x30644e72e131a029b85045b68181585d97816a916871ca8d3c208c16d87cfd47\n        /* \".deps/github/succinctlabs/sp1-contracts/contracts/src/v3.0.0/Groth16Verifier.sol\":16441:16505  addmod(FRACTION_3_82_FP, addmod(b_3, mulmod(n3ab, x0, P), P), P) */\n      dup1\n      tag_247\n      jumpi\n      tag_248\n      tag_136\n      jump\t// in\n    tag_248:\n    tag_247:\n        /* \".deps/github/succinctlabs/sp1-contracts/contracts/src/v3.0.0/Groth16Verifier.sol\":1427:1493  0x30644e72e131a029b85045b68181585d97816a916871ca8d3c208c16d87cfd47 */\n      0x30644e72e131a029b85045b68181585d97816a916871ca8d3c208c16d87cfd47\n        /* \".deps/github/succinctlabs/sp1-contracts/contracts/src/v3.0.0/Groth16Verifier.sol\":16466:16501  addmod(b_3, mulmod(n3ab, x0, P), P) */\n      dup1\n      tag_249\n      jumpi\n      tag_250\n      tag_136\n      jump\t// in\n    tag_250:\n    tag_249:\n        /* \".deps/github/succinctlabs/sp1-contracts/contracts/src/v3.0.0/Groth16Verifier.sol\":1427:1493  0x30644e72e131a029b85045b68181585d97816a916871ca8d3c208c16d87cfd47 */\n      0x30644e72e131a029b85045b68181585d97816a916871ca8d3c208c16d87cfd47\n        /* \".deps/github/succinctlabs/sp1-contracts/contracts/src/v3.0.0/Groth16Verifier.sol\":16478:16497  mulmod(n3ab, x0, P) */\n      dup1\n      tag_251\n      jumpi\n      tag_252\n      tag_136\n      jump\t// in\n    tag_252:\n    tag_251:\n        /* \".deps/github/succinctlabs/sp1-contracts/contracts/src/v3.0.0/Groth16Verifier.sol\":16491:16493  x0 */\n      dup13\n        /* \".deps/github/succinctlabs/sp1-contracts/contracts/src/v3.0.0/Groth16Verifier.sol\":16485:16489  n3ab */\n      dup8\n        /* \".deps/github/succinctlabs/sp1-contracts/contracts/src/v3.0.0/Groth16Verifier.sol\":16478:16497  mulmod(n3ab, x0, P) */\n      mulmod\n        /* \".deps/github/succinctlabs/sp1-contracts/contracts/src/v3.0.0/Groth16Verifier.sol\":16473:16476  b_3 */\n      dup5\n        /* \".deps/github/succinctlabs/sp1-contracts/contracts/src/v3.0.0/Groth16Verifier.sol\":16466:16501  addmod(b_3, mulmod(n3ab, x0, P), P) */\n      addmod\n        /* \".deps/github/succinctlabs/sp1-contracts/contracts/src/v3.0.0/Groth16Verifier.sol\":2394:2460  0x2fcd3ac2a640a154eb23960892a85a68f031ca0c8344b23a577dcf1052b9e775 */\n      0x2fcd3ac2a640a154eb23960892a85a68f031ca0c8344b23a577dcf1052b9e775\n        /* \".deps/github/succinctlabs/sp1-contracts/contracts/src/v3.0.0/Groth16Verifier.sol\":16441:16505  addmod(FRACTION_3_82_FP, addmod(b_3, mulmod(n3ab, x0, P), P), P) */\n      addmod\n        /* \".deps/github/succinctlabs/sp1-contracts/contracts/src/v3.0.0/Groth16Verifier.sol\":16434:16440  negate */\n      tag_145\n        /* \".deps/github/succinctlabs/sp1-contracts/contracts/src/v3.0.0/Groth16Verifier.sol\":16434:16506  negate(addmod(FRACTION_3_82_FP, addmod(b_3, mulmod(n3ab, x0, P), P), P)) */\n      jump\t// in\n    tag_246:\n        /* \".deps/github/succinctlabs/sp1-contracts/contracts/src/v3.0.0/Groth16Verifier.sol\":16429:16506  y1 = negate(addmod(FRACTION_3_82_FP, addmod(b_3, mulmod(n3ab, x0, P), P), P)) */\n      swap6\n      pop\n        /* \".deps/github/succinctlabs/sp1-contracts/contracts/src/v3.0.0/Groth16Verifier.sol\":16771:16793  sqrt_Fp2(y0, y1, hint) */\n      tag_253\n        /* \".deps/github/succinctlabs/sp1-contracts/contracts/src/v3.0.0/Groth16Verifier.sol\":16780:16782  y0 */\n      dup8\n        /* \".deps/github/succinctlabs/sp1-contracts/contracts/src/v3.0.0/Groth16Verifier.sol\":16784:16786  y1 */\n      dup8\n        /* \".deps/github/succinctlabs/sp1-contracts/contracts/src/v3.0.0/Groth16Verifier.sol\":16788:16792  hint */\n      dup7\n        /* \".deps/github/succinctlabs/sp1-contracts/contracts/src/v3.0.0/Groth16Verifier.sol\":16771:16779  sqrt_Fp2 */\n      tag_195\n        /* \".deps/github/succinctlabs/sp1-contracts/contracts/src/v3.0.0/Groth16Verifier.sol\":16771:16793  sqrt_Fp2(y0, y1, hint) */\n      jump\t// in\n    tag_253:\n        /* \".deps/github/succinctlabs/sp1-contracts/contracts/src/v3.0.0/Groth16Verifier.sol\":16760:16793  (y0, y1) = sqrt_Fp2(y0, y1, hint) */\n      dup1\n      swap8\n      pop\n      dup2\n      swap9\n      pop\n      pop\n      pop\n        /* \".deps/github/succinctlabs/sp1-contracts/contracts/src/v3.0.0/Groth16Verifier.sol\":16808:16820  negate_point */\n      dup5\n        /* \".deps/github/succinctlabs/sp1-contracts/contracts/src/v3.0.0/Groth16Verifier.sol\":16804:16894  if (negate_point) {... */\n      iszero\n      tag_254\n      jumpi\n        /* \".deps/github/succinctlabs/sp1-contracts/contracts/src/v3.0.0/Groth16Verifier.sol\":16842:16852  negate(y0) */\n      tag_255\n        /* \".deps/github/succinctlabs/sp1-contracts/contracts/src/v3.0.0/Groth16Verifier.sol\":16849:16851  y0 */\n      dup8\n        /* \".deps/github/succinctlabs/sp1-contracts/contracts/src/v3.0.0/Groth16Verifier.sol\":16842:16848  negate */\n      tag_145\n        /* \".deps/github/succinctlabs/sp1-contracts/contracts/src/v3.0.0/Groth16Verifier.sol\":16842:16852  negate(y0) */\n      jump\t// in\n    tag_255:\n        /* \".deps/github/succinctlabs/sp1-contracts/contracts/src/v3.0.0/Groth16Verifier.sol\":16837:16852  y0 = negate(y0) */\n      swap7\n      pop\n        /* \".deps/github/succinctlabs/sp1-contracts/contracts/src/v3.0.0/Groth16Verifier.sol\":16872:16882  negate(y1) */\n      tag_256\n        /* \".deps/github/succinctlabs/sp1-contracts/contracts/src/v3.0.0/Groth16Verifier.sol\":16879:16881  y1 */\n      dup7\n        /* \".deps/github/succinctlabs/sp1-contracts/contracts/src/v3.0.0/Groth16Verifier.sol\":16872:16878  negate */\n      tag_145\n        /* \".deps/github/succinctlabs/sp1-contracts/contracts/src/v3.0.0/Groth16Verifier.sol\":16872:16882  negate(y1) */\n      jump\t// in\n    tag_256:\n        /* \".deps/github/succinctlabs/sp1-contracts/contracts/src/v3.0.0/Groth16Verifier.sol\":16867:16882  y1 = negate(y1) */\n      swap6\n      pop\n        /* \".deps/github/succinctlabs/sp1-contracts/contracts/src/v3.0.0/Groth16Verifier.sol\":16804:16894  if (negate_point) {... */\n    tag_254:\n        /* \".deps/github/succinctlabs/sp1-contracts/contracts/src/v3.0.0/Groth16Verifier.sol\":15612:16901  {... */\n      pop\n      pop\n      pop\n      pop\n      pop\n        /* \".deps/github/succinctlabs/sp1-contracts/contracts/src/v3.0.0/Groth16Verifier.sol\":15462:16901  function decompress_g2(uint256 c0, uint256 c1)... */\n    tag_222:\n      swap3\n      swap6\n      swap2\n      swap5\n      pop\n      swap3\n      pop\n      jump\t// out\n        /* \".deps/github/succinctlabs/sp1-contracts/contracts/src/v3.0.0/Groth16Verifier.sol\":7585:7892  function sqrt_Fp(uint256 a) internal view returns (uint256 x) {... */\n    tag_141:\n        /* \".deps/github/succinctlabs/sp1-contracts/contracts/src/v3.0.0/Groth16Verifier.sol\":7636:7645  uint256 x */\n      0x00\n        /* \".deps/github/succinctlabs/sp1-contracts/contracts/src/v3.0.0/Groth16Verifier.sol\":7662:7681  exp(a, EXP_SQRT_FP) */\n      tag_258\n        /* \".deps/github/succinctlabs/sp1-contracts/contracts/src/v3.0.0/Groth16Verifier.sol\":7666:7667  a */\n      dup3\n        /* \".deps/github/succinctlabs/sp1-contracts/contracts/src/v3.0.0/Groth16Verifier.sol\":2681:2746  0xC19139CB84C680A6E14116DA060561765E05AA45A1C72A34F082305B61F3F52 */\n      0x0c19139cb84c680a6e14116da060561765e05aa45a1c72a34f082305b61f3f52\n        /* \".deps/github/succinctlabs/sp1-contracts/contracts/src/v3.0.0/Groth16Verifier.sol\":7662:7665  exp */\n      tag_259\n        /* \".deps/github/succinctlabs/sp1-contracts/contracts/src/v3.0.0/Groth16Verifier.sol\":7662:7681  exp(a, EXP_SQRT_FP) */\n      jump\t// in\n    tag_258:\n        /* \".deps/github/succinctlabs/sp1-contracts/contracts/src/v3.0.0/Groth16Verifier.sol\":7658:7681  x = exp(a, EXP_SQRT_FP) */\n      swap1\n      pop\n        /* \".deps/github/succinctlabs/sp1-contracts/contracts/src/v3.0.0/Groth16Verifier.sol\":7715:7716  a */\n      dup2\n        /* \".deps/github/succinctlabs/sp1-contracts/contracts/src/v3.0.0/Groth16Verifier.sol\":1427:1493  0x30644e72e131a029b85045b68181585d97816a916871ca8d3c208c16d87cfd47 */\n      0x30644e72e131a029b85045b68181585d97816a916871ca8d3c208c16d87cfd47\n        /* \".deps/github/succinctlabs/sp1-contracts/contracts/src/v3.0.0/Groth16Verifier.sol\":7696:7711  mulmod(x, x, P) */\n      dup1\n      tag_260\n      jumpi\n      tag_261\n      tag_136\n      jump\t// in\n    tag_261:\n    tag_260:\n        /* \".deps/github/succinctlabs/sp1-contracts/contracts/src/v3.0.0/Groth16Verifier.sol\":7706:7707  x */\n      dup3\n        /* \".deps/github/succinctlabs/sp1-contracts/contracts/src/v3.0.0/Groth16Verifier.sol\":7703:7704  x */\n      dup4\n        /* \".deps/github/succinctlabs/sp1-contracts/contracts/src/v3.0.0/Groth16Verifier.sol\":7696:7711  mulmod(x, x, P) */\n      mulmod\n        /* \".deps/github/succinctlabs/sp1-contracts/contracts/src/v3.0.0/Groth16Verifier.sol\":7696:7716  mulmod(x, x, P) != a */\n      eq\n        /* \".deps/github/succinctlabs/sp1-contracts/contracts/src/v3.0.0/Groth16Verifier.sol\":7692:7885  if (mulmod(x, x, P) != a) {... */\n      tag_262\n      jumpi\n        /* \".deps/github/succinctlabs/sp1-contracts/contracts/src/v3.0.0/Groth16Verifier.sol\":7859:7873  ProofInvalid() */\n      mload(0x40)\n      0x7fcdd1f400000000000000000000000000000000000000000000000000000000\n      dup2\n      mstore\n      0x04\n      add\n      mload(0x40)\n      dup1\n      swap2\n      sub\n      swap1\n      revert\n        /* \".deps/github/succinctlabs/sp1-contracts/contracts/src/v3.0.0/Groth16Verifier.sol\":7692:7885  if (mulmod(x, x, P) != a) {... */\n    tag_262:\n        /* \".deps/github/succinctlabs/sp1-contracts/contracts/src/v3.0.0/Groth16Verifier.sol\":7585:7892  function sqrt_Fp(uint256 a) internal view returns (uint256 x) {... */\n      swap2\n      swap1\n      pop\n      jump\t// out\n        /* \".deps/github/succinctlabs/sp1-contracts/contracts/src/v3.0.0/Groth16Verifier.sol\":5665:5838  function negate(uint256 a) internal pure returns (uint256 x) {... */\n    tag_145:\n        /* \".deps/github/succinctlabs/sp1-contracts/contracts/src/v3.0.0/Groth16Verifier.sol\":5715:5724  uint256 x */\n      0x00\n        /* \".deps/github/succinctlabs/sp1-contracts/contracts/src/v3.0.0/Groth16Verifier.sol\":1427:1493  0x30644e72e131a029b85045b68181585d97816a916871ca8d3c208c16d87cfd47 */\n      0x30644e72e131a029b85045b68181585d97816a916871ca8d3c208c16d87cfd47\n      dup1\n        /* \".deps/github/succinctlabs/sp1-contracts/contracts/src/v3.0.0/Groth16Verifier.sol\":5772:5773  a */\n      dup4\n        /* \".deps/github/succinctlabs/sp1-contracts/contracts/src/v3.0.0/Groth16Verifier.sol\":5772:5777  a % P */\n      dup2\n      tag_264\n      jumpi\n      tag_265\n      tag_136\n      jump\t// in\n    tag_265:\n    tag_264:\n      mod\n        /* \".deps/github/succinctlabs/sp1-contracts/contracts/src/v3.0.0/Groth16Verifier.sol\":1427:1493  0x30644e72e131a029b85045b68181585d97816a916871ca8d3c208c16d87cfd47 */\n      0x30644e72e131a029b85045b68181585d97816a916871ca8d3c208c16d87cfd47\n        /* \".deps/github/succinctlabs/sp1-contracts/contracts/src/v3.0.0/Groth16Verifier.sol\":5767:5778  P - (a % P) */\n      sub\n        /* \".deps/github/succinctlabs/sp1-contracts/contracts/src/v3.0.0/Groth16Verifier.sol\":5766:5783  (P - (a % P)) % P */\n      dup2\n      tag_266\n      jumpi\n      tag_267\n      tag_136\n      jump\t// in\n    tag_267:\n    tag_266:\n      mod\n        /* \".deps/github/succinctlabs/sp1-contracts/contracts/src/v3.0.0/Groth16Verifier.sol\":5762:5783  x = (P - (a % P)) % P */\n      swap1\n      pop\n        /* \".deps/github/succinctlabs/sp1-contracts/contracts/src/v3.0.0/Groth16Verifier.sol\":5665:5838  function negate(uint256 a) internal pure returns (uint256 x) {... */\n      swap2\n      swap1\n      pop\n      jump\t// out\n        /* \".deps/github/succinctlabs/sp1-contracts/contracts/src/v3.0.0/Groth16Verifier.sol\":8170:8319  function isSquare_Fp(uint256 a) internal view returns (bool) {... */\n    tag_193:\n        /* \".deps/github/succinctlabs/sp1-contracts/contracts/src/v3.0.0/Groth16Verifier.sol\":8225:8229  bool */\n      0x00\n        /* \".deps/github/succinctlabs/sp1-contracts/contracts/src/v3.0.0/Groth16Verifier.sol\":8242:8251  uint256 x */\n      0x00\n        /* \".deps/github/succinctlabs/sp1-contracts/contracts/src/v3.0.0/Groth16Verifier.sol\":8254:8273  exp(a, EXP_SQRT_FP) */\n      tag_269\n        /* \".deps/github/succinctlabs/sp1-contracts/contracts/src/v3.0.0/Groth16Verifier.sol\":8258:8259  a */\n      dup4\n        /* \".deps/github/succinctlabs/sp1-contracts/contracts/src/v3.0.0/Groth16Verifier.sol\":2681:2746  0xC19139CB84C680A6E14116DA060561765E05AA45A1C72A34F082305B61F3F52 */\n      0x0c19139cb84c680a6e14116da060561765e05aa45a1c72a34f082305b61f3f52\n        /* \".deps/github/succinctlabs/sp1-contracts/contracts/src/v3.0.0/Groth16Verifier.sol\":8254:8257  exp */\n      tag_259\n        /* \".deps/github/succinctlabs/sp1-contracts/contracts/src/v3.0.0/Groth16Verifier.sol\":8254:8273  exp(a, EXP_SQRT_FP) */\n      jump\t// in\n    tag_269:\n        /* \".deps/github/succinctlabs/sp1-contracts/contracts/src/v3.0.0/Groth16Verifier.sol\":8242:8273  uint256 x = exp(a, EXP_SQRT_FP) */\n      swap1\n      pop\n        /* \".deps/github/succinctlabs/sp1-contracts/contracts/src/v3.0.0/Groth16Verifier.sol\":8310:8311  a */\n      dup3\n        /* \".deps/github/succinctlabs/sp1-contracts/contracts/src/v3.0.0/Groth16Verifier.sol\":1427:1493  0x30644e72e131a029b85045b68181585d97816a916871ca8d3c208c16d87cfd47 */\n      0x30644e72e131a029b85045b68181585d97816a916871ca8d3c208c16d87cfd47\n        /* \".deps/github/succinctlabs/sp1-contracts/contracts/src/v3.0.0/Groth16Verifier.sol\":8291:8306  mulmod(x, x, P) */\n      dup1\n      tag_270\n      jumpi\n      tag_271\n      tag_136\n      jump\t// in\n    tag_271:\n    tag_270:\n        /* \".deps/github/succinctlabs/sp1-contracts/contracts/src/v3.0.0/Groth16Verifier.sol\":8301:8302  x */\n      dup3\n        /* \".deps/github/succinctlabs/sp1-contracts/contracts/src/v3.0.0/Groth16Verifier.sol\":8298:8299  x */\n      dup4\n        /* \".deps/github/succinctlabs/sp1-contracts/contracts/src/v3.0.0/Groth16Verifier.sol\":8291:8306  mulmod(x, x, P) */\n      mulmod\n        /* \".deps/github/succinctlabs/sp1-contracts/contracts/src/v3.0.0/Groth16Verifier.sol\":8291:8311  mulmod(x, x, P) == a */\n      eq\n        /* \".deps/github/succinctlabs/sp1-contracts/contracts/src/v3.0.0/Groth16Verifier.sol\":8284:8311  return mulmod(x, x, P) == a */\n      swap2\n      pop\n      pop\n        /* \".deps/github/succinctlabs/sp1-contracts/contracts/src/v3.0.0/Groth16Verifier.sol\":8170:8319  function isSquare_Fp(uint256 a) internal view returns (bool) {... */\n      swap2\n      swap1\n      pop\n      jump\t// out\n        /* \".deps/github/succinctlabs/sp1-contracts/contracts/src/v3.0.0/Groth16Verifier.sol\":8964:9834  function sqrt_Fp2(uint256 a0, uint256 a1, bool hint)... */\n    tag_195:\n        /* \".deps/github/succinctlabs/sp1-contracts/contracts/src/v3.0.0/Groth16Verifier.sol\":9067:9077  uint256 x0 */\n      0x00\n        /* \".deps/github/succinctlabs/sp1-contracts/contracts/src/v3.0.0/Groth16Verifier.sol\":9079:9089  uint256 x1 */\n      0x00\n        /* \".deps/github/succinctlabs/sp1-contracts/contracts/src/v3.0.0/Groth16Verifier.sol\":9176:9185  uint256 d */\n      0x00\n        /* \".deps/github/succinctlabs/sp1-contracts/contracts/src/v3.0.0/Groth16Verifier.sol\":9188:9244  sqrt_Fp(addmod(mulmod(a0, a0, P), mulmod(a1, a1, P), P)) */\n      tag_273\n        /* \".deps/github/succinctlabs/sp1-contracts/contracts/src/v3.0.0/Groth16Verifier.sol\":1427:1493  0x30644e72e131a029b85045b68181585d97816a916871ca8d3c208c16d87cfd47 */\n      0x30644e72e131a029b85045b68181585d97816a916871ca8d3c208c16d87cfd47\n        /* \".deps/github/succinctlabs/sp1-contracts/contracts/src/v3.0.0/Groth16Verifier.sol\":9196:9243  addmod(mulmod(a0, a0, P), mulmod(a1, a1, P), P) */\n      dup1\n      tag_274\n      jumpi\n      tag_275\n      tag_136\n      jump\t// in\n    tag_275:\n    tag_274:\n        /* \".deps/github/succinctlabs/sp1-contracts/contracts/src/v3.0.0/Groth16Verifier.sol\":1427:1493  0x30644e72e131a029b85045b68181585d97816a916871ca8d3c208c16d87cfd47 */\n      0x30644e72e131a029b85045b68181585d97816a916871ca8d3c208c16d87cfd47\n        /* \".deps/github/succinctlabs/sp1-contracts/contracts/src/v3.0.0/Groth16Verifier.sol\":9222:9239  mulmod(a1, a1, P) */\n      dup1\n      tag_276\n      jumpi\n      tag_277\n      tag_136\n      jump\t// in\n    tag_277:\n    tag_276:\n        /* \".deps/github/succinctlabs/sp1-contracts/contracts/src/v3.0.0/Groth16Verifier.sol\":9233:9235  a1 */\n      dup8\n        /* \".deps/github/succinctlabs/sp1-contracts/contracts/src/v3.0.0/Groth16Verifier.sol\":9229:9231  a1 */\n      dup9\n        /* \".deps/github/succinctlabs/sp1-contracts/contracts/src/v3.0.0/Groth16Verifier.sol\":9222:9239  mulmod(a1, a1, P) */\n      mulmod\n        /* \".deps/github/succinctlabs/sp1-contracts/contracts/src/v3.0.0/Groth16Verifier.sol\":1427:1493  0x30644e72e131a029b85045b68181585d97816a916871ca8d3c208c16d87cfd47 */\n      0x30644e72e131a029b85045b68181585d97816a916871ca8d3c208c16d87cfd47\n        /* \".deps/github/succinctlabs/sp1-contracts/contracts/src/v3.0.0/Groth16Verifier.sol\":9203:9220  mulmod(a0, a0, P) */\n      dup1\n      tag_278\n      jumpi\n      tag_279\n      tag_136\n      jump\t// in\n    tag_279:\n    tag_278:\n        /* \".deps/github/succinctlabs/sp1-contracts/contracts/src/v3.0.0/Groth16Verifier.sol\":9214:9216  a0 */\n      dup10\n        /* \".deps/github/succinctlabs/sp1-contracts/contracts/src/v3.0.0/Groth16Verifier.sol\":9210:9212  a0 */\n      dup11\n        /* \".deps/github/succinctlabs/sp1-contracts/contracts/src/v3.0.0/Groth16Verifier.sol\":9203:9220  mulmod(a0, a0, P) */\n      mulmod\n        /* \".deps/github/succinctlabs/sp1-contracts/contracts/src/v3.0.0/Groth16Verifier.sol\":9196:9243  addmod(mulmod(a0, a0, P), mulmod(a1, a1, P), P) */\n      addmod\n        /* \".deps/github/succinctlabs/sp1-contracts/contracts/src/v3.0.0/Groth16Verifier.sol\":9188:9195  sqrt_Fp */\n      tag_141\n        /* \".deps/github/succinctlabs/sp1-contracts/contracts/src/v3.0.0/Groth16Verifier.sol\":9188:9244  sqrt_Fp(addmod(mulmod(a0, a0, P), mulmod(a1, a1, P), P)) */\n      jump\t// in\n    tag_273:\n        /* \".deps/github/succinctlabs/sp1-contracts/contracts/src/v3.0.0/Groth16Verifier.sol\":9176:9244  uint256 d = sqrt_Fp(addmod(mulmod(a0, a0, P), mulmod(a1, a1, P), P)) */\n      swap1\n      pop\n        /* \".deps/github/succinctlabs/sp1-contracts/contracts/src/v3.0.0/Groth16Verifier.sol\":9259:9263  hint */\n      dup4\n        /* \".deps/github/succinctlabs/sp1-contracts/contracts/src/v3.0.0/Groth16Verifier.sol\":9255:9305  if (hint) {... */\n      iszero\n      tag_280\n      jumpi\n        /* \".deps/github/succinctlabs/sp1-contracts/contracts/src/v3.0.0/Groth16Verifier.sol\":9284:9293  negate(d) */\n      tag_281\n        /* \".deps/github/succinctlabs/sp1-contracts/contracts/src/v3.0.0/Groth16Verifier.sol\":9291:9292  d */\n      dup2\n        /* \".deps/github/succinctlabs/sp1-contracts/contracts/src/v3.0.0/Groth16Verifier.sol\":9284:9290  negate */\n      tag_145\n        /* \".deps/github/succinctlabs/sp1-contracts/contracts/src/v3.0.0/Groth16Verifier.sol\":9284:9293  negate(d) */\n      jump\t// in\n    tag_281:\n        /* \".deps/github/succinctlabs/sp1-contracts/contracts/src/v3.0.0/Groth16Verifier.sol\":9280:9293  d = negate(d) */\n      swap1\n      pop\n        /* \".deps/github/succinctlabs/sp1-contracts/contracts/src/v3.0.0/Groth16Verifier.sol\":9255:9305  if (hint) {... */\n    tag_280:\n        /* \".deps/github/succinctlabs/sp1-contracts/contracts/src/v3.0.0/Groth16Verifier.sol\":9389:9442  sqrt_Fp(mulmod(addmod(a0, d, P), FRACTION_1_2_FP, P)) */\n      tag_282\n        /* \".deps/github/succinctlabs/sp1-contracts/contracts/src/v3.0.0/Groth16Verifier.sol\":1427:1493  0x30644e72e131a029b85045b68181585d97816a916871ca8d3c208c16d87cfd47 */\n      0x30644e72e131a029b85045b68181585d97816a916871ca8d3c208c16d87cfd47\n        /* \".deps/github/succinctlabs/sp1-contracts/contracts/src/v3.0.0/Groth16Verifier.sol\":9397:9441  mulmod(addmod(a0, d, P), FRACTION_1_2_FP, P) */\n      dup1\n      tag_283\n      jumpi\n      tag_284\n      tag_136\n      jump\t// in\n    tag_284:\n    tag_283:\n        /* \".deps/github/succinctlabs/sp1-contracts/contracts/src/v3.0.0/Groth16Verifier.sol\":2157:2223  0x183227397098d014dc2822db40c0ac2ecbc0b548b438e5469e10460b6c3e7ea4 */\n      0x183227397098d014dc2822db40c0ac2ecbc0b548b438e5469e10460b6c3e7ea4\n        /* \".deps/github/succinctlabs/sp1-contracts/contracts/src/v3.0.0/Groth16Verifier.sol\":1427:1493  0x30644e72e131a029b85045b68181585d97816a916871ca8d3c208c16d87cfd47 */\n      0x30644e72e131a029b85045b68181585d97816a916871ca8d3c208c16d87cfd47\n        /* \".deps/github/succinctlabs/sp1-contracts/contracts/src/v3.0.0/Groth16Verifier.sol\":9404:9420  addmod(a0, d, P) */\n      dup1\n      tag_285\n      jumpi\n      tag_286\n      tag_136\n      jump\t// in\n    tag_286:\n    tag_285:\n        /* \".deps/github/succinctlabs/sp1-contracts/contracts/src/v3.0.0/Groth16Verifier.sol\":9415:9416  d */\n      dup5\n        /* \".deps/github/succinctlabs/sp1-contracts/contracts/src/v3.0.0/Groth16Verifier.sol\":9411:9413  a0 */\n      dup11\n        /* \".deps/github/succinctlabs/sp1-contracts/contracts/src/v3.0.0/Groth16Verifier.sol\":9404:9420  addmod(a0, d, P) */\n      addmod\n        /* \".deps/github/succinctlabs/sp1-contracts/contracts/src/v3.0.0/Groth16Verifier.sol\":9397:9441  mulmod(addmod(a0, d, P), FRACTION_1_2_FP, P) */\n      mulmod\n        /* \".deps/github/succinctlabs/sp1-contracts/contracts/src/v3.0.0/Groth16Verifier.sol\":9389:9396  sqrt_Fp */\n      tag_141\n        /* \".deps/github/succinctlabs/sp1-contracts/contracts/src/v3.0.0/Groth16Verifier.sol\":9389:9442  sqrt_Fp(mulmod(addmod(a0, d, P), FRACTION_1_2_FP, P)) */\n      jump\t// in\n    tag_282:\n        /* \".deps/github/succinctlabs/sp1-contracts/contracts/src/v3.0.0/Groth16Verifier.sol\":9384:9442  x0 = sqrt_Fp(mulmod(addmod(a0, d, P), FRACTION_1_2_FP, P)) */\n      swap3\n      pop\n        /* \".deps/github/succinctlabs/sp1-contracts/contracts/src/v3.0.0/Groth16Verifier.sol\":1427:1493  0x30644e72e131a029b85045b68181585d97816a916871ca8d3c208c16d87cfd47 */\n      0x30644e72e131a029b85045b68181585d97816a916871ca8d3c208c16d87cfd47\n        /* \".deps/github/succinctlabs/sp1-contracts/contracts/src/v3.0.0/Groth16Verifier.sol\":9458:9500  mulmod(a1, invert_Fp(mulmod(x0, 2, P)), P) */\n      dup1\n      tag_287\n      jumpi\n      tag_288\n      tag_136\n      jump\t// in\n    tag_288:\n    tag_287:\n        /* \".deps/github/succinctlabs/sp1-contracts/contracts/src/v3.0.0/Groth16Verifier.sol\":9469:9496  invert_Fp(mulmod(x0, 2, P)) */\n      tag_289\n        /* \".deps/github/succinctlabs/sp1-contracts/contracts/src/v3.0.0/Groth16Verifier.sol\":1427:1493  0x30644e72e131a029b85045b68181585d97816a916871ca8d3c208c16d87cfd47 */\n      0x30644e72e131a029b85045b68181585d97816a916871ca8d3c208c16d87cfd47\n        /* \".deps/github/succinctlabs/sp1-contracts/contracts/src/v3.0.0/Groth16Verifier.sol\":9479:9495  mulmod(x0, 2, P) */\n      dup1\n      tag_290\n      jumpi\n      tag_291\n      tag_136\n      jump\t// in\n    tag_291:\n    tag_290:\n        /* \".deps/github/succinctlabs/sp1-contracts/contracts/src/v3.0.0/Groth16Verifier.sol\":9490:9491  2 */\n      0x02\n        /* \".deps/github/succinctlabs/sp1-contracts/contracts/src/v3.0.0/Groth16Verifier.sol\":9486:9488  x0 */\n      dup7\n        /* \".deps/github/succinctlabs/sp1-contracts/contracts/src/v3.0.0/Groth16Verifier.sol\":9479:9495  mulmod(x0, 2, P) */\n      mulmod\n        /* \".deps/github/succinctlabs/sp1-contracts/contracts/src/v3.0.0/Groth16Verifier.sol\":9469:9478  invert_Fp */\n      tag_292\n        /* \".deps/github/succinctlabs/sp1-contracts/contracts/src/v3.0.0/Groth16Verifier.sol\":9469:9496  invert_Fp(mulmod(x0, 2, P)) */\n      jump\t// in\n    tag_289:\n        /* \".deps/github/succinctlabs/sp1-contracts/contracts/src/v3.0.0/Groth16Verifier.sol\":9465:9467  a1 */\n      dup7\n        /* \".deps/github/succinctlabs/sp1-contracts/contracts/src/v3.0.0/Groth16Verifier.sol\":9458:9500  mulmod(a1, invert_Fp(mulmod(x0, 2, P)), P) */\n      mulmod\n        /* \".deps/github/succinctlabs/sp1-contracts/contracts/src/v3.0.0/Groth16Verifier.sol\":9453:9500  x1 = mulmod(a1, invert_Fp(mulmod(x0, 2, P)), P) */\n      swap2\n      pop\n        /* \".deps/github/succinctlabs/sp1-contracts/contracts/src/v3.0.0/Groth16Verifier.sol\":1427:1493  0x30644e72e131a029b85045b68181585d97816a916871ca8d3c208c16d87cfd47 */\n      0x30644e72e131a029b85045b68181585d97816a916871ca8d3c208c16d87cfd47\n        /* \".deps/github/succinctlabs/sp1-contracts/contracts/src/v3.0.0/Groth16Verifier.sol\":9654:9709  addmod(mulmod(x0, x0, P), negate(mulmod(x1, x1, P)), P) */\n      dup1\n      tag_293\n      jumpi\n      tag_294\n      tag_136\n      jump\t// in\n    tag_294:\n    tag_293:\n        /* \".deps/github/succinctlabs/sp1-contracts/contracts/src/v3.0.0/Groth16Verifier.sol\":9680:9705  negate(mulmod(x1, x1, P)) */\n      tag_295\n        /* \".deps/github/succinctlabs/sp1-contracts/contracts/src/v3.0.0/Groth16Verifier.sol\":1427:1493  0x30644e72e131a029b85045b68181585d97816a916871ca8d3c208c16d87cfd47 */\n      0x30644e72e131a029b85045b68181585d97816a916871ca8d3c208c16d87cfd47\n        /* \".deps/github/succinctlabs/sp1-contracts/contracts/src/v3.0.0/Groth16Verifier.sol\":9687:9704  mulmod(x1, x1, P) */\n      dup1\n      tag_296\n      jumpi\n      tag_297\n      tag_136\n      jump\t// in\n    tag_297:\n    tag_296:\n        /* \".deps/github/succinctlabs/sp1-contracts/contracts/src/v3.0.0/Groth16Verifier.sol\":9698:9700  x1 */\n      dup5\n        /* \".deps/github/succinctlabs/sp1-contracts/contracts/src/v3.0.0/Groth16Verifier.sol\":9694:9696  x1 */\n      dup6\n        /* \".deps/github/succinctlabs/sp1-contracts/contracts/src/v3.0.0/Groth16Verifier.sol\":9687:9704  mulmod(x1, x1, P) */\n      mulmod\n        /* \".deps/github/succinctlabs/sp1-contracts/contracts/src/v3.0.0/Groth16Verifier.sol\":9680:9686  negate */\n      tag_145\n        /* \".deps/github/succinctlabs/sp1-contracts/contracts/src/v3.0.0/Groth16Verifier.sol\":9680:9705  negate(mulmod(x1, x1, P)) */\n      jump\t// in\n    tag_295:\n        /* \".deps/github/succinctlabs/sp1-contracts/contracts/src/v3.0.0/Groth16Verifier.sol\":1427:1493  0x30644e72e131a029b85045b68181585d97816a916871ca8d3c208c16d87cfd47 */\n      0x30644e72e131a029b85045b68181585d97816a916871ca8d3c208c16d87cfd47\n        /* \".deps/github/succinctlabs/sp1-contracts/contracts/src/v3.0.0/Groth16Verifier.sol\":9661:9678  mulmod(x0, x0, P) */\n      dup1\n      tag_298\n      jumpi\n      tag_299\n      tag_136\n      jump\t// in\n    tag_299:\n    tag_298:\n        /* \".deps/github/succinctlabs/sp1-contracts/contracts/src/v3.0.0/Groth16Verifier.sol\":9672:9674  x0 */\n      dup6\n        /* \".deps/github/succinctlabs/sp1-contracts/contracts/src/v3.0.0/Groth16Verifier.sol\":9668:9670  x0 */\n      dup7\n        /* \".deps/github/succinctlabs/sp1-contracts/contracts/src/v3.0.0/Groth16Verifier.sol\":9661:9678  mulmod(x0, x0, P) */\n      mulmod\n        /* \".deps/github/succinctlabs/sp1-contracts/contracts/src/v3.0.0/Groth16Verifier.sol\":9654:9709  addmod(mulmod(x0, x0, P), negate(mulmod(x1, x1, P)), P) */\n      addmod\n        /* \".deps/github/succinctlabs/sp1-contracts/contracts/src/v3.0.0/Groth16Verifier.sol\":9648:9650  a0 */\n      dup7\n        /* \".deps/github/succinctlabs/sp1-contracts/contracts/src/v3.0.0/Groth16Verifier.sol\":9648:9709  a0 != addmod(mulmod(x0, x0, P), negate(mulmod(x1, x1, P)), P) */\n      eq\n      iszero\n        /* \".deps/github/succinctlabs/sp1-contracts/contracts/src/v3.0.0/Groth16Verifier.sol\":9648:9767  a0 != addmod(mulmod(x0, x0, P), negate(mulmod(x1, x1, P)), P)... */\n      dup1\n      tag_300\n      jumpi\n      pop\n        /* \".deps/github/succinctlabs/sp1-contracts/contracts/src/v3.0.0/Groth16Verifier.sol\":1427:1493  0x30644e72e131a029b85045b68181585d97816a916871ca8d3c208c16d87cfd47 */\n      0x30644e72e131a029b85045b68181585d97816a916871ca8d3c208c16d87cfd47\n        /* \".deps/github/succinctlabs/sp1-contracts/contracts/src/v3.0.0/Groth16Verifier.sol\":9736:9767  mulmod(2, mulmod(x0, x1, P), P) */\n      dup1\n      tag_301\n      jumpi\n      tag_302\n      tag_136\n      jump\t// in\n    tag_302:\n    tag_301:\n        /* \".deps/github/succinctlabs/sp1-contracts/contracts/src/v3.0.0/Groth16Verifier.sol\":1427:1493  0x30644e72e131a029b85045b68181585d97816a916871ca8d3c208c16d87cfd47 */\n      0x30644e72e131a029b85045b68181585d97816a916871ca8d3c208c16d87cfd47\n        /* \".deps/github/succinctlabs/sp1-contracts/contracts/src/v3.0.0/Groth16Verifier.sol\":9746:9763  mulmod(x0, x1, P) */\n      dup1\n      tag_303\n      jumpi\n      tag_304\n      tag_136\n      jump\t// in\n    tag_304:\n    tag_303:\n        /* \".deps/github/succinctlabs/sp1-contracts/contracts/src/v3.0.0/Groth16Verifier.sol\":9757:9759  x1 */\n      dup4\n        /* \".deps/github/succinctlabs/sp1-contracts/contracts/src/v3.0.0/Groth16Verifier.sol\":9753:9755  x0 */\n      dup6\n        /* \".deps/github/succinctlabs/sp1-contracts/contracts/src/v3.0.0/Groth16Verifier.sol\":9746:9763  mulmod(x0, x1, P) */\n      mulmod\n        /* \".deps/github/succinctlabs/sp1-contracts/contracts/src/v3.0.0/Groth16Verifier.sol\":9743:9744  2 */\n      0x02\n        /* \".deps/github/succinctlabs/sp1-contracts/contracts/src/v3.0.0/Groth16Verifier.sol\":9736:9767  mulmod(2, mulmod(x0, x1, P), P) */\n      mulmod\n        /* \".deps/github/succinctlabs/sp1-contracts/contracts/src/v3.0.0/Groth16Verifier.sol\":9730:9732  a1 */\n      dup6\n        /* \".deps/github/succinctlabs/sp1-contracts/contracts/src/v3.0.0/Groth16Verifier.sol\":9730:9767  a1 != mulmod(2, mulmod(x0, x1, P), P) */\n      eq\n      iszero\n        /* \".deps/github/succinctlabs/sp1-contracts/contracts/src/v3.0.0/Groth16Verifier.sol\":9648:9767  a0 != addmod(mulmod(x0, x0, P), negate(mulmod(x1, x1, P)), P)... */\n    tag_300:\n        /* \".deps/github/succinctlabs/sp1-contracts/contracts/src/v3.0.0/Groth16Verifier.sol\":9630:9827  if (... */\n      iszero\n      tag_305\n      jumpi\n        /* \".deps/github/succinctlabs/sp1-contracts/contracts/src/v3.0.0/Groth16Verifier.sol\":9801:9815  ProofInvalid() */\n      mload(0x40)\n      0x7fcdd1f400000000000000000000000000000000000000000000000000000000\n      dup2\n      mstore\n      0x04\n      add\n      mload(0x40)\n      dup1\n      swap2\n      sub\n      swap1\n      revert\n        /* \".deps/github/succinctlabs/sp1-contracts/contracts/src/v3.0.0/Groth16Verifier.sol\":9630:9827  if (... */\n    tag_305:\n        /* \".deps/github/succinctlabs/sp1-contracts/contracts/src/v3.0.0/Groth16Verifier.sol\":9096:9834  {... */\n      pop\n        /* \".deps/github/succinctlabs/sp1-contracts/contracts/src/v3.0.0/Groth16Verifier.sol\":8964:9834  function sqrt_Fp2(uint256 a0, uint256 a1, bool hint)... */\n      swap4\n      pop\n      swap4\n      swap2\n      pop\n      pop\n      jump\t// out\n        /* \".deps/github/succinctlabs/sp1-contracts/contracts/src/v3.0.0/Groth16Verifier.sol\":6084:6737  function exp(uint256 a, uint256 e) internal view returns (uint256 x) {... */\n    tag_259:\n        /* \".deps/github/succinctlabs/sp1-contracts/contracts/src/v3.0.0/Groth16Verifier.sol\":6142:6151  uint256 x */\n      0x00\n        /* \".deps/github/succinctlabs/sp1-contracts/contracts/src/v3.0.0/Groth16Verifier.sol\":6164:6176  bool success */\n      0x00\n        /* \".deps/github/succinctlabs/sp1-contracts/contracts/src/v3.0.0/Groth16Verifier.sol\":6242:6246  0x40 */\n      0x40\n        /* \".deps/github/succinctlabs/sp1-contracts/contracts/src/v3.0.0/Groth16Verifier.sol\":6236:6247  mload(0x40) */\n      mload\n        /* \".deps/github/succinctlabs/sp1-contracts/contracts/src/v3.0.0/Groth16Verifier.sol\":6271:6275  0x20 */\n      0x20\n        /* \".deps/github/succinctlabs/sp1-contracts/contracts/src/v3.0.0/Groth16Verifier.sol\":6268:6269  f */\n      dup2\n        /* \".deps/github/succinctlabs/sp1-contracts/contracts/src/v3.0.0/Groth16Verifier.sol\":6261:6276  mstore(f, 0x20) */\n      mstore\n        /* \".deps/github/succinctlabs/sp1-contracts/contracts/src/v3.0.0/Groth16Verifier.sol\":6311:6315  0x20 */\n      0x20\n        /* \".deps/github/succinctlabs/sp1-contracts/contracts/src/v3.0.0/Groth16Verifier.sol\":6304:6308  0x20 */\n      dup1\n        /* \".deps/github/succinctlabs/sp1-contracts/contracts/src/v3.0.0/Groth16Verifier.sol\":6301:6302  f */\n      dup3\n        /* \".deps/github/succinctlabs/sp1-contracts/contracts/src/v3.0.0/Groth16Verifier.sol\":6297:6309  add(f, 0x20) */\n      add\n        /* \".deps/github/succinctlabs/sp1-contracts/contracts/src/v3.0.0/Groth16Verifier.sol\":6290:6316  mstore(add(f, 0x20), 0x20) */\n      mstore\n        /* \".deps/github/succinctlabs/sp1-contracts/contracts/src/v3.0.0/Groth16Verifier.sol\":6351:6355  0x20 */\n      0x20\n        /* \".deps/github/succinctlabs/sp1-contracts/contracts/src/v3.0.0/Groth16Verifier.sol\":6344:6348  0x40 */\n      0x40\n        /* \".deps/github/succinctlabs/sp1-contracts/contracts/src/v3.0.0/Groth16Verifier.sol\":6341:6342  f */\n      dup3\n        /* \".deps/github/succinctlabs/sp1-contracts/contracts/src/v3.0.0/Groth16Verifier.sol\":6337:6349  add(f, 0x40) */\n      add\n        /* \".deps/github/succinctlabs/sp1-contracts/contracts/src/v3.0.0/Groth16Verifier.sol\":6330:6356  mstore(add(f, 0x40), 0x20) */\n      mstore\n        /* \".deps/github/succinctlabs/sp1-contracts/contracts/src/v3.0.0/Groth16Verifier.sol\":6391:6392  a */\n      dup5\n        /* \".deps/github/succinctlabs/sp1-contracts/contracts/src/v3.0.0/Groth16Verifier.sol\":6384:6388  0x60 */\n      0x60\n        /* \".deps/github/succinctlabs/sp1-contracts/contracts/src/v3.0.0/Groth16Verifier.sol\":6381:6382  f */\n      dup3\n        /* \".deps/github/succinctlabs/sp1-contracts/contracts/src/v3.0.0/Groth16Verifier.sol\":6377:6389  add(f, 0x60) */\n      add\n        /* \".deps/github/succinctlabs/sp1-contracts/contracts/src/v3.0.0/Groth16Verifier.sol\":6370:6393  mstore(add(f, 0x60), a) */\n      mstore\n        /* \".deps/github/succinctlabs/sp1-contracts/contracts/src/v3.0.0/Groth16Verifier.sol\":6428:6429  e */\n      dup4\n        /* \".deps/github/succinctlabs/sp1-contracts/contracts/src/v3.0.0/Groth16Verifier.sol\":6421:6425  0x80 */\n      0x80\n        /* \".deps/github/succinctlabs/sp1-contracts/contracts/src/v3.0.0/Groth16Verifier.sol\":6418:6419  f */\n      dup3\n        /* \".deps/github/succinctlabs/sp1-contracts/contracts/src/v3.0.0/Groth16Verifier.sol\":6414:6426  add(f, 0x80) */\n      add\n        /* \".deps/github/succinctlabs/sp1-contracts/contracts/src/v3.0.0/Groth16Verifier.sol\":6407:6430  mstore(add(f, 0x80), e) */\n      mstore\n        /* \".deps/github/succinctlabs/sp1-contracts/contracts/src/v3.0.0/Groth16Verifier.sol\":6465:6466  P */\n      0x30644e72e131a029b85045b68181585d97816a916871ca8d3c208c16d87cfd47\n        /* \".deps/github/succinctlabs/sp1-contracts/contracts/src/v3.0.0/Groth16Verifier.sol\":6458:6462  0xa0 */\n      0xa0\n        /* \".deps/github/succinctlabs/sp1-contracts/contracts/src/v3.0.0/Groth16Verifier.sol\":6455:6456  f */\n      dup3\n        /* \".deps/github/succinctlabs/sp1-contracts/contracts/src/v3.0.0/Groth16Verifier.sol\":6451:6463  add(f, 0xa0) */\n      add\n        /* \".deps/github/succinctlabs/sp1-contracts/contracts/src/v3.0.0/Groth16Verifier.sol\":6444:6467  mstore(add(f, 0xa0), P) */\n      mstore\n        /* \".deps/github/succinctlabs/sp1-contracts/contracts/src/v3.0.0/Groth16Verifier.sol\":6541:6545  0x20 */\n      0x20\n        /* \".deps/github/succinctlabs/sp1-contracts/contracts/src/v3.0.0/Groth16Verifier.sol\":6538:6539  f */\n      dup2\n        /* \".deps/github/succinctlabs/sp1-contracts/contracts/src/v3.0.0/Groth16Verifier.sol\":6532:6536  0xc0 */\n      0xc0\n        /* \".deps/github/succinctlabs/sp1-contracts/contracts/src/v3.0.0/Groth16Verifier.sol\":6529:6530  f */\n      dup4\n        /* \".deps/github/succinctlabs/sp1-contracts/contracts/src/v3.0.0/Groth16Verifier.sol\":6510:6527  PRECOMPILE_MODEXP */\n      0x05\n        /* \".deps/github/succinctlabs/sp1-contracts/contracts/src/v3.0.0/Groth16Verifier.sol\":6503:6508  gas() */\n      gas\n        /* \".deps/github/succinctlabs/sp1-contracts/contracts/src/v3.0.0/Groth16Verifier.sol\":6492:6546  staticcall(gas(), PRECOMPILE_MODEXP, f, 0xc0, f, 0x20) */\n      staticcall\n        /* \".deps/github/succinctlabs/sp1-contracts/contracts/src/v3.0.0/Groth16Verifier.sol\":6481:6546  success := staticcall(gas(), PRECOMPILE_MODEXP, f, 0xc0, f, 0x20) */\n      swap2\n      pop\n        /* \".deps/github/succinctlabs/sp1-contracts/contracts/src/v3.0.0/Groth16Verifier.sol\":6571:6572  f */\n      dup1\n        /* \".deps/github/succinctlabs/sp1-contracts/contracts/src/v3.0.0/Groth16Verifier.sol\":6565:6573  mload(f) */\n      mload\n        /* \".deps/github/succinctlabs/sp1-contracts/contracts/src/v3.0.0/Groth16Verifier.sol\":6560:6573  x := mload(f) */\n      swap3\n      pop\n        /* \".deps/github/succinctlabs/sp1-contracts/contracts/src/v3.0.0/Groth16Verifier.sol\":6212:6584  {... */\n      pop\n        /* \".deps/github/succinctlabs/sp1-contracts/contracts/src/v3.0.0/Groth16Verifier.sol\":6599:6606  success */\n      dup1\n        /* \".deps/github/succinctlabs/sp1-contracts/contracts/src/v3.0.0/Groth16Verifier.sol\":6594:6730  if (!success) {... */\n      tag_307\n      jumpi\n        /* \".deps/github/succinctlabs/sp1-contracts/contracts/src/v3.0.0/Groth16Verifier.sol\":6704:6718  ProofInvalid() */\n      mload(0x40)\n      0x7fcdd1f400000000000000000000000000000000000000000000000000000000\n      dup2\n      mstore\n      0x04\n      add\n      mload(0x40)\n      dup1\n      swap2\n      sub\n      swap1\n      revert\n        /* \".deps/github/succinctlabs/sp1-contracts/contracts/src/v3.0.0/Groth16Verifier.sol\":6594:6730  if (!success) {... */\n    tag_307:\n        /* \".deps/github/succinctlabs/sp1-contracts/contracts/src/v3.0.0/Groth16Verifier.sol\":6153:6737  {... */\n      pop\n        /* \".deps/github/succinctlabs/sp1-contracts/contracts/src/v3.0.0/Groth16Verifier.sol\":6084:6737  function exp(uint256 a, uint256 e) internal view returns (uint256 x) {... */\n      swap3\n      swap2\n      pop\n      pop\n      jump\t// out\n        /* \".deps/github/succinctlabs/sp1-contracts/contracts/src/v3.0.0/Groth16Verifier.sol\":7026:7322  function invert_Fp(uint256 a) internal view returns (uint256 x) {... */\n    tag_292:\n        /* \".deps/github/succinctlabs/sp1-contracts/contracts/src/v3.0.0/Groth16Verifier.sol\":7079:7088  uint256 x */\n      0x00\n        /* \".deps/github/succinctlabs/sp1-contracts/contracts/src/v3.0.0/Groth16Verifier.sol\":7105:7127  exp(a, EXP_INVERSE_FP) */\n      tag_309\n        /* \".deps/github/succinctlabs/sp1-contracts/contracts/src/v3.0.0/Groth16Verifier.sol\":7109:7110  a */\n      dup3\n        /* \".deps/github/succinctlabs/sp1-contracts/contracts/src/v3.0.0/Groth16Verifier.sol\":2568:2634  0x30644E72E131A029B85045B68181585D97816A916871CA8D3C208C16D87CFD45 */\n      0x30644e72e131a029b85045b68181585d97816a916871ca8d3c208c16d87cfd45\n        /* \".deps/github/succinctlabs/sp1-contracts/contracts/src/v3.0.0/Groth16Verifier.sol\":7105:7108  exp */\n      tag_259\n        /* \".deps/github/succinctlabs/sp1-contracts/contracts/src/v3.0.0/Groth16Verifier.sol\":7105:7127  exp(a, EXP_INVERSE_FP) */\n      jump\t// in\n    tag_309:\n        /* \".deps/github/succinctlabs/sp1-contracts/contracts/src/v3.0.0/Groth16Verifier.sol\":7101:7127  x = exp(a, EXP_INVERSE_FP) */\n      swap1\n      pop\n        /* \".deps/github/succinctlabs/sp1-contracts/contracts/src/v3.0.0/Groth16Verifier.sol\":7161:7162  1 */\n      0x01\n        /* \".deps/github/succinctlabs/sp1-contracts/contracts/src/v3.0.0/Groth16Verifier.sol\":1427:1493  0x30644e72e131a029b85045b68181585d97816a916871ca8d3c208c16d87cfd47 */\n      0x30644e72e131a029b85045b68181585d97816a916871ca8d3c208c16d87cfd47\n        /* \".deps/github/succinctlabs/sp1-contracts/contracts/src/v3.0.0/Groth16Verifier.sol\":7142:7157  mulmod(a, x, P) */\n      dup1\n      tag_310\n      jumpi\n      tag_311\n      tag_136\n      jump\t// in\n    tag_311:\n    tag_310:\n        /* \".deps/github/succinctlabs/sp1-contracts/contracts/src/v3.0.0/Groth16Verifier.sol\":7152:7153  x */\n      dup3\n        /* \".deps/github/succinctlabs/sp1-contracts/contracts/src/v3.0.0/Groth16Verifier.sol\":7149:7150  a */\n      dup5\n        /* \".deps/github/succinctlabs/sp1-contracts/contracts/src/v3.0.0/Groth16Verifier.sol\":7142:7157  mulmod(a, x, P) */\n      mulmod\n        /* \".deps/github/succinctlabs/sp1-contracts/contracts/src/v3.0.0/Groth16Verifier.sol\":7142:7162  mulmod(a, x, P) != 1 */\n      eq\n        /* \".deps/github/succinctlabs/sp1-contracts/contracts/src/v3.0.0/Groth16Verifier.sol\":7138:7315  if (mulmod(a, x, P) != 1) {... */\n      tag_312\n      jumpi\n        /* \".deps/github/succinctlabs/sp1-contracts/contracts/src/v3.0.0/Groth16Verifier.sol\":7289:7303  ProofInvalid() */\n      mload(0x40)\n      0x7fcdd1f400000000000000000000000000000000000000000000000000000000\n      dup2\n      mstore\n      0x04\n      add\n      mload(0x40)\n      dup1\n      swap2\n      sub\n      swap1\n      revert\n        /* \".deps/github/succinctlabs/sp1-contracts/contracts/src/v3.0.0/Groth16Verifier.sol\":7138:7315  if (mulmod(a, x, P) != 1) {... */\n    tag_312:\n        /* \".deps/github/succinctlabs/sp1-contracts/contracts/src/v3.0.0/Groth16Verifier.sol\":7026:7322  function invert_Fp(uint256 a) internal view returns (uint256 x) {... */\n      swap2\n      swap1\n      pop\n      jump\t// out\n    tag_21:\n      mload(0x40)\n      dup1\n      0x80\n      add\n      0x40\n      mstore\n      dup1\n      0x04\n      swap1\n      0x20\n      dup3\n      mul\n      dup1\n      calldatasize\n      dup4\n      calldatacopy\n      dup1\n      dup3\n      add\n      swap2\n      pop\n      pop\n      swap1\n      pop\n      pop\n      swap1\n      jump\t// out\n    tag_59:\n      mload(0x40)\n      dup1\n      0x0300\n      add\n      0x40\n      mstore\n      dup1\n      0x18\n      swap1\n      0x20\n      dup3\n      mul\n      dup1\n      calldatasize\n      dup4\n      calldatacopy\n      dup1\n      dup3\n      add\n      swap2\n      pop\n      pop\n      swap1\n      pop\n      pop\n      swap1\n      jump\t// out\n    tag_123:\n      mload(0x40)\n      dup1\n      0x20\n      add\n      0x40\n      mstore\n      dup1\n      0x01\n      swap1\n      0x20\n      dup3\n      mul\n      dup1\n      calldatasize\n      dup4\n      calldatacopy\n      dup1\n      dup3\n      add\n      swap2\n      pop\n      pop\n      swap1\n      pop\n      pop\n      swap1\n      jump\t// out\n        /* \"#utility.yul\":88:205   */\n    tag_314:\n        /* \"#utility.yul\":197:198   */\n      0x00\n        /* \"#utility.yul\":194:195   */\n      0x00\n        /* \"#utility.yul\":187:199   */\n      revert\n        /* \"#utility.yul\":334:451   */\n    tag_316:\n        /* \"#utility.yul\":443:444   */\n      0x00\n        /* \"#utility.yul\":440:441   */\n      0x00\n        /* \"#utility.yul\":433:445   */\n      revert\n        /* \"#utility.yul\":475:724   */\n    tag_317:\n        /* \"#utility.yul\":546:554   */\n      0x00\n        /* \"#utility.yul\":577:583   */\n      dup2\n        /* \"#utility.yul\":565:583   */\n      swap1\n      pop\n        /* \"#utility.yul\":630:633   */\n      dup3\n        /* \"#utility.yul\":622:626   */\n      0x20\n        /* \"#utility.yul\":616:620   */\n      0x08\n        /* \"#utility.yul\":612:627   */\n      mul\n        /* \"#utility.yul\":602:610   */\n      dup3\n        /* \"#utility.yul\":598:628   */\n      add\n        /* \"#utility.yul\":595:634   */\n      gt\n        /* \"#utility.yul\":592:718   */\n      iszero\n      tag_335\n      jumpi\n        /* \"#utility.yul\":637:716   */\n      tag_336\n      tag_316\n      jump\t// in\n    tag_336:\n        /* \"#utility.yul\":592:718   */\n    tag_335:\n        /* \"#utility.yul\":475:724   */\n      swap3\n      swap2\n      pop\n      pop\n      jump\t// out\n        /* \"#utility.yul\":730:1110   */\n    tag_8:\n        /* \"#utility.yul\":814:820   */\n      0x00\n        /* \"#utility.yul\":863:866   */\n      0x0100\n        /* \"#utility.yul\":851:860   */\n      dup3\n        /* \"#utility.yul\":842:849   */\n      dup5\n        /* \"#utility.yul\":838:861   */\n      sub\n        /* \"#utility.yul\":834:867   */\n      slt\n        /* \"#utility.yul\":831:951   */\n      iszero\n      tag_338\n      jumpi\n        /* \"#utility.yul\":870:949   */\n      tag_339\n      tag_314\n      jump\t// in\n    tag_339:\n        /* \"#utility.yul\":831:951   */\n    tag_338:\n        /* \"#utility.yul\":990:991   */\n      0x00\n        /* \"#utility.yul\":1015:1093   */\n      tag_340\n        /* \"#utility.yul\":1085:1092   */\n      dup5\n        /* \"#utility.yul\":1076:1082   */\n      dup3\n        /* \"#utility.yul\":1065:1074   */\n      dup6\n        /* \"#utility.yul\":1061:1083   */\n      add\n        /* \"#utility.yul\":1015:1093   */\n      tag_317\n      jump\t// in\n    tag_340:\n        /* \"#utility.yul\":1005:1093   */\n      swap2\n      pop\n        /* \"#utility.yul\":961:1103   */\n      pop\n        /* \"#utility.yul\":730:1110   */\n      swap3\n      swap2\n      pop\n      pop\n      jump\t// out\n        /* \"#utility.yul\":1116:1220   */\n    tag_318:\n        /* \"#utility.yul\":1181:1187   */\n      0x00\n        /* \"#utility.yul\":1209:1213   */\n      0x04\n        /* \"#utility.yul\":1199:1213   */\n      swap1\n      pop\n        /* \"#utility.yul\":1116:1220   */\n      swap2\n      swap1\n      pop\n      jump\t// out\n        /* \"#utility.yul\":1226:1369   */\n    tag_319:\n        /* \"#utility.yul\":1323:1334   */\n      0x00\n        /* \"#utility.yul\":1360:1363   */\n      dup2\n        /* \"#utility.yul\":1345:1363   */\n      swap1\n      pop\n        /* \"#utility.yul\":1226:1369   */\n      swap3\n      swap2\n      pop\n      pop\n      jump\t// out\n        /* \"#utility.yul\":1375:1473   */\n    tag_320:\n        /* \"#utility.yul\":1440:1444   */\n      0x00\n        /* \"#utility.yul\":1463:1466   */\n      dup2\n        /* \"#utility.yul\":1455:1466   */\n      swap1\n      pop\n        /* \"#utility.yul\":1375:1473   */\n      swap2\n      swap1\n      pop\n      jump\t// out\n        /* \"#utility.yul\":1479:1556   */\n    tag_321:\n        /* \"#utility.yul\":1516:1523   */\n      0x00\n        /* \"#utility.yul\":1545:1550   */\n      dup2\n        /* \"#utility.yul\":1534:1550   */\n      swap1\n      pop\n        /* \"#utility.yul\":1479:1556   */\n      swap2\n      swap1\n      pop\n      jump\t// out\n        /* \"#utility.yul\":1562:1670   */\n    tag_322:\n        /* \"#utility.yul\":1639:1663   */\n      tag_346\n        /* \"#utility.yul\":1657:1662   */\n      dup2\n        /* \"#utility.yul\":1639:1663   */\n      tag_321\n      jump\t// in\n    tag_346:\n        /* \"#utility.yul\":1634:1637   */\n      dup3\n        /* \"#utility.yul\":1627:1664   */\n      mstore\n        /* \"#utility.yul\":1562:1670   */\n      pop\n      pop\n      jump\t// out\n        /* \"#utility.yul\":1676:1855   */\n    tag_323:\n        /* \"#utility.yul\":1745:1755   */\n      0x00\n        /* \"#utility.yul\":1766:1812   */\n      tag_348\n        /* \"#utility.yul\":1808:1811   */\n      dup4\n        /* \"#utility.yul\":1800:1806   */\n      dup4\n        /* \"#utility.yul\":1766:1812   */\n      tag_322\n      jump\t// in\n    tag_348:\n        /* \"#utility.yul\":1844:1848   */\n      0x20\n        /* \"#utility.yul\":1839:1842   */\n      dup4\n        /* \"#utility.yul\":1835:1849   */\n      add\n        /* \"#utility.yul\":1821:1849   */\n      swap1\n      pop\n        /* \"#utility.yul\":1676:1855   */\n      swap3\n      swap2\n      pop\n      pop\n      jump\t// out\n        /* \"#utility.yul\":1861:1972   */\n    tag_324:\n        /* \"#utility.yul\":1929:1933   */\n      0x00\n        /* \"#utility.yul\":1961:1965   */\n      0x20\n        /* \"#utility.yul\":1956:1959   */\n      dup3\n        /* \"#utility.yul\":1952:1966   */\n      add\n        /* \"#utility.yul\":1944:1966   */\n      swap1\n      pop\n        /* \"#utility.yul\":1861:1972   */\n      swap2\n      swap1\n      pop\n      jump\t// out\n        /* \"#utility.yul\":2010:2704   */\n    tag_325:\n        /* \"#utility.yul\":2146:2198   */\n      tag_351\n        /* \"#utility.yul\":2192:2197   */\n      dup2\n        /* \"#utility.yul\":2146:2198   */\n      tag_318\n      jump\t// in\n    tag_351:\n        /* \"#utility.yul\":2214:2298   */\n      tag_352\n        /* \"#utility.yul\":2291:2297   */\n      dup2\n        /* \"#utility.yul\":2286:2289   */\n      dup5\n        /* \"#utility.yul\":2214:2298   */\n      tag_319\n      jump\t// in\n    tag_352:\n        /* \"#utility.yul\":2207:2298   */\n      swap3\n      pop\n        /* \"#utility.yul\":2322:2376   */\n      tag_353\n        /* \"#utility.yul\":2370:2375   */\n      dup3\n        /* \"#utility.yul\":2322:2376   */\n      tag_320\n      jump\t// in\n    tag_353:\n        /* \"#utility.yul\":2399:2406   */\n      dup1\n        /* \"#utility.yul\":2430:2431   */\n      0x00\n        /* \"#utility.yul\":2415:2697   */\n    tag_354:\n        /* \"#utility.yul\":2440:2446   */\n      dup4\n        /* \"#utility.yul\":2437:2438   */\n      dup2\n        /* \"#utility.yul\":2434:2447   */\n      lt\n        /* \"#utility.yul\":2415:2697   */\n      iszero\n      tag_356\n      jumpi\n        /* \"#utility.yul\":2516:2522   */\n      dup2\n        /* \"#utility.yul\":2510:2523   */\n      mload\n        /* \"#utility.yul\":2543:2606   */\n      tag_357\n        /* \"#utility.yul\":2602:2605   */\n      dup8\n        /* \"#utility.yul\":2587:2600   */\n      dup3\n        /* \"#utility.yul\":2543:2606   */\n      tag_323\n      jump\t// in\n    tag_357:\n        /* \"#utility.yul\":2536:2606   */\n      swap7\n      pop\n        /* \"#utility.yul\":2629:2687   */\n      tag_358\n        /* \"#utility.yul\":2680:2686   */\n      dup4\n        /* \"#utility.yul\":2629:2687   */\n      tag_324\n      jump\t// in\n    tag_358:\n        /* \"#utility.yul\":2619:2687   */\n      swap3\n      pop\n        /* \"#utility.yul\":2475:2697   */\n      pop\n        /* \"#utility.yul\":2462:2463   */\n      0x01\n        /* \"#utility.yul\":2459:2460   */\n      dup2\n        /* \"#utility.yul\":2455:2464   */\n      add\n        /* \"#utility.yul\":2450:2464   */\n      swap1\n      pop\n        /* \"#utility.yul\":2415:2697   */\n      jump(tag_354)\n    tag_356:\n        /* \"#utility.yul\":2419:2433   */\n      pop\n        /* \"#utility.yul\":2122:2704   */\n      pop\n      pop\n      pop\n        /* \"#utility.yul\":2010:2704   */\n      pop\n      pop\n      jump\t// out\n        /* \"#utility.yul\":2710:3025   */\n    tag_11:\n        /* \"#utility.yul\":2849:2853   */\n      0x00\n        /* \"#utility.yul\":2887:2890   */\n      0x80\n        /* \"#utility.yul\":2876:2885   */\n      dup3\n        /* \"#utility.yul\":2872:2891   */\n      add\n        /* \"#utility.yul\":2864:2891   */\n      swap1\n      pop\n        /* \"#utility.yul\":2901:3018   */\n      tag_360\n        /* \"#utility.yul\":3015:3016   */\n      0x00\n        /* \"#utility.yul\":3004:3013   */\n      dup4\n        /* \"#utility.yul\":3000:3017   */\n      add\n        /* \"#utility.yul\":2991:2997   */\n      dup5\n        /* \"#utility.yul\":2901:3018   */\n      tag_325\n      jump\t// in\n    tag_360:\n        /* \"#utility.yul\":2710:3025   */\n      swap3\n      swap2\n      pop\n      pop\n      jump\t// out\n        /* \"#utility.yul\":3049:3298   */\n    tag_326:\n        /* \"#utility.yul\":3120:3128   */\n      0x00\n        /* \"#utility.yul\":3151:3157   */\n      dup2\n        /* \"#utility.yul\":3139:3157   */\n      swap1\n      pop\n        /* \"#utility.yul\":3204:3207   */\n      dup3\n        /* \"#utility.yul\":3196:3200   */\n      0x20\n        /* \"#utility.yul\":3190:3194   */\n      0x02\n        /* \"#utility.yul\":3186:3201   */\n      mul\n        /* \"#utility.yul\":3176:3184   */\n      dup3\n        /* \"#utility.yul\":3172:3202   */\n      add\n        /* \"#utility.yul\":3169:3208   */\n      gt\n        /* \"#utility.yul\":3166:3292   */\n      iszero\n      tag_362\n      jumpi\n        /* \"#utility.yul\":3211:3290   */\n      tag_363\n      tag_316\n      jump\t// in\n    tag_363:\n        /* \"#utility.yul\":3166:3292   */\n    tag_362:\n        /* \"#utility.yul\":3049:3298   */\n      swap3\n      swap2\n      pop\n      pop\n      jump\t// out\n        /* \"#utility.yul\":3304:3880   */\n    tag_14:\n        /* \"#utility.yul\":3422:3428   */\n      0x00\n        /* \"#utility.yul\":3430:3436   */\n      0x00\n        /* \"#utility.yul\":3479:3482   */\n      0x0140\n        /* \"#utility.yul\":3467:3476   */\n      dup4\n        /* \"#utility.yul\":3458:3465   */\n      dup6\n        /* \"#utility.yul\":3454:3477   */\n      sub\n        /* \"#utility.yul\":3450:3483   */\n      slt\n        /* \"#utility.yul\":3447:3567   */\n      iszero\n      tag_365\n      jumpi\n        /* \"#utility.yul\":3486:3565   */\n      tag_366\n      tag_314\n      jump\t// in\n    tag_366:\n        /* \"#utility.yul\":3447:3567   */\n    tag_365:\n        /* \"#utility.yul\":3606:3607   */\n      0x00\n        /* \"#utility.yul\":3631:3709   */\n      tag_367\n        /* \"#utility.yul\":3701:3708   */\n      dup6\n        /* \"#utility.yul\":3692:3698   */\n      dup3\n        /* \"#utility.yul\":3681:3690   */\n      dup7\n        /* \"#utility.yul\":3677:3699   */\n      add\n        /* \"#utility.yul\":3631:3709   */\n      tag_317\n      jump\t// in\n    tag_367:\n        /* \"#utility.yul\":3621:3709   */\n      swap3\n      pop\n        /* \"#utility.yul\":3577:3719   */\n      pop\n        /* \"#utility.yul\":3758:3761   */\n      0x0100\n        /* \"#utility.yul\":3785:3863   */\n      tag_368\n        /* \"#utility.yul\":3855:3862   */\n      dup6\n        /* \"#utility.yul\":3846:3852   */\n      dup3\n        /* \"#utility.yul\":3835:3844   */\n      dup7\n        /* \"#utility.yul\":3831:3853   */\n      add\n        /* \"#utility.yul\":3785:3863   */\n      tag_326\n      jump\t// in\n    tag_368:\n        /* \"#utility.yul\":3775:3863   */\n      swap2\n      pop\n        /* \"#utility.yul\":3729:3873   */\n      pop\n        /* \"#utility.yul\":3304:3880   */\n      swap3\n      pop\n      swap3\n      swap1\n      pop\n      jump\t// out\n        /* \"#utility.yul\":3904:4153   */\n    tag_327:\n        /* \"#utility.yul\":3975:3983   */\n      0x00\n        /* \"#utility.yul\":4006:4012   */\n      dup2\n        /* \"#utility.yul\":3994:4012   */\n      swap1\n      pop\n        /* \"#utility.yul\":4059:4062   */\n      dup3\n        /* \"#utility.yul\":4051:4055   */\n      0x20\n        /* \"#utility.yul\":4045:4049   */\n      0x04\n        /* \"#utility.yul\":4041:4056   */\n      mul\n        /* \"#utility.yul\":4031:4039   */\n      dup3\n        /* \"#utility.yul\":4027:4057   */\n      add\n        /* \"#utility.yul\":4024:4063   */\n      gt\n        /* \"#utility.yul\":4021:4147   */\n      iszero\n      tag_370\n      jumpi\n        /* \"#utility.yul\":4066:4145   */\n      tag_371\n      tag_316\n      jump\t// in\n    tag_371:\n        /* \"#utility.yul\":4021:4147   */\n    tag_370:\n        /* \"#utility.yul\":3904:4153   */\n      swap3\n      swap2\n      pop\n      pop\n      jump\t// out\n        /* \"#utility.yul\":4159:4735   */\n    tag_18:\n        /* \"#utility.yul\":4277:4283   */\n      0x00\n        /* \"#utility.yul\":4285:4291   */\n      0x00\n        /* \"#utility.yul\":4334:4337   */\n      0xc0\n        /* \"#utility.yul\":4322:4331   */\n      dup4\n        /* \"#utility.yul\":4313:4320   */\n      dup6\n        /* \"#utility.yul\":4309:4332   */\n      sub\n        /* \"#utility.yul\":4305:4338   */\n      slt\n        /* \"#utility.yul\":4302:4422   */\n      iszero\n      tag_373\n      jumpi\n        /* \"#utility.yul\":4341:4420   */\n      tag_374\n      tag_314\n      jump\t// in\n    tag_374:\n        /* \"#utility.yul\":4302:4422   */\n    tag_373:\n        /* \"#utility.yul\":4461:4462   */\n      0x00\n        /* \"#utility.yul\":4486:4564   */\n      tag_375\n        /* \"#utility.yul\":4556:4563   */\n      dup6\n        /* \"#utility.yul\":4547:4553   */\n      dup3\n        /* \"#utility.yul\":4536:4545   */\n      dup7\n        /* \"#utility.yul\":4532:4554   */\n      add\n        /* \"#utility.yul\":4486:4564   */\n      tag_327\n      jump\t// in\n    tag_375:\n        /* \"#utility.yul\":4476:4564   */\n      swap3\n      pop\n        /* \"#utility.yul\":4432:4574   */\n      pop\n        /* \"#utility.yul\":4613:4616   */\n      0x80\n        /* \"#utility.yul\":4640:4718   */\n      tag_376\n        /* \"#utility.yul\":4710:4717   */\n      dup6\n        /* \"#utility.yul\":4701:4707   */\n      dup3\n        /* \"#utility.yul\":4690:4699   */\n      dup7\n        /* \"#utility.yul\":4686:4708   */\n      add\n        /* \"#utility.yul\":4640:4718   */\n      tag_326\n      jump\t// in\n    tag_376:\n        /* \"#utility.yul\":4630:4718   */\n      swap2\n      pop\n        /* \"#utility.yul\":4584:4728   */\n      pop\n        /* \"#utility.yul\":4159:4735   */\n      swap3\n      pop\n      swap3\n      swap1\n      pop\n      jump\t// out\n        /* \"#utility.yul\":4741:4921   */\n    tag_26:\n        /* \"#utility.yul\":4789:4866   */\n      0x4e487b7100000000000000000000000000000000000000000000000000000000\n        /* \"#utility.yul\":4786:4787   */\n      0x00\n        /* \"#utility.yul\":4779:4867   */\n      mstore\n        /* \"#utility.yul\":4886:4890   */\n      0x32\n        /* \"#utility.yul\":4883:4884   */\n      0x04\n        /* \"#utility.yul\":4876:4891   */\n      mstore\n        /* \"#utility.yul\":4910:4914   */\n      0x24\n        /* \"#utility.yul\":4907:4908   */\n      0x00\n        /* \"#utility.yul\":4900:4915   */\n      revert\n        /* \"#utility.yul\":4927:5107   */\n    tag_136:\n        /* \"#utility.yul\":4975:5052   */\n      0x4e487b7100000000000000000000000000000000000000000000000000000000\n        /* \"#utility.yul\":4972:4973   */\n      0x00\n        /* \"#utility.yul\":4965:5053   */\n      mstore\n        /* \"#utility.yul\":5072:5076   */\n      0x12\n        /* \"#utility.yul\":5069:5070   */\n      0x04\n        /* \"#utility.yul\":5062:5077   */\n      mstore\n        /* \"#utility.yul\":5096:5100   */\n      0x24\n        /* \"#utility.yul\":5093:5094   */\n      0x00\n        /* \"#utility.yul\":5086:5101   */\n      revert\n        /* \"#utility.yul\":5113:5293   */\n    tag_328:\n        /* \"#utility.yul\":5161:5238   */\n      0x4e487b7100000000000000000000000000000000000000000000000000000000\n        /* \"#utility.yul\":5158:5159   */\n      0x00\n        /* \"#utility.yul\":5151:5239   */\n      mstore\n        /* \"#utility.yul\":5258:5262   */\n      0x11\n        /* \"#utility.yul\":5255:5256   */\n      0x04\n        /* \"#utility.yul\":5248:5263   */\n      mstore\n        /* \"#utility.yul\":5282:5286   */\n      0x24\n        /* \"#utility.yul\":5279:5280   */\n      0x00\n        /* \"#utility.yul\":5272:5287   */\n      revert\n        /* \"#utility.yul\":5299:5493   */\n    tag_157:\n        /* \"#utility.yul\":5339:5343   */\n      0x00\n        /* \"#utility.yul\":5359:5379   */\n      tag_381\n        /* \"#utility.yul\":5377:5378   */\n      dup3\n        /* \"#utility.yul\":5359:5379   */\n      tag_321\n      jump\t// in\n    tag_381:\n        /* \"#utility.yul\":5354:5379   */\n      swap2\n      pop\n        /* \"#utility.yul\":5393:5413   */\n      tag_382\n        /* \"#utility.yul\":5411:5412   */\n      dup4\n        /* \"#utility.yul\":5393:5413   */\n      tag_321\n      jump\t// in\n    tag_382:\n        /* \"#utility.yul\":5388:5413   */\n      swap3\n      pop\n        /* \"#utility.yul\":5437:5438   */\n      dup3\n        /* \"#utility.yul\":5434:5435   */\n      dup3\n        /* \"#utility.yul\":5430:5439   */\n      sub\n        /* \"#utility.yul\":5422:5439   */\n      swap1\n      pop\n        /* \"#utility.yul\":5461:5462   */\n      dup2\n        /* \"#utility.yul\":5455:5459   */\n      dup2\n        /* \"#utility.yul\":5452:5463   */\n      gt\n        /* \"#utility.yul\":5449:5486   */\n      iszero\n      tag_383\n      jumpi\n        /* \"#utility.yul\":5466:5484   */\n      tag_384\n      tag_328\n      jump\t// in\n    tag_384:\n        /* \"#utility.yul\":5449:5486   */\n    tag_383:\n        /* \"#utility.yul\":5299:5493   */\n      swap3\n      swap2\n      pop\n      pop\n      jump\t// out\n\n    auxdata: 0xa264697066735822122015fbef891d130e2a88b6fb4b0aa8b0ec8cfbc90be859c3b7b6afb6909d6f80c164736f6c634300081e0033\n}\n",
				"bytecode": {
					"linkReferences": {},
					"object": "6080604052348015600e575f5ffd5b5061218e8061001c5f395ff3fe608060405234801561000f575f5ffd5b506004361061003f575f3560e01c806344f6369214610043578063eddf243c14610073578063f11817b21461008f575b5f5ffd5b61005d60048036038101906100589190611eeb565b6100ab565b60405161006a9190611fc5565b60405180910390f35b61008d60048036038101906100889190611fff565b61020a565b005b6100a960048036038101906100a49190612060565b6104a4565b005b6100b3611e5b565b6100ec825f600881106100c9576100c861209e565b5b6020020135836001600881106100e2576100e161209e565b5b6020020135610a5f565b815f600481106100ff576100fe61209e565b5b6020020181815250506101748260036008811061011f5761011e61209e565b5b6020020135836002600881106101385761013761209e565b5b6020020135846005600881106101515761015061209e565b5b60200201358560046008811061016a5761016961209e565b5b6020020135610c0d565b826002600481106101885761018761209e565b5b60200201836001600481106101a05761019f61209e565b5b60200201828152508281525050506101e8826006600881106101c5576101c461209e565b5b6020020135836007600881106101de576101dd61209e565b5b6020020135610a5f565b816003600481106101fc576101fb61209e565b5b602002018181525050919050565b5f5f610215836111d9565b915091505f6040516101008682377f21ab438b0ad9688f8d9afc96ed0ab25e6ab7f19ed6f7d58a9dc136d68de55e3e6101008201527f2d1f461ca03a65528393919e9e412f6b82d7096e44fa039bd7642a5112188af76101208201527f100f76d4ac45886c1334d58716121dc0ffa8463738f3f2adf793e15b8ecd7e1d6101408201527f2bf21e8bb2f9419034373c2156cdd7bddf273519dcd7f674ef21e2748ced89f26101608201527f2d4d9aa7e302d9df41749d5507949d05dbea33fbb16c643b22f599a2be6df2e26101808201527f14bedd503c37ceb061d8ec60209fe345ce89830a19230301f076caff004d19266101a08201527f0967032fcbf776d1afc985f88877f182d38480a653f2decaa9794cbc3bf3060c6101c08201527f0e187847ad4c798374d0d6732bf501847dd68bc0e071241e0213bc7fc13db7ab6101e08201527e1752a100a72fdf1e5a5d6ea841cc20ec838bccfcf7bd559e79f1c9c759b6a06102008201527f192a8cc13cd9f762871f21e43451c6ca9eeab2cb2987c4e366a185c25dac2e7f61022082015283610240820152826102608201527f198e9393920d483a7260bfb731fb5d25f1aa493335a9e71297e485b7aef312c26102808201527f1800deef121f1e76426a00665e5c4479674322d4f75edadd46debd5cd992f6ed6102a08201527f275dc4a288d1afb3cbb1ac09187524c7db36395df7be3b99e673b13a075a65ec6102c08201527f1d9befcd05a5323e6da4d435f3b617cdb3af83285c2df711ef39c01571827f9d6102e08201526020816103008360085afa9150805182169150508061049d576040517f7fcdd1f400000000000000000000000000000000000000000000000000000000815260040160405180910390fd5b5050505050565b6104ac611e7d565b5f5f6104ce855f600481106104c4576104c361209e565b5b60200201356113ab565b915091505f5f5f5f610510896002600481106104ed576104ec61209e565b5b60200201358a6001600481106105065761050561209e565b5b60200201356114e0565b93509350935093505f5f61053b8b6003600481106105315761053061209e565b5b60200201356113ab565b915091505f5f61054a8c6111d9565b91509150898b5f601881106105625761056161209e565b5b602002018181525050888b6001601881106105805761057f61209e565b5b602002018181525050868b60026018811061059e5761059d61209e565b5b602002018181525050878b6003601881106105bc576105bb61209e565b5b602002018181525050848b6004601881106105da576105d961209e565b5b602002018181525050858b6005601881106105f8576105f761209e565b5b602002018181525050838b6006601881106106165761061561209e565b5b602002018181525050828b6007601881106106345761063361209e565b5b6020020181815250507f21ab438b0ad9688f8d9afc96ed0ab25e6ab7f19ed6f7d58a9dc136d68de55e3e8b6008601881106106725761067161209e565b5b6020020181815250507f2d1f461ca03a65528393919e9e412f6b82d7096e44fa039bd7642a5112188af78b6009601881106106b0576106af61209e565b5b6020020181815250507f100f76d4ac45886c1334d58716121dc0ffa8463738f3f2adf793e15b8ecd7e1d8b600a601881106106ee576106ed61209e565b5b6020020181815250507f2bf21e8bb2f9419034373c2156cdd7bddf273519dcd7f674ef21e2748ced89f28b600b6018811061072c5761072b61209e565b5b6020020181815250507f2d4d9aa7e302d9df41749d5507949d05dbea33fbb16c643b22f599a2be6df2e28b600c6018811061076a5761076961209e565b5b6020020181815250507f14bedd503c37ceb061d8ec60209fe345ce89830a19230301f076caff004d19268b600d601881106107a8576107a761209e565b5b6020020181815250507f0967032fcbf776d1afc985f88877f182d38480a653f2decaa9794cbc3bf3060c8b600e601881106107e6576107e561209e565b5b6020020181815250507f0e187847ad4c798374d0d6732bf501847dd68bc0e071241e0213bc7fc13db7ab8b600f601881106108245761082361209e565b5b6020020181815250507e1752a100a72fdf1e5a5d6ea841cc20ec838bccfcf7bd559e79f1c9c759b6a08b6010601881106108615761086061209e565b5b6020020181815250507f192a8cc13cd9f762871f21e43451c6ca9eeab2cb2987c4e366a185c25dac2e7f8b60116018811061089f5761089e61209e565b5b602002018181525050818b6012601881106108bd576108bc61209e565b5b602002018181525050808b6013601881106108db576108da61209e565b5b6020020181815250507f198e9393920d483a7260bfb731fb5d25f1aa493335a9e71297e485b7aef312c28b6014601881106109195761091861209e565b5b6020020181815250507f1800deef121f1e76426a00665e5c4479674322d4f75edadd46debd5cd992f6ed8b6015601881106109575761095661209e565b5b6020020181815250507f275dc4a288d1afb3cbb1ac09187524c7db36395df7be3b99e673b13a075a65ec8b6016601881106109955761099461209e565b5b6020020181815250507f1d9befcd05a5323e6da4d435f3b617cdb3af83285c2df711ef39c01571827f9d8b6017601881106109d3576109d261209e565b5b6020020181815250505f6109e5611ea0565b6020816103008f60085afa9150811580610a1757506001815f60018110610a0f57610a0e61209e565b5b602002015114155b15610a4e576040517f7fcdd1f400000000000000000000000000000000000000000000000000000000815260040160405180910390fd5b505050505050505050505050505050565b5f7f30644e72e131a029b85045b68181585d97816a916871ca8d3c208c16d87cfd4783101580610aaf57507f30644e72e131a029b85045b68181585d97816a916871ca8d3c208c16d87cfd478210155b15610ae6576040517f7fcdd1f400000000000000000000000000000000000000000000000000000000815260040160405180910390fd5b5f83148015610af457505f82145b15610b01575f9050610c07565b5f610b9f7f30644e72e131a029b85045b68181585d97816a916871ca8d3c208c16d87cfd4780610b3457610b336120cb565b5b60037f30644e72e131a029b85045b68181585d97816a916871ca8d3c208c16d87cfd4780610b6557610b646120cb565b5b877f30644e72e131a029b85045b68181585d97816a916871ca8d3c208c16d87cfd4780610b9557610b946120cb565b5b898a0909086118bb565b9050808303610bb7575f600185901b17915050610c07565b610bc081611957565b8303610bd55760018085901b17915050610c07565b6040517f7fcdd1f400000000000000000000000000000000000000000000000000000000815260040160405180910390fd5b92915050565b5f5f7f30644e72e131a029b85045b68181585d97816a916871ca8d3c208c16d87cfd4786101580610c5e57507f30644e72e131a029b85045b68181585d97816a916871ca8d3c208c16d87cfd478510155b80610c8957507f30644e72e131a029b85045b68181585d97816a916871ca8d3c208c16d87cfd478410155b80610cb457507f30644e72e131a029b85045b68181585d97816a916871ca8d3c208c16d87cfd478310155b15610ceb576040517f7fcdd1f400000000000000000000000000000000000000000000000000000000815260040160405180910390fd5b5f8385878917171703610d03575f5f915091506111d0565b5f5f5f7f30644e72e131a029b85045b68181585d97816a916871ca8d3c208c16d87cfd4780610d3557610d346120cb565b5b60037f30644e72e131a029b85045b68181585d97816a916871ca8d3c208c16d87cfd47610d629190612125565b7f30644e72e131a029b85045b68181585d97816a916871ca8d3c208c16d87cfd4780610d9157610d906120cb565b5b8a8c090990505f7f30644e72e131a029b85045b68181585d97816a916871ca8d3c208c16d87cfd4780610dc757610dc66120cb565b5b8a7f30644e72e131a029b85045b68181585d97816a916871ca8d3c208c16d87cfd4780610df757610df66120cb565b5b8c8d090990505f7f30644e72e131a029b85045b68181585d97816a916871ca8d3c208c16d87cfd4780610e2d57610e2c6120cb565b5b8a7f30644e72e131a029b85045b68181585d97816a916871ca8d3c208c16d87cfd4780610e5d57610e5c6120cb565b5b8c8d090990507f30644e72e131a029b85045b68181585d97816a916871ca8d3c208c16d87cfd4780610e9257610e916120cb565b5b7f30644e72e131a029b85045b68181585d97816a916871ca8d3c208c16d87cfd4780610ec157610ec06120cb565b5b7f30644e72e131a029b85045b68181585d97816a916871ca8d3c208c16d87cfd4780610ef057610eef6120cb565b5b8c860984087f2b149d40ceb8aaae81be18991be06ac3b5b4c5e559dbefa33267e6dc24a138e5089450610fd57f30644e72e131a029b85045b68181585d97816a916871ca8d3c208c16d87cfd4780610f4b57610f4a6120cb565b5b7f30644e72e131a029b85045b68181585d97816a916871ca8d3c208c16d87cfd4780610f7a57610f796120cb565b5b7f30644e72e131a029b85045b68181585d97816a916871ca8d3c208c16d87cfd4780610fa957610fa86120cb565b5b8e870984087f2fcd3ac2a640a154eb23960892a85a68f031ca0c8344b23a577dcf1052b9e77508611957565b93505050505f5f6110787f30644e72e131a029b85045b68181585d97816a916871ca8d3c208c16d87cfd478061100e5761100d6120cb565b5b7f30644e72e131a029b85045b68181585d97816a916871ca8d3c208c16d87cfd478061103d5761103c6120cb565b5b8586097f30644e72e131a029b85045b68181585d97816a916871ca8d3c208c16d87cfd478061106f5761106e6120cb565b5b878809086118bb565b90506111057f30644e72e131a029b85045b68181585d97816a916871ca8d3c208c16d87cfd47806110ac576110ab6120cb565b5b7f183227397098d014dc2822db40c0ac2ecbc0b548b438e5469e10460b6c3e7ea47f30644e72e131a029b85045b68181585d97816a916871ca8d3c208c16d87cfd47806110fc576110fb6120cb565b5b848808096119c2565b15915050611114838383611a2c565b8093508194505050828714801561112a57508186145b15611152575f8161113b575f61113e565b60025b60ff1660028b901b171794508793506111cc565b61115b83611957565b87148015611170575061116d82611957565b86145b1561119957600181611182575f611185565b60025b60ff1660028b901b171794508793506111cb565b6040517f7fcdd1f400000000000000000000000000000000000000000000000000000000815260040160405180910390fd5b5b5050505b94509492505050565b5f5f5f60019050604051604081015f7f0251859caefe66b516c5549d3768d1ba94146083cb044026abebc9908991924883527f2c1e789b2dcafdaa6853d0934c4443d223b8f050ce3466d068f2ab7efa29bc0360208401527f13a264f6a5d0e3938bea4e4431d417f2980774db501085ceafd0d7e76a7f128b82527f155351b5ccccb7a37222f2b82fa4a968f33523326364fe52bb87d1ea3f47c6976020830152863590508060408301527f30644e72e131a029b85045b68181585d2833e84879b9709143e1f593f000000181108416935060408260608460075afa8416935060408360808560065afa841693507f03777818388f77b4065a87d01e141b5fec2ee452d1ada3493892aca2c4da5d4082527f0fb2382a8c87c5992ee8385e493ffd96983c8c42c5545a4daaab264f482865b56020830152602087013590508060408301527f30644e72e131a029b85045b68181585d2833e84879b9709143e1f593f000000181108416935060408260608460075afa8416935060408360808560065afa841693508251955060208301519450505050806113a5576040517fa54f8e2700000000000000000000000000000000000000000000000000000000815260040160405180910390fd5b50915091565b5f5f5f83036113bf575f5f915091506114db565b5f6001808516149050600184901c92507f30644e72e131a029b85045b68181585d97816a916871ca8d3c208c16d87cfd478310611428576040517f7fcdd1f400000000000000000000000000000000000000000000000000000000815260040160405180910390fd5b6114c57f30644e72e131a029b85045b68181585d97816a916871ca8d3c208c16d87cfd478061145a576114596120cb565b5b60037f30644e72e131a029b85045b68181585d97816a916871ca8d3c208c16d87cfd478061148b5761148a6120cb565b5b867f30644e72e131a029b85045b68181585d97816a916871ca8d3c208c16d87cfd47806114bb576114ba6120cb565b5b88890909086118bb565b915080156114d9576114d682611957565b91505b505b915091565b5f5f5f5f5f861480156114f257505f85145b15611508575f5f5f5f93509350935093506118b2565b5f60018088161490505f6002808916149050600288901c95508694507f30644e72e131a029b85045b68181585d97816a916871ca8d3c208c16d87cfd478610158061157357507f30644e72e131a029b85045b68181585d97816a916871ca8d3c208c16d87cfd478510155b156115aa576040517f7fcdd1f400000000000000000000000000000000000000000000000000000000815260040160405180910390fd5b5f7f30644e72e131a029b85045b68181585d97816a916871ca8d3c208c16d87cfd47806115da576115d96120cb565b5b60037f30644e72e131a029b85045b68181585d97816a916871ca8d3c208c16d87cfd476116079190612125565b7f30644e72e131a029b85045b68181585d97816a916871ca8d3c208c16d87cfd4780611636576116356120cb565b5b888a090990505f7f30644e72e131a029b85045b68181585d97816a916871ca8d3c208c16d87cfd478061166c5761166b6120cb565b5b887f30644e72e131a029b85045b68181585d97816a916871ca8d3c208c16d87cfd478061169c5761169b6120cb565b5b8a8b090990505f7f30644e72e131a029b85045b68181585d97816a916871ca8d3c208c16d87cfd47806116d2576116d16120cb565b5b887f30644e72e131a029b85045b68181585d97816a916871ca8d3c208c16d87cfd4780611702576117016120cb565b5b8a8b090990507f30644e72e131a029b85045b68181585d97816a916871ca8d3c208c16d87cfd4780611737576117366120cb565b5b7f30644e72e131a029b85045b68181585d97816a916871ca8d3c208c16d87cfd4780611766576117656120cb565b5b7f30644e72e131a029b85045b68181585d97816a916871ca8d3c208c16d87cfd4780611795576117946120cb565b5b8a860984087f2b149d40ceb8aaae81be18991be06ac3b5b4c5e559dbefa33267e6dc24a138e508965061187a7f30644e72e131a029b85045b68181585d97816a916871ca8d3c208c16d87cfd47806117f0576117ef6120cb565b5b7f30644e72e131a029b85045b68181585d97816a916871ca8d3c208c16d87cfd478061181f5761181e6120cb565b5b7f30644e72e131a029b85045b68181585d97816a916871ca8d3c208c16d87cfd478061184e5761184d6120cb565b5b8c870984087f2fcd3ac2a640a154eb23960892a85a68f031ca0c8344b23a577dcf1052b9e77508611957565b9550611887878786611a2c565b809750819850505084156118ac5761189e87611957565b96506118a986611957565b95505b50505050505b92959194509250565b5f6118e6827f0c19139cb84c680a6e14116da060561765e05aa45a1c72a34f082305b61f3f52611d27565b9050817f30644e72e131a029b85045b68181585d97816a916871ca8d3c208c16d87cfd4780611918576119176120cb565b5b82830914611952576040517f7fcdd1f400000000000000000000000000000000000000000000000000000000815260040160405180910390fd5b919050565b5f7f30644e72e131a029b85045b68181585d97816a916871ca8d3c208c16d87cfd47808381611989576119886120cb565b5b067f30644e72e131a029b85045b68181585d97816a916871ca8d3c208c16d87cfd4703816119ba576119b96120cb565b5b069050919050565b5f5f6119ee837f0c19139cb84c680a6e14116da060561765e05aa45a1c72a34f082305b61f3f52611d27565b9050827f30644e72e131a029b85045b68181585d97816a916871ca8d3c208c16d87cfd4780611a2057611a1f6120cb565b5b82830914915050919050565b5f5f5f611acb7f30644e72e131a029b85045b68181585d97816a916871ca8d3c208c16d87cfd4780611a6157611a606120cb565b5b7f30644e72e131a029b85045b68181585d97816a916871ca8d3c208c16d87cfd4780611a9057611a8f6120cb565b5b8788097f30644e72e131a029b85045b68181585d97816a916871ca8d3c208c16d87cfd4780611ac257611ac16120cb565b5b898a09086118bb565b90508315611adf57611adc81611957565b90505b611b6a7f30644e72e131a029b85045b68181585d97816a916871ca8d3c208c16d87cfd4780611b1157611b106120cb565b5b7f183227397098d014dc2822db40c0ac2ecbc0b548b438e5469e10460b6c3e7ea47f30644e72e131a029b85045b68181585d97816a916871ca8d3c208c16d87cfd4780611b6157611b606120cb565b5b848a08096118bb565b92507f30644e72e131a029b85045b68181585d97816a916871ca8d3c208c16d87cfd4780611b9b57611b9a6120cb565b5b611bd67f30644e72e131a029b85045b68181585d97816a916871ca8d3c208c16d87cfd4780611bcd57611bcc6120cb565b5b60028609611dbe565b860991507f30644e72e131a029b85045b68181585d97816a916871ca8d3c208c16d87cfd4780611c0957611c086120cb565b5b611c437f30644e72e131a029b85045b68181585d97816a916871ca8d3c208c16d87cfd4780611c3b57611c3a6120cb565b5b848509611957565b7f30644e72e131a029b85045b68181585d97816a916871ca8d3c208c16d87cfd4780611c7257611c716120cb565b5b8586090886141580611ce757507f30644e72e131a029b85045b68181585d97816a916871ca8d3c208c16d87cfd4780611cae57611cad6120cb565b5b7f30644e72e131a029b85045b68181585d97816a916871ca8d3c208c16d87cfd4780611cdd57611cdc6120cb565b5b8385096002098514155b15611d1e576040517f7fcdd1f400000000000000000000000000000000000000000000000000000000815260040160405180910390fd5b50935093915050565b5f5f60405160208152602080820152602060408201528460608201528360808201527f30644e72e131a029b85045b68181585d97816a916871ca8d3c208c16d87cfd4760a082015260208160c08360055afa9150805192505080611db7576040517f7fcdd1f400000000000000000000000000000000000000000000000000000000815260040160405180910390fd5b5092915050565b5f611de9827f30644e72e131a029b85045b68181585d97816a916871ca8d3c208c16d87cfd45611d27565b905060017f30644e72e131a029b85045b68181585d97816a916871ca8d3c208c16d87cfd4780611e1c57611e1b6120cb565b5b82840914611e56576040517f7fcdd1f400000000000000000000000000000000000000000000000000000000815260040160405180910390fd5b919050565b6040518060800160405280600490602082028036833780820191505090505090565b604051806103000160405280601890602082028036833780820191505090505090565b6040518060200160405280600190602082028036833780820191505090505090565b5f5ffd5b5f5ffd5b5f81905082602060080282011115611ee557611ee4611ec6565b5b92915050565b5f6101008284031215611f0157611f00611ec2565b5b5f611f0e84828501611eca565b91505092915050565b5f60049050919050565b5f81905092915050565b5f819050919050565b5f819050919050565b611f4681611f34565b82525050565b5f611f578383611f3d565b60208301905092915050565b5f602082019050919050565b611f7881611f17565b611f828184611f21565b9250611f8d82611f2b565b805f5b83811015611fbd578151611fa48782611f4c565b9650611faf83611f63565b925050600181019050611f90565b505050505050565b5f608082019050611fd85f830184611f6f565b92915050565b5f81905082602060020282011115611ff957611ff8611ec6565b5b92915050565b5f5f610140838503121561201657612015611ec2565b5b5f61202385828601611eca565b92505061010061203585828601611fde565b9150509250929050565b5f8190508260206004028201111561205a57612059611ec6565b5b92915050565b5f5f60c0838503121561207657612075611ec2565b5b5f6120838582860161203f565b925050608061209485828601611fde565b9150509250929050565b7f4e487b71000000000000000000000000000000000000000000000000000000005f52603260045260245ffd5b7f4e487b71000000000000000000000000000000000000000000000000000000005f52601260045260245ffd5b7f4e487b71000000000000000000000000000000000000000000000000000000005f52601160045260245ffd5b5f61212f82611f34565b915061213a83611f34565b9250828203905081811115612152576121516120f8565b5b9291505056fea264697066735822122015fbef891d130e2a88b6fb4b0aa8b0ec8cfbc90be859c3b7b6afb6909d6f80c164736f6c634300081e0033",
					"opcodes": "PUSH1 0x80 PUSH1 0x40 MSTORE CALLVALUE DUP1 ISZERO PUSH1 0xE JUMPI PUSH0 PUSH0 REVERT JUMPDEST POP PUSH2 0x218E DUP1 PUSH2 0x1C PUSH0 CODECOPY PUSH0 RETURN INVALID PUSH1 0x80 PUSH1 0x40 MSTORE CALLVALUE DUP1 ISZERO PUSH2 0xF JUMPI PUSH0 PUSH0 REVERT JUMPDEST POP PUSH1 0x4 CALLDATASIZE LT PUSH2 0x3F JUMPI PUSH0 CALLDATALOAD PUSH1 0xE0 SHR DUP1 PUSH4 0x44F63692 EQ PUSH2 0x43 JUMPI DUP1 PUSH4 0xEDDF243C EQ PUSH2 0x73 JUMPI DUP1 PUSH4 0xF11817B2 EQ PUSH2 0x8F JUMPI JUMPDEST PUSH0 PUSH0 REVERT JUMPDEST PUSH2 0x5D PUSH1 0x4 DUP1 CALLDATASIZE SUB DUP2 ADD SWAP1 PUSH2 0x58 SWAP2 SWAP1 PUSH2 0x1EEB JUMP JUMPDEST PUSH2 0xAB JUMP JUMPDEST PUSH1 0x40 MLOAD PUSH2 0x6A SWAP2 SWAP1 PUSH2 0x1FC5 JUMP JUMPDEST PUSH1 0x40 MLOAD DUP1 SWAP2 SUB SWAP1 RETURN JUMPDEST PUSH2 0x8D PUSH1 0x4 DUP1 CALLDATASIZE SUB DUP2 ADD SWAP1 PUSH2 0x88 SWAP2 SWAP1 PUSH2 0x1FFF JUMP JUMPDEST PUSH2 0x20A JUMP JUMPDEST STOP JUMPDEST PUSH2 0xA9 PUSH1 0x4 DUP1 CALLDATASIZE SUB DUP2 ADD SWAP1 PUSH2 0xA4 SWAP2 SWAP1 PUSH2 0x2060 JUMP JUMPDEST PUSH2 0x4A4 JUMP JUMPDEST STOP JUMPDEST PUSH2 0xB3 PUSH2 0x1E5B JUMP JUMPDEST PUSH2 0xEC DUP3 PUSH0 PUSH1 0x8 DUP2 LT PUSH2 0xC9 JUMPI PUSH2 0xC8 PUSH2 0x209E JUMP JUMPDEST JUMPDEST PUSH1 0x20 MUL ADD CALLDATALOAD DUP4 PUSH1 0x1 PUSH1 0x8 DUP2 LT PUSH2 0xE2 JUMPI PUSH2 0xE1 PUSH2 0x209E JUMP JUMPDEST JUMPDEST PUSH1 0x20 MUL ADD CALLDATALOAD PUSH2 0xA5F JUMP JUMPDEST DUP2 PUSH0 PUSH1 0x4 DUP2 LT PUSH2 0xFF JUMPI PUSH2 0xFE PUSH2 0x209E JUMP JUMPDEST JUMPDEST PUSH1 0x20 MUL ADD DUP2 DUP2 MSTORE POP POP PUSH2 0x174 DUP3 PUSH1 0x3 PUSH1 0x8 DUP2 LT PUSH2 0x11F JUMPI PUSH2 0x11E PUSH2 0x209E JUMP JUMPDEST JUMPDEST PUSH1 0x20 MUL ADD CALLDATALOAD DUP4 PUSH1 0x2 PUSH1 0x8 DUP2 LT PUSH2 0x138 JUMPI PUSH2 0x137 PUSH2 0x209E JUMP JUMPDEST JUMPDEST PUSH1 0x20 MUL ADD CALLDATALOAD DUP5 PUSH1 0x5 PUSH1 0x8 DUP2 LT PUSH2 0x151 JUMPI PUSH2 0x150 PUSH2 0x209E JUMP JUMPDEST JUMPDEST PUSH1 0x20 MUL ADD CALLDATALOAD DUP6 PUSH1 0x4 PUSH1 0x8 DUP2 LT PUSH2 0x16A JUMPI PUSH2 0x169 PUSH2 0x209E JUMP JUMPDEST JUMPDEST PUSH1 0x20 MUL ADD CALLDATALOAD PUSH2 0xC0D JUMP JUMPDEST DUP3 PUSH1 0x2 PUSH1 0x4 DUP2 LT PUSH2 0x188 JUMPI PUSH2 0x187 PUSH2 0x209E JUMP JUMPDEST JUMPDEST PUSH1 0x20 MUL ADD DUP4 PUSH1 0x1 PUSH1 0x4 DUP2 LT PUSH2 0x1A0 JUMPI PUSH2 0x19F PUSH2 0x209E JUMP JUMPDEST JUMPDEST PUSH1 0x20 MUL ADD DUP3 DUP2 MSTORE POP DUP3 DUP2 MSTORE POP POP POP PUSH2 0x1E8 DUP3 PUSH1 0x6 PUSH1 0x8 DUP2 LT PUSH2 0x1C5 JUMPI PUSH2 0x1C4 PUSH2 0x209E JUMP JUMPDEST JUMPDEST PUSH1 0x20 MUL ADD CALLDATALOAD DUP4 PUSH1 0x7 PUSH1 0x8 DUP2 LT PUSH2 0x1DE JUMPI PUSH2 0x1DD PUSH2 0x209E JUMP JUMPDEST JUMPDEST PUSH1 0x20 MUL ADD CALLDATALOAD PUSH2 0xA5F JUMP JUMPDEST DUP2 PUSH1 0x3 PUSH1 0x4 DUP2 LT PUSH2 0x1FC JUMPI PUSH2 0x1FB PUSH2 0x209E JUMP JUMPDEST JUMPDEST PUSH1 0x20 MUL ADD DUP2 DUP2 MSTORE POP POP SWAP2 SWAP1 POP JUMP JUMPDEST PUSH0 PUSH0 PUSH2 0x215 DUP4 PUSH2 0x11D9 JUMP JUMPDEST SWAP2 POP SWAP2 POP PUSH0 PUSH1 0x40 MLOAD PUSH2 0x100 DUP7 DUP3 CALLDATACOPY PUSH32 0x21AB438B0AD9688F8D9AFC96ED0AB25E6AB7F19ED6F7D58A9DC136D68DE55E3E PUSH2 0x100 DUP3 ADD MSTORE PUSH32 0x2D1F461CA03A65528393919E9E412F6B82D7096E44FA039BD7642A5112188AF7 PUSH2 0x120 DUP3 ADD MSTORE PUSH32 0x100F76D4AC45886C1334D58716121DC0FFA8463738F3F2ADF793E15B8ECD7E1D PUSH2 0x140 DUP3 ADD MSTORE PUSH32 0x2BF21E8BB2F9419034373C2156CDD7BDDF273519DCD7F674EF21E2748CED89F2 PUSH2 0x160 DUP3 ADD MSTORE PUSH32 0x2D4D9AA7E302D9DF41749D5507949D05DBEA33FBB16C643B22F599A2BE6DF2E2 PUSH2 0x180 DUP3 ADD MSTORE PUSH32 0x14BEDD503C37CEB061D8EC60209FE345CE89830A19230301F076CAFF004D1926 PUSH2 0x1A0 DUP3 ADD MSTORE PUSH32 0x967032FCBF776D1AFC985F88877F182D38480A653F2DECAA9794CBC3BF3060C PUSH2 0x1C0 DUP3 ADD MSTORE PUSH32 0xE187847AD4C798374D0D6732BF501847DD68BC0E071241E0213BC7FC13DB7AB PUSH2 0x1E0 DUP3 ADD MSTORE PUSH31 0x1752A100A72FDF1E5A5D6EA841CC20EC838BCCFCF7BD559E79F1C9C759B6A0 PUSH2 0x200 DUP3 ADD MSTORE PUSH32 0x192A8CC13CD9F762871F21E43451C6CA9EEAB2CB2987C4E366A185C25DAC2E7F PUSH2 0x220 DUP3 ADD MSTORE DUP4 PUSH2 0x240 DUP3 ADD MSTORE DUP3 PUSH2 0x260 DUP3 ADD MSTORE PUSH32 0x198E9393920D483A7260BFB731FB5D25F1AA493335A9E71297E485B7AEF312C2 PUSH2 0x280 DUP3 ADD MSTORE PUSH32 0x1800DEEF121F1E76426A00665E5C4479674322D4F75EDADD46DEBD5CD992F6ED PUSH2 0x2A0 DUP3 ADD MSTORE PUSH32 0x275DC4A288D1AFB3CBB1AC09187524C7DB36395DF7BE3B99E673B13A075A65EC PUSH2 0x2C0 DUP3 ADD MSTORE PUSH32 0x1D9BEFCD05A5323E6DA4D435F3B617CDB3AF83285C2DF711EF39C01571827F9D PUSH2 0x2E0 DUP3 ADD MSTORE PUSH1 0x20 DUP2 PUSH2 0x300 DUP4 PUSH1 0x8 GAS STATICCALL SWAP2 POP DUP1 MLOAD DUP3 AND SWAP2 POP POP DUP1 PUSH2 0x49D JUMPI PUSH1 0x40 MLOAD PUSH32 0x7FCDD1F400000000000000000000000000000000000000000000000000000000 DUP2 MSTORE PUSH1 0x4 ADD PUSH1 0x40 MLOAD DUP1 SWAP2 SUB SWAP1 REVERT JUMPDEST POP POP POP POP POP JUMP JUMPDEST PUSH2 0x4AC PUSH2 0x1E7D JUMP JUMPDEST PUSH0 PUSH0 PUSH2 0x4CE DUP6 PUSH0 PUSH1 0x4 DUP2 LT PUSH2 0x4C4 JUMPI PUSH2 0x4C3 PUSH2 0x209E JUMP JUMPDEST JUMPDEST PUSH1 0x20 MUL ADD CALLDATALOAD PUSH2 0x13AB JUMP JUMPDEST SWAP2 POP SWAP2 POP PUSH0 PUSH0 PUSH0 PUSH0 PUSH2 0x510 DUP10 PUSH1 0x2 PUSH1 0x4 DUP2 LT PUSH2 0x4ED JUMPI PUSH2 0x4EC PUSH2 0x209E JUMP JUMPDEST JUMPDEST PUSH1 0x20 MUL ADD CALLDATALOAD DUP11 PUSH1 0x1 PUSH1 0x4 DUP2 LT PUSH2 0x506 JUMPI PUSH2 0x505 PUSH2 0x209E JUMP JUMPDEST JUMPDEST PUSH1 0x20 MUL ADD CALLDATALOAD PUSH2 0x14E0 JUMP JUMPDEST SWAP4 POP SWAP4 POP SWAP4 POP SWAP4 POP PUSH0 PUSH0 PUSH2 0x53B DUP12 PUSH1 0x3 PUSH1 0x4 DUP2 LT PUSH2 0x531 JUMPI PUSH2 0x530 PUSH2 0x209E JUMP JUMPDEST JUMPDEST PUSH1 0x20 MUL ADD CALLDATALOAD PUSH2 0x13AB JUMP JUMPDEST SWAP2 POP SWAP2 POP PUSH0 PUSH0 PUSH2 0x54A DUP13 PUSH2 0x11D9 JUMP JUMPDEST SWAP2 POP SWAP2 POP DUP10 DUP12 PUSH0 PUSH1 0x18 DUP2 LT PUSH2 0x562 JUMPI PUSH2 0x561 PUSH2 0x209E JUMP JUMPDEST JUMPDEST PUSH1 0x20 MUL ADD DUP2 DUP2 MSTORE POP POP DUP9 DUP12 PUSH1 0x1 PUSH1 0x18 DUP2 LT PUSH2 0x580 JUMPI PUSH2 0x57F PUSH2 0x209E JUMP JUMPDEST JUMPDEST PUSH1 0x20 MUL ADD DUP2 DUP2 MSTORE POP POP DUP7 DUP12 PUSH1 0x2 PUSH1 0x18 DUP2 LT PUSH2 0x59E JUMPI PUSH2 0x59D PUSH2 0x209E JUMP JUMPDEST JUMPDEST PUSH1 0x20 MUL ADD DUP2 DUP2 MSTORE POP POP DUP8 DUP12 PUSH1 0x3 PUSH1 0x18 DUP2 LT PUSH2 0x5BC JUMPI PUSH2 0x5BB PUSH2 0x209E JUMP JUMPDEST JUMPDEST PUSH1 0x20 MUL ADD DUP2 DUP2 MSTORE POP POP DUP5 DUP12 PUSH1 0x4 PUSH1 0x18 DUP2 LT PUSH2 0x5DA JUMPI PUSH2 0x5D9 PUSH2 0x209E JUMP JUMPDEST JUMPDEST PUSH1 0x20 MUL ADD DUP2 DUP2 MSTORE POP POP DUP6 DUP12 PUSH1 0x5 PUSH1 0x18 DUP2 LT PUSH2 0x5F8 JUMPI PUSH2 0x5F7 PUSH2 0x209E JUMP JUMPDEST JUMPDEST PUSH1 0x20 MUL ADD DUP2 DUP2 MSTORE POP POP DUP4 DUP12 PUSH1 0x6 PUSH1 0x18 DUP2 LT PUSH2 0x616 JUMPI PUSH2 0x615 PUSH2 0x209E JUMP JUMPDEST JUMPDEST PUSH1 0x20 MUL ADD DUP2 DUP2 MSTORE POP POP DUP3 DUP12 PUSH1 0x7 PUSH1 0x18 DUP2 LT PUSH2 0x634 JUMPI PUSH2 0x633 PUSH2 0x209E JUMP JUMPDEST JUMPDEST PUSH1 0x20 MUL ADD DUP2 DUP2 MSTORE POP POP PUSH32 0x21AB438B0AD9688F8D9AFC96ED0AB25E6AB7F19ED6F7D58A9DC136D68DE55E3E DUP12 PUSH1 0x8 PUSH1 0x18 DUP2 LT PUSH2 0x672 JUMPI PUSH2 0x671 PUSH2 0x209E JUMP JUMPDEST JUMPDEST PUSH1 0x20 MUL ADD DUP2 DUP2 MSTORE POP POP PUSH32 0x2D1F461CA03A65528393919E9E412F6B82D7096E44FA039BD7642A5112188AF7 DUP12 PUSH1 0x9 PUSH1 0x18 DUP2 LT PUSH2 0x6B0 JUMPI PUSH2 0x6AF PUSH2 0x209E JUMP JUMPDEST JUMPDEST PUSH1 0x20 MUL ADD DUP2 DUP2 MSTORE POP POP PUSH32 0x100F76D4AC45886C1334D58716121DC0FFA8463738F3F2ADF793E15B8ECD7E1D DUP12 PUSH1 0xA PUSH1 0x18 DUP2 LT PUSH2 0x6EE JUMPI PUSH2 0x6ED PUSH2 0x209E JUMP JUMPDEST JUMPDEST PUSH1 0x20 MUL ADD DUP2 DUP2 MSTORE POP POP PUSH32 0x2BF21E8BB2F9419034373C2156CDD7BDDF273519DCD7F674EF21E2748CED89F2 DUP12 PUSH1 0xB PUSH1 0x18 DUP2 LT PUSH2 0x72C JUMPI PUSH2 0x72B PUSH2 0x209E JUMP JUMPDEST JUMPDEST PUSH1 0x20 MUL ADD DUP2 DUP2 MSTORE POP POP PUSH32 0x2D4D9AA7E302D9DF41749D5507949D05DBEA33FBB16C643B22F599A2BE6DF2E2 DUP12 PUSH1 0xC PUSH1 0x18 DUP2 LT PUSH2 0x76A JUMPI PUSH2 0x769 PUSH2 0x209E JUMP JUMPDEST JUMPDEST PUSH1 0x20 MUL ADD DUP2 DUP2 MSTORE POP POP PUSH32 0x14BEDD503C37CEB061D8EC60209FE345CE89830A19230301F076CAFF004D1926 DUP12 PUSH1 0xD PUSH1 0x18 DUP2 LT PUSH2 0x7A8 JUMPI PUSH2 0x7A7 PUSH2 0x209E JUMP JUMPDEST JUMPDEST PUSH1 0x20 MUL ADD DUP2 DUP2 MSTORE POP POP PUSH32 0x967032FCBF776D1AFC985F88877F182D38480A653F2DECAA9794CBC3BF3060C DUP12 PUSH1 0xE PUSH1 0x18 DUP2 LT PUSH2 0x7E6 JUMPI PUSH2 0x7E5 PUSH2 0x209E JUMP JUMPDEST JUMPDEST PUSH1 0x20 MUL ADD DUP2 DUP2 MSTORE POP POP PUSH32 0xE187847AD4C798374D0D6732BF501847DD68BC0E071241E0213BC7FC13DB7AB DUP12 PUSH1 0xF PUSH1 0x18 DUP2 LT PUSH2 0x824 JUMPI PUSH2 0x823 PUSH2 0x209E JUMP JUMPDEST JUMPDEST PUSH1 0x20 MUL ADD DUP2 DUP2 MSTORE POP POP PUSH31 0x1752A100A72FDF1E5A5D6EA841CC20EC838BCCFCF7BD559E79F1C9C759B6A0 DUP12 PUSH1 0x10 PUSH1 0x18 DUP2 LT PUSH2 0x861 JUMPI PUSH2 0x860 PUSH2 0x209E JUMP JUMPDEST JUMPDEST PUSH1 0x20 MUL ADD DUP2 DUP2 MSTORE POP POP PUSH32 0x192A8CC13CD9F762871F21E43451C6CA9EEAB2CB2987C4E366A185C25DAC2E7F DUP12 PUSH1 0x11 PUSH1 0x18 DUP2 LT PUSH2 0x89F JUMPI PUSH2 0x89E PUSH2 0x209E JUMP JUMPDEST JUMPDEST PUSH1 0x20 MUL ADD DUP2 DUP2 MSTORE POP POP DUP2 DUP12 PUSH1 0x12 PUSH1 0x18 DUP2 LT PUSH2 0x8BD JUMPI PUSH2 0x8BC PUSH2 0x209E JUMP JUMPDEST JUMPDEST PUSH1 0x20 MUL ADD DUP2 DUP2 MSTORE POP POP DUP1 DUP12 PUSH1 0x13 PUSH1 0x18 DUP2 LT PUSH2 0x8DB JUMPI PUSH2 0x8DA PUSH2 0x209E JUMP JUMPDEST JUMPDEST PUSH1 0x20 MUL ADD DUP2 DUP2 MSTORE POP POP PUSH32 0x198E9393920D483A7260BFB731FB5D25F1AA493335A9E71297E485B7AEF312C2 DUP12 PUSH1 0x14 PUSH1 0x18 DUP2 LT PUSH2 0x919 JUMPI PUSH2 0x918 PUSH2 0x209E JUMP JUMPDEST JUMPDEST PUSH1 0x20 MUL ADD DUP2 DUP2 MSTORE POP POP PUSH32 0x1800DEEF121F1E76426A00665E5C4479674322D4F75EDADD46DEBD5CD992F6ED DUP12 PUSH1 0x15 PUSH1 0x18 DUP2 LT PUSH2 0x957 JUMPI PUSH2 0x956 PUSH2 0x209E JUMP JUMPDEST JUMPDEST PUSH1 0x20 MUL ADD DUP2 DUP2 MSTORE POP POP PUSH32 0x275DC4A288D1AFB3CBB1AC09187524C7DB36395DF7BE3B99E673B13A075A65EC DUP12 PUSH1 0x16 PUSH1 0x18 DUP2 LT PUSH2 0x995 JUMPI PUSH2 0x994 PUSH2 0x209E JUMP JUMPDEST JUMPDEST PUSH1 0x20 MUL ADD DUP2 DUP2 MSTORE POP POP PUSH32 0x1D9BEFCD05A5323E6DA4D435F3B617CDB3AF83285C2DF711EF39C01571827F9D DUP12 PUSH1 0x17 PUSH1 0x18 DUP2 LT PUSH2 0x9D3 JUMPI PUSH2 0x9D2 PUSH2 0x209E JUMP JUMPDEST JUMPDEST PUSH1 0x20 MUL ADD DUP2 DUP2 MSTORE POP POP PUSH0 PUSH2 0x9E5 PUSH2 0x1EA0 JUMP JUMPDEST PUSH1 0x20 DUP2 PUSH2 0x300 DUP16 PUSH1 0x8 GAS STATICCALL SWAP2 POP DUP2 ISZERO DUP1 PUSH2 0xA17 JUMPI POP PUSH1 0x1 DUP2 PUSH0 PUSH1 0x1 DUP2 LT PUSH2 0xA0F JUMPI PUSH2 0xA0E PUSH2 0x209E JUMP JUMPDEST JUMPDEST PUSH1 0x20 MUL ADD MLOAD EQ ISZERO JUMPDEST ISZERO PUSH2 0xA4E JUMPI PUSH1 0x40 MLOAD PUSH32 0x7FCDD1F400000000000000000000000000000000000000000000000000000000 DUP2 MSTORE PUSH1 0x4 ADD PUSH1 0x40 MLOAD DUP1 SWAP2 SUB SWAP1 REVERT JUMPDEST POP POP POP POP POP POP POP POP POP POP POP POP POP POP POP JUMP JUMPDEST PUSH0 PUSH32 0x30644E72E131A029B85045B68181585D97816A916871CA8D3C208C16D87CFD47 DUP4 LT ISZERO DUP1 PUSH2 0xAAF JUMPI POP PUSH32 0x30644E72E131A029B85045B68181585D97816A916871CA8D3C208C16D87CFD47 DUP3 LT ISZERO JUMPDEST ISZERO PUSH2 0xAE6 JUMPI PUSH1 0x40 MLOAD PUSH32 0x7FCDD1F400000000000000000000000000000000000000000000000000000000 DUP2 MSTORE PUSH1 0x4 ADD PUSH1 0x40 MLOAD DUP1 SWAP2 SUB SWAP1 REVERT JUMPDEST PUSH0 DUP4 EQ DUP1 ISZERO PUSH2 0xAF4 JUMPI POP PUSH0 DUP3 EQ JUMPDEST ISZERO PUSH2 0xB01 JUMPI PUSH0 SWAP1 POP PUSH2 0xC07 JUMP JUMPDEST PUSH0 PUSH2 0xB9F PUSH32 0x30644E72E131A029B85045B68181585D97816A916871CA8D3C208C16D87CFD47 DUP1 PUSH2 0xB34 JUMPI PUSH2 0xB33 PUSH2 0x20CB JUMP JUMPDEST JUMPDEST PUSH1 0x3 PUSH32 0x30644E72E131A029B85045B68181585D97816A916871CA8D3C208C16D87CFD47 DUP1 PUSH2 0xB65 JUMPI PUSH2 0xB64 PUSH2 0x20CB JUMP JUMPDEST JUMPDEST DUP8 PUSH32 0x30644E72E131A029B85045B68181585D97816A916871CA8D3C208C16D87CFD47 DUP1 PUSH2 0xB95 JUMPI PUSH2 0xB94 PUSH2 0x20CB JUMP JUMPDEST JUMPDEST DUP10 DUP11 MULMOD MULMOD ADDMOD PUSH2 0x18BB JUMP JUMPDEST SWAP1 POP DUP1 DUP4 SUB PUSH2 0xBB7 JUMPI PUSH0 PUSH1 0x1 DUP6 SWAP1 SHL OR SWAP2 POP POP PUSH2 0xC07 JUMP JUMPDEST PUSH2 0xBC0 DUP2 PUSH2 0x1957 JUMP JUMPDEST DUP4 SUB PUSH2 0xBD5 JUMPI PUSH1 0x1 DUP1 DUP6 SWAP1 SHL OR SWAP2 POP POP PUSH2 0xC07 JUMP JUMPDEST PUSH1 0x40 MLOAD PUSH32 0x7FCDD1F400000000000000000000000000000000000000000000000000000000 DUP2 MSTORE PUSH1 0x4 ADD PUSH1 0x40 MLOAD DUP1 SWAP2 SUB SWAP1 REVERT JUMPDEST SWAP3 SWAP2 POP POP JUMP JUMPDEST PUSH0 PUSH0 PUSH32 0x30644E72E131A029B85045B68181585D97816A916871CA8D3C208C16D87CFD47 DUP7 LT ISZERO DUP1 PUSH2 0xC5E JUMPI POP PUSH32 0x30644E72E131A029B85045B68181585D97816A916871CA8D3C208C16D87CFD47 DUP6 LT ISZERO JUMPDEST DUP1 PUSH2 0xC89 JUMPI POP PUSH32 0x30644E72E131A029B85045B68181585D97816A916871CA8D3C208C16D87CFD47 DUP5 LT ISZERO JUMPDEST DUP1 PUSH2 0xCB4 JUMPI POP PUSH32 0x30644E72E131A029B85045B68181585D97816A916871CA8D3C208C16D87CFD47 DUP4 LT ISZERO JUMPDEST ISZERO PUSH2 0xCEB JUMPI PUSH1 0x40 MLOAD PUSH32 0x7FCDD1F400000000000000000000000000000000000000000000000000000000 DUP2 MSTORE PUSH1 0x4 ADD PUSH1 0x40 MLOAD DUP1 SWAP2 SUB SWAP1 REVERT JUMPDEST PUSH0 DUP4 DUP6 DUP8 DUP10 OR OR OR SUB PUSH2 0xD03 JUMPI PUSH0 PUSH0 SWAP2 POP SWAP2 POP PUSH2 0x11D0 JUMP JUMPDEST PUSH0 PUSH0 PUSH0 PUSH32 0x30644E72E131A029B85045B68181585D97816A916871CA8D3C208C16D87CFD47 DUP1 PUSH2 0xD35 JUMPI PUSH2 0xD34 PUSH2 0x20CB JUMP JUMPDEST JUMPDEST PUSH1 0x3 PUSH32 0x30644E72E131A029B85045B68181585D97816A916871CA8D3C208C16D87CFD47 PUSH2 0xD62 SWAP2 SWAP1 PUSH2 0x2125 JUMP JUMPDEST PUSH32 0x30644E72E131A029B85045B68181585D97816A916871CA8D3C208C16D87CFD47 DUP1 PUSH2 0xD91 JUMPI PUSH2 0xD90 PUSH2 0x20CB JUMP JUMPDEST JUMPDEST DUP11 DUP13 MULMOD MULMOD SWAP1 POP PUSH0 PUSH32 0x30644E72E131A029B85045B68181585D97816A916871CA8D3C208C16D87CFD47 DUP1 PUSH2 0xDC7 JUMPI PUSH2 0xDC6 PUSH2 0x20CB JUMP JUMPDEST JUMPDEST DUP11 PUSH32 0x30644E72E131A029B85045B68181585D97816A916871CA8D3C208C16D87CFD47 DUP1 PUSH2 0xDF7 JUMPI PUSH2 0xDF6 PUSH2 0x20CB JUMP JUMPDEST JUMPDEST DUP13 DUP14 MULMOD MULMOD SWAP1 POP PUSH0 PUSH32 0x30644E72E131A029B85045B68181585D97816A916871CA8D3C208C16D87CFD47 DUP1 PUSH2 0xE2D JUMPI PUSH2 0xE2C PUSH2 0x20CB JUMP JUMPDEST JUMPDEST DUP11 PUSH32 0x30644E72E131A029B85045B68181585D97816A916871CA8D3C208C16D87CFD47 DUP1 PUSH2 0xE5D JUMPI PUSH2 0xE5C PUSH2 0x20CB JUMP JUMPDEST JUMPDEST DUP13 DUP14 MULMOD MULMOD SWAP1 POP PUSH32 0x30644E72E131A029B85045B68181585D97816A916871CA8D3C208C16D87CFD47 DUP1 PUSH2 0xE92 JUMPI PUSH2 0xE91 PUSH2 0x20CB JUMP JUMPDEST JUMPDEST PUSH32 0x30644E72E131A029B85045B68181585D97816A916871CA8D3C208C16D87CFD47 DUP1 PUSH2 0xEC1 JUMPI PUSH2 0xEC0 PUSH2 0x20CB JUMP JUMPDEST JUMPDEST PUSH32 0x30644E72E131A029B85045B68181585D97816A916871CA8D3C208C16D87CFD47 DUP1 PUSH2 0xEF0 JUMPI PUSH2 0xEEF PUSH2 0x20CB JUMP JUMPDEST JUMPDEST DUP13 DUP7 MULMOD DUP5 ADDMOD PUSH32 0x2B149D40CEB8AAAE81BE18991BE06AC3B5B4C5E559DBEFA33267E6DC24A138E5 ADDMOD SWAP5 POP PUSH2 0xFD5 PUSH32 0x30644E72E131A029B85045B68181585D97816A916871CA8D3C208C16D87CFD47 DUP1 PUSH2 0xF4B JUMPI PUSH2 0xF4A PUSH2 0x20CB JUMP JUMPDEST JUMPDEST PUSH32 0x30644E72E131A029B85045B68181585D97816A916871CA8D3C208C16D87CFD47 DUP1 PUSH2 0xF7A JUMPI PUSH2 0xF79 PUSH2 0x20CB JUMP JUMPDEST JUMPDEST PUSH32 0x30644E72E131A029B85045B68181585D97816A916871CA8D3C208C16D87CFD47 DUP1 PUSH2 0xFA9 JUMPI PUSH2 0xFA8 PUSH2 0x20CB JUMP JUMPDEST JUMPDEST DUP15 DUP8 MULMOD DUP5 ADDMOD PUSH32 0x2FCD3AC2A640A154EB23960892A85A68F031CA0C8344B23A577DCF1052B9E775 ADDMOD PUSH2 0x1957 JUMP JUMPDEST SWAP4 POP POP POP POP PUSH0 PUSH0 PUSH2 0x1078 PUSH32 0x30644E72E131A029B85045B68181585D97816A916871CA8D3C208C16D87CFD47 DUP1 PUSH2 0x100E JUMPI PUSH2 0x100D PUSH2 0x20CB JUMP JUMPDEST JUMPDEST PUSH32 0x30644E72E131A029B85045B68181585D97816A916871CA8D3C208C16D87CFD47 DUP1 PUSH2 0x103D JUMPI PUSH2 0x103C PUSH2 0x20CB JUMP JUMPDEST JUMPDEST DUP6 DUP7 MULMOD PUSH32 0x30644E72E131A029B85045B68181585D97816A916871CA8D3C208C16D87CFD47 DUP1 PUSH2 0x106F JUMPI PUSH2 0x106E PUSH2 0x20CB JUMP JUMPDEST JUMPDEST DUP8 DUP9 MULMOD ADDMOD PUSH2 0x18BB JUMP JUMPDEST SWAP1 POP PUSH2 0x1105 PUSH32 0x30644E72E131A029B85045B68181585D97816A916871CA8D3C208C16D87CFD47 DUP1 PUSH2 0x10AC JUMPI PUSH2 0x10AB PUSH2 0x20CB JUMP JUMPDEST JUMPDEST PUSH32 0x183227397098D014DC2822DB40C0AC2ECBC0B548B438E5469E10460B6C3E7EA4 PUSH32 0x30644E72E131A029B85045B68181585D97816A916871CA8D3C208C16D87CFD47 DUP1 PUSH2 0x10FC JUMPI PUSH2 0x10FB PUSH2 0x20CB JUMP JUMPDEST JUMPDEST DUP5 DUP9 ADDMOD MULMOD PUSH2 0x19C2 JUMP JUMPDEST ISZERO SWAP2 POP POP PUSH2 0x1114 DUP4 DUP4 DUP4 PUSH2 0x1A2C JUMP JUMPDEST DUP1 SWAP4 POP DUP2 SWAP5 POP POP POP DUP3 DUP8 EQ DUP1 ISZERO PUSH2 0x112A JUMPI POP DUP2 DUP7 EQ JUMPDEST ISZERO PUSH2 0x1152 JUMPI PUSH0 DUP2 PUSH2 0x113B JUMPI PUSH0 PUSH2 0x113E JUMP JUMPDEST PUSH1 0x2 JUMPDEST PUSH1 0xFF AND PUSH1 0x2 DUP12 SWAP1 SHL OR OR SWAP5 POP DUP8 SWAP4 POP PUSH2 0x11CC JUMP JUMPDEST PUSH2 0x115B DUP4 PUSH2 0x1957 JUMP JUMPDEST DUP8 EQ DUP1 ISZERO PUSH2 0x1170 JUMPI POP PUSH2 0x116D DUP3 PUSH2 0x1957 JUMP JUMPDEST DUP7 EQ JUMPDEST ISZERO PUSH2 0x1199 JUMPI PUSH1 0x1 DUP2 PUSH2 0x1182 JUMPI PUSH0 PUSH2 0x1185 JUMP JUMPDEST PUSH1 0x2 JUMPDEST PUSH1 0xFF AND PUSH1 0x2 DUP12 SWAP1 SHL OR OR SWAP5 POP DUP8 SWAP4 POP PUSH2 0x11CB JUMP JUMPDEST PUSH1 0x40 MLOAD PUSH32 0x7FCDD1F400000000000000000000000000000000000000000000000000000000 DUP2 MSTORE PUSH1 0x4 ADD PUSH1 0x40 MLOAD DUP1 SWAP2 SUB SWAP1 REVERT JUMPDEST JUMPDEST POP POP POP JUMPDEST SWAP5 POP SWAP5 SWAP3 POP POP POP JUMP JUMPDEST PUSH0 PUSH0 PUSH0 PUSH1 0x1 SWAP1 POP PUSH1 0x40 MLOAD PUSH1 0x40 DUP2 ADD PUSH0 PUSH32 0x251859CAEFE66B516C5549D3768D1BA94146083CB044026ABEBC99089919248 DUP4 MSTORE PUSH32 0x2C1E789B2DCAFDAA6853D0934C4443D223B8F050CE3466D068F2AB7EFA29BC03 PUSH1 0x20 DUP5 ADD MSTORE PUSH32 0x13A264F6A5D0E3938BEA4E4431D417F2980774DB501085CEAFD0D7E76A7F128B DUP3 MSTORE PUSH32 0x155351B5CCCCB7A37222F2B82FA4A968F33523326364FE52BB87D1EA3F47C697 PUSH1 0x20 DUP4 ADD MSTORE DUP7 CALLDATALOAD SWAP1 POP DUP1 PUSH1 0x40 DUP4 ADD MSTORE PUSH32 0x30644E72E131A029B85045B68181585D2833E84879B9709143E1F593F0000001 DUP2 LT DUP5 AND SWAP4 POP PUSH1 0x40 DUP3 PUSH1 0x60 DUP5 PUSH1 0x7 GAS STATICCALL DUP5 AND SWAP4 POP PUSH1 0x40 DUP4 PUSH1 0x80 DUP6 PUSH1 0x6 GAS STATICCALL DUP5 AND SWAP4 POP PUSH32 0x3777818388F77B4065A87D01E141B5FEC2EE452D1ADA3493892ACA2C4DA5D40 DUP3 MSTORE PUSH32 0xFB2382A8C87C5992EE8385E493FFD96983C8C42C5545A4DAAAB264F482865B5 PUSH1 0x20 DUP4 ADD MSTORE PUSH1 0x20 DUP8 ADD CALLDATALOAD SWAP1 POP DUP1 PUSH1 0x40 DUP4 ADD MSTORE PUSH32 0x30644E72E131A029B85045B68181585D2833E84879B9709143E1F593F0000001 DUP2 LT DUP5 AND SWAP4 POP PUSH1 0x40 DUP3 PUSH1 0x60 DUP5 PUSH1 0x7 GAS STATICCALL DUP5 AND SWAP4 POP PUSH1 0x40 DUP4 PUSH1 0x80 DUP6 PUSH1 0x6 GAS STATICCALL DUP5 AND SWAP4 POP DUP3 MLOAD SWAP6 POP PUSH1 0x20 DUP4 ADD MLOAD SWAP5 POP POP POP POP DUP1 PUSH2 0x13A5 JUMPI PUSH1 0x40 MLOAD PUSH32 0xA54F8E2700000000000000000000000000000000000000000000000000000000 DUP2 MSTORE PUSH1 0x4 ADD PUSH1 0x40 MLOAD DUP1 SWAP2 SUB SWAP1 REVERT JUMPDEST POP SWAP2 POP SWAP2 JUMP JUMPDEST PUSH0 PUSH0 PUSH0 DUP4 SUB PUSH2 0x13BF JUMPI PUSH0 PUSH0 SWAP2 POP SWAP2 POP PUSH2 0x14DB JUMP JUMPDEST PUSH0 PUSH1 0x1 DUP1 DUP6 AND EQ SWAP1 POP PUSH1 0x1 DUP5 SWAP1 SHR SWAP3 POP PUSH32 0x30644E72E131A029B85045B68181585D97816A916871CA8D3C208C16D87CFD47 DUP4 LT PUSH2 0x1428 JUMPI PUSH1 0x40 MLOAD PUSH32 0x7FCDD1F400000000000000000000000000000000000000000000000000000000 DUP2 MSTORE PUSH1 0x4 ADD PUSH1 0x40 MLOAD DUP1 SWAP2 SUB SWAP1 REVERT JUMPDEST PUSH2 0x14C5 PUSH32 0x30644E72E131A029B85045B68181585D97816A916871CA8D3C208C16D87CFD47 DUP1 PUSH2 0x145A JUMPI PUSH2 0x1459 PUSH2 0x20CB JUMP JUMPDEST JUMPDEST PUSH1 0x3 PUSH32 0x30644E72E131A029B85045B68181585D97816A916871CA8D3C208C16D87CFD47 DUP1 PUSH2 0x148B JUMPI PUSH2 0x148A PUSH2 0x20CB JUMP JUMPDEST JUMPDEST DUP7 PUSH32 0x30644E72E131A029B85045B68181585D97816A916871CA8D3C208C16D87CFD47 DUP1 PUSH2 0x14BB JUMPI PUSH2 0x14BA PUSH2 0x20CB JUMP JUMPDEST JUMPDEST DUP9 DUP10 MULMOD MULMOD ADDMOD PUSH2 0x18BB JUMP JUMPDEST SWAP2 POP DUP1 ISZERO PUSH2 0x14D9 JUMPI PUSH2 0x14D6 DUP3 PUSH2 0x1957 JUMP JUMPDEST SWAP2 POP JUMPDEST POP JUMPDEST SWAP2 POP SWAP2 JUMP JUMPDEST PUSH0 PUSH0 PUSH0 PUSH0 PUSH0 DUP7 EQ DUP1 ISZERO PUSH2 0x14F2 JUMPI POP PUSH0 DUP6 EQ JUMPDEST ISZERO PUSH2 0x1508 JUMPI PUSH0 PUSH0 PUSH0 PUSH0 SWAP4 POP SWAP4 POP SWAP4 POP SWAP4 POP PUSH2 0x18B2 JUMP JUMPDEST PUSH0 PUSH1 0x1 DUP1 DUP9 AND EQ SWAP1 POP PUSH0 PUSH1 0x2 DUP1 DUP10 AND EQ SWAP1 POP PUSH1 0x2 DUP9 SWAP1 SHR SWAP6 POP DUP7 SWAP5 POP PUSH32 0x30644E72E131A029B85045B68181585D97816A916871CA8D3C208C16D87CFD47 DUP7 LT ISZERO DUP1 PUSH2 0x1573 JUMPI POP PUSH32 0x30644E72E131A029B85045B68181585D97816A916871CA8D3C208C16D87CFD47 DUP6 LT ISZERO JUMPDEST ISZERO PUSH2 0x15AA JUMPI PUSH1 0x40 MLOAD PUSH32 0x7FCDD1F400000000000000000000000000000000000000000000000000000000 DUP2 MSTORE PUSH1 0x4 ADD PUSH1 0x40 MLOAD DUP1 SWAP2 SUB SWAP1 REVERT JUMPDEST PUSH0 PUSH32 0x30644E72E131A029B85045B68181585D97816A916871CA8D3C208C16D87CFD47 DUP1 PUSH2 0x15DA JUMPI PUSH2 0x15D9 PUSH2 0x20CB JUMP JUMPDEST JUMPDEST PUSH1 0x3 PUSH32 0x30644E72E131A029B85045B68181585D97816A916871CA8D3C208C16D87CFD47 PUSH2 0x1607 SWAP2 SWAP1 PUSH2 0x2125 JUMP JUMPDEST PUSH32 0x30644E72E131A029B85045B68181585D97816A916871CA8D3C208C16D87CFD47 DUP1 PUSH2 0x1636 JUMPI PUSH2 0x1635 PUSH2 0x20CB JUMP JUMPDEST JUMPDEST DUP9 DUP11 MULMOD MULMOD SWAP1 POP PUSH0 PUSH32 0x30644E72E131A029B85045B68181585D97816A916871CA8D3C208C16D87CFD47 DUP1 PUSH2 0x166C JUMPI PUSH2 0x166B PUSH2 0x20CB JUMP JUMPDEST JUMPDEST DUP9 PUSH32 0x30644E72E131A029B85045B68181585D97816A916871CA8D3C208C16D87CFD47 DUP1 PUSH2 0x169C JUMPI PUSH2 0x169B PUSH2 0x20CB JUMP JUMPDEST JUMPDEST DUP11 DUP12 MULMOD MULMOD SWAP1 POP PUSH0 PUSH32 0x30644E72E131A029B85045B68181585D97816A916871CA8D3C208C16D87CFD47 DUP1 PUSH2 0x16D2 JUMPI PUSH2 0x16D1 PUSH2 0x20CB JUMP JUMPDEST JUMPDEST DUP9 PUSH32 0x30644E72E131A029B85045B68181585D97816A916871CA8D3C208C16D87CFD47 DUP1 PUSH2 0x1702 JUMPI PUSH2 0x1701 PUSH2 0x20CB JUMP JUMPDEST JUMPDEST DUP11 DUP12 MULMOD MULMOD SWAP1 POP PUSH32 0x30644E72E131A029B85045B68181585D97816A916871CA8D3C208C16D87CFD47 DUP1 PUSH2 0x1737 JUMPI PUSH2 0x1736 PUSH2 0x20CB JUMP JUMPDEST JUMPDEST PUSH32 0x30644E72E131A029B85045B68181585D97816A916871CA8D3C208C16D87CFD47 DUP1 PUSH2 0x1766 JUMPI PUSH2 0x1765 PUSH2 0x20CB JUMP JUMPDEST JUMPDEST PUSH32 0x30644E72E131A029B85045B68181585D97816A916871CA8D3C208C16D87CFD47 DUP1 PUSH2 0x1795 JUMPI PUSH2 0x1794 PUSH2 0x20CB JUMP JUMPDEST JUMPDEST DUP11 DUP7 MULMOD DUP5 ADDMOD PUSH32 0x2B149D40CEB8AAAE81BE18991BE06AC3B5B4C5E559DBEFA33267E6DC24A138E5 ADDMOD SWAP7 POP PUSH2 0x187A PUSH32 0x30644E72E131A029B85045B68181585D97816A916871CA8D3C208C16D87CFD47 DUP1 PUSH2 0x17F0 JUMPI PUSH2 0x17EF PUSH2 0x20CB JUMP JUMPDEST JUMPDEST PUSH32 0x30644E72E131A029B85045B68181585D97816A916871CA8D3C208C16D87CFD47 DUP1 PUSH2 0x181F JUMPI PUSH2 0x181E PUSH2 0x20CB JUMP JUMPDEST JUMPDEST PUSH32 0x30644E72E131A029B85045B68181585D97816A916871CA8D3C208C16D87CFD47 DUP1 PUSH2 0x184E JUMPI PUSH2 0x184D PUSH2 0x20CB JUMP JUMPDEST JUMPDEST DUP13 DUP8 MULMOD DUP5 ADDMOD PUSH32 0x2FCD3AC2A640A154EB23960892A85A68F031CA0C8344B23A577DCF1052B9E775 ADDMOD PUSH2 0x1957 JUMP JUMPDEST SWAP6 POP PUSH2 0x1887 DUP8 DUP8 DUP7 PUSH2 0x1A2C JUMP JUMPDEST DUP1 SWAP8 POP DUP2 SWAP9 POP POP POP DUP5 ISZERO PUSH2 0x18AC JUMPI PUSH2 0x189E DUP8 PUSH2 0x1957 JUMP JUMPDEST SWAP7 POP PUSH2 0x18A9 DUP7 PUSH2 0x1957 JUMP JUMPDEST SWAP6 POP JUMPDEST POP POP POP POP POP JUMPDEST SWAP3 SWAP6 SWAP2 SWAP5 POP SWAP3 POP JUMP JUMPDEST PUSH0 PUSH2 0x18E6 DUP3 PUSH32 0xC19139CB84C680A6E14116DA060561765E05AA45A1C72A34F082305B61F3F52 PUSH2 0x1D27 JUMP JUMPDEST SWAP1 POP DUP2 PUSH32 0x30644E72E131A029B85045B68181585D97816A916871CA8D3C208C16D87CFD47 DUP1 PUSH2 0x1918 JUMPI PUSH2 0x1917 PUSH2 0x20CB JUMP JUMPDEST JUMPDEST DUP3 DUP4 MULMOD EQ PUSH2 0x1952 JUMPI PUSH1 0x40 MLOAD PUSH32 0x7FCDD1F400000000000000000000000000000000000000000000000000000000 DUP2 MSTORE PUSH1 0x4 ADD PUSH1 0x40 MLOAD DUP1 SWAP2 SUB SWAP1 REVERT JUMPDEST SWAP2 SWAP1 POP JUMP JUMPDEST PUSH0 PUSH32 0x30644E72E131A029B85045B68181585D97816A916871CA8D3C208C16D87CFD47 DUP1 DUP4 DUP2 PUSH2 0x1989 JUMPI PUSH2 0x1988 PUSH2 0x20CB JUMP JUMPDEST JUMPDEST MOD PUSH32 0x30644E72E131A029B85045B68181585D97816A916871CA8D3C208C16D87CFD47 SUB DUP2 PUSH2 0x19BA JUMPI PUSH2 0x19B9 PUSH2 0x20CB JUMP JUMPDEST JUMPDEST MOD SWAP1 POP SWAP2 SWAP1 POP JUMP JUMPDEST PUSH0 PUSH0 PUSH2 0x19EE DUP4 PUSH32 0xC19139CB84C680A6E14116DA060561765E05AA45A1C72A34F082305B61F3F52 PUSH2 0x1D27 JUMP JUMPDEST SWAP1 POP DUP3 PUSH32 0x30644E72E131A029B85045B68181585D97816A916871CA8D3C208C16D87CFD47 DUP1 PUSH2 0x1A20 JUMPI PUSH2 0x1A1F PUSH2 0x20CB JUMP JUMPDEST JUMPDEST DUP3 DUP4 MULMOD EQ SWAP2 POP POP SWAP2 SWAP1 POP JUMP JUMPDEST PUSH0 PUSH0 PUSH0 PUSH2 0x1ACB PUSH32 0x30644E72E131A029B85045B68181585D97816A916871CA8D3C208C16D87CFD47 DUP1 PUSH2 0x1A61 JUMPI PUSH2 0x1A60 PUSH2 0x20CB JUMP JUMPDEST JUMPDEST PUSH32 0x30644E72E131A029B85045B68181585D97816A916871CA8D3C208C16D87CFD47 DUP1 PUSH2 0x1A90 JUMPI PUSH2 0x1A8F PUSH2 0x20CB JUMP JUMPDEST JUMPDEST DUP8 DUP9 MULMOD PUSH32 0x30644E72E131A029B85045B68181585D97816A916871CA8D3C208C16D87CFD47 DUP1 PUSH2 0x1AC2 JUMPI PUSH2 0x1AC1 PUSH2 0x20CB JUMP JUMPDEST JUMPDEST DUP10 DUP11 MULMOD ADDMOD PUSH2 0x18BB JUMP JUMPDEST SWAP1 POP DUP4 ISZERO PUSH2 0x1ADF JUMPI PUSH2 0x1ADC DUP2 PUSH2 0x1957 JUMP JUMPDEST SWAP1 POP JUMPDEST PUSH2 0x1B6A PUSH32 0x30644E72E131A029B85045B68181585D97816A916871CA8D3C208C16D87CFD47 DUP1 PUSH2 0x1B11 JUMPI PUSH2 0x1B10 PUSH2 0x20CB JUMP JUMPDEST JUMPDEST PUSH32 0x183227397098D014DC2822DB40C0AC2ECBC0B548B438E5469E10460B6C3E7EA4 PUSH32 0x30644E72E131A029B85045B68181585D97816A916871CA8D3C208C16D87CFD47 DUP1 PUSH2 0x1B61 JUMPI PUSH2 0x1B60 PUSH2 0x20CB JUMP JUMPDEST JUMPDEST DUP5 DUP11 ADDMOD MULMOD PUSH2 0x18BB JUMP JUMPDEST SWAP3 POP PUSH32 0x30644E72E131A029B85045B68181585D97816A916871CA8D3C208C16D87CFD47 DUP1 PUSH2 0x1B9B JUMPI PUSH2 0x1B9A PUSH2 0x20CB JUMP JUMPDEST JUMPDEST PUSH2 0x1BD6 PUSH32 0x30644E72E131A029B85045B68181585D97816A916871CA8D3C208C16D87CFD47 DUP1 PUSH2 0x1BCD JUMPI PUSH2 0x1BCC PUSH2 0x20CB JUMP JUMPDEST JUMPDEST PUSH1 0x2 DUP7 MULMOD PUSH2 0x1DBE JUMP JUMPDEST DUP7 MULMOD SWAP2 POP PUSH32 0x30644E72E131A029B85045B68181585D97816A916871CA8D3C208C16D87CFD47 DUP1 PUSH2 0x1C09 JUMPI PUSH2 0x1C08 PUSH2 0x20CB JUMP JUMPDEST JUMPDEST PUSH2 0x1C43 PUSH32 0x30644E72E131A029B85045B68181585D97816A916871CA8D3C208C16D87CFD47 DUP1 PUSH2 0x1C3B JUMPI PUSH2 0x1C3A PUSH2 0x20CB JUMP JUMPDEST JUMPDEST DUP5 DUP6 MULMOD PUSH2 0x1957 JUMP JUMPDEST PUSH32 0x30644E72E131A029B85045B68181585D97816A916871CA8D3C208C16D87CFD47 DUP1 PUSH2 0x1C72 JUMPI PUSH2 0x1C71 PUSH2 0x20CB JUMP JUMPDEST JUMPDEST DUP6 DUP7 MULMOD ADDMOD DUP7 EQ ISZERO DUP1 PUSH2 0x1CE7 JUMPI POP PUSH32 0x30644E72E131A029B85045B68181585D97816A916871CA8D3C208C16D87CFD47 DUP1 PUSH2 0x1CAE JUMPI PUSH2 0x1CAD PUSH2 0x20CB JUMP JUMPDEST JUMPDEST PUSH32 0x30644E72E131A029B85045B68181585D97816A916871CA8D3C208C16D87CFD47 DUP1 PUSH2 0x1CDD JUMPI PUSH2 0x1CDC PUSH2 0x20CB JUMP JUMPDEST JUMPDEST DUP4 DUP6 MULMOD PUSH1 0x2 MULMOD DUP6 EQ ISZERO JUMPDEST ISZERO PUSH2 0x1D1E JUMPI PUSH1 0x40 MLOAD PUSH32 0x7FCDD1F400000000000000000000000000000000000000000000000000000000 DUP2 MSTORE PUSH1 0x4 ADD PUSH1 0x40 MLOAD DUP1 SWAP2 SUB SWAP1 REVERT JUMPDEST POP SWAP4 POP SWAP4 SWAP2 POP POP JUMP JUMPDEST PUSH0 PUSH0 PUSH1 0x40 MLOAD PUSH1 0x20 DUP2 MSTORE PUSH1 0x20 DUP1 DUP3 ADD MSTORE PUSH1 0x20 PUSH1 0x40 DUP3 ADD MSTORE DUP5 PUSH1 0x60 DUP3 ADD MSTORE DUP4 PUSH1 0x80 DUP3 ADD MSTORE PUSH32 0x30644E72E131A029B85045B68181585D97816A916871CA8D3C208C16D87CFD47 PUSH1 0xA0 DUP3 ADD MSTORE PUSH1 0x20 DUP2 PUSH1 0xC0 DUP4 PUSH1 0x5 GAS STATICCALL SWAP2 POP DUP1 MLOAD SWAP3 POP POP DUP1 PUSH2 0x1DB7 JUMPI PUSH1 0x40 MLOAD PUSH32 0x7FCDD1F400000000000000000000000000000000000000000000000000000000 DUP2 MSTORE PUSH1 0x4 ADD PUSH1 0x40 MLOAD DUP1 SWAP2 SUB SWAP1 REVERT JUMPDEST POP SWAP3 SWAP2 POP POP JUMP JUMPDEST PUSH0 PUSH2 0x1DE9 DUP3 PUSH32 0x30644E72E131A029B85045B68181585D97816A916871CA8D3C208C16D87CFD45 PUSH2 0x1D27 JUMP JUMPDEST SWAP1 POP PUSH1 0x1 PUSH32 0x30644E72E131A029B85045B68181585D97816A916871CA8D3C208C16D87CFD47 DUP1 PUSH2 0x1E1C JUMPI PUSH2 0x1E1B PUSH2 0x20CB JUMP JUMPDEST JUMPDEST DUP3 DUP5 MULMOD EQ PUSH2 0x1E56 JUMPI PUSH1 0x40 MLOAD PUSH32 0x7FCDD1F400000000000000000000000000000000000000000000000000000000 DUP2 MSTORE PUSH1 0x4 ADD PUSH1 0x40 MLOAD DUP1 SWAP2 SUB SWAP1 REVERT JUMPDEST SWAP2 SWAP1 POP JUMP JUMPDEST PUSH1 0x40 MLOAD DUP1 PUSH1 0x80 ADD PUSH1 0x40 MSTORE DUP1 PUSH1 0x4 SWAP1 PUSH1 0x20 DUP3 MUL DUP1 CALLDATASIZE DUP4 CALLDATACOPY DUP1 DUP3 ADD SWAP2 POP POP SWAP1 POP POP SWAP1 JUMP JUMPDEST PUSH1 0x40 MLOAD DUP1 PUSH2 0x300 ADD PUSH1 0x40 MSTORE DUP1 PUSH1 0x18 SWAP1 PUSH1 0x20 DUP3 MUL DUP1 CALLDATASIZE DUP4 CALLDATACOPY DUP1 DUP3 ADD SWAP2 POP POP SWAP1 POP POP SWAP1 JUMP JUMPDEST PUSH1 0x40 MLOAD DUP1 PUSH1 0x20 ADD PUSH1 0x40 MSTORE DUP1 PUSH1 0x1 SWAP1 PUSH1 0x20 DUP3 MUL DUP1 CALLDATASIZE DUP4 CALLDATACOPY DUP1 DUP3 ADD SWAP2 POP POP SWAP1 POP POP SWAP1 JUMP JUMPDEST PUSH0 PUSH0 REVERT JUMPDEST PUSH0 PUSH0 REVERT JUMPDEST PUSH0 DUP2 SWAP1 POP DUP3 PUSH1 0x20 PUSH1 0x8 MUL DUP3 ADD GT ISZERO PUSH2 0x1EE5 JUMPI PUSH2 0x1EE4 PUSH2 0x1EC6 JUMP JUMPDEST JUMPDEST SWAP3 SWAP2 POP POP JUMP JUMPDEST PUSH0 PUSH2 0x100 DUP3 DUP5 SUB SLT ISZERO PUSH2 0x1F01 JUMPI PUSH2 0x1F00 PUSH2 0x1EC2 JUMP JUMPDEST JUMPDEST PUSH0 PUSH2 0x1F0E DUP5 DUP3 DUP6 ADD PUSH2 0x1ECA JUMP JUMPDEST SWAP2 POP POP SWAP3 SWAP2 POP POP JUMP JUMPDEST PUSH0 PUSH1 0x4 SWAP1 POP SWAP2 SWAP1 POP JUMP JUMPDEST PUSH0 DUP2 SWAP1 POP SWAP3 SWAP2 POP POP JUMP JUMPDEST PUSH0 DUP2 SWAP1 POP SWAP2 SWAP1 POP JUMP JUMPDEST PUSH0 DUP2 SWAP1 POP SWAP2 SWAP1 POP JUMP JUMPDEST PUSH2 0x1F46 DUP2 PUSH2 0x1F34 JUMP JUMPDEST DUP3 MSTORE POP POP JUMP JUMPDEST PUSH0 PUSH2 0x1F57 DUP4 DUP4 PUSH2 0x1F3D JUMP JUMPDEST PUSH1 0x20 DUP4 ADD SWAP1 POP SWAP3 SWAP2 POP POP JUMP JUMPDEST PUSH0 PUSH1 0x20 DUP3 ADD SWAP1 POP SWAP2 SWAP1 POP JUMP JUMPDEST PUSH2 0x1F78 DUP2 PUSH2 0x1F17 JUMP JUMPDEST PUSH2 0x1F82 DUP2 DUP5 PUSH2 0x1F21 JUMP JUMPDEST SWAP3 POP PUSH2 0x1F8D DUP3 PUSH2 0x1F2B JUMP JUMPDEST DUP1 PUSH0 JUMPDEST DUP4 DUP2 LT ISZERO PUSH2 0x1FBD JUMPI DUP2 MLOAD PUSH2 0x1FA4 DUP8 DUP3 PUSH2 0x1F4C JUMP JUMPDEST SWAP7 POP PUSH2 0x1FAF DUP4 PUSH2 0x1F63 JUMP JUMPDEST SWAP3 POP POP PUSH1 0x1 DUP2 ADD SWAP1 POP PUSH2 0x1F90 JUMP JUMPDEST POP POP POP POP POP POP JUMP JUMPDEST PUSH0 PUSH1 0x80 DUP3 ADD SWAP1 POP PUSH2 0x1FD8 PUSH0 DUP4 ADD DUP5 PUSH2 0x1F6F JUMP JUMPDEST SWAP3 SWAP2 POP POP JUMP JUMPDEST PUSH0 DUP2 SWAP1 POP DUP3 PUSH1 0x20 PUSH1 0x2 MUL DUP3 ADD GT ISZERO PUSH2 0x1FF9 JUMPI PUSH2 0x1FF8 PUSH2 0x1EC6 JUMP JUMPDEST JUMPDEST SWAP3 SWAP2 POP POP JUMP JUMPDEST PUSH0 PUSH0 PUSH2 0x140 DUP4 DUP6 SUB SLT ISZERO PUSH2 0x2016 JUMPI PUSH2 0x2015 PUSH2 0x1EC2 JUMP JUMPDEST JUMPDEST PUSH0 PUSH2 0x2023 DUP6 DUP3 DUP7 ADD PUSH2 0x1ECA JUMP JUMPDEST SWAP3 POP POP PUSH2 0x100 PUSH2 0x2035 DUP6 DUP3 DUP7 ADD PUSH2 0x1FDE JUMP JUMPDEST SWAP2 POP POP SWAP3 POP SWAP3 SWAP1 POP JUMP JUMPDEST PUSH0 DUP2 SWAP1 POP DUP3 PUSH1 0x20 PUSH1 0x4 MUL DUP3 ADD GT ISZERO PUSH2 0x205A JUMPI PUSH2 0x2059 PUSH2 0x1EC6 JUMP JUMPDEST JUMPDEST SWAP3 SWAP2 POP POP JUMP JUMPDEST PUSH0 PUSH0 PUSH1 0xC0 DUP4 DUP6 SUB SLT ISZERO PUSH2 0x2076 JUMPI PUSH2 0x2075 PUSH2 0x1EC2 JUMP JUMPDEST JUMPDEST PUSH0 PUSH2 0x2083 DUP6 DUP3 DUP7 ADD PUSH2 0x203F JUMP JUMPDEST SWAP3 POP POP PUSH1 0x80 PUSH2 0x2094 DUP6 DUP3 DUP7 ADD PUSH2 0x1FDE JUMP JUMPDEST SWAP2 POP POP SWAP3 POP SWAP3 SWAP1 POP JUMP JUMPDEST PUSH32 0x4E487B7100000000000000000000000000000000000000000000000000000000 PUSH0 MSTORE PUSH1 0x32 PUSH1 0x4 MSTORE PUSH1 0x24 PUSH0 REVERT JUMPDEST PUSH32 0x4E487B7100000000000000000000000000000000000000000000000000000000 PUSH0 MSTORE PUSH1 0x12 PUSH1 0x4 MSTORE PUSH1 0x24 PUSH0 REVERT JUMPDEST PUSH32 0x4E487B7100000000000000000000000000000000000000000000000000000000 PUSH0 MSTORE PUSH1 0x11 PUSH1 0x4 MSTORE PUSH1 0x24 PUSH0 REVERT JUMPDEST PUSH0 PUSH2 0x212F DUP3 PUSH2 0x1F34 JUMP JUMPDEST SWAP2 POP PUSH2 0x213A DUP4 PUSH2 0x1F34 JUMP JUMPDEST SWAP3 POP DUP3 DUP3 SUB SWAP1 POP DUP2 DUP2 GT ISZERO PUSH2 0x2152 JUMPI PUSH2 0x2151 PUSH2 0x20F8 JUMP JUMPDEST JUMPDEST SWAP3 SWAP2 POP POP JUMP INVALID LOG2 PUSH5 0x6970667358 0x22 SLT KECCAK256 ISZERO EXTSTATICCALL 0xEF DUP10 SAR SGT 0xE 0x2A DUP9 0xB6 EXTSTATICCALL 0x4B EXP 0xA8 0xB0 EOFCREATE 0x8C EXTSTATICCALL 0xC9 SIGNEXTEND 0xE8 MSIZE 0xC3 0xB7 0xB6 0xAF 0xB6 SWAP1 SWAP14 PUSH16 0x80C164736F6C634300081E0033000000 "
				},
				"gasEstimates": {
					"creation": {
						"codeDepositCost": "1718000",
						"executionCost": "1804",
						"totalCost": "1719804"
					},
					"external": {
						"Verify(uint256[8],uint256[2])": "infinite",
						"compressProof(uint256[8])": "infinite",
						"verifyCompressedProof(uint256[4],uint256[2])": "infinite"
					},
					"internal": {
						"compress_g1(uint256,uint256)": "infinite",
						"compress_g2(uint256,uint256,uint256,uint256)": "infinite",
						"decompress_g1(uint256)": "infinite",
						"decompress_g2(uint256,uint256)": "infinite",
						"exp(uint256,uint256)": "infinite",
						"invert_Fp(uint256)": "infinite",
						"isSquare_Fp(uint256)": "infinite",
						"negate(uint256)": "83",
						"publicInputMSM(uint256[2] calldata)": "infinite",
						"sqrt_Fp(uint256)": "infinite",
						"sqrt_Fp2(uint256,uint256,bool)": "infinite"
					}
				},
				"methodIdentifiers": {
					"Verify(uint256[8],uint256[2])": "eddf243c",
					"compressProof(uint256[8])": "44f63692",
					"verifyCompressedProof(uint256[4],uint256[2])": "f11817b2"
				}
			},
			"storageLayout": {
				"storage": [],
				"types": null
			},
			"userdoc": {
				"errors": {
					"ProofInvalid()": [
						{
							"notice": "The proof is invalid."
						}
					],
					"PublicInputNotInField()": [
						{
							"notice": "Some of the provided public input values are larger than the field modulus."
						}
					]
				},
				"kind": "user",
				"methods": {
					"Verify(uint256[8],uint256[2])": {
						"notice": "Verify an uncompressed Groth16 proof.Reverts with InvalidProof if the proof is invalid or with PublicInputNotInField the public input is not reduced.There is no return value. If the function does not revert, the proof was successfully verified."
					},
					"compressProof(uint256[8])": {
						"notice": "Compress a proof.Will revert with InvalidProof if the curve points are invalid, but does not verify the proof itself."
					},
					"verifyCompressedProof(uint256[4],uint256[2])": {
						"notice": "Verify a Groth16 proof with compressed points.Reverts with InvalidProof if the proof is invalid or with PublicInputNotInField the public input is not reduced.There is no return value. If the function does not revert, the proof was successfully verified."
					}
				},
				"notice": "Supports verifying Groth16 proofs. Proofs can be in uncompressed (256 bytes) and compressed (128 bytes) format. A view function is provided to compress proofs.See <https://2π.com/23/bn254-compression> for further explanation.",
				"version": 1
			}
		}
	}
}