{
	"contracts/src/SignatureVerifier.sol": {
		"SignatureVerifier": {
			"abi": [
				{
					"inputs": [
						{
							"internalType": "address",
							"name": "_verifier",
							"type": "address"
						},
						{
							"internalType": "bytes32",
							"name": "_vkey",
							"type": "bytes32"
						}
					],
					"stateMutability": "nonpayable",
					"type": "constructor"
				},
				{
					"inputs": [
						{
							"internalType": "bytes",
							"name": "publicValues",
							"type": "bytes"
						}
					],
					"name": "decodePublicValues",
					"outputs": [
						{
							"components": [
								{
									"internalType": "bytes",
									"name": "pub_key",
									"type": "bytes"
								},
								{
									"internalType": "bytes",
									"name": "message",
									"type": "bytes"
								},
								{
									"internalType": "bytes",
									"name": "signature",
									"type": "bytes"
								}
							],
							"internalType": "struct SignatureVerifier.PublicValues",
							"name": "",
							"type": "tuple"
						}
					],
					"stateMutability": "pure",
					"type": "function"
				},
				{
					"inputs": [],
					"name": "verifier",
					"outputs": [
						{
							"internalType": "address",
							"name": "",
							"type": "address"
						}
					],
					"stateMutability": "view",
					"type": "function"
				},
				{
					"inputs": [
						{
							"internalType": "bytes",
							"name": "pubKey",
							"type": "bytes"
						},
						{
							"internalType": "bytes",
							"name": "message",
							"type": "bytes"
						},
						{
							"internalType": "bytes",
							"name": "signature",
							"type": "bytes"
						},
						{
							"internalType": "bytes",
							"name": "publicValues",
							"type": "bytes"
						},
						{
							"internalType": "bytes",
							"name": "proofBytes",
							"type": "bytes"
						}
					],
					"name": "verifySignature",
					"outputs": [],
					"stateMutability": "view",
					"type": "function"
				},
				{
					"inputs": [],
					"name": "vkey",
					"outputs": [
						{
							"internalType": "bytes32",
							"name": "",
							"type": "bytes32"
						}
					],
					"stateMutability": "view",
					"type": "function"
				}
			],
			"devdoc": {
				"kind": "dev",
				"methods": {
					"decodePublicValues(bytes)": {
						"params": {
							"publicValues": "The ABI-encoded public values."
						}
					},
					"verifySignature(bytes,bytes,bytes,bytes,bytes)": {
						"params": {
							"message": "The expected message.",
							"proofBytes": "The proof bytes.",
							"pubKey": "The expected public key.",
							"publicValues": "The encoded public values.",
							"signature": "The expected signature."
						}
					}
				},
				"title": "SignatureVerifier",
				"version": 1
			},
			"evm": {
				"assembly": "    /* \"contracts/src/SignatureVerifier.sol\":307:2440  contract SignatureVerifier {... */\n  mstore(0x40, 0x80)\n    /* \"contracts/src/SignatureVerifier.sol\":695:803  constructor(address _verifier, bytes32 _vkey) {... */\n  callvalue\n  dup1\n  iszero\n  tag_1\n  jumpi\n  revert(0x00, 0x00)\ntag_1:\n  pop\n  mload(0x40)\n  sub(codesize, bytecodeSize)\n  dup1\n  bytecodeSize\n  dup4\n  codecopy\n  dup2\n  dup2\n  add\n  0x40\n  mstore\n  dup2\n  add\n  swap1\n  tag_2\n  swap2\n  swap1\n  tag_3\n  jump\t// in\ntag_2:\n    /* \"contracts/src/SignatureVerifier.sol\":763:772  _verifier */\n  dup2\n    /* \"contracts/src/SignatureVerifier.sol\":752:760  verifier */\n  0x00\n  0x00\n    /* \"contracts/src/SignatureVerifier.sol\":752:772  verifier = _verifier */\n  0x0100\n  exp\n  dup2\n  sload\n  dup2\n  0xffffffffffffffffffffffffffffffffffffffff\n  mul\n  not\n  and\n  swap1\n  dup4\n  0xffffffffffffffffffffffffffffffffffffffff\n  and\n  mul\n  or\n  swap1\n  sstore\n  pop\n    /* \"contracts/src/SignatureVerifier.sol\":790:795  _vkey */\n  dup1\n    /* \"contracts/src/SignatureVerifier.sol\":783:787  vkey */\n  0x01\n    /* \"contracts/src/SignatureVerifier.sol\":783:795  vkey = _vkey */\n  dup2\n  swap1\n  sstore\n  pop\n    /* \"contracts/src/SignatureVerifier.sol\":695:803  constructor(address _verifier, bytes32 _vkey) {... */\n  pop\n  pop\n    /* \"contracts/src/SignatureVerifier.sol\":307:2440  contract SignatureVerifier {... */\n  jump(tag_6)\n    /* \"#utility.yul\":88:205   */\ntag_8:\n    /* \"#utility.yul\":197:198   */\n  0x00\n    /* \"#utility.yul\":194:195   */\n  0x00\n    /* \"#utility.yul\":187:199   */\n  revert\n    /* \"#utility.yul\":334:460   */\ntag_10:\n    /* \"#utility.yul\":371:378   */\n  0x00\n    /* \"#utility.yul\":411:453   */\n  0xffffffffffffffffffffffffffffffffffffffff\n    /* \"#utility.yul\":404:409   */\n  dup3\n    /* \"#utility.yul\":400:454   */\n  and\n    /* \"#utility.yul\":389:454   */\n  swap1\n  pop\n    /* \"#utility.yul\":334:460   */\n  swap2\n  swap1\n  pop\n  jump\t// out\n    /* \"#utility.yul\":466:562   */\ntag_11:\n    /* \"#utility.yul\":503:510   */\n  0x00\n    /* \"#utility.yul\":532:556   */\n  tag_23\n    /* \"#utility.yul\":550:555   */\n  dup3\n    /* \"#utility.yul\":532:556   */\n  tag_10\n  jump\t// in\ntag_23:\n    /* \"#utility.yul\":521:556   */\n  swap1\n  pop\n    /* \"#utility.yul\":466:562   */\n  swap2\n  swap1\n  pop\n  jump\t// out\n    /* \"#utility.yul\":568:690   */\ntag_12:\n    /* \"#utility.yul\":641:665   */\n  tag_25\n    /* \"#utility.yul\":659:664   */\n  dup2\n    /* \"#utility.yul\":641:665   */\n  tag_11\n  jump\t// in\ntag_25:\n    /* \"#utility.yul\":634:639   */\n  dup2\n    /* \"#utility.yul\":631:666   */\n  eq\n    /* \"#utility.yul\":621:684   */\n  tag_26\n  jumpi\n    /* \"#utility.yul\":680:681   */\n  0x00\n    /* \"#utility.yul\":677:678   */\n  0x00\n    /* \"#utility.yul\":670:682   */\n  revert\n    /* \"#utility.yul\":621:684   */\ntag_26:\n    /* \"#utility.yul\":568:690   */\n  pop\n  jump\t// out\n    /* \"#utility.yul\":696:839   */\ntag_13:\n    /* \"#utility.yul\":753:758   */\n  0x00\n    /* \"#utility.yul\":784:790   */\n  dup2\n    /* \"#utility.yul\":778:791   */\n  mload\n    /* \"#utility.yul\":769:791   */\n  swap1\n  pop\n    /* \"#utility.yul\":800:833   */\n  tag_28\n    /* \"#utility.yul\":827:832   */\n  dup2\n    /* \"#utility.yul\":800:833   */\n  tag_12\n  jump\t// in\ntag_28:\n    /* \"#utility.yul\":696:839   */\n  swap3\n  swap2\n  pop\n  pop\n  jump\t// out\n    /* \"#utility.yul\":845:922   */\ntag_14:\n    /* \"#utility.yul\":882:889   */\n  0x00\n    /* \"#utility.yul\":911:916   */\n  dup2\n    /* \"#utility.yul\":900:916   */\n  swap1\n  pop\n    /* \"#utility.yul\":845:922   */\n  swap2\n  swap1\n  pop\n  jump\t// out\n    /* \"#utility.yul\":928:1050   */\ntag_15:\n    /* \"#utility.yul\":1001:1025   */\n  tag_31\n    /* \"#utility.yul\":1019:1024   */\n  dup2\n    /* \"#utility.yul\":1001:1025   */\n  tag_14\n  jump\t// in\ntag_31:\n    /* \"#utility.yul\":994:999   */\n  dup2\n    /* \"#utility.yul\":991:1026   */\n  eq\n    /* \"#utility.yul\":981:1044   */\n  tag_32\n  jumpi\n    /* \"#utility.yul\":1040:1041   */\n  0x00\n    /* \"#utility.yul\":1037:1038   */\n  0x00\n    /* \"#utility.yul\":1030:1042   */\n  revert\n    /* \"#utility.yul\":981:1044   */\ntag_32:\n    /* \"#utility.yul\":928:1050   */\n  pop\n  jump\t// out\n    /* \"#utility.yul\":1056:1199   */\ntag_16:\n    /* \"#utility.yul\":1113:1118   */\n  0x00\n    /* \"#utility.yul\":1144:1150   */\n  dup2\n    /* \"#utility.yul\":1138:1151   */\n  mload\n    /* \"#utility.yul\":1129:1151   */\n  swap1\n  pop\n    /* \"#utility.yul\":1160:1193   */\n  tag_34\n    /* \"#utility.yul\":1187:1192   */\n  dup2\n    /* \"#utility.yul\":1160:1193   */\n  tag_15\n  jump\t// in\ntag_34:\n    /* \"#utility.yul\":1056:1199   */\n  swap3\n  swap2\n  pop\n  pop\n  jump\t// out\n    /* \"#utility.yul\":1205:1712   */\ntag_3:\n    /* \"#utility.yul\":1284:1290   */\n  0x00\n    /* \"#utility.yul\":1292:1298   */\n  0x00\n    /* \"#utility.yul\":1341:1343   */\n  0x40\n    /* \"#utility.yul\":1329:1338   */\n  dup4\n    /* \"#utility.yul\":1320:1327   */\n  dup6\n    /* \"#utility.yul\":1316:1339   */\n  sub\n    /* \"#utility.yul\":1312:1344   */\n  slt\n    /* \"#utility.yul\":1309:1428   */\n  iszero\n  tag_36\n  jumpi\n    /* \"#utility.yul\":1347:1426   */\n  tag_37\n  tag_8\n  jump\t// in\ntag_37:\n    /* \"#utility.yul\":1309:1428   */\ntag_36:\n    /* \"#utility.yul\":1467:1468   */\n  0x00\n    /* \"#utility.yul\":1492:1556   */\n  tag_38\n    /* \"#utility.yul\":1548:1555   */\n  dup6\n    /* \"#utility.yul\":1539:1545   */\n  dup3\n    /* \"#utility.yul\":1528:1537   */\n  dup7\n    /* \"#utility.yul\":1524:1546   */\n  add\n    /* \"#utility.yul\":1492:1556   */\n  tag_13\n  jump\t// in\ntag_38:\n    /* \"#utility.yul\":1482:1556   */\n  swap3\n  pop\n    /* \"#utility.yul\":1438:1566   */\n  pop\n    /* \"#utility.yul\":1605:1607   */\n  0x20\n    /* \"#utility.yul\":1631:1695   */\n  tag_39\n    /* \"#utility.yul\":1687:1694   */\n  dup6\n    /* \"#utility.yul\":1678:1684   */\n  dup3\n    /* \"#utility.yul\":1667:1676   */\n  dup7\n    /* \"#utility.yul\":1663:1685   */\n  add\n    /* \"#utility.yul\":1631:1695   */\n  tag_16\n  jump\t// in\ntag_39:\n    /* \"#utility.yul\":1621:1695   */\n  swap2\n  pop\n    /* \"#utility.yul\":1576:1705   */\n  pop\n    /* \"#utility.yul\":1205:1712   */\n  swap3\n  pop\n  swap3\n  swap1\n  pop\n  jump\t// out\n    /* \"contracts/src/SignatureVerifier.sol\":307:2440  contract SignatureVerifier {... */\ntag_6:\n  dataSize(sub_0)\n  dup1\n  dataOffset(sub_0)\n  0x00\n  codecopy\n  0x00\n  return\nstop\n\nsub_0: assembly {\n        /* \"contracts/src/SignatureVerifier.sol\":307:2440  contract SignatureVerifier {... */\n      mstore(0x40, 0x80)\n      callvalue\n      dup1\n      iszero\n      tag_1\n      jumpi\n      revert(0x00, 0x00)\n    tag_1:\n      pop\n      jumpi(tag_2, lt(calldatasize, 0x04))\n      shr(0xe0, calldataload(0x00))\n      dup1\n      0x2a5ceeff\n      eq\n      tag_3\n      jumpi\n      dup1\n      0x2b7ac3f3\n      eq\n      tag_4\n      jumpi\n      dup1\n      0x97eda4a0\n      eq\n      tag_5\n      jumpi\n      dup1\n      0xc69b0eb1\n      eq\n      tag_6\n      jumpi\n    tag_2:\n      revert(0x00, 0x00)\n        /* \"contracts/src/SignatureVerifier.sol\":2256:2437  function decodePublicValues(... */\n    tag_3:\n      tag_7\n      0x04\n      dup1\n      calldatasize\n      sub\n      dup2\n      add\n      swap1\n      tag_8\n      swap2\n      swap1\n      tag_9\n      jump\t// in\n    tag_8:\n      tag_10\n      jump\t// in\n    tag_7:\n      mload(0x40)\n      tag_11\n      swap2\n      swap1\n      tag_12\n      jump\t// in\n    tag_11:\n      mload(0x40)\n      dup1\n      swap2\n      sub\n      swap1\n      return\n        /* \"contracts/src/SignatureVerifier.sol\":400:423  address public verifier */\n    tag_4:\n      tag_13\n      tag_14\n      jump\t// in\n    tag_13:\n      mload(0x40)\n      tag_15\n      swap2\n      swap1\n      tag_16\n      jump\t// in\n    tag_15:\n      mload(0x40)\n      dup1\n      swap2\n      sub\n      swap1\n      return\n        /* \"contracts/src/SignatureVerifier.sol\":1110:2144  function verifySignature(... */\n    tag_5:\n      tag_17\n      0x04\n      dup1\n      calldatasize\n      sub\n      dup2\n      add\n      swap1\n      tag_18\n      swap2\n      swap1\n      tag_19\n      jump\t// in\n    tag_18:\n      tag_20\n      jump\t// in\n    tag_17:\n      stop\n        /* \"contracts/src/SignatureVerifier.sol\":497:516  bytes32 public vkey */\n    tag_6:\n      tag_21\n      tag_22\n      jump\t// in\n    tag_21:\n      mload(0x40)\n      tag_23\n      swap2\n      swap1\n      tag_24\n      jump\t// in\n    tag_23:\n      mload(0x40)\n      dup1\n      swap2\n      sub\n      swap1\n      return\n        /* \"contracts/src/SignatureVerifier.sol\":2256:2437  function decodePublicValues(... */\n    tag_10:\n        /* \"contracts/src/SignatureVerifier.sol\":2350:2369  PublicValues memory */\n      tag_25\n      tag_26\n      jump\t// in\n    tag_25:\n        /* \"contracts/src/SignatureVerifier.sol\":2400:2412  publicValues */\n      dup3\n      dup3\n        /* \"contracts/src/SignatureVerifier.sol\":2389:2429  abi.decode(publicValues, (PublicValues)) */\n      dup2\n      add\n      swap1\n      tag_28\n      swap2\n      swap1\n      tag_29\n      jump\t// in\n    tag_28:\n        /* \"contracts/src/SignatureVerifier.sol\":2382:2429  return abi.decode(publicValues, (PublicValues)) */\n      swap1\n      pop\n        /* \"contracts/src/SignatureVerifier.sol\":2256:2437  function decodePublicValues(... */\n      swap3\n      swap2\n      pop\n      pop\n      jump\t// out\n        /* \"contracts/src/SignatureVerifier.sol\":400:423  address public verifier */\n    tag_14:\n      0x00\n      0x00\n      swap1\n      sload\n      swap1\n      0x0100\n      exp\n      swap1\n      div\n      0xffffffffffffffffffffffffffffffffffffffff\n      and\n      dup2\n      jump\t// out\n        /* \"contracts/src/SignatureVerifier.sol\":1110:2144  function verifySignature(... */\n    tag_20:\n        /* \"contracts/src/SignatureVerifier.sol\":1724:1757  bytes memory expectedPublicValues */\n      0x00\n        /* \"contracts/src/SignatureVerifier.sol\":1785:1825  PublicValues(pubKey, message, signature) */\n      mload(0x40)\n      dup1\n      0x60\n      add\n      0x40\n      mstore\n      dup1\n        /* \"contracts/src/SignatureVerifier.sol\":1798:1804  pubKey */\n      dup13\n      dup13\n        /* \"contracts/src/SignatureVerifier.sol\":1785:1825  PublicValues(pubKey, message, signature) */\n      dup1\n      dup1\n      0x1f\n      add\n      0x20\n      dup1\n      swap2\n      div\n      mul\n      0x20\n      add\n      mload(0x40)\n      swap1\n      dup2\n      add\n      0x40\n      mstore\n      dup1\n      swap4\n      swap3\n      swap2\n      swap1\n      dup2\n      dup2\n      mstore\n      0x20\n      add\n      dup4\n      dup4\n      dup1\n      dup3\n      dup5\n      calldatacopy\n      0x00\n      dup2\n      dup5\n      add\n      mstore\n      not(0x1f)\n      0x1f\n      dup3\n      add\n      and\n      swap1\n      pop\n      dup1\n      dup4\n      add\n      swap3\n      pop\n      pop\n      pop\n      pop\n      pop\n      pop\n      pop\n      dup2\n      mstore\n      0x20\n      add\n        /* \"contracts/src/SignatureVerifier.sol\":1806:1813  message */\n      dup11\n      dup11\n        /* \"contracts/src/SignatureVerifier.sol\":1785:1825  PublicValues(pubKey, message, signature) */\n      dup1\n      dup1\n      0x1f\n      add\n      0x20\n      dup1\n      swap2\n      div\n      mul\n      0x20\n      add\n      mload(0x40)\n      swap1\n      dup2\n      add\n      0x40\n      mstore\n      dup1\n      swap4\n      swap3\n      swap2\n      swap1\n      dup2\n      dup2\n      mstore\n      0x20\n      add\n      dup4\n      dup4\n      dup1\n      dup3\n      dup5\n      calldatacopy\n      0x00\n      dup2\n      dup5\n      add\n      mstore\n      not(0x1f)\n      0x1f\n      dup3\n      add\n      and\n      swap1\n      pop\n      dup1\n      dup4\n      add\n      swap3\n      pop\n      pop\n      pop\n      pop\n      pop\n      pop\n      pop\n      dup2\n      mstore\n      0x20\n      add\n        /* \"contracts/src/SignatureVerifier.sol\":1815:1824  signature */\n      dup9\n      dup9\n        /* \"contracts/src/SignatureVerifier.sol\":1785:1825  PublicValues(pubKey, message, signature) */\n      dup1\n      dup1\n      0x1f\n      add\n      0x20\n      dup1\n      swap2\n      div\n      mul\n      0x20\n      add\n      mload(0x40)\n      swap1\n      dup2\n      add\n      0x40\n      mstore\n      dup1\n      swap4\n      swap3\n      swap2\n      swap1\n      dup2\n      dup2\n      mstore\n      0x20\n      add\n      dup4\n      dup4\n      dup1\n      dup3\n      dup5\n      calldatacopy\n      0x00\n      dup2\n      dup5\n      add\n      mstore\n      not(0x1f)\n      0x1f\n      dup3\n      add\n      and\n      swap1\n      pop\n      dup1\n      dup4\n      add\n      swap3\n      pop\n      pop\n      pop\n      pop\n      pop\n      pop\n      pop\n      dup2\n      mstore\n      pop\n        /* \"contracts/src/SignatureVerifier.sol\":1760:1836  abi.encode(... */\n      add(0x20, mload(0x40))\n      tag_31\n      swap2\n      swap1\n      tag_12\n      jump\t// in\n    tag_31:\n      mload(0x40)\n      0x20\n      dup2\n      dup4\n      sub\n      sub\n      dup2\n      mstore\n      swap1\n      0x40\n      mstore\n        /* \"contracts/src/SignatureVerifier.sol\":1724:1836  bytes memory expectedPublicValues = abi.encode(... */\n      swap1\n      pop\n        /* \"contracts/src/SignatureVerifier.sol\":1861:1881  expectedPublicValues */\n      dup1\n        /* \"contracts/src/SignatureVerifier.sol\":1847:1883  revert(string(expectedPublicValues)) */\n      mload(0x40)\n      0x08c379a000000000000000000000000000000000000000000000000000000000\n      dup2\n      mstore\n      0x04\n      add\n      tag_32\n      swap2\n      swap1\n      tag_33\n      jump\t// in\n    tag_32:\n      mload(0x40)\n      dup1\n      swap2\n      sub\n      swap1\n      revert\n        /* \"contracts/src/SignatureVerifier.sol\":497:516  bytes32 public vkey */\n    tag_22:\n      sload(0x01)\n      dup2\n      jump\t// out\n    tag_26:\n      mload(0x40)\n      dup1\n      0x60\n      add\n      0x40\n      mstore\n      dup1\n      0x60\n      dup2\n      mstore\n      0x20\n      add\n      0x60\n      dup2\n      mstore\n      0x20\n      add\n      0x60\n      dup2\n      mstore\n      pop\n      swap1\n      jump\t// out\n        /* \"#utility.yul\":7:82   */\n    tag_44:\n        /* \"#utility.yul\":40:46   */\n      0x00\n        /* \"#utility.yul\":73:75   */\n      0x40\n        /* \"#utility.yul\":67:76   */\n      mload\n        /* \"#utility.yul\":57:76   */\n      swap1\n      pop\n        /* \"#utility.yul\":7:82   */\n      swap1\n      jump\t// out\n        /* \"#utility.yul\":88:205   */\n    tag_45:\n        /* \"#utility.yul\":197:198   */\n      0x00\n        /* \"#utility.yul\":194:195   */\n      0x00\n        /* \"#utility.yul\":187:199   */\n      revert\n        /* \"#utility.yul\":211:328   */\n    tag_46:\n        /* \"#utility.yul\":320:321   */\n      0x00\n        /* \"#utility.yul\":317:318   */\n      0x00\n        /* \"#utility.yul\":310:322   */\n      revert\n        /* \"#utility.yul\":334:451   */\n    tag_47:\n        /* \"#utility.yul\":443:444   */\n      0x00\n        /* \"#utility.yul\":440:441   */\n      0x00\n        /* \"#utility.yul\":433:445   */\n      revert\n        /* \"#utility.yul\":457:574   */\n    tag_48:\n        /* \"#utility.yul\":566:567   */\n      0x00\n        /* \"#utility.yul\":563:564   */\n      0x00\n        /* \"#utility.yul\":556:568   */\n      revert\n        /* \"#utility.yul\":580:697   */\n    tag_49:\n        /* \"#utility.yul\":689:690   */\n      0x00\n        /* \"#utility.yul\":686:687   */\n      0x00\n        /* \"#utility.yul\":679:691   */\n      revert\n        /* \"#utility.yul\":716:1268   */\n    tag_50:\n        /* \"#utility.yul\":773:781   */\n      0x00\n        /* \"#utility.yul\":783:789   */\n      0x00\n        /* \"#utility.yul\":833:836   */\n      dup4\n        /* \"#utility.yul\":826:830   */\n      0x1f\n        /* \"#utility.yul\":818:824   */\n      dup5\n        /* \"#utility.yul\":814:831   */\n      add\n        /* \"#utility.yul\":810:837   */\n      slt\n        /* \"#utility.yul\":800:922   */\n      tag_90\n      jumpi\n        /* \"#utility.yul\":841:920   */\n      tag_91\n      tag_47\n      jump\t// in\n    tag_91:\n        /* \"#utility.yul\":800:922   */\n    tag_90:\n        /* \"#utility.yul\":954:960   */\n      dup3\n        /* \"#utility.yul\":941:961   */\n      calldataload\n        /* \"#utility.yul\":931:961   */\n      swap1\n      pop\n        /* \"#utility.yul\":984:1002   */\n      0xffffffffffffffff\n        /* \"#utility.yul\":976:982   */\n      dup2\n        /* \"#utility.yul\":973:1003   */\n      gt\n        /* \"#utility.yul\":970:1087   */\n      iszero\n      tag_92\n      jumpi\n        /* \"#utility.yul\":1006:1085   */\n      tag_93\n      tag_48\n      jump\t// in\n    tag_93:\n        /* \"#utility.yul\":970:1087   */\n    tag_92:\n        /* \"#utility.yul\":1120:1124   */\n      0x20\n        /* \"#utility.yul\":1112:1118   */\n      dup4\n        /* \"#utility.yul\":1108:1125   */\n      add\n        /* \"#utility.yul\":1096:1125   */\n      swap2\n      pop\n        /* \"#utility.yul\":1174:1177   */\n      dup4\n        /* \"#utility.yul\":1166:1170   */\n      0x01\n        /* \"#utility.yul\":1158:1164   */\n      dup3\n        /* \"#utility.yul\":1154:1171   */\n      mul\n        /* \"#utility.yul\":1144:1152   */\n      dup4\n        /* \"#utility.yul\":1140:1172   */\n      add\n        /* \"#utility.yul\":1137:1178   */\n      gt\n        /* \"#utility.yul\":1134:1262   */\n      iszero\n      tag_94\n      jumpi\n        /* \"#utility.yul\":1181:1260   */\n      tag_95\n      tag_49\n      jump\t// in\n    tag_95:\n        /* \"#utility.yul\":1134:1262   */\n    tag_94:\n        /* \"#utility.yul\":716:1268   */\n      swap3\n      pop\n      swap3\n      swap1\n      pop\n      jump\t// out\n        /* \"#utility.yul\":1274:1801   */\n    tag_9:\n        /* \"#utility.yul\":1344:1350   */\n      0x00\n        /* \"#utility.yul\":1352:1358   */\n      0x00\n        /* \"#utility.yul\":1401:1403   */\n      0x20\n        /* \"#utility.yul\":1389:1398   */\n      dup4\n        /* \"#utility.yul\":1380:1387   */\n      dup6\n        /* \"#utility.yul\":1376:1399   */\n      sub\n        /* \"#utility.yul\":1372:1404   */\n      slt\n        /* \"#utility.yul\":1369:1488   */\n      iszero\n      tag_97\n      jumpi\n        /* \"#utility.yul\":1407:1486   */\n      tag_98\n      tag_45\n      jump\t// in\n    tag_98:\n        /* \"#utility.yul\":1369:1488   */\n    tag_97:\n        /* \"#utility.yul\":1555:1556   */\n      0x00\n        /* \"#utility.yul\":1544:1553   */\n      dup4\n        /* \"#utility.yul\":1540:1557   */\n      add\n        /* \"#utility.yul\":1527:1558   */\n      calldataload\n        /* \"#utility.yul\":1585:1603   */\n      0xffffffffffffffff\n        /* \"#utility.yul\":1577:1583   */\n      dup2\n        /* \"#utility.yul\":1574:1604   */\n      gt\n        /* \"#utility.yul\":1571:1688   */\n      iszero\n      tag_99\n      jumpi\n        /* \"#utility.yul\":1607:1686   */\n      tag_100\n      tag_46\n      jump\t// in\n    tag_100:\n        /* \"#utility.yul\":1571:1688   */\n    tag_99:\n        /* \"#utility.yul\":1720:1784   */\n      tag_101\n        /* \"#utility.yul\":1776:1783   */\n      dup6\n        /* \"#utility.yul\":1767:1773   */\n      dup3\n        /* \"#utility.yul\":1756:1765   */\n      dup7\n        /* \"#utility.yul\":1752:1774   */\n      add\n        /* \"#utility.yul\":1720:1784   */\n      tag_50\n      jump\t// in\n    tag_101:\n        /* \"#utility.yul\":1702:1784   */\n      swap3\n      pop\n      swap3\n      pop\n        /* \"#utility.yul\":1498:1794   */\n      pop\n        /* \"#utility.yul\":1274:1801   */\n      swap3\n      pop\n      swap3\n      swap1\n      pop\n      jump\t// out\n        /* \"#utility.yul\":1807:1905   */\n    tag_51:\n        /* \"#utility.yul\":1858:1864   */\n      0x00\n        /* \"#utility.yul\":1892:1897   */\n      dup2\n        /* \"#utility.yul\":1886:1898   */\n      mload\n        /* \"#utility.yul\":1876:1898   */\n      swap1\n      pop\n        /* \"#utility.yul\":1807:1905   */\n      swap2\n      swap1\n      pop\n      jump\t// out\n        /* \"#utility.yul\":1911:2069   */\n    tag_52:\n        /* \"#utility.yul\":1984:1995   */\n      0x00\n        /* \"#utility.yul\":2018:2024   */\n      dup3\n        /* \"#utility.yul\":2013:2016   */\n      dup3\n        /* \"#utility.yul\":2006:2025   */\n      mstore\n        /* \"#utility.yul\":2058:2062   */\n      0x20\n        /* \"#utility.yul\":2053:2056   */\n      dup3\n        /* \"#utility.yul\":2049:2063   */\n      add\n        /* \"#utility.yul\":2034:2063   */\n      swap1\n      pop\n        /* \"#utility.yul\":1911:2069   */\n      swap3\n      swap2\n      pop\n      pop\n      jump\t// out\n        /* \"#utility.yul\":2075:2214   */\n    tag_53:\n        /* \"#utility.yul\":2164:2170   */\n      dup3\n        /* \"#utility.yul\":2159:2162   */\n      dup2\n        /* \"#utility.yul\":2154:2157   */\n      dup4\n        /* \"#utility.yul\":2148:2171   */\n      mcopy\n        /* \"#utility.yul\":2205:2206   */\n      0x00\n        /* \"#utility.yul\":2196:2202   */\n      dup4\n        /* \"#utility.yul\":2191:2194   */\n      dup4\n        /* \"#utility.yul\":2187:2203   */\n      add\n        /* \"#utility.yul\":2180:2207   */\n      mstore\n        /* \"#utility.yul\":2075:2214   */\n      pop\n      pop\n      pop\n      jump\t// out\n        /* \"#utility.yul\":2220:2322   */\n    tag_54:\n        /* \"#utility.yul\":2261:2267   */\n      0x00\n        /* \"#utility.yul\":2312:2314   */\n      0x1f\n        /* \"#utility.yul\":2308:2315   */\n      not\n        /* \"#utility.yul\":2303:2305   */\n      0x1f\n        /* \"#utility.yul\":2296:2301   */\n      dup4\n        /* \"#utility.yul\":2292:2306   */\n      add\n        /* \"#utility.yul\":2288:2316   */\n      and\n        /* \"#utility.yul\":2278:2316   */\n      swap1\n      pop\n        /* \"#utility.yul\":2220:2322   */\n      swap2\n      swap1\n      pop\n      jump\t// out\n        /* \"#utility.yul\":2328:2681   */\n    tag_55:\n        /* \"#utility.yul\":2404:2407   */\n      0x00\n        /* \"#utility.yul\":2432:2470   */\n      tag_107\n        /* \"#utility.yul\":2464:2469   */\n      dup3\n        /* \"#utility.yul\":2432:2470   */\n      tag_51\n      jump\t// in\n    tag_107:\n        /* \"#utility.yul\":2486:2546   */\n      tag_108\n        /* \"#utility.yul\":2539:2545   */\n      dup2\n        /* \"#utility.yul\":2534:2537   */\n      dup6\n        /* \"#utility.yul\":2486:2546   */\n      tag_52\n      jump\t// in\n    tag_108:\n        /* \"#utility.yul\":2479:2546   */\n      swap4\n      pop\n        /* \"#utility.yul\":2555:2620   */\n      tag_109\n        /* \"#utility.yul\":2613:2619   */\n      dup2\n        /* \"#utility.yul\":2608:2611   */\n      dup6\n        /* \"#utility.yul\":2601:2605   */\n      0x20\n        /* \"#utility.yul\":2594:2599   */\n      dup7\n        /* \"#utility.yul\":2590:2606   */\n      add\n        /* \"#utility.yul\":2555:2620   */\n      tag_53\n      jump\t// in\n    tag_109:\n        /* \"#utility.yul\":2645:2674   */\n      tag_110\n        /* \"#utility.yul\":2667:2673   */\n      dup2\n        /* \"#utility.yul\":2645:2674   */\n      tag_54\n      jump\t// in\n    tag_110:\n        /* \"#utility.yul\":2640:2643   */\n      dup5\n        /* \"#utility.yul\":2636:2675   */\n      add\n        /* \"#utility.yul\":2629:2675   */\n      swap2\n      pop\n        /* \"#utility.yul\":2408:2681   */\n      pop\n        /* \"#utility.yul\":2328:2681   */\n      swap3\n      swap2\n      pop\n      pop\n      jump\t// out\n        /* \"#utility.yul\":2773:3706   */\n    tag_56:\n        /* \"#utility.yul\":2898:2901   */\n      0x00\n        /* \"#utility.yul\":2934:2938   */\n      0x60\n        /* \"#utility.yul\":2929:2932   */\n      dup4\n        /* \"#utility.yul\":2925:2939   */\n      add\n        /* \"#utility.yul\":3024:3028   */\n      0x00\n        /* \"#utility.yul\":3017:3022   */\n      dup4\n        /* \"#utility.yul\":3013:3029   */\n      add\n        /* \"#utility.yul\":3007:3030   */\n      mload\n        /* \"#utility.yul\":3077:3080   */\n      dup5\n        /* \"#utility.yul\":3071:3075   */\n      dup3\n        /* \"#utility.yul\":3067:3081   */\n      sub\n        /* \"#utility.yul\":3060:3064   */\n      0x00\n        /* \"#utility.yul\":3055:3058   */\n      dup7\n        /* \"#utility.yul\":3051:3065   */\n      add\n        /* \"#utility.yul\":3044:3082   */\n      mstore\n        /* \"#utility.yul\":3103:3174   */\n      tag_112\n        /* \"#utility.yul\":3169:3173   */\n      dup3\n        /* \"#utility.yul\":3155:3167   */\n      dup3\n        /* \"#utility.yul\":3103:3174   */\n      tag_55\n      jump\t// in\n    tag_112:\n        /* \"#utility.yul\":3095:3174   */\n      swap2\n      pop\n        /* \"#utility.yul\":2949:3185   */\n      pop\n        /* \"#utility.yul\":3270:3274   */\n      0x20\n        /* \"#utility.yul\":3263:3268   */\n      dup4\n        /* \"#utility.yul\":3259:3275   */\n      add\n        /* \"#utility.yul\":3253:3276   */\n      mload\n        /* \"#utility.yul\":3323:3326   */\n      dup5\n        /* \"#utility.yul\":3317:3321   */\n      dup3\n        /* \"#utility.yul\":3313:3327   */\n      sub\n        /* \"#utility.yul\":3306:3310   */\n      0x20\n        /* \"#utility.yul\":3301:3304   */\n      dup7\n        /* \"#utility.yul\":3297:3311   */\n      add\n        /* \"#utility.yul\":3290:3328   */\n      mstore\n        /* \"#utility.yul\":3349:3420   */\n      tag_113\n        /* \"#utility.yul\":3415:3419   */\n      dup3\n        /* \"#utility.yul\":3401:3413   */\n      dup3\n        /* \"#utility.yul\":3349:3420   */\n      tag_55\n      jump\t// in\n    tag_113:\n        /* \"#utility.yul\":3341:3420   */\n      swap2\n      pop\n        /* \"#utility.yul\":3195:3431   */\n      pop\n        /* \"#utility.yul\":3518:3522   */\n      0x40\n        /* \"#utility.yul\":3511:3516   */\n      dup4\n        /* \"#utility.yul\":3507:3523   */\n      add\n        /* \"#utility.yul\":3501:3524   */\n      mload\n        /* \"#utility.yul\":3571:3574   */\n      dup5\n        /* \"#utility.yul\":3565:3569   */\n      dup3\n        /* \"#utility.yul\":3561:3575   */\n      sub\n        /* \"#utility.yul\":3554:3558   */\n      0x40\n        /* \"#utility.yul\":3549:3552   */\n      dup7\n        /* \"#utility.yul\":3545:3559   */\n      add\n        /* \"#utility.yul\":3538:3576   */\n      mstore\n        /* \"#utility.yul\":3597:3668   */\n      tag_114\n        /* \"#utility.yul\":3663:3667   */\n      dup3\n        /* \"#utility.yul\":3649:3661   */\n      dup3\n        /* \"#utility.yul\":3597:3668   */\n      tag_55\n      jump\t// in\n    tag_114:\n        /* \"#utility.yul\":3589:3668   */\n      swap2\n      pop\n        /* \"#utility.yul\":3441:3679   */\n      pop\n        /* \"#utility.yul\":3696:3700   */\n      dup1\n        /* \"#utility.yul\":3689:3700   */\n      swap2\n      pop\n        /* \"#utility.yul\":2903:3706   */\n      pop\n        /* \"#utility.yul\":2773:3706   */\n      swap3\n      swap2\n      pop\n      pop\n      jump\t// out\n        /* \"#utility.yul\":3712:4097   */\n    tag_12:\n        /* \"#utility.yul\":3861:3865   */\n      0x00\n        /* \"#utility.yul\":3899:3901   */\n      0x20\n        /* \"#utility.yul\":3888:3897   */\n      dup3\n        /* \"#utility.yul\":3884:3902   */\n      add\n        /* \"#utility.yul\":3876:3902   */\n      swap1\n      pop\n        /* \"#utility.yul\":3948:3957   */\n      dup2\n        /* \"#utility.yul\":3942:3946   */\n      dup2\n        /* \"#utility.yul\":3938:3958   */\n      sub\n        /* \"#utility.yul\":3934:3935   */\n      0x00\n        /* \"#utility.yul\":3923:3932   */\n      dup4\n        /* \"#utility.yul\":3919:3936   */\n      add\n        /* \"#utility.yul\":3912:3959   */\n      mstore\n        /* \"#utility.yul\":3976:4090   */\n      tag_116\n        /* \"#utility.yul\":4085:4089   */\n      dup2\n        /* \"#utility.yul\":4076:4082   */\n      dup5\n        /* \"#utility.yul\":3976:4090   */\n      tag_56\n      jump\t// in\n    tag_116:\n        /* \"#utility.yul\":3968:4090   */\n      swap1\n      pop\n        /* \"#utility.yul\":3712:4097   */\n      swap3\n      swap2\n      pop\n      pop\n      jump\t// out\n        /* \"#utility.yul\":4103:4229   */\n    tag_57:\n        /* \"#utility.yul\":4140:4147   */\n      0x00\n        /* \"#utility.yul\":4180:4222   */\n      0xffffffffffffffffffffffffffffffffffffffff\n        /* \"#utility.yul\":4173:4178   */\n      dup3\n        /* \"#utility.yul\":4169:4223   */\n      and\n        /* \"#utility.yul\":4158:4223   */\n      swap1\n      pop\n        /* \"#utility.yul\":4103:4229   */\n      swap2\n      swap1\n      pop\n      jump\t// out\n        /* \"#utility.yul\":4235:4331   */\n    tag_58:\n        /* \"#utility.yul\":4272:4279   */\n      0x00\n        /* \"#utility.yul\":4301:4325   */\n      tag_119\n        /* \"#utility.yul\":4319:4324   */\n      dup3\n        /* \"#utility.yul\":4301:4325   */\n      tag_57\n      jump\t// in\n    tag_119:\n        /* \"#utility.yul\":4290:4325   */\n      swap1\n      pop\n        /* \"#utility.yul\":4235:4331   */\n      swap2\n      swap1\n      pop\n      jump\t// out\n        /* \"#utility.yul\":4337:4455   */\n    tag_59:\n        /* \"#utility.yul\":4424:4448   */\n      tag_121\n        /* \"#utility.yul\":4442:4447   */\n      dup2\n        /* \"#utility.yul\":4424:4448   */\n      tag_58\n      jump\t// in\n    tag_121:\n        /* \"#utility.yul\":4419:4422   */\n      dup3\n        /* \"#utility.yul\":4412:4449   */\n      mstore\n        /* \"#utility.yul\":4337:4455   */\n      pop\n      pop\n      jump\t// out\n        /* \"#utility.yul\":4461:4683   */\n    tag_16:\n        /* \"#utility.yul\":4554:4558   */\n      0x00\n        /* \"#utility.yul\":4592:4594   */\n      0x20\n        /* \"#utility.yul\":4581:4590   */\n      dup3\n        /* \"#utility.yul\":4577:4595   */\n      add\n        /* \"#utility.yul\":4569:4595   */\n      swap1\n      pop\n        /* \"#utility.yul\":4605:4676   */\n      tag_123\n        /* \"#utility.yul\":4673:4674   */\n      0x00\n        /* \"#utility.yul\":4662:4671   */\n      dup4\n        /* \"#utility.yul\":4658:4675   */\n      add\n        /* \"#utility.yul\":4649:4655   */\n      dup5\n        /* \"#utility.yul\":4605:4676   */\n      tag_59\n      jump\t// in\n    tag_123:\n        /* \"#utility.yul\":4461:4683   */\n      swap3\n      swap2\n      pop\n      pop\n      jump\t// out\n        /* \"#utility.yul\":4689:6590   */\n    tag_19:\n        /* \"#utility.yul\":4839:4845   */\n      0x00\n        /* \"#utility.yul\":4847:4853   */\n      0x00\n        /* \"#utility.yul\":4855:4861   */\n      0x00\n        /* \"#utility.yul\":4863:4869   */\n      0x00\n        /* \"#utility.yul\":4871:4877   */\n      0x00\n        /* \"#utility.yul\":4879:4885   */\n      0x00\n        /* \"#utility.yul\":4887:4893   */\n      0x00\n        /* \"#utility.yul\":4895:4901   */\n      0x00\n        /* \"#utility.yul\":4903:4909   */\n      0x00\n        /* \"#utility.yul\":4911:4917   */\n      0x00\n        /* \"#utility.yul\":4960:4963   */\n      0xa0\n        /* \"#utility.yul\":4948:4957   */\n      dup12\n        /* \"#utility.yul\":4939:4946   */\n      dup14\n        /* \"#utility.yul\":4935:4958   */\n      sub\n        /* \"#utility.yul\":4931:4964   */\n      slt\n        /* \"#utility.yul\":4928:5048   */\n      iszero\n      tag_125\n      jumpi\n        /* \"#utility.yul\":4967:5046   */\n      tag_126\n      tag_45\n      jump\t// in\n    tag_126:\n        /* \"#utility.yul\":4928:5048   */\n    tag_125:\n        /* \"#utility.yul\":5115:5116   */\n      0x00\n        /* \"#utility.yul\":5104:5113   */\n      dup12\n        /* \"#utility.yul\":5100:5117   */\n      add\n        /* \"#utility.yul\":5087:5118   */\n      calldataload\n        /* \"#utility.yul\":5145:5163   */\n      0xffffffffffffffff\n        /* \"#utility.yul\":5137:5143   */\n      dup2\n        /* \"#utility.yul\":5134:5164   */\n      gt\n        /* \"#utility.yul\":5131:5248   */\n      iszero\n      tag_127\n      jumpi\n        /* \"#utility.yul\":5167:5246   */\n      tag_128\n      tag_46\n      jump\t// in\n    tag_128:\n        /* \"#utility.yul\":5131:5248   */\n    tag_127:\n        /* \"#utility.yul\":5280:5344   */\n      tag_129\n        /* \"#utility.yul\":5336:5343   */\n      dup14\n        /* \"#utility.yul\":5327:5333   */\n      dup3\n        /* \"#utility.yul\":5316:5325   */\n      dup15\n        /* \"#utility.yul\":5312:5334   */\n      add\n        /* \"#utility.yul\":5280:5344   */\n      tag_50\n      jump\t// in\n    tag_129:\n        /* \"#utility.yul\":5262:5344   */\n      swap11\n      pop\n      swap11\n      pop\n        /* \"#utility.yul\":5058:5354   */\n      pop\n        /* \"#utility.yul\":5421:5423   */\n      0x20\n        /* \"#utility.yul\":5410:5419   */\n      dup12\n        /* \"#utility.yul\":5406:5424   */\n      add\n        /* \"#utility.yul\":5393:5425   */\n      calldataload\n        /* \"#utility.yul\":5452:5470   */\n      0xffffffffffffffff\n        /* \"#utility.yul\":5444:5450   */\n      dup2\n        /* \"#utility.yul\":5441:5471   */\n      gt\n        /* \"#utility.yul\":5438:5555   */\n      iszero\n      tag_130\n      jumpi\n        /* \"#utility.yul\":5474:5553   */\n      tag_131\n      tag_46\n      jump\t// in\n    tag_131:\n        /* \"#utility.yul\":5438:5555   */\n    tag_130:\n        /* \"#utility.yul\":5587:5651   */\n      tag_132\n        /* \"#utility.yul\":5643:5650   */\n      dup14\n        /* \"#utility.yul\":5634:5640   */\n      dup3\n        /* \"#utility.yul\":5623:5632   */\n      dup15\n        /* \"#utility.yul\":5619:5641   */\n      add\n        /* \"#utility.yul\":5587:5651   */\n      tag_50\n      jump\t// in\n    tag_132:\n        /* \"#utility.yul\":5569:5651   */\n      swap9\n      pop\n      swap9\n      pop\n        /* \"#utility.yul\":5364:5661   */\n      pop\n        /* \"#utility.yul\":5728:5730   */\n      0x40\n        /* \"#utility.yul\":5717:5726   */\n      dup12\n        /* \"#utility.yul\":5713:5731   */\n      add\n        /* \"#utility.yul\":5700:5732   */\n      calldataload\n        /* \"#utility.yul\":5759:5777   */\n      0xffffffffffffffff\n        /* \"#utility.yul\":5751:5757   */\n      dup2\n        /* \"#utility.yul\":5748:5778   */\n      gt\n        /* \"#utility.yul\":5745:5862   */\n      iszero\n      tag_133\n      jumpi\n        /* \"#utility.yul\":5781:5860   */\n      tag_134\n      tag_46\n      jump\t// in\n    tag_134:\n        /* \"#utility.yul\":5745:5862   */\n    tag_133:\n        /* \"#utility.yul\":5894:5958   */\n      tag_135\n        /* \"#utility.yul\":5950:5957   */\n      dup14\n        /* \"#utility.yul\":5941:5947   */\n      dup3\n        /* \"#utility.yul\":5930:5939   */\n      dup15\n        /* \"#utility.yul\":5926:5948   */\n      add\n        /* \"#utility.yul\":5894:5958   */\n      tag_50\n      jump\t// in\n    tag_135:\n        /* \"#utility.yul\":5876:5958   */\n      swap7\n      pop\n      swap7\n      pop\n        /* \"#utility.yul\":5671:5968   */\n      pop\n        /* \"#utility.yul\":6035:6037   */\n      0x60\n        /* \"#utility.yul\":6024:6033   */\n      dup12\n        /* \"#utility.yul\":6020:6038   */\n      add\n        /* \"#utility.yul\":6007:6039   */\n      calldataload\n        /* \"#utility.yul\":6066:6084   */\n      0xffffffffffffffff\n        /* \"#utility.yul\":6058:6064   */\n      dup2\n        /* \"#utility.yul\":6055:6085   */\n      gt\n        /* \"#utility.yul\":6052:6169   */\n      iszero\n      tag_136\n      jumpi\n        /* \"#utility.yul\":6088:6167   */\n      tag_137\n      tag_46\n      jump\t// in\n    tag_137:\n        /* \"#utility.yul\":6052:6169   */\n    tag_136:\n        /* \"#utility.yul\":6201:6265   */\n      tag_138\n        /* \"#utility.yul\":6257:6264   */\n      dup14\n        /* \"#utility.yul\":6248:6254   */\n      dup3\n        /* \"#utility.yul\":6237:6246   */\n      dup15\n        /* \"#utility.yul\":6233:6255   */\n      add\n        /* \"#utility.yul\":6201:6265   */\n      tag_50\n      jump\t// in\n    tag_138:\n        /* \"#utility.yul\":6183:6265   */\n      swap5\n      pop\n      swap5\n      pop\n        /* \"#utility.yul\":5978:6275   */\n      pop\n        /* \"#utility.yul\":6342:6345   */\n      0x80\n        /* \"#utility.yul\":6331:6340   */\n      dup12\n        /* \"#utility.yul\":6327:6346   */\n      add\n        /* \"#utility.yul\":6314:6347   */\n      calldataload\n        /* \"#utility.yul\":6374:6392   */\n      0xffffffffffffffff\n        /* \"#utility.yul\":6366:6372   */\n      dup2\n        /* \"#utility.yul\":6363:6393   */\n      gt\n        /* \"#utility.yul\":6360:6477   */\n      iszero\n      tag_139\n      jumpi\n        /* \"#utility.yul\":6396:6475   */\n      tag_140\n      tag_46\n      jump\t// in\n    tag_140:\n        /* \"#utility.yul\":6360:6477   */\n    tag_139:\n        /* \"#utility.yul\":6509:6573   */\n      tag_141\n        /* \"#utility.yul\":6565:6572   */\n      dup14\n        /* \"#utility.yul\":6556:6562   */\n      dup3\n        /* \"#utility.yul\":6545:6554   */\n      dup15\n        /* \"#utility.yul\":6541:6563   */\n      add\n        /* \"#utility.yul\":6509:6573   */\n      tag_50\n      jump\t// in\n    tag_141:\n        /* \"#utility.yul\":6491:6573   */\n      swap3\n      pop\n      swap3\n      pop\n        /* \"#utility.yul\":6285:6583   */\n      pop\n        /* \"#utility.yul\":4689:6590   */\n      swap3\n      swap6\n      swap9\n      swap12\n      swap2\n      swap5\n      swap8\n      swap11\n      pop\n      swap3\n      swap6\n      swap9\n      pop\n      jump\t// out\n        /* \"#utility.yul\":6596:6673   */\n    tag_60:\n        /* \"#utility.yul\":6633:6640   */\n      0x00\n        /* \"#utility.yul\":6662:6667   */\n      dup2\n        /* \"#utility.yul\":6651:6667   */\n      swap1\n      pop\n        /* \"#utility.yul\":6596:6673   */\n      swap2\n      swap1\n      pop\n      jump\t// out\n        /* \"#utility.yul\":6679:6797   */\n    tag_61:\n        /* \"#utility.yul\":6766:6790   */\n      tag_144\n        /* \"#utility.yul\":6784:6789   */\n      dup2\n        /* \"#utility.yul\":6766:6790   */\n      tag_60\n      jump\t// in\n    tag_144:\n        /* \"#utility.yul\":6761:6764   */\n      dup3\n        /* \"#utility.yul\":6754:6791   */\n      mstore\n        /* \"#utility.yul\":6679:6797   */\n      pop\n      pop\n      jump\t// out\n        /* \"#utility.yul\":6803:7025   */\n    tag_24:\n        /* \"#utility.yul\":6896:6900   */\n      0x00\n        /* \"#utility.yul\":6934:6936   */\n      0x20\n        /* \"#utility.yul\":6923:6932   */\n      dup3\n        /* \"#utility.yul\":6919:6937   */\n      add\n        /* \"#utility.yul\":6911:6937   */\n      swap1\n      pop\n        /* \"#utility.yul\":6947:7018   */\n      tag_146\n        /* \"#utility.yul\":7015:7016   */\n      0x00\n        /* \"#utility.yul\":7004:7013   */\n      dup4\n        /* \"#utility.yul\":7000:7017   */\n      add\n        /* \"#utility.yul\":6991:6997   */\n      dup5\n        /* \"#utility.yul\":6947:7018   */\n      tag_61\n      jump\t// in\n    tag_146:\n        /* \"#utility.yul\":6803:7025   */\n      swap3\n      swap2\n      pop\n      pop\n      jump\t// out\n        /* \"#utility.yul\":7031:7148   */\n    tag_62:\n        /* \"#utility.yul\":7140:7141   */\n      0x00\n        /* \"#utility.yul\":7137:7138   */\n      0x00\n        /* \"#utility.yul\":7130:7142   */\n      revert\n        /* \"#utility.yul\":7154:7334   */\n    tag_63:\n        /* \"#utility.yul\":7202:7279   */\n      0x4e487b7100000000000000000000000000000000000000000000000000000000\n        /* \"#utility.yul\":7199:7200   */\n      0x00\n        /* \"#utility.yul\":7192:7280   */\n      mstore\n        /* \"#utility.yul\":7299:7303   */\n      0x41\n        /* \"#utility.yul\":7296:7297   */\n      0x04\n        /* \"#utility.yul\":7289:7304   */\n      mstore\n        /* \"#utility.yul\":7323:7327   */\n      0x24\n        /* \"#utility.yul\":7320:7321   */\n      0x00\n        /* \"#utility.yul\":7313:7328   */\n      revert\n        /* \"#utility.yul\":7340:7621   */\n    tag_64:\n        /* \"#utility.yul\":7423:7450   */\n      tag_150\n        /* \"#utility.yul\":7445:7449   */\n      dup3\n        /* \"#utility.yul\":7423:7450   */\n      tag_54\n      jump\t// in\n    tag_150:\n        /* \"#utility.yul\":7415:7421   */\n      dup2\n        /* \"#utility.yul\":7411:7451   */\n      add\n        /* \"#utility.yul\":7553:7559   */\n      dup2\n        /* \"#utility.yul\":7541:7551   */\n      dup2\n        /* \"#utility.yul\":7538:7560   */\n      lt\n        /* \"#utility.yul\":7517:7535   */\n      0xffffffffffffffff\n        /* \"#utility.yul\":7505:7515   */\n      dup3\n        /* \"#utility.yul\":7502:7536   */\n      gt\n        /* \"#utility.yul\":7499:7561   */\n      or\n        /* \"#utility.yul\":7496:7584   */\n      iszero\n      tag_151\n      jumpi\n        /* \"#utility.yul\":7564:7582   */\n      tag_152\n      tag_63\n      jump\t// in\n    tag_152:\n        /* \"#utility.yul\":7496:7584   */\n    tag_151:\n        /* \"#utility.yul\":7604:7614   */\n      dup1\n        /* \"#utility.yul\":7600:7602   */\n      0x40\n        /* \"#utility.yul\":7593:7615   */\n      mstore\n        /* \"#utility.yul\":7383:7621   */\n      pop\n        /* \"#utility.yul\":7340:7621   */\n      pop\n      pop\n      jump\t// out\n        /* \"#utility.yul\":7627:7756   */\n    tag_65:\n        /* \"#utility.yul\":7661:7667   */\n      0x00\n        /* \"#utility.yul\":7688:7708   */\n      tag_154\n      tag_44\n      jump\t// in\n    tag_154:\n        /* \"#utility.yul\":7678:7708   */\n      swap1\n      pop\n        /* \"#utility.yul\":7717:7750   */\n      tag_155\n        /* \"#utility.yul\":7745:7749   */\n      dup3\n        /* \"#utility.yul\":7737:7743   */\n      dup3\n        /* \"#utility.yul\":7717:7750   */\n      tag_64\n      jump\t// in\n    tag_155:\n        /* \"#utility.yul\":7627:7756   */\n      swap2\n      swap1\n      pop\n      jump\t// out\n        /* \"#utility.yul\":7762:7879   */\n    tag_66:\n        /* \"#utility.yul\":7871:7872   */\n      0x00\n        /* \"#utility.yul\":7868:7869   */\n      0x00\n        /* \"#utility.yul\":7861:7873   */\n      revert\n        /* \"#utility.yul\":7885:8002   */\n    tag_67:\n        /* \"#utility.yul\":7994:7995   */\n      0x00\n        /* \"#utility.yul\":7991:7992   */\n      0x00\n        /* \"#utility.yul\":7984:7996   */\n      revert\n        /* \"#utility.yul\":8008:8315   */\n    tag_68:\n        /* \"#utility.yul\":8069:8073   */\n      0x00\n        /* \"#utility.yul\":8159:8177   */\n      0xffffffffffffffff\n        /* \"#utility.yul\":8151:8157   */\n      dup3\n        /* \"#utility.yul\":8148:8178   */\n      gt\n        /* \"#utility.yul\":8145:8201   */\n      iszero\n      tag_159\n      jumpi\n        /* \"#utility.yul\":8181:8199   */\n      tag_160\n      tag_63\n      jump\t// in\n    tag_160:\n        /* \"#utility.yul\":8145:8201   */\n    tag_159:\n        /* \"#utility.yul\":8219:8248   */\n      tag_161\n        /* \"#utility.yul\":8241:8247   */\n      dup3\n        /* \"#utility.yul\":8219:8248   */\n      tag_54\n      jump\t// in\n    tag_161:\n        /* \"#utility.yul\":8211:8248   */\n      swap1\n      pop\n        /* \"#utility.yul\":8303:8307   */\n      0x20\n        /* \"#utility.yul\":8297:8301   */\n      dup2\n        /* \"#utility.yul\":8293:8308   */\n      add\n        /* \"#utility.yul\":8285:8308   */\n      swap1\n      pop\n        /* \"#utility.yul\":8008:8315   */\n      swap2\n      swap1\n      pop\n      jump\t// out\n        /* \"#utility.yul\":8321:8469   */\n    tag_69:\n        /* \"#utility.yul\":8419:8425   */\n      dup3\n        /* \"#utility.yul\":8414:8417   */\n      dup2\n        /* \"#utility.yul\":8409:8412   */\n      dup4\n        /* \"#utility.yul\":8396:8426   */\n      calldatacopy\n        /* \"#utility.yul\":8460:8461   */\n      0x00\n        /* \"#utility.yul\":8451:8457   */\n      dup4\n        /* \"#utility.yul\":8446:8449   */\n      dup4\n        /* \"#utility.yul\":8442:8458   */\n      add\n        /* \"#utility.yul\":8435:8462   */\n      mstore\n        /* \"#utility.yul\":8321:8469   */\n      pop\n      pop\n      pop\n      jump\t// out\n        /* \"#utility.yul\":8475:8898   */\n    tag_70:\n        /* \"#utility.yul\":8552:8557   */\n      0x00\n        /* \"#utility.yul\":8577:8642   */\n      tag_164\n        /* \"#utility.yul\":8593:8641   */\n      tag_165\n        /* \"#utility.yul\":8634:8640   */\n      dup5\n        /* \"#utility.yul\":8593:8641   */\n      tag_68\n      jump\t// in\n    tag_165:\n        /* \"#utility.yul\":8577:8642   */\n      tag_65\n      jump\t// in\n    tag_164:\n        /* \"#utility.yul\":8568:8642   */\n      swap1\n      pop\n        /* \"#utility.yul\":8665:8671   */\n      dup3\n        /* \"#utility.yul\":8658:8663   */\n      dup2\n        /* \"#utility.yul\":8651:8672   */\n      mstore\n        /* \"#utility.yul\":8703:8707   */\n      0x20\n        /* \"#utility.yul\":8696:8701   */\n      dup2\n        /* \"#utility.yul\":8692:8708   */\n      add\n        /* \"#utility.yul\":8741:8744   */\n      dup5\n        /* \"#utility.yul\":8732:8738   */\n      dup5\n        /* \"#utility.yul\":8727:8730   */\n      dup5\n        /* \"#utility.yul\":8723:8739   */\n      add\n        /* \"#utility.yul\":8720:8745   */\n      gt\n        /* \"#utility.yul\":8717:8829   */\n      iszero\n      tag_166\n      jumpi\n        /* \"#utility.yul\":8748:8827   */\n      tag_167\n      tag_67\n      jump\t// in\n    tag_167:\n        /* \"#utility.yul\":8717:8829   */\n    tag_166:\n        /* \"#utility.yul\":8838:8892   */\n      tag_168\n        /* \"#utility.yul\":8885:8891   */\n      dup5\n        /* \"#utility.yul\":8880:8883   */\n      dup3\n        /* \"#utility.yul\":8875:8878   */\n      dup6\n        /* \"#utility.yul\":8838:8892   */\n      tag_69\n      jump\t// in\n    tag_168:\n        /* \"#utility.yul\":8558:8898   */\n      pop\n        /* \"#utility.yul\":8475:8898   */\n      swap4\n      swap3\n      pop\n      pop\n      pop\n      jump\t// out\n        /* \"#utility.yul\":8917:9255   */\n    tag_71:\n        /* \"#utility.yul\":8972:8977   */\n      0x00\n        /* \"#utility.yul\":9021:9024   */\n      dup3\n        /* \"#utility.yul\":9014:9018   */\n      0x1f\n        /* \"#utility.yul\":9006:9012   */\n      dup4\n        /* \"#utility.yul\":9002:9019   */\n      add\n        /* \"#utility.yul\":8998:9025   */\n      slt\n        /* \"#utility.yul\":8988:9110   */\n      tag_170\n      jumpi\n        /* \"#utility.yul\":9029:9108   */\n      tag_171\n      tag_47\n      jump\t// in\n    tag_171:\n        /* \"#utility.yul\":8988:9110   */\n    tag_170:\n        /* \"#utility.yul\":9146:9152   */\n      dup2\n        /* \"#utility.yul\":9133:9153   */\n      calldataload\n        /* \"#utility.yul\":9171:9249   */\n      tag_172\n        /* \"#utility.yul\":9245:9248   */\n      dup5\n        /* \"#utility.yul\":9237:9243   */\n      dup3\n        /* \"#utility.yul\":9230:9234   */\n      0x20\n        /* \"#utility.yul\":9222:9228   */\n      dup7\n        /* \"#utility.yul\":9218:9235   */\n      add\n        /* \"#utility.yul\":9171:9249   */\n      tag_70\n      jump\t// in\n    tag_172:\n        /* \"#utility.yul\":9162:9249   */\n      swap2\n      pop\n        /* \"#utility.yul\":8978:9255   */\n      pop\n        /* \"#utility.yul\":8917:9255   */\n      swap3\n      swap2\n      pop\n      pop\n      jump\t// out\n        /* \"#utility.yul\":9306:10562   */\n    tag_72:\n        /* \"#utility.yul\":9383:9388   */\n      0x00\n        /* \"#utility.yul\":9427:9431   */\n      0x60\n        /* \"#utility.yul\":9415:9424   */\n      dup3\n        /* \"#utility.yul\":9410:9413   */\n      dup5\n        /* \"#utility.yul\":9406:9425   */\n      sub\n        /* \"#utility.yul\":9402:9432   */\n      slt\n        /* \"#utility.yul\":9399:9516   */\n      iszero\n      tag_174\n      jumpi\n        /* \"#utility.yul\":9435:9514   */\n      tag_175\n      tag_62\n      jump\t// in\n    tag_175:\n        /* \"#utility.yul\":9399:9516   */\n    tag_174:\n        /* \"#utility.yul\":9534:9555   */\n      tag_176\n        /* \"#utility.yul\":9550:9554   */\n      0x60\n        /* \"#utility.yul\":9534:9555   */\n      tag_65\n      jump\t// in\n    tag_176:\n        /* \"#utility.yul\":9525:9555   */\n      swap1\n      pop\n        /* \"#utility.yul\":9645:9646   */\n      0x00\n        /* \"#utility.yul\":9634:9643   */\n      dup3\n        /* \"#utility.yul\":9630:9647   */\n      add\n        /* \"#utility.yul\":9617:9648   */\n      calldataload\n        /* \"#utility.yul\":9675:9693   */\n      0xffffffffffffffff\n        /* \"#utility.yul\":9667:9673   */\n      dup2\n        /* \"#utility.yul\":9664:9694   */\n      gt\n        /* \"#utility.yul\":9661:9778   */\n      iszero\n      tag_177\n      jumpi\n        /* \"#utility.yul\":9697:9776   */\n      tag_178\n      tag_66\n      jump\t// in\n    tag_178:\n        /* \"#utility.yul\":9661:9778   */\n    tag_177:\n        /* \"#utility.yul\":9817:9875   */\n      tag_179\n        /* \"#utility.yul\":9871:9874   */\n      dup5\n        /* \"#utility.yul\":9862:9868   */\n      dup3\n        /* \"#utility.yul\":9851:9860   */\n      dup6\n        /* \"#utility.yul\":9847:9869   */\n      add\n        /* \"#utility.yul\":9817:9875   */\n      tag_71\n      jump\t// in\n    tag_179:\n        /* \"#utility.yul\":9810:9814   */\n      0x00\n        /* \"#utility.yul\":9803:9808   */\n      dup4\n        /* \"#utility.yul\":9799:9815   */\n      add\n        /* \"#utility.yul\":9792:9876   */\n      mstore\n        /* \"#utility.yul\":9565:9887   */\n      pop\n        /* \"#utility.yul\":9977:9979   */\n      0x20\n        /* \"#utility.yul\":9966:9975   */\n      dup3\n        /* \"#utility.yul\":9962:9980   */\n      add\n        /* \"#utility.yul\":9949:9981   */\n      calldataload\n        /* \"#utility.yul\":10008:10026   */\n      0xffffffffffffffff\n        /* \"#utility.yul\":10000:10006   */\n      dup2\n        /* \"#utility.yul\":9997:10027   */\n      gt\n        /* \"#utility.yul\":9994:10111   */\n      iszero\n      tag_180\n      jumpi\n        /* \"#utility.yul\":10030:10109   */\n      tag_181\n      tag_66\n      jump\t// in\n    tag_181:\n        /* \"#utility.yul\":9994:10111   */\n    tag_180:\n        /* \"#utility.yul\":10150:10208   */\n      tag_182\n        /* \"#utility.yul\":10204:10207   */\n      dup5\n        /* \"#utility.yul\":10195:10201   */\n      dup3\n        /* \"#utility.yul\":10184:10193   */\n      dup6\n        /* \"#utility.yul\":10180:10202   */\n      add\n        /* \"#utility.yul\":10150:10208   */\n      tag_71\n      jump\t// in\n    tag_182:\n        /* \"#utility.yul\":10143:10147   */\n      0x20\n        /* \"#utility.yul\":10136:10141   */\n      dup4\n        /* \"#utility.yul\":10132:10148   */\n      add\n        /* \"#utility.yul\":10125:10209   */\n      mstore\n        /* \"#utility.yul\":9897:10220   */\n      pop\n        /* \"#utility.yul\":10312:10314   */\n      0x40\n        /* \"#utility.yul\":10301:10310   */\n      dup3\n        /* \"#utility.yul\":10297:10315   */\n      add\n        /* \"#utility.yul\":10284:10316   */\n      calldataload\n        /* \"#utility.yul\":10343:10361   */\n      0xffffffffffffffff\n        /* \"#utility.yul\":10335:10341   */\n      dup2\n        /* \"#utility.yul\":10332:10362   */\n      gt\n        /* \"#utility.yul\":10329:10446   */\n      iszero\n      tag_183\n      jumpi\n        /* \"#utility.yul\":10365:10444   */\n      tag_184\n      tag_66\n      jump\t// in\n    tag_184:\n        /* \"#utility.yul\":10329:10446   */\n    tag_183:\n        /* \"#utility.yul\":10485:10543   */\n      tag_185\n        /* \"#utility.yul\":10539:10542   */\n      dup5\n        /* \"#utility.yul\":10530:10536   */\n      dup3\n        /* \"#utility.yul\":10519:10528   */\n      dup6\n        /* \"#utility.yul\":10515:10537   */\n      add\n        /* \"#utility.yul\":10485:10543   */\n      tag_71\n      jump\t// in\n    tag_185:\n        /* \"#utility.yul\":10478:10482   */\n      0x40\n        /* \"#utility.yul\":10471:10476   */\n      dup4\n        /* \"#utility.yul\":10467:10483   */\n      add\n        /* \"#utility.yul\":10460:10544   */\n      mstore\n        /* \"#utility.yul\":10230:10555   */\n      pop\n        /* \"#utility.yul\":9306:10562   */\n      swap3\n      swap2\n      pop\n      pop\n      jump\t// out\n        /* \"#utility.yul\":10568:11113   */\n    tag_29:\n        /* \"#utility.yul\":10655:10661   */\n      0x00\n        /* \"#utility.yul\":10704:10706   */\n      0x20\n        /* \"#utility.yul\":10692:10701   */\n      dup3\n        /* \"#utility.yul\":10683:10690   */\n      dup5\n        /* \"#utility.yul\":10679:10702   */\n      sub\n        /* \"#utility.yul\":10675:10707   */\n      slt\n        /* \"#utility.yul\":10672:10791   */\n      iszero\n      tag_187\n      jumpi\n        /* \"#utility.yul\":10710:10789   */\n      tag_188\n      tag_45\n      jump\t// in\n    tag_188:\n        /* \"#utility.yul\":10672:10791   */\n    tag_187:\n        /* \"#utility.yul\":10858:10859   */\n      0x00\n        /* \"#utility.yul\":10847:10856   */\n      dup3\n        /* \"#utility.yul\":10843:10860   */\n      add\n        /* \"#utility.yul\":10830:10861   */\n      calldataload\n        /* \"#utility.yul\":10888:10906   */\n      0xffffffffffffffff\n        /* \"#utility.yul\":10880:10886   */\n      dup2\n        /* \"#utility.yul\":10877:10907   */\n      gt\n        /* \"#utility.yul\":10874:10991   */\n      iszero\n      tag_189\n      jumpi\n        /* \"#utility.yul\":10910:10989   */\n      tag_190\n      tag_46\n      jump\t// in\n    tag_190:\n        /* \"#utility.yul\":10874:10991   */\n    tag_189:\n        /* \"#utility.yul\":11015:11096   */\n      tag_191\n        /* \"#utility.yul\":11088:11095   */\n      dup5\n        /* \"#utility.yul\":11079:11085   */\n      dup3\n        /* \"#utility.yul\":11068:11077   */\n      dup6\n        /* \"#utility.yul\":11064:11086   */\n      add\n        /* \"#utility.yul\":11015:11096   */\n      tag_72\n      jump\t// in\n    tag_191:\n        /* \"#utility.yul\":11005:11096   */\n      swap2\n      pop\n        /* \"#utility.yul\":10801:11106   */\n      pop\n        /* \"#utility.yul\":10568:11113   */\n      swap3\n      swap2\n      pop\n      pop\n      jump\t// out\n        /* \"#utility.yul\":11119:11218   */\n    tag_73:\n        /* \"#utility.yul\":11171:11177   */\n      0x00\n        /* \"#utility.yul\":11205:11210   */\n      dup2\n        /* \"#utility.yul\":11199:11211   */\n      mload\n        /* \"#utility.yul\":11189:11211   */\n      swap1\n      pop\n        /* \"#utility.yul\":11119:11218   */\n      swap2\n      swap1\n      pop\n      jump\t// out\n        /* \"#utility.yul\":11224:11393   */\n    tag_74:\n        /* \"#utility.yul\":11308:11319   */\n      0x00\n        /* \"#utility.yul\":11342:11348   */\n      dup3\n        /* \"#utility.yul\":11337:11340   */\n      dup3\n        /* \"#utility.yul\":11330:11349   */\n      mstore\n        /* \"#utility.yul\":11382:11386   */\n      0x20\n        /* \"#utility.yul\":11377:11380   */\n      dup3\n        /* \"#utility.yul\":11373:11387   */\n      add\n        /* \"#utility.yul\":11358:11387   */\n      swap1\n      pop\n        /* \"#utility.yul\":11224:11393   */\n      swap3\n      swap2\n      pop\n      pop\n      jump\t// out\n        /* \"#utility.yul\":11399:11776   */\n    tag_75:\n        /* \"#utility.yul\":11487:11490   */\n      0x00\n        /* \"#utility.yul\":11515:11554   */\n      tag_195\n        /* \"#utility.yul\":11548:11553   */\n      dup3\n        /* \"#utility.yul\":11515:11554   */\n      tag_73\n      jump\t// in\n    tag_195:\n        /* \"#utility.yul\":11570:11641   */\n      tag_196\n        /* \"#utility.yul\":11634:11640   */\n      dup2\n        /* \"#utility.yul\":11629:11632   */\n      dup6\n        /* \"#utility.yul\":11570:11641   */\n      tag_74\n      jump\t// in\n    tag_196:\n        /* \"#utility.yul\":11563:11641   */\n      swap4\n      pop\n        /* \"#utility.yul\":11650:11715   */\n      tag_197\n        /* \"#utility.yul\":11708:11714   */\n      dup2\n        /* \"#utility.yul\":11703:11706   */\n      dup6\n        /* \"#utility.yul\":11696:11700   */\n      0x20\n        /* \"#utility.yul\":11689:11694   */\n      dup7\n        /* \"#utility.yul\":11685:11701   */\n      add\n        /* \"#utility.yul\":11650:11715   */\n      tag_53\n      jump\t// in\n    tag_197:\n        /* \"#utility.yul\":11740:11769   */\n      tag_198\n        /* \"#utility.yul\":11762:11768   */\n      dup2\n        /* \"#utility.yul\":11740:11769   */\n      tag_54\n      jump\t// in\n    tag_198:\n        /* \"#utility.yul\":11735:11738   */\n      dup5\n        /* \"#utility.yul\":11731:11770   */\n      add\n        /* \"#utility.yul\":11724:11770   */\n      swap2\n      pop\n        /* \"#utility.yul\":11491:11776   */\n      pop\n        /* \"#utility.yul\":11399:11776   */\n      swap3\n      swap2\n      pop\n      pop\n      jump\t// out\n        /* \"#utility.yul\":11782:12095   */\n    tag_33:\n        /* \"#utility.yul\":11895:11899   */\n      0x00\n        /* \"#utility.yul\":11933:11935   */\n      0x20\n        /* \"#utility.yul\":11922:11931   */\n      dup3\n        /* \"#utility.yul\":11918:11936   */\n      add\n        /* \"#utility.yul\":11910:11936   */\n      swap1\n      pop\n        /* \"#utility.yul\":11982:11991   */\n      dup2\n        /* \"#utility.yul\":11976:11980   */\n      dup2\n        /* \"#utility.yul\":11972:11992   */\n      sub\n        /* \"#utility.yul\":11968:11969   */\n      0x00\n        /* \"#utility.yul\":11957:11966   */\n      dup4\n        /* \"#utility.yul\":11953:11970   */\n      add\n        /* \"#utility.yul\":11946:11993   */\n      mstore\n        /* \"#utility.yul\":12010:12088   */\n      tag_200\n        /* \"#utility.yul\":12083:12087   */\n      dup2\n        /* \"#utility.yul\":12074:12080   */\n      dup5\n        /* \"#utility.yul\":12010:12088   */\n      tag_75\n      jump\t// in\n    tag_200:\n        /* \"#utility.yul\":12002:12088   */\n      swap1\n      pop\n        /* \"#utility.yul\":11782:12095   */\n      swap3\n      swap2\n      pop\n      pop\n      jump\t// out\n\n    auxdata: 0xa2646970667358221220d7b78b36aa1d4b001eecba8c31c66a5072eb1a947e7488c11690dbd76ff55fd864736f6c634300081e0033\n}\n",
				"bytecode": {
					"linkReferences": {},
					"object": "608060405234801561000f575f5ffd5b506040516109f93803806109f98339818101604052810190610031919061010f565b815f5f6101000a81548173ffffffffffffffffffffffffffffffffffffffff021916908373ffffffffffffffffffffffffffffffffffffffff16021790555080600181905550505061014d565b5f5ffd5b5f73ffffffffffffffffffffffffffffffffffffffff82169050919050565b5f6100ab82610082565b9050919050565b6100bb816100a1565b81146100c5575f5ffd5b50565b5f815190506100d6816100b2565b92915050565b5f819050919050565b6100ee816100dc565b81146100f8575f5ffd5b50565b5f81519050610109816100e5565b92915050565b5f5f604083850312156101255761012461007e565b5b5f610132858286016100c8565b9250506020610143858286016100fb565b9150509250929050565b61089f8061015a5f395ff3fe608060405234801561000f575f5ffd5b506004361061004a575f3560e01c80632a5ceeff1461004e5780632b7ac3f31461007e57806397eda4a01461009c578063c69b0eb1146100b8575b5f5ffd5b610068600480360381019061006391906102f5565b6100d6565b604051610075919061040b565b60405180910390f35b6100866100f5565b604051610093919061046a565b60405180910390f35b6100b660048036038101906100b19190610483565b610119565b005b6100c061025c565b6040516100cd91906105b2565b60405180910390f35b6100de610262565b82828101906100ed91906107b0565b905092915050565b5f5f9054906101000a900473ffffffffffffffffffffffffffffffffffffffff1681565b5f60405180606001604052808c8c8080601f0160208091040260200160405190810160405280939291908181526020018383808284375f81840152601f19601f8201169050808301925050505050505081526020018a8a8080601f0160208091040260200160405190810160405280939291908181526020018383808284375f81840152601f19601f82011690508083019250505050505050815260200188888080601f0160208091040260200160405190810160405280939291908181526020018383808284375f81840152601f19601f8201169050808301925050505050505081525060405160200161020e919061040b565b6040516020818303038152906040529050806040517f08c379a00000000000000000000000000000000000000000000000000000000081526004016102539190610849565b60405180910390fd5b60015481565b60405180606001604052806060815260200160608152602001606081525090565b5f604051905090565b5f5ffd5b5f5ffd5b5f5ffd5b5f5ffd5b5f5ffd5b5f5f83601f8401126102b5576102b4610294565b5b8235905067ffffffffffffffff8111156102d2576102d1610298565b5b6020830191508360018202830111156102ee576102ed61029c565b5b9250929050565b5f5f6020838503121561030b5761030a61028c565b5b5f83013567ffffffffffffffff81111561032857610327610290565b5b610334858286016102a0565b92509250509250929050565b5f81519050919050565b5f82825260208201905092915050565b8281835e5f83830152505050565b5f601f19601f8301169050919050565b5f61038282610340565b61038c818561034a565b935061039c81856020860161035a565b6103a581610368565b840191505092915050565b5f606083015f8301518482035f8601526103ca8282610378565b915050602083015184820360208601526103e48282610378565b915050604083015184820360408601526103fe8282610378565b9150508091505092915050565b5f6020820190508181035f83015261042381846103b0565b905092915050565b5f73ffffffffffffffffffffffffffffffffffffffff82169050919050565b5f6104548261042b565b9050919050565b6104648161044a565b82525050565b5f60208201905061047d5f83018461045b565b92915050565b5f5f5f5f5f5f5f5f5f5f60a08b8d0312156104a1576104a061028c565b5b5f8b013567ffffffffffffffff8111156104be576104bd610290565b5b6104ca8d828e016102a0565b9a509a505060208b013567ffffffffffffffff8111156104ed576104ec610290565b5b6104f98d828e016102a0565b985098505060408b013567ffffffffffffffff81111561051c5761051b610290565b5b6105288d828e016102a0565b965096505060608b013567ffffffffffffffff81111561054b5761054a610290565b5b6105578d828e016102a0565b945094505060808b013567ffffffffffffffff81111561057a57610579610290565b5b6105868d828e016102a0565b92509250509295989b9194979a5092959850565b5f819050919050565b6105ac8161059a565b82525050565b5f6020820190506105c55f8301846105a3565b92915050565b5f5ffd5b7f4e487b71000000000000000000000000000000000000000000000000000000005f52604160045260245ffd5b61060582610368565b810181811067ffffffffffffffff82111715610624576106236105cf565b5b80604052505050565b5f610636610283565b905061064282826105fc565b919050565b5f5ffd5b5f5ffd5b5f67ffffffffffffffff821115610669576106686105cf565b5b61067282610368565b9050602081019050919050565b828183375f83830152505050565b5f61069f61069a8461064f565b61062d565b9050828152602081018484840111156106bb576106ba61064b565b5b6106c684828561067f565b509392505050565b5f82601f8301126106e2576106e1610294565b5b81356106f284826020860161068d565b91505092915050565b5f606082840312156107105761070f6105cb565b5b61071a606061062d565b90505f82013567ffffffffffffffff81111561073957610738610647565b5b610745848285016106ce565b5f83015250602082013567ffffffffffffffff81111561076857610767610647565b5b610774848285016106ce565b602083015250604082013567ffffffffffffffff81111561079857610797610647565b5b6107a4848285016106ce565b60408301525092915050565b5f602082840312156107c5576107c461028c565b5b5f82013567ffffffffffffffff8111156107e2576107e1610290565b5b6107ee848285016106fb565b91505092915050565b5f81519050919050565b5f82825260208201905092915050565b5f61081b826107f7565b6108258185610801565b935061083581856020860161035a565b61083e81610368565b840191505092915050565b5f6020820190508181035f8301526108618184610811565b90509291505056fea2646970667358221220d7b78b36aa1d4b001eecba8c31c66a5072eb1a947e7488c11690dbd76ff55fd864736f6c634300081e0033",
					"opcodes": "PUSH1 0x80 PUSH1 0x40 MSTORE CALLVALUE DUP1 ISZERO PUSH2 0xF JUMPI PUSH0 PUSH0 REVERT JUMPDEST POP PUSH1 0x40 MLOAD PUSH2 0x9F9 CODESIZE SUB DUP1 PUSH2 0x9F9 DUP4 CODECOPY DUP2 DUP2 ADD PUSH1 0x40 MSTORE DUP2 ADD SWAP1 PUSH2 0x31 SWAP2 SWAP1 PUSH2 0x10F JUMP JUMPDEST DUP2 PUSH0 PUSH0 PUSH2 0x100 EXP DUP2 SLOAD DUP2 PUSH20 0xFFFFFFFFFFFFFFFFFFFFFFFFFFFFFFFFFFFFFFFF MUL NOT AND SWAP1 DUP4 PUSH20 0xFFFFFFFFFFFFFFFFFFFFFFFFFFFFFFFFFFFFFFFF AND MUL OR SWAP1 SSTORE POP DUP1 PUSH1 0x1 DUP2 SWAP1 SSTORE POP POP POP PUSH2 0x14D JUMP JUMPDEST PUSH0 PUSH0 REVERT JUMPDEST PUSH0 PUSH20 0xFFFFFFFFFFFFFFFFFFFFFFFFFFFFFFFFFFFFFFFF DUP3 AND SWAP1 POP SWAP2 SWAP1 POP JUMP JUMPDEST PUSH0 PUSH2 0xAB DUP3 PUSH2 0x82 JUMP JUMPDEST SWAP1 POP SWAP2 SWAP1 POP JUMP JUMPDEST PUSH2 0xBB DUP2 PUSH2 0xA1 JUMP JUMPDEST DUP2 EQ PUSH2 0xC5 JUMPI PUSH0 PUSH0 REVERT JUMPDEST POP JUMP JUMPDEST PUSH0 DUP2 MLOAD SWAP1 POP PUSH2 0xD6 DUP2 PUSH2 0xB2 JUMP JUMPDEST SWAP3 SWAP2 POP POP JUMP JUMPDEST PUSH0 DUP2 SWAP1 POP SWAP2 SWAP1 POP JUMP JUMPDEST PUSH2 0xEE DUP2 PUSH2 0xDC JUMP JUMPDEST DUP2 EQ PUSH2 0xF8 JUMPI PUSH0 PUSH0 REVERT JUMPDEST POP JUMP JUMPDEST PUSH0 DUP2 MLOAD SWAP1 POP PUSH2 0x109 DUP2 PUSH2 0xE5 JUMP JUMPDEST SWAP3 SWAP2 POP POP JUMP JUMPDEST PUSH0 PUSH0 PUSH1 0x40 DUP4 DUP6 SUB SLT ISZERO PUSH2 0x125 JUMPI PUSH2 0x124 PUSH2 0x7E JUMP JUMPDEST JUMPDEST PUSH0 PUSH2 0x132 DUP6 DUP3 DUP7 ADD PUSH2 0xC8 JUMP JUMPDEST SWAP3 POP POP PUSH1 0x20 PUSH2 0x143 DUP6 DUP3 DUP7 ADD PUSH2 0xFB JUMP JUMPDEST SWAP2 POP POP SWAP3 POP SWAP3 SWAP1 POP JUMP JUMPDEST PUSH2 0x89F DUP1 PUSH2 0x15A PUSH0 CODECOPY PUSH0 RETURN INVALID PUSH1 0x80 PUSH1 0x40 MSTORE CALLVALUE DUP1 ISZERO PUSH2 0xF JUMPI PUSH0 PUSH0 REVERT JUMPDEST POP PUSH1 0x4 CALLDATASIZE LT PUSH2 0x4A JUMPI PUSH0 CALLDATALOAD PUSH1 0xE0 SHR DUP1 PUSH4 0x2A5CEEFF EQ PUSH2 0x4E JUMPI DUP1 PUSH4 0x2B7AC3F3 EQ PUSH2 0x7E JUMPI DUP1 PUSH4 0x97EDA4A0 EQ PUSH2 0x9C JUMPI DUP1 PUSH4 0xC69B0EB1 EQ PUSH2 0xB8 JUMPI JUMPDEST PUSH0 PUSH0 REVERT JUMPDEST PUSH2 0x68 PUSH1 0x4 DUP1 CALLDATASIZE SUB DUP2 ADD SWAP1 PUSH2 0x63 SWAP2 SWAP1 PUSH2 0x2F5 JUMP JUMPDEST PUSH2 0xD6 JUMP JUMPDEST PUSH1 0x40 MLOAD PUSH2 0x75 SWAP2 SWAP1 PUSH2 0x40B JUMP JUMPDEST PUSH1 0x40 MLOAD DUP1 SWAP2 SUB SWAP1 RETURN JUMPDEST PUSH2 0x86 PUSH2 0xF5 JUMP JUMPDEST PUSH1 0x40 MLOAD PUSH2 0x93 SWAP2 SWAP1 PUSH2 0x46A JUMP JUMPDEST PUSH1 0x40 MLOAD DUP1 SWAP2 SUB SWAP1 RETURN JUMPDEST PUSH2 0xB6 PUSH1 0x4 DUP1 CALLDATASIZE SUB DUP2 ADD SWAP1 PUSH2 0xB1 SWAP2 SWAP1 PUSH2 0x483 JUMP JUMPDEST PUSH2 0x119 JUMP JUMPDEST STOP JUMPDEST PUSH2 0xC0 PUSH2 0x25C JUMP JUMPDEST PUSH1 0x40 MLOAD PUSH2 0xCD SWAP2 SWAP1 PUSH2 0x5B2 JUMP JUMPDEST PUSH1 0x40 MLOAD DUP1 SWAP2 SUB SWAP1 RETURN JUMPDEST PUSH2 0xDE PUSH2 0x262 JUMP JUMPDEST DUP3 DUP3 DUP2 ADD SWAP1 PUSH2 0xED SWAP2 SWAP1 PUSH2 0x7B0 JUMP JUMPDEST SWAP1 POP SWAP3 SWAP2 POP POP JUMP JUMPDEST PUSH0 PUSH0 SWAP1 SLOAD SWAP1 PUSH2 0x100 EXP SWAP1 DIV PUSH20 0xFFFFFFFFFFFFFFFFFFFFFFFFFFFFFFFFFFFFFFFF AND DUP2 JUMP JUMPDEST PUSH0 PUSH1 0x40 MLOAD DUP1 PUSH1 0x60 ADD PUSH1 0x40 MSTORE DUP1 DUP13 DUP13 DUP1 DUP1 PUSH1 0x1F ADD PUSH1 0x20 DUP1 SWAP2 DIV MUL PUSH1 0x20 ADD PUSH1 0x40 MLOAD SWAP1 DUP2 ADD PUSH1 0x40 MSTORE DUP1 SWAP4 SWAP3 SWAP2 SWAP1 DUP2 DUP2 MSTORE PUSH1 0x20 ADD DUP4 DUP4 DUP1 DUP3 DUP5 CALLDATACOPY PUSH0 DUP2 DUP5 ADD MSTORE PUSH1 0x1F NOT PUSH1 0x1F DUP3 ADD AND SWAP1 POP DUP1 DUP4 ADD SWAP3 POP POP POP POP POP POP POP DUP2 MSTORE PUSH1 0x20 ADD DUP11 DUP11 DUP1 DUP1 PUSH1 0x1F ADD PUSH1 0x20 DUP1 SWAP2 DIV MUL PUSH1 0x20 ADD PUSH1 0x40 MLOAD SWAP1 DUP2 ADD PUSH1 0x40 MSTORE DUP1 SWAP4 SWAP3 SWAP2 SWAP1 DUP2 DUP2 MSTORE PUSH1 0x20 ADD DUP4 DUP4 DUP1 DUP3 DUP5 CALLDATACOPY PUSH0 DUP2 DUP5 ADD MSTORE PUSH1 0x1F NOT PUSH1 0x1F DUP3 ADD AND SWAP1 POP DUP1 DUP4 ADD SWAP3 POP POP POP POP POP POP POP DUP2 MSTORE PUSH1 0x20 ADD DUP9 DUP9 DUP1 DUP1 PUSH1 0x1F ADD PUSH1 0x20 DUP1 SWAP2 DIV MUL PUSH1 0x20 ADD PUSH1 0x40 MLOAD SWAP1 DUP2 ADD PUSH1 0x40 MSTORE DUP1 SWAP4 SWAP3 SWAP2 SWAP1 DUP2 DUP2 MSTORE PUSH1 0x20 ADD DUP4 DUP4 DUP1 DUP3 DUP5 CALLDATACOPY PUSH0 DUP2 DUP5 ADD MSTORE PUSH1 0x1F NOT PUSH1 0x1F DUP3 ADD AND SWAP1 POP DUP1 DUP4 ADD SWAP3 POP POP POP POP POP POP POP DUP2 MSTORE POP PUSH1 0x40 MLOAD PUSH1 0x20 ADD PUSH2 0x20E SWAP2 SWAP1 PUSH2 0x40B JUMP JUMPDEST PUSH1 0x40 MLOAD PUSH1 0x20 DUP2 DUP4 SUB SUB DUP2 MSTORE SWAP1 PUSH1 0x40 MSTORE SWAP1 POP DUP1 PUSH1 0x40 MLOAD PUSH32 0x8C379A000000000000000000000000000000000000000000000000000000000 DUP2 MSTORE PUSH1 0x4 ADD PUSH2 0x253 SWAP2 SWAP1 PUSH2 0x849 JUMP JUMPDEST PUSH1 0x40 MLOAD DUP1 SWAP2 SUB SWAP1 REVERT JUMPDEST PUSH1 0x1 SLOAD DUP2 JUMP JUMPDEST PUSH1 0x40 MLOAD DUP1 PUSH1 0x60 ADD PUSH1 0x40 MSTORE DUP1 PUSH1 0x60 DUP2 MSTORE PUSH1 0x20 ADD PUSH1 0x60 DUP2 MSTORE PUSH1 0x20 ADD PUSH1 0x60 DUP2 MSTORE POP SWAP1 JUMP JUMPDEST PUSH0 PUSH1 0x40 MLOAD SWAP1 POP SWAP1 JUMP JUMPDEST PUSH0 PUSH0 REVERT JUMPDEST PUSH0 PUSH0 REVERT JUMPDEST PUSH0 PUSH0 REVERT JUMPDEST PUSH0 PUSH0 REVERT JUMPDEST PUSH0 PUSH0 REVERT JUMPDEST PUSH0 PUSH0 DUP4 PUSH1 0x1F DUP5 ADD SLT PUSH2 0x2B5 JUMPI PUSH2 0x2B4 PUSH2 0x294 JUMP JUMPDEST JUMPDEST DUP3 CALLDATALOAD SWAP1 POP PUSH8 0xFFFFFFFFFFFFFFFF DUP2 GT ISZERO PUSH2 0x2D2 JUMPI PUSH2 0x2D1 PUSH2 0x298 JUMP JUMPDEST JUMPDEST PUSH1 0x20 DUP4 ADD SWAP2 POP DUP4 PUSH1 0x1 DUP3 MUL DUP4 ADD GT ISZERO PUSH2 0x2EE JUMPI PUSH2 0x2ED PUSH2 0x29C JUMP JUMPDEST JUMPDEST SWAP3 POP SWAP3 SWAP1 POP JUMP JUMPDEST PUSH0 PUSH0 PUSH1 0x20 DUP4 DUP6 SUB SLT ISZERO PUSH2 0x30B JUMPI PUSH2 0x30A PUSH2 0x28C JUMP JUMPDEST JUMPDEST PUSH0 DUP4 ADD CALLDATALOAD PUSH8 0xFFFFFFFFFFFFFFFF DUP2 GT ISZERO PUSH2 0x328 JUMPI PUSH2 0x327 PUSH2 0x290 JUMP JUMPDEST JUMPDEST PUSH2 0x334 DUP6 DUP3 DUP7 ADD PUSH2 0x2A0 JUMP JUMPDEST SWAP3 POP SWAP3 POP POP SWAP3 POP SWAP3 SWAP1 POP JUMP JUMPDEST PUSH0 DUP2 MLOAD SWAP1 POP SWAP2 SWAP1 POP JUMP JUMPDEST PUSH0 DUP3 DUP3 MSTORE PUSH1 0x20 DUP3 ADD SWAP1 POP SWAP3 SWAP2 POP POP JUMP JUMPDEST DUP3 DUP2 DUP4 MCOPY PUSH0 DUP4 DUP4 ADD MSTORE POP POP POP JUMP JUMPDEST PUSH0 PUSH1 0x1F NOT PUSH1 0x1F DUP4 ADD AND SWAP1 POP SWAP2 SWAP1 POP JUMP JUMPDEST PUSH0 PUSH2 0x382 DUP3 PUSH2 0x340 JUMP JUMPDEST PUSH2 0x38C DUP2 DUP6 PUSH2 0x34A JUMP JUMPDEST SWAP4 POP PUSH2 0x39C DUP2 DUP6 PUSH1 0x20 DUP7 ADD PUSH2 0x35A JUMP JUMPDEST PUSH2 0x3A5 DUP2 PUSH2 0x368 JUMP JUMPDEST DUP5 ADD SWAP2 POP POP SWAP3 SWAP2 POP POP JUMP JUMPDEST PUSH0 PUSH1 0x60 DUP4 ADD PUSH0 DUP4 ADD MLOAD DUP5 DUP3 SUB PUSH0 DUP7 ADD MSTORE PUSH2 0x3CA DUP3 DUP3 PUSH2 0x378 JUMP JUMPDEST SWAP2 POP POP PUSH1 0x20 DUP4 ADD MLOAD DUP5 DUP3 SUB PUSH1 0x20 DUP7 ADD MSTORE PUSH2 0x3E4 DUP3 DUP3 PUSH2 0x378 JUMP JUMPDEST SWAP2 POP POP PUSH1 0x40 DUP4 ADD MLOAD DUP5 DUP3 SUB PUSH1 0x40 DUP7 ADD MSTORE PUSH2 0x3FE DUP3 DUP3 PUSH2 0x378 JUMP JUMPDEST SWAP2 POP POP DUP1 SWAP2 POP POP SWAP3 SWAP2 POP POP JUMP JUMPDEST PUSH0 PUSH1 0x20 DUP3 ADD SWAP1 POP DUP2 DUP2 SUB PUSH0 DUP4 ADD MSTORE PUSH2 0x423 DUP2 DUP5 PUSH2 0x3B0 JUMP JUMPDEST SWAP1 POP SWAP3 SWAP2 POP POP JUMP JUMPDEST PUSH0 PUSH20 0xFFFFFFFFFFFFFFFFFFFFFFFFFFFFFFFFFFFFFFFF DUP3 AND SWAP1 POP SWAP2 SWAP1 POP JUMP JUMPDEST PUSH0 PUSH2 0x454 DUP3 PUSH2 0x42B JUMP JUMPDEST SWAP1 POP SWAP2 SWAP1 POP JUMP JUMPDEST PUSH2 0x464 DUP2 PUSH2 0x44A JUMP JUMPDEST DUP3 MSTORE POP POP JUMP JUMPDEST PUSH0 PUSH1 0x20 DUP3 ADD SWAP1 POP PUSH2 0x47D PUSH0 DUP4 ADD DUP5 PUSH2 0x45B JUMP JUMPDEST SWAP3 SWAP2 POP POP JUMP JUMPDEST PUSH0 PUSH0 PUSH0 PUSH0 PUSH0 PUSH0 PUSH0 PUSH0 PUSH0 PUSH0 PUSH1 0xA0 DUP12 DUP14 SUB SLT ISZERO PUSH2 0x4A1 JUMPI PUSH2 0x4A0 PUSH2 0x28C JUMP JUMPDEST JUMPDEST PUSH0 DUP12 ADD CALLDATALOAD PUSH8 0xFFFFFFFFFFFFFFFF DUP2 GT ISZERO PUSH2 0x4BE JUMPI PUSH2 0x4BD PUSH2 0x290 JUMP JUMPDEST JUMPDEST PUSH2 0x4CA DUP14 DUP3 DUP15 ADD PUSH2 0x2A0 JUMP JUMPDEST SWAP11 POP SWAP11 POP POP PUSH1 0x20 DUP12 ADD CALLDATALOAD PUSH8 0xFFFFFFFFFFFFFFFF DUP2 GT ISZERO PUSH2 0x4ED JUMPI PUSH2 0x4EC PUSH2 0x290 JUMP JUMPDEST JUMPDEST PUSH2 0x4F9 DUP14 DUP3 DUP15 ADD PUSH2 0x2A0 JUMP JUMPDEST SWAP9 POP SWAP9 POP POP PUSH1 0x40 DUP12 ADD CALLDATALOAD PUSH8 0xFFFFFFFFFFFFFFFF DUP2 GT ISZERO PUSH2 0x51C JUMPI PUSH2 0x51B PUSH2 0x290 JUMP JUMPDEST JUMPDEST PUSH2 0x528 DUP14 DUP3 DUP15 ADD PUSH2 0x2A0 JUMP JUMPDEST SWAP7 POP SWAP7 POP POP PUSH1 0x60 DUP12 ADD CALLDATALOAD PUSH8 0xFFFFFFFFFFFFFFFF DUP2 GT ISZERO PUSH2 0x54B JUMPI PUSH2 0x54A PUSH2 0x290 JUMP JUMPDEST JUMPDEST PUSH2 0x557 DUP14 DUP3 DUP15 ADD PUSH2 0x2A0 JUMP JUMPDEST SWAP5 POP SWAP5 POP POP PUSH1 0x80 DUP12 ADD CALLDATALOAD PUSH8 0xFFFFFFFFFFFFFFFF DUP2 GT ISZERO PUSH2 0x57A JUMPI PUSH2 0x579 PUSH2 0x290 JUMP JUMPDEST JUMPDEST PUSH2 0x586 DUP14 DUP3 DUP15 ADD PUSH2 0x2A0 JUMP JUMPDEST SWAP3 POP SWAP3 POP POP SWAP3 SWAP6 SWAP9 SWAP12 SWAP2 SWAP5 SWAP8 SWAP11 POP SWAP3 SWAP6 SWAP9 POP JUMP JUMPDEST PUSH0 DUP2 SWAP1 POP SWAP2 SWAP1 POP JUMP JUMPDEST PUSH2 0x5AC DUP2 PUSH2 0x59A JUMP JUMPDEST DUP3 MSTORE POP POP JUMP JUMPDEST PUSH0 PUSH1 0x20 DUP3 ADD SWAP1 POP PUSH2 0x5C5 PUSH0 DUP4 ADD DUP5 PUSH2 0x5A3 JUMP JUMPDEST SWAP3 SWAP2 POP POP JUMP JUMPDEST PUSH0 PUSH0 REVERT JUMPDEST PUSH32 0x4E487B7100000000000000000000000000000000000000000000000000000000 PUSH0 MSTORE PUSH1 0x41 PUSH1 0x4 MSTORE PUSH1 0x24 PUSH0 REVERT JUMPDEST PUSH2 0x605 DUP3 PUSH2 0x368 JUMP JUMPDEST DUP2 ADD DUP2 DUP2 LT PUSH8 0xFFFFFFFFFFFFFFFF DUP3 GT OR ISZERO PUSH2 0x624 JUMPI PUSH2 0x623 PUSH2 0x5CF JUMP JUMPDEST JUMPDEST DUP1 PUSH1 0x40 MSTORE POP POP POP JUMP JUMPDEST PUSH0 PUSH2 0x636 PUSH2 0x283 JUMP JUMPDEST SWAP1 POP PUSH2 0x642 DUP3 DUP3 PUSH2 0x5FC JUMP JUMPDEST SWAP2 SWAP1 POP JUMP JUMPDEST PUSH0 PUSH0 REVERT JUMPDEST PUSH0 PUSH0 REVERT JUMPDEST PUSH0 PUSH8 0xFFFFFFFFFFFFFFFF DUP3 GT ISZERO PUSH2 0x669 JUMPI PUSH2 0x668 PUSH2 0x5CF JUMP JUMPDEST JUMPDEST PUSH2 0x672 DUP3 PUSH2 0x368 JUMP JUMPDEST SWAP1 POP PUSH1 0x20 DUP2 ADD SWAP1 POP SWAP2 SWAP1 POP JUMP JUMPDEST DUP3 DUP2 DUP4 CALLDATACOPY PUSH0 DUP4 DUP4 ADD MSTORE POP POP POP JUMP JUMPDEST PUSH0 PUSH2 0x69F PUSH2 0x69A DUP5 PUSH2 0x64F JUMP JUMPDEST PUSH2 0x62D JUMP JUMPDEST SWAP1 POP DUP3 DUP2 MSTORE PUSH1 0x20 DUP2 ADD DUP5 DUP5 DUP5 ADD GT ISZERO PUSH2 0x6BB JUMPI PUSH2 0x6BA PUSH2 0x64B JUMP JUMPDEST JUMPDEST PUSH2 0x6C6 DUP5 DUP3 DUP6 PUSH2 0x67F JUMP JUMPDEST POP SWAP4 SWAP3 POP POP POP JUMP JUMPDEST PUSH0 DUP3 PUSH1 0x1F DUP4 ADD SLT PUSH2 0x6E2 JUMPI PUSH2 0x6E1 PUSH2 0x294 JUMP JUMPDEST JUMPDEST DUP2 CALLDATALOAD PUSH2 0x6F2 DUP5 DUP3 PUSH1 0x20 DUP7 ADD PUSH2 0x68D JUMP JUMPDEST SWAP2 POP POP SWAP3 SWAP2 POP POP JUMP JUMPDEST PUSH0 PUSH1 0x60 DUP3 DUP5 SUB SLT ISZERO PUSH2 0x710 JUMPI PUSH2 0x70F PUSH2 0x5CB JUMP JUMPDEST JUMPDEST PUSH2 0x71A PUSH1 0x60 PUSH2 0x62D JUMP JUMPDEST SWAP1 POP PUSH0 DUP3 ADD CALLDATALOAD PUSH8 0xFFFFFFFFFFFFFFFF DUP2 GT ISZERO PUSH2 0x739 JUMPI PUSH2 0x738 PUSH2 0x647 JUMP JUMPDEST JUMPDEST PUSH2 0x745 DUP5 DUP3 DUP6 ADD PUSH2 0x6CE JUMP JUMPDEST PUSH0 DUP4 ADD MSTORE POP PUSH1 0x20 DUP3 ADD CALLDATALOAD PUSH8 0xFFFFFFFFFFFFFFFF DUP2 GT ISZERO PUSH2 0x768 JUMPI PUSH2 0x767 PUSH2 0x647 JUMP JUMPDEST JUMPDEST PUSH2 0x774 DUP5 DUP3 DUP6 ADD PUSH2 0x6CE JUMP JUMPDEST PUSH1 0x20 DUP4 ADD MSTORE POP PUSH1 0x40 DUP3 ADD CALLDATALOAD PUSH8 0xFFFFFFFFFFFFFFFF DUP2 GT ISZERO PUSH2 0x798 JUMPI PUSH2 0x797 PUSH2 0x647 JUMP JUMPDEST JUMPDEST PUSH2 0x7A4 DUP5 DUP3 DUP6 ADD PUSH2 0x6CE JUMP JUMPDEST PUSH1 0x40 DUP4 ADD MSTORE POP SWAP3 SWAP2 POP POP JUMP JUMPDEST PUSH0 PUSH1 0x20 DUP3 DUP5 SUB SLT ISZERO PUSH2 0x7C5 JUMPI PUSH2 0x7C4 PUSH2 0x28C JUMP JUMPDEST JUMPDEST PUSH0 DUP3 ADD CALLDATALOAD PUSH8 0xFFFFFFFFFFFFFFFF DUP2 GT ISZERO PUSH2 0x7E2 JUMPI PUSH2 0x7E1 PUSH2 0x290 JUMP JUMPDEST JUMPDEST PUSH2 0x7EE DUP5 DUP3 DUP6 ADD PUSH2 0x6FB JUMP JUMPDEST SWAP2 POP POP SWAP3 SWAP2 POP POP JUMP JUMPDEST PUSH0 DUP2 MLOAD SWAP1 POP SWAP2 SWAP1 POP JUMP JUMPDEST PUSH0 DUP3 DUP3 MSTORE PUSH1 0x20 DUP3 ADD SWAP1 POP SWAP3 SWAP2 POP POP JUMP JUMPDEST PUSH0 PUSH2 0x81B DUP3 PUSH2 0x7F7 JUMP JUMPDEST PUSH2 0x825 DUP2 DUP6 PUSH2 0x801 JUMP JUMPDEST SWAP4 POP PUSH2 0x835 DUP2 DUP6 PUSH1 0x20 DUP7 ADD PUSH2 0x35A JUMP JUMPDEST PUSH2 0x83E DUP2 PUSH2 0x368 JUMP JUMPDEST DUP5 ADD SWAP2 POP POP SWAP3 SWAP2 POP POP JUMP JUMPDEST PUSH0 PUSH1 0x20 DUP3 ADD SWAP1 POP DUP2 DUP2 SUB PUSH0 DUP4 ADD MSTORE PUSH2 0x861 DUP2 DUP5 PUSH2 0x811 JUMP JUMPDEST SWAP1 POP SWAP3 SWAP2 POP POP JUMP INVALID LOG2 PUSH5 0x6970667358 0x22 SLT KECCAK256 0xD7 0xB7 DUP12 CALLDATASIZE 0xAA SAR 0x4B STOP 0x1E EOFCREATE 0xBA DUP13 BALANCE 0xC6 PUSH11 0x5072EB1A947E7488C11690 0xDB 0xD7 PUSH16 0xF55FD864736F6C634300081E00330000 "
				},
				"gasEstimates": {
					"creation": {
						"codeDepositCost": "441400",
						"executionCost": "infinite",
						"totalCost": "infinite"
					},
					"external": {
						"decodePublicValues(bytes)": "infinite",
						"verifier()": "2507",
						"verifySignature(bytes,bytes,bytes,bytes,bytes)": "infinite",
						"vkey()": "2469"
					}
				},
				"methodIdentifiers": {
					"decodePublicValues(bytes)": "2a5ceeff",
					"verifier()": "2b7ac3f3",
					"verifySignature(bytes,bytes,bytes,bytes,bytes)": "97eda4a0",
					"vkey()": "c69b0eb1"
				}
			},
			"storageLayout": {
				"storage": [
					{
						"astId": 7,
						"contract": "contracts/src/SignatureVerifier.sol:SignatureVerifier",
						"label": "verifier",
						"offset": 0,
						"slot": "0",
						"type": "t_address"
					},
					{
						"astId": 10,
						"contract": "contracts/src/SignatureVerifier.sol:SignatureVerifier",
						"label": "vkey",
						"offset": 0,
						"slot": "1",
						"type": "t_bytes32"
					}
				],
				"types": {
					"t_address": {
						"encoding": "inplace",
						"label": "address",
						"numberOfBytes": "20"
					},
					"t_bytes32": {
						"encoding": "inplace",
						"label": "bytes32",
						"numberOfBytes": "32"
					}
				}
			},
			"userdoc": {
				"kind": "user",
				"methods": {
					"decodePublicValues(bytes)": {
						"notice": "Decodes the public values."
					},
					"verifier()": {
						"notice": "The address of the SP1 verifier contract."
					},
					"verifySignature(bytes,bytes,bytes,bytes,bytes)": {
						"notice": "Verifies a Secp256k1 signature proof."
					},
					"vkey()": {
						"notice": "The verification key for the Secp256k1 program."
					}
				},
				"notice": "A contract that verifies Secp256k1 signatures using SP1 zkVM.",
				"version": 1
			}
		}
	}
}