{
	"contracts/.deps/github/succinctlabs/sp1-contracts/contracts/src/v5.0.0/Groth16Verifier.sol": {
		"Groth16Verifier": {
			"abi": [
				{
					"inputs": [],
					"name": "ProofInvalid",
					"type": "error"
				},
				{
					"inputs": [],
					"name": "PublicInputNotInField",
					"type": "error"
				},
				{
					"inputs": [
						{
							"internalType": "uint256[8]",
							"name": "proof",
							"type": "uint256[8]"
						},
						{
							"internalType": "uint256[2]",
							"name": "input",
							"type": "uint256[2]"
						}
					],
					"name": "Verify",
					"outputs": [],
					"stateMutability": "view",
					"type": "function"
				},
				{
					"inputs": [
						{
							"internalType": "uint256[8]",
							"name": "proof",
							"type": "uint256[8]"
						}
					],
					"name": "compressProof",
					"outputs": [
						{
							"internalType": "uint256[4]",
							"name": "compressed",
							"type": "uint256[4]"
						}
					],
					"stateMutability": "view",
					"type": "function"
				},
				{
					"inputs": [
						{
							"internalType": "uint256[4]",
							"name": "compressedProof",
							"type": "uint256[4]"
						},
						{
							"internalType": "uint256[2]",
							"name": "input",
							"type": "uint256[2]"
						}
					],
					"name": "verifyCompressedProof",
					"outputs": [],
					"stateMutability": "view",
					"type": "function"
				}
			],
			"devdoc": {
				"author": "Remco Bloemen",
				"errors": {
					"ProofInvalid()": [
						{
							"details": "This can mean that provided Groth16 proof points are not on their curves, that pairing equation fails, or that the proof is not for the provided public input."
						}
					],
					"PublicInputNotInField()": [
						{
							"details": "Public input elements are not automatically reduced, as this is can be a dangerous source of bugs."
						}
					]
				},
				"kind": "dev",
				"methods": {
					"Verify(uint256[8],uint256[2])": {
						"params": {
							"input": "the public input field elements in the scalar field Fr. Elements must be reduced.",
							"proof": "the points (A, B, C) in EIP-197 format matching the output of compressProof."
						}
					},
					"compressProof(uint256[8])": {
						"params": {
							"proof": "The uncompressed Groth16 proof. Elements are in the same order as for verifyProof. I.e. Groth16 points (A, B, C) encoded as in EIP-197."
						},
						"returns": {
							"compressed": "The compressed proof. Elements are in the same order as for verifyCompressedProof. I.e. points (A, B, C) in compressed format."
						}
					},
					"verifyCompressedProof(uint256[4],uint256[2])": {
						"params": {
							"compressedProof": "the points (A, B, C) in compressed format matching the output of compressProof.",
							"input": "the public input field elements in the scalar field Fr. Elements must be reduced."
						}
					}
				},
				"title": "Groth16 verifier template.",
				"version": 1
			},
			"evm": {
				"assembly": "    /* \"contracts/.deps/github/succinctlabs/sp1-contracts/contracts/src/v5.0.0/Groth16Verifier.sol\":395:25510  contract Groth16Verifier {... */\n  mstore(0x40, 0x80)\n  callvalue\n  dup1\n  iszero\n  tag_1\n  jumpi\n  revert(0x00, 0x00)\ntag_1:\n  pop\n  dataSize(sub_0)\n  dup1\n  dataOffset(sub_0)\n  0x00\n  codecopy\n  0x00\n  return\nstop\n\nsub_0: assembly {\n        /* \"contracts/.deps/github/succinctlabs/sp1-contracts/contracts/src/v5.0.0/Groth16Verifier.sol\":395:25510  contract Groth16Verifier {... */\n      mstore(0x40, 0x80)\n      callvalue\n      dup1\n      iszero\n      tag_1\n      jumpi\n      revert(0x00, 0x00)\n    tag_1:\n      pop\n      jumpi(tag_2, lt(calldatasize, 0x04))\n      shr(0xe0, calldataload(0x00))\n      dup1\n      0x44f63692\n      eq\n      tag_3\n      jumpi\n      dup1\n      0xeddf243c\n      eq\n      tag_4\n      jumpi\n      dup1\n      0xf11817b2\n      eq\n      tag_5\n      jumpi\n    tag_2:\n      revert(0x00, 0x00)\n        /* \"contracts/.deps/github/succinctlabs/sp1-contracts/contracts/src/v5.0.0/Groth16Verifier.sol\":19615:19940  function compressProof(uint256[8] calldata proof)... */\n    tag_3:\n      tag_6\n      0x04\n      dup1\n      calldatasize\n      sub\n      dup2\n      add\n      swap1\n      tag_7\n      swap2\n      swap1\n      tag_8\n      jump\t// in\n    tag_7:\n      tag_9\n      jump\t// in\n    tag_6:\n      mload(0x40)\n      tag_10\n      swap2\n      swap1\n      tag_11\n      jump\t// in\n    tag_10:\n      mload(0x40)\n      dup1\n      swap2\n      sub\n      swap1\n      return\n        /* \"contracts/.deps/github/succinctlabs/sp1-contracts/contracts/src/v5.0.0/Groth16Verifier.sol\":23338:25507  function Verify(... */\n    tag_4:\n      tag_12\n      0x04\n      dup1\n      calldatasize\n      sub\n      dup2\n      add\n      swap1\n      tag_13\n      swap2\n      swap1\n      tag_14\n      jump\t// in\n    tag_13:\n      tag_15\n      jump\t// in\n    tag_12:\n      stop\n        /* \"contracts/.deps/github/succinctlabs/sp1-contracts/contracts/src/v5.0.0/Groth16Verifier.sol\":20499:22801  function verifyCompressedProof(... */\n    tag_5:\n      tag_16\n      0x04\n      dup1\n      calldatasize\n      sub\n      dup2\n      add\n      swap1\n      tag_17\n      swap2\n      swap1\n      tag_18\n      jump\t// in\n    tag_17:\n      tag_19\n      jump\t// in\n    tag_16:\n      stop\n        /* \"contracts/.deps/github/succinctlabs/sp1-contracts/contracts/src/v5.0.0/Groth16Verifier.sol\":19615:19940  function compressProof(uint256[8] calldata proof)... */\n    tag_9:\n        /* \"contracts/.deps/github/succinctlabs/sp1-contracts/contracts/src/v5.0.0/Groth16Verifier.sol\":19691:19719  uint256[4] memory compressed */\n      tag_20\n      tag_21\n      jump\t// in\n    tag_20:\n        /* \"contracts/.deps/github/succinctlabs/sp1-contracts/contracts/src/v5.0.0/Groth16Verifier.sol\":19748:19779  compress_g1(proof[0], proof[1]) */\n      tag_23\n        /* \"contracts/.deps/github/succinctlabs/sp1-contracts/contracts/src/v5.0.0/Groth16Verifier.sol\":19760:19765  proof */\n      dup3\n        /* \"contracts/.deps/github/succinctlabs/sp1-contracts/contracts/src/v5.0.0/Groth16Verifier.sol\":19766:19767  0 */\n      0x00\n        /* \"contracts/.deps/github/succinctlabs/sp1-contracts/contracts/src/v5.0.0/Groth16Verifier.sol\":19760:19768  proof[0] */\n      0x08\n      dup2\n      lt\n      tag_24\n      jumpi\n      tag_25\n      tag_26\n      jump\t// in\n    tag_25:\n    tag_24:\n      0x20\n      mul\n      add\n      calldataload\n        /* \"contracts/.deps/github/succinctlabs/sp1-contracts/contracts/src/v5.0.0/Groth16Verifier.sol\":19770:19775  proof */\n      dup4\n        /* \"contracts/.deps/github/succinctlabs/sp1-contracts/contracts/src/v5.0.0/Groth16Verifier.sol\":19776:19777  1 */\n      0x01\n        /* \"contracts/.deps/github/succinctlabs/sp1-contracts/contracts/src/v5.0.0/Groth16Verifier.sol\":19770:19778  proof[1] */\n      0x08\n      dup2\n      lt\n      tag_27\n      jumpi\n      tag_28\n      tag_26\n      jump\t// in\n    tag_28:\n    tag_27:\n      0x20\n      mul\n      add\n      calldataload\n        /* \"contracts/.deps/github/succinctlabs/sp1-contracts/contracts/src/v5.0.0/Groth16Verifier.sol\":19748:19759  compress_g1 */\n      tag_29\n        /* \"contracts/.deps/github/succinctlabs/sp1-contracts/contracts/src/v5.0.0/Groth16Verifier.sol\":19748:19779  compress_g1(proof[0], proof[1]) */\n      jump\t// in\n    tag_23:\n        /* \"contracts/.deps/github/succinctlabs/sp1-contracts/contracts/src/v5.0.0/Groth16Verifier.sol\":19732:19742  compressed */\n      dup2\n        /* \"contracts/.deps/github/succinctlabs/sp1-contracts/contracts/src/v5.0.0/Groth16Verifier.sol\":19743:19744  0 */\n      0x00\n        /* \"contracts/.deps/github/succinctlabs/sp1-contracts/contracts/src/v5.0.0/Groth16Verifier.sol\":19732:19745  compressed[0] */\n      0x04\n      dup2\n      lt\n      tag_30\n      jumpi\n      tag_31\n      tag_26\n      jump\t// in\n    tag_31:\n    tag_30:\n      0x20\n      mul\n      add\n        /* \"contracts/.deps/github/succinctlabs/sp1-contracts/contracts/src/v5.0.0/Groth16Verifier.sol\":19732:19779  compressed[0] = compress_g1(proof[0], proof[1]) */\n      dup2\n      dup2\n      mstore\n      pop\n      pop\n        /* \"contracts/.deps/github/succinctlabs/sp1-contracts/contracts/src/v5.0.0/Groth16Verifier.sol\":19823:19874  compress_g2(proof[3], proof[2], proof[5], proof[4]) */\n      tag_32\n        /* \"contracts/.deps/github/succinctlabs/sp1-contracts/contracts/src/v5.0.0/Groth16Verifier.sol\":19835:19840  proof */\n      dup3\n        /* \"contracts/.deps/github/succinctlabs/sp1-contracts/contracts/src/v5.0.0/Groth16Verifier.sol\":19841:19842  3 */\n      0x03\n        /* \"contracts/.deps/github/succinctlabs/sp1-contracts/contracts/src/v5.0.0/Groth16Verifier.sol\":19835:19843  proof[3] */\n      0x08\n      dup2\n      lt\n      tag_33\n      jumpi\n      tag_34\n      tag_26\n      jump\t// in\n    tag_34:\n    tag_33:\n      0x20\n      mul\n      add\n      calldataload\n        /* \"contracts/.deps/github/succinctlabs/sp1-contracts/contracts/src/v5.0.0/Groth16Verifier.sol\":19845:19850  proof */\n      dup4\n        /* \"contracts/.deps/github/succinctlabs/sp1-contracts/contracts/src/v5.0.0/Groth16Verifier.sol\":19851:19852  2 */\n      0x02\n        /* \"contracts/.deps/github/succinctlabs/sp1-contracts/contracts/src/v5.0.0/Groth16Verifier.sol\":19845:19853  proof[2] */\n      0x08\n      dup2\n      lt\n      tag_35\n      jumpi\n      tag_36\n      tag_26\n      jump\t// in\n    tag_36:\n    tag_35:\n      0x20\n      mul\n      add\n      calldataload\n        /* \"contracts/.deps/github/succinctlabs/sp1-contracts/contracts/src/v5.0.0/Groth16Verifier.sol\":19855:19860  proof */\n      dup5\n        /* \"contracts/.deps/github/succinctlabs/sp1-contracts/contracts/src/v5.0.0/Groth16Verifier.sol\":19861:19862  5 */\n      0x05\n        /* \"contracts/.deps/github/succinctlabs/sp1-contracts/contracts/src/v5.0.0/Groth16Verifier.sol\":19855:19863  proof[5] */\n      0x08\n      dup2\n      lt\n      tag_37\n      jumpi\n      tag_38\n      tag_26\n      jump\t// in\n    tag_38:\n    tag_37:\n      0x20\n      mul\n      add\n      calldataload\n        /* \"contracts/.deps/github/succinctlabs/sp1-contracts/contracts/src/v5.0.0/Groth16Verifier.sol\":19865:19870  proof */\n      dup6\n        /* \"contracts/.deps/github/succinctlabs/sp1-contracts/contracts/src/v5.0.0/Groth16Verifier.sol\":19871:19872  4 */\n      0x04\n        /* \"contracts/.deps/github/succinctlabs/sp1-contracts/contracts/src/v5.0.0/Groth16Verifier.sol\":19865:19873  proof[4] */\n      0x08\n      dup2\n      lt\n      tag_39\n      jumpi\n      tag_40\n      tag_26\n      jump\t// in\n    tag_40:\n    tag_39:\n      0x20\n      mul\n      add\n      calldataload\n        /* \"contracts/.deps/github/succinctlabs/sp1-contracts/contracts/src/v5.0.0/Groth16Verifier.sol\":19823:19834  compress_g2 */\n      tag_41\n        /* \"contracts/.deps/github/succinctlabs/sp1-contracts/contracts/src/v5.0.0/Groth16Verifier.sol\":19823:19874  compress_g2(proof[3], proof[2], proof[5], proof[4]) */\n      jump\t// in\n    tag_32:\n        /* \"contracts/.deps/github/succinctlabs/sp1-contracts/contracts/src/v5.0.0/Groth16Verifier.sol\":19791:19801  compressed */\n      dup3\n        /* \"contracts/.deps/github/succinctlabs/sp1-contracts/contracts/src/v5.0.0/Groth16Verifier.sol\":19802:19803  2 */\n      0x02\n        /* \"contracts/.deps/github/succinctlabs/sp1-contracts/contracts/src/v5.0.0/Groth16Verifier.sol\":19791:19804  compressed[2] */\n      0x04\n      dup2\n      lt\n      tag_42\n      jumpi\n      tag_43\n      tag_26\n      jump\t// in\n    tag_43:\n    tag_42:\n      0x20\n      mul\n      add\n        /* \"contracts/.deps/github/succinctlabs/sp1-contracts/contracts/src/v5.0.0/Groth16Verifier.sol\":19806:19816  compressed */\n      dup4\n        /* \"contracts/.deps/github/succinctlabs/sp1-contracts/contracts/src/v5.0.0/Groth16Verifier.sol\":19817:19818  1 */\n      0x01\n        /* \"contracts/.deps/github/succinctlabs/sp1-contracts/contracts/src/v5.0.0/Groth16Verifier.sol\":19806:19819  compressed[1] */\n      0x04\n      dup2\n      lt\n      tag_44\n      jumpi\n      tag_45\n      tag_26\n      jump\t// in\n    tag_45:\n    tag_44:\n      0x20\n      mul\n      add\n        /* \"contracts/.deps/github/succinctlabs/sp1-contracts/contracts/src/v5.0.0/Groth16Verifier.sol\":19790:19874  (compressed[2], compressed[1]) = compress_g2(proof[3], proof[2], proof[5], proof[4]) */\n      dup3\n      dup2\n      mstore\n      pop\n      dup3\n      dup2\n      mstore\n      pop\n      pop\n      pop\n        /* \"contracts/.deps/github/succinctlabs/sp1-contracts/contracts/src/v5.0.0/Groth16Verifier.sol\":19901:19932  compress_g1(proof[6], proof[7]) */\n      tag_46\n        /* \"contracts/.deps/github/succinctlabs/sp1-contracts/contracts/src/v5.0.0/Groth16Verifier.sol\":19913:19918  proof */\n      dup3\n        /* \"contracts/.deps/github/succinctlabs/sp1-contracts/contracts/src/v5.0.0/Groth16Verifier.sol\":19919:19920  6 */\n      0x06\n        /* \"contracts/.deps/github/succinctlabs/sp1-contracts/contracts/src/v5.0.0/Groth16Verifier.sol\":19913:19921  proof[6] */\n      0x08\n      dup2\n      lt\n      tag_47\n      jumpi\n      tag_48\n      tag_26\n      jump\t// in\n    tag_48:\n    tag_47:\n      0x20\n      mul\n      add\n      calldataload\n        /* \"contracts/.deps/github/succinctlabs/sp1-contracts/contracts/src/v5.0.0/Groth16Verifier.sol\":19923:19928  proof */\n      dup4\n        /* \"contracts/.deps/github/succinctlabs/sp1-contracts/contracts/src/v5.0.0/Groth16Verifier.sol\":19929:19930  7 */\n      0x07\n        /* \"contracts/.deps/github/succinctlabs/sp1-contracts/contracts/src/v5.0.0/Groth16Verifier.sol\":19923:19931  proof[7] */\n      0x08\n      dup2\n      lt\n      tag_49\n      jumpi\n      tag_50\n      tag_26\n      jump\t// in\n    tag_50:\n    tag_49:\n      0x20\n      mul\n      add\n      calldataload\n        /* \"contracts/.deps/github/succinctlabs/sp1-contracts/contracts/src/v5.0.0/Groth16Verifier.sol\":19901:19912  compress_g1 */\n      tag_29\n        /* \"contracts/.deps/github/succinctlabs/sp1-contracts/contracts/src/v5.0.0/Groth16Verifier.sol\":19901:19932  compress_g1(proof[6], proof[7]) */\n      jump\t// in\n    tag_46:\n        /* \"contracts/.deps/github/succinctlabs/sp1-contracts/contracts/src/v5.0.0/Groth16Verifier.sol\":19885:19895  compressed */\n      dup2\n        /* \"contracts/.deps/github/succinctlabs/sp1-contracts/contracts/src/v5.0.0/Groth16Verifier.sol\":19896:19897  3 */\n      0x03\n        /* \"contracts/.deps/github/succinctlabs/sp1-contracts/contracts/src/v5.0.0/Groth16Verifier.sol\":19885:19898  compressed[3] */\n      0x04\n      dup2\n      lt\n      tag_51\n      jumpi\n      tag_52\n      tag_26\n      jump\t// in\n    tag_52:\n    tag_51:\n      0x20\n      mul\n      add\n        /* \"contracts/.deps/github/succinctlabs/sp1-contracts/contracts/src/v5.0.0/Groth16Verifier.sol\":19885:19932  compressed[3] = compress_g1(proof[6], proof[7]) */\n      dup2\n      dup2\n      mstore\n      pop\n      pop\n        /* \"contracts/.deps/github/succinctlabs/sp1-contracts/contracts/src/v5.0.0/Groth16Verifier.sol\":19615:19940  function compressProof(uint256[8] calldata proof)... */\n      swap2\n      swap1\n      pop\n      jump\t// out\n        /* \"contracts/.deps/github/succinctlabs/sp1-contracts/contracts/src/v5.0.0/Groth16Verifier.sol\":23338:25507  function Verify(... */\n    tag_15:\n        /* \"contracts/.deps/github/succinctlabs/sp1-contracts/contracts/src/v5.0.0/Groth16Verifier.sol\":23457:23466  uint256 x */\n      0x00\n        /* \"contracts/.deps/github/succinctlabs/sp1-contracts/contracts/src/v5.0.0/Groth16Verifier.sol\":23468:23477  uint256 y */\n      0x00\n        /* \"contracts/.deps/github/succinctlabs/sp1-contracts/contracts/src/v5.0.0/Groth16Verifier.sol\":23481:23502  publicInputMSM(input) */\n      tag_54\n        /* \"contracts/.deps/github/succinctlabs/sp1-contracts/contracts/src/v5.0.0/Groth16Verifier.sol\":23496:23501  input */\n      dup4\n        /* \"contracts/.deps/github/succinctlabs/sp1-contracts/contracts/src/v5.0.0/Groth16Verifier.sol\":23481:23495  publicInputMSM */\n      tag_55\n        /* \"contracts/.deps/github/succinctlabs/sp1-contracts/contracts/src/v5.0.0/Groth16Verifier.sol\":23481:23502  publicInputMSM(input) */\n      jump\t// in\n    tag_54:\n        /* \"contracts/.deps/github/succinctlabs/sp1-contracts/contracts/src/v5.0.0/Groth16Verifier.sol\":23456:23502  (uint256 x, uint256 y) = publicInputMSM(input) */\n      swap2\n      pop\n      swap2\n      pop\n        /* \"contracts/.deps/github/succinctlabs/sp1-contracts/contracts/src/v5.0.0/Groth16Verifier.sol\":23693:23705  bool success */\n      0x00\n        /* \"contracts/.deps/github/succinctlabs/sp1-contracts/contracts/src/v5.0.0/Groth16Verifier.sol\":23771:23775  0x40 */\n      0x40\n        /* \"contracts/.deps/github/succinctlabs/sp1-contracts/contracts/src/v5.0.0/Groth16Verifier.sol\":23765:23776  mload(0x40) */\n      mload\n        /* \"contracts/.deps/github/succinctlabs/sp1-contracts/contracts/src/v5.0.0/Groth16Verifier.sol\":23987:23992  0x100 */\n      0x0100\n        /* \"contracts/.deps/github/succinctlabs/sp1-contracts/contracts/src/v5.0.0/Groth16Verifier.sol\":23980:23985  proof */\n      dup7\n        /* \"contracts/.deps/github/succinctlabs/sp1-contracts/contracts/src/v5.0.0/Groth16Verifier.sol\":23977:23978  f */\n      dup3\n        /* \"contracts/.deps/github/succinctlabs/sp1-contracts/contracts/src/v5.0.0/Groth16Verifier.sol\":23964:23993  calldatacopy(f, proof, 0x100) */\n      calldatacopy\n        /* \"contracts/.deps/github/succinctlabs/sp1-contracts/contracts/src/v5.0.0/Groth16Verifier.sol\":24301:24314  DELTA_NEG_X_1 */\n      0x1cc7cb8de715675f21f01ecc9b46d236e0865e0cc020024521998269845f74e6\n        /* \"contracts/.deps/github/succinctlabs/sp1-contracts/contracts/src/v5.0.0/Groth16Verifier.sol\":24293:24298  0x100 */\n      0x0100\n        /* \"contracts/.deps/github/succinctlabs/sp1-contracts/contracts/src/v5.0.0/Groth16Verifier.sol\":24290:24291  f */\n      dup3\n        /* \"contracts/.deps/github/succinctlabs/sp1-contracts/contracts/src/v5.0.0/Groth16Verifier.sol\":24286:24299  add(f, 0x100) */\n      add\n        /* \"contracts/.deps/github/succinctlabs/sp1-contracts/contracts/src/v5.0.0/Groth16Verifier.sol\":24279:24315  mstore(add(f, 0x100), DELTA_NEG_X_1) */\n      mstore\n        /* \"contracts/.deps/github/succinctlabs/sp1-contracts/contracts/src/v5.0.0/Groth16Verifier.sol\":24351:24364  DELTA_NEG_X_0 */\n      0x03ff41f4ba0c37fe2caf27354d28e4b8f83d3b76777a63b327d736bffb0122ed\n        /* \"contracts/.deps/github/succinctlabs/sp1-contracts/contracts/src/v5.0.0/Groth16Verifier.sol\":24343:24348  0x120 */\n      0x0120\n        /* \"contracts/.deps/github/succinctlabs/sp1-contracts/contracts/src/v5.0.0/Groth16Verifier.sol\":24340:24341  f */\n      dup3\n        /* \"contracts/.deps/github/succinctlabs/sp1-contracts/contracts/src/v5.0.0/Groth16Verifier.sol\":24336:24349  add(f, 0x120) */\n      add\n        /* \"contracts/.deps/github/succinctlabs/sp1-contracts/contracts/src/v5.0.0/Groth16Verifier.sol\":24329:24365  mstore(add(f, 0x120), DELTA_NEG_X_0) */\n      mstore\n        /* \"contracts/.deps/github/succinctlabs/sp1-contracts/contracts/src/v5.0.0/Groth16Verifier.sol\":24401:24414  DELTA_NEG_Y_1 */\n      0x01909cd7827e0278e6b60843a4abc7b111d7f8b2725cd5902a6b20da7a2938fb\n        /* \"contracts/.deps/github/succinctlabs/sp1-contracts/contracts/src/v5.0.0/Groth16Verifier.sol\":24393:24398  0x140 */\n      0x0140\n        /* \"contracts/.deps/github/succinctlabs/sp1-contracts/contracts/src/v5.0.0/Groth16Verifier.sol\":24390:24391  f */\n      dup3\n        /* \"contracts/.deps/github/succinctlabs/sp1-contracts/contracts/src/v5.0.0/Groth16Verifier.sol\":24386:24399  add(f, 0x140) */\n      add\n        /* \"contracts/.deps/github/succinctlabs/sp1-contracts/contracts/src/v5.0.0/Groth16Verifier.sol\":24379:24415  mstore(add(f, 0x140), DELTA_NEG_Y_1) */\n      mstore\n        /* \"contracts/.deps/github/succinctlabs/sp1-contracts/contracts/src/v5.0.0/Groth16Verifier.sol\":24451:24464  DELTA_NEG_Y_0 */\n      0x192bd3274441670227b4f69a44005b8711266e474227c6439ca25ca8e1ec1fc2\n        /* \"contracts/.deps/github/succinctlabs/sp1-contracts/contracts/src/v5.0.0/Groth16Verifier.sol\":24443:24448  0x160 */\n      0x0160\n        /* \"contracts/.deps/github/succinctlabs/sp1-contracts/contracts/src/v5.0.0/Groth16Verifier.sol\":24440:24441  f */\n      dup3\n        /* \"contracts/.deps/github/succinctlabs/sp1-contracts/contracts/src/v5.0.0/Groth16Verifier.sol\":24436:24449  add(f, 0x160) */\n      add\n        /* \"contracts/.deps/github/succinctlabs/sp1-contracts/contracts/src/v5.0.0/Groth16Verifier.sol\":24429:24465  mstore(add(f, 0x160), DELTA_NEG_Y_0) */\n      mstore\n        /* \"contracts/.deps/github/succinctlabs/sp1-contracts/contracts/src/v5.0.0/Groth16Verifier.sol\":24501:24508  ALPHA_X */\n      0x2d4d9aa7e302d9df41749d5507949d05dbea33fbb16c643b22f599a2be6df2e2\n        /* \"contracts/.deps/github/succinctlabs/sp1-contracts/contracts/src/v5.0.0/Groth16Verifier.sol\":24493:24498  0x180 */\n      0x0180\n        /* \"contracts/.deps/github/succinctlabs/sp1-contracts/contracts/src/v5.0.0/Groth16Verifier.sol\":24490:24491  f */\n      dup3\n        /* \"contracts/.deps/github/succinctlabs/sp1-contracts/contracts/src/v5.0.0/Groth16Verifier.sol\":24486:24499  add(f, 0x180) */\n      add\n        /* \"contracts/.deps/github/succinctlabs/sp1-contracts/contracts/src/v5.0.0/Groth16Verifier.sol\":24479:24509  mstore(add(f, 0x180), ALPHA_X) */\n      mstore\n        /* \"contracts/.deps/github/succinctlabs/sp1-contracts/contracts/src/v5.0.0/Groth16Verifier.sol\":24545:24552  ALPHA_Y */\n      0x14bedd503c37ceb061d8ec60209fe345ce89830a19230301f076caff004d1926\n        /* \"contracts/.deps/github/succinctlabs/sp1-contracts/contracts/src/v5.0.0/Groth16Verifier.sol\":24537:24542  0x1a0 */\n      0x01a0\n        /* \"contracts/.deps/github/succinctlabs/sp1-contracts/contracts/src/v5.0.0/Groth16Verifier.sol\":24534:24535  f */\n      dup3\n        /* \"contracts/.deps/github/succinctlabs/sp1-contracts/contracts/src/v5.0.0/Groth16Verifier.sol\":24530:24543  add(f, 0x1a0) */\n      add\n        /* \"contracts/.deps/github/succinctlabs/sp1-contracts/contracts/src/v5.0.0/Groth16Verifier.sol\":24523:24553  mstore(add(f, 0x1a0), ALPHA_Y) */\n      mstore\n        /* \"contracts/.deps/github/succinctlabs/sp1-contracts/contracts/src/v5.0.0/Groth16Verifier.sol\":24589:24601  BETA_NEG_X_1 */\n      0x0967032fcbf776d1afc985f88877f182d38480a653f2decaa9794cbc3bf3060c\n        /* \"contracts/.deps/github/succinctlabs/sp1-contracts/contracts/src/v5.0.0/Groth16Verifier.sol\":24581:24586  0x1c0 */\n      0x01c0\n        /* \"contracts/.deps/github/succinctlabs/sp1-contracts/contracts/src/v5.0.0/Groth16Verifier.sol\":24578:24579  f */\n      dup3\n        /* \"contracts/.deps/github/succinctlabs/sp1-contracts/contracts/src/v5.0.0/Groth16Verifier.sol\":24574:24587  add(f, 0x1c0) */\n      add\n        /* \"contracts/.deps/github/succinctlabs/sp1-contracts/contracts/src/v5.0.0/Groth16Verifier.sol\":24567:24602  mstore(add(f, 0x1c0), BETA_NEG_X_1) */\n      mstore\n        /* \"contracts/.deps/github/succinctlabs/sp1-contracts/contracts/src/v5.0.0/Groth16Verifier.sol\":24638:24650  BETA_NEG_X_0 */\n      0x0e187847ad4c798374d0d6732bf501847dd68bc0e071241e0213bc7fc13db7ab\n        /* \"contracts/.deps/github/succinctlabs/sp1-contracts/contracts/src/v5.0.0/Groth16Verifier.sol\":24630:24635  0x1e0 */\n      0x01e0\n        /* \"contracts/.deps/github/succinctlabs/sp1-contracts/contracts/src/v5.0.0/Groth16Verifier.sol\":24627:24628  f */\n      dup3\n        /* \"contracts/.deps/github/succinctlabs/sp1-contracts/contracts/src/v5.0.0/Groth16Verifier.sol\":24623:24636  add(f, 0x1e0) */\n      add\n        /* \"contracts/.deps/github/succinctlabs/sp1-contracts/contracts/src/v5.0.0/Groth16Verifier.sol\":24616:24651  mstore(add(f, 0x1e0), BETA_NEG_X_0) */\n      mstore\n        /* \"contracts/.deps/github/succinctlabs/sp1-contracts/contracts/src/v5.0.0/Groth16Verifier.sol\":24687:24699  BETA_NEG_Y_1 */\n      0x1752a100a72fdf1e5a5d6ea841cc20ec838bccfcf7bd559e79f1c9c759b6a0\n        /* \"contracts/.deps/github/succinctlabs/sp1-contracts/contracts/src/v5.0.0/Groth16Verifier.sol\":24679:24684  0x200 */\n      0x0200\n        /* \"contracts/.deps/github/succinctlabs/sp1-contracts/contracts/src/v5.0.0/Groth16Verifier.sol\":24676:24677  f */\n      dup3\n        /* \"contracts/.deps/github/succinctlabs/sp1-contracts/contracts/src/v5.0.0/Groth16Verifier.sol\":24672:24685  add(f, 0x200) */\n      add\n        /* \"contracts/.deps/github/succinctlabs/sp1-contracts/contracts/src/v5.0.0/Groth16Verifier.sol\":24665:24700  mstore(add(f, 0x200), BETA_NEG_Y_1) */\n      mstore\n        /* \"contracts/.deps/github/succinctlabs/sp1-contracts/contracts/src/v5.0.0/Groth16Verifier.sol\":24736:24748  BETA_NEG_Y_0 */\n      0x192a8cc13cd9f762871f21e43451c6ca9eeab2cb2987c4e366a185c25dac2e7f\n        /* \"contracts/.deps/github/succinctlabs/sp1-contracts/contracts/src/v5.0.0/Groth16Verifier.sol\":24728:24733  0x220 */\n      0x0220\n        /* \"contracts/.deps/github/succinctlabs/sp1-contracts/contracts/src/v5.0.0/Groth16Verifier.sol\":24725:24726  f */\n      dup3\n        /* \"contracts/.deps/github/succinctlabs/sp1-contracts/contracts/src/v5.0.0/Groth16Verifier.sol\":24721:24734  add(f, 0x220) */\n      add\n        /* \"contracts/.deps/github/succinctlabs/sp1-contracts/contracts/src/v5.0.0/Groth16Verifier.sol\":24714:24749  mstore(add(f, 0x220), BETA_NEG_Y_0) */\n      mstore\n        /* \"contracts/.deps/github/succinctlabs/sp1-contracts/contracts/src/v5.0.0/Groth16Verifier.sol\":24785:24786  x */\n      dup4\n        /* \"contracts/.deps/github/succinctlabs/sp1-contracts/contracts/src/v5.0.0/Groth16Verifier.sol\":24777:24782  0x240 */\n      0x0240\n        /* \"contracts/.deps/github/succinctlabs/sp1-contracts/contracts/src/v5.0.0/Groth16Verifier.sol\":24774:24775  f */\n      dup3\n        /* \"contracts/.deps/github/succinctlabs/sp1-contracts/contracts/src/v5.0.0/Groth16Verifier.sol\":24770:24783  add(f, 0x240) */\n      add\n        /* \"contracts/.deps/github/succinctlabs/sp1-contracts/contracts/src/v5.0.0/Groth16Verifier.sol\":24763:24787  mstore(add(f, 0x240), x) */\n      mstore\n        /* \"contracts/.deps/github/succinctlabs/sp1-contracts/contracts/src/v5.0.0/Groth16Verifier.sol\":24823:24824  y */\n      dup3\n        /* \"contracts/.deps/github/succinctlabs/sp1-contracts/contracts/src/v5.0.0/Groth16Verifier.sol\":24815:24820  0x260 */\n      0x0260\n        /* \"contracts/.deps/github/succinctlabs/sp1-contracts/contracts/src/v5.0.0/Groth16Verifier.sol\":24812:24813  f */\n      dup3\n        /* \"contracts/.deps/github/succinctlabs/sp1-contracts/contracts/src/v5.0.0/Groth16Verifier.sol\":24808:24821  add(f, 0x260) */\n      add\n        /* \"contracts/.deps/github/succinctlabs/sp1-contracts/contracts/src/v5.0.0/Groth16Verifier.sol\":24801:24825  mstore(add(f, 0x260), y) */\n      mstore\n        /* \"contracts/.deps/github/succinctlabs/sp1-contracts/contracts/src/v5.0.0/Groth16Verifier.sol\":24861:24874  GAMMA_NEG_X_1 */\n      0x198e9393920d483a7260bfb731fb5d25f1aa493335a9e71297e485b7aef312c2\n        /* \"contracts/.deps/github/succinctlabs/sp1-contracts/contracts/src/v5.0.0/Groth16Verifier.sol\":24853:24858  0x280 */\n      0x0280\n        /* \"contracts/.deps/github/succinctlabs/sp1-contracts/contracts/src/v5.0.0/Groth16Verifier.sol\":24850:24851  f */\n      dup3\n        /* \"contracts/.deps/github/succinctlabs/sp1-contracts/contracts/src/v5.0.0/Groth16Verifier.sol\":24846:24859  add(f, 0x280) */\n      add\n        /* \"contracts/.deps/github/succinctlabs/sp1-contracts/contracts/src/v5.0.0/Groth16Verifier.sol\":24839:24875  mstore(add(f, 0x280), GAMMA_NEG_X_1) */\n      mstore\n        /* \"contracts/.deps/github/succinctlabs/sp1-contracts/contracts/src/v5.0.0/Groth16Verifier.sol\":24911:24924  GAMMA_NEG_X_0 */\n      0x1800deef121f1e76426a00665e5c4479674322d4f75edadd46debd5cd992f6ed\n        /* \"contracts/.deps/github/succinctlabs/sp1-contracts/contracts/src/v5.0.0/Groth16Verifier.sol\":24903:24908  0x2a0 */\n      0x02a0\n        /* \"contracts/.deps/github/succinctlabs/sp1-contracts/contracts/src/v5.0.0/Groth16Verifier.sol\":24900:24901  f */\n      dup3\n        /* \"contracts/.deps/github/succinctlabs/sp1-contracts/contracts/src/v5.0.0/Groth16Verifier.sol\":24896:24909  add(f, 0x2a0) */\n      add\n        /* \"contracts/.deps/github/succinctlabs/sp1-contracts/contracts/src/v5.0.0/Groth16Verifier.sol\":24889:24925  mstore(add(f, 0x2a0), GAMMA_NEG_X_0) */\n      mstore\n        /* \"contracts/.deps/github/succinctlabs/sp1-contracts/contracts/src/v5.0.0/Groth16Verifier.sol\":24961:24974  GAMMA_NEG_Y_1 */\n      0x275dc4a288d1afb3cbb1ac09187524c7db36395df7be3b99e673b13a075a65ec\n        /* \"contracts/.deps/github/succinctlabs/sp1-contracts/contracts/src/v5.0.0/Groth16Verifier.sol\":24953:24958  0x2c0 */\n      0x02c0\n        /* \"contracts/.deps/github/succinctlabs/sp1-contracts/contracts/src/v5.0.0/Groth16Verifier.sol\":24950:24951  f */\n      dup3\n        /* \"contracts/.deps/github/succinctlabs/sp1-contracts/contracts/src/v5.0.0/Groth16Verifier.sol\":24946:24959  add(f, 0x2c0) */\n      add\n        /* \"contracts/.deps/github/succinctlabs/sp1-contracts/contracts/src/v5.0.0/Groth16Verifier.sol\":24939:24975  mstore(add(f, 0x2c0), GAMMA_NEG_Y_1) */\n      mstore\n        /* \"contracts/.deps/github/succinctlabs/sp1-contracts/contracts/src/v5.0.0/Groth16Verifier.sol\":25011:25024  GAMMA_NEG_Y_0 */\n      0x1d9befcd05a5323e6da4d435f3b617cdb3af83285c2df711ef39c01571827f9d\n        /* \"contracts/.deps/github/succinctlabs/sp1-contracts/contracts/src/v5.0.0/Groth16Verifier.sol\":25003:25008  0x2e0 */\n      0x02e0\n        /* \"contracts/.deps/github/succinctlabs/sp1-contracts/contracts/src/v5.0.0/Groth16Verifier.sol\":25000:25001  f */\n      dup3\n        /* \"contracts/.deps/github/succinctlabs/sp1-contracts/contracts/src/v5.0.0/Groth16Verifier.sol\":24996:25009  add(f, 0x2e0) */\n      add\n        /* \"contracts/.deps/github/succinctlabs/sp1-contracts/contracts/src/v5.0.0/Groth16Verifier.sol\":24989:25025  mstore(add(f, 0x2e0), GAMMA_NEG_Y_0) */\n      mstore\n        /* \"contracts/.deps/github/succinctlabs/sp1-contracts/contracts/src/v5.0.0/Groth16Verifier.sol\":25142:25146  0x20 */\n      0x20\n        /* \"contracts/.deps/github/succinctlabs/sp1-contracts/contracts/src/v5.0.0/Groth16Verifier.sol\":25139:25140  f */\n      dup2\n        /* \"contracts/.deps/github/succinctlabs/sp1-contracts/contracts/src/v5.0.0/Groth16Verifier.sol\":25132:25137  0x300 */\n      0x0300\n        /* \"contracts/.deps/github/succinctlabs/sp1-contracts/contracts/src/v5.0.0/Groth16Verifier.sol\":25129:25130  f */\n      dup4\n        /* \"contracts/.deps/github/succinctlabs/sp1-contracts/contracts/src/v5.0.0/Groth16Verifier.sol\":25110:25127  PRECOMPILE_VERIFY */\n      0x08\n        /* \"contracts/.deps/github/succinctlabs/sp1-contracts/contracts/src/v5.0.0/Groth16Verifier.sol\":25103:25108  gas() */\n      gas\n        /* \"contracts/.deps/github/succinctlabs/sp1-contracts/contracts/src/v5.0.0/Groth16Verifier.sol\":25092:25147  staticcall(gas(), PRECOMPILE_VERIFY, f, 0x300, f, 0x20) */\n      staticcall\n        /* \"contracts/.deps/github/succinctlabs/sp1-contracts/contracts/src/v5.0.0/Groth16Verifier.sol\":25081:25147  success := staticcall(gas(), PRECOMPILE_VERIFY, f, 0x300, f, 0x20) */\n      swap2\n      pop\n        /* \"contracts/.deps/github/succinctlabs/sp1-contracts/contracts/src/v5.0.0/Groth16Verifier.sol\":25259:25260  f */\n      dup1\n        /* \"contracts/.deps/github/succinctlabs/sp1-contracts/contracts/src/v5.0.0/Groth16Verifier.sol\":25253:25261  mload(f) */\n      mload\n        /* \"contracts/.deps/github/succinctlabs/sp1-contracts/contracts/src/v5.0.0/Groth16Verifier.sol\":25244:25251  success */\n      dup3\n        /* \"contracts/.deps/github/succinctlabs/sp1-contracts/contracts/src/v5.0.0/Groth16Verifier.sol\":25240:25262  and(success, mload(f)) */\n      and\n        /* \"contracts/.deps/github/succinctlabs/sp1-contracts/contracts/src/v5.0.0/Groth16Verifier.sol\":25229:25262  success := and(success, mload(f)) */\n      swap2\n      pop\n        /* \"contracts/.deps/github/succinctlabs/sp1-contracts/contracts/src/v5.0.0/Groth16Verifier.sol\":23741:25273  {... */\n      pop\n        /* \"contracts/.deps/github/succinctlabs/sp1-contracts/contracts/src/v5.0.0/Groth16Verifier.sol\":25288:25295  success */\n      dup1\n        /* \"contracts/.deps/github/succinctlabs/sp1-contracts/contracts/src/v5.0.0/Groth16Verifier.sol\":25283:25500  if (!success) {... */\n      tag_56\n      jumpi\n        /* \"contracts/.deps/github/succinctlabs/sp1-contracts/contracts/src/v5.0.0/Groth16Verifier.sol\":25474:25488  ProofInvalid() */\n      mload(0x40)\n      0x7fcdd1f400000000000000000000000000000000000000000000000000000000\n      dup2\n      mstore\n      0x04\n      add\n      mload(0x40)\n      dup1\n      swap2\n      sub\n      swap1\n      revert\n        /* \"contracts/.deps/github/succinctlabs/sp1-contracts/contracts/src/v5.0.0/Groth16Verifier.sol\":25283:25500  if (!success) {... */\n    tag_56:\n        /* \"contracts/.deps/github/succinctlabs/sp1-contracts/contracts/src/v5.0.0/Groth16Verifier.sol\":23445:25507  {... */\n      pop\n      pop\n      pop\n        /* \"contracts/.deps/github/succinctlabs/sp1-contracts/contracts/src/v5.0.0/Groth16Verifier.sol\":23338:25507  function Verify(... */\n      pop\n      pop\n      jump\t// out\n        /* \"contracts/.deps/github/succinctlabs/sp1-contracts/contracts/src/v5.0.0/Groth16Verifier.sol\":20499:22801  function verifyCompressedProof(... */\n    tag_19:\n        /* \"contracts/.deps/github/succinctlabs/sp1-contracts/contracts/src/v5.0.0/Groth16Verifier.sol\":20642:20669  uint256[24] memory pairings */\n      tag_58\n      tag_59\n      jump\t// in\n    tag_58:\n        /* \"contracts/.deps/github/succinctlabs/sp1-contracts/contracts/src/v5.0.0/Groth16Verifier.sol\":20698:20708  uint256 Ax */\n      0x00\n        /* \"contracts/.deps/github/succinctlabs/sp1-contracts/contracts/src/v5.0.0/Groth16Verifier.sol\":20710:20720  uint256 Ay */\n      0x00\n        /* \"contracts/.deps/github/succinctlabs/sp1-contracts/contracts/src/v5.0.0/Groth16Verifier.sol\":20724:20757  decompress_g1(compressedProof[0]) */\n      tag_60\n        /* \"contracts/.deps/github/succinctlabs/sp1-contracts/contracts/src/v5.0.0/Groth16Verifier.sol\":20738:20753  compressedProof */\n      dup6\n        /* \"contracts/.deps/github/succinctlabs/sp1-contracts/contracts/src/v5.0.0/Groth16Verifier.sol\":20754:20755  0 */\n      0x00\n        /* \"contracts/.deps/github/succinctlabs/sp1-contracts/contracts/src/v5.0.0/Groth16Verifier.sol\":20738:20756  compressedProof[0] */\n      0x04\n      dup2\n      lt\n      tag_61\n      jumpi\n      tag_62\n      tag_26\n      jump\t// in\n    tag_62:\n    tag_61:\n      0x20\n      mul\n      add\n      calldataload\n        /* \"contracts/.deps/github/succinctlabs/sp1-contracts/contracts/src/v5.0.0/Groth16Verifier.sol\":20724:20737  decompress_g1 */\n      tag_63\n        /* \"contracts/.deps/github/succinctlabs/sp1-contracts/contracts/src/v5.0.0/Groth16Verifier.sol\":20724:20757  decompress_g1(compressedProof[0]) */\n      jump\t// in\n    tag_60:\n        /* \"contracts/.deps/github/succinctlabs/sp1-contracts/contracts/src/v5.0.0/Groth16Verifier.sol\":20697:20757  (uint256 Ax, uint256 Ay) = decompress_g1(compressedProof[0]) */\n      swap2\n      pop\n      swap2\n      pop\n        /* \"contracts/.deps/github/succinctlabs/sp1-contracts/contracts/src/v5.0.0/Groth16Verifier.sol\":20773:20784  uint256 Bx0 */\n      0x00\n        /* \"contracts/.deps/github/succinctlabs/sp1-contracts/contracts/src/v5.0.0/Groth16Verifier.sol\":20786:20797  uint256 Bx1 */\n      0x00\n        /* \"contracts/.deps/github/succinctlabs/sp1-contracts/contracts/src/v5.0.0/Groth16Verifier.sol\":20799:20810  uint256 By0 */\n      0x00\n        /* \"contracts/.deps/github/succinctlabs/sp1-contracts/contracts/src/v5.0.0/Groth16Verifier.sol\":20812:20823  uint256 By1 */\n      0x00\n        /* \"contracts/.deps/github/succinctlabs/sp1-contracts/contracts/src/v5.0.0/Groth16Verifier.sol\":20827:20880  decompress_g2(compressedProof[2], compressedProof[1]) */\n      tag_64\n        /* \"contracts/.deps/github/succinctlabs/sp1-contracts/contracts/src/v5.0.0/Groth16Verifier.sol\":20841:20856  compressedProof */\n      dup10\n        /* \"contracts/.deps/github/succinctlabs/sp1-contracts/contracts/src/v5.0.0/Groth16Verifier.sol\":20857:20858  2 */\n      0x02\n        /* \"contracts/.deps/github/succinctlabs/sp1-contracts/contracts/src/v5.0.0/Groth16Verifier.sol\":20841:20859  compressedProof[2] */\n      0x04\n      dup2\n      lt\n      tag_65\n      jumpi\n      tag_66\n      tag_26\n      jump\t// in\n    tag_66:\n    tag_65:\n      0x20\n      mul\n      add\n      calldataload\n        /* \"contracts/.deps/github/succinctlabs/sp1-contracts/contracts/src/v5.0.0/Groth16Verifier.sol\":20861:20876  compressedProof */\n      dup11\n        /* \"contracts/.deps/github/succinctlabs/sp1-contracts/contracts/src/v5.0.0/Groth16Verifier.sol\":20877:20878  1 */\n      0x01\n        /* \"contracts/.deps/github/succinctlabs/sp1-contracts/contracts/src/v5.0.0/Groth16Verifier.sol\":20861:20879  compressedProof[1] */\n      0x04\n      dup2\n      lt\n      tag_67\n      jumpi\n      tag_68\n      tag_26\n      jump\t// in\n    tag_68:\n    tag_67:\n      0x20\n      mul\n      add\n      calldataload\n        /* \"contracts/.deps/github/succinctlabs/sp1-contracts/contracts/src/v5.0.0/Groth16Verifier.sol\":20827:20840  decompress_g2 */\n      tag_69\n        /* \"contracts/.deps/github/succinctlabs/sp1-contracts/contracts/src/v5.0.0/Groth16Verifier.sol\":20827:20880  decompress_g2(compressedProof[2], compressedProof[1]) */\n      jump\t// in\n    tag_64:\n        /* \"contracts/.deps/github/succinctlabs/sp1-contracts/contracts/src/v5.0.0/Groth16Verifier.sol\":20772:20880  (uint256 Bx0, uint256 Bx1, uint256 By0, uint256 By1) = decompress_g2(compressedProof[2], compressedProof[1]) */\n      swap4\n      pop\n      swap4\n      pop\n      swap4\n      pop\n      swap4\n      pop\n        /* \"contracts/.deps/github/succinctlabs/sp1-contracts/contracts/src/v5.0.0/Groth16Verifier.sol\":20896:20906  uint256 Cx */\n      0x00\n        /* \"contracts/.deps/github/succinctlabs/sp1-contracts/contracts/src/v5.0.0/Groth16Verifier.sol\":20908:20918  uint256 Cy */\n      0x00\n        /* \"contracts/.deps/github/succinctlabs/sp1-contracts/contracts/src/v5.0.0/Groth16Verifier.sol\":20922:20955  decompress_g1(compressedProof[3]) */\n      tag_70\n        /* \"contracts/.deps/github/succinctlabs/sp1-contracts/contracts/src/v5.0.0/Groth16Verifier.sol\":20936:20951  compressedProof */\n      dup12\n        /* \"contracts/.deps/github/succinctlabs/sp1-contracts/contracts/src/v5.0.0/Groth16Verifier.sol\":20952:20953  3 */\n      0x03\n        /* \"contracts/.deps/github/succinctlabs/sp1-contracts/contracts/src/v5.0.0/Groth16Verifier.sol\":20936:20954  compressedProof[3] */\n      0x04\n      dup2\n      lt\n      tag_71\n      jumpi\n      tag_72\n      tag_26\n      jump\t// in\n    tag_72:\n    tag_71:\n      0x20\n      mul\n      add\n      calldataload\n        /* \"contracts/.deps/github/succinctlabs/sp1-contracts/contracts/src/v5.0.0/Groth16Verifier.sol\":20922:20935  decompress_g1 */\n      tag_63\n        /* \"contracts/.deps/github/succinctlabs/sp1-contracts/contracts/src/v5.0.0/Groth16Verifier.sol\":20922:20955  decompress_g1(compressedProof[3]) */\n      jump\t// in\n    tag_70:\n        /* \"contracts/.deps/github/succinctlabs/sp1-contracts/contracts/src/v5.0.0/Groth16Verifier.sol\":20895:20955  (uint256 Cx, uint256 Cy) = decompress_g1(compressedProof[3]) */\n      swap2\n      pop\n      swap2\n      pop\n        /* \"contracts/.deps/github/succinctlabs/sp1-contracts/contracts/src/v5.0.0/Groth16Verifier.sol\":20971:20981  uint256 Lx */\n      0x00\n        /* \"contracts/.deps/github/succinctlabs/sp1-contracts/contracts/src/v5.0.0/Groth16Verifier.sol\":20983:20993  uint256 Ly */\n      0x00\n        /* \"contracts/.deps/github/succinctlabs/sp1-contracts/contracts/src/v5.0.0/Groth16Verifier.sol\":20997:21018  publicInputMSM(input) */\n      tag_73\n        /* \"contracts/.deps/github/succinctlabs/sp1-contracts/contracts/src/v5.0.0/Groth16Verifier.sol\":21012:21017  input */\n      dup13\n        /* \"contracts/.deps/github/succinctlabs/sp1-contracts/contracts/src/v5.0.0/Groth16Verifier.sol\":20997:21011  publicInputMSM */\n      tag_55\n        /* \"contracts/.deps/github/succinctlabs/sp1-contracts/contracts/src/v5.0.0/Groth16Verifier.sol\":20997:21018  publicInputMSM(input) */\n      jump\t// in\n    tag_73:\n        /* \"contracts/.deps/github/succinctlabs/sp1-contracts/contracts/src/v5.0.0/Groth16Verifier.sol\":20970:21018  (uint256 Lx, uint256 Ly) = publicInputMSM(input) */\n      swap2\n      pop\n      swap2\n      pop\n        /* \"contracts/.deps/github/succinctlabs/sp1-contracts/contracts/src/v5.0.0/Groth16Verifier.sol\":21295:21297  Ax */\n      dup10\n        /* \"contracts/.deps/github/succinctlabs/sp1-contracts/contracts/src/v5.0.0/Groth16Verifier.sol\":21280:21288  pairings */\n      dup12\n        /* \"contracts/.deps/github/succinctlabs/sp1-contracts/contracts/src/v5.0.0/Groth16Verifier.sol\":21290:21291  0 */\n      0x00\n        /* \"contracts/.deps/github/succinctlabs/sp1-contracts/contracts/src/v5.0.0/Groth16Verifier.sol\":21280:21292  pairings[ 0] */\n      0x18\n      dup2\n      lt\n      tag_74\n      jumpi\n      tag_75\n      tag_26\n      jump\t// in\n    tag_75:\n    tag_74:\n      0x20\n      mul\n      add\n        /* \"contracts/.deps/github/succinctlabs/sp1-contracts/contracts/src/v5.0.0/Groth16Verifier.sol\":21280:21297  pairings[ 0] = Ax */\n      dup2\n      dup2\n      mstore\n      pop\n      pop\n        /* \"contracts/.deps/github/succinctlabs/sp1-contracts/contracts/src/v5.0.0/Groth16Verifier.sol\":21327:21329  Ay */\n      dup9\n        /* \"contracts/.deps/github/succinctlabs/sp1-contracts/contracts/src/v5.0.0/Groth16Verifier.sol\":21312:21320  pairings */\n      dup12\n        /* \"contracts/.deps/github/succinctlabs/sp1-contracts/contracts/src/v5.0.0/Groth16Verifier.sol\":21322:21323  1 */\n      0x01\n        /* \"contracts/.deps/github/succinctlabs/sp1-contracts/contracts/src/v5.0.0/Groth16Verifier.sol\":21312:21324  pairings[ 1] */\n      0x18\n      dup2\n      lt\n      tag_76\n      jumpi\n      tag_77\n      tag_26\n      jump\t// in\n    tag_77:\n    tag_76:\n      0x20\n      mul\n      add\n        /* \"contracts/.deps/github/succinctlabs/sp1-contracts/contracts/src/v5.0.0/Groth16Verifier.sol\":21312:21329  pairings[ 1] = Ay */\n      dup2\n      dup2\n      mstore\n      pop\n      pop\n        /* \"contracts/.deps/github/succinctlabs/sp1-contracts/contracts/src/v5.0.0/Groth16Verifier.sol\":21359:21362  Bx1 */\n      dup7\n        /* \"contracts/.deps/github/succinctlabs/sp1-contracts/contracts/src/v5.0.0/Groth16Verifier.sol\":21344:21352  pairings */\n      dup12\n        /* \"contracts/.deps/github/succinctlabs/sp1-contracts/contracts/src/v5.0.0/Groth16Verifier.sol\":21354:21355  2 */\n      0x02\n        /* \"contracts/.deps/github/succinctlabs/sp1-contracts/contracts/src/v5.0.0/Groth16Verifier.sol\":21344:21356  pairings[ 2] */\n      0x18\n      dup2\n      lt\n      tag_78\n      jumpi\n      tag_79\n      tag_26\n      jump\t// in\n    tag_79:\n    tag_78:\n      0x20\n      mul\n      add\n        /* \"contracts/.deps/github/succinctlabs/sp1-contracts/contracts/src/v5.0.0/Groth16Verifier.sol\":21344:21362  pairings[ 2] = Bx1 */\n      dup2\n      dup2\n      mstore\n      pop\n      pop\n        /* \"contracts/.deps/github/succinctlabs/sp1-contracts/contracts/src/v5.0.0/Groth16Verifier.sol\":21392:21395  Bx0 */\n      dup8\n        /* \"contracts/.deps/github/succinctlabs/sp1-contracts/contracts/src/v5.0.0/Groth16Verifier.sol\":21377:21385  pairings */\n      dup12\n        /* \"contracts/.deps/github/succinctlabs/sp1-contracts/contracts/src/v5.0.0/Groth16Verifier.sol\":21387:21388  3 */\n      0x03\n        /* \"contracts/.deps/github/succinctlabs/sp1-contracts/contracts/src/v5.0.0/Groth16Verifier.sol\":21377:21389  pairings[ 3] */\n      0x18\n      dup2\n      lt\n      tag_80\n      jumpi\n      tag_81\n      tag_26\n      jump\t// in\n    tag_81:\n    tag_80:\n      0x20\n      mul\n      add\n        /* \"contracts/.deps/github/succinctlabs/sp1-contracts/contracts/src/v5.0.0/Groth16Verifier.sol\":21377:21395  pairings[ 3] = Bx0 */\n      dup2\n      dup2\n      mstore\n      pop\n      pop\n        /* \"contracts/.deps/github/succinctlabs/sp1-contracts/contracts/src/v5.0.0/Groth16Verifier.sol\":21425:21428  By1 */\n      dup5\n        /* \"contracts/.deps/github/succinctlabs/sp1-contracts/contracts/src/v5.0.0/Groth16Verifier.sol\":21410:21418  pairings */\n      dup12\n        /* \"contracts/.deps/github/succinctlabs/sp1-contracts/contracts/src/v5.0.0/Groth16Verifier.sol\":21420:21421  4 */\n      0x04\n        /* \"contracts/.deps/github/succinctlabs/sp1-contracts/contracts/src/v5.0.0/Groth16Verifier.sol\":21410:21422  pairings[ 4] */\n      0x18\n      dup2\n      lt\n      tag_82\n      jumpi\n      tag_83\n      tag_26\n      jump\t// in\n    tag_83:\n    tag_82:\n      0x20\n      mul\n      add\n        /* \"contracts/.deps/github/succinctlabs/sp1-contracts/contracts/src/v5.0.0/Groth16Verifier.sol\":21410:21428  pairings[ 4] = By1 */\n      dup2\n      dup2\n      mstore\n      pop\n      pop\n        /* \"contracts/.deps/github/succinctlabs/sp1-contracts/contracts/src/v5.0.0/Groth16Verifier.sol\":21458:21461  By0 */\n      dup6\n        /* \"contracts/.deps/github/succinctlabs/sp1-contracts/contracts/src/v5.0.0/Groth16Verifier.sol\":21443:21451  pairings */\n      dup12\n        /* \"contracts/.deps/github/succinctlabs/sp1-contracts/contracts/src/v5.0.0/Groth16Verifier.sol\":21453:21454  5 */\n      0x05\n        /* \"contracts/.deps/github/succinctlabs/sp1-contracts/contracts/src/v5.0.0/Groth16Verifier.sol\":21443:21455  pairings[ 5] */\n      0x18\n      dup2\n      lt\n      tag_84\n      jumpi\n      tag_85\n      tag_26\n      jump\t// in\n    tag_85:\n    tag_84:\n      0x20\n      mul\n      add\n        /* \"contracts/.deps/github/succinctlabs/sp1-contracts/contracts/src/v5.0.0/Groth16Verifier.sol\":21443:21461  pairings[ 5] = By0 */\n      dup2\n      dup2\n      mstore\n      pop\n      pop\n        /* \"contracts/.deps/github/succinctlabs/sp1-contracts/contracts/src/v5.0.0/Groth16Verifier.sol\":21517:21519  Cx */\n      dup4\n        /* \"contracts/.deps/github/succinctlabs/sp1-contracts/contracts/src/v5.0.0/Groth16Verifier.sol\":21502:21510  pairings */\n      dup12\n        /* \"contracts/.deps/github/succinctlabs/sp1-contracts/contracts/src/v5.0.0/Groth16Verifier.sol\":21512:21513  6 */\n      0x06\n        /* \"contracts/.deps/github/succinctlabs/sp1-contracts/contracts/src/v5.0.0/Groth16Verifier.sol\":21502:21514  pairings[ 6] */\n      0x18\n      dup2\n      lt\n      tag_86\n      jumpi\n      tag_87\n      tag_26\n      jump\t// in\n    tag_87:\n    tag_86:\n      0x20\n      mul\n      add\n        /* \"contracts/.deps/github/succinctlabs/sp1-contracts/contracts/src/v5.0.0/Groth16Verifier.sol\":21502:21519  pairings[ 6] = Cx */\n      dup2\n      dup2\n      mstore\n      pop\n      pop\n        /* \"contracts/.deps/github/succinctlabs/sp1-contracts/contracts/src/v5.0.0/Groth16Verifier.sol\":21549:21551  Cy */\n      dup3\n        /* \"contracts/.deps/github/succinctlabs/sp1-contracts/contracts/src/v5.0.0/Groth16Verifier.sol\":21534:21542  pairings */\n      dup12\n        /* \"contracts/.deps/github/succinctlabs/sp1-contracts/contracts/src/v5.0.0/Groth16Verifier.sol\":21544:21545  7 */\n      0x07\n        /* \"contracts/.deps/github/succinctlabs/sp1-contracts/contracts/src/v5.0.0/Groth16Verifier.sol\":21534:21546  pairings[ 7] */\n      0x18\n      dup2\n      lt\n      tag_88\n      jumpi\n      tag_89\n      tag_26\n      jump\t// in\n    tag_89:\n    tag_88:\n      0x20\n      mul\n      add\n        /* \"contracts/.deps/github/succinctlabs/sp1-contracts/contracts/src/v5.0.0/Groth16Verifier.sol\":21534:21551  pairings[ 7] = Cy */\n      dup2\n      dup2\n      mstore\n      pop\n      pop\n        /* \"contracts/.deps/github/succinctlabs/sp1-contracts/contracts/src/v5.0.0/Groth16Verifier.sol\":4222:4299  13017767206419180294867239590191240882490168779777616723978810680471506089190 */\n      0x1cc7cb8de715675f21f01ecc9b46d236e0865e0cc020024521998269845f74e6\n        /* \"contracts/.deps/github/succinctlabs/sp1-contracts/contracts/src/v5.0.0/Groth16Verifier.sol\":21566:21574  pairings */\n      dup12\n        /* \"contracts/.deps/github/succinctlabs/sp1-contracts/contracts/src/v5.0.0/Groth16Verifier.sol\":21576:21577  8 */\n      0x08\n        /* \"contracts/.deps/github/succinctlabs/sp1-contracts/contracts/src/v5.0.0/Groth16Verifier.sol\":21566:21578  pairings[ 8] */\n      0x18\n      dup2\n      lt\n      tag_90\n      jumpi\n      tag_91\n      tag_26\n      jump\t// in\n    tag_91:\n    tag_90:\n      0x20\n      mul\n      add\n        /* \"contracts/.deps/github/succinctlabs/sp1-contracts/contracts/src/v5.0.0/Groth16Verifier.sol\":21566:21594  pairings[ 8] = DELTA_NEG_X_1 */\n      dup2\n      dup2\n      mstore\n      pop\n      pop\n        /* \"contracts/.deps/github/succinctlabs/sp1-contracts/contracts/src/v5.0.0/Groth16Verifier.sol\":4106:4182  1807939758600928081661535078044266309701426477869595321608690071623627252461 */\n      0x03ff41f4ba0c37fe2caf27354d28e4b8f83d3b76777a63b327d736bffb0122ed\n        /* \"contracts/.deps/github/succinctlabs/sp1-contracts/contracts/src/v5.0.0/Groth16Verifier.sol\":21609:21617  pairings */\n      dup12\n        /* \"contracts/.deps/github/succinctlabs/sp1-contracts/contracts/src/v5.0.0/Groth16Verifier.sol\":21619:21620  9 */\n      0x09\n        /* \"contracts/.deps/github/succinctlabs/sp1-contracts/contracts/src/v5.0.0/Groth16Verifier.sol\":21609:21621  pairings[ 9] */\n      0x18\n      dup2\n      lt\n      tag_92\n      jumpi\n      tag_93\n      tag_26\n      jump\t// in\n    tag_93:\n    tag_92:\n      0x20\n      mul\n      add\n        /* \"contracts/.deps/github/succinctlabs/sp1-contracts/contracts/src/v5.0.0/Groth16Verifier.sol\":21609:21637  pairings[ 9] = DELTA_NEG_X_0 */\n      dup2\n      dup2\n      mstore\n      pop\n      pop\n        /* \"contracts/.deps/github/succinctlabs/sp1-contracts/contracts/src/v5.0.0/Groth16Verifier.sol\":4456:4531  707821308472421780425082520239282952693670279239989952629124761519869475067 */\n      0x01909cd7827e0278e6b60843a4abc7b111d7f8b2725cd5902a6b20da7a2938fb\n        /* \"contracts/.deps/github/succinctlabs/sp1-contracts/contracts/src/v5.0.0/Groth16Verifier.sol\":21652:21660  pairings */\n      dup12\n        /* \"contracts/.deps/github/succinctlabs/sp1-contracts/contracts/src/v5.0.0/Groth16Verifier.sol\":21661:21663  10 */\n      0x0a\n        /* \"contracts/.deps/github/succinctlabs/sp1-contracts/contracts/src/v5.0.0/Groth16Verifier.sol\":21652:21664  pairings[10] */\n      0x18\n      dup2\n      lt\n      tag_94\n      jumpi\n      tag_95\n      tag_26\n      jump\t// in\n    tag_95:\n    tag_94:\n      0x20\n      mul\n      add\n        /* \"contracts/.deps/github/succinctlabs/sp1-contracts/contracts/src/v5.0.0/Groth16Verifier.sol\":21652:21680  pairings[10] = DELTA_NEG_Y_1 */\n      dup2\n      dup2\n      mstore\n      pop\n      pop\n        /* \"contracts/.deps/github/succinctlabs/sp1-contracts/contracts/src/v5.0.0/Groth16Verifier.sol\":4339:4416  11385252965472363874004017020523979267854101512663014352368174256411716100034 */\n      0x192bd3274441670227b4f69a44005b8711266e474227c6439ca25ca8e1ec1fc2\n        /* \"contracts/.deps/github/succinctlabs/sp1-contracts/contracts/src/v5.0.0/Groth16Verifier.sol\":21695:21703  pairings */\n      dup12\n        /* \"contracts/.deps/github/succinctlabs/sp1-contracts/contracts/src/v5.0.0/Groth16Verifier.sol\":21704:21706  11 */\n      0x0b\n        /* \"contracts/.deps/github/succinctlabs/sp1-contracts/contracts/src/v5.0.0/Groth16Verifier.sol\":21695:21707  pairings[11] */\n      0x18\n      dup2\n      lt\n      tag_96\n      jumpi\n      tag_97\n      tag_26\n      jump\t// in\n    tag_97:\n    tag_96:\n      0x20\n      mul\n      add\n        /* \"contracts/.deps/github/succinctlabs/sp1-contracts/contracts/src/v5.0.0/Groth16Verifier.sol\":21695:21723  pairings[11] = DELTA_NEG_Y_0 */\n      dup2\n      dup2\n      mstore\n      pop\n      pop\n        /* \"contracts/.deps/github/succinctlabs/sp1-contracts/contracts/src/v5.0.0/Groth16Verifier.sol\":2800:2877  20491192805390485299153009773594534940189261866228447918068658471970481763042 */\n      0x2d4d9aa7e302d9df41749d5507949d05dbea33fbb16c643b22f599a2be6df2e2\n        /* \"contracts/.deps/github/succinctlabs/sp1-contracts/contracts/src/v5.0.0/Groth16Verifier.sol\":21765:21773  pairings */\n      dup12\n        /* \"contracts/.deps/github/succinctlabs/sp1-contracts/contracts/src/v5.0.0/Groth16Verifier.sol\":21774:21776  12 */\n      0x0c\n        /* \"contracts/.deps/github/succinctlabs/sp1-contracts/contracts/src/v5.0.0/Groth16Verifier.sol\":21765:21777  pairings[12] */\n      0x18\n      dup2\n      lt\n      tag_98\n      jumpi\n      tag_99\n      tag_26\n      jump\t// in\n    tag_99:\n    tag_98:\n      0x20\n      mul\n      add\n        /* \"contracts/.deps/github/succinctlabs/sp1-contracts/contracts/src/v5.0.0/Groth16Verifier.sol\":21765:21787  pairings[12] = ALPHA_X */\n      dup2\n      dup2\n      mstore\n      pop\n      pop\n        /* \"contracts/.deps/github/succinctlabs/sp1-contracts/contracts/src/v5.0.0/Groth16Verifier.sol\":2911:2987  9383485363053290200918347156157836566562967994039712273449902621266178545958 */\n      0x14bedd503c37ceb061d8ec60209fe345ce89830a19230301f076caff004d1926\n        /* \"contracts/.deps/github/succinctlabs/sp1-contracts/contracts/src/v5.0.0/Groth16Verifier.sol\":21802:21810  pairings */\n      dup12\n        /* \"contracts/.deps/github/succinctlabs/sp1-contracts/contracts/src/v5.0.0/Groth16Verifier.sol\":21811:21813  13 */\n      0x0d\n        /* \"contracts/.deps/github/succinctlabs/sp1-contracts/contracts/src/v5.0.0/Groth16Verifier.sol\":21802:21814  pairings[13] */\n      0x18\n      dup2\n      lt\n      tag_100\n      jumpi\n      tag_101\n      tag_26\n      jump\t// in\n    tag_101:\n    tag_100:\n      0x20\n      mul\n      add\n        /* \"contracts/.deps/github/succinctlabs/sp1-contracts/contracts/src/v5.0.0/Groth16Verifier.sol\":21802:21824  pairings[13] = ALPHA_Y */\n      dup2\n      dup2\n      mstore\n      pop\n      pop\n        /* \"contracts/.deps/github/succinctlabs/sp1-contracts/contracts/src/v5.0.0/Groth16Verifier.sol\":3191:3267  4252822878758300859123897981450591353533073413197771768651442665752259397132 */\n      0x0967032fcbf776d1afc985f88877f182d38480a653f2decaa9794cbc3bf3060c\n        /* \"contracts/.deps/github/succinctlabs/sp1-contracts/contracts/src/v5.0.0/Groth16Verifier.sol\":21839:21847  pairings */\n      dup12\n        /* \"contracts/.deps/github/succinctlabs/sp1-contracts/contracts/src/v5.0.0/Groth16Verifier.sol\":21848:21850  14 */\n      0x0e\n        /* \"contracts/.deps/github/succinctlabs/sp1-contracts/contracts/src/v5.0.0/Groth16Verifier.sol\":21839:21851  pairings[14] */\n      0x18\n      dup2\n      lt\n      tag_102\n      jumpi\n      tag_103\n      tag_26\n      jump\t// in\n    tag_103:\n    tag_102:\n      0x20\n      mul\n      add\n        /* \"contracts/.deps/github/succinctlabs/sp1-contracts/contracts/src/v5.0.0/Groth16Verifier.sol\":21839:21866  pairings[14] = BETA_NEG_X_1 */\n      dup2\n      dup2\n      mstore\n      pop\n      pop\n        /* \"contracts/.deps/github/succinctlabs/sp1-contracts/contracts/src/v5.0.0/Groth16Verifier.sol\":3076:3152  6375614351688725206403948262868962793625744043794305715222011528459656738731 */\n      0x0e187847ad4c798374d0d6732bf501847dd68bc0e071241e0213bc7fc13db7ab\n        /* \"contracts/.deps/github/succinctlabs/sp1-contracts/contracts/src/v5.0.0/Groth16Verifier.sol\":21881:21889  pairings */\n      dup12\n        /* \"contracts/.deps/github/succinctlabs/sp1-contracts/contracts/src/v5.0.0/Groth16Verifier.sol\":21890:21892  15 */\n      0x0f\n        /* \"contracts/.deps/github/succinctlabs/sp1-contracts/contracts/src/v5.0.0/Groth16Verifier.sol\":21881:21893  pairings[15] */\n      0x18\n      dup2\n      lt\n      tag_104\n      jumpi\n      tag_105\n      tag_26\n      jump\t// in\n    tag_105:\n    tag_104:\n      0x20\n      mul\n      add\n        /* \"contracts/.deps/github/succinctlabs/sp1-contracts/contracts/src/v5.0.0/Groth16Verifier.sol\":21881:21908  pairings[15] = BETA_NEG_X_0 */\n      dup2\n      dup2\n      mstore\n      pop\n      pop\n        /* \"contracts/.deps/github/succinctlabs/sp1-contracts/contracts/src/v5.0.0/Groth16Verifier.sol\":3422:3496  41207766310529818958173054109690360505148424997958324311878202295167071904 */\n      0x1752a100a72fdf1e5a5d6ea841cc20ec838bccfcf7bd559e79f1c9c759b6a0\n        /* \"contracts/.deps/github/succinctlabs/sp1-contracts/contracts/src/v5.0.0/Groth16Verifier.sol\":21923:21931  pairings */\n      dup12\n        /* \"contracts/.deps/github/succinctlabs/sp1-contracts/contracts/src/v5.0.0/Groth16Verifier.sol\":21932:21934  16 */\n      0x10\n        /* \"contracts/.deps/github/succinctlabs/sp1-contracts/contracts/src/v5.0.0/Groth16Verifier.sol\":21923:21935  pairings[16] */\n      0x18\n      dup2\n      lt\n      tag_106\n      jumpi\n      tag_107\n      tag_26\n      jump\t// in\n    tag_107:\n    tag_106:\n      0x20\n      mul\n      add\n        /* \"contracts/.deps/github/succinctlabs/sp1-contracts/contracts/src/v5.0.0/Groth16Verifier.sol\":21923:21950  pairings[16] = BETA_NEG_Y_1 */\n      dup2\n      dup2\n      mstore\n      pop\n      pop\n        /* \"contracts/.deps/github/succinctlabs/sp1-contracts/contracts/src/v5.0.0/Groth16Verifier.sol\":3306:3383  11383000245469012944693504663162918391286475477077232690815866754273895001727 */\n      0x192a8cc13cd9f762871f21e43451c6ca9eeab2cb2987c4e366a185c25dac2e7f\n        /* \"contracts/.deps/github/succinctlabs/sp1-contracts/contracts/src/v5.0.0/Groth16Verifier.sol\":21965:21973  pairings */\n      dup12\n        /* \"contracts/.deps/github/succinctlabs/sp1-contracts/contracts/src/v5.0.0/Groth16Verifier.sol\":21974:21976  17 */\n      0x11\n        /* \"contracts/.deps/github/succinctlabs/sp1-contracts/contracts/src/v5.0.0/Groth16Verifier.sol\":21965:21977  pairings[17] */\n      0x18\n      dup2\n      lt\n      tag_108\n      jumpi\n      tag_109\n      tag_26\n      jump\t// in\n    tag_109:\n    tag_108:\n      0x20\n      mul\n      add\n        /* \"contracts/.deps/github/succinctlabs/sp1-contracts/contracts/src/v5.0.0/Groth16Verifier.sol\":21965:21992  pairings[17] = BETA_NEG_Y_0 */\n      dup2\n      dup2\n      mstore\n      pop\n      pop\n        /* \"contracts/.deps/github/succinctlabs/sp1-contracts/contracts/src/v5.0.0/Groth16Verifier.sol\":22052:22054  Lx */\n      dup2\n        /* \"contracts/.deps/github/succinctlabs/sp1-contracts/contracts/src/v5.0.0/Groth16Verifier.sol\":22037:22045  pairings */\n      dup12\n        /* \"contracts/.deps/github/succinctlabs/sp1-contracts/contracts/src/v5.0.0/Groth16Verifier.sol\":22046:22048  18 */\n      0x12\n        /* \"contracts/.deps/github/succinctlabs/sp1-contracts/contracts/src/v5.0.0/Groth16Verifier.sol\":22037:22049  pairings[18] */\n      0x18\n      dup2\n      lt\n      tag_110\n      jumpi\n      tag_111\n      tag_26\n      jump\t// in\n    tag_111:\n    tag_110:\n      0x20\n      mul\n      add\n        /* \"contracts/.deps/github/succinctlabs/sp1-contracts/contracts/src/v5.0.0/Groth16Verifier.sol\":22037:22054  pairings[18] = Lx */\n      dup2\n      dup2\n      mstore\n      pop\n      pop\n        /* \"contracts/.deps/github/succinctlabs/sp1-contracts/contracts/src/v5.0.0/Groth16Verifier.sol\":22084:22086  Ly */\n      dup1\n        /* \"contracts/.deps/github/succinctlabs/sp1-contracts/contracts/src/v5.0.0/Groth16Verifier.sol\":22069:22077  pairings */\n      dup12\n        /* \"contracts/.deps/github/succinctlabs/sp1-contracts/contracts/src/v5.0.0/Groth16Verifier.sol\":22078:22080  19 */\n      0x13\n        /* \"contracts/.deps/github/succinctlabs/sp1-contracts/contracts/src/v5.0.0/Groth16Verifier.sol\":22069:22081  pairings[19] */\n      0x18\n      dup2\n      lt\n      tag_112\n      jumpi\n      tag_113\n      tag_26\n      jump\t// in\n    tag_113:\n    tag_112:\n      0x20\n      mul\n      add\n        /* \"contracts/.deps/github/succinctlabs/sp1-contracts/contracts/src/v5.0.0/Groth16Verifier.sol\":22069:22086  pairings[19] = Ly */\n      dup2\n      dup2\n      mstore\n      pop\n      pop\n        /* \"contracts/.deps/github/succinctlabs/sp1-contracts/contracts/src/v5.0.0/Groth16Verifier.sol\":3704:3781  11559732032986387107991004021392285783925812861821192530917403151452391805634 */\n      0x198e9393920d483a7260bfb731fb5d25f1aa493335a9e71297e485b7aef312c2\n        /* \"contracts/.deps/github/succinctlabs/sp1-contracts/contracts/src/v5.0.0/Groth16Verifier.sol\":22101:22109  pairings */\n      dup12\n        /* \"contracts/.deps/github/succinctlabs/sp1-contracts/contracts/src/v5.0.0/Groth16Verifier.sol\":22110:22112  20 */\n      0x14\n        /* \"contracts/.deps/github/succinctlabs/sp1-contracts/contracts/src/v5.0.0/Groth16Verifier.sol\":22101:22113  pairings[20] */\n      0x18\n      dup2\n      lt\n      tag_114\n      jumpi\n      tag_115\n      tag_26\n      jump\t// in\n    tag_115:\n    tag_114:\n      0x20\n      mul\n      add\n        /* \"contracts/.deps/github/succinctlabs/sp1-contracts/contracts/src/v5.0.0/Groth16Verifier.sol\":22101:22129  pairings[20] = GAMMA_NEG_X_1 */\n      dup2\n      dup2\n      mstore\n      pop\n      pop\n        /* \"contracts/.deps/github/succinctlabs/sp1-contracts/contracts/src/v5.0.0/Groth16Verifier.sol\":3587:3664  10857046999023057135944570762232829481370756359578518086990519993285655852781 */\n      0x1800deef121f1e76426a00665e5c4479674322d4f75edadd46debd5cd992f6ed\n        /* \"contracts/.deps/github/succinctlabs/sp1-contracts/contracts/src/v5.0.0/Groth16Verifier.sol\":22144:22152  pairings */\n      dup12\n        /* \"contracts/.deps/github/succinctlabs/sp1-contracts/contracts/src/v5.0.0/Groth16Verifier.sol\":22153:22155  21 */\n      0x15\n        /* \"contracts/.deps/github/succinctlabs/sp1-contracts/contracts/src/v5.0.0/Groth16Verifier.sol\":22144:22156  pairings[21] */\n      0x18\n      dup2\n      lt\n      tag_116\n      jumpi\n      tag_117\n      tag_26\n      jump\t// in\n    tag_117:\n    tag_116:\n      0x20\n      mul\n      add\n        /* \"contracts/.deps/github/succinctlabs/sp1-contracts/contracts/src/v5.0.0/Groth16Verifier.sol\":22144:22172  pairings[21] = GAMMA_NEG_X_0 */\n      dup2\n      dup2\n      mstore\n      pop\n      pop\n        /* \"contracts/.deps/github/succinctlabs/sp1-contracts/contracts/src/v5.0.0/Groth16Verifier.sol\":3938:4015  17805874995975841540914202342111839520379459829704422454583296818431106115052 */\n      0x275dc4a288d1afb3cbb1ac09187524c7db36395df7be3b99e673b13a075a65ec\n        /* \"contracts/.deps/github/succinctlabs/sp1-contracts/contracts/src/v5.0.0/Groth16Verifier.sol\":22187:22195  pairings */\n      dup12\n        /* \"contracts/.deps/github/succinctlabs/sp1-contracts/contracts/src/v5.0.0/Groth16Verifier.sol\":22196:22198  22 */\n      0x16\n        /* \"contracts/.deps/github/succinctlabs/sp1-contracts/contracts/src/v5.0.0/Groth16Verifier.sol\":22187:22199  pairings[22] */\n      0x18\n      dup2\n      lt\n      tag_118\n      jumpi\n      tag_119\n      tag_26\n      jump\t// in\n    tag_119:\n    tag_118:\n      0x20\n      mul\n      add\n        /* \"contracts/.deps/github/succinctlabs/sp1-contracts/contracts/src/v5.0.0/Groth16Verifier.sol\":22187:22215  pairings[22] = GAMMA_NEG_Y_1 */\n      dup2\n      dup2\n      mstore\n      pop\n      pop\n        /* \"contracts/.deps/github/succinctlabs/sp1-contracts/contracts/src/v5.0.0/Groth16Verifier.sol\":3821:3898  13392588948715843804641432497768002650278120570034223513918757245338268106653 */\n      0x1d9befcd05a5323e6da4d435f3b617cdb3af83285c2df711ef39c01571827f9d\n        /* \"contracts/.deps/github/succinctlabs/sp1-contracts/contracts/src/v5.0.0/Groth16Verifier.sol\":22230:22238  pairings */\n      dup12\n        /* \"contracts/.deps/github/succinctlabs/sp1-contracts/contracts/src/v5.0.0/Groth16Verifier.sol\":22239:22241  23 */\n      0x17\n        /* \"contracts/.deps/github/succinctlabs/sp1-contracts/contracts/src/v5.0.0/Groth16Verifier.sol\":22230:22242  pairings[23] */\n      0x18\n      dup2\n      lt\n      tag_120\n      jumpi\n      tag_121\n      tag_26\n      jump\t// in\n    tag_121:\n    tag_120:\n      0x20\n      mul\n      add\n        /* \"contracts/.deps/github/succinctlabs/sp1-contracts/contracts/src/v5.0.0/Groth16Verifier.sol\":22230:22258  pairings[23] = GAMMA_NEG_Y_0 */\n      dup2\n      dup2\n      mstore\n      pop\n      pop\n        /* \"contracts/.deps/github/succinctlabs/sp1-contracts/contracts/src/v5.0.0/Groth16Verifier.sol\":22315:22327  bool success */\n      0x00\n        /* \"contracts/.deps/github/succinctlabs/sp1-contracts/contracts/src/v5.0.0/Groth16Verifier.sol\":22342:22366  uint256[1] memory output */\n      tag_122\n      tag_123\n      jump\t// in\n    tag_122:\n        /* \"contracts/.deps/github/succinctlabs/sp1-contracts/contracts/src/v5.0.0/Groth16Verifier.sol\":22498:22502  0x20 */\n      0x20\n        /* \"contracts/.deps/github/succinctlabs/sp1-contracts/contracts/src/v5.0.0/Groth16Verifier.sol\":22490:22496  output */\n      dup2\n        /* \"contracts/.deps/github/succinctlabs/sp1-contracts/contracts/src/v5.0.0/Groth16Verifier.sol\":22483:22488  0x300 */\n      0x0300\n        /* \"contracts/.deps/github/succinctlabs/sp1-contracts/contracts/src/v5.0.0/Groth16Verifier.sol\":22473:22481  pairings */\n      dup16\n        /* \"contracts/.deps/github/succinctlabs/sp1-contracts/contracts/src/v5.0.0/Groth16Verifier.sol\":22454:22471  PRECOMPILE_VERIFY */\n      0x08\n        /* \"contracts/.deps/github/succinctlabs/sp1-contracts/contracts/src/v5.0.0/Groth16Verifier.sol\":22447:22452  gas() */\n      gas\n        /* \"contracts/.deps/github/succinctlabs/sp1-contracts/contracts/src/v5.0.0/Groth16Verifier.sol\":22436:22503  staticcall(gas(), PRECOMPILE_VERIFY, pairings, 0x300, output, 0x20) */\n      staticcall\n        /* \"contracts/.deps/github/succinctlabs/sp1-contracts/contracts/src/v5.0.0/Groth16Verifier.sol\":22425:22503  success := staticcall(gas(), PRECOMPILE_VERIFY, pairings, 0x300, output, 0x20) */\n      swap2\n      pop\n        /* \"contracts/.deps/github/succinctlabs/sp1-contracts/contracts/src/v5.0.0/Groth16Verifier.sol\":22537:22544  success */\n      dup2\n        /* \"contracts/.deps/github/succinctlabs/sp1-contracts/contracts/src/v5.0.0/Groth16Verifier.sol\":22536:22544  !success */\n      iszero\n        /* \"contracts/.deps/github/succinctlabs/sp1-contracts/contracts/src/v5.0.0/Groth16Verifier.sol\":22536:22562  !success || output[0] != 1 */\n      dup1\n      tag_124\n      jumpi\n      pop\n        /* \"contracts/.deps/github/succinctlabs/sp1-contracts/contracts/src/v5.0.0/Groth16Verifier.sol\":22561:22562  1 */\n      0x01\n        /* \"contracts/.deps/github/succinctlabs/sp1-contracts/contracts/src/v5.0.0/Groth16Verifier.sol\":22548:22554  output */\n      dup2\n        /* \"contracts/.deps/github/succinctlabs/sp1-contracts/contracts/src/v5.0.0/Groth16Verifier.sol\":22555:22556  0 */\n      0x00\n        /* \"contracts/.deps/github/succinctlabs/sp1-contracts/contracts/src/v5.0.0/Groth16Verifier.sol\":22548:22557  output[0] */\n      0x01\n      dup2\n      lt\n      tag_125\n      jumpi\n      tag_126\n      tag_26\n      jump\t// in\n    tag_126:\n    tag_125:\n      0x20\n      mul\n      add\n      mload\n        /* \"contracts/.deps/github/succinctlabs/sp1-contracts/contracts/src/v5.0.0/Groth16Verifier.sol\":22548:22562  output[0] != 1 */\n      eq\n      iszero\n        /* \"contracts/.deps/github/succinctlabs/sp1-contracts/contracts/src/v5.0.0/Groth16Verifier.sol\":22536:22562  !success || output[0] != 1 */\n    tag_124:\n        /* \"contracts/.deps/github/succinctlabs/sp1-contracts/contracts/src/v5.0.0/Groth16Verifier.sol\":22532:22783  if (!success || output[0] != 1) {... */\n      iszero\n      tag_127\n      jumpi\n        /* \"contracts/.deps/github/succinctlabs/sp1-contracts/contracts/src/v5.0.0/Groth16Verifier.sol\":22753:22767  ProofInvalid() */\n      mload(0x40)\n      0x7fcdd1f400000000000000000000000000000000000000000000000000000000\n      dup2\n      mstore\n      0x04\n      add\n      mload(0x40)\n      dup1\n      swap2\n      sub\n      swap1\n      revert\n        /* \"contracts/.deps/github/succinctlabs/sp1-contracts/contracts/src/v5.0.0/Groth16Verifier.sol\":22532:22783  if (!success || output[0] != 1) {... */\n    tag_127:\n        /* \"contracts/.deps/github/succinctlabs/sp1-contracts/contracts/src/v5.0.0/Groth16Verifier.sol\":20682:22794  {... */\n      pop\n      pop\n      pop\n      pop\n      pop\n      pop\n      pop\n      pop\n      pop\n      pop\n      pop\n      pop\n        /* \"contracts/.deps/github/succinctlabs/sp1-contracts/contracts/src/v5.0.0/Groth16Verifier.sol\":20631:22801  {... */\n      pop\n        /* \"contracts/.deps/github/succinctlabs/sp1-contracts/contracts/src/v5.0.0/Groth16Verifier.sol\":20499:22801  function verifyCompressedProof(... */\n      pop\n      pop\n      jump\t// out\n        /* \"contracts/.deps/github/succinctlabs/sp1-contracts/contracts/src/v5.0.0/Groth16Verifier.sol\":9946:10666  function compress_g1(uint256 x, uint256 y) internal view returns (uint256 c) {... */\n    tag_29:\n        /* \"contracts/.deps/github/succinctlabs/sp1-contracts/contracts/src/v5.0.0/Groth16Verifier.sol\":10012:10021  uint256 c */\n      0x00\n        /* \"contracts/.deps/github/succinctlabs/sp1-contracts/contracts/src/v5.0.0/Groth16Verifier.sol\":1431:1497  0x30644e72e131a029b85045b68181585d97816a916871ca8d3c208c16d87cfd47 */\n      0x30644e72e131a029b85045b68181585d97816a916871ca8d3c208c16d87cfd47\n        /* \"contracts/.deps/github/succinctlabs/sp1-contracts/contracts/src/v5.0.0/Groth16Verifier.sol\":10038:10039  x */\n      dup4\n        /* \"contracts/.deps/github/succinctlabs/sp1-contracts/contracts/src/v5.0.0/Groth16Verifier.sol\":10038:10044  x >= P */\n      lt\n      iszero\n        /* \"contracts/.deps/github/succinctlabs/sp1-contracts/contracts/src/v5.0.0/Groth16Verifier.sol\":10038:10054  x >= P || y >= P */\n      dup1\n      tag_129\n      jumpi\n      pop\n        /* \"contracts/.deps/github/succinctlabs/sp1-contracts/contracts/src/v5.0.0/Groth16Verifier.sol\":1431:1497  0x30644e72e131a029b85045b68181585d97816a916871ca8d3c208c16d87cfd47 */\n      0x30644e72e131a029b85045b68181585d97816a916871ca8d3c208c16d87cfd47\n        /* \"contracts/.deps/github/succinctlabs/sp1-contracts/contracts/src/v5.0.0/Groth16Verifier.sol\":10048:10049  y */\n      dup3\n        /* \"contracts/.deps/github/succinctlabs/sp1-contracts/contracts/src/v5.0.0/Groth16Verifier.sol\":10048:10054  y >= P */\n      lt\n      iszero\n        /* \"contracts/.deps/github/succinctlabs/sp1-contracts/contracts/src/v5.0.0/Groth16Verifier.sol\":10038:10054  x >= P || y >= P */\n    tag_129:\n        /* \"contracts/.deps/github/succinctlabs/sp1-contracts/contracts/src/v5.0.0/Groth16Verifier.sol\":10034:10143  if (x >= P || y >= P) {... */\n      iszero\n      tag_130\n      jumpi\n        /* \"contracts/.deps/github/succinctlabs/sp1-contracts/contracts/src/v5.0.0/Groth16Verifier.sol\":10117:10131  ProofInvalid() */\n      mload(0x40)\n      0x7fcdd1f400000000000000000000000000000000000000000000000000000000\n      dup2\n      mstore\n      0x04\n      add\n      mload(0x40)\n      dup1\n      swap2\n      sub\n      swap1\n      revert\n        /* \"contracts/.deps/github/succinctlabs/sp1-contracts/contracts/src/v5.0.0/Groth16Verifier.sol\":10034:10143  if (x >= P || y >= P) {... */\n    tag_130:\n        /* \"contracts/.deps/github/succinctlabs/sp1-contracts/contracts/src/v5.0.0/Groth16Verifier.sol\":10162:10163  0 */\n      0x00\n        /* \"contracts/.deps/github/succinctlabs/sp1-contracts/contracts/src/v5.0.0/Groth16Verifier.sol\":10157:10158  x */\n      dup4\n        /* \"contracts/.deps/github/succinctlabs/sp1-contracts/contracts/src/v5.0.0/Groth16Verifier.sol\":10157:10163  x == 0 */\n      eq\n        /* \"contracts/.deps/github/succinctlabs/sp1-contracts/contracts/src/v5.0.0/Groth16Verifier.sol\":10157:10173  x == 0 && y == 0 */\n      dup1\n      iszero\n      tag_131\n      jumpi\n      pop\n        /* \"contracts/.deps/github/succinctlabs/sp1-contracts/contracts/src/v5.0.0/Groth16Verifier.sol\":10172:10173  0 */\n      0x00\n        /* \"contracts/.deps/github/succinctlabs/sp1-contracts/contracts/src/v5.0.0/Groth16Verifier.sol\":10167:10168  y */\n      dup3\n        /* \"contracts/.deps/github/succinctlabs/sp1-contracts/contracts/src/v5.0.0/Groth16Verifier.sol\":10167:10173  y == 0 */\n      eq\n        /* \"contracts/.deps/github/succinctlabs/sp1-contracts/contracts/src/v5.0.0/Groth16Verifier.sol\":10157:10173  x == 0 && y == 0 */\n    tag_131:\n        /* \"contracts/.deps/github/succinctlabs/sp1-contracts/contracts/src/v5.0.0/Groth16Verifier.sol\":10153:10244  if (x == 0 && y == 0) {... */\n      iszero\n      tag_132\n      jumpi\n        /* \"contracts/.deps/github/succinctlabs/sp1-contracts/contracts/src/v5.0.0/Groth16Verifier.sol\":10231:10232  0 */\n      0x00\n        /* \"contracts/.deps/github/succinctlabs/sp1-contracts/contracts/src/v5.0.0/Groth16Verifier.sol\":10224:10232  return 0 */\n      swap1\n      pop\n      jump(tag_128)\n        /* \"contracts/.deps/github/succinctlabs/sp1-contracts/contracts/src/v5.0.0/Groth16Verifier.sol\":10153:10244  if (x == 0 && y == 0) {... */\n    tag_132:\n        /* \"contracts/.deps/github/succinctlabs/sp1-contracts/contracts/src/v5.0.0/Groth16Verifier.sol\":10349:10362  uint256 y_pos */\n      0x00\n        /* \"contracts/.deps/github/succinctlabs/sp1-contracts/contracts/src/v5.0.0/Groth16Verifier.sol\":10365:10417  sqrt_Fp(addmod(mulmod(mulmod(x, x, P), x, P), 3, P)) */\n      tag_133\n        /* \"contracts/.deps/github/succinctlabs/sp1-contracts/contracts/src/v5.0.0/Groth16Verifier.sol\":1431:1497  0x30644e72e131a029b85045b68181585d97816a916871ca8d3c208c16d87cfd47 */\n      0x30644e72e131a029b85045b68181585d97816a916871ca8d3c208c16d87cfd47\n        /* \"contracts/.deps/github/succinctlabs/sp1-contracts/contracts/src/v5.0.0/Groth16Verifier.sol\":10373:10416  addmod(mulmod(mulmod(x, x, P), x, P), 3, P) */\n      dup1\n      tag_134\n      jumpi\n      tag_135\n      tag_136\n      jump\t// in\n    tag_135:\n    tag_134:\n        /* \"contracts/.deps/github/succinctlabs/sp1-contracts/contracts/src/v5.0.0/Groth16Verifier.sol\":10411:10412  3 */\n      0x03\n        /* \"contracts/.deps/github/succinctlabs/sp1-contracts/contracts/src/v5.0.0/Groth16Verifier.sol\":1431:1497  0x30644e72e131a029b85045b68181585d97816a916871ca8d3c208c16d87cfd47 */\n      0x30644e72e131a029b85045b68181585d97816a916871ca8d3c208c16d87cfd47\n        /* \"contracts/.deps/github/succinctlabs/sp1-contracts/contracts/src/v5.0.0/Groth16Verifier.sol\":10380:10409  mulmod(mulmod(x, x, P), x, P) */\n      dup1\n      tag_137\n      jumpi\n      tag_138\n      tag_136\n      jump\t// in\n    tag_138:\n    tag_137:\n        /* \"contracts/.deps/github/succinctlabs/sp1-contracts/contracts/src/v5.0.0/Groth16Verifier.sol\":10404:10405  x */\n      dup8\n        /* \"contracts/.deps/github/succinctlabs/sp1-contracts/contracts/src/v5.0.0/Groth16Verifier.sol\":1431:1497  0x30644e72e131a029b85045b68181585d97816a916871ca8d3c208c16d87cfd47 */\n      0x30644e72e131a029b85045b68181585d97816a916871ca8d3c208c16d87cfd47\n        /* \"contracts/.deps/github/succinctlabs/sp1-contracts/contracts/src/v5.0.0/Groth16Verifier.sol\":10387:10402  mulmod(x, x, P) */\n      dup1\n      tag_139\n      jumpi\n      tag_140\n      tag_136\n      jump\t// in\n    tag_140:\n    tag_139:\n        /* \"contracts/.deps/github/succinctlabs/sp1-contracts/contracts/src/v5.0.0/Groth16Verifier.sol\":10397:10398  x */\n      dup10\n        /* \"contracts/.deps/github/succinctlabs/sp1-contracts/contracts/src/v5.0.0/Groth16Verifier.sol\":10394:10395  x */\n      dup11\n        /* \"contracts/.deps/github/succinctlabs/sp1-contracts/contracts/src/v5.0.0/Groth16Verifier.sol\":10387:10402  mulmod(x, x, P) */\n      mulmod\n        /* \"contracts/.deps/github/succinctlabs/sp1-contracts/contracts/src/v5.0.0/Groth16Verifier.sol\":10380:10409  mulmod(mulmod(x, x, P), x, P) */\n      mulmod\n        /* \"contracts/.deps/github/succinctlabs/sp1-contracts/contracts/src/v5.0.0/Groth16Verifier.sol\":10373:10416  addmod(mulmod(mulmod(x, x, P), x, P), 3, P) */\n      addmod\n        /* \"contracts/.deps/github/succinctlabs/sp1-contracts/contracts/src/v5.0.0/Groth16Verifier.sol\":10365:10372  sqrt_Fp */\n      tag_141\n        /* \"contracts/.deps/github/succinctlabs/sp1-contracts/contracts/src/v5.0.0/Groth16Verifier.sol\":10365:10417  sqrt_Fp(addmod(mulmod(mulmod(x, x, P), x, P), 3, P)) */\n      jump\t// in\n    tag_133:\n        /* \"contracts/.deps/github/succinctlabs/sp1-contracts/contracts/src/v5.0.0/Groth16Verifier.sol\":10349:10417  uint256 y_pos = sqrt_Fp(addmod(mulmod(mulmod(x, x, P), x, P), 3, P)) */\n      swap1\n      pop\n        /* \"contracts/.deps/github/succinctlabs/sp1-contracts/contracts/src/v5.0.0/Groth16Verifier.sol\":10437:10442  y_pos */\n      dup1\n        /* \"contracts/.deps/github/succinctlabs/sp1-contracts/contracts/src/v5.0.0/Groth16Verifier.sol\":10432:10433  y */\n      dup4\n        /* \"contracts/.deps/github/succinctlabs/sp1-contracts/contracts/src/v5.0.0/Groth16Verifier.sol\":10432:10442  y == y_pos */\n      sub\n        /* \"contracts/.deps/github/succinctlabs/sp1-contracts/contracts/src/v5.0.0/Groth16Verifier.sol\":10428:10659  if (y == y_pos) {... */\n      tag_142\n      jumpi\n        /* \"contracts/.deps/github/succinctlabs/sp1-contracts/contracts/src/v5.0.0/Groth16Verifier.sol\":10477:10478  0 */\n      0x00\n        /* \"contracts/.deps/github/succinctlabs/sp1-contracts/contracts/src/v5.0.0/Groth16Verifier.sol\":10472:10473  1 */\n      0x01\n        /* \"contracts/.deps/github/succinctlabs/sp1-contracts/contracts/src/v5.0.0/Groth16Verifier.sol\":10467:10468  x */\n      dup6\n        /* \"contracts/.deps/github/succinctlabs/sp1-contracts/contracts/src/v5.0.0/Groth16Verifier.sol\":10467:10473  x << 1 */\n      swap1\n      shl\n        /* \"contracts/.deps/github/succinctlabs/sp1-contracts/contracts/src/v5.0.0/Groth16Verifier.sol\":10466:10478  (x << 1) | 0 */\n      or\n        /* \"contracts/.deps/github/succinctlabs/sp1-contracts/contracts/src/v5.0.0/Groth16Verifier.sol\":10459:10478  return (x << 1) | 0 */\n      swap2\n      pop\n      pop\n      jump(tag_128)\n        /* \"contracts/.deps/github/succinctlabs/sp1-contracts/contracts/src/v5.0.0/Groth16Verifier.sol\":10428:10659  if (y == y_pos) {... */\n    tag_142:\n        /* \"contracts/.deps/github/succinctlabs/sp1-contracts/contracts/src/v5.0.0/Groth16Verifier.sol\":10505:10518  negate(y_pos) */\n      tag_144\n        /* \"contracts/.deps/github/succinctlabs/sp1-contracts/contracts/src/v5.0.0/Groth16Verifier.sol\":10512:10517  y_pos */\n      dup2\n        /* \"contracts/.deps/github/succinctlabs/sp1-contracts/contracts/src/v5.0.0/Groth16Verifier.sol\":10505:10511  negate */\n      tag_145\n        /* \"contracts/.deps/github/succinctlabs/sp1-contracts/contracts/src/v5.0.0/Groth16Verifier.sol\":10505:10518  negate(y_pos) */\n      jump\t// in\n    tag_144:\n        /* \"contracts/.deps/github/succinctlabs/sp1-contracts/contracts/src/v5.0.0/Groth16Verifier.sol\":10500:10501  y */\n      dup4\n        /* \"contracts/.deps/github/succinctlabs/sp1-contracts/contracts/src/v5.0.0/Groth16Verifier.sol\":10500:10518  y == negate(y_pos) */\n      sub\n        /* \"contracts/.deps/github/succinctlabs/sp1-contracts/contracts/src/v5.0.0/Groth16Verifier.sol\":10496:10659  if (y == negate(y_pos)) {... */\n      tag_146\n      jumpi\n        /* \"contracts/.deps/github/succinctlabs/sp1-contracts/contracts/src/v5.0.0/Groth16Verifier.sol\":10553:10554  1 */\n      0x01\n        /* \"contracts/.deps/github/succinctlabs/sp1-contracts/contracts/src/v5.0.0/Groth16Verifier.sol\":10548:10549  1 */\n      dup1\n        /* \"contracts/.deps/github/succinctlabs/sp1-contracts/contracts/src/v5.0.0/Groth16Verifier.sol\":10543:10544  x */\n      dup6\n        /* \"contracts/.deps/github/succinctlabs/sp1-contracts/contracts/src/v5.0.0/Groth16Verifier.sol\":10543:10549  x << 1 */\n      swap1\n      shl\n        /* \"contracts/.deps/github/succinctlabs/sp1-contracts/contracts/src/v5.0.0/Groth16Verifier.sol\":10542:10554  (x << 1) | 1 */\n      or\n        /* \"contracts/.deps/github/succinctlabs/sp1-contracts/contracts/src/v5.0.0/Groth16Verifier.sol\":10535:10554  return (x << 1) | 1 */\n      swap2\n      pop\n      pop\n      jump(tag_128)\n        /* \"contracts/.deps/github/succinctlabs/sp1-contracts/contracts/src/v5.0.0/Groth16Verifier.sol\":10496:10659  if (y == negate(y_pos)) {... */\n    tag_146:\n        /* \"contracts/.deps/github/succinctlabs/sp1-contracts/contracts/src/v5.0.0/Groth16Verifier.sol\":10633:10647  ProofInvalid() */\n      mload(0x40)\n      0x7fcdd1f400000000000000000000000000000000000000000000000000000000\n      dup2\n      mstore\n      0x04\n      add\n      mload(0x40)\n      dup1\n      swap2\n      sub\n      swap1\n      revert\n        /* \"contracts/.deps/github/succinctlabs/sp1-contracts/contracts/src/v5.0.0/Groth16Verifier.sol\":9946:10666  function compress_g1(uint256 x, uint256 y) internal view returns (uint256 c) {... */\n    tag_128:\n      swap3\n      swap2\n      pop\n      pop\n      jump\t// out\n        /* \"contracts/.deps/github/succinctlabs/sp1-contracts/contracts/src/v5.0.0/Groth16Verifier.sol\":12704:14407  function compress_g2(uint256 x0, uint256 x1, uint256 y0, uint256 y1)... */\n    tag_41:\n        /* \"contracts/.deps/github/succinctlabs/sp1-contracts/contracts/src/v5.0.0/Groth16Verifier.sol\":12801:12811  uint256 c0 */\n      0x00\n        /* \"contracts/.deps/github/succinctlabs/sp1-contracts/contracts/src/v5.0.0/Groth16Verifier.sol\":12813:12823  uint256 c1 */\n      0x00\n        /* \"contracts/.deps/github/succinctlabs/sp1-contracts/contracts/src/v5.0.0/Groth16Verifier.sol\":1431:1497  0x30644e72e131a029b85045b68181585d97816a916871ca8d3c208c16d87cfd47 */\n      0x30644e72e131a029b85045b68181585d97816a916871ca8d3c208c16d87cfd47\n        /* \"contracts/.deps/github/succinctlabs/sp1-contracts/contracts/src/v5.0.0/Groth16Verifier.sol\":12840:12842  x0 */\n      dup7\n        /* \"contracts/.deps/github/succinctlabs/sp1-contracts/contracts/src/v5.0.0/Groth16Verifier.sol\":12840:12847  x0 >= P */\n      lt\n      iszero\n        /* \"contracts/.deps/github/succinctlabs/sp1-contracts/contracts/src/v5.0.0/Groth16Verifier.sol\":12840:12858  x0 >= P || x1 >= P */\n      dup1\n      tag_149\n      jumpi\n      pop\n        /* \"contracts/.deps/github/succinctlabs/sp1-contracts/contracts/src/v5.0.0/Groth16Verifier.sol\":1431:1497  0x30644e72e131a029b85045b68181585d97816a916871ca8d3c208c16d87cfd47 */\n      0x30644e72e131a029b85045b68181585d97816a916871ca8d3c208c16d87cfd47\n        /* \"contracts/.deps/github/succinctlabs/sp1-contracts/contracts/src/v5.0.0/Groth16Verifier.sol\":12851:12853  x1 */\n      dup6\n        /* \"contracts/.deps/github/succinctlabs/sp1-contracts/contracts/src/v5.0.0/Groth16Verifier.sol\":12851:12858  x1 >= P */\n      lt\n      iszero\n        /* \"contracts/.deps/github/succinctlabs/sp1-contracts/contracts/src/v5.0.0/Groth16Verifier.sol\":12840:12858  x0 >= P || x1 >= P */\n    tag_149:\n        /* \"contracts/.deps/github/succinctlabs/sp1-contracts/contracts/src/v5.0.0/Groth16Verifier.sol\":12840:12869  x0 >= P || x1 >= P || y0 >= P */\n      dup1\n      tag_150\n      jumpi\n      pop\n        /* \"contracts/.deps/github/succinctlabs/sp1-contracts/contracts/src/v5.0.0/Groth16Verifier.sol\":1431:1497  0x30644e72e131a029b85045b68181585d97816a916871ca8d3c208c16d87cfd47 */\n      0x30644e72e131a029b85045b68181585d97816a916871ca8d3c208c16d87cfd47\n        /* \"contracts/.deps/github/succinctlabs/sp1-contracts/contracts/src/v5.0.0/Groth16Verifier.sol\":12862:12864  y0 */\n      dup5\n        /* \"contracts/.deps/github/succinctlabs/sp1-contracts/contracts/src/v5.0.0/Groth16Verifier.sol\":12862:12869  y0 >= P */\n      lt\n      iszero\n        /* \"contracts/.deps/github/succinctlabs/sp1-contracts/contracts/src/v5.0.0/Groth16Verifier.sol\":12840:12869  x0 >= P || x1 >= P || y0 >= P */\n    tag_150:\n        /* \"contracts/.deps/github/succinctlabs/sp1-contracts/contracts/src/v5.0.0/Groth16Verifier.sol\":12840:12880  x0 >= P || x1 >= P || y0 >= P || y1 >= P */\n      dup1\n      tag_151\n      jumpi\n      pop\n        /* \"contracts/.deps/github/succinctlabs/sp1-contracts/contracts/src/v5.0.0/Groth16Verifier.sol\":1431:1497  0x30644e72e131a029b85045b68181585d97816a916871ca8d3c208c16d87cfd47 */\n      0x30644e72e131a029b85045b68181585d97816a916871ca8d3c208c16d87cfd47\n        /* \"contracts/.deps/github/succinctlabs/sp1-contracts/contracts/src/v5.0.0/Groth16Verifier.sol\":12873:12875  y1 */\n      dup4\n        /* \"contracts/.deps/github/succinctlabs/sp1-contracts/contracts/src/v5.0.0/Groth16Verifier.sol\":12873:12880  y1 >= P */\n      lt\n      iszero\n        /* \"contracts/.deps/github/succinctlabs/sp1-contracts/contracts/src/v5.0.0/Groth16Verifier.sol\":12840:12880  x0 >= P || x1 >= P || y0 >= P || y1 >= P */\n    tag_151:\n        /* \"contracts/.deps/github/succinctlabs/sp1-contracts/contracts/src/v5.0.0/Groth16Verifier.sol\":12836:12969  if (x0 >= P || x1 >= P || y0 >= P || y1 >= P) {... */\n      iszero\n      tag_152\n      jumpi\n        /* \"contracts/.deps/github/succinctlabs/sp1-contracts/contracts/src/v5.0.0/Groth16Verifier.sol\":12943:12957  ProofInvalid() */\n      mload(0x40)\n      0x7fcdd1f400000000000000000000000000000000000000000000000000000000\n      dup2\n      mstore\n      0x04\n      add\n      mload(0x40)\n      dup1\n      swap2\n      sub\n      swap1\n      revert\n        /* \"contracts/.deps/github/succinctlabs/sp1-contracts/contracts/src/v5.0.0/Groth16Verifier.sol\":12836:12969  if (x0 >= P || x1 >= P || y0 >= P || y1 >= P) {... */\n    tag_152:\n        /* \"contracts/.deps/github/succinctlabs/sp1-contracts/contracts/src/v5.0.0/Groth16Verifier.sol\":13006:13007  0 */\n      0x00\n        /* \"contracts/.deps/github/succinctlabs/sp1-contracts/contracts/src/v5.0.0/Groth16Verifier.sol\":12999:13001  y1 */\n      dup4\n        /* \"contracts/.deps/github/succinctlabs/sp1-contracts/contracts/src/v5.0.0/Groth16Verifier.sol\":12994:12996  y0 */\n      dup6\n        /* \"contracts/.deps/github/succinctlabs/sp1-contracts/contracts/src/v5.0.0/Groth16Verifier.sol\":12989:12991  x1 */\n      dup8\n        /* \"contracts/.deps/github/succinctlabs/sp1-contracts/contracts/src/v5.0.0/Groth16Verifier.sol\":12984:12986  x0 */\n      dup10\n        /* \"contracts/.deps/github/succinctlabs/sp1-contracts/contracts/src/v5.0.0/Groth16Verifier.sol\":12984:12991  x0 | x1 */\n      or\n        /* \"contracts/.deps/github/succinctlabs/sp1-contracts/contracts/src/v5.0.0/Groth16Verifier.sol\":12984:12996  x0 | x1 | y0 */\n      or\n        /* \"contracts/.deps/github/succinctlabs/sp1-contracts/contracts/src/v5.0.0/Groth16Verifier.sol\":12984:13001  x0 | x1 | y0 | y1 */\n      or\n        /* \"contracts/.deps/github/succinctlabs/sp1-contracts/contracts/src/v5.0.0/Groth16Verifier.sol\":12983:13007  (x0 | x1 | y0 | y1) == 0 */\n      sub\n        /* \"contracts/.deps/github/succinctlabs/sp1-contracts/contracts/src/v5.0.0/Groth16Verifier.sol\":12979:13083  if ((x0 | x1 | y0 | y1) == 0) {... */\n      tag_153\n      jumpi\n        /* \"contracts/.deps/github/succinctlabs/sp1-contracts/contracts/src/v5.0.0/Groth16Verifier.sol\":13066:13067  0 */\n      0x00\n        /* \"contracts/.deps/github/succinctlabs/sp1-contracts/contracts/src/v5.0.0/Groth16Verifier.sol\":13069:13070  0 */\n      0x00\n        /* \"contracts/.deps/github/succinctlabs/sp1-contracts/contracts/src/v5.0.0/Groth16Verifier.sol\":13058:13071  return (0, 0) */\n      swap2\n      pop\n      swap2\n      pop\n      jump(tag_148)\n        /* \"contracts/.deps/github/succinctlabs/sp1-contracts/contracts/src/v5.0.0/Groth16Verifier.sol\":12979:13083  if ((x0 | x1 | y0 | y1) == 0) {... */\n    tag_153:\n        /* \"contracts/.deps/github/succinctlabs/sp1-contracts/contracts/src/v5.0.0/Groth16Verifier.sol\":13193:13207  uint256 y0_pos */\n      0x00\n        /* \"contracts/.deps/github/succinctlabs/sp1-contracts/contracts/src/v5.0.0/Groth16Verifier.sol\":13218:13232  uint256 y1_pos */\n      0x00\n        /* \"contracts/.deps/github/succinctlabs/sp1-contracts/contracts/src/v5.0.0/Groth16Verifier.sol\":13258:13270  uint256 n3ab */\n      0x00\n        /* \"contracts/.deps/github/succinctlabs/sp1-contracts/contracts/src/v5.0.0/Groth16Verifier.sol\":1431:1497  0x30644e72e131a029b85045b68181585d97816a916871ca8d3c208c16d87cfd47 */\n      0x30644e72e131a029b85045b68181585d97816a916871ca8d3c208c16d87cfd47\n        /* \"contracts/.deps/github/succinctlabs/sp1-contracts/contracts/src/v5.0.0/Groth16Verifier.sol\":13273:13306  mulmod(mulmod(x0, x1, P), P-3, P) */\n      dup1\n      tag_154\n      jumpi\n      tag_155\n      tag_136\n      jump\t// in\n    tag_155:\n    tag_154:\n        /* \"contracts/.deps/github/succinctlabs/sp1-contracts/contracts/src/v5.0.0/Groth16Verifier.sol\":13301:13302  3 */\n      0x03\n        /* \"contracts/.deps/github/succinctlabs/sp1-contracts/contracts/src/v5.0.0/Groth16Verifier.sol\":1431:1497  0x30644e72e131a029b85045b68181585d97816a916871ca8d3c208c16d87cfd47 */\n      0x30644e72e131a029b85045b68181585d97816a916871ca8d3c208c16d87cfd47\n        /* \"contracts/.deps/github/succinctlabs/sp1-contracts/contracts/src/v5.0.0/Groth16Verifier.sol\":13299:13302  P-3 */\n      tag_156\n      swap2\n      swap1\n      tag_157\n      jump\t// in\n    tag_156:\n        /* \"contracts/.deps/github/succinctlabs/sp1-contracts/contracts/src/v5.0.0/Groth16Verifier.sol\":1431:1497  0x30644e72e131a029b85045b68181585d97816a916871ca8d3c208c16d87cfd47 */\n      0x30644e72e131a029b85045b68181585d97816a916871ca8d3c208c16d87cfd47\n        /* \"contracts/.deps/github/succinctlabs/sp1-contracts/contracts/src/v5.0.0/Groth16Verifier.sol\":13280:13297  mulmod(x0, x1, P) */\n      dup1\n      tag_158\n      jumpi\n      tag_159\n      tag_136\n      jump\t// in\n    tag_159:\n    tag_158:\n        /* \"contracts/.deps/github/succinctlabs/sp1-contracts/contracts/src/v5.0.0/Groth16Verifier.sol\":13291:13293  x1 */\n      dup11\n        /* \"contracts/.deps/github/succinctlabs/sp1-contracts/contracts/src/v5.0.0/Groth16Verifier.sol\":13287:13289  x0 */\n      dup13\n        /* \"contracts/.deps/github/succinctlabs/sp1-contracts/contracts/src/v5.0.0/Groth16Verifier.sol\":13280:13297  mulmod(x0, x1, P) */\n      mulmod\n        /* \"contracts/.deps/github/succinctlabs/sp1-contracts/contracts/src/v5.0.0/Groth16Verifier.sol\":13273:13306  mulmod(mulmod(x0, x1, P), P-3, P) */\n      mulmod\n        /* \"contracts/.deps/github/succinctlabs/sp1-contracts/contracts/src/v5.0.0/Groth16Verifier.sol\":13258:13306  uint256 n3ab = mulmod(mulmod(x0, x1, P), P-3, P) */\n      swap1\n      pop\n        /* \"contracts/.deps/github/succinctlabs/sp1-contracts/contracts/src/v5.0.0/Groth16Verifier.sol\":13321:13332  uint256 a_3 */\n      0x00\n        /* \"contracts/.deps/github/succinctlabs/sp1-contracts/contracts/src/v5.0.0/Groth16Verifier.sol\":1431:1497  0x30644e72e131a029b85045b68181585d97816a916871ca8d3c208c16d87cfd47 */\n      0x30644e72e131a029b85045b68181585d97816a916871ca8d3c208c16d87cfd47\n        /* \"contracts/.deps/github/succinctlabs/sp1-contracts/contracts/src/v5.0.0/Groth16Verifier.sol\":13335:13367  mulmod(mulmod(x0, x0, P), x0, P) */\n      dup1\n      tag_160\n      jumpi\n      tag_161\n      tag_136\n      jump\t// in\n    tag_161:\n    tag_160:\n        /* \"contracts/.deps/github/succinctlabs/sp1-contracts/contracts/src/v5.0.0/Groth16Verifier.sol\":13361:13363  x0 */\n      dup11\n        /* \"contracts/.deps/github/succinctlabs/sp1-contracts/contracts/src/v5.0.0/Groth16Verifier.sol\":1431:1497  0x30644e72e131a029b85045b68181585d97816a916871ca8d3c208c16d87cfd47 */\n      0x30644e72e131a029b85045b68181585d97816a916871ca8d3c208c16d87cfd47\n        /* \"contracts/.deps/github/succinctlabs/sp1-contracts/contracts/src/v5.0.0/Groth16Verifier.sol\":13342:13359  mulmod(x0, x0, P) */\n      dup1\n      tag_162\n      jumpi\n      tag_163\n      tag_136\n      jump\t// in\n    tag_163:\n    tag_162:\n        /* \"contracts/.deps/github/succinctlabs/sp1-contracts/contracts/src/v5.0.0/Groth16Verifier.sol\":13353:13355  x0 */\n      dup13\n        /* \"contracts/.deps/github/succinctlabs/sp1-contracts/contracts/src/v5.0.0/Groth16Verifier.sol\":13349:13351  x0 */\n      dup14\n        /* \"contracts/.deps/github/succinctlabs/sp1-contracts/contracts/src/v5.0.0/Groth16Verifier.sol\":13342:13359  mulmod(x0, x0, P) */\n      mulmod\n        /* \"contracts/.deps/github/succinctlabs/sp1-contracts/contracts/src/v5.0.0/Groth16Verifier.sol\":13335:13367  mulmod(mulmod(x0, x0, P), x0, P) */\n      mulmod\n        /* \"contracts/.deps/github/succinctlabs/sp1-contracts/contracts/src/v5.0.0/Groth16Verifier.sol\":13321:13367  uint256 a_3 = mulmod(mulmod(x0, x0, P), x0, P) */\n      swap1\n      pop\n        /* \"contracts/.deps/github/succinctlabs/sp1-contracts/contracts/src/v5.0.0/Groth16Verifier.sol\":13382:13393  uint256 b_3 */\n      0x00\n        /* \"contracts/.deps/github/succinctlabs/sp1-contracts/contracts/src/v5.0.0/Groth16Verifier.sol\":1431:1497  0x30644e72e131a029b85045b68181585d97816a916871ca8d3c208c16d87cfd47 */\n      0x30644e72e131a029b85045b68181585d97816a916871ca8d3c208c16d87cfd47\n        /* \"contracts/.deps/github/succinctlabs/sp1-contracts/contracts/src/v5.0.0/Groth16Verifier.sol\":13396:13428  mulmod(mulmod(x1, x1, P), x1, P) */\n      dup1\n      tag_164\n      jumpi\n      tag_165\n      tag_136\n      jump\t// in\n    tag_165:\n    tag_164:\n        /* \"contracts/.deps/github/succinctlabs/sp1-contracts/contracts/src/v5.0.0/Groth16Verifier.sol\":13422:13424  x1 */\n      dup11\n        /* \"contracts/.deps/github/succinctlabs/sp1-contracts/contracts/src/v5.0.0/Groth16Verifier.sol\":1431:1497  0x30644e72e131a029b85045b68181585d97816a916871ca8d3c208c16d87cfd47 */\n      0x30644e72e131a029b85045b68181585d97816a916871ca8d3c208c16d87cfd47\n        /* \"contracts/.deps/github/succinctlabs/sp1-contracts/contracts/src/v5.0.0/Groth16Verifier.sol\":13403:13420  mulmod(x1, x1, P) */\n      dup1\n      tag_166\n      jumpi\n      tag_167\n      tag_136\n      jump\t// in\n    tag_167:\n    tag_166:\n        /* \"contracts/.deps/github/succinctlabs/sp1-contracts/contracts/src/v5.0.0/Groth16Verifier.sol\":13414:13416  x1 */\n      dup13\n        /* \"contracts/.deps/github/succinctlabs/sp1-contracts/contracts/src/v5.0.0/Groth16Verifier.sol\":13410:13412  x1 */\n      dup14\n        /* \"contracts/.deps/github/succinctlabs/sp1-contracts/contracts/src/v5.0.0/Groth16Verifier.sol\":13403:13420  mulmod(x1, x1, P) */\n      mulmod\n        /* \"contracts/.deps/github/succinctlabs/sp1-contracts/contracts/src/v5.0.0/Groth16Verifier.sol\":13396:13428  mulmod(mulmod(x1, x1, P), x1, P) */\n      mulmod\n        /* \"contracts/.deps/github/succinctlabs/sp1-contracts/contracts/src/v5.0.0/Groth16Verifier.sol\":13382:13428  uint256 b_3 = mulmod(mulmod(x1, x1, P), x1, P) */\n      swap1\n      pop\n        /* \"contracts/.deps/github/succinctlabs/sp1-contracts/contracts/src/v5.0.0/Groth16Verifier.sol\":1431:1497  0x30644e72e131a029b85045b68181585d97816a916871ca8d3c208c16d87cfd47 */\n      0x30644e72e131a029b85045b68181585d97816a916871ca8d3c208c16d87cfd47\n        /* \"contracts/.deps/github/succinctlabs/sp1-contracts/contracts/src/v5.0.0/Groth16Verifier.sol\":13452:13517  addmod(FRACTION_27_82_FP, addmod(a_3, mulmod(n3ab, x1, P), P), P) */\n      dup1\n      tag_168\n      jumpi\n      tag_169\n      tag_136\n      jump\t// in\n    tag_169:\n    tag_168:\n        /* \"contracts/.deps/github/succinctlabs/sp1-contracts/contracts/src/v5.0.0/Groth16Verifier.sol\":1431:1497  0x30644e72e131a029b85045b68181585d97816a916871ca8d3c208c16d87cfd47 */\n      0x30644e72e131a029b85045b68181585d97816a916871ca8d3c208c16d87cfd47\n        /* \"contracts/.deps/github/succinctlabs/sp1-contracts/contracts/src/v5.0.0/Groth16Verifier.sol\":13478:13513  addmod(a_3, mulmod(n3ab, x1, P), P) */\n      dup1\n      tag_170\n      jumpi\n      tag_171\n      tag_136\n      jump\t// in\n    tag_171:\n    tag_170:\n        /* \"contracts/.deps/github/succinctlabs/sp1-contracts/contracts/src/v5.0.0/Groth16Verifier.sol\":1431:1497  0x30644e72e131a029b85045b68181585d97816a916871ca8d3c208c16d87cfd47 */\n      0x30644e72e131a029b85045b68181585d97816a916871ca8d3c208c16d87cfd47\n        /* \"contracts/.deps/github/succinctlabs/sp1-contracts/contracts/src/v5.0.0/Groth16Verifier.sol\":13490:13509  mulmod(n3ab, x1, P) */\n      dup1\n      tag_172\n      jumpi\n      tag_173\n      tag_136\n      jump\t// in\n    tag_173:\n    tag_172:\n        /* \"contracts/.deps/github/succinctlabs/sp1-contracts/contracts/src/v5.0.0/Groth16Verifier.sol\":13503:13505  x1 */\n      dup13\n        /* \"contracts/.deps/github/succinctlabs/sp1-contracts/contracts/src/v5.0.0/Groth16Verifier.sol\":13497:13501  n3ab */\n      dup7\n        /* \"contracts/.deps/github/succinctlabs/sp1-contracts/contracts/src/v5.0.0/Groth16Verifier.sol\":13490:13509  mulmod(n3ab, x1, P) */\n      mulmod\n        /* \"contracts/.deps/github/succinctlabs/sp1-contracts/contracts/src/v5.0.0/Groth16Verifier.sol\":13485:13488  a_3 */\n      dup5\n        /* \"contracts/.deps/github/succinctlabs/sp1-contracts/contracts/src/v5.0.0/Groth16Verifier.sol\":13478:13513  addmod(a_3, mulmod(n3ab, x1, P), P) */\n      addmod\n        /* \"contracts/.deps/github/succinctlabs/sp1-contracts/contracts/src/v5.0.0/Groth16Verifier.sol\":2262:2328  0x2b149d40ceb8aaae81be18991be06ac3b5b4c5e559dbefa33267e6dc24a138e5 */\n      0x2b149d40ceb8aaae81be18991be06ac3b5b4c5e559dbefa33267e6dc24a138e5\n        /* \"contracts/.deps/github/succinctlabs/sp1-contracts/contracts/src/v5.0.0/Groth16Verifier.sol\":13452:13517  addmod(FRACTION_27_82_FP, addmod(a_3, mulmod(n3ab, x1, P), P), P) */\n      addmod\n        /* \"contracts/.deps/github/succinctlabs/sp1-contracts/contracts/src/v5.0.0/Groth16Verifier.sol\":13443:13517  y0_pos = addmod(FRACTION_27_82_FP, addmod(a_3, mulmod(n3ab, x1, P), P), P) */\n      swap5\n      pop\n        /* \"contracts/.deps/github/succinctlabs/sp1-contracts/contracts/src/v5.0.0/Groth16Verifier.sol\":13541:13614  negate(addmod(FRACTION_3_82_FP,  addmod(b_3, mulmod(n3ab, x0, P), P), P)) */\n      tag_174\n        /* \"contracts/.deps/github/succinctlabs/sp1-contracts/contracts/src/v5.0.0/Groth16Verifier.sol\":1431:1497  0x30644e72e131a029b85045b68181585d97816a916871ca8d3c208c16d87cfd47 */\n      0x30644e72e131a029b85045b68181585d97816a916871ca8d3c208c16d87cfd47\n        /* \"contracts/.deps/github/succinctlabs/sp1-contracts/contracts/src/v5.0.0/Groth16Verifier.sol\":13548:13613  addmod(FRACTION_3_82_FP,  addmod(b_3, mulmod(n3ab, x0, P), P), P) */\n      dup1\n      tag_175\n      jumpi\n      tag_176\n      tag_136\n      jump\t// in\n    tag_176:\n    tag_175:\n        /* \"contracts/.deps/github/succinctlabs/sp1-contracts/contracts/src/v5.0.0/Groth16Verifier.sol\":1431:1497  0x30644e72e131a029b85045b68181585d97816a916871ca8d3c208c16d87cfd47 */\n      0x30644e72e131a029b85045b68181585d97816a916871ca8d3c208c16d87cfd47\n        /* \"contracts/.deps/github/succinctlabs/sp1-contracts/contracts/src/v5.0.0/Groth16Verifier.sol\":13574:13609  addmod(b_3, mulmod(n3ab, x0, P), P) */\n      dup1\n      tag_177\n      jumpi\n      tag_178\n      tag_136\n      jump\t// in\n    tag_178:\n    tag_177:\n        /* \"contracts/.deps/github/succinctlabs/sp1-contracts/contracts/src/v5.0.0/Groth16Verifier.sol\":1431:1497  0x30644e72e131a029b85045b68181585d97816a916871ca8d3c208c16d87cfd47 */\n      0x30644e72e131a029b85045b68181585d97816a916871ca8d3c208c16d87cfd47\n        /* \"contracts/.deps/github/succinctlabs/sp1-contracts/contracts/src/v5.0.0/Groth16Verifier.sol\":13586:13605  mulmod(n3ab, x0, P) */\n      dup1\n      tag_179\n      jumpi\n      tag_180\n      tag_136\n      jump\t// in\n    tag_180:\n    tag_179:\n        /* \"contracts/.deps/github/succinctlabs/sp1-contracts/contracts/src/v5.0.0/Groth16Verifier.sol\":13599:13601  x0 */\n      dup15\n        /* \"contracts/.deps/github/succinctlabs/sp1-contracts/contracts/src/v5.0.0/Groth16Verifier.sol\":13593:13597  n3ab */\n      dup8\n        /* \"contracts/.deps/github/succinctlabs/sp1-contracts/contracts/src/v5.0.0/Groth16Verifier.sol\":13586:13605  mulmod(n3ab, x0, P) */\n      mulmod\n        /* \"contracts/.deps/github/succinctlabs/sp1-contracts/contracts/src/v5.0.0/Groth16Verifier.sol\":13581:13584  b_3 */\n      dup5\n        /* \"contracts/.deps/github/succinctlabs/sp1-contracts/contracts/src/v5.0.0/Groth16Verifier.sol\":13574:13609  addmod(b_3, mulmod(n3ab, x0, P), P) */\n      addmod\n        /* \"contracts/.deps/github/succinctlabs/sp1-contracts/contracts/src/v5.0.0/Groth16Verifier.sol\":2371:2437  0x2fcd3ac2a640a154eb23960892a85a68f031ca0c8344b23a577dcf1052b9e775 */\n      0x2fcd3ac2a640a154eb23960892a85a68f031ca0c8344b23a577dcf1052b9e775\n        /* \"contracts/.deps/github/succinctlabs/sp1-contracts/contracts/src/v5.0.0/Groth16Verifier.sol\":13548:13613  addmod(FRACTION_3_82_FP,  addmod(b_3, mulmod(n3ab, x0, P), P), P) */\n      addmod\n        /* \"contracts/.deps/github/succinctlabs/sp1-contracts/contracts/src/v5.0.0/Groth16Verifier.sol\":13541:13547  negate */\n      tag_145\n        /* \"contracts/.deps/github/succinctlabs/sp1-contracts/contracts/src/v5.0.0/Groth16Verifier.sol\":13541:13614  negate(addmod(FRACTION_3_82_FP,  addmod(b_3, mulmod(n3ab, x0, P), P), P)) */\n      jump\t// in\n    tag_174:\n        /* \"contracts/.deps/github/succinctlabs/sp1-contracts/contracts/src/v5.0.0/Groth16Verifier.sol\":13532:13614  y1_pos = negate(addmod(FRACTION_3_82_FP,  addmod(b_3, mulmod(n3ab, x0, P), P), P)) */\n      swap4\n      pop\n        /* \"contracts/.deps/github/succinctlabs/sp1-contracts/contracts/src/v5.0.0/Groth16Verifier.sol\":13243:13626  {... */\n      pop\n      pop\n      pop\n        /* \"contracts/.deps/github/succinctlabs/sp1-contracts/contracts/src/v5.0.0/Groth16Verifier.sol\":13738:13747  bool hint */\n      0x00\n        /* \"contracts/.deps/github/succinctlabs/sp1-contracts/contracts/src/v5.0.0/Groth16Verifier.sol\":13773:13782  uint256 d */\n      0x00\n        /* \"contracts/.deps/github/succinctlabs/sp1-contracts/contracts/src/v5.0.0/Groth16Verifier.sol\":13785:13857  sqrt_Fp(addmod(mulmod(y0_pos, y0_pos, P), mulmod(y1_pos, y1_pos, P), P)) */\n      tag_181\n        /* \"contracts/.deps/github/succinctlabs/sp1-contracts/contracts/src/v5.0.0/Groth16Verifier.sol\":1431:1497  0x30644e72e131a029b85045b68181585d97816a916871ca8d3c208c16d87cfd47 */\n      0x30644e72e131a029b85045b68181585d97816a916871ca8d3c208c16d87cfd47\n        /* \"contracts/.deps/github/succinctlabs/sp1-contracts/contracts/src/v5.0.0/Groth16Verifier.sol\":13793:13856  addmod(mulmod(y0_pos, y0_pos, P), mulmod(y1_pos, y1_pos, P), P) */\n      dup1\n      tag_182\n      jumpi\n      tag_183\n      tag_136\n      jump\t// in\n    tag_183:\n    tag_182:\n        /* \"contracts/.deps/github/succinctlabs/sp1-contracts/contracts/src/v5.0.0/Groth16Verifier.sol\":1431:1497  0x30644e72e131a029b85045b68181585d97816a916871ca8d3c208c16d87cfd47 */\n      0x30644e72e131a029b85045b68181585d97816a916871ca8d3c208c16d87cfd47\n        /* \"contracts/.deps/github/succinctlabs/sp1-contracts/contracts/src/v5.0.0/Groth16Verifier.sol\":13827:13852  mulmod(y1_pos, y1_pos, P) */\n      dup1\n      tag_184\n      jumpi\n      tag_185\n      tag_136\n      jump\t// in\n    tag_185:\n    tag_184:\n        /* \"contracts/.deps/github/succinctlabs/sp1-contracts/contracts/src/v5.0.0/Groth16Verifier.sol\":13842:13848  y1_pos */\n      dup6\n        /* \"contracts/.deps/github/succinctlabs/sp1-contracts/contracts/src/v5.0.0/Groth16Verifier.sol\":13834:13840  y1_pos */\n      dup7\n        /* \"contracts/.deps/github/succinctlabs/sp1-contracts/contracts/src/v5.0.0/Groth16Verifier.sol\":13827:13852  mulmod(y1_pos, y1_pos, P) */\n      mulmod\n        /* \"contracts/.deps/github/succinctlabs/sp1-contracts/contracts/src/v5.0.0/Groth16Verifier.sol\":1431:1497  0x30644e72e131a029b85045b68181585d97816a916871ca8d3c208c16d87cfd47 */\n      0x30644e72e131a029b85045b68181585d97816a916871ca8d3c208c16d87cfd47\n        /* \"contracts/.deps/github/succinctlabs/sp1-contracts/contracts/src/v5.0.0/Groth16Verifier.sol\":13800:13825  mulmod(y0_pos, y0_pos, P) */\n      dup1\n      tag_186\n      jumpi\n      tag_187\n      tag_136\n      jump\t// in\n    tag_187:\n    tag_186:\n        /* \"contracts/.deps/github/succinctlabs/sp1-contracts/contracts/src/v5.0.0/Groth16Verifier.sol\":13815:13821  y0_pos */\n      dup8\n        /* \"contracts/.deps/github/succinctlabs/sp1-contracts/contracts/src/v5.0.0/Groth16Verifier.sol\":13807:13813  y0_pos */\n      dup9\n        /* \"contracts/.deps/github/succinctlabs/sp1-contracts/contracts/src/v5.0.0/Groth16Verifier.sol\":13800:13825  mulmod(y0_pos, y0_pos, P) */\n      mulmod\n        /* \"contracts/.deps/github/succinctlabs/sp1-contracts/contracts/src/v5.0.0/Groth16Verifier.sol\":13793:13856  addmod(mulmod(y0_pos, y0_pos, P), mulmod(y1_pos, y1_pos, P), P) */\n      addmod\n        /* \"contracts/.deps/github/succinctlabs/sp1-contracts/contracts/src/v5.0.0/Groth16Verifier.sol\":13785:13792  sqrt_Fp */\n      tag_141\n        /* \"contracts/.deps/github/succinctlabs/sp1-contracts/contracts/src/v5.0.0/Groth16Verifier.sol\":13785:13857  sqrt_Fp(addmod(mulmod(y0_pos, y0_pos, P), mulmod(y1_pos, y1_pos, P), P)) */\n      jump\t// in\n    tag_181:\n        /* \"contracts/.deps/github/succinctlabs/sp1-contracts/contracts/src/v5.0.0/Groth16Verifier.sol\":13773:13857  uint256 d = sqrt_Fp(addmod(mulmod(y0_pos, y0_pos, P), mulmod(y1_pos, y1_pos, P), P)) */\n      swap1\n      pop\n        /* \"contracts/.deps/github/succinctlabs/sp1-contracts/contracts/src/v5.0.0/Groth16Verifier.sol\":13880:13941  isSquare_Fp(mulmod(addmod(y0_pos, d, P), FRACTION_1_2_FP, P)) */\n      tag_188\n        /* \"contracts/.deps/github/succinctlabs/sp1-contracts/contracts/src/v5.0.0/Groth16Verifier.sol\":1431:1497  0x30644e72e131a029b85045b68181585d97816a916871ca8d3c208c16d87cfd47 */\n      0x30644e72e131a029b85045b68181585d97816a916871ca8d3c208c16d87cfd47\n        /* \"contracts/.deps/github/succinctlabs/sp1-contracts/contracts/src/v5.0.0/Groth16Verifier.sol\":13892:13940  mulmod(addmod(y0_pos, d, P), FRACTION_1_2_FP, P) */\n      dup1\n      tag_189\n      jumpi\n      tag_190\n      tag_136\n      jump\t// in\n    tag_190:\n    tag_189:\n        /* \"contracts/.deps/github/succinctlabs/sp1-contracts/contracts/src/v5.0.0/Groth16Verifier.sol\":2152:2218  0x183227397098d014dc2822db40c0ac2ecbc0b548b438e5469e10460b6c3e7ea4 */\n      0x183227397098d014dc2822db40c0ac2ecbc0b548b438e5469e10460b6c3e7ea4\n        /* \"contracts/.deps/github/succinctlabs/sp1-contracts/contracts/src/v5.0.0/Groth16Verifier.sol\":1431:1497  0x30644e72e131a029b85045b68181585d97816a916871ca8d3c208c16d87cfd47 */\n      0x30644e72e131a029b85045b68181585d97816a916871ca8d3c208c16d87cfd47\n        /* \"contracts/.deps/github/succinctlabs/sp1-contracts/contracts/src/v5.0.0/Groth16Verifier.sol\":13899:13919  addmod(y0_pos, d, P) */\n      dup1\n      tag_191\n      jumpi\n      tag_192\n      tag_136\n      jump\t// in\n    tag_192:\n    tag_191:\n        /* \"contracts/.deps/github/succinctlabs/sp1-contracts/contracts/src/v5.0.0/Groth16Verifier.sol\":13914:13915  d */\n      dup5\n        /* \"contracts/.deps/github/succinctlabs/sp1-contracts/contracts/src/v5.0.0/Groth16Verifier.sol\":13906:13912  y0_pos */\n      dup9\n        /* \"contracts/.deps/github/succinctlabs/sp1-contracts/contracts/src/v5.0.0/Groth16Verifier.sol\":13899:13919  addmod(y0_pos, d, P) */\n      addmod\n        /* \"contracts/.deps/github/succinctlabs/sp1-contracts/contracts/src/v5.0.0/Groth16Verifier.sol\":13892:13940  mulmod(addmod(y0_pos, d, P), FRACTION_1_2_FP, P) */\n      mulmod\n        /* \"contracts/.deps/github/succinctlabs/sp1-contracts/contracts/src/v5.0.0/Groth16Verifier.sol\":13880:13891  isSquare_Fp */\n      tag_193\n        /* \"contracts/.deps/github/succinctlabs/sp1-contracts/contracts/src/v5.0.0/Groth16Verifier.sol\":13880:13941  isSquare_Fp(mulmod(addmod(y0_pos, d, P), FRACTION_1_2_FP, P)) */\n      jump\t// in\n    tag_188:\n        /* \"contracts/.deps/github/succinctlabs/sp1-contracts/contracts/src/v5.0.0/Groth16Verifier.sol\":13879:13941  !isSquare_Fp(mulmod(addmod(y0_pos, d, P), FRACTION_1_2_FP, P)) */\n      iszero\n        /* \"contracts/.deps/github/succinctlabs/sp1-contracts/contracts/src/v5.0.0/Groth16Verifier.sol\":13872:13941  hint = !isSquare_Fp(mulmod(addmod(y0_pos, d, P), FRACTION_1_2_FP, P)) */\n      swap2\n      pop\n        /* \"contracts/.deps/github/succinctlabs/sp1-contracts/contracts/src/v5.0.0/Groth16Verifier.sol\":13758:13953  {... */\n      pop\n        /* \"contracts/.deps/github/succinctlabs/sp1-contracts/contracts/src/v5.0.0/Groth16Verifier.sol\":14006:14036  sqrt_Fp2(y0_pos, y1_pos, hint) */\n      tag_194\n        /* \"contracts/.deps/github/succinctlabs/sp1-contracts/contracts/src/v5.0.0/Groth16Verifier.sol\":14015:14021  y0_pos */\n      dup4\n        /* \"contracts/.deps/github/succinctlabs/sp1-contracts/contracts/src/v5.0.0/Groth16Verifier.sol\":14023:14029  y1_pos */\n      dup4\n        /* \"contracts/.deps/github/succinctlabs/sp1-contracts/contracts/src/v5.0.0/Groth16Verifier.sol\":14031:14035  hint */\n      dup4\n        /* \"contracts/.deps/github/succinctlabs/sp1-contracts/contracts/src/v5.0.0/Groth16Verifier.sol\":14006:14014  sqrt_Fp2 */\n      tag_195\n        /* \"contracts/.deps/github/succinctlabs/sp1-contracts/contracts/src/v5.0.0/Groth16Verifier.sol\":14006:14036  sqrt_Fp2(y0_pos, y1_pos, hint) */\n      jump\t// in\n    tag_194:\n        /* \"contracts/.deps/github/succinctlabs/sp1-contracts/contracts/src/v5.0.0/Groth16Verifier.sol\":13987:14036  (y0_pos, y1_pos) = sqrt_Fp2(y0_pos, y1_pos, hint) */\n      dup1\n      swap4\n      pop\n      dup2\n      swap5\n      pop\n      pop\n      pop\n        /* \"contracts/.deps/github/succinctlabs/sp1-contracts/contracts/src/v5.0.0/Groth16Verifier.sol\":14057:14063  y0_pos */\n      dup3\n        /* \"contracts/.deps/github/succinctlabs/sp1-contracts/contracts/src/v5.0.0/Groth16Verifier.sol\":14051:14053  y0 */\n      dup8\n        /* \"contracts/.deps/github/succinctlabs/sp1-contracts/contracts/src/v5.0.0/Groth16Verifier.sol\":14051:14063  y0 == y0_pos */\n      eq\n        /* \"contracts/.deps/github/succinctlabs/sp1-contracts/contracts/src/v5.0.0/Groth16Verifier.sol\":14051:14079  y0 == y0_pos && y1 == y1_pos */\n      dup1\n      iszero\n      tag_196\n      jumpi\n      pop\n        /* \"contracts/.deps/github/succinctlabs/sp1-contracts/contracts/src/v5.0.0/Groth16Verifier.sol\":14073:14079  y1_pos */\n      dup2\n        /* \"contracts/.deps/github/succinctlabs/sp1-contracts/contracts/src/v5.0.0/Groth16Verifier.sol\":14067:14069  y1 */\n      dup7\n        /* \"contracts/.deps/github/succinctlabs/sp1-contracts/contracts/src/v5.0.0/Groth16Verifier.sol\":14067:14079  y1 == y1_pos */\n      eq\n        /* \"contracts/.deps/github/succinctlabs/sp1-contracts/contracts/src/v5.0.0/Groth16Verifier.sol\":14051:14079  y0 == y0_pos && y1 == y1_pos */\n    tag_196:\n        /* \"contracts/.deps/github/succinctlabs/sp1-contracts/contracts/src/v5.0.0/Groth16Verifier.sol\":14047:14400  if (y0 == y0_pos && y1 == y1_pos) {... */\n      iszero\n      tag_197\n      jumpi\n        /* \"contracts/.deps/github/succinctlabs/sp1-contracts/contracts/src/v5.0.0/Groth16Verifier.sol\":14131:14132  0 */\n      0x00\n        /* \"contracts/.deps/github/succinctlabs/sp1-contracts/contracts/src/v5.0.0/Groth16Verifier.sol\":14114:14118  hint */\n      dup2\n        /* \"contracts/.deps/github/succinctlabs/sp1-contracts/contracts/src/v5.0.0/Groth16Verifier.sol\":14114:14127  hint ? 2  : 0 */\n      tag_198\n      jumpi\n        /* \"contracts/.deps/github/succinctlabs/sp1-contracts/contracts/src/v5.0.0/Groth16Verifier.sol\":14126:14127  0 */\n      0x00\n        /* \"contracts/.deps/github/succinctlabs/sp1-contracts/contracts/src/v5.0.0/Groth16Verifier.sol\":14114:14127  hint ? 2  : 0 */\n      jump(tag_199)\n    tag_198:\n        /* \"contracts/.deps/github/succinctlabs/sp1-contracts/contracts/src/v5.0.0/Groth16Verifier.sol\":14121:14122  2 */\n      0x02\n        /* \"contracts/.deps/github/succinctlabs/sp1-contracts/contracts/src/v5.0.0/Groth16Verifier.sol\":14114:14127  hint ? 2  : 0 */\n    tag_199:\n        /* \"contracts/.deps/github/succinctlabs/sp1-contracts/contracts/src/v5.0.0/Groth16Verifier.sol\":14101:14128  (x0 << 2) | (hint ? 2  : 0) */\n      0xff\n      and\n        /* \"contracts/.deps/github/succinctlabs/sp1-contracts/contracts/src/v5.0.0/Groth16Verifier.sol\":14108:14109  2 */\n      0x02\n        /* \"contracts/.deps/github/succinctlabs/sp1-contracts/contracts/src/v5.0.0/Groth16Verifier.sol\":14102:14104  x0 */\n      dup12\n        /* \"contracts/.deps/github/succinctlabs/sp1-contracts/contracts/src/v5.0.0/Groth16Verifier.sol\":14102:14109  x0 << 2 */\n      swap1\n      shl\n        /* \"contracts/.deps/github/succinctlabs/sp1-contracts/contracts/src/v5.0.0/Groth16Verifier.sol\":14101:14128  (x0 << 2) | (hint ? 2  : 0) */\n      or\n        /* \"contracts/.deps/github/succinctlabs/sp1-contracts/contracts/src/v5.0.0/Groth16Verifier.sol\":14101:14132  (x0 << 2) | (hint ? 2  : 0) | 0 */\n      or\n        /* \"contracts/.deps/github/succinctlabs/sp1-contracts/contracts/src/v5.0.0/Groth16Verifier.sol\":14096:14132  c0 = (x0 << 2) | (hint ? 2  : 0) | 0 */\n      swap5\n      pop\n        /* \"contracts/.deps/github/succinctlabs/sp1-contracts/contracts/src/v5.0.0/Groth16Verifier.sol\":14152:14154  x1 */\n      dup8\n        /* \"contracts/.deps/github/succinctlabs/sp1-contracts/contracts/src/v5.0.0/Groth16Verifier.sol\":14147:14154  c1 = x1 */\n      swap4\n      pop\n        /* \"contracts/.deps/github/succinctlabs/sp1-contracts/contracts/src/v5.0.0/Groth16Verifier.sol\":14047:14400  if (y0 == y0_pos && y1 == y1_pos) {... */\n      jump(tag_200)\n    tag_197:\n        /* \"contracts/.deps/github/succinctlabs/sp1-contracts/contracts/src/v5.0.0/Groth16Verifier.sol\":14182:14196  negate(y0_pos) */\n      tag_201\n        /* \"contracts/.deps/github/succinctlabs/sp1-contracts/contracts/src/v5.0.0/Groth16Verifier.sol\":14189:14195  y0_pos */\n      dup4\n        /* \"contracts/.deps/github/succinctlabs/sp1-contracts/contracts/src/v5.0.0/Groth16Verifier.sol\":14182:14188  negate */\n      tag_145\n        /* \"contracts/.deps/github/succinctlabs/sp1-contracts/contracts/src/v5.0.0/Groth16Verifier.sol\":14182:14196  negate(y0_pos) */\n      jump\t// in\n    tag_201:\n        /* \"contracts/.deps/github/succinctlabs/sp1-contracts/contracts/src/v5.0.0/Groth16Verifier.sol\":14176:14178  y0 */\n      dup8\n        /* \"contracts/.deps/github/succinctlabs/sp1-contracts/contracts/src/v5.0.0/Groth16Verifier.sol\":14176:14196  y0 == negate(y0_pos) */\n      eq\n        /* \"contracts/.deps/github/succinctlabs/sp1-contracts/contracts/src/v5.0.0/Groth16Verifier.sol\":14176:14220  y0 == negate(y0_pos) && y1 == negate(y1_pos) */\n      dup1\n      iszero\n      tag_202\n      jumpi\n      pop\n        /* \"contracts/.deps/github/succinctlabs/sp1-contracts/contracts/src/v5.0.0/Groth16Verifier.sol\":14206:14220  negate(y1_pos) */\n      tag_203\n        /* \"contracts/.deps/github/succinctlabs/sp1-contracts/contracts/src/v5.0.0/Groth16Verifier.sol\":14213:14219  y1_pos */\n      dup3\n        /* \"contracts/.deps/github/succinctlabs/sp1-contracts/contracts/src/v5.0.0/Groth16Verifier.sol\":14206:14212  negate */\n      tag_145\n        /* \"contracts/.deps/github/succinctlabs/sp1-contracts/contracts/src/v5.0.0/Groth16Verifier.sol\":14206:14220  negate(y1_pos) */\n      jump\t// in\n    tag_203:\n        /* \"contracts/.deps/github/succinctlabs/sp1-contracts/contracts/src/v5.0.0/Groth16Verifier.sol\":14200:14202  y1 */\n      dup7\n        /* \"contracts/.deps/github/succinctlabs/sp1-contracts/contracts/src/v5.0.0/Groth16Verifier.sol\":14200:14220  y1 == negate(y1_pos) */\n      eq\n        /* \"contracts/.deps/github/succinctlabs/sp1-contracts/contracts/src/v5.0.0/Groth16Verifier.sol\":14176:14220  y0 == negate(y0_pos) && y1 == negate(y1_pos) */\n    tag_202:\n        /* \"contracts/.deps/github/succinctlabs/sp1-contracts/contracts/src/v5.0.0/Groth16Verifier.sol\":14172:14400  if (y0 == negate(y0_pos) && y1 == negate(y1_pos)) {... */\n      iszero\n      tag_204\n      jumpi\n        /* \"contracts/.deps/github/succinctlabs/sp1-contracts/contracts/src/v5.0.0/Groth16Verifier.sol\":14272:14273  1 */\n      0x01\n        /* \"contracts/.deps/github/succinctlabs/sp1-contracts/contracts/src/v5.0.0/Groth16Verifier.sol\":14255:14259  hint */\n      dup2\n        /* \"contracts/.deps/github/succinctlabs/sp1-contracts/contracts/src/v5.0.0/Groth16Verifier.sol\":14255:14268  hint ? 2  : 0 */\n      tag_205\n      jumpi\n        /* \"contracts/.deps/github/succinctlabs/sp1-contracts/contracts/src/v5.0.0/Groth16Verifier.sol\":14267:14268  0 */\n      0x00\n        /* \"contracts/.deps/github/succinctlabs/sp1-contracts/contracts/src/v5.0.0/Groth16Verifier.sol\":14255:14268  hint ? 2  : 0 */\n      jump(tag_206)\n    tag_205:\n        /* \"contracts/.deps/github/succinctlabs/sp1-contracts/contracts/src/v5.0.0/Groth16Verifier.sol\":14262:14263  2 */\n      0x02\n        /* \"contracts/.deps/github/succinctlabs/sp1-contracts/contracts/src/v5.0.0/Groth16Verifier.sol\":14255:14268  hint ? 2  : 0 */\n    tag_206:\n        /* \"contracts/.deps/github/succinctlabs/sp1-contracts/contracts/src/v5.0.0/Groth16Verifier.sol\":14242:14269  (x0 << 2) | (hint ? 2  : 0) */\n      0xff\n      and\n        /* \"contracts/.deps/github/succinctlabs/sp1-contracts/contracts/src/v5.0.0/Groth16Verifier.sol\":14249:14250  2 */\n      0x02\n        /* \"contracts/.deps/github/succinctlabs/sp1-contracts/contracts/src/v5.0.0/Groth16Verifier.sol\":14243:14245  x0 */\n      dup12\n        /* \"contracts/.deps/github/succinctlabs/sp1-contracts/contracts/src/v5.0.0/Groth16Verifier.sol\":14243:14250  x0 << 2 */\n      swap1\n      shl\n        /* \"contracts/.deps/github/succinctlabs/sp1-contracts/contracts/src/v5.0.0/Groth16Verifier.sol\":14242:14269  (x0 << 2) | (hint ? 2  : 0) */\n      or\n        /* \"contracts/.deps/github/succinctlabs/sp1-contracts/contracts/src/v5.0.0/Groth16Verifier.sol\":14242:14273  (x0 << 2) | (hint ? 2  : 0) | 1 */\n      or\n        /* \"contracts/.deps/github/succinctlabs/sp1-contracts/contracts/src/v5.0.0/Groth16Verifier.sol\":14237:14273  c0 = (x0 << 2) | (hint ? 2  : 0) | 1 */\n      swap5\n      pop\n        /* \"contracts/.deps/github/succinctlabs/sp1-contracts/contracts/src/v5.0.0/Groth16Verifier.sol\":14293:14295  x1 */\n      dup8\n        /* \"contracts/.deps/github/succinctlabs/sp1-contracts/contracts/src/v5.0.0/Groth16Verifier.sol\":14288:14295  c1 = x1 */\n      swap4\n      pop\n        /* \"contracts/.deps/github/succinctlabs/sp1-contracts/contracts/src/v5.0.0/Groth16Verifier.sol\":14172:14400  if (y0 == negate(y0_pos) && y1 == negate(y1_pos)) {... */\n      jump(tag_207)\n    tag_204:\n        /* \"contracts/.deps/github/succinctlabs/sp1-contracts/contracts/src/v5.0.0/Groth16Verifier.sol\":14374:14388  ProofInvalid() */\n      mload(0x40)\n      0x7fcdd1f400000000000000000000000000000000000000000000000000000000\n      dup2\n      mstore\n      0x04\n      add\n      mload(0x40)\n      dup1\n      swap2\n      sub\n      swap1\n      revert\n        /* \"contracts/.deps/github/succinctlabs/sp1-contracts/contracts/src/v5.0.0/Groth16Verifier.sol\":14172:14400  if (y0 == negate(y0_pos) && y1 == negate(y1_pos)) {... */\n    tag_207:\n        /* \"contracts/.deps/github/succinctlabs/sp1-contracts/contracts/src/v5.0.0/Groth16Verifier.sol\":14047:14400  if (y0 == y0_pos && y1 == y1_pos) {... */\n    tag_200:\n        /* \"contracts/.deps/github/succinctlabs/sp1-contracts/contracts/src/v5.0.0/Groth16Verifier.sol\":12825:14407  {... */\n      pop\n      pop\n      pop\n        /* \"contracts/.deps/github/succinctlabs/sp1-contracts/contracts/src/v5.0.0/Groth16Verifier.sol\":12704:14407  function compress_g2(uint256 x0, uint256 x1, uint256 y0, uint256 y1)... */\n    tag_148:\n      swap5\n      pop\n      swap5\n      swap3\n      pop\n      pop\n      pop\n      jump\t// out\n        /* \"contracts/.deps/github/succinctlabs/sp1-contracts/contracts/src/v5.0.0/Groth16Verifier.sol\":17077:19122  function publicInputMSM(uint256[2] calldata input)... */\n    tag_55:\n        /* \"contracts/.deps/github/succinctlabs/sp1-contracts/contracts/src/v5.0.0/Groth16Verifier.sol\":17156:17165  uint256 x */\n      0x00\n        /* \"contracts/.deps/github/succinctlabs/sp1-contracts/contracts/src/v5.0.0/Groth16Verifier.sol\":17167:17176  uint256 y */\n      0x00\n        /* \"contracts/.deps/github/succinctlabs/sp1-contracts/contracts/src/v5.0.0/Groth16Verifier.sol\":17790:17802  bool success */\n      0x00\n        /* \"contracts/.deps/github/succinctlabs/sp1-contracts/contracts/src/v5.0.0/Groth16Verifier.sol\":17805:17809  true */\n      0x01\n        /* \"contracts/.deps/github/succinctlabs/sp1-contracts/contracts/src/v5.0.0/Groth16Verifier.sol\":17790:17809  bool success = true */\n      swap1\n      pop\n        /* \"contracts/.deps/github/succinctlabs/sp1-contracts/contracts/src/v5.0.0/Groth16Verifier.sol\":17875:17879  0x40 */\n      0x40\n        /* \"contracts/.deps/github/succinctlabs/sp1-contracts/contracts/src/v5.0.0/Groth16Verifier.sol\":17869:17880  mload(0x40) */\n      mload\n        /* \"contracts/.deps/github/succinctlabs/sp1-contracts/contracts/src/v5.0.0/Groth16Verifier.sol\":17910:17914  0x40 */\n      0x40\n        /* \"contracts/.deps/github/succinctlabs/sp1-contracts/contracts/src/v5.0.0/Groth16Verifier.sol\":17907:17908  f */\n      dup2\n        /* \"contracts/.deps/github/succinctlabs/sp1-contracts/contracts/src/v5.0.0/Groth16Verifier.sol\":17903:17915  add(f, 0x40) */\n      add\n        /* \"contracts/.deps/github/succinctlabs/sp1-contracts/contracts/src/v5.0.0/Groth16Verifier.sol\":17929:17934  let s */\n      0x00\n        /* \"contracts/.deps/github/succinctlabs/sp1-contracts/contracts/src/v5.0.0/Groth16Verifier.sol\":17958:17968  CONSTANT_X */\n      0x26091e1cafb0ad8a4ea0a694cd3743ebf524779233db734c451d28b58aa9758e\n        /* \"contracts/.deps/github/succinctlabs/sp1-contracts/contracts/src/v5.0.0/Groth16Verifier.sol\":17955:17956  f */\n      dup4\n        /* \"contracts/.deps/github/succinctlabs/sp1-contracts/contracts/src/v5.0.0/Groth16Verifier.sol\":17948:17969  mstore(f, CONSTANT_X) */\n      mstore\n        /* \"contracts/.deps/github/succinctlabs/sp1-contracts/contracts/src/v5.0.0/Groth16Verifier.sol\":18004:18014  CONSTANT_Y */\n      0x9ff50a6b8b11c3ca6fdb2690a124f8ce25489fefa65a3e782e7ba70b66690e\n        /* \"contracts/.deps/github/succinctlabs/sp1-contracts/contracts/src/v5.0.0/Groth16Verifier.sol\":17997:18001  0x20 */\n      0x20\n        /* \"contracts/.deps/github/succinctlabs/sp1-contracts/contracts/src/v5.0.0/Groth16Verifier.sol\":17994:17995  f */\n      dup5\n        /* \"contracts/.deps/github/succinctlabs/sp1-contracts/contracts/src/v5.0.0/Groth16Verifier.sol\":17990:18002  add(f, 0x20) */\n      add\n        /* \"contracts/.deps/github/succinctlabs/sp1-contracts/contracts/src/v5.0.0/Groth16Verifier.sol\":17983:18015  mstore(add(f, 0x20), CONSTANT_Y) */\n      mstore\n        /* \"contracts/.deps/github/succinctlabs/sp1-contracts/contracts/src/v5.0.0/Groth16Verifier.sol\":18039:18046  PUB_0_X */\n      0x061c3fd0fd3da25d2607c227d090cca750ed36c6ec878755e537c1c48951fb4c\n        /* \"contracts/.deps/github/succinctlabs/sp1-contracts/contracts/src/v5.0.0/Groth16Verifier.sol\":18036:18037  g */\n      dup3\n        /* \"contracts/.deps/github/succinctlabs/sp1-contracts/contracts/src/v5.0.0/Groth16Verifier.sol\":18029:18047  mstore(g, PUB_0_X) */\n      mstore\n        /* \"contracts/.deps/github/succinctlabs/sp1-contracts/contracts/src/v5.0.0/Groth16Verifier.sol\":18082:18089  PUB_0_Y */\n      0x0fa17ae9c2033379df7b5c65eff0e107055e9a273e6119a212dd09eb51707219\n        /* \"contracts/.deps/github/succinctlabs/sp1-contracts/contracts/src/v5.0.0/Groth16Verifier.sol\":18075:18079  0x20 */\n      0x20\n        /* \"contracts/.deps/github/succinctlabs/sp1-contracts/contracts/src/v5.0.0/Groth16Verifier.sol\":18072:18073  g */\n      dup4\n        /* \"contracts/.deps/github/succinctlabs/sp1-contracts/contracts/src/v5.0.0/Groth16Verifier.sol\":18068:18080  add(g, 0x20) */\n      add\n        /* \"contracts/.deps/github/succinctlabs/sp1-contracts/contracts/src/v5.0.0/Groth16Verifier.sol\":18061:18090  mstore(add(g, 0x20), PUB_0_Y) */\n      mstore\n        /* \"contracts/.deps/github/succinctlabs/sp1-contracts/contracts/src/v5.0.0/Groth16Verifier.sol\":18123:18128  input */\n      dup7\n        /* \"contracts/.deps/github/succinctlabs/sp1-contracts/contracts/src/v5.0.0/Groth16Verifier.sol\":18110:18129  calldataload(input) */\n      calldataload\n        /* \"contracts/.deps/github/succinctlabs/sp1-contracts/contracts/src/v5.0.0/Groth16Verifier.sol\":18104:18129  s :=  calldataload(input) */\n      swap1\n      pop\n        /* \"contracts/.deps/github/succinctlabs/sp1-contracts/contracts/src/v5.0.0/Groth16Verifier.sol\":18164:18165  s */\n      dup1\n        /* \"contracts/.deps/github/succinctlabs/sp1-contracts/contracts/src/v5.0.0/Groth16Verifier.sol\":18157:18161  0x40 */\n      0x40\n        /* \"contracts/.deps/github/succinctlabs/sp1-contracts/contracts/src/v5.0.0/Groth16Verifier.sol\":18154:18155  g */\n      dup4\n        /* \"contracts/.deps/github/succinctlabs/sp1-contracts/contracts/src/v5.0.0/Groth16Verifier.sol\":18150:18162  add(g, 0x40) */\n      add\n        /* \"contracts/.deps/github/succinctlabs/sp1-contracts/contracts/src/v5.0.0/Groth16Verifier.sol\":18143:18166  mstore(add(g, 0x40), s) */\n      mstore\n        /* \"contracts/.deps/github/succinctlabs/sp1-contracts/contracts/src/v5.0.0/Groth16Verifier.sol\":18210:18211  R */\n      0x30644e72e131a029b85045b68181585d2833e84879b9709143e1f593f0000001\n        /* \"contracts/.deps/github/succinctlabs/sp1-contracts/contracts/src/v5.0.0/Groth16Verifier.sol\":18207:18208  s */\n      dup2\n        /* \"contracts/.deps/github/succinctlabs/sp1-contracts/contracts/src/v5.0.0/Groth16Verifier.sol\":18204:18212  lt(s, R) */\n      lt\n        /* \"contracts/.deps/github/succinctlabs/sp1-contracts/contracts/src/v5.0.0/Groth16Verifier.sol\":18195:18202  success */\n      dup5\n        /* \"contracts/.deps/github/succinctlabs/sp1-contracts/contracts/src/v5.0.0/Groth16Verifier.sol\":18191:18213  and(success, lt(s, R)) */\n      and\n        /* \"contracts/.deps/github/succinctlabs/sp1-contracts/contracts/src/v5.0.0/Groth16Verifier.sol\":18180:18213  success := and(success, lt(s, R)) */\n      swap4\n      pop\n        /* \"contracts/.deps/github/succinctlabs/sp1-contracts/contracts/src/v5.0.0/Groth16Verifier.sol\":18297:18301  0x40 */\n      0x40\n        /* \"contracts/.deps/github/succinctlabs/sp1-contracts/contracts/src/v5.0.0/Groth16Verifier.sol\":18294:18295  g */\n      dup3\n        /* \"contracts/.deps/github/succinctlabs/sp1-contracts/contracts/src/v5.0.0/Groth16Verifier.sol\":18288:18292  0x60 */\n      0x60\n        /* \"contracts/.deps/github/succinctlabs/sp1-contracts/contracts/src/v5.0.0/Groth16Verifier.sol\":18285:18286  g */\n      dup5\n        /* \"contracts/.deps/github/succinctlabs/sp1-contracts/contracts/src/v5.0.0/Groth16Verifier.sol\":18269:18283  PRECOMPILE_MUL */\n      0x07\n        /* \"contracts/.deps/github/succinctlabs/sp1-contracts/contracts/src/v5.0.0/Groth16Verifier.sol\":18262:18267  gas() */\n      gas\n        /* \"contracts/.deps/github/succinctlabs/sp1-contracts/contracts/src/v5.0.0/Groth16Verifier.sol\":18251:18302  staticcall(gas(), PRECOMPILE_MUL, g, 0x60, g, 0x40) */\n      staticcall\n        /* \"contracts/.deps/github/succinctlabs/sp1-contracts/contracts/src/v5.0.0/Groth16Verifier.sol\":18242:18249  success */\n      dup5\n        /* \"contracts/.deps/github/succinctlabs/sp1-contracts/contracts/src/v5.0.0/Groth16Verifier.sol\":18238:18303  and(success, staticcall(gas(), PRECOMPILE_MUL, g, 0x60, g, 0x40)) */\n      and\n        /* \"contracts/.deps/github/succinctlabs/sp1-contracts/contracts/src/v5.0.0/Groth16Verifier.sol\":18227:18303  success := and(success, staticcall(gas(), PRECOMPILE_MUL, g, 0x60, g, 0x40)) */\n      swap4\n      pop\n        /* \"contracts/.deps/github/succinctlabs/sp1-contracts/contracts/src/v5.0.0/Groth16Verifier.sol\":18387:18391  0x40 */\n      0x40\n        /* \"contracts/.deps/github/succinctlabs/sp1-contracts/contracts/src/v5.0.0/Groth16Verifier.sol\":18384:18385  f */\n      dup4\n        /* \"contracts/.deps/github/succinctlabs/sp1-contracts/contracts/src/v5.0.0/Groth16Verifier.sol\":18378:18382  0x80 */\n      0x80\n        /* \"contracts/.deps/github/succinctlabs/sp1-contracts/contracts/src/v5.0.0/Groth16Verifier.sol\":18375:18376  f */\n      dup6\n        /* \"contracts/.deps/github/succinctlabs/sp1-contracts/contracts/src/v5.0.0/Groth16Verifier.sol\":18359:18373  PRECOMPILE_ADD */\n      0x06\n        /* \"contracts/.deps/github/succinctlabs/sp1-contracts/contracts/src/v5.0.0/Groth16Verifier.sol\":18352:18357  gas() */\n      gas\n        /* \"contracts/.deps/github/succinctlabs/sp1-contracts/contracts/src/v5.0.0/Groth16Verifier.sol\":18341:18392  staticcall(gas(), PRECOMPILE_ADD, f, 0x80, f, 0x40) */\n      staticcall\n        /* \"contracts/.deps/github/succinctlabs/sp1-contracts/contracts/src/v5.0.0/Groth16Verifier.sol\":18332:18339  success */\n      dup5\n        /* \"contracts/.deps/github/succinctlabs/sp1-contracts/contracts/src/v5.0.0/Groth16Verifier.sol\":18328:18393  and(success, staticcall(gas(), PRECOMPILE_ADD, f, 0x80, f, 0x40)) */\n      and\n        /* \"contracts/.deps/github/succinctlabs/sp1-contracts/contracts/src/v5.0.0/Groth16Verifier.sol\":18317:18393  success := and(success, staticcall(gas(), PRECOMPILE_ADD, f, 0x80, f, 0x40)) */\n      swap4\n      pop\n        /* \"contracts/.deps/github/succinctlabs/sp1-contracts/contracts/src/v5.0.0/Groth16Verifier.sol\":18417:18424  PUB_1_X */\n      0x04eab241388a79817fe0e0e2ead0b2ec4ffdec51a16028dee020634fd129e71c\n        /* \"contracts/.deps/github/succinctlabs/sp1-contracts/contracts/src/v5.0.0/Groth16Verifier.sol\":18414:18415  g */\n      dup3\n        /* \"contracts/.deps/github/succinctlabs/sp1-contracts/contracts/src/v5.0.0/Groth16Verifier.sol\":18407:18425  mstore(g, PUB_1_X) */\n      mstore\n        /* \"contracts/.deps/github/succinctlabs/sp1-contracts/contracts/src/v5.0.0/Groth16Verifier.sol\":18460:18467  PUB_1_Y */\n      0x07236256d21c60d02f0bdbf95cff83e03ea9e16fca56b18d5544b0889a65c1f5\n        /* \"contracts/.deps/github/succinctlabs/sp1-contracts/contracts/src/v5.0.0/Groth16Verifier.sol\":18453:18457  0x20 */\n      0x20\n        /* \"contracts/.deps/github/succinctlabs/sp1-contracts/contracts/src/v5.0.0/Groth16Verifier.sol\":18450:18451  g */\n      dup4\n        /* \"contracts/.deps/github/succinctlabs/sp1-contracts/contracts/src/v5.0.0/Groth16Verifier.sol\":18446:18458  add(g, 0x20) */\n      add\n        /* \"contracts/.deps/github/succinctlabs/sp1-contracts/contracts/src/v5.0.0/Groth16Verifier.sol\":18439:18468  mstore(add(g, 0x20), PUB_1_Y) */\n      mstore\n        /* \"contracts/.deps/github/succinctlabs/sp1-contracts/contracts/src/v5.0.0/Groth16Verifier.sol\":18512:18514  32 */\n      0x20\n        /* \"contracts/.deps/github/succinctlabs/sp1-contracts/contracts/src/v5.0.0/Groth16Verifier.sol\":18505:18510  input */\n      dup8\n        /* \"contracts/.deps/github/succinctlabs/sp1-contracts/contracts/src/v5.0.0/Groth16Verifier.sol\":18501:18515  add(input, 32) */\n      add\n        /* \"contracts/.deps/github/succinctlabs/sp1-contracts/contracts/src/v5.0.0/Groth16Verifier.sol\":18488:18516  calldataload(add(input, 32)) */\n      calldataload\n        /* \"contracts/.deps/github/succinctlabs/sp1-contracts/contracts/src/v5.0.0/Groth16Verifier.sol\":18482:18516  s :=  calldataload(add(input, 32)) */\n      swap1\n      pop\n        /* \"contracts/.deps/github/succinctlabs/sp1-contracts/contracts/src/v5.0.0/Groth16Verifier.sol\":18551:18552  s */\n      dup1\n        /* \"contracts/.deps/github/succinctlabs/sp1-contracts/contracts/src/v5.0.0/Groth16Verifier.sol\":18544:18548  0x40 */\n      0x40\n        /* \"contracts/.deps/github/succinctlabs/sp1-contracts/contracts/src/v5.0.0/Groth16Verifier.sol\":18541:18542  g */\n      dup4\n        /* \"contracts/.deps/github/succinctlabs/sp1-contracts/contracts/src/v5.0.0/Groth16Verifier.sol\":18537:18549  add(g, 0x40) */\n      add\n        /* \"contracts/.deps/github/succinctlabs/sp1-contracts/contracts/src/v5.0.0/Groth16Verifier.sol\":18530:18553  mstore(add(g, 0x40), s) */\n      mstore\n        /* \"contracts/.deps/github/succinctlabs/sp1-contracts/contracts/src/v5.0.0/Groth16Verifier.sol\":18597:18598  R */\n      0x30644e72e131a029b85045b68181585d2833e84879b9709143e1f593f0000001\n        /* \"contracts/.deps/github/succinctlabs/sp1-contracts/contracts/src/v5.0.0/Groth16Verifier.sol\":18594:18595  s */\n      dup2\n        /* \"contracts/.deps/github/succinctlabs/sp1-contracts/contracts/src/v5.0.0/Groth16Verifier.sol\":18591:18599  lt(s, R) */\n      lt\n        /* \"contracts/.deps/github/succinctlabs/sp1-contracts/contracts/src/v5.0.0/Groth16Verifier.sol\":18582:18589  success */\n      dup5\n        /* \"contracts/.deps/github/succinctlabs/sp1-contracts/contracts/src/v5.0.0/Groth16Verifier.sol\":18578:18600  and(success, lt(s, R)) */\n      and\n        /* \"contracts/.deps/github/succinctlabs/sp1-contracts/contracts/src/v5.0.0/Groth16Verifier.sol\":18567:18600  success := and(success, lt(s, R)) */\n      swap4\n      pop\n        /* \"contracts/.deps/github/succinctlabs/sp1-contracts/contracts/src/v5.0.0/Groth16Verifier.sol\":18684:18688  0x40 */\n      0x40\n        /* \"contracts/.deps/github/succinctlabs/sp1-contracts/contracts/src/v5.0.0/Groth16Verifier.sol\":18681:18682  g */\n      dup3\n        /* \"contracts/.deps/github/succinctlabs/sp1-contracts/contracts/src/v5.0.0/Groth16Verifier.sol\":18675:18679  0x60 */\n      0x60\n        /* \"contracts/.deps/github/succinctlabs/sp1-contracts/contracts/src/v5.0.0/Groth16Verifier.sol\":18672:18673  g */\n      dup5\n        /* \"contracts/.deps/github/succinctlabs/sp1-contracts/contracts/src/v5.0.0/Groth16Verifier.sol\":18656:18670  PRECOMPILE_MUL */\n      0x07\n        /* \"contracts/.deps/github/succinctlabs/sp1-contracts/contracts/src/v5.0.0/Groth16Verifier.sol\":18649:18654  gas() */\n      gas\n        /* \"contracts/.deps/github/succinctlabs/sp1-contracts/contracts/src/v5.0.0/Groth16Verifier.sol\":18638:18689  staticcall(gas(), PRECOMPILE_MUL, g, 0x60, g, 0x40) */\n      staticcall\n        /* \"contracts/.deps/github/succinctlabs/sp1-contracts/contracts/src/v5.0.0/Groth16Verifier.sol\":18629:18636  success */\n      dup5\n        /* \"contracts/.deps/github/succinctlabs/sp1-contracts/contracts/src/v5.0.0/Groth16Verifier.sol\":18625:18690  and(success, staticcall(gas(), PRECOMPILE_MUL, g, 0x60, g, 0x40)) */\n      and\n        /* \"contracts/.deps/github/succinctlabs/sp1-contracts/contracts/src/v5.0.0/Groth16Verifier.sol\":18614:18690  success := and(success, staticcall(gas(), PRECOMPILE_MUL, g, 0x60, g, 0x40)) */\n      swap4\n      pop\n        /* \"contracts/.deps/github/succinctlabs/sp1-contracts/contracts/src/v5.0.0/Groth16Verifier.sol\":18774:18778  0x40 */\n      0x40\n        /* \"contracts/.deps/github/succinctlabs/sp1-contracts/contracts/src/v5.0.0/Groth16Verifier.sol\":18771:18772  f */\n      dup4\n        /* \"contracts/.deps/github/succinctlabs/sp1-contracts/contracts/src/v5.0.0/Groth16Verifier.sol\":18765:18769  0x80 */\n      0x80\n        /* \"contracts/.deps/github/succinctlabs/sp1-contracts/contracts/src/v5.0.0/Groth16Verifier.sol\":18762:18763  f */\n      dup6\n        /* \"contracts/.deps/github/succinctlabs/sp1-contracts/contracts/src/v5.0.0/Groth16Verifier.sol\":18746:18760  PRECOMPILE_ADD */\n      0x06\n        /* \"contracts/.deps/github/succinctlabs/sp1-contracts/contracts/src/v5.0.0/Groth16Verifier.sol\":18739:18744  gas() */\n      gas\n        /* \"contracts/.deps/github/succinctlabs/sp1-contracts/contracts/src/v5.0.0/Groth16Verifier.sol\":18728:18779  staticcall(gas(), PRECOMPILE_ADD, f, 0x80, f, 0x40) */\n      staticcall\n        /* \"contracts/.deps/github/succinctlabs/sp1-contracts/contracts/src/v5.0.0/Groth16Verifier.sol\":18719:18726  success */\n      dup5\n        /* \"contracts/.deps/github/succinctlabs/sp1-contracts/contracts/src/v5.0.0/Groth16Verifier.sol\":18715:18780  and(success, staticcall(gas(), PRECOMPILE_ADD, f, 0x80, f, 0x40)) */\n      and\n        /* \"contracts/.deps/github/succinctlabs/sp1-contracts/contracts/src/v5.0.0/Groth16Verifier.sol\":18704:18780  success := and(success, staticcall(gas(), PRECOMPILE_ADD, f, 0x80, f, 0x40)) */\n      swap4\n      pop\n        /* \"contracts/.deps/github/succinctlabs/sp1-contracts/contracts/src/v5.0.0/Groth16Verifier.sol\":18807:18808  f */\n      dup3\n        /* \"contracts/.deps/github/succinctlabs/sp1-contracts/contracts/src/v5.0.0/Groth16Verifier.sol\":18801:18809  mload(f) */\n      mload\n        /* \"contracts/.deps/github/succinctlabs/sp1-contracts/contracts/src/v5.0.0/Groth16Verifier.sol\":18796:18809  x := mload(f) */\n      swap6\n      pop\n        /* \"contracts/.deps/github/succinctlabs/sp1-contracts/contracts/src/v5.0.0/Groth16Verifier.sol\":18841:18845  0x20 */\n      0x20\n        /* \"contracts/.deps/github/succinctlabs/sp1-contracts/contracts/src/v5.0.0/Groth16Verifier.sol\":18838:18839  f */\n      dup4\n        /* \"contracts/.deps/github/succinctlabs/sp1-contracts/contracts/src/v5.0.0/Groth16Verifier.sol\":18834:18846  add(f, 0x20) */\n      add\n        /* \"contracts/.deps/github/succinctlabs/sp1-contracts/contracts/src/v5.0.0/Groth16Verifier.sol\":18828:18847  mload(add(f, 0x20)) */\n      mload\n        /* \"contracts/.deps/github/succinctlabs/sp1-contracts/contracts/src/v5.0.0/Groth16Verifier.sol\":18823:18847  y := mload(add(f, 0x20)) */\n      swap5\n      pop\n        /* \"contracts/.deps/github/succinctlabs/sp1-contracts/contracts/src/v5.0.0/Groth16Verifier.sol\":17845:18858  {... */\n      pop\n      pop\n      pop\n        /* \"contracts/.deps/github/succinctlabs/sp1-contracts/contracts/src/v5.0.0/Groth16Verifier.sol\":18873:18880  success */\n      dup1\n        /* \"contracts/.deps/github/succinctlabs/sp1-contracts/contracts/src/v5.0.0/Groth16Verifier.sol\":18868:19115  if (!success) {... */\n      tag_209\n      jumpi\n        /* \"contracts/.deps/github/succinctlabs/sp1-contracts/contracts/src/v5.0.0/Groth16Verifier.sol\":19080:19103  PublicInputNotInField() */\n      mload(0x40)\n      0xa54f8e2700000000000000000000000000000000000000000000000000000000\n      dup2\n      mstore\n      0x04\n      add\n      mload(0x40)\n      dup1\n      swap2\n      sub\n      swap1\n      revert\n        /* \"contracts/.deps/github/succinctlabs/sp1-contracts/contracts/src/v5.0.0/Groth16Verifier.sol\":18868:19115  if (!success) {... */\n    tag_209:\n        /* \"contracts/.deps/github/succinctlabs/sp1-contracts/contracts/src/v5.0.0/Groth16Verifier.sol\":17178:19122  {... */\n      pop\n        /* \"contracts/.deps/github/succinctlabs/sp1-contracts/contracts/src/v5.0.0/Groth16Verifier.sol\":17077:19122  function publicInputMSM(uint256[2] calldata input)... */\n      swap2\n      pop\n      swap2\n      jump\t// out\n        /* \"contracts/.deps/github/succinctlabs/sp1-contracts/contracts/src/v5.0.0/Groth16Verifier.sol\":11025:11922  function decompress_g1(uint256 c) internal view returns (uint256 x, uint256 y) {... */\n    tag_63:\n        /* \"contracts/.deps/github/succinctlabs/sp1-contracts/contracts/src/v5.0.0/Groth16Verifier.sol\":11082:11091  uint256 x */\n      0x00\n        /* \"contracts/.deps/github/succinctlabs/sp1-contracts/contracts/src/v5.0.0/Groth16Verifier.sol\":11093:11102  uint256 y */\n      0x00\n        /* \"contracts/.deps/github/succinctlabs/sp1-contracts/contracts/src/v5.0.0/Groth16Verifier.sol\":11272:11273  0 */\n      0x00\n        /* \"contracts/.deps/github/succinctlabs/sp1-contracts/contracts/src/v5.0.0/Groth16Verifier.sol\":11267:11268  c */\n      dup4\n        /* \"contracts/.deps/github/succinctlabs/sp1-contracts/contracts/src/v5.0.0/Groth16Verifier.sol\":11267:11273  c == 0 */\n      sub\n        /* \"contracts/.deps/github/succinctlabs/sp1-contracts/contracts/src/v5.0.0/Groth16Verifier.sol\":11263:11382  if (c == 0) {... */\n      tag_211\n      jumpi\n        /* \"contracts/.deps/github/succinctlabs/sp1-contracts/contracts/src/v5.0.0/Groth16Verifier.sol\":11365:11366  0 */\n      0x00\n        /* \"contracts/.deps/github/succinctlabs/sp1-contracts/contracts/src/v5.0.0/Groth16Verifier.sol\":11368:11369  0 */\n      0x00\n        /* \"contracts/.deps/github/succinctlabs/sp1-contracts/contracts/src/v5.0.0/Groth16Verifier.sol\":11357:11370  return (0, 0) */\n      swap2\n      pop\n      swap2\n      pop\n      jump(tag_210)\n        /* \"contracts/.deps/github/succinctlabs/sp1-contracts/contracts/src/v5.0.0/Groth16Verifier.sol\":11263:11382  if (c == 0) {... */\n    tag_211:\n        /* \"contracts/.deps/github/succinctlabs/sp1-contracts/contracts/src/v5.0.0/Groth16Verifier.sol\":11392:11409  bool negate_point */\n      0x00\n        /* \"contracts/.deps/github/succinctlabs/sp1-contracts/contracts/src/v5.0.0/Groth16Verifier.sol\":11421:11422  1 */\n      0x01\n        /* \"contracts/.deps/github/succinctlabs/sp1-contracts/contracts/src/v5.0.0/Groth16Verifier.sol\":11416:11417  1 */\n      dup1\n        /* \"contracts/.deps/github/succinctlabs/sp1-contracts/contracts/src/v5.0.0/Groth16Verifier.sol\":11412:11413  c */\n      dup6\n        /* \"contracts/.deps/github/succinctlabs/sp1-contracts/contracts/src/v5.0.0/Groth16Verifier.sol\":11412:11417  c & 1 */\n      and\n        /* \"contracts/.deps/github/succinctlabs/sp1-contracts/contracts/src/v5.0.0/Groth16Verifier.sol\":11412:11422  c & 1 == 1 */\n      eq\n        /* \"contracts/.deps/github/succinctlabs/sp1-contracts/contracts/src/v5.0.0/Groth16Verifier.sol\":11392:11422  bool negate_point = c & 1 == 1 */\n      swap1\n      pop\n        /* \"contracts/.deps/github/succinctlabs/sp1-contracts/contracts/src/v5.0.0/Groth16Verifier.sol\":11442:11443  1 */\n      0x01\n        /* \"contracts/.deps/github/succinctlabs/sp1-contracts/contracts/src/v5.0.0/Groth16Verifier.sol\":11437:11438  c */\n      dup5\n        /* \"contracts/.deps/github/succinctlabs/sp1-contracts/contracts/src/v5.0.0/Groth16Verifier.sol\":11437:11443  c >> 1 */\n      swap1\n      shr\n        /* \"contracts/.deps/github/succinctlabs/sp1-contracts/contracts/src/v5.0.0/Groth16Verifier.sol\":11433:11443  x = c >> 1 */\n      swap3\n      pop\n        /* \"contracts/.deps/github/succinctlabs/sp1-contracts/contracts/src/v5.0.0/Groth16Verifier.sol\":1431:1497  0x30644e72e131a029b85045b68181585d97816a916871ca8d3c208c16d87cfd47 */\n      0x30644e72e131a029b85045b68181585d97816a916871ca8d3c208c16d87cfd47\n        /* \"contracts/.deps/github/succinctlabs/sp1-contracts/contracts/src/v5.0.0/Groth16Verifier.sol\":11458:11459  x */\n      dup4\n        /* \"contracts/.deps/github/succinctlabs/sp1-contracts/contracts/src/v5.0.0/Groth16Verifier.sol\":11458:11464  x >= P */\n      lt\n        /* \"contracts/.deps/github/succinctlabs/sp1-contracts/contracts/src/v5.0.0/Groth16Verifier.sol\":11454:11560  if (x >= P) {... */\n      tag_212\n      jumpi\n        /* \"contracts/.deps/github/succinctlabs/sp1-contracts/contracts/src/v5.0.0/Groth16Verifier.sol\":11534:11548  ProofInvalid() */\n      mload(0x40)\n      0x7fcdd1f400000000000000000000000000000000000000000000000000000000\n      dup2\n      mstore\n      0x04\n      add\n      mload(0x40)\n      dup1\n      swap2\n      sub\n      swap1\n      revert\n        /* \"contracts/.deps/github/succinctlabs/sp1-contracts/contracts/src/v5.0.0/Groth16Verifier.sol\":11454:11560  if (x >= P) {... */\n    tag_212:\n        /* \"contracts/.deps/github/succinctlabs/sp1-contracts/contracts/src/v5.0.0/Groth16Verifier.sol\":11794:11846  sqrt_Fp(addmod(mulmod(mulmod(x, x, P), x, P), 3, P)) */\n      tag_213\n        /* \"contracts/.deps/github/succinctlabs/sp1-contracts/contracts/src/v5.0.0/Groth16Verifier.sol\":1431:1497  0x30644e72e131a029b85045b68181585d97816a916871ca8d3c208c16d87cfd47 */\n      0x30644e72e131a029b85045b68181585d97816a916871ca8d3c208c16d87cfd47\n        /* \"contracts/.deps/github/succinctlabs/sp1-contracts/contracts/src/v5.0.0/Groth16Verifier.sol\":11802:11845  addmod(mulmod(mulmod(x, x, P), x, P), 3, P) */\n      dup1\n      tag_214\n      jumpi\n      tag_215\n      tag_136\n      jump\t// in\n    tag_215:\n    tag_214:\n        /* \"contracts/.deps/github/succinctlabs/sp1-contracts/contracts/src/v5.0.0/Groth16Verifier.sol\":11840:11841  3 */\n      0x03\n        /* \"contracts/.deps/github/succinctlabs/sp1-contracts/contracts/src/v5.0.0/Groth16Verifier.sol\":1431:1497  0x30644e72e131a029b85045b68181585d97816a916871ca8d3c208c16d87cfd47 */\n      0x30644e72e131a029b85045b68181585d97816a916871ca8d3c208c16d87cfd47\n        /* \"contracts/.deps/github/succinctlabs/sp1-contracts/contracts/src/v5.0.0/Groth16Verifier.sol\":11809:11838  mulmod(mulmod(x, x, P), x, P) */\n      dup1\n      tag_216\n      jumpi\n      tag_217\n      tag_136\n      jump\t// in\n    tag_217:\n    tag_216:\n        /* \"contracts/.deps/github/succinctlabs/sp1-contracts/contracts/src/v5.0.0/Groth16Verifier.sol\":11833:11834  x */\n      dup7\n        /* \"contracts/.deps/github/succinctlabs/sp1-contracts/contracts/src/v5.0.0/Groth16Verifier.sol\":1431:1497  0x30644e72e131a029b85045b68181585d97816a916871ca8d3c208c16d87cfd47 */\n      0x30644e72e131a029b85045b68181585d97816a916871ca8d3c208c16d87cfd47\n        /* \"contracts/.deps/github/succinctlabs/sp1-contracts/contracts/src/v5.0.0/Groth16Verifier.sol\":11816:11831  mulmod(x, x, P) */\n      dup1\n      tag_218\n      jumpi\n      tag_219\n      tag_136\n      jump\t// in\n    tag_219:\n    tag_218:\n        /* \"contracts/.deps/github/succinctlabs/sp1-contracts/contracts/src/v5.0.0/Groth16Verifier.sol\":11826:11827  x */\n      dup9\n        /* \"contracts/.deps/github/succinctlabs/sp1-contracts/contracts/src/v5.0.0/Groth16Verifier.sol\":11823:11824  x */\n      dup10\n        /* \"contracts/.deps/github/succinctlabs/sp1-contracts/contracts/src/v5.0.0/Groth16Verifier.sol\":11816:11831  mulmod(x, x, P) */\n      mulmod\n        /* \"contracts/.deps/github/succinctlabs/sp1-contracts/contracts/src/v5.0.0/Groth16Verifier.sol\":11809:11838  mulmod(mulmod(x, x, P), x, P) */\n      mulmod\n        /* \"contracts/.deps/github/succinctlabs/sp1-contracts/contracts/src/v5.0.0/Groth16Verifier.sol\":11802:11845  addmod(mulmod(mulmod(x, x, P), x, P), 3, P) */\n      addmod\n        /* \"contracts/.deps/github/succinctlabs/sp1-contracts/contracts/src/v5.0.0/Groth16Verifier.sol\":11794:11801  sqrt_Fp */\n      tag_141\n        /* \"contracts/.deps/github/succinctlabs/sp1-contracts/contracts/src/v5.0.0/Groth16Verifier.sol\":11794:11846  sqrt_Fp(addmod(mulmod(mulmod(x, x, P), x, P), 3, P)) */\n      jump\t// in\n    tag_213:\n        /* \"contracts/.deps/github/succinctlabs/sp1-contracts/contracts/src/v5.0.0/Groth16Verifier.sol\":11790:11846  y = sqrt_Fp(addmod(mulmod(mulmod(x, x, P), x, P), 3, P)) */\n      swap2\n      pop\n        /* \"contracts/.deps/github/succinctlabs/sp1-contracts/contracts/src/v5.0.0/Groth16Verifier.sol\":11861:11873  negate_point */\n      dup1\n        /* \"contracts/.deps/github/succinctlabs/sp1-contracts/contracts/src/v5.0.0/Groth16Verifier.sol\":11857:11915  if (negate_point) {... */\n      iszero\n      tag_220\n      jumpi\n        /* \"contracts/.deps/github/succinctlabs/sp1-contracts/contracts/src/v5.0.0/Groth16Verifier.sol\":11894:11903  negate(y) */\n      tag_221\n        /* \"contracts/.deps/github/succinctlabs/sp1-contracts/contracts/src/v5.0.0/Groth16Verifier.sol\":11901:11902  y */\n      dup3\n        /* \"contracts/.deps/github/succinctlabs/sp1-contracts/contracts/src/v5.0.0/Groth16Verifier.sol\":11894:11900  negate */\n      tag_145\n        /* \"contracts/.deps/github/succinctlabs/sp1-contracts/contracts/src/v5.0.0/Groth16Verifier.sol\":11894:11903  negate(y) */\n      jump\t// in\n    tag_221:\n        /* \"contracts/.deps/github/succinctlabs/sp1-contracts/contracts/src/v5.0.0/Groth16Verifier.sol\":11890:11903  y = negate(y) */\n      swap2\n      pop\n        /* \"contracts/.deps/github/succinctlabs/sp1-contracts/contracts/src/v5.0.0/Groth16Verifier.sol\":11857:11915  if (negate_point) {... */\n    tag_220:\n        /* \"contracts/.deps/github/succinctlabs/sp1-contracts/contracts/src/v5.0.0/Groth16Verifier.sol\":11104:11922  {... */\n      pop\n        /* \"contracts/.deps/github/succinctlabs/sp1-contracts/contracts/src/v5.0.0/Groth16Verifier.sol\":11025:11922  function decompress_g1(uint256 c) internal view returns (uint256 x, uint256 y) {... */\n    tag_210:\n      swap2\n      pop\n      swap2\n      jump\t// out\n        /* \"contracts/.deps/github/succinctlabs/sp1-contracts/contracts/src/v5.0.0/Groth16Verifier.sol\":15158:16569  function decompress_g2(uint256 c0, uint256 c1)... */\n    tag_69:\n        /* \"contracts/.deps/github/succinctlabs/sp1-contracts/contracts/src/v5.0.0/Groth16Verifier.sol\":15233:15243  uint256 x0 */\n      0x00\n        /* \"contracts/.deps/github/succinctlabs/sp1-contracts/contracts/src/v5.0.0/Groth16Verifier.sol\":15245:15255  uint256 x1 */\n      0x00\n        /* \"contracts/.deps/github/succinctlabs/sp1-contracts/contracts/src/v5.0.0/Groth16Verifier.sol\":15257:15267  uint256 y0 */\n      0x00\n        /* \"contracts/.deps/github/succinctlabs/sp1-contracts/contracts/src/v5.0.0/Groth16Verifier.sol\":15269:15279  uint256 y1 */\n      0x00\n        /* \"contracts/.deps/github/succinctlabs/sp1-contracts/contracts/src/v5.0.0/Groth16Verifier.sol\":15459:15460  0 */\n      0x00\n        /* \"contracts/.deps/github/succinctlabs/sp1-contracts/contracts/src/v5.0.0/Groth16Verifier.sol\":15453:15455  c0 */\n      dup7\n        /* \"contracts/.deps/github/succinctlabs/sp1-contracts/contracts/src/v5.0.0/Groth16Verifier.sol\":15453:15460  c0 == 0 */\n      eq\n        /* \"contracts/.deps/github/succinctlabs/sp1-contracts/contracts/src/v5.0.0/Groth16Verifier.sol\":15453:15471  c0 == 0 && c1 == 0 */\n      dup1\n      iszero\n      tag_223\n      jumpi\n      pop\n        /* \"contracts/.deps/github/succinctlabs/sp1-contracts/contracts/src/v5.0.0/Groth16Verifier.sol\":15470:15471  0 */\n      0x00\n        /* \"contracts/.deps/github/succinctlabs/sp1-contracts/contracts/src/v5.0.0/Groth16Verifier.sol\":15464:15466  c1 */\n      dup6\n        /* \"contracts/.deps/github/succinctlabs/sp1-contracts/contracts/src/v5.0.0/Groth16Verifier.sol\":15464:15471  c1 == 0 */\n      eq\n        /* \"contracts/.deps/github/succinctlabs/sp1-contracts/contracts/src/v5.0.0/Groth16Verifier.sol\":15453:15471  c0 == 0 && c1 == 0 */\n    tag_223:\n        /* \"contracts/.deps/github/succinctlabs/sp1-contracts/contracts/src/v5.0.0/Groth16Verifier.sol\":15449:15575  if (c0 == 0 && c1 == 0) {... */\n      iszero\n      tag_224\n      jumpi\n        /* \"contracts/.deps/github/succinctlabs/sp1-contracts/contracts/src/v5.0.0/Groth16Verifier.sol\":15552:15553  0 */\n      0x00\n        /* \"contracts/.deps/github/succinctlabs/sp1-contracts/contracts/src/v5.0.0/Groth16Verifier.sol\":15555:15556  0 */\n      0x00\n        /* \"contracts/.deps/github/succinctlabs/sp1-contracts/contracts/src/v5.0.0/Groth16Verifier.sol\":15558:15559  0 */\n      0x00\n        /* \"contracts/.deps/github/succinctlabs/sp1-contracts/contracts/src/v5.0.0/Groth16Verifier.sol\":15561:15562  0 */\n      0x00\n        /* \"contracts/.deps/github/succinctlabs/sp1-contracts/contracts/src/v5.0.0/Groth16Verifier.sol\":15544:15563  return (0, 0, 0, 0) */\n      swap4\n      pop\n      swap4\n      pop\n      swap4\n      pop\n      swap4\n      pop\n      jump(tag_222)\n        /* \"contracts/.deps/github/succinctlabs/sp1-contracts/contracts/src/v5.0.0/Groth16Verifier.sol\":15449:15575  if (c0 == 0 && c1 == 0) {... */\n    tag_224:\n        /* \"contracts/.deps/github/succinctlabs/sp1-contracts/contracts/src/v5.0.0/Groth16Verifier.sol\":15585:15602  bool negate_point */\n      0x00\n        /* \"contracts/.deps/github/succinctlabs/sp1-contracts/contracts/src/v5.0.0/Groth16Verifier.sol\":15615:15616  1 */\n      0x01\n        /* \"contracts/.deps/github/succinctlabs/sp1-contracts/contracts/src/v5.0.0/Groth16Verifier.sol\":15610:15611  1 */\n      dup1\n        /* \"contracts/.deps/github/succinctlabs/sp1-contracts/contracts/src/v5.0.0/Groth16Verifier.sol\":15605:15607  c0 */\n      dup9\n        /* \"contracts/.deps/github/succinctlabs/sp1-contracts/contracts/src/v5.0.0/Groth16Verifier.sol\":15605:15611  c0 & 1 */\n      and\n        /* \"contracts/.deps/github/succinctlabs/sp1-contracts/contracts/src/v5.0.0/Groth16Verifier.sol\":15605:15616  c0 & 1 == 1 */\n      eq\n        /* \"contracts/.deps/github/succinctlabs/sp1-contracts/contracts/src/v5.0.0/Groth16Verifier.sol\":15585:15616  bool negate_point = c0 & 1 == 1 */\n      swap1\n      pop\n        /* \"contracts/.deps/github/succinctlabs/sp1-contracts/contracts/src/v5.0.0/Groth16Verifier.sol\":15627:15636  bool hint */\n      0x00\n        /* \"contracts/.deps/github/succinctlabs/sp1-contracts/contracts/src/v5.0.0/Groth16Verifier.sol\":15649:15650  2 */\n      0x02\n        /* \"contracts/.deps/github/succinctlabs/sp1-contracts/contracts/src/v5.0.0/Groth16Verifier.sol\":15644:15645  2 */\n      dup1\n        /* \"contracts/.deps/github/succinctlabs/sp1-contracts/contracts/src/v5.0.0/Groth16Verifier.sol\":15639:15641  c0 */\n      dup10\n        /* \"contracts/.deps/github/succinctlabs/sp1-contracts/contracts/src/v5.0.0/Groth16Verifier.sol\":15639:15645  c0 & 2 */\n      and\n        /* \"contracts/.deps/github/succinctlabs/sp1-contracts/contracts/src/v5.0.0/Groth16Verifier.sol\":15639:15650  c0 & 2 == 2 */\n      eq\n        /* \"contracts/.deps/github/succinctlabs/sp1-contracts/contracts/src/v5.0.0/Groth16Verifier.sol\":15627:15650  bool hint = c0 & 2 == 2 */\n      swap1\n      pop\n        /* \"contracts/.deps/github/succinctlabs/sp1-contracts/contracts/src/v5.0.0/Groth16Verifier.sol\":15672:15673  2 */\n      0x02\n        /* \"contracts/.deps/github/succinctlabs/sp1-contracts/contracts/src/v5.0.0/Groth16Verifier.sol\":15666:15668  c0 */\n      dup9\n        /* \"contracts/.deps/github/succinctlabs/sp1-contracts/contracts/src/v5.0.0/Groth16Verifier.sol\":15666:15673  c0 >> 2 */\n      swap1\n      shr\n        /* \"contracts/.deps/github/succinctlabs/sp1-contracts/contracts/src/v5.0.0/Groth16Verifier.sol\":15661:15673  x0 = c0 >> 2 */\n      swap6\n      pop\n        /* \"contracts/.deps/github/succinctlabs/sp1-contracts/contracts/src/v5.0.0/Groth16Verifier.sol\":15689:15691  c1 */\n      dup7\n        /* \"contracts/.deps/github/succinctlabs/sp1-contracts/contracts/src/v5.0.0/Groth16Verifier.sol\":15684:15691  x1 = c1 */\n      swap5\n      pop\n        /* \"contracts/.deps/github/succinctlabs/sp1-contracts/contracts/src/v5.0.0/Groth16Verifier.sol\":1431:1497  0x30644e72e131a029b85045b68181585d97816a916871ca8d3c208c16d87cfd47 */\n      0x30644e72e131a029b85045b68181585d97816a916871ca8d3c208c16d87cfd47\n        /* \"contracts/.deps/github/succinctlabs/sp1-contracts/contracts/src/v5.0.0/Groth16Verifier.sol\":15706:15708  x0 */\n      dup7\n        /* \"contracts/.deps/github/succinctlabs/sp1-contracts/contracts/src/v5.0.0/Groth16Verifier.sol\":15706:15713  x0 >= P */\n      lt\n      iszero\n        /* \"contracts/.deps/github/succinctlabs/sp1-contracts/contracts/src/v5.0.0/Groth16Verifier.sol\":15706:15724  x0 >= P || x1 >= P */\n      dup1\n      tag_225\n      jumpi\n      pop\n        /* \"contracts/.deps/github/succinctlabs/sp1-contracts/contracts/src/v5.0.0/Groth16Verifier.sol\":1431:1497  0x30644e72e131a029b85045b68181585d97816a916871ca8d3c208c16d87cfd47 */\n      0x30644e72e131a029b85045b68181585d97816a916871ca8d3c208c16d87cfd47\n        /* \"contracts/.deps/github/succinctlabs/sp1-contracts/contracts/src/v5.0.0/Groth16Verifier.sol\":15717:15719  x1 */\n      dup6\n        /* \"contracts/.deps/github/succinctlabs/sp1-contracts/contracts/src/v5.0.0/Groth16Verifier.sol\":15717:15724  x1 >= P */\n      lt\n      iszero\n        /* \"contracts/.deps/github/succinctlabs/sp1-contracts/contracts/src/v5.0.0/Groth16Verifier.sol\":15706:15724  x0 >= P || x1 >= P */\n    tag_225:\n        /* \"contracts/.deps/github/succinctlabs/sp1-contracts/contracts/src/v5.0.0/Groth16Verifier.sol\":15702:15828  if (x0 >= P || x1 >= P) {... */\n      iszero\n      tag_226\n      jumpi\n        /* \"contracts/.deps/github/succinctlabs/sp1-contracts/contracts/src/v5.0.0/Groth16Verifier.sol\":15802:15816  ProofInvalid() */\n      mload(0x40)\n      0x7fcdd1f400000000000000000000000000000000000000000000000000000000\n      dup2\n      mstore\n      0x04\n      add\n      mload(0x40)\n      dup1\n      swap2\n      sub\n      swap1\n      revert\n        /* \"contracts/.deps/github/succinctlabs/sp1-contracts/contracts/src/v5.0.0/Groth16Verifier.sol\":15702:15828  if (x0 >= P || x1 >= P) {... */\n    tag_226:\n        /* \"contracts/.deps/github/succinctlabs/sp1-contracts/contracts/src/v5.0.0/Groth16Verifier.sol\":15840:15852  uint256 n3ab */\n      0x00\n        /* \"contracts/.deps/github/succinctlabs/sp1-contracts/contracts/src/v5.0.0/Groth16Verifier.sol\":1431:1497  0x30644e72e131a029b85045b68181585d97816a916871ca8d3c208c16d87cfd47 */\n      0x30644e72e131a029b85045b68181585d97816a916871ca8d3c208c16d87cfd47\n        /* \"contracts/.deps/github/succinctlabs/sp1-contracts/contracts/src/v5.0.0/Groth16Verifier.sol\":15855:15888  mulmod(mulmod(x0, x1, P), P-3, P) */\n      dup1\n      tag_227\n      jumpi\n      tag_228\n      tag_136\n      jump\t// in\n    tag_228:\n    tag_227:\n        /* \"contracts/.deps/github/succinctlabs/sp1-contracts/contracts/src/v5.0.0/Groth16Verifier.sol\":15883:15884  3 */\n      0x03\n        /* \"contracts/.deps/github/succinctlabs/sp1-contracts/contracts/src/v5.0.0/Groth16Verifier.sol\":1431:1497  0x30644e72e131a029b85045b68181585d97816a916871ca8d3c208c16d87cfd47 */\n      0x30644e72e131a029b85045b68181585d97816a916871ca8d3c208c16d87cfd47\n        /* \"contracts/.deps/github/succinctlabs/sp1-contracts/contracts/src/v5.0.0/Groth16Verifier.sol\":15881:15884  P-3 */\n      tag_229\n      swap2\n      swap1\n      tag_157\n      jump\t// in\n    tag_229:\n        /* \"contracts/.deps/github/succinctlabs/sp1-contracts/contracts/src/v5.0.0/Groth16Verifier.sol\":1431:1497  0x30644e72e131a029b85045b68181585d97816a916871ca8d3c208c16d87cfd47 */\n      0x30644e72e131a029b85045b68181585d97816a916871ca8d3c208c16d87cfd47\n        /* \"contracts/.deps/github/succinctlabs/sp1-contracts/contracts/src/v5.0.0/Groth16Verifier.sol\":15862:15879  mulmod(x0, x1, P) */\n      dup1\n      tag_230\n      jumpi\n      tag_231\n      tag_136\n      jump\t// in\n    tag_231:\n    tag_230:\n        /* \"contracts/.deps/github/succinctlabs/sp1-contracts/contracts/src/v5.0.0/Groth16Verifier.sol\":15873:15875  x1 */\n      dup9\n        /* \"contracts/.deps/github/succinctlabs/sp1-contracts/contracts/src/v5.0.0/Groth16Verifier.sol\":15869:15871  x0 */\n      dup11\n        /* \"contracts/.deps/github/succinctlabs/sp1-contracts/contracts/src/v5.0.0/Groth16Verifier.sol\":15862:15879  mulmod(x0, x1, P) */\n      mulmod\n        /* \"contracts/.deps/github/succinctlabs/sp1-contracts/contracts/src/v5.0.0/Groth16Verifier.sol\":15855:15888  mulmod(mulmod(x0, x1, P), P-3, P) */\n      mulmod\n        /* \"contracts/.deps/github/succinctlabs/sp1-contracts/contracts/src/v5.0.0/Groth16Verifier.sol\":15840:15888  uint256 n3ab = mulmod(mulmod(x0, x1, P), P-3, P) */\n      swap1\n      pop\n        /* \"contracts/.deps/github/succinctlabs/sp1-contracts/contracts/src/v5.0.0/Groth16Verifier.sol\":15899:15910  uint256 a_3 */\n      0x00\n        /* \"contracts/.deps/github/succinctlabs/sp1-contracts/contracts/src/v5.0.0/Groth16Verifier.sol\":1431:1497  0x30644e72e131a029b85045b68181585d97816a916871ca8d3c208c16d87cfd47 */\n      0x30644e72e131a029b85045b68181585d97816a916871ca8d3c208c16d87cfd47\n        /* \"contracts/.deps/github/succinctlabs/sp1-contracts/contracts/src/v5.0.0/Groth16Verifier.sol\":15913:15945  mulmod(mulmod(x0, x0, P), x0, P) */\n      dup1\n      tag_232\n      jumpi\n      tag_233\n      tag_136\n      jump\t// in\n    tag_233:\n    tag_232:\n        /* \"contracts/.deps/github/succinctlabs/sp1-contracts/contracts/src/v5.0.0/Groth16Verifier.sol\":15939:15941  x0 */\n      dup9\n        /* \"contracts/.deps/github/succinctlabs/sp1-contracts/contracts/src/v5.0.0/Groth16Verifier.sol\":1431:1497  0x30644e72e131a029b85045b68181585d97816a916871ca8d3c208c16d87cfd47 */\n      0x30644e72e131a029b85045b68181585d97816a916871ca8d3c208c16d87cfd47\n        /* \"contracts/.deps/github/succinctlabs/sp1-contracts/contracts/src/v5.0.0/Groth16Verifier.sol\":15920:15937  mulmod(x0, x0, P) */\n      dup1\n      tag_234\n      jumpi\n      tag_235\n      tag_136\n      jump\t// in\n    tag_235:\n    tag_234:\n        /* \"contracts/.deps/github/succinctlabs/sp1-contracts/contracts/src/v5.0.0/Groth16Verifier.sol\":15931:15933  x0 */\n      dup11\n        /* \"contracts/.deps/github/succinctlabs/sp1-contracts/contracts/src/v5.0.0/Groth16Verifier.sol\":15927:15929  x0 */\n      dup12\n        /* \"contracts/.deps/github/succinctlabs/sp1-contracts/contracts/src/v5.0.0/Groth16Verifier.sol\":15920:15937  mulmod(x0, x0, P) */\n      mulmod\n        /* \"contracts/.deps/github/succinctlabs/sp1-contracts/contracts/src/v5.0.0/Groth16Verifier.sol\":15913:15945  mulmod(mulmod(x0, x0, P), x0, P) */\n      mulmod\n        /* \"contracts/.deps/github/succinctlabs/sp1-contracts/contracts/src/v5.0.0/Groth16Verifier.sol\":15899:15945  uint256 a_3 = mulmod(mulmod(x0, x0, P), x0, P) */\n      swap1\n      pop\n        /* \"contracts/.deps/github/succinctlabs/sp1-contracts/contracts/src/v5.0.0/Groth16Verifier.sol\":15956:15967  uint256 b_3 */\n      0x00\n        /* \"contracts/.deps/github/succinctlabs/sp1-contracts/contracts/src/v5.0.0/Groth16Verifier.sol\":1431:1497  0x30644e72e131a029b85045b68181585d97816a916871ca8d3c208c16d87cfd47 */\n      0x30644e72e131a029b85045b68181585d97816a916871ca8d3c208c16d87cfd47\n        /* \"contracts/.deps/github/succinctlabs/sp1-contracts/contracts/src/v5.0.0/Groth16Verifier.sol\":15970:16002  mulmod(mulmod(x1, x1, P), x1, P) */\n      dup1\n      tag_236\n      jumpi\n      tag_237\n      tag_136\n      jump\t// in\n    tag_237:\n    tag_236:\n        /* \"contracts/.deps/github/succinctlabs/sp1-contracts/contracts/src/v5.0.0/Groth16Verifier.sol\":15996:15998  x1 */\n      dup9\n        /* \"contracts/.deps/github/succinctlabs/sp1-contracts/contracts/src/v5.0.0/Groth16Verifier.sol\":1431:1497  0x30644e72e131a029b85045b68181585d97816a916871ca8d3c208c16d87cfd47 */\n      0x30644e72e131a029b85045b68181585d97816a916871ca8d3c208c16d87cfd47\n        /* \"contracts/.deps/github/succinctlabs/sp1-contracts/contracts/src/v5.0.0/Groth16Verifier.sol\":15977:15994  mulmod(x1, x1, P) */\n      dup1\n      tag_238\n      jumpi\n      tag_239\n      tag_136\n      jump\t// in\n    tag_239:\n    tag_238:\n        /* \"contracts/.deps/github/succinctlabs/sp1-contracts/contracts/src/v5.0.0/Groth16Verifier.sol\":15988:15990  x1 */\n      dup11\n        /* \"contracts/.deps/github/succinctlabs/sp1-contracts/contracts/src/v5.0.0/Groth16Verifier.sol\":15984:15986  x1 */\n      dup12\n        /* \"contracts/.deps/github/succinctlabs/sp1-contracts/contracts/src/v5.0.0/Groth16Verifier.sol\":15977:15994  mulmod(x1, x1, P) */\n      mulmod\n        /* \"contracts/.deps/github/succinctlabs/sp1-contracts/contracts/src/v5.0.0/Groth16Verifier.sol\":15970:16002  mulmod(mulmod(x1, x1, P), x1, P) */\n      mulmod\n        /* \"contracts/.deps/github/succinctlabs/sp1-contracts/contracts/src/v5.0.0/Groth16Verifier.sol\":15956:16002  uint256 b_3 = mulmod(mulmod(x1, x1, P), x1, P) */\n      swap1\n      pop\n        /* \"contracts/.deps/github/succinctlabs/sp1-contracts/contracts/src/v5.0.0/Groth16Verifier.sol\":1431:1497  0x30644e72e131a029b85045b68181585d97816a916871ca8d3c208c16d87cfd47 */\n      0x30644e72e131a029b85045b68181585d97816a916871ca8d3c208c16d87cfd47\n        /* \"contracts/.deps/github/succinctlabs/sp1-contracts/contracts/src/v5.0.0/Groth16Verifier.sol\":16020:16085  addmod(FRACTION_27_82_FP, addmod(a_3, mulmod(n3ab, x1, P), P), P) */\n      dup1\n      tag_240\n      jumpi\n      tag_241\n      tag_136\n      jump\t// in\n    tag_241:\n    tag_240:\n        /* \"contracts/.deps/github/succinctlabs/sp1-contracts/contracts/src/v5.0.0/Groth16Verifier.sol\":1431:1497  0x30644e72e131a029b85045b68181585d97816a916871ca8d3c208c16d87cfd47 */\n      0x30644e72e131a029b85045b68181585d97816a916871ca8d3c208c16d87cfd47\n        /* \"contracts/.deps/github/succinctlabs/sp1-contracts/contracts/src/v5.0.0/Groth16Verifier.sol\":16046:16081  addmod(a_3, mulmod(n3ab, x1, P), P) */\n      dup1\n      tag_242\n      jumpi\n      tag_243\n      tag_136\n      jump\t// in\n    tag_243:\n    tag_242:\n        /* \"contracts/.deps/github/succinctlabs/sp1-contracts/contracts/src/v5.0.0/Groth16Verifier.sol\":1431:1497  0x30644e72e131a029b85045b68181585d97816a916871ca8d3c208c16d87cfd47 */\n      0x30644e72e131a029b85045b68181585d97816a916871ca8d3c208c16d87cfd47\n        /* \"contracts/.deps/github/succinctlabs/sp1-contracts/contracts/src/v5.0.0/Groth16Verifier.sol\":16058:16077  mulmod(n3ab, x1, P) */\n      dup1\n      tag_244\n      jumpi\n      tag_245\n      tag_136\n      jump\t// in\n    tag_245:\n    tag_244:\n        /* \"contracts/.deps/github/succinctlabs/sp1-contracts/contracts/src/v5.0.0/Groth16Verifier.sol\":16071:16073  x1 */\n      dup11\n        /* \"contracts/.deps/github/succinctlabs/sp1-contracts/contracts/src/v5.0.0/Groth16Verifier.sol\":16065:16069  n3ab */\n      dup7\n        /* \"contracts/.deps/github/succinctlabs/sp1-contracts/contracts/src/v5.0.0/Groth16Verifier.sol\":16058:16077  mulmod(n3ab, x1, P) */\n      mulmod\n        /* \"contracts/.deps/github/succinctlabs/sp1-contracts/contracts/src/v5.0.0/Groth16Verifier.sol\":16053:16056  a_3 */\n      dup5\n        /* \"contracts/.deps/github/succinctlabs/sp1-contracts/contracts/src/v5.0.0/Groth16Verifier.sol\":16046:16081  addmod(a_3, mulmod(n3ab, x1, P), P) */\n      addmod\n        /* \"contracts/.deps/github/succinctlabs/sp1-contracts/contracts/src/v5.0.0/Groth16Verifier.sol\":2262:2328  0x2b149d40ceb8aaae81be18991be06ac3b5b4c5e559dbefa33267e6dc24a138e5 */\n      0x2b149d40ceb8aaae81be18991be06ac3b5b4c5e559dbefa33267e6dc24a138e5\n        /* \"contracts/.deps/github/succinctlabs/sp1-contracts/contracts/src/v5.0.0/Groth16Verifier.sol\":16020:16085  addmod(FRACTION_27_82_FP, addmod(a_3, mulmod(n3ab, x1, P), P), P) */\n      addmod\n        /* \"contracts/.deps/github/succinctlabs/sp1-contracts/contracts/src/v5.0.0/Groth16Verifier.sol\":16015:16085  y0 = addmod(FRACTION_27_82_FP, addmod(a_3, mulmod(n3ab, x1, P), P), P) */\n      swap7\n      pop\n        /* \"contracts/.deps/github/succinctlabs/sp1-contracts/contracts/src/v5.0.0/Groth16Verifier.sol\":16101:16174  negate(addmod(FRACTION_3_82_FP,  addmod(b_3, mulmod(n3ab, x0, P), P), P)) */\n      tag_246\n        /* \"contracts/.deps/github/succinctlabs/sp1-contracts/contracts/src/v5.0.0/Groth16Verifier.sol\":1431:1497  0x30644e72e131a029b85045b68181585d97816a916871ca8d3c208c16d87cfd47 */\n      0x30644e72e131a029b85045b68181585d97816a916871ca8d3c208c16d87cfd47\n        /* \"contracts/.deps/github/succinctlabs/sp1-contracts/contracts/src/v5.0.0/Groth16Verifier.sol\":16108:16173  addmod(FRACTION_3_82_FP,  addmod(b_3, mulmod(n3ab, x0, P), P), P) */\n      dup1\n      tag_247\n      jumpi\n      tag_248\n      tag_136\n      jump\t// in\n    tag_248:\n    tag_247:\n        /* \"contracts/.deps/github/succinctlabs/sp1-contracts/contracts/src/v5.0.0/Groth16Verifier.sol\":1431:1497  0x30644e72e131a029b85045b68181585d97816a916871ca8d3c208c16d87cfd47 */\n      0x30644e72e131a029b85045b68181585d97816a916871ca8d3c208c16d87cfd47\n        /* \"contracts/.deps/github/succinctlabs/sp1-contracts/contracts/src/v5.0.0/Groth16Verifier.sol\":16134:16169  addmod(b_3, mulmod(n3ab, x0, P), P) */\n      dup1\n      tag_249\n      jumpi\n      tag_250\n      tag_136\n      jump\t// in\n    tag_250:\n    tag_249:\n        /* \"contracts/.deps/github/succinctlabs/sp1-contracts/contracts/src/v5.0.0/Groth16Verifier.sol\":1431:1497  0x30644e72e131a029b85045b68181585d97816a916871ca8d3c208c16d87cfd47 */\n      0x30644e72e131a029b85045b68181585d97816a916871ca8d3c208c16d87cfd47\n        /* \"contracts/.deps/github/succinctlabs/sp1-contracts/contracts/src/v5.0.0/Groth16Verifier.sol\":16146:16165  mulmod(n3ab, x0, P) */\n      dup1\n      tag_251\n      jumpi\n      tag_252\n      tag_136\n      jump\t// in\n    tag_252:\n    tag_251:\n        /* \"contracts/.deps/github/succinctlabs/sp1-contracts/contracts/src/v5.0.0/Groth16Verifier.sol\":16159:16161  x0 */\n      dup13\n        /* \"contracts/.deps/github/succinctlabs/sp1-contracts/contracts/src/v5.0.0/Groth16Verifier.sol\":16153:16157  n3ab */\n      dup8\n        /* \"contracts/.deps/github/succinctlabs/sp1-contracts/contracts/src/v5.0.0/Groth16Verifier.sol\":16146:16165  mulmod(n3ab, x0, P) */\n      mulmod\n        /* \"contracts/.deps/github/succinctlabs/sp1-contracts/contracts/src/v5.0.0/Groth16Verifier.sol\":16141:16144  b_3 */\n      dup5\n        /* \"contracts/.deps/github/succinctlabs/sp1-contracts/contracts/src/v5.0.0/Groth16Verifier.sol\":16134:16169  addmod(b_3, mulmod(n3ab, x0, P), P) */\n      addmod\n        /* \"contracts/.deps/github/succinctlabs/sp1-contracts/contracts/src/v5.0.0/Groth16Verifier.sol\":2371:2437  0x2fcd3ac2a640a154eb23960892a85a68f031ca0c8344b23a577dcf1052b9e775 */\n      0x2fcd3ac2a640a154eb23960892a85a68f031ca0c8344b23a577dcf1052b9e775\n        /* \"contracts/.deps/github/succinctlabs/sp1-contracts/contracts/src/v5.0.0/Groth16Verifier.sol\":16108:16173  addmod(FRACTION_3_82_FP,  addmod(b_3, mulmod(n3ab, x0, P), P), P) */\n      addmod\n        /* \"contracts/.deps/github/succinctlabs/sp1-contracts/contracts/src/v5.0.0/Groth16Verifier.sol\":16101:16107  negate */\n      tag_145\n        /* \"contracts/.deps/github/succinctlabs/sp1-contracts/contracts/src/v5.0.0/Groth16Verifier.sol\":16101:16174  negate(addmod(FRACTION_3_82_FP,  addmod(b_3, mulmod(n3ab, x0, P), P), P)) */\n      jump\t// in\n    tag_246:\n        /* \"contracts/.deps/github/succinctlabs/sp1-contracts/contracts/src/v5.0.0/Groth16Verifier.sol\":16096:16174  y1 = negate(addmod(FRACTION_3_82_FP,  addmod(b_3, mulmod(n3ab, x0, P), P), P)) */\n      swap6\n      pop\n        /* \"contracts/.deps/github/succinctlabs/sp1-contracts/contracts/src/v5.0.0/Groth16Verifier.sol\":16439:16461  sqrt_Fp2(y0, y1, hint) */\n      tag_253\n        /* \"contracts/.deps/github/succinctlabs/sp1-contracts/contracts/src/v5.0.0/Groth16Verifier.sol\":16448:16450  y0 */\n      dup8\n        /* \"contracts/.deps/github/succinctlabs/sp1-contracts/contracts/src/v5.0.0/Groth16Verifier.sol\":16452:16454  y1 */\n      dup8\n        /* \"contracts/.deps/github/succinctlabs/sp1-contracts/contracts/src/v5.0.0/Groth16Verifier.sol\":16456:16460  hint */\n      dup7\n        /* \"contracts/.deps/github/succinctlabs/sp1-contracts/contracts/src/v5.0.0/Groth16Verifier.sol\":16439:16447  sqrt_Fp2 */\n      tag_195\n        /* \"contracts/.deps/github/succinctlabs/sp1-contracts/contracts/src/v5.0.0/Groth16Verifier.sol\":16439:16461  sqrt_Fp2(y0, y1, hint) */\n      jump\t// in\n    tag_253:\n        /* \"contracts/.deps/github/succinctlabs/sp1-contracts/contracts/src/v5.0.0/Groth16Verifier.sol\":16428:16461  (y0, y1) = sqrt_Fp2(y0, y1, hint) */\n      dup1\n      swap8\n      pop\n      dup2\n      swap9\n      pop\n      pop\n      pop\n        /* \"contracts/.deps/github/succinctlabs/sp1-contracts/contracts/src/v5.0.0/Groth16Verifier.sol\":16476:16488  negate_point */\n      dup5\n        /* \"contracts/.deps/github/succinctlabs/sp1-contracts/contracts/src/v5.0.0/Groth16Verifier.sol\":16472:16562  if (negate_point) {... */\n      iszero\n      tag_254\n      jumpi\n        /* \"contracts/.deps/github/succinctlabs/sp1-contracts/contracts/src/v5.0.0/Groth16Verifier.sol\":16510:16520  negate(y0) */\n      tag_255\n        /* \"contracts/.deps/github/succinctlabs/sp1-contracts/contracts/src/v5.0.0/Groth16Verifier.sol\":16517:16519  y0 */\n      dup8\n        /* \"contracts/.deps/github/succinctlabs/sp1-contracts/contracts/src/v5.0.0/Groth16Verifier.sol\":16510:16516  negate */\n      tag_145\n        /* \"contracts/.deps/github/succinctlabs/sp1-contracts/contracts/src/v5.0.0/Groth16Verifier.sol\":16510:16520  negate(y0) */\n      jump\t// in\n    tag_255:\n        /* \"contracts/.deps/github/succinctlabs/sp1-contracts/contracts/src/v5.0.0/Groth16Verifier.sol\":16505:16520  y0 = negate(y0) */\n      swap7\n      pop\n        /* \"contracts/.deps/github/succinctlabs/sp1-contracts/contracts/src/v5.0.0/Groth16Verifier.sol\":16540:16550  negate(y1) */\n      tag_256\n        /* \"contracts/.deps/github/succinctlabs/sp1-contracts/contracts/src/v5.0.0/Groth16Verifier.sol\":16547:16549  y1 */\n      dup7\n        /* \"contracts/.deps/github/succinctlabs/sp1-contracts/contracts/src/v5.0.0/Groth16Verifier.sol\":16540:16546  negate */\n      tag_145\n        /* \"contracts/.deps/github/succinctlabs/sp1-contracts/contracts/src/v5.0.0/Groth16Verifier.sol\":16540:16550  negate(y1) */\n      jump\t// in\n    tag_256:\n        /* \"contracts/.deps/github/succinctlabs/sp1-contracts/contracts/src/v5.0.0/Groth16Verifier.sol\":16535:16550  y1 = negate(y1) */\n      swap6\n      pop\n        /* \"contracts/.deps/github/succinctlabs/sp1-contracts/contracts/src/v5.0.0/Groth16Verifier.sol\":16472:16562  if (negate_point) {... */\n    tag_254:\n        /* \"contracts/.deps/github/succinctlabs/sp1-contracts/contracts/src/v5.0.0/Groth16Verifier.sol\":15281:16569  {... */\n      pop\n      pop\n      pop\n      pop\n      pop\n        /* \"contracts/.deps/github/succinctlabs/sp1-contracts/contracts/src/v5.0.0/Groth16Verifier.sol\":15158:16569  function decompress_g2(uint256 c0, uint256 c1)... */\n    tag_222:\n      swap3\n      swap6\n      swap2\n      swap5\n      pop\n      swap3\n      pop\n      jump\t// out\n        /* \"contracts/.deps/github/succinctlabs/sp1-contracts/contracts/src/v5.0.0/Groth16Verifier.sol\":7370:7677  function sqrt_Fp(uint256 a) internal view returns (uint256 x) {... */\n    tag_141:\n        /* \"contracts/.deps/github/succinctlabs/sp1-contracts/contracts/src/v5.0.0/Groth16Verifier.sol\":7421:7430  uint256 x */\n      0x00\n        /* \"contracts/.deps/github/succinctlabs/sp1-contracts/contracts/src/v5.0.0/Groth16Verifier.sol\":7447:7466  exp(a, EXP_SQRT_FP) */\n      tag_258\n        /* \"contracts/.deps/github/succinctlabs/sp1-contracts/contracts/src/v5.0.0/Groth16Verifier.sol\":7451:7452  a */\n      dup3\n        /* \"contracts/.deps/github/succinctlabs/sp1-contracts/contracts/src/v5.0.0/Groth16Verifier.sol\":2649:2714  0xC19139CB84C680A6E14116DA060561765E05AA45A1C72A34F082305B61F3F52 */\n      0x0c19139cb84c680a6e14116da060561765e05aa45a1c72a34f082305b61f3f52\n        /* \"contracts/.deps/github/succinctlabs/sp1-contracts/contracts/src/v5.0.0/Groth16Verifier.sol\":7447:7450  exp */\n      tag_259\n        /* \"contracts/.deps/github/succinctlabs/sp1-contracts/contracts/src/v5.0.0/Groth16Verifier.sol\":7447:7466  exp(a, EXP_SQRT_FP) */\n      jump\t// in\n    tag_258:\n        /* \"contracts/.deps/github/succinctlabs/sp1-contracts/contracts/src/v5.0.0/Groth16Verifier.sol\":7443:7466  x = exp(a, EXP_SQRT_FP) */\n      swap1\n      pop\n        /* \"contracts/.deps/github/succinctlabs/sp1-contracts/contracts/src/v5.0.0/Groth16Verifier.sol\":7500:7501  a */\n      dup2\n        /* \"contracts/.deps/github/succinctlabs/sp1-contracts/contracts/src/v5.0.0/Groth16Verifier.sol\":1431:1497  0x30644e72e131a029b85045b68181585d97816a916871ca8d3c208c16d87cfd47 */\n      0x30644e72e131a029b85045b68181585d97816a916871ca8d3c208c16d87cfd47\n        /* \"contracts/.deps/github/succinctlabs/sp1-contracts/contracts/src/v5.0.0/Groth16Verifier.sol\":7481:7496  mulmod(x, x, P) */\n      dup1\n      tag_260\n      jumpi\n      tag_261\n      tag_136\n      jump\t// in\n    tag_261:\n    tag_260:\n        /* \"contracts/.deps/github/succinctlabs/sp1-contracts/contracts/src/v5.0.0/Groth16Verifier.sol\":7491:7492  x */\n      dup3\n        /* \"contracts/.deps/github/succinctlabs/sp1-contracts/contracts/src/v5.0.0/Groth16Verifier.sol\":7488:7489  x */\n      dup4\n        /* \"contracts/.deps/github/succinctlabs/sp1-contracts/contracts/src/v5.0.0/Groth16Verifier.sol\":7481:7496  mulmod(x, x, P) */\n      mulmod\n        /* \"contracts/.deps/github/succinctlabs/sp1-contracts/contracts/src/v5.0.0/Groth16Verifier.sol\":7481:7501  mulmod(x, x, P) != a */\n      eq\n        /* \"contracts/.deps/github/succinctlabs/sp1-contracts/contracts/src/v5.0.0/Groth16Verifier.sol\":7477:7670  if (mulmod(x, x, P) != a) {... */\n      tag_262\n      jumpi\n        /* \"contracts/.deps/github/succinctlabs/sp1-contracts/contracts/src/v5.0.0/Groth16Verifier.sol\":7644:7658  ProofInvalid() */\n      mload(0x40)\n      0x7fcdd1f400000000000000000000000000000000000000000000000000000000\n      dup2\n      mstore\n      0x04\n      add\n      mload(0x40)\n      dup1\n      swap2\n      sub\n      swap1\n      revert\n        /* \"contracts/.deps/github/succinctlabs/sp1-contracts/contracts/src/v5.0.0/Groth16Verifier.sol\":7477:7670  if (mulmod(x, x, P) != a) {... */\n    tag_262:\n        /* \"contracts/.deps/github/succinctlabs/sp1-contracts/contracts/src/v5.0.0/Groth16Verifier.sol\":7370:7677  function sqrt_Fp(uint256 a) internal view returns (uint256 x) {... */\n      swap2\n      swap1\n      pop\n      jump\t// out\n        /* \"contracts/.deps/github/succinctlabs/sp1-contracts/contracts/src/v5.0.0/Groth16Verifier.sol\":5450:5623  function negate(uint256 a) internal pure returns (uint256 x) {... */\n    tag_145:\n        /* \"contracts/.deps/github/succinctlabs/sp1-contracts/contracts/src/v5.0.0/Groth16Verifier.sol\":5500:5509  uint256 x */\n      0x00\n        /* \"contracts/.deps/github/succinctlabs/sp1-contracts/contracts/src/v5.0.0/Groth16Verifier.sol\":1431:1497  0x30644e72e131a029b85045b68181585d97816a916871ca8d3c208c16d87cfd47 */\n      0x30644e72e131a029b85045b68181585d97816a916871ca8d3c208c16d87cfd47\n      dup1\n        /* \"contracts/.deps/github/succinctlabs/sp1-contracts/contracts/src/v5.0.0/Groth16Verifier.sol\":5557:5558  a */\n      dup4\n        /* \"contracts/.deps/github/succinctlabs/sp1-contracts/contracts/src/v5.0.0/Groth16Verifier.sol\":5557:5562  a % P */\n      dup2\n      tag_264\n      jumpi\n      tag_265\n      tag_136\n      jump\t// in\n    tag_265:\n    tag_264:\n      mod\n        /* \"contracts/.deps/github/succinctlabs/sp1-contracts/contracts/src/v5.0.0/Groth16Verifier.sol\":1431:1497  0x30644e72e131a029b85045b68181585d97816a916871ca8d3c208c16d87cfd47 */\n      0x30644e72e131a029b85045b68181585d97816a916871ca8d3c208c16d87cfd47\n        /* \"contracts/.deps/github/succinctlabs/sp1-contracts/contracts/src/v5.0.0/Groth16Verifier.sol\":5552:5563  P - (a % P) */\n      sub\n        /* \"contracts/.deps/github/succinctlabs/sp1-contracts/contracts/src/v5.0.0/Groth16Verifier.sol\":5551:5568  (P - (a % P)) % P */\n      dup2\n      tag_266\n      jumpi\n      tag_267\n      tag_136\n      jump\t// in\n    tag_267:\n    tag_266:\n      mod\n        /* \"contracts/.deps/github/succinctlabs/sp1-contracts/contracts/src/v5.0.0/Groth16Verifier.sol\":5547:5568  x = (P - (a % P)) % P */\n      swap1\n      pop\n        /* \"contracts/.deps/github/succinctlabs/sp1-contracts/contracts/src/v5.0.0/Groth16Verifier.sol\":5450:5623  function negate(uint256 a) internal pure returns (uint256 x) {... */\n      swap2\n      swap1\n      pop\n      jump\t// out\n        /* \"contracts/.deps/github/succinctlabs/sp1-contracts/contracts/src/v5.0.0/Groth16Verifier.sol\":7955:8104  function isSquare_Fp(uint256 a) internal view returns (bool) {... */\n    tag_193:\n        /* \"contracts/.deps/github/succinctlabs/sp1-contracts/contracts/src/v5.0.0/Groth16Verifier.sol\":8010:8014  bool */\n      0x00\n        /* \"contracts/.deps/github/succinctlabs/sp1-contracts/contracts/src/v5.0.0/Groth16Verifier.sol\":8027:8036  uint256 x */\n      0x00\n        /* \"contracts/.deps/github/succinctlabs/sp1-contracts/contracts/src/v5.0.0/Groth16Verifier.sol\":8039:8058  exp(a, EXP_SQRT_FP) */\n      tag_269\n        /* \"contracts/.deps/github/succinctlabs/sp1-contracts/contracts/src/v5.0.0/Groth16Verifier.sol\":8043:8044  a */\n      dup4\n        /* \"contracts/.deps/github/succinctlabs/sp1-contracts/contracts/src/v5.0.0/Groth16Verifier.sol\":2649:2714  0xC19139CB84C680A6E14116DA060561765E05AA45A1C72A34F082305B61F3F52 */\n      0x0c19139cb84c680a6e14116da060561765e05aa45a1c72a34f082305b61f3f52\n        /* \"contracts/.deps/github/succinctlabs/sp1-contracts/contracts/src/v5.0.0/Groth16Verifier.sol\":8039:8042  exp */\n      tag_259\n        /* \"contracts/.deps/github/succinctlabs/sp1-contracts/contracts/src/v5.0.0/Groth16Verifier.sol\":8039:8058  exp(a, EXP_SQRT_FP) */\n      jump\t// in\n    tag_269:\n        /* \"contracts/.deps/github/succinctlabs/sp1-contracts/contracts/src/v5.0.0/Groth16Verifier.sol\":8027:8058  uint256 x = exp(a, EXP_SQRT_FP) */\n      swap1\n      pop\n        /* \"contracts/.deps/github/succinctlabs/sp1-contracts/contracts/src/v5.0.0/Groth16Verifier.sol\":8095:8096  a */\n      dup3\n        /* \"contracts/.deps/github/succinctlabs/sp1-contracts/contracts/src/v5.0.0/Groth16Verifier.sol\":1431:1497  0x30644e72e131a029b85045b68181585d97816a916871ca8d3c208c16d87cfd47 */\n      0x30644e72e131a029b85045b68181585d97816a916871ca8d3c208c16d87cfd47\n        /* \"contracts/.deps/github/succinctlabs/sp1-contracts/contracts/src/v5.0.0/Groth16Verifier.sol\":8076:8091  mulmod(x, x, P) */\n      dup1\n      tag_270\n      jumpi\n      tag_271\n      tag_136\n      jump\t// in\n    tag_271:\n    tag_270:\n        /* \"contracts/.deps/github/succinctlabs/sp1-contracts/contracts/src/v5.0.0/Groth16Verifier.sol\":8086:8087  x */\n      dup3\n        /* \"contracts/.deps/github/succinctlabs/sp1-contracts/contracts/src/v5.0.0/Groth16Verifier.sol\":8083:8084  x */\n      dup4\n        /* \"contracts/.deps/github/succinctlabs/sp1-contracts/contracts/src/v5.0.0/Groth16Verifier.sol\":8076:8091  mulmod(x, x, P) */\n      mulmod\n        /* \"contracts/.deps/github/succinctlabs/sp1-contracts/contracts/src/v5.0.0/Groth16Verifier.sol\":8076:8096  mulmod(x, x, P) == a */\n      eq\n        /* \"contracts/.deps/github/succinctlabs/sp1-contracts/contracts/src/v5.0.0/Groth16Verifier.sol\":8069:8096  return mulmod(x, x, P) == a */\n      swap2\n      pop\n      pop\n        /* \"contracts/.deps/github/succinctlabs/sp1-contracts/contracts/src/v5.0.0/Groth16Verifier.sol\":7955:8104  function isSquare_Fp(uint256 a) internal view returns (bool) {... */\n      swap2\n      swap1\n      pop\n      jump\t// out\n        /* \"contracts/.deps/github/succinctlabs/sp1-contracts/contracts/src/v5.0.0/Groth16Verifier.sol\":8749:9556  function sqrt_Fp2(uint256 a0, uint256 a1, bool hint) internal view returns (uint256 x0, uint256 x1) {... */\n    tag_195:\n        /* \"contracts/.deps/github/succinctlabs/sp1-contracts/contracts/src/v5.0.0/Groth16Verifier.sol\":8825:8835  uint256 x0 */\n      0x00\n        /* \"contracts/.deps/github/succinctlabs/sp1-contracts/contracts/src/v5.0.0/Groth16Verifier.sol\":8837:8847  uint256 x1 */\n      0x00\n        /* \"contracts/.deps/github/succinctlabs/sp1-contracts/contracts/src/v5.0.0/Groth16Verifier.sol\":8929:8938  uint256 d */\n      0x00\n        /* \"contracts/.deps/github/succinctlabs/sp1-contracts/contracts/src/v5.0.0/Groth16Verifier.sol\":8941:8997  sqrt_Fp(addmod(mulmod(a0, a0, P), mulmod(a1, a1, P), P)) */\n      tag_273\n        /* \"contracts/.deps/github/succinctlabs/sp1-contracts/contracts/src/v5.0.0/Groth16Verifier.sol\":1431:1497  0x30644e72e131a029b85045b68181585d97816a916871ca8d3c208c16d87cfd47 */\n      0x30644e72e131a029b85045b68181585d97816a916871ca8d3c208c16d87cfd47\n        /* \"contracts/.deps/github/succinctlabs/sp1-contracts/contracts/src/v5.0.0/Groth16Verifier.sol\":8949:8996  addmod(mulmod(a0, a0, P), mulmod(a1, a1, P), P) */\n      dup1\n      tag_274\n      jumpi\n      tag_275\n      tag_136\n      jump\t// in\n    tag_275:\n    tag_274:\n        /* \"contracts/.deps/github/succinctlabs/sp1-contracts/contracts/src/v5.0.0/Groth16Verifier.sol\":1431:1497  0x30644e72e131a029b85045b68181585d97816a916871ca8d3c208c16d87cfd47 */\n      0x30644e72e131a029b85045b68181585d97816a916871ca8d3c208c16d87cfd47\n        /* \"contracts/.deps/github/succinctlabs/sp1-contracts/contracts/src/v5.0.0/Groth16Verifier.sol\":8975:8992  mulmod(a1, a1, P) */\n      dup1\n      tag_276\n      jumpi\n      tag_277\n      tag_136\n      jump\t// in\n    tag_277:\n    tag_276:\n        /* \"contracts/.deps/github/succinctlabs/sp1-contracts/contracts/src/v5.0.0/Groth16Verifier.sol\":8986:8988  a1 */\n      dup8\n        /* \"contracts/.deps/github/succinctlabs/sp1-contracts/contracts/src/v5.0.0/Groth16Verifier.sol\":8982:8984  a1 */\n      dup9\n        /* \"contracts/.deps/github/succinctlabs/sp1-contracts/contracts/src/v5.0.0/Groth16Verifier.sol\":8975:8992  mulmod(a1, a1, P) */\n      mulmod\n        /* \"contracts/.deps/github/succinctlabs/sp1-contracts/contracts/src/v5.0.0/Groth16Verifier.sol\":1431:1497  0x30644e72e131a029b85045b68181585d97816a916871ca8d3c208c16d87cfd47 */\n      0x30644e72e131a029b85045b68181585d97816a916871ca8d3c208c16d87cfd47\n        /* \"contracts/.deps/github/succinctlabs/sp1-contracts/contracts/src/v5.0.0/Groth16Verifier.sol\":8956:8973  mulmod(a0, a0, P) */\n      dup1\n      tag_278\n      jumpi\n      tag_279\n      tag_136\n      jump\t// in\n    tag_279:\n    tag_278:\n        /* \"contracts/.deps/github/succinctlabs/sp1-contracts/contracts/src/v5.0.0/Groth16Verifier.sol\":8967:8969  a0 */\n      dup10\n        /* \"contracts/.deps/github/succinctlabs/sp1-contracts/contracts/src/v5.0.0/Groth16Verifier.sol\":8963:8965  a0 */\n      dup11\n        /* \"contracts/.deps/github/succinctlabs/sp1-contracts/contracts/src/v5.0.0/Groth16Verifier.sol\":8956:8973  mulmod(a0, a0, P) */\n      mulmod\n        /* \"contracts/.deps/github/succinctlabs/sp1-contracts/contracts/src/v5.0.0/Groth16Verifier.sol\":8949:8996  addmod(mulmod(a0, a0, P), mulmod(a1, a1, P), P) */\n      addmod\n        /* \"contracts/.deps/github/succinctlabs/sp1-contracts/contracts/src/v5.0.0/Groth16Verifier.sol\":8941:8948  sqrt_Fp */\n      tag_141\n        /* \"contracts/.deps/github/succinctlabs/sp1-contracts/contracts/src/v5.0.0/Groth16Verifier.sol\":8941:8997  sqrt_Fp(addmod(mulmod(a0, a0, P), mulmod(a1, a1, P), P)) */\n      jump\t// in\n    tag_273:\n        /* \"contracts/.deps/github/succinctlabs/sp1-contracts/contracts/src/v5.0.0/Groth16Verifier.sol\":8929:8997  uint256 d = sqrt_Fp(addmod(mulmod(a0, a0, P), mulmod(a1, a1, P), P)) */\n      swap1\n      pop\n        /* \"contracts/.deps/github/succinctlabs/sp1-contracts/contracts/src/v5.0.0/Groth16Verifier.sol\":9012:9016  hint */\n      dup4\n        /* \"contracts/.deps/github/succinctlabs/sp1-contracts/contracts/src/v5.0.0/Groth16Verifier.sol\":9008:9058  if (hint) {... */\n      iszero\n      tag_280\n      jumpi\n        /* \"contracts/.deps/github/succinctlabs/sp1-contracts/contracts/src/v5.0.0/Groth16Verifier.sol\":9037:9046  negate(d) */\n      tag_281\n        /* \"contracts/.deps/github/succinctlabs/sp1-contracts/contracts/src/v5.0.0/Groth16Verifier.sol\":9044:9045  d */\n      dup2\n        /* \"contracts/.deps/github/succinctlabs/sp1-contracts/contracts/src/v5.0.0/Groth16Verifier.sol\":9037:9043  negate */\n      tag_145\n        /* \"contracts/.deps/github/succinctlabs/sp1-contracts/contracts/src/v5.0.0/Groth16Verifier.sol\":9037:9046  negate(d) */\n      jump\t// in\n    tag_281:\n        /* \"contracts/.deps/github/succinctlabs/sp1-contracts/contracts/src/v5.0.0/Groth16Verifier.sol\":9033:9046  d = negate(d) */\n      swap1\n      pop\n        /* \"contracts/.deps/github/succinctlabs/sp1-contracts/contracts/src/v5.0.0/Groth16Verifier.sol\":9008:9058  if (hint) {... */\n    tag_280:\n        /* \"contracts/.deps/github/succinctlabs/sp1-contracts/contracts/src/v5.0.0/Groth16Verifier.sol\":9142:9195  sqrt_Fp(mulmod(addmod(a0, d, P), FRACTION_1_2_FP, P)) */\n      tag_282\n        /* \"contracts/.deps/github/succinctlabs/sp1-contracts/contracts/src/v5.0.0/Groth16Verifier.sol\":1431:1497  0x30644e72e131a029b85045b68181585d97816a916871ca8d3c208c16d87cfd47 */\n      0x30644e72e131a029b85045b68181585d97816a916871ca8d3c208c16d87cfd47\n        /* \"contracts/.deps/github/succinctlabs/sp1-contracts/contracts/src/v5.0.0/Groth16Verifier.sol\":9150:9194  mulmod(addmod(a0, d, P), FRACTION_1_2_FP, P) */\n      dup1\n      tag_283\n      jumpi\n      tag_284\n      tag_136\n      jump\t// in\n    tag_284:\n    tag_283:\n        /* \"contracts/.deps/github/succinctlabs/sp1-contracts/contracts/src/v5.0.0/Groth16Verifier.sol\":2152:2218  0x183227397098d014dc2822db40c0ac2ecbc0b548b438e5469e10460b6c3e7ea4 */\n      0x183227397098d014dc2822db40c0ac2ecbc0b548b438e5469e10460b6c3e7ea4\n        /* \"contracts/.deps/github/succinctlabs/sp1-contracts/contracts/src/v5.0.0/Groth16Verifier.sol\":1431:1497  0x30644e72e131a029b85045b68181585d97816a916871ca8d3c208c16d87cfd47 */\n      0x30644e72e131a029b85045b68181585d97816a916871ca8d3c208c16d87cfd47\n        /* \"contracts/.deps/github/succinctlabs/sp1-contracts/contracts/src/v5.0.0/Groth16Verifier.sol\":9157:9173  addmod(a0, d, P) */\n      dup1\n      tag_285\n      jumpi\n      tag_286\n      tag_136\n      jump\t// in\n    tag_286:\n    tag_285:\n        /* \"contracts/.deps/github/succinctlabs/sp1-contracts/contracts/src/v5.0.0/Groth16Verifier.sol\":9168:9169  d */\n      dup5\n        /* \"contracts/.deps/github/succinctlabs/sp1-contracts/contracts/src/v5.0.0/Groth16Verifier.sol\":9164:9166  a0 */\n      dup11\n        /* \"contracts/.deps/github/succinctlabs/sp1-contracts/contracts/src/v5.0.0/Groth16Verifier.sol\":9157:9173  addmod(a0, d, P) */\n      addmod\n        /* \"contracts/.deps/github/succinctlabs/sp1-contracts/contracts/src/v5.0.0/Groth16Verifier.sol\":9150:9194  mulmod(addmod(a0, d, P), FRACTION_1_2_FP, P) */\n      mulmod\n        /* \"contracts/.deps/github/succinctlabs/sp1-contracts/contracts/src/v5.0.0/Groth16Verifier.sol\":9142:9149  sqrt_Fp */\n      tag_141\n        /* \"contracts/.deps/github/succinctlabs/sp1-contracts/contracts/src/v5.0.0/Groth16Verifier.sol\":9142:9195  sqrt_Fp(mulmod(addmod(a0, d, P), FRACTION_1_2_FP, P)) */\n      jump\t// in\n    tag_282:\n        /* \"contracts/.deps/github/succinctlabs/sp1-contracts/contracts/src/v5.0.0/Groth16Verifier.sol\":9137:9195  x0 = sqrt_Fp(mulmod(addmod(a0, d, P), FRACTION_1_2_FP, P)) */\n      swap3\n      pop\n        /* \"contracts/.deps/github/succinctlabs/sp1-contracts/contracts/src/v5.0.0/Groth16Verifier.sol\":1431:1497  0x30644e72e131a029b85045b68181585d97816a916871ca8d3c208c16d87cfd47 */\n      0x30644e72e131a029b85045b68181585d97816a916871ca8d3c208c16d87cfd47\n        /* \"contracts/.deps/github/succinctlabs/sp1-contracts/contracts/src/v5.0.0/Groth16Verifier.sol\":9211:9253  mulmod(a1, invert_Fp(mulmod(x0, 2, P)), P) */\n      dup1\n      tag_287\n      jumpi\n      tag_288\n      tag_136\n      jump\t// in\n    tag_288:\n    tag_287:\n        /* \"contracts/.deps/github/succinctlabs/sp1-contracts/contracts/src/v5.0.0/Groth16Verifier.sol\":9222:9249  invert_Fp(mulmod(x0, 2, P)) */\n      tag_289\n        /* \"contracts/.deps/github/succinctlabs/sp1-contracts/contracts/src/v5.0.0/Groth16Verifier.sol\":1431:1497  0x30644e72e131a029b85045b68181585d97816a916871ca8d3c208c16d87cfd47 */\n      0x30644e72e131a029b85045b68181585d97816a916871ca8d3c208c16d87cfd47\n        /* \"contracts/.deps/github/succinctlabs/sp1-contracts/contracts/src/v5.0.0/Groth16Verifier.sol\":9232:9248  mulmod(x0, 2, P) */\n      dup1\n      tag_290\n      jumpi\n      tag_291\n      tag_136\n      jump\t// in\n    tag_291:\n    tag_290:\n        /* \"contracts/.deps/github/succinctlabs/sp1-contracts/contracts/src/v5.0.0/Groth16Verifier.sol\":9243:9244  2 */\n      0x02\n        /* \"contracts/.deps/github/succinctlabs/sp1-contracts/contracts/src/v5.0.0/Groth16Verifier.sol\":9239:9241  x0 */\n      dup7\n        /* \"contracts/.deps/github/succinctlabs/sp1-contracts/contracts/src/v5.0.0/Groth16Verifier.sol\":9232:9248  mulmod(x0, 2, P) */\n      mulmod\n        /* \"contracts/.deps/github/succinctlabs/sp1-contracts/contracts/src/v5.0.0/Groth16Verifier.sol\":9222:9231  invert_Fp */\n      tag_292\n        /* \"contracts/.deps/github/succinctlabs/sp1-contracts/contracts/src/v5.0.0/Groth16Verifier.sol\":9222:9249  invert_Fp(mulmod(x0, 2, P)) */\n      jump\t// in\n    tag_289:\n        /* \"contracts/.deps/github/succinctlabs/sp1-contracts/contracts/src/v5.0.0/Groth16Verifier.sol\":9218:9220  a1 */\n      dup7\n        /* \"contracts/.deps/github/succinctlabs/sp1-contracts/contracts/src/v5.0.0/Groth16Verifier.sol\":9211:9253  mulmod(a1, invert_Fp(mulmod(x0, 2, P)), P) */\n      mulmod\n        /* \"contracts/.deps/github/succinctlabs/sp1-contracts/contracts/src/v5.0.0/Groth16Verifier.sol\":9206:9253  x1 = mulmod(a1, invert_Fp(mulmod(x0, 2, P)), P) */\n      swap2\n      pop\n        /* \"contracts/.deps/github/succinctlabs/sp1-contracts/contracts/src/v5.0.0/Groth16Verifier.sol\":1431:1497  0x30644e72e131a029b85045b68181585d97816a916871ca8d3c208c16d87cfd47 */\n      0x30644e72e131a029b85045b68181585d97816a916871ca8d3c208c16d87cfd47\n        /* \"contracts/.deps/github/succinctlabs/sp1-contracts/contracts/src/v5.0.0/Groth16Verifier.sol\":9393:9448  addmod(mulmod(x0, x0, P), negate(mulmod(x1, x1, P)), P) */\n      dup1\n      tag_293\n      jumpi\n      tag_294\n      tag_136\n      jump\t// in\n    tag_294:\n    tag_293:\n        /* \"contracts/.deps/github/succinctlabs/sp1-contracts/contracts/src/v5.0.0/Groth16Verifier.sol\":9419:9444  negate(mulmod(x1, x1, P)) */\n      tag_295\n        /* \"contracts/.deps/github/succinctlabs/sp1-contracts/contracts/src/v5.0.0/Groth16Verifier.sol\":1431:1497  0x30644e72e131a029b85045b68181585d97816a916871ca8d3c208c16d87cfd47 */\n      0x30644e72e131a029b85045b68181585d97816a916871ca8d3c208c16d87cfd47\n        /* \"contracts/.deps/github/succinctlabs/sp1-contracts/contracts/src/v5.0.0/Groth16Verifier.sol\":9426:9443  mulmod(x1, x1, P) */\n      dup1\n      tag_296\n      jumpi\n      tag_297\n      tag_136\n      jump\t// in\n    tag_297:\n    tag_296:\n        /* \"contracts/.deps/github/succinctlabs/sp1-contracts/contracts/src/v5.0.0/Groth16Verifier.sol\":9437:9439  x1 */\n      dup5\n        /* \"contracts/.deps/github/succinctlabs/sp1-contracts/contracts/src/v5.0.0/Groth16Verifier.sol\":9433:9435  x1 */\n      dup6\n        /* \"contracts/.deps/github/succinctlabs/sp1-contracts/contracts/src/v5.0.0/Groth16Verifier.sol\":9426:9443  mulmod(x1, x1, P) */\n      mulmod\n        /* \"contracts/.deps/github/succinctlabs/sp1-contracts/contracts/src/v5.0.0/Groth16Verifier.sol\":9419:9425  negate */\n      tag_145\n        /* \"contracts/.deps/github/succinctlabs/sp1-contracts/contracts/src/v5.0.0/Groth16Verifier.sol\":9419:9444  negate(mulmod(x1, x1, P)) */\n      jump\t// in\n    tag_295:\n        /* \"contracts/.deps/github/succinctlabs/sp1-contracts/contracts/src/v5.0.0/Groth16Verifier.sol\":1431:1497  0x30644e72e131a029b85045b68181585d97816a916871ca8d3c208c16d87cfd47 */\n      0x30644e72e131a029b85045b68181585d97816a916871ca8d3c208c16d87cfd47\n        /* \"contracts/.deps/github/succinctlabs/sp1-contracts/contracts/src/v5.0.0/Groth16Verifier.sol\":9400:9417  mulmod(x0, x0, P) */\n      dup1\n      tag_298\n      jumpi\n      tag_299\n      tag_136\n      jump\t// in\n    tag_299:\n    tag_298:\n        /* \"contracts/.deps/github/succinctlabs/sp1-contracts/contracts/src/v5.0.0/Groth16Verifier.sol\":9411:9413  x0 */\n      dup6\n        /* \"contracts/.deps/github/succinctlabs/sp1-contracts/contracts/src/v5.0.0/Groth16Verifier.sol\":9407:9409  x0 */\n      dup7\n        /* \"contracts/.deps/github/succinctlabs/sp1-contracts/contracts/src/v5.0.0/Groth16Verifier.sol\":9400:9417  mulmod(x0, x0, P) */\n      mulmod\n        /* \"contracts/.deps/github/succinctlabs/sp1-contracts/contracts/src/v5.0.0/Groth16Verifier.sol\":9393:9448  addmod(mulmod(x0, x0, P), negate(mulmod(x1, x1, P)), P) */\n      addmod\n        /* \"contracts/.deps/github/succinctlabs/sp1-contracts/contracts/src/v5.0.0/Groth16Verifier.sol\":9387:9389  a0 */\n      dup7\n        /* \"contracts/.deps/github/succinctlabs/sp1-contracts/contracts/src/v5.0.0/Groth16Verifier.sol\":9387:9448  a0 != addmod(mulmod(x0, x0, P), negate(mulmod(x1, x1, P)), P) */\n      eq\n      iszero\n        /* \"contracts/.deps/github/succinctlabs/sp1-contracts/contracts/src/v5.0.0/Groth16Verifier.sol\":9387:9499  a0 != addmod(mulmod(x0, x0, P), negate(mulmod(x1, x1, P)), P)... */\n      dup1\n      tag_300\n      jumpi\n      pop\n        /* \"contracts/.deps/github/succinctlabs/sp1-contracts/contracts/src/v5.0.0/Groth16Verifier.sol\":1431:1497  0x30644e72e131a029b85045b68181585d97816a916871ca8d3c208c16d87cfd47 */\n      0x30644e72e131a029b85045b68181585d97816a916871ca8d3c208c16d87cfd47\n        /* \"contracts/.deps/github/succinctlabs/sp1-contracts/contracts/src/v5.0.0/Groth16Verifier.sol\":9468:9499  mulmod(2, mulmod(x0, x1, P), P) */\n      dup1\n      tag_301\n      jumpi\n      tag_302\n      tag_136\n      jump\t// in\n    tag_302:\n    tag_301:\n        /* \"contracts/.deps/github/succinctlabs/sp1-contracts/contracts/src/v5.0.0/Groth16Verifier.sol\":1431:1497  0x30644e72e131a029b85045b68181585d97816a916871ca8d3c208c16d87cfd47 */\n      0x30644e72e131a029b85045b68181585d97816a916871ca8d3c208c16d87cfd47\n        /* \"contracts/.deps/github/succinctlabs/sp1-contracts/contracts/src/v5.0.0/Groth16Verifier.sol\":9478:9495  mulmod(x0, x1, P) */\n      dup1\n      tag_303\n      jumpi\n      tag_304\n      tag_136\n      jump\t// in\n    tag_304:\n    tag_303:\n        /* \"contracts/.deps/github/succinctlabs/sp1-contracts/contracts/src/v5.0.0/Groth16Verifier.sol\":9489:9491  x1 */\n      dup4\n        /* \"contracts/.deps/github/succinctlabs/sp1-contracts/contracts/src/v5.0.0/Groth16Verifier.sol\":9485:9487  x0 */\n      dup6\n        /* \"contracts/.deps/github/succinctlabs/sp1-contracts/contracts/src/v5.0.0/Groth16Verifier.sol\":9478:9495  mulmod(x0, x1, P) */\n      mulmod\n        /* \"contracts/.deps/github/succinctlabs/sp1-contracts/contracts/src/v5.0.0/Groth16Verifier.sol\":9475:9476  2 */\n      0x02\n        /* \"contracts/.deps/github/succinctlabs/sp1-contracts/contracts/src/v5.0.0/Groth16Verifier.sol\":9468:9499  mulmod(2, mulmod(x0, x1, P), P) */\n      mulmod\n        /* \"contracts/.deps/github/succinctlabs/sp1-contracts/contracts/src/v5.0.0/Groth16Verifier.sol\":9462:9464  a1 */\n      dup6\n        /* \"contracts/.deps/github/succinctlabs/sp1-contracts/contracts/src/v5.0.0/Groth16Verifier.sol\":9462:9499  a1 != mulmod(2, mulmod(x0, x1, P), P) */\n      eq\n      iszero\n        /* \"contracts/.deps/github/succinctlabs/sp1-contracts/contracts/src/v5.0.0/Groth16Verifier.sol\":9387:9499  a0 != addmod(mulmod(x0, x0, P), negate(mulmod(x1, x1, P)), P)... */\n    tag_300:\n        /* \"contracts/.deps/github/succinctlabs/sp1-contracts/contracts/src/v5.0.0/Groth16Verifier.sol\":9383:9549  if (a0 != addmod(mulmod(x0, x0, P), negate(mulmod(x1, x1, P)), P)... */\n      iszero\n      tag_305\n      jumpi\n        /* \"contracts/.deps/github/succinctlabs/sp1-contracts/contracts/src/v5.0.0/Groth16Verifier.sol\":9523:9537  ProofInvalid() */\n      mload(0x40)\n      0x7fcdd1f400000000000000000000000000000000000000000000000000000000\n      dup2\n      mstore\n      0x04\n      add\n      mload(0x40)\n      dup1\n      swap2\n      sub\n      swap1\n      revert\n        /* \"contracts/.deps/github/succinctlabs/sp1-contracts/contracts/src/v5.0.0/Groth16Verifier.sol\":9383:9549  if (a0 != addmod(mulmod(x0, x0, P), negate(mulmod(x1, x1, P)), P)... */\n    tag_305:\n        /* \"contracts/.deps/github/succinctlabs/sp1-contracts/contracts/src/v5.0.0/Groth16Verifier.sol\":8849:9556  {... */\n      pop\n        /* \"contracts/.deps/github/succinctlabs/sp1-contracts/contracts/src/v5.0.0/Groth16Verifier.sol\":8749:9556  function sqrt_Fp2(uint256 a0, uint256 a1, bool hint) internal view returns (uint256 x0, uint256 x1) {... */\n      swap4\n      pop\n      swap4\n      swap2\n      pop\n      pop\n      jump\t// out\n        /* \"contracts/.deps/github/succinctlabs/sp1-contracts/contracts/src/v5.0.0/Groth16Verifier.sol\":5869:6522  function exp(uint256 a, uint256 e) internal view returns (uint256 x) {... */\n    tag_259:\n        /* \"contracts/.deps/github/succinctlabs/sp1-contracts/contracts/src/v5.0.0/Groth16Verifier.sol\":5927:5936  uint256 x */\n      0x00\n        /* \"contracts/.deps/github/succinctlabs/sp1-contracts/contracts/src/v5.0.0/Groth16Verifier.sol\":5949:5961  bool success */\n      0x00\n        /* \"contracts/.deps/github/succinctlabs/sp1-contracts/contracts/src/v5.0.0/Groth16Verifier.sol\":6027:6031  0x40 */\n      0x40\n        /* \"contracts/.deps/github/succinctlabs/sp1-contracts/contracts/src/v5.0.0/Groth16Verifier.sol\":6021:6032  mload(0x40) */\n      mload\n        /* \"contracts/.deps/github/succinctlabs/sp1-contracts/contracts/src/v5.0.0/Groth16Verifier.sol\":6056:6060  0x20 */\n      0x20\n        /* \"contracts/.deps/github/succinctlabs/sp1-contracts/contracts/src/v5.0.0/Groth16Verifier.sol\":6053:6054  f */\n      dup2\n        /* \"contracts/.deps/github/succinctlabs/sp1-contracts/contracts/src/v5.0.0/Groth16Verifier.sol\":6046:6061  mstore(f, 0x20) */\n      mstore\n        /* \"contracts/.deps/github/succinctlabs/sp1-contracts/contracts/src/v5.0.0/Groth16Verifier.sol\":6096:6100  0x20 */\n      0x20\n        /* \"contracts/.deps/github/succinctlabs/sp1-contracts/contracts/src/v5.0.0/Groth16Verifier.sol\":6089:6093  0x20 */\n      dup1\n        /* \"contracts/.deps/github/succinctlabs/sp1-contracts/contracts/src/v5.0.0/Groth16Verifier.sol\":6086:6087  f */\n      dup3\n        /* \"contracts/.deps/github/succinctlabs/sp1-contracts/contracts/src/v5.0.0/Groth16Verifier.sol\":6082:6094  add(f, 0x20) */\n      add\n        /* \"contracts/.deps/github/succinctlabs/sp1-contracts/contracts/src/v5.0.0/Groth16Verifier.sol\":6075:6101  mstore(add(f, 0x20), 0x20) */\n      mstore\n        /* \"contracts/.deps/github/succinctlabs/sp1-contracts/contracts/src/v5.0.0/Groth16Verifier.sol\":6136:6140  0x20 */\n      0x20\n        /* \"contracts/.deps/github/succinctlabs/sp1-contracts/contracts/src/v5.0.0/Groth16Verifier.sol\":6129:6133  0x40 */\n      0x40\n        /* \"contracts/.deps/github/succinctlabs/sp1-contracts/contracts/src/v5.0.0/Groth16Verifier.sol\":6126:6127  f */\n      dup3\n        /* \"contracts/.deps/github/succinctlabs/sp1-contracts/contracts/src/v5.0.0/Groth16Verifier.sol\":6122:6134  add(f, 0x40) */\n      add\n        /* \"contracts/.deps/github/succinctlabs/sp1-contracts/contracts/src/v5.0.0/Groth16Verifier.sol\":6115:6141  mstore(add(f, 0x40), 0x20) */\n      mstore\n        /* \"contracts/.deps/github/succinctlabs/sp1-contracts/contracts/src/v5.0.0/Groth16Verifier.sol\":6176:6177  a */\n      dup5\n        /* \"contracts/.deps/github/succinctlabs/sp1-contracts/contracts/src/v5.0.0/Groth16Verifier.sol\":6169:6173  0x60 */\n      0x60\n        /* \"contracts/.deps/github/succinctlabs/sp1-contracts/contracts/src/v5.0.0/Groth16Verifier.sol\":6166:6167  f */\n      dup3\n        /* \"contracts/.deps/github/succinctlabs/sp1-contracts/contracts/src/v5.0.0/Groth16Verifier.sol\":6162:6174  add(f, 0x60) */\n      add\n        /* \"contracts/.deps/github/succinctlabs/sp1-contracts/contracts/src/v5.0.0/Groth16Verifier.sol\":6155:6178  mstore(add(f, 0x60), a) */\n      mstore\n        /* \"contracts/.deps/github/succinctlabs/sp1-contracts/contracts/src/v5.0.0/Groth16Verifier.sol\":6213:6214  e */\n      dup4\n        /* \"contracts/.deps/github/succinctlabs/sp1-contracts/contracts/src/v5.0.0/Groth16Verifier.sol\":6206:6210  0x80 */\n      0x80\n        /* \"contracts/.deps/github/succinctlabs/sp1-contracts/contracts/src/v5.0.0/Groth16Verifier.sol\":6203:6204  f */\n      dup3\n        /* \"contracts/.deps/github/succinctlabs/sp1-contracts/contracts/src/v5.0.0/Groth16Verifier.sol\":6199:6211  add(f, 0x80) */\n      add\n        /* \"contracts/.deps/github/succinctlabs/sp1-contracts/contracts/src/v5.0.0/Groth16Verifier.sol\":6192:6215  mstore(add(f, 0x80), e) */\n      mstore\n        /* \"contracts/.deps/github/succinctlabs/sp1-contracts/contracts/src/v5.0.0/Groth16Verifier.sol\":6250:6251  P */\n      0x30644e72e131a029b85045b68181585d97816a916871ca8d3c208c16d87cfd47\n        /* \"contracts/.deps/github/succinctlabs/sp1-contracts/contracts/src/v5.0.0/Groth16Verifier.sol\":6243:6247  0xa0 */\n      0xa0\n        /* \"contracts/.deps/github/succinctlabs/sp1-contracts/contracts/src/v5.0.0/Groth16Verifier.sol\":6240:6241  f */\n      dup3\n        /* \"contracts/.deps/github/succinctlabs/sp1-contracts/contracts/src/v5.0.0/Groth16Verifier.sol\":6236:6248  add(f, 0xa0) */\n      add\n        /* \"contracts/.deps/github/succinctlabs/sp1-contracts/contracts/src/v5.0.0/Groth16Verifier.sol\":6229:6252  mstore(add(f, 0xa0), P) */\n      mstore\n        /* \"contracts/.deps/github/succinctlabs/sp1-contracts/contracts/src/v5.0.0/Groth16Verifier.sol\":6326:6330  0x20 */\n      0x20\n        /* \"contracts/.deps/github/succinctlabs/sp1-contracts/contracts/src/v5.0.0/Groth16Verifier.sol\":6323:6324  f */\n      dup2\n        /* \"contracts/.deps/github/succinctlabs/sp1-contracts/contracts/src/v5.0.0/Groth16Verifier.sol\":6317:6321  0xc0 */\n      0xc0\n        /* \"contracts/.deps/github/succinctlabs/sp1-contracts/contracts/src/v5.0.0/Groth16Verifier.sol\":6314:6315  f */\n      dup4\n        /* \"contracts/.deps/github/succinctlabs/sp1-contracts/contracts/src/v5.0.0/Groth16Verifier.sol\":6295:6312  PRECOMPILE_MODEXP */\n      0x05\n        /* \"contracts/.deps/github/succinctlabs/sp1-contracts/contracts/src/v5.0.0/Groth16Verifier.sol\":6288:6293  gas() */\n      gas\n        /* \"contracts/.deps/github/succinctlabs/sp1-contracts/contracts/src/v5.0.0/Groth16Verifier.sol\":6277:6331  staticcall(gas(), PRECOMPILE_MODEXP, f, 0xc0, f, 0x20) */\n      staticcall\n        /* \"contracts/.deps/github/succinctlabs/sp1-contracts/contracts/src/v5.0.0/Groth16Verifier.sol\":6266:6331  success := staticcall(gas(), PRECOMPILE_MODEXP, f, 0xc0, f, 0x20) */\n      swap2\n      pop\n        /* \"contracts/.deps/github/succinctlabs/sp1-contracts/contracts/src/v5.0.0/Groth16Verifier.sol\":6356:6357  f */\n      dup1\n        /* \"contracts/.deps/github/succinctlabs/sp1-contracts/contracts/src/v5.0.0/Groth16Verifier.sol\":6350:6358  mload(f) */\n      mload\n        /* \"contracts/.deps/github/succinctlabs/sp1-contracts/contracts/src/v5.0.0/Groth16Verifier.sol\":6345:6358  x := mload(f) */\n      swap3\n      pop\n        /* \"contracts/.deps/github/succinctlabs/sp1-contracts/contracts/src/v5.0.0/Groth16Verifier.sol\":5997:6369  {... */\n      pop\n        /* \"contracts/.deps/github/succinctlabs/sp1-contracts/contracts/src/v5.0.0/Groth16Verifier.sol\":6384:6391  success */\n      dup1\n        /* \"contracts/.deps/github/succinctlabs/sp1-contracts/contracts/src/v5.0.0/Groth16Verifier.sol\":6379:6515  if (!success) {... */\n      tag_307\n      jumpi\n        /* \"contracts/.deps/github/succinctlabs/sp1-contracts/contracts/src/v5.0.0/Groth16Verifier.sol\":6489:6503  ProofInvalid() */\n      mload(0x40)\n      0x7fcdd1f400000000000000000000000000000000000000000000000000000000\n      dup2\n      mstore\n      0x04\n      add\n      mload(0x40)\n      dup1\n      swap2\n      sub\n      swap1\n      revert\n        /* \"contracts/.deps/github/succinctlabs/sp1-contracts/contracts/src/v5.0.0/Groth16Verifier.sol\":6379:6515  if (!success) {... */\n    tag_307:\n        /* \"contracts/.deps/github/succinctlabs/sp1-contracts/contracts/src/v5.0.0/Groth16Verifier.sol\":5938:6522  {... */\n      pop\n        /* \"contracts/.deps/github/succinctlabs/sp1-contracts/contracts/src/v5.0.0/Groth16Verifier.sol\":5869:6522  function exp(uint256 a, uint256 e) internal view returns (uint256 x) {... */\n      swap3\n      swap2\n      pop\n      pop\n      jump\t// out\n        /* \"contracts/.deps/github/succinctlabs/sp1-contracts/contracts/src/v5.0.0/Groth16Verifier.sol\":6811:7107  function invert_Fp(uint256 a) internal view returns (uint256 x) {... */\n    tag_292:\n        /* \"contracts/.deps/github/succinctlabs/sp1-contracts/contracts/src/v5.0.0/Groth16Verifier.sol\":6864:6873  uint256 x */\n      0x00\n        /* \"contracts/.deps/github/succinctlabs/sp1-contracts/contracts/src/v5.0.0/Groth16Verifier.sol\":6890:6912  exp(a, EXP_INVERSE_FP) */\n      tag_309\n        /* \"contracts/.deps/github/succinctlabs/sp1-contracts/contracts/src/v5.0.0/Groth16Verifier.sol\":6894:6895  a */\n      dup3\n        /* \"contracts/.deps/github/succinctlabs/sp1-contracts/contracts/src/v5.0.0/Groth16Verifier.sol\":2536:2602  0x30644E72E131A029B85045B68181585D97816A916871CA8D3C208C16D87CFD45 */\n      0x30644e72e131a029b85045b68181585d97816a916871ca8d3c208c16d87cfd45\n        /* \"contracts/.deps/github/succinctlabs/sp1-contracts/contracts/src/v5.0.0/Groth16Verifier.sol\":6890:6893  exp */\n      tag_259\n        /* \"contracts/.deps/github/succinctlabs/sp1-contracts/contracts/src/v5.0.0/Groth16Verifier.sol\":6890:6912  exp(a, EXP_INVERSE_FP) */\n      jump\t// in\n    tag_309:\n        /* \"contracts/.deps/github/succinctlabs/sp1-contracts/contracts/src/v5.0.0/Groth16Verifier.sol\":6886:6912  x = exp(a, EXP_INVERSE_FP) */\n      swap1\n      pop\n        /* \"contracts/.deps/github/succinctlabs/sp1-contracts/contracts/src/v5.0.0/Groth16Verifier.sol\":6946:6947  1 */\n      0x01\n        /* \"contracts/.deps/github/succinctlabs/sp1-contracts/contracts/src/v5.0.0/Groth16Verifier.sol\":1431:1497  0x30644e72e131a029b85045b68181585d97816a916871ca8d3c208c16d87cfd47 */\n      0x30644e72e131a029b85045b68181585d97816a916871ca8d3c208c16d87cfd47\n        /* \"contracts/.deps/github/succinctlabs/sp1-contracts/contracts/src/v5.0.0/Groth16Verifier.sol\":6927:6942  mulmod(a, x, P) */\n      dup1\n      tag_310\n      jumpi\n      tag_311\n      tag_136\n      jump\t// in\n    tag_311:\n    tag_310:\n        /* \"contracts/.deps/github/succinctlabs/sp1-contracts/contracts/src/v5.0.0/Groth16Verifier.sol\":6937:6938  x */\n      dup3\n        /* \"contracts/.deps/github/succinctlabs/sp1-contracts/contracts/src/v5.0.0/Groth16Verifier.sol\":6934:6935  a */\n      dup5\n        /* \"contracts/.deps/github/succinctlabs/sp1-contracts/contracts/src/v5.0.0/Groth16Verifier.sol\":6927:6942  mulmod(a, x, P) */\n      mulmod\n        /* \"contracts/.deps/github/succinctlabs/sp1-contracts/contracts/src/v5.0.0/Groth16Verifier.sol\":6927:6947  mulmod(a, x, P) != 1 */\n      eq\n        /* \"contracts/.deps/github/succinctlabs/sp1-contracts/contracts/src/v5.0.0/Groth16Verifier.sol\":6923:7100  if (mulmod(a, x, P) != 1) {... */\n      tag_312\n      jumpi\n        /* \"contracts/.deps/github/succinctlabs/sp1-contracts/contracts/src/v5.0.0/Groth16Verifier.sol\":7074:7088  ProofInvalid() */\n      mload(0x40)\n      0x7fcdd1f400000000000000000000000000000000000000000000000000000000\n      dup2\n      mstore\n      0x04\n      add\n      mload(0x40)\n      dup1\n      swap2\n      sub\n      swap1\n      revert\n        /* \"contracts/.deps/github/succinctlabs/sp1-contracts/contracts/src/v5.0.0/Groth16Verifier.sol\":6923:7100  if (mulmod(a, x, P) != 1) {... */\n    tag_312:\n        /* \"contracts/.deps/github/succinctlabs/sp1-contracts/contracts/src/v5.0.0/Groth16Verifier.sol\":6811:7107  function invert_Fp(uint256 a) internal view returns (uint256 x) {... */\n      swap2\n      swap1\n      pop\n      jump\t// out\n    tag_21:\n      mload(0x40)\n      dup1\n      0x80\n      add\n      0x40\n      mstore\n      dup1\n      0x04\n      swap1\n      0x20\n      dup3\n      mul\n      dup1\n      calldatasize\n      dup4\n      calldatacopy\n      dup1\n      dup3\n      add\n      swap2\n      pop\n      pop\n      swap1\n      pop\n      pop\n      swap1\n      jump\t// out\n    tag_59:\n      mload(0x40)\n      dup1\n      0x0300\n      add\n      0x40\n      mstore\n      dup1\n      0x18\n      swap1\n      0x20\n      dup3\n      mul\n      dup1\n      calldatasize\n      dup4\n      calldatacopy\n      dup1\n      dup3\n      add\n      swap2\n      pop\n      pop\n      swap1\n      pop\n      pop\n      swap1\n      jump\t// out\n    tag_123:\n      mload(0x40)\n      dup1\n      0x20\n      add\n      0x40\n      mstore\n      dup1\n      0x01\n      swap1\n      0x20\n      dup3\n      mul\n      dup1\n      calldatasize\n      dup4\n      calldatacopy\n      dup1\n      dup3\n      add\n      swap2\n      pop\n      pop\n      swap1\n      pop\n      pop\n      swap1\n      jump\t// out\n        /* \"#utility.yul\":88:205   */\n    tag_314:\n        /* \"#utility.yul\":197:198   */\n      0x00\n        /* \"#utility.yul\":194:195   */\n      0x00\n        /* \"#utility.yul\":187:199   */\n      revert\n        /* \"#utility.yul\":334:451   */\n    tag_316:\n        /* \"#utility.yul\":443:444   */\n      0x00\n        /* \"#utility.yul\":440:441   */\n      0x00\n        /* \"#utility.yul\":433:445   */\n      revert\n        /* \"#utility.yul\":475:724   */\n    tag_317:\n        /* \"#utility.yul\":546:554   */\n      0x00\n        /* \"#utility.yul\":577:583   */\n      dup2\n        /* \"#utility.yul\":565:583   */\n      swap1\n      pop\n        /* \"#utility.yul\":630:633   */\n      dup3\n        /* \"#utility.yul\":622:626   */\n      0x20\n        /* \"#utility.yul\":616:620   */\n      0x08\n        /* \"#utility.yul\":612:627   */\n      mul\n        /* \"#utility.yul\":602:610   */\n      dup3\n        /* \"#utility.yul\":598:628   */\n      add\n        /* \"#utility.yul\":595:634   */\n      gt\n        /* \"#utility.yul\":592:718   */\n      iszero\n      tag_335\n      jumpi\n        /* \"#utility.yul\":637:716   */\n      tag_336\n      tag_316\n      jump\t// in\n    tag_336:\n        /* \"#utility.yul\":592:718   */\n    tag_335:\n        /* \"#utility.yul\":475:724   */\n      swap3\n      swap2\n      pop\n      pop\n      jump\t// out\n        /* \"#utility.yul\":730:1110   */\n    tag_8:\n        /* \"#utility.yul\":814:820   */\n      0x00\n        /* \"#utility.yul\":863:866   */\n      0x0100\n        /* \"#utility.yul\":851:860   */\n      dup3\n        /* \"#utility.yul\":842:849   */\n      dup5\n        /* \"#utility.yul\":838:861   */\n      sub\n        /* \"#utility.yul\":834:867   */\n      slt\n        /* \"#utility.yul\":831:951   */\n      iszero\n      tag_338\n      jumpi\n        /* \"#utility.yul\":870:949   */\n      tag_339\n      tag_314\n      jump\t// in\n    tag_339:\n        /* \"#utility.yul\":831:951   */\n    tag_338:\n        /* \"#utility.yul\":990:991   */\n      0x00\n        /* \"#utility.yul\":1015:1093   */\n      tag_340\n        /* \"#utility.yul\":1085:1092   */\n      dup5\n        /* \"#utility.yul\":1076:1082   */\n      dup3\n        /* \"#utility.yul\":1065:1074   */\n      dup6\n        /* \"#utility.yul\":1061:1083   */\n      add\n        /* \"#utility.yul\":1015:1093   */\n      tag_317\n      jump\t// in\n    tag_340:\n        /* \"#utility.yul\":1005:1093   */\n      swap2\n      pop\n        /* \"#utility.yul\":961:1103   */\n      pop\n        /* \"#utility.yul\":730:1110   */\n      swap3\n      swap2\n      pop\n      pop\n      jump\t// out\n        /* \"#utility.yul\":1116:1220   */\n    tag_318:\n        /* \"#utility.yul\":1181:1187   */\n      0x00\n        /* \"#utility.yul\":1209:1213   */\n      0x04\n        /* \"#utility.yul\":1199:1213   */\n      swap1\n      pop\n        /* \"#utility.yul\":1116:1220   */\n      swap2\n      swap1\n      pop\n      jump\t// out\n        /* \"#utility.yul\":1226:1369   */\n    tag_319:\n        /* \"#utility.yul\":1323:1334   */\n      0x00\n        /* \"#utility.yul\":1360:1363   */\n      dup2\n        /* \"#utility.yul\":1345:1363   */\n      swap1\n      pop\n        /* \"#utility.yul\":1226:1369   */\n      swap3\n      swap2\n      pop\n      pop\n      jump\t// out\n        /* \"#utility.yul\":1375:1473   */\n    tag_320:\n        /* \"#utility.yul\":1440:1444   */\n      0x00\n        /* \"#utility.yul\":1463:1466   */\n      dup2\n        /* \"#utility.yul\":1455:1466   */\n      swap1\n      pop\n        /* \"#utility.yul\":1375:1473   */\n      swap2\n      swap1\n      pop\n      jump\t// out\n        /* \"#utility.yul\":1479:1556   */\n    tag_321:\n        /* \"#utility.yul\":1516:1523   */\n      0x00\n        /* \"#utility.yul\":1545:1550   */\n      dup2\n        /* \"#utility.yul\":1534:1550   */\n      swap1\n      pop\n        /* \"#utility.yul\":1479:1556   */\n      swap2\n      swap1\n      pop\n      jump\t// out\n        /* \"#utility.yul\":1562:1670   */\n    tag_322:\n        /* \"#utility.yul\":1639:1663   */\n      tag_346\n        /* \"#utility.yul\":1657:1662   */\n      dup2\n        /* \"#utility.yul\":1639:1663   */\n      tag_321\n      jump\t// in\n    tag_346:\n        /* \"#utility.yul\":1634:1637   */\n      dup3\n        /* \"#utility.yul\":1627:1664   */\n      mstore\n        /* \"#utility.yul\":1562:1670   */\n      pop\n      pop\n      jump\t// out\n        /* \"#utility.yul\":1676:1855   */\n    tag_323:\n        /* \"#utility.yul\":1745:1755   */\n      0x00\n        /* \"#utility.yul\":1766:1812   */\n      tag_348\n        /* \"#utility.yul\":1808:1811   */\n      dup4\n        /* \"#utility.yul\":1800:1806   */\n      dup4\n        /* \"#utility.yul\":1766:1812   */\n      tag_322\n      jump\t// in\n    tag_348:\n        /* \"#utility.yul\":1844:1848   */\n      0x20\n        /* \"#utility.yul\":1839:1842   */\n      dup4\n        /* \"#utility.yul\":1835:1849   */\n      add\n        /* \"#utility.yul\":1821:1849   */\n      swap1\n      pop\n        /* \"#utility.yul\":1676:1855   */\n      swap3\n      swap2\n      pop\n      pop\n      jump\t// out\n        /* \"#utility.yul\":1861:1972   */\n    tag_324:\n        /* \"#utility.yul\":1929:1933   */\n      0x00\n        /* \"#utility.yul\":1961:1965   */\n      0x20\n        /* \"#utility.yul\":1956:1959   */\n      dup3\n        /* \"#utility.yul\":1952:1966   */\n      add\n        /* \"#utility.yul\":1944:1966   */\n      swap1\n      pop\n        /* \"#utility.yul\":1861:1972   */\n      swap2\n      swap1\n      pop\n      jump\t// out\n        /* \"#utility.yul\":2010:2704   */\n    tag_325:\n        /* \"#utility.yul\":2146:2198   */\n      tag_351\n        /* \"#utility.yul\":2192:2197   */\n      dup2\n        /* \"#utility.yul\":2146:2198   */\n      tag_318\n      jump\t// in\n    tag_351:\n        /* \"#utility.yul\":2214:2298   */\n      tag_352\n        /* \"#utility.yul\":2291:2297   */\n      dup2\n        /* \"#utility.yul\":2286:2289   */\n      dup5\n        /* \"#utility.yul\":2214:2298   */\n      tag_319\n      jump\t// in\n    tag_352:\n        /* \"#utility.yul\":2207:2298   */\n      swap3\n      pop\n        /* \"#utility.yul\":2322:2376   */\n      tag_353\n        /* \"#utility.yul\":2370:2375   */\n      dup3\n        /* \"#utility.yul\":2322:2376   */\n      tag_320\n      jump\t// in\n    tag_353:\n        /* \"#utility.yul\":2399:2406   */\n      dup1\n        /* \"#utility.yul\":2430:2431   */\n      0x00\n        /* \"#utility.yul\":2415:2697   */\n    tag_354:\n        /* \"#utility.yul\":2440:2446   */\n      dup4\n        /* \"#utility.yul\":2437:2438   */\n      dup2\n        /* \"#utility.yul\":2434:2447   */\n      lt\n        /* \"#utility.yul\":2415:2697   */\n      iszero\n      tag_356\n      jumpi\n        /* \"#utility.yul\":2516:2522   */\n      dup2\n        /* \"#utility.yul\":2510:2523   */\n      mload\n        /* \"#utility.yul\":2543:2606   */\n      tag_357\n        /* \"#utility.yul\":2602:2605   */\n      dup8\n        /* \"#utility.yul\":2587:2600   */\n      dup3\n        /* \"#utility.yul\":2543:2606   */\n      tag_323\n      jump\t// in\n    tag_357:\n        /* \"#utility.yul\":2536:2606   */\n      swap7\n      pop\n        /* \"#utility.yul\":2629:2687   */\n      tag_358\n        /* \"#utility.yul\":2680:2686   */\n      dup4\n        /* \"#utility.yul\":2629:2687   */\n      tag_324\n      jump\t// in\n    tag_358:\n        /* \"#utility.yul\":2619:2687   */\n      swap3\n      pop\n        /* \"#utility.yul\":2475:2697   */\n      pop\n        /* \"#utility.yul\":2462:2463   */\n      0x01\n        /* \"#utility.yul\":2459:2460   */\n      dup2\n        /* \"#utility.yul\":2455:2464   */\n      add\n        /* \"#utility.yul\":2450:2464   */\n      swap1\n      pop\n        /* \"#utility.yul\":2415:2697   */\n      jump(tag_354)\n    tag_356:\n        /* \"#utility.yul\":2419:2433   */\n      pop\n        /* \"#utility.yul\":2122:2704   */\n      pop\n      pop\n      pop\n        /* \"#utility.yul\":2010:2704   */\n      pop\n      pop\n      jump\t// out\n        /* \"#utility.yul\":2710:3025   */\n    tag_11:\n        /* \"#utility.yul\":2849:2853   */\n      0x00\n        /* \"#utility.yul\":2887:2890   */\n      0x80\n        /* \"#utility.yul\":2876:2885   */\n      dup3\n        /* \"#utility.yul\":2872:2891   */\n      add\n        /* \"#utility.yul\":2864:2891   */\n      swap1\n      pop\n        /* \"#utility.yul\":2901:3018   */\n      tag_360\n        /* \"#utility.yul\":3015:3016   */\n      0x00\n        /* \"#utility.yul\":3004:3013   */\n      dup4\n        /* \"#utility.yul\":3000:3017   */\n      add\n        /* \"#utility.yul\":2991:2997   */\n      dup5\n        /* \"#utility.yul\":2901:3018   */\n      tag_325\n      jump\t// in\n    tag_360:\n        /* \"#utility.yul\":2710:3025   */\n      swap3\n      swap2\n      pop\n      pop\n      jump\t// out\n        /* \"#utility.yul\":3049:3298   */\n    tag_326:\n        /* \"#utility.yul\":3120:3128   */\n      0x00\n        /* \"#utility.yul\":3151:3157   */\n      dup2\n        /* \"#utility.yul\":3139:3157   */\n      swap1\n      pop\n        /* \"#utility.yul\":3204:3207   */\n      dup3\n        /* \"#utility.yul\":3196:3200   */\n      0x20\n        /* \"#utility.yul\":3190:3194   */\n      0x02\n        /* \"#utility.yul\":3186:3201   */\n      mul\n        /* \"#utility.yul\":3176:3184   */\n      dup3\n        /* \"#utility.yul\":3172:3202   */\n      add\n        /* \"#utility.yul\":3169:3208   */\n      gt\n        /* \"#utility.yul\":3166:3292   */\n      iszero\n      tag_362\n      jumpi\n        /* \"#utility.yul\":3211:3290   */\n      tag_363\n      tag_316\n      jump\t// in\n    tag_363:\n        /* \"#utility.yul\":3166:3292   */\n    tag_362:\n        /* \"#utility.yul\":3049:3298   */\n      swap3\n      swap2\n      pop\n      pop\n      jump\t// out\n        /* \"#utility.yul\":3304:3880   */\n    tag_14:\n        /* \"#utility.yul\":3422:3428   */\n      0x00\n        /* \"#utility.yul\":3430:3436   */\n      0x00\n        /* \"#utility.yul\":3479:3482   */\n      0x0140\n        /* \"#utility.yul\":3467:3476   */\n      dup4\n        /* \"#utility.yul\":3458:3465   */\n      dup6\n        /* \"#utility.yul\":3454:3477   */\n      sub\n        /* \"#utility.yul\":3450:3483   */\n      slt\n        /* \"#utility.yul\":3447:3567   */\n      iszero\n      tag_365\n      jumpi\n        /* \"#utility.yul\":3486:3565   */\n      tag_366\n      tag_314\n      jump\t// in\n    tag_366:\n        /* \"#utility.yul\":3447:3567   */\n    tag_365:\n        /* \"#utility.yul\":3606:3607   */\n      0x00\n        /* \"#utility.yul\":3631:3709   */\n      tag_367\n        /* \"#utility.yul\":3701:3708   */\n      dup6\n        /* \"#utility.yul\":3692:3698   */\n      dup3\n        /* \"#utility.yul\":3681:3690   */\n      dup7\n        /* \"#utility.yul\":3677:3699   */\n      add\n        /* \"#utility.yul\":3631:3709   */\n      tag_317\n      jump\t// in\n    tag_367:\n        /* \"#utility.yul\":3621:3709   */\n      swap3\n      pop\n        /* \"#utility.yul\":3577:3719   */\n      pop\n        /* \"#utility.yul\":3758:3761   */\n      0x0100\n        /* \"#utility.yul\":3785:3863   */\n      tag_368\n        /* \"#utility.yul\":3855:3862   */\n      dup6\n        /* \"#utility.yul\":3846:3852   */\n      dup3\n        /* \"#utility.yul\":3835:3844   */\n      dup7\n        /* \"#utility.yul\":3831:3853   */\n      add\n        /* \"#utility.yul\":3785:3863   */\n      tag_326\n      jump\t// in\n    tag_368:\n        /* \"#utility.yul\":3775:3863   */\n      swap2\n      pop\n        /* \"#utility.yul\":3729:3873   */\n      pop\n        /* \"#utility.yul\":3304:3880   */\n      swap3\n      pop\n      swap3\n      swap1\n      pop\n      jump\t// out\n        /* \"#utility.yul\":3904:4153   */\n    tag_327:\n        /* \"#utility.yul\":3975:3983   */\n      0x00\n        /* \"#utility.yul\":4006:4012   */\n      dup2\n        /* \"#utility.yul\":3994:4012   */\n      swap1\n      pop\n        /* \"#utility.yul\":4059:4062   */\n      dup3\n        /* \"#utility.yul\":4051:4055   */\n      0x20\n        /* \"#utility.yul\":4045:4049   */\n      0x04\n        /* \"#utility.yul\":4041:4056   */\n      mul\n        /* \"#utility.yul\":4031:4039   */\n      dup3\n        /* \"#utility.yul\":4027:4057   */\n      add\n        /* \"#utility.yul\":4024:4063   */\n      gt\n        /* \"#utility.yul\":4021:4147   */\n      iszero\n      tag_370\n      jumpi\n        /* \"#utility.yul\":4066:4145   */\n      tag_371\n      tag_316\n      jump\t// in\n    tag_371:\n        /* \"#utility.yul\":4021:4147   */\n    tag_370:\n        /* \"#utility.yul\":3904:4153   */\n      swap3\n      swap2\n      pop\n      pop\n      jump\t// out\n        /* \"#utility.yul\":4159:4735   */\n    tag_18:\n        /* \"#utility.yul\":4277:4283   */\n      0x00\n        /* \"#utility.yul\":4285:4291   */\n      0x00\n        /* \"#utility.yul\":4334:4337   */\n      0xc0\n        /* \"#utility.yul\":4322:4331   */\n      dup4\n        /* \"#utility.yul\":4313:4320   */\n      dup6\n        /* \"#utility.yul\":4309:4332   */\n      sub\n        /* \"#utility.yul\":4305:4338   */\n      slt\n        /* \"#utility.yul\":4302:4422   */\n      iszero\n      tag_373\n      jumpi\n        /* \"#utility.yul\":4341:4420   */\n      tag_374\n      tag_314\n      jump\t// in\n    tag_374:\n        /* \"#utility.yul\":4302:4422   */\n    tag_373:\n        /* \"#utility.yul\":4461:4462   */\n      0x00\n        /* \"#utility.yul\":4486:4564   */\n      tag_375\n        /* \"#utility.yul\":4556:4563   */\n      dup6\n        /* \"#utility.yul\":4547:4553   */\n      dup3\n        /* \"#utility.yul\":4536:4545   */\n      dup7\n        /* \"#utility.yul\":4532:4554   */\n      add\n        /* \"#utility.yul\":4486:4564   */\n      tag_327\n      jump\t// in\n    tag_375:\n        /* \"#utility.yul\":4476:4564   */\n      swap3\n      pop\n        /* \"#utility.yul\":4432:4574   */\n      pop\n        /* \"#utility.yul\":4613:4616   */\n      0x80\n        /* \"#utility.yul\":4640:4718   */\n      tag_376\n        /* \"#utility.yul\":4710:4717   */\n      dup6\n        /* \"#utility.yul\":4701:4707   */\n      dup3\n        /* \"#utility.yul\":4690:4699   */\n      dup7\n        /* \"#utility.yul\":4686:4708   */\n      add\n        /* \"#utility.yul\":4640:4718   */\n      tag_326\n      jump\t// in\n    tag_376:\n        /* \"#utility.yul\":4630:4718   */\n      swap2\n      pop\n        /* \"#utility.yul\":4584:4728   */\n      pop\n        /* \"#utility.yul\":4159:4735   */\n      swap3\n      pop\n      swap3\n      swap1\n      pop\n      jump\t// out\n        /* \"#utility.yul\":4741:4921   */\n    tag_26:\n        /* \"#utility.yul\":4789:4866   */\n      0x4e487b7100000000000000000000000000000000000000000000000000000000\n        /* \"#utility.yul\":4786:4787   */\n      0x00\n        /* \"#utility.yul\":4779:4867   */\n      mstore\n        /* \"#utility.yul\":4886:4890   */\n      0x32\n        /* \"#utility.yul\":4883:4884   */\n      0x04\n        /* \"#utility.yul\":4876:4891   */\n      mstore\n        /* \"#utility.yul\":4910:4914   */\n      0x24\n        /* \"#utility.yul\":4907:4908   */\n      0x00\n        /* \"#utility.yul\":4900:4915   */\n      revert\n        /* \"#utility.yul\":4927:5107   */\n    tag_136:\n        /* \"#utility.yul\":4975:5052   */\n      0x4e487b7100000000000000000000000000000000000000000000000000000000\n        /* \"#utility.yul\":4972:4973   */\n      0x00\n        /* \"#utility.yul\":4965:5053   */\n      mstore\n        /* \"#utility.yul\":5072:5076   */\n      0x12\n        /* \"#utility.yul\":5069:5070   */\n      0x04\n        /* \"#utility.yul\":5062:5077   */\n      mstore\n        /* \"#utility.yul\":5096:5100   */\n      0x24\n        /* \"#utility.yul\":5093:5094   */\n      0x00\n        /* \"#utility.yul\":5086:5101   */\n      revert\n        /* \"#utility.yul\":5113:5293   */\n    tag_328:\n        /* \"#utility.yul\":5161:5238   */\n      0x4e487b7100000000000000000000000000000000000000000000000000000000\n        /* \"#utility.yul\":5158:5159   */\n      0x00\n        /* \"#utility.yul\":5151:5239   */\n      mstore\n        /* \"#utility.yul\":5258:5262   */\n      0x11\n        /* \"#utility.yul\":5255:5256   */\n      0x04\n        /* \"#utility.yul\":5248:5263   */\n      mstore\n        /* \"#utility.yul\":5282:5286   */\n      0x24\n        /* \"#utility.yul\":5279:5280   */\n      0x00\n        /* \"#utility.yul\":5272:5287   */\n      revert\n        /* \"#utility.yul\":5299:5493   */\n    tag_157:\n        /* \"#utility.yul\":5339:5343   */\n      0x00\n        /* \"#utility.yul\":5359:5379   */\n      tag_381\n        /* \"#utility.yul\":5377:5378   */\n      dup3\n        /* \"#utility.yul\":5359:5379   */\n      tag_321\n      jump\t// in\n    tag_381:\n        /* \"#utility.yul\":5354:5379   */\n      swap2\n      pop\n        /* \"#utility.yul\":5393:5413   */\n      tag_382\n        /* \"#utility.yul\":5411:5412   */\n      dup4\n        /* \"#utility.yul\":5393:5413   */\n      tag_321\n      jump\t// in\n    tag_382:\n        /* \"#utility.yul\":5388:5413   */\n      swap3\n      pop\n        /* \"#utility.yul\":5437:5438   */\n      dup3\n        /* \"#utility.yul\":5434:5435   */\n      dup3\n        /* \"#utility.yul\":5430:5439   */\n      sub\n        /* \"#utility.yul\":5422:5439   */\n      swap1\n      pop\n        /* \"#utility.yul\":5461:5462   */\n      dup2\n        /* \"#utility.yul\":5455:5459   */\n      dup2\n        /* \"#utility.yul\":5452:5463   */\n      gt\n        /* \"#utility.yul\":5449:5486   */\n      iszero\n      tag_383\n      jumpi\n        /* \"#utility.yul\":5466:5484   */\n      tag_384\n      tag_328\n      jump\t// in\n    tag_384:\n        /* \"#utility.yul\":5449:5486   */\n    tag_383:\n        /* \"#utility.yul\":5299:5493   */\n      swap3\n      swap2\n      pop\n      pop\n      jump\t// out\n\n    auxdata: 0xa264697066735822122054034409565f3e76aeb2b38e204f5ab219909123e3d066fb1cc7d659c1a6b21064736f6c634300081e0033\n}\n",
				"bytecode": {
					"linkReferences": {},
					"object": "6080604052348015600e575f5ffd5b5061218d8061001c5f395ff3fe608060405234801561000f575f5ffd5b506004361061003f575f3560e01c806344f6369214610043578063eddf243c14610073578063f11817b21461008f575b5f5ffd5b61005d60048036038101906100589190611eea565b6100ab565b60405161006a9190611fc4565b60405180910390f35b61008d60048036038101906100889190611ffe565b61020a565b005b6100a960048036038101906100a4919061205f565b6104a4565b005b6100b3611e5a565b6100ec825f600881106100c9576100c861209d565b5b6020020135836001600881106100e2576100e161209d565b5b6020020135610a5f565b815f600481106100ff576100fe61209d565b5b6020020181815250506101748260036008811061011f5761011e61209d565b5b6020020135836002600881106101385761013761209d565b5b6020020135846005600881106101515761015061209d565b5b60200201358560046008811061016a5761016961209d565b5b6020020135610c0d565b826002600481106101885761018761209d565b5b60200201836001600481106101a05761019f61209d565b5b60200201828152508281525050506101e8826006600881106101c5576101c461209d565b5b6020020135836007600881106101de576101dd61209d565b5b6020020135610a5f565b816003600481106101fc576101fb61209d565b5b602002018181525050919050565b5f5f610215836111d9565b915091505f6040516101008682377f1cc7cb8de715675f21f01ecc9b46d236e0865e0cc020024521998269845f74e66101008201527f03ff41f4ba0c37fe2caf27354d28e4b8f83d3b76777a63b327d736bffb0122ed6101208201527f01909cd7827e0278e6b60843a4abc7b111d7f8b2725cd5902a6b20da7a2938fb6101408201527f192bd3274441670227b4f69a44005b8711266e474227c6439ca25ca8e1ec1fc26101608201527f2d4d9aa7e302d9df41749d5507949d05dbea33fbb16c643b22f599a2be6df2e26101808201527f14bedd503c37ceb061d8ec60209fe345ce89830a19230301f076caff004d19266101a08201527f0967032fcbf776d1afc985f88877f182d38480a653f2decaa9794cbc3bf3060c6101c08201527f0e187847ad4c798374d0d6732bf501847dd68bc0e071241e0213bc7fc13db7ab6101e08201527e1752a100a72fdf1e5a5d6ea841cc20ec838bccfcf7bd559e79f1c9c759b6a06102008201527f192a8cc13cd9f762871f21e43451c6ca9eeab2cb2987c4e366a185c25dac2e7f61022082015283610240820152826102608201527f198e9393920d483a7260bfb731fb5d25f1aa493335a9e71297e485b7aef312c26102808201527f1800deef121f1e76426a00665e5c4479674322d4f75edadd46debd5cd992f6ed6102a08201527f275dc4a288d1afb3cbb1ac09187524c7db36395df7be3b99e673b13a075a65ec6102c08201527f1d9befcd05a5323e6da4d435f3b617cdb3af83285c2df711ef39c01571827f9d6102e08201526020816103008360085afa9150805182169150508061049d576040517f7fcdd1f400000000000000000000000000000000000000000000000000000000815260040160405180910390fd5b5050505050565b6104ac611e7c565b5f5f6104ce855f600481106104c4576104c361209d565b5b60200201356113aa565b915091505f5f5f5f610510896002600481106104ed576104ec61209d565b5b60200201358a6001600481106105065761050561209d565b5b60200201356114df565b93509350935093505f5f61053b8b6003600481106105315761053061209d565b5b60200201356113aa565b915091505f5f61054a8c6111d9565b91509150898b5f601881106105625761056161209d565b5b602002018181525050888b6001601881106105805761057f61209d565b5b602002018181525050868b60026018811061059e5761059d61209d565b5b602002018181525050878b6003601881106105bc576105bb61209d565b5b602002018181525050848b6004601881106105da576105d961209d565b5b602002018181525050858b6005601881106105f8576105f761209d565b5b602002018181525050838b6006601881106106165761061561209d565b5b602002018181525050828b6007601881106106345761063361209d565b5b6020020181815250507f1cc7cb8de715675f21f01ecc9b46d236e0865e0cc020024521998269845f74e68b6008601881106106725761067161209d565b5b6020020181815250507f03ff41f4ba0c37fe2caf27354d28e4b8f83d3b76777a63b327d736bffb0122ed8b6009601881106106b0576106af61209d565b5b6020020181815250507f01909cd7827e0278e6b60843a4abc7b111d7f8b2725cd5902a6b20da7a2938fb8b600a601881106106ee576106ed61209d565b5b6020020181815250507f192bd3274441670227b4f69a44005b8711266e474227c6439ca25ca8e1ec1fc28b600b6018811061072c5761072b61209d565b5b6020020181815250507f2d4d9aa7e302d9df41749d5507949d05dbea33fbb16c643b22f599a2be6df2e28b600c6018811061076a5761076961209d565b5b6020020181815250507f14bedd503c37ceb061d8ec60209fe345ce89830a19230301f076caff004d19268b600d601881106107a8576107a761209d565b5b6020020181815250507f0967032fcbf776d1afc985f88877f182d38480a653f2decaa9794cbc3bf3060c8b600e601881106107e6576107e561209d565b5b6020020181815250507f0e187847ad4c798374d0d6732bf501847dd68bc0e071241e0213bc7fc13db7ab8b600f601881106108245761082361209d565b5b6020020181815250507e1752a100a72fdf1e5a5d6ea841cc20ec838bccfcf7bd559e79f1c9c759b6a08b6010601881106108615761086061209d565b5b6020020181815250507f192a8cc13cd9f762871f21e43451c6ca9eeab2cb2987c4e366a185c25dac2e7f8b60116018811061089f5761089e61209d565b5b602002018181525050818b6012601881106108bd576108bc61209d565b5b602002018181525050808b6013601881106108db576108da61209d565b5b6020020181815250507f198e9393920d483a7260bfb731fb5d25f1aa493335a9e71297e485b7aef312c28b6014601881106109195761091861209d565b5b6020020181815250507f1800deef121f1e76426a00665e5c4479674322d4f75edadd46debd5cd992f6ed8b6015601881106109575761095661209d565b5b6020020181815250507f275dc4a288d1afb3cbb1ac09187524c7db36395df7be3b99e673b13a075a65ec8b6016601881106109955761099461209d565b5b6020020181815250507f1d9befcd05a5323e6da4d435f3b617cdb3af83285c2df711ef39c01571827f9d8b6017601881106109d3576109d261209d565b5b6020020181815250505f6109e5611e9f565b6020816103008f60085afa9150811580610a1757506001815f60018110610a0f57610a0e61209d565b5b602002015114155b15610a4e576040517f7fcdd1f400000000000000000000000000000000000000000000000000000000815260040160405180910390fd5b505050505050505050505050505050565b5f7f30644e72e131a029b85045b68181585d97816a916871ca8d3c208c16d87cfd4783101580610aaf57507f30644e72e131a029b85045b68181585d97816a916871ca8d3c208c16d87cfd478210155b15610ae6576040517f7fcdd1f400000000000000000000000000000000000000000000000000000000815260040160405180910390fd5b5f83148015610af457505f82145b15610b01575f9050610c07565b5f610b9f7f30644e72e131a029b85045b68181585d97816a916871ca8d3c208c16d87cfd4780610b3457610b336120ca565b5b60037f30644e72e131a029b85045b68181585d97816a916871ca8d3c208c16d87cfd4780610b6557610b646120ca565b5b877f30644e72e131a029b85045b68181585d97816a916871ca8d3c208c16d87cfd4780610b9557610b946120ca565b5b898a0909086118ba565b9050808303610bb7575f600185901b17915050610c07565b610bc081611956565b8303610bd55760018085901b17915050610c07565b6040517f7fcdd1f400000000000000000000000000000000000000000000000000000000815260040160405180910390fd5b92915050565b5f5f7f30644e72e131a029b85045b68181585d97816a916871ca8d3c208c16d87cfd4786101580610c5e57507f30644e72e131a029b85045b68181585d97816a916871ca8d3c208c16d87cfd478510155b80610c8957507f30644e72e131a029b85045b68181585d97816a916871ca8d3c208c16d87cfd478410155b80610cb457507f30644e72e131a029b85045b68181585d97816a916871ca8d3c208c16d87cfd478310155b15610ceb576040517f7fcdd1f400000000000000000000000000000000000000000000000000000000815260040160405180910390fd5b5f8385878917171703610d03575f5f915091506111d0565b5f5f5f7f30644e72e131a029b85045b68181585d97816a916871ca8d3c208c16d87cfd4780610d3557610d346120ca565b5b60037f30644e72e131a029b85045b68181585d97816a916871ca8d3c208c16d87cfd47610d629190612124565b7f30644e72e131a029b85045b68181585d97816a916871ca8d3c208c16d87cfd4780610d9157610d906120ca565b5b8a8c090990505f7f30644e72e131a029b85045b68181585d97816a916871ca8d3c208c16d87cfd4780610dc757610dc66120ca565b5b8a7f30644e72e131a029b85045b68181585d97816a916871ca8d3c208c16d87cfd4780610df757610df66120ca565b5b8c8d090990505f7f30644e72e131a029b85045b68181585d97816a916871ca8d3c208c16d87cfd4780610e2d57610e2c6120ca565b5b8a7f30644e72e131a029b85045b68181585d97816a916871ca8d3c208c16d87cfd4780610e5d57610e5c6120ca565b5b8c8d090990507f30644e72e131a029b85045b68181585d97816a916871ca8d3c208c16d87cfd4780610e9257610e916120ca565b5b7f30644e72e131a029b85045b68181585d97816a916871ca8d3c208c16d87cfd4780610ec157610ec06120ca565b5b7f30644e72e131a029b85045b68181585d97816a916871ca8d3c208c16d87cfd4780610ef057610eef6120ca565b5b8c860984087f2b149d40ceb8aaae81be18991be06ac3b5b4c5e559dbefa33267e6dc24a138e5089450610fd57f30644e72e131a029b85045b68181585d97816a916871ca8d3c208c16d87cfd4780610f4b57610f4a6120ca565b5b7f30644e72e131a029b85045b68181585d97816a916871ca8d3c208c16d87cfd4780610f7a57610f796120ca565b5b7f30644e72e131a029b85045b68181585d97816a916871ca8d3c208c16d87cfd4780610fa957610fa86120ca565b5b8e870984087f2fcd3ac2a640a154eb23960892a85a68f031ca0c8344b23a577dcf1052b9e77508611956565b93505050505f5f6110787f30644e72e131a029b85045b68181585d97816a916871ca8d3c208c16d87cfd478061100e5761100d6120ca565b5b7f30644e72e131a029b85045b68181585d97816a916871ca8d3c208c16d87cfd478061103d5761103c6120ca565b5b8586097f30644e72e131a029b85045b68181585d97816a916871ca8d3c208c16d87cfd478061106f5761106e6120ca565b5b878809086118ba565b90506111057f30644e72e131a029b85045b68181585d97816a916871ca8d3c208c16d87cfd47806110ac576110ab6120ca565b5b7f183227397098d014dc2822db40c0ac2ecbc0b548b438e5469e10460b6c3e7ea47f30644e72e131a029b85045b68181585d97816a916871ca8d3c208c16d87cfd47806110fc576110fb6120ca565b5b848808096119c1565b15915050611114838383611a2b565b8093508194505050828714801561112a57508186145b15611152575f8161113b575f61113e565b60025b60ff1660028b901b171794508793506111cc565b61115b83611956565b87148015611170575061116d82611956565b86145b1561119957600181611182575f611185565b60025b60ff1660028b901b171794508793506111cb565b6040517f7fcdd1f400000000000000000000000000000000000000000000000000000000815260040160405180910390fd5b5b5050505b94509492505050565b5f5f5f60019050604051604081015f7f26091e1cafb0ad8a4ea0a694cd3743ebf524779233db734c451d28b58aa9758e83527e9ff50a6b8b11c3ca6fdb2690a124f8ce25489fefa65a3e782e7ba70b66690e60208401527f061c3fd0fd3da25d2607c227d090cca750ed36c6ec878755e537c1c48951fb4c82527f0fa17ae9c2033379df7b5c65eff0e107055e9a273e6119a212dd09eb517072196020830152863590508060408301527f30644e72e131a029b85045b68181585d2833e84879b9709143e1f593f000000181108416935060408260608460075afa8416935060408360808560065afa841693507f04eab241388a79817fe0e0e2ead0b2ec4ffdec51a16028dee020634fd129e71c82527f07236256d21c60d02f0bdbf95cff83e03ea9e16fca56b18d5544b0889a65c1f56020830152602087013590508060408301527f30644e72e131a029b85045b68181585d2833e84879b9709143e1f593f000000181108416935060408260608460075afa8416935060408360808560065afa841693508251955060208301519450505050806113a4576040517fa54f8e2700000000000000000000000000000000000000000000000000000000815260040160405180910390fd5b50915091565b5f5f5f83036113be575f5f915091506114da565b5f6001808516149050600184901c92507f30644e72e131a029b85045b68181585d97816a916871ca8d3c208c16d87cfd478310611427576040517f7fcdd1f400000000000000000000000000000000000000000000000000000000815260040160405180910390fd5b6114c47f30644e72e131a029b85045b68181585d97816a916871ca8d3c208c16d87cfd4780611459576114586120ca565b5b60037f30644e72e131a029b85045b68181585d97816a916871ca8d3c208c16d87cfd478061148a576114896120ca565b5b867f30644e72e131a029b85045b68181585d97816a916871ca8d3c208c16d87cfd47806114ba576114b96120ca565b5b88890909086118ba565b915080156114d8576114d582611956565b91505b505b915091565b5f5f5f5f5f861480156114f157505f85145b15611507575f5f5f5f93509350935093506118b1565b5f60018088161490505f6002808916149050600288901c95508694507f30644e72e131a029b85045b68181585d97816a916871ca8d3c208c16d87cfd478610158061157257507f30644e72e131a029b85045b68181585d97816a916871ca8d3c208c16d87cfd478510155b156115a9576040517f7fcdd1f400000000000000000000000000000000000000000000000000000000815260040160405180910390fd5b5f7f30644e72e131a029b85045b68181585d97816a916871ca8d3c208c16d87cfd47806115d9576115d86120ca565b5b60037f30644e72e131a029b85045b68181585d97816a916871ca8d3c208c16d87cfd476116069190612124565b7f30644e72e131a029b85045b68181585d97816a916871ca8d3c208c16d87cfd4780611635576116346120ca565b5b888a090990505f7f30644e72e131a029b85045b68181585d97816a916871ca8d3c208c16d87cfd478061166b5761166a6120ca565b5b887f30644e72e131a029b85045b68181585d97816a916871ca8d3c208c16d87cfd478061169b5761169a6120ca565b5b8a8b090990505f7f30644e72e131a029b85045b68181585d97816a916871ca8d3c208c16d87cfd47806116d1576116d06120ca565b5b887f30644e72e131a029b85045b68181585d97816a916871ca8d3c208c16d87cfd4780611701576117006120ca565b5b8a8b090990507f30644e72e131a029b85045b68181585d97816a916871ca8d3c208c16d87cfd4780611736576117356120ca565b5b7f30644e72e131a029b85045b68181585d97816a916871ca8d3c208c16d87cfd4780611765576117646120ca565b5b7f30644e72e131a029b85045b68181585d97816a916871ca8d3c208c16d87cfd4780611794576117936120ca565b5b8a860984087f2b149d40ceb8aaae81be18991be06ac3b5b4c5e559dbefa33267e6dc24a138e50896506118797f30644e72e131a029b85045b68181585d97816a916871ca8d3c208c16d87cfd47806117ef576117ee6120ca565b5b7f30644e72e131a029b85045b68181585d97816a916871ca8d3c208c16d87cfd478061181e5761181d6120ca565b5b7f30644e72e131a029b85045b68181585d97816a916871ca8d3c208c16d87cfd478061184d5761184c6120ca565b5b8c870984087f2fcd3ac2a640a154eb23960892a85a68f031ca0c8344b23a577dcf1052b9e77508611956565b9550611886878786611a2b565b809750819850505084156118ab5761189d87611956565b96506118a886611956565b95505b50505050505b92959194509250565b5f6118e5827f0c19139cb84c680a6e14116da060561765e05aa45a1c72a34f082305b61f3f52611d26565b9050817f30644e72e131a029b85045b68181585d97816a916871ca8d3c208c16d87cfd4780611917576119166120ca565b5b82830914611951576040517f7fcdd1f400000000000000000000000000000000000000000000000000000000815260040160405180910390fd5b919050565b5f7f30644e72e131a029b85045b68181585d97816a916871ca8d3c208c16d87cfd47808381611988576119876120ca565b5b067f30644e72e131a029b85045b68181585d97816a916871ca8d3c208c16d87cfd4703816119b9576119b86120ca565b5b069050919050565b5f5f6119ed837f0c19139cb84c680a6e14116da060561765e05aa45a1c72a34f082305b61f3f52611d26565b9050827f30644e72e131a029b85045b68181585d97816a916871ca8d3c208c16d87cfd4780611a1f57611a1e6120ca565b5b82830914915050919050565b5f5f5f611aca7f30644e72e131a029b85045b68181585d97816a916871ca8d3c208c16d87cfd4780611a6057611a5f6120ca565b5b7f30644e72e131a029b85045b68181585d97816a916871ca8d3c208c16d87cfd4780611a8f57611a8e6120ca565b5b8788097f30644e72e131a029b85045b68181585d97816a916871ca8d3c208c16d87cfd4780611ac157611ac06120ca565b5b898a09086118ba565b90508315611ade57611adb81611956565b90505b611b697f30644e72e131a029b85045b68181585d97816a916871ca8d3c208c16d87cfd4780611b1057611b0f6120ca565b5b7f183227397098d014dc2822db40c0ac2ecbc0b548b438e5469e10460b6c3e7ea47f30644e72e131a029b85045b68181585d97816a916871ca8d3c208c16d87cfd4780611b6057611b5f6120ca565b5b848a08096118ba565b92507f30644e72e131a029b85045b68181585d97816a916871ca8d3c208c16d87cfd4780611b9a57611b996120ca565b5b611bd57f30644e72e131a029b85045b68181585d97816a916871ca8d3c208c16d87cfd4780611bcc57611bcb6120ca565b5b60028609611dbd565b860991507f30644e72e131a029b85045b68181585d97816a916871ca8d3c208c16d87cfd4780611c0857611c076120ca565b5b611c427f30644e72e131a029b85045b68181585d97816a916871ca8d3c208c16d87cfd4780611c3a57611c396120ca565b5b848509611956565b7f30644e72e131a029b85045b68181585d97816a916871ca8d3c208c16d87cfd4780611c7157611c706120ca565b5b8586090886141580611ce657507f30644e72e131a029b85045b68181585d97816a916871ca8d3c208c16d87cfd4780611cad57611cac6120ca565b5b7f30644e72e131a029b85045b68181585d97816a916871ca8d3c208c16d87cfd4780611cdc57611cdb6120ca565b5b8385096002098514155b15611d1d576040517f7fcdd1f400000000000000000000000000000000000000000000000000000000815260040160405180910390fd5b50935093915050565b5f5f60405160208152602080820152602060408201528460608201528360808201527f30644e72e131a029b85045b68181585d97816a916871ca8d3c208c16d87cfd4760a082015260208160c08360055afa9150805192505080611db6576040517f7fcdd1f400000000000000000000000000000000000000000000000000000000815260040160405180910390fd5b5092915050565b5f611de8827f30644e72e131a029b85045b68181585d97816a916871ca8d3c208c16d87cfd45611d26565b905060017f30644e72e131a029b85045b68181585d97816a916871ca8d3c208c16d87cfd4780611e1b57611e1a6120ca565b5b82840914611e55576040517f7fcdd1f400000000000000000000000000000000000000000000000000000000815260040160405180910390fd5b919050565b6040518060800160405280600490602082028036833780820191505090505090565b604051806103000160405280601890602082028036833780820191505090505090565b6040518060200160405280600190602082028036833780820191505090505090565b5f5ffd5b5f5ffd5b5f81905082602060080282011115611ee457611ee3611ec5565b5b92915050565b5f6101008284031215611f0057611eff611ec1565b5b5f611f0d84828501611ec9565b91505092915050565b5f60049050919050565b5f81905092915050565b5f819050919050565b5f819050919050565b611f4581611f33565b82525050565b5f611f568383611f3c565b60208301905092915050565b5f602082019050919050565b611f7781611f16565b611f818184611f20565b9250611f8c82611f2a565b805f5b83811015611fbc578151611fa38782611f4b565b9650611fae83611f62565b925050600181019050611f8f565b505050505050565b5f608082019050611fd75f830184611f6e565b92915050565b5f81905082602060020282011115611ff857611ff7611ec5565b5b92915050565b5f5f610140838503121561201557612014611ec1565b5b5f61202285828601611ec9565b92505061010061203485828601611fdd565b9150509250929050565b5f8190508260206004028201111561205957612058611ec5565b5b92915050565b5f5f60c0838503121561207557612074611ec1565b5b5f6120828582860161203e565b925050608061209385828601611fdd565b9150509250929050565b7f4e487b71000000000000000000000000000000000000000000000000000000005f52603260045260245ffd5b7f4e487b71000000000000000000000000000000000000000000000000000000005f52601260045260245ffd5b7f4e487b71000000000000000000000000000000000000000000000000000000005f52601160045260245ffd5b5f61212e82611f33565b915061213983611f33565b9250828203905081811115612151576121506120f7565b5b9291505056fea264697066735822122054034409565f3e76aeb2b38e204f5ab219909123e3d066fb1cc7d659c1a6b21064736f6c634300081e0033",
					"opcodes": "PUSH1 0x80 PUSH1 0x40 MSTORE CALLVALUE DUP1 ISZERO PUSH1 0xE JUMPI PUSH0 PUSH0 REVERT JUMPDEST POP PUSH2 0x218D DUP1 PUSH2 0x1C PUSH0 CODECOPY PUSH0 RETURN INVALID PUSH1 0x80 PUSH1 0x40 MSTORE CALLVALUE DUP1 ISZERO PUSH2 0xF JUMPI PUSH0 PUSH0 REVERT JUMPDEST POP PUSH1 0x4 CALLDATASIZE LT PUSH2 0x3F JUMPI PUSH0 CALLDATALOAD PUSH1 0xE0 SHR DUP1 PUSH4 0x44F63692 EQ PUSH2 0x43 JUMPI DUP1 PUSH4 0xEDDF243C EQ PUSH2 0x73 JUMPI DUP1 PUSH4 0xF11817B2 EQ PUSH2 0x8F JUMPI JUMPDEST PUSH0 PUSH0 REVERT JUMPDEST PUSH2 0x5D PUSH1 0x4 DUP1 CALLDATASIZE SUB DUP2 ADD SWAP1 PUSH2 0x58 SWAP2 SWAP1 PUSH2 0x1EEA JUMP JUMPDEST PUSH2 0xAB JUMP JUMPDEST PUSH1 0x40 MLOAD PUSH2 0x6A SWAP2 SWAP1 PUSH2 0x1FC4 JUMP JUMPDEST PUSH1 0x40 MLOAD DUP1 SWAP2 SUB SWAP1 RETURN JUMPDEST PUSH2 0x8D PUSH1 0x4 DUP1 CALLDATASIZE SUB DUP2 ADD SWAP1 PUSH2 0x88 SWAP2 SWAP1 PUSH2 0x1FFE JUMP JUMPDEST PUSH2 0x20A JUMP JUMPDEST STOP JUMPDEST PUSH2 0xA9 PUSH1 0x4 DUP1 CALLDATASIZE SUB DUP2 ADD SWAP1 PUSH2 0xA4 SWAP2 SWAP1 PUSH2 0x205F JUMP JUMPDEST PUSH2 0x4A4 JUMP JUMPDEST STOP JUMPDEST PUSH2 0xB3 PUSH2 0x1E5A JUMP JUMPDEST PUSH2 0xEC DUP3 PUSH0 PUSH1 0x8 DUP2 LT PUSH2 0xC9 JUMPI PUSH2 0xC8 PUSH2 0x209D JUMP JUMPDEST JUMPDEST PUSH1 0x20 MUL ADD CALLDATALOAD DUP4 PUSH1 0x1 PUSH1 0x8 DUP2 LT PUSH2 0xE2 JUMPI PUSH2 0xE1 PUSH2 0x209D JUMP JUMPDEST JUMPDEST PUSH1 0x20 MUL ADD CALLDATALOAD PUSH2 0xA5F JUMP JUMPDEST DUP2 PUSH0 PUSH1 0x4 DUP2 LT PUSH2 0xFF JUMPI PUSH2 0xFE PUSH2 0x209D JUMP JUMPDEST JUMPDEST PUSH1 0x20 MUL ADD DUP2 DUP2 MSTORE POP POP PUSH2 0x174 DUP3 PUSH1 0x3 PUSH1 0x8 DUP2 LT PUSH2 0x11F JUMPI PUSH2 0x11E PUSH2 0x209D JUMP JUMPDEST JUMPDEST PUSH1 0x20 MUL ADD CALLDATALOAD DUP4 PUSH1 0x2 PUSH1 0x8 DUP2 LT PUSH2 0x138 JUMPI PUSH2 0x137 PUSH2 0x209D JUMP JUMPDEST JUMPDEST PUSH1 0x20 MUL ADD CALLDATALOAD DUP5 PUSH1 0x5 PUSH1 0x8 DUP2 LT PUSH2 0x151 JUMPI PUSH2 0x150 PUSH2 0x209D JUMP JUMPDEST JUMPDEST PUSH1 0x20 MUL ADD CALLDATALOAD DUP6 PUSH1 0x4 PUSH1 0x8 DUP2 LT PUSH2 0x16A JUMPI PUSH2 0x169 PUSH2 0x209D JUMP JUMPDEST JUMPDEST PUSH1 0x20 MUL ADD CALLDATALOAD PUSH2 0xC0D JUMP JUMPDEST DUP3 PUSH1 0x2 PUSH1 0x4 DUP2 LT PUSH2 0x188 JUMPI PUSH2 0x187 PUSH2 0x209D JUMP JUMPDEST JUMPDEST PUSH1 0x20 MUL ADD DUP4 PUSH1 0x1 PUSH1 0x4 DUP2 LT PUSH2 0x1A0 JUMPI PUSH2 0x19F PUSH2 0x209D JUMP JUMPDEST JUMPDEST PUSH1 0x20 MUL ADD DUP3 DUP2 MSTORE POP DUP3 DUP2 MSTORE POP POP POP PUSH2 0x1E8 DUP3 PUSH1 0x6 PUSH1 0x8 DUP2 LT PUSH2 0x1C5 JUMPI PUSH2 0x1C4 PUSH2 0x209D JUMP JUMPDEST JUMPDEST PUSH1 0x20 MUL ADD CALLDATALOAD DUP4 PUSH1 0x7 PUSH1 0x8 DUP2 LT PUSH2 0x1DE JUMPI PUSH2 0x1DD PUSH2 0x209D JUMP JUMPDEST JUMPDEST PUSH1 0x20 MUL ADD CALLDATALOAD PUSH2 0xA5F JUMP JUMPDEST DUP2 PUSH1 0x3 PUSH1 0x4 DUP2 LT PUSH2 0x1FC JUMPI PUSH2 0x1FB PUSH2 0x209D JUMP JUMPDEST JUMPDEST PUSH1 0x20 MUL ADD DUP2 DUP2 MSTORE POP POP SWAP2 SWAP1 POP JUMP JUMPDEST PUSH0 PUSH0 PUSH2 0x215 DUP4 PUSH2 0x11D9 JUMP JUMPDEST SWAP2 POP SWAP2 POP PUSH0 PUSH1 0x40 MLOAD PUSH2 0x100 DUP7 DUP3 CALLDATACOPY PUSH32 0x1CC7CB8DE715675F21F01ECC9B46D236E0865E0CC020024521998269845F74E6 PUSH2 0x100 DUP3 ADD MSTORE PUSH32 0x3FF41F4BA0C37FE2CAF27354D28E4B8F83D3B76777A63B327D736BFFB0122ED PUSH2 0x120 DUP3 ADD MSTORE PUSH32 0x1909CD7827E0278E6B60843A4ABC7B111D7F8B2725CD5902A6B20DA7A2938FB PUSH2 0x140 DUP3 ADD MSTORE PUSH32 0x192BD3274441670227B4F69A44005B8711266E474227C6439CA25CA8E1EC1FC2 PUSH2 0x160 DUP3 ADD MSTORE PUSH32 0x2D4D9AA7E302D9DF41749D5507949D05DBEA33FBB16C643B22F599A2BE6DF2E2 PUSH2 0x180 DUP3 ADD MSTORE PUSH32 0x14BEDD503C37CEB061D8EC60209FE345CE89830A19230301F076CAFF004D1926 PUSH2 0x1A0 DUP3 ADD MSTORE PUSH32 0x967032FCBF776D1AFC985F88877F182D38480A653F2DECAA9794CBC3BF3060C PUSH2 0x1C0 DUP3 ADD MSTORE PUSH32 0xE187847AD4C798374D0D6732BF501847DD68BC0E071241E0213BC7FC13DB7AB PUSH2 0x1E0 DUP3 ADD MSTORE PUSH31 0x1752A100A72FDF1E5A5D6EA841CC20EC838BCCFCF7BD559E79F1C9C759B6A0 PUSH2 0x200 DUP3 ADD MSTORE PUSH32 0x192A8CC13CD9F762871F21E43451C6CA9EEAB2CB2987C4E366A185C25DAC2E7F PUSH2 0x220 DUP3 ADD MSTORE DUP4 PUSH2 0x240 DUP3 ADD MSTORE DUP3 PUSH2 0x260 DUP3 ADD MSTORE PUSH32 0x198E9393920D483A7260BFB731FB5D25F1AA493335A9E71297E485B7AEF312C2 PUSH2 0x280 DUP3 ADD MSTORE PUSH32 0x1800DEEF121F1E76426A00665E5C4479674322D4F75EDADD46DEBD5CD992F6ED PUSH2 0x2A0 DUP3 ADD MSTORE PUSH32 0x275DC4A288D1AFB3CBB1AC09187524C7DB36395DF7BE3B99E673B13A075A65EC PUSH2 0x2C0 DUP3 ADD MSTORE PUSH32 0x1D9BEFCD05A5323E6DA4D435F3B617CDB3AF83285C2DF711EF39C01571827F9D PUSH2 0x2E0 DUP3 ADD MSTORE PUSH1 0x20 DUP2 PUSH2 0x300 DUP4 PUSH1 0x8 GAS STATICCALL SWAP2 POP DUP1 MLOAD DUP3 AND SWAP2 POP POP DUP1 PUSH2 0x49D JUMPI PUSH1 0x40 MLOAD PUSH32 0x7FCDD1F400000000000000000000000000000000000000000000000000000000 DUP2 MSTORE PUSH1 0x4 ADD PUSH1 0x40 MLOAD DUP1 SWAP2 SUB SWAP1 REVERT JUMPDEST POP POP POP POP POP JUMP JUMPDEST PUSH2 0x4AC PUSH2 0x1E7C JUMP JUMPDEST PUSH0 PUSH0 PUSH2 0x4CE DUP6 PUSH0 PUSH1 0x4 DUP2 LT PUSH2 0x4C4 JUMPI PUSH2 0x4C3 PUSH2 0x209D JUMP JUMPDEST JUMPDEST PUSH1 0x20 MUL ADD CALLDATALOAD PUSH2 0x13AA JUMP JUMPDEST SWAP2 POP SWAP2 POP PUSH0 PUSH0 PUSH0 PUSH0 PUSH2 0x510 DUP10 PUSH1 0x2 PUSH1 0x4 DUP2 LT PUSH2 0x4ED JUMPI PUSH2 0x4EC PUSH2 0x209D JUMP JUMPDEST JUMPDEST PUSH1 0x20 MUL ADD CALLDATALOAD DUP11 PUSH1 0x1 PUSH1 0x4 DUP2 LT PUSH2 0x506 JUMPI PUSH2 0x505 PUSH2 0x209D JUMP JUMPDEST JUMPDEST PUSH1 0x20 MUL ADD CALLDATALOAD PUSH2 0x14DF JUMP JUMPDEST SWAP4 POP SWAP4 POP SWAP4 POP SWAP4 POP PUSH0 PUSH0 PUSH2 0x53B DUP12 PUSH1 0x3 PUSH1 0x4 DUP2 LT PUSH2 0x531 JUMPI PUSH2 0x530 PUSH2 0x209D JUMP JUMPDEST JUMPDEST PUSH1 0x20 MUL ADD CALLDATALOAD PUSH2 0x13AA JUMP JUMPDEST SWAP2 POP SWAP2 POP PUSH0 PUSH0 PUSH2 0x54A DUP13 PUSH2 0x11D9 JUMP JUMPDEST SWAP2 POP SWAP2 POP DUP10 DUP12 PUSH0 PUSH1 0x18 DUP2 LT PUSH2 0x562 JUMPI PUSH2 0x561 PUSH2 0x209D JUMP JUMPDEST JUMPDEST PUSH1 0x20 MUL ADD DUP2 DUP2 MSTORE POP POP DUP9 DUP12 PUSH1 0x1 PUSH1 0x18 DUP2 LT PUSH2 0x580 JUMPI PUSH2 0x57F PUSH2 0x209D JUMP JUMPDEST JUMPDEST PUSH1 0x20 MUL ADD DUP2 DUP2 MSTORE POP POP DUP7 DUP12 PUSH1 0x2 PUSH1 0x18 DUP2 LT PUSH2 0x59E JUMPI PUSH2 0x59D PUSH2 0x209D JUMP JUMPDEST JUMPDEST PUSH1 0x20 MUL ADD DUP2 DUP2 MSTORE POP POP DUP8 DUP12 PUSH1 0x3 PUSH1 0x18 DUP2 LT PUSH2 0x5BC JUMPI PUSH2 0x5BB PUSH2 0x209D JUMP JUMPDEST JUMPDEST PUSH1 0x20 MUL ADD DUP2 DUP2 MSTORE POP POP DUP5 DUP12 PUSH1 0x4 PUSH1 0x18 DUP2 LT PUSH2 0x5DA JUMPI PUSH2 0x5D9 PUSH2 0x209D JUMP JUMPDEST JUMPDEST PUSH1 0x20 MUL ADD DUP2 DUP2 MSTORE POP POP DUP6 DUP12 PUSH1 0x5 PUSH1 0x18 DUP2 LT PUSH2 0x5F8 JUMPI PUSH2 0x5F7 PUSH2 0x209D JUMP JUMPDEST JUMPDEST PUSH1 0x20 MUL ADD DUP2 DUP2 MSTORE POP POP DUP4 DUP12 PUSH1 0x6 PUSH1 0x18 DUP2 LT PUSH2 0x616 JUMPI PUSH2 0x615 PUSH2 0x209D JUMP JUMPDEST JUMPDEST PUSH1 0x20 MUL ADD DUP2 DUP2 MSTORE POP POP DUP3 DUP12 PUSH1 0x7 PUSH1 0x18 DUP2 LT PUSH2 0x634 JUMPI PUSH2 0x633 PUSH2 0x209D JUMP JUMPDEST JUMPDEST PUSH1 0x20 MUL ADD DUP2 DUP2 MSTORE POP POP PUSH32 0x1CC7CB8DE715675F21F01ECC9B46D236E0865E0CC020024521998269845F74E6 DUP12 PUSH1 0x8 PUSH1 0x18 DUP2 LT PUSH2 0x672 JUMPI PUSH2 0x671 PUSH2 0x209D JUMP JUMPDEST JUMPDEST PUSH1 0x20 MUL ADD DUP2 DUP2 MSTORE POP POP PUSH32 0x3FF41F4BA0C37FE2CAF27354D28E4B8F83D3B76777A63B327D736BFFB0122ED DUP12 PUSH1 0x9 PUSH1 0x18 DUP2 LT PUSH2 0x6B0 JUMPI PUSH2 0x6AF PUSH2 0x209D JUMP JUMPDEST JUMPDEST PUSH1 0x20 MUL ADD DUP2 DUP2 MSTORE POP POP PUSH32 0x1909CD7827E0278E6B60843A4ABC7B111D7F8B2725CD5902A6B20DA7A2938FB DUP12 PUSH1 0xA PUSH1 0x18 DUP2 LT PUSH2 0x6EE JUMPI PUSH2 0x6ED PUSH2 0x209D JUMP JUMPDEST JUMPDEST PUSH1 0x20 MUL ADD DUP2 DUP2 MSTORE POP POP PUSH32 0x192BD3274441670227B4F69A44005B8711266E474227C6439CA25CA8E1EC1FC2 DUP12 PUSH1 0xB PUSH1 0x18 DUP2 LT PUSH2 0x72C JUMPI PUSH2 0x72B PUSH2 0x209D JUMP JUMPDEST JUMPDEST PUSH1 0x20 MUL ADD DUP2 DUP2 MSTORE POP POP PUSH32 0x2D4D9AA7E302D9DF41749D5507949D05DBEA33FBB16C643B22F599A2BE6DF2E2 DUP12 PUSH1 0xC PUSH1 0x18 DUP2 LT PUSH2 0x76A JUMPI PUSH2 0x769 PUSH2 0x209D JUMP JUMPDEST JUMPDEST PUSH1 0x20 MUL ADD DUP2 DUP2 MSTORE POP POP PUSH32 0x14BEDD503C37CEB061D8EC60209FE345CE89830A19230301F076CAFF004D1926 DUP12 PUSH1 0xD PUSH1 0x18 DUP2 LT PUSH2 0x7A8 JUMPI PUSH2 0x7A7 PUSH2 0x209D JUMP JUMPDEST JUMPDEST PUSH1 0x20 MUL ADD DUP2 DUP2 MSTORE POP POP PUSH32 0x967032FCBF776D1AFC985F88877F182D38480A653F2DECAA9794CBC3BF3060C DUP12 PUSH1 0xE PUSH1 0x18 DUP2 LT PUSH2 0x7E6 JUMPI PUSH2 0x7E5 PUSH2 0x209D JUMP JUMPDEST JUMPDEST PUSH1 0x20 MUL ADD DUP2 DUP2 MSTORE POP POP PUSH32 0xE187847AD4C798374D0D6732BF501847DD68BC0E071241E0213BC7FC13DB7AB DUP12 PUSH1 0xF PUSH1 0x18 DUP2 LT PUSH2 0x824 JUMPI PUSH2 0x823 PUSH2 0x209D JUMP JUMPDEST JUMPDEST PUSH1 0x20 MUL ADD DUP2 DUP2 MSTORE POP POP PUSH31 0x1752A100A72FDF1E5A5D6EA841CC20EC838BCCFCF7BD559E79F1C9C759B6A0 DUP12 PUSH1 0x10 PUSH1 0x18 DUP2 LT PUSH2 0x861 JUMPI PUSH2 0x860 PUSH2 0x209D JUMP JUMPDEST JUMPDEST PUSH1 0x20 MUL ADD DUP2 DUP2 MSTORE POP POP PUSH32 0x192A8CC13CD9F762871F21E43451C6CA9EEAB2CB2987C4E366A185C25DAC2E7F DUP12 PUSH1 0x11 PUSH1 0x18 DUP2 LT PUSH2 0x89F JUMPI PUSH2 0x89E PUSH2 0x209D JUMP JUMPDEST JUMPDEST PUSH1 0x20 MUL ADD DUP2 DUP2 MSTORE POP POP DUP2 DUP12 PUSH1 0x12 PUSH1 0x18 DUP2 LT PUSH2 0x8BD JUMPI PUSH2 0x8BC PUSH2 0x209D JUMP JUMPDEST JUMPDEST PUSH1 0x20 MUL ADD DUP2 DUP2 MSTORE POP POP DUP1 DUP12 PUSH1 0x13 PUSH1 0x18 DUP2 LT PUSH2 0x8DB JUMPI PUSH2 0x8DA PUSH2 0x209D JUMP JUMPDEST JUMPDEST PUSH1 0x20 MUL ADD DUP2 DUP2 MSTORE POP POP PUSH32 0x198E9393920D483A7260BFB731FB5D25F1AA493335A9E71297E485B7AEF312C2 DUP12 PUSH1 0x14 PUSH1 0x18 DUP2 LT PUSH2 0x919 JUMPI PUSH2 0x918 PUSH2 0x209D JUMP JUMPDEST JUMPDEST PUSH1 0x20 MUL ADD DUP2 DUP2 MSTORE POP POP PUSH32 0x1800DEEF121F1E76426A00665E5C4479674322D4F75EDADD46DEBD5CD992F6ED DUP12 PUSH1 0x15 PUSH1 0x18 DUP2 LT PUSH2 0x957 JUMPI PUSH2 0x956 PUSH2 0x209D JUMP JUMPDEST JUMPDEST PUSH1 0x20 MUL ADD DUP2 DUP2 MSTORE POP POP PUSH32 0x275DC4A288D1AFB3CBB1AC09187524C7DB36395DF7BE3B99E673B13A075A65EC DUP12 PUSH1 0x16 PUSH1 0x18 DUP2 LT PUSH2 0x995 JUMPI PUSH2 0x994 PUSH2 0x209D JUMP JUMPDEST JUMPDEST PUSH1 0x20 MUL ADD DUP2 DUP2 MSTORE POP POP PUSH32 0x1D9BEFCD05A5323E6DA4D435F3B617CDB3AF83285C2DF711EF39C01571827F9D DUP12 PUSH1 0x17 PUSH1 0x18 DUP2 LT PUSH2 0x9D3 JUMPI PUSH2 0x9D2 PUSH2 0x209D JUMP JUMPDEST JUMPDEST PUSH1 0x20 MUL ADD DUP2 DUP2 MSTORE POP POP PUSH0 PUSH2 0x9E5 PUSH2 0x1E9F JUMP JUMPDEST PUSH1 0x20 DUP2 PUSH2 0x300 DUP16 PUSH1 0x8 GAS STATICCALL SWAP2 POP DUP2 ISZERO DUP1 PUSH2 0xA17 JUMPI POP PUSH1 0x1 DUP2 PUSH0 PUSH1 0x1 DUP2 LT PUSH2 0xA0F JUMPI PUSH2 0xA0E PUSH2 0x209D JUMP JUMPDEST JUMPDEST PUSH1 0x20 MUL ADD MLOAD EQ ISZERO JUMPDEST ISZERO PUSH2 0xA4E JUMPI PUSH1 0x40 MLOAD PUSH32 0x7FCDD1F400000000000000000000000000000000000000000000000000000000 DUP2 MSTORE PUSH1 0x4 ADD PUSH1 0x40 MLOAD DUP1 SWAP2 SUB SWAP1 REVERT JUMPDEST POP POP POP POP POP POP POP POP POP POP POP POP POP POP POP JUMP JUMPDEST PUSH0 PUSH32 0x30644E72E131A029B85045B68181585D97816A916871CA8D3C208C16D87CFD47 DUP4 LT ISZERO DUP1 PUSH2 0xAAF JUMPI POP PUSH32 0x30644E72E131A029B85045B68181585D97816A916871CA8D3C208C16D87CFD47 DUP3 LT ISZERO JUMPDEST ISZERO PUSH2 0xAE6 JUMPI PUSH1 0x40 MLOAD PUSH32 0x7FCDD1F400000000000000000000000000000000000000000000000000000000 DUP2 MSTORE PUSH1 0x4 ADD PUSH1 0x40 MLOAD DUP1 SWAP2 SUB SWAP1 REVERT JUMPDEST PUSH0 DUP4 EQ DUP1 ISZERO PUSH2 0xAF4 JUMPI POP PUSH0 DUP3 EQ JUMPDEST ISZERO PUSH2 0xB01 JUMPI PUSH0 SWAP1 POP PUSH2 0xC07 JUMP JUMPDEST PUSH0 PUSH2 0xB9F PUSH32 0x30644E72E131A029B85045B68181585D97816A916871CA8D3C208C16D87CFD47 DUP1 PUSH2 0xB34 JUMPI PUSH2 0xB33 PUSH2 0x20CA JUMP JUMPDEST JUMPDEST PUSH1 0x3 PUSH32 0x30644E72E131A029B85045B68181585D97816A916871CA8D3C208C16D87CFD47 DUP1 PUSH2 0xB65 JUMPI PUSH2 0xB64 PUSH2 0x20CA JUMP JUMPDEST JUMPDEST DUP8 PUSH32 0x30644E72E131A029B85045B68181585D97816A916871CA8D3C208C16D87CFD47 DUP1 PUSH2 0xB95 JUMPI PUSH2 0xB94 PUSH2 0x20CA JUMP JUMPDEST JUMPDEST DUP10 DUP11 MULMOD MULMOD ADDMOD PUSH2 0x18BA JUMP JUMPDEST SWAP1 POP DUP1 DUP4 SUB PUSH2 0xBB7 JUMPI PUSH0 PUSH1 0x1 DUP6 SWAP1 SHL OR SWAP2 POP POP PUSH2 0xC07 JUMP JUMPDEST PUSH2 0xBC0 DUP2 PUSH2 0x1956 JUMP JUMPDEST DUP4 SUB PUSH2 0xBD5 JUMPI PUSH1 0x1 DUP1 DUP6 SWAP1 SHL OR SWAP2 POP POP PUSH2 0xC07 JUMP JUMPDEST PUSH1 0x40 MLOAD PUSH32 0x7FCDD1F400000000000000000000000000000000000000000000000000000000 DUP2 MSTORE PUSH1 0x4 ADD PUSH1 0x40 MLOAD DUP1 SWAP2 SUB SWAP1 REVERT JUMPDEST SWAP3 SWAP2 POP POP JUMP JUMPDEST PUSH0 PUSH0 PUSH32 0x30644E72E131A029B85045B68181585D97816A916871CA8D3C208C16D87CFD47 DUP7 LT ISZERO DUP1 PUSH2 0xC5E JUMPI POP PUSH32 0x30644E72E131A029B85045B68181585D97816A916871CA8D3C208C16D87CFD47 DUP6 LT ISZERO JUMPDEST DUP1 PUSH2 0xC89 JUMPI POP PUSH32 0x30644E72E131A029B85045B68181585D97816A916871CA8D3C208C16D87CFD47 DUP5 LT ISZERO JUMPDEST DUP1 PUSH2 0xCB4 JUMPI POP PUSH32 0x30644E72E131A029B85045B68181585D97816A916871CA8D3C208C16D87CFD47 DUP4 LT ISZERO JUMPDEST ISZERO PUSH2 0xCEB JUMPI PUSH1 0x40 MLOAD PUSH32 0x7FCDD1F400000000000000000000000000000000000000000000000000000000 DUP2 MSTORE PUSH1 0x4 ADD PUSH1 0x40 MLOAD DUP1 SWAP2 SUB SWAP1 REVERT JUMPDEST PUSH0 DUP4 DUP6 DUP8 DUP10 OR OR OR SUB PUSH2 0xD03 JUMPI PUSH0 PUSH0 SWAP2 POP SWAP2 POP PUSH2 0x11D0 JUMP JUMPDEST PUSH0 PUSH0 PUSH0 PUSH32 0x30644E72E131A029B85045B68181585D97816A916871CA8D3C208C16D87CFD47 DUP1 PUSH2 0xD35 JUMPI PUSH2 0xD34 PUSH2 0x20CA JUMP JUMPDEST JUMPDEST PUSH1 0x3 PUSH32 0x30644E72E131A029B85045B68181585D97816A916871CA8D3C208C16D87CFD47 PUSH2 0xD62 SWAP2 SWAP1 PUSH2 0x2124 JUMP JUMPDEST PUSH32 0x30644E72E131A029B85045B68181585D97816A916871CA8D3C208C16D87CFD47 DUP1 PUSH2 0xD91 JUMPI PUSH2 0xD90 PUSH2 0x20CA JUMP JUMPDEST JUMPDEST DUP11 DUP13 MULMOD MULMOD SWAP1 POP PUSH0 PUSH32 0x30644E72E131A029B85045B68181585D97816A916871CA8D3C208C16D87CFD47 DUP1 PUSH2 0xDC7 JUMPI PUSH2 0xDC6 PUSH2 0x20CA JUMP JUMPDEST JUMPDEST DUP11 PUSH32 0x30644E72E131A029B85045B68181585D97816A916871CA8D3C208C16D87CFD47 DUP1 PUSH2 0xDF7 JUMPI PUSH2 0xDF6 PUSH2 0x20CA JUMP JUMPDEST JUMPDEST DUP13 DUP14 MULMOD MULMOD SWAP1 POP PUSH0 PUSH32 0x30644E72E131A029B85045B68181585D97816A916871CA8D3C208C16D87CFD47 DUP1 PUSH2 0xE2D JUMPI PUSH2 0xE2C PUSH2 0x20CA JUMP JUMPDEST JUMPDEST DUP11 PUSH32 0x30644E72E131A029B85045B68181585D97816A916871CA8D3C208C16D87CFD47 DUP1 PUSH2 0xE5D JUMPI PUSH2 0xE5C PUSH2 0x20CA JUMP JUMPDEST JUMPDEST DUP13 DUP14 MULMOD MULMOD SWAP1 POP PUSH32 0x30644E72E131A029B85045B68181585D97816A916871CA8D3C208C16D87CFD47 DUP1 PUSH2 0xE92 JUMPI PUSH2 0xE91 PUSH2 0x20CA JUMP JUMPDEST JUMPDEST PUSH32 0x30644E72E131A029B85045B68181585D97816A916871CA8D3C208C16D87CFD47 DUP1 PUSH2 0xEC1 JUMPI PUSH2 0xEC0 PUSH2 0x20CA JUMP JUMPDEST JUMPDEST PUSH32 0x30644E72E131A029B85045B68181585D97816A916871CA8D3C208C16D87CFD47 DUP1 PUSH2 0xEF0 JUMPI PUSH2 0xEEF PUSH2 0x20CA JUMP JUMPDEST JUMPDEST DUP13 DUP7 MULMOD DUP5 ADDMOD PUSH32 0x2B149D40CEB8AAAE81BE18991BE06AC3B5B4C5E559DBEFA33267E6DC24A138E5 ADDMOD SWAP5 POP PUSH2 0xFD5 PUSH32 0x30644E72E131A029B85045B68181585D97816A916871CA8D3C208C16D87CFD47 DUP1 PUSH2 0xF4B JUMPI PUSH2 0xF4A PUSH2 0x20CA JUMP JUMPDEST JUMPDEST PUSH32 0x30644E72E131A029B85045B68181585D97816A916871CA8D3C208C16D87CFD47 DUP1 PUSH2 0xF7A JUMPI PUSH2 0xF79 PUSH2 0x20CA JUMP JUMPDEST JUMPDEST PUSH32 0x30644E72E131A029B85045B68181585D97816A916871CA8D3C208C16D87CFD47 DUP1 PUSH2 0xFA9 JUMPI PUSH2 0xFA8 PUSH2 0x20CA JUMP JUMPDEST JUMPDEST DUP15 DUP8 MULMOD DUP5 ADDMOD PUSH32 0x2FCD3AC2A640A154EB23960892A85A68F031CA0C8344B23A577DCF1052B9E775 ADDMOD PUSH2 0x1956 JUMP JUMPDEST SWAP4 POP POP POP POP PUSH0 PUSH0 PUSH2 0x1078 PUSH32 0x30644E72E131A029B85045B68181585D97816A916871CA8D3C208C16D87CFD47 DUP1 PUSH2 0x100E JUMPI PUSH2 0x100D PUSH2 0x20CA JUMP JUMPDEST JUMPDEST PUSH32 0x30644E72E131A029B85045B68181585D97816A916871CA8D3C208C16D87CFD47 DUP1 PUSH2 0x103D JUMPI PUSH2 0x103C PUSH2 0x20CA JUMP JUMPDEST JUMPDEST DUP6 DUP7 MULMOD PUSH32 0x30644E72E131A029B85045B68181585D97816A916871CA8D3C208C16D87CFD47 DUP1 PUSH2 0x106F JUMPI PUSH2 0x106E PUSH2 0x20CA JUMP JUMPDEST JUMPDEST DUP8 DUP9 MULMOD ADDMOD PUSH2 0x18BA JUMP JUMPDEST SWAP1 POP PUSH2 0x1105 PUSH32 0x30644E72E131A029B85045B68181585D97816A916871CA8D3C208C16D87CFD47 DUP1 PUSH2 0x10AC JUMPI PUSH2 0x10AB PUSH2 0x20CA JUMP JUMPDEST JUMPDEST PUSH32 0x183227397098D014DC2822DB40C0AC2ECBC0B548B438E5469E10460B6C3E7EA4 PUSH32 0x30644E72E131A029B85045B68181585D97816A916871CA8D3C208C16D87CFD47 DUP1 PUSH2 0x10FC JUMPI PUSH2 0x10FB PUSH2 0x20CA JUMP JUMPDEST JUMPDEST DUP5 DUP9 ADDMOD MULMOD PUSH2 0x19C1 JUMP JUMPDEST ISZERO SWAP2 POP POP PUSH2 0x1114 DUP4 DUP4 DUP4 PUSH2 0x1A2B JUMP JUMPDEST DUP1 SWAP4 POP DUP2 SWAP5 POP POP POP DUP3 DUP8 EQ DUP1 ISZERO PUSH2 0x112A JUMPI POP DUP2 DUP7 EQ JUMPDEST ISZERO PUSH2 0x1152 JUMPI PUSH0 DUP2 PUSH2 0x113B JUMPI PUSH0 PUSH2 0x113E JUMP JUMPDEST PUSH1 0x2 JUMPDEST PUSH1 0xFF AND PUSH1 0x2 DUP12 SWAP1 SHL OR OR SWAP5 POP DUP8 SWAP4 POP PUSH2 0x11CC JUMP JUMPDEST PUSH2 0x115B DUP4 PUSH2 0x1956 JUMP JUMPDEST DUP8 EQ DUP1 ISZERO PUSH2 0x1170 JUMPI POP PUSH2 0x116D DUP3 PUSH2 0x1956 JUMP JUMPDEST DUP7 EQ JUMPDEST ISZERO PUSH2 0x1199 JUMPI PUSH1 0x1 DUP2 PUSH2 0x1182 JUMPI PUSH0 PUSH2 0x1185 JUMP JUMPDEST PUSH1 0x2 JUMPDEST PUSH1 0xFF AND PUSH1 0x2 DUP12 SWAP1 SHL OR OR SWAP5 POP DUP8 SWAP4 POP PUSH2 0x11CB JUMP JUMPDEST PUSH1 0x40 MLOAD PUSH32 0x7FCDD1F400000000000000000000000000000000000000000000000000000000 DUP2 MSTORE PUSH1 0x4 ADD PUSH1 0x40 MLOAD DUP1 SWAP2 SUB SWAP1 REVERT JUMPDEST JUMPDEST POP POP POP JUMPDEST SWAP5 POP SWAP5 SWAP3 POP POP POP JUMP JUMPDEST PUSH0 PUSH0 PUSH0 PUSH1 0x1 SWAP1 POP PUSH1 0x40 MLOAD PUSH1 0x40 DUP2 ADD PUSH0 PUSH32 0x26091E1CAFB0AD8A4EA0A694CD3743EBF524779233DB734C451D28B58AA9758E DUP4 MSTORE PUSH31 0x9FF50A6B8B11C3CA6FDB2690A124F8CE25489FEFA65A3E782E7BA70B66690E PUSH1 0x20 DUP5 ADD MSTORE PUSH32 0x61C3FD0FD3DA25D2607C227D090CCA750ED36C6EC878755E537C1C48951FB4C DUP3 MSTORE PUSH32 0xFA17AE9C2033379DF7B5C65EFF0E107055E9A273E6119A212DD09EB51707219 PUSH1 0x20 DUP4 ADD MSTORE DUP7 CALLDATALOAD SWAP1 POP DUP1 PUSH1 0x40 DUP4 ADD MSTORE PUSH32 0x30644E72E131A029B85045B68181585D2833E84879B9709143E1F593F0000001 DUP2 LT DUP5 AND SWAP4 POP PUSH1 0x40 DUP3 PUSH1 0x60 DUP5 PUSH1 0x7 GAS STATICCALL DUP5 AND SWAP4 POP PUSH1 0x40 DUP4 PUSH1 0x80 DUP6 PUSH1 0x6 GAS STATICCALL DUP5 AND SWAP4 POP PUSH32 0x4EAB241388A79817FE0E0E2EAD0B2EC4FFDEC51A16028DEE020634FD129E71C DUP3 MSTORE PUSH32 0x7236256D21C60D02F0BDBF95CFF83E03EA9E16FCA56B18D5544B0889A65C1F5 PUSH1 0x20 DUP4 ADD MSTORE PUSH1 0x20 DUP8 ADD CALLDATALOAD SWAP1 POP DUP1 PUSH1 0x40 DUP4 ADD MSTORE PUSH32 0x30644E72E131A029B85045B68181585D2833E84879B9709143E1F593F0000001 DUP2 LT DUP5 AND SWAP4 POP PUSH1 0x40 DUP3 PUSH1 0x60 DUP5 PUSH1 0x7 GAS STATICCALL DUP5 AND SWAP4 POP PUSH1 0x40 DUP4 PUSH1 0x80 DUP6 PUSH1 0x6 GAS STATICCALL DUP5 AND SWAP4 POP DUP3 MLOAD SWAP6 POP PUSH1 0x20 DUP4 ADD MLOAD SWAP5 POP POP POP POP DUP1 PUSH2 0x13A4 JUMPI PUSH1 0x40 MLOAD PUSH32 0xA54F8E2700000000000000000000000000000000000000000000000000000000 DUP2 MSTORE PUSH1 0x4 ADD PUSH1 0x40 MLOAD DUP1 SWAP2 SUB SWAP1 REVERT JUMPDEST POP SWAP2 POP SWAP2 JUMP JUMPDEST PUSH0 PUSH0 PUSH0 DUP4 SUB PUSH2 0x13BE JUMPI PUSH0 PUSH0 SWAP2 POP SWAP2 POP PUSH2 0x14DA JUMP JUMPDEST PUSH0 PUSH1 0x1 DUP1 DUP6 AND EQ SWAP1 POP PUSH1 0x1 DUP5 SWAP1 SHR SWAP3 POP PUSH32 0x30644E72E131A029B85045B68181585D97816A916871CA8D3C208C16D87CFD47 DUP4 LT PUSH2 0x1427 JUMPI PUSH1 0x40 MLOAD PUSH32 0x7FCDD1F400000000000000000000000000000000000000000000000000000000 DUP2 MSTORE PUSH1 0x4 ADD PUSH1 0x40 MLOAD DUP1 SWAP2 SUB SWAP1 REVERT JUMPDEST PUSH2 0x14C4 PUSH32 0x30644E72E131A029B85045B68181585D97816A916871CA8D3C208C16D87CFD47 DUP1 PUSH2 0x1459 JUMPI PUSH2 0x1458 PUSH2 0x20CA JUMP JUMPDEST JUMPDEST PUSH1 0x3 PUSH32 0x30644E72E131A029B85045B68181585D97816A916871CA8D3C208C16D87CFD47 DUP1 PUSH2 0x148A JUMPI PUSH2 0x1489 PUSH2 0x20CA JUMP JUMPDEST JUMPDEST DUP7 PUSH32 0x30644E72E131A029B85045B68181585D97816A916871CA8D3C208C16D87CFD47 DUP1 PUSH2 0x14BA JUMPI PUSH2 0x14B9 PUSH2 0x20CA JUMP JUMPDEST JUMPDEST DUP9 DUP10 MULMOD MULMOD ADDMOD PUSH2 0x18BA JUMP JUMPDEST SWAP2 POP DUP1 ISZERO PUSH2 0x14D8 JUMPI PUSH2 0x14D5 DUP3 PUSH2 0x1956 JUMP JUMPDEST SWAP2 POP JUMPDEST POP JUMPDEST SWAP2 POP SWAP2 JUMP JUMPDEST PUSH0 PUSH0 PUSH0 PUSH0 PUSH0 DUP7 EQ DUP1 ISZERO PUSH2 0x14F1 JUMPI POP PUSH0 DUP6 EQ JUMPDEST ISZERO PUSH2 0x1507 JUMPI PUSH0 PUSH0 PUSH0 PUSH0 SWAP4 POP SWAP4 POP SWAP4 POP SWAP4 POP PUSH2 0x18B1 JUMP JUMPDEST PUSH0 PUSH1 0x1 DUP1 DUP9 AND EQ SWAP1 POP PUSH0 PUSH1 0x2 DUP1 DUP10 AND EQ SWAP1 POP PUSH1 0x2 DUP9 SWAP1 SHR SWAP6 POP DUP7 SWAP5 POP PUSH32 0x30644E72E131A029B85045B68181585D97816A916871CA8D3C208C16D87CFD47 DUP7 LT ISZERO DUP1 PUSH2 0x1572 JUMPI POP PUSH32 0x30644E72E131A029B85045B68181585D97816A916871CA8D3C208C16D87CFD47 DUP6 LT ISZERO JUMPDEST ISZERO PUSH2 0x15A9 JUMPI PUSH1 0x40 MLOAD PUSH32 0x7FCDD1F400000000000000000000000000000000000000000000000000000000 DUP2 MSTORE PUSH1 0x4 ADD PUSH1 0x40 MLOAD DUP1 SWAP2 SUB SWAP1 REVERT JUMPDEST PUSH0 PUSH32 0x30644E72E131A029B85045B68181585D97816A916871CA8D3C208C16D87CFD47 DUP1 PUSH2 0x15D9 JUMPI PUSH2 0x15D8 PUSH2 0x20CA JUMP JUMPDEST JUMPDEST PUSH1 0x3 PUSH32 0x30644E72E131A029B85045B68181585D97816A916871CA8D3C208C16D87CFD47 PUSH2 0x1606 SWAP2 SWAP1 PUSH2 0x2124 JUMP JUMPDEST PUSH32 0x30644E72E131A029B85045B68181585D97816A916871CA8D3C208C16D87CFD47 DUP1 PUSH2 0x1635 JUMPI PUSH2 0x1634 PUSH2 0x20CA JUMP JUMPDEST JUMPDEST DUP9 DUP11 MULMOD MULMOD SWAP1 POP PUSH0 PUSH32 0x30644E72E131A029B85045B68181585D97816A916871CA8D3C208C16D87CFD47 DUP1 PUSH2 0x166B JUMPI PUSH2 0x166A PUSH2 0x20CA JUMP JUMPDEST JUMPDEST DUP9 PUSH32 0x30644E72E131A029B85045B68181585D97816A916871CA8D3C208C16D87CFD47 DUP1 PUSH2 0x169B JUMPI PUSH2 0x169A PUSH2 0x20CA JUMP JUMPDEST JUMPDEST DUP11 DUP12 MULMOD MULMOD SWAP1 POP PUSH0 PUSH32 0x30644E72E131A029B85045B68181585D97816A916871CA8D3C208C16D87CFD47 DUP1 PUSH2 0x16D1 JUMPI PUSH2 0x16D0 PUSH2 0x20CA JUMP JUMPDEST JUMPDEST DUP9 PUSH32 0x30644E72E131A029B85045B68181585D97816A916871CA8D3C208C16D87CFD47 DUP1 PUSH2 0x1701 JUMPI PUSH2 0x1700 PUSH2 0x20CA JUMP JUMPDEST JUMPDEST DUP11 DUP12 MULMOD MULMOD SWAP1 POP PUSH32 0x30644E72E131A029B85045B68181585D97816A916871CA8D3C208C16D87CFD47 DUP1 PUSH2 0x1736 JUMPI PUSH2 0x1735 PUSH2 0x20CA JUMP JUMPDEST JUMPDEST PUSH32 0x30644E72E131A029B85045B68181585D97816A916871CA8D3C208C16D87CFD47 DUP1 PUSH2 0x1765 JUMPI PUSH2 0x1764 PUSH2 0x20CA JUMP JUMPDEST JUMPDEST PUSH32 0x30644E72E131A029B85045B68181585D97816A916871CA8D3C208C16D87CFD47 DUP1 PUSH2 0x1794 JUMPI PUSH2 0x1793 PUSH2 0x20CA JUMP JUMPDEST JUMPDEST DUP11 DUP7 MULMOD DUP5 ADDMOD PUSH32 0x2B149D40CEB8AAAE81BE18991BE06AC3B5B4C5E559DBEFA33267E6DC24A138E5 ADDMOD SWAP7 POP PUSH2 0x1879 PUSH32 0x30644E72E131A029B85045B68181585D97816A916871CA8D3C208C16D87CFD47 DUP1 PUSH2 0x17EF JUMPI PUSH2 0x17EE PUSH2 0x20CA JUMP JUMPDEST JUMPDEST PUSH32 0x30644E72E131A029B85045B68181585D97816A916871CA8D3C208C16D87CFD47 DUP1 PUSH2 0x181E JUMPI PUSH2 0x181D PUSH2 0x20CA JUMP JUMPDEST JUMPDEST PUSH32 0x30644E72E131A029B85045B68181585D97816A916871CA8D3C208C16D87CFD47 DUP1 PUSH2 0x184D JUMPI PUSH2 0x184C PUSH2 0x20CA JUMP JUMPDEST JUMPDEST DUP13 DUP8 MULMOD DUP5 ADDMOD PUSH32 0x2FCD3AC2A640A154EB23960892A85A68F031CA0C8344B23A577DCF1052B9E775 ADDMOD PUSH2 0x1956 JUMP JUMPDEST SWAP6 POP PUSH2 0x1886 DUP8 DUP8 DUP7 PUSH2 0x1A2B JUMP JUMPDEST DUP1 SWAP8 POP DUP2 SWAP9 POP POP POP DUP5 ISZERO PUSH2 0x18AB JUMPI PUSH2 0x189D DUP8 PUSH2 0x1956 JUMP JUMPDEST SWAP7 POP PUSH2 0x18A8 DUP7 PUSH2 0x1956 JUMP JUMPDEST SWAP6 POP JUMPDEST POP POP POP POP POP JUMPDEST SWAP3 SWAP6 SWAP2 SWAP5 POP SWAP3 POP JUMP JUMPDEST PUSH0 PUSH2 0x18E5 DUP3 PUSH32 0xC19139CB84C680A6E14116DA060561765E05AA45A1C72A34F082305B61F3F52 PUSH2 0x1D26 JUMP JUMPDEST SWAP1 POP DUP2 PUSH32 0x30644E72E131A029B85045B68181585D97816A916871CA8D3C208C16D87CFD47 DUP1 PUSH2 0x1917 JUMPI PUSH2 0x1916 PUSH2 0x20CA JUMP JUMPDEST JUMPDEST DUP3 DUP4 MULMOD EQ PUSH2 0x1951 JUMPI PUSH1 0x40 MLOAD PUSH32 0x7FCDD1F400000000000000000000000000000000000000000000000000000000 DUP2 MSTORE PUSH1 0x4 ADD PUSH1 0x40 MLOAD DUP1 SWAP2 SUB SWAP1 REVERT JUMPDEST SWAP2 SWAP1 POP JUMP JUMPDEST PUSH0 PUSH32 0x30644E72E131A029B85045B68181585D97816A916871CA8D3C208C16D87CFD47 DUP1 DUP4 DUP2 PUSH2 0x1988 JUMPI PUSH2 0x1987 PUSH2 0x20CA JUMP JUMPDEST JUMPDEST MOD PUSH32 0x30644E72E131A029B85045B68181585D97816A916871CA8D3C208C16D87CFD47 SUB DUP2 PUSH2 0x19B9 JUMPI PUSH2 0x19B8 PUSH2 0x20CA JUMP JUMPDEST JUMPDEST MOD SWAP1 POP SWAP2 SWAP1 POP JUMP JUMPDEST PUSH0 PUSH0 PUSH2 0x19ED DUP4 PUSH32 0xC19139CB84C680A6E14116DA060561765E05AA45A1C72A34F082305B61F3F52 PUSH2 0x1D26 JUMP JUMPDEST SWAP1 POP DUP3 PUSH32 0x30644E72E131A029B85045B68181585D97816A916871CA8D3C208C16D87CFD47 DUP1 PUSH2 0x1A1F JUMPI PUSH2 0x1A1E PUSH2 0x20CA JUMP JUMPDEST JUMPDEST DUP3 DUP4 MULMOD EQ SWAP2 POP POP SWAP2 SWAP1 POP JUMP JUMPDEST PUSH0 PUSH0 PUSH0 PUSH2 0x1ACA PUSH32 0x30644E72E131A029B85045B68181585D97816A916871CA8D3C208C16D87CFD47 DUP1 PUSH2 0x1A60 JUMPI PUSH2 0x1A5F PUSH2 0x20CA JUMP JUMPDEST JUMPDEST PUSH32 0x30644E72E131A029B85045B68181585D97816A916871CA8D3C208C16D87CFD47 DUP1 PUSH2 0x1A8F JUMPI PUSH2 0x1A8E PUSH2 0x20CA JUMP JUMPDEST JUMPDEST DUP8 DUP9 MULMOD PUSH32 0x30644E72E131A029B85045B68181585D97816A916871CA8D3C208C16D87CFD47 DUP1 PUSH2 0x1AC1 JUMPI PUSH2 0x1AC0 PUSH2 0x20CA JUMP JUMPDEST JUMPDEST DUP10 DUP11 MULMOD ADDMOD PUSH2 0x18BA JUMP JUMPDEST SWAP1 POP DUP4 ISZERO PUSH2 0x1ADE JUMPI PUSH2 0x1ADB DUP2 PUSH2 0x1956 JUMP JUMPDEST SWAP1 POP JUMPDEST PUSH2 0x1B69 PUSH32 0x30644E72E131A029B85045B68181585D97816A916871CA8D3C208C16D87CFD47 DUP1 PUSH2 0x1B10 JUMPI PUSH2 0x1B0F PUSH2 0x20CA JUMP JUMPDEST JUMPDEST PUSH32 0x183227397098D014DC2822DB40C0AC2ECBC0B548B438E5469E10460B6C3E7EA4 PUSH32 0x30644E72E131A029B85045B68181585D97816A916871CA8D3C208C16D87CFD47 DUP1 PUSH2 0x1B60 JUMPI PUSH2 0x1B5F PUSH2 0x20CA JUMP JUMPDEST JUMPDEST DUP5 DUP11 ADDMOD MULMOD PUSH2 0x18BA JUMP JUMPDEST SWAP3 POP PUSH32 0x30644E72E131A029B85045B68181585D97816A916871CA8D3C208C16D87CFD47 DUP1 PUSH2 0x1B9A JUMPI PUSH2 0x1B99 PUSH2 0x20CA JUMP JUMPDEST JUMPDEST PUSH2 0x1BD5 PUSH32 0x30644E72E131A029B85045B68181585D97816A916871CA8D3C208C16D87CFD47 DUP1 PUSH2 0x1BCC JUMPI PUSH2 0x1BCB PUSH2 0x20CA JUMP JUMPDEST JUMPDEST PUSH1 0x2 DUP7 MULMOD PUSH2 0x1DBD JUMP JUMPDEST DUP7 MULMOD SWAP2 POP PUSH32 0x30644E72E131A029B85045B68181585D97816A916871CA8D3C208C16D87CFD47 DUP1 PUSH2 0x1C08 JUMPI PUSH2 0x1C07 PUSH2 0x20CA JUMP JUMPDEST JUMPDEST PUSH2 0x1C42 PUSH32 0x30644E72E131A029B85045B68181585D97816A916871CA8D3C208C16D87CFD47 DUP1 PUSH2 0x1C3A JUMPI PUSH2 0x1C39 PUSH2 0x20CA JUMP JUMPDEST JUMPDEST DUP5 DUP6 MULMOD PUSH2 0x1956 JUMP JUMPDEST PUSH32 0x30644E72E131A029B85045B68181585D97816A916871CA8D3C208C16D87CFD47 DUP1 PUSH2 0x1C71 JUMPI PUSH2 0x1C70 PUSH2 0x20CA JUMP JUMPDEST JUMPDEST DUP6 DUP7 MULMOD ADDMOD DUP7 EQ ISZERO DUP1 PUSH2 0x1CE6 JUMPI POP PUSH32 0x30644E72E131A029B85045B68181585D97816A916871CA8D3C208C16D87CFD47 DUP1 PUSH2 0x1CAD JUMPI PUSH2 0x1CAC PUSH2 0x20CA JUMP JUMPDEST JUMPDEST PUSH32 0x30644E72E131A029B85045B68181585D97816A916871CA8D3C208C16D87CFD47 DUP1 PUSH2 0x1CDC JUMPI PUSH2 0x1CDB PUSH2 0x20CA JUMP JUMPDEST JUMPDEST DUP4 DUP6 MULMOD PUSH1 0x2 MULMOD DUP6 EQ ISZERO JUMPDEST ISZERO PUSH2 0x1D1D JUMPI PUSH1 0x40 MLOAD PUSH32 0x7FCDD1F400000000000000000000000000000000000000000000000000000000 DUP2 MSTORE PUSH1 0x4 ADD PUSH1 0x40 MLOAD DUP1 SWAP2 SUB SWAP1 REVERT JUMPDEST POP SWAP4 POP SWAP4 SWAP2 POP POP JUMP JUMPDEST PUSH0 PUSH0 PUSH1 0x40 MLOAD PUSH1 0x20 DUP2 MSTORE PUSH1 0x20 DUP1 DUP3 ADD MSTORE PUSH1 0x20 PUSH1 0x40 DUP3 ADD MSTORE DUP5 PUSH1 0x60 DUP3 ADD MSTORE DUP4 PUSH1 0x80 DUP3 ADD MSTORE PUSH32 0x30644E72E131A029B85045B68181585D97816A916871CA8D3C208C16D87CFD47 PUSH1 0xA0 DUP3 ADD MSTORE PUSH1 0x20 DUP2 PUSH1 0xC0 DUP4 PUSH1 0x5 GAS STATICCALL SWAP2 POP DUP1 MLOAD SWAP3 POP POP DUP1 PUSH2 0x1DB6 JUMPI PUSH1 0x40 MLOAD PUSH32 0x7FCDD1F400000000000000000000000000000000000000000000000000000000 DUP2 MSTORE PUSH1 0x4 ADD PUSH1 0x40 MLOAD DUP1 SWAP2 SUB SWAP1 REVERT JUMPDEST POP SWAP3 SWAP2 POP POP JUMP JUMPDEST PUSH0 PUSH2 0x1DE8 DUP3 PUSH32 0x30644E72E131A029B85045B68181585D97816A916871CA8D3C208C16D87CFD45 PUSH2 0x1D26 JUMP JUMPDEST SWAP1 POP PUSH1 0x1 PUSH32 0x30644E72E131A029B85045B68181585D97816A916871CA8D3C208C16D87CFD47 DUP1 PUSH2 0x1E1B JUMPI PUSH2 0x1E1A PUSH2 0x20CA JUMP JUMPDEST JUMPDEST DUP3 DUP5 MULMOD EQ PUSH2 0x1E55 JUMPI PUSH1 0x40 MLOAD PUSH32 0x7FCDD1F400000000000000000000000000000000000000000000000000000000 DUP2 MSTORE PUSH1 0x4 ADD PUSH1 0x40 MLOAD DUP1 SWAP2 SUB SWAP1 REVERT JUMPDEST SWAP2 SWAP1 POP JUMP JUMPDEST PUSH1 0x40 MLOAD DUP1 PUSH1 0x80 ADD PUSH1 0x40 MSTORE DUP1 PUSH1 0x4 SWAP1 PUSH1 0x20 DUP3 MUL DUP1 CALLDATASIZE DUP4 CALLDATACOPY DUP1 DUP3 ADD SWAP2 POP POP SWAP1 POP POP SWAP1 JUMP JUMPDEST PUSH1 0x40 MLOAD DUP1 PUSH2 0x300 ADD PUSH1 0x40 MSTORE DUP1 PUSH1 0x18 SWAP1 PUSH1 0x20 DUP3 MUL DUP1 CALLDATASIZE DUP4 CALLDATACOPY DUP1 DUP3 ADD SWAP2 POP POP SWAP1 POP POP SWAP1 JUMP JUMPDEST PUSH1 0x40 MLOAD DUP1 PUSH1 0x20 ADD PUSH1 0x40 MSTORE DUP1 PUSH1 0x1 SWAP1 PUSH1 0x20 DUP3 MUL DUP1 CALLDATASIZE DUP4 CALLDATACOPY DUP1 DUP3 ADD SWAP2 POP POP SWAP1 POP POP SWAP1 JUMP JUMPDEST PUSH0 PUSH0 REVERT JUMPDEST PUSH0 PUSH0 REVERT JUMPDEST PUSH0 DUP2 SWAP1 POP DUP3 PUSH1 0x20 PUSH1 0x8 MUL DUP3 ADD GT ISZERO PUSH2 0x1EE4 JUMPI PUSH2 0x1EE3 PUSH2 0x1EC5 JUMP JUMPDEST JUMPDEST SWAP3 SWAP2 POP POP JUMP JUMPDEST PUSH0 PUSH2 0x100 DUP3 DUP5 SUB SLT ISZERO PUSH2 0x1F00 JUMPI PUSH2 0x1EFF PUSH2 0x1EC1 JUMP JUMPDEST JUMPDEST PUSH0 PUSH2 0x1F0D DUP5 DUP3 DUP6 ADD PUSH2 0x1EC9 JUMP JUMPDEST SWAP2 POP POP SWAP3 SWAP2 POP POP JUMP JUMPDEST PUSH0 PUSH1 0x4 SWAP1 POP SWAP2 SWAP1 POP JUMP JUMPDEST PUSH0 DUP2 SWAP1 POP SWAP3 SWAP2 POP POP JUMP JUMPDEST PUSH0 DUP2 SWAP1 POP SWAP2 SWAP1 POP JUMP JUMPDEST PUSH0 DUP2 SWAP1 POP SWAP2 SWAP1 POP JUMP JUMPDEST PUSH2 0x1F45 DUP2 PUSH2 0x1F33 JUMP JUMPDEST DUP3 MSTORE POP POP JUMP JUMPDEST PUSH0 PUSH2 0x1F56 DUP4 DUP4 PUSH2 0x1F3C JUMP JUMPDEST PUSH1 0x20 DUP4 ADD SWAP1 POP SWAP3 SWAP2 POP POP JUMP JUMPDEST PUSH0 PUSH1 0x20 DUP3 ADD SWAP1 POP SWAP2 SWAP1 POP JUMP JUMPDEST PUSH2 0x1F77 DUP2 PUSH2 0x1F16 JUMP JUMPDEST PUSH2 0x1F81 DUP2 DUP5 PUSH2 0x1F20 JUMP JUMPDEST SWAP3 POP PUSH2 0x1F8C DUP3 PUSH2 0x1F2A JUMP JUMPDEST DUP1 PUSH0 JUMPDEST DUP4 DUP2 LT ISZERO PUSH2 0x1FBC JUMPI DUP2 MLOAD PUSH2 0x1FA3 DUP8 DUP3 PUSH2 0x1F4B JUMP JUMPDEST SWAP7 POP PUSH2 0x1FAE DUP4 PUSH2 0x1F62 JUMP JUMPDEST SWAP3 POP POP PUSH1 0x1 DUP2 ADD SWAP1 POP PUSH2 0x1F8F JUMP JUMPDEST POP POP POP POP POP POP JUMP JUMPDEST PUSH0 PUSH1 0x80 DUP3 ADD SWAP1 POP PUSH2 0x1FD7 PUSH0 DUP4 ADD DUP5 PUSH2 0x1F6E JUMP JUMPDEST SWAP3 SWAP2 POP POP JUMP JUMPDEST PUSH0 DUP2 SWAP1 POP DUP3 PUSH1 0x20 PUSH1 0x2 MUL DUP3 ADD GT ISZERO PUSH2 0x1FF8 JUMPI PUSH2 0x1FF7 PUSH2 0x1EC5 JUMP JUMPDEST JUMPDEST SWAP3 SWAP2 POP POP JUMP JUMPDEST PUSH0 PUSH0 PUSH2 0x140 DUP4 DUP6 SUB SLT ISZERO PUSH2 0x2015 JUMPI PUSH2 0x2014 PUSH2 0x1EC1 JUMP JUMPDEST JUMPDEST PUSH0 PUSH2 0x2022 DUP6 DUP3 DUP7 ADD PUSH2 0x1EC9 JUMP JUMPDEST SWAP3 POP POP PUSH2 0x100 PUSH2 0x2034 DUP6 DUP3 DUP7 ADD PUSH2 0x1FDD JUMP JUMPDEST SWAP2 POP POP SWAP3 POP SWAP3 SWAP1 POP JUMP JUMPDEST PUSH0 DUP2 SWAP1 POP DUP3 PUSH1 0x20 PUSH1 0x4 MUL DUP3 ADD GT ISZERO PUSH2 0x2059 JUMPI PUSH2 0x2058 PUSH2 0x1EC5 JUMP JUMPDEST JUMPDEST SWAP3 SWAP2 POP POP JUMP JUMPDEST PUSH0 PUSH0 PUSH1 0xC0 DUP4 DUP6 SUB SLT ISZERO PUSH2 0x2075 JUMPI PUSH2 0x2074 PUSH2 0x1EC1 JUMP JUMPDEST JUMPDEST PUSH0 PUSH2 0x2082 DUP6 DUP3 DUP7 ADD PUSH2 0x203E JUMP JUMPDEST SWAP3 POP POP PUSH1 0x80 PUSH2 0x2093 DUP6 DUP3 DUP7 ADD PUSH2 0x1FDD JUMP JUMPDEST SWAP2 POP POP SWAP3 POP SWAP3 SWAP1 POP JUMP JUMPDEST PUSH32 0x4E487B7100000000000000000000000000000000000000000000000000000000 PUSH0 MSTORE PUSH1 0x32 PUSH1 0x4 MSTORE PUSH1 0x24 PUSH0 REVERT JUMPDEST PUSH32 0x4E487B7100000000000000000000000000000000000000000000000000000000 PUSH0 MSTORE PUSH1 0x12 PUSH1 0x4 MSTORE PUSH1 0x24 PUSH0 REVERT JUMPDEST PUSH32 0x4E487B7100000000000000000000000000000000000000000000000000000000 PUSH0 MSTORE PUSH1 0x11 PUSH1 0x4 MSTORE PUSH1 0x24 PUSH0 REVERT JUMPDEST PUSH0 PUSH2 0x212E DUP3 PUSH2 0x1F33 JUMP JUMPDEST SWAP2 POP PUSH2 0x2139 DUP4 PUSH2 0x1F33 JUMP JUMPDEST SWAP3 POP DUP3 DUP3 SUB SWAP1 POP DUP2 DUP2 GT ISZERO PUSH2 0x2151 JUMPI PUSH2 0x2150 PUSH2 0x20F7 JUMP JUMPDEST JUMPDEST SWAP3 SWAP2 POP POP JUMP INVALID LOG2 PUSH5 0x6970667358 0x22 SLT KECCAK256 SLOAD SUB PREVRANDAO MULMOD JUMP PUSH0 RETURNDATACOPY PUSH23 0xAEB2B38E204F5AB219909123E3D066FB1CC7D659C1A6B2 LT PUSH5 0x736F6C6343 STOP ADDMOD 0x1E STOP CALLER "
				},
				"gasEstimates": {
					"creation": {
						"codeDepositCost": "1717800",
						"executionCost": "1804",
						"totalCost": "1719604"
					},
					"external": {
						"Verify(uint256[8],uint256[2])": "infinite",
						"compressProof(uint256[8])": "infinite",
						"verifyCompressedProof(uint256[4],uint256[2])": "infinite"
					},
					"internal": {
						"compress_g1(uint256,uint256)": "infinite",
						"compress_g2(uint256,uint256,uint256,uint256)": "infinite",
						"decompress_g1(uint256)": "infinite",
						"decompress_g2(uint256,uint256)": "infinite",
						"exp(uint256,uint256)": "infinite",
						"invert_Fp(uint256)": "infinite",
						"isSquare_Fp(uint256)": "infinite",
						"negate(uint256)": "83",
						"publicInputMSM(uint256[2] calldata)": "infinite",
						"sqrt_Fp(uint256)": "infinite",
						"sqrt_Fp2(uint256,uint256,bool)": "infinite"
					}
				},
				"methodIdentifiers": {
					"Verify(uint256[8],uint256[2])": "eddf243c",
					"compressProof(uint256[8])": "44f63692",
					"verifyCompressedProof(uint256[4],uint256[2])": "f11817b2"
				}
			},
			"storageLayout": {
				"storage": [],
				"types": null
			},
			"userdoc": {
				"errors": {
					"ProofInvalid()": [
						{
							"notice": "The proof is invalid."
						}
					],
					"PublicInputNotInField()": [
						{
							"notice": "Some of the provided public input values are larger than the field modulus."
						}
					]
				},
				"kind": "user",
				"methods": {
					"Verify(uint256[8],uint256[2])": {
						"notice": "Verify an uncompressed Groth16 proof.Reverts with InvalidProof if the proof is invalid or with PublicInputNotInField the public input is not reduced.There is no return value. If the function does not revert, the proof was successfully verified."
					},
					"compressProof(uint256[8])": {
						"notice": "Compress a proof.Will revert with InvalidProof if the curve points are invalid, but does not verify the proof itself."
					},
					"verifyCompressedProof(uint256[4],uint256[2])": {
						"notice": "Verify a Groth16 proof with compressed points.Reverts with InvalidProof if the proof is invalid or with PublicInputNotInField the public input is not reduced.There is no return value. If the function does not revert, the proof was successfully verified."
					}
				},
				"notice": "Supports verifying Groth16 proofs. Proofs can be in uncompressed (256 bytes) and compressed (128 bytes) format. A view function is provided to compress proofs.See <https://2π.com/23/bn254-compression> for further explanation.",
				"version": 1
			}
		}
	}
}