{
	".deps/github/succinctlabs/sp1-contracts/contracts/src/v5.0.0/SP1VerifierGroth16.sol": {
		"SP1Verifier": {
			"abi": [
				{
					"inputs": [],
					"name": "InvalidProof",
					"type": "error"
				},
				{
					"inputs": [],
					"name": "ProofInvalid",
					"type": "error"
				},
				{
					"inputs": [],
					"name": "PublicInputNotInField",
					"type": "error"
				},
				{
					"inputs": [
						{
							"internalType": "bytes4",
							"name": "received",
							"type": "bytes4"
						},
						{
							"internalType": "bytes4",
							"name": "expected",
							"type": "bytes4"
						}
					],
					"name": "WrongVerifierSelector",
					"type": "error"
				},
				{
					"inputs": [],
					"name": "VERIFIER_HASH",
					"outputs": [
						{
							"internalType": "bytes32",
							"name": "",
							"type": "bytes32"
						}
					],
					"stateMutability": "pure",
					"type": "function"
				},
				{
					"inputs": [],
					"name": "VERSION",
					"outputs": [
						{
							"internalType": "string",
							"name": "",
							"type": "string"
						}
					],
					"stateMutability": "pure",
					"type": "function"
				},
				{
					"inputs": [
						{
							"internalType": "uint256[8]",
							"name": "proof",
							"type": "uint256[8]"
						},
						{
							"internalType": "uint256[2]",
							"name": "input",
							"type": "uint256[2]"
						}
					],
					"name": "Verify",
					"outputs": [],
					"stateMutability": "view",
					"type": "function"
				},
				{
					"inputs": [
						{
							"internalType": "uint256[8]",
							"name": "proof",
							"type": "uint256[8]"
						}
					],
					"name": "compressProof",
					"outputs": [
						{
							"internalType": "uint256[4]",
							"name": "compressed",
							"type": "uint256[4]"
						}
					],
					"stateMutability": "view",
					"type": "function"
				},
				{
					"inputs": [
						{
							"internalType": "bytes",
							"name": "publicValues",
							"type": "bytes"
						}
					],
					"name": "hashPublicValues",
					"outputs": [
						{
							"internalType": "bytes32",
							"name": "",
							"type": "bytes32"
						}
					],
					"stateMutability": "pure",
					"type": "function"
				},
				{
					"inputs": [
						{
							"internalType": "uint256[4]",
							"name": "compressedProof",
							"type": "uint256[4]"
						},
						{
							"internalType": "uint256[2]",
							"name": "input",
							"type": "uint256[2]"
						}
					],
					"name": "verifyCompressedProof",
					"outputs": [],
					"stateMutability": "view",
					"type": "function"
				},
				{
					"inputs": [
						{
							"internalType": "bytes32",
							"name": "programVKey",
							"type": "bytes32"
						},
						{
							"internalType": "bytes",
							"name": "publicValues",
							"type": "bytes"
						},
						{
							"internalType": "bytes",
							"name": "proofBytes",
							"type": "bytes"
						}
					],
					"name": "verifyProof",
					"outputs": [],
					"stateMutability": "view",
					"type": "function"
				}
			],
			"devdoc": {
				"author": "Succinct Labs",
				"errors": {
					"ProofInvalid()": [
						{
							"details": "This can mean that provided Groth16 proof points are not on their curves, that pairing equation fails, or that the proof is not for the provided public input."
						}
					],
					"PublicInputNotInField()": [
						{
							"details": "Public input elements are not automatically reduced, as this is can be a dangerous source of bugs."
						}
					],
					"WrongVerifierSelector(bytes4,bytes4)": [
						{
							"params": {
								"expected": "The verifier selector from the first 4 bytes of the VERIFIER_HASH().",
								"received": "The verifier selector from the first 4 bytes of the proof."
							}
						}
					]
				},
				"kind": "dev",
				"methods": {
					"Verify(uint256[8],uint256[2])": {
						"params": {
							"input": "the public input field elements in the scalar field Fr. Elements must be reduced.",
							"proof": "the points (A, B, C) in EIP-197 format matching the output of compressProof."
						}
					},
					"compressProof(uint256[8])": {
						"params": {
							"proof": "The uncompressed Groth16 proof. Elements are in the same order as for verifyProof. I.e. Groth16 points (A, B, C) encoded as in EIP-197."
						},
						"returns": {
							"compressed": "The compressed proof. Elements are in the same order as for verifyCompressedProof. I.e. points (A, B, C) in compressed format."
						}
					},
					"hashPublicValues(bytes)": {
						"params": {
							"publicValues": "The public values."
						}
					},
					"verifyCompressedProof(uint256[4],uint256[2])": {
						"params": {
							"compressedProof": "the points (A, B, C) in compressed format matching the output of compressProof.",
							"input": "the public input field elements in the scalar field Fr. Elements must be reduced."
						}
					},
					"verifyProof(bytes32,bytes,bytes)": {
						"params": {
							"programVKey": "The verification key for the RISC-V program.",
							"proofBytes": "The proof of the program execution the SP1 zkVM encoded as bytes.",
							"publicValues": "The public values encoded as bytes."
						}
					}
				},
				"title": "SP1 Verifier",
				"version": 1
			},
			"evm": {
				"assembly": "    /* \".deps/github/succinctlabs/sp1-contracts/contracts/src/v5.0.0/SP1VerifierGroth16.sol\":303:2474  contract SP1Verifier is Groth16Verifier, ISP1VerifierWithHash {... */\n  mstore(0x40, 0x80)\n  callvalue\n  dup1\n  iszero\n  tag_1\n  jumpi\n  revert(0x00, 0x00)\ntag_1:\n  pop\n  dataSize(sub_0)\n  dup1\n  dataOffset(sub_0)\n  0x00\n  codecopy\n  0x00\n  return\nstop\n\nsub_0: assembly {\n        /* \".deps/github/succinctlabs/sp1-contracts/contracts/src/v5.0.0/SP1VerifierGroth16.sol\":303:2474  contract SP1Verifier is Groth16Verifier, ISP1VerifierWithHash {... */\n      mstore(0x40, 0x80)\n      callvalue\n      dup1\n      iszero\n      tag_1\n      jumpi\n      revert(0x00, 0x00)\n    tag_1:\n      pop\n      jumpi(tag_2, lt(calldatasize, 0x04))\n      shr(0xe0, calldataload(0x00))\n      dup1\n      0x6b61d8e7\n      gt\n      tag_10\n      jumpi\n      dup1\n      0x6b61d8e7\n      eq\n      tag_6\n      jumpi\n      dup1\n      0xeddf243c\n      eq\n      tag_7\n      jumpi\n      dup1\n      0xf11817b2\n      eq\n      tag_8\n      jumpi\n      dup1\n      0xffa1ad74\n      eq\n      tag_9\n      jumpi\n      jump(tag_2)\n    tag_10:\n      dup1\n      0x2a510436\n      eq\n      tag_3\n      jumpi\n      dup1\n      0x41493c60\n      eq\n      tag_4\n      jumpi\n      dup1\n      0x44f63692\n      eq\n      tag_5\n      jumpi\n    tag_2:\n      revert(0x00, 0x00)\n        /* \".deps/github/succinctlabs/sp1-contracts/contracts/src/v5.0.0/SP1VerifierGroth16.sol\":1006:1151  function VERIFIER_HASH() public pure returns (bytes32) {... */\n    tag_3:\n      tag_11\n      tag_12\n      jump\t// in\n    tag_11:\n      mload(0x40)\n      tag_13\n      swap2\n      swap1\n      tag_14\n      jump\t// in\n    tag_13:\n      mload(0x40)\n      dup1\n      swap2\n      sub\n      swap1\n      return\n        /* \".deps/github/succinctlabs/sp1-contracts/contracts/src/v5.0.0/SP1VerifierGroth16.sol\":1759:2472  function verifyProof(... */\n    tag_4:\n      tag_15\n      0x04\n      dup1\n      calldatasize\n      sub\n      dup2\n      add\n      swap1\n      tag_16\n      swap2\n      swap1\n      tag_17\n      jump\t// in\n    tag_16:\n      tag_18\n      jump\t// in\n    tag_15:\n      stop\n        /* \".deps/github/succinctlabs/sp1-contracts/contracts/src/v5.0.0/Groth16Verifier.sol\":19207:19527  function compressProof(uint256[8] calldata proof)... */\n    tag_5:\n      tag_19\n      0x04\n      dup1\n      calldatasize\n      sub\n      dup2\n      add\n      swap1\n      tag_20\n      swap2\n      swap1\n      tag_21\n      jump\t// in\n    tag_20:\n      tag_22\n      jump\t// in\n    tag_19:\n      mload(0x40)\n      tag_23\n      swap2\n      swap1\n      tag_24\n      jump\t// in\n    tag_23:\n      mload(0x40)\n      dup1\n      swap2\n      sub\n      swap1\n      return\n        /* \".deps/github/succinctlabs/sp1-contracts/contracts/src/v5.0.0/SP1VerifierGroth16.sol\":1279:1457  function hashPublicValues(... */\n    tag_6:\n      tag_25\n      0x04\n      dup1\n      calldatasize\n      sub\n      dup2\n      add\n      swap1\n      tag_26\n      swap2\n      swap1\n      tag_27\n      jump\t// in\n    tag_26:\n      tag_28\n      jump\t// in\n    tag_25:\n      mload(0x40)\n      tag_29\n      swap2\n      swap1\n      tag_14\n      jump\t// in\n    tag_29:\n      mload(0x40)\n      dup1\n      swap2\n      sub\n      swap1\n      return\n        /* \".deps/github/succinctlabs/sp1-contracts/contracts/src/v5.0.0/Groth16Verifier.sol\":22847:24969  function Verify(... */\n    tag_7:\n      tag_30\n      0x04\n      dup1\n      calldatasize\n      sub\n      dup2\n      add\n      swap1\n      tag_31\n      swap2\n      swap1\n      tag_32\n      jump\t// in\n    tag_31:\n      tag_33\n      jump\t// in\n    tag_30:\n      stop\n        /* \".deps/github/succinctlabs/sp1-contracts/contracts/src/v5.0.0/Groth16Verifier.sol\":20075:22321  function verifyCompressedProof(... */\n    tag_8:\n      tag_34\n      0x04\n      dup1\n      calldatasize\n      sub\n      dup2\n      add\n      swap1\n      tag_35\n      swap2\n      swap1\n      tag_36\n      jump\t// in\n    tag_35:\n      tag_37\n      jump\t// in\n    tag_34:\n      stop\n        /* \".deps/github/succinctlabs/sp1-contracts/contracts/src/v5.0.0/SP1VerifierGroth16.sol\":870:959  function VERSION() external pure returns (string memory) {... */\n    tag_9:\n      tag_38\n      tag_39\n      jump\t// in\n    tag_38:\n      mload(0x40)\n      tag_40\n      swap2\n      swap1\n      tag_41\n      jump\t// in\n    tag_40:\n      mload(0x40)\n      dup1\n      swap2\n      sub\n      swap1\n      return\n        /* \".deps/github/succinctlabs/sp1-contracts/contracts/src/v5.0.0/SP1VerifierGroth16.sol\":1006:1151  function VERIFIER_HASH() public pure returns (bytes32) {... */\n    tag_12:\n        /* \".deps/github/succinctlabs/sp1-contracts/contracts/src/v5.0.0/SP1VerifierGroth16.sol\":1052:1059  bytes32 */\n      0x00\n        /* \".deps/github/succinctlabs/sp1-contracts/contracts/src/v5.0.0/SP1VerifierGroth16.sol\":1078:1144  0xa4594c59bbc142f3b81c3ecb7f50a7c34bc9af7c4c444b5d48b795427e285913 */\n      0xa4594c59bbc142f3b81c3ecb7f50a7c34bc9af7c4c444b5d48b795427e285913\n        /* \".deps/github/succinctlabs/sp1-contracts/contracts/src/v5.0.0/SP1VerifierGroth16.sol\":1071:1144  return 0xa4594c59bbc142f3b81c3ecb7f50a7c34bc9af7c4c444b5d48b795427e285913 */\n      0x00\n      shl\n      swap1\n      pop\n        /* \".deps/github/succinctlabs/sp1-contracts/contracts/src/v5.0.0/SP1VerifierGroth16.sol\":1006:1151  function VERIFIER_HASH() public pure returns (bytes32) {... */\n      swap1\n      jump\t// out\n        /* \".deps/github/succinctlabs/sp1-contracts/contracts/src/v5.0.0/SP1VerifierGroth16.sol\":1759:2472  function verifyProof(... */\n    tag_18:\n        /* \".deps/github/succinctlabs/sp1-contracts/contracts/src/v5.0.0/SP1VerifierGroth16.sol\":1911:1934  bytes4 receivedSelector */\n      0x00\n        /* \".deps/github/succinctlabs/sp1-contracts/contracts/src/v5.0.0/SP1VerifierGroth16.sol\":1944:1954  proofBytes */\n      dup3\n      dup3\n        /* \".deps/github/succinctlabs/sp1-contracts/contracts/src/v5.0.0/SP1VerifierGroth16.sol\":1944:1958  proofBytes[:4] */\n      0x00\n      swap1\n        /* \".deps/github/succinctlabs/sp1-contracts/contracts/src/v5.0.0/SP1VerifierGroth16.sol\":1956:1957  4 */\n      0x04\n        /* \".deps/github/succinctlabs/sp1-contracts/contracts/src/v5.0.0/SP1VerifierGroth16.sol\":1944:1958  proofBytes[:4] */\n      swap3\n      tag_44\n      swap4\n      swap3\n      swap2\n      swap1\n      tag_45\n      jump\t// in\n    tag_44:\n        /* \".deps/github/succinctlabs/sp1-contracts/contracts/src/v5.0.0/SP1VerifierGroth16.sol\":1937:1959  bytes4(proofBytes[:4]) */\n      swap1\n      tag_46\n      swap2\n      swap1\n      tag_47\n      jump\t// in\n    tag_46:\n        /* \".deps/github/succinctlabs/sp1-contracts/contracts/src/v5.0.0/SP1VerifierGroth16.sol\":1911:1959  bytes4 receivedSelector = bytes4(proofBytes[:4]) */\n      swap1\n      pop\n        /* \".deps/github/succinctlabs/sp1-contracts/contracts/src/v5.0.0/SP1VerifierGroth16.sol\":1969:1992  bytes4 expectedSelector */\n      0x00\n        /* \".deps/github/succinctlabs/sp1-contracts/contracts/src/v5.0.0/SP1VerifierGroth16.sol\":2002:2017  VERIFIER_HASH() */\n      tag_48\n        /* \".deps/github/succinctlabs/sp1-contracts/contracts/src/v5.0.0/SP1VerifierGroth16.sol\":2002:2015  VERIFIER_HASH */\n      tag_12\n        /* \".deps/github/succinctlabs/sp1-contracts/contracts/src/v5.0.0/SP1VerifierGroth16.sol\":2002:2017  VERIFIER_HASH() */\n      jump\t// in\n    tag_48:\n        /* \".deps/github/succinctlabs/sp1-contracts/contracts/src/v5.0.0/SP1VerifierGroth16.sol\":1969:2018  bytes4 expectedSelector = bytes4(VERIFIER_HASH()) */\n      swap1\n      pop\n        /* \".deps/github/succinctlabs/sp1-contracts/contracts/src/v5.0.0/SP1VerifierGroth16.sol\":2052:2068  expectedSelector */\n      dup1\n        /* \".deps/github/succinctlabs/sp1-contracts/contracts/src/v5.0.0/SP1VerifierGroth16.sol\":2032:2068  receivedSelector != expectedSelector */\n      not(0xffffffffffffffffffffffffffffffffffffffffffffffffffffffff)\n      and\n        /* \".deps/github/succinctlabs/sp1-contracts/contracts/src/v5.0.0/SP1VerifierGroth16.sol\":2032:2048  receivedSelector */\n      dup3\n        /* \".deps/github/succinctlabs/sp1-contracts/contracts/src/v5.0.0/SP1VerifierGroth16.sol\":2032:2068  receivedSelector != expectedSelector */\n      not(0xffffffffffffffffffffffffffffffffffffffffffffffffffffffff)\n      and\n      eq\n        /* \".deps/github/succinctlabs/sp1-contracts/contracts/src/v5.0.0/SP1VerifierGroth16.sol\":2028:2159  if (receivedSelector != expectedSelector) {... */\n      tag_49\n      jumpi\n        /* \".deps/github/succinctlabs/sp1-contracts/contracts/src/v5.0.0/SP1VerifierGroth16.sol\":2113:2129  receivedSelector */\n      dup2\n        /* \".deps/github/succinctlabs/sp1-contracts/contracts/src/v5.0.0/SP1VerifierGroth16.sol\":2131:2147  expectedSelector */\n      dup2\n        /* \".deps/github/succinctlabs/sp1-contracts/contracts/src/v5.0.0/SP1VerifierGroth16.sol\":2091:2148  WrongVerifierSelector(receivedSelector, expectedSelector) */\n      mload(0x40)\n      0x988066a100000000000000000000000000000000000000000000000000000000\n      dup2\n      mstore\n      0x04\n      add\n      tag_50\n      swap3\n      swap2\n      swap1\n      tag_51\n      jump\t// in\n    tag_50:\n      mload(0x40)\n      dup1\n      swap2\n      sub\n      swap1\n      revert\n        /* \".deps/github/succinctlabs/sp1-contracts/contracts/src/v5.0.0/SP1VerifierGroth16.sol\":2028:2159  if (receivedSelector != expectedSelector) {... */\n    tag_49:\n        /* \".deps/github/succinctlabs/sp1-contracts/contracts/src/v5.0.0/SP1VerifierGroth16.sol\":2169:2195  bytes32 publicValuesDigest */\n      0x00\n        /* \".deps/github/succinctlabs/sp1-contracts/contracts/src/v5.0.0/SP1VerifierGroth16.sol\":2198:2228  hashPublicValues(publicValues) */\n      tag_52\n        /* \".deps/github/succinctlabs/sp1-contracts/contracts/src/v5.0.0/SP1VerifierGroth16.sol\":2215:2227  publicValues */\n      dup8\n      dup8\n        /* \".deps/github/succinctlabs/sp1-contracts/contracts/src/v5.0.0/SP1VerifierGroth16.sol\":2198:2214  hashPublicValues */\n      tag_28\n        /* \".deps/github/succinctlabs/sp1-contracts/contracts/src/v5.0.0/SP1VerifierGroth16.sol\":2198:2228  hashPublicValues(publicValues) */\n      jump\t// in\n    tag_52:\n        /* \".deps/github/succinctlabs/sp1-contracts/contracts/src/v5.0.0/SP1VerifierGroth16.sol\":2169:2228  bytes32 publicValuesDigest = hashPublicValues(publicValues) */\n      swap1\n      pop\n        /* \".deps/github/succinctlabs/sp1-contracts/contracts/src/v5.0.0/SP1VerifierGroth16.sol\":2238:2262  uint256[2] memory inputs */\n      tag_53\n      tag_54\n      jump\t// in\n    tag_53:\n        /* \".deps/github/succinctlabs/sp1-contracts/contracts/src/v5.0.0/SP1VerifierGroth16.sol\":2292:2303  programVKey */\n      dup9\n        /* \".deps/github/succinctlabs/sp1-contracts/contracts/src/v5.0.0/SP1VerifierGroth16.sol\":2284:2304  uint256(programVKey) */\n      0x00\n      shr\n        /* \".deps/github/succinctlabs/sp1-contracts/contracts/src/v5.0.0/SP1VerifierGroth16.sol\":2272:2278  inputs */\n      dup2\n        /* \".deps/github/succinctlabs/sp1-contracts/contracts/src/v5.0.0/SP1VerifierGroth16.sol\":2279:2280  0 */\n      0x00\n        /* \".deps/github/succinctlabs/sp1-contracts/contracts/src/v5.0.0/SP1VerifierGroth16.sol\":2272:2281  inputs[0] */\n      0x02\n      dup2\n      lt\n      tag_55\n      jumpi\n      tag_56\n      tag_57\n      jump\t// in\n    tag_56:\n    tag_55:\n      0x20\n      mul\n      add\n        /* \".deps/github/succinctlabs/sp1-contracts/contracts/src/v5.0.0/SP1VerifierGroth16.sol\":2272:2304  inputs[0] = uint256(programVKey) */\n      dup2\n      dup2\n      mstore\n      pop\n      pop\n        /* \".deps/github/succinctlabs/sp1-contracts/contracts/src/v5.0.0/SP1VerifierGroth16.sol\":2334:2352  publicValuesDigest */\n      dup2\n        /* \".deps/github/succinctlabs/sp1-contracts/contracts/src/v5.0.0/SP1VerifierGroth16.sol\":2326:2353  uint256(publicValuesDigest) */\n      0x00\n      shr\n        /* \".deps/github/succinctlabs/sp1-contracts/contracts/src/v5.0.0/SP1VerifierGroth16.sol\":2314:2320  inputs */\n      dup2\n        /* \".deps/github/succinctlabs/sp1-contracts/contracts/src/v5.0.0/SP1VerifierGroth16.sol\":2321:2322  1 */\n      0x01\n        /* \".deps/github/succinctlabs/sp1-contracts/contracts/src/v5.0.0/SP1VerifierGroth16.sol\":2314:2323  inputs[1] */\n      0x02\n      dup2\n      lt\n      tag_58\n      jumpi\n      tag_59\n      tag_57\n      jump\t// in\n    tag_59:\n    tag_58:\n      0x20\n      mul\n      add\n        /* \".deps/github/succinctlabs/sp1-contracts/contracts/src/v5.0.0/SP1VerifierGroth16.sol\":2314:2353  inputs[1] = uint256(publicValuesDigest) */\n      dup2\n      dup2\n      mstore\n      pop\n      pop\n        /* \".deps/github/succinctlabs/sp1-contracts/contracts/src/v5.0.0/SP1VerifierGroth16.sol\":2363:2386  uint256[8] memory proof */\n      0x00\n        /* \".deps/github/succinctlabs/sp1-contracts/contracts/src/v5.0.0/SP1VerifierGroth16.sol\":2400:2410  proofBytes */\n      dup7\n      dup7\n        /* \".deps/github/succinctlabs/sp1-contracts/contracts/src/v5.0.0/SP1VerifierGroth16.sol\":2411:2412  4 */\n      0x04\n        /* \".deps/github/succinctlabs/sp1-contracts/contracts/src/v5.0.0/SP1VerifierGroth16.sol\":2400:2414  proofBytes[4:] */\n      swap1\n      dup1\n      swap3\n      tag_60\n      swap4\n      swap3\n      swap2\n      swap1\n      tag_45\n      jump\t// in\n    tag_60:\n        /* \".deps/github/succinctlabs/sp1-contracts/contracts/src/v5.0.0/SP1VerifierGroth16.sol\":2389:2429  abi.decode(proofBytes[4:], (uint256[8])) */\n      dup2\n      add\n      swap1\n      tag_61\n      swap2\n      swap1\n      tag_62\n      jump\t// in\n    tag_61:\n        /* \".deps/github/succinctlabs/sp1-contracts/contracts/src/v5.0.0/SP1VerifierGroth16.sol\":2363:2429  uint256[8] memory proof = abi.decode(proofBytes[4:], (uint256[8])) */\n      swap1\n      pop\n        /* \".deps/github/succinctlabs/sp1-contracts/contracts/src/v5.0.0/SP1VerifierGroth16.sol\":2439:2443  this */\n      address\n        /* \".deps/github/succinctlabs/sp1-contracts/contracts/src/v5.0.0/SP1VerifierGroth16.sol\":2439:2450  this.Verify */\n      0xffffffffffffffffffffffffffffffffffffffff\n      and\n      0xeddf243c\n        /* \".deps/github/succinctlabs/sp1-contracts/contracts/src/v5.0.0/SP1VerifierGroth16.sol\":2451:2456  proof */\n      dup3\n        /* \".deps/github/succinctlabs/sp1-contracts/contracts/src/v5.0.0/SP1VerifierGroth16.sol\":2458:2464  inputs */\n      dup5\n        /* \".deps/github/succinctlabs/sp1-contracts/contracts/src/v5.0.0/SP1VerifierGroth16.sol\":2439:2465  this.Verify(proof, inputs) */\n      mload(0x40)\n      dup4\n      0xffffffff\n      and\n      0xe0\n      shl\n      dup2\n      mstore\n      0x04\n      add\n      tag_63\n      swap3\n      swap2\n      swap1\n      tag_64\n      jump\t// in\n    tag_63:\n      0x00\n      mload(0x40)\n      dup1\n      dup4\n      sub\n      dup2\n      dup7\n      dup1\n      extcodesize\n      iszero\n      dup1\n      iszero\n      tag_65\n      jumpi\n      revert(0x00, 0x00)\n    tag_65:\n      pop\n      gas\n      staticcall\n      iszero\n      dup1\n      iszero\n      tag_67\n      jumpi\n      returndatacopy(0x00, 0x00, returndatasize)\n      revert(0x00, returndatasize)\n    tag_67:\n      pop\n      pop\n      pop\n      pop\n        /* \".deps/github/succinctlabs/sp1-contracts/contracts/src/v5.0.0/SP1VerifierGroth16.sol\":1901:2472  {... */\n      pop\n      pop\n      pop\n      pop\n      pop\n        /* \".deps/github/succinctlabs/sp1-contracts/contracts/src/v5.0.0/SP1VerifierGroth16.sol\":1759:2472  function verifyProof(... */\n      pop\n      pop\n      pop\n      pop\n      pop\n      jump\t// out\n        /* \".deps/github/succinctlabs/sp1-contracts/contracts/src/v5.0.0/Groth16Verifier.sol\":19207:19527  function compressProof(uint256[8] calldata proof)... */\n    tag_22:\n        /* \".deps/github/succinctlabs/sp1-contracts/contracts/src/v5.0.0/Groth16Verifier.sol\":19282:19310  uint256[4] memory compressed */\n      tag_68\n      tag_69\n      jump\t// in\n    tag_68:\n        /* \".deps/github/succinctlabs/sp1-contracts/contracts/src/v5.0.0/Groth16Verifier.sol\":19338:19369  compress_g1(proof[0], proof[1]) */\n      tag_71\n        /* \".deps/github/succinctlabs/sp1-contracts/contracts/src/v5.0.0/Groth16Verifier.sol\":19350:19355  proof */\n      dup3\n        /* \".deps/github/succinctlabs/sp1-contracts/contracts/src/v5.0.0/Groth16Verifier.sol\":19356:19357  0 */\n      0x00\n        /* \".deps/github/succinctlabs/sp1-contracts/contracts/src/v5.0.0/Groth16Verifier.sol\":19350:19358  proof[0] */\n      0x08\n      dup2\n      lt\n      tag_72\n      jumpi\n      tag_73\n      tag_57\n      jump\t// in\n    tag_73:\n    tag_72:\n      0x20\n      mul\n      add\n      calldataload\n        /* \".deps/github/succinctlabs/sp1-contracts/contracts/src/v5.0.0/Groth16Verifier.sol\":19360:19365  proof */\n      dup4\n        /* \".deps/github/succinctlabs/sp1-contracts/contracts/src/v5.0.0/Groth16Verifier.sol\":19366:19367  1 */\n      0x01\n        /* \".deps/github/succinctlabs/sp1-contracts/contracts/src/v5.0.0/Groth16Verifier.sol\":19360:19368  proof[1] */\n      0x08\n      dup2\n      lt\n      tag_74\n      jumpi\n      tag_75\n      tag_57\n      jump\t// in\n    tag_75:\n    tag_74:\n      0x20\n      mul\n      add\n      calldataload\n        /* \".deps/github/succinctlabs/sp1-contracts/contracts/src/v5.0.0/Groth16Verifier.sol\":19338:19349  compress_g1 */\n      tag_76\n        /* \".deps/github/succinctlabs/sp1-contracts/contracts/src/v5.0.0/Groth16Verifier.sol\":19338:19369  compress_g1(proof[0], proof[1]) */\n      jump\t// in\n    tag_71:\n        /* \".deps/github/succinctlabs/sp1-contracts/contracts/src/v5.0.0/Groth16Verifier.sol\":19322:19332  compressed */\n      dup2\n        /* \".deps/github/succinctlabs/sp1-contracts/contracts/src/v5.0.0/Groth16Verifier.sol\":19333:19334  0 */\n      0x00\n        /* \".deps/github/succinctlabs/sp1-contracts/contracts/src/v5.0.0/Groth16Verifier.sol\":19322:19335  compressed[0] */\n      0x04\n      dup2\n      lt\n      tag_77\n      jumpi\n      tag_78\n      tag_57\n      jump\t// in\n    tag_78:\n    tag_77:\n      0x20\n      mul\n      add\n        /* \".deps/github/succinctlabs/sp1-contracts/contracts/src/v5.0.0/Groth16Verifier.sol\":19322:19369  compressed[0] = compress_g1(proof[0], proof[1]) */\n      dup2\n      dup2\n      mstore\n      pop\n      pop\n        /* \".deps/github/succinctlabs/sp1-contracts/contracts/src/v5.0.0/Groth16Verifier.sol\":19412:19463  compress_g2(proof[3], proof[2], proof[5], proof[4]) */\n      tag_79\n        /* \".deps/github/succinctlabs/sp1-contracts/contracts/src/v5.0.0/Groth16Verifier.sol\":19424:19429  proof */\n      dup3\n        /* \".deps/github/succinctlabs/sp1-contracts/contracts/src/v5.0.0/Groth16Verifier.sol\":19430:19431  3 */\n      0x03\n        /* \".deps/github/succinctlabs/sp1-contracts/contracts/src/v5.0.0/Groth16Verifier.sol\":19424:19432  proof[3] */\n      0x08\n      dup2\n      lt\n      tag_80\n      jumpi\n      tag_81\n      tag_57\n      jump\t// in\n    tag_81:\n    tag_80:\n      0x20\n      mul\n      add\n      calldataload\n        /* \".deps/github/succinctlabs/sp1-contracts/contracts/src/v5.0.0/Groth16Verifier.sol\":19434:19439  proof */\n      dup4\n        /* \".deps/github/succinctlabs/sp1-contracts/contracts/src/v5.0.0/Groth16Verifier.sol\":19440:19441  2 */\n      0x02\n        /* \".deps/github/succinctlabs/sp1-contracts/contracts/src/v5.0.0/Groth16Verifier.sol\":19434:19442  proof[2] */\n      0x08\n      dup2\n      lt\n      tag_82\n      jumpi\n      tag_83\n      tag_57\n      jump\t// in\n    tag_83:\n    tag_82:\n      0x20\n      mul\n      add\n      calldataload\n        /* \".deps/github/succinctlabs/sp1-contracts/contracts/src/v5.0.0/Groth16Verifier.sol\":19444:19449  proof */\n      dup5\n        /* \".deps/github/succinctlabs/sp1-contracts/contracts/src/v5.0.0/Groth16Verifier.sol\":19450:19451  5 */\n      0x05\n        /* \".deps/github/succinctlabs/sp1-contracts/contracts/src/v5.0.0/Groth16Verifier.sol\":19444:19452  proof[5] */\n      0x08\n      dup2\n      lt\n      tag_84\n      jumpi\n      tag_85\n      tag_57\n      jump\t// in\n    tag_85:\n    tag_84:\n      0x20\n      mul\n      add\n      calldataload\n        /* \".deps/github/succinctlabs/sp1-contracts/contracts/src/v5.0.0/Groth16Verifier.sol\":19454:19459  proof */\n      dup6\n        /* \".deps/github/succinctlabs/sp1-contracts/contracts/src/v5.0.0/Groth16Verifier.sol\":19460:19461  4 */\n      0x04\n        /* \".deps/github/succinctlabs/sp1-contracts/contracts/src/v5.0.0/Groth16Verifier.sol\":19454:19462  proof[4] */\n      0x08\n      dup2\n      lt\n      tag_86\n      jumpi\n      tag_87\n      tag_57\n      jump\t// in\n    tag_87:\n    tag_86:\n      0x20\n      mul\n      add\n      calldataload\n        /* \".deps/github/succinctlabs/sp1-contracts/contracts/src/v5.0.0/Groth16Verifier.sol\":19412:19423  compress_g2 */\n      tag_88\n        /* \".deps/github/succinctlabs/sp1-contracts/contracts/src/v5.0.0/Groth16Verifier.sol\":19412:19463  compress_g2(proof[3], proof[2], proof[5], proof[4]) */\n      jump\t// in\n    tag_79:\n        /* \".deps/github/succinctlabs/sp1-contracts/contracts/src/v5.0.0/Groth16Verifier.sol\":19380:19390  compressed */\n      dup3\n        /* \".deps/github/succinctlabs/sp1-contracts/contracts/src/v5.0.0/Groth16Verifier.sol\":19391:19392  2 */\n      0x02\n        /* \".deps/github/succinctlabs/sp1-contracts/contracts/src/v5.0.0/Groth16Verifier.sol\":19380:19393  compressed[2] */\n      0x04\n      dup2\n      lt\n      tag_89\n      jumpi\n      tag_90\n      tag_57\n      jump\t// in\n    tag_90:\n    tag_89:\n      0x20\n      mul\n      add\n        /* \".deps/github/succinctlabs/sp1-contracts/contracts/src/v5.0.0/Groth16Verifier.sol\":19395:19405  compressed */\n      dup4\n        /* \".deps/github/succinctlabs/sp1-contracts/contracts/src/v5.0.0/Groth16Verifier.sol\":19406:19407  1 */\n      0x01\n        /* \".deps/github/succinctlabs/sp1-contracts/contracts/src/v5.0.0/Groth16Verifier.sol\":19395:19408  compressed[1] */\n      0x04\n      dup2\n      lt\n      tag_91\n      jumpi\n      tag_92\n      tag_57\n      jump\t// in\n    tag_92:\n    tag_91:\n      0x20\n      mul\n      add\n        /* \".deps/github/succinctlabs/sp1-contracts/contracts/src/v5.0.0/Groth16Verifier.sol\":19379:19463  (compressed[2], compressed[1]) = compress_g2(proof[3], proof[2], proof[5], proof[4]) */\n      dup3\n      dup2\n      mstore\n      pop\n      dup3\n      dup2\n      mstore\n      pop\n      pop\n      pop\n        /* \".deps/github/succinctlabs/sp1-contracts/contracts/src/v5.0.0/Groth16Verifier.sol\":19489:19520  compress_g1(proof[6], proof[7]) */\n      tag_93\n        /* \".deps/github/succinctlabs/sp1-contracts/contracts/src/v5.0.0/Groth16Verifier.sol\":19501:19506  proof */\n      dup3\n        /* \".deps/github/succinctlabs/sp1-contracts/contracts/src/v5.0.0/Groth16Verifier.sol\":19507:19508  6 */\n      0x06\n        /* \".deps/github/succinctlabs/sp1-contracts/contracts/src/v5.0.0/Groth16Verifier.sol\":19501:19509  proof[6] */\n      0x08\n      dup2\n      lt\n      tag_94\n      jumpi\n      tag_95\n      tag_57\n      jump\t// in\n    tag_95:\n    tag_94:\n      0x20\n      mul\n      add\n      calldataload\n        /* \".deps/github/succinctlabs/sp1-contracts/contracts/src/v5.0.0/Groth16Verifier.sol\":19511:19516  proof */\n      dup4\n        /* \".deps/github/succinctlabs/sp1-contracts/contracts/src/v5.0.0/Groth16Verifier.sol\":19517:19518  7 */\n      0x07\n        /* \".deps/github/succinctlabs/sp1-contracts/contracts/src/v5.0.0/Groth16Verifier.sol\":19511:19519  proof[7] */\n      0x08\n      dup2\n      lt\n      tag_96\n      jumpi\n      tag_97\n      tag_57\n      jump\t// in\n    tag_97:\n    tag_96:\n      0x20\n      mul\n      add\n      calldataload\n        /* \".deps/github/succinctlabs/sp1-contracts/contracts/src/v5.0.0/Groth16Verifier.sol\":19489:19500  compress_g1 */\n      tag_76\n        /* \".deps/github/succinctlabs/sp1-contracts/contracts/src/v5.0.0/Groth16Verifier.sol\":19489:19520  compress_g1(proof[6], proof[7]) */\n      jump\t// in\n    tag_93:\n        /* \".deps/github/succinctlabs/sp1-contracts/contracts/src/v5.0.0/Groth16Verifier.sol\":19473:19483  compressed */\n      dup2\n        /* \".deps/github/succinctlabs/sp1-contracts/contracts/src/v5.0.0/Groth16Verifier.sol\":19484:19485  3 */\n      0x03\n        /* \".deps/github/succinctlabs/sp1-contracts/contracts/src/v5.0.0/Groth16Verifier.sol\":19473:19486  compressed[3] */\n      0x04\n      dup2\n      lt\n      tag_98\n      jumpi\n      tag_99\n      tag_57\n      jump\t// in\n    tag_99:\n    tag_98:\n      0x20\n      mul\n      add\n        /* \".deps/github/succinctlabs/sp1-contracts/contracts/src/v5.0.0/Groth16Verifier.sol\":19473:19520  compressed[3] = compress_g1(proof[6], proof[7]) */\n      dup2\n      dup2\n      mstore\n      pop\n      pop\n        /* \".deps/github/succinctlabs/sp1-contracts/contracts/src/v5.0.0/Groth16Verifier.sol\":19207:19527  function compressProof(uint256[8] calldata proof)... */\n      swap2\n      swap1\n      pop\n      jump\t// out\n        /* \".deps/github/succinctlabs/sp1-contracts/contracts/src/v5.0.0/SP1VerifierGroth16.sol\":1279:1457  function hashPublicValues(... */\n    tag_28:\n        /* \".deps/github/succinctlabs/sp1-contracts/contracts/src/v5.0.0/SP1VerifierGroth16.sol\":1369:1376  bytes32 */\n      0x00\n        /* \".deps/github/succinctlabs/sp1-contracts/contracts/src/v5.0.0/SP1VerifierGroth16.sol\":1434:1448  (1 << 253) - 1 */\n      0x1fffffffffffffffffffffffffffffffffffffffffffffffffffffffffffffff\n        /* \".deps/github/succinctlabs/sp1-contracts/contracts/src/v5.0.0/SP1VerifierGroth16.sol\":1418:1450  bytes32(uint256((1 << 253) - 1)) */\n      0x00\n      shl\n        /* \".deps/github/succinctlabs/sp1-contracts/contracts/src/v5.0.0/SP1VerifierGroth16.sol\":1395:1415  sha256(publicValues) */\n      0x02\n        /* \".deps/github/succinctlabs/sp1-contracts/contracts/src/v5.0.0/SP1VerifierGroth16.sol\":1402:1414  publicValues */\n      dup5\n      dup5\n        /* \".deps/github/succinctlabs/sp1-contracts/contracts/src/v5.0.0/SP1VerifierGroth16.sol\":1395:1415  sha256(publicValues) */\n      mload(0x40)\n      tag_101\n      swap3\n      swap2\n      swap1\n      tag_102\n      jump\t// in\n    tag_101:\n      0x20\n      mload(0x40)\n      dup1\n      dup4\n      sub\n      dup2\n      dup6\n      gas\n      staticcall\n      iszero\n      dup1\n      iszero\n      tag_104\n      jumpi\n      returndatacopy(0x00, 0x00, returndatasize)\n      revert(0x00, returndatasize)\n    tag_104:\n      pop\n      pop\n      pop\n      mload(0x40)\n      returndatasize\n      not(0x1f)\n      0x1f\n      dup3\n      add\n      and\n      dup3\n      add\n      dup1\n      0x40\n      mstore\n      pop\n      dup2\n      add\n      swap1\n      tag_105\n      swap2\n      swap1\n      tag_106\n      jump\t// in\n    tag_105:\n        /* \".deps/github/succinctlabs/sp1-contracts/contracts/src/v5.0.0/SP1VerifierGroth16.sol\":1395:1450  sha256(publicValues) & bytes32(uint256((1 << 253) - 1)) */\n      and\n        /* \".deps/github/succinctlabs/sp1-contracts/contracts/src/v5.0.0/SP1VerifierGroth16.sol\":1388:1450  return sha256(publicValues) & bytes32(uint256((1 << 253) - 1)) */\n      swap1\n      pop\n        /* \".deps/github/succinctlabs/sp1-contracts/contracts/src/v5.0.0/SP1VerifierGroth16.sol\":1279:1457  function hashPublicValues(... */\n      swap3\n      swap2\n      pop\n      pop\n      jump\t// out\n        /* \".deps/github/succinctlabs/sp1-contracts/contracts/src/v5.0.0/Groth16Verifier.sol\":22847:24969  function Verify(... */\n    tag_33:\n        /* \".deps/github/succinctlabs/sp1-contracts/contracts/src/v5.0.0/Groth16Verifier.sol\":22962:22971  uint256 x */\n      0x00\n        /* \".deps/github/succinctlabs/sp1-contracts/contracts/src/v5.0.0/Groth16Verifier.sol\":22973:22982  uint256 y */\n      0x00\n        /* \".deps/github/succinctlabs/sp1-contracts/contracts/src/v5.0.0/Groth16Verifier.sol\":22986:23007  publicInputMSM(input) */\n      tag_108\n        /* \".deps/github/succinctlabs/sp1-contracts/contracts/src/v5.0.0/Groth16Verifier.sol\":23001:23006  input */\n      dup4\n        /* \".deps/github/succinctlabs/sp1-contracts/contracts/src/v5.0.0/Groth16Verifier.sol\":22986:23000  publicInputMSM */\n      tag_109\n        /* \".deps/github/succinctlabs/sp1-contracts/contracts/src/v5.0.0/Groth16Verifier.sol\":22986:23007  publicInputMSM(input) */\n      jump\t// in\n    tag_108:\n        /* \".deps/github/succinctlabs/sp1-contracts/contracts/src/v5.0.0/Groth16Verifier.sol\":22961:23007  (uint256 x, uint256 y) = publicInputMSM(input) */\n      swap2\n      pop\n      swap2\n      pop\n        /* \".deps/github/succinctlabs/sp1-contracts/contracts/src/v5.0.0/Groth16Verifier.sol\":23194:23206  bool success */\n      0x00\n        /* \".deps/github/succinctlabs/sp1-contracts/contracts/src/v5.0.0/Groth16Verifier.sol\":23270:23274  0x40 */\n      0x40\n        /* \".deps/github/succinctlabs/sp1-contracts/contracts/src/v5.0.0/Groth16Verifier.sol\":23264:23275  mload(0x40) */\n      mload\n        /* \".deps/github/succinctlabs/sp1-contracts/contracts/src/v5.0.0/Groth16Verifier.sol\":23482:23487  0x100 */\n      0x0100\n        /* \".deps/github/succinctlabs/sp1-contracts/contracts/src/v5.0.0/Groth16Verifier.sol\":23475:23480  proof */\n      dup7\n        /* \".deps/github/succinctlabs/sp1-contracts/contracts/src/v5.0.0/Groth16Verifier.sol\":23472:23473  f */\n      dup3\n        /* \".deps/github/succinctlabs/sp1-contracts/contracts/src/v5.0.0/Groth16Verifier.sol\":23459:23488  calldatacopy(f, proof, 0x100) */\n      calldatacopy\n        /* \".deps/github/succinctlabs/sp1-contracts/contracts/src/v5.0.0/Groth16Verifier.sol\":23790:23803  DELTA_NEG_X_1 */\n      0x1cc7cb8de715675f21f01ecc9b46d236e0865e0cc020024521998269845f74e6\n        /* \".deps/github/succinctlabs/sp1-contracts/contracts/src/v5.0.0/Groth16Verifier.sol\":23782:23787  0x100 */\n      0x0100\n        /* \".deps/github/succinctlabs/sp1-contracts/contracts/src/v5.0.0/Groth16Verifier.sol\":23779:23780  f */\n      dup3\n        /* \".deps/github/succinctlabs/sp1-contracts/contracts/src/v5.0.0/Groth16Verifier.sol\":23775:23788  add(f, 0x100) */\n      add\n        /* \".deps/github/succinctlabs/sp1-contracts/contracts/src/v5.0.0/Groth16Verifier.sol\":23768:23804  mstore(add(f, 0x100), DELTA_NEG_X_1) */\n      mstore\n        /* \".deps/github/succinctlabs/sp1-contracts/contracts/src/v5.0.0/Groth16Verifier.sol\":23839:23852  DELTA_NEG_X_0 */\n      0x03ff41f4ba0c37fe2caf27354d28e4b8f83d3b76777a63b327d736bffb0122ed\n        /* \".deps/github/succinctlabs/sp1-contracts/contracts/src/v5.0.0/Groth16Verifier.sol\":23831:23836  0x120 */\n      0x0120\n        /* \".deps/github/succinctlabs/sp1-contracts/contracts/src/v5.0.0/Groth16Verifier.sol\":23828:23829  f */\n      dup3\n        /* \".deps/github/succinctlabs/sp1-contracts/contracts/src/v5.0.0/Groth16Verifier.sol\":23824:23837  add(f, 0x120) */\n      add\n        /* \".deps/github/succinctlabs/sp1-contracts/contracts/src/v5.0.0/Groth16Verifier.sol\":23817:23853  mstore(add(f, 0x120), DELTA_NEG_X_0) */\n      mstore\n        /* \".deps/github/succinctlabs/sp1-contracts/contracts/src/v5.0.0/Groth16Verifier.sol\":23888:23901  DELTA_NEG_Y_1 */\n      0x01909cd7827e0278e6b60843a4abc7b111d7f8b2725cd5902a6b20da7a2938fb\n        /* \".deps/github/succinctlabs/sp1-contracts/contracts/src/v5.0.0/Groth16Verifier.sol\":23880:23885  0x140 */\n      0x0140\n        /* \".deps/github/succinctlabs/sp1-contracts/contracts/src/v5.0.0/Groth16Verifier.sol\":23877:23878  f */\n      dup3\n        /* \".deps/github/succinctlabs/sp1-contracts/contracts/src/v5.0.0/Groth16Verifier.sol\":23873:23886  add(f, 0x140) */\n      add\n        /* \".deps/github/succinctlabs/sp1-contracts/contracts/src/v5.0.0/Groth16Verifier.sol\":23866:23902  mstore(add(f, 0x140), DELTA_NEG_Y_1) */\n      mstore\n        /* \".deps/github/succinctlabs/sp1-contracts/contracts/src/v5.0.0/Groth16Verifier.sol\":23937:23950  DELTA_NEG_Y_0 */\n      0x192bd3274441670227b4f69a44005b8711266e474227c6439ca25ca8e1ec1fc2\n        /* \".deps/github/succinctlabs/sp1-contracts/contracts/src/v5.0.0/Groth16Verifier.sol\":23929:23934  0x160 */\n      0x0160\n        /* \".deps/github/succinctlabs/sp1-contracts/contracts/src/v5.0.0/Groth16Verifier.sol\":23926:23927  f */\n      dup3\n        /* \".deps/github/succinctlabs/sp1-contracts/contracts/src/v5.0.0/Groth16Verifier.sol\":23922:23935  add(f, 0x160) */\n      add\n        /* \".deps/github/succinctlabs/sp1-contracts/contracts/src/v5.0.0/Groth16Verifier.sol\":23915:23951  mstore(add(f, 0x160), DELTA_NEG_Y_0) */\n      mstore\n        /* \".deps/github/succinctlabs/sp1-contracts/contracts/src/v5.0.0/Groth16Verifier.sol\":23986:23993  ALPHA_X */\n      0x2d4d9aa7e302d9df41749d5507949d05dbea33fbb16c643b22f599a2be6df2e2\n        /* \".deps/github/succinctlabs/sp1-contracts/contracts/src/v5.0.0/Groth16Verifier.sol\":23978:23983  0x180 */\n      0x0180\n        /* \".deps/github/succinctlabs/sp1-contracts/contracts/src/v5.0.0/Groth16Verifier.sol\":23975:23976  f */\n      dup3\n        /* \".deps/github/succinctlabs/sp1-contracts/contracts/src/v5.0.0/Groth16Verifier.sol\":23971:23984  add(f, 0x180) */\n      add\n        /* \".deps/github/succinctlabs/sp1-contracts/contracts/src/v5.0.0/Groth16Verifier.sol\":23964:23994  mstore(add(f, 0x180), ALPHA_X) */\n      mstore\n        /* \".deps/github/succinctlabs/sp1-contracts/contracts/src/v5.0.0/Groth16Verifier.sol\":24029:24036  ALPHA_Y */\n      0x14bedd503c37ceb061d8ec60209fe345ce89830a19230301f076caff004d1926\n        /* \".deps/github/succinctlabs/sp1-contracts/contracts/src/v5.0.0/Groth16Verifier.sol\":24021:24026  0x1a0 */\n      0x01a0\n        /* \".deps/github/succinctlabs/sp1-contracts/contracts/src/v5.0.0/Groth16Verifier.sol\":24018:24019  f */\n      dup3\n        /* \".deps/github/succinctlabs/sp1-contracts/contracts/src/v5.0.0/Groth16Verifier.sol\":24014:24027  add(f, 0x1a0) */\n      add\n        /* \".deps/github/succinctlabs/sp1-contracts/contracts/src/v5.0.0/Groth16Verifier.sol\":24007:24037  mstore(add(f, 0x1a0), ALPHA_Y) */\n      mstore\n        /* \".deps/github/succinctlabs/sp1-contracts/contracts/src/v5.0.0/Groth16Verifier.sol\":24072:24084  BETA_NEG_X_1 */\n      0x0967032fcbf776d1afc985f88877f182d38480a653f2decaa9794cbc3bf3060c\n        /* \".deps/github/succinctlabs/sp1-contracts/contracts/src/v5.0.0/Groth16Verifier.sol\":24064:24069  0x1c0 */\n      0x01c0\n        /* \".deps/github/succinctlabs/sp1-contracts/contracts/src/v5.0.0/Groth16Verifier.sol\":24061:24062  f */\n      dup3\n        /* \".deps/github/succinctlabs/sp1-contracts/contracts/src/v5.0.0/Groth16Verifier.sol\":24057:24070  add(f, 0x1c0) */\n      add\n        /* \".deps/github/succinctlabs/sp1-contracts/contracts/src/v5.0.0/Groth16Verifier.sol\":24050:24085  mstore(add(f, 0x1c0), BETA_NEG_X_1) */\n      mstore\n        /* \".deps/github/succinctlabs/sp1-contracts/contracts/src/v5.0.0/Groth16Verifier.sol\":24120:24132  BETA_NEG_X_0 */\n      0x0e187847ad4c798374d0d6732bf501847dd68bc0e071241e0213bc7fc13db7ab\n        /* \".deps/github/succinctlabs/sp1-contracts/contracts/src/v5.0.0/Groth16Verifier.sol\":24112:24117  0x1e0 */\n      0x01e0\n        /* \".deps/github/succinctlabs/sp1-contracts/contracts/src/v5.0.0/Groth16Verifier.sol\":24109:24110  f */\n      dup3\n        /* \".deps/github/succinctlabs/sp1-contracts/contracts/src/v5.0.0/Groth16Verifier.sol\":24105:24118  add(f, 0x1e0) */\n      add\n        /* \".deps/github/succinctlabs/sp1-contracts/contracts/src/v5.0.0/Groth16Verifier.sol\":24098:24133  mstore(add(f, 0x1e0), BETA_NEG_X_0) */\n      mstore\n        /* \".deps/github/succinctlabs/sp1-contracts/contracts/src/v5.0.0/Groth16Verifier.sol\":24168:24180  BETA_NEG_Y_1 */\n      0x1752a100a72fdf1e5a5d6ea841cc20ec838bccfcf7bd559e79f1c9c759b6a0\n        /* \".deps/github/succinctlabs/sp1-contracts/contracts/src/v5.0.0/Groth16Verifier.sol\":24160:24165  0x200 */\n      0x0200\n        /* \".deps/github/succinctlabs/sp1-contracts/contracts/src/v5.0.0/Groth16Verifier.sol\":24157:24158  f */\n      dup3\n        /* \".deps/github/succinctlabs/sp1-contracts/contracts/src/v5.0.0/Groth16Verifier.sol\":24153:24166  add(f, 0x200) */\n      add\n        /* \".deps/github/succinctlabs/sp1-contracts/contracts/src/v5.0.0/Groth16Verifier.sol\":24146:24181  mstore(add(f, 0x200), BETA_NEG_Y_1) */\n      mstore\n        /* \".deps/github/succinctlabs/sp1-contracts/contracts/src/v5.0.0/Groth16Verifier.sol\":24216:24228  BETA_NEG_Y_0 */\n      0x192a8cc13cd9f762871f21e43451c6ca9eeab2cb2987c4e366a185c25dac2e7f\n        /* \".deps/github/succinctlabs/sp1-contracts/contracts/src/v5.0.0/Groth16Verifier.sol\":24208:24213  0x220 */\n      0x0220\n        /* \".deps/github/succinctlabs/sp1-contracts/contracts/src/v5.0.0/Groth16Verifier.sol\":24205:24206  f */\n      dup3\n        /* \".deps/github/succinctlabs/sp1-contracts/contracts/src/v5.0.0/Groth16Verifier.sol\":24201:24214  add(f, 0x220) */\n      add\n        /* \".deps/github/succinctlabs/sp1-contracts/contracts/src/v5.0.0/Groth16Verifier.sol\":24194:24229  mstore(add(f, 0x220), BETA_NEG_Y_0) */\n      mstore\n        /* \".deps/github/succinctlabs/sp1-contracts/contracts/src/v5.0.0/Groth16Verifier.sol\":24264:24265  x */\n      dup4\n        /* \".deps/github/succinctlabs/sp1-contracts/contracts/src/v5.0.0/Groth16Verifier.sol\":24256:24261  0x240 */\n      0x0240\n        /* \".deps/github/succinctlabs/sp1-contracts/contracts/src/v5.0.0/Groth16Verifier.sol\":24253:24254  f */\n      dup3\n        /* \".deps/github/succinctlabs/sp1-contracts/contracts/src/v5.0.0/Groth16Verifier.sol\":24249:24262  add(f, 0x240) */\n      add\n        /* \".deps/github/succinctlabs/sp1-contracts/contracts/src/v5.0.0/Groth16Verifier.sol\":24242:24266  mstore(add(f, 0x240), x) */\n      mstore\n        /* \".deps/github/succinctlabs/sp1-contracts/contracts/src/v5.0.0/Groth16Verifier.sol\":24301:24302  y */\n      dup3\n        /* \".deps/github/succinctlabs/sp1-contracts/contracts/src/v5.0.0/Groth16Verifier.sol\":24293:24298  0x260 */\n      0x0260\n        /* \".deps/github/succinctlabs/sp1-contracts/contracts/src/v5.0.0/Groth16Verifier.sol\":24290:24291  f */\n      dup3\n        /* \".deps/github/succinctlabs/sp1-contracts/contracts/src/v5.0.0/Groth16Verifier.sol\":24286:24299  add(f, 0x260) */\n      add\n        /* \".deps/github/succinctlabs/sp1-contracts/contracts/src/v5.0.0/Groth16Verifier.sol\":24279:24303  mstore(add(f, 0x260), y) */\n      mstore\n        /* \".deps/github/succinctlabs/sp1-contracts/contracts/src/v5.0.0/Groth16Verifier.sol\":24338:24351  GAMMA_NEG_X_1 */\n      0x198e9393920d483a7260bfb731fb5d25f1aa493335a9e71297e485b7aef312c2\n        /* \".deps/github/succinctlabs/sp1-contracts/contracts/src/v5.0.0/Groth16Verifier.sol\":24330:24335  0x280 */\n      0x0280\n        /* \".deps/github/succinctlabs/sp1-contracts/contracts/src/v5.0.0/Groth16Verifier.sol\":24327:24328  f */\n      dup3\n        /* \".deps/github/succinctlabs/sp1-contracts/contracts/src/v5.0.0/Groth16Verifier.sol\":24323:24336  add(f, 0x280) */\n      add\n        /* \".deps/github/succinctlabs/sp1-contracts/contracts/src/v5.0.0/Groth16Verifier.sol\":24316:24352  mstore(add(f, 0x280), GAMMA_NEG_X_1) */\n      mstore\n        /* \".deps/github/succinctlabs/sp1-contracts/contracts/src/v5.0.0/Groth16Verifier.sol\":24387:24400  GAMMA_NEG_X_0 */\n      0x1800deef121f1e76426a00665e5c4479674322d4f75edadd46debd5cd992f6ed\n        /* \".deps/github/succinctlabs/sp1-contracts/contracts/src/v5.0.0/Groth16Verifier.sol\":24379:24384  0x2a0 */\n      0x02a0\n        /* \".deps/github/succinctlabs/sp1-contracts/contracts/src/v5.0.0/Groth16Verifier.sol\":24376:24377  f */\n      dup3\n        /* \".deps/github/succinctlabs/sp1-contracts/contracts/src/v5.0.0/Groth16Verifier.sol\":24372:24385  add(f, 0x2a0) */\n      add\n        /* \".deps/github/succinctlabs/sp1-contracts/contracts/src/v5.0.0/Groth16Verifier.sol\":24365:24401  mstore(add(f, 0x2a0), GAMMA_NEG_X_0) */\n      mstore\n        /* \".deps/github/succinctlabs/sp1-contracts/contracts/src/v5.0.0/Groth16Verifier.sol\":24436:24449  GAMMA_NEG_Y_1 */\n      0x275dc4a288d1afb3cbb1ac09187524c7db36395df7be3b99e673b13a075a65ec\n        /* \".deps/github/succinctlabs/sp1-contracts/contracts/src/v5.0.0/Groth16Verifier.sol\":24428:24433  0x2c0 */\n      0x02c0\n        /* \".deps/github/succinctlabs/sp1-contracts/contracts/src/v5.0.0/Groth16Verifier.sol\":24425:24426  f */\n      dup3\n        /* \".deps/github/succinctlabs/sp1-contracts/contracts/src/v5.0.0/Groth16Verifier.sol\":24421:24434  add(f, 0x2c0) */\n      add\n        /* \".deps/github/succinctlabs/sp1-contracts/contracts/src/v5.0.0/Groth16Verifier.sol\":24414:24450  mstore(add(f, 0x2c0), GAMMA_NEG_Y_1) */\n      mstore\n        /* \".deps/github/succinctlabs/sp1-contracts/contracts/src/v5.0.0/Groth16Verifier.sol\":24485:24498  GAMMA_NEG_Y_0 */\n      0x1d9befcd05a5323e6da4d435f3b617cdb3af83285c2df711ef39c01571827f9d\n        /* \".deps/github/succinctlabs/sp1-contracts/contracts/src/v5.0.0/Groth16Verifier.sol\":24477:24482  0x2e0 */\n      0x02e0\n        /* \".deps/github/succinctlabs/sp1-contracts/contracts/src/v5.0.0/Groth16Verifier.sol\":24474:24475  f */\n      dup3\n        /* \".deps/github/succinctlabs/sp1-contracts/contracts/src/v5.0.0/Groth16Verifier.sol\":24470:24483  add(f, 0x2e0) */\n      add\n        /* \".deps/github/succinctlabs/sp1-contracts/contracts/src/v5.0.0/Groth16Verifier.sol\":24463:24499  mstore(add(f, 0x2e0), GAMMA_NEG_Y_0) */\n      mstore\n        /* \".deps/github/succinctlabs/sp1-contracts/contracts/src/v5.0.0/Groth16Verifier.sol\":24613:24617  0x20 */\n      0x20\n        /* \".deps/github/succinctlabs/sp1-contracts/contracts/src/v5.0.0/Groth16Verifier.sol\":24610:24611  f */\n      dup2\n        /* \".deps/github/succinctlabs/sp1-contracts/contracts/src/v5.0.0/Groth16Verifier.sol\":24603:24608  0x300 */\n      0x0300\n        /* \".deps/github/succinctlabs/sp1-contracts/contracts/src/v5.0.0/Groth16Verifier.sol\":24600:24601  f */\n      dup4\n        /* \".deps/github/succinctlabs/sp1-contracts/contracts/src/v5.0.0/Groth16Verifier.sol\":24581:24598  PRECOMPILE_VERIFY */\n      0x08\n        /* \".deps/github/succinctlabs/sp1-contracts/contracts/src/v5.0.0/Groth16Verifier.sol\":24574:24579  gas() */\n      gas\n        /* \".deps/github/succinctlabs/sp1-contracts/contracts/src/v5.0.0/Groth16Verifier.sol\":24563:24618  staticcall(gas(), PRECOMPILE_VERIFY, f, 0x300, f, 0x20) */\n      staticcall\n        /* \".deps/github/succinctlabs/sp1-contracts/contracts/src/v5.0.0/Groth16Verifier.sol\":24552:24618  success := staticcall(gas(), PRECOMPILE_VERIFY, f, 0x300, f, 0x20) */\n      swap2\n      pop\n        /* \".deps/github/succinctlabs/sp1-contracts/contracts/src/v5.0.0/Groth16Verifier.sol\":24728:24729  f */\n      dup1\n        /* \".deps/github/succinctlabs/sp1-contracts/contracts/src/v5.0.0/Groth16Verifier.sol\":24722:24730  mload(f) */\n      mload\n        /* \".deps/github/succinctlabs/sp1-contracts/contracts/src/v5.0.0/Groth16Verifier.sol\":24713:24720  success */\n      dup3\n        /* \".deps/github/succinctlabs/sp1-contracts/contracts/src/v5.0.0/Groth16Verifier.sol\":24709:24731  and(success, mload(f)) */\n      and\n        /* \".deps/github/succinctlabs/sp1-contracts/contracts/src/v5.0.0/Groth16Verifier.sol\":24698:24731  success := and(success, mload(f)) */\n      swap2\n      pop\n        /* \".deps/github/succinctlabs/sp1-contracts/contracts/src/v5.0.0/Groth16Verifier.sol\":23241:24741  {... */\n      pop\n        /* \".deps/github/succinctlabs/sp1-contracts/contracts/src/v5.0.0/Groth16Verifier.sol\":24755:24762  success */\n      dup1\n        /* \".deps/github/succinctlabs/sp1-contracts/contracts/src/v5.0.0/Groth16Verifier.sol\":24750:24963  if (!success) {... */\n      tag_110\n      jumpi\n        /* \".deps/github/succinctlabs/sp1-contracts/contracts/src/v5.0.0/Groth16Verifier.sol\":24938:24952  ProofInvalid() */\n      mload(0x40)\n      0x7fcdd1f400000000000000000000000000000000000000000000000000000000\n      dup2\n      mstore\n      0x04\n      add\n      mload(0x40)\n      dup1\n      swap2\n      sub\n      swap1\n      revert\n        /* \".deps/github/succinctlabs/sp1-contracts/contracts/src/v5.0.0/Groth16Verifier.sol\":24750:24963  if (!success) {... */\n    tag_110:\n        /* \".deps/github/succinctlabs/sp1-contracts/contracts/src/v5.0.0/Groth16Verifier.sol\":22951:24969  {... */\n      pop\n      pop\n      pop\n        /* \".deps/github/succinctlabs/sp1-contracts/contracts/src/v5.0.0/Groth16Verifier.sol\":22847:24969  function Verify(... */\n      pop\n      pop\n      jump\t// out\n        /* \".deps/github/succinctlabs/sp1-contracts/contracts/src/v5.0.0/Groth16Verifier.sol\":20075:22321  function verifyCompressedProof(... */\n    tag_37:\n        /* \".deps/github/succinctlabs/sp1-contracts/contracts/src/v5.0.0/Groth16Verifier.sol\":20214:20241  uint256[24] memory pairings */\n      tag_112\n      tag_113\n      jump\t// in\n    tag_112:\n        /* \".deps/github/succinctlabs/sp1-contracts/contracts/src/v5.0.0/Groth16Verifier.sol\":20267:20277  uint256 Ax */\n      0x00\n        /* \".deps/github/succinctlabs/sp1-contracts/contracts/src/v5.0.0/Groth16Verifier.sol\":20279:20289  uint256 Ay */\n      0x00\n        /* \".deps/github/succinctlabs/sp1-contracts/contracts/src/v5.0.0/Groth16Verifier.sol\":20293:20326  decompress_g1(compressedProof[0]) */\n      tag_114\n        /* \".deps/github/succinctlabs/sp1-contracts/contracts/src/v5.0.0/Groth16Verifier.sol\":20307:20322  compressedProof */\n      dup6\n        /* \".deps/github/succinctlabs/sp1-contracts/contracts/src/v5.0.0/Groth16Verifier.sol\":20323:20324  0 */\n      0x00\n        /* \".deps/github/succinctlabs/sp1-contracts/contracts/src/v5.0.0/Groth16Verifier.sol\":20307:20325  compressedProof[0] */\n      0x04\n      dup2\n      lt\n      tag_115\n      jumpi\n      tag_116\n      tag_57\n      jump\t// in\n    tag_116:\n    tag_115:\n      0x20\n      mul\n      add\n      calldataload\n        /* \".deps/github/succinctlabs/sp1-contracts/contracts/src/v5.0.0/Groth16Verifier.sol\":20293:20306  decompress_g1 */\n      tag_117\n        /* \".deps/github/succinctlabs/sp1-contracts/contracts/src/v5.0.0/Groth16Verifier.sol\":20293:20326  decompress_g1(compressedProof[0]) */\n      jump\t// in\n    tag_114:\n        /* \".deps/github/succinctlabs/sp1-contracts/contracts/src/v5.0.0/Groth16Verifier.sol\":20266:20326  (uint256 Ax, uint256 Ay) = decompress_g1(compressedProof[0]) */\n      swap2\n      pop\n      swap2\n      pop\n        /* \".deps/github/succinctlabs/sp1-contracts/contracts/src/v5.0.0/Groth16Verifier.sol\":20341:20352  uint256 Bx0 */\n      0x00\n        /* \".deps/github/succinctlabs/sp1-contracts/contracts/src/v5.0.0/Groth16Verifier.sol\":20354:20365  uint256 Bx1 */\n      0x00\n        /* \".deps/github/succinctlabs/sp1-contracts/contracts/src/v5.0.0/Groth16Verifier.sol\":20367:20378  uint256 By0 */\n      0x00\n        /* \".deps/github/succinctlabs/sp1-contracts/contracts/src/v5.0.0/Groth16Verifier.sol\":20380:20391  uint256 By1 */\n      0x00\n        /* \".deps/github/succinctlabs/sp1-contracts/contracts/src/v5.0.0/Groth16Verifier.sol\":20395:20448  decompress_g2(compressedProof[2], compressedProof[1]) */\n      tag_118\n        /* \".deps/github/succinctlabs/sp1-contracts/contracts/src/v5.0.0/Groth16Verifier.sol\":20409:20424  compressedProof */\n      dup10\n        /* \".deps/github/succinctlabs/sp1-contracts/contracts/src/v5.0.0/Groth16Verifier.sol\":20425:20426  2 */\n      0x02\n        /* \".deps/github/succinctlabs/sp1-contracts/contracts/src/v5.0.0/Groth16Verifier.sol\":20409:20427  compressedProof[2] */\n      0x04\n      dup2\n      lt\n      tag_119\n      jumpi\n      tag_120\n      tag_57\n      jump\t// in\n    tag_120:\n    tag_119:\n      0x20\n      mul\n      add\n      calldataload\n        /* \".deps/github/succinctlabs/sp1-contracts/contracts/src/v5.0.0/Groth16Verifier.sol\":20429:20444  compressedProof */\n      dup11\n        /* \".deps/github/succinctlabs/sp1-contracts/contracts/src/v5.0.0/Groth16Verifier.sol\":20445:20446  1 */\n      0x01\n        /* \".deps/github/succinctlabs/sp1-contracts/contracts/src/v5.0.0/Groth16Verifier.sol\":20429:20447  compressedProof[1] */\n      0x04\n      dup2\n      lt\n      tag_121\n      jumpi\n      tag_122\n      tag_57\n      jump\t// in\n    tag_122:\n    tag_121:\n      0x20\n      mul\n      add\n      calldataload\n        /* \".deps/github/succinctlabs/sp1-contracts/contracts/src/v5.0.0/Groth16Verifier.sol\":20395:20408  decompress_g2 */\n      tag_123\n        /* \".deps/github/succinctlabs/sp1-contracts/contracts/src/v5.0.0/Groth16Verifier.sol\":20395:20448  decompress_g2(compressedProof[2], compressedProof[1]) */\n      jump\t// in\n    tag_118:\n        /* \".deps/github/succinctlabs/sp1-contracts/contracts/src/v5.0.0/Groth16Verifier.sol\":20340:20448  (uint256 Bx0, uint256 Bx1, uint256 By0, uint256 By1) = decompress_g2(compressedProof[2], compressedProof[1]) */\n      swap4\n      pop\n      swap4\n      pop\n      swap4\n      pop\n      swap4\n      pop\n        /* \".deps/github/succinctlabs/sp1-contracts/contracts/src/v5.0.0/Groth16Verifier.sol\":20463:20473  uint256 Cx */\n      0x00\n        /* \".deps/github/succinctlabs/sp1-contracts/contracts/src/v5.0.0/Groth16Verifier.sol\":20475:20485  uint256 Cy */\n      0x00\n        /* \".deps/github/succinctlabs/sp1-contracts/contracts/src/v5.0.0/Groth16Verifier.sol\":20489:20522  decompress_g1(compressedProof[3]) */\n      tag_124\n        /* \".deps/github/succinctlabs/sp1-contracts/contracts/src/v5.0.0/Groth16Verifier.sol\":20503:20518  compressedProof */\n      dup12\n        /* \".deps/github/succinctlabs/sp1-contracts/contracts/src/v5.0.0/Groth16Verifier.sol\":20519:20520  3 */\n      0x03\n        /* \".deps/github/succinctlabs/sp1-contracts/contracts/src/v5.0.0/Groth16Verifier.sol\":20503:20521  compressedProof[3] */\n      0x04\n      dup2\n      lt\n      tag_125\n      jumpi\n      tag_126\n      tag_57\n      jump\t// in\n    tag_126:\n    tag_125:\n      0x20\n      mul\n      add\n      calldataload\n        /* \".deps/github/succinctlabs/sp1-contracts/contracts/src/v5.0.0/Groth16Verifier.sol\":20489:20502  decompress_g1 */\n      tag_117\n        /* \".deps/github/succinctlabs/sp1-contracts/contracts/src/v5.0.0/Groth16Verifier.sol\":20489:20522  decompress_g1(compressedProof[3]) */\n      jump\t// in\n    tag_124:\n        /* \".deps/github/succinctlabs/sp1-contracts/contracts/src/v5.0.0/Groth16Verifier.sol\":20462:20522  (uint256 Cx, uint256 Cy) = decompress_g1(compressedProof[3]) */\n      swap2\n      pop\n      swap2\n      pop\n        /* \".deps/github/succinctlabs/sp1-contracts/contracts/src/v5.0.0/Groth16Verifier.sol\":20537:20547  uint256 Lx */\n      0x00\n        /* \".deps/github/succinctlabs/sp1-contracts/contracts/src/v5.0.0/Groth16Verifier.sol\":20549:20559  uint256 Ly */\n      0x00\n        /* \".deps/github/succinctlabs/sp1-contracts/contracts/src/v5.0.0/Groth16Verifier.sol\":20563:20584  publicInputMSM(input) */\n      tag_127\n        /* \".deps/github/succinctlabs/sp1-contracts/contracts/src/v5.0.0/Groth16Verifier.sol\":20578:20583  input */\n      dup13\n        /* \".deps/github/succinctlabs/sp1-contracts/contracts/src/v5.0.0/Groth16Verifier.sol\":20563:20577  publicInputMSM */\n      tag_109\n        /* \".deps/github/succinctlabs/sp1-contracts/contracts/src/v5.0.0/Groth16Verifier.sol\":20563:20584  publicInputMSM(input) */\n      jump\t// in\n    tag_127:\n        /* \".deps/github/succinctlabs/sp1-contracts/contracts/src/v5.0.0/Groth16Verifier.sol\":20536:20584  (uint256 Lx, uint256 Ly) = publicInputMSM(input) */\n      swap2\n      pop\n      swap2\n      pop\n        /* \".deps/github/succinctlabs/sp1-contracts/contracts/src/v5.0.0/Groth16Verifier.sol\":20855:20857  Ax */\n      dup10\n        /* \".deps/github/succinctlabs/sp1-contracts/contracts/src/v5.0.0/Groth16Verifier.sol\":20840:20848  pairings */\n      dup12\n        /* \".deps/github/succinctlabs/sp1-contracts/contracts/src/v5.0.0/Groth16Verifier.sol\":20850:20851  0 */\n      0x00\n        /* \".deps/github/succinctlabs/sp1-contracts/contracts/src/v5.0.0/Groth16Verifier.sol\":20840:20852  pairings[ 0] */\n      0x18\n      dup2\n      lt\n      tag_128\n      jumpi\n      tag_129\n      tag_57\n      jump\t// in\n    tag_129:\n    tag_128:\n      0x20\n      mul\n      add\n        /* \".deps/github/succinctlabs/sp1-contracts/contracts/src/v5.0.0/Groth16Verifier.sol\":20840:20857  pairings[ 0] = Ax */\n      dup2\n      dup2\n      mstore\n      pop\n      pop\n        /* \".deps/github/succinctlabs/sp1-contracts/contracts/src/v5.0.0/Groth16Verifier.sol\":20886:20888  Ay */\n      dup9\n        /* \".deps/github/succinctlabs/sp1-contracts/contracts/src/v5.0.0/Groth16Verifier.sol\":20871:20879  pairings */\n      dup12\n        /* \".deps/github/succinctlabs/sp1-contracts/contracts/src/v5.0.0/Groth16Verifier.sol\":20881:20882  1 */\n      0x01\n        /* \".deps/github/succinctlabs/sp1-contracts/contracts/src/v5.0.0/Groth16Verifier.sol\":20871:20883  pairings[ 1] */\n      0x18\n      dup2\n      lt\n      tag_130\n      jumpi\n      tag_131\n      tag_57\n      jump\t// in\n    tag_131:\n    tag_130:\n      0x20\n      mul\n      add\n        /* \".deps/github/succinctlabs/sp1-contracts/contracts/src/v5.0.0/Groth16Verifier.sol\":20871:20888  pairings[ 1] = Ay */\n      dup2\n      dup2\n      mstore\n      pop\n      pop\n        /* \".deps/github/succinctlabs/sp1-contracts/contracts/src/v5.0.0/Groth16Verifier.sol\":20917:20920  Bx1 */\n      dup7\n        /* \".deps/github/succinctlabs/sp1-contracts/contracts/src/v5.0.0/Groth16Verifier.sol\":20902:20910  pairings */\n      dup12\n        /* \".deps/github/succinctlabs/sp1-contracts/contracts/src/v5.0.0/Groth16Verifier.sol\":20912:20913  2 */\n      0x02\n        /* \".deps/github/succinctlabs/sp1-contracts/contracts/src/v5.0.0/Groth16Verifier.sol\":20902:20914  pairings[ 2] */\n      0x18\n      dup2\n      lt\n      tag_132\n      jumpi\n      tag_133\n      tag_57\n      jump\t// in\n    tag_133:\n    tag_132:\n      0x20\n      mul\n      add\n        /* \".deps/github/succinctlabs/sp1-contracts/contracts/src/v5.0.0/Groth16Verifier.sol\":20902:20920  pairings[ 2] = Bx1 */\n      dup2\n      dup2\n      mstore\n      pop\n      pop\n        /* \".deps/github/succinctlabs/sp1-contracts/contracts/src/v5.0.0/Groth16Verifier.sol\":20949:20952  Bx0 */\n      dup8\n        /* \".deps/github/succinctlabs/sp1-contracts/contracts/src/v5.0.0/Groth16Verifier.sol\":20934:20942  pairings */\n      dup12\n        /* \".deps/github/succinctlabs/sp1-contracts/contracts/src/v5.0.0/Groth16Verifier.sol\":20944:20945  3 */\n      0x03\n        /* \".deps/github/succinctlabs/sp1-contracts/contracts/src/v5.0.0/Groth16Verifier.sol\":20934:20946  pairings[ 3] */\n      0x18\n      dup2\n      lt\n      tag_134\n      jumpi\n      tag_135\n      tag_57\n      jump\t// in\n    tag_135:\n    tag_134:\n      0x20\n      mul\n      add\n        /* \".deps/github/succinctlabs/sp1-contracts/contracts/src/v5.0.0/Groth16Verifier.sol\":20934:20952  pairings[ 3] = Bx0 */\n      dup2\n      dup2\n      mstore\n      pop\n      pop\n        /* \".deps/github/succinctlabs/sp1-contracts/contracts/src/v5.0.0/Groth16Verifier.sol\":20981:20984  By1 */\n      dup5\n        /* \".deps/github/succinctlabs/sp1-contracts/contracts/src/v5.0.0/Groth16Verifier.sol\":20966:20974  pairings */\n      dup12\n        /* \".deps/github/succinctlabs/sp1-contracts/contracts/src/v5.0.0/Groth16Verifier.sol\":20976:20977  4 */\n      0x04\n        /* \".deps/github/succinctlabs/sp1-contracts/contracts/src/v5.0.0/Groth16Verifier.sol\":20966:20978  pairings[ 4] */\n      0x18\n      dup2\n      lt\n      tag_136\n      jumpi\n      tag_137\n      tag_57\n      jump\t// in\n    tag_137:\n    tag_136:\n      0x20\n      mul\n      add\n        /* \".deps/github/succinctlabs/sp1-contracts/contracts/src/v5.0.0/Groth16Verifier.sol\":20966:20984  pairings[ 4] = By1 */\n      dup2\n      dup2\n      mstore\n      pop\n      pop\n        /* \".deps/github/succinctlabs/sp1-contracts/contracts/src/v5.0.0/Groth16Verifier.sol\":21013:21016  By0 */\n      dup6\n        /* \".deps/github/succinctlabs/sp1-contracts/contracts/src/v5.0.0/Groth16Verifier.sol\":20998:21006  pairings */\n      dup12\n        /* \".deps/github/succinctlabs/sp1-contracts/contracts/src/v5.0.0/Groth16Verifier.sol\":21008:21009  5 */\n      0x05\n        /* \".deps/github/succinctlabs/sp1-contracts/contracts/src/v5.0.0/Groth16Verifier.sol\":20998:21010  pairings[ 5] */\n      0x18\n      dup2\n      lt\n      tag_138\n      jumpi\n      tag_139\n      tag_57\n      jump\t// in\n    tag_139:\n    tag_138:\n      0x20\n      mul\n      add\n        /* \".deps/github/succinctlabs/sp1-contracts/contracts/src/v5.0.0/Groth16Verifier.sol\":20998:21016  pairings[ 5] = By0 */\n      dup2\n      dup2\n      mstore\n      pop\n      pop\n        /* \".deps/github/succinctlabs/sp1-contracts/contracts/src/v5.0.0/Groth16Verifier.sol\":21070:21072  Cx */\n      dup4\n        /* \".deps/github/succinctlabs/sp1-contracts/contracts/src/v5.0.0/Groth16Verifier.sol\":21055:21063  pairings */\n      dup12\n        /* \".deps/github/succinctlabs/sp1-contracts/contracts/src/v5.0.0/Groth16Verifier.sol\":21065:21066  6 */\n      0x06\n        /* \".deps/github/succinctlabs/sp1-contracts/contracts/src/v5.0.0/Groth16Verifier.sol\":21055:21067  pairings[ 6] */\n      0x18\n      dup2\n      lt\n      tag_140\n      jumpi\n      tag_141\n      tag_57\n      jump\t// in\n    tag_141:\n    tag_140:\n      0x20\n      mul\n      add\n        /* \".deps/github/succinctlabs/sp1-contracts/contracts/src/v5.0.0/Groth16Verifier.sol\":21055:21072  pairings[ 6] = Cx */\n      dup2\n      dup2\n      mstore\n      pop\n      pop\n        /* \".deps/github/succinctlabs/sp1-contracts/contracts/src/v5.0.0/Groth16Verifier.sol\":21101:21103  Cy */\n      dup3\n        /* \".deps/github/succinctlabs/sp1-contracts/contracts/src/v5.0.0/Groth16Verifier.sol\":21086:21094  pairings */\n      dup12\n        /* \".deps/github/succinctlabs/sp1-contracts/contracts/src/v5.0.0/Groth16Verifier.sol\":21096:21097  7 */\n      0x07\n        /* \".deps/github/succinctlabs/sp1-contracts/contracts/src/v5.0.0/Groth16Verifier.sol\":21086:21098  pairings[ 7] */\n      0x18\n      dup2\n      lt\n      tag_142\n      jumpi\n      tag_143\n      tag_57\n      jump\t// in\n    tag_143:\n    tag_142:\n      0x20\n      mul\n      add\n        /* \".deps/github/succinctlabs/sp1-contracts/contracts/src/v5.0.0/Groth16Verifier.sol\":21086:21103  pairings[ 7] = Cy */\n      dup2\n      dup2\n      mstore\n      pop\n      pop\n        /* \".deps/github/succinctlabs/sp1-contracts/contracts/src/v5.0.0/Groth16Verifier.sol\":4150:4227  13017767206419180294867239590191240882490168779777616723978810680471506089190 */\n      0x1cc7cb8de715675f21f01ecc9b46d236e0865e0cc020024521998269845f74e6\n        /* \".deps/github/succinctlabs/sp1-contracts/contracts/src/v5.0.0/Groth16Verifier.sol\":21117:21125  pairings */\n      dup12\n        /* \".deps/github/succinctlabs/sp1-contracts/contracts/src/v5.0.0/Groth16Verifier.sol\":21127:21128  8 */\n      0x08\n        /* \".deps/github/succinctlabs/sp1-contracts/contracts/src/v5.0.0/Groth16Verifier.sol\":21117:21129  pairings[ 8] */\n      0x18\n      dup2\n      lt\n      tag_144\n      jumpi\n      tag_145\n      tag_57\n      jump\t// in\n    tag_145:\n    tag_144:\n      0x20\n      mul\n      add\n        /* \".deps/github/succinctlabs/sp1-contracts/contracts/src/v5.0.0/Groth16Verifier.sol\":21117:21145  pairings[ 8] = DELTA_NEG_X_1 */\n      dup2\n      dup2\n      mstore\n      pop\n      pop\n        /* \".deps/github/succinctlabs/sp1-contracts/contracts/src/v5.0.0/Groth16Verifier.sol\":4035:4111  1807939758600928081661535078044266309701426477869595321608690071623627252461 */\n      0x03ff41f4ba0c37fe2caf27354d28e4b8f83d3b76777a63b327d736bffb0122ed\n        /* \".deps/github/succinctlabs/sp1-contracts/contracts/src/v5.0.0/Groth16Verifier.sol\":21159:21167  pairings */\n      dup12\n        /* \".deps/github/succinctlabs/sp1-contracts/contracts/src/v5.0.0/Groth16Verifier.sol\":21169:21170  9 */\n      0x09\n        /* \".deps/github/succinctlabs/sp1-contracts/contracts/src/v5.0.0/Groth16Verifier.sol\":21159:21171  pairings[ 9] */\n      0x18\n      dup2\n      lt\n      tag_146\n      jumpi\n      tag_147\n      tag_57\n      jump\t// in\n    tag_147:\n    tag_146:\n      0x20\n      mul\n      add\n        /* \".deps/github/succinctlabs/sp1-contracts/contracts/src/v5.0.0/Groth16Verifier.sol\":21159:21187  pairings[ 9] = DELTA_NEG_X_0 */\n      dup2\n      dup2\n      mstore\n      pop\n      pop\n        /* \".deps/github/succinctlabs/sp1-contracts/contracts/src/v5.0.0/Groth16Verifier.sol\":4382:4457  707821308472421780425082520239282952693670279239989952629124761519869475067 */\n      0x01909cd7827e0278e6b60843a4abc7b111d7f8b2725cd5902a6b20da7a2938fb\n        /* \".deps/github/succinctlabs/sp1-contracts/contracts/src/v5.0.0/Groth16Verifier.sol\":21201:21209  pairings */\n      dup12\n        /* \".deps/github/succinctlabs/sp1-contracts/contracts/src/v5.0.0/Groth16Verifier.sol\":21210:21212  10 */\n      0x0a\n        /* \".deps/github/succinctlabs/sp1-contracts/contracts/src/v5.0.0/Groth16Verifier.sol\":21201:21213  pairings[10] */\n      0x18\n      dup2\n      lt\n      tag_148\n      jumpi\n      tag_149\n      tag_57\n      jump\t// in\n    tag_149:\n    tag_148:\n      0x20\n      mul\n      add\n        /* \".deps/github/succinctlabs/sp1-contracts/contracts/src/v5.0.0/Groth16Verifier.sol\":21201:21229  pairings[10] = DELTA_NEG_Y_1 */\n      dup2\n      dup2\n      mstore\n      pop\n      pop\n        /* \".deps/github/succinctlabs/sp1-contracts/contracts/src/v5.0.0/Groth16Verifier.sol\":4266:4343  11385252965472363874004017020523979267854101512663014352368174256411716100034 */\n      0x192bd3274441670227b4f69a44005b8711266e474227c6439ca25ca8e1ec1fc2\n        /* \".deps/github/succinctlabs/sp1-contracts/contracts/src/v5.0.0/Groth16Verifier.sol\":21243:21251  pairings */\n      dup12\n        /* \".deps/github/succinctlabs/sp1-contracts/contracts/src/v5.0.0/Groth16Verifier.sol\":21252:21254  11 */\n      0x0b\n        /* \".deps/github/succinctlabs/sp1-contracts/contracts/src/v5.0.0/Groth16Verifier.sol\":21243:21255  pairings[11] */\n      0x18\n      dup2\n      lt\n      tag_150\n      jumpi\n      tag_151\n      tag_57\n      jump\t// in\n    tag_151:\n    tag_150:\n      0x20\n      mul\n      add\n        /* \".deps/github/succinctlabs/sp1-contracts/contracts/src/v5.0.0/Groth16Verifier.sol\":21243:21271  pairings[11] = DELTA_NEG_Y_0 */\n      dup2\n      dup2\n      mstore\n      pop\n      pop\n        /* \".deps/github/succinctlabs/sp1-contracts/contracts/src/v5.0.0/Groth16Verifier.sol\":2745:2822  20491192805390485299153009773594534940189261866228447918068658471970481763042 */\n      0x2d4d9aa7e302d9df41749d5507949d05dbea33fbb16c643b22f599a2be6df2e2\n        /* \".deps/github/succinctlabs/sp1-contracts/contracts/src/v5.0.0/Groth16Verifier.sol\":21311:21319  pairings */\n      dup12\n        /* \".deps/github/succinctlabs/sp1-contracts/contracts/src/v5.0.0/Groth16Verifier.sol\":21320:21322  12 */\n      0x0c\n        /* \".deps/github/succinctlabs/sp1-contracts/contracts/src/v5.0.0/Groth16Verifier.sol\":21311:21323  pairings[12] */\n      0x18\n      dup2\n      lt\n      tag_152\n      jumpi\n      tag_153\n      tag_57\n      jump\t// in\n    tag_153:\n    tag_152:\n      0x20\n      mul\n      add\n        /* \".deps/github/succinctlabs/sp1-contracts/contracts/src/v5.0.0/Groth16Verifier.sol\":21311:21333  pairings[12] = ALPHA_X */\n      dup2\n      dup2\n      mstore\n      pop\n      pop\n        /* \".deps/github/succinctlabs/sp1-contracts/contracts/src/v5.0.0/Groth16Verifier.sol\":2855:2931  9383485363053290200918347156157836566562967994039712273449902621266178545958 */\n      0x14bedd503c37ceb061d8ec60209fe345ce89830a19230301f076caff004d1926\n        /* \".deps/github/succinctlabs/sp1-contracts/contracts/src/v5.0.0/Groth16Verifier.sol\":21347:21355  pairings */\n      dup12\n        /* \".deps/github/succinctlabs/sp1-contracts/contracts/src/v5.0.0/Groth16Verifier.sol\":21356:21358  13 */\n      0x0d\n        /* \".deps/github/succinctlabs/sp1-contracts/contracts/src/v5.0.0/Groth16Verifier.sol\":21347:21359  pairings[13] */\n      0x18\n      dup2\n      lt\n      tag_154\n      jumpi\n      tag_155\n      tag_57\n      jump\t// in\n    tag_155:\n    tag_154:\n      0x20\n      mul\n      add\n        /* \".deps/github/succinctlabs/sp1-contracts/contracts/src/v5.0.0/Groth16Verifier.sol\":21347:21369  pairings[13] = ALPHA_Y */\n      dup2\n      dup2\n      mstore\n      pop\n      pop\n        /* \".deps/github/succinctlabs/sp1-contracts/contracts/src/v5.0.0/Groth16Verifier.sol\":3131:3207  4252822878758300859123897981450591353533073413197771768651442665752259397132 */\n      0x0967032fcbf776d1afc985f88877f182d38480a653f2decaa9794cbc3bf3060c\n        /* \".deps/github/succinctlabs/sp1-contracts/contracts/src/v5.0.0/Groth16Verifier.sol\":21383:21391  pairings */\n      dup12\n        /* \".deps/github/succinctlabs/sp1-contracts/contracts/src/v5.0.0/Groth16Verifier.sol\":21392:21394  14 */\n      0x0e\n        /* \".deps/github/succinctlabs/sp1-contracts/contracts/src/v5.0.0/Groth16Verifier.sol\":21383:21395  pairings[14] */\n      0x18\n      dup2\n      lt\n      tag_156\n      jumpi\n      tag_157\n      tag_57\n      jump\t// in\n    tag_157:\n    tag_156:\n      0x20\n      mul\n      add\n        /* \".deps/github/succinctlabs/sp1-contracts/contracts/src/v5.0.0/Groth16Verifier.sol\":21383:21410  pairings[14] = BETA_NEG_X_1 */\n      dup2\n      dup2\n      mstore\n      pop\n      pop\n        /* \".deps/github/succinctlabs/sp1-contracts/contracts/src/v5.0.0/Groth16Verifier.sol\":3017:3093  6375614351688725206403948262868962793625744043794305715222011528459656738731 */\n      0x0e187847ad4c798374d0d6732bf501847dd68bc0e071241e0213bc7fc13db7ab\n        /* \".deps/github/succinctlabs/sp1-contracts/contracts/src/v5.0.0/Groth16Verifier.sol\":21424:21432  pairings */\n      dup12\n        /* \".deps/github/succinctlabs/sp1-contracts/contracts/src/v5.0.0/Groth16Verifier.sol\":21433:21435  15 */\n      0x0f\n        /* \".deps/github/succinctlabs/sp1-contracts/contracts/src/v5.0.0/Groth16Verifier.sol\":21424:21436  pairings[15] */\n      0x18\n      dup2\n      lt\n      tag_158\n      jumpi\n      tag_159\n      tag_57\n      jump\t// in\n    tag_159:\n    tag_158:\n      0x20\n      mul\n      add\n        /* \".deps/github/succinctlabs/sp1-contracts/contracts/src/v5.0.0/Groth16Verifier.sol\":21424:21451  pairings[15] = BETA_NEG_X_0 */\n      dup2\n      dup2\n      mstore\n      pop\n      pop\n        /* \".deps/github/succinctlabs/sp1-contracts/contracts/src/v5.0.0/Groth16Verifier.sol\":3360:3434  41207766310529818958173054109690360505148424997958324311878202295167071904 */\n      0x1752a100a72fdf1e5a5d6ea841cc20ec838bccfcf7bd559e79f1c9c759b6a0\n        /* \".deps/github/succinctlabs/sp1-contracts/contracts/src/v5.0.0/Groth16Verifier.sol\":21465:21473  pairings */\n      dup12\n        /* \".deps/github/succinctlabs/sp1-contracts/contracts/src/v5.0.0/Groth16Verifier.sol\":21474:21476  16 */\n      0x10\n        /* \".deps/github/succinctlabs/sp1-contracts/contracts/src/v5.0.0/Groth16Verifier.sol\":21465:21477  pairings[16] */\n      0x18\n      dup2\n      lt\n      tag_160\n      jumpi\n      tag_161\n      tag_57\n      jump\t// in\n    tag_161:\n    tag_160:\n      0x20\n      mul\n      add\n        /* \".deps/github/succinctlabs/sp1-contracts/contracts/src/v5.0.0/Groth16Verifier.sol\":21465:21492  pairings[16] = BETA_NEG_Y_1 */\n      dup2\n      dup2\n      mstore\n      pop\n      pop\n        /* \".deps/github/succinctlabs/sp1-contracts/contracts/src/v5.0.0/Groth16Verifier.sol\":3245:3322  11383000245469012944693504663162918391286475477077232690815866754273895001727 */\n      0x192a8cc13cd9f762871f21e43451c6ca9eeab2cb2987c4e366a185c25dac2e7f\n        /* \".deps/github/succinctlabs/sp1-contracts/contracts/src/v5.0.0/Groth16Verifier.sol\":21506:21514  pairings */\n      dup12\n        /* \".deps/github/succinctlabs/sp1-contracts/contracts/src/v5.0.0/Groth16Verifier.sol\":21515:21517  17 */\n      0x11\n        /* \".deps/github/succinctlabs/sp1-contracts/contracts/src/v5.0.0/Groth16Verifier.sol\":21506:21518  pairings[17] */\n      0x18\n      dup2\n      lt\n      tag_162\n      jumpi\n      tag_163\n      tag_57\n      jump\t// in\n    tag_163:\n    tag_162:\n      0x20\n      mul\n      add\n        /* \".deps/github/succinctlabs/sp1-contracts/contracts/src/v5.0.0/Groth16Verifier.sol\":21506:21533  pairings[17] = BETA_NEG_Y_0 */\n      dup2\n      dup2\n      mstore\n      pop\n      pop\n        /* \".deps/github/succinctlabs/sp1-contracts/contracts/src/v5.0.0/Groth16Verifier.sol\":21591:21593  Lx */\n      dup2\n        /* \".deps/github/succinctlabs/sp1-contracts/contracts/src/v5.0.0/Groth16Verifier.sol\":21576:21584  pairings */\n      dup12\n        /* \".deps/github/succinctlabs/sp1-contracts/contracts/src/v5.0.0/Groth16Verifier.sol\":21585:21587  18 */\n      0x12\n        /* \".deps/github/succinctlabs/sp1-contracts/contracts/src/v5.0.0/Groth16Verifier.sol\":21576:21588  pairings[18] */\n      0x18\n      dup2\n      lt\n      tag_164\n      jumpi\n      tag_165\n      tag_57\n      jump\t// in\n    tag_165:\n    tag_164:\n      0x20\n      mul\n      add\n        /* \".deps/github/succinctlabs/sp1-contracts/contracts/src/v5.0.0/Groth16Verifier.sol\":21576:21593  pairings[18] = Lx */\n      dup2\n      dup2\n      mstore\n      pop\n      pop\n        /* \".deps/github/succinctlabs/sp1-contracts/contracts/src/v5.0.0/Groth16Verifier.sol\":21622:21624  Ly */\n      dup1\n        /* \".deps/github/succinctlabs/sp1-contracts/contracts/src/v5.0.0/Groth16Verifier.sol\":21607:21615  pairings */\n      dup12\n        /* \".deps/github/succinctlabs/sp1-contracts/contracts/src/v5.0.0/Groth16Verifier.sol\":21616:21618  19 */\n      0x13\n        /* \".deps/github/succinctlabs/sp1-contracts/contracts/src/v5.0.0/Groth16Verifier.sol\":21607:21619  pairings[19] */\n      0x18\n      dup2\n      lt\n      tag_166\n      jumpi\n      tag_167\n      tag_57\n      jump\t// in\n    tag_167:\n    tag_166:\n      0x20\n      mul\n      add\n        /* \".deps/github/succinctlabs/sp1-contracts/contracts/src/v5.0.0/Groth16Verifier.sol\":21607:21624  pairings[19] = Ly */\n      dup2\n      dup2\n      mstore\n      pop\n      pop\n        /* \".deps/github/succinctlabs/sp1-contracts/contracts/src/v5.0.0/Groth16Verifier.sol\":3638:3715  11559732032986387107991004021392285783925812861821192530917403151452391805634 */\n      0x198e9393920d483a7260bfb731fb5d25f1aa493335a9e71297e485b7aef312c2\n        /* \".deps/github/succinctlabs/sp1-contracts/contracts/src/v5.0.0/Groth16Verifier.sol\":21638:21646  pairings */\n      dup12\n        /* \".deps/github/succinctlabs/sp1-contracts/contracts/src/v5.0.0/Groth16Verifier.sol\":21647:21649  20 */\n      0x14\n        /* \".deps/github/succinctlabs/sp1-contracts/contracts/src/v5.0.0/Groth16Verifier.sol\":21638:21650  pairings[20] */\n      0x18\n      dup2\n      lt\n      tag_168\n      jumpi\n      tag_169\n      tag_57\n      jump\t// in\n    tag_169:\n    tag_168:\n      0x20\n      mul\n      add\n        /* \".deps/github/succinctlabs/sp1-contracts/contracts/src/v5.0.0/Groth16Verifier.sol\":21638:21666  pairings[20] = GAMMA_NEG_X_1 */\n      dup2\n      dup2\n      mstore\n      pop\n      pop\n        /* \".deps/github/succinctlabs/sp1-contracts/contracts/src/v5.0.0/Groth16Verifier.sol\":3522:3599  10857046999023057135944570762232829481370756359578518086990519993285655852781 */\n      0x1800deef121f1e76426a00665e5c4479674322d4f75edadd46debd5cd992f6ed\n        /* \".deps/github/succinctlabs/sp1-contracts/contracts/src/v5.0.0/Groth16Verifier.sol\":21680:21688  pairings */\n      dup12\n        /* \".deps/github/succinctlabs/sp1-contracts/contracts/src/v5.0.0/Groth16Verifier.sol\":21689:21691  21 */\n      0x15\n        /* \".deps/github/succinctlabs/sp1-contracts/contracts/src/v5.0.0/Groth16Verifier.sol\":21680:21692  pairings[21] */\n      0x18\n      dup2\n      lt\n      tag_170\n      jumpi\n      tag_171\n      tag_57\n      jump\t// in\n    tag_171:\n    tag_170:\n      0x20\n      mul\n      add\n        /* \".deps/github/succinctlabs/sp1-contracts/contracts/src/v5.0.0/Groth16Verifier.sol\":21680:21708  pairings[21] = GAMMA_NEG_X_0 */\n      dup2\n      dup2\n      mstore\n      pop\n      pop\n        /* \".deps/github/succinctlabs/sp1-contracts/contracts/src/v5.0.0/Groth16Verifier.sol\":3870:3947  17805874995975841540914202342111839520379459829704422454583296818431106115052 */\n      0x275dc4a288d1afb3cbb1ac09187524c7db36395df7be3b99e673b13a075a65ec\n        /* \".deps/github/succinctlabs/sp1-contracts/contracts/src/v5.0.0/Groth16Verifier.sol\":21722:21730  pairings */\n      dup12\n        /* \".deps/github/succinctlabs/sp1-contracts/contracts/src/v5.0.0/Groth16Verifier.sol\":21731:21733  22 */\n      0x16\n        /* \".deps/github/succinctlabs/sp1-contracts/contracts/src/v5.0.0/Groth16Verifier.sol\":21722:21734  pairings[22] */\n      0x18\n      dup2\n      lt\n      tag_172\n      jumpi\n      tag_173\n      tag_57\n      jump\t// in\n    tag_173:\n    tag_172:\n      0x20\n      mul\n      add\n        /* \".deps/github/succinctlabs/sp1-contracts/contracts/src/v5.0.0/Groth16Verifier.sol\":21722:21750  pairings[22] = GAMMA_NEG_Y_1 */\n      dup2\n      dup2\n      mstore\n      pop\n      pop\n        /* \".deps/github/succinctlabs/sp1-contracts/contracts/src/v5.0.0/Groth16Verifier.sol\":3754:3831  13392588948715843804641432497768002650278120570034223513918757245338268106653 */\n      0x1d9befcd05a5323e6da4d435f3b617cdb3af83285c2df711ef39c01571827f9d\n        /* \".deps/github/succinctlabs/sp1-contracts/contracts/src/v5.0.0/Groth16Verifier.sol\":21764:21772  pairings */\n      dup12\n        /* \".deps/github/succinctlabs/sp1-contracts/contracts/src/v5.0.0/Groth16Verifier.sol\":21773:21775  23 */\n      0x17\n        /* \".deps/github/succinctlabs/sp1-contracts/contracts/src/v5.0.0/Groth16Verifier.sol\":21764:21776  pairings[23] */\n      0x18\n      dup2\n      lt\n      tag_174\n      jumpi\n      tag_175\n      tag_57\n      jump\t// in\n    tag_175:\n    tag_174:\n      0x20\n      mul\n      add\n        /* \".deps/github/succinctlabs/sp1-contracts/contracts/src/v5.0.0/Groth16Verifier.sol\":21764:21792  pairings[23] = GAMMA_NEG_Y_0 */\n      dup2\n      dup2\n      mstore\n      pop\n      pop\n        /* \".deps/github/succinctlabs/sp1-contracts/contracts/src/v5.0.0/Groth16Verifier.sol\":21846:21858  bool success */\n      0x00\n        /* \".deps/github/succinctlabs/sp1-contracts/contracts/src/v5.0.0/Groth16Verifier.sol\":21872:21896  uint256[1] memory output */\n      tag_176\n      tag_177\n      jump\t// in\n    tag_176:\n        /* \".deps/github/succinctlabs/sp1-contracts/contracts/src/v5.0.0/Groth16Verifier.sol\":22026:22030  0x20 */\n      0x20\n        /* \".deps/github/succinctlabs/sp1-contracts/contracts/src/v5.0.0/Groth16Verifier.sol\":22018:22024  output */\n      dup2\n        /* \".deps/github/succinctlabs/sp1-contracts/contracts/src/v5.0.0/Groth16Verifier.sol\":22011:22016  0x300 */\n      0x0300\n        /* \".deps/github/succinctlabs/sp1-contracts/contracts/src/v5.0.0/Groth16Verifier.sol\":22001:22009  pairings */\n      dup16\n        /* \".deps/github/succinctlabs/sp1-contracts/contracts/src/v5.0.0/Groth16Verifier.sol\":21982:21999  PRECOMPILE_VERIFY */\n      0x08\n        /* \".deps/github/succinctlabs/sp1-contracts/contracts/src/v5.0.0/Groth16Verifier.sol\":21975:21980  gas() */\n      gas\n        /* \".deps/github/succinctlabs/sp1-contracts/contracts/src/v5.0.0/Groth16Verifier.sol\":21964:22031  staticcall(gas(), PRECOMPILE_VERIFY, pairings, 0x300, output, 0x20) */\n      staticcall\n        /* \".deps/github/succinctlabs/sp1-contracts/contracts/src/v5.0.0/Groth16Verifier.sol\":21953:22031  success := staticcall(gas(), PRECOMPILE_VERIFY, pairings, 0x300, output, 0x20) */\n      swap2\n      pop\n        /* \".deps/github/succinctlabs/sp1-contracts/contracts/src/v5.0.0/Groth16Verifier.sol\":22063:22070  success */\n      dup2\n        /* \".deps/github/succinctlabs/sp1-contracts/contracts/src/v5.0.0/Groth16Verifier.sol\":22062:22070  !success */\n      iszero\n        /* \".deps/github/succinctlabs/sp1-contracts/contracts/src/v5.0.0/Groth16Verifier.sol\":22062:22088  !success || output[0] != 1 */\n      dup1\n      tag_178\n      jumpi\n      pop\n        /* \".deps/github/succinctlabs/sp1-contracts/contracts/src/v5.0.0/Groth16Verifier.sol\":22087:22088  1 */\n      0x01\n        /* \".deps/github/succinctlabs/sp1-contracts/contracts/src/v5.0.0/Groth16Verifier.sol\":22074:22080  output */\n      dup2\n        /* \".deps/github/succinctlabs/sp1-contracts/contracts/src/v5.0.0/Groth16Verifier.sol\":22081:22082  0 */\n      0x00\n        /* \".deps/github/succinctlabs/sp1-contracts/contracts/src/v5.0.0/Groth16Verifier.sol\":22074:22083  output[0] */\n      0x01\n      dup2\n      lt\n      tag_179\n      jumpi\n      tag_180\n      tag_57\n      jump\t// in\n    tag_180:\n    tag_179:\n      0x20\n      mul\n      add\n      mload\n        /* \".deps/github/succinctlabs/sp1-contracts/contracts/src/v5.0.0/Groth16Verifier.sol\":22074:22088  output[0] != 1 */\n      eq\n      iszero\n        /* \".deps/github/succinctlabs/sp1-contracts/contracts/src/v5.0.0/Groth16Verifier.sol\":22062:22088  !success || output[0] != 1 */\n    tag_178:\n        /* \".deps/github/succinctlabs/sp1-contracts/contracts/src/v5.0.0/Groth16Verifier.sol\":22058:22305  if (!success || output[0] != 1) {... */\n      iszero\n      tag_181\n      jumpi\n        /* \".deps/github/succinctlabs/sp1-contracts/contracts/src/v5.0.0/Groth16Verifier.sol\":22276:22290  ProofInvalid() */\n      mload(0x40)\n      0x7fcdd1f400000000000000000000000000000000000000000000000000000000\n      dup2\n      mstore\n      0x04\n      add\n      mload(0x40)\n      dup1\n      swap2\n      sub\n      swap1\n      revert\n        /* \".deps/github/succinctlabs/sp1-contracts/contracts/src/v5.0.0/Groth16Verifier.sol\":22058:22305  if (!success || output[0] != 1) {... */\n    tag_181:\n        /* \".deps/github/succinctlabs/sp1-contracts/contracts/src/v5.0.0/Groth16Verifier.sol\":20252:22315  {... */\n      pop\n      pop\n      pop\n      pop\n      pop\n      pop\n      pop\n      pop\n      pop\n      pop\n      pop\n      pop\n        /* \".deps/github/succinctlabs/sp1-contracts/contracts/src/v5.0.0/Groth16Verifier.sol\":20204:22321  {... */\n      pop\n        /* \".deps/github/succinctlabs/sp1-contracts/contracts/src/v5.0.0/Groth16Verifier.sol\":20075:22321  function verifyCompressedProof(... */\n      pop\n      pop\n      jump\t// out\n        /* \".deps/github/succinctlabs/sp1-contracts/contracts/src/v5.0.0/SP1VerifierGroth16.sol\":870:959  function VERSION() external pure returns (string memory) {... */\n    tag_39:\n        /* \".deps/github/succinctlabs/sp1-contracts/contracts/src/v5.0.0/SP1VerifierGroth16.sol\":912:925  string memory */\n      0x60\n        /* \".deps/github/succinctlabs/sp1-contracts/contracts/src/v5.0.0/SP1VerifierGroth16.sol\":937:952  return \"v5.0.0\" */\n      mload(0x40)\n      dup1\n      0x40\n      add\n      0x40\n      mstore\n      dup1\n      0x06\n      dup2\n      mstore\n      0x20\n      add\n      0x76352e302e300000000000000000000000000000000000000000000000000000\n      dup2\n      mstore\n      pop\n      swap1\n      pop\n        /* \".deps/github/succinctlabs/sp1-contracts/contracts/src/v5.0.0/SP1VerifierGroth16.sol\":870:959  function VERSION() external pure returns (string memory) {... */\n      swap1\n      jump\t// out\n        /* \".deps/github/succinctlabs/sp1-contracts/contracts/src/v5.0.0/Groth16Verifier.sol\":9747:10447  function compress_g1(uint256 x, uint256 y) internal view returns (uint256 c) {... */\n    tag_76:\n        /* \".deps/github/succinctlabs/sp1-contracts/contracts/src/v5.0.0/Groth16Verifier.sol\":9813:9822  uint256 c */\n      0x00\n        /* \".deps/github/succinctlabs/sp1-contracts/contracts/src/v5.0.0/Groth16Verifier.sol\":1396:1462  0x30644e72e131a029b85045b68181585d97816a916871ca8d3c208c16d87cfd47 */\n      0x30644e72e131a029b85045b68181585d97816a916871ca8d3c208c16d87cfd47\n        /* \".deps/github/succinctlabs/sp1-contracts/contracts/src/v5.0.0/Groth16Verifier.sol\":9838:9839  x */\n      dup4\n        /* \".deps/github/succinctlabs/sp1-contracts/contracts/src/v5.0.0/Groth16Verifier.sol\":9838:9844  x >= P */\n      lt\n      iszero\n        /* \".deps/github/succinctlabs/sp1-contracts/contracts/src/v5.0.0/Groth16Verifier.sol\":9838:9854  x >= P || y >= P */\n      dup1\n      tag_184\n      jumpi\n      pop\n        /* \".deps/github/succinctlabs/sp1-contracts/contracts/src/v5.0.0/Groth16Verifier.sol\":1396:1462  0x30644e72e131a029b85045b68181585d97816a916871ca8d3c208c16d87cfd47 */\n      0x30644e72e131a029b85045b68181585d97816a916871ca8d3c208c16d87cfd47\n        /* \".deps/github/succinctlabs/sp1-contracts/contracts/src/v5.0.0/Groth16Verifier.sol\":9848:9849  y */\n      dup3\n        /* \".deps/github/succinctlabs/sp1-contracts/contracts/src/v5.0.0/Groth16Verifier.sol\":9848:9854  y >= P */\n      lt\n      iszero\n        /* \".deps/github/succinctlabs/sp1-contracts/contracts/src/v5.0.0/Groth16Verifier.sol\":9838:9854  x >= P || y >= P */\n    tag_184:\n        /* \".deps/github/succinctlabs/sp1-contracts/contracts/src/v5.0.0/Groth16Verifier.sol\":9834:9940  if (x >= P || y >= P) {... */\n      iszero\n      tag_185\n      jumpi\n        /* \".deps/github/succinctlabs/sp1-contracts/contracts/src/v5.0.0/Groth16Verifier.sol\":9915:9929  ProofInvalid() */\n      mload(0x40)\n      0x7fcdd1f400000000000000000000000000000000000000000000000000000000\n      dup2\n      mstore\n      0x04\n      add\n      mload(0x40)\n      dup1\n      swap2\n      sub\n      swap1\n      revert\n        /* \".deps/github/succinctlabs/sp1-contracts/contracts/src/v5.0.0/Groth16Verifier.sol\":9834:9940  if (x >= P || y >= P) {... */\n    tag_185:\n        /* \".deps/github/succinctlabs/sp1-contracts/contracts/src/v5.0.0/Groth16Verifier.sol\":9958:9959  0 */\n      0x00\n        /* \".deps/github/succinctlabs/sp1-contracts/contracts/src/v5.0.0/Groth16Verifier.sol\":9953:9954  x */\n      dup4\n        /* \".deps/github/succinctlabs/sp1-contracts/contracts/src/v5.0.0/Groth16Verifier.sol\":9953:9959  x == 0 */\n      eq\n        /* \".deps/github/succinctlabs/sp1-contracts/contracts/src/v5.0.0/Groth16Verifier.sol\":9953:9969  x == 0 && y == 0 */\n      dup1\n      iszero\n      tag_186\n      jumpi\n      pop\n        /* \".deps/github/succinctlabs/sp1-contracts/contracts/src/v5.0.0/Groth16Verifier.sol\":9968:9969  0 */\n      0x00\n        /* \".deps/github/succinctlabs/sp1-contracts/contracts/src/v5.0.0/Groth16Verifier.sol\":9963:9964  y */\n      dup3\n        /* \".deps/github/succinctlabs/sp1-contracts/contracts/src/v5.0.0/Groth16Verifier.sol\":9963:9969  y == 0 */\n      eq\n        /* \".deps/github/succinctlabs/sp1-contracts/contracts/src/v5.0.0/Groth16Verifier.sol\":9953:9969  x == 0 && y == 0 */\n    tag_186:\n        /* \".deps/github/succinctlabs/sp1-contracts/contracts/src/v5.0.0/Groth16Verifier.sol\":9949:10037  if (x == 0 && y == 0) {... */\n      iszero\n      tag_187\n      jumpi\n        /* \".deps/github/succinctlabs/sp1-contracts/contracts/src/v5.0.0/Groth16Verifier.sol\":10025:10026  0 */\n      0x00\n        /* \".deps/github/succinctlabs/sp1-contracts/contracts/src/v5.0.0/Groth16Verifier.sol\":10018:10026  return 0 */\n      swap1\n      pop\n      jump(tag_183)\n        /* \".deps/github/succinctlabs/sp1-contracts/contracts/src/v5.0.0/Groth16Verifier.sol\":9949:10037  if (x == 0 && y == 0) {... */\n    tag_187:\n        /* \".deps/github/succinctlabs/sp1-contracts/contracts/src/v5.0.0/Groth16Verifier.sol\":10139:10152  uint256 y_pos */\n      0x00\n        /* \".deps/github/succinctlabs/sp1-contracts/contracts/src/v5.0.0/Groth16Verifier.sol\":10155:10207  sqrt_Fp(addmod(mulmod(mulmod(x, x, P), x, P), 3, P)) */\n      tag_188\n        /* \".deps/github/succinctlabs/sp1-contracts/contracts/src/v5.0.0/Groth16Verifier.sol\":1396:1462  0x30644e72e131a029b85045b68181585d97816a916871ca8d3c208c16d87cfd47 */\n      0x30644e72e131a029b85045b68181585d97816a916871ca8d3c208c16d87cfd47\n        /* \".deps/github/succinctlabs/sp1-contracts/contracts/src/v5.0.0/Groth16Verifier.sol\":10163:10206  addmod(mulmod(mulmod(x, x, P), x, P), 3, P) */\n      dup1\n      tag_189\n      jumpi\n      tag_190\n      tag_191\n      jump\t// in\n    tag_190:\n    tag_189:\n        /* \".deps/github/succinctlabs/sp1-contracts/contracts/src/v5.0.0/Groth16Verifier.sol\":10201:10202  3 */\n      0x03\n        /* \".deps/github/succinctlabs/sp1-contracts/contracts/src/v5.0.0/Groth16Verifier.sol\":1396:1462  0x30644e72e131a029b85045b68181585d97816a916871ca8d3c208c16d87cfd47 */\n      0x30644e72e131a029b85045b68181585d97816a916871ca8d3c208c16d87cfd47\n        /* \".deps/github/succinctlabs/sp1-contracts/contracts/src/v5.0.0/Groth16Verifier.sol\":10170:10199  mulmod(mulmod(x, x, P), x, P) */\n      dup1\n      tag_192\n      jumpi\n      tag_193\n      tag_191\n      jump\t// in\n    tag_193:\n    tag_192:\n        /* \".deps/github/succinctlabs/sp1-contracts/contracts/src/v5.0.0/Groth16Verifier.sol\":10194:10195  x */\n      dup8\n        /* \".deps/github/succinctlabs/sp1-contracts/contracts/src/v5.0.0/Groth16Verifier.sol\":1396:1462  0x30644e72e131a029b85045b68181585d97816a916871ca8d3c208c16d87cfd47 */\n      0x30644e72e131a029b85045b68181585d97816a916871ca8d3c208c16d87cfd47\n        /* \".deps/github/succinctlabs/sp1-contracts/contracts/src/v5.0.0/Groth16Verifier.sol\":10177:10192  mulmod(x, x, P) */\n      dup1\n      tag_194\n      jumpi\n      tag_195\n      tag_191\n      jump\t// in\n    tag_195:\n    tag_194:\n        /* \".deps/github/succinctlabs/sp1-contracts/contracts/src/v5.0.0/Groth16Verifier.sol\":10187:10188  x */\n      dup10\n        /* \".deps/github/succinctlabs/sp1-contracts/contracts/src/v5.0.0/Groth16Verifier.sol\":10184:10185  x */\n      dup11\n        /* \".deps/github/succinctlabs/sp1-contracts/contracts/src/v5.0.0/Groth16Verifier.sol\":10177:10192  mulmod(x, x, P) */\n      mulmod\n        /* \".deps/github/succinctlabs/sp1-contracts/contracts/src/v5.0.0/Groth16Verifier.sol\":10170:10199  mulmod(mulmod(x, x, P), x, P) */\n      mulmod\n        /* \".deps/github/succinctlabs/sp1-contracts/contracts/src/v5.0.0/Groth16Verifier.sol\":10163:10206  addmod(mulmod(mulmod(x, x, P), x, P), 3, P) */\n      addmod\n        /* \".deps/github/succinctlabs/sp1-contracts/contracts/src/v5.0.0/Groth16Verifier.sol\":10155:10162  sqrt_Fp */\n      tag_196\n        /* \".deps/github/succinctlabs/sp1-contracts/contracts/src/v5.0.0/Groth16Verifier.sol\":10155:10207  sqrt_Fp(addmod(mulmod(mulmod(x, x, P), x, P), 3, P)) */\n      jump\t// in\n    tag_188:\n        /* \".deps/github/succinctlabs/sp1-contracts/contracts/src/v5.0.0/Groth16Verifier.sol\":10139:10207  uint256 y_pos = sqrt_Fp(addmod(mulmod(mulmod(x, x, P), x, P), 3, P)) */\n      swap1\n      pop\n        /* \".deps/github/succinctlabs/sp1-contracts/contracts/src/v5.0.0/Groth16Verifier.sol\":10226:10231  y_pos */\n      dup1\n        /* \".deps/github/succinctlabs/sp1-contracts/contracts/src/v5.0.0/Groth16Verifier.sol\":10221:10222  y */\n      dup4\n        /* \".deps/github/succinctlabs/sp1-contracts/contracts/src/v5.0.0/Groth16Verifier.sol\":10221:10231  y == y_pos */\n      sub\n        /* \".deps/github/succinctlabs/sp1-contracts/contracts/src/v5.0.0/Groth16Verifier.sol\":10217:10441  if (y == y_pos) {... */\n      tag_197\n      jumpi\n        /* \".deps/github/succinctlabs/sp1-contracts/contracts/src/v5.0.0/Groth16Verifier.sol\":10265:10266  0 */\n      0x00\n        /* \".deps/github/succinctlabs/sp1-contracts/contracts/src/v5.0.0/Groth16Verifier.sol\":10260:10261  1 */\n      0x01\n        /* \".deps/github/succinctlabs/sp1-contracts/contracts/src/v5.0.0/Groth16Verifier.sol\":10255:10256  x */\n      dup6\n        /* \".deps/github/succinctlabs/sp1-contracts/contracts/src/v5.0.0/Groth16Verifier.sol\":10255:10261  x << 1 */\n      swap1\n      shl\n        /* \".deps/github/succinctlabs/sp1-contracts/contracts/src/v5.0.0/Groth16Verifier.sol\":10254:10266  (x << 1) | 0 */\n      or\n        /* \".deps/github/succinctlabs/sp1-contracts/contracts/src/v5.0.0/Groth16Verifier.sol\":10247:10266  return (x << 1) | 0 */\n      swap2\n      pop\n      pop\n      jump(tag_183)\n        /* \".deps/github/succinctlabs/sp1-contracts/contracts/src/v5.0.0/Groth16Verifier.sol\":10217:10441  if (y == y_pos) {... */\n    tag_197:\n        /* \".deps/github/succinctlabs/sp1-contracts/contracts/src/v5.0.0/Groth16Verifier.sol\":10292:10305  negate(y_pos) */\n      tag_199\n        /* \".deps/github/succinctlabs/sp1-contracts/contracts/src/v5.0.0/Groth16Verifier.sol\":10299:10304  y_pos */\n      dup2\n        /* \".deps/github/succinctlabs/sp1-contracts/contracts/src/v5.0.0/Groth16Verifier.sol\":10292:10298  negate */\n      tag_200\n        /* \".deps/github/succinctlabs/sp1-contracts/contracts/src/v5.0.0/Groth16Verifier.sol\":10292:10305  negate(y_pos) */\n      jump\t// in\n    tag_199:\n        /* \".deps/github/succinctlabs/sp1-contracts/contracts/src/v5.0.0/Groth16Verifier.sol\":10287:10288  y */\n      dup4\n        /* \".deps/github/succinctlabs/sp1-contracts/contracts/src/v5.0.0/Groth16Verifier.sol\":10287:10305  y == negate(y_pos) */\n      sub\n        /* \".deps/github/succinctlabs/sp1-contracts/contracts/src/v5.0.0/Groth16Verifier.sol\":10283:10441  if (y == negate(y_pos)) {... */\n      tag_201\n      jumpi\n        /* \".deps/github/succinctlabs/sp1-contracts/contracts/src/v5.0.0/Groth16Verifier.sol\":10339:10340  1 */\n      0x01\n        /* \".deps/github/succinctlabs/sp1-contracts/contracts/src/v5.0.0/Groth16Verifier.sol\":10334:10335  1 */\n      dup1\n        /* \".deps/github/succinctlabs/sp1-contracts/contracts/src/v5.0.0/Groth16Verifier.sol\":10329:10330  x */\n      dup6\n        /* \".deps/github/succinctlabs/sp1-contracts/contracts/src/v5.0.0/Groth16Verifier.sol\":10329:10335  x << 1 */\n      swap1\n      shl\n        /* \".deps/github/succinctlabs/sp1-contracts/contracts/src/v5.0.0/Groth16Verifier.sol\":10328:10340  (x << 1) | 1 */\n      or\n        /* \".deps/github/succinctlabs/sp1-contracts/contracts/src/v5.0.0/Groth16Verifier.sol\":10321:10340  return (x << 1) | 1 */\n      swap2\n      pop\n      pop\n      jump(tag_183)\n        /* \".deps/github/succinctlabs/sp1-contracts/contracts/src/v5.0.0/Groth16Verifier.sol\":10283:10441  if (y == negate(y_pos)) {... */\n    tag_201:\n        /* \".deps/github/succinctlabs/sp1-contracts/contracts/src/v5.0.0/Groth16Verifier.sol\":10416:10430  ProofInvalid() */\n      mload(0x40)\n      0x7fcdd1f400000000000000000000000000000000000000000000000000000000\n      dup2\n      mstore\n      0x04\n      add\n      mload(0x40)\n      dup1\n      swap2\n      sub\n      swap1\n      revert\n        /* \".deps/github/succinctlabs/sp1-contracts/contracts/src/v5.0.0/Groth16Verifier.sol\":9747:10447  function compress_g1(uint256 x, uint256 y) internal view returns (uint256 c) {... */\n    tag_183:\n      swap3\n      swap2\n      pop\n      pop\n      jump\t// out\n        /* \".deps/github/succinctlabs/sp1-contracts/contracts/src/v5.0.0/Groth16Verifier.sol\":12442:14102  function compress_g2(uint256 x0, uint256 x1, uint256 y0, uint256 y1)... */\n    tag_88:\n        /* \".deps/github/succinctlabs/sp1-contracts/contracts/src/v5.0.0/Groth16Verifier.sol\":12538:12548  uint256 c0 */\n      0x00\n        /* \".deps/github/succinctlabs/sp1-contracts/contracts/src/v5.0.0/Groth16Verifier.sol\":12550:12560  uint256 c1 */\n      0x00\n        /* \".deps/github/succinctlabs/sp1-contracts/contracts/src/v5.0.0/Groth16Verifier.sol\":1396:1462  0x30644e72e131a029b85045b68181585d97816a916871ca8d3c208c16d87cfd47 */\n      0x30644e72e131a029b85045b68181585d97816a916871ca8d3c208c16d87cfd47\n        /* \".deps/github/succinctlabs/sp1-contracts/contracts/src/v5.0.0/Groth16Verifier.sol\":12576:12578  x0 */\n      dup7\n        /* \".deps/github/succinctlabs/sp1-contracts/contracts/src/v5.0.0/Groth16Verifier.sol\":12576:12583  x0 >= P */\n      lt\n      iszero\n        /* \".deps/github/succinctlabs/sp1-contracts/contracts/src/v5.0.0/Groth16Verifier.sol\":12576:12594  x0 >= P || x1 >= P */\n      dup1\n      tag_204\n      jumpi\n      pop\n        /* \".deps/github/succinctlabs/sp1-contracts/contracts/src/v5.0.0/Groth16Verifier.sol\":1396:1462  0x30644e72e131a029b85045b68181585d97816a916871ca8d3c208c16d87cfd47 */\n      0x30644e72e131a029b85045b68181585d97816a916871ca8d3c208c16d87cfd47\n        /* \".deps/github/succinctlabs/sp1-contracts/contracts/src/v5.0.0/Groth16Verifier.sol\":12587:12589  x1 */\n      dup6\n        /* \".deps/github/succinctlabs/sp1-contracts/contracts/src/v5.0.0/Groth16Verifier.sol\":12587:12594  x1 >= P */\n      lt\n      iszero\n        /* \".deps/github/succinctlabs/sp1-contracts/contracts/src/v5.0.0/Groth16Verifier.sol\":12576:12594  x0 >= P || x1 >= P */\n    tag_204:\n        /* \".deps/github/succinctlabs/sp1-contracts/contracts/src/v5.0.0/Groth16Verifier.sol\":12576:12605  x0 >= P || x1 >= P || y0 >= P */\n      dup1\n      tag_205\n      jumpi\n      pop\n        /* \".deps/github/succinctlabs/sp1-contracts/contracts/src/v5.0.0/Groth16Verifier.sol\":1396:1462  0x30644e72e131a029b85045b68181585d97816a916871ca8d3c208c16d87cfd47 */\n      0x30644e72e131a029b85045b68181585d97816a916871ca8d3c208c16d87cfd47\n        /* \".deps/github/succinctlabs/sp1-contracts/contracts/src/v5.0.0/Groth16Verifier.sol\":12598:12600  y0 */\n      dup5\n        /* \".deps/github/succinctlabs/sp1-contracts/contracts/src/v5.0.0/Groth16Verifier.sol\":12598:12605  y0 >= P */\n      lt\n      iszero\n        /* \".deps/github/succinctlabs/sp1-contracts/contracts/src/v5.0.0/Groth16Verifier.sol\":12576:12605  x0 >= P || x1 >= P || y0 >= P */\n    tag_205:\n        /* \".deps/github/succinctlabs/sp1-contracts/contracts/src/v5.0.0/Groth16Verifier.sol\":12576:12616  x0 >= P || x1 >= P || y0 >= P || y1 >= P */\n      dup1\n      tag_206\n      jumpi\n      pop\n        /* \".deps/github/succinctlabs/sp1-contracts/contracts/src/v5.0.0/Groth16Verifier.sol\":1396:1462  0x30644e72e131a029b85045b68181585d97816a916871ca8d3c208c16d87cfd47 */\n      0x30644e72e131a029b85045b68181585d97816a916871ca8d3c208c16d87cfd47\n        /* \".deps/github/succinctlabs/sp1-contracts/contracts/src/v5.0.0/Groth16Verifier.sol\":12609:12611  y1 */\n      dup4\n        /* \".deps/github/succinctlabs/sp1-contracts/contracts/src/v5.0.0/Groth16Verifier.sol\":12609:12616  y1 >= P */\n      lt\n      iszero\n        /* \".deps/github/succinctlabs/sp1-contracts/contracts/src/v5.0.0/Groth16Verifier.sol\":12576:12616  x0 >= P || x1 >= P || y0 >= P || y1 >= P */\n    tag_206:\n        /* \".deps/github/succinctlabs/sp1-contracts/contracts/src/v5.0.0/Groth16Verifier.sol\":12572:12702  if (x0 >= P || x1 >= P || y0 >= P || y1 >= P) {... */\n      iszero\n      tag_207\n      jumpi\n        /* \".deps/github/succinctlabs/sp1-contracts/contracts/src/v5.0.0/Groth16Verifier.sol\":12677:12691  ProofInvalid() */\n      mload(0x40)\n      0x7fcdd1f400000000000000000000000000000000000000000000000000000000\n      dup2\n      mstore\n      0x04\n      add\n      mload(0x40)\n      dup1\n      swap2\n      sub\n      swap1\n      revert\n        /* \".deps/github/succinctlabs/sp1-contracts/contracts/src/v5.0.0/Groth16Verifier.sol\":12572:12702  if (x0 >= P || x1 >= P || y0 >= P || y1 >= P) {... */\n    tag_207:\n        /* \".deps/github/succinctlabs/sp1-contracts/contracts/src/v5.0.0/Groth16Verifier.sol\":12738:12739  0 */\n      0x00\n        /* \".deps/github/succinctlabs/sp1-contracts/contracts/src/v5.0.0/Groth16Verifier.sol\":12731:12733  y1 */\n      dup4\n        /* \".deps/github/succinctlabs/sp1-contracts/contracts/src/v5.0.0/Groth16Verifier.sol\":12726:12728  y0 */\n      dup6\n        /* \".deps/github/succinctlabs/sp1-contracts/contracts/src/v5.0.0/Groth16Verifier.sol\":12721:12723  x1 */\n      dup8\n        /* \".deps/github/succinctlabs/sp1-contracts/contracts/src/v5.0.0/Groth16Verifier.sol\":12716:12718  x0 */\n      dup10\n        /* \".deps/github/succinctlabs/sp1-contracts/contracts/src/v5.0.0/Groth16Verifier.sol\":12716:12723  x0 | x1 */\n      or\n        /* \".deps/github/succinctlabs/sp1-contracts/contracts/src/v5.0.0/Groth16Verifier.sol\":12716:12728  x0 | x1 | y0 */\n      or\n        /* \".deps/github/succinctlabs/sp1-contracts/contracts/src/v5.0.0/Groth16Verifier.sol\":12716:12733  x0 | x1 | y0 | y1 */\n      or\n        /* \".deps/github/succinctlabs/sp1-contracts/contracts/src/v5.0.0/Groth16Verifier.sol\":12715:12739  (x0 | x1 | y0 | y1) == 0 */\n      sub\n        /* \".deps/github/succinctlabs/sp1-contracts/contracts/src/v5.0.0/Groth16Verifier.sol\":12711:12812  if ((x0 | x1 | y0 | y1) == 0) {... */\n      tag_208\n      jumpi\n        /* \".deps/github/succinctlabs/sp1-contracts/contracts/src/v5.0.0/Groth16Verifier.sol\":12796:12797  0 */\n      0x00\n        /* \".deps/github/succinctlabs/sp1-contracts/contracts/src/v5.0.0/Groth16Verifier.sol\":12799:12800  0 */\n      0x00\n        /* \".deps/github/succinctlabs/sp1-contracts/contracts/src/v5.0.0/Groth16Verifier.sol\":12788:12801  return (0, 0) */\n      swap2\n      pop\n      swap2\n      pop\n      jump(tag_203)\n        /* \".deps/github/succinctlabs/sp1-contracts/contracts/src/v5.0.0/Groth16Verifier.sol\":12711:12812  if ((x0 | x1 | y0 | y1) == 0) {... */\n    tag_208:\n        /* \".deps/github/succinctlabs/sp1-contracts/contracts/src/v5.0.0/Groth16Verifier.sol\":12918:12932  uint256 y0_pos */\n      0x00\n        /* \".deps/github/succinctlabs/sp1-contracts/contracts/src/v5.0.0/Groth16Verifier.sol\":12942:12956  uint256 y1_pos */\n      0x00\n        /* \".deps/github/succinctlabs/sp1-contracts/contracts/src/v5.0.0/Groth16Verifier.sol\":12980:12992  uint256 n3ab */\n      0x00\n        /* \".deps/github/succinctlabs/sp1-contracts/contracts/src/v5.0.0/Groth16Verifier.sol\":1396:1462  0x30644e72e131a029b85045b68181585d97816a916871ca8d3c208c16d87cfd47 */\n      0x30644e72e131a029b85045b68181585d97816a916871ca8d3c208c16d87cfd47\n        /* \".deps/github/succinctlabs/sp1-contracts/contracts/src/v5.0.0/Groth16Verifier.sol\":12995:13028  mulmod(mulmod(x0, x1, P), P-3, P) */\n      dup1\n      tag_209\n      jumpi\n      tag_210\n      tag_191\n      jump\t// in\n    tag_210:\n    tag_209:\n        /* \".deps/github/succinctlabs/sp1-contracts/contracts/src/v5.0.0/Groth16Verifier.sol\":13023:13024  3 */\n      0x03\n        /* \".deps/github/succinctlabs/sp1-contracts/contracts/src/v5.0.0/Groth16Verifier.sol\":1396:1462  0x30644e72e131a029b85045b68181585d97816a916871ca8d3c208c16d87cfd47 */\n      0x30644e72e131a029b85045b68181585d97816a916871ca8d3c208c16d87cfd47\n        /* \".deps/github/succinctlabs/sp1-contracts/contracts/src/v5.0.0/Groth16Verifier.sol\":13021:13024  P-3 */\n      tag_211\n      swap2\n      swap1\n      tag_212\n      jump\t// in\n    tag_211:\n        /* \".deps/github/succinctlabs/sp1-contracts/contracts/src/v5.0.0/Groth16Verifier.sol\":1396:1462  0x30644e72e131a029b85045b68181585d97816a916871ca8d3c208c16d87cfd47 */\n      0x30644e72e131a029b85045b68181585d97816a916871ca8d3c208c16d87cfd47\n        /* \".deps/github/succinctlabs/sp1-contracts/contracts/src/v5.0.0/Groth16Verifier.sol\":13002:13019  mulmod(x0, x1, P) */\n      dup1\n      tag_213\n      jumpi\n      tag_214\n      tag_191\n      jump\t// in\n    tag_214:\n    tag_213:\n        /* \".deps/github/succinctlabs/sp1-contracts/contracts/src/v5.0.0/Groth16Verifier.sol\":13013:13015  x1 */\n      dup11\n        /* \".deps/github/succinctlabs/sp1-contracts/contracts/src/v5.0.0/Groth16Verifier.sol\":13009:13011  x0 */\n      dup13\n        /* \".deps/github/succinctlabs/sp1-contracts/contracts/src/v5.0.0/Groth16Verifier.sol\":13002:13019  mulmod(x0, x1, P) */\n      mulmod\n        /* \".deps/github/succinctlabs/sp1-contracts/contracts/src/v5.0.0/Groth16Verifier.sol\":12995:13028  mulmod(mulmod(x0, x1, P), P-3, P) */\n      mulmod\n        /* \".deps/github/succinctlabs/sp1-contracts/contracts/src/v5.0.0/Groth16Verifier.sol\":12980:13028  uint256 n3ab = mulmod(mulmod(x0, x1, P), P-3, P) */\n      swap1\n      pop\n        /* \".deps/github/succinctlabs/sp1-contracts/contracts/src/v5.0.0/Groth16Verifier.sol\":13042:13053  uint256 a_3 */\n      0x00\n        /* \".deps/github/succinctlabs/sp1-contracts/contracts/src/v5.0.0/Groth16Verifier.sol\":1396:1462  0x30644e72e131a029b85045b68181585d97816a916871ca8d3c208c16d87cfd47 */\n      0x30644e72e131a029b85045b68181585d97816a916871ca8d3c208c16d87cfd47\n        /* \".deps/github/succinctlabs/sp1-contracts/contracts/src/v5.0.0/Groth16Verifier.sol\":13056:13088  mulmod(mulmod(x0, x0, P), x0, P) */\n      dup1\n      tag_215\n      jumpi\n      tag_216\n      tag_191\n      jump\t// in\n    tag_216:\n    tag_215:\n        /* \".deps/github/succinctlabs/sp1-contracts/contracts/src/v5.0.0/Groth16Verifier.sol\":13082:13084  x0 */\n      dup11\n        /* \".deps/github/succinctlabs/sp1-contracts/contracts/src/v5.0.0/Groth16Verifier.sol\":1396:1462  0x30644e72e131a029b85045b68181585d97816a916871ca8d3c208c16d87cfd47 */\n      0x30644e72e131a029b85045b68181585d97816a916871ca8d3c208c16d87cfd47\n        /* \".deps/github/succinctlabs/sp1-contracts/contracts/src/v5.0.0/Groth16Verifier.sol\":13063:13080  mulmod(x0, x0, P) */\n      dup1\n      tag_217\n      jumpi\n      tag_218\n      tag_191\n      jump\t// in\n    tag_218:\n    tag_217:\n        /* \".deps/github/succinctlabs/sp1-contracts/contracts/src/v5.0.0/Groth16Verifier.sol\":13074:13076  x0 */\n      dup13\n        /* \".deps/github/succinctlabs/sp1-contracts/contracts/src/v5.0.0/Groth16Verifier.sol\":13070:13072  x0 */\n      dup14\n        /* \".deps/github/succinctlabs/sp1-contracts/contracts/src/v5.0.0/Groth16Verifier.sol\":13063:13080  mulmod(x0, x0, P) */\n      mulmod\n        /* \".deps/github/succinctlabs/sp1-contracts/contracts/src/v5.0.0/Groth16Verifier.sol\":13056:13088  mulmod(mulmod(x0, x0, P), x0, P) */\n      mulmod\n        /* \".deps/github/succinctlabs/sp1-contracts/contracts/src/v5.0.0/Groth16Verifier.sol\":13042:13088  uint256 a_3 = mulmod(mulmod(x0, x0, P), x0, P) */\n      swap1\n      pop\n        /* \".deps/github/succinctlabs/sp1-contracts/contracts/src/v5.0.0/Groth16Verifier.sol\":13102:13113  uint256 b_3 */\n      0x00\n        /* \".deps/github/succinctlabs/sp1-contracts/contracts/src/v5.0.0/Groth16Verifier.sol\":1396:1462  0x30644e72e131a029b85045b68181585d97816a916871ca8d3c208c16d87cfd47 */\n      0x30644e72e131a029b85045b68181585d97816a916871ca8d3c208c16d87cfd47\n        /* \".deps/github/succinctlabs/sp1-contracts/contracts/src/v5.0.0/Groth16Verifier.sol\":13116:13148  mulmod(mulmod(x1, x1, P), x1, P) */\n      dup1\n      tag_219\n      jumpi\n      tag_220\n      tag_191\n      jump\t// in\n    tag_220:\n    tag_219:\n        /* \".deps/github/succinctlabs/sp1-contracts/contracts/src/v5.0.0/Groth16Verifier.sol\":13142:13144  x1 */\n      dup11\n        /* \".deps/github/succinctlabs/sp1-contracts/contracts/src/v5.0.0/Groth16Verifier.sol\":1396:1462  0x30644e72e131a029b85045b68181585d97816a916871ca8d3c208c16d87cfd47 */\n      0x30644e72e131a029b85045b68181585d97816a916871ca8d3c208c16d87cfd47\n        /* \".deps/github/succinctlabs/sp1-contracts/contracts/src/v5.0.0/Groth16Verifier.sol\":13123:13140  mulmod(x1, x1, P) */\n      dup1\n      tag_221\n      jumpi\n      tag_222\n      tag_191\n      jump\t// in\n    tag_222:\n    tag_221:\n        /* \".deps/github/succinctlabs/sp1-contracts/contracts/src/v5.0.0/Groth16Verifier.sol\":13134:13136  x1 */\n      dup13\n        /* \".deps/github/succinctlabs/sp1-contracts/contracts/src/v5.0.0/Groth16Verifier.sol\":13130:13132  x1 */\n      dup14\n        /* \".deps/github/succinctlabs/sp1-contracts/contracts/src/v5.0.0/Groth16Verifier.sol\":13123:13140  mulmod(x1, x1, P) */\n      mulmod\n        /* \".deps/github/succinctlabs/sp1-contracts/contracts/src/v5.0.0/Groth16Verifier.sol\":13116:13148  mulmod(mulmod(x1, x1, P), x1, P) */\n      mulmod\n        /* \".deps/github/succinctlabs/sp1-contracts/contracts/src/v5.0.0/Groth16Verifier.sol\":13102:13148  uint256 b_3 = mulmod(mulmod(x1, x1, P), x1, P) */\n      swap1\n      pop\n        /* \".deps/github/succinctlabs/sp1-contracts/contracts/src/v5.0.0/Groth16Verifier.sol\":1396:1462  0x30644e72e131a029b85045b68181585d97816a916871ca8d3c208c16d87cfd47 */\n      0x30644e72e131a029b85045b68181585d97816a916871ca8d3c208c16d87cfd47\n        /* \".deps/github/succinctlabs/sp1-contracts/contracts/src/v5.0.0/Groth16Verifier.sol\":13171:13236  addmod(FRACTION_27_82_FP, addmod(a_3, mulmod(n3ab, x1, P), P), P) */\n      dup1\n      tag_223\n      jumpi\n      tag_224\n      tag_191\n      jump\t// in\n    tag_224:\n    tag_223:\n        /* \".deps/github/succinctlabs/sp1-contracts/contracts/src/v5.0.0/Groth16Verifier.sol\":1396:1462  0x30644e72e131a029b85045b68181585d97816a916871ca8d3c208c16d87cfd47 */\n      0x30644e72e131a029b85045b68181585d97816a916871ca8d3c208c16d87cfd47\n        /* \".deps/github/succinctlabs/sp1-contracts/contracts/src/v5.0.0/Groth16Verifier.sol\":13197:13232  addmod(a_3, mulmod(n3ab, x1, P), P) */\n      dup1\n      tag_225\n      jumpi\n      tag_226\n      tag_191\n      jump\t// in\n    tag_226:\n    tag_225:\n        /* \".deps/github/succinctlabs/sp1-contracts/contracts/src/v5.0.0/Groth16Verifier.sol\":1396:1462  0x30644e72e131a029b85045b68181585d97816a916871ca8d3c208c16d87cfd47 */\n      0x30644e72e131a029b85045b68181585d97816a916871ca8d3c208c16d87cfd47\n        /* \".deps/github/succinctlabs/sp1-contracts/contracts/src/v5.0.0/Groth16Verifier.sol\":13209:13228  mulmod(n3ab, x1, P) */\n      dup1\n      tag_227\n      jumpi\n      tag_228\n      tag_191\n      jump\t// in\n    tag_228:\n    tag_227:\n        /* \".deps/github/succinctlabs/sp1-contracts/contracts/src/v5.0.0/Groth16Verifier.sol\":13222:13224  x1 */\n      dup13\n        /* \".deps/github/succinctlabs/sp1-contracts/contracts/src/v5.0.0/Groth16Verifier.sol\":13216:13220  n3ab */\n      dup7\n        /* \".deps/github/succinctlabs/sp1-contracts/contracts/src/v5.0.0/Groth16Verifier.sol\":13209:13228  mulmod(n3ab, x1, P) */\n      mulmod\n        /* \".deps/github/succinctlabs/sp1-contracts/contracts/src/v5.0.0/Groth16Verifier.sol\":13204:13207  a_3 */\n      dup5\n        /* \".deps/github/succinctlabs/sp1-contracts/contracts/src/v5.0.0/Groth16Verifier.sol\":13197:13232  addmod(a_3, mulmod(n3ab, x1, P), P) */\n      addmod\n        /* \".deps/github/succinctlabs/sp1-contracts/contracts/src/v5.0.0/Groth16Verifier.sol\":2215:2281  0x2b149d40ceb8aaae81be18991be06ac3b5b4c5e559dbefa33267e6dc24a138e5 */\n      0x2b149d40ceb8aaae81be18991be06ac3b5b4c5e559dbefa33267e6dc24a138e5\n        /* \".deps/github/succinctlabs/sp1-contracts/contracts/src/v5.0.0/Groth16Verifier.sol\":13171:13236  addmod(FRACTION_27_82_FP, addmod(a_3, mulmod(n3ab, x1, P), P), P) */\n      addmod\n        /* \".deps/github/succinctlabs/sp1-contracts/contracts/src/v5.0.0/Groth16Verifier.sol\":13162:13236  y0_pos = addmod(FRACTION_27_82_FP, addmod(a_3, mulmod(n3ab, x1, P), P), P) */\n      swap5\n      pop\n        /* \".deps/github/succinctlabs/sp1-contracts/contracts/src/v5.0.0/Groth16Verifier.sol\":13259:13332  negate(addmod(FRACTION_3_82_FP,  addmod(b_3, mulmod(n3ab, x0, P), P), P)) */\n      tag_229\n        /* \".deps/github/succinctlabs/sp1-contracts/contracts/src/v5.0.0/Groth16Verifier.sol\":1396:1462  0x30644e72e131a029b85045b68181585d97816a916871ca8d3c208c16d87cfd47 */\n      0x30644e72e131a029b85045b68181585d97816a916871ca8d3c208c16d87cfd47\n        /* \".deps/github/succinctlabs/sp1-contracts/contracts/src/v5.0.0/Groth16Verifier.sol\":13266:13331  addmod(FRACTION_3_82_FP,  addmod(b_3, mulmod(n3ab, x0, P), P), P) */\n      dup1\n      tag_230\n      jumpi\n      tag_231\n      tag_191\n      jump\t// in\n    tag_231:\n    tag_230:\n        /* \".deps/github/succinctlabs/sp1-contracts/contracts/src/v5.0.0/Groth16Verifier.sol\":1396:1462  0x30644e72e131a029b85045b68181585d97816a916871ca8d3c208c16d87cfd47 */\n      0x30644e72e131a029b85045b68181585d97816a916871ca8d3c208c16d87cfd47\n        /* \".deps/github/succinctlabs/sp1-contracts/contracts/src/v5.0.0/Groth16Verifier.sol\":13292:13327  addmod(b_3, mulmod(n3ab, x0, P), P) */\n      dup1\n      tag_232\n      jumpi\n      tag_233\n      tag_191\n      jump\t// in\n    tag_233:\n    tag_232:\n        /* \".deps/github/succinctlabs/sp1-contracts/contracts/src/v5.0.0/Groth16Verifier.sol\":1396:1462  0x30644e72e131a029b85045b68181585d97816a916871ca8d3c208c16d87cfd47 */\n      0x30644e72e131a029b85045b68181585d97816a916871ca8d3c208c16d87cfd47\n        /* \".deps/github/succinctlabs/sp1-contracts/contracts/src/v5.0.0/Groth16Verifier.sol\":13304:13323  mulmod(n3ab, x0, P) */\n      dup1\n      tag_234\n      jumpi\n      tag_235\n      tag_191\n      jump\t// in\n    tag_235:\n    tag_234:\n        /* \".deps/github/succinctlabs/sp1-contracts/contracts/src/v5.0.0/Groth16Verifier.sol\":13317:13319  x0 */\n      dup15\n        /* \".deps/github/succinctlabs/sp1-contracts/contracts/src/v5.0.0/Groth16Verifier.sol\":13311:13315  n3ab */\n      dup8\n        /* \".deps/github/succinctlabs/sp1-contracts/contracts/src/v5.0.0/Groth16Verifier.sol\":13304:13323  mulmod(n3ab, x0, P) */\n      mulmod\n        /* \".deps/github/succinctlabs/sp1-contracts/contracts/src/v5.0.0/Groth16Verifier.sol\":13299:13302  b_3 */\n      dup5\n        /* \".deps/github/succinctlabs/sp1-contracts/contracts/src/v5.0.0/Groth16Verifier.sol\":13292:13327  addmod(b_3, mulmod(n3ab, x0, P), P) */\n      addmod\n        /* \".deps/github/succinctlabs/sp1-contracts/contracts/src/v5.0.0/Groth16Verifier.sol\":2323:2389  0x2fcd3ac2a640a154eb23960892a85a68f031ca0c8344b23a577dcf1052b9e775 */\n      0x2fcd3ac2a640a154eb23960892a85a68f031ca0c8344b23a577dcf1052b9e775\n        /* \".deps/github/succinctlabs/sp1-contracts/contracts/src/v5.0.0/Groth16Verifier.sol\":13266:13331  addmod(FRACTION_3_82_FP,  addmod(b_3, mulmod(n3ab, x0, P), P), P) */\n      addmod\n        /* \".deps/github/succinctlabs/sp1-contracts/contracts/src/v5.0.0/Groth16Verifier.sol\":13259:13265  negate */\n      tag_200\n        /* \".deps/github/succinctlabs/sp1-contracts/contracts/src/v5.0.0/Groth16Verifier.sol\":13259:13332  negate(addmod(FRACTION_3_82_FP,  addmod(b_3, mulmod(n3ab, x0, P), P), P)) */\n      jump\t// in\n    tag_229:\n        /* \".deps/github/succinctlabs/sp1-contracts/contracts/src/v5.0.0/Groth16Verifier.sol\":13250:13332  y1_pos = negate(addmod(FRACTION_3_82_FP,  addmod(b_3, mulmod(n3ab, x0, P), P), P)) */\n      swap4\n      pop\n        /* \".deps/github/succinctlabs/sp1-contracts/contracts/src/v5.0.0/Groth16Verifier.sol\":12966:13343  {... */\n      pop\n      pop\n      pop\n        /* \".deps/github/succinctlabs/sp1-contracts/contracts/src/v5.0.0/Groth16Verifier.sol\":13451:13460  bool hint */\n      0x00\n        /* \".deps/github/succinctlabs/sp1-contracts/contracts/src/v5.0.0/Groth16Verifier.sol\":13484:13493  uint256 d */\n      0x00\n        /* \".deps/github/succinctlabs/sp1-contracts/contracts/src/v5.0.0/Groth16Verifier.sol\":13496:13568  sqrt_Fp(addmod(mulmod(y0_pos, y0_pos, P), mulmod(y1_pos, y1_pos, P), P)) */\n      tag_236\n        /* \".deps/github/succinctlabs/sp1-contracts/contracts/src/v5.0.0/Groth16Verifier.sol\":1396:1462  0x30644e72e131a029b85045b68181585d97816a916871ca8d3c208c16d87cfd47 */\n      0x30644e72e131a029b85045b68181585d97816a916871ca8d3c208c16d87cfd47\n        /* \".deps/github/succinctlabs/sp1-contracts/contracts/src/v5.0.0/Groth16Verifier.sol\":13504:13567  addmod(mulmod(y0_pos, y0_pos, P), mulmod(y1_pos, y1_pos, P), P) */\n      dup1\n      tag_237\n      jumpi\n      tag_238\n      tag_191\n      jump\t// in\n    tag_238:\n    tag_237:\n        /* \".deps/github/succinctlabs/sp1-contracts/contracts/src/v5.0.0/Groth16Verifier.sol\":1396:1462  0x30644e72e131a029b85045b68181585d97816a916871ca8d3c208c16d87cfd47 */\n      0x30644e72e131a029b85045b68181585d97816a916871ca8d3c208c16d87cfd47\n        /* \".deps/github/succinctlabs/sp1-contracts/contracts/src/v5.0.0/Groth16Verifier.sol\":13538:13563  mulmod(y1_pos, y1_pos, P) */\n      dup1\n      tag_239\n      jumpi\n      tag_240\n      tag_191\n      jump\t// in\n    tag_240:\n    tag_239:\n        /* \".deps/github/succinctlabs/sp1-contracts/contracts/src/v5.0.0/Groth16Verifier.sol\":13553:13559  y1_pos */\n      dup6\n        /* \".deps/github/succinctlabs/sp1-contracts/contracts/src/v5.0.0/Groth16Verifier.sol\":13545:13551  y1_pos */\n      dup7\n        /* \".deps/github/succinctlabs/sp1-contracts/contracts/src/v5.0.0/Groth16Verifier.sol\":13538:13563  mulmod(y1_pos, y1_pos, P) */\n      mulmod\n        /* \".deps/github/succinctlabs/sp1-contracts/contracts/src/v5.0.0/Groth16Verifier.sol\":1396:1462  0x30644e72e131a029b85045b68181585d97816a916871ca8d3c208c16d87cfd47 */\n      0x30644e72e131a029b85045b68181585d97816a916871ca8d3c208c16d87cfd47\n        /* \".deps/github/succinctlabs/sp1-contracts/contracts/src/v5.0.0/Groth16Verifier.sol\":13511:13536  mulmod(y0_pos, y0_pos, P) */\n      dup1\n      tag_241\n      jumpi\n      tag_242\n      tag_191\n      jump\t// in\n    tag_242:\n    tag_241:\n        /* \".deps/github/succinctlabs/sp1-contracts/contracts/src/v5.0.0/Groth16Verifier.sol\":13526:13532  y0_pos */\n      dup8\n        /* \".deps/github/succinctlabs/sp1-contracts/contracts/src/v5.0.0/Groth16Verifier.sol\":13518:13524  y0_pos */\n      dup9\n        /* \".deps/github/succinctlabs/sp1-contracts/contracts/src/v5.0.0/Groth16Verifier.sol\":13511:13536  mulmod(y0_pos, y0_pos, P) */\n      mulmod\n        /* \".deps/github/succinctlabs/sp1-contracts/contracts/src/v5.0.0/Groth16Verifier.sol\":13504:13567  addmod(mulmod(y0_pos, y0_pos, P), mulmod(y1_pos, y1_pos, P), P) */\n      addmod\n        /* \".deps/github/succinctlabs/sp1-contracts/contracts/src/v5.0.0/Groth16Verifier.sol\":13496:13503  sqrt_Fp */\n      tag_196\n        /* \".deps/github/succinctlabs/sp1-contracts/contracts/src/v5.0.0/Groth16Verifier.sol\":13496:13568  sqrt_Fp(addmod(mulmod(y0_pos, y0_pos, P), mulmod(y1_pos, y1_pos, P), P)) */\n      jump\t// in\n    tag_236:\n        /* \".deps/github/succinctlabs/sp1-contracts/contracts/src/v5.0.0/Groth16Verifier.sol\":13484:13568  uint256 d = sqrt_Fp(addmod(mulmod(y0_pos, y0_pos, P), mulmod(y1_pos, y1_pos, P), P)) */\n      swap1\n      pop\n        /* \".deps/github/succinctlabs/sp1-contracts/contracts/src/v5.0.0/Groth16Verifier.sol\":13590:13651  isSquare_Fp(mulmod(addmod(y0_pos, d, P), FRACTION_1_2_FP, P)) */\n      tag_243\n        /* \".deps/github/succinctlabs/sp1-contracts/contracts/src/v5.0.0/Groth16Verifier.sol\":1396:1462  0x30644e72e131a029b85045b68181585d97816a916871ca8d3c208c16d87cfd47 */\n      0x30644e72e131a029b85045b68181585d97816a916871ca8d3c208c16d87cfd47\n        /* \".deps/github/succinctlabs/sp1-contracts/contracts/src/v5.0.0/Groth16Verifier.sol\":13602:13650  mulmod(addmod(y0_pos, d, P), FRACTION_1_2_FP, P) */\n      dup1\n      tag_244\n      jumpi\n      tag_245\n      tag_191\n      jump\t// in\n    tag_245:\n    tag_244:\n        /* \".deps/github/succinctlabs/sp1-contracts/contracts/src/v5.0.0/Groth16Verifier.sol\":2106:2172  0x183227397098d014dc2822db40c0ac2ecbc0b548b438e5469e10460b6c3e7ea4 */\n      0x183227397098d014dc2822db40c0ac2ecbc0b548b438e5469e10460b6c3e7ea4\n        /* \".deps/github/succinctlabs/sp1-contracts/contracts/src/v5.0.0/Groth16Verifier.sol\":1396:1462  0x30644e72e131a029b85045b68181585d97816a916871ca8d3c208c16d87cfd47 */\n      0x30644e72e131a029b85045b68181585d97816a916871ca8d3c208c16d87cfd47\n        /* \".deps/github/succinctlabs/sp1-contracts/contracts/src/v5.0.0/Groth16Verifier.sol\":13609:13629  addmod(y0_pos, d, P) */\n      dup1\n      tag_246\n      jumpi\n      tag_247\n      tag_191\n      jump\t// in\n    tag_247:\n    tag_246:\n        /* \".deps/github/succinctlabs/sp1-contracts/contracts/src/v5.0.0/Groth16Verifier.sol\":13624:13625  d */\n      dup5\n        /* \".deps/github/succinctlabs/sp1-contracts/contracts/src/v5.0.0/Groth16Verifier.sol\":13616:13622  y0_pos */\n      dup9\n        /* \".deps/github/succinctlabs/sp1-contracts/contracts/src/v5.0.0/Groth16Verifier.sol\":13609:13629  addmod(y0_pos, d, P) */\n      addmod\n        /* \".deps/github/succinctlabs/sp1-contracts/contracts/src/v5.0.0/Groth16Verifier.sol\":13602:13650  mulmod(addmod(y0_pos, d, P), FRACTION_1_2_FP, P) */\n      mulmod\n        /* \".deps/github/succinctlabs/sp1-contracts/contracts/src/v5.0.0/Groth16Verifier.sol\":13590:13601  isSquare_Fp */\n      tag_248\n        /* \".deps/github/succinctlabs/sp1-contracts/contracts/src/v5.0.0/Groth16Verifier.sol\":13590:13651  isSquare_Fp(mulmod(addmod(y0_pos, d, P), FRACTION_1_2_FP, P)) */\n      jump\t// in\n    tag_243:\n        /* \".deps/github/succinctlabs/sp1-contracts/contracts/src/v5.0.0/Groth16Verifier.sol\":13589:13651  !isSquare_Fp(mulmod(addmod(y0_pos, d, P), FRACTION_1_2_FP, P)) */\n      iszero\n        /* \".deps/github/succinctlabs/sp1-contracts/contracts/src/v5.0.0/Groth16Verifier.sol\":13582:13651  hint = !isSquare_Fp(mulmod(addmod(y0_pos, d, P), FRACTION_1_2_FP, P)) */\n      swap2\n      pop\n        /* \".deps/github/succinctlabs/sp1-contracts/contracts/src/v5.0.0/Groth16Verifier.sol\":13470:13662  {... */\n      pop\n        /* \".deps/github/succinctlabs/sp1-contracts/contracts/src/v5.0.0/Groth16Verifier.sol\":13712:13742  sqrt_Fp2(y0_pos, y1_pos, hint) */\n      tag_249\n        /* \".deps/github/succinctlabs/sp1-contracts/contracts/src/v5.0.0/Groth16Verifier.sol\":13721:13727  y0_pos */\n      dup4\n        /* \".deps/github/succinctlabs/sp1-contracts/contracts/src/v5.0.0/Groth16Verifier.sol\":13729:13735  y1_pos */\n      dup4\n        /* \".deps/github/succinctlabs/sp1-contracts/contracts/src/v5.0.0/Groth16Verifier.sol\":13737:13741  hint */\n      dup4\n        /* \".deps/github/succinctlabs/sp1-contracts/contracts/src/v5.0.0/Groth16Verifier.sol\":13712:13720  sqrt_Fp2 */\n      tag_250\n        /* \".deps/github/succinctlabs/sp1-contracts/contracts/src/v5.0.0/Groth16Verifier.sol\":13712:13742  sqrt_Fp2(y0_pos, y1_pos, hint) */\n      jump\t// in\n    tag_249:\n        /* \".deps/github/succinctlabs/sp1-contracts/contracts/src/v5.0.0/Groth16Verifier.sol\":13693:13742  (y0_pos, y1_pos) = sqrt_Fp2(y0_pos, y1_pos, hint) */\n      dup1\n      swap4\n      pop\n      dup2\n      swap5\n      pop\n      pop\n      pop\n        /* \".deps/github/succinctlabs/sp1-contracts/contracts/src/v5.0.0/Groth16Verifier.sol\":13762:13768  y0_pos */\n      dup3\n        /* \".deps/github/succinctlabs/sp1-contracts/contracts/src/v5.0.0/Groth16Verifier.sol\":13756:13758  y0 */\n      dup8\n        /* \".deps/github/succinctlabs/sp1-contracts/contracts/src/v5.0.0/Groth16Verifier.sol\":13756:13768  y0 == y0_pos */\n      eq\n        /* \".deps/github/succinctlabs/sp1-contracts/contracts/src/v5.0.0/Groth16Verifier.sol\":13756:13784  y0 == y0_pos && y1 == y1_pos */\n      dup1\n      iszero\n      tag_251\n      jumpi\n      pop\n        /* \".deps/github/succinctlabs/sp1-contracts/contracts/src/v5.0.0/Groth16Verifier.sol\":13778:13784  y1_pos */\n      dup2\n        /* \".deps/github/succinctlabs/sp1-contracts/contracts/src/v5.0.0/Groth16Verifier.sol\":13772:13774  y1 */\n      dup7\n        /* \".deps/github/succinctlabs/sp1-contracts/contracts/src/v5.0.0/Groth16Verifier.sol\":13772:13784  y1 == y1_pos */\n      eq\n        /* \".deps/github/succinctlabs/sp1-contracts/contracts/src/v5.0.0/Groth16Verifier.sol\":13756:13784  y0 == y0_pos && y1 == y1_pos */\n    tag_251:\n        /* \".deps/github/succinctlabs/sp1-contracts/contracts/src/v5.0.0/Groth16Verifier.sol\":13752:14096  if (y0 == y0_pos && y1 == y1_pos) {... */\n      iszero\n      tag_252\n      jumpi\n        /* \".deps/github/succinctlabs/sp1-contracts/contracts/src/v5.0.0/Groth16Verifier.sol\":13835:13836  0 */\n      0x00\n        /* \".deps/github/succinctlabs/sp1-contracts/contracts/src/v5.0.0/Groth16Verifier.sol\":13818:13822  hint */\n      dup2\n        /* \".deps/github/succinctlabs/sp1-contracts/contracts/src/v5.0.0/Groth16Verifier.sol\":13818:13831  hint ? 2  : 0 */\n      tag_253\n      jumpi\n        /* \".deps/github/succinctlabs/sp1-contracts/contracts/src/v5.0.0/Groth16Verifier.sol\":13830:13831  0 */\n      0x00\n        /* \".deps/github/succinctlabs/sp1-contracts/contracts/src/v5.0.0/Groth16Verifier.sol\":13818:13831  hint ? 2  : 0 */\n      jump(tag_254)\n    tag_253:\n        /* \".deps/github/succinctlabs/sp1-contracts/contracts/src/v5.0.0/Groth16Verifier.sol\":13825:13826  2 */\n      0x02\n        /* \".deps/github/succinctlabs/sp1-contracts/contracts/src/v5.0.0/Groth16Verifier.sol\":13818:13831  hint ? 2  : 0 */\n    tag_254:\n        /* \".deps/github/succinctlabs/sp1-contracts/contracts/src/v5.0.0/Groth16Verifier.sol\":13805:13832  (x0 << 2) | (hint ? 2  : 0) */\n      0xff\n      and\n        /* \".deps/github/succinctlabs/sp1-contracts/contracts/src/v5.0.0/Groth16Verifier.sol\":13812:13813  2 */\n      0x02\n        /* \".deps/github/succinctlabs/sp1-contracts/contracts/src/v5.0.0/Groth16Verifier.sol\":13806:13808  x0 */\n      dup12\n        /* \".deps/github/succinctlabs/sp1-contracts/contracts/src/v5.0.0/Groth16Verifier.sol\":13806:13813  x0 << 2 */\n      swap1\n      shl\n        /* \".deps/github/succinctlabs/sp1-contracts/contracts/src/v5.0.0/Groth16Verifier.sol\":13805:13832  (x0 << 2) | (hint ? 2  : 0) */\n      or\n        /* \".deps/github/succinctlabs/sp1-contracts/contracts/src/v5.0.0/Groth16Verifier.sol\":13805:13836  (x0 << 2) | (hint ? 2  : 0) | 0 */\n      or\n        /* \".deps/github/succinctlabs/sp1-contracts/contracts/src/v5.0.0/Groth16Verifier.sol\":13800:13836  c0 = (x0 << 2) | (hint ? 2  : 0) | 0 */\n      swap5\n      pop\n        /* \".deps/github/succinctlabs/sp1-contracts/contracts/src/v5.0.0/Groth16Verifier.sol\":13855:13857  x1 */\n      dup8\n        /* \".deps/github/succinctlabs/sp1-contracts/contracts/src/v5.0.0/Groth16Verifier.sol\":13850:13857  c1 = x1 */\n      swap4\n      pop\n        /* \".deps/github/succinctlabs/sp1-contracts/contracts/src/v5.0.0/Groth16Verifier.sol\":13752:14096  if (y0 == y0_pos && y1 == y1_pos) {... */\n      jump(tag_255)\n    tag_252:\n        /* \".deps/github/succinctlabs/sp1-contracts/contracts/src/v5.0.0/Groth16Verifier.sol\":13884:13898  negate(y0_pos) */\n      tag_256\n        /* \".deps/github/succinctlabs/sp1-contracts/contracts/src/v5.0.0/Groth16Verifier.sol\":13891:13897  y0_pos */\n      dup4\n        /* \".deps/github/succinctlabs/sp1-contracts/contracts/src/v5.0.0/Groth16Verifier.sol\":13884:13890  negate */\n      tag_200\n        /* \".deps/github/succinctlabs/sp1-contracts/contracts/src/v5.0.0/Groth16Verifier.sol\":13884:13898  negate(y0_pos) */\n      jump\t// in\n    tag_256:\n        /* \".deps/github/succinctlabs/sp1-contracts/contracts/src/v5.0.0/Groth16Verifier.sol\":13878:13880  y0 */\n      dup8\n        /* \".deps/github/succinctlabs/sp1-contracts/contracts/src/v5.0.0/Groth16Verifier.sol\":13878:13898  y0 == negate(y0_pos) */\n      eq\n        /* \".deps/github/succinctlabs/sp1-contracts/contracts/src/v5.0.0/Groth16Verifier.sol\":13878:13922  y0 == negate(y0_pos) && y1 == negate(y1_pos) */\n      dup1\n      iszero\n      tag_257\n      jumpi\n      pop\n        /* \".deps/github/succinctlabs/sp1-contracts/contracts/src/v5.0.0/Groth16Verifier.sol\":13908:13922  negate(y1_pos) */\n      tag_258\n        /* \".deps/github/succinctlabs/sp1-contracts/contracts/src/v5.0.0/Groth16Verifier.sol\":13915:13921  y1_pos */\n      dup3\n        /* \".deps/github/succinctlabs/sp1-contracts/contracts/src/v5.0.0/Groth16Verifier.sol\":13908:13914  negate */\n      tag_200\n        /* \".deps/github/succinctlabs/sp1-contracts/contracts/src/v5.0.0/Groth16Verifier.sol\":13908:13922  negate(y1_pos) */\n      jump\t// in\n    tag_258:\n        /* \".deps/github/succinctlabs/sp1-contracts/contracts/src/v5.0.0/Groth16Verifier.sol\":13902:13904  y1 */\n      dup7\n        /* \".deps/github/succinctlabs/sp1-contracts/contracts/src/v5.0.0/Groth16Verifier.sol\":13902:13922  y1 == negate(y1_pos) */\n      eq\n        /* \".deps/github/succinctlabs/sp1-contracts/contracts/src/v5.0.0/Groth16Verifier.sol\":13878:13922  y0 == negate(y0_pos) && y1 == negate(y1_pos) */\n    tag_257:\n        /* \".deps/github/succinctlabs/sp1-contracts/contracts/src/v5.0.0/Groth16Verifier.sol\":13874:14096  if (y0 == negate(y0_pos) && y1 == negate(y1_pos)) {... */\n      iszero\n      tag_259\n      jumpi\n        /* \".deps/github/succinctlabs/sp1-contracts/contracts/src/v5.0.0/Groth16Verifier.sol\":13973:13974  1 */\n      0x01\n        /* \".deps/github/succinctlabs/sp1-contracts/contracts/src/v5.0.0/Groth16Verifier.sol\":13956:13960  hint */\n      dup2\n        /* \".deps/github/succinctlabs/sp1-contracts/contracts/src/v5.0.0/Groth16Verifier.sol\":13956:13969  hint ? 2  : 0 */\n      tag_260\n      jumpi\n        /* \".deps/github/succinctlabs/sp1-contracts/contracts/src/v5.0.0/Groth16Verifier.sol\":13968:13969  0 */\n      0x00\n        /* \".deps/github/succinctlabs/sp1-contracts/contracts/src/v5.0.0/Groth16Verifier.sol\":13956:13969  hint ? 2  : 0 */\n      jump(tag_261)\n    tag_260:\n        /* \".deps/github/succinctlabs/sp1-contracts/contracts/src/v5.0.0/Groth16Verifier.sol\":13963:13964  2 */\n      0x02\n        /* \".deps/github/succinctlabs/sp1-contracts/contracts/src/v5.0.0/Groth16Verifier.sol\":13956:13969  hint ? 2  : 0 */\n    tag_261:\n        /* \".deps/github/succinctlabs/sp1-contracts/contracts/src/v5.0.0/Groth16Verifier.sol\":13943:13970  (x0 << 2) | (hint ? 2  : 0) */\n      0xff\n      and\n        /* \".deps/github/succinctlabs/sp1-contracts/contracts/src/v5.0.0/Groth16Verifier.sol\":13950:13951  2 */\n      0x02\n        /* \".deps/github/succinctlabs/sp1-contracts/contracts/src/v5.0.0/Groth16Verifier.sol\":13944:13946  x0 */\n      dup12\n        /* \".deps/github/succinctlabs/sp1-contracts/contracts/src/v5.0.0/Groth16Verifier.sol\":13944:13951  x0 << 2 */\n      swap1\n      shl\n        /* \".deps/github/succinctlabs/sp1-contracts/contracts/src/v5.0.0/Groth16Verifier.sol\":13943:13970  (x0 << 2) | (hint ? 2  : 0) */\n      or\n        /* \".deps/github/succinctlabs/sp1-contracts/contracts/src/v5.0.0/Groth16Verifier.sol\":13943:13974  (x0 << 2) | (hint ? 2  : 0) | 1 */\n      or\n        /* \".deps/github/succinctlabs/sp1-contracts/contracts/src/v5.0.0/Groth16Verifier.sol\":13938:13974  c0 = (x0 << 2) | (hint ? 2  : 0) | 1 */\n      swap5\n      pop\n        /* \".deps/github/succinctlabs/sp1-contracts/contracts/src/v5.0.0/Groth16Verifier.sol\":13993:13995  x1 */\n      dup8\n        /* \".deps/github/succinctlabs/sp1-contracts/contracts/src/v5.0.0/Groth16Verifier.sol\":13988:13995  c1 = x1 */\n      swap4\n      pop\n        /* \".deps/github/succinctlabs/sp1-contracts/contracts/src/v5.0.0/Groth16Verifier.sol\":13874:14096  if (y0 == negate(y0_pos) && y1 == negate(y1_pos)) {... */\n      jump(tag_262)\n    tag_259:\n        /* \".deps/github/succinctlabs/sp1-contracts/contracts/src/v5.0.0/Groth16Verifier.sol\":14071:14085  ProofInvalid() */\n      mload(0x40)\n      0x7fcdd1f400000000000000000000000000000000000000000000000000000000\n      dup2\n      mstore\n      0x04\n      add\n      mload(0x40)\n      dup1\n      swap2\n      sub\n      swap1\n      revert\n        /* \".deps/github/succinctlabs/sp1-contracts/contracts/src/v5.0.0/Groth16Verifier.sol\":13874:14096  if (y0 == negate(y0_pos) && y1 == negate(y1_pos)) {... */\n    tag_262:\n        /* \".deps/github/succinctlabs/sp1-contracts/contracts/src/v5.0.0/Groth16Verifier.sol\":13752:14096  if (y0 == y0_pos && y1 == y1_pos) {... */\n    tag_255:\n        /* \".deps/github/succinctlabs/sp1-contracts/contracts/src/v5.0.0/Groth16Verifier.sol\":12562:14102  {... */\n      pop\n      pop\n      pop\n        /* \".deps/github/succinctlabs/sp1-contracts/contracts/src/v5.0.0/Groth16Verifier.sol\":12442:14102  function compress_g2(uint256 x0, uint256 x1, uint256 y0, uint256 y1)... */\n    tag_203:\n      swap5\n      pop\n      swap5\n      swap3\n      pop\n      pop\n      pop\n      jump\t// out\n        /* \".deps/github/succinctlabs/sp1-contracts/contracts/src/v5.0.0/Groth16Verifier.sol\":16718:18723  function publicInputMSM(uint256[2] calldata input)... */\n    tag_109:\n        /* \".deps/github/succinctlabs/sp1-contracts/contracts/src/v5.0.0/Groth16Verifier.sol\":16796:16805  uint256 x */\n      0x00\n        /* \".deps/github/succinctlabs/sp1-contracts/contracts/src/v5.0.0/Groth16Verifier.sol\":16807:16816  uint256 y */\n      0x00\n        /* \".deps/github/succinctlabs/sp1-contracts/contracts/src/v5.0.0/Groth16Verifier.sol\":17421:17433  bool success */\n      0x00\n        /* \".deps/github/succinctlabs/sp1-contracts/contracts/src/v5.0.0/Groth16Verifier.sol\":17436:17440  true */\n      0x01\n        /* \".deps/github/succinctlabs/sp1-contracts/contracts/src/v5.0.0/Groth16Verifier.sol\":17421:17440  bool success = true */\n      swap1\n      pop\n        /* \".deps/github/succinctlabs/sp1-contracts/contracts/src/v5.0.0/Groth16Verifier.sol\":17504:17508  0x40 */\n      0x40\n        /* \".deps/github/succinctlabs/sp1-contracts/contracts/src/v5.0.0/Groth16Verifier.sol\":17498:17509  mload(0x40) */\n      mload\n        /* \".deps/github/succinctlabs/sp1-contracts/contracts/src/v5.0.0/Groth16Verifier.sol\":17538:17542  0x40 */\n      0x40\n        /* \".deps/github/succinctlabs/sp1-contracts/contracts/src/v5.0.0/Groth16Verifier.sol\":17535:17536  f */\n      dup2\n        /* \".deps/github/succinctlabs/sp1-contracts/contracts/src/v5.0.0/Groth16Verifier.sol\":17531:17543  add(f, 0x40) */\n      add\n        /* \".deps/github/succinctlabs/sp1-contracts/contracts/src/v5.0.0/Groth16Verifier.sol\":17556:17561  let s */\n      0x00\n        /* \".deps/github/succinctlabs/sp1-contracts/contracts/src/v5.0.0/Groth16Verifier.sol\":17584:17594  CONSTANT_X */\n      0x26091e1cafb0ad8a4ea0a694cd3743ebf524779233db734c451d28b58aa9758e\n        /* \".deps/github/succinctlabs/sp1-contracts/contracts/src/v5.0.0/Groth16Verifier.sol\":17581:17582  f */\n      dup4\n        /* \".deps/github/succinctlabs/sp1-contracts/contracts/src/v5.0.0/Groth16Verifier.sol\":17574:17595  mstore(f, CONSTANT_X) */\n      mstore\n        /* \".deps/github/succinctlabs/sp1-contracts/contracts/src/v5.0.0/Groth16Verifier.sol\":17629:17639  CONSTANT_Y */\n      0x9ff50a6b8b11c3ca6fdb2690a124f8ce25489fefa65a3e782e7ba70b66690e\n        /* \".deps/github/succinctlabs/sp1-contracts/contracts/src/v5.0.0/Groth16Verifier.sol\":17622:17626  0x20 */\n      0x20\n        /* \".deps/github/succinctlabs/sp1-contracts/contracts/src/v5.0.0/Groth16Verifier.sol\":17619:17620  f */\n      dup5\n        /* \".deps/github/succinctlabs/sp1-contracts/contracts/src/v5.0.0/Groth16Verifier.sol\":17615:17627  add(f, 0x20) */\n      add\n        /* \".deps/github/succinctlabs/sp1-contracts/contracts/src/v5.0.0/Groth16Verifier.sol\":17608:17640  mstore(add(f, 0x20), CONSTANT_Y) */\n      mstore\n        /* \".deps/github/succinctlabs/sp1-contracts/contracts/src/v5.0.0/Groth16Verifier.sol\":17663:17670  PUB_0_X */\n      0x061c3fd0fd3da25d2607c227d090cca750ed36c6ec878755e537c1c48951fb4c\n        /* \".deps/github/succinctlabs/sp1-contracts/contracts/src/v5.0.0/Groth16Verifier.sol\":17660:17661  g */\n      dup3\n        /* \".deps/github/succinctlabs/sp1-contracts/contracts/src/v5.0.0/Groth16Verifier.sol\":17653:17671  mstore(g, PUB_0_X) */\n      mstore\n        /* \".deps/github/succinctlabs/sp1-contracts/contracts/src/v5.0.0/Groth16Verifier.sol\":17705:17712  PUB_0_Y */\n      0x0fa17ae9c2033379df7b5c65eff0e107055e9a273e6119a212dd09eb51707219\n        /* \".deps/github/succinctlabs/sp1-contracts/contracts/src/v5.0.0/Groth16Verifier.sol\":17698:17702  0x20 */\n      0x20\n        /* \".deps/github/succinctlabs/sp1-contracts/contracts/src/v5.0.0/Groth16Verifier.sol\":17695:17696  g */\n      dup4\n        /* \".deps/github/succinctlabs/sp1-contracts/contracts/src/v5.0.0/Groth16Verifier.sol\":17691:17703  add(g, 0x20) */\n      add\n        /* \".deps/github/succinctlabs/sp1-contracts/contracts/src/v5.0.0/Groth16Verifier.sol\":17684:17713  mstore(add(g, 0x20), PUB_0_Y) */\n      mstore\n        /* \".deps/github/succinctlabs/sp1-contracts/contracts/src/v5.0.0/Groth16Verifier.sol\":17745:17750  input */\n      dup7\n        /* \".deps/github/succinctlabs/sp1-contracts/contracts/src/v5.0.0/Groth16Verifier.sol\":17732:17751  calldataload(input) */\n      calldataload\n        /* \".deps/github/succinctlabs/sp1-contracts/contracts/src/v5.0.0/Groth16Verifier.sol\":17726:17751  s :=  calldataload(input) */\n      swap1\n      pop\n        /* \".deps/github/succinctlabs/sp1-contracts/contracts/src/v5.0.0/Groth16Verifier.sol\":17785:17786  s */\n      dup1\n        /* \".deps/github/succinctlabs/sp1-contracts/contracts/src/v5.0.0/Groth16Verifier.sol\":17778:17782  0x40 */\n      0x40\n        /* \".deps/github/succinctlabs/sp1-contracts/contracts/src/v5.0.0/Groth16Verifier.sol\":17775:17776  g */\n      dup4\n        /* \".deps/github/succinctlabs/sp1-contracts/contracts/src/v5.0.0/Groth16Verifier.sol\":17771:17783  add(g, 0x40) */\n      add\n        /* \".deps/github/succinctlabs/sp1-contracts/contracts/src/v5.0.0/Groth16Verifier.sol\":17764:17787  mstore(add(g, 0x40), s) */\n      mstore\n        /* \".deps/github/succinctlabs/sp1-contracts/contracts/src/v5.0.0/Groth16Verifier.sol\":17830:17831  R */\n      0x30644e72e131a029b85045b68181585d2833e84879b9709143e1f593f0000001\n        /* \".deps/github/succinctlabs/sp1-contracts/contracts/src/v5.0.0/Groth16Verifier.sol\":17827:17828  s */\n      dup2\n        /* \".deps/github/succinctlabs/sp1-contracts/contracts/src/v5.0.0/Groth16Verifier.sol\":17824:17832  lt(s, R) */\n      lt\n        /* \".deps/github/succinctlabs/sp1-contracts/contracts/src/v5.0.0/Groth16Verifier.sol\":17815:17822  success */\n      dup5\n        /* \".deps/github/succinctlabs/sp1-contracts/contracts/src/v5.0.0/Groth16Verifier.sol\":17811:17833  and(success, lt(s, R)) */\n      and\n        /* \".deps/github/succinctlabs/sp1-contracts/contracts/src/v5.0.0/Groth16Verifier.sol\":17800:17833  success := and(success, lt(s, R)) */\n      swap4\n      pop\n        /* \".deps/github/succinctlabs/sp1-contracts/contracts/src/v5.0.0/Groth16Verifier.sol\":17916:17920  0x40 */\n      0x40\n        /* \".deps/github/succinctlabs/sp1-contracts/contracts/src/v5.0.0/Groth16Verifier.sol\":17913:17914  g */\n      dup3\n        /* \".deps/github/succinctlabs/sp1-contracts/contracts/src/v5.0.0/Groth16Verifier.sol\":17907:17911  0x60 */\n      0x60\n        /* \".deps/github/succinctlabs/sp1-contracts/contracts/src/v5.0.0/Groth16Verifier.sol\":17904:17905  g */\n      dup5\n        /* \".deps/github/succinctlabs/sp1-contracts/contracts/src/v5.0.0/Groth16Verifier.sol\":17888:17902  PRECOMPILE_MUL */\n      0x07\n        /* \".deps/github/succinctlabs/sp1-contracts/contracts/src/v5.0.0/Groth16Verifier.sol\":17881:17886  gas() */\n      gas\n        /* \".deps/github/succinctlabs/sp1-contracts/contracts/src/v5.0.0/Groth16Verifier.sol\":17870:17921  staticcall(gas(), PRECOMPILE_MUL, g, 0x60, g, 0x40) */\n      staticcall\n        /* \".deps/github/succinctlabs/sp1-contracts/contracts/src/v5.0.0/Groth16Verifier.sol\":17861:17868  success */\n      dup5\n        /* \".deps/github/succinctlabs/sp1-contracts/contracts/src/v5.0.0/Groth16Verifier.sol\":17857:17922  and(success, staticcall(gas(), PRECOMPILE_MUL, g, 0x60, g, 0x40)) */\n      and\n        /* \".deps/github/succinctlabs/sp1-contracts/contracts/src/v5.0.0/Groth16Verifier.sol\":17846:17922  success := and(success, staticcall(gas(), PRECOMPILE_MUL, g, 0x60, g, 0x40)) */\n      swap4\n      pop\n        /* \".deps/github/succinctlabs/sp1-contracts/contracts/src/v5.0.0/Groth16Verifier.sol\":18005:18009  0x40 */\n      0x40\n        /* \".deps/github/succinctlabs/sp1-contracts/contracts/src/v5.0.0/Groth16Verifier.sol\":18002:18003  f */\n      dup4\n        /* \".deps/github/succinctlabs/sp1-contracts/contracts/src/v5.0.0/Groth16Verifier.sol\":17996:18000  0x80 */\n      0x80\n        /* \".deps/github/succinctlabs/sp1-contracts/contracts/src/v5.0.0/Groth16Verifier.sol\":17993:17994  f */\n      dup6\n        /* \".deps/github/succinctlabs/sp1-contracts/contracts/src/v5.0.0/Groth16Verifier.sol\":17977:17991  PRECOMPILE_ADD */\n      0x06\n        /* \".deps/github/succinctlabs/sp1-contracts/contracts/src/v5.0.0/Groth16Verifier.sol\":17970:17975  gas() */\n      gas\n        /* \".deps/github/succinctlabs/sp1-contracts/contracts/src/v5.0.0/Groth16Verifier.sol\":17959:18010  staticcall(gas(), PRECOMPILE_ADD, f, 0x80, f, 0x40) */\n      staticcall\n        /* \".deps/github/succinctlabs/sp1-contracts/contracts/src/v5.0.0/Groth16Verifier.sol\":17950:17957  success */\n      dup5\n        /* \".deps/github/succinctlabs/sp1-contracts/contracts/src/v5.0.0/Groth16Verifier.sol\":17946:18011  and(success, staticcall(gas(), PRECOMPILE_ADD, f, 0x80, f, 0x40)) */\n      and\n        /* \".deps/github/succinctlabs/sp1-contracts/contracts/src/v5.0.0/Groth16Verifier.sol\":17935:18011  success := and(success, staticcall(gas(), PRECOMPILE_ADD, f, 0x80, f, 0x40)) */\n      swap4\n      pop\n        /* \".deps/github/succinctlabs/sp1-contracts/contracts/src/v5.0.0/Groth16Verifier.sol\":18034:18041  PUB_1_X */\n      0x04eab241388a79817fe0e0e2ead0b2ec4ffdec51a16028dee020634fd129e71c\n        /* \".deps/github/succinctlabs/sp1-contracts/contracts/src/v5.0.0/Groth16Verifier.sol\":18031:18032  g */\n      dup3\n        /* \".deps/github/succinctlabs/sp1-contracts/contracts/src/v5.0.0/Groth16Verifier.sol\":18024:18042  mstore(g, PUB_1_X) */\n      mstore\n        /* \".deps/github/succinctlabs/sp1-contracts/contracts/src/v5.0.0/Groth16Verifier.sol\":18076:18083  PUB_1_Y */\n      0x07236256d21c60d02f0bdbf95cff83e03ea9e16fca56b18d5544b0889a65c1f5\n        /* \".deps/github/succinctlabs/sp1-contracts/contracts/src/v5.0.0/Groth16Verifier.sol\":18069:18073  0x20 */\n      0x20\n        /* \".deps/github/succinctlabs/sp1-contracts/contracts/src/v5.0.0/Groth16Verifier.sol\":18066:18067  g */\n      dup4\n        /* \".deps/github/succinctlabs/sp1-contracts/contracts/src/v5.0.0/Groth16Verifier.sol\":18062:18074  add(g, 0x20) */\n      add\n        /* \".deps/github/succinctlabs/sp1-contracts/contracts/src/v5.0.0/Groth16Verifier.sol\":18055:18084  mstore(add(g, 0x20), PUB_1_Y) */\n      mstore\n        /* \".deps/github/succinctlabs/sp1-contracts/contracts/src/v5.0.0/Groth16Verifier.sol\":18127:18129  32 */\n      0x20\n        /* \".deps/github/succinctlabs/sp1-contracts/contracts/src/v5.0.0/Groth16Verifier.sol\":18120:18125  input */\n      dup8\n        /* \".deps/github/succinctlabs/sp1-contracts/contracts/src/v5.0.0/Groth16Verifier.sol\":18116:18130  add(input, 32) */\n      add\n        /* \".deps/github/succinctlabs/sp1-contracts/contracts/src/v5.0.0/Groth16Verifier.sol\":18103:18131  calldataload(add(input, 32)) */\n      calldataload\n        /* \".deps/github/succinctlabs/sp1-contracts/contracts/src/v5.0.0/Groth16Verifier.sol\":18097:18131  s :=  calldataload(add(input, 32)) */\n      swap1\n      pop\n        /* \".deps/github/succinctlabs/sp1-contracts/contracts/src/v5.0.0/Groth16Verifier.sol\":18165:18166  s */\n      dup1\n        /* \".deps/github/succinctlabs/sp1-contracts/contracts/src/v5.0.0/Groth16Verifier.sol\":18158:18162  0x40 */\n      0x40\n        /* \".deps/github/succinctlabs/sp1-contracts/contracts/src/v5.0.0/Groth16Verifier.sol\":18155:18156  g */\n      dup4\n        /* \".deps/github/succinctlabs/sp1-contracts/contracts/src/v5.0.0/Groth16Verifier.sol\":18151:18163  add(g, 0x40) */\n      add\n        /* \".deps/github/succinctlabs/sp1-contracts/contracts/src/v5.0.0/Groth16Verifier.sol\":18144:18167  mstore(add(g, 0x40), s) */\n      mstore\n        /* \".deps/github/succinctlabs/sp1-contracts/contracts/src/v5.0.0/Groth16Verifier.sol\":18210:18211  R */\n      0x30644e72e131a029b85045b68181585d2833e84879b9709143e1f593f0000001\n        /* \".deps/github/succinctlabs/sp1-contracts/contracts/src/v5.0.0/Groth16Verifier.sol\":18207:18208  s */\n      dup2\n        /* \".deps/github/succinctlabs/sp1-contracts/contracts/src/v5.0.0/Groth16Verifier.sol\":18204:18212  lt(s, R) */\n      lt\n        /* \".deps/github/succinctlabs/sp1-contracts/contracts/src/v5.0.0/Groth16Verifier.sol\":18195:18202  success */\n      dup5\n        /* \".deps/github/succinctlabs/sp1-contracts/contracts/src/v5.0.0/Groth16Verifier.sol\":18191:18213  and(success, lt(s, R)) */\n      and\n        /* \".deps/github/succinctlabs/sp1-contracts/contracts/src/v5.0.0/Groth16Verifier.sol\":18180:18213  success := and(success, lt(s, R)) */\n      swap4\n      pop\n        /* \".deps/github/succinctlabs/sp1-contracts/contracts/src/v5.0.0/Groth16Verifier.sol\":18296:18300  0x40 */\n      0x40\n        /* \".deps/github/succinctlabs/sp1-contracts/contracts/src/v5.0.0/Groth16Verifier.sol\":18293:18294  g */\n      dup3\n        /* \".deps/github/succinctlabs/sp1-contracts/contracts/src/v5.0.0/Groth16Verifier.sol\":18287:18291  0x60 */\n      0x60\n        /* \".deps/github/succinctlabs/sp1-contracts/contracts/src/v5.0.0/Groth16Verifier.sol\":18284:18285  g */\n      dup5\n        /* \".deps/github/succinctlabs/sp1-contracts/contracts/src/v5.0.0/Groth16Verifier.sol\":18268:18282  PRECOMPILE_MUL */\n      0x07\n        /* \".deps/github/succinctlabs/sp1-contracts/contracts/src/v5.0.0/Groth16Verifier.sol\":18261:18266  gas() */\n      gas\n        /* \".deps/github/succinctlabs/sp1-contracts/contracts/src/v5.0.0/Groth16Verifier.sol\":18250:18301  staticcall(gas(), PRECOMPILE_MUL, g, 0x60, g, 0x40) */\n      staticcall\n        /* \".deps/github/succinctlabs/sp1-contracts/contracts/src/v5.0.0/Groth16Verifier.sol\":18241:18248  success */\n      dup5\n        /* \".deps/github/succinctlabs/sp1-contracts/contracts/src/v5.0.0/Groth16Verifier.sol\":18237:18302  and(success, staticcall(gas(), PRECOMPILE_MUL, g, 0x60, g, 0x40)) */\n      and\n        /* \".deps/github/succinctlabs/sp1-contracts/contracts/src/v5.0.0/Groth16Verifier.sol\":18226:18302  success := and(success, staticcall(gas(), PRECOMPILE_MUL, g, 0x60, g, 0x40)) */\n      swap4\n      pop\n        /* \".deps/github/succinctlabs/sp1-contracts/contracts/src/v5.0.0/Groth16Verifier.sol\":18385:18389  0x40 */\n      0x40\n        /* \".deps/github/succinctlabs/sp1-contracts/contracts/src/v5.0.0/Groth16Verifier.sol\":18382:18383  f */\n      dup4\n        /* \".deps/github/succinctlabs/sp1-contracts/contracts/src/v5.0.0/Groth16Verifier.sol\":18376:18380  0x80 */\n      0x80\n        /* \".deps/github/succinctlabs/sp1-contracts/contracts/src/v5.0.0/Groth16Verifier.sol\":18373:18374  f */\n      dup6\n        /* \".deps/github/succinctlabs/sp1-contracts/contracts/src/v5.0.0/Groth16Verifier.sol\":18357:18371  PRECOMPILE_ADD */\n      0x06\n        /* \".deps/github/succinctlabs/sp1-contracts/contracts/src/v5.0.0/Groth16Verifier.sol\":18350:18355  gas() */\n      gas\n        /* \".deps/github/succinctlabs/sp1-contracts/contracts/src/v5.0.0/Groth16Verifier.sol\":18339:18390  staticcall(gas(), PRECOMPILE_ADD, f, 0x80, f, 0x40) */\n      staticcall\n        /* \".deps/github/succinctlabs/sp1-contracts/contracts/src/v5.0.0/Groth16Verifier.sol\":18330:18337  success */\n      dup5\n        /* \".deps/github/succinctlabs/sp1-contracts/contracts/src/v5.0.0/Groth16Verifier.sol\":18326:18391  and(success, staticcall(gas(), PRECOMPILE_ADD, f, 0x80, f, 0x40)) */\n      and\n        /* \".deps/github/succinctlabs/sp1-contracts/contracts/src/v5.0.0/Groth16Verifier.sol\":18315:18391  success := and(success, staticcall(gas(), PRECOMPILE_ADD, f, 0x80, f, 0x40)) */\n      swap4\n      pop\n        /* \".deps/github/succinctlabs/sp1-contracts/contracts/src/v5.0.0/Groth16Verifier.sol\":18416:18417  f */\n      dup3\n        /* \".deps/github/succinctlabs/sp1-contracts/contracts/src/v5.0.0/Groth16Verifier.sol\":18410:18418  mload(f) */\n      mload\n        /* \".deps/github/succinctlabs/sp1-contracts/contracts/src/v5.0.0/Groth16Verifier.sol\":18405:18418  x := mload(f) */\n      swap6\n      pop\n        /* \".deps/github/succinctlabs/sp1-contracts/contracts/src/v5.0.0/Groth16Verifier.sol\":18449:18453  0x20 */\n      0x20\n        /* \".deps/github/succinctlabs/sp1-contracts/contracts/src/v5.0.0/Groth16Verifier.sol\":18446:18447  f */\n      dup4\n        /* \".deps/github/succinctlabs/sp1-contracts/contracts/src/v5.0.0/Groth16Verifier.sol\":18442:18454  add(f, 0x20) */\n      add\n        /* \".deps/github/succinctlabs/sp1-contracts/contracts/src/v5.0.0/Groth16Verifier.sol\":18436:18455  mload(add(f, 0x20)) */\n      mload\n        /* \".deps/github/succinctlabs/sp1-contracts/contracts/src/v5.0.0/Groth16Verifier.sol\":18431:18455  y := mload(add(f, 0x20)) */\n      swap5\n      pop\n        /* \".deps/github/succinctlabs/sp1-contracts/contracts/src/v5.0.0/Groth16Verifier.sol\":17475:18465  {... */\n      pop\n      pop\n      pop\n        /* \".deps/github/succinctlabs/sp1-contracts/contracts/src/v5.0.0/Groth16Verifier.sol\":18479:18486  success */\n      dup1\n        /* \".deps/github/succinctlabs/sp1-contracts/contracts/src/v5.0.0/Groth16Verifier.sol\":18474:18717  if (!success) {... */\n      tag_264\n      jumpi\n        /* \".deps/github/succinctlabs/sp1-contracts/contracts/src/v5.0.0/Groth16Verifier.sol\":18683:18706  PublicInputNotInField() */\n      mload(0x40)\n      0xa54f8e2700000000000000000000000000000000000000000000000000000000\n      dup2\n      mstore\n      0x04\n      add\n      mload(0x40)\n      dup1\n      swap2\n      sub\n      swap1\n      revert\n        /* \".deps/github/succinctlabs/sp1-contracts/contracts/src/v5.0.0/Groth16Verifier.sol\":18474:18717  if (!success) {... */\n    tag_264:\n        /* \".deps/github/succinctlabs/sp1-contracts/contracts/src/v5.0.0/Groth16Verifier.sol\":16818:18723  {... */\n      pop\n        /* \".deps/github/succinctlabs/sp1-contracts/contracts/src/v5.0.0/Groth16Verifier.sol\":16718:18723  function publicInputMSM(uint256[2] calldata input)... */\n      swap2\n      pop\n      swap2\n      jump\t// out\n        /* \".deps/github/succinctlabs/sp1-contracts/contracts/src/v5.0.0/Groth16Verifier.sol\":10798:11674  function decompress_g1(uint256 c) internal view returns (uint256 x, uint256 y) {... */\n    tag_117:\n        /* \".deps/github/succinctlabs/sp1-contracts/contracts/src/v5.0.0/Groth16Verifier.sol\":10855:10864  uint256 x */\n      0x00\n        /* \".deps/github/succinctlabs/sp1-contracts/contracts/src/v5.0.0/Groth16Verifier.sol\":10866:10875  uint256 y */\n      0x00\n        /* \".deps/github/succinctlabs/sp1-contracts/contracts/src/v5.0.0/Groth16Verifier.sol\":11042:11043  0 */\n      0x00\n        /* \".deps/github/succinctlabs/sp1-contracts/contracts/src/v5.0.0/Groth16Verifier.sol\":11037:11038  c */\n      dup4\n        /* \".deps/github/succinctlabs/sp1-contracts/contracts/src/v5.0.0/Groth16Verifier.sol\":11037:11043  c == 0 */\n      sub\n        /* \".deps/github/succinctlabs/sp1-contracts/contracts/src/v5.0.0/Groth16Verifier.sol\":11033:11149  if (c == 0) {... */\n      tag_266\n      jumpi\n        /* \".deps/github/succinctlabs/sp1-contracts/contracts/src/v5.0.0/Groth16Verifier.sol\":11133:11134  0 */\n      0x00\n        /* \".deps/github/succinctlabs/sp1-contracts/contracts/src/v5.0.0/Groth16Verifier.sol\":11136:11137  0 */\n      0x00\n        /* \".deps/github/succinctlabs/sp1-contracts/contracts/src/v5.0.0/Groth16Verifier.sol\":11125:11138  return (0, 0) */\n      swap2\n      pop\n      swap2\n      pop\n      jump(tag_265)\n        /* \".deps/github/succinctlabs/sp1-contracts/contracts/src/v5.0.0/Groth16Verifier.sol\":11033:11149  if (c == 0) {... */\n    tag_266:\n        /* \".deps/github/succinctlabs/sp1-contracts/contracts/src/v5.0.0/Groth16Verifier.sol\":11158:11175  bool negate_point */\n      0x00\n        /* \".deps/github/succinctlabs/sp1-contracts/contracts/src/v5.0.0/Groth16Verifier.sol\":11187:11188  1 */\n      0x01\n        /* \".deps/github/succinctlabs/sp1-contracts/contracts/src/v5.0.0/Groth16Verifier.sol\":11182:11183  1 */\n      dup1\n        /* \".deps/github/succinctlabs/sp1-contracts/contracts/src/v5.0.0/Groth16Verifier.sol\":11178:11179  c */\n      dup6\n        /* \".deps/github/succinctlabs/sp1-contracts/contracts/src/v5.0.0/Groth16Verifier.sol\":11178:11183  c & 1 */\n      and\n        /* \".deps/github/succinctlabs/sp1-contracts/contracts/src/v5.0.0/Groth16Verifier.sol\":11178:11188  c & 1 == 1 */\n      eq\n        /* \".deps/github/succinctlabs/sp1-contracts/contracts/src/v5.0.0/Groth16Verifier.sol\":11158:11188  bool negate_point = c & 1 == 1 */\n      swap1\n      pop\n        /* \".deps/github/succinctlabs/sp1-contracts/contracts/src/v5.0.0/Groth16Verifier.sol\":11207:11208  1 */\n      0x01\n        /* \".deps/github/succinctlabs/sp1-contracts/contracts/src/v5.0.0/Groth16Verifier.sol\":11202:11203  c */\n      dup5\n        /* \".deps/github/succinctlabs/sp1-contracts/contracts/src/v5.0.0/Groth16Verifier.sol\":11202:11208  c >> 1 */\n      swap1\n      shr\n        /* \".deps/github/succinctlabs/sp1-contracts/contracts/src/v5.0.0/Groth16Verifier.sol\":11198:11208  x = c >> 1 */\n      swap3\n      pop\n        /* \".deps/github/succinctlabs/sp1-contracts/contracts/src/v5.0.0/Groth16Verifier.sol\":1396:1462  0x30644e72e131a029b85045b68181585d97816a916871ca8d3c208c16d87cfd47 */\n      0x30644e72e131a029b85045b68181585d97816a916871ca8d3c208c16d87cfd47\n        /* \".deps/github/succinctlabs/sp1-contracts/contracts/src/v5.0.0/Groth16Verifier.sol\":11222:11223  x */\n      dup4\n        /* \".deps/github/succinctlabs/sp1-contracts/contracts/src/v5.0.0/Groth16Verifier.sol\":11222:11228  x >= P */\n      lt\n        /* \".deps/github/succinctlabs/sp1-contracts/contracts/src/v5.0.0/Groth16Verifier.sol\":11218:11321  if (x >= P) {... */\n      tag_267\n      jumpi\n        /* \".deps/github/succinctlabs/sp1-contracts/contracts/src/v5.0.0/Groth16Verifier.sol\":11296:11310  ProofInvalid() */\n      mload(0x40)\n      0x7fcdd1f400000000000000000000000000000000000000000000000000000000\n      dup2\n      mstore\n      0x04\n      add\n      mload(0x40)\n      dup1\n      swap2\n      sub\n      swap1\n      revert\n        /* \".deps/github/succinctlabs/sp1-contracts/contracts/src/v5.0.0/Groth16Verifier.sol\":11218:11321  if (x >= P) {... */\n    tag_267:\n        /* \".deps/github/succinctlabs/sp1-contracts/contracts/src/v5.0.0/Groth16Verifier.sol\":11550:11602  sqrt_Fp(addmod(mulmod(mulmod(x, x, P), x, P), 3, P)) */\n      tag_268\n        /* \".deps/github/succinctlabs/sp1-contracts/contracts/src/v5.0.0/Groth16Verifier.sol\":1396:1462  0x30644e72e131a029b85045b68181585d97816a916871ca8d3c208c16d87cfd47 */\n      0x30644e72e131a029b85045b68181585d97816a916871ca8d3c208c16d87cfd47\n        /* \".deps/github/succinctlabs/sp1-contracts/contracts/src/v5.0.0/Groth16Verifier.sol\":11558:11601  addmod(mulmod(mulmod(x, x, P), x, P), 3, P) */\n      dup1\n      tag_269\n      jumpi\n      tag_270\n      tag_191\n      jump\t// in\n    tag_270:\n    tag_269:\n        /* \".deps/github/succinctlabs/sp1-contracts/contracts/src/v5.0.0/Groth16Verifier.sol\":11596:11597  3 */\n      0x03\n        /* \".deps/github/succinctlabs/sp1-contracts/contracts/src/v5.0.0/Groth16Verifier.sol\":1396:1462  0x30644e72e131a029b85045b68181585d97816a916871ca8d3c208c16d87cfd47 */\n      0x30644e72e131a029b85045b68181585d97816a916871ca8d3c208c16d87cfd47\n        /* \".deps/github/succinctlabs/sp1-contracts/contracts/src/v5.0.0/Groth16Verifier.sol\":11565:11594  mulmod(mulmod(x, x, P), x, P) */\n      dup1\n      tag_271\n      jumpi\n      tag_272\n      tag_191\n      jump\t// in\n    tag_272:\n    tag_271:\n        /* \".deps/github/succinctlabs/sp1-contracts/contracts/src/v5.0.0/Groth16Verifier.sol\":11589:11590  x */\n      dup7\n        /* \".deps/github/succinctlabs/sp1-contracts/contracts/src/v5.0.0/Groth16Verifier.sol\":1396:1462  0x30644e72e131a029b85045b68181585d97816a916871ca8d3c208c16d87cfd47 */\n      0x30644e72e131a029b85045b68181585d97816a916871ca8d3c208c16d87cfd47\n        /* \".deps/github/succinctlabs/sp1-contracts/contracts/src/v5.0.0/Groth16Verifier.sol\":11572:11587  mulmod(x, x, P) */\n      dup1\n      tag_273\n      jumpi\n      tag_274\n      tag_191\n      jump\t// in\n    tag_274:\n    tag_273:\n        /* \".deps/github/succinctlabs/sp1-contracts/contracts/src/v5.0.0/Groth16Verifier.sol\":11582:11583  x */\n      dup9\n        /* \".deps/github/succinctlabs/sp1-contracts/contracts/src/v5.0.0/Groth16Verifier.sol\":11579:11580  x */\n      dup10\n        /* \".deps/github/succinctlabs/sp1-contracts/contracts/src/v5.0.0/Groth16Verifier.sol\":11572:11587  mulmod(x, x, P) */\n      mulmod\n        /* \".deps/github/succinctlabs/sp1-contracts/contracts/src/v5.0.0/Groth16Verifier.sol\":11565:11594  mulmod(mulmod(x, x, P), x, P) */\n      mulmod\n        /* \".deps/github/succinctlabs/sp1-contracts/contracts/src/v5.0.0/Groth16Verifier.sol\":11558:11601  addmod(mulmod(mulmod(x, x, P), x, P), 3, P) */\n      addmod\n        /* \".deps/github/succinctlabs/sp1-contracts/contracts/src/v5.0.0/Groth16Verifier.sol\":11550:11557  sqrt_Fp */\n      tag_196\n        /* \".deps/github/succinctlabs/sp1-contracts/contracts/src/v5.0.0/Groth16Verifier.sol\":11550:11602  sqrt_Fp(addmod(mulmod(mulmod(x, x, P), x, P), 3, P)) */\n      jump\t// in\n    tag_268:\n        /* \".deps/github/succinctlabs/sp1-contracts/contracts/src/v5.0.0/Groth16Verifier.sol\":11546:11602  y = sqrt_Fp(addmod(mulmod(mulmod(x, x, P), x, P), 3, P)) */\n      swap2\n      pop\n        /* \".deps/github/succinctlabs/sp1-contracts/contracts/src/v5.0.0/Groth16Verifier.sol\":11616:11628  negate_point */\n      dup1\n        /* \".deps/github/succinctlabs/sp1-contracts/contracts/src/v5.0.0/Groth16Verifier.sol\":11612:11668  if (negate_point) {... */\n      iszero\n      tag_275\n      jumpi\n        /* \".deps/github/succinctlabs/sp1-contracts/contracts/src/v5.0.0/Groth16Verifier.sol\":11648:11657  negate(y) */\n      tag_276\n        /* \".deps/github/succinctlabs/sp1-contracts/contracts/src/v5.0.0/Groth16Verifier.sol\":11655:11656  y */\n      dup3\n        /* \".deps/github/succinctlabs/sp1-contracts/contracts/src/v5.0.0/Groth16Verifier.sol\":11648:11654  negate */\n      tag_200\n        /* \".deps/github/succinctlabs/sp1-contracts/contracts/src/v5.0.0/Groth16Verifier.sol\":11648:11657  negate(y) */\n      jump\t// in\n    tag_276:\n        /* \".deps/github/succinctlabs/sp1-contracts/contracts/src/v5.0.0/Groth16Verifier.sol\":11644:11657  y = negate(y) */\n      swap2\n      pop\n        /* \".deps/github/succinctlabs/sp1-contracts/contracts/src/v5.0.0/Groth16Verifier.sol\":11612:11668  if (negate_point) {... */\n    tag_275:\n        /* \".deps/github/succinctlabs/sp1-contracts/contracts/src/v5.0.0/Groth16Verifier.sol\":10877:11674  {... */\n      pop\n        /* \".deps/github/succinctlabs/sp1-contracts/contracts/src/v5.0.0/Groth16Verifier.sol\":10798:11674  function decompress_g1(uint256 c) internal view returns (uint256 x, uint256 y) {... */\n    tag_265:\n      swap2\n      pop\n      swap2\n      jump\t// out\n        /* \".deps/github/succinctlabs/sp1-contracts/contracts/src/v5.0.0/Groth16Verifier.sol\":14840:16219  function decompress_g2(uint256 c0, uint256 c1)... */\n    tag_123:\n        /* \".deps/github/succinctlabs/sp1-contracts/contracts/src/v5.0.0/Groth16Verifier.sol\":14914:14924  uint256 x0 */\n      0x00\n        /* \".deps/github/succinctlabs/sp1-contracts/contracts/src/v5.0.0/Groth16Verifier.sol\":14926:14936  uint256 x1 */\n      0x00\n        /* \".deps/github/succinctlabs/sp1-contracts/contracts/src/v5.0.0/Groth16Verifier.sol\":14938:14948  uint256 y0 */\n      0x00\n        /* \".deps/github/succinctlabs/sp1-contracts/contracts/src/v5.0.0/Groth16Verifier.sol\":14950:14960  uint256 y1 */\n      0x00\n        /* \".deps/github/succinctlabs/sp1-contracts/contracts/src/v5.0.0/Groth16Verifier.sol\":15137:15138  0 */\n      0x00\n        /* \".deps/github/succinctlabs/sp1-contracts/contracts/src/v5.0.0/Groth16Verifier.sol\":15131:15133  c0 */\n      dup7\n        /* \".deps/github/succinctlabs/sp1-contracts/contracts/src/v5.0.0/Groth16Verifier.sol\":15131:15138  c0 == 0 */\n      eq\n        /* \".deps/github/succinctlabs/sp1-contracts/contracts/src/v5.0.0/Groth16Verifier.sol\":15131:15149  c0 == 0 && c1 == 0 */\n      dup1\n      iszero\n      tag_278\n      jumpi\n      pop\n        /* \".deps/github/succinctlabs/sp1-contracts/contracts/src/v5.0.0/Groth16Verifier.sol\":15148:15149  0 */\n      0x00\n        /* \".deps/github/succinctlabs/sp1-contracts/contracts/src/v5.0.0/Groth16Verifier.sol\":15142:15144  c1 */\n      dup6\n        /* \".deps/github/succinctlabs/sp1-contracts/contracts/src/v5.0.0/Groth16Verifier.sol\":15142:15149  c1 == 0 */\n      eq\n        /* \".deps/github/succinctlabs/sp1-contracts/contracts/src/v5.0.0/Groth16Verifier.sol\":15131:15149  c0 == 0 && c1 == 0 */\n    tag_278:\n        /* \".deps/github/succinctlabs/sp1-contracts/contracts/src/v5.0.0/Groth16Verifier.sol\":15127:15250  if (c0 == 0 && c1 == 0) {... */\n      iszero\n      tag_279\n      jumpi\n        /* \".deps/github/succinctlabs/sp1-contracts/contracts/src/v5.0.0/Groth16Verifier.sol\":15228:15229  0 */\n      0x00\n        /* \".deps/github/succinctlabs/sp1-contracts/contracts/src/v5.0.0/Groth16Verifier.sol\":15231:15232  0 */\n      0x00\n        /* \".deps/github/succinctlabs/sp1-contracts/contracts/src/v5.0.0/Groth16Verifier.sol\":15234:15235  0 */\n      0x00\n        /* \".deps/github/succinctlabs/sp1-contracts/contracts/src/v5.0.0/Groth16Verifier.sol\":15237:15238  0 */\n      0x00\n        /* \".deps/github/succinctlabs/sp1-contracts/contracts/src/v5.0.0/Groth16Verifier.sol\":15220:15239  return (0, 0, 0, 0) */\n      swap4\n      pop\n      swap4\n      pop\n      swap4\n      pop\n      swap4\n      pop\n      jump(tag_277)\n        /* \".deps/github/succinctlabs/sp1-contracts/contracts/src/v5.0.0/Groth16Verifier.sol\":15127:15250  if (c0 == 0 && c1 == 0) {... */\n    tag_279:\n        /* \".deps/github/succinctlabs/sp1-contracts/contracts/src/v5.0.0/Groth16Verifier.sol\":15259:15276  bool negate_point */\n      0x00\n        /* \".deps/github/succinctlabs/sp1-contracts/contracts/src/v5.0.0/Groth16Verifier.sol\":15289:15290  1 */\n      0x01\n        /* \".deps/github/succinctlabs/sp1-contracts/contracts/src/v5.0.0/Groth16Verifier.sol\":15284:15285  1 */\n      dup1\n        /* \".deps/github/succinctlabs/sp1-contracts/contracts/src/v5.0.0/Groth16Verifier.sol\":15279:15281  c0 */\n      dup9\n        /* \".deps/github/succinctlabs/sp1-contracts/contracts/src/v5.0.0/Groth16Verifier.sol\":15279:15285  c0 & 1 */\n      and\n        /* \".deps/github/succinctlabs/sp1-contracts/contracts/src/v5.0.0/Groth16Verifier.sol\":15279:15290  c0 & 1 == 1 */\n      eq\n        /* \".deps/github/succinctlabs/sp1-contracts/contracts/src/v5.0.0/Groth16Verifier.sol\":15259:15290  bool negate_point = c0 & 1 == 1 */\n      swap1\n      pop\n        /* \".deps/github/succinctlabs/sp1-contracts/contracts/src/v5.0.0/Groth16Verifier.sol\":15300:15309  bool hint */\n      0x00\n        /* \".deps/github/succinctlabs/sp1-contracts/contracts/src/v5.0.0/Groth16Verifier.sol\":15322:15323  2 */\n      0x02\n        /* \".deps/github/succinctlabs/sp1-contracts/contracts/src/v5.0.0/Groth16Verifier.sol\":15317:15318  2 */\n      dup1\n        /* \".deps/github/succinctlabs/sp1-contracts/contracts/src/v5.0.0/Groth16Verifier.sol\":15312:15314  c0 */\n      dup10\n        /* \".deps/github/succinctlabs/sp1-contracts/contracts/src/v5.0.0/Groth16Verifier.sol\":15312:15318  c0 & 2 */\n      and\n        /* \".deps/github/succinctlabs/sp1-contracts/contracts/src/v5.0.0/Groth16Verifier.sol\":15312:15323  c0 & 2 == 2 */\n      eq\n        /* \".deps/github/succinctlabs/sp1-contracts/contracts/src/v5.0.0/Groth16Verifier.sol\":15300:15323  bool hint = c0 & 2 == 2 */\n      swap1\n      pop\n        /* \".deps/github/succinctlabs/sp1-contracts/contracts/src/v5.0.0/Groth16Verifier.sol\":15344:15345  2 */\n      0x02\n        /* \".deps/github/succinctlabs/sp1-contracts/contracts/src/v5.0.0/Groth16Verifier.sol\":15338:15340  c0 */\n      dup9\n        /* \".deps/github/succinctlabs/sp1-contracts/contracts/src/v5.0.0/Groth16Verifier.sol\":15338:15345  c0 >> 2 */\n      swap1\n      shr\n        /* \".deps/github/succinctlabs/sp1-contracts/contracts/src/v5.0.0/Groth16Verifier.sol\":15333:15345  x0 = c0 >> 2 */\n      swap6\n      pop\n        /* \".deps/github/succinctlabs/sp1-contracts/contracts/src/v5.0.0/Groth16Verifier.sol\":15360:15362  c1 */\n      dup7\n        /* \".deps/github/succinctlabs/sp1-contracts/contracts/src/v5.0.0/Groth16Verifier.sol\":15355:15362  x1 = c1 */\n      swap5\n      pop\n        /* \".deps/github/succinctlabs/sp1-contracts/contracts/src/v5.0.0/Groth16Verifier.sol\":1396:1462  0x30644e72e131a029b85045b68181585d97816a916871ca8d3c208c16d87cfd47 */\n      0x30644e72e131a029b85045b68181585d97816a916871ca8d3c208c16d87cfd47\n        /* \".deps/github/succinctlabs/sp1-contracts/contracts/src/v5.0.0/Groth16Verifier.sol\":15376:15378  x0 */\n      dup7\n        /* \".deps/github/succinctlabs/sp1-contracts/contracts/src/v5.0.0/Groth16Verifier.sol\":15376:15383  x0 >= P */\n      lt\n      iszero\n        /* \".deps/github/succinctlabs/sp1-contracts/contracts/src/v5.0.0/Groth16Verifier.sol\":15376:15394  x0 >= P || x1 >= P */\n      dup1\n      tag_280\n      jumpi\n      pop\n        /* \".deps/github/succinctlabs/sp1-contracts/contracts/src/v5.0.0/Groth16Verifier.sol\":1396:1462  0x30644e72e131a029b85045b68181585d97816a916871ca8d3c208c16d87cfd47 */\n      0x30644e72e131a029b85045b68181585d97816a916871ca8d3c208c16d87cfd47\n        /* \".deps/github/succinctlabs/sp1-contracts/contracts/src/v5.0.0/Groth16Verifier.sol\":15387:15389  x1 */\n      dup6\n        /* \".deps/github/succinctlabs/sp1-contracts/contracts/src/v5.0.0/Groth16Verifier.sol\":15387:15394  x1 >= P */\n      lt\n      iszero\n        /* \".deps/github/succinctlabs/sp1-contracts/contracts/src/v5.0.0/Groth16Verifier.sol\":15376:15394  x0 >= P || x1 >= P */\n    tag_280:\n        /* \".deps/github/succinctlabs/sp1-contracts/contracts/src/v5.0.0/Groth16Verifier.sol\":15372:15495  if (x0 >= P || x1 >= P) {... */\n      iszero\n      tag_281\n      jumpi\n        /* \".deps/github/succinctlabs/sp1-contracts/contracts/src/v5.0.0/Groth16Verifier.sol\":15470:15484  ProofInvalid() */\n      mload(0x40)\n      0x7fcdd1f400000000000000000000000000000000000000000000000000000000\n      dup2\n      mstore\n      0x04\n      add\n      mload(0x40)\n      dup1\n      swap2\n      sub\n      swap1\n      revert\n        /* \".deps/github/succinctlabs/sp1-contracts/contracts/src/v5.0.0/Groth16Verifier.sol\":15372:15495  if (x0 >= P || x1 >= P) {... */\n    tag_281:\n        /* \".deps/github/succinctlabs/sp1-contracts/contracts/src/v5.0.0/Groth16Verifier.sol\":15505:15517  uint256 n3ab */\n      0x00\n        /* \".deps/github/succinctlabs/sp1-contracts/contracts/src/v5.0.0/Groth16Verifier.sol\":1396:1462  0x30644e72e131a029b85045b68181585d97816a916871ca8d3c208c16d87cfd47 */\n      0x30644e72e131a029b85045b68181585d97816a916871ca8d3c208c16d87cfd47\n        /* \".deps/github/succinctlabs/sp1-contracts/contracts/src/v5.0.0/Groth16Verifier.sol\":15520:15553  mulmod(mulmod(x0, x1, P), P-3, P) */\n      dup1\n      tag_282\n      jumpi\n      tag_283\n      tag_191\n      jump\t// in\n    tag_283:\n    tag_282:\n        /* \".deps/github/succinctlabs/sp1-contracts/contracts/src/v5.0.0/Groth16Verifier.sol\":15548:15549  3 */\n      0x03\n        /* \".deps/github/succinctlabs/sp1-contracts/contracts/src/v5.0.0/Groth16Verifier.sol\":1396:1462  0x30644e72e131a029b85045b68181585d97816a916871ca8d3c208c16d87cfd47 */\n      0x30644e72e131a029b85045b68181585d97816a916871ca8d3c208c16d87cfd47\n        /* \".deps/github/succinctlabs/sp1-contracts/contracts/src/v5.0.0/Groth16Verifier.sol\":15546:15549  P-3 */\n      tag_284\n      swap2\n      swap1\n      tag_212\n      jump\t// in\n    tag_284:\n        /* \".deps/github/succinctlabs/sp1-contracts/contracts/src/v5.0.0/Groth16Verifier.sol\":1396:1462  0x30644e72e131a029b85045b68181585d97816a916871ca8d3c208c16d87cfd47 */\n      0x30644e72e131a029b85045b68181585d97816a916871ca8d3c208c16d87cfd47\n        /* \".deps/github/succinctlabs/sp1-contracts/contracts/src/v5.0.0/Groth16Verifier.sol\":15527:15544  mulmod(x0, x1, P) */\n      dup1\n      tag_285\n      jumpi\n      tag_286\n      tag_191\n      jump\t// in\n    tag_286:\n    tag_285:\n        /* \".deps/github/succinctlabs/sp1-contracts/contracts/src/v5.0.0/Groth16Verifier.sol\":15538:15540  x1 */\n      dup9\n        /* \".deps/github/succinctlabs/sp1-contracts/contracts/src/v5.0.0/Groth16Verifier.sol\":15534:15536  x0 */\n      dup11\n        /* \".deps/github/succinctlabs/sp1-contracts/contracts/src/v5.0.0/Groth16Verifier.sol\":15527:15544  mulmod(x0, x1, P) */\n      mulmod\n        /* \".deps/github/succinctlabs/sp1-contracts/contracts/src/v5.0.0/Groth16Verifier.sol\":15520:15553  mulmod(mulmod(x0, x1, P), P-3, P) */\n      mulmod\n        /* \".deps/github/succinctlabs/sp1-contracts/contracts/src/v5.0.0/Groth16Verifier.sol\":15505:15553  uint256 n3ab = mulmod(mulmod(x0, x1, P), P-3, P) */\n      swap1\n      pop\n        /* \".deps/github/succinctlabs/sp1-contracts/contracts/src/v5.0.0/Groth16Verifier.sol\":15563:15574  uint256 a_3 */\n      0x00\n        /* \".deps/github/succinctlabs/sp1-contracts/contracts/src/v5.0.0/Groth16Verifier.sol\":1396:1462  0x30644e72e131a029b85045b68181585d97816a916871ca8d3c208c16d87cfd47 */\n      0x30644e72e131a029b85045b68181585d97816a916871ca8d3c208c16d87cfd47\n        /* \".deps/github/succinctlabs/sp1-contracts/contracts/src/v5.0.0/Groth16Verifier.sol\":15577:15609  mulmod(mulmod(x0, x0, P), x0, P) */\n      dup1\n      tag_287\n      jumpi\n      tag_288\n      tag_191\n      jump\t// in\n    tag_288:\n    tag_287:\n        /* \".deps/github/succinctlabs/sp1-contracts/contracts/src/v5.0.0/Groth16Verifier.sol\":15603:15605  x0 */\n      dup9\n        /* \".deps/github/succinctlabs/sp1-contracts/contracts/src/v5.0.0/Groth16Verifier.sol\":1396:1462  0x30644e72e131a029b85045b68181585d97816a916871ca8d3c208c16d87cfd47 */\n      0x30644e72e131a029b85045b68181585d97816a916871ca8d3c208c16d87cfd47\n        /* \".deps/github/succinctlabs/sp1-contracts/contracts/src/v5.0.0/Groth16Verifier.sol\":15584:15601  mulmod(x0, x0, P) */\n      dup1\n      tag_289\n      jumpi\n      tag_290\n      tag_191\n      jump\t// in\n    tag_290:\n    tag_289:\n        /* \".deps/github/succinctlabs/sp1-contracts/contracts/src/v5.0.0/Groth16Verifier.sol\":15595:15597  x0 */\n      dup11\n        /* \".deps/github/succinctlabs/sp1-contracts/contracts/src/v5.0.0/Groth16Verifier.sol\":15591:15593  x0 */\n      dup12\n        /* \".deps/github/succinctlabs/sp1-contracts/contracts/src/v5.0.0/Groth16Verifier.sol\":15584:15601  mulmod(x0, x0, P) */\n      mulmod\n        /* \".deps/github/succinctlabs/sp1-contracts/contracts/src/v5.0.0/Groth16Verifier.sol\":15577:15609  mulmod(mulmod(x0, x0, P), x0, P) */\n      mulmod\n        /* \".deps/github/succinctlabs/sp1-contracts/contracts/src/v5.0.0/Groth16Verifier.sol\":15563:15609  uint256 a_3 = mulmod(mulmod(x0, x0, P), x0, P) */\n      swap1\n      pop\n        /* \".deps/github/succinctlabs/sp1-contracts/contracts/src/v5.0.0/Groth16Verifier.sol\":15619:15630  uint256 b_3 */\n      0x00\n        /* \".deps/github/succinctlabs/sp1-contracts/contracts/src/v5.0.0/Groth16Verifier.sol\":1396:1462  0x30644e72e131a029b85045b68181585d97816a916871ca8d3c208c16d87cfd47 */\n      0x30644e72e131a029b85045b68181585d97816a916871ca8d3c208c16d87cfd47\n        /* \".deps/github/succinctlabs/sp1-contracts/contracts/src/v5.0.0/Groth16Verifier.sol\":15633:15665  mulmod(mulmod(x1, x1, P), x1, P) */\n      dup1\n      tag_291\n      jumpi\n      tag_292\n      tag_191\n      jump\t// in\n    tag_292:\n    tag_291:\n        /* \".deps/github/succinctlabs/sp1-contracts/contracts/src/v5.0.0/Groth16Verifier.sol\":15659:15661  x1 */\n      dup9\n        /* \".deps/github/succinctlabs/sp1-contracts/contracts/src/v5.0.0/Groth16Verifier.sol\":1396:1462  0x30644e72e131a029b85045b68181585d97816a916871ca8d3c208c16d87cfd47 */\n      0x30644e72e131a029b85045b68181585d97816a916871ca8d3c208c16d87cfd47\n        /* \".deps/github/succinctlabs/sp1-contracts/contracts/src/v5.0.0/Groth16Verifier.sol\":15640:15657  mulmod(x1, x1, P) */\n      dup1\n      tag_293\n      jumpi\n      tag_294\n      tag_191\n      jump\t// in\n    tag_294:\n    tag_293:\n        /* \".deps/github/succinctlabs/sp1-contracts/contracts/src/v5.0.0/Groth16Verifier.sol\":15651:15653  x1 */\n      dup11\n        /* \".deps/github/succinctlabs/sp1-contracts/contracts/src/v5.0.0/Groth16Verifier.sol\":15647:15649  x1 */\n      dup12\n        /* \".deps/github/succinctlabs/sp1-contracts/contracts/src/v5.0.0/Groth16Verifier.sol\":15640:15657  mulmod(x1, x1, P) */\n      mulmod\n        /* \".deps/github/succinctlabs/sp1-contracts/contracts/src/v5.0.0/Groth16Verifier.sol\":15633:15665  mulmod(mulmod(x1, x1, P), x1, P) */\n      mulmod\n        /* \".deps/github/succinctlabs/sp1-contracts/contracts/src/v5.0.0/Groth16Verifier.sol\":15619:15665  uint256 b_3 = mulmod(mulmod(x1, x1, P), x1, P) */\n      swap1\n      pop\n        /* \".deps/github/succinctlabs/sp1-contracts/contracts/src/v5.0.0/Groth16Verifier.sol\":1396:1462  0x30644e72e131a029b85045b68181585d97816a916871ca8d3c208c16d87cfd47 */\n      0x30644e72e131a029b85045b68181585d97816a916871ca8d3c208c16d87cfd47\n        /* \".deps/github/succinctlabs/sp1-contracts/contracts/src/v5.0.0/Groth16Verifier.sol\":15681:15746  addmod(FRACTION_27_82_FP, addmod(a_3, mulmod(n3ab, x1, P), P), P) */\n      dup1\n      tag_295\n      jumpi\n      tag_296\n      tag_191\n      jump\t// in\n    tag_296:\n    tag_295:\n        /* \".deps/github/succinctlabs/sp1-contracts/contracts/src/v5.0.0/Groth16Verifier.sol\":1396:1462  0x30644e72e131a029b85045b68181585d97816a916871ca8d3c208c16d87cfd47 */\n      0x30644e72e131a029b85045b68181585d97816a916871ca8d3c208c16d87cfd47\n        /* \".deps/github/succinctlabs/sp1-contracts/contracts/src/v5.0.0/Groth16Verifier.sol\":15707:15742  addmod(a_3, mulmod(n3ab, x1, P), P) */\n      dup1\n      tag_297\n      jumpi\n      tag_298\n      tag_191\n      jump\t// in\n    tag_298:\n    tag_297:\n        /* \".deps/github/succinctlabs/sp1-contracts/contracts/src/v5.0.0/Groth16Verifier.sol\":1396:1462  0x30644e72e131a029b85045b68181585d97816a916871ca8d3c208c16d87cfd47 */\n      0x30644e72e131a029b85045b68181585d97816a916871ca8d3c208c16d87cfd47\n        /* \".deps/github/succinctlabs/sp1-contracts/contracts/src/v5.0.0/Groth16Verifier.sol\":15719:15738  mulmod(n3ab, x1, P) */\n      dup1\n      tag_299\n      jumpi\n      tag_300\n      tag_191\n      jump\t// in\n    tag_300:\n    tag_299:\n        /* \".deps/github/succinctlabs/sp1-contracts/contracts/src/v5.0.0/Groth16Verifier.sol\":15732:15734  x1 */\n      dup11\n        /* \".deps/github/succinctlabs/sp1-contracts/contracts/src/v5.0.0/Groth16Verifier.sol\":15726:15730  n3ab */\n      dup7\n        /* \".deps/github/succinctlabs/sp1-contracts/contracts/src/v5.0.0/Groth16Verifier.sol\":15719:15738  mulmod(n3ab, x1, P) */\n      mulmod\n        /* \".deps/github/succinctlabs/sp1-contracts/contracts/src/v5.0.0/Groth16Verifier.sol\":15714:15717  a_3 */\n      dup5\n        /* \".deps/github/succinctlabs/sp1-contracts/contracts/src/v5.0.0/Groth16Verifier.sol\":15707:15742  addmod(a_3, mulmod(n3ab, x1, P), P) */\n      addmod\n        /* \".deps/github/succinctlabs/sp1-contracts/contracts/src/v5.0.0/Groth16Verifier.sol\":2215:2281  0x2b149d40ceb8aaae81be18991be06ac3b5b4c5e559dbefa33267e6dc24a138e5 */\n      0x2b149d40ceb8aaae81be18991be06ac3b5b4c5e559dbefa33267e6dc24a138e5\n        /* \".deps/github/succinctlabs/sp1-contracts/contracts/src/v5.0.0/Groth16Verifier.sol\":15681:15746  addmod(FRACTION_27_82_FP, addmod(a_3, mulmod(n3ab, x1, P), P), P) */\n      addmod\n        /* \".deps/github/succinctlabs/sp1-contracts/contracts/src/v5.0.0/Groth16Verifier.sol\":15676:15746  y0 = addmod(FRACTION_27_82_FP, addmod(a_3, mulmod(n3ab, x1, P), P), P) */\n      swap7\n      pop\n        /* \".deps/github/succinctlabs/sp1-contracts/contracts/src/v5.0.0/Groth16Verifier.sol\":15761:15834  negate(addmod(FRACTION_3_82_FP,  addmod(b_3, mulmod(n3ab, x0, P), P), P)) */\n      tag_301\n        /* \".deps/github/succinctlabs/sp1-contracts/contracts/src/v5.0.0/Groth16Verifier.sol\":1396:1462  0x30644e72e131a029b85045b68181585d97816a916871ca8d3c208c16d87cfd47 */\n      0x30644e72e131a029b85045b68181585d97816a916871ca8d3c208c16d87cfd47\n        /* \".deps/github/succinctlabs/sp1-contracts/contracts/src/v5.0.0/Groth16Verifier.sol\":15768:15833  addmod(FRACTION_3_82_FP,  addmod(b_3, mulmod(n3ab, x0, P), P), P) */\n      dup1\n      tag_302\n      jumpi\n      tag_303\n      tag_191\n      jump\t// in\n    tag_303:\n    tag_302:\n        /* \".deps/github/succinctlabs/sp1-contracts/contracts/src/v5.0.0/Groth16Verifier.sol\":1396:1462  0x30644e72e131a029b85045b68181585d97816a916871ca8d3c208c16d87cfd47 */\n      0x30644e72e131a029b85045b68181585d97816a916871ca8d3c208c16d87cfd47\n        /* \".deps/github/succinctlabs/sp1-contracts/contracts/src/v5.0.0/Groth16Verifier.sol\":15794:15829  addmod(b_3, mulmod(n3ab, x0, P), P) */\n      dup1\n      tag_304\n      jumpi\n      tag_305\n      tag_191\n      jump\t// in\n    tag_305:\n    tag_304:\n        /* \".deps/github/succinctlabs/sp1-contracts/contracts/src/v5.0.0/Groth16Verifier.sol\":1396:1462  0x30644e72e131a029b85045b68181585d97816a916871ca8d3c208c16d87cfd47 */\n      0x30644e72e131a029b85045b68181585d97816a916871ca8d3c208c16d87cfd47\n        /* \".deps/github/succinctlabs/sp1-contracts/contracts/src/v5.0.0/Groth16Verifier.sol\":15806:15825  mulmod(n3ab, x0, P) */\n      dup1\n      tag_306\n      jumpi\n      tag_307\n      tag_191\n      jump\t// in\n    tag_307:\n    tag_306:\n        /* \".deps/github/succinctlabs/sp1-contracts/contracts/src/v5.0.0/Groth16Verifier.sol\":15819:15821  x0 */\n      dup13\n        /* \".deps/github/succinctlabs/sp1-contracts/contracts/src/v5.0.0/Groth16Verifier.sol\":15813:15817  n3ab */\n      dup8\n        /* \".deps/github/succinctlabs/sp1-contracts/contracts/src/v5.0.0/Groth16Verifier.sol\":15806:15825  mulmod(n3ab, x0, P) */\n      mulmod\n        /* \".deps/github/succinctlabs/sp1-contracts/contracts/src/v5.0.0/Groth16Verifier.sol\":15801:15804  b_3 */\n      dup5\n        /* \".deps/github/succinctlabs/sp1-contracts/contracts/src/v5.0.0/Groth16Verifier.sol\":15794:15829  addmod(b_3, mulmod(n3ab, x0, P), P) */\n      addmod\n        /* \".deps/github/succinctlabs/sp1-contracts/contracts/src/v5.0.0/Groth16Verifier.sol\":2323:2389  0x2fcd3ac2a640a154eb23960892a85a68f031ca0c8344b23a577dcf1052b9e775 */\n      0x2fcd3ac2a640a154eb23960892a85a68f031ca0c8344b23a577dcf1052b9e775\n        /* \".deps/github/succinctlabs/sp1-contracts/contracts/src/v5.0.0/Groth16Verifier.sol\":15768:15833  addmod(FRACTION_3_82_FP,  addmod(b_3, mulmod(n3ab, x0, P), P), P) */\n      addmod\n        /* \".deps/github/succinctlabs/sp1-contracts/contracts/src/v5.0.0/Groth16Verifier.sol\":15761:15767  negate */\n      tag_200\n        /* \".deps/github/succinctlabs/sp1-contracts/contracts/src/v5.0.0/Groth16Verifier.sol\":15761:15834  negate(addmod(FRACTION_3_82_FP,  addmod(b_3, mulmod(n3ab, x0, P), P), P)) */\n      jump\t// in\n    tag_301:\n        /* \".deps/github/succinctlabs/sp1-contracts/contracts/src/v5.0.0/Groth16Verifier.sol\":15756:15834  y1 = negate(addmod(FRACTION_3_82_FP,  addmod(b_3, mulmod(n3ab, x0, P), P), P)) */\n      swap6\n      pop\n        /* \".deps/github/succinctlabs/sp1-contracts/contracts/src/v5.0.0/Groth16Verifier.sol\":16094:16116  sqrt_Fp2(y0, y1, hint) */\n      tag_308\n        /* \".deps/github/succinctlabs/sp1-contracts/contracts/src/v5.0.0/Groth16Verifier.sol\":16103:16105  y0 */\n      dup8\n        /* \".deps/github/succinctlabs/sp1-contracts/contracts/src/v5.0.0/Groth16Verifier.sol\":16107:16109  y1 */\n      dup8\n        /* \".deps/github/succinctlabs/sp1-contracts/contracts/src/v5.0.0/Groth16Verifier.sol\":16111:16115  hint */\n      dup7\n        /* \".deps/github/succinctlabs/sp1-contracts/contracts/src/v5.0.0/Groth16Verifier.sol\":16094:16102  sqrt_Fp2 */\n      tag_250\n        /* \".deps/github/succinctlabs/sp1-contracts/contracts/src/v5.0.0/Groth16Verifier.sol\":16094:16116  sqrt_Fp2(y0, y1, hint) */\n      jump\t// in\n    tag_308:\n        /* \".deps/github/succinctlabs/sp1-contracts/contracts/src/v5.0.0/Groth16Verifier.sol\":16083:16116  (y0, y1) = sqrt_Fp2(y0, y1, hint) */\n      dup1\n      swap8\n      pop\n      dup2\n      swap9\n      pop\n      pop\n      pop\n        /* \".deps/github/succinctlabs/sp1-contracts/contracts/src/v5.0.0/Groth16Verifier.sol\":16130:16142  negate_point */\n      dup5\n        /* \".deps/github/succinctlabs/sp1-contracts/contracts/src/v5.0.0/Groth16Verifier.sol\":16126:16213  if (negate_point) {... */\n      iszero\n      tag_309\n      jumpi\n        /* \".deps/github/succinctlabs/sp1-contracts/contracts/src/v5.0.0/Groth16Verifier.sol\":16163:16173  negate(y0) */\n      tag_310\n        /* \".deps/github/succinctlabs/sp1-contracts/contracts/src/v5.0.0/Groth16Verifier.sol\":16170:16172  y0 */\n      dup8\n        /* \".deps/github/succinctlabs/sp1-contracts/contracts/src/v5.0.0/Groth16Verifier.sol\":16163:16169  negate */\n      tag_200\n        /* \".deps/github/succinctlabs/sp1-contracts/contracts/src/v5.0.0/Groth16Verifier.sol\":16163:16173  negate(y0) */\n      jump\t// in\n    tag_310:\n        /* \".deps/github/succinctlabs/sp1-contracts/contracts/src/v5.0.0/Groth16Verifier.sol\":16158:16173  y0 = negate(y0) */\n      swap7\n      pop\n        /* \".deps/github/succinctlabs/sp1-contracts/contracts/src/v5.0.0/Groth16Verifier.sol\":16192:16202  negate(y1) */\n      tag_311\n        /* \".deps/github/succinctlabs/sp1-contracts/contracts/src/v5.0.0/Groth16Verifier.sol\":16199:16201  y1 */\n      dup7\n        /* \".deps/github/succinctlabs/sp1-contracts/contracts/src/v5.0.0/Groth16Verifier.sol\":16192:16198  negate */\n      tag_200\n        /* \".deps/github/succinctlabs/sp1-contracts/contracts/src/v5.0.0/Groth16Verifier.sol\":16192:16202  negate(y1) */\n      jump\t// in\n    tag_311:\n        /* \".deps/github/succinctlabs/sp1-contracts/contracts/src/v5.0.0/Groth16Verifier.sol\":16187:16202  y1 = negate(y1) */\n      swap6\n      pop\n        /* \".deps/github/succinctlabs/sp1-contracts/contracts/src/v5.0.0/Groth16Verifier.sol\":16126:16213  if (negate_point) {... */\n    tag_309:\n        /* \".deps/github/succinctlabs/sp1-contracts/contracts/src/v5.0.0/Groth16Verifier.sol\":14962:16219  {... */\n      pop\n      pop\n      pop\n      pop\n      pop\n        /* \".deps/github/succinctlabs/sp1-contracts/contracts/src/v5.0.0/Groth16Verifier.sol\":14840:16219  function decompress_g2(uint256 c0, uint256 c1)... */\n    tag_277:\n      swap3\n      swap6\n      swap2\n      swap5\n      pop\n      swap3\n      pop\n      jump\t// out\n        /* \".deps/github/succinctlabs/sp1-contracts/contracts/src/v5.0.0/Groth16Verifier.sol\":7228:7528  function sqrt_Fp(uint256 a) internal view returns (uint256 x) {... */\n    tag_196:\n        /* \".deps/github/succinctlabs/sp1-contracts/contracts/src/v5.0.0/Groth16Verifier.sol\":7279:7288  uint256 x */\n      0x00\n        /* \".deps/github/succinctlabs/sp1-contracts/contracts/src/v5.0.0/Groth16Verifier.sol\":7304:7323  exp(a, EXP_SQRT_FP) */\n      tag_313\n        /* \".deps/github/succinctlabs/sp1-contracts/contracts/src/v5.0.0/Groth16Verifier.sol\":7308:7309  a */\n      dup3\n        /* \".deps/github/succinctlabs/sp1-contracts/contracts/src/v5.0.0/Groth16Verifier.sol\":2597:2662  0xC19139CB84C680A6E14116DA060561765E05AA45A1C72A34F082305B61F3F52 */\n      0x0c19139cb84c680a6e14116da060561765e05aa45a1c72a34f082305b61f3f52\n        /* \".deps/github/succinctlabs/sp1-contracts/contracts/src/v5.0.0/Groth16Verifier.sol\":7304:7307  exp */\n      tag_314\n        /* \".deps/github/succinctlabs/sp1-contracts/contracts/src/v5.0.0/Groth16Verifier.sol\":7304:7323  exp(a, EXP_SQRT_FP) */\n      jump\t// in\n    tag_313:\n        /* \".deps/github/succinctlabs/sp1-contracts/contracts/src/v5.0.0/Groth16Verifier.sol\":7300:7323  x = exp(a, EXP_SQRT_FP) */\n      swap1\n      pop\n        /* \".deps/github/succinctlabs/sp1-contracts/contracts/src/v5.0.0/Groth16Verifier.sol\":7356:7357  a */\n      dup2\n        /* \".deps/github/succinctlabs/sp1-contracts/contracts/src/v5.0.0/Groth16Verifier.sol\":1396:1462  0x30644e72e131a029b85045b68181585d97816a916871ca8d3c208c16d87cfd47 */\n      0x30644e72e131a029b85045b68181585d97816a916871ca8d3c208c16d87cfd47\n        /* \".deps/github/succinctlabs/sp1-contracts/contracts/src/v5.0.0/Groth16Verifier.sol\":7337:7352  mulmod(x, x, P) */\n      dup1\n      tag_315\n      jumpi\n      tag_316\n      tag_191\n      jump\t// in\n    tag_316:\n    tag_315:\n        /* \".deps/github/succinctlabs/sp1-contracts/contracts/src/v5.0.0/Groth16Verifier.sol\":7347:7348  x */\n      dup3\n        /* \".deps/github/succinctlabs/sp1-contracts/contracts/src/v5.0.0/Groth16Verifier.sol\":7344:7345  x */\n      dup4\n        /* \".deps/github/succinctlabs/sp1-contracts/contracts/src/v5.0.0/Groth16Verifier.sol\":7337:7352  mulmod(x, x, P) */\n      mulmod\n        /* \".deps/github/succinctlabs/sp1-contracts/contracts/src/v5.0.0/Groth16Verifier.sol\":7337:7357  mulmod(x, x, P) != a */\n      eq\n        /* \".deps/github/succinctlabs/sp1-contracts/contracts/src/v5.0.0/Groth16Verifier.sol\":7333:7522  if (mulmod(x, x, P) != a) {... */\n      tag_317\n      jumpi\n        /* \".deps/github/succinctlabs/sp1-contracts/contracts/src/v5.0.0/Groth16Verifier.sol\":7497:7511  ProofInvalid() */\n      mload(0x40)\n      0x7fcdd1f400000000000000000000000000000000000000000000000000000000\n      dup2\n      mstore\n      0x04\n      add\n      mload(0x40)\n      dup1\n      swap2\n      sub\n      swap1\n      revert\n        /* \".deps/github/succinctlabs/sp1-contracts/contracts/src/v5.0.0/Groth16Verifier.sol\":7333:7522  if (mulmod(x, x, P) != a) {... */\n    tag_317:\n        /* \".deps/github/succinctlabs/sp1-contracts/contracts/src/v5.0.0/Groth16Verifier.sol\":7228:7528  function sqrt_Fp(uint256 a) internal view returns (uint256 x) {... */\n      swap2\n      swap1\n      pop\n      jump\t// out\n        /* \".deps/github/succinctlabs/sp1-contracts/contracts/src/v5.0.0/Groth16Verifier.sol\":5361:5530  function negate(uint256 a) internal pure returns (uint256 x) {... */\n    tag_200:\n        /* \".deps/github/succinctlabs/sp1-contracts/contracts/src/v5.0.0/Groth16Verifier.sol\":5411:5420  uint256 x */\n      0x00\n        /* \".deps/github/succinctlabs/sp1-contracts/contracts/src/v5.0.0/Groth16Verifier.sol\":1396:1462  0x30644e72e131a029b85045b68181585d97816a916871ca8d3c208c16d87cfd47 */\n      0x30644e72e131a029b85045b68181585d97816a916871ca8d3c208c16d87cfd47\n      dup1\n        /* \".deps/github/succinctlabs/sp1-contracts/contracts/src/v5.0.0/Groth16Verifier.sol\":5466:5467  a */\n      dup4\n        /* \".deps/github/succinctlabs/sp1-contracts/contracts/src/v5.0.0/Groth16Verifier.sol\":5466:5471  a % P */\n      dup2\n      tag_319\n      jumpi\n      tag_320\n      tag_191\n      jump\t// in\n    tag_320:\n    tag_319:\n      mod\n        /* \".deps/github/succinctlabs/sp1-contracts/contracts/src/v5.0.0/Groth16Verifier.sol\":1396:1462  0x30644e72e131a029b85045b68181585d97816a916871ca8d3c208c16d87cfd47 */\n      0x30644e72e131a029b85045b68181585d97816a916871ca8d3c208c16d87cfd47\n        /* \".deps/github/succinctlabs/sp1-contracts/contracts/src/v5.0.0/Groth16Verifier.sol\":5461:5472  P - (a % P) */\n      sub\n        /* \".deps/github/succinctlabs/sp1-contracts/contracts/src/v5.0.0/Groth16Verifier.sol\":5460:5477  (P - (a % P)) % P */\n      dup2\n      tag_321\n      jumpi\n      tag_322\n      tag_191\n      jump\t// in\n    tag_322:\n    tag_321:\n      mod\n        /* \".deps/github/succinctlabs/sp1-contracts/contracts/src/v5.0.0/Groth16Verifier.sol\":5456:5477  x = (P - (a % P)) % P */\n      swap1\n      pop\n        /* \".deps/github/succinctlabs/sp1-contracts/contracts/src/v5.0.0/Groth16Verifier.sol\":5361:5530  function negate(uint256 a) internal pure returns (uint256 x) {... */\n      swap2\n      swap1\n      pop\n      jump\t// out\n        /* \".deps/github/succinctlabs/sp1-contracts/contracts/src/v5.0.0/Groth16Verifier.sol\":7798:7944  function isSquare_Fp(uint256 a) internal view returns (bool) {... */\n    tag_248:\n        /* \".deps/github/succinctlabs/sp1-contracts/contracts/src/v5.0.0/Groth16Verifier.sol\":7853:7857  bool */\n      0x00\n        /* \".deps/github/succinctlabs/sp1-contracts/contracts/src/v5.0.0/Groth16Verifier.sol\":7869:7878  uint256 x */\n      0x00\n        /* \".deps/github/succinctlabs/sp1-contracts/contracts/src/v5.0.0/Groth16Verifier.sol\":7881:7900  exp(a, EXP_SQRT_FP) */\n      tag_324\n        /* \".deps/github/succinctlabs/sp1-contracts/contracts/src/v5.0.0/Groth16Verifier.sol\":7885:7886  a */\n      dup4\n        /* \".deps/github/succinctlabs/sp1-contracts/contracts/src/v5.0.0/Groth16Verifier.sol\":2597:2662  0xC19139CB84C680A6E14116DA060561765E05AA45A1C72A34F082305B61F3F52 */\n      0x0c19139cb84c680a6e14116da060561765e05aa45a1c72a34f082305b61f3f52\n        /* \".deps/github/succinctlabs/sp1-contracts/contracts/src/v5.0.0/Groth16Verifier.sol\":7881:7884  exp */\n      tag_314\n        /* \".deps/github/succinctlabs/sp1-contracts/contracts/src/v5.0.0/Groth16Verifier.sol\":7881:7900  exp(a, EXP_SQRT_FP) */\n      jump\t// in\n    tag_324:\n        /* \".deps/github/succinctlabs/sp1-contracts/contracts/src/v5.0.0/Groth16Verifier.sol\":7869:7900  uint256 x = exp(a, EXP_SQRT_FP) */\n      swap1\n      pop\n        /* \".deps/github/succinctlabs/sp1-contracts/contracts/src/v5.0.0/Groth16Verifier.sol\":7936:7937  a */\n      dup3\n        /* \".deps/github/succinctlabs/sp1-contracts/contracts/src/v5.0.0/Groth16Verifier.sol\":1396:1462  0x30644e72e131a029b85045b68181585d97816a916871ca8d3c208c16d87cfd47 */\n      0x30644e72e131a029b85045b68181585d97816a916871ca8d3c208c16d87cfd47\n        /* \".deps/github/succinctlabs/sp1-contracts/contracts/src/v5.0.0/Groth16Verifier.sol\":7917:7932  mulmod(x, x, P) */\n      dup1\n      tag_325\n      jumpi\n      tag_326\n      tag_191\n      jump\t// in\n    tag_326:\n    tag_325:\n        /* \".deps/github/succinctlabs/sp1-contracts/contracts/src/v5.0.0/Groth16Verifier.sol\":7927:7928  x */\n      dup3\n        /* \".deps/github/succinctlabs/sp1-contracts/contracts/src/v5.0.0/Groth16Verifier.sol\":7924:7925  x */\n      dup4\n        /* \".deps/github/succinctlabs/sp1-contracts/contracts/src/v5.0.0/Groth16Verifier.sol\":7917:7932  mulmod(x, x, P) */\n      mulmod\n        /* \".deps/github/succinctlabs/sp1-contracts/contracts/src/v5.0.0/Groth16Verifier.sol\":7917:7937  mulmod(x, x, P) == a */\n      eq\n        /* \".deps/github/succinctlabs/sp1-contracts/contracts/src/v5.0.0/Groth16Verifier.sol\":7910:7937  return mulmod(x, x, P) == a */\n      swap2\n      pop\n      pop\n        /* \".deps/github/succinctlabs/sp1-contracts/contracts/src/v5.0.0/Groth16Verifier.sol\":7798:7944  function isSquare_Fp(uint256 a) internal view returns (bool) {... */\n      swap2\n      swap1\n      pop\n      jump\t// out\n        /* \".deps/github/succinctlabs/sp1-contracts/contracts/src/v5.0.0/Groth16Verifier.sol\":8575:9366  function sqrt_Fp2(uint256 a0, uint256 a1, bool hint) internal view returns (uint256 x0, uint256 x1) {... */\n    tag_250:\n        /* \".deps/github/succinctlabs/sp1-contracts/contracts/src/v5.0.0/Groth16Verifier.sol\":8651:8661  uint256 x0 */\n      0x00\n        /* \".deps/github/succinctlabs/sp1-contracts/contracts/src/v5.0.0/Groth16Verifier.sol\":8663:8673  uint256 x1 */\n      0x00\n        /* \".deps/github/succinctlabs/sp1-contracts/contracts/src/v5.0.0/Groth16Verifier.sol\":8753:8762  uint256 d */\n      0x00\n        /* \".deps/github/succinctlabs/sp1-contracts/contracts/src/v5.0.0/Groth16Verifier.sol\":8765:8821  sqrt_Fp(addmod(mulmod(a0, a0, P), mulmod(a1, a1, P), P)) */\n      tag_328\n        /* \".deps/github/succinctlabs/sp1-contracts/contracts/src/v5.0.0/Groth16Verifier.sol\":1396:1462  0x30644e72e131a029b85045b68181585d97816a916871ca8d3c208c16d87cfd47 */\n      0x30644e72e131a029b85045b68181585d97816a916871ca8d3c208c16d87cfd47\n        /* \".deps/github/succinctlabs/sp1-contracts/contracts/src/v5.0.0/Groth16Verifier.sol\":8773:8820  addmod(mulmod(a0, a0, P), mulmod(a1, a1, P), P) */\n      dup1\n      tag_329\n      jumpi\n      tag_330\n      tag_191\n      jump\t// in\n    tag_330:\n    tag_329:\n        /* \".deps/github/succinctlabs/sp1-contracts/contracts/src/v5.0.0/Groth16Verifier.sol\":1396:1462  0x30644e72e131a029b85045b68181585d97816a916871ca8d3c208c16d87cfd47 */\n      0x30644e72e131a029b85045b68181585d97816a916871ca8d3c208c16d87cfd47\n        /* \".deps/github/succinctlabs/sp1-contracts/contracts/src/v5.0.0/Groth16Verifier.sol\":8799:8816  mulmod(a1, a1, P) */\n      dup1\n      tag_331\n      jumpi\n      tag_332\n      tag_191\n      jump\t// in\n    tag_332:\n    tag_331:\n        /* \".deps/github/succinctlabs/sp1-contracts/contracts/src/v5.0.0/Groth16Verifier.sol\":8810:8812  a1 */\n      dup8\n        /* \".deps/github/succinctlabs/sp1-contracts/contracts/src/v5.0.0/Groth16Verifier.sol\":8806:8808  a1 */\n      dup9\n        /* \".deps/github/succinctlabs/sp1-contracts/contracts/src/v5.0.0/Groth16Verifier.sol\":8799:8816  mulmod(a1, a1, P) */\n      mulmod\n        /* \".deps/github/succinctlabs/sp1-contracts/contracts/src/v5.0.0/Groth16Verifier.sol\":1396:1462  0x30644e72e131a029b85045b68181585d97816a916871ca8d3c208c16d87cfd47 */\n      0x30644e72e131a029b85045b68181585d97816a916871ca8d3c208c16d87cfd47\n        /* \".deps/github/succinctlabs/sp1-contracts/contracts/src/v5.0.0/Groth16Verifier.sol\":8780:8797  mulmod(a0, a0, P) */\n      dup1\n      tag_333\n      jumpi\n      tag_334\n      tag_191\n      jump\t// in\n    tag_334:\n    tag_333:\n        /* \".deps/github/succinctlabs/sp1-contracts/contracts/src/v5.0.0/Groth16Verifier.sol\":8791:8793  a0 */\n      dup10\n        /* \".deps/github/succinctlabs/sp1-contracts/contracts/src/v5.0.0/Groth16Verifier.sol\":8787:8789  a0 */\n      dup11\n        /* \".deps/github/succinctlabs/sp1-contracts/contracts/src/v5.0.0/Groth16Verifier.sol\":8780:8797  mulmod(a0, a0, P) */\n      mulmod\n        /* \".deps/github/succinctlabs/sp1-contracts/contracts/src/v5.0.0/Groth16Verifier.sol\":8773:8820  addmod(mulmod(a0, a0, P), mulmod(a1, a1, P), P) */\n      addmod\n        /* \".deps/github/succinctlabs/sp1-contracts/contracts/src/v5.0.0/Groth16Verifier.sol\":8765:8772  sqrt_Fp */\n      tag_196\n        /* \".deps/github/succinctlabs/sp1-contracts/contracts/src/v5.0.0/Groth16Verifier.sol\":8765:8821  sqrt_Fp(addmod(mulmod(a0, a0, P), mulmod(a1, a1, P), P)) */\n      jump\t// in\n    tag_328:\n        /* \".deps/github/succinctlabs/sp1-contracts/contracts/src/v5.0.0/Groth16Verifier.sol\":8753:8821  uint256 d = sqrt_Fp(addmod(mulmod(a0, a0, P), mulmod(a1, a1, P), P)) */\n      swap1\n      pop\n        /* \".deps/github/succinctlabs/sp1-contracts/contracts/src/v5.0.0/Groth16Verifier.sol\":8835:8839  hint */\n      dup4\n        /* \".deps/github/succinctlabs/sp1-contracts/contracts/src/v5.0.0/Groth16Verifier.sol\":8831:8879  if (hint) {... */\n      iszero\n      tag_335\n      jumpi\n        /* \".deps/github/succinctlabs/sp1-contracts/contracts/src/v5.0.0/Groth16Verifier.sol\":8859:8868  negate(d) */\n      tag_336\n        /* \".deps/github/succinctlabs/sp1-contracts/contracts/src/v5.0.0/Groth16Verifier.sol\":8866:8867  d */\n      dup2\n        /* \".deps/github/succinctlabs/sp1-contracts/contracts/src/v5.0.0/Groth16Verifier.sol\":8859:8865  negate */\n      tag_200\n        /* \".deps/github/succinctlabs/sp1-contracts/contracts/src/v5.0.0/Groth16Verifier.sol\":8859:8868  negate(d) */\n      jump\t// in\n    tag_336:\n        /* \".deps/github/succinctlabs/sp1-contracts/contracts/src/v5.0.0/Groth16Verifier.sol\":8855:8868  d = negate(d) */\n      swap1\n      pop\n        /* \".deps/github/succinctlabs/sp1-contracts/contracts/src/v5.0.0/Groth16Verifier.sol\":8831:8879  if (hint) {... */\n    tag_335:\n        /* \".deps/github/succinctlabs/sp1-contracts/contracts/src/v5.0.0/Groth16Verifier.sol\":8961:9014  sqrt_Fp(mulmod(addmod(a0, d, P), FRACTION_1_2_FP, P)) */\n      tag_337\n        /* \".deps/github/succinctlabs/sp1-contracts/contracts/src/v5.0.0/Groth16Verifier.sol\":1396:1462  0x30644e72e131a029b85045b68181585d97816a916871ca8d3c208c16d87cfd47 */\n      0x30644e72e131a029b85045b68181585d97816a916871ca8d3c208c16d87cfd47\n        /* \".deps/github/succinctlabs/sp1-contracts/contracts/src/v5.0.0/Groth16Verifier.sol\":8969:9013  mulmod(addmod(a0, d, P), FRACTION_1_2_FP, P) */\n      dup1\n      tag_338\n      jumpi\n      tag_339\n      tag_191\n      jump\t// in\n    tag_339:\n    tag_338:\n        /* \".deps/github/succinctlabs/sp1-contracts/contracts/src/v5.0.0/Groth16Verifier.sol\":2106:2172  0x183227397098d014dc2822db40c0ac2ecbc0b548b438e5469e10460b6c3e7ea4 */\n      0x183227397098d014dc2822db40c0ac2ecbc0b548b438e5469e10460b6c3e7ea4\n        /* \".deps/github/succinctlabs/sp1-contracts/contracts/src/v5.0.0/Groth16Verifier.sol\":1396:1462  0x30644e72e131a029b85045b68181585d97816a916871ca8d3c208c16d87cfd47 */\n      0x30644e72e131a029b85045b68181585d97816a916871ca8d3c208c16d87cfd47\n        /* \".deps/github/succinctlabs/sp1-contracts/contracts/src/v5.0.0/Groth16Verifier.sol\":8976:8992  addmod(a0, d, P) */\n      dup1\n      tag_340\n      jumpi\n      tag_341\n      tag_191\n      jump\t// in\n    tag_341:\n    tag_340:\n        /* \".deps/github/succinctlabs/sp1-contracts/contracts/src/v5.0.0/Groth16Verifier.sol\":8987:8988  d */\n      dup5\n        /* \".deps/github/succinctlabs/sp1-contracts/contracts/src/v5.0.0/Groth16Verifier.sol\":8983:8985  a0 */\n      dup11\n        /* \".deps/github/succinctlabs/sp1-contracts/contracts/src/v5.0.0/Groth16Verifier.sol\":8976:8992  addmod(a0, d, P) */\n      addmod\n        /* \".deps/github/succinctlabs/sp1-contracts/contracts/src/v5.0.0/Groth16Verifier.sol\":8969:9013  mulmod(addmod(a0, d, P), FRACTION_1_2_FP, P) */\n      mulmod\n        /* \".deps/github/succinctlabs/sp1-contracts/contracts/src/v5.0.0/Groth16Verifier.sol\":8961:8968  sqrt_Fp */\n      tag_196\n        /* \".deps/github/succinctlabs/sp1-contracts/contracts/src/v5.0.0/Groth16Verifier.sol\":8961:9014  sqrt_Fp(mulmod(addmod(a0, d, P), FRACTION_1_2_FP, P)) */\n      jump\t// in\n    tag_337:\n        /* \".deps/github/succinctlabs/sp1-contracts/contracts/src/v5.0.0/Groth16Verifier.sol\":8956:9014  x0 = sqrt_Fp(mulmod(addmod(a0, d, P), FRACTION_1_2_FP, P)) */\n      swap3\n      pop\n        /* \".deps/github/succinctlabs/sp1-contracts/contracts/src/v5.0.0/Groth16Verifier.sol\":1396:1462  0x30644e72e131a029b85045b68181585d97816a916871ca8d3c208c16d87cfd47 */\n      0x30644e72e131a029b85045b68181585d97816a916871ca8d3c208c16d87cfd47\n        /* \".deps/github/succinctlabs/sp1-contracts/contracts/src/v5.0.0/Groth16Verifier.sol\":9029:9071  mulmod(a1, invert_Fp(mulmod(x0, 2, P)), P) */\n      dup1\n      tag_342\n      jumpi\n      tag_343\n      tag_191\n      jump\t// in\n    tag_343:\n    tag_342:\n        /* \".deps/github/succinctlabs/sp1-contracts/contracts/src/v5.0.0/Groth16Verifier.sol\":9040:9067  invert_Fp(mulmod(x0, 2, P)) */\n      tag_344\n        /* \".deps/github/succinctlabs/sp1-contracts/contracts/src/v5.0.0/Groth16Verifier.sol\":1396:1462  0x30644e72e131a029b85045b68181585d97816a916871ca8d3c208c16d87cfd47 */\n      0x30644e72e131a029b85045b68181585d97816a916871ca8d3c208c16d87cfd47\n        /* \".deps/github/succinctlabs/sp1-contracts/contracts/src/v5.0.0/Groth16Verifier.sol\":9050:9066  mulmod(x0, 2, P) */\n      dup1\n      tag_345\n      jumpi\n      tag_346\n      tag_191\n      jump\t// in\n    tag_346:\n    tag_345:\n        /* \".deps/github/succinctlabs/sp1-contracts/contracts/src/v5.0.0/Groth16Verifier.sol\":9061:9062  2 */\n      0x02\n        /* \".deps/github/succinctlabs/sp1-contracts/contracts/src/v5.0.0/Groth16Verifier.sol\":9057:9059  x0 */\n      dup7\n        /* \".deps/github/succinctlabs/sp1-contracts/contracts/src/v5.0.0/Groth16Verifier.sol\":9050:9066  mulmod(x0, 2, P) */\n      mulmod\n        /* \".deps/github/succinctlabs/sp1-contracts/contracts/src/v5.0.0/Groth16Verifier.sol\":9040:9049  invert_Fp */\n      tag_347\n        /* \".deps/github/succinctlabs/sp1-contracts/contracts/src/v5.0.0/Groth16Verifier.sol\":9040:9067  invert_Fp(mulmod(x0, 2, P)) */\n      jump\t// in\n    tag_344:\n        /* \".deps/github/succinctlabs/sp1-contracts/contracts/src/v5.0.0/Groth16Verifier.sol\":9036:9038  a1 */\n      dup7\n        /* \".deps/github/succinctlabs/sp1-contracts/contracts/src/v5.0.0/Groth16Verifier.sol\":9029:9071  mulmod(a1, invert_Fp(mulmod(x0, 2, P)), P) */\n      mulmod\n        /* \".deps/github/succinctlabs/sp1-contracts/contracts/src/v5.0.0/Groth16Verifier.sol\":9024:9071  x1 = mulmod(a1, invert_Fp(mulmod(x0, 2, P)), P) */\n      swap2\n      pop\n        /* \".deps/github/succinctlabs/sp1-contracts/contracts/src/v5.0.0/Groth16Verifier.sol\":1396:1462  0x30644e72e131a029b85045b68181585d97816a916871ca8d3c208c16d87cfd47 */\n      0x30644e72e131a029b85045b68181585d97816a916871ca8d3c208c16d87cfd47\n        /* \".deps/github/succinctlabs/sp1-contracts/contracts/src/v5.0.0/Groth16Verifier.sol\":9207:9262  addmod(mulmod(x0, x0, P), negate(mulmod(x1, x1, P)), P) */\n      dup1\n      tag_348\n      jumpi\n      tag_349\n      tag_191\n      jump\t// in\n    tag_349:\n    tag_348:\n        /* \".deps/github/succinctlabs/sp1-contracts/contracts/src/v5.0.0/Groth16Verifier.sol\":9233:9258  negate(mulmod(x1, x1, P)) */\n      tag_350\n        /* \".deps/github/succinctlabs/sp1-contracts/contracts/src/v5.0.0/Groth16Verifier.sol\":1396:1462  0x30644e72e131a029b85045b68181585d97816a916871ca8d3c208c16d87cfd47 */\n      0x30644e72e131a029b85045b68181585d97816a916871ca8d3c208c16d87cfd47\n        /* \".deps/github/succinctlabs/sp1-contracts/contracts/src/v5.0.0/Groth16Verifier.sol\":9240:9257  mulmod(x1, x1, P) */\n      dup1\n      tag_351\n      jumpi\n      tag_352\n      tag_191\n      jump\t// in\n    tag_352:\n    tag_351:\n        /* \".deps/github/succinctlabs/sp1-contracts/contracts/src/v5.0.0/Groth16Verifier.sol\":9251:9253  x1 */\n      dup5\n        /* \".deps/github/succinctlabs/sp1-contracts/contracts/src/v5.0.0/Groth16Verifier.sol\":9247:9249  x1 */\n      dup6\n        /* \".deps/github/succinctlabs/sp1-contracts/contracts/src/v5.0.0/Groth16Verifier.sol\":9240:9257  mulmod(x1, x1, P) */\n      mulmod\n        /* \".deps/github/succinctlabs/sp1-contracts/contracts/src/v5.0.0/Groth16Verifier.sol\":9233:9239  negate */\n      tag_200\n        /* \".deps/github/succinctlabs/sp1-contracts/contracts/src/v5.0.0/Groth16Verifier.sol\":9233:9258  negate(mulmod(x1, x1, P)) */\n      jump\t// in\n    tag_350:\n        /* \".deps/github/succinctlabs/sp1-contracts/contracts/src/v5.0.0/Groth16Verifier.sol\":1396:1462  0x30644e72e131a029b85045b68181585d97816a916871ca8d3c208c16d87cfd47 */\n      0x30644e72e131a029b85045b68181585d97816a916871ca8d3c208c16d87cfd47\n        /* \".deps/github/succinctlabs/sp1-contracts/contracts/src/v5.0.0/Groth16Verifier.sol\":9214:9231  mulmod(x0, x0, P) */\n      dup1\n      tag_353\n      jumpi\n      tag_354\n      tag_191\n      jump\t// in\n    tag_354:\n    tag_353:\n        /* \".deps/github/succinctlabs/sp1-contracts/contracts/src/v5.0.0/Groth16Verifier.sol\":9225:9227  x0 */\n      dup6\n        /* \".deps/github/succinctlabs/sp1-contracts/contracts/src/v5.0.0/Groth16Verifier.sol\":9221:9223  x0 */\n      dup7\n        /* \".deps/github/succinctlabs/sp1-contracts/contracts/src/v5.0.0/Groth16Verifier.sol\":9214:9231  mulmod(x0, x0, P) */\n      mulmod\n        /* \".deps/github/succinctlabs/sp1-contracts/contracts/src/v5.0.0/Groth16Verifier.sol\":9207:9262  addmod(mulmod(x0, x0, P), negate(mulmod(x1, x1, P)), P) */\n      addmod\n        /* \".deps/github/succinctlabs/sp1-contracts/contracts/src/v5.0.0/Groth16Verifier.sol\":9201:9203  a0 */\n      dup7\n        /* \".deps/github/succinctlabs/sp1-contracts/contracts/src/v5.0.0/Groth16Verifier.sol\":9201:9262  a0 != addmod(mulmod(x0, x0, P), negate(mulmod(x1, x1, P)), P) */\n      eq\n      iszero\n        /* \".deps/github/succinctlabs/sp1-contracts/contracts/src/v5.0.0/Groth16Verifier.sol\":9201:9312  a0 != addmod(mulmod(x0, x0, P), negate(mulmod(x1, x1, P)), P)... */\n      dup1\n      tag_355\n      jumpi\n      pop\n        /* \".deps/github/succinctlabs/sp1-contracts/contracts/src/v5.0.0/Groth16Verifier.sol\":1396:1462  0x30644e72e131a029b85045b68181585d97816a916871ca8d3c208c16d87cfd47 */\n      0x30644e72e131a029b85045b68181585d97816a916871ca8d3c208c16d87cfd47\n        /* \".deps/github/succinctlabs/sp1-contracts/contracts/src/v5.0.0/Groth16Verifier.sol\":9281:9312  mulmod(2, mulmod(x0, x1, P), P) */\n      dup1\n      tag_356\n      jumpi\n      tag_357\n      tag_191\n      jump\t// in\n    tag_357:\n    tag_356:\n        /* \".deps/github/succinctlabs/sp1-contracts/contracts/src/v5.0.0/Groth16Verifier.sol\":1396:1462  0x30644e72e131a029b85045b68181585d97816a916871ca8d3c208c16d87cfd47 */\n      0x30644e72e131a029b85045b68181585d97816a916871ca8d3c208c16d87cfd47\n        /* \".deps/github/succinctlabs/sp1-contracts/contracts/src/v5.0.0/Groth16Verifier.sol\":9291:9308  mulmod(x0, x1, P) */\n      dup1\n      tag_358\n      jumpi\n      tag_359\n      tag_191\n      jump\t// in\n    tag_359:\n    tag_358:\n        /* \".deps/github/succinctlabs/sp1-contracts/contracts/src/v5.0.0/Groth16Verifier.sol\":9302:9304  x1 */\n      dup4\n        /* \".deps/github/succinctlabs/sp1-contracts/contracts/src/v5.0.0/Groth16Verifier.sol\":9298:9300  x0 */\n      dup6\n        /* \".deps/github/succinctlabs/sp1-contracts/contracts/src/v5.0.0/Groth16Verifier.sol\":9291:9308  mulmod(x0, x1, P) */\n      mulmod\n        /* \".deps/github/succinctlabs/sp1-contracts/contracts/src/v5.0.0/Groth16Verifier.sol\":9288:9289  2 */\n      0x02\n        /* \".deps/github/succinctlabs/sp1-contracts/contracts/src/v5.0.0/Groth16Verifier.sol\":9281:9312  mulmod(2, mulmod(x0, x1, P), P) */\n      mulmod\n        /* \".deps/github/succinctlabs/sp1-contracts/contracts/src/v5.0.0/Groth16Verifier.sol\":9275:9277  a1 */\n      dup6\n        /* \".deps/github/succinctlabs/sp1-contracts/contracts/src/v5.0.0/Groth16Verifier.sol\":9275:9312  a1 != mulmod(2, mulmod(x0, x1, P), P) */\n      eq\n      iszero\n        /* \".deps/github/succinctlabs/sp1-contracts/contracts/src/v5.0.0/Groth16Verifier.sol\":9201:9312  a0 != addmod(mulmod(x0, x0, P), negate(mulmod(x1, x1, P)), P)... */\n    tag_355:\n        /* \".deps/github/succinctlabs/sp1-contracts/contracts/src/v5.0.0/Groth16Verifier.sol\":9197:9360  if (a0 != addmod(mulmod(x0, x0, P), negate(mulmod(x1, x1, P)), P)... */\n      iszero\n      tag_360\n      jumpi\n        /* \".deps/github/succinctlabs/sp1-contracts/contracts/src/v5.0.0/Groth16Verifier.sol\":9335:9349  ProofInvalid() */\n      mload(0x40)\n      0x7fcdd1f400000000000000000000000000000000000000000000000000000000\n      dup2\n      mstore\n      0x04\n      add\n      mload(0x40)\n      dup1\n      swap2\n      sub\n      swap1\n      revert\n        /* \".deps/github/succinctlabs/sp1-contracts/contracts/src/v5.0.0/Groth16Verifier.sol\":9197:9360  if (a0 != addmod(mulmod(x0, x0, P), negate(mulmod(x1, x1, P)), P)... */\n    tag_360:\n        /* \".deps/github/succinctlabs/sp1-contracts/contracts/src/v5.0.0/Groth16Verifier.sol\":8675:9366  {... */\n      pop\n        /* \".deps/github/succinctlabs/sp1-contracts/contracts/src/v5.0.0/Groth16Verifier.sol\":8575:9366  function sqrt_Fp2(uint256 a0, uint256 a1, bool hint) internal view returns (uint256 x0, uint256 x1) {... */\n      swap4\n      pop\n      swap4\n      swap2\n      pop\n      pop\n      jump\t// out\n        /* \".deps/github/succinctlabs/sp1-contracts/contracts/src/v5.0.0/Groth16Verifier.sol\":5768:6403  function exp(uint256 a, uint256 e) internal view returns (uint256 x) {... */\n    tag_314:\n        /* \".deps/github/succinctlabs/sp1-contracts/contracts/src/v5.0.0/Groth16Verifier.sol\":5826:5835  uint256 x */\n      0x00\n        /* \".deps/github/succinctlabs/sp1-contracts/contracts/src/v5.0.0/Groth16Verifier.sol\":5847:5859  bool success */\n      0x00\n        /* \".deps/github/succinctlabs/sp1-contracts/contracts/src/v5.0.0/Groth16Verifier.sol\":5923:5927  0x40 */\n      0x40\n        /* \".deps/github/succinctlabs/sp1-contracts/contracts/src/v5.0.0/Groth16Verifier.sol\":5917:5928  mload(0x40) */\n      mload\n        /* \".deps/github/succinctlabs/sp1-contracts/contracts/src/v5.0.0/Groth16Verifier.sol\":5951:5955  0x20 */\n      0x20\n        /* \".deps/github/succinctlabs/sp1-contracts/contracts/src/v5.0.0/Groth16Verifier.sol\":5948:5949  f */\n      dup2\n        /* \".deps/github/succinctlabs/sp1-contracts/contracts/src/v5.0.0/Groth16Verifier.sol\":5941:5956  mstore(f, 0x20) */\n      mstore\n        /* \".deps/github/succinctlabs/sp1-contracts/contracts/src/v5.0.0/Groth16Verifier.sol\":5990:5994  0x20 */\n      0x20\n        /* \".deps/github/succinctlabs/sp1-contracts/contracts/src/v5.0.0/Groth16Verifier.sol\":5983:5987  0x20 */\n      dup1\n        /* \".deps/github/succinctlabs/sp1-contracts/contracts/src/v5.0.0/Groth16Verifier.sol\":5980:5981  f */\n      dup3\n        /* \".deps/github/succinctlabs/sp1-contracts/contracts/src/v5.0.0/Groth16Verifier.sol\":5976:5988  add(f, 0x20) */\n      add\n        /* \".deps/github/succinctlabs/sp1-contracts/contracts/src/v5.0.0/Groth16Verifier.sol\":5969:5995  mstore(add(f, 0x20), 0x20) */\n      mstore\n        /* \".deps/github/succinctlabs/sp1-contracts/contracts/src/v5.0.0/Groth16Verifier.sol\":6029:6033  0x20 */\n      0x20\n        /* \".deps/github/succinctlabs/sp1-contracts/contracts/src/v5.0.0/Groth16Verifier.sol\":6022:6026  0x40 */\n      0x40\n        /* \".deps/github/succinctlabs/sp1-contracts/contracts/src/v5.0.0/Groth16Verifier.sol\":6019:6020  f */\n      dup3\n        /* \".deps/github/succinctlabs/sp1-contracts/contracts/src/v5.0.0/Groth16Verifier.sol\":6015:6027  add(f, 0x40) */\n      add\n        /* \".deps/github/succinctlabs/sp1-contracts/contracts/src/v5.0.0/Groth16Verifier.sol\":6008:6034  mstore(add(f, 0x40), 0x20) */\n      mstore\n        /* \".deps/github/succinctlabs/sp1-contracts/contracts/src/v5.0.0/Groth16Verifier.sol\":6068:6069  a */\n      dup5\n        /* \".deps/github/succinctlabs/sp1-contracts/contracts/src/v5.0.0/Groth16Verifier.sol\":6061:6065  0x60 */\n      0x60\n        /* \".deps/github/succinctlabs/sp1-contracts/contracts/src/v5.0.0/Groth16Verifier.sol\":6058:6059  f */\n      dup3\n        /* \".deps/github/succinctlabs/sp1-contracts/contracts/src/v5.0.0/Groth16Verifier.sol\":6054:6066  add(f, 0x60) */\n      add\n        /* \".deps/github/succinctlabs/sp1-contracts/contracts/src/v5.0.0/Groth16Verifier.sol\":6047:6070  mstore(add(f, 0x60), a) */\n      mstore\n        /* \".deps/github/succinctlabs/sp1-contracts/contracts/src/v5.0.0/Groth16Verifier.sol\":6104:6105  e */\n      dup4\n        /* \".deps/github/succinctlabs/sp1-contracts/contracts/src/v5.0.0/Groth16Verifier.sol\":6097:6101  0x80 */\n      0x80\n        /* \".deps/github/succinctlabs/sp1-contracts/contracts/src/v5.0.0/Groth16Verifier.sol\":6094:6095  f */\n      dup3\n        /* \".deps/github/succinctlabs/sp1-contracts/contracts/src/v5.0.0/Groth16Verifier.sol\":6090:6102  add(f, 0x80) */\n      add\n        /* \".deps/github/succinctlabs/sp1-contracts/contracts/src/v5.0.0/Groth16Verifier.sol\":6083:6106  mstore(add(f, 0x80), e) */\n      mstore\n        /* \".deps/github/succinctlabs/sp1-contracts/contracts/src/v5.0.0/Groth16Verifier.sol\":6140:6141  P */\n      0x30644e72e131a029b85045b68181585d97816a916871ca8d3c208c16d87cfd47\n        /* \".deps/github/succinctlabs/sp1-contracts/contracts/src/v5.0.0/Groth16Verifier.sol\":6133:6137  0xa0 */\n      0xa0\n        /* \".deps/github/succinctlabs/sp1-contracts/contracts/src/v5.0.0/Groth16Verifier.sol\":6130:6131  f */\n      dup3\n        /* \".deps/github/succinctlabs/sp1-contracts/contracts/src/v5.0.0/Groth16Verifier.sol\":6126:6138  add(f, 0xa0) */\n      add\n        /* \".deps/github/succinctlabs/sp1-contracts/contracts/src/v5.0.0/Groth16Verifier.sol\":6119:6142  mstore(add(f, 0xa0), P) */\n      mstore\n        /* \".deps/github/succinctlabs/sp1-contracts/contracts/src/v5.0.0/Groth16Verifier.sol\":6215:6219  0x20 */\n      0x20\n        /* \".deps/github/succinctlabs/sp1-contracts/contracts/src/v5.0.0/Groth16Verifier.sol\":6212:6213  f */\n      dup2\n        /* \".deps/github/succinctlabs/sp1-contracts/contracts/src/v5.0.0/Groth16Verifier.sol\":6206:6210  0xc0 */\n      0xc0\n        /* \".deps/github/succinctlabs/sp1-contracts/contracts/src/v5.0.0/Groth16Verifier.sol\":6203:6204  f */\n      dup4\n        /* \".deps/github/succinctlabs/sp1-contracts/contracts/src/v5.0.0/Groth16Verifier.sol\":6184:6201  PRECOMPILE_MODEXP */\n      0x05\n        /* \".deps/github/succinctlabs/sp1-contracts/contracts/src/v5.0.0/Groth16Verifier.sol\":6177:6182  gas() */\n      gas\n        /* \".deps/github/succinctlabs/sp1-contracts/contracts/src/v5.0.0/Groth16Verifier.sol\":6166:6220  staticcall(gas(), PRECOMPILE_MODEXP, f, 0xc0, f, 0x20) */\n      staticcall\n        /* \".deps/github/succinctlabs/sp1-contracts/contracts/src/v5.0.0/Groth16Verifier.sol\":6155:6220  success := staticcall(gas(), PRECOMPILE_MODEXP, f, 0xc0, f, 0x20) */\n      swap2\n      pop\n        /* \".deps/github/succinctlabs/sp1-contracts/contracts/src/v5.0.0/Groth16Verifier.sol\":6244:6245  f */\n      dup1\n        /* \".deps/github/succinctlabs/sp1-contracts/contracts/src/v5.0.0/Groth16Verifier.sol\":6238:6246  mload(f) */\n      mload\n        /* \".deps/github/succinctlabs/sp1-contracts/contracts/src/v5.0.0/Groth16Verifier.sol\":6233:6246  x := mload(f) */\n      swap3\n      pop\n        /* \".deps/github/succinctlabs/sp1-contracts/contracts/src/v5.0.0/Groth16Verifier.sol\":5894:6256  {... */\n      pop\n        /* \".deps/github/succinctlabs/sp1-contracts/contracts/src/v5.0.0/Groth16Verifier.sol\":6270:6277  success */\n      dup1\n        /* \".deps/github/succinctlabs/sp1-contracts/contracts/src/v5.0.0/Groth16Verifier.sol\":6265:6397  if (!success) {... */\n      tag_362\n      jumpi\n        /* \".deps/github/succinctlabs/sp1-contracts/contracts/src/v5.0.0/Groth16Verifier.sol\":6372:6386  ProofInvalid() */\n      mload(0x40)\n      0x7fcdd1f400000000000000000000000000000000000000000000000000000000\n      dup2\n      mstore\n      0x04\n      add\n      mload(0x40)\n      dup1\n      swap2\n      sub\n      swap1\n      revert\n        /* \".deps/github/succinctlabs/sp1-contracts/contracts/src/v5.0.0/Groth16Verifier.sol\":6265:6397  if (!success) {... */\n    tag_362:\n        /* \".deps/github/succinctlabs/sp1-contracts/contracts/src/v5.0.0/Groth16Verifier.sol\":5837:6403  {... */\n      pop\n        /* \".deps/github/succinctlabs/sp1-contracts/contracts/src/v5.0.0/Groth16Verifier.sol\":5768:6403  function exp(uint256 a, uint256 e) internal view returns (uint256 x) {... */\n      swap3\n      swap2\n      pop\n      pop\n      jump\t// out\n        /* \".deps/github/succinctlabs/sp1-contracts/contracts/src/v5.0.0/Groth16Verifier.sol\":6684:6973  function invert_Fp(uint256 a) internal view returns (uint256 x) {... */\n    tag_347:\n        /* \".deps/github/succinctlabs/sp1-contracts/contracts/src/v5.0.0/Groth16Verifier.sol\":6737:6746  uint256 x */\n      0x00\n        /* \".deps/github/succinctlabs/sp1-contracts/contracts/src/v5.0.0/Groth16Verifier.sol\":6762:6784  exp(a, EXP_INVERSE_FP) */\n      tag_364\n        /* \".deps/github/succinctlabs/sp1-contracts/contracts/src/v5.0.0/Groth16Verifier.sol\":6766:6767  a */\n      dup3\n        /* \".deps/github/succinctlabs/sp1-contracts/contracts/src/v5.0.0/Groth16Verifier.sol\":2485:2551  0x30644E72E131A029B85045B68181585D97816A916871CA8D3C208C16D87CFD45 */\n      0x30644e72e131a029b85045b68181585d97816a916871ca8d3c208c16d87cfd45\n        /* \".deps/github/succinctlabs/sp1-contracts/contracts/src/v5.0.0/Groth16Verifier.sol\":6762:6765  exp */\n      tag_314\n        /* \".deps/github/succinctlabs/sp1-contracts/contracts/src/v5.0.0/Groth16Verifier.sol\":6762:6784  exp(a, EXP_INVERSE_FP) */\n      jump\t// in\n    tag_364:\n        /* \".deps/github/succinctlabs/sp1-contracts/contracts/src/v5.0.0/Groth16Verifier.sol\":6758:6784  x = exp(a, EXP_INVERSE_FP) */\n      swap1\n      pop\n        /* \".deps/github/succinctlabs/sp1-contracts/contracts/src/v5.0.0/Groth16Verifier.sol\":6817:6818  1 */\n      0x01\n        /* \".deps/github/succinctlabs/sp1-contracts/contracts/src/v5.0.0/Groth16Verifier.sol\":1396:1462  0x30644e72e131a029b85045b68181585d97816a916871ca8d3c208c16d87cfd47 */\n      0x30644e72e131a029b85045b68181585d97816a916871ca8d3c208c16d87cfd47\n        /* \".deps/github/succinctlabs/sp1-contracts/contracts/src/v5.0.0/Groth16Verifier.sol\":6798:6813  mulmod(a, x, P) */\n      dup1\n      tag_365\n      jumpi\n      tag_366\n      tag_191\n      jump\t// in\n    tag_366:\n    tag_365:\n        /* \".deps/github/succinctlabs/sp1-contracts/contracts/src/v5.0.0/Groth16Verifier.sol\":6808:6809  x */\n      dup3\n        /* \".deps/github/succinctlabs/sp1-contracts/contracts/src/v5.0.0/Groth16Verifier.sol\":6805:6806  a */\n      dup5\n        /* \".deps/github/succinctlabs/sp1-contracts/contracts/src/v5.0.0/Groth16Verifier.sol\":6798:6813  mulmod(a, x, P) */\n      mulmod\n        /* \".deps/github/succinctlabs/sp1-contracts/contracts/src/v5.0.0/Groth16Verifier.sol\":6798:6818  mulmod(a, x, P) != 1 */\n      eq\n        /* \".deps/github/succinctlabs/sp1-contracts/contracts/src/v5.0.0/Groth16Verifier.sol\":6794:6967  if (mulmod(a, x, P) != 1) {... */\n      tag_367\n      jumpi\n        /* \".deps/github/succinctlabs/sp1-contracts/contracts/src/v5.0.0/Groth16Verifier.sol\":6942:6956  ProofInvalid() */\n      mload(0x40)\n      0x7fcdd1f400000000000000000000000000000000000000000000000000000000\n      dup2\n      mstore\n      0x04\n      add\n      mload(0x40)\n      dup1\n      swap2\n      sub\n      swap1\n      revert\n        /* \".deps/github/succinctlabs/sp1-contracts/contracts/src/v5.0.0/Groth16Verifier.sol\":6794:6967  if (mulmod(a, x, P) != 1) {... */\n    tag_367:\n        /* \".deps/github/succinctlabs/sp1-contracts/contracts/src/v5.0.0/Groth16Verifier.sol\":6684:6973  function invert_Fp(uint256 a) internal view returns (uint256 x) {... */\n      swap2\n      swap1\n      pop\n      jump\t// out\n    tag_54:\n      mload(0x40)\n      dup1\n      0x40\n      add\n      0x40\n      mstore\n      dup1\n      0x02\n      swap1\n      0x20\n      dup3\n      mul\n      dup1\n      calldatasize\n      dup4\n      calldatacopy\n      dup1\n      dup3\n      add\n      swap2\n      pop\n      pop\n      swap1\n      pop\n      pop\n      swap1\n      jump\t// out\n    tag_69:\n      mload(0x40)\n      dup1\n      0x80\n      add\n      0x40\n      mstore\n      dup1\n      0x04\n      swap1\n      0x20\n      dup3\n      mul\n      dup1\n      calldatasize\n      dup4\n      calldatacopy\n      dup1\n      dup3\n      add\n      swap2\n      pop\n      pop\n      swap1\n      pop\n      pop\n      swap1\n      jump\t// out\n    tag_113:\n      mload(0x40)\n      dup1\n      0x0300\n      add\n      0x40\n      mstore\n      dup1\n      0x18\n      swap1\n      0x20\n      dup3\n      mul\n      dup1\n      calldatasize\n      dup4\n      calldatacopy\n      dup1\n      dup3\n      add\n      swap2\n      pop\n      pop\n      swap1\n      pop\n      pop\n      swap1\n      jump\t// out\n    tag_177:\n      mload(0x40)\n      dup1\n      0x20\n      add\n      0x40\n      mstore\n      dup1\n      0x01\n      swap1\n      0x20\n      dup3\n      mul\n      dup1\n      calldatasize\n      dup4\n      calldatacopy\n      dup1\n      dup3\n      add\n      swap2\n      pop\n      pop\n      swap1\n      pop\n      pop\n      swap1\n      jump\t// out\n        /* \"#utility.yul\":7:84   */\n    tag_368:\n        /* \"#utility.yul\":44:51   */\n      0x00\n        /* \"#utility.yul\":73:78   */\n      dup2\n        /* \"#utility.yul\":62:78   */\n      swap1\n      pop\n        /* \"#utility.yul\":7:84   */\n      swap2\n      swap1\n      pop\n      jump\t// out\n        /* \"#utility.yul\":90:208   */\n    tag_369:\n        /* \"#utility.yul\":177:201   */\n      tag_428\n        /* \"#utility.yul\":195:200   */\n      dup2\n        /* \"#utility.yul\":177:201   */\n      tag_368\n      jump\t// in\n    tag_428:\n        /* \"#utility.yul\":172:175   */\n      dup3\n        /* \"#utility.yul\":165:202   */\n      mstore\n        /* \"#utility.yul\":90:208   */\n      pop\n      pop\n      jump\t// out\n        /* \"#utility.yul\":214:436   */\n    tag_14:\n        /* \"#utility.yul\":307:311   */\n      0x00\n        /* \"#utility.yul\":345:347   */\n      0x20\n        /* \"#utility.yul\":334:343   */\n      dup3\n        /* \"#utility.yul\":330:348   */\n      add\n        /* \"#utility.yul\":322:348   */\n      swap1\n      pop\n        /* \"#utility.yul\":358:429   */\n      tag_430\n        /* \"#utility.yul\":426:427   */\n      0x00\n        /* \"#utility.yul\":415:424   */\n      dup4\n        /* \"#utility.yul\":411:428   */\n      add\n        /* \"#utility.yul\":402:408   */\n      dup5\n        /* \"#utility.yul\":358:429   */\n      tag_369\n      jump\t// in\n    tag_430:\n        /* \"#utility.yul\":214:436   */\n      swap3\n      swap2\n      pop\n      pop\n      jump\t// out\n        /* \"#utility.yul\":442:517   */\n    tag_370:\n        /* \"#utility.yul\":475:481   */\n      0x00\n        /* \"#utility.yul\":508:510   */\n      0x40\n        /* \"#utility.yul\":502:511   */\n      mload\n        /* \"#utility.yul\":492:511   */\n      swap1\n      pop\n        /* \"#utility.yul\":442:517   */\n      swap1\n      jump\t// out\n        /* \"#utility.yul\":523:640   */\n    tag_371:\n        /* \"#utility.yul\":632:633   */\n      0x00\n        /* \"#utility.yul\":629:630   */\n      0x00\n        /* \"#utility.yul\":622:634   */\n      revert\n        /* \"#utility.yul\":646:763   */\n    tag_372:\n        /* \"#utility.yul\":755:756   */\n      0x00\n        /* \"#utility.yul\":752:753   */\n      0x00\n        /* \"#utility.yul\":745:757   */\n      revert\n        /* \"#utility.yul\":769:891   */\n    tag_373:\n        /* \"#utility.yul\":842:866   */\n      tag_435\n        /* \"#utility.yul\":860:865   */\n      dup2\n        /* \"#utility.yul\":842:866   */\n      tag_368\n      jump\t// in\n    tag_435:\n        /* \"#utility.yul\":835:840   */\n      dup2\n        /* \"#utility.yul\":832:867   */\n      eq\n        /* \"#utility.yul\":822:885   */\n      tag_436\n      jumpi\n        /* \"#utility.yul\":881:882   */\n      0x00\n        /* \"#utility.yul\":878:879   */\n      0x00\n        /* \"#utility.yul\":871:883   */\n      revert\n        /* \"#utility.yul\":822:885   */\n    tag_436:\n        /* \"#utility.yul\":769:891   */\n      pop\n      jump\t// out\n        /* \"#utility.yul\":897:1036   */\n    tag_374:\n        /* \"#utility.yul\":943:948   */\n      0x00\n        /* \"#utility.yul\":981:987   */\n      dup2\n        /* \"#utility.yul\":968:988   */\n      calldataload\n        /* \"#utility.yul\":959:988   */\n      swap1\n      pop\n        /* \"#utility.yul\":997:1030   */\n      tag_438\n        /* \"#utility.yul\":1024:1029   */\n      dup2\n        /* \"#utility.yul\":997:1030   */\n      tag_373\n      jump\t// in\n    tag_438:\n        /* \"#utility.yul\":897:1036   */\n      swap3\n      swap2\n      pop\n      pop\n      jump\t// out\n        /* \"#utility.yul\":1042:1159   */\n    tag_375:\n        /* \"#utility.yul\":1151:1152   */\n      0x00\n        /* \"#utility.yul\":1148:1149   */\n      0x00\n        /* \"#utility.yul\":1141:1153   */\n      revert\n        /* \"#utility.yul\":1165:1282   */\n    tag_376:\n        /* \"#utility.yul\":1274:1275   */\n      0x00\n        /* \"#utility.yul\":1271:1272   */\n      0x00\n        /* \"#utility.yul\":1264:1276   */\n      revert\n        /* \"#utility.yul\":1288:1405   */\n    tag_377:\n        /* \"#utility.yul\":1397:1398   */\n      0x00\n        /* \"#utility.yul\":1394:1395   */\n      0x00\n        /* \"#utility.yul\":1387:1399   */\n      revert\n        /* \"#utility.yul\":1424:1976   */\n    tag_378:\n        /* \"#utility.yul\":1481:1489   */\n      0x00\n        /* \"#utility.yul\":1491:1497   */\n      0x00\n        /* \"#utility.yul\":1541:1544   */\n      dup4\n        /* \"#utility.yul\":1534:1538   */\n      0x1f\n        /* \"#utility.yul\":1526:1532   */\n      dup5\n        /* \"#utility.yul\":1522:1539   */\n      add\n        /* \"#utility.yul\":1518:1545   */\n      slt\n        /* \"#utility.yul\":1508:1630   */\n      tag_443\n      jumpi\n        /* \"#utility.yul\":1549:1628   */\n      tag_444\n      tag_375\n      jump\t// in\n    tag_444:\n        /* \"#utility.yul\":1508:1630   */\n    tag_443:\n        /* \"#utility.yul\":1662:1668   */\n      dup3\n        /* \"#utility.yul\":1649:1669   */\n      calldataload\n        /* \"#utility.yul\":1639:1669   */\n      swap1\n      pop\n        /* \"#utility.yul\":1692:1710   */\n      0xffffffffffffffff\n        /* \"#utility.yul\":1684:1690   */\n      dup2\n        /* \"#utility.yul\":1681:1711   */\n      gt\n        /* \"#utility.yul\":1678:1795   */\n      iszero\n      tag_445\n      jumpi\n        /* \"#utility.yul\":1714:1793   */\n      tag_446\n      tag_376\n      jump\t// in\n    tag_446:\n        /* \"#utility.yul\":1678:1795   */\n    tag_445:\n        /* \"#utility.yul\":1828:1832   */\n      0x20\n        /* \"#utility.yul\":1820:1826   */\n      dup4\n        /* \"#utility.yul\":1816:1833   */\n      add\n        /* \"#utility.yul\":1804:1833   */\n      swap2\n      pop\n        /* \"#utility.yul\":1882:1885   */\n      dup4\n        /* \"#utility.yul\":1874:1878   */\n      0x01\n        /* \"#utility.yul\":1866:1872   */\n      dup3\n        /* \"#utility.yul\":1862:1879   */\n      mul\n        /* \"#utility.yul\":1852:1860   */\n      dup4\n        /* \"#utility.yul\":1848:1880   */\n      add\n        /* \"#utility.yul\":1845:1886   */\n      gt\n        /* \"#utility.yul\":1842:1970   */\n      iszero\n      tag_447\n      jumpi\n        /* \"#utility.yul\":1889:1968   */\n      tag_448\n      tag_377\n      jump\t// in\n    tag_448:\n        /* \"#utility.yul\":1842:1970   */\n    tag_447:\n        /* \"#utility.yul\":1424:1976   */\n      swap3\n      pop\n      swap3\n      swap1\n      pop\n      jump\t// out\n        /* \"#utility.yul\":1982:2997   */\n    tag_17:\n        /* \"#utility.yul\":2081:2087   */\n      0x00\n        /* \"#utility.yul\":2089:2095   */\n      0x00\n        /* \"#utility.yul\":2097:2103   */\n      0x00\n        /* \"#utility.yul\":2105:2111   */\n      0x00\n        /* \"#utility.yul\":2113:2119   */\n      0x00\n        /* \"#utility.yul\":2162:2164   */\n      0x60\n        /* \"#utility.yul\":2150:2159   */\n      dup7\n        /* \"#utility.yul\":2141:2148   */\n      dup9\n        /* \"#utility.yul\":2137:2160   */\n      sub\n        /* \"#utility.yul\":2133:2165   */\n      slt\n        /* \"#utility.yul\":2130:2249   */\n      iszero\n      tag_450\n      jumpi\n        /* \"#utility.yul\":2168:2247   */\n      tag_451\n      tag_371\n      jump\t// in\n    tag_451:\n        /* \"#utility.yul\":2130:2249   */\n    tag_450:\n        /* \"#utility.yul\":2288:2289   */\n      0x00\n        /* \"#utility.yul\":2313:2366   */\n      tag_452\n        /* \"#utility.yul\":2358:2365   */\n      dup9\n        /* \"#utility.yul\":2349:2355   */\n      dup3\n        /* \"#utility.yul\":2338:2347   */\n      dup10\n        /* \"#utility.yul\":2334:2356   */\n      add\n        /* \"#utility.yul\":2313:2366   */\n      tag_374\n      jump\t// in\n    tag_452:\n        /* \"#utility.yul\":2303:2366   */\n      swap6\n      pop\n        /* \"#utility.yul\":2259:2376   */\n      pop\n        /* \"#utility.yul\":2443:2445   */\n      0x20\n        /* \"#utility.yul\":2432:2441   */\n      dup7\n        /* \"#utility.yul\":2428:2446   */\n      add\n        /* \"#utility.yul\":2415:2447   */\n      calldataload\n        /* \"#utility.yul\":2474:2492   */\n      0xffffffffffffffff\n        /* \"#utility.yul\":2466:2472   */\n      dup2\n        /* \"#utility.yul\":2463:2493   */\n      gt\n        /* \"#utility.yul\":2460:2577   */\n      iszero\n      tag_453\n      jumpi\n        /* \"#utility.yul\":2496:2575   */\n      tag_454\n      tag_372\n      jump\t// in\n    tag_454:\n        /* \"#utility.yul\":2460:2577   */\n    tag_453:\n        /* \"#utility.yul\":2609:2673   */\n      tag_455\n        /* \"#utility.yul\":2665:2672   */\n      dup9\n        /* \"#utility.yul\":2656:2662   */\n      dup3\n        /* \"#utility.yul\":2645:2654   */\n      dup10\n        /* \"#utility.yul\":2641:2663   */\n      add\n        /* \"#utility.yul\":2609:2673   */\n      tag_378\n      jump\t// in\n    tag_455:\n        /* \"#utility.yul\":2591:2673   */\n      swap5\n      pop\n      swap5\n      pop\n        /* \"#utility.yul\":2386:2683   */\n      pop\n        /* \"#utility.yul\":2750:2752   */\n      0x40\n        /* \"#utility.yul\":2739:2748   */\n      dup7\n        /* \"#utility.yul\":2735:2753   */\n      add\n        /* \"#utility.yul\":2722:2754   */\n      calldataload\n        /* \"#utility.yul\":2781:2799   */\n      0xffffffffffffffff\n        /* \"#utility.yul\":2773:2779   */\n      dup2\n        /* \"#utility.yul\":2770:2800   */\n      gt\n        /* \"#utility.yul\":2767:2884   */\n      iszero\n      tag_456\n      jumpi\n        /* \"#utility.yul\":2803:2882   */\n      tag_457\n      tag_372\n      jump\t// in\n    tag_457:\n        /* \"#utility.yul\":2767:2884   */\n    tag_456:\n        /* \"#utility.yul\":2916:2980   */\n      tag_458\n        /* \"#utility.yul\":2972:2979   */\n      dup9\n        /* \"#utility.yul\":2963:2969   */\n      dup3\n        /* \"#utility.yul\":2952:2961   */\n      dup10\n        /* \"#utility.yul\":2948:2970   */\n      add\n        /* \"#utility.yul\":2916:2980   */\n      tag_378\n      jump\t// in\n    tag_458:\n        /* \"#utility.yul\":2898:2980   */\n      swap3\n      pop\n      swap3\n      pop\n        /* \"#utility.yul\":2693:2990   */\n      pop\n        /* \"#utility.yul\":1982:2997   */\n      swap3\n      swap6\n      pop\n      swap3\n      swap6\n      swap1\n      swap4\n      pop\n      jump\t// out\n        /* \"#utility.yul\":3021:3270   */\n    tag_379:\n        /* \"#utility.yul\":3092:3100   */\n      0x00\n        /* \"#utility.yul\":3123:3129   */\n      dup2\n        /* \"#utility.yul\":3111:3129   */\n      swap1\n      pop\n        /* \"#utility.yul\":3176:3179   */\n      dup3\n        /* \"#utility.yul\":3168:3172   */\n      0x20\n        /* \"#utility.yul\":3162:3166   */\n      0x08\n        /* \"#utility.yul\":3158:3173   */\n      mul\n        /* \"#utility.yul\":3148:3156   */\n      dup3\n        /* \"#utility.yul\":3144:3174   */\n      add\n        /* \"#utility.yul\":3141:3180   */\n      gt\n        /* \"#utility.yul\":3138:3264   */\n      iszero\n      tag_460\n      jumpi\n        /* \"#utility.yul\":3183:3262   */\n      tag_461\n      tag_377\n      jump\t// in\n    tag_461:\n        /* \"#utility.yul\":3138:3264   */\n    tag_460:\n        /* \"#utility.yul\":3021:3270   */\n      swap3\n      swap2\n      pop\n      pop\n      jump\t// out\n        /* \"#utility.yul\":3276:3656   */\n    tag_21:\n        /* \"#utility.yul\":3360:3366   */\n      0x00\n        /* \"#utility.yul\":3409:3412   */\n      0x0100\n        /* \"#utility.yul\":3397:3406   */\n      dup3\n        /* \"#utility.yul\":3388:3395   */\n      dup5\n        /* \"#utility.yul\":3384:3407   */\n      sub\n        /* \"#utility.yul\":3380:3413   */\n      slt\n        /* \"#utility.yul\":3377:3497   */\n      iszero\n      tag_463\n      jumpi\n        /* \"#utility.yul\":3416:3495   */\n      tag_464\n      tag_371\n      jump\t// in\n    tag_464:\n        /* \"#utility.yul\":3377:3497   */\n    tag_463:\n        /* \"#utility.yul\":3536:3537   */\n      0x00\n        /* \"#utility.yul\":3561:3639   */\n      tag_465\n        /* \"#utility.yul\":3631:3638   */\n      dup5\n        /* \"#utility.yul\":3622:3628   */\n      dup3\n        /* \"#utility.yul\":3611:3620   */\n      dup6\n        /* \"#utility.yul\":3607:3629   */\n      add\n        /* \"#utility.yul\":3561:3639   */\n      tag_379\n      jump\t// in\n    tag_465:\n        /* \"#utility.yul\":3551:3639   */\n      swap2\n      pop\n        /* \"#utility.yul\":3507:3649   */\n      pop\n        /* \"#utility.yul\":3276:3656   */\n      swap3\n      swap2\n      pop\n      pop\n      jump\t// out\n        /* \"#utility.yul\":3662:3766   */\n    tag_380:\n        /* \"#utility.yul\":3727:3733   */\n      0x00\n        /* \"#utility.yul\":3755:3759   */\n      0x04\n        /* \"#utility.yul\":3745:3759   */\n      swap1\n      pop\n        /* \"#utility.yul\":3662:3766   */\n      swap2\n      swap1\n      pop\n      jump\t// out\n        /* \"#utility.yul\":3772:3915   */\n    tag_381:\n        /* \"#utility.yul\":3869:3880   */\n      0x00\n        /* \"#utility.yul\":3906:3909   */\n      dup2\n        /* \"#utility.yul\":3891:3909   */\n      swap1\n      pop\n        /* \"#utility.yul\":3772:3915   */\n      swap3\n      swap2\n      pop\n      pop\n      jump\t// out\n        /* \"#utility.yul\":3921:4019   */\n    tag_382:\n        /* \"#utility.yul\":3986:3990   */\n      0x00\n        /* \"#utility.yul\":4009:4012   */\n      dup2\n        /* \"#utility.yul\":4001:4012   */\n      swap1\n      pop\n        /* \"#utility.yul\":3921:4019   */\n      swap2\n      swap1\n      pop\n      jump\t// out\n        /* \"#utility.yul\":4025:4102   */\n    tag_383:\n        /* \"#utility.yul\":4062:4069   */\n      0x00\n        /* \"#utility.yul\":4091:4096   */\n      dup2\n        /* \"#utility.yul\":4080:4096   */\n      swap1\n      pop\n        /* \"#utility.yul\":4025:4102   */\n      swap2\n      swap1\n      pop\n      jump\t// out\n        /* \"#utility.yul\":4108:4216   */\n    tag_384:\n        /* \"#utility.yul\":4185:4209   */\n      tag_471\n        /* \"#utility.yul\":4203:4208   */\n      dup2\n        /* \"#utility.yul\":4185:4209   */\n      tag_383\n      jump\t// in\n    tag_471:\n        /* \"#utility.yul\":4180:4183   */\n      dup3\n        /* \"#utility.yul\":4173:4210   */\n      mstore\n        /* \"#utility.yul\":4108:4216   */\n      pop\n      pop\n      jump\t// out\n        /* \"#utility.yul\":4222:4401   */\n    tag_385:\n        /* \"#utility.yul\":4291:4301   */\n      0x00\n        /* \"#utility.yul\":4312:4358   */\n      tag_473\n        /* \"#utility.yul\":4354:4357   */\n      dup4\n        /* \"#utility.yul\":4346:4352   */\n      dup4\n        /* \"#utility.yul\":4312:4358   */\n      tag_384\n      jump\t// in\n    tag_473:\n        /* \"#utility.yul\":4390:4394   */\n      0x20\n        /* \"#utility.yul\":4385:4388   */\n      dup4\n        /* \"#utility.yul\":4381:4395   */\n      add\n        /* \"#utility.yul\":4367:4395   */\n      swap1\n      pop\n        /* \"#utility.yul\":4222:4401   */\n      swap3\n      swap2\n      pop\n      pop\n      jump\t// out\n        /* \"#utility.yul\":4407:4518   */\n    tag_386:\n        /* \"#utility.yul\":4475:4479   */\n      0x00\n        /* \"#utility.yul\":4507:4511   */\n      0x20\n        /* \"#utility.yul\":4502:4505   */\n      dup3\n        /* \"#utility.yul\":4498:4512   */\n      add\n        /* \"#utility.yul\":4490:4512   */\n      swap1\n      pop\n        /* \"#utility.yul\":4407:4518   */\n      swap2\n      swap1\n      pop\n      jump\t// out\n        /* \"#utility.yul\":4556:5250   */\n    tag_387:\n        /* \"#utility.yul\":4692:4744   */\n      tag_476\n        /* \"#utility.yul\":4738:4743   */\n      dup2\n        /* \"#utility.yul\":4692:4744   */\n      tag_380\n      jump\t// in\n    tag_476:\n        /* \"#utility.yul\":4760:4844   */\n      tag_477\n        /* \"#utility.yul\":4837:4843   */\n      dup2\n        /* \"#utility.yul\":4832:4835   */\n      dup5\n        /* \"#utility.yul\":4760:4844   */\n      tag_381\n      jump\t// in\n    tag_477:\n        /* \"#utility.yul\":4753:4844   */\n      swap3\n      pop\n        /* \"#utility.yul\":4868:4922   */\n      tag_478\n        /* \"#utility.yul\":4916:4921   */\n      dup3\n        /* \"#utility.yul\":4868:4922   */\n      tag_382\n      jump\t// in\n    tag_478:\n        /* \"#utility.yul\":4945:4952   */\n      dup1\n        /* \"#utility.yul\":4976:4977   */\n      0x00\n        /* \"#utility.yul\":4961:5243   */\n    tag_479:\n        /* \"#utility.yul\":4986:4992   */\n      dup4\n        /* \"#utility.yul\":4983:4984   */\n      dup2\n        /* \"#utility.yul\":4980:4993   */\n      lt\n        /* \"#utility.yul\":4961:5243   */\n      iszero\n      tag_481\n      jumpi\n        /* \"#utility.yul\":5062:5068   */\n      dup2\n        /* \"#utility.yul\":5056:5069   */\n      mload\n        /* \"#utility.yul\":5089:5152   */\n      tag_482\n        /* \"#utility.yul\":5148:5151   */\n      dup8\n        /* \"#utility.yul\":5133:5146   */\n      dup3\n        /* \"#utility.yul\":5089:5152   */\n      tag_385\n      jump\t// in\n    tag_482:\n        /* \"#utility.yul\":5082:5152   */\n      swap7\n      pop\n        /* \"#utility.yul\":5175:5233   */\n      tag_483\n        /* \"#utility.yul\":5226:5232   */\n      dup4\n        /* \"#utility.yul\":5175:5233   */\n      tag_386\n      jump\t// in\n    tag_483:\n        /* \"#utility.yul\":5165:5233   */\n      swap3\n      pop\n        /* \"#utility.yul\":5021:5243   */\n      pop\n        /* \"#utility.yul\":5008:5009   */\n      0x01\n        /* \"#utility.yul\":5005:5006   */\n      dup2\n        /* \"#utility.yul\":5001:5010   */\n      add\n        /* \"#utility.yul\":4996:5010   */\n      swap1\n      pop\n        /* \"#utility.yul\":4961:5243   */\n      jump(tag_479)\n    tag_481:\n        /* \"#utility.yul\":4965:4979   */\n      pop\n        /* \"#utility.yul\":4668:5250   */\n      pop\n      pop\n      pop\n        /* \"#utility.yul\":4556:5250   */\n      pop\n      pop\n      jump\t// out\n        /* \"#utility.yul\":5256:5571   */\n    tag_24:\n        /* \"#utility.yul\":5395:5399   */\n      0x00\n        /* \"#utility.yul\":5433:5436   */\n      0x80\n        /* \"#utility.yul\":5422:5431   */\n      dup3\n        /* \"#utility.yul\":5418:5437   */\n      add\n        /* \"#utility.yul\":5410:5437   */\n      swap1\n      pop\n        /* \"#utility.yul\":5447:5564   */\n      tag_485\n        /* \"#utility.yul\":5561:5562   */\n      0x00\n        /* \"#utility.yul\":5550:5559   */\n      dup4\n        /* \"#utility.yul\":5546:5563   */\n      add\n        /* \"#utility.yul\":5537:5543   */\n      dup5\n        /* \"#utility.yul\":5447:5564   */\n      tag_387\n      jump\t// in\n    tag_485:\n        /* \"#utility.yul\":5256:5571   */\n      swap3\n      swap2\n      pop\n      pop\n      jump\t// out\n        /* \"#utility.yul\":5577:6104   */\n    tag_27:\n        /* \"#utility.yul\":5647:5653   */\n      0x00\n        /* \"#utility.yul\":5655:5661   */\n      0x00\n        /* \"#utility.yul\":5704:5706   */\n      0x20\n        /* \"#utility.yul\":5692:5701   */\n      dup4\n        /* \"#utility.yul\":5683:5690   */\n      dup6\n        /* \"#utility.yul\":5679:5702   */\n      sub\n        /* \"#utility.yul\":5675:5707   */\n      slt\n        /* \"#utility.yul\":5672:5791   */\n      iszero\n      tag_487\n      jumpi\n        /* \"#utility.yul\":5710:5789   */\n      tag_488\n      tag_371\n      jump\t// in\n    tag_488:\n        /* \"#utility.yul\":5672:5791   */\n    tag_487:\n        /* \"#utility.yul\":5858:5859   */\n      0x00\n        /* \"#utility.yul\":5847:5856   */\n      dup4\n        /* \"#utility.yul\":5843:5860   */\n      add\n        /* \"#utility.yul\":5830:5861   */\n      calldataload\n        /* \"#utility.yul\":5888:5906   */\n      0xffffffffffffffff\n        /* \"#utility.yul\":5880:5886   */\n      dup2\n        /* \"#utility.yul\":5877:5907   */\n      gt\n        /* \"#utility.yul\":5874:5991   */\n      iszero\n      tag_489\n      jumpi\n        /* \"#utility.yul\":5910:5989   */\n      tag_490\n      tag_372\n      jump\t// in\n    tag_490:\n        /* \"#utility.yul\":5874:5991   */\n    tag_489:\n        /* \"#utility.yul\":6023:6087   */\n      tag_491\n        /* \"#utility.yul\":6079:6086   */\n      dup6\n        /* \"#utility.yul\":6070:6076   */\n      dup3\n        /* \"#utility.yul\":6059:6068   */\n      dup7\n        /* \"#utility.yul\":6055:6077   */\n      add\n        /* \"#utility.yul\":6023:6087   */\n      tag_378\n      jump\t// in\n    tag_491:\n        /* \"#utility.yul\":6005:6087   */\n      swap3\n      pop\n      swap3\n      pop\n        /* \"#utility.yul\":5801:6097   */\n      pop\n        /* \"#utility.yul\":5577:6104   */\n      swap3\n      pop\n      swap3\n      swap1\n      pop\n      jump\t// out\n        /* \"#utility.yul\":6128:6377   */\n    tag_388:\n        /* \"#utility.yul\":6199:6207   */\n      0x00\n        /* \"#utility.yul\":6230:6236   */\n      dup2\n        /* \"#utility.yul\":6218:6236   */\n      swap1\n      pop\n        /* \"#utility.yul\":6283:6286   */\n      dup3\n        /* \"#utility.yul\":6275:6279   */\n      0x20\n        /* \"#utility.yul\":6269:6273   */\n      0x02\n        /* \"#utility.yul\":6265:6280   */\n      mul\n        /* \"#utility.yul\":6255:6263   */\n      dup3\n        /* \"#utility.yul\":6251:6281   */\n      add\n        /* \"#utility.yul\":6248:6287   */\n      gt\n        /* \"#utility.yul\":6245:6371   */\n      iszero\n      tag_493\n      jumpi\n        /* \"#utility.yul\":6290:6369   */\n      tag_494\n      tag_377\n      jump\t// in\n    tag_494:\n        /* \"#utility.yul\":6245:6371   */\n    tag_493:\n        /* \"#utility.yul\":6128:6377   */\n      swap3\n      swap2\n      pop\n      pop\n      jump\t// out\n        /* \"#utility.yul\":6383:6959   */\n    tag_32:\n        /* \"#utility.yul\":6501:6507   */\n      0x00\n        /* \"#utility.yul\":6509:6515   */\n      0x00\n        /* \"#utility.yul\":6558:6561   */\n      0x0140\n        /* \"#utility.yul\":6546:6555   */\n      dup4\n        /* \"#utility.yul\":6537:6544   */\n      dup6\n        /* \"#utility.yul\":6533:6556   */\n      sub\n        /* \"#utility.yul\":6529:6562   */\n      slt\n        /* \"#utility.yul\":6526:6646   */\n      iszero\n      tag_496\n      jumpi\n        /* \"#utility.yul\":6565:6644   */\n      tag_497\n      tag_371\n      jump\t// in\n    tag_497:\n        /* \"#utility.yul\":6526:6646   */\n    tag_496:\n        /* \"#utility.yul\":6685:6686   */\n      0x00\n        /* \"#utility.yul\":6710:6788   */\n      tag_498\n        /* \"#utility.yul\":6780:6787   */\n      dup6\n        /* \"#utility.yul\":6771:6777   */\n      dup3\n        /* \"#utility.yul\":6760:6769   */\n      dup7\n        /* \"#utility.yul\":6756:6778   */\n      add\n        /* \"#utility.yul\":6710:6788   */\n      tag_379\n      jump\t// in\n    tag_498:\n        /* \"#utility.yul\":6700:6788   */\n      swap3\n      pop\n        /* \"#utility.yul\":6656:6798   */\n      pop\n        /* \"#utility.yul\":6837:6840   */\n      0x0100\n        /* \"#utility.yul\":6864:6942   */\n      tag_499\n        /* \"#utility.yul\":6934:6941   */\n      dup6\n        /* \"#utility.yul\":6925:6931   */\n      dup3\n        /* \"#utility.yul\":6914:6923   */\n      dup7\n        /* \"#utility.yul\":6910:6932   */\n      add\n        /* \"#utility.yul\":6864:6942   */\n      tag_388\n      jump\t// in\n    tag_499:\n        /* \"#utility.yul\":6854:6942   */\n      swap2\n      pop\n        /* \"#utility.yul\":6808:6952   */\n      pop\n        /* \"#utility.yul\":6383:6959   */\n      swap3\n      pop\n      swap3\n      swap1\n      pop\n      jump\t// out\n        /* \"#utility.yul\":6983:7232   */\n    tag_389:\n        /* \"#utility.yul\":7054:7062   */\n      0x00\n        /* \"#utility.yul\":7085:7091   */\n      dup2\n        /* \"#utility.yul\":7073:7091   */\n      swap1\n      pop\n        /* \"#utility.yul\":7138:7141   */\n      dup3\n        /* \"#utility.yul\":7130:7134   */\n      0x20\n        /* \"#utility.yul\":7124:7128   */\n      0x04\n        /* \"#utility.yul\":7120:7135   */\n      mul\n        /* \"#utility.yul\":7110:7118   */\n      dup3\n        /* \"#utility.yul\":7106:7136   */\n      add\n        /* \"#utility.yul\":7103:7142   */\n      gt\n        /* \"#utility.yul\":7100:7226   */\n      iszero\n      tag_501\n      jumpi\n        /* \"#utility.yul\":7145:7224   */\n      tag_502\n      tag_377\n      jump\t// in\n    tag_502:\n        /* \"#utility.yul\":7100:7226   */\n    tag_501:\n        /* \"#utility.yul\":6983:7232   */\n      swap3\n      swap2\n      pop\n      pop\n      jump\t// out\n        /* \"#utility.yul\":7238:7814   */\n    tag_36:\n        /* \"#utility.yul\":7356:7362   */\n      0x00\n        /* \"#utility.yul\":7364:7370   */\n      0x00\n        /* \"#utility.yul\":7413:7416   */\n      0xc0\n        /* \"#utility.yul\":7401:7410   */\n      dup4\n        /* \"#utility.yul\":7392:7399   */\n      dup6\n        /* \"#utility.yul\":7388:7411   */\n      sub\n        /* \"#utility.yul\":7384:7417   */\n      slt\n        /* \"#utility.yul\":7381:7501   */\n      iszero\n      tag_504\n      jumpi\n        /* \"#utility.yul\":7420:7499   */\n      tag_505\n      tag_371\n      jump\t// in\n    tag_505:\n        /* \"#utility.yul\":7381:7501   */\n    tag_504:\n        /* \"#utility.yul\":7540:7541   */\n      0x00\n        /* \"#utility.yul\":7565:7643   */\n      tag_506\n        /* \"#utility.yul\":7635:7642   */\n      dup6\n        /* \"#utility.yul\":7626:7632   */\n      dup3\n        /* \"#utility.yul\":7615:7624   */\n      dup7\n        /* \"#utility.yul\":7611:7633   */\n      add\n        /* \"#utility.yul\":7565:7643   */\n      tag_389\n      jump\t// in\n    tag_506:\n        /* \"#utility.yul\":7555:7643   */\n      swap3\n      pop\n        /* \"#utility.yul\":7511:7653   */\n      pop\n        /* \"#utility.yul\":7692:7695   */\n      0x80\n        /* \"#utility.yul\":7719:7797   */\n      tag_507\n        /* \"#utility.yul\":7789:7796   */\n      dup6\n        /* \"#utility.yul\":7780:7786   */\n      dup3\n        /* \"#utility.yul\":7769:7778   */\n      dup7\n        /* \"#utility.yul\":7765:7787   */\n      add\n        /* \"#utility.yul\":7719:7797   */\n      tag_388\n      jump\t// in\n    tag_507:\n        /* \"#utility.yul\":7709:7797   */\n      swap2\n      pop\n        /* \"#utility.yul\":7663:7807   */\n      pop\n        /* \"#utility.yul\":7238:7814   */\n      swap3\n      pop\n      swap3\n      swap1\n      pop\n      jump\t// out\n        /* \"#utility.yul\":7820:7919   */\n    tag_390:\n        /* \"#utility.yul\":7872:7878   */\n      0x00\n        /* \"#utility.yul\":7906:7911   */\n      dup2\n        /* \"#utility.yul\":7900:7912   */\n      mload\n        /* \"#utility.yul\":7890:7912   */\n      swap1\n      pop\n        /* \"#utility.yul\":7820:7919   */\n      swap2\n      swap1\n      pop\n      jump\t// out\n        /* \"#utility.yul\":7925:8094   */\n    tag_391:\n        /* \"#utility.yul\":8009:8020   */\n      0x00\n        /* \"#utility.yul\":8043:8049   */\n      dup3\n        /* \"#utility.yul\":8038:8041   */\n      dup3\n        /* \"#utility.yul\":8031:8050   */\n      mstore\n        /* \"#utility.yul\":8083:8087   */\n      0x20\n        /* \"#utility.yul\":8078:8081   */\n      dup3\n        /* \"#utility.yul\":8074:8088   */\n      add\n        /* \"#utility.yul\":8059:8088   */\n      swap1\n      pop\n        /* \"#utility.yul\":7925:8094   */\n      swap3\n      swap2\n      pop\n      pop\n      jump\t// out\n        /* \"#utility.yul\":8100:8239   */\n    tag_392:\n        /* \"#utility.yul\":8189:8195   */\n      dup3\n        /* \"#utility.yul\":8184:8187   */\n      dup2\n        /* \"#utility.yul\":8179:8182   */\n      dup4\n        /* \"#utility.yul\":8173:8196   */\n      mcopy\n        /* \"#utility.yul\":8230:8231   */\n      0x00\n        /* \"#utility.yul\":8221:8227   */\n      dup4\n        /* \"#utility.yul\":8216:8219   */\n      dup4\n        /* \"#utility.yul\":8212:8228   */\n      add\n        /* \"#utility.yul\":8205:8232   */\n      mstore\n        /* \"#utility.yul\":8100:8239   */\n      pop\n      pop\n      pop\n      jump\t// out\n        /* \"#utility.yul\":8245:8347   */\n    tag_393:\n        /* \"#utility.yul\":8286:8292   */\n      0x00\n        /* \"#utility.yul\":8337:8339   */\n      0x1f\n        /* \"#utility.yul\":8333:8340   */\n      not\n        /* \"#utility.yul\":8328:8330   */\n      0x1f\n        /* \"#utility.yul\":8321:8326   */\n      dup4\n        /* \"#utility.yul\":8317:8331   */\n      add\n        /* \"#utility.yul\":8313:8341   */\n      and\n        /* \"#utility.yul\":8303:8341   */\n      swap1\n      pop\n        /* \"#utility.yul\":8245:8347   */\n      swap2\n      swap1\n      pop\n      jump\t// out\n        /* \"#utility.yul\":8353:8730   */\n    tag_394:\n        /* \"#utility.yul\":8441:8444   */\n      0x00\n        /* \"#utility.yul\":8469:8508   */\n      tag_513\n        /* \"#utility.yul\":8502:8507   */\n      dup3\n        /* \"#utility.yul\":8469:8508   */\n      tag_390\n      jump\t// in\n    tag_513:\n        /* \"#utility.yul\":8524:8595   */\n      tag_514\n        /* \"#utility.yul\":8588:8594   */\n      dup2\n        /* \"#utility.yul\":8583:8586   */\n      dup6\n        /* \"#utility.yul\":8524:8595   */\n      tag_391\n      jump\t// in\n    tag_514:\n        /* \"#utility.yul\":8517:8595   */\n      swap4\n      pop\n        /* \"#utility.yul\":8604:8669   */\n      tag_515\n        /* \"#utility.yul\":8662:8668   */\n      dup2\n        /* \"#utility.yul\":8657:8660   */\n      dup6\n        /* \"#utility.yul\":8650:8654   */\n      0x20\n        /* \"#utility.yul\":8643:8648   */\n      dup7\n        /* \"#utility.yul\":8639:8655   */\n      add\n        /* \"#utility.yul\":8604:8669   */\n      tag_392\n      jump\t// in\n    tag_515:\n        /* \"#utility.yul\":8694:8723   */\n      tag_516\n        /* \"#utility.yul\":8716:8722   */\n      dup2\n        /* \"#utility.yul\":8694:8723   */\n      tag_393\n      jump\t// in\n    tag_516:\n        /* \"#utility.yul\":8689:8692   */\n      dup5\n        /* \"#utility.yul\":8685:8724   */\n      add\n        /* \"#utility.yul\":8678:8724   */\n      swap2\n      pop\n        /* \"#utility.yul\":8445:8730   */\n      pop\n        /* \"#utility.yul\":8353:8730   */\n      swap3\n      swap2\n      pop\n      pop\n      jump\t// out\n        /* \"#utility.yul\":8736:9049   */\n    tag_41:\n        /* \"#utility.yul\":8849:8853   */\n      0x00\n        /* \"#utility.yul\":8887:8889   */\n      0x20\n        /* \"#utility.yul\":8876:8885   */\n      dup3\n        /* \"#utility.yul\":8872:8890   */\n      add\n        /* \"#utility.yul\":8864:8890   */\n      swap1\n      pop\n        /* \"#utility.yul\":8936:8945   */\n      dup2\n        /* \"#utility.yul\":8930:8934   */\n      dup2\n        /* \"#utility.yul\":8926:8946   */\n      sub\n        /* \"#utility.yul\":8922:8923   */\n      0x00\n        /* \"#utility.yul\":8911:8920   */\n      dup4\n        /* \"#utility.yul\":8907:8924   */\n      add\n        /* \"#utility.yul\":8900:8947   */\n      mstore\n        /* \"#utility.yul\":8964:9042   */\n      tag_518\n        /* \"#utility.yul\":9037:9041   */\n      dup2\n        /* \"#utility.yul\":9028:9034   */\n      dup5\n        /* \"#utility.yul\":8964:9042   */\n      tag_394\n      jump\t// in\n    tag_518:\n        /* \"#utility.yul\":8956:9042   */\n      swap1\n      pop\n        /* \"#utility.yul\":8736:9049   */\n      swap3\n      swap2\n      pop\n      pop\n      jump\t// out\n        /* \"#utility.yul\":9055:9172   */\n    tag_395:\n        /* \"#utility.yul\":9164:9165   */\n      0x00\n        /* \"#utility.yul\":9161:9162   */\n      0x00\n        /* \"#utility.yul\":9154:9166   */\n      revert\n        /* \"#utility.yul\":9178:9295   */\n    tag_396:\n        /* \"#utility.yul\":9287:9288   */\n      0x00\n        /* \"#utility.yul\":9284:9285   */\n      0x00\n        /* \"#utility.yul\":9277:9289   */\n      revert\n        /* \"#utility.yul\":9301:9770   */\n    tag_45:\n        /* \"#utility.yul\":9406:9415   */\n      0x00\n        /* \"#utility.yul\":9417:9426   */\n      0x00\n        /* \"#utility.yul\":9455:9463   */\n      dup6\n        /* \"#utility.yul\":9443:9453   */\n      dup6\n        /* \"#utility.yul\":9440:9464   */\n      gt\n        /* \"#utility.yul\":9437:9548   */\n      iszero\n      tag_522\n      jumpi\n        /* \"#utility.yul\":9467:9546   */\n      tag_523\n      tag_395\n      jump\t// in\n    tag_523:\n        /* \"#utility.yul\":9437:9548   */\n    tag_522:\n        /* \"#utility.yul\":9573:9579   */\n      dup4\n        /* \"#utility.yul\":9563:9571   */\n      dup7\n        /* \"#utility.yul\":9560:9580   */\n      gt\n        /* \"#utility.yul\":9557:9664   */\n      iszero\n      tag_524\n      jumpi\n        /* \"#utility.yul\":9583:9662   */\n      tag_525\n      tag_396\n      jump\t// in\n    tag_525:\n        /* \"#utility.yul\":9557:9664   */\n    tag_524:\n        /* \"#utility.yul\":9714:9715   */\n      0x01\n        /* \"#utility.yul\":9702:9712   */\n      dup6\n        /* \"#utility.yul\":9698:9716   */\n      mul\n        /* \"#utility.yul\":9690:9696   */\n      dup4\n        /* \"#utility.yul\":9686:9717   */\n      add\n        /* \"#utility.yul\":9673:9717   */\n      swap2\n      pop\n        /* \"#utility.yul\":9753:9763   */\n      dup5\n        /* \"#utility.yul\":9743:9751   */\n      dup7\n        /* \"#utility.yul\":9739:9764   */\n      sub\n        /* \"#utility.yul\":9726:9764   */\n      swap1\n      pop\n        /* \"#utility.yul\":9301:9770   */\n      swap5\n      pop\n      swap5\n      swap3\n      pop\n      pop\n      pop\n      jump\t// out\n        /* \"#utility.yul\":9776:9872   */\n    tag_397:\n        /* \"#utility.yul\":9834:9840   */\n      0x00\n        /* \"#utility.yul\":9862:9865   */\n      dup3\n        /* \"#utility.yul\":9852:9865   */\n      swap1\n      pop\n        /* \"#utility.yul\":9776:9872   */\n      swap3\n      swap2\n      pop\n      pop\n      jump\t// out\n        /* \"#utility.yul\":9970:10119   */\n    tag_399:\n        /* \"#utility.yul\":10006:10013   */\n      0x00\n        /* \"#utility.yul\":10046:10112   */\n      0xffffffff00000000000000000000000000000000000000000000000000000000\n        /* \"#utility.yul\":10039:10044   */\n      dup3\n        /* \"#utility.yul\":10035:10113   */\n      and\n        /* \"#utility.yul\":10024:10113   */\n      swap1\n      pop\n        /* \"#utility.yul\":9970:10119   */\n      swap2\n      swap1\n      pop\n      jump\t// out\n        /* \"#utility.yul\":10125:10232   */\n    tag_400:\n        /* \"#utility.yul\":10169:10177   */\n      0x00\n        /* \"#utility.yul\":10219:10224   */\n      dup3\n        /* \"#utility.yul\":10213:10217   */\n      dup3\n        /* \"#utility.yul\":10209:10225   */\n      shl\n        /* \"#utility.yul\":10188:10225   */\n      swap1\n      pop\n        /* \"#utility.yul\":10125:10232   */\n      swap3\n      swap2\n      pop\n      pop\n      jump\t// out\n        /* \"#utility.yul\":10238:10786   */\n    tag_47:\n        /* \"#utility.yul\":10328:10333   */\n      0x00\n        /* \"#utility.yul\":10359:10404   */\n      tag_531\n        /* \"#utility.yul\":10400:10403   */\n      dup4\n        /* \"#utility.yul\":10393:10398   */\n      dup4\n        /* \"#utility.yul\":10359:10404   */\n      tag_397\n      jump\t// in\n    tag_531:\n        /* \"#utility.yul\":10429:10434   */\n      dup3\n        /* \"#utility.yul\":10453:10493   */\n      tag_532\n        /* \"#utility.yul\":10483:10491   */\n      dup2\n        /* \"#utility.yul\":10470:10492   */\n      calldataload\n        /* \"#utility.yul\":10453:10493   */\n      tag_399\n      jump\t// in\n    tag_532:\n        /* \"#utility.yul\":10444:10493   */\n      swap3\n      pop\n        /* \"#utility.yul\":10517:10518   */\n      0x04\n        /* \"#utility.yul\":10509:10515   */\n      dup3\n        /* \"#utility.yul\":10506:10519   */\n      lt\n        /* \"#utility.yul\":10503:10779   */\n      iszero\n      tag_533\n      jumpi\n        /* \"#utility.yul\":10587:10755   */\n      tag_534\n        /* \"#utility.yul\":10671:10737   */\n      0xffffffff00000000000000000000000000000000000000000000000000000000\n        /* \"#utility.yul\":10641:10647   */\n      dup4\n        /* \"#utility.yul\":10638:10639   */\n      0x04\n        /* \"#utility.yul\":10634:10648   */\n      sub\n        /* \"#utility.yul\":10631:10632   */\n      0x08\n        /* \"#utility.yul\":10627:10649   */\n      mul\n        /* \"#utility.yul\":10587:10755   */\n      tag_400\n      jump\t// in\n    tag_534:\n        /* \"#utility.yul\":10564:10569   */\n      dup4\n        /* \"#utility.yul\":10543:10769   */\n      and\n        /* \"#utility.yul\":10534:10769   */\n      swap3\n      pop\n        /* \"#utility.yul\":10503:10779   */\n    tag_533:\n        /* \"#utility.yul\":10334:10786   */\n      pop\n      pop\n        /* \"#utility.yul\":10238:10786   */\n      swap3\n      swap2\n      pop\n      pop\n      jump\t// out\n        /* \"#utility.yul\":10792:10907   */\n    tag_401:\n        /* \"#utility.yul\":10877:10900   */\n      tag_536\n        /* \"#utility.yul\":10894:10899   */\n      dup2\n        /* \"#utility.yul\":10877:10900   */\n      tag_399\n      jump\t// in\n    tag_536:\n        /* \"#utility.yul\":10872:10875   */\n      dup3\n        /* \"#utility.yul\":10865:10901   */\n      mstore\n        /* \"#utility.yul\":10792:10907   */\n      pop\n      pop\n      jump\t// out\n        /* \"#utility.yul\":10913:11237   */\n    tag_51:\n        /* \"#utility.yul\":11030:11034   */\n      0x00\n        /* \"#utility.yul\":11068:11070   */\n      0x40\n        /* \"#utility.yul\":11057:11066   */\n      dup3\n        /* \"#utility.yul\":11053:11071   */\n      add\n        /* \"#utility.yul\":11045:11071   */\n      swap1\n      pop\n        /* \"#utility.yul\":11081:11150   */\n      tag_538\n        /* \"#utility.yul\":11147:11148   */\n      0x00\n        /* \"#utility.yul\":11136:11145   */\n      dup4\n        /* \"#utility.yul\":11132:11149   */\n      add\n        /* \"#utility.yul\":11123:11129   */\n      dup6\n        /* \"#utility.yul\":11081:11150   */\n      tag_401\n      jump\t// in\n    tag_538:\n        /* \"#utility.yul\":11160:11230   */\n      tag_539\n        /* \"#utility.yul\":11226:11228   */\n      0x20\n        /* \"#utility.yul\":11215:11224   */\n      dup4\n        /* \"#utility.yul\":11211:11229   */\n      add\n        /* \"#utility.yul\":11202:11208   */\n      dup5\n        /* \"#utility.yul\":11160:11230   */\n      tag_401\n      jump\t// in\n    tag_539:\n        /* \"#utility.yul\":10913:11237   */\n      swap4\n      swap3\n      pop\n      pop\n      pop\n      jump\t// out\n        /* \"#utility.yul\":11243:11423   */\n    tag_57:\n        /* \"#utility.yul\":11291:11368   */\n      0x4e487b7100000000000000000000000000000000000000000000000000000000\n        /* \"#utility.yul\":11288:11289   */\n      0x00\n        /* \"#utility.yul\":11281:11369   */\n      mstore\n        /* \"#utility.yul\":11388:11392   */\n      0x32\n        /* \"#utility.yul\":11385:11386   */\n      0x04\n        /* \"#utility.yul\":11378:11393   */\n      mstore\n        /* \"#utility.yul\":11412:11416   */\n      0x24\n        /* \"#utility.yul\":11409:11410   */\n      0x00\n        /* \"#utility.yul\":11402:11417   */\n      revert\n        /* \"#utility.yul\":11429:11609   */\n    tag_402:\n        /* \"#utility.yul\":11477:11554   */\n      0x4e487b7100000000000000000000000000000000000000000000000000000000\n        /* \"#utility.yul\":11474:11475   */\n      0x00\n        /* \"#utility.yul\":11467:11555   */\n      mstore\n        /* \"#utility.yul\":11574:11578   */\n      0x41\n        /* \"#utility.yul\":11571:11572   */\n      0x04\n        /* \"#utility.yul\":11564:11579   */\n      mstore\n        /* \"#utility.yul\":11598:11602   */\n      0x24\n        /* \"#utility.yul\":11595:11596   */\n      0x00\n        /* \"#utility.yul\":11588:11603   */\n      revert\n        /* \"#utility.yul\":11615:11896   */\n    tag_403:\n        /* \"#utility.yul\":11698:11725   */\n      tag_543\n        /* \"#utility.yul\":11720:11724   */\n      dup3\n        /* \"#utility.yul\":11698:11725   */\n      tag_393\n      jump\t// in\n    tag_543:\n        /* \"#utility.yul\":11690:11696   */\n      dup2\n        /* \"#utility.yul\":11686:11726   */\n      add\n        /* \"#utility.yul\":11828:11834   */\n      dup2\n        /* \"#utility.yul\":11816:11826   */\n      dup2\n        /* \"#utility.yul\":11813:11835   */\n      lt\n        /* \"#utility.yul\":11792:11810   */\n      0xffffffffffffffff\n        /* \"#utility.yul\":11780:11790   */\n      dup3\n        /* \"#utility.yul\":11777:11811   */\n      gt\n        /* \"#utility.yul\":11774:11836   */\n      or\n        /* \"#utility.yul\":11771:11859   */\n      iszero\n      tag_544\n      jumpi\n        /* \"#utility.yul\":11839:11857   */\n      tag_545\n      tag_402\n      jump\t// in\n    tag_545:\n        /* \"#utility.yul\":11771:11859   */\n    tag_544:\n        /* \"#utility.yul\":11879:11889   */\n      dup1\n        /* \"#utility.yul\":11875:11877   */\n      0x40\n        /* \"#utility.yul\":11868:11890   */\n      mstore\n        /* \"#utility.yul\":11658:11896   */\n      pop\n        /* \"#utility.yul\":11615:11896   */\n      pop\n      pop\n      jump\t// out\n        /* \"#utility.yul\":11902:12031   */\n    tag_404:\n        /* \"#utility.yul\":11936:11942   */\n      0x00\n        /* \"#utility.yul\":11963:11983   */\n      tag_547\n      tag_370\n      jump\t// in\n    tag_547:\n        /* \"#utility.yul\":11953:11983   */\n      swap1\n      pop\n        /* \"#utility.yul\":11992:12025   */\n      tag_548\n        /* \"#utility.yul\":12020:12024   */\n      dup3\n        /* \"#utility.yul\":12012:12018   */\n      dup3\n        /* \"#utility.yul\":11992:12025   */\n      tag_403\n      jump\t// in\n    tag_548:\n        /* \"#utility.yul\":11902:12031   */\n      swap2\n      swap1\n      pop\n      jump\t// out\n        /* \"#utility.yul\":12037:12286   */\n    tag_405:\n        /* \"#utility.yul\":12112:12116   */\n      0x00\n        /* \"#utility.yul\":12202:12220   */\n      0xffffffffffffffff\n        /* \"#utility.yul\":12194:12200   */\n      dup3\n        /* \"#utility.yul\":12191:12221   */\n      gt\n        /* \"#utility.yul\":12188:12244   */\n      iszero\n      tag_550\n      jumpi\n        /* \"#utility.yul\":12224:12242   */\n      tag_551\n      tag_402\n      jump\t// in\n    tag_551:\n        /* \"#utility.yul\":12188:12244   */\n    tag_550:\n        /* \"#utility.yul\":12274:12278   */\n      0x20\n        /* \"#utility.yul\":12266:12272   */\n      dup3\n        /* \"#utility.yul\":12262:12279   */\n      mul\n        /* \"#utility.yul\":12254:12279   */\n      swap1\n      pop\n        /* \"#utility.yul\":12037:12286   */\n      swap2\n      swap1\n      pop\n      jump\t// out\n        /* \"#utility.yul\":12292:12414   */\n    tag_406:\n        /* \"#utility.yul\":12365:12389   */\n      tag_553\n        /* \"#utility.yul\":12383:12388   */\n      dup2\n        /* \"#utility.yul\":12365:12389   */\n      tag_383\n      jump\t// in\n    tag_553:\n        /* \"#utility.yul\":12358:12363   */\n      dup2\n        /* \"#utility.yul\":12355:12390   */\n      eq\n        /* \"#utility.yul\":12345:12408   */\n      tag_554\n      jumpi\n        /* \"#utility.yul\":12404:12405   */\n      0x00\n        /* \"#utility.yul\":12401:12402   */\n      0x00\n        /* \"#utility.yul\":12394:12406   */\n      revert\n        /* \"#utility.yul\":12345:12408   */\n    tag_554:\n        /* \"#utility.yul\":12292:12414   */\n      pop\n      jump\t// out\n        /* \"#utility.yul\":12420:12559   */\n    tag_407:\n        /* \"#utility.yul\":12466:12471   */\n      0x00\n        /* \"#utility.yul\":12504:12510   */\n      dup2\n        /* \"#utility.yul\":12491:12511   */\n      calldataload\n        /* \"#utility.yul\":12482:12511   */\n      swap1\n      pop\n        /* \"#utility.yul\":12520:12553   */\n      tag_556\n        /* \"#utility.yul\":12547:12552   */\n      dup2\n        /* \"#utility.yul\":12520:12553   */\n      tag_406\n      jump\t// in\n    tag_556:\n        /* \"#utility.yul\":12420:12559   */\n      swap3\n      swap2\n      pop\n      pop\n      jump\t// out\n        /* \"#utility.yul\":12583:13226   */\n    tag_408:\n        /* \"#utility.yul\":12677:12682   */\n      0x00\n        /* \"#utility.yul\":12702:12781   */\n      tag_558\n        /* \"#utility.yul\":12718:12780   */\n      tag_559\n        /* \"#utility.yul\":12773:12779   */\n      dup5\n        /* \"#utility.yul\":12718:12780   */\n      tag_405\n      jump\t// in\n    tag_559:\n        /* \"#utility.yul\":12702:12781   */\n      tag_404\n      jump\t// in\n    tag_558:\n        /* \"#utility.yul\":12693:12781   */\n      swap1\n      pop\n        /* \"#utility.yul\":12801:12806   */\n      dup1\n        /* \"#utility.yul\":12854:12858   */\n      0x20\n        /* \"#utility.yul\":12846:12852   */\n      dup5\n        /* \"#utility.yul\":12842:12859   */\n      mul\n        /* \"#utility.yul\":12834:12840   */\n      dup4\n        /* \"#utility.yul\":12830:12860   */\n      add\n        /* \"#utility.yul\":12883:12886   */\n      dup6\n        /* \"#utility.yul\":12875:12881   */\n      dup2\n        /* \"#utility.yul\":12872:12887   */\n      gt\n        /* \"#utility.yul\":12869:12991   */\n      iszero\n      tag_560\n      jumpi\n        /* \"#utility.yul\":12902:12981   */\n      tag_561\n      tag_377\n      jump\t// in\n    tag_561:\n        /* \"#utility.yul\":12869:12991   */\n    tag_560:\n        /* \"#utility.yul\":13017:13023   */\n      dup4\n        /* \"#utility.yul\":13000:13220   */\n    tag_562:\n        /* \"#utility.yul\":13034:13040   */\n      dup2\n        /* \"#utility.yul\":13029:13032   */\n      dup2\n        /* \"#utility.yul\":13026:13041   */\n      lt\n        /* \"#utility.yul\":13000:13220   */\n      iszero\n      tag_564\n      jumpi\n        /* \"#utility.yul\":13109:13112   */\n      dup1\n        /* \"#utility.yul\":13138:13175   */\n      tag_565\n        /* \"#utility.yul\":13171:13174   */\n      dup9\n        /* \"#utility.yul\":13159:13169   */\n      dup3\n        /* \"#utility.yul\":13138:13175   */\n      tag_407\n      jump\t// in\n    tag_565:\n        /* \"#utility.yul\":13133:13136   */\n      dup5\n        /* \"#utility.yul\":13126:13176   */\n      mstore\n        /* \"#utility.yul\":13205:13209   */\n      0x20\n        /* \"#utility.yul\":13200:13203   */\n      dup5\n        /* \"#utility.yul\":13196:13210   */\n      add\n        /* \"#utility.yul\":13189:13210   */\n      swap4\n      pop\n        /* \"#utility.yul\":13076:13220   */\n      pop\n        /* \"#utility.yul\":13060:13064   */\n      0x20\n        /* \"#utility.yul\":13055:13058   */\n      dup2\n        /* \"#utility.yul\":13051:13065   */\n      add\n        /* \"#utility.yul\":13044:13065   */\n      swap1\n      pop\n        /* \"#utility.yul\":13000:13220   */\n      jump(tag_562)\n    tag_564:\n        /* \"#utility.yul\":13004:13025   */\n      pop\n        /* \"#utility.yul\":12683:13226   */\n      pop\n      pop\n        /* \"#utility.yul\":12583:13226   */\n      swap4\n      swap3\n      pop\n      pop\n      pop\n      jump\t// out\n        /* \"#utility.yul\":13250:13589   */\n    tag_409:\n        /* \"#utility.yul\":13319:13324   */\n      0x00\n        /* \"#utility.yul\":13368:13371   */\n      dup3\n        /* \"#utility.yul\":13361:13365   */\n      0x1f\n        /* \"#utility.yul\":13353:13359   */\n      dup4\n        /* \"#utility.yul\":13349:13366   */\n      add\n        /* \"#utility.yul\":13345:13372   */\n      slt\n        /* \"#utility.yul\":13335:13457   */\n      tag_567\n      jumpi\n        /* \"#utility.yul\":13376:13455   */\n      tag_568\n      tag_375\n      jump\t// in\n    tag_568:\n        /* \"#utility.yul\":13335:13457   */\n    tag_567:\n        /* \"#utility.yul\":13480:13484   */\n      0x08\n        /* \"#utility.yul\":13502:13583   */\n      tag_569\n        /* \"#utility.yul\":13579:13582   */\n      dup5\n        /* \"#utility.yul\":13571:13577   */\n      dup3\n        /* \"#utility.yul\":13563:13569   */\n      dup6\n        /* \"#utility.yul\":13502:13583   */\n      tag_408\n      jump\t// in\n    tag_569:\n        /* \"#utility.yul\":13493:13583   */\n      swap2\n      pop\n        /* \"#utility.yul\":13325:13589   */\n      pop\n        /* \"#utility.yul\":13250:13589   */\n      swap3\n      swap2\n      pop\n      pop\n      jump\t// out\n        /* \"#utility.yul\":13595:13971   */\n    tag_62:\n        /* \"#utility.yul\":13677:13683   */\n      0x00\n        /* \"#utility.yul\":13726:13729   */\n      0x0100\n        /* \"#utility.yul\":13714:13723   */\n      dup3\n        /* \"#utility.yul\":13705:13712   */\n      dup5\n        /* \"#utility.yul\":13701:13724   */\n      sub\n        /* \"#utility.yul\":13697:13730   */\n      slt\n        /* \"#utility.yul\":13694:13814   */\n      iszero\n      tag_571\n      jumpi\n        /* \"#utility.yul\":13733:13812   */\n      tag_572\n      tag_371\n      jump\t// in\n    tag_572:\n        /* \"#utility.yul\":13694:13814   */\n    tag_571:\n        /* \"#utility.yul\":13853:13854   */\n      0x00\n        /* \"#utility.yul\":13878:13954   */\n      tag_573\n        /* \"#utility.yul\":13946:13953   */\n      dup5\n        /* \"#utility.yul\":13937:13943   */\n      dup3\n        /* \"#utility.yul\":13926:13935   */\n      dup6\n        /* \"#utility.yul\":13922:13944   */\n      add\n        /* \"#utility.yul\":13878:13954   */\n      tag_409\n      jump\t// in\n    tag_573:\n        /* \"#utility.yul\":13868:13954   */\n      swap2\n      pop\n        /* \"#utility.yul\":13824:13964   */\n      pop\n        /* \"#utility.yul\":13595:13971   */\n      swap3\n      swap2\n      pop\n      pop\n      jump\t// out\n        /* \"#utility.yul\":13977:14081   */\n    tag_410:\n        /* \"#utility.yul\":14042:14048   */\n      0x00\n        /* \"#utility.yul\":14070:14074   */\n      0x08\n        /* \"#utility.yul\":14060:14074   */\n      swap1\n      pop\n        /* \"#utility.yul\":13977:14081   */\n      swap2\n      swap1\n      pop\n      jump\t// out\n        /* \"#utility.yul\":14087:14230   */\n    tag_411:\n        /* \"#utility.yul\":14184:14195   */\n      0x00\n        /* \"#utility.yul\":14221:14224   */\n      dup2\n        /* \"#utility.yul\":14206:14224   */\n      swap1\n      pop\n        /* \"#utility.yul\":14087:14230   */\n      swap3\n      swap2\n      pop\n      pop\n      jump\t// out\n        /* \"#utility.yul\":14236:14334   */\n    tag_412:\n        /* \"#utility.yul\":14301:14305   */\n      0x00\n        /* \"#utility.yul\":14324:14327   */\n      dup2\n        /* \"#utility.yul\":14316:14327   */\n      swap1\n      pop\n        /* \"#utility.yul\":14236:14334   */\n      swap2\n      swap1\n      pop\n      jump\t// out\n        /* \"#utility.yul\":14340:14451   */\n    tag_413:\n        /* \"#utility.yul\":14408:14412   */\n      0x00\n        /* \"#utility.yul\":14440:14444   */\n      0x20\n        /* \"#utility.yul\":14435:14438   */\n      dup3\n        /* \"#utility.yul\":14431:14445   */\n      add\n        /* \"#utility.yul\":14423:14445   */\n      swap1\n      pop\n        /* \"#utility.yul\":14340:14451   */\n      swap2\n      swap1\n      pop\n      jump\t// out\n        /* \"#utility.yul\":14489:15183   */\n    tag_414:\n        /* \"#utility.yul\":14625:14677   */\n      tag_579\n        /* \"#utility.yul\":14671:14676   */\n      dup2\n        /* \"#utility.yul\":14625:14677   */\n      tag_410\n      jump\t// in\n    tag_579:\n        /* \"#utility.yul\":14693:14777   */\n      tag_580\n        /* \"#utility.yul\":14770:14776   */\n      dup2\n        /* \"#utility.yul\":14765:14768   */\n      dup5\n        /* \"#utility.yul\":14693:14777   */\n      tag_411\n      jump\t// in\n    tag_580:\n        /* \"#utility.yul\":14686:14777   */\n      swap3\n      pop\n        /* \"#utility.yul\":14801:14855   */\n      tag_581\n        /* \"#utility.yul\":14849:14854   */\n      dup3\n        /* \"#utility.yul\":14801:14855   */\n      tag_412\n      jump\t// in\n    tag_581:\n        /* \"#utility.yul\":14878:14885   */\n      dup1\n        /* \"#utility.yul\":14909:14910   */\n      0x00\n        /* \"#utility.yul\":14894:15176   */\n    tag_582:\n        /* \"#utility.yul\":14919:14925   */\n      dup4\n        /* \"#utility.yul\":14916:14917   */\n      dup2\n        /* \"#utility.yul\":14913:14926   */\n      lt\n        /* \"#utility.yul\":14894:15176   */\n      iszero\n      tag_584\n      jumpi\n        /* \"#utility.yul\":14995:15001   */\n      dup2\n        /* \"#utility.yul\":14989:15002   */\n      mload\n        /* \"#utility.yul\":15022:15085   */\n      tag_585\n        /* \"#utility.yul\":15081:15084   */\n      dup8\n        /* \"#utility.yul\":15066:15079   */\n      dup3\n        /* \"#utility.yul\":15022:15085   */\n      tag_385\n      jump\t// in\n    tag_585:\n        /* \"#utility.yul\":15015:15085   */\n      swap7\n      pop\n        /* \"#utility.yul\":15108:15166   */\n      tag_586\n        /* \"#utility.yul\":15159:15165   */\n      dup4\n        /* \"#utility.yul\":15108:15166   */\n      tag_413\n      jump\t// in\n    tag_586:\n        /* \"#utility.yul\":15098:15166   */\n      swap3\n      pop\n        /* \"#utility.yul\":14954:15176   */\n      pop\n        /* \"#utility.yul\":14941:14942   */\n      0x01\n        /* \"#utility.yul\":14938:14939   */\n      dup2\n        /* \"#utility.yul\":14934:14943   */\n      add\n        /* \"#utility.yul\":14929:14943   */\n      swap1\n      pop\n        /* \"#utility.yul\":14894:15176   */\n      jump(tag_582)\n    tag_584:\n        /* \"#utility.yul\":14898:14912   */\n      pop\n        /* \"#utility.yul\":14601:15183   */\n      pop\n      pop\n      pop\n        /* \"#utility.yul\":14489:15183   */\n      pop\n      pop\n      jump\t// out\n        /* \"#utility.yul\":15189:15293   */\n    tag_415:\n        /* \"#utility.yul\":15254:15260   */\n      0x00\n        /* \"#utility.yul\":15282:15286   */\n      0x02\n        /* \"#utility.yul\":15272:15286   */\n      swap1\n      pop\n        /* \"#utility.yul\":15189:15293   */\n      swap2\n      swap1\n      pop\n      jump\t// out\n        /* \"#utility.yul\":15299:15442   */\n    tag_416:\n        /* \"#utility.yul\":15396:15407   */\n      0x00\n        /* \"#utility.yul\":15433:15436   */\n      dup2\n        /* \"#utility.yul\":15418:15436   */\n      swap1\n      pop\n        /* \"#utility.yul\":15299:15442   */\n      swap3\n      swap2\n      pop\n      pop\n      jump\t// out\n        /* \"#utility.yul\":15448:15546   */\n    tag_417:\n        /* \"#utility.yul\":15513:15517   */\n      0x00\n        /* \"#utility.yul\":15536:15539   */\n      dup2\n        /* \"#utility.yul\":15528:15539   */\n      swap1\n      pop\n        /* \"#utility.yul\":15448:15546   */\n      swap2\n      swap1\n      pop\n      jump\t// out\n        /* \"#utility.yul\":15552:15663   */\n    tag_418:\n        /* \"#utility.yul\":15620:15624   */\n      0x00\n        /* \"#utility.yul\":15652:15656   */\n      0x20\n        /* \"#utility.yul\":15647:15650   */\n      dup3\n        /* \"#utility.yul\":15643:15657   */\n      add\n        /* \"#utility.yul\":15635:15657   */\n      swap1\n      pop\n        /* \"#utility.yul\":15552:15663   */\n      swap2\n      swap1\n      pop\n      jump\t// out\n        /* \"#utility.yul\":15701:16395   */\n    tag_419:\n        /* \"#utility.yul\":15837:15889   */\n      tag_592\n        /* \"#utility.yul\":15883:15888   */\n      dup2\n        /* \"#utility.yul\":15837:15889   */\n      tag_415\n      jump\t// in\n    tag_592:\n        /* \"#utility.yul\":15905:15989   */\n      tag_593\n        /* \"#utility.yul\":15982:15988   */\n      dup2\n        /* \"#utility.yul\":15977:15980   */\n      dup5\n        /* \"#utility.yul\":15905:15989   */\n      tag_416\n      jump\t// in\n    tag_593:\n        /* \"#utility.yul\":15898:15989   */\n      swap3\n      pop\n        /* \"#utility.yul\":16013:16067   */\n      tag_594\n        /* \"#utility.yul\":16061:16066   */\n      dup3\n        /* \"#utility.yul\":16013:16067   */\n      tag_417\n      jump\t// in\n    tag_594:\n        /* \"#utility.yul\":16090:16097   */\n      dup1\n        /* \"#utility.yul\":16121:16122   */\n      0x00\n        /* \"#utility.yul\":16106:16388   */\n    tag_595:\n        /* \"#utility.yul\":16131:16137   */\n      dup4\n        /* \"#utility.yul\":16128:16129   */\n      dup2\n        /* \"#utility.yul\":16125:16138   */\n      lt\n        /* \"#utility.yul\":16106:16388   */\n      iszero\n      tag_597\n      jumpi\n        /* \"#utility.yul\":16207:16213   */\n      dup2\n        /* \"#utility.yul\":16201:16214   */\n      mload\n        /* \"#utility.yul\":16234:16297   */\n      tag_598\n        /* \"#utility.yul\":16293:16296   */\n      dup8\n        /* \"#utility.yul\":16278:16291   */\n      dup3\n        /* \"#utility.yul\":16234:16297   */\n      tag_385\n      jump\t// in\n    tag_598:\n        /* \"#utility.yul\":16227:16297   */\n      swap7\n      pop\n        /* \"#utility.yul\":16320:16378   */\n      tag_599\n        /* \"#utility.yul\":16371:16377   */\n      dup4\n        /* \"#utility.yul\":16320:16378   */\n      tag_418\n      jump\t// in\n    tag_599:\n        /* \"#utility.yul\":16310:16378   */\n      swap3\n      pop\n        /* \"#utility.yul\":16166:16388   */\n      pop\n        /* \"#utility.yul\":16153:16154   */\n      0x01\n        /* \"#utility.yul\":16150:16151   */\n      dup2\n        /* \"#utility.yul\":16146:16155   */\n      add\n        /* \"#utility.yul\":16141:16155   */\n      swap1\n      pop\n        /* \"#utility.yul\":16106:16388   */\n      jump(tag_595)\n    tag_597:\n        /* \"#utility.yul\":16110:16124   */\n      pop\n        /* \"#utility.yul\":15813:16395   */\n      pop\n      pop\n      pop\n        /* \"#utility.yul\":15701:16395   */\n      pop\n      pop\n      jump\t// out\n        /* \"#utility.yul\":16401:16919   */\n    tag_64:\n        /* \"#utility.yul\":16614:16618   */\n      0x00\n        /* \"#utility.yul\":16652:16655   */\n      0x0140\n        /* \"#utility.yul\":16641:16650   */\n      dup3\n        /* \"#utility.yul\":16637:16656   */\n      add\n        /* \"#utility.yul\":16629:16656   */\n      swap1\n      pop\n        /* \"#utility.yul\":16666:16783   */\n      tag_601\n        /* \"#utility.yul\":16780:16781   */\n      0x00\n        /* \"#utility.yul\":16769:16778   */\n      dup4\n        /* \"#utility.yul\":16765:16782   */\n      add\n        /* \"#utility.yul\":16756:16762   */\n      dup6\n        /* \"#utility.yul\":16666:16783   */\n      tag_414\n      jump\t// in\n    tag_601:\n        /* \"#utility.yul\":16793:16912   */\n      tag_602\n        /* \"#utility.yul\":16907:16910   */\n      0x0100\n        /* \"#utility.yul\":16896:16905   */\n      dup4\n        /* \"#utility.yul\":16892:16911   */\n      add\n        /* \"#utility.yul\":16883:16889   */\n      dup5\n        /* \"#utility.yul\":16793:16912   */\n      tag_419\n      jump\t// in\n    tag_602:\n        /* \"#utility.yul\":16401:16919   */\n      swap4\n      swap3\n      pop\n      pop\n      pop\n      jump\t// out\n        /* \"#utility.yul\":16925:17072   */\n    tag_420:\n        /* \"#utility.yul\":17026:17037   */\n      0x00\n        /* \"#utility.yul\":17063:17066   */\n      dup2\n        /* \"#utility.yul\":17048:17066   */\n      swap1\n      pop\n        /* \"#utility.yul\":16925:17072   */\n      swap3\n      swap2\n      pop\n      pop\n      jump\t// out\n        /* \"#utility.yul\":17078:17226   */\n    tag_421:\n        /* \"#utility.yul\":17176:17182   */\n      dup3\n        /* \"#utility.yul\":17171:17174   */\n      dup2\n        /* \"#utility.yul\":17166:17169   */\n      dup4\n        /* \"#utility.yul\":17153:17183   */\n      calldatacopy\n        /* \"#utility.yul\":17217:17218   */\n      0x00\n        /* \"#utility.yul\":17208:17214   */\n      dup4\n        /* \"#utility.yul\":17203:17206   */\n      dup4\n        /* \"#utility.yul\":17199:17215   */\n      add\n        /* \"#utility.yul\":17192:17219   */\n      mstore\n        /* \"#utility.yul\":17078:17226   */\n      pop\n      pop\n      pop\n      jump\t// out\n        /* \"#utility.yul\":17254:17581   */\n    tag_422:\n        /* \"#utility.yul\":17368:17371   */\n      0x00\n        /* \"#utility.yul\":17389:17477   */\n      tag_606\n        /* \"#utility.yul\":17470:17476   */\n      dup4\n        /* \"#utility.yul\":17465:17468   */\n      dup6\n        /* \"#utility.yul\":17389:17477   */\n      tag_420\n      jump\t// in\n    tag_606:\n        /* \"#utility.yul\":17382:17477   */\n      swap4\n      pop\n        /* \"#utility.yul\":17487:17543   */\n      tag_607\n        /* \"#utility.yul\":17536:17542   */\n      dup4\n        /* \"#utility.yul\":17531:17534   */\n      dup6\n        /* \"#utility.yul\":17524:17529   */\n      dup5\n        /* \"#utility.yul\":17487:17543   */\n      tag_421\n      jump\t// in\n    tag_607:\n        /* \"#utility.yul\":17568:17574   */\n      dup3\n        /* \"#utility.yul\":17563:17566   */\n      dup5\n        /* \"#utility.yul\":17559:17575   */\n      add\n        /* \"#utility.yul\":17552:17575   */\n      swap1\n      pop\n        /* \"#utility.yul\":17254:17581   */\n      swap4\n      swap3\n      pop\n      pop\n      pop\n      jump\t// out\n        /* \"#utility.yul\":17587:17878   */\n    tag_102:\n        /* \"#utility.yul\":17727:17730   */\n      0x00\n        /* \"#utility.yul\":17749:17852   */\n      tag_609\n        /* \"#utility.yul\":17848:17851   */\n      dup3\n        /* \"#utility.yul\":17839:17845   */\n      dup5\n        /* \"#utility.yul\":17831:17837   */\n      dup7\n        /* \"#utility.yul\":17749:17852   */\n      tag_422\n      jump\t// in\n    tag_609:\n        /* \"#utility.yul\":17742:17852   */\n      swap2\n      pop\n        /* \"#utility.yul\":17869:17872   */\n      dup2\n        /* \"#utility.yul\":17862:17872   */\n      swap1\n      pop\n        /* \"#utility.yul\":17587:17878   */\n      swap4\n      swap3\n      pop\n      pop\n      pop\n      jump\t// out\n        /* \"#utility.yul\":17884:18027   */\n    tag_423:\n        /* \"#utility.yul\":17941:17946   */\n      0x00\n        /* \"#utility.yul\":17972:17978   */\n      dup2\n        /* \"#utility.yul\":17966:17979   */\n      mload\n        /* \"#utility.yul\":17957:17979   */\n      swap1\n      pop\n        /* \"#utility.yul\":17988:18021   */\n      tag_611\n        /* \"#utility.yul\":18015:18020   */\n      dup2\n        /* \"#utility.yul\":17988:18021   */\n      tag_373\n      jump\t// in\n    tag_611:\n        /* \"#utility.yul\":17884:18027   */\n      swap3\n      swap2\n      pop\n      pop\n      jump\t// out\n        /* \"#utility.yul\":18033:18384   */\n    tag_106:\n        /* \"#utility.yul\":18103:18109   */\n      0x00\n        /* \"#utility.yul\":18152:18154   */\n      0x20\n        /* \"#utility.yul\":18140:18149   */\n      dup3\n        /* \"#utility.yul\":18131:18138   */\n      dup5\n        /* \"#utility.yul\":18127:18150   */\n      sub\n        /* \"#utility.yul\":18123:18155   */\n      slt\n        /* \"#utility.yul\":18120:18239   */\n      iszero\n      tag_613\n      jumpi\n        /* \"#utility.yul\":18158:18237   */\n      tag_614\n      tag_371\n      jump\t// in\n    tag_614:\n        /* \"#utility.yul\":18120:18239   */\n    tag_613:\n        /* \"#utility.yul\":18278:18279   */\n      0x00\n        /* \"#utility.yul\":18303:18367   */\n      tag_615\n        /* \"#utility.yul\":18359:18366   */\n      dup5\n        /* \"#utility.yul\":18350:18356   */\n      dup3\n        /* \"#utility.yul\":18339:18348   */\n      dup6\n        /* \"#utility.yul\":18335:18357   */\n      add\n        /* \"#utility.yul\":18303:18367   */\n      tag_423\n      jump\t// in\n    tag_615:\n        /* \"#utility.yul\":18293:18367   */\n      swap2\n      pop\n        /* \"#utility.yul\":18249:18377   */\n      pop\n        /* \"#utility.yul\":18033:18384   */\n      swap3\n      swap2\n      pop\n      pop\n      jump\t// out\n        /* \"#utility.yul\":18390:18570   */\n    tag_191:\n        /* \"#utility.yul\":18438:18515   */\n      0x4e487b7100000000000000000000000000000000000000000000000000000000\n        /* \"#utility.yul\":18435:18436   */\n      0x00\n        /* \"#utility.yul\":18428:18516   */\n      mstore\n        /* \"#utility.yul\":18535:18539   */\n      0x12\n        /* \"#utility.yul\":18532:18533   */\n      0x04\n        /* \"#utility.yul\":18525:18540   */\n      mstore\n        /* \"#utility.yul\":18559:18563   */\n      0x24\n        /* \"#utility.yul\":18556:18557   */\n      0x00\n        /* \"#utility.yul\":18549:18564   */\n      revert\n        /* \"#utility.yul\":18576:18756   */\n    tag_424:\n        /* \"#utility.yul\":18624:18701   */\n      0x4e487b7100000000000000000000000000000000000000000000000000000000\n        /* \"#utility.yul\":18621:18622   */\n      0x00\n        /* \"#utility.yul\":18614:18702   */\n      mstore\n        /* \"#utility.yul\":18721:18725   */\n      0x11\n        /* \"#utility.yul\":18718:18719   */\n      0x04\n        /* \"#utility.yul\":18711:18726   */\n      mstore\n        /* \"#utility.yul\":18745:18749   */\n      0x24\n        /* \"#utility.yul\":18742:18743   */\n      0x00\n        /* \"#utility.yul\":18735:18750   */\n      revert\n        /* \"#utility.yul\":18762:18956   */\n    tag_212:\n        /* \"#utility.yul\":18802:18806   */\n      0x00\n        /* \"#utility.yul\":18822:18842   */\n      tag_619\n        /* \"#utility.yul\":18840:18841   */\n      dup3\n        /* \"#utility.yul\":18822:18842   */\n      tag_383\n      jump\t// in\n    tag_619:\n        /* \"#utility.yul\":18817:18842   */\n      swap2\n      pop\n        /* \"#utility.yul\":18856:18876   */\n      tag_620\n        /* \"#utility.yul\":18874:18875   */\n      dup4\n        /* \"#utility.yul\":18856:18876   */\n      tag_383\n      jump\t// in\n    tag_620:\n        /* \"#utility.yul\":18851:18876   */\n      swap3\n      pop\n        /* \"#utility.yul\":18900:18901   */\n      dup3\n        /* \"#utility.yul\":18897:18898   */\n      dup3\n        /* \"#utility.yul\":18893:18902   */\n      sub\n        /* \"#utility.yul\":18885:18902   */\n      swap1\n      pop\n        /* \"#utility.yul\":18924:18925   */\n      dup2\n        /* \"#utility.yul\":18918:18922   */\n      dup2\n        /* \"#utility.yul\":18915:18926   */\n      gt\n        /* \"#utility.yul\":18912:18949   */\n      iszero\n      tag_621\n      jumpi\n        /* \"#utility.yul\":18929:18947   */\n      tag_622\n      tag_424\n      jump\t// in\n    tag_622:\n        /* \"#utility.yul\":18912:18949   */\n    tag_621:\n        /* \"#utility.yul\":18762:18956   */\n      swap3\n      swap2\n      pop\n      pop\n      jump\t// out\n\n    auxdata: 0xa26469706673582212206510fdfb47ad0d56d204791902a5b36ac7c97b341b657b10033707d85ba9dbb564736f6c634300081e0033\n}\n",
				"bytecode": {
					"linkReferences": {},
					"object": "6080604052348015600e575f5ffd5b50612b6e8061001c5f395ff3fe608060405234801561000f575f5ffd5b506004361061007b575f3560e01c80636b61d8e7116100595780636b61d8e7146100e9578063eddf243c14610119578063f11817b214610135578063ffa1ad74146101515761007b565b80632a5104361461007f57806341493c601461009d57806344f63692146100b9575b5f5ffd5b61008761016f565b604051610094919061223c565b60405180910390f35b6100b760048036038101906100b291906122f1565b610198565b005b6100d360048036038101906100ce91906123a3565b610332565b6040516100e0919061247d565b60405180910390f35b61010360048036038101906100fe9190612496565b610491565b604051610110919061223c565b60405180910390f35b610133600480360381019061012e9190612502565b61050e565b005b61014f600480360381019061014a9190612563565b6107a8565b005b610159610d63565b6040516101669190612611565b60405180910390f35b5f7fa4594c59bbc142f3b81c3ecb7f50a7c34bc9af7c4c444b5d48b795427e2859135f1b905090565b5f82825f906004926101ac93929190612639565b906101b791906126b4565b90505f6101c261016f565b9050807bffffffffffffffffffffffffffffffffffffffffffffffffffffffff1916827bffffffffffffffffffffffffffffffffffffffffffffffffffffffff1916146102485781816040517f988066a100000000000000000000000000000000000000000000000000000000815260040161023f929190612721565b60405180910390fd5b5f6102538787610491565b905061025d61219b565b885f1c815f6002811061027357610272612748565b5b602002018181525050815f1c8160016002811061029357610292612748565b5b6020020181815250505f868660049080926102b093929190612639565b8101906102bd91906128c5565b90503073ffffffffffffffffffffffffffffffffffffffff1663eddf243c82846040518363ffffffff1660e01b81526004016102fa9291906129ef565b5f6040518083038186803b158015610310575f5ffd5b505afa158015610322573d5f5f3e3d5ffd5b5050505050505050505050505050565b61033a6121bd565b610373825f600881106103505761034f612748565b5b60200201358360016008811061036957610368612748565b5b6020020135610da0565b815f6004811061038657610385612748565b5b6020020181815250506103fb826003600881106103a6576103a5612748565b5b6020020135836002600881106103bf576103be612748565b5b6020020135846005600881106103d8576103d7612748565b5b6020020135856004600881106103f1576103f0612748565b5b6020020135610f4e565b8260026004811061040f5761040e612748565b5b602002018360016004811061042757610426612748565b5b602002018281525082815250505061046f8260066008811061044c5761044b612748565b5b60200201358360076008811061046557610464612748565b5b6020020135610da0565b8160036004811061048357610482612748565b5b602002018181525050919050565b5f7f1fffffffffffffffffffffffffffffffffffffffffffffffffffffffffffffff5f1b600284846040516104c7929190612a54565b602060405180830381855afa1580156104e2573d5f5f3e3d5ffd5b5050506040513d601f19601f820116820180604052508101906105059190612a80565b16905092915050565b5f5f6105198361151a565b915091505f6040516101008682377f1cc7cb8de715675f21f01ecc9b46d236e0865e0cc020024521998269845f74e66101008201527f03ff41f4ba0c37fe2caf27354d28e4b8f83d3b76777a63b327d736bffb0122ed6101208201527f01909cd7827e0278e6b60843a4abc7b111d7f8b2725cd5902a6b20da7a2938fb6101408201527f192bd3274441670227b4f69a44005b8711266e474227c6439ca25ca8e1ec1fc26101608201527f2d4d9aa7e302d9df41749d5507949d05dbea33fbb16c643b22f599a2be6df2e26101808201527f14bedd503c37ceb061d8ec60209fe345ce89830a19230301f076caff004d19266101a08201527f0967032fcbf776d1afc985f88877f182d38480a653f2decaa9794cbc3bf3060c6101c08201527f0e187847ad4c798374d0d6732bf501847dd68bc0e071241e0213bc7fc13db7ab6101e08201527e1752a100a72fdf1e5a5d6ea841cc20ec838bccfcf7bd559e79f1c9c759b6a06102008201527f192a8cc13cd9f762871f21e43451c6ca9eeab2cb2987c4e366a185c25dac2e7f61022082015283610240820152826102608201527f198e9393920d483a7260bfb731fb5d25f1aa493335a9e71297e485b7aef312c26102808201527f1800deef121f1e76426a00665e5c4479674322d4f75edadd46debd5cd992f6ed6102a08201527f275dc4a288d1afb3cbb1ac09187524c7db36395df7be3b99e673b13a075a65ec6102c08201527f1d9befcd05a5323e6da4d435f3b617cdb3af83285c2df711ef39c01571827f9d6102e08201526020816103008360085afa915080518216915050806107a1576040517f7fcdd1f400000000000000000000000000000000000000000000000000000000815260040160405180910390fd5b5050505050565b6107b06121df565b5f5f6107d2855f600481106107c8576107c7612748565b5b60200201356116eb565b915091505f5f5f5f610814896002600481106107f1576107f0612748565b5b60200201358a60016004811061080a57610809612748565b5b6020020135611820565b93509350935093505f5f61083f8b60036004811061083557610834612748565b5b60200201356116eb565b915091505f5f61084e8c61151a565b91509150898b5f6018811061086657610865612748565b5b602002018181525050888b60016018811061088457610883612748565b5b602002018181525050868b6002601881106108a2576108a1612748565b5b602002018181525050878b6003601881106108c0576108bf612748565b5b602002018181525050848b6004601881106108de576108dd612748565b5b602002018181525050858b6005601881106108fc576108fb612748565b5b602002018181525050838b60066018811061091a57610919612748565b5b602002018181525050828b60076018811061093857610937612748565b5b6020020181815250507f1cc7cb8de715675f21f01ecc9b46d236e0865e0cc020024521998269845f74e68b60086018811061097657610975612748565b5b6020020181815250507f03ff41f4ba0c37fe2caf27354d28e4b8f83d3b76777a63b327d736bffb0122ed8b6009601881106109b4576109b3612748565b5b6020020181815250507f01909cd7827e0278e6b60843a4abc7b111d7f8b2725cd5902a6b20da7a2938fb8b600a601881106109f2576109f1612748565b5b6020020181815250507f192bd3274441670227b4f69a44005b8711266e474227c6439ca25ca8e1ec1fc28b600b60188110610a3057610a2f612748565b5b6020020181815250507f2d4d9aa7e302d9df41749d5507949d05dbea33fbb16c643b22f599a2be6df2e28b600c60188110610a6e57610a6d612748565b5b6020020181815250507f14bedd503c37ceb061d8ec60209fe345ce89830a19230301f076caff004d19268b600d60188110610aac57610aab612748565b5b6020020181815250507f0967032fcbf776d1afc985f88877f182d38480a653f2decaa9794cbc3bf3060c8b600e60188110610aea57610ae9612748565b5b6020020181815250507f0e187847ad4c798374d0d6732bf501847dd68bc0e071241e0213bc7fc13db7ab8b600f60188110610b2857610b27612748565b5b6020020181815250507e1752a100a72fdf1e5a5d6ea841cc20ec838bccfcf7bd559e79f1c9c759b6a08b601060188110610b6557610b64612748565b5b6020020181815250507f192a8cc13cd9f762871f21e43451c6ca9eeab2cb2987c4e366a185c25dac2e7f8b601160188110610ba357610ba2612748565b5b602002018181525050818b601260188110610bc157610bc0612748565b5b602002018181525050808b601360188110610bdf57610bde612748565b5b6020020181815250507f198e9393920d483a7260bfb731fb5d25f1aa493335a9e71297e485b7aef312c28b601460188110610c1d57610c1c612748565b5b6020020181815250507f1800deef121f1e76426a00665e5c4479674322d4f75edadd46debd5cd992f6ed8b601560188110610c5b57610c5a612748565b5b6020020181815250507f275dc4a288d1afb3cbb1ac09187524c7db36395df7be3b99e673b13a075a65ec8b601660188110610c9957610c98612748565b5b6020020181815250507f1d9befcd05a5323e6da4d435f3b617cdb3af83285c2df711ef39c01571827f9d8b601760188110610cd757610cd6612748565b5b6020020181815250505f610ce9612202565b6020816103008f60085afa9150811580610d1b57506001815f60018110610d1357610d12612748565b5b602002015114155b15610d52576040517f7fcdd1f400000000000000000000000000000000000000000000000000000000815260040160405180910390fd5b505050505050505050505050505050565b60606040518060400160405280600681526020017f76352e302e300000000000000000000000000000000000000000000000000000815250905090565b5f7f30644e72e131a029b85045b68181585d97816a916871ca8d3c208c16d87cfd4783101580610df057507f30644e72e131a029b85045b68181585d97816a916871ca8d3c208c16d87cfd478210155b15610e27576040517f7fcdd1f400000000000000000000000000000000000000000000000000000000815260040160405180910390fd5b5f83148015610e3557505f82145b15610e42575f9050610f48565b5f610ee07f30644e72e131a029b85045b68181585d97816a916871ca8d3c208c16d87cfd4780610e7557610e74612aab565b5b60037f30644e72e131a029b85045b68181585d97816a916871ca8d3c208c16d87cfd4780610ea657610ea5612aab565b5b877f30644e72e131a029b85045b68181585d97816a916871ca8d3c208c16d87cfd4780610ed657610ed5612aab565b5b898a090908611bfb565b9050808303610ef8575f600185901b17915050610f48565b610f0181611c97565b8303610f165760018085901b17915050610f48565b6040517f7fcdd1f400000000000000000000000000000000000000000000000000000000815260040160405180910390fd5b92915050565b5f5f7f30644e72e131a029b85045b68181585d97816a916871ca8d3c208c16d87cfd4786101580610f9f57507f30644e72e131a029b85045b68181585d97816a916871ca8d3c208c16d87cfd478510155b80610fca57507f30644e72e131a029b85045b68181585d97816a916871ca8d3c208c16d87cfd478410155b80610ff557507f30644e72e131a029b85045b68181585d97816a916871ca8d3c208c16d87cfd478310155b1561102c576040517f7fcdd1f400000000000000000000000000000000000000000000000000000000815260040160405180910390fd5b5f8385878917171703611044575f5f91509150611511565b5f5f5f7f30644e72e131a029b85045b68181585d97816a916871ca8d3c208c16d87cfd478061107657611075612aab565b5b60037f30644e72e131a029b85045b68181585d97816a916871ca8d3c208c16d87cfd476110a39190612b05565b7f30644e72e131a029b85045b68181585d97816a916871ca8d3c208c16d87cfd47806110d2576110d1612aab565b5b8a8c090990505f7f30644e72e131a029b85045b68181585d97816a916871ca8d3c208c16d87cfd478061110857611107612aab565b5b8a7f30644e72e131a029b85045b68181585d97816a916871ca8d3c208c16d87cfd478061113857611137612aab565b5b8c8d090990505f7f30644e72e131a029b85045b68181585d97816a916871ca8d3c208c16d87cfd478061116e5761116d612aab565b5b8a7f30644e72e131a029b85045b68181585d97816a916871ca8d3c208c16d87cfd478061119e5761119d612aab565b5b8c8d090990507f30644e72e131a029b85045b68181585d97816a916871ca8d3c208c16d87cfd47806111d3576111d2612aab565b5b7f30644e72e131a029b85045b68181585d97816a916871ca8d3c208c16d87cfd478061120257611201612aab565b5b7f30644e72e131a029b85045b68181585d97816a916871ca8d3c208c16d87cfd478061123157611230612aab565b5b8c860984087f2b149d40ceb8aaae81be18991be06ac3b5b4c5e559dbefa33267e6dc24a138e50894506113167f30644e72e131a029b85045b68181585d97816a916871ca8d3c208c16d87cfd478061128c5761128b612aab565b5b7f30644e72e131a029b85045b68181585d97816a916871ca8d3c208c16d87cfd47806112bb576112ba612aab565b5b7f30644e72e131a029b85045b68181585d97816a916871ca8d3c208c16d87cfd47806112ea576112e9612aab565b5b8e870984087f2fcd3ac2a640a154eb23960892a85a68f031ca0c8344b23a577dcf1052b9e77508611c97565b93505050505f5f6113b97f30644e72e131a029b85045b68181585d97816a916871ca8d3c208c16d87cfd478061134f5761134e612aab565b5b7f30644e72e131a029b85045b68181585d97816a916871ca8d3c208c16d87cfd478061137e5761137d612aab565b5b8586097f30644e72e131a029b85045b68181585d97816a916871ca8d3c208c16d87cfd47806113b0576113af612aab565b5b87880908611bfb565b90506114467f30644e72e131a029b85045b68181585d97816a916871ca8d3c208c16d87cfd47806113ed576113ec612aab565b5b7f183227397098d014dc2822db40c0ac2ecbc0b548b438e5469e10460b6c3e7ea47f30644e72e131a029b85045b68181585d97816a916871ca8d3c208c16d87cfd478061143d5761143c612aab565b5b84880809611d02565b15915050611455838383611d6c565b8093508194505050828714801561146b57508186145b15611493575f8161147c575f61147f565b60025b60ff1660028b901b1717945087935061150d565b61149c83611c97565b871480156114b157506114ae82611c97565b86145b156114da576001816114c3575f6114c6565b60025b60ff1660028b901b1717945087935061150c565b6040517f7fcdd1f400000000000000000000000000000000000000000000000000000000815260040160405180910390fd5b5b5050505b94509492505050565b5f5f5f60019050604051604081015f7f26091e1cafb0ad8a4ea0a694cd3743ebf524779233db734c451d28b58aa9758e83527e9ff50a6b8b11c3ca6fdb2690a124f8ce25489fefa65a3e782e7ba70b66690e60208401527f061c3fd0fd3da25d2607c227d090cca750ed36c6ec878755e537c1c48951fb4c82527f0fa17ae9c2033379df7b5c65eff0e107055e9a273e6119a212dd09eb517072196020830152863590508060408301527f30644e72e131a029b85045b68181585d2833e84879b9709143e1f593f000000181108416935060408260608460075afa8416935060408360808560065afa841693507f04eab241388a79817fe0e0e2ead0b2ec4ffdec51a16028dee020634fd129e71c82527f07236256d21c60d02f0bdbf95cff83e03ea9e16fca56b18d5544b0889a65c1f56020830152602087013590508060408301527f30644e72e131a029b85045b68181585d2833e84879b9709143e1f593f000000181108416935060408260608460075afa8416935060408360808560065afa841693508251955060208301519450505050806116e5576040517fa54f8e2700000000000000000000000000000000000000000000000000000000815260040160405180910390fd5b50915091565b5f5f5f83036116ff575f5f9150915061181b565b5f6001808516149050600184901c92507f30644e72e131a029b85045b68181585d97816a916871ca8d3c208c16d87cfd478310611768576040517f7fcdd1f400000000000000000000000000000000000000000000000000000000815260040160405180910390fd5b6118057f30644e72e131a029b85045b68181585d97816a916871ca8d3c208c16d87cfd478061179a57611799612aab565b5b60037f30644e72e131a029b85045b68181585d97816a916871ca8d3c208c16d87cfd47806117cb576117ca612aab565b5b867f30644e72e131a029b85045b68181585d97816a916871ca8d3c208c16d87cfd47806117fb576117fa612aab565b5b8889090908611bfb565b915080156118195761181682611c97565b91505b505b915091565b5f5f5f5f5f8614801561183257505f85145b15611848575f5f5f5f9350935093509350611bf2565b5f60018088161490505f6002808916149050600288901c95508694507f30644e72e131a029b85045b68181585d97816a916871ca8d3c208c16d87cfd47861015806118b357507f30644e72e131a029b85045b68181585d97816a916871ca8d3c208c16d87cfd478510155b156118ea576040517f7fcdd1f400000000000000000000000000000000000000000000000000000000815260040160405180910390fd5b5f7f30644e72e131a029b85045b68181585d97816a916871ca8d3c208c16d87cfd478061191a57611919612aab565b5b60037f30644e72e131a029b85045b68181585d97816a916871ca8d3c208c16d87cfd476119479190612b05565b7f30644e72e131a029b85045b68181585d97816a916871ca8d3c208c16d87cfd478061197657611975612aab565b5b888a090990505f7f30644e72e131a029b85045b68181585d97816a916871ca8d3c208c16d87cfd47806119ac576119ab612aab565b5b887f30644e72e131a029b85045b68181585d97816a916871ca8d3c208c16d87cfd47806119dc576119db612aab565b5b8a8b090990505f7f30644e72e131a029b85045b68181585d97816a916871ca8d3c208c16d87cfd4780611a1257611a11612aab565b5b887f30644e72e131a029b85045b68181585d97816a916871ca8d3c208c16d87cfd4780611a4257611a41612aab565b5b8a8b090990507f30644e72e131a029b85045b68181585d97816a916871ca8d3c208c16d87cfd4780611a7757611a76612aab565b5b7f30644e72e131a029b85045b68181585d97816a916871ca8d3c208c16d87cfd4780611aa657611aa5612aab565b5b7f30644e72e131a029b85045b68181585d97816a916871ca8d3c208c16d87cfd4780611ad557611ad4612aab565b5b8a860984087f2b149d40ceb8aaae81be18991be06ac3b5b4c5e559dbefa33267e6dc24a138e5089650611bba7f30644e72e131a029b85045b68181585d97816a916871ca8d3c208c16d87cfd4780611b3057611b2f612aab565b5b7f30644e72e131a029b85045b68181585d97816a916871ca8d3c208c16d87cfd4780611b5f57611b5e612aab565b5b7f30644e72e131a029b85045b68181585d97816a916871ca8d3c208c16d87cfd4780611b8e57611b8d612aab565b5b8c870984087f2fcd3ac2a640a154eb23960892a85a68f031ca0c8344b23a577dcf1052b9e77508611c97565b9550611bc7878786611d6c565b80975081985050508415611bec57611bde87611c97565b9650611be986611c97565b95505b50505050505b92959194509250565b5f611c26827f0c19139cb84c680a6e14116da060561765e05aa45a1c72a34f082305b61f3f52612067565b9050817f30644e72e131a029b85045b68181585d97816a916871ca8d3c208c16d87cfd4780611c5857611c57612aab565b5b82830914611c92576040517f7fcdd1f400000000000000000000000000000000000000000000000000000000815260040160405180910390fd5b919050565b5f7f30644e72e131a029b85045b68181585d97816a916871ca8d3c208c16d87cfd47808381611cc957611cc8612aab565b5b067f30644e72e131a029b85045b68181585d97816a916871ca8d3c208c16d87cfd470381611cfa57611cf9612aab565b5b069050919050565b5f5f611d2e837f0c19139cb84c680a6e14116da060561765e05aa45a1c72a34f082305b61f3f52612067565b9050827f30644e72e131a029b85045b68181585d97816a916871ca8d3c208c16d87cfd4780611d6057611d5f612aab565b5b82830914915050919050565b5f5f5f611e0b7f30644e72e131a029b85045b68181585d97816a916871ca8d3c208c16d87cfd4780611da157611da0612aab565b5b7f30644e72e131a029b85045b68181585d97816a916871ca8d3c208c16d87cfd4780611dd057611dcf612aab565b5b8788097f30644e72e131a029b85045b68181585d97816a916871ca8d3c208c16d87cfd4780611e0257611e01612aab565b5b898a0908611bfb565b90508315611e1f57611e1c81611c97565b90505b611eaa7f30644e72e131a029b85045b68181585d97816a916871ca8d3c208c16d87cfd4780611e5157611e50612aab565b5b7f183227397098d014dc2822db40c0ac2ecbc0b548b438e5469e10460b6c3e7ea47f30644e72e131a029b85045b68181585d97816a916871ca8d3c208c16d87cfd4780611ea157611ea0612aab565b5b848a0809611bfb565b92507f30644e72e131a029b85045b68181585d97816a916871ca8d3c208c16d87cfd4780611edb57611eda612aab565b5b611f167f30644e72e131a029b85045b68181585d97816a916871ca8d3c208c16d87cfd4780611f0d57611f0c612aab565b5b600286096120fe565b860991507f30644e72e131a029b85045b68181585d97816a916871ca8d3c208c16d87cfd4780611f4957611f48612aab565b5b611f837f30644e72e131a029b85045b68181585d97816a916871ca8d3c208c16d87cfd4780611f7b57611f7a612aab565b5b848509611c97565b7f30644e72e131a029b85045b68181585d97816a916871ca8d3c208c16d87cfd4780611fb257611fb1612aab565b5b858609088614158061202757507f30644e72e131a029b85045b68181585d97816a916871ca8d3c208c16d87cfd4780611fee57611fed612aab565b5b7f30644e72e131a029b85045b68181585d97816a916871ca8d3c208c16d87cfd478061201d5761201c612aab565b5b8385096002098514155b1561205e576040517f7fcdd1f400000000000000000000000000000000000000000000000000000000815260040160405180910390fd5b50935093915050565b5f5f60405160208152602080820152602060408201528460608201528360808201527f30644e72e131a029b85045b68181585d97816a916871ca8d3c208c16d87cfd4760a082015260208160c08360055afa91508051925050806120f7576040517f7fcdd1f400000000000000000000000000000000000000000000000000000000815260040160405180910390fd5b5092915050565b5f612129827f30644e72e131a029b85045b68181585d97816a916871ca8d3c208c16d87cfd45612067565b905060017f30644e72e131a029b85045b68181585d97816a916871ca8d3c208c16d87cfd478061215c5761215b612aab565b5b82840914612196576040517f7fcdd1f400000000000000000000000000000000000000000000000000000000815260040160405180910390fd5b919050565b6040518060400160405280600290602082028036833780820191505090505090565b6040518060800160405280600490602082028036833780820191505090505090565b604051806103000160405280601890602082028036833780820191505090505090565b6040518060200160405280600190602082028036833780820191505090505090565b5f819050919050565b61223681612224565b82525050565b5f60208201905061224f5f83018461222d565b92915050565b5f604051905090565b5f5ffd5b5f5ffd5b61226f81612224565b8114612279575f5ffd5b50565b5f8135905061228a81612266565b92915050565b5f5ffd5b5f5ffd5b5f5ffd5b5f5f83601f8401126122b1576122b0612290565b5b8235905067ffffffffffffffff8111156122ce576122cd612294565b5b6020830191508360018202830111156122ea576122e9612298565b5b9250929050565b5f5f5f5f5f6060868803121561230a5761230961225e565b5b5f6123178882890161227c565b955050602086013567ffffffffffffffff81111561233857612337612262565b5b6123448882890161229c565b9450945050604086013567ffffffffffffffff81111561236757612366612262565b5b6123738882890161229c565b92509250509295509295909350565b5f8190508260206008028201111561239d5761239c612298565b5b92915050565b5f61010082840312156123b9576123b861225e565b5b5f6123c684828501612382565b91505092915050565b5f60049050919050565b5f81905092915050565b5f819050919050565b5f819050919050565b6123fe816123ec565b82525050565b5f61240f83836123f5565b60208301905092915050565b5f602082019050919050565b612430816123cf565b61243a81846123d9565b9250612445826123e3565b805f5b8381101561247557815161245c8782612404565b96506124678361241b565b925050600181019050612448565b505050505050565b5f6080820190506124905f830184612427565b92915050565b5f5f602083850312156124ac576124ab61225e565b5b5f83013567ffffffffffffffff8111156124c9576124c8612262565b5b6124d58582860161229c565b92509250509250929050565b5f819050826020600202820111156124fc576124fb612298565b5b92915050565b5f5f61014083850312156125195761251861225e565b5b5f61252685828601612382565b925050610100612538858286016124e1565b9150509250929050565b5f8190508260206004028201111561255d5761255c612298565b5b92915050565b5f5f60c083850312156125795761257861225e565b5b5f61258685828601612542565b9250506080612597858286016124e1565b9150509250929050565b5f81519050919050565b5f82825260208201905092915050565b8281835e5f83830152505050565b5f601f19601f8301169050919050565b5f6125e3826125a1565b6125ed81856125ab565b93506125fd8185602086016125bb565b612606816125c9565b840191505092915050565b5f6020820190508181035f83015261262981846125d9565b905092915050565b5f5ffd5b5f5ffd5b5f5f8585111561264c5761264b612631565b5b8386111561265d5761265c612635565b5b6001850283019150848603905094509492505050565b5f82905092915050565b5f7fffffffff0000000000000000000000000000000000000000000000000000000082169050919050565b5f82821b905092915050565b5f6126bf8383612673565b826126ca813561267d565b9250600482101561270a576127057fffffffff00000000000000000000000000000000000000000000000000000000836004036008026126a8565b831692505b505092915050565b61271b8161267d565b82525050565b5f6040820190506127345f830185612712565b6127416020830184612712565b9392505050565b7f4e487b71000000000000000000000000000000000000000000000000000000005f52603260045260245ffd5b7f4e487b71000000000000000000000000000000000000000000000000000000005f52604160045260245ffd5b6127ab826125c9565b810181811067ffffffffffffffff821117156127ca576127c9612775565b5b80604052505050565b5f6127dc612255565b90506127e882826127a2565b919050565b5f67ffffffffffffffff82111561280757612806612775565b5b602082029050919050565b61281b816123ec565b8114612825575f5ffd5b50565b5f8135905061283681612812565b92915050565b5f61284e612849846127ed565b6127d3565b9050806020840283018581111561286857612867612298565b5b835b81811015612891578061287d8882612828565b84526020840193505060208101905061286a565b5050509392505050565b5f82601f8301126128af576128ae612290565b5b60086128bc84828561283c565b91505092915050565b5f61010082840312156128db576128da61225e565b5b5f6128e88482850161289b565b91505092915050565b5f60089050919050565b5f81905092915050565b5f819050919050565b5f602082019050919050565b612923816128f1565b61292d81846128fb565b925061293882612905565b805f5b8381101561296857815161294f8782612404565b965061295a8361290e565b92505060018101905061293b565b505050505050565b5f60029050919050565b5f81905092915050565b5f819050919050565b5f602082019050919050565b6129a281612970565b6129ac818461297a565b92506129b782612984565b805f5b838110156129e75781516129ce8782612404565b96506129d98361298d565b9250506001810190506129ba565b505050505050565b5f61014082019050612a035f83018561291a565b612a11610100830184612999565b9392505050565b5f81905092915050565b828183375f83830152505050565b5f612a3b8385612a18565b9350612a48838584612a22565b82840190509392505050565b5f612a60828486612a30565b91508190509392505050565b5f81519050612a7a81612266565b92915050565b5f60208284031215612a9557612a9461225e565b5b5f612aa284828501612a6c565b91505092915050565b7f4e487b71000000000000000000000000000000000000000000000000000000005f52601260045260245ffd5b7f4e487b71000000000000000000000000000000000000000000000000000000005f52601160045260245ffd5b5f612b0f826123ec565b9150612b1a836123ec565b9250828203905081811115612b3257612b31612ad8565b5b9291505056fea26469706673582212206510fdfb47ad0d56d204791902a5b36ac7c97b341b657b10033707d85ba9dbb564736f6c634300081e0033",
					"opcodes": "PUSH1 0x80 PUSH1 0x40 MSTORE CALLVALUE DUP1 ISZERO PUSH1 0xE JUMPI PUSH0 PUSH0 REVERT JUMPDEST POP PUSH2 0x2B6E DUP1 PUSH2 0x1C PUSH0 CODECOPY PUSH0 RETURN INVALID PUSH1 0x80 PUSH1 0x40 MSTORE CALLVALUE DUP1 ISZERO PUSH2 0xF JUMPI PUSH0 PUSH0 REVERT JUMPDEST POP PUSH1 0x4 CALLDATASIZE LT PUSH2 0x7B JUMPI PUSH0 CALLDATALOAD PUSH1 0xE0 SHR DUP1 PUSH4 0x6B61D8E7 GT PUSH2 0x59 JUMPI DUP1 PUSH4 0x6B61D8E7 EQ PUSH2 0xE9 JUMPI DUP1 PUSH4 0xEDDF243C EQ PUSH2 0x119 JUMPI DUP1 PUSH4 0xF11817B2 EQ PUSH2 0x135 JUMPI DUP1 PUSH4 0xFFA1AD74 EQ PUSH2 0x151 JUMPI PUSH2 0x7B JUMP JUMPDEST DUP1 PUSH4 0x2A510436 EQ PUSH2 0x7F JUMPI DUP1 PUSH4 0x41493C60 EQ PUSH2 0x9D JUMPI DUP1 PUSH4 0x44F63692 EQ PUSH2 0xB9 JUMPI JUMPDEST PUSH0 PUSH0 REVERT JUMPDEST PUSH2 0x87 PUSH2 0x16F JUMP JUMPDEST PUSH1 0x40 MLOAD PUSH2 0x94 SWAP2 SWAP1 PUSH2 0x223C JUMP JUMPDEST PUSH1 0x40 MLOAD DUP1 SWAP2 SUB SWAP1 RETURN JUMPDEST PUSH2 0xB7 PUSH1 0x4 DUP1 CALLDATASIZE SUB DUP2 ADD SWAP1 PUSH2 0xB2 SWAP2 SWAP1 PUSH2 0x22F1 JUMP JUMPDEST PUSH2 0x198 JUMP JUMPDEST STOP JUMPDEST PUSH2 0xD3 PUSH1 0x4 DUP1 CALLDATASIZE SUB DUP2 ADD SWAP1 PUSH2 0xCE SWAP2 SWAP1 PUSH2 0x23A3 JUMP JUMPDEST PUSH2 0x332 JUMP JUMPDEST PUSH1 0x40 MLOAD PUSH2 0xE0 SWAP2 SWAP1 PUSH2 0x247D JUMP JUMPDEST PUSH1 0x40 MLOAD DUP1 SWAP2 SUB SWAP1 RETURN JUMPDEST PUSH2 0x103 PUSH1 0x4 DUP1 CALLDATASIZE SUB DUP2 ADD SWAP1 PUSH2 0xFE SWAP2 SWAP1 PUSH2 0x2496 JUMP JUMPDEST PUSH2 0x491 JUMP JUMPDEST PUSH1 0x40 MLOAD PUSH2 0x110 SWAP2 SWAP1 PUSH2 0x223C JUMP JUMPDEST PUSH1 0x40 MLOAD DUP1 SWAP2 SUB SWAP1 RETURN JUMPDEST PUSH2 0x133 PUSH1 0x4 DUP1 CALLDATASIZE SUB DUP2 ADD SWAP1 PUSH2 0x12E SWAP2 SWAP1 PUSH2 0x2502 JUMP JUMPDEST PUSH2 0x50E JUMP JUMPDEST STOP JUMPDEST PUSH2 0x14F PUSH1 0x4 DUP1 CALLDATASIZE SUB DUP2 ADD SWAP1 PUSH2 0x14A SWAP2 SWAP1 PUSH2 0x2563 JUMP JUMPDEST PUSH2 0x7A8 JUMP JUMPDEST STOP JUMPDEST PUSH2 0x159 PUSH2 0xD63 JUMP JUMPDEST PUSH1 0x40 MLOAD PUSH2 0x166 SWAP2 SWAP1 PUSH2 0x2611 JUMP JUMPDEST PUSH1 0x40 MLOAD DUP1 SWAP2 SUB SWAP1 RETURN JUMPDEST PUSH0 PUSH32 0xA4594C59BBC142F3B81C3ECB7F50A7C34BC9AF7C4C444B5D48B795427E285913 PUSH0 SHL SWAP1 POP SWAP1 JUMP JUMPDEST PUSH0 DUP3 DUP3 PUSH0 SWAP1 PUSH1 0x4 SWAP3 PUSH2 0x1AC SWAP4 SWAP3 SWAP2 SWAP1 PUSH2 0x2639 JUMP JUMPDEST SWAP1 PUSH2 0x1B7 SWAP2 SWAP1 PUSH2 0x26B4 JUMP JUMPDEST SWAP1 POP PUSH0 PUSH2 0x1C2 PUSH2 0x16F JUMP JUMPDEST SWAP1 POP DUP1 PUSH28 0xFFFFFFFFFFFFFFFFFFFFFFFFFFFFFFFFFFFFFFFFFFFFFFFFFFFFFFFF NOT AND DUP3 PUSH28 0xFFFFFFFFFFFFFFFFFFFFFFFFFFFFFFFFFFFFFFFFFFFFFFFFFFFFFFFF NOT AND EQ PUSH2 0x248 JUMPI DUP2 DUP2 PUSH1 0x40 MLOAD PUSH32 0x988066A100000000000000000000000000000000000000000000000000000000 DUP2 MSTORE PUSH1 0x4 ADD PUSH2 0x23F SWAP3 SWAP2 SWAP1 PUSH2 0x2721 JUMP JUMPDEST PUSH1 0x40 MLOAD DUP1 SWAP2 SUB SWAP1 REVERT JUMPDEST PUSH0 PUSH2 0x253 DUP8 DUP8 PUSH2 0x491 JUMP JUMPDEST SWAP1 POP PUSH2 0x25D PUSH2 0x219B JUMP JUMPDEST DUP9 PUSH0 SHR DUP2 PUSH0 PUSH1 0x2 DUP2 LT PUSH2 0x273 JUMPI PUSH2 0x272 PUSH2 0x2748 JUMP JUMPDEST JUMPDEST PUSH1 0x20 MUL ADD DUP2 DUP2 MSTORE POP POP DUP2 PUSH0 SHR DUP2 PUSH1 0x1 PUSH1 0x2 DUP2 LT PUSH2 0x293 JUMPI PUSH2 0x292 PUSH2 0x2748 JUMP JUMPDEST JUMPDEST PUSH1 0x20 MUL ADD DUP2 DUP2 MSTORE POP POP PUSH0 DUP7 DUP7 PUSH1 0x4 SWAP1 DUP1 SWAP3 PUSH2 0x2B0 SWAP4 SWAP3 SWAP2 SWAP1 PUSH2 0x2639 JUMP JUMPDEST DUP2 ADD SWAP1 PUSH2 0x2BD SWAP2 SWAP1 PUSH2 0x28C5 JUMP JUMPDEST SWAP1 POP ADDRESS PUSH20 0xFFFFFFFFFFFFFFFFFFFFFFFFFFFFFFFFFFFFFFFF AND PUSH4 0xEDDF243C DUP3 DUP5 PUSH1 0x40 MLOAD DUP4 PUSH4 0xFFFFFFFF AND PUSH1 0xE0 SHL DUP2 MSTORE PUSH1 0x4 ADD PUSH2 0x2FA SWAP3 SWAP2 SWAP1 PUSH2 0x29EF JUMP JUMPDEST PUSH0 PUSH1 0x40 MLOAD DUP1 DUP4 SUB DUP2 DUP7 DUP1 EXTCODESIZE ISZERO DUP1 ISZERO PUSH2 0x310 JUMPI PUSH0 PUSH0 REVERT JUMPDEST POP GAS STATICCALL ISZERO DUP1 ISZERO PUSH2 0x322 JUMPI RETURNDATASIZE PUSH0 PUSH0 RETURNDATACOPY RETURNDATASIZE PUSH0 REVERT JUMPDEST POP POP POP POP POP POP POP POP POP POP POP POP POP POP JUMP JUMPDEST PUSH2 0x33A PUSH2 0x21BD JUMP JUMPDEST PUSH2 0x373 DUP3 PUSH0 PUSH1 0x8 DUP2 LT PUSH2 0x350 JUMPI PUSH2 0x34F PUSH2 0x2748 JUMP JUMPDEST JUMPDEST PUSH1 0x20 MUL ADD CALLDATALOAD DUP4 PUSH1 0x1 PUSH1 0x8 DUP2 LT PUSH2 0x369 JUMPI PUSH2 0x368 PUSH2 0x2748 JUMP JUMPDEST JUMPDEST PUSH1 0x20 MUL ADD CALLDATALOAD PUSH2 0xDA0 JUMP JUMPDEST DUP2 PUSH0 PUSH1 0x4 DUP2 LT PUSH2 0x386 JUMPI PUSH2 0x385 PUSH2 0x2748 JUMP JUMPDEST JUMPDEST PUSH1 0x20 MUL ADD DUP2 DUP2 MSTORE POP POP PUSH2 0x3FB DUP3 PUSH1 0x3 PUSH1 0x8 DUP2 LT PUSH2 0x3A6 JUMPI PUSH2 0x3A5 PUSH2 0x2748 JUMP JUMPDEST JUMPDEST PUSH1 0x20 MUL ADD CALLDATALOAD DUP4 PUSH1 0x2 PUSH1 0x8 DUP2 LT PUSH2 0x3BF JUMPI PUSH2 0x3BE PUSH2 0x2748 JUMP JUMPDEST JUMPDEST PUSH1 0x20 MUL ADD CALLDATALOAD DUP5 PUSH1 0x5 PUSH1 0x8 DUP2 LT PUSH2 0x3D8 JUMPI PUSH2 0x3D7 PUSH2 0x2748 JUMP JUMPDEST JUMPDEST PUSH1 0x20 MUL ADD CALLDATALOAD DUP6 PUSH1 0x4 PUSH1 0x8 DUP2 LT PUSH2 0x3F1 JUMPI PUSH2 0x3F0 PUSH2 0x2748 JUMP JUMPDEST JUMPDEST PUSH1 0x20 MUL ADD CALLDATALOAD PUSH2 0xF4E JUMP JUMPDEST DUP3 PUSH1 0x2 PUSH1 0x4 DUP2 LT PUSH2 0x40F JUMPI PUSH2 0x40E PUSH2 0x2748 JUMP JUMPDEST JUMPDEST PUSH1 0x20 MUL ADD DUP4 PUSH1 0x1 PUSH1 0x4 DUP2 LT PUSH2 0x427 JUMPI PUSH2 0x426 PUSH2 0x2748 JUMP JUMPDEST JUMPDEST PUSH1 0x20 MUL ADD DUP3 DUP2 MSTORE POP DUP3 DUP2 MSTORE POP POP POP PUSH2 0x46F DUP3 PUSH1 0x6 PUSH1 0x8 DUP2 LT PUSH2 0x44C JUMPI PUSH2 0x44B PUSH2 0x2748 JUMP JUMPDEST JUMPDEST PUSH1 0x20 MUL ADD CALLDATALOAD DUP4 PUSH1 0x7 PUSH1 0x8 DUP2 LT PUSH2 0x465 JUMPI PUSH2 0x464 PUSH2 0x2748 JUMP JUMPDEST JUMPDEST PUSH1 0x20 MUL ADD CALLDATALOAD PUSH2 0xDA0 JUMP JUMPDEST DUP2 PUSH1 0x3 PUSH1 0x4 DUP2 LT PUSH2 0x483 JUMPI PUSH2 0x482 PUSH2 0x2748 JUMP JUMPDEST JUMPDEST PUSH1 0x20 MUL ADD DUP2 DUP2 MSTORE POP POP SWAP2 SWAP1 POP JUMP JUMPDEST PUSH0 PUSH32 0x1FFFFFFFFFFFFFFFFFFFFFFFFFFFFFFFFFFFFFFFFFFFFFFFFFFFFFFFFFFFFFFF PUSH0 SHL PUSH1 0x2 DUP5 DUP5 PUSH1 0x40 MLOAD PUSH2 0x4C7 SWAP3 SWAP2 SWAP1 PUSH2 0x2A54 JUMP JUMPDEST PUSH1 0x20 PUSH1 0x40 MLOAD DUP1 DUP4 SUB DUP2 DUP6 GAS STATICCALL ISZERO DUP1 ISZERO PUSH2 0x4E2 JUMPI RETURNDATASIZE PUSH0 PUSH0 RETURNDATACOPY RETURNDATASIZE PUSH0 REVERT JUMPDEST POP POP POP PUSH1 0x40 MLOAD RETURNDATASIZE PUSH1 0x1F NOT PUSH1 0x1F DUP3 ADD AND DUP3 ADD DUP1 PUSH1 0x40 MSTORE POP DUP2 ADD SWAP1 PUSH2 0x505 SWAP2 SWAP1 PUSH2 0x2A80 JUMP JUMPDEST AND SWAP1 POP SWAP3 SWAP2 POP POP JUMP JUMPDEST PUSH0 PUSH0 PUSH2 0x519 DUP4 PUSH2 0x151A JUMP JUMPDEST SWAP2 POP SWAP2 POP PUSH0 PUSH1 0x40 MLOAD PUSH2 0x100 DUP7 DUP3 CALLDATACOPY PUSH32 0x1CC7CB8DE715675F21F01ECC9B46D236E0865E0CC020024521998269845F74E6 PUSH2 0x100 DUP3 ADD MSTORE PUSH32 0x3FF41F4BA0C37FE2CAF27354D28E4B8F83D3B76777A63B327D736BFFB0122ED PUSH2 0x120 DUP3 ADD MSTORE PUSH32 0x1909CD7827E0278E6B60843A4ABC7B111D7F8B2725CD5902A6B20DA7A2938FB PUSH2 0x140 DUP3 ADD MSTORE PUSH32 0x192BD3274441670227B4F69A44005B8711266E474227C6439CA25CA8E1EC1FC2 PUSH2 0x160 DUP3 ADD MSTORE PUSH32 0x2D4D9AA7E302D9DF41749D5507949D05DBEA33FBB16C643B22F599A2BE6DF2E2 PUSH2 0x180 DUP3 ADD MSTORE PUSH32 0x14BEDD503C37CEB061D8EC60209FE345CE89830A19230301F076CAFF004D1926 PUSH2 0x1A0 DUP3 ADD MSTORE PUSH32 0x967032FCBF776D1AFC985F88877F182D38480A653F2DECAA9794CBC3BF3060C PUSH2 0x1C0 DUP3 ADD MSTORE PUSH32 0xE187847AD4C798374D0D6732BF501847DD68BC0E071241E0213BC7FC13DB7AB PUSH2 0x1E0 DUP3 ADD MSTORE PUSH31 0x1752A100A72FDF1E5A5D6EA841CC20EC838BCCFCF7BD559E79F1C9C759B6A0 PUSH2 0x200 DUP3 ADD MSTORE PUSH32 0x192A8CC13CD9F762871F21E43451C6CA9EEAB2CB2987C4E366A185C25DAC2E7F PUSH2 0x220 DUP3 ADD MSTORE DUP4 PUSH2 0x240 DUP3 ADD MSTORE DUP3 PUSH2 0x260 DUP3 ADD MSTORE PUSH32 0x198E9393920D483A7260BFB731FB5D25F1AA493335A9E71297E485B7AEF312C2 PUSH2 0x280 DUP3 ADD MSTORE PUSH32 0x1800DEEF121F1E76426A00665E5C4479674322D4F75EDADD46DEBD5CD992F6ED PUSH2 0x2A0 DUP3 ADD MSTORE PUSH32 0x275DC4A288D1AFB3CBB1AC09187524C7DB36395DF7BE3B99E673B13A075A65EC PUSH2 0x2C0 DUP3 ADD MSTORE PUSH32 0x1D9BEFCD05A5323E6DA4D435F3B617CDB3AF83285C2DF711EF39C01571827F9D PUSH2 0x2E0 DUP3 ADD MSTORE PUSH1 0x20 DUP2 PUSH2 0x300 DUP4 PUSH1 0x8 GAS STATICCALL SWAP2 POP DUP1 MLOAD DUP3 AND SWAP2 POP POP DUP1 PUSH2 0x7A1 JUMPI PUSH1 0x40 MLOAD PUSH32 0x7FCDD1F400000000000000000000000000000000000000000000000000000000 DUP2 MSTORE PUSH1 0x4 ADD PUSH1 0x40 MLOAD DUP1 SWAP2 SUB SWAP1 REVERT JUMPDEST POP POP POP POP POP JUMP JUMPDEST PUSH2 0x7B0 PUSH2 0x21DF JUMP JUMPDEST PUSH0 PUSH0 PUSH2 0x7D2 DUP6 PUSH0 PUSH1 0x4 DUP2 LT PUSH2 0x7C8 JUMPI PUSH2 0x7C7 PUSH2 0x2748 JUMP JUMPDEST JUMPDEST PUSH1 0x20 MUL ADD CALLDATALOAD PUSH2 0x16EB JUMP JUMPDEST SWAP2 POP SWAP2 POP PUSH0 PUSH0 PUSH0 PUSH0 PUSH2 0x814 DUP10 PUSH1 0x2 PUSH1 0x4 DUP2 LT PUSH2 0x7F1 JUMPI PUSH2 0x7F0 PUSH2 0x2748 JUMP JUMPDEST JUMPDEST PUSH1 0x20 MUL ADD CALLDATALOAD DUP11 PUSH1 0x1 PUSH1 0x4 DUP2 LT PUSH2 0x80A JUMPI PUSH2 0x809 PUSH2 0x2748 JUMP JUMPDEST JUMPDEST PUSH1 0x20 MUL ADD CALLDATALOAD PUSH2 0x1820 JUMP JUMPDEST SWAP4 POP SWAP4 POP SWAP4 POP SWAP4 POP PUSH0 PUSH0 PUSH2 0x83F DUP12 PUSH1 0x3 PUSH1 0x4 DUP2 LT PUSH2 0x835 JUMPI PUSH2 0x834 PUSH2 0x2748 JUMP JUMPDEST JUMPDEST PUSH1 0x20 MUL ADD CALLDATALOAD PUSH2 0x16EB JUMP JUMPDEST SWAP2 POP SWAP2 POP PUSH0 PUSH0 PUSH2 0x84E DUP13 PUSH2 0x151A JUMP JUMPDEST SWAP2 POP SWAP2 POP DUP10 DUP12 PUSH0 PUSH1 0x18 DUP2 LT PUSH2 0x866 JUMPI PUSH2 0x865 PUSH2 0x2748 JUMP JUMPDEST JUMPDEST PUSH1 0x20 MUL ADD DUP2 DUP2 MSTORE POP POP DUP9 DUP12 PUSH1 0x1 PUSH1 0x18 DUP2 LT PUSH2 0x884 JUMPI PUSH2 0x883 PUSH2 0x2748 JUMP JUMPDEST JUMPDEST PUSH1 0x20 MUL ADD DUP2 DUP2 MSTORE POP POP DUP7 DUP12 PUSH1 0x2 PUSH1 0x18 DUP2 LT PUSH2 0x8A2 JUMPI PUSH2 0x8A1 PUSH2 0x2748 JUMP JUMPDEST JUMPDEST PUSH1 0x20 MUL ADD DUP2 DUP2 MSTORE POP POP DUP8 DUP12 PUSH1 0x3 PUSH1 0x18 DUP2 LT PUSH2 0x8C0 JUMPI PUSH2 0x8BF PUSH2 0x2748 JUMP JUMPDEST JUMPDEST PUSH1 0x20 MUL ADD DUP2 DUP2 MSTORE POP POP DUP5 DUP12 PUSH1 0x4 PUSH1 0x18 DUP2 LT PUSH2 0x8DE JUMPI PUSH2 0x8DD PUSH2 0x2748 JUMP JUMPDEST JUMPDEST PUSH1 0x20 MUL ADD DUP2 DUP2 MSTORE POP POP DUP6 DUP12 PUSH1 0x5 PUSH1 0x18 DUP2 LT PUSH2 0x8FC JUMPI PUSH2 0x8FB PUSH2 0x2748 JUMP JUMPDEST JUMPDEST PUSH1 0x20 MUL ADD DUP2 DUP2 MSTORE POP POP DUP4 DUP12 PUSH1 0x6 PUSH1 0x18 DUP2 LT PUSH2 0x91A JUMPI PUSH2 0x919 PUSH2 0x2748 JUMP JUMPDEST JUMPDEST PUSH1 0x20 MUL ADD DUP2 DUP2 MSTORE POP POP DUP3 DUP12 PUSH1 0x7 PUSH1 0x18 DUP2 LT PUSH2 0x938 JUMPI PUSH2 0x937 PUSH2 0x2748 JUMP JUMPDEST JUMPDEST PUSH1 0x20 MUL ADD DUP2 DUP2 MSTORE POP POP PUSH32 0x1CC7CB8DE715675F21F01ECC9B46D236E0865E0CC020024521998269845F74E6 DUP12 PUSH1 0x8 PUSH1 0x18 DUP2 LT PUSH2 0x976 JUMPI PUSH2 0x975 PUSH2 0x2748 JUMP JUMPDEST JUMPDEST PUSH1 0x20 MUL ADD DUP2 DUP2 MSTORE POP POP PUSH32 0x3FF41F4BA0C37FE2CAF27354D28E4B8F83D3B76777A63B327D736BFFB0122ED DUP12 PUSH1 0x9 PUSH1 0x18 DUP2 LT PUSH2 0x9B4 JUMPI PUSH2 0x9B3 PUSH2 0x2748 JUMP JUMPDEST JUMPDEST PUSH1 0x20 MUL ADD DUP2 DUP2 MSTORE POP POP PUSH32 0x1909CD7827E0278E6B60843A4ABC7B111D7F8B2725CD5902A6B20DA7A2938FB DUP12 PUSH1 0xA PUSH1 0x18 DUP2 LT PUSH2 0x9F2 JUMPI PUSH2 0x9F1 PUSH2 0x2748 JUMP JUMPDEST JUMPDEST PUSH1 0x20 MUL ADD DUP2 DUP2 MSTORE POP POP PUSH32 0x192BD3274441670227B4F69A44005B8711266E474227C6439CA25CA8E1EC1FC2 DUP12 PUSH1 0xB PUSH1 0x18 DUP2 LT PUSH2 0xA30 JUMPI PUSH2 0xA2F PUSH2 0x2748 JUMP JUMPDEST JUMPDEST PUSH1 0x20 MUL ADD DUP2 DUP2 MSTORE POP POP PUSH32 0x2D4D9AA7E302D9DF41749D5507949D05DBEA33FBB16C643B22F599A2BE6DF2E2 DUP12 PUSH1 0xC PUSH1 0x18 DUP2 LT PUSH2 0xA6E JUMPI PUSH2 0xA6D PUSH2 0x2748 JUMP JUMPDEST JUMPDEST PUSH1 0x20 MUL ADD DUP2 DUP2 MSTORE POP POP PUSH32 0x14BEDD503C37CEB061D8EC60209FE345CE89830A19230301F076CAFF004D1926 DUP12 PUSH1 0xD PUSH1 0x18 DUP2 LT PUSH2 0xAAC JUMPI PUSH2 0xAAB PUSH2 0x2748 JUMP JUMPDEST JUMPDEST PUSH1 0x20 MUL ADD DUP2 DUP2 MSTORE POP POP PUSH32 0x967032FCBF776D1AFC985F88877F182D38480A653F2DECAA9794CBC3BF3060C DUP12 PUSH1 0xE PUSH1 0x18 DUP2 LT PUSH2 0xAEA JUMPI PUSH2 0xAE9 PUSH2 0x2748 JUMP JUMPDEST JUMPDEST PUSH1 0x20 MUL ADD DUP2 DUP2 MSTORE POP POP PUSH32 0xE187847AD4C798374D0D6732BF501847DD68BC0E071241E0213BC7FC13DB7AB DUP12 PUSH1 0xF PUSH1 0x18 DUP2 LT PUSH2 0xB28 JUMPI PUSH2 0xB27 PUSH2 0x2748 JUMP JUMPDEST JUMPDEST PUSH1 0x20 MUL ADD DUP2 DUP2 MSTORE POP POP PUSH31 0x1752A100A72FDF1E5A5D6EA841CC20EC838BCCFCF7BD559E79F1C9C759B6A0 DUP12 PUSH1 0x10 PUSH1 0x18 DUP2 LT PUSH2 0xB65 JUMPI PUSH2 0xB64 PUSH2 0x2748 JUMP JUMPDEST JUMPDEST PUSH1 0x20 MUL ADD DUP2 DUP2 MSTORE POP POP PUSH32 0x192A8CC13CD9F762871F21E43451C6CA9EEAB2CB2987C4E366A185C25DAC2E7F DUP12 PUSH1 0x11 PUSH1 0x18 DUP2 LT PUSH2 0xBA3 JUMPI PUSH2 0xBA2 PUSH2 0x2748 JUMP JUMPDEST JUMPDEST PUSH1 0x20 MUL ADD DUP2 DUP2 MSTORE POP POP DUP2 DUP12 PUSH1 0x12 PUSH1 0x18 DUP2 LT PUSH2 0xBC1 JUMPI PUSH2 0xBC0 PUSH2 0x2748 JUMP JUMPDEST JUMPDEST PUSH1 0x20 MUL ADD DUP2 DUP2 MSTORE POP POP DUP1 DUP12 PUSH1 0x13 PUSH1 0x18 DUP2 LT PUSH2 0xBDF JUMPI PUSH2 0xBDE PUSH2 0x2748 JUMP JUMPDEST JUMPDEST PUSH1 0x20 MUL ADD DUP2 DUP2 MSTORE POP POP PUSH32 0x198E9393920D483A7260BFB731FB5D25F1AA493335A9E71297E485B7AEF312C2 DUP12 PUSH1 0x14 PUSH1 0x18 DUP2 LT PUSH2 0xC1D JUMPI PUSH2 0xC1C PUSH2 0x2748 JUMP JUMPDEST JUMPDEST PUSH1 0x20 MUL ADD DUP2 DUP2 MSTORE POP POP PUSH32 0x1800DEEF121F1E76426A00665E5C4479674322D4F75EDADD46DEBD5CD992F6ED DUP12 PUSH1 0x15 PUSH1 0x18 DUP2 LT PUSH2 0xC5B JUMPI PUSH2 0xC5A PUSH2 0x2748 JUMP JUMPDEST JUMPDEST PUSH1 0x20 MUL ADD DUP2 DUP2 MSTORE POP POP PUSH32 0x275DC4A288D1AFB3CBB1AC09187524C7DB36395DF7BE3B99E673B13A075A65EC DUP12 PUSH1 0x16 PUSH1 0x18 DUP2 LT PUSH2 0xC99 JUMPI PUSH2 0xC98 PUSH2 0x2748 JUMP JUMPDEST JUMPDEST PUSH1 0x20 MUL ADD DUP2 DUP2 MSTORE POP POP PUSH32 0x1D9BEFCD05A5323E6DA4D435F3B617CDB3AF83285C2DF711EF39C01571827F9D DUP12 PUSH1 0x17 PUSH1 0x18 DUP2 LT PUSH2 0xCD7 JUMPI PUSH2 0xCD6 PUSH2 0x2748 JUMP JUMPDEST JUMPDEST PUSH1 0x20 MUL ADD DUP2 DUP2 MSTORE POP POP PUSH0 PUSH2 0xCE9 PUSH2 0x2202 JUMP JUMPDEST PUSH1 0x20 DUP2 PUSH2 0x300 DUP16 PUSH1 0x8 GAS STATICCALL SWAP2 POP DUP2 ISZERO DUP1 PUSH2 0xD1B JUMPI POP PUSH1 0x1 DUP2 PUSH0 PUSH1 0x1 DUP2 LT PUSH2 0xD13 JUMPI PUSH2 0xD12 PUSH2 0x2748 JUMP JUMPDEST JUMPDEST PUSH1 0x20 MUL ADD MLOAD EQ ISZERO JUMPDEST ISZERO PUSH2 0xD52 JUMPI PUSH1 0x40 MLOAD PUSH32 0x7FCDD1F400000000000000000000000000000000000000000000000000000000 DUP2 MSTORE PUSH1 0x4 ADD PUSH1 0x40 MLOAD DUP1 SWAP2 SUB SWAP1 REVERT JUMPDEST POP POP POP POP POP POP POP POP POP POP POP POP POP POP POP JUMP JUMPDEST PUSH1 0x60 PUSH1 0x40 MLOAD DUP1 PUSH1 0x40 ADD PUSH1 0x40 MSTORE DUP1 PUSH1 0x6 DUP2 MSTORE PUSH1 0x20 ADD PUSH32 0x76352E302E300000000000000000000000000000000000000000000000000000 DUP2 MSTORE POP SWAP1 POP SWAP1 JUMP JUMPDEST PUSH0 PUSH32 0x30644E72E131A029B85045B68181585D97816A916871CA8D3C208C16D87CFD47 DUP4 LT ISZERO DUP1 PUSH2 0xDF0 JUMPI POP PUSH32 0x30644E72E131A029B85045B68181585D97816A916871CA8D3C208C16D87CFD47 DUP3 LT ISZERO JUMPDEST ISZERO PUSH2 0xE27 JUMPI PUSH1 0x40 MLOAD PUSH32 0x7FCDD1F400000000000000000000000000000000000000000000000000000000 DUP2 MSTORE PUSH1 0x4 ADD PUSH1 0x40 MLOAD DUP1 SWAP2 SUB SWAP1 REVERT JUMPDEST PUSH0 DUP4 EQ DUP1 ISZERO PUSH2 0xE35 JUMPI POP PUSH0 DUP3 EQ JUMPDEST ISZERO PUSH2 0xE42 JUMPI PUSH0 SWAP1 POP PUSH2 0xF48 JUMP JUMPDEST PUSH0 PUSH2 0xEE0 PUSH32 0x30644E72E131A029B85045B68181585D97816A916871CA8D3C208C16D87CFD47 DUP1 PUSH2 0xE75 JUMPI PUSH2 0xE74 PUSH2 0x2AAB JUMP JUMPDEST JUMPDEST PUSH1 0x3 PUSH32 0x30644E72E131A029B85045B68181585D97816A916871CA8D3C208C16D87CFD47 DUP1 PUSH2 0xEA6 JUMPI PUSH2 0xEA5 PUSH2 0x2AAB JUMP JUMPDEST JUMPDEST DUP8 PUSH32 0x30644E72E131A029B85045B68181585D97816A916871CA8D3C208C16D87CFD47 DUP1 PUSH2 0xED6 JUMPI PUSH2 0xED5 PUSH2 0x2AAB JUMP JUMPDEST JUMPDEST DUP10 DUP11 MULMOD MULMOD ADDMOD PUSH2 0x1BFB JUMP JUMPDEST SWAP1 POP DUP1 DUP4 SUB PUSH2 0xEF8 JUMPI PUSH0 PUSH1 0x1 DUP6 SWAP1 SHL OR SWAP2 POP POP PUSH2 0xF48 JUMP JUMPDEST PUSH2 0xF01 DUP2 PUSH2 0x1C97 JUMP JUMPDEST DUP4 SUB PUSH2 0xF16 JUMPI PUSH1 0x1 DUP1 DUP6 SWAP1 SHL OR SWAP2 POP POP PUSH2 0xF48 JUMP JUMPDEST PUSH1 0x40 MLOAD PUSH32 0x7FCDD1F400000000000000000000000000000000000000000000000000000000 DUP2 MSTORE PUSH1 0x4 ADD PUSH1 0x40 MLOAD DUP1 SWAP2 SUB SWAP1 REVERT JUMPDEST SWAP3 SWAP2 POP POP JUMP JUMPDEST PUSH0 PUSH0 PUSH32 0x30644E72E131A029B85045B68181585D97816A916871CA8D3C208C16D87CFD47 DUP7 LT ISZERO DUP1 PUSH2 0xF9F JUMPI POP PUSH32 0x30644E72E131A029B85045B68181585D97816A916871CA8D3C208C16D87CFD47 DUP6 LT ISZERO JUMPDEST DUP1 PUSH2 0xFCA JUMPI POP PUSH32 0x30644E72E131A029B85045B68181585D97816A916871CA8D3C208C16D87CFD47 DUP5 LT ISZERO JUMPDEST DUP1 PUSH2 0xFF5 JUMPI POP PUSH32 0x30644E72E131A029B85045B68181585D97816A916871CA8D3C208C16D87CFD47 DUP4 LT ISZERO JUMPDEST ISZERO PUSH2 0x102C JUMPI PUSH1 0x40 MLOAD PUSH32 0x7FCDD1F400000000000000000000000000000000000000000000000000000000 DUP2 MSTORE PUSH1 0x4 ADD PUSH1 0x40 MLOAD DUP1 SWAP2 SUB SWAP1 REVERT JUMPDEST PUSH0 DUP4 DUP6 DUP8 DUP10 OR OR OR SUB PUSH2 0x1044 JUMPI PUSH0 PUSH0 SWAP2 POP SWAP2 POP PUSH2 0x1511 JUMP JUMPDEST PUSH0 PUSH0 PUSH0 PUSH32 0x30644E72E131A029B85045B68181585D97816A916871CA8D3C208C16D87CFD47 DUP1 PUSH2 0x1076 JUMPI PUSH2 0x1075 PUSH2 0x2AAB JUMP JUMPDEST JUMPDEST PUSH1 0x3 PUSH32 0x30644E72E131A029B85045B68181585D97816A916871CA8D3C208C16D87CFD47 PUSH2 0x10A3 SWAP2 SWAP1 PUSH2 0x2B05 JUMP JUMPDEST PUSH32 0x30644E72E131A029B85045B68181585D97816A916871CA8D3C208C16D87CFD47 DUP1 PUSH2 0x10D2 JUMPI PUSH2 0x10D1 PUSH2 0x2AAB JUMP JUMPDEST JUMPDEST DUP11 DUP13 MULMOD MULMOD SWAP1 POP PUSH0 PUSH32 0x30644E72E131A029B85045B68181585D97816A916871CA8D3C208C16D87CFD47 DUP1 PUSH2 0x1108 JUMPI PUSH2 0x1107 PUSH2 0x2AAB JUMP JUMPDEST JUMPDEST DUP11 PUSH32 0x30644E72E131A029B85045B68181585D97816A916871CA8D3C208C16D87CFD47 DUP1 PUSH2 0x1138 JUMPI PUSH2 0x1137 PUSH2 0x2AAB JUMP JUMPDEST JUMPDEST DUP13 DUP14 MULMOD MULMOD SWAP1 POP PUSH0 PUSH32 0x30644E72E131A029B85045B68181585D97816A916871CA8D3C208C16D87CFD47 DUP1 PUSH2 0x116E JUMPI PUSH2 0x116D PUSH2 0x2AAB JUMP JUMPDEST JUMPDEST DUP11 PUSH32 0x30644E72E131A029B85045B68181585D97816A916871CA8D3C208C16D87CFD47 DUP1 PUSH2 0x119E JUMPI PUSH2 0x119D PUSH2 0x2AAB JUMP JUMPDEST JUMPDEST DUP13 DUP14 MULMOD MULMOD SWAP1 POP PUSH32 0x30644E72E131A029B85045B68181585D97816A916871CA8D3C208C16D87CFD47 DUP1 PUSH2 0x11D3 JUMPI PUSH2 0x11D2 PUSH2 0x2AAB JUMP JUMPDEST JUMPDEST PUSH32 0x30644E72E131A029B85045B68181585D97816A916871CA8D3C208C16D87CFD47 DUP1 PUSH2 0x1202 JUMPI PUSH2 0x1201 PUSH2 0x2AAB JUMP JUMPDEST JUMPDEST PUSH32 0x30644E72E131A029B85045B68181585D97816A916871CA8D3C208C16D87CFD47 DUP1 PUSH2 0x1231 JUMPI PUSH2 0x1230 PUSH2 0x2AAB JUMP JUMPDEST JUMPDEST DUP13 DUP7 MULMOD DUP5 ADDMOD PUSH32 0x2B149D40CEB8AAAE81BE18991BE06AC3B5B4C5E559DBEFA33267E6DC24A138E5 ADDMOD SWAP5 POP PUSH2 0x1316 PUSH32 0x30644E72E131A029B85045B68181585D97816A916871CA8D3C208C16D87CFD47 DUP1 PUSH2 0x128C JUMPI PUSH2 0x128B PUSH2 0x2AAB JUMP JUMPDEST JUMPDEST PUSH32 0x30644E72E131A029B85045B68181585D97816A916871CA8D3C208C16D87CFD47 DUP1 PUSH2 0x12BB JUMPI PUSH2 0x12BA PUSH2 0x2AAB JUMP JUMPDEST JUMPDEST PUSH32 0x30644E72E131A029B85045B68181585D97816A916871CA8D3C208C16D87CFD47 DUP1 PUSH2 0x12EA JUMPI PUSH2 0x12E9 PUSH2 0x2AAB JUMP JUMPDEST JUMPDEST DUP15 DUP8 MULMOD DUP5 ADDMOD PUSH32 0x2FCD3AC2A640A154EB23960892A85A68F031CA0C8344B23A577DCF1052B9E775 ADDMOD PUSH2 0x1C97 JUMP JUMPDEST SWAP4 POP POP POP POP PUSH0 PUSH0 PUSH2 0x13B9 PUSH32 0x30644E72E131A029B85045B68181585D97816A916871CA8D3C208C16D87CFD47 DUP1 PUSH2 0x134F JUMPI PUSH2 0x134E PUSH2 0x2AAB JUMP JUMPDEST JUMPDEST PUSH32 0x30644E72E131A029B85045B68181585D97816A916871CA8D3C208C16D87CFD47 DUP1 PUSH2 0x137E JUMPI PUSH2 0x137D PUSH2 0x2AAB JUMP JUMPDEST JUMPDEST DUP6 DUP7 MULMOD PUSH32 0x30644E72E131A029B85045B68181585D97816A916871CA8D3C208C16D87CFD47 DUP1 PUSH2 0x13B0 JUMPI PUSH2 0x13AF PUSH2 0x2AAB JUMP JUMPDEST JUMPDEST DUP8 DUP9 MULMOD ADDMOD PUSH2 0x1BFB JUMP JUMPDEST SWAP1 POP PUSH2 0x1446 PUSH32 0x30644E72E131A029B85045B68181585D97816A916871CA8D3C208C16D87CFD47 DUP1 PUSH2 0x13ED JUMPI PUSH2 0x13EC PUSH2 0x2AAB JUMP JUMPDEST JUMPDEST PUSH32 0x183227397098D014DC2822DB40C0AC2ECBC0B548B438E5469E10460B6C3E7EA4 PUSH32 0x30644E72E131A029B85045B68181585D97816A916871CA8D3C208C16D87CFD47 DUP1 PUSH2 0x143D JUMPI PUSH2 0x143C PUSH2 0x2AAB JUMP JUMPDEST JUMPDEST DUP5 DUP9 ADDMOD MULMOD PUSH2 0x1D02 JUMP JUMPDEST ISZERO SWAP2 POP POP PUSH2 0x1455 DUP4 DUP4 DUP4 PUSH2 0x1D6C JUMP JUMPDEST DUP1 SWAP4 POP DUP2 SWAP5 POP POP POP DUP3 DUP8 EQ DUP1 ISZERO PUSH2 0x146B JUMPI POP DUP2 DUP7 EQ JUMPDEST ISZERO PUSH2 0x1493 JUMPI PUSH0 DUP2 PUSH2 0x147C JUMPI PUSH0 PUSH2 0x147F JUMP JUMPDEST PUSH1 0x2 JUMPDEST PUSH1 0xFF AND PUSH1 0x2 DUP12 SWAP1 SHL OR OR SWAP5 POP DUP8 SWAP4 POP PUSH2 0x150D JUMP JUMPDEST PUSH2 0x149C DUP4 PUSH2 0x1C97 JUMP JUMPDEST DUP8 EQ DUP1 ISZERO PUSH2 0x14B1 JUMPI POP PUSH2 0x14AE DUP3 PUSH2 0x1C97 JUMP JUMPDEST DUP7 EQ JUMPDEST ISZERO PUSH2 0x14DA JUMPI PUSH1 0x1 DUP2 PUSH2 0x14C3 JUMPI PUSH0 PUSH2 0x14C6 JUMP JUMPDEST PUSH1 0x2 JUMPDEST PUSH1 0xFF AND PUSH1 0x2 DUP12 SWAP1 SHL OR OR SWAP5 POP DUP8 SWAP4 POP PUSH2 0x150C JUMP JUMPDEST PUSH1 0x40 MLOAD PUSH32 0x7FCDD1F400000000000000000000000000000000000000000000000000000000 DUP2 MSTORE PUSH1 0x4 ADD PUSH1 0x40 MLOAD DUP1 SWAP2 SUB SWAP1 REVERT JUMPDEST JUMPDEST POP POP POP JUMPDEST SWAP5 POP SWAP5 SWAP3 POP POP POP JUMP JUMPDEST PUSH0 PUSH0 PUSH0 PUSH1 0x1 SWAP1 POP PUSH1 0x40 MLOAD PUSH1 0x40 DUP2 ADD PUSH0 PUSH32 0x26091E1CAFB0AD8A4EA0A694CD3743EBF524779233DB734C451D28B58AA9758E DUP4 MSTORE PUSH31 0x9FF50A6B8B11C3CA6FDB2690A124F8CE25489FEFA65A3E782E7BA70B66690E PUSH1 0x20 DUP5 ADD MSTORE PUSH32 0x61C3FD0FD3DA25D2607C227D090CCA750ED36C6EC878755E537C1C48951FB4C DUP3 MSTORE PUSH32 0xFA17AE9C2033379DF7B5C65EFF0E107055E9A273E6119A212DD09EB51707219 PUSH1 0x20 DUP4 ADD MSTORE DUP7 CALLDATALOAD SWAP1 POP DUP1 PUSH1 0x40 DUP4 ADD MSTORE PUSH32 0x30644E72E131A029B85045B68181585D2833E84879B9709143E1F593F0000001 DUP2 LT DUP5 AND SWAP4 POP PUSH1 0x40 DUP3 PUSH1 0x60 DUP5 PUSH1 0x7 GAS STATICCALL DUP5 AND SWAP4 POP PUSH1 0x40 DUP4 PUSH1 0x80 DUP6 PUSH1 0x6 GAS STATICCALL DUP5 AND SWAP4 POP PUSH32 0x4EAB241388A79817FE0E0E2EAD0B2EC4FFDEC51A16028DEE020634FD129E71C DUP3 MSTORE PUSH32 0x7236256D21C60D02F0BDBF95CFF83E03EA9E16FCA56B18D5544B0889A65C1F5 PUSH1 0x20 DUP4 ADD MSTORE PUSH1 0x20 DUP8 ADD CALLDATALOAD SWAP1 POP DUP1 PUSH1 0x40 DUP4 ADD MSTORE PUSH32 0x30644E72E131A029B85045B68181585D2833E84879B9709143E1F593F0000001 DUP2 LT DUP5 AND SWAP4 POP PUSH1 0x40 DUP3 PUSH1 0x60 DUP5 PUSH1 0x7 GAS STATICCALL DUP5 AND SWAP4 POP PUSH1 0x40 DUP4 PUSH1 0x80 DUP6 PUSH1 0x6 GAS STATICCALL DUP5 AND SWAP4 POP DUP3 MLOAD SWAP6 POP PUSH1 0x20 DUP4 ADD MLOAD SWAP5 POP POP POP POP DUP1 PUSH2 0x16E5 JUMPI PUSH1 0x40 MLOAD PUSH32 0xA54F8E2700000000000000000000000000000000000000000000000000000000 DUP2 MSTORE PUSH1 0x4 ADD PUSH1 0x40 MLOAD DUP1 SWAP2 SUB SWAP1 REVERT JUMPDEST POP SWAP2 POP SWAP2 JUMP JUMPDEST PUSH0 PUSH0 PUSH0 DUP4 SUB PUSH2 0x16FF JUMPI PUSH0 PUSH0 SWAP2 POP SWAP2 POP PUSH2 0x181B JUMP JUMPDEST PUSH0 PUSH1 0x1 DUP1 DUP6 AND EQ SWAP1 POP PUSH1 0x1 DUP5 SWAP1 SHR SWAP3 POP PUSH32 0x30644E72E131A029B85045B68181585D97816A916871CA8D3C208C16D87CFD47 DUP4 LT PUSH2 0x1768 JUMPI PUSH1 0x40 MLOAD PUSH32 0x7FCDD1F400000000000000000000000000000000000000000000000000000000 DUP2 MSTORE PUSH1 0x4 ADD PUSH1 0x40 MLOAD DUP1 SWAP2 SUB SWAP1 REVERT JUMPDEST PUSH2 0x1805 PUSH32 0x30644E72E131A029B85045B68181585D97816A916871CA8D3C208C16D87CFD47 DUP1 PUSH2 0x179A JUMPI PUSH2 0x1799 PUSH2 0x2AAB JUMP JUMPDEST JUMPDEST PUSH1 0x3 PUSH32 0x30644E72E131A029B85045B68181585D97816A916871CA8D3C208C16D87CFD47 DUP1 PUSH2 0x17CB JUMPI PUSH2 0x17CA PUSH2 0x2AAB JUMP JUMPDEST JUMPDEST DUP7 PUSH32 0x30644E72E131A029B85045B68181585D97816A916871CA8D3C208C16D87CFD47 DUP1 PUSH2 0x17FB JUMPI PUSH2 0x17FA PUSH2 0x2AAB JUMP JUMPDEST JUMPDEST DUP9 DUP10 MULMOD MULMOD ADDMOD PUSH2 0x1BFB JUMP JUMPDEST SWAP2 POP DUP1 ISZERO PUSH2 0x1819 JUMPI PUSH2 0x1816 DUP3 PUSH2 0x1C97 JUMP JUMPDEST SWAP2 POP JUMPDEST POP JUMPDEST SWAP2 POP SWAP2 JUMP JUMPDEST PUSH0 PUSH0 PUSH0 PUSH0 PUSH0 DUP7 EQ DUP1 ISZERO PUSH2 0x1832 JUMPI POP PUSH0 DUP6 EQ JUMPDEST ISZERO PUSH2 0x1848 JUMPI PUSH0 PUSH0 PUSH0 PUSH0 SWAP4 POP SWAP4 POP SWAP4 POP SWAP4 POP PUSH2 0x1BF2 JUMP JUMPDEST PUSH0 PUSH1 0x1 DUP1 DUP9 AND EQ SWAP1 POP PUSH0 PUSH1 0x2 DUP1 DUP10 AND EQ SWAP1 POP PUSH1 0x2 DUP9 SWAP1 SHR SWAP6 POP DUP7 SWAP5 POP PUSH32 0x30644E72E131A029B85045B68181585D97816A916871CA8D3C208C16D87CFD47 DUP7 LT ISZERO DUP1 PUSH2 0x18B3 JUMPI POP PUSH32 0x30644E72E131A029B85045B68181585D97816A916871CA8D3C208C16D87CFD47 DUP6 LT ISZERO JUMPDEST ISZERO PUSH2 0x18EA JUMPI PUSH1 0x40 MLOAD PUSH32 0x7FCDD1F400000000000000000000000000000000000000000000000000000000 DUP2 MSTORE PUSH1 0x4 ADD PUSH1 0x40 MLOAD DUP1 SWAP2 SUB SWAP1 REVERT JUMPDEST PUSH0 PUSH32 0x30644E72E131A029B85045B68181585D97816A916871CA8D3C208C16D87CFD47 DUP1 PUSH2 0x191A JUMPI PUSH2 0x1919 PUSH2 0x2AAB JUMP JUMPDEST JUMPDEST PUSH1 0x3 PUSH32 0x30644E72E131A029B85045B68181585D97816A916871CA8D3C208C16D87CFD47 PUSH2 0x1947 SWAP2 SWAP1 PUSH2 0x2B05 JUMP JUMPDEST PUSH32 0x30644E72E131A029B85045B68181585D97816A916871CA8D3C208C16D87CFD47 DUP1 PUSH2 0x1976 JUMPI PUSH2 0x1975 PUSH2 0x2AAB JUMP JUMPDEST JUMPDEST DUP9 DUP11 MULMOD MULMOD SWAP1 POP PUSH0 PUSH32 0x30644E72E131A029B85045B68181585D97816A916871CA8D3C208C16D87CFD47 DUP1 PUSH2 0x19AC JUMPI PUSH2 0x19AB PUSH2 0x2AAB JUMP JUMPDEST JUMPDEST DUP9 PUSH32 0x30644E72E131A029B85045B68181585D97816A916871CA8D3C208C16D87CFD47 DUP1 PUSH2 0x19DC JUMPI PUSH2 0x19DB PUSH2 0x2AAB JUMP JUMPDEST JUMPDEST DUP11 DUP12 MULMOD MULMOD SWAP1 POP PUSH0 PUSH32 0x30644E72E131A029B85045B68181585D97816A916871CA8D3C208C16D87CFD47 DUP1 PUSH2 0x1A12 JUMPI PUSH2 0x1A11 PUSH2 0x2AAB JUMP JUMPDEST JUMPDEST DUP9 PUSH32 0x30644E72E131A029B85045B68181585D97816A916871CA8D3C208C16D87CFD47 DUP1 PUSH2 0x1A42 JUMPI PUSH2 0x1A41 PUSH2 0x2AAB JUMP JUMPDEST JUMPDEST DUP11 DUP12 MULMOD MULMOD SWAP1 POP PUSH32 0x30644E72E131A029B85045B68181585D97816A916871CA8D3C208C16D87CFD47 DUP1 PUSH2 0x1A77 JUMPI PUSH2 0x1A76 PUSH2 0x2AAB JUMP JUMPDEST JUMPDEST PUSH32 0x30644E72E131A029B85045B68181585D97816A916871CA8D3C208C16D87CFD47 DUP1 PUSH2 0x1AA6 JUMPI PUSH2 0x1AA5 PUSH2 0x2AAB JUMP JUMPDEST JUMPDEST PUSH32 0x30644E72E131A029B85045B68181585D97816A916871CA8D3C208C16D87CFD47 DUP1 PUSH2 0x1AD5 JUMPI PUSH2 0x1AD4 PUSH2 0x2AAB JUMP JUMPDEST JUMPDEST DUP11 DUP7 MULMOD DUP5 ADDMOD PUSH32 0x2B149D40CEB8AAAE81BE18991BE06AC3B5B4C5E559DBEFA33267E6DC24A138E5 ADDMOD SWAP7 POP PUSH2 0x1BBA PUSH32 0x30644E72E131A029B85045B68181585D97816A916871CA8D3C208C16D87CFD47 DUP1 PUSH2 0x1B30 JUMPI PUSH2 0x1B2F PUSH2 0x2AAB JUMP JUMPDEST JUMPDEST PUSH32 0x30644E72E131A029B85045B68181585D97816A916871CA8D3C208C16D87CFD47 DUP1 PUSH2 0x1B5F JUMPI PUSH2 0x1B5E PUSH2 0x2AAB JUMP JUMPDEST JUMPDEST PUSH32 0x30644E72E131A029B85045B68181585D97816A916871CA8D3C208C16D87CFD47 DUP1 PUSH2 0x1B8E JUMPI PUSH2 0x1B8D PUSH2 0x2AAB JUMP JUMPDEST JUMPDEST DUP13 DUP8 MULMOD DUP5 ADDMOD PUSH32 0x2FCD3AC2A640A154EB23960892A85A68F031CA0C8344B23A577DCF1052B9E775 ADDMOD PUSH2 0x1C97 JUMP JUMPDEST SWAP6 POP PUSH2 0x1BC7 DUP8 DUP8 DUP7 PUSH2 0x1D6C JUMP JUMPDEST DUP1 SWAP8 POP DUP2 SWAP9 POP POP POP DUP5 ISZERO PUSH2 0x1BEC JUMPI PUSH2 0x1BDE DUP8 PUSH2 0x1C97 JUMP JUMPDEST SWAP7 POP PUSH2 0x1BE9 DUP7 PUSH2 0x1C97 JUMP JUMPDEST SWAP6 POP JUMPDEST POP POP POP POP POP JUMPDEST SWAP3 SWAP6 SWAP2 SWAP5 POP SWAP3 POP JUMP JUMPDEST PUSH0 PUSH2 0x1C26 DUP3 PUSH32 0xC19139CB84C680A6E14116DA060561765E05AA45A1C72A34F082305B61F3F52 PUSH2 0x2067 JUMP JUMPDEST SWAP1 POP DUP2 PUSH32 0x30644E72E131A029B85045B68181585D97816A916871CA8D3C208C16D87CFD47 DUP1 PUSH2 0x1C58 JUMPI PUSH2 0x1C57 PUSH2 0x2AAB JUMP JUMPDEST JUMPDEST DUP3 DUP4 MULMOD EQ PUSH2 0x1C92 JUMPI PUSH1 0x40 MLOAD PUSH32 0x7FCDD1F400000000000000000000000000000000000000000000000000000000 DUP2 MSTORE PUSH1 0x4 ADD PUSH1 0x40 MLOAD DUP1 SWAP2 SUB SWAP1 REVERT JUMPDEST SWAP2 SWAP1 POP JUMP JUMPDEST PUSH0 PUSH32 0x30644E72E131A029B85045B68181585D97816A916871CA8D3C208C16D87CFD47 DUP1 DUP4 DUP2 PUSH2 0x1CC9 JUMPI PUSH2 0x1CC8 PUSH2 0x2AAB JUMP JUMPDEST JUMPDEST MOD PUSH32 0x30644E72E131A029B85045B68181585D97816A916871CA8D3C208C16D87CFD47 SUB DUP2 PUSH2 0x1CFA JUMPI PUSH2 0x1CF9 PUSH2 0x2AAB JUMP JUMPDEST JUMPDEST MOD SWAP1 POP SWAP2 SWAP1 POP JUMP JUMPDEST PUSH0 PUSH0 PUSH2 0x1D2E DUP4 PUSH32 0xC19139CB84C680A6E14116DA060561765E05AA45A1C72A34F082305B61F3F52 PUSH2 0x2067 JUMP JUMPDEST SWAP1 POP DUP3 PUSH32 0x30644E72E131A029B85045B68181585D97816A916871CA8D3C208C16D87CFD47 DUP1 PUSH2 0x1D60 JUMPI PUSH2 0x1D5F PUSH2 0x2AAB JUMP JUMPDEST JUMPDEST DUP3 DUP4 MULMOD EQ SWAP2 POP POP SWAP2 SWAP1 POP JUMP JUMPDEST PUSH0 PUSH0 PUSH0 PUSH2 0x1E0B PUSH32 0x30644E72E131A029B85045B68181585D97816A916871CA8D3C208C16D87CFD47 DUP1 PUSH2 0x1DA1 JUMPI PUSH2 0x1DA0 PUSH2 0x2AAB JUMP JUMPDEST JUMPDEST PUSH32 0x30644E72E131A029B85045B68181585D97816A916871CA8D3C208C16D87CFD47 DUP1 PUSH2 0x1DD0 JUMPI PUSH2 0x1DCF PUSH2 0x2AAB JUMP JUMPDEST JUMPDEST DUP8 DUP9 MULMOD PUSH32 0x30644E72E131A029B85045B68181585D97816A916871CA8D3C208C16D87CFD47 DUP1 PUSH2 0x1E02 JUMPI PUSH2 0x1E01 PUSH2 0x2AAB JUMP JUMPDEST JUMPDEST DUP10 DUP11 MULMOD ADDMOD PUSH2 0x1BFB JUMP JUMPDEST SWAP1 POP DUP4 ISZERO PUSH2 0x1E1F JUMPI PUSH2 0x1E1C DUP2 PUSH2 0x1C97 JUMP JUMPDEST SWAP1 POP JUMPDEST PUSH2 0x1EAA PUSH32 0x30644E72E131A029B85045B68181585D97816A916871CA8D3C208C16D87CFD47 DUP1 PUSH2 0x1E51 JUMPI PUSH2 0x1E50 PUSH2 0x2AAB JUMP JUMPDEST JUMPDEST PUSH32 0x183227397098D014DC2822DB40C0AC2ECBC0B548B438E5469E10460B6C3E7EA4 PUSH32 0x30644E72E131A029B85045B68181585D97816A916871CA8D3C208C16D87CFD47 DUP1 PUSH2 0x1EA1 JUMPI PUSH2 0x1EA0 PUSH2 0x2AAB JUMP JUMPDEST JUMPDEST DUP5 DUP11 ADDMOD MULMOD PUSH2 0x1BFB JUMP JUMPDEST SWAP3 POP PUSH32 0x30644E72E131A029B85045B68181585D97816A916871CA8D3C208C16D87CFD47 DUP1 PUSH2 0x1EDB JUMPI PUSH2 0x1EDA PUSH2 0x2AAB JUMP JUMPDEST JUMPDEST PUSH2 0x1F16 PUSH32 0x30644E72E131A029B85045B68181585D97816A916871CA8D3C208C16D87CFD47 DUP1 PUSH2 0x1F0D JUMPI PUSH2 0x1F0C PUSH2 0x2AAB JUMP JUMPDEST JUMPDEST PUSH1 0x2 DUP7 MULMOD PUSH2 0x20FE JUMP JUMPDEST DUP7 MULMOD SWAP2 POP PUSH32 0x30644E72E131A029B85045B68181585D97816A916871CA8D3C208C16D87CFD47 DUP1 PUSH2 0x1F49 JUMPI PUSH2 0x1F48 PUSH2 0x2AAB JUMP JUMPDEST JUMPDEST PUSH2 0x1F83 PUSH32 0x30644E72E131A029B85045B68181585D97816A916871CA8D3C208C16D87CFD47 DUP1 PUSH2 0x1F7B JUMPI PUSH2 0x1F7A PUSH2 0x2AAB JUMP JUMPDEST JUMPDEST DUP5 DUP6 MULMOD PUSH2 0x1C97 JUMP JUMPDEST PUSH32 0x30644E72E131A029B85045B68181585D97816A916871CA8D3C208C16D87CFD47 DUP1 PUSH2 0x1FB2 JUMPI PUSH2 0x1FB1 PUSH2 0x2AAB JUMP JUMPDEST JUMPDEST DUP6 DUP7 MULMOD ADDMOD DUP7 EQ ISZERO DUP1 PUSH2 0x2027 JUMPI POP PUSH32 0x30644E72E131A029B85045B68181585D97816A916871CA8D3C208C16D87CFD47 DUP1 PUSH2 0x1FEE JUMPI PUSH2 0x1FED PUSH2 0x2AAB JUMP JUMPDEST JUMPDEST PUSH32 0x30644E72E131A029B85045B68181585D97816A916871CA8D3C208C16D87CFD47 DUP1 PUSH2 0x201D JUMPI PUSH2 0x201C PUSH2 0x2AAB JUMP JUMPDEST JUMPDEST DUP4 DUP6 MULMOD PUSH1 0x2 MULMOD DUP6 EQ ISZERO JUMPDEST ISZERO PUSH2 0x205E JUMPI PUSH1 0x40 MLOAD PUSH32 0x7FCDD1F400000000000000000000000000000000000000000000000000000000 DUP2 MSTORE PUSH1 0x4 ADD PUSH1 0x40 MLOAD DUP1 SWAP2 SUB SWAP1 REVERT JUMPDEST POP SWAP4 POP SWAP4 SWAP2 POP POP JUMP JUMPDEST PUSH0 PUSH0 PUSH1 0x40 MLOAD PUSH1 0x20 DUP2 MSTORE PUSH1 0x20 DUP1 DUP3 ADD MSTORE PUSH1 0x20 PUSH1 0x40 DUP3 ADD MSTORE DUP5 PUSH1 0x60 DUP3 ADD MSTORE DUP4 PUSH1 0x80 DUP3 ADD MSTORE PUSH32 0x30644E72E131A029B85045B68181585D97816A916871CA8D3C208C16D87CFD47 PUSH1 0xA0 DUP3 ADD MSTORE PUSH1 0x20 DUP2 PUSH1 0xC0 DUP4 PUSH1 0x5 GAS STATICCALL SWAP2 POP DUP1 MLOAD SWAP3 POP POP DUP1 PUSH2 0x20F7 JUMPI PUSH1 0x40 MLOAD PUSH32 0x7FCDD1F400000000000000000000000000000000000000000000000000000000 DUP2 MSTORE PUSH1 0x4 ADD PUSH1 0x40 MLOAD DUP1 SWAP2 SUB SWAP1 REVERT JUMPDEST POP SWAP3 SWAP2 POP POP JUMP JUMPDEST PUSH0 PUSH2 0x2129 DUP3 PUSH32 0x30644E72E131A029B85045B68181585D97816A916871CA8D3C208C16D87CFD45 PUSH2 0x2067 JUMP JUMPDEST SWAP1 POP PUSH1 0x1 PUSH32 0x30644E72E131A029B85045B68181585D97816A916871CA8D3C208C16D87CFD47 DUP1 PUSH2 0x215C JUMPI PUSH2 0x215B PUSH2 0x2AAB JUMP JUMPDEST JUMPDEST DUP3 DUP5 MULMOD EQ PUSH2 0x2196 JUMPI PUSH1 0x40 MLOAD PUSH32 0x7FCDD1F400000000000000000000000000000000000000000000000000000000 DUP2 MSTORE PUSH1 0x4 ADD PUSH1 0x40 MLOAD DUP1 SWAP2 SUB SWAP1 REVERT JUMPDEST SWAP2 SWAP1 POP JUMP JUMPDEST PUSH1 0x40 MLOAD DUP1 PUSH1 0x40 ADD PUSH1 0x40 MSTORE DUP1 PUSH1 0x2 SWAP1 PUSH1 0x20 DUP3 MUL DUP1 CALLDATASIZE DUP4 CALLDATACOPY DUP1 DUP3 ADD SWAP2 POP POP SWAP1 POP POP SWAP1 JUMP JUMPDEST PUSH1 0x40 MLOAD DUP1 PUSH1 0x80 ADD PUSH1 0x40 MSTORE DUP1 PUSH1 0x4 SWAP1 PUSH1 0x20 DUP3 MUL DUP1 CALLDATASIZE DUP4 CALLDATACOPY DUP1 DUP3 ADD SWAP2 POP POP SWAP1 POP POP SWAP1 JUMP JUMPDEST PUSH1 0x40 MLOAD DUP1 PUSH2 0x300 ADD PUSH1 0x40 MSTORE DUP1 PUSH1 0x18 SWAP1 PUSH1 0x20 DUP3 MUL DUP1 CALLDATASIZE DUP4 CALLDATACOPY DUP1 DUP3 ADD SWAP2 POP POP SWAP1 POP POP SWAP1 JUMP JUMPDEST PUSH1 0x40 MLOAD DUP1 PUSH1 0x20 ADD PUSH1 0x40 MSTORE DUP1 PUSH1 0x1 SWAP1 PUSH1 0x20 DUP3 MUL DUP1 CALLDATASIZE DUP4 CALLDATACOPY DUP1 DUP3 ADD SWAP2 POP POP SWAP1 POP POP SWAP1 JUMP JUMPDEST PUSH0 DUP2 SWAP1 POP SWAP2 SWAP1 POP JUMP JUMPDEST PUSH2 0x2236 DUP2 PUSH2 0x2224 JUMP JUMPDEST DUP3 MSTORE POP POP JUMP JUMPDEST PUSH0 PUSH1 0x20 DUP3 ADD SWAP1 POP PUSH2 0x224F PUSH0 DUP4 ADD DUP5 PUSH2 0x222D JUMP JUMPDEST SWAP3 SWAP2 POP POP JUMP JUMPDEST PUSH0 PUSH1 0x40 MLOAD SWAP1 POP SWAP1 JUMP JUMPDEST PUSH0 PUSH0 REVERT JUMPDEST PUSH0 PUSH0 REVERT JUMPDEST PUSH2 0x226F DUP2 PUSH2 0x2224 JUMP JUMPDEST DUP2 EQ PUSH2 0x2279 JUMPI PUSH0 PUSH0 REVERT JUMPDEST POP JUMP JUMPDEST PUSH0 DUP2 CALLDATALOAD SWAP1 POP PUSH2 0x228A DUP2 PUSH2 0x2266 JUMP JUMPDEST SWAP3 SWAP2 POP POP JUMP JUMPDEST PUSH0 PUSH0 REVERT JUMPDEST PUSH0 PUSH0 REVERT JUMPDEST PUSH0 PUSH0 REVERT JUMPDEST PUSH0 PUSH0 DUP4 PUSH1 0x1F DUP5 ADD SLT PUSH2 0x22B1 JUMPI PUSH2 0x22B0 PUSH2 0x2290 JUMP JUMPDEST JUMPDEST DUP3 CALLDATALOAD SWAP1 POP PUSH8 0xFFFFFFFFFFFFFFFF DUP2 GT ISZERO PUSH2 0x22CE JUMPI PUSH2 0x22CD PUSH2 0x2294 JUMP JUMPDEST JUMPDEST PUSH1 0x20 DUP4 ADD SWAP2 POP DUP4 PUSH1 0x1 DUP3 MUL DUP4 ADD GT ISZERO PUSH2 0x22EA JUMPI PUSH2 0x22E9 PUSH2 0x2298 JUMP JUMPDEST JUMPDEST SWAP3 POP SWAP3 SWAP1 POP JUMP JUMPDEST PUSH0 PUSH0 PUSH0 PUSH0 PUSH0 PUSH1 0x60 DUP7 DUP9 SUB SLT ISZERO PUSH2 0x230A JUMPI PUSH2 0x2309 PUSH2 0x225E JUMP JUMPDEST JUMPDEST PUSH0 PUSH2 0x2317 DUP9 DUP3 DUP10 ADD PUSH2 0x227C JUMP JUMPDEST SWAP6 POP POP PUSH1 0x20 DUP7 ADD CALLDATALOAD PUSH8 0xFFFFFFFFFFFFFFFF DUP2 GT ISZERO PUSH2 0x2338 JUMPI PUSH2 0x2337 PUSH2 0x2262 JUMP JUMPDEST JUMPDEST PUSH2 0x2344 DUP9 DUP3 DUP10 ADD PUSH2 0x229C JUMP JUMPDEST SWAP5 POP SWAP5 POP POP PUSH1 0x40 DUP7 ADD CALLDATALOAD PUSH8 0xFFFFFFFFFFFFFFFF DUP2 GT ISZERO PUSH2 0x2367 JUMPI PUSH2 0x2366 PUSH2 0x2262 JUMP JUMPDEST JUMPDEST PUSH2 0x2373 DUP9 DUP3 DUP10 ADD PUSH2 0x229C JUMP JUMPDEST SWAP3 POP SWAP3 POP POP SWAP3 SWAP6 POP SWAP3 SWAP6 SWAP1 SWAP4 POP JUMP JUMPDEST PUSH0 DUP2 SWAP1 POP DUP3 PUSH1 0x20 PUSH1 0x8 MUL DUP3 ADD GT ISZERO PUSH2 0x239D JUMPI PUSH2 0x239C PUSH2 0x2298 JUMP JUMPDEST JUMPDEST SWAP3 SWAP2 POP POP JUMP JUMPDEST PUSH0 PUSH2 0x100 DUP3 DUP5 SUB SLT ISZERO PUSH2 0x23B9 JUMPI PUSH2 0x23B8 PUSH2 0x225E JUMP JUMPDEST JUMPDEST PUSH0 PUSH2 0x23C6 DUP5 DUP3 DUP6 ADD PUSH2 0x2382 JUMP JUMPDEST SWAP2 POP POP SWAP3 SWAP2 POP POP JUMP JUMPDEST PUSH0 PUSH1 0x4 SWAP1 POP SWAP2 SWAP1 POP JUMP JUMPDEST PUSH0 DUP2 SWAP1 POP SWAP3 SWAP2 POP POP JUMP JUMPDEST PUSH0 DUP2 SWAP1 POP SWAP2 SWAP1 POP JUMP JUMPDEST PUSH0 DUP2 SWAP1 POP SWAP2 SWAP1 POP JUMP JUMPDEST PUSH2 0x23FE DUP2 PUSH2 0x23EC JUMP JUMPDEST DUP3 MSTORE POP POP JUMP JUMPDEST PUSH0 PUSH2 0x240F DUP4 DUP4 PUSH2 0x23F5 JUMP JUMPDEST PUSH1 0x20 DUP4 ADD SWAP1 POP SWAP3 SWAP2 POP POP JUMP JUMPDEST PUSH0 PUSH1 0x20 DUP3 ADD SWAP1 POP SWAP2 SWAP1 POP JUMP JUMPDEST PUSH2 0x2430 DUP2 PUSH2 0x23CF JUMP JUMPDEST PUSH2 0x243A DUP2 DUP5 PUSH2 0x23D9 JUMP JUMPDEST SWAP3 POP PUSH2 0x2445 DUP3 PUSH2 0x23E3 JUMP JUMPDEST DUP1 PUSH0 JUMPDEST DUP4 DUP2 LT ISZERO PUSH2 0x2475 JUMPI DUP2 MLOAD PUSH2 0x245C DUP8 DUP3 PUSH2 0x2404 JUMP JUMPDEST SWAP7 POP PUSH2 0x2467 DUP4 PUSH2 0x241B JUMP JUMPDEST SWAP3 POP POP PUSH1 0x1 DUP2 ADD SWAP1 POP PUSH2 0x2448 JUMP JUMPDEST POP POP POP POP POP POP JUMP JUMPDEST PUSH0 PUSH1 0x80 DUP3 ADD SWAP1 POP PUSH2 0x2490 PUSH0 DUP4 ADD DUP5 PUSH2 0x2427 JUMP JUMPDEST SWAP3 SWAP2 POP POP JUMP JUMPDEST PUSH0 PUSH0 PUSH1 0x20 DUP4 DUP6 SUB SLT ISZERO PUSH2 0x24AC JUMPI PUSH2 0x24AB PUSH2 0x225E JUMP JUMPDEST JUMPDEST PUSH0 DUP4 ADD CALLDATALOAD PUSH8 0xFFFFFFFFFFFFFFFF DUP2 GT ISZERO PUSH2 0x24C9 JUMPI PUSH2 0x24C8 PUSH2 0x2262 JUMP JUMPDEST JUMPDEST PUSH2 0x24D5 DUP6 DUP3 DUP7 ADD PUSH2 0x229C JUMP JUMPDEST SWAP3 POP SWAP3 POP POP SWAP3 POP SWAP3 SWAP1 POP JUMP JUMPDEST PUSH0 DUP2 SWAP1 POP DUP3 PUSH1 0x20 PUSH1 0x2 MUL DUP3 ADD GT ISZERO PUSH2 0x24FC JUMPI PUSH2 0x24FB PUSH2 0x2298 JUMP JUMPDEST JUMPDEST SWAP3 SWAP2 POP POP JUMP JUMPDEST PUSH0 PUSH0 PUSH2 0x140 DUP4 DUP6 SUB SLT ISZERO PUSH2 0x2519 JUMPI PUSH2 0x2518 PUSH2 0x225E JUMP JUMPDEST JUMPDEST PUSH0 PUSH2 0x2526 DUP6 DUP3 DUP7 ADD PUSH2 0x2382 JUMP JUMPDEST SWAP3 POP POP PUSH2 0x100 PUSH2 0x2538 DUP6 DUP3 DUP7 ADD PUSH2 0x24E1 JUMP JUMPDEST SWAP2 POP POP SWAP3 POP SWAP3 SWAP1 POP JUMP JUMPDEST PUSH0 DUP2 SWAP1 POP DUP3 PUSH1 0x20 PUSH1 0x4 MUL DUP3 ADD GT ISZERO PUSH2 0x255D JUMPI PUSH2 0x255C PUSH2 0x2298 JUMP JUMPDEST JUMPDEST SWAP3 SWAP2 POP POP JUMP JUMPDEST PUSH0 PUSH0 PUSH1 0xC0 DUP4 DUP6 SUB SLT ISZERO PUSH2 0x2579 JUMPI PUSH2 0x2578 PUSH2 0x225E JUMP JUMPDEST JUMPDEST PUSH0 PUSH2 0x2586 DUP6 DUP3 DUP7 ADD PUSH2 0x2542 JUMP JUMPDEST SWAP3 POP POP PUSH1 0x80 PUSH2 0x2597 DUP6 DUP3 DUP7 ADD PUSH2 0x24E1 JUMP JUMPDEST SWAP2 POP POP SWAP3 POP SWAP3 SWAP1 POP JUMP JUMPDEST PUSH0 DUP2 MLOAD SWAP1 POP SWAP2 SWAP1 POP JUMP JUMPDEST PUSH0 DUP3 DUP3 MSTORE PUSH1 0x20 DUP3 ADD SWAP1 POP SWAP3 SWAP2 POP POP JUMP JUMPDEST DUP3 DUP2 DUP4 MCOPY PUSH0 DUP4 DUP4 ADD MSTORE POP POP POP JUMP JUMPDEST PUSH0 PUSH1 0x1F NOT PUSH1 0x1F DUP4 ADD AND SWAP1 POP SWAP2 SWAP1 POP JUMP JUMPDEST PUSH0 PUSH2 0x25E3 DUP3 PUSH2 0x25A1 JUMP JUMPDEST PUSH2 0x25ED DUP2 DUP6 PUSH2 0x25AB JUMP JUMPDEST SWAP4 POP PUSH2 0x25FD DUP2 DUP6 PUSH1 0x20 DUP7 ADD PUSH2 0x25BB JUMP JUMPDEST PUSH2 0x2606 DUP2 PUSH2 0x25C9 JUMP JUMPDEST DUP5 ADD SWAP2 POP POP SWAP3 SWAP2 POP POP JUMP JUMPDEST PUSH0 PUSH1 0x20 DUP3 ADD SWAP1 POP DUP2 DUP2 SUB PUSH0 DUP4 ADD MSTORE PUSH2 0x2629 DUP2 DUP5 PUSH2 0x25D9 JUMP JUMPDEST SWAP1 POP SWAP3 SWAP2 POP POP JUMP JUMPDEST PUSH0 PUSH0 REVERT JUMPDEST PUSH0 PUSH0 REVERT JUMPDEST PUSH0 PUSH0 DUP6 DUP6 GT ISZERO PUSH2 0x264C JUMPI PUSH2 0x264B PUSH2 0x2631 JUMP JUMPDEST JUMPDEST DUP4 DUP7 GT ISZERO PUSH2 0x265D JUMPI PUSH2 0x265C PUSH2 0x2635 JUMP JUMPDEST JUMPDEST PUSH1 0x1 DUP6 MUL DUP4 ADD SWAP2 POP DUP5 DUP7 SUB SWAP1 POP SWAP5 POP SWAP5 SWAP3 POP POP POP JUMP JUMPDEST PUSH0 DUP3 SWAP1 POP SWAP3 SWAP2 POP POP JUMP JUMPDEST PUSH0 PUSH32 0xFFFFFFFF00000000000000000000000000000000000000000000000000000000 DUP3 AND SWAP1 POP SWAP2 SWAP1 POP JUMP JUMPDEST PUSH0 DUP3 DUP3 SHL SWAP1 POP SWAP3 SWAP2 POP POP JUMP JUMPDEST PUSH0 PUSH2 0x26BF DUP4 DUP4 PUSH2 0x2673 JUMP JUMPDEST DUP3 PUSH2 0x26CA DUP2 CALLDATALOAD PUSH2 0x267D JUMP JUMPDEST SWAP3 POP PUSH1 0x4 DUP3 LT ISZERO PUSH2 0x270A JUMPI PUSH2 0x2705 PUSH32 0xFFFFFFFF00000000000000000000000000000000000000000000000000000000 DUP4 PUSH1 0x4 SUB PUSH1 0x8 MUL PUSH2 0x26A8 JUMP JUMPDEST DUP4 AND SWAP3 POP JUMPDEST POP POP SWAP3 SWAP2 POP POP JUMP JUMPDEST PUSH2 0x271B DUP2 PUSH2 0x267D JUMP JUMPDEST DUP3 MSTORE POP POP JUMP JUMPDEST PUSH0 PUSH1 0x40 DUP3 ADD SWAP1 POP PUSH2 0x2734 PUSH0 DUP4 ADD DUP6 PUSH2 0x2712 JUMP JUMPDEST PUSH2 0x2741 PUSH1 0x20 DUP4 ADD DUP5 PUSH2 0x2712 JUMP JUMPDEST SWAP4 SWAP3 POP POP POP JUMP JUMPDEST PUSH32 0x4E487B7100000000000000000000000000000000000000000000000000000000 PUSH0 MSTORE PUSH1 0x32 PUSH1 0x4 MSTORE PUSH1 0x24 PUSH0 REVERT JUMPDEST PUSH32 0x4E487B7100000000000000000000000000000000000000000000000000000000 PUSH0 MSTORE PUSH1 0x41 PUSH1 0x4 MSTORE PUSH1 0x24 PUSH0 REVERT JUMPDEST PUSH2 0x27AB DUP3 PUSH2 0x25C9 JUMP JUMPDEST DUP2 ADD DUP2 DUP2 LT PUSH8 0xFFFFFFFFFFFFFFFF DUP3 GT OR ISZERO PUSH2 0x27CA JUMPI PUSH2 0x27C9 PUSH2 0x2775 JUMP JUMPDEST JUMPDEST DUP1 PUSH1 0x40 MSTORE POP POP POP JUMP JUMPDEST PUSH0 PUSH2 0x27DC PUSH2 0x2255 JUMP JUMPDEST SWAP1 POP PUSH2 0x27E8 DUP3 DUP3 PUSH2 0x27A2 JUMP JUMPDEST SWAP2 SWAP1 POP JUMP JUMPDEST PUSH0 PUSH8 0xFFFFFFFFFFFFFFFF DUP3 GT ISZERO PUSH2 0x2807 JUMPI PUSH2 0x2806 PUSH2 0x2775 JUMP JUMPDEST JUMPDEST PUSH1 0x20 DUP3 MUL SWAP1 POP SWAP2 SWAP1 POP JUMP JUMPDEST PUSH2 0x281B DUP2 PUSH2 0x23EC JUMP JUMPDEST DUP2 EQ PUSH2 0x2825 JUMPI PUSH0 PUSH0 REVERT JUMPDEST POP JUMP JUMPDEST PUSH0 DUP2 CALLDATALOAD SWAP1 POP PUSH2 0x2836 DUP2 PUSH2 0x2812 JUMP JUMPDEST SWAP3 SWAP2 POP POP JUMP JUMPDEST PUSH0 PUSH2 0x284E PUSH2 0x2849 DUP5 PUSH2 0x27ED JUMP JUMPDEST PUSH2 0x27D3 JUMP JUMPDEST SWAP1 POP DUP1 PUSH1 0x20 DUP5 MUL DUP4 ADD DUP6 DUP2 GT ISZERO PUSH2 0x2868 JUMPI PUSH2 0x2867 PUSH2 0x2298 JUMP JUMPDEST JUMPDEST DUP4 JUMPDEST DUP2 DUP2 LT ISZERO PUSH2 0x2891 JUMPI DUP1 PUSH2 0x287D DUP9 DUP3 PUSH2 0x2828 JUMP JUMPDEST DUP5 MSTORE PUSH1 0x20 DUP5 ADD SWAP4 POP POP PUSH1 0x20 DUP2 ADD SWAP1 POP PUSH2 0x286A JUMP JUMPDEST POP POP POP SWAP4 SWAP3 POP POP POP JUMP JUMPDEST PUSH0 DUP3 PUSH1 0x1F DUP4 ADD SLT PUSH2 0x28AF JUMPI PUSH2 0x28AE PUSH2 0x2290 JUMP JUMPDEST JUMPDEST PUSH1 0x8 PUSH2 0x28BC DUP5 DUP3 DUP6 PUSH2 0x283C JUMP JUMPDEST SWAP2 POP POP SWAP3 SWAP2 POP POP JUMP JUMPDEST PUSH0 PUSH2 0x100 DUP3 DUP5 SUB SLT ISZERO PUSH2 0x28DB JUMPI PUSH2 0x28DA PUSH2 0x225E JUMP JUMPDEST JUMPDEST PUSH0 PUSH2 0x28E8 DUP5 DUP3 DUP6 ADD PUSH2 0x289B JUMP JUMPDEST SWAP2 POP POP SWAP3 SWAP2 POP POP JUMP JUMPDEST PUSH0 PUSH1 0x8 SWAP1 POP SWAP2 SWAP1 POP JUMP JUMPDEST PUSH0 DUP2 SWAP1 POP SWAP3 SWAP2 POP POP JUMP JUMPDEST PUSH0 DUP2 SWAP1 POP SWAP2 SWAP1 POP JUMP JUMPDEST PUSH0 PUSH1 0x20 DUP3 ADD SWAP1 POP SWAP2 SWAP1 POP JUMP JUMPDEST PUSH2 0x2923 DUP2 PUSH2 0x28F1 JUMP JUMPDEST PUSH2 0x292D DUP2 DUP5 PUSH2 0x28FB JUMP JUMPDEST SWAP3 POP PUSH2 0x2938 DUP3 PUSH2 0x2905 JUMP JUMPDEST DUP1 PUSH0 JUMPDEST DUP4 DUP2 LT ISZERO PUSH2 0x2968 JUMPI DUP2 MLOAD PUSH2 0x294F DUP8 DUP3 PUSH2 0x2404 JUMP JUMPDEST SWAP7 POP PUSH2 0x295A DUP4 PUSH2 0x290E JUMP JUMPDEST SWAP3 POP POP PUSH1 0x1 DUP2 ADD SWAP1 POP PUSH2 0x293B JUMP JUMPDEST POP POP POP POP POP POP JUMP JUMPDEST PUSH0 PUSH1 0x2 SWAP1 POP SWAP2 SWAP1 POP JUMP JUMPDEST PUSH0 DUP2 SWAP1 POP SWAP3 SWAP2 POP POP JUMP JUMPDEST PUSH0 DUP2 SWAP1 POP SWAP2 SWAP1 POP JUMP JUMPDEST PUSH0 PUSH1 0x20 DUP3 ADD SWAP1 POP SWAP2 SWAP1 POP JUMP JUMPDEST PUSH2 0x29A2 DUP2 PUSH2 0x2970 JUMP JUMPDEST PUSH2 0x29AC DUP2 DUP5 PUSH2 0x297A JUMP JUMPDEST SWAP3 POP PUSH2 0x29B7 DUP3 PUSH2 0x2984 JUMP JUMPDEST DUP1 PUSH0 JUMPDEST DUP4 DUP2 LT ISZERO PUSH2 0x29E7 JUMPI DUP2 MLOAD PUSH2 0x29CE DUP8 DUP3 PUSH2 0x2404 JUMP JUMPDEST SWAP7 POP PUSH2 0x29D9 DUP4 PUSH2 0x298D JUMP JUMPDEST SWAP3 POP POP PUSH1 0x1 DUP2 ADD SWAP1 POP PUSH2 0x29BA JUMP JUMPDEST POP POP POP POP POP POP JUMP JUMPDEST PUSH0 PUSH2 0x140 DUP3 ADD SWAP1 POP PUSH2 0x2A03 PUSH0 DUP4 ADD DUP6 PUSH2 0x291A JUMP JUMPDEST PUSH2 0x2A11 PUSH2 0x100 DUP4 ADD DUP5 PUSH2 0x2999 JUMP JUMPDEST SWAP4 SWAP3 POP POP POP JUMP JUMPDEST PUSH0 DUP2 SWAP1 POP SWAP3 SWAP2 POP POP JUMP JUMPDEST DUP3 DUP2 DUP4 CALLDATACOPY PUSH0 DUP4 DUP4 ADD MSTORE POP POP POP JUMP JUMPDEST PUSH0 PUSH2 0x2A3B DUP4 DUP6 PUSH2 0x2A18 JUMP JUMPDEST SWAP4 POP PUSH2 0x2A48 DUP4 DUP6 DUP5 PUSH2 0x2A22 JUMP JUMPDEST DUP3 DUP5 ADD SWAP1 POP SWAP4 SWAP3 POP POP POP JUMP JUMPDEST PUSH0 PUSH2 0x2A60 DUP3 DUP5 DUP7 PUSH2 0x2A30 JUMP JUMPDEST SWAP2 POP DUP2 SWAP1 POP SWAP4 SWAP3 POP POP POP JUMP JUMPDEST PUSH0 DUP2 MLOAD SWAP1 POP PUSH2 0x2A7A DUP2 PUSH2 0x2266 JUMP JUMPDEST SWAP3 SWAP2 POP POP JUMP JUMPDEST PUSH0 PUSH1 0x20 DUP3 DUP5 SUB SLT ISZERO PUSH2 0x2A95 JUMPI PUSH2 0x2A94 PUSH2 0x225E JUMP JUMPDEST JUMPDEST PUSH0 PUSH2 0x2AA2 DUP5 DUP3 DUP6 ADD PUSH2 0x2A6C JUMP JUMPDEST SWAP2 POP POP SWAP3 SWAP2 POP POP JUMP JUMPDEST PUSH32 0x4E487B7100000000000000000000000000000000000000000000000000000000 PUSH0 MSTORE PUSH1 0x12 PUSH1 0x4 MSTORE PUSH1 0x24 PUSH0 REVERT JUMPDEST PUSH32 0x4E487B7100000000000000000000000000000000000000000000000000000000 PUSH0 MSTORE PUSH1 0x11 PUSH1 0x4 MSTORE PUSH1 0x24 PUSH0 REVERT JUMPDEST PUSH0 PUSH2 0x2B0F DUP3 PUSH2 0x23EC JUMP JUMPDEST SWAP2 POP PUSH2 0x2B1A DUP4 PUSH2 0x23EC JUMP JUMPDEST SWAP3 POP DUP3 DUP3 SUB SWAP1 POP DUP2 DUP2 GT ISZERO PUSH2 0x2B32 JUMPI PUSH2 0x2B31 PUSH2 0x2AD8 JUMP JUMPDEST JUMPDEST SWAP3 SWAP2 POP POP JUMP INVALID LOG2 PUSH5 0x6970667358 0x22 SLT KECCAK256 PUSH6 0x10FDFB47AD0D JUMP 0xD2 DIV PUSH26 0x1902A5B36AC7C97B341B657B10033707D85BA9DBB564736F6C63 NUMBER STOP ADDMOD 0x1E STOP CALLER "
				},
				"gasEstimates": {
					"creation": {
						"codeDepositCost": "2223600",
						"executionCost": "2373",
						"totalCost": "2225973"
					},
					"external": {
						"VERIFIER_HASH()": "338",
						"VERSION()": "infinite",
						"Verify(uint256[8],uint256[2])": "infinite",
						"compressProof(uint256[8])": "infinite",
						"hashPublicValues(bytes)": "infinite",
						"verifyCompressedProof(uint256[4],uint256[2])": "infinite",
						"verifyProof(bytes32,bytes,bytes)": "infinite"
					}
				},
				"methodIdentifiers": {
					"VERIFIER_HASH()": "2a510436",
					"VERSION()": "ffa1ad74",
					"Verify(uint256[8],uint256[2])": "eddf243c",
					"compressProof(uint256[8])": "44f63692",
					"hashPublicValues(bytes)": "6b61d8e7",
					"verifyCompressedProof(uint256[4],uint256[2])": "f11817b2",
					"verifyProof(bytes32,bytes,bytes)": "41493c60"
				}
			},
			"storageLayout": {
				"storage": [],
				"types": null
			},
			"userdoc": {
				"errors": {
					"InvalidProof()": [
						{
							"notice": "Thrown when the proof is invalid."
						}
					],
					"ProofInvalid()": [
						{
							"notice": "The proof is invalid."
						}
					],
					"PublicInputNotInField()": [
						{
							"notice": "Some of the provided public input values are larger than the field modulus."
						}
					],
					"WrongVerifierSelector(bytes4,bytes4)": [
						{
							"notice": "Thrown when the verifier selector from this proof does not match the one in this verifier. This indicates that this proof was sent to the wrong verifier."
						}
					]
				},
				"kind": "user",
				"methods": {
					"VERIFIER_HASH()": {
						"notice": "Returns the hash of the verifier."
					},
					"Verify(uint256[8],uint256[2])": {
						"notice": "Verify an uncompressed Groth16 proof.Reverts with InvalidProof if the proof is invalid or with PublicInputNotInField the public input is not reduced.There is no return value. If the function does not revert, the proof was successfully verified."
					},
					"compressProof(uint256[8])": {
						"notice": "Compress a proof.Will revert with InvalidProof if the curve points are invalid, but does not verify the proof itself."
					},
					"hashPublicValues(bytes)": {
						"notice": "Hashes the public values to a field elements inside Bn254."
					},
					"verifyCompressedProof(uint256[4],uint256[2])": {
						"notice": "Verify a Groth16 proof with compressed points.Reverts with InvalidProof if the proof is invalid or with PublicInputNotInField the public input is not reduced.There is no return value. If the function does not revert, the proof was successfully verified."
					},
					"verifyProof(bytes32,bytes,bytes)": {
						"notice": "Verifies a proof with given public values and vkey."
					}
				},
				"notice": "This contracts implements a solidity verifier for SP1.",
				"version": 1
			}
		}
	}
}