{
	".deps/github/succinctlabs/sp1-contracts/contracts/src/v5.0.0/Groth16Verifier.sol": {
		"Groth16Verifier": {
			"abi": [
				{
					"inputs": [],
					"name": "ProofInvalid",
					"type": "error"
				},
				{
					"inputs": [],
					"name": "PublicInputNotInField",
					"type": "error"
				},
				{
					"inputs": [
						{
							"internalType": "uint256[8]",
							"name": "proof",
							"type": "uint256[8]"
						},
						{
							"internalType": "uint256[2]",
							"name": "input",
							"type": "uint256[2]"
						}
					],
					"name": "Verify",
					"outputs": [],
					"stateMutability": "view",
					"type": "function"
				},
				{
					"inputs": [
						{
							"internalType": "uint256[8]",
							"name": "proof",
							"type": "uint256[8]"
						}
					],
					"name": "compressProof",
					"outputs": [
						{
							"internalType": "uint256[4]",
							"name": "compressed",
							"type": "uint256[4]"
						}
					],
					"stateMutability": "view",
					"type": "function"
				},
				{
					"inputs": [
						{
							"internalType": "uint256[4]",
							"name": "compressedProof",
							"type": "uint256[4]"
						},
						{
							"internalType": "uint256[2]",
							"name": "input",
							"type": "uint256[2]"
						}
					],
					"name": "verifyCompressedProof",
					"outputs": [],
					"stateMutability": "view",
					"type": "function"
				}
			],
			"devdoc": {
				"author": "Remco Bloemen",
				"errors": {
					"ProofInvalid()": [
						{
							"details": "This can mean that provided Groth16 proof points are not on their curves, that pairing equation fails, or that the proof is not for the provided public input."
						}
					],
					"PublicInputNotInField()": [
						{
							"details": "Public input elements are not automatically reduced, as this is can be a dangerous source of bugs."
						}
					]
				},
				"kind": "dev",
				"methods": {
					"Verify(uint256[8],uint256[2])": {
						"params": {
							"input": "the public input field elements in the scalar field Fr. Elements must be reduced.",
							"proof": "the points (A, B, C) in EIP-197 format matching the output of compressProof."
						}
					},
					"compressProof(uint256[8])": {
						"params": {
							"proof": "The uncompressed Groth16 proof. Elements are in the same order as for verifyProof. I.e. Groth16 points (A, B, C) encoded as in EIP-197."
						},
						"returns": {
							"compressed": "The compressed proof. Elements are in the same order as for verifyCompressedProof. I.e. points (A, B, C) in compressed format."
						}
					},
					"verifyCompressedProof(uint256[4],uint256[2])": {
						"params": {
							"compressedProof": "the points (A, B, C) in compressed format matching the output of compressProof.",
							"input": "the public input field elements in the scalar field Fr. Elements must be reduced."
						}
					}
				},
				"title": "Groth16 verifier template.",
				"version": 1
			},
			"evm": {
				"assembly": "    /* \".deps/github/succinctlabs/sp1-contracts/contracts/src/v5.0.0/Groth16Verifier.sol\":384:24971  contract Groth16Verifier {... */\n  mstore(0x40, 0x80)\n  callvalue\n  dup1\n  iszero\n  tag_1\n  jumpi\n  revert(0x00, 0x00)\ntag_1:\n  pop\n  dataSize(sub_0)\n  dup1\n  dataOffset(sub_0)\n  0x00\n  codecopy\n  0x00\n  return\nstop\n\nsub_0: assembly {\n        /* \".deps/github/succinctlabs/sp1-contracts/contracts/src/v5.0.0/Groth16Verifier.sol\":384:24971  contract Groth16Verifier {... */\n      mstore(0x40, 0x80)\n      callvalue\n      dup1\n      iszero\n      tag_1\n      jumpi\n      revert(0x00, 0x00)\n    tag_1:\n      pop\n      jumpi(tag_2, lt(calldatasize, 0x04))\n      shr(0xe0, calldataload(0x00))\n      dup1\n      0x44f63692\n      eq\n      tag_3\n      jumpi\n      dup1\n      0xeddf243c\n      eq\n      tag_4\n      jumpi\n      dup1\n      0xf11817b2\n      eq\n      tag_5\n      jumpi\n    tag_2:\n      revert(0x00, 0x00)\n        /* \".deps/github/succinctlabs/sp1-contracts/contracts/src/v5.0.0/Groth16Verifier.sol\":19207:19527  function compressProof(uint256[8] calldata proof)... */\n    tag_3:\n      tag_6\n      0x04\n      dup1\n      calldatasize\n      sub\n      dup2\n      add\n      swap1\n      tag_7\n      swap2\n      swap1\n      tag_8\n      jump\t// in\n    tag_7:\n      tag_9\n      jump\t// in\n    tag_6:\n      mload(0x40)\n      tag_10\n      swap2\n      swap1\n      tag_11\n      jump\t// in\n    tag_10:\n      mload(0x40)\n      dup1\n      swap2\n      sub\n      swap1\n      return\n        /* \".deps/github/succinctlabs/sp1-contracts/contracts/src/v5.0.0/Groth16Verifier.sol\":22847:24969  function Verify(... */\n    tag_4:\n      tag_12\n      0x04\n      dup1\n      calldatasize\n      sub\n      dup2\n      add\n      swap1\n      tag_13\n      swap2\n      swap1\n      tag_14\n      jump\t// in\n    tag_13:\n      tag_15\n      jump\t// in\n    tag_12:\n      stop\n        /* \".deps/github/succinctlabs/sp1-contracts/contracts/src/v5.0.0/Groth16Verifier.sol\":20075:22321  function verifyCompressedProof(... */\n    tag_5:\n      tag_16\n      0x04\n      dup1\n      calldatasize\n      sub\n      dup2\n      add\n      swap1\n      tag_17\n      swap2\n      swap1\n      tag_18\n      jump\t// in\n    tag_17:\n      tag_19\n      jump\t// in\n    tag_16:\n      stop\n        /* \".deps/github/succinctlabs/sp1-contracts/contracts/src/v5.0.0/Groth16Verifier.sol\":19207:19527  function compressProof(uint256[8] calldata proof)... */\n    tag_9:\n        /* \".deps/github/succinctlabs/sp1-contracts/contracts/src/v5.0.0/Groth16Verifier.sol\":19282:19310  uint256[4] memory compressed */\n      tag_20\n      tag_21\n      jump\t// in\n    tag_20:\n        /* \".deps/github/succinctlabs/sp1-contracts/contracts/src/v5.0.0/Groth16Verifier.sol\":19338:19369  compress_g1(proof[0], proof[1]) */\n      tag_23\n        /* \".deps/github/succinctlabs/sp1-contracts/contracts/src/v5.0.0/Groth16Verifier.sol\":19350:19355  proof */\n      dup3\n        /* \".deps/github/succinctlabs/sp1-contracts/contracts/src/v5.0.0/Groth16Verifier.sol\":19356:19357  0 */\n      0x00\n        /* \".deps/github/succinctlabs/sp1-contracts/contracts/src/v5.0.0/Groth16Verifier.sol\":19350:19358  proof[0] */\n      0x08\n      dup2\n      lt\n      tag_24\n      jumpi\n      tag_25\n      tag_26\n      jump\t// in\n    tag_25:\n    tag_24:\n      0x20\n      mul\n      add\n      calldataload\n        /* \".deps/github/succinctlabs/sp1-contracts/contracts/src/v5.0.0/Groth16Verifier.sol\":19360:19365  proof */\n      dup4\n        /* \".deps/github/succinctlabs/sp1-contracts/contracts/src/v5.0.0/Groth16Verifier.sol\":19366:19367  1 */\n      0x01\n        /* \".deps/github/succinctlabs/sp1-contracts/contracts/src/v5.0.0/Groth16Verifier.sol\":19360:19368  proof[1] */\n      0x08\n      dup2\n      lt\n      tag_27\n      jumpi\n      tag_28\n      tag_26\n      jump\t// in\n    tag_28:\n    tag_27:\n      0x20\n      mul\n      add\n      calldataload\n        /* \".deps/github/succinctlabs/sp1-contracts/contracts/src/v5.0.0/Groth16Verifier.sol\":19338:19349  compress_g1 */\n      tag_29\n        /* \".deps/github/succinctlabs/sp1-contracts/contracts/src/v5.0.0/Groth16Verifier.sol\":19338:19369  compress_g1(proof[0], proof[1]) */\n      jump\t// in\n    tag_23:\n        /* \".deps/github/succinctlabs/sp1-contracts/contracts/src/v5.0.0/Groth16Verifier.sol\":19322:19332  compressed */\n      dup2\n        /* \".deps/github/succinctlabs/sp1-contracts/contracts/src/v5.0.0/Groth16Verifier.sol\":19333:19334  0 */\n      0x00\n        /* \".deps/github/succinctlabs/sp1-contracts/contracts/src/v5.0.0/Groth16Verifier.sol\":19322:19335  compressed[0] */\n      0x04\n      dup2\n      lt\n      tag_30\n      jumpi\n      tag_31\n      tag_26\n      jump\t// in\n    tag_31:\n    tag_30:\n      0x20\n      mul\n      add\n        /* \".deps/github/succinctlabs/sp1-contracts/contracts/src/v5.0.0/Groth16Verifier.sol\":19322:19369  compressed[0] = compress_g1(proof[0], proof[1]) */\n      dup2\n      dup2\n      mstore\n      pop\n      pop\n        /* \".deps/github/succinctlabs/sp1-contracts/contracts/src/v5.0.0/Groth16Verifier.sol\":19412:19463  compress_g2(proof[3], proof[2], proof[5], proof[4]) */\n      tag_32\n        /* \".deps/github/succinctlabs/sp1-contracts/contracts/src/v5.0.0/Groth16Verifier.sol\":19424:19429  proof */\n      dup3\n        /* \".deps/github/succinctlabs/sp1-contracts/contracts/src/v5.0.0/Groth16Verifier.sol\":19430:19431  3 */\n      0x03\n        /* \".deps/github/succinctlabs/sp1-contracts/contracts/src/v5.0.0/Groth16Verifier.sol\":19424:19432  proof[3] */\n      0x08\n      dup2\n      lt\n      tag_33\n      jumpi\n      tag_34\n      tag_26\n      jump\t// in\n    tag_34:\n    tag_33:\n      0x20\n      mul\n      add\n      calldataload\n        /* \".deps/github/succinctlabs/sp1-contracts/contracts/src/v5.0.0/Groth16Verifier.sol\":19434:19439  proof */\n      dup4\n        /* \".deps/github/succinctlabs/sp1-contracts/contracts/src/v5.0.0/Groth16Verifier.sol\":19440:19441  2 */\n      0x02\n        /* \".deps/github/succinctlabs/sp1-contracts/contracts/src/v5.0.0/Groth16Verifier.sol\":19434:19442  proof[2] */\n      0x08\n      dup2\n      lt\n      tag_35\n      jumpi\n      tag_36\n      tag_26\n      jump\t// in\n    tag_36:\n    tag_35:\n      0x20\n      mul\n      add\n      calldataload\n        /* \".deps/github/succinctlabs/sp1-contracts/contracts/src/v5.0.0/Groth16Verifier.sol\":19444:19449  proof */\n      dup5\n        /* \".deps/github/succinctlabs/sp1-contracts/contracts/src/v5.0.0/Groth16Verifier.sol\":19450:19451  5 */\n      0x05\n        /* \".deps/github/succinctlabs/sp1-contracts/contracts/src/v5.0.0/Groth16Verifier.sol\":19444:19452  proof[5] */\n      0x08\n      dup2\n      lt\n      tag_37\n      jumpi\n      tag_38\n      tag_26\n      jump\t// in\n    tag_38:\n    tag_37:\n      0x20\n      mul\n      add\n      calldataload\n        /* \".deps/github/succinctlabs/sp1-contracts/contracts/src/v5.0.0/Groth16Verifier.sol\":19454:19459  proof */\n      dup6\n        /* \".deps/github/succinctlabs/sp1-contracts/contracts/src/v5.0.0/Groth16Verifier.sol\":19460:19461  4 */\n      0x04\n        /* \".deps/github/succinctlabs/sp1-contracts/contracts/src/v5.0.0/Groth16Verifier.sol\":19454:19462  proof[4] */\n      0x08\n      dup2\n      lt\n      tag_39\n      jumpi\n      tag_40\n      tag_26\n      jump\t// in\n    tag_40:\n    tag_39:\n      0x20\n      mul\n      add\n      calldataload\n        /* \".deps/github/succinctlabs/sp1-contracts/contracts/src/v5.0.0/Groth16Verifier.sol\":19412:19423  compress_g2 */\n      tag_41\n        /* \".deps/github/succinctlabs/sp1-contracts/contracts/src/v5.0.0/Groth16Verifier.sol\":19412:19463  compress_g2(proof[3], proof[2], proof[5], proof[4]) */\n      jump\t// in\n    tag_32:\n        /* \".deps/github/succinctlabs/sp1-contracts/contracts/src/v5.0.0/Groth16Verifier.sol\":19380:19390  compressed */\n      dup3\n        /* \".deps/github/succinctlabs/sp1-contracts/contracts/src/v5.0.0/Groth16Verifier.sol\":19391:19392  2 */\n      0x02\n        /* \".deps/github/succinctlabs/sp1-contracts/contracts/src/v5.0.0/Groth16Verifier.sol\":19380:19393  compressed[2] */\n      0x04\n      dup2\n      lt\n      tag_42\n      jumpi\n      tag_43\n      tag_26\n      jump\t// in\n    tag_43:\n    tag_42:\n      0x20\n      mul\n      add\n        /* \".deps/github/succinctlabs/sp1-contracts/contracts/src/v5.0.0/Groth16Verifier.sol\":19395:19405  compressed */\n      dup4\n        /* \".deps/github/succinctlabs/sp1-contracts/contracts/src/v5.0.0/Groth16Verifier.sol\":19406:19407  1 */\n      0x01\n        /* \".deps/github/succinctlabs/sp1-contracts/contracts/src/v5.0.0/Groth16Verifier.sol\":19395:19408  compressed[1] */\n      0x04\n      dup2\n      lt\n      tag_44\n      jumpi\n      tag_45\n      tag_26\n      jump\t// in\n    tag_45:\n    tag_44:\n      0x20\n      mul\n      add\n        /* \".deps/github/succinctlabs/sp1-contracts/contracts/src/v5.0.0/Groth16Verifier.sol\":19379:19463  (compressed[2], compressed[1]) = compress_g2(proof[3], proof[2], proof[5], proof[4]) */\n      dup3\n      dup2\n      mstore\n      pop\n      dup3\n      dup2\n      mstore\n      pop\n      pop\n      pop\n        /* \".deps/github/succinctlabs/sp1-contracts/contracts/src/v5.0.0/Groth16Verifier.sol\":19489:19520  compress_g1(proof[6], proof[7]) */\n      tag_46\n        /* \".deps/github/succinctlabs/sp1-contracts/contracts/src/v5.0.0/Groth16Verifier.sol\":19501:19506  proof */\n      dup3\n        /* \".deps/github/succinctlabs/sp1-contracts/contracts/src/v5.0.0/Groth16Verifier.sol\":19507:19508  6 */\n      0x06\n        /* \".deps/github/succinctlabs/sp1-contracts/contracts/src/v5.0.0/Groth16Verifier.sol\":19501:19509  proof[6] */\n      0x08\n      dup2\n      lt\n      tag_47\n      jumpi\n      tag_48\n      tag_26\n      jump\t// in\n    tag_48:\n    tag_47:\n      0x20\n      mul\n      add\n      calldataload\n        /* \".deps/github/succinctlabs/sp1-contracts/contracts/src/v5.0.0/Groth16Verifier.sol\":19511:19516  proof */\n      dup4\n        /* \".deps/github/succinctlabs/sp1-contracts/contracts/src/v5.0.0/Groth16Verifier.sol\":19517:19518  7 */\n      0x07\n        /* \".deps/github/succinctlabs/sp1-contracts/contracts/src/v5.0.0/Groth16Verifier.sol\":19511:19519  proof[7] */\n      0x08\n      dup2\n      lt\n      tag_49\n      jumpi\n      tag_50\n      tag_26\n      jump\t// in\n    tag_50:\n    tag_49:\n      0x20\n      mul\n      add\n      calldataload\n        /* \".deps/github/succinctlabs/sp1-contracts/contracts/src/v5.0.0/Groth16Verifier.sol\":19489:19500  compress_g1 */\n      tag_29\n        /* \".deps/github/succinctlabs/sp1-contracts/contracts/src/v5.0.0/Groth16Verifier.sol\":19489:19520  compress_g1(proof[6], proof[7]) */\n      jump\t// in\n    tag_46:\n        /* \".deps/github/succinctlabs/sp1-contracts/contracts/src/v5.0.0/Groth16Verifier.sol\":19473:19483  compressed */\n      dup2\n        /* \".deps/github/succinctlabs/sp1-contracts/contracts/src/v5.0.0/Groth16Verifier.sol\":19484:19485  3 */\n      0x03\n        /* \".deps/github/succinctlabs/sp1-contracts/contracts/src/v5.0.0/Groth16Verifier.sol\":19473:19486  compressed[3] */\n      0x04\n      dup2\n      lt\n      tag_51\n      jumpi\n      tag_52\n      tag_26\n      jump\t// in\n    tag_52:\n    tag_51:\n      0x20\n      mul\n      add\n        /* \".deps/github/succinctlabs/sp1-contracts/contracts/src/v5.0.0/Groth16Verifier.sol\":19473:19520  compressed[3] = compress_g1(proof[6], proof[7]) */\n      dup2\n      dup2\n      mstore\n      pop\n      pop\n        /* \".deps/github/succinctlabs/sp1-contracts/contracts/src/v5.0.0/Groth16Verifier.sol\":19207:19527  function compressProof(uint256[8] calldata proof)... */\n      swap2\n      swap1\n      pop\n      jump\t// out\n        /* \".deps/github/succinctlabs/sp1-contracts/contracts/src/v5.0.0/Groth16Verifier.sol\":22847:24969  function Verify(... */\n    tag_15:\n        /* \".deps/github/succinctlabs/sp1-contracts/contracts/src/v5.0.0/Groth16Verifier.sol\":22962:22971  uint256 x */\n      0x00\n        /* \".deps/github/succinctlabs/sp1-contracts/contracts/src/v5.0.0/Groth16Verifier.sol\":22973:22982  uint256 y */\n      0x00\n        /* \".deps/github/succinctlabs/sp1-contracts/contracts/src/v5.0.0/Groth16Verifier.sol\":22986:23007  publicInputMSM(input) */\n      tag_54\n        /* \".deps/github/succinctlabs/sp1-contracts/contracts/src/v5.0.0/Groth16Verifier.sol\":23001:23006  input */\n      dup4\n        /* \".deps/github/succinctlabs/sp1-contracts/contracts/src/v5.0.0/Groth16Verifier.sol\":22986:23000  publicInputMSM */\n      tag_55\n        /* \".deps/github/succinctlabs/sp1-contracts/contracts/src/v5.0.0/Groth16Verifier.sol\":22986:23007  publicInputMSM(input) */\n      jump\t// in\n    tag_54:\n        /* \".deps/github/succinctlabs/sp1-contracts/contracts/src/v5.0.0/Groth16Verifier.sol\":22961:23007  (uint256 x, uint256 y) = publicInputMSM(input) */\n      swap2\n      pop\n      swap2\n      pop\n        /* \".deps/github/succinctlabs/sp1-contracts/contracts/src/v5.0.0/Groth16Verifier.sol\":23194:23206  bool success */\n      0x00\n        /* \".deps/github/succinctlabs/sp1-contracts/contracts/src/v5.0.0/Groth16Verifier.sol\":23270:23274  0x40 */\n      0x40\n        /* \".deps/github/succinctlabs/sp1-contracts/contracts/src/v5.0.0/Groth16Verifier.sol\":23264:23275  mload(0x40) */\n      mload\n        /* \".deps/github/succinctlabs/sp1-contracts/contracts/src/v5.0.0/Groth16Verifier.sol\":23482:23487  0x100 */\n      0x0100\n        /* \".deps/github/succinctlabs/sp1-contracts/contracts/src/v5.0.0/Groth16Verifier.sol\":23475:23480  proof */\n      dup7\n        /* \".deps/github/succinctlabs/sp1-contracts/contracts/src/v5.0.0/Groth16Verifier.sol\":23472:23473  f */\n      dup3\n        /* \".deps/github/succinctlabs/sp1-contracts/contracts/src/v5.0.0/Groth16Verifier.sol\":23459:23488  calldatacopy(f, proof, 0x100) */\n      calldatacopy\n        /* \".deps/github/succinctlabs/sp1-contracts/contracts/src/v5.0.0/Groth16Verifier.sol\":23790:23803  DELTA_NEG_X_1 */\n      0x1cc7cb8de715675f21f01ecc9b46d236e0865e0cc020024521998269845f74e6\n        /* \".deps/github/succinctlabs/sp1-contracts/contracts/src/v5.0.0/Groth16Verifier.sol\":23782:23787  0x100 */\n      0x0100\n        /* \".deps/github/succinctlabs/sp1-contracts/contracts/src/v5.0.0/Groth16Verifier.sol\":23779:23780  f */\n      dup3\n        /* \".deps/github/succinctlabs/sp1-contracts/contracts/src/v5.0.0/Groth16Verifier.sol\":23775:23788  add(f, 0x100) */\n      add\n        /* \".deps/github/succinctlabs/sp1-contracts/contracts/src/v5.0.0/Groth16Verifier.sol\":23768:23804  mstore(add(f, 0x100), DELTA_NEG_X_1) */\n      mstore\n        /* \".deps/github/succinctlabs/sp1-contracts/contracts/src/v5.0.0/Groth16Verifier.sol\":23839:23852  DELTA_NEG_X_0 */\n      0x03ff41f4ba0c37fe2caf27354d28e4b8f83d3b76777a63b327d736bffb0122ed\n        /* \".deps/github/succinctlabs/sp1-contracts/contracts/src/v5.0.0/Groth16Verifier.sol\":23831:23836  0x120 */\n      0x0120\n        /* \".deps/github/succinctlabs/sp1-contracts/contracts/src/v5.0.0/Groth16Verifier.sol\":23828:23829  f */\n      dup3\n        /* \".deps/github/succinctlabs/sp1-contracts/contracts/src/v5.0.0/Groth16Verifier.sol\":23824:23837  add(f, 0x120) */\n      add\n        /* \".deps/github/succinctlabs/sp1-contracts/contracts/src/v5.0.0/Groth16Verifier.sol\":23817:23853  mstore(add(f, 0x120), DELTA_NEG_X_0) */\n      mstore\n        /* \".deps/github/succinctlabs/sp1-contracts/contracts/src/v5.0.0/Groth16Verifier.sol\":23888:23901  DELTA_NEG_Y_1 */\n      0x01909cd7827e0278e6b60843a4abc7b111d7f8b2725cd5902a6b20da7a2938fb\n        /* \".deps/github/succinctlabs/sp1-contracts/contracts/src/v5.0.0/Groth16Verifier.sol\":23880:23885  0x140 */\n      0x0140\n        /* \".deps/github/succinctlabs/sp1-contracts/contracts/src/v5.0.0/Groth16Verifier.sol\":23877:23878  f */\n      dup3\n        /* \".deps/github/succinctlabs/sp1-contracts/contracts/src/v5.0.0/Groth16Verifier.sol\":23873:23886  add(f, 0x140) */\n      add\n        /* \".deps/github/succinctlabs/sp1-contracts/contracts/src/v5.0.0/Groth16Verifier.sol\":23866:23902  mstore(add(f, 0x140), DELTA_NEG_Y_1) */\n      mstore\n        /* \".deps/github/succinctlabs/sp1-contracts/contracts/src/v5.0.0/Groth16Verifier.sol\":23937:23950  DELTA_NEG_Y_0 */\n      0x192bd3274441670227b4f69a44005b8711266e474227c6439ca25ca8e1ec1fc2\n        /* \".deps/github/succinctlabs/sp1-contracts/contracts/src/v5.0.0/Groth16Verifier.sol\":23929:23934  0x160 */\n      0x0160\n        /* \".deps/github/succinctlabs/sp1-contracts/contracts/src/v5.0.0/Groth16Verifier.sol\":23926:23927  f */\n      dup3\n        /* \".deps/github/succinctlabs/sp1-contracts/contracts/src/v5.0.0/Groth16Verifier.sol\":23922:23935  add(f, 0x160) */\n      add\n        /* \".deps/github/succinctlabs/sp1-contracts/contracts/src/v5.0.0/Groth16Verifier.sol\":23915:23951  mstore(add(f, 0x160), DELTA_NEG_Y_0) */\n      mstore\n        /* \".deps/github/succinctlabs/sp1-contracts/contracts/src/v5.0.0/Groth16Verifier.sol\":23986:23993  ALPHA_X */\n      0x2d4d9aa7e302d9df41749d5507949d05dbea33fbb16c643b22f599a2be6df2e2\n        /* \".deps/github/succinctlabs/sp1-contracts/contracts/src/v5.0.0/Groth16Verifier.sol\":23978:23983  0x180 */\n      0x0180\n        /* \".deps/github/succinctlabs/sp1-contracts/contracts/src/v5.0.0/Groth16Verifier.sol\":23975:23976  f */\n      dup3\n        /* \".deps/github/succinctlabs/sp1-contracts/contracts/src/v5.0.0/Groth16Verifier.sol\":23971:23984  add(f, 0x180) */\n      add\n        /* \".deps/github/succinctlabs/sp1-contracts/contracts/src/v5.0.0/Groth16Verifier.sol\":23964:23994  mstore(add(f, 0x180), ALPHA_X) */\n      mstore\n        /* \".deps/github/succinctlabs/sp1-contracts/contracts/src/v5.0.0/Groth16Verifier.sol\":24029:24036  ALPHA_Y */\n      0x14bedd503c37ceb061d8ec60209fe345ce89830a19230301f076caff004d1926\n        /* \".deps/github/succinctlabs/sp1-contracts/contracts/src/v5.0.0/Groth16Verifier.sol\":24021:24026  0x1a0 */\n      0x01a0\n        /* \".deps/github/succinctlabs/sp1-contracts/contracts/src/v5.0.0/Groth16Verifier.sol\":24018:24019  f */\n      dup3\n        /* \".deps/github/succinctlabs/sp1-contracts/contracts/src/v5.0.0/Groth16Verifier.sol\":24014:24027  add(f, 0x1a0) */\n      add\n        /* \".deps/github/succinctlabs/sp1-contracts/contracts/src/v5.0.0/Groth16Verifier.sol\":24007:24037  mstore(add(f, 0x1a0), ALPHA_Y) */\n      mstore\n        /* \".deps/github/succinctlabs/sp1-contracts/contracts/src/v5.0.0/Groth16Verifier.sol\":24072:24084  BETA_NEG_X_1 */\n      0x0967032fcbf776d1afc985f88877f182d38480a653f2decaa9794cbc3bf3060c\n        /* \".deps/github/succinctlabs/sp1-contracts/contracts/src/v5.0.0/Groth16Verifier.sol\":24064:24069  0x1c0 */\n      0x01c0\n        /* \".deps/github/succinctlabs/sp1-contracts/contracts/src/v5.0.0/Groth16Verifier.sol\":24061:24062  f */\n      dup3\n        /* \".deps/github/succinctlabs/sp1-contracts/contracts/src/v5.0.0/Groth16Verifier.sol\":24057:24070  add(f, 0x1c0) */\n      add\n        /* \".deps/github/succinctlabs/sp1-contracts/contracts/src/v5.0.0/Groth16Verifier.sol\":24050:24085  mstore(add(f, 0x1c0), BETA_NEG_X_1) */\n      mstore\n        /* \".deps/github/succinctlabs/sp1-contracts/contracts/src/v5.0.0/Groth16Verifier.sol\":24120:24132  BETA_NEG_X_0 */\n      0x0e187847ad4c798374d0d6732bf501847dd68bc0e071241e0213bc7fc13db7ab\n        /* \".deps/github/succinctlabs/sp1-contracts/contracts/src/v5.0.0/Groth16Verifier.sol\":24112:24117  0x1e0 */\n      0x01e0\n        /* \".deps/github/succinctlabs/sp1-contracts/contracts/src/v5.0.0/Groth16Verifier.sol\":24109:24110  f */\n      dup3\n        /* \".deps/github/succinctlabs/sp1-contracts/contracts/src/v5.0.0/Groth16Verifier.sol\":24105:24118  add(f, 0x1e0) */\n      add\n        /* \".deps/github/succinctlabs/sp1-contracts/contracts/src/v5.0.0/Groth16Verifier.sol\":24098:24133  mstore(add(f, 0x1e0), BETA_NEG_X_0) */\n      mstore\n        /* \".deps/github/succinctlabs/sp1-contracts/contracts/src/v5.0.0/Groth16Verifier.sol\":24168:24180  BETA_NEG_Y_1 */\n      0x1752a100a72fdf1e5a5d6ea841cc20ec838bccfcf7bd559e79f1c9c759b6a0\n        /* \".deps/github/succinctlabs/sp1-contracts/contracts/src/v5.0.0/Groth16Verifier.sol\":24160:24165  0x200 */\n      0x0200\n        /* \".deps/github/succinctlabs/sp1-contracts/contracts/src/v5.0.0/Groth16Verifier.sol\":24157:24158  f */\n      dup3\n        /* \".deps/github/succinctlabs/sp1-contracts/contracts/src/v5.0.0/Groth16Verifier.sol\":24153:24166  add(f, 0x200) */\n      add\n        /* \".deps/github/succinctlabs/sp1-contracts/contracts/src/v5.0.0/Groth16Verifier.sol\":24146:24181  mstore(add(f, 0x200), BETA_NEG_Y_1) */\n      mstore\n        /* \".deps/github/succinctlabs/sp1-contracts/contracts/src/v5.0.0/Groth16Verifier.sol\":24216:24228  BETA_NEG_Y_0 */\n      0x192a8cc13cd9f762871f21e43451c6ca9eeab2cb2987c4e366a185c25dac2e7f\n        /* \".deps/github/succinctlabs/sp1-contracts/contracts/src/v5.0.0/Groth16Verifier.sol\":24208:24213  0x220 */\n      0x0220\n        /* \".deps/github/succinctlabs/sp1-contracts/contracts/src/v5.0.0/Groth16Verifier.sol\":24205:24206  f */\n      dup3\n        /* \".deps/github/succinctlabs/sp1-contracts/contracts/src/v5.0.0/Groth16Verifier.sol\":24201:24214  add(f, 0x220) */\n      add\n        /* \".deps/github/succinctlabs/sp1-contracts/contracts/src/v5.0.0/Groth16Verifier.sol\":24194:24229  mstore(add(f, 0x220), BETA_NEG_Y_0) */\n      mstore\n        /* \".deps/github/succinctlabs/sp1-contracts/contracts/src/v5.0.0/Groth16Verifier.sol\":24264:24265  x */\n      dup4\n        /* \".deps/github/succinctlabs/sp1-contracts/contracts/src/v5.0.0/Groth16Verifier.sol\":24256:24261  0x240 */\n      0x0240\n        /* \".deps/github/succinctlabs/sp1-contracts/contracts/src/v5.0.0/Groth16Verifier.sol\":24253:24254  f */\n      dup3\n        /* \".deps/github/succinctlabs/sp1-contracts/contracts/src/v5.0.0/Groth16Verifier.sol\":24249:24262  add(f, 0x240) */\n      add\n        /* \".deps/github/succinctlabs/sp1-contracts/contracts/src/v5.0.0/Groth16Verifier.sol\":24242:24266  mstore(add(f, 0x240), x) */\n      mstore\n        /* \".deps/github/succinctlabs/sp1-contracts/contracts/src/v5.0.0/Groth16Verifier.sol\":24301:24302  y */\n      dup3\n        /* \".deps/github/succinctlabs/sp1-contracts/contracts/src/v5.0.0/Groth16Verifier.sol\":24293:24298  0x260 */\n      0x0260\n        /* \".deps/github/succinctlabs/sp1-contracts/contracts/src/v5.0.0/Groth16Verifier.sol\":24290:24291  f */\n      dup3\n        /* \".deps/github/succinctlabs/sp1-contracts/contracts/src/v5.0.0/Groth16Verifier.sol\":24286:24299  add(f, 0x260) */\n      add\n        /* \".deps/github/succinctlabs/sp1-contracts/contracts/src/v5.0.0/Groth16Verifier.sol\":24279:24303  mstore(add(f, 0x260), y) */\n      mstore\n        /* \".deps/github/succinctlabs/sp1-contracts/contracts/src/v5.0.0/Groth16Verifier.sol\":24338:24351  GAMMA_NEG_X_1 */\n      0x198e9393920d483a7260bfb731fb5d25f1aa493335a9e71297e485b7aef312c2\n        /* \".deps/github/succinctlabs/sp1-contracts/contracts/src/v5.0.0/Groth16Verifier.sol\":24330:24335  0x280 */\n      0x0280\n        /* \".deps/github/succinctlabs/sp1-contracts/contracts/src/v5.0.0/Groth16Verifier.sol\":24327:24328  f */\n      dup3\n        /* \".deps/github/succinctlabs/sp1-contracts/contracts/src/v5.0.0/Groth16Verifier.sol\":24323:24336  add(f, 0x280) */\n      add\n        /* \".deps/github/succinctlabs/sp1-contracts/contracts/src/v5.0.0/Groth16Verifier.sol\":24316:24352  mstore(add(f, 0x280), GAMMA_NEG_X_1) */\n      mstore\n        /* \".deps/github/succinctlabs/sp1-contracts/contracts/src/v5.0.0/Groth16Verifier.sol\":24387:24400  GAMMA_NEG_X_0 */\n      0x1800deef121f1e76426a00665e5c4479674322d4f75edadd46debd5cd992f6ed\n        /* \".deps/github/succinctlabs/sp1-contracts/contracts/src/v5.0.0/Groth16Verifier.sol\":24379:24384  0x2a0 */\n      0x02a0\n        /* \".deps/github/succinctlabs/sp1-contracts/contracts/src/v5.0.0/Groth16Verifier.sol\":24376:24377  f */\n      dup3\n        /* \".deps/github/succinctlabs/sp1-contracts/contracts/src/v5.0.0/Groth16Verifier.sol\":24372:24385  add(f, 0x2a0) */\n      add\n        /* \".deps/github/succinctlabs/sp1-contracts/contracts/src/v5.0.0/Groth16Verifier.sol\":24365:24401  mstore(add(f, 0x2a0), GAMMA_NEG_X_0) */\n      mstore\n        /* \".deps/github/succinctlabs/sp1-contracts/contracts/src/v5.0.0/Groth16Verifier.sol\":24436:24449  GAMMA_NEG_Y_1 */\n      0x275dc4a288d1afb3cbb1ac09187524c7db36395df7be3b99e673b13a075a65ec\n        /* \".deps/github/succinctlabs/sp1-contracts/contracts/src/v5.0.0/Groth16Verifier.sol\":24428:24433  0x2c0 */\n      0x02c0\n        /* \".deps/github/succinctlabs/sp1-contracts/contracts/src/v5.0.0/Groth16Verifier.sol\":24425:24426  f */\n      dup3\n        /* \".deps/github/succinctlabs/sp1-contracts/contracts/src/v5.0.0/Groth16Verifier.sol\":24421:24434  add(f, 0x2c0) */\n      add\n        /* \".deps/github/succinctlabs/sp1-contracts/contracts/src/v5.0.0/Groth16Verifier.sol\":24414:24450  mstore(add(f, 0x2c0), GAMMA_NEG_Y_1) */\n      mstore\n        /* \".deps/github/succinctlabs/sp1-contracts/contracts/src/v5.0.0/Groth16Verifier.sol\":24485:24498  GAMMA_NEG_Y_0 */\n      0x1d9befcd05a5323e6da4d435f3b617cdb3af83285c2df711ef39c01571827f9d\n        /* \".deps/github/succinctlabs/sp1-contracts/contracts/src/v5.0.0/Groth16Verifier.sol\":24477:24482  0x2e0 */\n      0x02e0\n        /* \".deps/github/succinctlabs/sp1-contracts/contracts/src/v5.0.0/Groth16Verifier.sol\":24474:24475  f */\n      dup3\n        /* \".deps/github/succinctlabs/sp1-contracts/contracts/src/v5.0.0/Groth16Verifier.sol\":24470:24483  add(f, 0x2e0) */\n      add\n        /* \".deps/github/succinctlabs/sp1-contracts/contracts/src/v5.0.0/Groth16Verifier.sol\":24463:24499  mstore(add(f, 0x2e0), GAMMA_NEG_Y_0) */\n      mstore\n        /* \".deps/github/succinctlabs/sp1-contracts/contracts/src/v5.0.0/Groth16Verifier.sol\":24613:24617  0x20 */\n      0x20\n        /* \".deps/github/succinctlabs/sp1-contracts/contracts/src/v5.0.0/Groth16Verifier.sol\":24610:24611  f */\n      dup2\n        /* \".deps/github/succinctlabs/sp1-contracts/contracts/src/v5.0.0/Groth16Verifier.sol\":24603:24608  0x300 */\n      0x0300\n        /* \".deps/github/succinctlabs/sp1-contracts/contracts/src/v5.0.0/Groth16Verifier.sol\":24600:24601  f */\n      dup4\n        /* \".deps/github/succinctlabs/sp1-contracts/contracts/src/v5.0.0/Groth16Verifier.sol\":24581:24598  PRECOMPILE_VERIFY */\n      0x08\n        /* \".deps/github/succinctlabs/sp1-contracts/contracts/src/v5.0.0/Groth16Verifier.sol\":24574:24579  gas() */\n      gas\n        /* \".deps/github/succinctlabs/sp1-contracts/contracts/src/v5.0.0/Groth16Verifier.sol\":24563:24618  staticcall(gas(), PRECOMPILE_VERIFY, f, 0x300, f, 0x20) */\n      staticcall\n        /* \".deps/github/succinctlabs/sp1-contracts/contracts/src/v5.0.0/Groth16Verifier.sol\":24552:24618  success := staticcall(gas(), PRECOMPILE_VERIFY, f, 0x300, f, 0x20) */\n      swap2\n      pop\n        /* \".deps/github/succinctlabs/sp1-contracts/contracts/src/v5.0.0/Groth16Verifier.sol\":24728:24729  f */\n      dup1\n        /* \".deps/github/succinctlabs/sp1-contracts/contracts/src/v5.0.0/Groth16Verifier.sol\":24722:24730  mload(f) */\n      mload\n        /* \".deps/github/succinctlabs/sp1-contracts/contracts/src/v5.0.0/Groth16Verifier.sol\":24713:24720  success */\n      dup3\n        /* \".deps/github/succinctlabs/sp1-contracts/contracts/src/v5.0.0/Groth16Verifier.sol\":24709:24731  and(success, mload(f)) */\n      and\n        /* \".deps/github/succinctlabs/sp1-contracts/contracts/src/v5.0.0/Groth16Verifier.sol\":24698:24731  success := and(success, mload(f)) */\n      swap2\n      pop\n        /* \".deps/github/succinctlabs/sp1-contracts/contracts/src/v5.0.0/Groth16Verifier.sol\":23241:24741  {... */\n      pop\n        /* \".deps/github/succinctlabs/sp1-contracts/contracts/src/v5.0.0/Groth16Verifier.sol\":24755:24762  success */\n      dup1\n        /* \".deps/github/succinctlabs/sp1-contracts/contracts/src/v5.0.0/Groth16Verifier.sol\":24750:24963  if (!success) {... */\n      tag_56\n      jumpi\n        /* \".deps/github/succinctlabs/sp1-contracts/contracts/src/v5.0.0/Groth16Verifier.sol\":24938:24952  ProofInvalid() */\n      mload(0x40)\n      0x7fcdd1f400000000000000000000000000000000000000000000000000000000\n      dup2\n      mstore\n      0x04\n      add\n      mload(0x40)\n      dup1\n      swap2\n      sub\n      swap1\n      revert\n        /* \".deps/github/succinctlabs/sp1-contracts/contracts/src/v5.0.0/Groth16Verifier.sol\":24750:24963  if (!success) {... */\n    tag_56:\n        /* \".deps/github/succinctlabs/sp1-contracts/contracts/src/v5.0.0/Groth16Verifier.sol\":22951:24969  {... */\n      pop\n      pop\n      pop\n        /* \".deps/github/succinctlabs/sp1-contracts/contracts/src/v5.0.0/Groth16Verifier.sol\":22847:24969  function Verify(... */\n      pop\n      pop\n      jump\t// out\n        /* \".deps/github/succinctlabs/sp1-contracts/contracts/src/v5.0.0/Groth16Verifier.sol\":20075:22321  function verifyCompressedProof(... */\n    tag_19:\n        /* \".deps/github/succinctlabs/sp1-contracts/contracts/src/v5.0.0/Groth16Verifier.sol\":20214:20241  uint256[24] memory pairings */\n      tag_58\n      tag_59\n      jump\t// in\n    tag_58:\n        /* \".deps/github/succinctlabs/sp1-contracts/contracts/src/v5.0.0/Groth16Verifier.sol\":20267:20277  uint256 Ax */\n      0x00\n        /* \".deps/github/succinctlabs/sp1-contracts/contracts/src/v5.0.0/Groth16Verifier.sol\":20279:20289  uint256 Ay */\n      0x00\n        /* \".deps/github/succinctlabs/sp1-contracts/contracts/src/v5.0.0/Groth16Verifier.sol\":20293:20326  decompress_g1(compressedProof[0]) */\n      tag_60\n        /* \".deps/github/succinctlabs/sp1-contracts/contracts/src/v5.0.0/Groth16Verifier.sol\":20307:20322  compressedProof */\n      dup6\n        /* \".deps/github/succinctlabs/sp1-contracts/contracts/src/v5.0.0/Groth16Verifier.sol\":20323:20324  0 */\n      0x00\n        /* \".deps/github/succinctlabs/sp1-contracts/contracts/src/v5.0.0/Groth16Verifier.sol\":20307:20325  compressedProof[0] */\n      0x04\n      dup2\n      lt\n      tag_61\n      jumpi\n      tag_62\n      tag_26\n      jump\t// in\n    tag_62:\n    tag_61:\n      0x20\n      mul\n      add\n      calldataload\n        /* \".deps/github/succinctlabs/sp1-contracts/contracts/src/v5.0.0/Groth16Verifier.sol\":20293:20306  decompress_g1 */\n      tag_63\n        /* \".deps/github/succinctlabs/sp1-contracts/contracts/src/v5.0.0/Groth16Verifier.sol\":20293:20326  decompress_g1(compressedProof[0]) */\n      jump\t// in\n    tag_60:\n        /* \".deps/github/succinctlabs/sp1-contracts/contracts/src/v5.0.0/Groth16Verifier.sol\":20266:20326  (uint256 Ax, uint256 Ay) = decompress_g1(compressedProof[0]) */\n      swap2\n      pop\n      swap2\n      pop\n        /* \".deps/github/succinctlabs/sp1-contracts/contracts/src/v5.0.0/Groth16Verifier.sol\":20341:20352  uint256 Bx0 */\n      0x00\n        /* \".deps/github/succinctlabs/sp1-contracts/contracts/src/v5.0.0/Groth16Verifier.sol\":20354:20365  uint256 Bx1 */\n      0x00\n        /* \".deps/github/succinctlabs/sp1-contracts/contracts/src/v5.0.0/Groth16Verifier.sol\":20367:20378  uint256 By0 */\n      0x00\n        /* \".deps/github/succinctlabs/sp1-contracts/contracts/src/v5.0.0/Groth16Verifier.sol\":20380:20391  uint256 By1 */\n      0x00\n        /* \".deps/github/succinctlabs/sp1-contracts/contracts/src/v5.0.0/Groth16Verifier.sol\":20395:20448  decompress_g2(compressedProof[2], compressedProof[1]) */\n      tag_64\n        /* \".deps/github/succinctlabs/sp1-contracts/contracts/src/v5.0.0/Groth16Verifier.sol\":20409:20424  compressedProof */\n      dup10\n        /* \".deps/github/succinctlabs/sp1-contracts/contracts/src/v5.0.0/Groth16Verifier.sol\":20425:20426  2 */\n      0x02\n        /* \".deps/github/succinctlabs/sp1-contracts/contracts/src/v5.0.0/Groth16Verifier.sol\":20409:20427  compressedProof[2] */\n      0x04\n      dup2\n      lt\n      tag_65\n      jumpi\n      tag_66\n      tag_26\n      jump\t// in\n    tag_66:\n    tag_65:\n      0x20\n      mul\n      add\n      calldataload\n        /* \".deps/github/succinctlabs/sp1-contracts/contracts/src/v5.0.0/Groth16Verifier.sol\":20429:20444  compressedProof */\n      dup11\n        /* \".deps/github/succinctlabs/sp1-contracts/contracts/src/v5.0.0/Groth16Verifier.sol\":20445:20446  1 */\n      0x01\n        /* \".deps/github/succinctlabs/sp1-contracts/contracts/src/v5.0.0/Groth16Verifier.sol\":20429:20447  compressedProof[1] */\n      0x04\n      dup2\n      lt\n      tag_67\n      jumpi\n      tag_68\n      tag_26\n      jump\t// in\n    tag_68:\n    tag_67:\n      0x20\n      mul\n      add\n      calldataload\n        /* \".deps/github/succinctlabs/sp1-contracts/contracts/src/v5.0.0/Groth16Verifier.sol\":20395:20408  decompress_g2 */\n      tag_69\n        /* \".deps/github/succinctlabs/sp1-contracts/contracts/src/v5.0.0/Groth16Verifier.sol\":20395:20448  decompress_g2(compressedProof[2], compressedProof[1]) */\n      jump\t// in\n    tag_64:\n        /* \".deps/github/succinctlabs/sp1-contracts/contracts/src/v5.0.0/Groth16Verifier.sol\":20340:20448  (uint256 Bx0, uint256 Bx1, uint256 By0, uint256 By1) = decompress_g2(compressedProof[2], compressedProof[1]) */\n      swap4\n      pop\n      swap4\n      pop\n      swap4\n      pop\n      swap4\n      pop\n        /* \".deps/github/succinctlabs/sp1-contracts/contracts/src/v5.0.0/Groth16Verifier.sol\":20463:20473  uint256 Cx */\n      0x00\n        /* \".deps/github/succinctlabs/sp1-contracts/contracts/src/v5.0.0/Groth16Verifier.sol\":20475:20485  uint256 Cy */\n      0x00\n        /* \".deps/github/succinctlabs/sp1-contracts/contracts/src/v5.0.0/Groth16Verifier.sol\":20489:20522  decompress_g1(compressedProof[3]) */\n      tag_70\n        /* \".deps/github/succinctlabs/sp1-contracts/contracts/src/v5.0.0/Groth16Verifier.sol\":20503:20518  compressedProof */\n      dup12\n        /* \".deps/github/succinctlabs/sp1-contracts/contracts/src/v5.0.0/Groth16Verifier.sol\":20519:20520  3 */\n      0x03\n        /* \".deps/github/succinctlabs/sp1-contracts/contracts/src/v5.0.0/Groth16Verifier.sol\":20503:20521  compressedProof[3] */\n      0x04\n      dup2\n      lt\n      tag_71\n      jumpi\n      tag_72\n      tag_26\n      jump\t// in\n    tag_72:\n    tag_71:\n      0x20\n      mul\n      add\n      calldataload\n        /* \".deps/github/succinctlabs/sp1-contracts/contracts/src/v5.0.0/Groth16Verifier.sol\":20489:20502  decompress_g1 */\n      tag_63\n        /* \".deps/github/succinctlabs/sp1-contracts/contracts/src/v5.0.0/Groth16Verifier.sol\":20489:20522  decompress_g1(compressedProof[3]) */\n      jump\t// in\n    tag_70:\n        /* \".deps/github/succinctlabs/sp1-contracts/contracts/src/v5.0.0/Groth16Verifier.sol\":20462:20522  (uint256 Cx, uint256 Cy) = decompress_g1(compressedProof[3]) */\n      swap2\n      pop\n      swap2\n      pop\n        /* \".deps/github/succinctlabs/sp1-contracts/contracts/src/v5.0.0/Groth16Verifier.sol\":20537:20547  uint256 Lx */\n      0x00\n        /* \".deps/github/succinctlabs/sp1-contracts/contracts/src/v5.0.0/Groth16Verifier.sol\":20549:20559  uint256 Ly */\n      0x00\n        /* \".deps/github/succinctlabs/sp1-contracts/contracts/src/v5.0.0/Groth16Verifier.sol\":20563:20584  publicInputMSM(input) */\n      tag_73\n        /* \".deps/github/succinctlabs/sp1-contracts/contracts/src/v5.0.0/Groth16Verifier.sol\":20578:20583  input */\n      dup13\n        /* \".deps/github/succinctlabs/sp1-contracts/contracts/src/v5.0.0/Groth16Verifier.sol\":20563:20577  publicInputMSM */\n      tag_55\n        /* \".deps/github/succinctlabs/sp1-contracts/contracts/src/v5.0.0/Groth16Verifier.sol\":20563:20584  publicInputMSM(input) */\n      jump\t// in\n    tag_73:\n        /* \".deps/github/succinctlabs/sp1-contracts/contracts/src/v5.0.0/Groth16Verifier.sol\":20536:20584  (uint256 Lx, uint256 Ly) = publicInputMSM(input) */\n      swap2\n      pop\n      swap2\n      pop\n        /* \".deps/github/succinctlabs/sp1-contracts/contracts/src/v5.0.0/Groth16Verifier.sol\":20855:20857  Ax */\n      dup10\n        /* \".deps/github/succinctlabs/sp1-contracts/contracts/src/v5.0.0/Groth16Verifier.sol\":20840:20848  pairings */\n      dup12\n        /* \".deps/github/succinctlabs/sp1-contracts/contracts/src/v5.0.0/Groth16Verifier.sol\":20850:20851  0 */\n      0x00\n        /* \".deps/github/succinctlabs/sp1-contracts/contracts/src/v5.0.0/Groth16Verifier.sol\":20840:20852  pairings[ 0] */\n      0x18\n      dup2\n      lt\n      tag_74\n      jumpi\n      tag_75\n      tag_26\n      jump\t// in\n    tag_75:\n    tag_74:\n      0x20\n      mul\n      add\n        /* \".deps/github/succinctlabs/sp1-contracts/contracts/src/v5.0.0/Groth16Verifier.sol\":20840:20857  pairings[ 0] = Ax */\n      dup2\n      dup2\n      mstore\n      pop\n      pop\n        /* \".deps/github/succinctlabs/sp1-contracts/contracts/src/v5.0.0/Groth16Verifier.sol\":20886:20888  Ay */\n      dup9\n        /* \".deps/github/succinctlabs/sp1-contracts/contracts/src/v5.0.0/Groth16Verifier.sol\":20871:20879  pairings */\n      dup12\n        /* \".deps/github/succinctlabs/sp1-contracts/contracts/src/v5.0.0/Groth16Verifier.sol\":20881:20882  1 */\n      0x01\n        /* \".deps/github/succinctlabs/sp1-contracts/contracts/src/v5.0.0/Groth16Verifier.sol\":20871:20883  pairings[ 1] */\n      0x18\n      dup2\n      lt\n      tag_76\n      jumpi\n      tag_77\n      tag_26\n      jump\t// in\n    tag_77:\n    tag_76:\n      0x20\n      mul\n      add\n        /* \".deps/github/succinctlabs/sp1-contracts/contracts/src/v5.0.0/Groth16Verifier.sol\":20871:20888  pairings[ 1] = Ay */\n      dup2\n      dup2\n      mstore\n      pop\n      pop\n        /* \".deps/github/succinctlabs/sp1-contracts/contracts/src/v5.0.0/Groth16Verifier.sol\":20917:20920  Bx1 */\n      dup7\n        /* \".deps/github/succinctlabs/sp1-contracts/contracts/src/v5.0.0/Groth16Verifier.sol\":20902:20910  pairings */\n      dup12\n        /* \".deps/github/succinctlabs/sp1-contracts/contracts/src/v5.0.0/Groth16Verifier.sol\":20912:20913  2 */\n      0x02\n        /* \".deps/github/succinctlabs/sp1-contracts/contracts/src/v5.0.0/Groth16Verifier.sol\":20902:20914  pairings[ 2] */\n      0x18\n      dup2\n      lt\n      tag_78\n      jumpi\n      tag_79\n      tag_26\n      jump\t// in\n    tag_79:\n    tag_78:\n      0x20\n      mul\n      add\n        /* \".deps/github/succinctlabs/sp1-contracts/contracts/src/v5.0.0/Groth16Verifier.sol\":20902:20920  pairings[ 2] = Bx1 */\n      dup2\n      dup2\n      mstore\n      pop\n      pop\n        /* \".deps/github/succinctlabs/sp1-contracts/contracts/src/v5.0.0/Groth16Verifier.sol\":20949:20952  Bx0 */\n      dup8\n        /* \".deps/github/succinctlabs/sp1-contracts/contracts/src/v5.0.0/Groth16Verifier.sol\":20934:20942  pairings */\n      dup12\n        /* \".deps/github/succinctlabs/sp1-contracts/contracts/src/v5.0.0/Groth16Verifier.sol\":20944:20945  3 */\n      0x03\n        /* \".deps/github/succinctlabs/sp1-contracts/contracts/src/v5.0.0/Groth16Verifier.sol\":20934:20946  pairings[ 3] */\n      0x18\n      dup2\n      lt\n      tag_80\n      jumpi\n      tag_81\n      tag_26\n      jump\t// in\n    tag_81:\n    tag_80:\n      0x20\n      mul\n      add\n        /* \".deps/github/succinctlabs/sp1-contracts/contracts/src/v5.0.0/Groth16Verifier.sol\":20934:20952  pairings[ 3] = Bx0 */\n      dup2\n      dup2\n      mstore\n      pop\n      pop\n        /* \".deps/github/succinctlabs/sp1-contracts/contracts/src/v5.0.0/Groth16Verifier.sol\":20981:20984  By1 */\n      dup5\n        /* \".deps/github/succinctlabs/sp1-contracts/contracts/src/v5.0.0/Groth16Verifier.sol\":20966:20974  pairings */\n      dup12\n        /* \".deps/github/succinctlabs/sp1-contracts/contracts/src/v5.0.0/Groth16Verifier.sol\":20976:20977  4 */\n      0x04\n        /* \".deps/github/succinctlabs/sp1-contracts/contracts/src/v5.0.0/Groth16Verifier.sol\":20966:20978  pairings[ 4] */\n      0x18\n      dup2\n      lt\n      tag_82\n      jumpi\n      tag_83\n      tag_26\n      jump\t// in\n    tag_83:\n    tag_82:\n      0x20\n      mul\n      add\n        /* \".deps/github/succinctlabs/sp1-contracts/contracts/src/v5.0.0/Groth16Verifier.sol\":20966:20984  pairings[ 4] = By1 */\n      dup2\n      dup2\n      mstore\n      pop\n      pop\n        /* \".deps/github/succinctlabs/sp1-contracts/contracts/src/v5.0.0/Groth16Verifier.sol\":21013:21016  By0 */\n      dup6\n        /* \".deps/github/succinctlabs/sp1-contracts/contracts/src/v5.0.0/Groth16Verifier.sol\":20998:21006  pairings */\n      dup12\n        /* \".deps/github/succinctlabs/sp1-contracts/contracts/src/v5.0.0/Groth16Verifier.sol\":21008:21009  5 */\n      0x05\n        /* \".deps/github/succinctlabs/sp1-contracts/contracts/src/v5.0.0/Groth16Verifier.sol\":20998:21010  pairings[ 5] */\n      0x18\n      dup2\n      lt\n      tag_84\n      jumpi\n      tag_85\n      tag_26\n      jump\t// in\n    tag_85:\n    tag_84:\n      0x20\n      mul\n      add\n        /* \".deps/github/succinctlabs/sp1-contracts/contracts/src/v5.0.0/Groth16Verifier.sol\":20998:21016  pairings[ 5] = By0 */\n      dup2\n      dup2\n      mstore\n      pop\n      pop\n        /* \".deps/github/succinctlabs/sp1-contracts/contracts/src/v5.0.0/Groth16Verifier.sol\":21070:21072  Cx */\n      dup4\n        /* \".deps/github/succinctlabs/sp1-contracts/contracts/src/v5.0.0/Groth16Verifier.sol\":21055:21063  pairings */\n      dup12\n        /* \".deps/github/succinctlabs/sp1-contracts/contracts/src/v5.0.0/Groth16Verifier.sol\":21065:21066  6 */\n      0x06\n        /* \".deps/github/succinctlabs/sp1-contracts/contracts/src/v5.0.0/Groth16Verifier.sol\":21055:21067  pairings[ 6] */\n      0x18\n      dup2\n      lt\n      tag_86\n      jumpi\n      tag_87\n      tag_26\n      jump\t// in\n    tag_87:\n    tag_86:\n      0x20\n      mul\n      add\n        /* \".deps/github/succinctlabs/sp1-contracts/contracts/src/v5.0.0/Groth16Verifier.sol\":21055:21072  pairings[ 6] = Cx */\n      dup2\n      dup2\n      mstore\n      pop\n      pop\n        /* \".deps/github/succinctlabs/sp1-contracts/contracts/src/v5.0.0/Groth16Verifier.sol\":21101:21103  Cy */\n      dup3\n        /* \".deps/github/succinctlabs/sp1-contracts/contracts/src/v5.0.0/Groth16Verifier.sol\":21086:21094  pairings */\n      dup12\n        /* \".deps/github/succinctlabs/sp1-contracts/contracts/src/v5.0.0/Groth16Verifier.sol\":21096:21097  7 */\n      0x07\n        /* \".deps/github/succinctlabs/sp1-contracts/contracts/src/v5.0.0/Groth16Verifier.sol\":21086:21098  pairings[ 7] */\n      0x18\n      dup2\n      lt\n      tag_88\n      jumpi\n      tag_89\n      tag_26\n      jump\t// in\n    tag_89:\n    tag_88:\n      0x20\n      mul\n      add\n        /* \".deps/github/succinctlabs/sp1-contracts/contracts/src/v5.0.0/Groth16Verifier.sol\":21086:21103  pairings[ 7] = Cy */\n      dup2\n      dup2\n      mstore\n      pop\n      pop\n        /* \".deps/github/succinctlabs/sp1-contracts/contracts/src/v5.0.0/Groth16Verifier.sol\":4150:4227  13017767206419180294867239590191240882490168779777616723978810680471506089190 */\n      0x1cc7cb8de715675f21f01ecc9b46d236e0865e0cc020024521998269845f74e6\n        /* \".deps/github/succinctlabs/sp1-contracts/contracts/src/v5.0.0/Groth16Verifier.sol\":21117:21125  pairings */\n      dup12\n        /* \".deps/github/succinctlabs/sp1-contracts/contracts/src/v5.0.0/Groth16Verifier.sol\":21127:21128  8 */\n      0x08\n        /* \".deps/github/succinctlabs/sp1-contracts/contracts/src/v5.0.0/Groth16Verifier.sol\":21117:21129  pairings[ 8] */\n      0x18\n      dup2\n      lt\n      tag_90\n      jumpi\n      tag_91\n      tag_26\n      jump\t// in\n    tag_91:\n    tag_90:\n      0x20\n      mul\n      add\n        /* \".deps/github/succinctlabs/sp1-contracts/contracts/src/v5.0.0/Groth16Verifier.sol\":21117:21145  pairings[ 8] = DELTA_NEG_X_1 */\n      dup2\n      dup2\n      mstore\n      pop\n      pop\n        /* \".deps/github/succinctlabs/sp1-contracts/contracts/src/v5.0.0/Groth16Verifier.sol\":4035:4111  1807939758600928081661535078044266309701426477869595321608690071623627252461 */\n      0x03ff41f4ba0c37fe2caf27354d28e4b8f83d3b76777a63b327d736bffb0122ed\n        /* \".deps/github/succinctlabs/sp1-contracts/contracts/src/v5.0.0/Groth16Verifier.sol\":21159:21167  pairings */\n      dup12\n        /* \".deps/github/succinctlabs/sp1-contracts/contracts/src/v5.0.0/Groth16Verifier.sol\":21169:21170  9 */\n      0x09\n        /* \".deps/github/succinctlabs/sp1-contracts/contracts/src/v5.0.0/Groth16Verifier.sol\":21159:21171  pairings[ 9] */\n      0x18\n      dup2\n      lt\n      tag_92\n      jumpi\n      tag_93\n      tag_26\n      jump\t// in\n    tag_93:\n    tag_92:\n      0x20\n      mul\n      add\n        /* \".deps/github/succinctlabs/sp1-contracts/contracts/src/v5.0.0/Groth16Verifier.sol\":21159:21187  pairings[ 9] = DELTA_NEG_X_0 */\n      dup2\n      dup2\n      mstore\n      pop\n      pop\n        /* \".deps/github/succinctlabs/sp1-contracts/contracts/src/v5.0.0/Groth16Verifier.sol\":4382:4457  707821308472421780425082520239282952693670279239989952629124761519869475067 */\n      0x01909cd7827e0278e6b60843a4abc7b111d7f8b2725cd5902a6b20da7a2938fb\n        /* \".deps/github/succinctlabs/sp1-contracts/contracts/src/v5.0.0/Groth16Verifier.sol\":21201:21209  pairings */\n      dup12\n        /* \".deps/github/succinctlabs/sp1-contracts/contracts/src/v5.0.0/Groth16Verifier.sol\":21210:21212  10 */\n      0x0a\n        /* \".deps/github/succinctlabs/sp1-contracts/contracts/src/v5.0.0/Groth16Verifier.sol\":21201:21213  pairings[10] */\n      0x18\n      dup2\n      lt\n      tag_94\n      jumpi\n      tag_95\n      tag_26\n      jump\t// in\n    tag_95:\n    tag_94:\n      0x20\n      mul\n      add\n        /* \".deps/github/succinctlabs/sp1-contracts/contracts/src/v5.0.0/Groth16Verifier.sol\":21201:21229  pairings[10] = DELTA_NEG_Y_1 */\n      dup2\n      dup2\n      mstore\n      pop\n      pop\n        /* \".deps/github/succinctlabs/sp1-contracts/contracts/src/v5.0.0/Groth16Verifier.sol\":4266:4343  11385252965472363874004017020523979267854101512663014352368174256411716100034 */\n      0x192bd3274441670227b4f69a44005b8711266e474227c6439ca25ca8e1ec1fc2\n        /* \".deps/github/succinctlabs/sp1-contracts/contracts/src/v5.0.0/Groth16Verifier.sol\":21243:21251  pairings */\n      dup12\n        /* \".deps/github/succinctlabs/sp1-contracts/contracts/src/v5.0.0/Groth16Verifier.sol\":21252:21254  11 */\n      0x0b\n        /* \".deps/github/succinctlabs/sp1-contracts/contracts/src/v5.0.0/Groth16Verifier.sol\":21243:21255  pairings[11] */\n      0x18\n      dup2\n      lt\n      tag_96\n      jumpi\n      tag_97\n      tag_26\n      jump\t// in\n    tag_97:\n    tag_96:\n      0x20\n      mul\n      add\n        /* \".deps/github/succinctlabs/sp1-contracts/contracts/src/v5.0.0/Groth16Verifier.sol\":21243:21271  pairings[11] = DELTA_NEG_Y_0 */\n      dup2\n      dup2\n      mstore\n      pop\n      pop\n        /* \".deps/github/succinctlabs/sp1-contracts/contracts/src/v5.0.0/Groth16Verifier.sol\":2745:2822  20491192805390485299153009773594534940189261866228447918068658471970481763042 */\n      0x2d4d9aa7e302d9df41749d5507949d05dbea33fbb16c643b22f599a2be6df2e2\n        /* \".deps/github/succinctlabs/sp1-contracts/contracts/src/v5.0.0/Groth16Verifier.sol\":21311:21319  pairings */\n      dup12\n        /* \".deps/github/succinctlabs/sp1-contracts/contracts/src/v5.0.0/Groth16Verifier.sol\":21320:21322  12 */\n      0x0c\n        /* \".deps/github/succinctlabs/sp1-contracts/contracts/src/v5.0.0/Groth16Verifier.sol\":21311:21323  pairings[12] */\n      0x18\n      dup2\n      lt\n      tag_98\n      jumpi\n      tag_99\n      tag_26\n      jump\t// in\n    tag_99:\n    tag_98:\n      0x20\n      mul\n      add\n        /* \".deps/github/succinctlabs/sp1-contracts/contracts/src/v5.0.0/Groth16Verifier.sol\":21311:21333  pairings[12] = ALPHA_X */\n      dup2\n      dup2\n      mstore\n      pop\n      pop\n        /* \".deps/github/succinctlabs/sp1-contracts/contracts/src/v5.0.0/Groth16Verifier.sol\":2855:2931  9383485363053290200918347156157836566562967994039712273449902621266178545958 */\n      0x14bedd503c37ceb061d8ec60209fe345ce89830a19230301f076caff004d1926\n        /* \".deps/github/succinctlabs/sp1-contracts/contracts/src/v5.0.0/Groth16Verifier.sol\":21347:21355  pairings */\n      dup12\n        /* \".deps/github/succinctlabs/sp1-contracts/contracts/src/v5.0.0/Groth16Verifier.sol\":21356:21358  13 */\n      0x0d\n        /* \".deps/github/succinctlabs/sp1-contracts/contracts/src/v5.0.0/Groth16Verifier.sol\":21347:21359  pairings[13] */\n      0x18\n      dup2\n      lt\n      tag_100\n      jumpi\n      tag_101\n      tag_26\n      jump\t// in\n    tag_101:\n    tag_100:\n      0x20\n      mul\n      add\n        /* \".deps/github/succinctlabs/sp1-contracts/contracts/src/v5.0.0/Groth16Verifier.sol\":21347:21369  pairings[13] = ALPHA_Y */\n      dup2\n      dup2\n      mstore\n      pop\n      pop\n        /* \".deps/github/succinctlabs/sp1-contracts/contracts/src/v5.0.0/Groth16Verifier.sol\":3131:3207  4252822878758300859123897981450591353533073413197771768651442665752259397132 */\n      0x0967032fcbf776d1afc985f88877f182d38480a653f2decaa9794cbc3bf3060c\n        /* \".deps/github/succinctlabs/sp1-contracts/contracts/src/v5.0.0/Groth16Verifier.sol\":21383:21391  pairings */\n      dup12\n        /* \".deps/github/succinctlabs/sp1-contracts/contracts/src/v5.0.0/Groth16Verifier.sol\":21392:21394  14 */\n      0x0e\n        /* \".deps/github/succinctlabs/sp1-contracts/contracts/src/v5.0.0/Groth16Verifier.sol\":21383:21395  pairings[14] */\n      0x18\n      dup2\n      lt\n      tag_102\n      jumpi\n      tag_103\n      tag_26\n      jump\t// in\n    tag_103:\n    tag_102:\n      0x20\n      mul\n      add\n        /* \".deps/github/succinctlabs/sp1-contracts/contracts/src/v5.0.0/Groth16Verifier.sol\":21383:21410  pairings[14] = BETA_NEG_X_1 */\n      dup2\n      dup2\n      mstore\n      pop\n      pop\n        /* \".deps/github/succinctlabs/sp1-contracts/contracts/src/v5.0.0/Groth16Verifier.sol\":3017:3093  6375614351688725206403948262868962793625744043794305715222011528459656738731 */\n      0x0e187847ad4c798374d0d6732bf501847dd68bc0e071241e0213bc7fc13db7ab\n        /* \".deps/github/succinctlabs/sp1-contracts/contracts/src/v5.0.0/Groth16Verifier.sol\":21424:21432  pairings */\n      dup12\n        /* \".deps/github/succinctlabs/sp1-contracts/contracts/src/v5.0.0/Groth16Verifier.sol\":21433:21435  15 */\n      0x0f\n        /* \".deps/github/succinctlabs/sp1-contracts/contracts/src/v5.0.0/Groth16Verifier.sol\":21424:21436  pairings[15] */\n      0x18\n      dup2\n      lt\n      tag_104\n      jumpi\n      tag_105\n      tag_26\n      jump\t// in\n    tag_105:\n    tag_104:\n      0x20\n      mul\n      add\n        /* \".deps/github/succinctlabs/sp1-contracts/contracts/src/v5.0.0/Groth16Verifier.sol\":21424:21451  pairings[15] = BETA_NEG_X_0 */\n      dup2\n      dup2\n      mstore\n      pop\n      pop\n        /* \".deps/github/succinctlabs/sp1-contracts/contracts/src/v5.0.0/Groth16Verifier.sol\":3360:3434  41207766310529818958173054109690360505148424997958324311878202295167071904 */\n      0x1752a100a72fdf1e5a5d6ea841cc20ec838bccfcf7bd559e79f1c9c759b6a0\n        /* \".deps/github/succinctlabs/sp1-contracts/contracts/src/v5.0.0/Groth16Verifier.sol\":21465:21473  pairings */\n      dup12\n        /* \".deps/github/succinctlabs/sp1-contracts/contracts/src/v5.0.0/Groth16Verifier.sol\":21474:21476  16 */\n      0x10\n        /* \".deps/github/succinctlabs/sp1-contracts/contracts/src/v5.0.0/Groth16Verifier.sol\":21465:21477  pairings[16] */\n      0x18\n      dup2\n      lt\n      tag_106\n      jumpi\n      tag_107\n      tag_26\n      jump\t// in\n    tag_107:\n    tag_106:\n      0x20\n      mul\n      add\n        /* \".deps/github/succinctlabs/sp1-contracts/contracts/src/v5.0.0/Groth16Verifier.sol\":21465:21492  pairings[16] = BETA_NEG_Y_1 */\n      dup2\n      dup2\n      mstore\n      pop\n      pop\n        /* \".deps/github/succinctlabs/sp1-contracts/contracts/src/v5.0.0/Groth16Verifier.sol\":3245:3322  11383000245469012944693504663162918391286475477077232690815866754273895001727 */\n      0x192a8cc13cd9f762871f21e43451c6ca9eeab2cb2987c4e366a185c25dac2e7f\n        /* \".deps/github/succinctlabs/sp1-contracts/contracts/src/v5.0.0/Groth16Verifier.sol\":21506:21514  pairings */\n      dup12\n        /* \".deps/github/succinctlabs/sp1-contracts/contracts/src/v5.0.0/Groth16Verifier.sol\":21515:21517  17 */\n      0x11\n        /* \".deps/github/succinctlabs/sp1-contracts/contracts/src/v5.0.0/Groth16Verifier.sol\":21506:21518  pairings[17] */\n      0x18\n      dup2\n      lt\n      tag_108\n      jumpi\n      tag_109\n      tag_26\n      jump\t// in\n    tag_109:\n    tag_108:\n      0x20\n      mul\n      add\n        /* \".deps/github/succinctlabs/sp1-contracts/contracts/src/v5.0.0/Groth16Verifier.sol\":21506:21533  pairings[17] = BETA_NEG_Y_0 */\n      dup2\n      dup2\n      mstore\n      pop\n      pop\n        /* \".deps/github/succinctlabs/sp1-contracts/contracts/src/v5.0.0/Groth16Verifier.sol\":21591:21593  Lx */\n      dup2\n        /* \".deps/github/succinctlabs/sp1-contracts/contracts/src/v5.0.0/Groth16Verifier.sol\":21576:21584  pairings */\n      dup12\n        /* \".deps/github/succinctlabs/sp1-contracts/contracts/src/v5.0.0/Groth16Verifier.sol\":21585:21587  18 */\n      0x12\n        /* \".deps/github/succinctlabs/sp1-contracts/contracts/src/v5.0.0/Groth16Verifier.sol\":21576:21588  pairings[18] */\n      0x18\n      dup2\n      lt\n      tag_110\n      jumpi\n      tag_111\n      tag_26\n      jump\t// in\n    tag_111:\n    tag_110:\n      0x20\n      mul\n      add\n        /* \".deps/github/succinctlabs/sp1-contracts/contracts/src/v5.0.0/Groth16Verifier.sol\":21576:21593  pairings[18] = Lx */\n      dup2\n      dup2\n      mstore\n      pop\n      pop\n        /* \".deps/github/succinctlabs/sp1-contracts/contracts/src/v5.0.0/Groth16Verifier.sol\":21622:21624  Ly */\n      dup1\n        /* \".deps/github/succinctlabs/sp1-contracts/contracts/src/v5.0.0/Groth16Verifier.sol\":21607:21615  pairings */\n      dup12\n        /* \".deps/github/succinctlabs/sp1-contracts/contracts/src/v5.0.0/Groth16Verifier.sol\":21616:21618  19 */\n      0x13\n        /* \".deps/github/succinctlabs/sp1-contracts/contracts/src/v5.0.0/Groth16Verifier.sol\":21607:21619  pairings[19] */\n      0x18\n      dup2\n      lt\n      tag_112\n      jumpi\n      tag_113\n      tag_26\n      jump\t// in\n    tag_113:\n    tag_112:\n      0x20\n      mul\n      add\n        /* \".deps/github/succinctlabs/sp1-contracts/contracts/src/v5.0.0/Groth16Verifier.sol\":21607:21624  pairings[19] = Ly */\n      dup2\n      dup2\n      mstore\n      pop\n      pop\n        /* \".deps/github/succinctlabs/sp1-contracts/contracts/src/v5.0.0/Groth16Verifier.sol\":3638:3715  11559732032986387107991004021392285783925812861821192530917403151452391805634 */\n      0x198e9393920d483a7260bfb731fb5d25f1aa493335a9e71297e485b7aef312c2\n        /* \".deps/github/succinctlabs/sp1-contracts/contracts/src/v5.0.0/Groth16Verifier.sol\":21638:21646  pairings */\n      dup12\n        /* \".deps/github/succinctlabs/sp1-contracts/contracts/src/v5.0.0/Groth16Verifier.sol\":21647:21649  20 */\n      0x14\n        /* \".deps/github/succinctlabs/sp1-contracts/contracts/src/v5.0.0/Groth16Verifier.sol\":21638:21650  pairings[20] */\n      0x18\n      dup2\n      lt\n      tag_114\n      jumpi\n      tag_115\n      tag_26\n      jump\t// in\n    tag_115:\n    tag_114:\n      0x20\n      mul\n      add\n        /* \".deps/github/succinctlabs/sp1-contracts/contracts/src/v5.0.0/Groth16Verifier.sol\":21638:21666  pairings[20] = GAMMA_NEG_X_1 */\n      dup2\n      dup2\n      mstore\n      pop\n      pop\n        /* \".deps/github/succinctlabs/sp1-contracts/contracts/src/v5.0.0/Groth16Verifier.sol\":3522:3599  10857046999023057135944570762232829481370756359578518086990519993285655852781 */\n      0x1800deef121f1e76426a00665e5c4479674322d4f75edadd46debd5cd992f6ed\n        /* \".deps/github/succinctlabs/sp1-contracts/contracts/src/v5.0.0/Groth16Verifier.sol\":21680:21688  pairings */\n      dup12\n        /* \".deps/github/succinctlabs/sp1-contracts/contracts/src/v5.0.0/Groth16Verifier.sol\":21689:21691  21 */\n      0x15\n        /* \".deps/github/succinctlabs/sp1-contracts/contracts/src/v5.0.0/Groth16Verifier.sol\":21680:21692  pairings[21] */\n      0x18\n      dup2\n      lt\n      tag_116\n      jumpi\n      tag_117\n      tag_26\n      jump\t// in\n    tag_117:\n    tag_116:\n      0x20\n      mul\n      add\n        /* \".deps/github/succinctlabs/sp1-contracts/contracts/src/v5.0.0/Groth16Verifier.sol\":21680:21708  pairings[21] = GAMMA_NEG_X_0 */\n      dup2\n      dup2\n      mstore\n      pop\n      pop\n        /* \".deps/github/succinctlabs/sp1-contracts/contracts/src/v5.0.0/Groth16Verifier.sol\":3870:3947  17805874995975841540914202342111839520379459829704422454583296818431106115052 */\n      0x275dc4a288d1afb3cbb1ac09187524c7db36395df7be3b99e673b13a075a65ec\n        /* \".deps/github/succinctlabs/sp1-contracts/contracts/src/v5.0.0/Groth16Verifier.sol\":21722:21730  pairings */\n      dup12\n        /* \".deps/github/succinctlabs/sp1-contracts/contracts/src/v5.0.0/Groth16Verifier.sol\":21731:21733  22 */\n      0x16\n        /* \".deps/github/succinctlabs/sp1-contracts/contracts/src/v5.0.0/Groth16Verifier.sol\":21722:21734  pairings[22] */\n      0x18\n      dup2\n      lt\n      tag_118\n      jumpi\n      tag_119\n      tag_26\n      jump\t// in\n    tag_119:\n    tag_118:\n      0x20\n      mul\n      add\n        /* \".deps/github/succinctlabs/sp1-contracts/contracts/src/v5.0.0/Groth16Verifier.sol\":21722:21750  pairings[22] = GAMMA_NEG_Y_1 */\n      dup2\n      dup2\n      mstore\n      pop\n      pop\n        /* \".deps/github/succinctlabs/sp1-contracts/contracts/src/v5.0.0/Groth16Verifier.sol\":3754:3831  13392588948715843804641432497768002650278120570034223513918757245338268106653 */\n      0x1d9befcd05a5323e6da4d435f3b617cdb3af83285c2df711ef39c01571827f9d\n        /* \".deps/github/succinctlabs/sp1-contracts/contracts/src/v5.0.0/Groth16Verifier.sol\":21764:21772  pairings */\n      dup12\n        /* \".deps/github/succinctlabs/sp1-contracts/contracts/src/v5.0.0/Groth16Verifier.sol\":21773:21775  23 */\n      0x17\n        /* \".deps/github/succinctlabs/sp1-contracts/contracts/src/v5.0.0/Groth16Verifier.sol\":21764:21776  pairings[23] */\n      0x18\n      dup2\n      lt\n      tag_120\n      jumpi\n      tag_121\n      tag_26\n      jump\t// in\n    tag_121:\n    tag_120:\n      0x20\n      mul\n      add\n        /* \".deps/github/succinctlabs/sp1-contracts/contracts/src/v5.0.0/Groth16Verifier.sol\":21764:21792  pairings[23] = GAMMA_NEG_Y_0 */\n      dup2\n      dup2\n      mstore\n      pop\n      pop\n        /* \".deps/github/succinctlabs/sp1-contracts/contracts/src/v5.0.0/Groth16Verifier.sol\":21846:21858  bool success */\n      0x00\n        /* \".deps/github/succinctlabs/sp1-contracts/contracts/src/v5.0.0/Groth16Verifier.sol\":21872:21896  uint256[1] memory output */\n      tag_122\n      tag_123\n      jump\t// in\n    tag_122:\n        /* \".deps/github/succinctlabs/sp1-contracts/contracts/src/v5.0.0/Groth16Verifier.sol\":22026:22030  0x20 */\n      0x20\n        /* \".deps/github/succinctlabs/sp1-contracts/contracts/src/v5.0.0/Groth16Verifier.sol\":22018:22024  output */\n      dup2\n        /* \".deps/github/succinctlabs/sp1-contracts/contracts/src/v5.0.0/Groth16Verifier.sol\":22011:22016  0x300 */\n      0x0300\n        /* \".deps/github/succinctlabs/sp1-contracts/contracts/src/v5.0.0/Groth16Verifier.sol\":22001:22009  pairings */\n      dup16\n        /* \".deps/github/succinctlabs/sp1-contracts/contracts/src/v5.0.0/Groth16Verifier.sol\":21982:21999  PRECOMPILE_VERIFY */\n      0x08\n        /* \".deps/github/succinctlabs/sp1-contracts/contracts/src/v5.0.0/Groth16Verifier.sol\":21975:21980  gas() */\n      gas\n        /* \".deps/github/succinctlabs/sp1-contracts/contracts/src/v5.0.0/Groth16Verifier.sol\":21964:22031  staticcall(gas(), PRECOMPILE_VERIFY, pairings, 0x300, output, 0x20) */\n      staticcall\n        /* \".deps/github/succinctlabs/sp1-contracts/contracts/src/v5.0.0/Groth16Verifier.sol\":21953:22031  success := staticcall(gas(), PRECOMPILE_VERIFY, pairings, 0x300, output, 0x20) */\n      swap2\n      pop\n        /* \".deps/github/succinctlabs/sp1-contracts/contracts/src/v5.0.0/Groth16Verifier.sol\":22063:22070  success */\n      dup2\n        /* \".deps/github/succinctlabs/sp1-contracts/contracts/src/v5.0.0/Groth16Verifier.sol\":22062:22070  !success */\n      iszero\n        /* \".deps/github/succinctlabs/sp1-contracts/contracts/src/v5.0.0/Groth16Verifier.sol\":22062:22088  !success || output[0] != 1 */\n      dup1\n      tag_124\n      jumpi\n      pop\n        /* \".deps/github/succinctlabs/sp1-contracts/contracts/src/v5.0.0/Groth16Verifier.sol\":22087:22088  1 */\n      0x01\n        /* \".deps/github/succinctlabs/sp1-contracts/contracts/src/v5.0.0/Groth16Verifier.sol\":22074:22080  output */\n      dup2\n        /* \".deps/github/succinctlabs/sp1-contracts/contracts/src/v5.0.0/Groth16Verifier.sol\":22081:22082  0 */\n      0x00\n        /* \".deps/github/succinctlabs/sp1-contracts/contracts/src/v5.0.0/Groth16Verifier.sol\":22074:22083  output[0] */\n      0x01\n      dup2\n      lt\n      tag_125\n      jumpi\n      tag_126\n      tag_26\n      jump\t// in\n    tag_126:\n    tag_125:\n      0x20\n      mul\n      add\n      mload\n        /* \".deps/github/succinctlabs/sp1-contracts/contracts/src/v5.0.0/Groth16Verifier.sol\":22074:22088  output[0] != 1 */\n      eq\n      iszero\n        /* \".deps/github/succinctlabs/sp1-contracts/contracts/src/v5.0.0/Groth16Verifier.sol\":22062:22088  !success || output[0] != 1 */\n    tag_124:\n        /* \".deps/github/succinctlabs/sp1-contracts/contracts/src/v5.0.0/Groth16Verifier.sol\":22058:22305  if (!success || output[0] != 1) {... */\n      iszero\n      tag_127\n      jumpi\n        /* \".deps/github/succinctlabs/sp1-contracts/contracts/src/v5.0.0/Groth16Verifier.sol\":22276:22290  ProofInvalid() */\n      mload(0x40)\n      0x7fcdd1f400000000000000000000000000000000000000000000000000000000\n      dup2\n      mstore\n      0x04\n      add\n      mload(0x40)\n      dup1\n      swap2\n      sub\n      swap1\n      revert\n        /* \".deps/github/succinctlabs/sp1-contracts/contracts/src/v5.0.0/Groth16Verifier.sol\":22058:22305  if (!success || output[0] != 1) {... */\n    tag_127:\n        /* \".deps/github/succinctlabs/sp1-contracts/contracts/src/v5.0.0/Groth16Verifier.sol\":20252:22315  {... */\n      pop\n      pop\n      pop\n      pop\n      pop\n      pop\n      pop\n      pop\n      pop\n      pop\n      pop\n      pop\n        /* \".deps/github/succinctlabs/sp1-contracts/contracts/src/v5.0.0/Groth16Verifier.sol\":20204:22321  {... */\n      pop\n        /* \".deps/github/succinctlabs/sp1-contracts/contracts/src/v5.0.0/Groth16Verifier.sol\":20075:22321  function verifyCompressedProof(... */\n      pop\n      pop\n      jump\t// out\n        /* \".deps/github/succinctlabs/sp1-contracts/contracts/src/v5.0.0/Groth16Verifier.sol\":9747:10447  function compress_g1(uint256 x, uint256 y) internal view returns (uint256 c) {... */\n    tag_29:\n        /* \".deps/github/succinctlabs/sp1-contracts/contracts/src/v5.0.0/Groth16Verifier.sol\":9813:9822  uint256 c */\n      0x00\n        /* \".deps/github/succinctlabs/sp1-contracts/contracts/src/v5.0.0/Groth16Verifier.sol\":1396:1462  0x30644e72e131a029b85045b68181585d97816a916871ca8d3c208c16d87cfd47 */\n      0x30644e72e131a029b85045b68181585d97816a916871ca8d3c208c16d87cfd47\n        /* \".deps/github/succinctlabs/sp1-contracts/contracts/src/v5.0.0/Groth16Verifier.sol\":9838:9839  x */\n      dup4\n        /* \".deps/github/succinctlabs/sp1-contracts/contracts/src/v5.0.0/Groth16Verifier.sol\":9838:9844  x >= P */\n      lt\n      iszero\n        /* \".deps/github/succinctlabs/sp1-contracts/contracts/src/v5.0.0/Groth16Verifier.sol\":9838:9854  x >= P || y >= P */\n      dup1\n      tag_129\n      jumpi\n      pop\n        /* \".deps/github/succinctlabs/sp1-contracts/contracts/src/v5.0.0/Groth16Verifier.sol\":1396:1462  0x30644e72e131a029b85045b68181585d97816a916871ca8d3c208c16d87cfd47 */\n      0x30644e72e131a029b85045b68181585d97816a916871ca8d3c208c16d87cfd47\n        /* \".deps/github/succinctlabs/sp1-contracts/contracts/src/v5.0.0/Groth16Verifier.sol\":9848:9849  y */\n      dup3\n        /* \".deps/github/succinctlabs/sp1-contracts/contracts/src/v5.0.0/Groth16Verifier.sol\":9848:9854  y >= P */\n      lt\n      iszero\n        /* \".deps/github/succinctlabs/sp1-contracts/contracts/src/v5.0.0/Groth16Verifier.sol\":9838:9854  x >= P || y >= P */\n    tag_129:\n        /* \".deps/github/succinctlabs/sp1-contracts/contracts/src/v5.0.0/Groth16Verifier.sol\":9834:9940  if (x >= P || y >= P) {... */\n      iszero\n      tag_130\n      jumpi\n        /* \".deps/github/succinctlabs/sp1-contracts/contracts/src/v5.0.0/Groth16Verifier.sol\":9915:9929  ProofInvalid() */\n      mload(0x40)\n      0x7fcdd1f400000000000000000000000000000000000000000000000000000000\n      dup2\n      mstore\n      0x04\n      add\n      mload(0x40)\n      dup1\n      swap2\n      sub\n      swap1\n      revert\n        /* \".deps/github/succinctlabs/sp1-contracts/contracts/src/v5.0.0/Groth16Verifier.sol\":9834:9940  if (x >= P || y >= P) {... */\n    tag_130:\n        /* \".deps/github/succinctlabs/sp1-contracts/contracts/src/v5.0.0/Groth16Verifier.sol\":9958:9959  0 */\n      0x00\n        /* \".deps/github/succinctlabs/sp1-contracts/contracts/src/v5.0.0/Groth16Verifier.sol\":9953:9954  x */\n      dup4\n        /* \".deps/github/succinctlabs/sp1-contracts/contracts/src/v5.0.0/Groth16Verifier.sol\":9953:9959  x == 0 */\n      eq\n        /* \".deps/github/succinctlabs/sp1-contracts/contracts/src/v5.0.0/Groth16Verifier.sol\":9953:9969  x == 0 && y == 0 */\n      dup1\n      iszero\n      tag_131\n      jumpi\n      pop\n        /* \".deps/github/succinctlabs/sp1-contracts/contracts/src/v5.0.0/Groth16Verifier.sol\":9968:9969  0 */\n      0x00\n        /* \".deps/github/succinctlabs/sp1-contracts/contracts/src/v5.0.0/Groth16Verifier.sol\":9963:9964  y */\n      dup3\n        /* \".deps/github/succinctlabs/sp1-contracts/contracts/src/v5.0.0/Groth16Verifier.sol\":9963:9969  y == 0 */\n      eq\n        /* \".deps/github/succinctlabs/sp1-contracts/contracts/src/v5.0.0/Groth16Verifier.sol\":9953:9969  x == 0 && y == 0 */\n    tag_131:\n        /* \".deps/github/succinctlabs/sp1-contracts/contracts/src/v5.0.0/Groth16Verifier.sol\":9949:10037  if (x == 0 && y == 0) {... */\n      iszero\n      tag_132\n      jumpi\n        /* \".deps/github/succinctlabs/sp1-contracts/contracts/src/v5.0.0/Groth16Verifier.sol\":10025:10026  0 */\n      0x00\n        /* \".deps/github/succinctlabs/sp1-contracts/contracts/src/v5.0.0/Groth16Verifier.sol\":10018:10026  return 0 */\n      swap1\n      pop\n      jump(tag_128)\n        /* \".deps/github/succinctlabs/sp1-contracts/contracts/src/v5.0.0/Groth16Verifier.sol\":9949:10037  if (x == 0 && y == 0) {... */\n    tag_132:\n        /* \".deps/github/succinctlabs/sp1-contracts/contracts/src/v5.0.0/Groth16Verifier.sol\":10139:10152  uint256 y_pos */\n      0x00\n        /* \".deps/github/succinctlabs/sp1-contracts/contracts/src/v5.0.0/Groth16Verifier.sol\":10155:10207  sqrt_Fp(addmod(mulmod(mulmod(x, x, P), x, P), 3, P)) */\n      tag_133\n        /* \".deps/github/succinctlabs/sp1-contracts/contracts/src/v5.0.0/Groth16Verifier.sol\":1396:1462  0x30644e72e131a029b85045b68181585d97816a916871ca8d3c208c16d87cfd47 */\n      0x30644e72e131a029b85045b68181585d97816a916871ca8d3c208c16d87cfd47\n        /* \".deps/github/succinctlabs/sp1-contracts/contracts/src/v5.0.0/Groth16Verifier.sol\":10163:10206  addmod(mulmod(mulmod(x, x, P), x, P), 3, P) */\n      dup1\n      tag_134\n      jumpi\n      tag_135\n      tag_136\n      jump\t// in\n    tag_135:\n    tag_134:\n        /* \".deps/github/succinctlabs/sp1-contracts/contracts/src/v5.0.0/Groth16Verifier.sol\":10201:10202  3 */\n      0x03\n        /* \".deps/github/succinctlabs/sp1-contracts/contracts/src/v5.0.0/Groth16Verifier.sol\":1396:1462  0x30644e72e131a029b85045b68181585d97816a916871ca8d3c208c16d87cfd47 */\n      0x30644e72e131a029b85045b68181585d97816a916871ca8d3c208c16d87cfd47\n        /* \".deps/github/succinctlabs/sp1-contracts/contracts/src/v5.0.0/Groth16Verifier.sol\":10170:10199  mulmod(mulmod(x, x, P), x, P) */\n      dup1\n      tag_137\n      jumpi\n      tag_138\n      tag_136\n      jump\t// in\n    tag_138:\n    tag_137:\n        /* \".deps/github/succinctlabs/sp1-contracts/contracts/src/v5.0.0/Groth16Verifier.sol\":10194:10195  x */\n      dup8\n        /* \".deps/github/succinctlabs/sp1-contracts/contracts/src/v5.0.0/Groth16Verifier.sol\":1396:1462  0x30644e72e131a029b85045b68181585d97816a916871ca8d3c208c16d87cfd47 */\n      0x30644e72e131a029b85045b68181585d97816a916871ca8d3c208c16d87cfd47\n        /* \".deps/github/succinctlabs/sp1-contracts/contracts/src/v5.0.0/Groth16Verifier.sol\":10177:10192  mulmod(x, x, P) */\n      dup1\n      tag_139\n      jumpi\n      tag_140\n      tag_136\n      jump\t// in\n    tag_140:\n    tag_139:\n        /* \".deps/github/succinctlabs/sp1-contracts/contracts/src/v5.0.0/Groth16Verifier.sol\":10187:10188  x */\n      dup10\n        /* \".deps/github/succinctlabs/sp1-contracts/contracts/src/v5.0.0/Groth16Verifier.sol\":10184:10185  x */\n      dup11\n        /* \".deps/github/succinctlabs/sp1-contracts/contracts/src/v5.0.0/Groth16Verifier.sol\":10177:10192  mulmod(x, x, P) */\n      mulmod\n        /* \".deps/github/succinctlabs/sp1-contracts/contracts/src/v5.0.0/Groth16Verifier.sol\":10170:10199  mulmod(mulmod(x, x, P), x, P) */\n      mulmod\n        /* \".deps/github/succinctlabs/sp1-contracts/contracts/src/v5.0.0/Groth16Verifier.sol\":10163:10206  addmod(mulmod(mulmod(x, x, P), x, P), 3, P) */\n      addmod\n        /* \".deps/github/succinctlabs/sp1-contracts/contracts/src/v5.0.0/Groth16Verifier.sol\":10155:10162  sqrt_Fp */\n      tag_141\n        /* \".deps/github/succinctlabs/sp1-contracts/contracts/src/v5.0.0/Groth16Verifier.sol\":10155:10207  sqrt_Fp(addmod(mulmod(mulmod(x, x, P), x, P), 3, P)) */\n      jump\t// in\n    tag_133:\n        /* \".deps/github/succinctlabs/sp1-contracts/contracts/src/v5.0.0/Groth16Verifier.sol\":10139:10207  uint256 y_pos = sqrt_Fp(addmod(mulmod(mulmod(x, x, P), x, P), 3, P)) */\n      swap1\n      pop\n        /* \".deps/github/succinctlabs/sp1-contracts/contracts/src/v5.0.0/Groth16Verifier.sol\":10226:10231  y_pos */\n      dup1\n        /* \".deps/github/succinctlabs/sp1-contracts/contracts/src/v5.0.0/Groth16Verifier.sol\":10221:10222  y */\n      dup4\n        /* \".deps/github/succinctlabs/sp1-contracts/contracts/src/v5.0.0/Groth16Verifier.sol\":10221:10231  y == y_pos */\n      sub\n        /* \".deps/github/succinctlabs/sp1-contracts/contracts/src/v5.0.0/Groth16Verifier.sol\":10217:10441  if (y == y_pos) {... */\n      tag_142\n      jumpi\n        /* \".deps/github/succinctlabs/sp1-contracts/contracts/src/v5.0.0/Groth16Verifier.sol\":10265:10266  0 */\n      0x00\n        /* \".deps/github/succinctlabs/sp1-contracts/contracts/src/v5.0.0/Groth16Verifier.sol\":10260:10261  1 */\n      0x01\n        /* \".deps/github/succinctlabs/sp1-contracts/contracts/src/v5.0.0/Groth16Verifier.sol\":10255:10256  x */\n      dup6\n        /* \".deps/github/succinctlabs/sp1-contracts/contracts/src/v5.0.0/Groth16Verifier.sol\":10255:10261  x << 1 */\n      swap1\n      shl\n        /* \".deps/github/succinctlabs/sp1-contracts/contracts/src/v5.0.0/Groth16Verifier.sol\":10254:10266  (x << 1) | 0 */\n      or\n        /* \".deps/github/succinctlabs/sp1-contracts/contracts/src/v5.0.0/Groth16Verifier.sol\":10247:10266  return (x << 1) | 0 */\n      swap2\n      pop\n      pop\n      jump(tag_128)\n        /* \".deps/github/succinctlabs/sp1-contracts/contracts/src/v5.0.0/Groth16Verifier.sol\":10217:10441  if (y == y_pos) {... */\n    tag_142:\n        /* \".deps/github/succinctlabs/sp1-contracts/contracts/src/v5.0.0/Groth16Verifier.sol\":10292:10305  negate(y_pos) */\n      tag_144\n        /* \".deps/github/succinctlabs/sp1-contracts/contracts/src/v5.0.0/Groth16Verifier.sol\":10299:10304  y_pos */\n      dup2\n        /* \".deps/github/succinctlabs/sp1-contracts/contracts/src/v5.0.0/Groth16Verifier.sol\":10292:10298  negate */\n      tag_145\n        /* \".deps/github/succinctlabs/sp1-contracts/contracts/src/v5.0.0/Groth16Verifier.sol\":10292:10305  negate(y_pos) */\n      jump\t// in\n    tag_144:\n        /* \".deps/github/succinctlabs/sp1-contracts/contracts/src/v5.0.0/Groth16Verifier.sol\":10287:10288  y */\n      dup4\n        /* \".deps/github/succinctlabs/sp1-contracts/contracts/src/v5.0.0/Groth16Verifier.sol\":10287:10305  y == negate(y_pos) */\n      sub\n        /* \".deps/github/succinctlabs/sp1-contracts/contracts/src/v5.0.0/Groth16Verifier.sol\":10283:10441  if (y == negate(y_pos)) {... */\n      tag_146\n      jumpi\n        /* \".deps/github/succinctlabs/sp1-contracts/contracts/src/v5.0.0/Groth16Verifier.sol\":10339:10340  1 */\n      0x01\n        /* \".deps/github/succinctlabs/sp1-contracts/contracts/src/v5.0.0/Groth16Verifier.sol\":10334:10335  1 */\n      dup1\n        /* \".deps/github/succinctlabs/sp1-contracts/contracts/src/v5.0.0/Groth16Verifier.sol\":10329:10330  x */\n      dup6\n        /* \".deps/github/succinctlabs/sp1-contracts/contracts/src/v5.0.0/Groth16Verifier.sol\":10329:10335  x << 1 */\n      swap1\n      shl\n        /* \".deps/github/succinctlabs/sp1-contracts/contracts/src/v5.0.0/Groth16Verifier.sol\":10328:10340  (x << 1) | 1 */\n      or\n        /* \".deps/github/succinctlabs/sp1-contracts/contracts/src/v5.0.0/Groth16Verifier.sol\":10321:10340  return (x << 1) | 1 */\n      swap2\n      pop\n      pop\n      jump(tag_128)\n        /* \".deps/github/succinctlabs/sp1-contracts/contracts/src/v5.0.0/Groth16Verifier.sol\":10283:10441  if (y == negate(y_pos)) {... */\n    tag_146:\n        /* \".deps/github/succinctlabs/sp1-contracts/contracts/src/v5.0.0/Groth16Verifier.sol\":10416:10430  ProofInvalid() */\n      mload(0x40)\n      0x7fcdd1f400000000000000000000000000000000000000000000000000000000\n      dup2\n      mstore\n      0x04\n      add\n      mload(0x40)\n      dup1\n      swap2\n      sub\n      swap1\n      revert\n        /* \".deps/github/succinctlabs/sp1-contracts/contracts/src/v5.0.0/Groth16Verifier.sol\":9747:10447  function compress_g1(uint256 x, uint256 y) internal view returns (uint256 c) {... */\n    tag_128:\n      swap3\n      swap2\n      pop\n      pop\n      jump\t// out\n        /* \".deps/github/succinctlabs/sp1-contracts/contracts/src/v5.0.0/Groth16Verifier.sol\":12442:14102  function compress_g2(uint256 x0, uint256 x1, uint256 y0, uint256 y1)... */\n    tag_41:\n        /* \".deps/github/succinctlabs/sp1-contracts/contracts/src/v5.0.0/Groth16Verifier.sol\":12538:12548  uint256 c0 */\n      0x00\n        /* \".deps/github/succinctlabs/sp1-contracts/contracts/src/v5.0.0/Groth16Verifier.sol\":12550:12560  uint256 c1 */\n      0x00\n        /* \".deps/github/succinctlabs/sp1-contracts/contracts/src/v5.0.0/Groth16Verifier.sol\":1396:1462  0x30644e72e131a029b85045b68181585d97816a916871ca8d3c208c16d87cfd47 */\n      0x30644e72e131a029b85045b68181585d97816a916871ca8d3c208c16d87cfd47\n        /* \".deps/github/succinctlabs/sp1-contracts/contracts/src/v5.0.0/Groth16Verifier.sol\":12576:12578  x0 */\n      dup7\n        /* \".deps/github/succinctlabs/sp1-contracts/contracts/src/v5.0.0/Groth16Verifier.sol\":12576:12583  x0 >= P */\n      lt\n      iszero\n        /* \".deps/github/succinctlabs/sp1-contracts/contracts/src/v5.0.0/Groth16Verifier.sol\":12576:12594  x0 >= P || x1 >= P */\n      dup1\n      tag_149\n      jumpi\n      pop\n        /* \".deps/github/succinctlabs/sp1-contracts/contracts/src/v5.0.0/Groth16Verifier.sol\":1396:1462  0x30644e72e131a029b85045b68181585d97816a916871ca8d3c208c16d87cfd47 */\n      0x30644e72e131a029b85045b68181585d97816a916871ca8d3c208c16d87cfd47\n        /* \".deps/github/succinctlabs/sp1-contracts/contracts/src/v5.0.0/Groth16Verifier.sol\":12587:12589  x1 */\n      dup6\n        /* \".deps/github/succinctlabs/sp1-contracts/contracts/src/v5.0.0/Groth16Verifier.sol\":12587:12594  x1 >= P */\n      lt\n      iszero\n        /* \".deps/github/succinctlabs/sp1-contracts/contracts/src/v5.0.0/Groth16Verifier.sol\":12576:12594  x0 >= P || x1 >= P */\n    tag_149:\n        /* \".deps/github/succinctlabs/sp1-contracts/contracts/src/v5.0.0/Groth16Verifier.sol\":12576:12605  x0 >= P || x1 >= P || y0 >= P */\n      dup1\n      tag_150\n      jumpi\n      pop\n        /* \".deps/github/succinctlabs/sp1-contracts/contracts/src/v5.0.0/Groth16Verifier.sol\":1396:1462  0x30644e72e131a029b85045b68181585d97816a916871ca8d3c208c16d87cfd47 */\n      0x30644e72e131a029b85045b68181585d97816a916871ca8d3c208c16d87cfd47\n        /* \".deps/github/succinctlabs/sp1-contracts/contracts/src/v5.0.0/Groth16Verifier.sol\":12598:12600  y0 */\n      dup5\n        /* \".deps/github/succinctlabs/sp1-contracts/contracts/src/v5.0.0/Groth16Verifier.sol\":12598:12605  y0 >= P */\n      lt\n      iszero\n        /* \".deps/github/succinctlabs/sp1-contracts/contracts/src/v5.0.0/Groth16Verifier.sol\":12576:12605  x0 >= P || x1 >= P || y0 >= P */\n    tag_150:\n        /* \".deps/github/succinctlabs/sp1-contracts/contracts/src/v5.0.0/Groth16Verifier.sol\":12576:12616  x0 >= P || x1 >= P || y0 >= P || y1 >= P */\n      dup1\n      tag_151\n      jumpi\n      pop\n        /* \".deps/github/succinctlabs/sp1-contracts/contracts/src/v5.0.0/Groth16Verifier.sol\":1396:1462  0x30644e72e131a029b85045b68181585d97816a916871ca8d3c208c16d87cfd47 */\n      0x30644e72e131a029b85045b68181585d97816a916871ca8d3c208c16d87cfd47\n        /* \".deps/github/succinctlabs/sp1-contracts/contracts/src/v5.0.0/Groth16Verifier.sol\":12609:12611  y1 */\n      dup4\n        /* \".deps/github/succinctlabs/sp1-contracts/contracts/src/v5.0.0/Groth16Verifier.sol\":12609:12616  y1 >= P */\n      lt\n      iszero\n        /* \".deps/github/succinctlabs/sp1-contracts/contracts/src/v5.0.0/Groth16Verifier.sol\":12576:12616  x0 >= P || x1 >= P || y0 >= P || y1 >= P */\n    tag_151:\n        /* \".deps/github/succinctlabs/sp1-contracts/contracts/src/v5.0.0/Groth16Verifier.sol\":12572:12702  if (x0 >= P || x1 >= P || y0 >= P || y1 >= P) {... */\n      iszero\n      tag_152\n      jumpi\n        /* \".deps/github/succinctlabs/sp1-contracts/contracts/src/v5.0.0/Groth16Verifier.sol\":12677:12691  ProofInvalid() */\n      mload(0x40)\n      0x7fcdd1f400000000000000000000000000000000000000000000000000000000\n      dup2\n      mstore\n      0x04\n      add\n      mload(0x40)\n      dup1\n      swap2\n      sub\n      swap1\n      revert\n        /* \".deps/github/succinctlabs/sp1-contracts/contracts/src/v5.0.0/Groth16Verifier.sol\":12572:12702  if (x0 >= P || x1 >= P || y0 >= P || y1 >= P) {... */\n    tag_152:\n        /* \".deps/github/succinctlabs/sp1-contracts/contracts/src/v5.0.0/Groth16Verifier.sol\":12738:12739  0 */\n      0x00\n        /* \".deps/github/succinctlabs/sp1-contracts/contracts/src/v5.0.0/Groth16Verifier.sol\":12731:12733  y1 */\n      dup4\n        /* \".deps/github/succinctlabs/sp1-contracts/contracts/src/v5.0.0/Groth16Verifier.sol\":12726:12728  y0 */\n      dup6\n        /* \".deps/github/succinctlabs/sp1-contracts/contracts/src/v5.0.0/Groth16Verifier.sol\":12721:12723  x1 */\n      dup8\n        /* \".deps/github/succinctlabs/sp1-contracts/contracts/src/v5.0.0/Groth16Verifier.sol\":12716:12718  x0 */\n      dup10\n        /* \".deps/github/succinctlabs/sp1-contracts/contracts/src/v5.0.0/Groth16Verifier.sol\":12716:12723  x0 | x1 */\n      or\n        /* \".deps/github/succinctlabs/sp1-contracts/contracts/src/v5.0.0/Groth16Verifier.sol\":12716:12728  x0 | x1 | y0 */\n      or\n        /* \".deps/github/succinctlabs/sp1-contracts/contracts/src/v5.0.0/Groth16Verifier.sol\":12716:12733  x0 | x1 | y0 | y1 */\n      or\n        /* \".deps/github/succinctlabs/sp1-contracts/contracts/src/v5.0.0/Groth16Verifier.sol\":12715:12739  (x0 | x1 | y0 | y1) == 0 */\n      sub\n        /* \".deps/github/succinctlabs/sp1-contracts/contracts/src/v5.0.0/Groth16Verifier.sol\":12711:12812  if ((x0 | x1 | y0 | y1) == 0) {... */\n      tag_153\n      jumpi\n        /* \".deps/github/succinctlabs/sp1-contracts/contracts/src/v5.0.0/Groth16Verifier.sol\":12796:12797  0 */\n      0x00\n        /* \".deps/github/succinctlabs/sp1-contracts/contracts/src/v5.0.0/Groth16Verifier.sol\":12799:12800  0 */\n      0x00\n        /* \".deps/github/succinctlabs/sp1-contracts/contracts/src/v5.0.0/Groth16Verifier.sol\":12788:12801  return (0, 0) */\n      swap2\n      pop\n      swap2\n      pop\n      jump(tag_148)\n        /* \".deps/github/succinctlabs/sp1-contracts/contracts/src/v5.0.0/Groth16Verifier.sol\":12711:12812  if ((x0 | x1 | y0 | y1) == 0) {... */\n    tag_153:\n        /* \".deps/github/succinctlabs/sp1-contracts/contracts/src/v5.0.0/Groth16Verifier.sol\":12918:12932  uint256 y0_pos */\n      0x00\n        /* \".deps/github/succinctlabs/sp1-contracts/contracts/src/v5.0.0/Groth16Verifier.sol\":12942:12956  uint256 y1_pos */\n      0x00\n        /* \".deps/github/succinctlabs/sp1-contracts/contracts/src/v5.0.0/Groth16Verifier.sol\":12980:12992  uint256 n3ab */\n      0x00\n        /* \".deps/github/succinctlabs/sp1-contracts/contracts/src/v5.0.0/Groth16Verifier.sol\":1396:1462  0x30644e72e131a029b85045b68181585d97816a916871ca8d3c208c16d87cfd47 */\n      0x30644e72e131a029b85045b68181585d97816a916871ca8d3c208c16d87cfd47\n        /* \".deps/github/succinctlabs/sp1-contracts/contracts/src/v5.0.0/Groth16Verifier.sol\":12995:13028  mulmod(mulmod(x0, x1, P), P-3, P) */\n      dup1\n      tag_154\n      jumpi\n      tag_155\n      tag_136\n      jump\t// in\n    tag_155:\n    tag_154:\n        /* \".deps/github/succinctlabs/sp1-contracts/contracts/src/v5.0.0/Groth16Verifier.sol\":13023:13024  3 */\n      0x03\n        /* \".deps/github/succinctlabs/sp1-contracts/contracts/src/v5.0.0/Groth16Verifier.sol\":1396:1462  0x30644e72e131a029b85045b68181585d97816a916871ca8d3c208c16d87cfd47 */\n      0x30644e72e131a029b85045b68181585d97816a916871ca8d3c208c16d87cfd47\n        /* \".deps/github/succinctlabs/sp1-contracts/contracts/src/v5.0.0/Groth16Verifier.sol\":13021:13024  P-3 */\n      tag_156\n      swap2\n      swap1\n      tag_157\n      jump\t// in\n    tag_156:\n        /* \".deps/github/succinctlabs/sp1-contracts/contracts/src/v5.0.0/Groth16Verifier.sol\":1396:1462  0x30644e72e131a029b85045b68181585d97816a916871ca8d3c208c16d87cfd47 */\n      0x30644e72e131a029b85045b68181585d97816a916871ca8d3c208c16d87cfd47\n        /* \".deps/github/succinctlabs/sp1-contracts/contracts/src/v5.0.0/Groth16Verifier.sol\":13002:13019  mulmod(x0, x1, P) */\n      dup1\n      tag_158\n      jumpi\n      tag_159\n      tag_136\n      jump\t// in\n    tag_159:\n    tag_158:\n        /* \".deps/github/succinctlabs/sp1-contracts/contracts/src/v5.0.0/Groth16Verifier.sol\":13013:13015  x1 */\n      dup11\n        /* \".deps/github/succinctlabs/sp1-contracts/contracts/src/v5.0.0/Groth16Verifier.sol\":13009:13011  x0 */\n      dup13\n        /* \".deps/github/succinctlabs/sp1-contracts/contracts/src/v5.0.0/Groth16Verifier.sol\":13002:13019  mulmod(x0, x1, P) */\n      mulmod\n        /* \".deps/github/succinctlabs/sp1-contracts/contracts/src/v5.0.0/Groth16Verifier.sol\":12995:13028  mulmod(mulmod(x0, x1, P), P-3, P) */\n      mulmod\n        /* \".deps/github/succinctlabs/sp1-contracts/contracts/src/v5.0.0/Groth16Verifier.sol\":12980:13028  uint256 n3ab = mulmod(mulmod(x0, x1, P), P-3, P) */\n      swap1\n      pop\n        /* \".deps/github/succinctlabs/sp1-contracts/contracts/src/v5.0.0/Groth16Verifier.sol\":13042:13053  uint256 a_3 */\n      0x00\n        /* \".deps/github/succinctlabs/sp1-contracts/contracts/src/v5.0.0/Groth16Verifier.sol\":1396:1462  0x30644e72e131a029b85045b68181585d97816a916871ca8d3c208c16d87cfd47 */\n      0x30644e72e131a029b85045b68181585d97816a916871ca8d3c208c16d87cfd47\n        /* \".deps/github/succinctlabs/sp1-contracts/contracts/src/v5.0.0/Groth16Verifier.sol\":13056:13088  mulmod(mulmod(x0, x0, P), x0, P) */\n      dup1\n      tag_160\n      jumpi\n      tag_161\n      tag_136\n      jump\t// in\n    tag_161:\n    tag_160:\n        /* \".deps/github/succinctlabs/sp1-contracts/contracts/src/v5.0.0/Groth16Verifier.sol\":13082:13084  x0 */\n      dup11\n        /* \".deps/github/succinctlabs/sp1-contracts/contracts/src/v5.0.0/Groth16Verifier.sol\":1396:1462  0x30644e72e131a029b85045b68181585d97816a916871ca8d3c208c16d87cfd47 */\n      0x30644e72e131a029b85045b68181585d97816a916871ca8d3c208c16d87cfd47\n        /* \".deps/github/succinctlabs/sp1-contracts/contracts/src/v5.0.0/Groth16Verifier.sol\":13063:13080  mulmod(x0, x0, P) */\n      dup1\n      tag_162\n      jumpi\n      tag_163\n      tag_136\n      jump\t// in\n    tag_163:\n    tag_162:\n        /* \".deps/github/succinctlabs/sp1-contracts/contracts/src/v5.0.0/Groth16Verifier.sol\":13074:13076  x0 */\n      dup13\n        /* \".deps/github/succinctlabs/sp1-contracts/contracts/src/v5.0.0/Groth16Verifier.sol\":13070:13072  x0 */\n      dup14\n        /* \".deps/github/succinctlabs/sp1-contracts/contracts/src/v5.0.0/Groth16Verifier.sol\":13063:13080  mulmod(x0, x0, P) */\n      mulmod\n        /* \".deps/github/succinctlabs/sp1-contracts/contracts/src/v5.0.0/Groth16Verifier.sol\":13056:13088  mulmod(mulmod(x0, x0, P), x0, P) */\n      mulmod\n        /* \".deps/github/succinctlabs/sp1-contracts/contracts/src/v5.0.0/Groth16Verifier.sol\":13042:13088  uint256 a_3 = mulmod(mulmod(x0, x0, P), x0, P) */\n      swap1\n      pop\n        /* \".deps/github/succinctlabs/sp1-contracts/contracts/src/v5.0.0/Groth16Verifier.sol\":13102:13113  uint256 b_3 */\n      0x00\n        /* \".deps/github/succinctlabs/sp1-contracts/contracts/src/v5.0.0/Groth16Verifier.sol\":1396:1462  0x30644e72e131a029b85045b68181585d97816a916871ca8d3c208c16d87cfd47 */\n      0x30644e72e131a029b85045b68181585d97816a916871ca8d3c208c16d87cfd47\n        /* \".deps/github/succinctlabs/sp1-contracts/contracts/src/v5.0.0/Groth16Verifier.sol\":13116:13148  mulmod(mulmod(x1, x1, P), x1, P) */\n      dup1\n      tag_164\n      jumpi\n      tag_165\n      tag_136\n      jump\t// in\n    tag_165:\n    tag_164:\n        /* \".deps/github/succinctlabs/sp1-contracts/contracts/src/v5.0.0/Groth16Verifier.sol\":13142:13144  x1 */\n      dup11\n        /* \".deps/github/succinctlabs/sp1-contracts/contracts/src/v5.0.0/Groth16Verifier.sol\":1396:1462  0x30644e72e131a029b85045b68181585d97816a916871ca8d3c208c16d87cfd47 */\n      0x30644e72e131a029b85045b68181585d97816a916871ca8d3c208c16d87cfd47\n        /* \".deps/github/succinctlabs/sp1-contracts/contracts/src/v5.0.0/Groth16Verifier.sol\":13123:13140  mulmod(x1, x1, P) */\n      dup1\n      tag_166\n      jumpi\n      tag_167\n      tag_136\n      jump\t// in\n    tag_167:\n    tag_166:\n        /* \".deps/github/succinctlabs/sp1-contracts/contracts/src/v5.0.0/Groth16Verifier.sol\":13134:13136  x1 */\n      dup13\n        /* \".deps/github/succinctlabs/sp1-contracts/contracts/src/v5.0.0/Groth16Verifier.sol\":13130:13132  x1 */\n      dup14\n        /* \".deps/github/succinctlabs/sp1-contracts/contracts/src/v5.0.0/Groth16Verifier.sol\":13123:13140  mulmod(x1, x1, P) */\n      mulmod\n        /* \".deps/github/succinctlabs/sp1-contracts/contracts/src/v5.0.0/Groth16Verifier.sol\":13116:13148  mulmod(mulmod(x1, x1, P), x1, P) */\n      mulmod\n        /* \".deps/github/succinctlabs/sp1-contracts/contracts/src/v5.0.0/Groth16Verifier.sol\":13102:13148  uint256 b_3 = mulmod(mulmod(x1, x1, P), x1, P) */\n      swap1\n      pop\n        /* \".deps/github/succinctlabs/sp1-contracts/contracts/src/v5.0.0/Groth16Verifier.sol\":1396:1462  0x30644e72e131a029b85045b68181585d97816a916871ca8d3c208c16d87cfd47 */\n      0x30644e72e131a029b85045b68181585d97816a916871ca8d3c208c16d87cfd47\n        /* \".deps/github/succinctlabs/sp1-contracts/contracts/src/v5.0.0/Groth16Verifier.sol\":13171:13236  addmod(FRACTION_27_82_FP, addmod(a_3, mulmod(n3ab, x1, P), P), P) */\n      dup1\n      tag_168\n      jumpi\n      tag_169\n      tag_136\n      jump\t// in\n    tag_169:\n    tag_168:\n        /* \".deps/github/succinctlabs/sp1-contracts/contracts/src/v5.0.0/Groth16Verifier.sol\":1396:1462  0x30644e72e131a029b85045b68181585d97816a916871ca8d3c208c16d87cfd47 */\n      0x30644e72e131a029b85045b68181585d97816a916871ca8d3c208c16d87cfd47\n        /* \".deps/github/succinctlabs/sp1-contracts/contracts/src/v5.0.0/Groth16Verifier.sol\":13197:13232  addmod(a_3, mulmod(n3ab, x1, P), P) */\n      dup1\n      tag_170\n      jumpi\n      tag_171\n      tag_136\n      jump\t// in\n    tag_171:\n    tag_170:\n        /* \".deps/github/succinctlabs/sp1-contracts/contracts/src/v5.0.0/Groth16Verifier.sol\":1396:1462  0x30644e72e131a029b85045b68181585d97816a916871ca8d3c208c16d87cfd47 */\n      0x30644e72e131a029b85045b68181585d97816a916871ca8d3c208c16d87cfd47\n        /* \".deps/github/succinctlabs/sp1-contracts/contracts/src/v5.0.0/Groth16Verifier.sol\":13209:13228  mulmod(n3ab, x1, P) */\n      dup1\n      tag_172\n      jumpi\n      tag_173\n      tag_136\n      jump\t// in\n    tag_173:\n    tag_172:\n        /* \".deps/github/succinctlabs/sp1-contracts/contracts/src/v5.0.0/Groth16Verifier.sol\":13222:13224  x1 */\n      dup13\n        /* \".deps/github/succinctlabs/sp1-contracts/contracts/src/v5.0.0/Groth16Verifier.sol\":13216:13220  n3ab */\n      dup7\n        /* \".deps/github/succinctlabs/sp1-contracts/contracts/src/v5.0.0/Groth16Verifier.sol\":13209:13228  mulmod(n3ab, x1, P) */\n      mulmod\n        /* \".deps/github/succinctlabs/sp1-contracts/contracts/src/v5.0.0/Groth16Verifier.sol\":13204:13207  a_3 */\n      dup5\n        /* \".deps/github/succinctlabs/sp1-contracts/contracts/src/v5.0.0/Groth16Verifier.sol\":13197:13232  addmod(a_3, mulmod(n3ab, x1, P), P) */\n      addmod\n        /* \".deps/github/succinctlabs/sp1-contracts/contracts/src/v5.0.0/Groth16Verifier.sol\":2215:2281  0x2b149d40ceb8aaae81be18991be06ac3b5b4c5e559dbefa33267e6dc24a138e5 */\n      0x2b149d40ceb8aaae81be18991be06ac3b5b4c5e559dbefa33267e6dc24a138e5\n        /* \".deps/github/succinctlabs/sp1-contracts/contracts/src/v5.0.0/Groth16Verifier.sol\":13171:13236  addmod(FRACTION_27_82_FP, addmod(a_3, mulmod(n3ab, x1, P), P), P) */\n      addmod\n        /* \".deps/github/succinctlabs/sp1-contracts/contracts/src/v5.0.0/Groth16Verifier.sol\":13162:13236  y0_pos = addmod(FRACTION_27_82_FP, addmod(a_3, mulmod(n3ab, x1, P), P), P) */\n      swap5\n      pop\n        /* \".deps/github/succinctlabs/sp1-contracts/contracts/src/v5.0.0/Groth16Verifier.sol\":13259:13332  negate(addmod(FRACTION_3_82_FP,  addmod(b_3, mulmod(n3ab, x0, P), P), P)) */\n      tag_174\n        /* \".deps/github/succinctlabs/sp1-contracts/contracts/src/v5.0.0/Groth16Verifier.sol\":1396:1462  0x30644e72e131a029b85045b68181585d97816a916871ca8d3c208c16d87cfd47 */\n      0x30644e72e131a029b85045b68181585d97816a916871ca8d3c208c16d87cfd47\n        /* \".deps/github/succinctlabs/sp1-contracts/contracts/src/v5.0.0/Groth16Verifier.sol\":13266:13331  addmod(FRACTION_3_82_FP,  addmod(b_3, mulmod(n3ab, x0, P), P), P) */\n      dup1\n      tag_175\n      jumpi\n      tag_176\n      tag_136\n      jump\t// in\n    tag_176:\n    tag_175:\n        /* \".deps/github/succinctlabs/sp1-contracts/contracts/src/v5.0.0/Groth16Verifier.sol\":1396:1462  0x30644e72e131a029b85045b68181585d97816a916871ca8d3c208c16d87cfd47 */\n      0x30644e72e131a029b85045b68181585d97816a916871ca8d3c208c16d87cfd47\n        /* \".deps/github/succinctlabs/sp1-contracts/contracts/src/v5.0.0/Groth16Verifier.sol\":13292:13327  addmod(b_3, mulmod(n3ab, x0, P), P) */\n      dup1\n      tag_177\n      jumpi\n      tag_178\n      tag_136\n      jump\t// in\n    tag_178:\n    tag_177:\n        /* \".deps/github/succinctlabs/sp1-contracts/contracts/src/v5.0.0/Groth16Verifier.sol\":1396:1462  0x30644e72e131a029b85045b68181585d97816a916871ca8d3c208c16d87cfd47 */\n      0x30644e72e131a029b85045b68181585d97816a916871ca8d3c208c16d87cfd47\n        /* \".deps/github/succinctlabs/sp1-contracts/contracts/src/v5.0.0/Groth16Verifier.sol\":13304:13323  mulmod(n3ab, x0, P) */\n      dup1\n      tag_179\n      jumpi\n      tag_180\n      tag_136\n      jump\t// in\n    tag_180:\n    tag_179:\n        /* \".deps/github/succinctlabs/sp1-contracts/contracts/src/v5.0.0/Groth16Verifier.sol\":13317:13319  x0 */\n      dup15\n        /* \".deps/github/succinctlabs/sp1-contracts/contracts/src/v5.0.0/Groth16Verifier.sol\":13311:13315  n3ab */\n      dup8\n        /* \".deps/github/succinctlabs/sp1-contracts/contracts/src/v5.0.0/Groth16Verifier.sol\":13304:13323  mulmod(n3ab, x0, P) */\n      mulmod\n        /* \".deps/github/succinctlabs/sp1-contracts/contracts/src/v5.0.0/Groth16Verifier.sol\":13299:13302  b_3 */\n      dup5\n        /* \".deps/github/succinctlabs/sp1-contracts/contracts/src/v5.0.0/Groth16Verifier.sol\":13292:13327  addmod(b_3, mulmod(n3ab, x0, P), P) */\n      addmod\n        /* \".deps/github/succinctlabs/sp1-contracts/contracts/src/v5.0.0/Groth16Verifier.sol\":2323:2389  0x2fcd3ac2a640a154eb23960892a85a68f031ca0c8344b23a577dcf1052b9e775 */\n      0x2fcd3ac2a640a154eb23960892a85a68f031ca0c8344b23a577dcf1052b9e775\n        /* \".deps/github/succinctlabs/sp1-contracts/contracts/src/v5.0.0/Groth16Verifier.sol\":13266:13331  addmod(FRACTION_3_82_FP,  addmod(b_3, mulmod(n3ab, x0, P), P), P) */\n      addmod\n        /* \".deps/github/succinctlabs/sp1-contracts/contracts/src/v5.0.0/Groth16Verifier.sol\":13259:13265  negate */\n      tag_145\n        /* \".deps/github/succinctlabs/sp1-contracts/contracts/src/v5.0.0/Groth16Verifier.sol\":13259:13332  negate(addmod(FRACTION_3_82_FP,  addmod(b_3, mulmod(n3ab, x0, P), P), P)) */\n      jump\t// in\n    tag_174:\n        /* \".deps/github/succinctlabs/sp1-contracts/contracts/src/v5.0.0/Groth16Verifier.sol\":13250:13332  y1_pos = negate(addmod(FRACTION_3_82_FP,  addmod(b_3, mulmod(n3ab, x0, P), P), P)) */\n      swap4\n      pop\n        /* \".deps/github/succinctlabs/sp1-contracts/contracts/src/v5.0.0/Groth16Verifier.sol\":12966:13343  {... */\n      pop\n      pop\n      pop\n        /* \".deps/github/succinctlabs/sp1-contracts/contracts/src/v5.0.0/Groth16Verifier.sol\":13451:13460  bool hint */\n      0x00\n        /* \".deps/github/succinctlabs/sp1-contracts/contracts/src/v5.0.0/Groth16Verifier.sol\":13484:13493  uint256 d */\n      0x00\n        /* \".deps/github/succinctlabs/sp1-contracts/contracts/src/v5.0.0/Groth16Verifier.sol\":13496:13568  sqrt_Fp(addmod(mulmod(y0_pos, y0_pos, P), mulmod(y1_pos, y1_pos, P), P)) */\n      tag_181\n        /* \".deps/github/succinctlabs/sp1-contracts/contracts/src/v5.0.0/Groth16Verifier.sol\":1396:1462  0x30644e72e131a029b85045b68181585d97816a916871ca8d3c208c16d87cfd47 */\n      0x30644e72e131a029b85045b68181585d97816a916871ca8d3c208c16d87cfd47\n        /* \".deps/github/succinctlabs/sp1-contracts/contracts/src/v5.0.0/Groth16Verifier.sol\":13504:13567  addmod(mulmod(y0_pos, y0_pos, P), mulmod(y1_pos, y1_pos, P), P) */\n      dup1\n      tag_182\n      jumpi\n      tag_183\n      tag_136\n      jump\t// in\n    tag_183:\n    tag_182:\n        /* \".deps/github/succinctlabs/sp1-contracts/contracts/src/v5.0.0/Groth16Verifier.sol\":1396:1462  0x30644e72e131a029b85045b68181585d97816a916871ca8d3c208c16d87cfd47 */\n      0x30644e72e131a029b85045b68181585d97816a916871ca8d3c208c16d87cfd47\n        /* \".deps/github/succinctlabs/sp1-contracts/contracts/src/v5.0.0/Groth16Verifier.sol\":13538:13563  mulmod(y1_pos, y1_pos, P) */\n      dup1\n      tag_184\n      jumpi\n      tag_185\n      tag_136\n      jump\t// in\n    tag_185:\n    tag_184:\n        /* \".deps/github/succinctlabs/sp1-contracts/contracts/src/v5.0.0/Groth16Verifier.sol\":13553:13559  y1_pos */\n      dup6\n        /* \".deps/github/succinctlabs/sp1-contracts/contracts/src/v5.0.0/Groth16Verifier.sol\":13545:13551  y1_pos */\n      dup7\n        /* \".deps/github/succinctlabs/sp1-contracts/contracts/src/v5.0.0/Groth16Verifier.sol\":13538:13563  mulmod(y1_pos, y1_pos, P) */\n      mulmod\n        /* \".deps/github/succinctlabs/sp1-contracts/contracts/src/v5.0.0/Groth16Verifier.sol\":1396:1462  0x30644e72e131a029b85045b68181585d97816a916871ca8d3c208c16d87cfd47 */\n      0x30644e72e131a029b85045b68181585d97816a916871ca8d3c208c16d87cfd47\n        /* \".deps/github/succinctlabs/sp1-contracts/contracts/src/v5.0.0/Groth16Verifier.sol\":13511:13536  mulmod(y0_pos, y0_pos, P) */\n      dup1\n      tag_186\n      jumpi\n      tag_187\n      tag_136\n      jump\t// in\n    tag_187:\n    tag_186:\n        /* \".deps/github/succinctlabs/sp1-contracts/contracts/src/v5.0.0/Groth16Verifier.sol\":13526:13532  y0_pos */\n      dup8\n        /* \".deps/github/succinctlabs/sp1-contracts/contracts/src/v5.0.0/Groth16Verifier.sol\":13518:13524  y0_pos */\n      dup9\n        /* \".deps/github/succinctlabs/sp1-contracts/contracts/src/v5.0.0/Groth16Verifier.sol\":13511:13536  mulmod(y0_pos, y0_pos, P) */\n      mulmod\n        /* \".deps/github/succinctlabs/sp1-contracts/contracts/src/v5.0.0/Groth16Verifier.sol\":13504:13567  addmod(mulmod(y0_pos, y0_pos, P), mulmod(y1_pos, y1_pos, P), P) */\n      addmod\n        /* \".deps/github/succinctlabs/sp1-contracts/contracts/src/v5.0.0/Groth16Verifier.sol\":13496:13503  sqrt_Fp */\n      tag_141\n        /* \".deps/github/succinctlabs/sp1-contracts/contracts/src/v5.0.0/Groth16Verifier.sol\":13496:13568  sqrt_Fp(addmod(mulmod(y0_pos, y0_pos, P), mulmod(y1_pos, y1_pos, P), P)) */\n      jump\t// in\n    tag_181:\n        /* \".deps/github/succinctlabs/sp1-contracts/contracts/src/v5.0.0/Groth16Verifier.sol\":13484:13568  uint256 d = sqrt_Fp(addmod(mulmod(y0_pos, y0_pos, P), mulmod(y1_pos, y1_pos, P), P)) */\n      swap1\n      pop\n        /* \".deps/github/succinctlabs/sp1-contracts/contracts/src/v5.0.0/Groth16Verifier.sol\":13590:13651  isSquare_Fp(mulmod(addmod(y0_pos, d, P), FRACTION_1_2_FP, P)) */\n      tag_188\n        /* \".deps/github/succinctlabs/sp1-contracts/contracts/src/v5.0.0/Groth16Verifier.sol\":1396:1462  0x30644e72e131a029b85045b68181585d97816a916871ca8d3c208c16d87cfd47 */\n      0x30644e72e131a029b85045b68181585d97816a916871ca8d3c208c16d87cfd47\n        /* \".deps/github/succinctlabs/sp1-contracts/contracts/src/v5.0.0/Groth16Verifier.sol\":13602:13650  mulmod(addmod(y0_pos, d, P), FRACTION_1_2_FP, P) */\n      dup1\n      tag_189\n      jumpi\n      tag_190\n      tag_136\n      jump\t// in\n    tag_190:\n    tag_189:\n        /* \".deps/github/succinctlabs/sp1-contracts/contracts/src/v5.0.0/Groth16Verifier.sol\":2106:2172  0x183227397098d014dc2822db40c0ac2ecbc0b548b438e5469e10460b6c3e7ea4 */\n      0x183227397098d014dc2822db40c0ac2ecbc0b548b438e5469e10460b6c3e7ea4\n        /* \".deps/github/succinctlabs/sp1-contracts/contracts/src/v5.0.0/Groth16Verifier.sol\":1396:1462  0x30644e72e131a029b85045b68181585d97816a916871ca8d3c208c16d87cfd47 */\n      0x30644e72e131a029b85045b68181585d97816a916871ca8d3c208c16d87cfd47\n        /* \".deps/github/succinctlabs/sp1-contracts/contracts/src/v5.0.0/Groth16Verifier.sol\":13609:13629  addmod(y0_pos, d, P) */\n      dup1\n      tag_191\n      jumpi\n      tag_192\n      tag_136\n      jump\t// in\n    tag_192:\n    tag_191:\n        /* \".deps/github/succinctlabs/sp1-contracts/contracts/src/v5.0.0/Groth16Verifier.sol\":13624:13625  d */\n      dup5\n        /* \".deps/github/succinctlabs/sp1-contracts/contracts/src/v5.0.0/Groth16Verifier.sol\":13616:13622  y0_pos */\n      dup9\n        /* \".deps/github/succinctlabs/sp1-contracts/contracts/src/v5.0.0/Groth16Verifier.sol\":13609:13629  addmod(y0_pos, d, P) */\n      addmod\n        /* \".deps/github/succinctlabs/sp1-contracts/contracts/src/v5.0.0/Groth16Verifier.sol\":13602:13650  mulmod(addmod(y0_pos, d, P), FRACTION_1_2_FP, P) */\n      mulmod\n        /* \".deps/github/succinctlabs/sp1-contracts/contracts/src/v5.0.0/Groth16Verifier.sol\":13590:13601  isSquare_Fp */\n      tag_193\n        /* \".deps/github/succinctlabs/sp1-contracts/contracts/src/v5.0.0/Groth16Verifier.sol\":13590:13651  isSquare_Fp(mulmod(addmod(y0_pos, d, P), FRACTION_1_2_FP, P)) */\n      jump\t// in\n    tag_188:\n        /* \".deps/github/succinctlabs/sp1-contracts/contracts/src/v5.0.0/Groth16Verifier.sol\":13589:13651  !isSquare_Fp(mulmod(addmod(y0_pos, d, P), FRACTION_1_2_FP, P)) */\n      iszero\n        /* \".deps/github/succinctlabs/sp1-contracts/contracts/src/v5.0.0/Groth16Verifier.sol\":13582:13651  hint = !isSquare_Fp(mulmod(addmod(y0_pos, d, P), FRACTION_1_2_FP, P)) */\n      swap2\n      pop\n        /* \".deps/github/succinctlabs/sp1-contracts/contracts/src/v5.0.0/Groth16Verifier.sol\":13470:13662  {... */\n      pop\n        /* \".deps/github/succinctlabs/sp1-contracts/contracts/src/v5.0.0/Groth16Verifier.sol\":13712:13742  sqrt_Fp2(y0_pos, y1_pos, hint) */\n      tag_194\n        /* \".deps/github/succinctlabs/sp1-contracts/contracts/src/v5.0.0/Groth16Verifier.sol\":13721:13727  y0_pos */\n      dup4\n        /* \".deps/github/succinctlabs/sp1-contracts/contracts/src/v5.0.0/Groth16Verifier.sol\":13729:13735  y1_pos */\n      dup4\n        /* \".deps/github/succinctlabs/sp1-contracts/contracts/src/v5.0.0/Groth16Verifier.sol\":13737:13741  hint */\n      dup4\n        /* \".deps/github/succinctlabs/sp1-contracts/contracts/src/v5.0.0/Groth16Verifier.sol\":13712:13720  sqrt_Fp2 */\n      tag_195\n        /* \".deps/github/succinctlabs/sp1-contracts/contracts/src/v5.0.0/Groth16Verifier.sol\":13712:13742  sqrt_Fp2(y0_pos, y1_pos, hint) */\n      jump\t// in\n    tag_194:\n        /* \".deps/github/succinctlabs/sp1-contracts/contracts/src/v5.0.0/Groth16Verifier.sol\":13693:13742  (y0_pos, y1_pos) = sqrt_Fp2(y0_pos, y1_pos, hint) */\n      dup1\n      swap4\n      pop\n      dup2\n      swap5\n      pop\n      pop\n      pop\n        /* \".deps/github/succinctlabs/sp1-contracts/contracts/src/v5.0.0/Groth16Verifier.sol\":13762:13768  y0_pos */\n      dup3\n        /* \".deps/github/succinctlabs/sp1-contracts/contracts/src/v5.0.0/Groth16Verifier.sol\":13756:13758  y0 */\n      dup8\n        /* \".deps/github/succinctlabs/sp1-contracts/contracts/src/v5.0.0/Groth16Verifier.sol\":13756:13768  y0 == y0_pos */\n      eq\n        /* \".deps/github/succinctlabs/sp1-contracts/contracts/src/v5.0.0/Groth16Verifier.sol\":13756:13784  y0 == y0_pos && y1 == y1_pos */\n      dup1\n      iszero\n      tag_196\n      jumpi\n      pop\n        /* \".deps/github/succinctlabs/sp1-contracts/contracts/src/v5.0.0/Groth16Verifier.sol\":13778:13784  y1_pos */\n      dup2\n        /* \".deps/github/succinctlabs/sp1-contracts/contracts/src/v5.0.0/Groth16Verifier.sol\":13772:13774  y1 */\n      dup7\n        /* \".deps/github/succinctlabs/sp1-contracts/contracts/src/v5.0.0/Groth16Verifier.sol\":13772:13784  y1 == y1_pos */\n      eq\n        /* \".deps/github/succinctlabs/sp1-contracts/contracts/src/v5.0.0/Groth16Verifier.sol\":13756:13784  y0 == y0_pos && y1 == y1_pos */\n    tag_196:\n        /* \".deps/github/succinctlabs/sp1-contracts/contracts/src/v5.0.0/Groth16Verifier.sol\":13752:14096  if (y0 == y0_pos && y1 == y1_pos) {... */\n      iszero\n      tag_197\n      jumpi\n        /* \".deps/github/succinctlabs/sp1-contracts/contracts/src/v5.0.0/Groth16Verifier.sol\":13835:13836  0 */\n      0x00\n        /* \".deps/github/succinctlabs/sp1-contracts/contracts/src/v5.0.0/Groth16Verifier.sol\":13818:13822  hint */\n      dup2\n        /* \".deps/github/succinctlabs/sp1-contracts/contracts/src/v5.0.0/Groth16Verifier.sol\":13818:13831  hint ? 2  : 0 */\n      tag_198\n      jumpi\n        /* \".deps/github/succinctlabs/sp1-contracts/contracts/src/v5.0.0/Groth16Verifier.sol\":13830:13831  0 */\n      0x00\n        /* \".deps/github/succinctlabs/sp1-contracts/contracts/src/v5.0.0/Groth16Verifier.sol\":13818:13831  hint ? 2  : 0 */\n      jump(tag_199)\n    tag_198:\n        /* \".deps/github/succinctlabs/sp1-contracts/contracts/src/v5.0.0/Groth16Verifier.sol\":13825:13826  2 */\n      0x02\n        /* \".deps/github/succinctlabs/sp1-contracts/contracts/src/v5.0.0/Groth16Verifier.sol\":13818:13831  hint ? 2  : 0 */\n    tag_199:\n        /* \".deps/github/succinctlabs/sp1-contracts/contracts/src/v5.0.0/Groth16Verifier.sol\":13805:13832  (x0 << 2) | (hint ? 2  : 0) */\n      0xff\n      and\n        /* \".deps/github/succinctlabs/sp1-contracts/contracts/src/v5.0.0/Groth16Verifier.sol\":13812:13813  2 */\n      0x02\n        /* \".deps/github/succinctlabs/sp1-contracts/contracts/src/v5.0.0/Groth16Verifier.sol\":13806:13808  x0 */\n      dup12\n        /* \".deps/github/succinctlabs/sp1-contracts/contracts/src/v5.0.0/Groth16Verifier.sol\":13806:13813  x0 << 2 */\n      swap1\n      shl\n        /* \".deps/github/succinctlabs/sp1-contracts/contracts/src/v5.0.0/Groth16Verifier.sol\":13805:13832  (x0 << 2) | (hint ? 2  : 0) */\n      or\n        /* \".deps/github/succinctlabs/sp1-contracts/contracts/src/v5.0.0/Groth16Verifier.sol\":13805:13836  (x0 << 2) | (hint ? 2  : 0) | 0 */\n      or\n        /* \".deps/github/succinctlabs/sp1-contracts/contracts/src/v5.0.0/Groth16Verifier.sol\":13800:13836  c0 = (x0 << 2) | (hint ? 2  : 0) | 0 */\n      swap5\n      pop\n        /* \".deps/github/succinctlabs/sp1-contracts/contracts/src/v5.0.0/Groth16Verifier.sol\":13855:13857  x1 */\n      dup8\n        /* \".deps/github/succinctlabs/sp1-contracts/contracts/src/v5.0.0/Groth16Verifier.sol\":13850:13857  c1 = x1 */\n      swap4\n      pop\n        /* \".deps/github/succinctlabs/sp1-contracts/contracts/src/v5.0.0/Groth16Verifier.sol\":13752:14096  if (y0 == y0_pos && y1 == y1_pos) {... */\n      jump(tag_200)\n    tag_197:\n        /* \".deps/github/succinctlabs/sp1-contracts/contracts/src/v5.0.0/Groth16Verifier.sol\":13884:13898  negate(y0_pos) */\n      tag_201\n        /* \".deps/github/succinctlabs/sp1-contracts/contracts/src/v5.0.0/Groth16Verifier.sol\":13891:13897  y0_pos */\n      dup4\n        /* \".deps/github/succinctlabs/sp1-contracts/contracts/src/v5.0.0/Groth16Verifier.sol\":13884:13890  negate */\n      tag_145\n        /* \".deps/github/succinctlabs/sp1-contracts/contracts/src/v5.0.0/Groth16Verifier.sol\":13884:13898  negate(y0_pos) */\n      jump\t// in\n    tag_201:\n        /* \".deps/github/succinctlabs/sp1-contracts/contracts/src/v5.0.0/Groth16Verifier.sol\":13878:13880  y0 */\n      dup8\n        /* \".deps/github/succinctlabs/sp1-contracts/contracts/src/v5.0.0/Groth16Verifier.sol\":13878:13898  y0 == negate(y0_pos) */\n      eq\n        /* \".deps/github/succinctlabs/sp1-contracts/contracts/src/v5.0.0/Groth16Verifier.sol\":13878:13922  y0 == negate(y0_pos) && y1 == negate(y1_pos) */\n      dup1\n      iszero\n      tag_202\n      jumpi\n      pop\n        /* \".deps/github/succinctlabs/sp1-contracts/contracts/src/v5.0.0/Groth16Verifier.sol\":13908:13922  negate(y1_pos) */\n      tag_203\n        /* \".deps/github/succinctlabs/sp1-contracts/contracts/src/v5.0.0/Groth16Verifier.sol\":13915:13921  y1_pos */\n      dup3\n        /* \".deps/github/succinctlabs/sp1-contracts/contracts/src/v5.0.0/Groth16Verifier.sol\":13908:13914  negate */\n      tag_145\n        /* \".deps/github/succinctlabs/sp1-contracts/contracts/src/v5.0.0/Groth16Verifier.sol\":13908:13922  negate(y1_pos) */\n      jump\t// in\n    tag_203:\n        /* \".deps/github/succinctlabs/sp1-contracts/contracts/src/v5.0.0/Groth16Verifier.sol\":13902:13904  y1 */\n      dup7\n        /* \".deps/github/succinctlabs/sp1-contracts/contracts/src/v5.0.0/Groth16Verifier.sol\":13902:13922  y1 == negate(y1_pos) */\n      eq\n        /* \".deps/github/succinctlabs/sp1-contracts/contracts/src/v5.0.0/Groth16Verifier.sol\":13878:13922  y0 == negate(y0_pos) && y1 == negate(y1_pos) */\n    tag_202:\n        /* \".deps/github/succinctlabs/sp1-contracts/contracts/src/v5.0.0/Groth16Verifier.sol\":13874:14096  if (y0 == negate(y0_pos) && y1 == negate(y1_pos)) {... */\n      iszero\n      tag_204\n      jumpi\n        /* \".deps/github/succinctlabs/sp1-contracts/contracts/src/v5.0.0/Groth16Verifier.sol\":13973:13974  1 */\n      0x01\n        /* \".deps/github/succinctlabs/sp1-contracts/contracts/src/v5.0.0/Groth16Verifier.sol\":13956:13960  hint */\n      dup2\n        /* \".deps/github/succinctlabs/sp1-contracts/contracts/src/v5.0.0/Groth16Verifier.sol\":13956:13969  hint ? 2  : 0 */\n      tag_205\n      jumpi\n        /* \".deps/github/succinctlabs/sp1-contracts/contracts/src/v5.0.0/Groth16Verifier.sol\":13968:13969  0 */\n      0x00\n        /* \".deps/github/succinctlabs/sp1-contracts/contracts/src/v5.0.0/Groth16Verifier.sol\":13956:13969  hint ? 2  : 0 */\n      jump(tag_206)\n    tag_205:\n        /* \".deps/github/succinctlabs/sp1-contracts/contracts/src/v5.0.0/Groth16Verifier.sol\":13963:13964  2 */\n      0x02\n        /* \".deps/github/succinctlabs/sp1-contracts/contracts/src/v5.0.0/Groth16Verifier.sol\":13956:13969  hint ? 2  : 0 */\n    tag_206:\n        /* \".deps/github/succinctlabs/sp1-contracts/contracts/src/v5.0.0/Groth16Verifier.sol\":13943:13970  (x0 << 2) | (hint ? 2  : 0) */\n      0xff\n      and\n        /* \".deps/github/succinctlabs/sp1-contracts/contracts/src/v5.0.0/Groth16Verifier.sol\":13950:13951  2 */\n      0x02\n        /* \".deps/github/succinctlabs/sp1-contracts/contracts/src/v5.0.0/Groth16Verifier.sol\":13944:13946  x0 */\n      dup12\n        /* \".deps/github/succinctlabs/sp1-contracts/contracts/src/v5.0.0/Groth16Verifier.sol\":13944:13951  x0 << 2 */\n      swap1\n      shl\n        /* \".deps/github/succinctlabs/sp1-contracts/contracts/src/v5.0.0/Groth16Verifier.sol\":13943:13970  (x0 << 2) | (hint ? 2  : 0) */\n      or\n        /* \".deps/github/succinctlabs/sp1-contracts/contracts/src/v5.0.0/Groth16Verifier.sol\":13943:13974  (x0 << 2) | (hint ? 2  : 0) | 1 */\n      or\n        /* \".deps/github/succinctlabs/sp1-contracts/contracts/src/v5.0.0/Groth16Verifier.sol\":13938:13974  c0 = (x0 << 2) | (hint ? 2  : 0) | 1 */\n      swap5\n      pop\n        /* \".deps/github/succinctlabs/sp1-contracts/contracts/src/v5.0.0/Groth16Verifier.sol\":13993:13995  x1 */\n      dup8\n        /* \".deps/github/succinctlabs/sp1-contracts/contracts/src/v5.0.0/Groth16Verifier.sol\":13988:13995  c1 = x1 */\n      swap4\n      pop\n        /* \".deps/github/succinctlabs/sp1-contracts/contracts/src/v5.0.0/Groth16Verifier.sol\":13874:14096  if (y0 == negate(y0_pos) && y1 == negate(y1_pos)) {... */\n      jump(tag_207)\n    tag_204:\n        /* \".deps/github/succinctlabs/sp1-contracts/contracts/src/v5.0.0/Groth16Verifier.sol\":14071:14085  ProofInvalid() */\n      mload(0x40)\n      0x7fcdd1f400000000000000000000000000000000000000000000000000000000\n      dup2\n      mstore\n      0x04\n      add\n      mload(0x40)\n      dup1\n      swap2\n      sub\n      swap1\n      revert\n        /* \".deps/github/succinctlabs/sp1-contracts/contracts/src/v5.0.0/Groth16Verifier.sol\":13874:14096  if (y0 == negate(y0_pos) && y1 == negate(y1_pos)) {... */\n    tag_207:\n        /* \".deps/github/succinctlabs/sp1-contracts/contracts/src/v5.0.0/Groth16Verifier.sol\":13752:14096  if (y0 == y0_pos && y1 == y1_pos) {... */\n    tag_200:\n        /* \".deps/github/succinctlabs/sp1-contracts/contracts/src/v5.0.0/Groth16Verifier.sol\":12562:14102  {... */\n      pop\n      pop\n      pop\n        /* \".deps/github/succinctlabs/sp1-contracts/contracts/src/v5.0.0/Groth16Verifier.sol\":12442:14102  function compress_g2(uint256 x0, uint256 x1, uint256 y0, uint256 y1)... */\n    tag_148:\n      swap5\n      pop\n      swap5\n      swap3\n      pop\n      pop\n      pop\n      jump\t// out\n        /* \".deps/github/succinctlabs/sp1-contracts/contracts/src/v5.0.0/Groth16Verifier.sol\":16718:18723  function publicInputMSM(uint256[2] calldata input)... */\n    tag_55:\n        /* \".deps/github/succinctlabs/sp1-contracts/contracts/src/v5.0.0/Groth16Verifier.sol\":16796:16805  uint256 x */\n      0x00\n        /* \".deps/github/succinctlabs/sp1-contracts/contracts/src/v5.0.0/Groth16Verifier.sol\":16807:16816  uint256 y */\n      0x00\n        /* \".deps/github/succinctlabs/sp1-contracts/contracts/src/v5.0.0/Groth16Verifier.sol\":17421:17433  bool success */\n      0x00\n        /* \".deps/github/succinctlabs/sp1-contracts/contracts/src/v5.0.0/Groth16Verifier.sol\":17436:17440  true */\n      0x01\n        /* \".deps/github/succinctlabs/sp1-contracts/contracts/src/v5.0.0/Groth16Verifier.sol\":17421:17440  bool success = true */\n      swap1\n      pop\n        /* \".deps/github/succinctlabs/sp1-contracts/contracts/src/v5.0.0/Groth16Verifier.sol\":17504:17508  0x40 */\n      0x40\n        /* \".deps/github/succinctlabs/sp1-contracts/contracts/src/v5.0.0/Groth16Verifier.sol\":17498:17509  mload(0x40) */\n      mload\n        /* \".deps/github/succinctlabs/sp1-contracts/contracts/src/v5.0.0/Groth16Verifier.sol\":17538:17542  0x40 */\n      0x40\n        /* \".deps/github/succinctlabs/sp1-contracts/contracts/src/v5.0.0/Groth16Verifier.sol\":17535:17536  f */\n      dup2\n        /* \".deps/github/succinctlabs/sp1-contracts/contracts/src/v5.0.0/Groth16Verifier.sol\":17531:17543  add(f, 0x40) */\n      add\n        /* \".deps/github/succinctlabs/sp1-contracts/contracts/src/v5.0.0/Groth16Verifier.sol\":17556:17561  let s */\n      0x00\n        /* \".deps/github/succinctlabs/sp1-contracts/contracts/src/v5.0.0/Groth16Verifier.sol\":17584:17594  CONSTANT_X */\n      0x26091e1cafb0ad8a4ea0a694cd3743ebf524779233db734c451d28b58aa9758e\n        /* \".deps/github/succinctlabs/sp1-contracts/contracts/src/v5.0.0/Groth16Verifier.sol\":17581:17582  f */\n      dup4\n        /* \".deps/github/succinctlabs/sp1-contracts/contracts/src/v5.0.0/Groth16Verifier.sol\":17574:17595  mstore(f, CONSTANT_X) */\n      mstore\n        /* \".deps/github/succinctlabs/sp1-contracts/contracts/src/v5.0.0/Groth16Verifier.sol\":17629:17639  CONSTANT_Y */\n      0x9ff50a6b8b11c3ca6fdb2690a124f8ce25489fefa65a3e782e7ba70b66690e\n        /* \".deps/github/succinctlabs/sp1-contracts/contracts/src/v5.0.0/Groth16Verifier.sol\":17622:17626  0x20 */\n      0x20\n        /* \".deps/github/succinctlabs/sp1-contracts/contracts/src/v5.0.0/Groth16Verifier.sol\":17619:17620  f */\n      dup5\n        /* \".deps/github/succinctlabs/sp1-contracts/contracts/src/v5.0.0/Groth16Verifier.sol\":17615:17627  add(f, 0x20) */\n      add\n        /* \".deps/github/succinctlabs/sp1-contracts/contracts/src/v5.0.0/Groth16Verifier.sol\":17608:17640  mstore(add(f, 0x20), CONSTANT_Y) */\n      mstore\n        /* \".deps/github/succinctlabs/sp1-contracts/contracts/src/v5.0.0/Groth16Verifier.sol\":17663:17670  PUB_0_X */\n      0x061c3fd0fd3da25d2607c227d090cca750ed36c6ec878755e537c1c48951fb4c\n        /* \".deps/github/succinctlabs/sp1-contracts/contracts/src/v5.0.0/Groth16Verifier.sol\":17660:17661  g */\n      dup3\n        /* \".deps/github/succinctlabs/sp1-contracts/contracts/src/v5.0.0/Groth16Verifier.sol\":17653:17671  mstore(g, PUB_0_X) */\n      mstore\n        /* \".deps/github/succinctlabs/sp1-contracts/contracts/src/v5.0.0/Groth16Verifier.sol\":17705:17712  PUB_0_Y */\n      0x0fa17ae9c2033379df7b5c65eff0e107055e9a273e6119a212dd09eb51707219\n        /* \".deps/github/succinctlabs/sp1-contracts/contracts/src/v5.0.0/Groth16Verifier.sol\":17698:17702  0x20 */\n      0x20\n        /* \".deps/github/succinctlabs/sp1-contracts/contracts/src/v5.0.0/Groth16Verifier.sol\":17695:17696  g */\n      dup4\n        /* \".deps/github/succinctlabs/sp1-contracts/contracts/src/v5.0.0/Groth16Verifier.sol\":17691:17703  add(g, 0x20) */\n      add\n        /* \".deps/github/succinctlabs/sp1-contracts/contracts/src/v5.0.0/Groth16Verifier.sol\":17684:17713  mstore(add(g, 0x20), PUB_0_Y) */\n      mstore\n        /* \".deps/github/succinctlabs/sp1-contracts/contracts/src/v5.0.0/Groth16Verifier.sol\":17745:17750  input */\n      dup7\n        /* \".deps/github/succinctlabs/sp1-contracts/contracts/src/v5.0.0/Groth16Verifier.sol\":17732:17751  calldataload(input) */\n      calldataload\n        /* \".deps/github/succinctlabs/sp1-contracts/contracts/src/v5.0.0/Groth16Verifier.sol\":17726:17751  s :=  calldataload(input) */\n      swap1\n      pop\n        /* \".deps/github/succinctlabs/sp1-contracts/contracts/src/v5.0.0/Groth16Verifier.sol\":17785:17786  s */\n      dup1\n        /* \".deps/github/succinctlabs/sp1-contracts/contracts/src/v5.0.0/Groth16Verifier.sol\":17778:17782  0x40 */\n      0x40\n        /* \".deps/github/succinctlabs/sp1-contracts/contracts/src/v5.0.0/Groth16Verifier.sol\":17775:17776  g */\n      dup4\n        /* \".deps/github/succinctlabs/sp1-contracts/contracts/src/v5.0.0/Groth16Verifier.sol\":17771:17783  add(g, 0x40) */\n      add\n        /* \".deps/github/succinctlabs/sp1-contracts/contracts/src/v5.0.0/Groth16Verifier.sol\":17764:17787  mstore(add(g, 0x40), s) */\n      mstore\n        /* \".deps/github/succinctlabs/sp1-contracts/contracts/src/v5.0.0/Groth16Verifier.sol\":17830:17831  R */\n      0x30644e72e131a029b85045b68181585d2833e84879b9709143e1f593f0000001\n        /* \".deps/github/succinctlabs/sp1-contracts/contracts/src/v5.0.0/Groth16Verifier.sol\":17827:17828  s */\n      dup2\n        /* \".deps/github/succinctlabs/sp1-contracts/contracts/src/v5.0.0/Groth16Verifier.sol\":17824:17832  lt(s, R) */\n      lt\n        /* \".deps/github/succinctlabs/sp1-contracts/contracts/src/v5.0.0/Groth16Verifier.sol\":17815:17822  success */\n      dup5\n        /* \".deps/github/succinctlabs/sp1-contracts/contracts/src/v5.0.0/Groth16Verifier.sol\":17811:17833  and(success, lt(s, R)) */\n      and\n        /* \".deps/github/succinctlabs/sp1-contracts/contracts/src/v5.0.0/Groth16Verifier.sol\":17800:17833  success := and(success, lt(s, R)) */\n      swap4\n      pop\n        /* \".deps/github/succinctlabs/sp1-contracts/contracts/src/v5.0.0/Groth16Verifier.sol\":17916:17920  0x40 */\n      0x40\n        /* \".deps/github/succinctlabs/sp1-contracts/contracts/src/v5.0.0/Groth16Verifier.sol\":17913:17914  g */\n      dup3\n        /* \".deps/github/succinctlabs/sp1-contracts/contracts/src/v5.0.0/Groth16Verifier.sol\":17907:17911  0x60 */\n      0x60\n        /* \".deps/github/succinctlabs/sp1-contracts/contracts/src/v5.0.0/Groth16Verifier.sol\":17904:17905  g */\n      dup5\n        /* \".deps/github/succinctlabs/sp1-contracts/contracts/src/v5.0.0/Groth16Verifier.sol\":17888:17902  PRECOMPILE_MUL */\n      0x07\n        /* \".deps/github/succinctlabs/sp1-contracts/contracts/src/v5.0.0/Groth16Verifier.sol\":17881:17886  gas() */\n      gas\n        /* \".deps/github/succinctlabs/sp1-contracts/contracts/src/v5.0.0/Groth16Verifier.sol\":17870:17921  staticcall(gas(), PRECOMPILE_MUL, g, 0x60, g, 0x40) */\n      staticcall\n        /* \".deps/github/succinctlabs/sp1-contracts/contracts/src/v5.0.0/Groth16Verifier.sol\":17861:17868  success */\n      dup5\n        /* \".deps/github/succinctlabs/sp1-contracts/contracts/src/v5.0.0/Groth16Verifier.sol\":17857:17922  and(success, staticcall(gas(), PRECOMPILE_MUL, g, 0x60, g, 0x40)) */\n      and\n        /* \".deps/github/succinctlabs/sp1-contracts/contracts/src/v5.0.0/Groth16Verifier.sol\":17846:17922  success := and(success, staticcall(gas(), PRECOMPILE_MUL, g, 0x60, g, 0x40)) */\n      swap4\n      pop\n        /* \".deps/github/succinctlabs/sp1-contracts/contracts/src/v5.0.0/Groth16Verifier.sol\":18005:18009  0x40 */\n      0x40\n        /* \".deps/github/succinctlabs/sp1-contracts/contracts/src/v5.0.0/Groth16Verifier.sol\":18002:18003  f */\n      dup4\n        /* \".deps/github/succinctlabs/sp1-contracts/contracts/src/v5.0.0/Groth16Verifier.sol\":17996:18000  0x80 */\n      0x80\n        /* \".deps/github/succinctlabs/sp1-contracts/contracts/src/v5.0.0/Groth16Verifier.sol\":17993:17994  f */\n      dup6\n        /* \".deps/github/succinctlabs/sp1-contracts/contracts/src/v5.0.0/Groth16Verifier.sol\":17977:17991  PRECOMPILE_ADD */\n      0x06\n        /* \".deps/github/succinctlabs/sp1-contracts/contracts/src/v5.0.0/Groth16Verifier.sol\":17970:17975  gas() */\n      gas\n        /* \".deps/github/succinctlabs/sp1-contracts/contracts/src/v5.0.0/Groth16Verifier.sol\":17959:18010  staticcall(gas(), PRECOMPILE_ADD, f, 0x80, f, 0x40) */\n      staticcall\n        /* \".deps/github/succinctlabs/sp1-contracts/contracts/src/v5.0.0/Groth16Verifier.sol\":17950:17957  success */\n      dup5\n        /* \".deps/github/succinctlabs/sp1-contracts/contracts/src/v5.0.0/Groth16Verifier.sol\":17946:18011  and(success, staticcall(gas(), PRECOMPILE_ADD, f, 0x80, f, 0x40)) */\n      and\n        /* \".deps/github/succinctlabs/sp1-contracts/contracts/src/v5.0.0/Groth16Verifier.sol\":17935:18011  success := and(success, staticcall(gas(), PRECOMPILE_ADD, f, 0x80, f, 0x40)) */\n      swap4\n      pop\n        /* \".deps/github/succinctlabs/sp1-contracts/contracts/src/v5.0.0/Groth16Verifier.sol\":18034:18041  PUB_1_X */\n      0x04eab241388a79817fe0e0e2ead0b2ec4ffdec51a16028dee020634fd129e71c\n        /* \".deps/github/succinctlabs/sp1-contracts/contracts/src/v5.0.0/Groth16Verifier.sol\":18031:18032  g */\n      dup3\n        /* \".deps/github/succinctlabs/sp1-contracts/contracts/src/v5.0.0/Groth16Verifier.sol\":18024:18042  mstore(g, PUB_1_X) */\n      mstore\n        /* \".deps/github/succinctlabs/sp1-contracts/contracts/src/v5.0.0/Groth16Verifier.sol\":18076:18083  PUB_1_Y */\n      0x07236256d21c60d02f0bdbf95cff83e03ea9e16fca56b18d5544b0889a65c1f5\n        /* \".deps/github/succinctlabs/sp1-contracts/contracts/src/v5.0.0/Groth16Verifier.sol\":18069:18073  0x20 */\n      0x20\n        /* \".deps/github/succinctlabs/sp1-contracts/contracts/src/v5.0.0/Groth16Verifier.sol\":18066:18067  g */\n      dup4\n        /* \".deps/github/succinctlabs/sp1-contracts/contracts/src/v5.0.0/Groth16Verifier.sol\":18062:18074  add(g, 0x20) */\n      add\n        /* \".deps/github/succinctlabs/sp1-contracts/contracts/src/v5.0.0/Groth16Verifier.sol\":18055:18084  mstore(add(g, 0x20), PUB_1_Y) */\n      mstore\n        /* \".deps/github/succinctlabs/sp1-contracts/contracts/src/v5.0.0/Groth16Verifier.sol\":18127:18129  32 */\n      0x20\n        /* \".deps/github/succinctlabs/sp1-contracts/contracts/src/v5.0.0/Groth16Verifier.sol\":18120:18125  input */\n      dup8\n        /* \".deps/github/succinctlabs/sp1-contracts/contracts/src/v5.0.0/Groth16Verifier.sol\":18116:18130  add(input, 32) */\n      add\n        /* \".deps/github/succinctlabs/sp1-contracts/contracts/src/v5.0.0/Groth16Verifier.sol\":18103:18131  calldataload(add(input, 32)) */\n      calldataload\n        /* \".deps/github/succinctlabs/sp1-contracts/contracts/src/v5.0.0/Groth16Verifier.sol\":18097:18131  s :=  calldataload(add(input, 32)) */\n      swap1\n      pop\n        /* \".deps/github/succinctlabs/sp1-contracts/contracts/src/v5.0.0/Groth16Verifier.sol\":18165:18166  s */\n      dup1\n        /* \".deps/github/succinctlabs/sp1-contracts/contracts/src/v5.0.0/Groth16Verifier.sol\":18158:18162  0x40 */\n      0x40\n        /* \".deps/github/succinctlabs/sp1-contracts/contracts/src/v5.0.0/Groth16Verifier.sol\":18155:18156  g */\n      dup4\n        /* \".deps/github/succinctlabs/sp1-contracts/contracts/src/v5.0.0/Groth16Verifier.sol\":18151:18163  add(g, 0x40) */\n      add\n        /* \".deps/github/succinctlabs/sp1-contracts/contracts/src/v5.0.0/Groth16Verifier.sol\":18144:18167  mstore(add(g, 0x40), s) */\n      mstore\n        /* \".deps/github/succinctlabs/sp1-contracts/contracts/src/v5.0.0/Groth16Verifier.sol\":18210:18211  R */\n      0x30644e72e131a029b85045b68181585d2833e84879b9709143e1f593f0000001\n        /* \".deps/github/succinctlabs/sp1-contracts/contracts/src/v5.0.0/Groth16Verifier.sol\":18207:18208  s */\n      dup2\n        /* \".deps/github/succinctlabs/sp1-contracts/contracts/src/v5.0.0/Groth16Verifier.sol\":18204:18212  lt(s, R) */\n      lt\n        /* \".deps/github/succinctlabs/sp1-contracts/contracts/src/v5.0.0/Groth16Verifier.sol\":18195:18202  success */\n      dup5\n        /* \".deps/github/succinctlabs/sp1-contracts/contracts/src/v5.0.0/Groth16Verifier.sol\":18191:18213  and(success, lt(s, R)) */\n      and\n        /* \".deps/github/succinctlabs/sp1-contracts/contracts/src/v5.0.0/Groth16Verifier.sol\":18180:18213  success := and(success, lt(s, R)) */\n      swap4\n      pop\n        /* \".deps/github/succinctlabs/sp1-contracts/contracts/src/v5.0.0/Groth16Verifier.sol\":18296:18300  0x40 */\n      0x40\n        /* \".deps/github/succinctlabs/sp1-contracts/contracts/src/v5.0.0/Groth16Verifier.sol\":18293:18294  g */\n      dup3\n        /* \".deps/github/succinctlabs/sp1-contracts/contracts/src/v5.0.0/Groth16Verifier.sol\":18287:18291  0x60 */\n      0x60\n        /* \".deps/github/succinctlabs/sp1-contracts/contracts/src/v5.0.0/Groth16Verifier.sol\":18284:18285  g */\n      dup5\n        /* \".deps/github/succinctlabs/sp1-contracts/contracts/src/v5.0.0/Groth16Verifier.sol\":18268:18282  PRECOMPILE_MUL */\n      0x07\n        /* \".deps/github/succinctlabs/sp1-contracts/contracts/src/v5.0.0/Groth16Verifier.sol\":18261:18266  gas() */\n      gas\n        /* \".deps/github/succinctlabs/sp1-contracts/contracts/src/v5.0.0/Groth16Verifier.sol\":18250:18301  staticcall(gas(), PRECOMPILE_MUL, g, 0x60, g, 0x40) */\n      staticcall\n        /* \".deps/github/succinctlabs/sp1-contracts/contracts/src/v5.0.0/Groth16Verifier.sol\":18241:18248  success */\n      dup5\n        /* \".deps/github/succinctlabs/sp1-contracts/contracts/src/v5.0.0/Groth16Verifier.sol\":18237:18302  and(success, staticcall(gas(), PRECOMPILE_MUL, g, 0x60, g, 0x40)) */\n      and\n        /* \".deps/github/succinctlabs/sp1-contracts/contracts/src/v5.0.0/Groth16Verifier.sol\":18226:18302  success := and(success, staticcall(gas(), PRECOMPILE_MUL, g, 0x60, g, 0x40)) */\n      swap4\n      pop\n        /* \".deps/github/succinctlabs/sp1-contracts/contracts/src/v5.0.0/Groth16Verifier.sol\":18385:18389  0x40 */\n      0x40\n        /* \".deps/github/succinctlabs/sp1-contracts/contracts/src/v5.0.0/Groth16Verifier.sol\":18382:18383  f */\n      dup4\n        /* \".deps/github/succinctlabs/sp1-contracts/contracts/src/v5.0.0/Groth16Verifier.sol\":18376:18380  0x80 */\n      0x80\n        /* \".deps/github/succinctlabs/sp1-contracts/contracts/src/v5.0.0/Groth16Verifier.sol\":18373:18374  f */\n      dup6\n        /* \".deps/github/succinctlabs/sp1-contracts/contracts/src/v5.0.0/Groth16Verifier.sol\":18357:18371  PRECOMPILE_ADD */\n      0x06\n        /* \".deps/github/succinctlabs/sp1-contracts/contracts/src/v5.0.0/Groth16Verifier.sol\":18350:18355  gas() */\n      gas\n        /* \".deps/github/succinctlabs/sp1-contracts/contracts/src/v5.0.0/Groth16Verifier.sol\":18339:18390  staticcall(gas(), PRECOMPILE_ADD, f, 0x80, f, 0x40) */\n      staticcall\n        /* \".deps/github/succinctlabs/sp1-contracts/contracts/src/v5.0.0/Groth16Verifier.sol\":18330:18337  success */\n      dup5\n        /* \".deps/github/succinctlabs/sp1-contracts/contracts/src/v5.0.0/Groth16Verifier.sol\":18326:18391  and(success, staticcall(gas(), PRECOMPILE_ADD, f, 0x80, f, 0x40)) */\n      and\n        /* \".deps/github/succinctlabs/sp1-contracts/contracts/src/v5.0.0/Groth16Verifier.sol\":18315:18391  success := and(success, staticcall(gas(), PRECOMPILE_ADD, f, 0x80, f, 0x40)) */\n      swap4\n      pop\n        /* \".deps/github/succinctlabs/sp1-contracts/contracts/src/v5.0.0/Groth16Verifier.sol\":18416:18417  f */\n      dup3\n        /* \".deps/github/succinctlabs/sp1-contracts/contracts/src/v5.0.0/Groth16Verifier.sol\":18410:18418  mload(f) */\n      mload\n        /* \".deps/github/succinctlabs/sp1-contracts/contracts/src/v5.0.0/Groth16Verifier.sol\":18405:18418  x := mload(f) */\n      swap6\n      pop\n        /* \".deps/github/succinctlabs/sp1-contracts/contracts/src/v5.0.0/Groth16Verifier.sol\":18449:18453  0x20 */\n      0x20\n        /* \".deps/github/succinctlabs/sp1-contracts/contracts/src/v5.0.0/Groth16Verifier.sol\":18446:18447  f */\n      dup4\n        /* \".deps/github/succinctlabs/sp1-contracts/contracts/src/v5.0.0/Groth16Verifier.sol\":18442:18454  add(f, 0x20) */\n      add\n        /* \".deps/github/succinctlabs/sp1-contracts/contracts/src/v5.0.0/Groth16Verifier.sol\":18436:18455  mload(add(f, 0x20)) */\n      mload\n        /* \".deps/github/succinctlabs/sp1-contracts/contracts/src/v5.0.0/Groth16Verifier.sol\":18431:18455  y := mload(add(f, 0x20)) */\n      swap5\n      pop\n        /* \".deps/github/succinctlabs/sp1-contracts/contracts/src/v5.0.0/Groth16Verifier.sol\":17475:18465  {... */\n      pop\n      pop\n      pop\n        /* \".deps/github/succinctlabs/sp1-contracts/contracts/src/v5.0.0/Groth16Verifier.sol\":18479:18486  success */\n      dup1\n        /* \".deps/github/succinctlabs/sp1-contracts/contracts/src/v5.0.0/Groth16Verifier.sol\":18474:18717  if (!success) {... */\n      tag_209\n      jumpi\n        /* \".deps/github/succinctlabs/sp1-contracts/contracts/src/v5.0.0/Groth16Verifier.sol\":18683:18706  PublicInputNotInField() */\n      mload(0x40)\n      0xa54f8e2700000000000000000000000000000000000000000000000000000000\n      dup2\n      mstore\n      0x04\n      add\n      mload(0x40)\n      dup1\n      swap2\n      sub\n      swap1\n      revert\n        /* \".deps/github/succinctlabs/sp1-contracts/contracts/src/v5.0.0/Groth16Verifier.sol\":18474:18717  if (!success) {... */\n    tag_209:\n        /* \".deps/github/succinctlabs/sp1-contracts/contracts/src/v5.0.0/Groth16Verifier.sol\":16818:18723  {... */\n      pop\n        /* \".deps/github/succinctlabs/sp1-contracts/contracts/src/v5.0.0/Groth16Verifier.sol\":16718:18723  function publicInputMSM(uint256[2] calldata input)... */\n      swap2\n      pop\n      swap2\n      jump\t// out\n        /* \".deps/github/succinctlabs/sp1-contracts/contracts/src/v5.0.0/Groth16Verifier.sol\":10798:11674  function decompress_g1(uint256 c) internal view returns (uint256 x, uint256 y) {... */\n    tag_63:\n        /* \".deps/github/succinctlabs/sp1-contracts/contracts/src/v5.0.0/Groth16Verifier.sol\":10855:10864  uint256 x */\n      0x00\n        /* \".deps/github/succinctlabs/sp1-contracts/contracts/src/v5.0.0/Groth16Verifier.sol\":10866:10875  uint256 y */\n      0x00\n        /* \".deps/github/succinctlabs/sp1-contracts/contracts/src/v5.0.0/Groth16Verifier.sol\":11042:11043  0 */\n      0x00\n        /* \".deps/github/succinctlabs/sp1-contracts/contracts/src/v5.0.0/Groth16Verifier.sol\":11037:11038  c */\n      dup4\n        /* \".deps/github/succinctlabs/sp1-contracts/contracts/src/v5.0.0/Groth16Verifier.sol\":11037:11043  c == 0 */\n      sub\n        /* \".deps/github/succinctlabs/sp1-contracts/contracts/src/v5.0.0/Groth16Verifier.sol\":11033:11149  if (c == 0) {... */\n      tag_211\n      jumpi\n        /* \".deps/github/succinctlabs/sp1-contracts/contracts/src/v5.0.0/Groth16Verifier.sol\":11133:11134  0 */\n      0x00\n        /* \".deps/github/succinctlabs/sp1-contracts/contracts/src/v5.0.0/Groth16Verifier.sol\":11136:11137  0 */\n      0x00\n        /* \".deps/github/succinctlabs/sp1-contracts/contracts/src/v5.0.0/Groth16Verifier.sol\":11125:11138  return (0, 0) */\n      swap2\n      pop\n      swap2\n      pop\n      jump(tag_210)\n        /* \".deps/github/succinctlabs/sp1-contracts/contracts/src/v5.0.0/Groth16Verifier.sol\":11033:11149  if (c == 0) {... */\n    tag_211:\n        /* \".deps/github/succinctlabs/sp1-contracts/contracts/src/v5.0.0/Groth16Verifier.sol\":11158:11175  bool negate_point */\n      0x00\n        /* \".deps/github/succinctlabs/sp1-contracts/contracts/src/v5.0.0/Groth16Verifier.sol\":11187:11188  1 */\n      0x01\n        /* \".deps/github/succinctlabs/sp1-contracts/contracts/src/v5.0.0/Groth16Verifier.sol\":11182:11183  1 */\n      dup1\n        /* \".deps/github/succinctlabs/sp1-contracts/contracts/src/v5.0.0/Groth16Verifier.sol\":11178:11179  c */\n      dup6\n        /* \".deps/github/succinctlabs/sp1-contracts/contracts/src/v5.0.0/Groth16Verifier.sol\":11178:11183  c & 1 */\n      and\n        /* \".deps/github/succinctlabs/sp1-contracts/contracts/src/v5.0.0/Groth16Verifier.sol\":11178:11188  c & 1 == 1 */\n      eq\n        /* \".deps/github/succinctlabs/sp1-contracts/contracts/src/v5.0.0/Groth16Verifier.sol\":11158:11188  bool negate_point = c & 1 == 1 */\n      swap1\n      pop\n        /* \".deps/github/succinctlabs/sp1-contracts/contracts/src/v5.0.0/Groth16Verifier.sol\":11207:11208  1 */\n      0x01\n        /* \".deps/github/succinctlabs/sp1-contracts/contracts/src/v5.0.0/Groth16Verifier.sol\":11202:11203  c */\n      dup5\n        /* \".deps/github/succinctlabs/sp1-contracts/contracts/src/v5.0.0/Groth16Verifier.sol\":11202:11208  c >> 1 */\n      swap1\n      shr\n        /* \".deps/github/succinctlabs/sp1-contracts/contracts/src/v5.0.0/Groth16Verifier.sol\":11198:11208  x = c >> 1 */\n      swap3\n      pop\n        /* \".deps/github/succinctlabs/sp1-contracts/contracts/src/v5.0.0/Groth16Verifier.sol\":1396:1462  0x30644e72e131a029b85045b68181585d97816a916871ca8d3c208c16d87cfd47 */\n      0x30644e72e131a029b85045b68181585d97816a916871ca8d3c208c16d87cfd47\n        /* \".deps/github/succinctlabs/sp1-contracts/contracts/src/v5.0.0/Groth16Verifier.sol\":11222:11223  x */\n      dup4\n        /* \".deps/github/succinctlabs/sp1-contracts/contracts/src/v5.0.0/Groth16Verifier.sol\":11222:11228  x >= P */\n      lt\n        /* \".deps/github/succinctlabs/sp1-contracts/contracts/src/v5.0.0/Groth16Verifier.sol\":11218:11321  if (x >= P) {... */\n      tag_212\n      jumpi\n        /* \".deps/github/succinctlabs/sp1-contracts/contracts/src/v5.0.0/Groth16Verifier.sol\":11296:11310  ProofInvalid() */\n      mload(0x40)\n      0x7fcdd1f400000000000000000000000000000000000000000000000000000000\n      dup2\n      mstore\n      0x04\n      add\n      mload(0x40)\n      dup1\n      swap2\n      sub\n      swap1\n      revert\n        /* \".deps/github/succinctlabs/sp1-contracts/contracts/src/v5.0.0/Groth16Verifier.sol\":11218:11321  if (x >= P) {... */\n    tag_212:\n        /* \".deps/github/succinctlabs/sp1-contracts/contracts/src/v5.0.0/Groth16Verifier.sol\":11550:11602  sqrt_Fp(addmod(mulmod(mulmod(x, x, P), x, P), 3, P)) */\n      tag_213\n        /* \".deps/github/succinctlabs/sp1-contracts/contracts/src/v5.0.0/Groth16Verifier.sol\":1396:1462  0x30644e72e131a029b85045b68181585d97816a916871ca8d3c208c16d87cfd47 */\n      0x30644e72e131a029b85045b68181585d97816a916871ca8d3c208c16d87cfd47\n        /* \".deps/github/succinctlabs/sp1-contracts/contracts/src/v5.0.0/Groth16Verifier.sol\":11558:11601  addmod(mulmod(mulmod(x, x, P), x, P), 3, P) */\n      dup1\n      tag_214\n      jumpi\n      tag_215\n      tag_136\n      jump\t// in\n    tag_215:\n    tag_214:\n        /* \".deps/github/succinctlabs/sp1-contracts/contracts/src/v5.0.0/Groth16Verifier.sol\":11596:11597  3 */\n      0x03\n        /* \".deps/github/succinctlabs/sp1-contracts/contracts/src/v5.0.0/Groth16Verifier.sol\":1396:1462  0x30644e72e131a029b85045b68181585d97816a916871ca8d3c208c16d87cfd47 */\n      0x30644e72e131a029b85045b68181585d97816a916871ca8d3c208c16d87cfd47\n        /* \".deps/github/succinctlabs/sp1-contracts/contracts/src/v5.0.0/Groth16Verifier.sol\":11565:11594  mulmod(mulmod(x, x, P), x, P) */\n      dup1\n      tag_216\n      jumpi\n      tag_217\n      tag_136\n      jump\t// in\n    tag_217:\n    tag_216:\n        /* \".deps/github/succinctlabs/sp1-contracts/contracts/src/v5.0.0/Groth16Verifier.sol\":11589:11590  x */\n      dup7\n        /* \".deps/github/succinctlabs/sp1-contracts/contracts/src/v5.0.0/Groth16Verifier.sol\":1396:1462  0x30644e72e131a029b85045b68181585d97816a916871ca8d3c208c16d87cfd47 */\n      0x30644e72e131a029b85045b68181585d97816a916871ca8d3c208c16d87cfd47\n        /* \".deps/github/succinctlabs/sp1-contracts/contracts/src/v5.0.0/Groth16Verifier.sol\":11572:11587  mulmod(x, x, P) */\n      dup1\n      tag_218\n      jumpi\n      tag_219\n      tag_136\n      jump\t// in\n    tag_219:\n    tag_218:\n        /* \".deps/github/succinctlabs/sp1-contracts/contracts/src/v5.0.0/Groth16Verifier.sol\":11582:11583  x */\n      dup9\n        /* \".deps/github/succinctlabs/sp1-contracts/contracts/src/v5.0.0/Groth16Verifier.sol\":11579:11580  x */\n      dup10\n        /* \".deps/github/succinctlabs/sp1-contracts/contracts/src/v5.0.0/Groth16Verifier.sol\":11572:11587  mulmod(x, x, P) */\n      mulmod\n        /* \".deps/github/succinctlabs/sp1-contracts/contracts/src/v5.0.0/Groth16Verifier.sol\":11565:11594  mulmod(mulmod(x, x, P), x, P) */\n      mulmod\n        /* \".deps/github/succinctlabs/sp1-contracts/contracts/src/v5.0.0/Groth16Verifier.sol\":11558:11601  addmod(mulmod(mulmod(x, x, P), x, P), 3, P) */\n      addmod\n        /* \".deps/github/succinctlabs/sp1-contracts/contracts/src/v5.0.0/Groth16Verifier.sol\":11550:11557  sqrt_Fp */\n      tag_141\n        /* \".deps/github/succinctlabs/sp1-contracts/contracts/src/v5.0.0/Groth16Verifier.sol\":11550:11602  sqrt_Fp(addmod(mulmod(mulmod(x, x, P), x, P), 3, P)) */\n      jump\t// in\n    tag_213:\n        /* \".deps/github/succinctlabs/sp1-contracts/contracts/src/v5.0.0/Groth16Verifier.sol\":11546:11602  y = sqrt_Fp(addmod(mulmod(mulmod(x, x, P), x, P), 3, P)) */\n      swap2\n      pop\n        /* \".deps/github/succinctlabs/sp1-contracts/contracts/src/v5.0.0/Groth16Verifier.sol\":11616:11628  negate_point */\n      dup1\n        /* \".deps/github/succinctlabs/sp1-contracts/contracts/src/v5.0.0/Groth16Verifier.sol\":11612:11668  if (negate_point) {... */\n      iszero\n      tag_220\n      jumpi\n        /* \".deps/github/succinctlabs/sp1-contracts/contracts/src/v5.0.0/Groth16Verifier.sol\":11648:11657  negate(y) */\n      tag_221\n        /* \".deps/github/succinctlabs/sp1-contracts/contracts/src/v5.0.0/Groth16Verifier.sol\":11655:11656  y */\n      dup3\n        /* \".deps/github/succinctlabs/sp1-contracts/contracts/src/v5.0.0/Groth16Verifier.sol\":11648:11654  negate */\n      tag_145\n        /* \".deps/github/succinctlabs/sp1-contracts/contracts/src/v5.0.0/Groth16Verifier.sol\":11648:11657  negate(y) */\n      jump\t// in\n    tag_221:\n        /* \".deps/github/succinctlabs/sp1-contracts/contracts/src/v5.0.0/Groth16Verifier.sol\":11644:11657  y = negate(y) */\n      swap2\n      pop\n        /* \".deps/github/succinctlabs/sp1-contracts/contracts/src/v5.0.0/Groth16Verifier.sol\":11612:11668  if (negate_point) {... */\n    tag_220:\n        /* \".deps/github/succinctlabs/sp1-contracts/contracts/src/v5.0.0/Groth16Verifier.sol\":10877:11674  {... */\n      pop\n        /* \".deps/github/succinctlabs/sp1-contracts/contracts/src/v5.0.0/Groth16Verifier.sol\":10798:11674  function decompress_g1(uint256 c) internal view returns (uint256 x, uint256 y) {... */\n    tag_210:\n      swap2\n      pop\n      swap2\n      jump\t// out\n        /* \".deps/github/succinctlabs/sp1-contracts/contracts/src/v5.0.0/Groth16Verifier.sol\":14840:16219  function decompress_g2(uint256 c0, uint256 c1)... */\n    tag_69:\n        /* \".deps/github/succinctlabs/sp1-contracts/contracts/src/v5.0.0/Groth16Verifier.sol\":14914:14924  uint256 x0 */\n      0x00\n        /* \".deps/github/succinctlabs/sp1-contracts/contracts/src/v5.0.0/Groth16Verifier.sol\":14926:14936  uint256 x1 */\n      0x00\n        /* \".deps/github/succinctlabs/sp1-contracts/contracts/src/v5.0.0/Groth16Verifier.sol\":14938:14948  uint256 y0 */\n      0x00\n        /* \".deps/github/succinctlabs/sp1-contracts/contracts/src/v5.0.0/Groth16Verifier.sol\":14950:14960  uint256 y1 */\n      0x00\n        /* \".deps/github/succinctlabs/sp1-contracts/contracts/src/v5.0.0/Groth16Verifier.sol\":15137:15138  0 */\n      0x00\n        /* \".deps/github/succinctlabs/sp1-contracts/contracts/src/v5.0.0/Groth16Verifier.sol\":15131:15133  c0 */\n      dup7\n        /* \".deps/github/succinctlabs/sp1-contracts/contracts/src/v5.0.0/Groth16Verifier.sol\":15131:15138  c0 == 0 */\n      eq\n        /* \".deps/github/succinctlabs/sp1-contracts/contracts/src/v5.0.0/Groth16Verifier.sol\":15131:15149  c0 == 0 && c1 == 0 */\n      dup1\n      iszero\n      tag_223\n      jumpi\n      pop\n        /* \".deps/github/succinctlabs/sp1-contracts/contracts/src/v5.0.0/Groth16Verifier.sol\":15148:15149  0 */\n      0x00\n        /* \".deps/github/succinctlabs/sp1-contracts/contracts/src/v5.0.0/Groth16Verifier.sol\":15142:15144  c1 */\n      dup6\n        /* \".deps/github/succinctlabs/sp1-contracts/contracts/src/v5.0.0/Groth16Verifier.sol\":15142:15149  c1 == 0 */\n      eq\n        /* \".deps/github/succinctlabs/sp1-contracts/contracts/src/v5.0.0/Groth16Verifier.sol\":15131:15149  c0 == 0 && c1 == 0 */\n    tag_223:\n        /* \".deps/github/succinctlabs/sp1-contracts/contracts/src/v5.0.0/Groth16Verifier.sol\":15127:15250  if (c0 == 0 && c1 == 0) {... */\n      iszero\n      tag_224\n      jumpi\n        /* \".deps/github/succinctlabs/sp1-contracts/contracts/src/v5.0.0/Groth16Verifier.sol\":15228:15229  0 */\n      0x00\n        /* \".deps/github/succinctlabs/sp1-contracts/contracts/src/v5.0.0/Groth16Verifier.sol\":15231:15232  0 */\n      0x00\n        /* \".deps/github/succinctlabs/sp1-contracts/contracts/src/v5.0.0/Groth16Verifier.sol\":15234:15235  0 */\n      0x00\n        /* \".deps/github/succinctlabs/sp1-contracts/contracts/src/v5.0.0/Groth16Verifier.sol\":15237:15238  0 */\n      0x00\n        /* \".deps/github/succinctlabs/sp1-contracts/contracts/src/v5.0.0/Groth16Verifier.sol\":15220:15239  return (0, 0, 0, 0) */\n      swap4\n      pop\n      swap4\n      pop\n      swap4\n      pop\n      swap4\n      pop\n      jump(tag_222)\n        /* \".deps/github/succinctlabs/sp1-contracts/contracts/src/v5.0.0/Groth16Verifier.sol\":15127:15250  if (c0 == 0 && c1 == 0) {... */\n    tag_224:\n        /* \".deps/github/succinctlabs/sp1-contracts/contracts/src/v5.0.0/Groth16Verifier.sol\":15259:15276  bool negate_point */\n      0x00\n        /* \".deps/github/succinctlabs/sp1-contracts/contracts/src/v5.0.0/Groth16Verifier.sol\":15289:15290  1 */\n      0x01\n        /* \".deps/github/succinctlabs/sp1-contracts/contracts/src/v5.0.0/Groth16Verifier.sol\":15284:15285  1 */\n      dup1\n        /* \".deps/github/succinctlabs/sp1-contracts/contracts/src/v5.0.0/Groth16Verifier.sol\":15279:15281  c0 */\n      dup9\n        /* \".deps/github/succinctlabs/sp1-contracts/contracts/src/v5.0.0/Groth16Verifier.sol\":15279:15285  c0 & 1 */\n      and\n        /* \".deps/github/succinctlabs/sp1-contracts/contracts/src/v5.0.0/Groth16Verifier.sol\":15279:15290  c0 & 1 == 1 */\n      eq\n        /* \".deps/github/succinctlabs/sp1-contracts/contracts/src/v5.0.0/Groth16Verifier.sol\":15259:15290  bool negate_point = c0 & 1 == 1 */\n      swap1\n      pop\n        /* \".deps/github/succinctlabs/sp1-contracts/contracts/src/v5.0.0/Groth16Verifier.sol\":15300:15309  bool hint */\n      0x00\n        /* \".deps/github/succinctlabs/sp1-contracts/contracts/src/v5.0.0/Groth16Verifier.sol\":15322:15323  2 */\n      0x02\n        /* \".deps/github/succinctlabs/sp1-contracts/contracts/src/v5.0.0/Groth16Verifier.sol\":15317:15318  2 */\n      dup1\n        /* \".deps/github/succinctlabs/sp1-contracts/contracts/src/v5.0.0/Groth16Verifier.sol\":15312:15314  c0 */\n      dup10\n        /* \".deps/github/succinctlabs/sp1-contracts/contracts/src/v5.0.0/Groth16Verifier.sol\":15312:15318  c0 & 2 */\n      and\n        /* \".deps/github/succinctlabs/sp1-contracts/contracts/src/v5.0.0/Groth16Verifier.sol\":15312:15323  c0 & 2 == 2 */\n      eq\n        /* \".deps/github/succinctlabs/sp1-contracts/contracts/src/v5.0.0/Groth16Verifier.sol\":15300:15323  bool hint = c0 & 2 == 2 */\n      swap1\n      pop\n        /* \".deps/github/succinctlabs/sp1-contracts/contracts/src/v5.0.0/Groth16Verifier.sol\":15344:15345  2 */\n      0x02\n        /* \".deps/github/succinctlabs/sp1-contracts/contracts/src/v5.0.0/Groth16Verifier.sol\":15338:15340  c0 */\n      dup9\n        /* \".deps/github/succinctlabs/sp1-contracts/contracts/src/v5.0.0/Groth16Verifier.sol\":15338:15345  c0 >> 2 */\n      swap1\n      shr\n        /* \".deps/github/succinctlabs/sp1-contracts/contracts/src/v5.0.0/Groth16Verifier.sol\":15333:15345  x0 = c0 >> 2 */\n      swap6\n      pop\n        /* \".deps/github/succinctlabs/sp1-contracts/contracts/src/v5.0.0/Groth16Verifier.sol\":15360:15362  c1 */\n      dup7\n        /* \".deps/github/succinctlabs/sp1-contracts/contracts/src/v5.0.0/Groth16Verifier.sol\":15355:15362  x1 = c1 */\n      swap5\n      pop\n        /* \".deps/github/succinctlabs/sp1-contracts/contracts/src/v5.0.0/Groth16Verifier.sol\":1396:1462  0x30644e72e131a029b85045b68181585d97816a916871ca8d3c208c16d87cfd47 */\n      0x30644e72e131a029b85045b68181585d97816a916871ca8d3c208c16d87cfd47\n        /* \".deps/github/succinctlabs/sp1-contracts/contracts/src/v5.0.0/Groth16Verifier.sol\":15376:15378  x0 */\n      dup7\n        /* \".deps/github/succinctlabs/sp1-contracts/contracts/src/v5.0.0/Groth16Verifier.sol\":15376:15383  x0 >= P */\n      lt\n      iszero\n        /* \".deps/github/succinctlabs/sp1-contracts/contracts/src/v5.0.0/Groth16Verifier.sol\":15376:15394  x0 >= P || x1 >= P */\n      dup1\n      tag_225\n      jumpi\n      pop\n        /* \".deps/github/succinctlabs/sp1-contracts/contracts/src/v5.0.0/Groth16Verifier.sol\":1396:1462  0x30644e72e131a029b85045b68181585d97816a916871ca8d3c208c16d87cfd47 */\n      0x30644e72e131a029b85045b68181585d97816a916871ca8d3c208c16d87cfd47\n        /* \".deps/github/succinctlabs/sp1-contracts/contracts/src/v5.0.0/Groth16Verifier.sol\":15387:15389  x1 */\n      dup6\n        /* \".deps/github/succinctlabs/sp1-contracts/contracts/src/v5.0.0/Groth16Verifier.sol\":15387:15394  x1 >= P */\n      lt\n      iszero\n        /* \".deps/github/succinctlabs/sp1-contracts/contracts/src/v5.0.0/Groth16Verifier.sol\":15376:15394  x0 >= P || x1 >= P */\n    tag_225:\n        /* \".deps/github/succinctlabs/sp1-contracts/contracts/src/v5.0.0/Groth16Verifier.sol\":15372:15495  if (x0 >= P || x1 >= P) {... */\n      iszero\n      tag_226\n      jumpi\n        /* \".deps/github/succinctlabs/sp1-contracts/contracts/src/v5.0.0/Groth16Verifier.sol\":15470:15484  ProofInvalid() */\n      mload(0x40)\n      0x7fcdd1f400000000000000000000000000000000000000000000000000000000\n      dup2\n      mstore\n      0x04\n      add\n      mload(0x40)\n      dup1\n      swap2\n      sub\n      swap1\n      revert\n        /* \".deps/github/succinctlabs/sp1-contracts/contracts/src/v5.0.0/Groth16Verifier.sol\":15372:15495  if (x0 >= P || x1 >= P) {... */\n    tag_226:\n        /* \".deps/github/succinctlabs/sp1-contracts/contracts/src/v5.0.0/Groth16Verifier.sol\":15505:15517  uint256 n3ab */\n      0x00\n        /* \".deps/github/succinctlabs/sp1-contracts/contracts/src/v5.0.0/Groth16Verifier.sol\":1396:1462  0x30644e72e131a029b85045b68181585d97816a916871ca8d3c208c16d87cfd47 */\n      0x30644e72e131a029b85045b68181585d97816a916871ca8d3c208c16d87cfd47\n        /* \".deps/github/succinctlabs/sp1-contracts/contracts/src/v5.0.0/Groth16Verifier.sol\":15520:15553  mulmod(mulmod(x0, x1, P), P-3, P) */\n      dup1\n      tag_227\n      jumpi\n      tag_228\n      tag_136\n      jump\t// in\n    tag_228:\n    tag_227:\n        /* \".deps/github/succinctlabs/sp1-contracts/contracts/src/v5.0.0/Groth16Verifier.sol\":15548:15549  3 */\n      0x03\n        /* \".deps/github/succinctlabs/sp1-contracts/contracts/src/v5.0.0/Groth16Verifier.sol\":1396:1462  0x30644e72e131a029b85045b68181585d97816a916871ca8d3c208c16d87cfd47 */\n      0x30644e72e131a029b85045b68181585d97816a916871ca8d3c208c16d87cfd47\n        /* \".deps/github/succinctlabs/sp1-contracts/contracts/src/v5.0.0/Groth16Verifier.sol\":15546:15549  P-3 */\n      tag_229\n      swap2\n      swap1\n      tag_157\n      jump\t// in\n    tag_229:\n        /* \".deps/github/succinctlabs/sp1-contracts/contracts/src/v5.0.0/Groth16Verifier.sol\":1396:1462  0x30644e72e131a029b85045b68181585d97816a916871ca8d3c208c16d87cfd47 */\n      0x30644e72e131a029b85045b68181585d97816a916871ca8d3c208c16d87cfd47\n        /* \".deps/github/succinctlabs/sp1-contracts/contracts/src/v5.0.0/Groth16Verifier.sol\":15527:15544  mulmod(x0, x1, P) */\n      dup1\n      tag_230\n      jumpi\n      tag_231\n      tag_136\n      jump\t// in\n    tag_231:\n    tag_230:\n        /* \".deps/github/succinctlabs/sp1-contracts/contracts/src/v5.0.0/Groth16Verifier.sol\":15538:15540  x1 */\n      dup9\n        /* \".deps/github/succinctlabs/sp1-contracts/contracts/src/v5.0.0/Groth16Verifier.sol\":15534:15536  x0 */\n      dup11\n        /* \".deps/github/succinctlabs/sp1-contracts/contracts/src/v5.0.0/Groth16Verifier.sol\":15527:15544  mulmod(x0, x1, P) */\n      mulmod\n        /* \".deps/github/succinctlabs/sp1-contracts/contracts/src/v5.0.0/Groth16Verifier.sol\":15520:15553  mulmod(mulmod(x0, x1, P), P-3, P) */\n      mulmod\n        /* \".deps/github/succinctlabs/sp1-contracts/contracts/src/v5.0.0/Groth16Verifier.sol\":15505:15553  uint256 n3ab = mulmod(mulmod(x0, x1, P), P-3, P) */\n      swap1\n      pop\n        /* \".deps/github/succinctlabs/sp1-contracts/contracts/src/v5.0.0/Groth16Verifier.sol\":15563:15574  uint256 a_3 */\n      0x00\n        /* \".deps/github/succinctlabs/sp1-contracts/contracts/src/v5.0.0/Groth16Verifier.sol\":1396:1462  0x30644e72e131a029b85045b68181585d97816a916871ca8d3c208c16d87cfd47 */\n      0x30644e72e131a029b85045b68181585d97816a916871ca8d3c208c16d87cfd47\n        /* \".deps/github/succinctlabs/sp1-contracts/contracts/src/v5.0.0/Groth16Verifier.sol\":15577:15609  mulmod(mulmod(x0, x0, P), x0, P) */\n      dup1\n      tag_232\n      jumpi\n      tag_233\n      tag_136\n      jump\t// in\n    tag_233:\n    tag_232:\n        /* \".deps/github/succinctlabs/sp1-contracts/contracts/src/v5.0.0/Groth16Verifier.sol\":15603:15605  x0 */\n      dup9\n        /* \".deps/github/succinctlabs/sp1-contracts/contracts/src/v5.0.0/Groth16Verifier.sol\":1396:1462  0x30644e72e131a029b85045b68181585d97816a916871ca8d3c208c16d87cfd47 */\n      0x30644e72e131a029b85045b68181585d97816a916871ca8d3c208c16d87cfd47\n        /* \".deps/github/succinctlabs/sp1-contracts/contracts/src/v5.0.0/Groth16Verifier.sol\":15584:15601  mulmod(x0, x0, P) */\n      dup1\n      tag_234\n      jumpi\n      tag_235\n      tag_136\n      jump\t// in\n    tag_235:\n    tag_234:\n        /* \".deps/github/succinctlabs/sp1-contracts/contracts/src/v5.0.0/Groth16Verifier.sol\":15595:15597  x0 */\n      dup11\n        /* \".deps/github/succinctlabs/sp1-contracts/contracts/src/v5.0.0/Groth16Verifier.sol\":15591:15593  x0 */\n      dup12\n        /* \".deps/github/succinctlabs/sp1-contracts/contracts/src/v5.0.0/Groth16Verifier.sol\":15584:15601  mulmod(x0, x0, P) */\n      mulmod\n        /* \".deps/github/succinctlabs/sp1-contracts/contracts/src/v5.0.0/Groth16Verifier.sol\":15577:15609  mulmod(mulmod(x0, x0, P), x0, P) */\n      mulmod\n        /* \".deps/github/succinctlabs/sp1-contracts/contracts/src/v5.0.0/Groth16Verifier.sol\":15563:15609  uint256 a_3 = mulmod(mulmod(x0, x0, P), x0, P) */\n      swap1\n      pop\n        /* \".deps/github/succinctlabs/sp1-contracts/contracts/src/v5.0.0/Groth16Verifier.sol\":15619:15630  uint256 b_3 */\n      0x00\n        /* \".deps/github/succinctlabs/sp1-contracts/contracts/src/v5.0.0/Groth16Verifier.sol\":1396:1462  0x30644e72e131a029b85045b68181585d97816a916871ca8d3c208c16d87cfd47 */\n      0x30644e72e131a029b85045b68181585d97816a916871ca8d3c208c16d87cfd47\n        /* \".deps/github/succinctlabs/sp1-contracts/contracts/src/v5.0.0/Groth16Verifier.sol\":15633:15665  mulmod(mulmod(x1, x1, P), x1, P) */\n      dup1\n      tag_236\n      jumpi\n      tag_237\n      tag_136\n      jump\t// in\n    tag_237:\n    tag_236:\n        /* \".deps/github/succinctlabs/sp1-contracts/contracts/src/v5.0.0/Groth16Verifier.sol\":15659:15661  x1 */\n      dup9\n        /* \".deps/github/succinctlabs/sp1-contracts/contracts/src/v5.0.0/Groth16Verifier.sol\":1396:1462  0x30644e72e131a029b85045b68181585d97816a916871ca8d3c208c16d87cfd47 */\n      0x30644e72e131a029b85045b68181585d97816a916871ca8d3c208c16d87cfd47\n        /* \".deps/github/succinctlabs/sp1-contracts/contracts/src/v5.0.0/Groth16Verifier.sol\":15640:15657  mulmod(x1, x1, P) */\n      dup1\n      tag_238\n      jumpi\n      tag_239\n      tag_136\n      jump\t// in\n    tag_239:\n    tag_238:\n        /* \".deps/github/succinctlabs/sp1-contracts/contracts/src/v5.0.0/Groth16Verifier.sol\":15651:15653  x1 */\n      dup11\n        /* \".deps/github/succinctlabs/sp1-contracts/contracts/src/v5.0.0/Groth16Verifier.sol\":15647:15649  x1 */\n      dup12\n        /* \".deps/github/succinctlabs/sp1-contracts/contracts/src/v5.0.0/Groth16Verifier.sol\":15640:15657  mulmod(x1, x1, P) */\n      mulmod\n        /* \".deps/github/succinctlabs/sp1-contracts/contracts/src/v5.0.0/Groth16Verifier.sol\":15633:15665  mulmod(mulmod(x1, x1, P), x1, P) */\n      mulmod\n        /* \".deps/github/succinctlabs/sp1-contracts/contracts/src/v5.0.0/Groth16Verifier.sol\":15619:15665  uint256 b_3 = mulmod(mulmod(x1, x1, P), x1, P) */\n      swap1\n      pop\n        /* \".deps/github/succinctlabs/sp1-contracts/contracts/src/v5.0.0/Groth16Verifier.sol\":1396:1462  0x30644e72e131a029b85045b68181585d97816a916871ca8d3c208c16d87cfd47 */\n      0x30644e72e131a029b85045b68181585d97816a916871ca8d3c208c16d87cfd47\n        /* \".deps/github/succinctlabs/sp1-contracts/contracts/src/v5.0.0/Groth16Verifier.sol\":15681:15746  addmod(FRACTION_27_82_FP, addmod(a_3, mulmod(n3ab, x1, P), P), P) */\n      dup1\n      tag_240\n      jumpi\n      tag_241\n      tag_136\n      jump\t// in\n    tag_241:\n    tag_240:\n        /* \".deps/github/succinctlabs/sp1-contracts/contracts/src/v5.0.0/Groth16Verifier.sol\":1396:1462  0x30644e72e131a029b85045b68181585d97816a916871ca8d3c208c16d87cfd47 */\n      0x30644e72e131a029b85045b68181585d97816a916871ca8d3c208c16d87cfd47\n        /* \".deps/github/succinctlabs/sp1-contracts/contracts/src/v5.0.0/Groth16Verifier.sol\":15707:15742  addmod(a_3, mulmod(n3ab, x1, P), P) */\n      dup1\n      tag_242\n      jumpi\n      tag_243\n      tag_136\n      jump\t// in\n    tag_243:\n    tag_242:\n        /* \".deps/github/succinctlabs/sp1-contracts/contracts/src/v5.0.0/Groth16Verifier.sol\":1396:1462  0x30644e72e131a029b85045b68181585d97816a916871ca8d3c208c16d87cfd47 */\n      0x30644e72e131a029b85045b68181585d97816a916871ca8d3c208c16d87cfd47\n        /* \".deps/github/succinctlabs/sp1-contracts/contracts/src/v5.0.0/Groth16Verifier.sol\":15719:15738  mulmod(n3ab, x1, P) */\n      dup1\n      tag_244\n      jumpi\n      tag_245\n      tag_136\n      jump\t// in\n    tag_245:\n    tag_244:\n        /* \".deps/github/succinctlabs/sp1-contracts/contracts/src/v5.0.0/Groth16Verifier.sol\":15732:15734  x1 */\n      dup11\n        /* \".deps/github/succinctlabs/sp1-contracts/contracts/src/v5.0.0/Groth16Verifier.sol\":15726:15730  n3ab */\n      dup7\n        /* \".deps/github/succinctlabs/sp1-contracts/contracts/src/v5.0.0/Groth16Verifier.sol\":15719:15738  mulmod(n3ab, x1, P) */\n      mulmod\n        /* \".deps/github/succinctlabs/sp1-contracts/contracts/src/v5.0.0/Groth16Verifier.sol\":15714:15717  a_3 */\n      dup5\n        /* \".deps/github/succinctlabs/sp1-contracts/contracts/src/v5.0.0/Groth16Verifier.sol\":15707:15742  addmod(a_3, mulmod(n3ab, x1, P), P) */\n      addmod\n        /* \".deps/github/succinctlabs/sp1-contracts/contracts/src/v5.0.0/Groth16Verifier.sol\":2215:2281  0x2b149d40ceb8aaae81be18991be06ac3b5b4c5e559dbefa33267e6dc24a138e5 */\n      0x2b149d40ceb8aaae81be18991be06ac3b5b4c5e559dbefa33267e6dc24a138e5\n        /* \".deps/github/succinctlabs/sp1-contracts/contracts/src/v5.0.0/Groth16Verifier.sol\":15681:15746  addmod(FRACTION_27_82_FP, addmod(a_3, mulmod(n3ab, x1, P), P), P) */\n      addmod\n        /* \".deps/github/succinctlabs/sp1-contracts/contracts/src/v5.0.0/Groth16Verifier.sol\":15676:15746  y0 = addmod(FRACTION_27_82_FP, addmod(a_3, mulmod(n3ab, x1, P), P), P) */\n      swap7\n      pop\n        /* \".deps/github/succinctlabs/sp1-contracts/contracts/src/v5.0.0/Groth16Verifier.sol\":15761:15834  negate(addmod(FRACTION_3_82_FP,  addmod(b_3, mulmod(n3ab, x0, P), P), P)) */\n      tag_246\n        /* \".deps/github/succinctlabs/sp1-contracts/contracts/src/v5.0.0/Groth16Verifier.sol\":1396:1462  0x30644e72e131a029b85045b68181585d97816a916871ca8d3c208c16d87cfd47 */\n      0x30644e72e131a029b85045b68181585d97816a916871ca8d3c208c16d87cfd47\n        /* \".deps/github/succinctlabs/sp1-contracts/contracts/src/v5.0.0/Groth16Verifier.sol\":15768:15833  addmod(FRACTION_3_82_FP,  addmod(b_3, mulmod(n3ab, x0, P), P), P) */\n      dup1\n      tag_247\n      jumpi\n      tag_248\n      tag_136\n      jump\t// in\n    tag_248:\n    tag_247:\n        /* \".deps/github/succinctlabs/sp1-contracts/contracts/src/v5.0.0/Groth16Verifier.sol\":1396:1462  0x30644e72e131a029b85045b68181585d97816a916871ca8d3c208c16d87cfd47 */\n      0x30644e72e131a029b85045b68181585d97816a916871ca8d3c208c16d87cfd47\n        /* \".deps/github/succinctlabs/sp1-contracts/contracts/src/v5.0.0/Groth16Verifier.sol\":15794:15829  addmod(b_3, mulmod(n3ab, x0, P), P) */\n      dup1\n      tag_249\n      jumpi\n      tag_250\n      tag_136\n      jump\t// in\n    tag_250:\n    tag_249:\n        /* \".deps/github/succinctlabs/sp1-contracts/contracts/src/v5.0.0/Groth16Verifier.sol\":1396:1462  0x30644e72e131a029b85045b68181585d97816a916871ca8d3c208c16d87cfd47 */\n      0x30644e72e131a029b85045b68181585d97816a916871ca8d3c208c16d87cfd47\n        /* \".deps/github/succinctlabs/sp1-contracts/contracts/src/v5.0.0/Groth16Verifier.sol\":15806:15825  mulmod(n3ab, x0, P) */\n      dup1\n      tag_251\n      jumpi\n      tag_252\n      tag_136\n      jump\t// in\n    tag_252:\n    tag_251:\n        /* \".deps/github/succinctlabs/sp1-contracts/contracts/src/v5.0.0/Groth16Verifier.sol\":15819:15821  x0 */\n      dup13\n        /* \".deps/github/succinctlabs/sp1-contracts/contracts/src/v5.0.0/Groth16Verifier.sol\":15813:15817  n3ab */\n      dup8\n        /* \".deps/github/succinctlabs/sp1-contracts/contracts/src/v5.0.0/Groth16Verifier.sol\":15806:15825  mulmod(n3ab, x0, P) */\n      mulmod\n        /* \".deps/github/succinctlabs/sp1-contracts/contracts/src/v5.0.0/Groth16Verifier.sol\":15801:15804  b_3 */\n      dup5\n        /* \".deps/github/succinctlabs/sp1-contracts/contracts/src/v5.0.0/Groth16Verifier.sol\":15794:15829  addmod(b_3, mulmod(n3ab, x0, P), P) */\n      addmod\n        /* \".deps/github/succinctlabs/sp1-contracts/contracts/src/v5.0.0/Groth16Verifier.sol\":2323:2389  0x2fcd3ac2a640a154eb23960892a85a68f031ca0c8344b23a577dcf1052b9e775 */\n      0x2fcd3ac2a640a154eb23960892a85a68f031ca0c8344b23a577dcf1052b9e775\n        /* \".deps/github/succinctlabs/sp1-contracts/contracts/src/v5.0.0/Groth16Verifier.sol\":15768:15833  addmod(FRACTION_3_82_FP,  addmod(b_3, mulmod(n3ab, x0, P), P), P) */\n      addmod\n        /* \".deps/github/succinctlabs/sp1-contracts/contracts/src/v5.0.0/Groth16Verifier.sol\":15761:15767  negate */\n      tag_145\n        /* \".deps/github/succinctlabs/sp1-contracts/contracts/src/v5.0.0/Groth16Verifier.sol\":15761:15834  negate(addmod(FRACTION_3_82_FP,  addmod(b_3, mulmod(n3ab, x0, P), P), P)) */\n      jump\t// in\n    tag_246:\n        /* \".deps/github/succinctlabs/sp1-contracts/contracts/src/v5.0.0/Groth16Verifier.sol\":15756:15834  y1 = negate(addmod(FRACTION_3_82_FP,  addmod(b_3, mulmod(n3ab, x0, P), P), P)) */\n      swap6\n      pop\n        /* \".deps/github/succinctlabs/sp1-contracts/contracts/src/v5.0.0/Groth16Verifier.sol\":16094:16116  sqrt_Fp2(y0, y1, hint) */\n      tag_253\n        /* \".deps/github/succinctlabs/sp1-contracts/contracts/src/v5.0.0/Groth16Verifier.sol\":16103:16105  y0 */\n      dup8\n        /* \".deps/github/succinctlabs/sp1-contracts/contracts/src/v5.0.0/Groth16Verifier.sol\":16107:16109  y1 */\n      dup8\n        /* \".deps/github/succinctlabs/sp1-contracts/contracts/src/v5.0.0/Groth16Verifier.sol\":16111:16115  hint */\n      dup7\n        /* \".deps/github/succinctlabs/sp1-contracts/contracts/src/v5.0.0/Groth16Verifier.sol\":16094:16102  sqrt_Fp2 */\n      tag_195\n        /* \".deps/github/succinctlabs/sp1-contracts/contracts/src/v5.0.0/Groth16Verifier.sol\":16094:16116  sqrt_Fp2(y0, y1, hint) */\n      jump\t// in\n    tag_253:\n        /* \".deps/github/succinctlabs/sp1-contracts/contracts/src/v5.0.0/Groth16Verifier.sol\":16083:16116  (y0, y1) = sqrt_Fp2(y0, y1, hint) */\n      dup1\n      swap8\n      pop\n      dup2\n      swap9\n      pop\n      pop\n      pop\n        /* \".deps/github/succinctlabs/sp1-contracts/contracts/src/v5.0.0/Groth16Verifier.sol\":16130:16142  negate_point */\n      dup5\n        /* \".deps/github/succinctlabs/sp1-contracts/contracts/src/v5.0.0/Groth16Verifier.sol\":16126:16213  if (negate_point) {... */\n      iszero\n      tag_254\n      jumpi\n        /* \".deps/github/succinctlabs/sp1-contracts/contracts/src/v5.0.0/Groth16Verifier.sol\":16163:16173  negate(y0) */\n      tag_255\n        /* \".deps/github/succinctlabs/sp1-contracts/contracts/src/v5.0.0/Groth16Verifier.sol\":16170:16172  y0 */\n      dup8\n        /* \".deps/github/succinctlabs/sp1-contracts/contracts/src/v5.0.0/Groth16Verifier.sol\":16163:16169  negate */\n      tag_145\n        /* \".deps/github/succinctlabs/sp1-contracts/contracts/src/v5.0.0/Groth16Verifier.sol\":16163:16173  negate(y0) */\n      jump\t// in\n    tag_255:\n        /* \".deps/github/succinctlabs/sp1-contracts/contracts/src/v5.0.0/Groth16Verifier.sol\":16158:16173  y0 = negate(y0) */\n      swap7\n      pop\n        /* \".deps/github/succinctlabs/sp1-contracts/contracts/src/v5.0.0/Groth16Verifier.sol\":16192:16202  negate(y1) */\n      tag_256\n        /* \".deps/github/succinctlabs/sp1-contracts/contracts/src/v5.0.0/Groth16Verifier.sol\":16199:16201  y1 */\n      dup7\n        /* \".deps/github/succinctlabs/sp1-contracts/contracts/src/v5.0.0/Groth16Verifier.sol\":16192:16198  negate */\n      tag_145\n        /* \".deps/github/succinctlabs/sp1-contracts/contracts/src/v5.0.0/Groth16Verifier.sol\":16192:16202  negate(y1) */\n      jump\t// in\n    tag_256:\n        /* \".deps/github/succinctlabs/sp1-contracts/contracts/src/v5.0.0/Groth16Verifier.sol\":16187:16202  y1 = negate(y1) */\n      swap6\n      pop\n        /* \".deps/github/succinctlabs/sp1-contracts/contracts/src/v5.0.0/Groth16Verifier.sol\":16126:16213  if (negate_point) {... */\n    tag_254:\n        /* \".deps/github/succinctlabs/sp1-contracts/contracts/src/v5.0.0/Groth16Verifier.sol\":14962:16219  {... */\n      pop\n      pop\n      pop\n      pop\n      pop\n        /* \".deps/github/succinctlabs/sp1-contracts/contracts/src/v5.0.0/Groth16Verifier.sol\":14840:16219  function decompress_g2(uint256 c0, uint256 c1)... */\n    tag_222:\n      swap3\n      swap6\n      swap2\n      swap5\n      pop\n      swap3\n      pop\n      jump\t// out\n        /* \".deps/github/succinctlabs/sp1-contracts/contracts/src/v5.0.0/Groth16Verifier.sol\":7228:7528  function sqrt_Fp(uint256 a) internal view returns (uint256 x) {... */\n    tag_141:\n        /* \".deps/github/succinctlabs/sp1-contracts/contracts/src/v5.0.0/Groth16Verifier.sol\":7279:7288  uint256 x */\n      0x00\n        /* \".deps/github/succinctlabs/sp1-contracts/contracts/src/v5.0.0/Groth16Verifier.sol\":7304:7323  exp(a, EXP_SQRT_FP) */\n      tag_258\n        /* \".deps/github/succinctlabs/sp1-contracts/contracts/src/v5.0.0/Groth16Verifier.sol\":7308:7309  a */\n      dup3\n        /* \".deps/github/succinctlabs/sp1-contracts/contracts/src/v5.0.0/Groth16Verifier.sol\":2597:2662  0xC19139CB84C680A6E14116DA060561765E05AA45A1C72A34F082305B61F3F52 */\n      0x0c19139cb84c680a6e14116da060561765e05aa45a1c72a34f082305b61f3f52\n        /* \".deps/github/succinctlabs/sp1-contracts/contracts/src/v5.0.0/Groth16Verifier.sol\":7304:7307  exp */\n      tag_259\n        /* \".deps/github/succinctlabs/sp1-contracts/contracts/src/v5.0.0/Groth16Verifier.sol\":7304:7323  exp(a, EXP_SQRT_FP) */\n      jump\t// in\n    tag_258:\n        /* \".deps/github/succinctlabs/sp1-contracts/contracts/src/v5.0.0/Groth16Verifier.sol\":7300:7323  x = exp(a, EXP_SQRT_FP) */\n      swap1\n      pop\n        /* \".deps/github/succinctlabs/sp1-contracts/contracts/src/v5.0.0/Groth16Verifier.sol\":7356:7357  a */\n      dup2\n        /* \".deps/github/succinctlabs/sp1-contracts/contracts/src/v5.0.0/Groth16Verifier.sol\":1396:1462  0x30644e72e131a029b85045b68181585d97816a916871ca8d3c208c16d87cfd47 */\n      0x30644e72e131a029b85045b68181585d97816a916871ca8d3c208c16d87cfd47\n        /* \".deps/github/succinctlabs/sp1-contracts/contracts/src/v5.0.0/Groth16Verifier.sol\":7337:7352  mulmod(x, x, P) */\n      dup1\n      tag_260\n      jumpi\n      tag_261\n      tag_136\n      jump\t// in\n    tag_261:\n    tag_260:\n        /* \".deps/github/succinctlabs/sp1-contracts/contracts/src/v5.0.0/Groth16Verifier.sol\":7347:7348  x */\n      dup3\n        /* \".deps/github/succinctlabs/sp1-contracts/contracts/src/v5.0.0/Groth16Verifier.sol\":7344:7345  x */\n      dup4\n        /* \".deps/github/succinctlabs/sp1-contracts/contracts/src/v5.0.0/Groth16Verifier.sol\":7337:7352  mulmod(x, x, P) */\n      mulmod\n        /* \".deps/github/succinctlabs/sp1-contracts/contracts/src/v5.0.0/Groth16Verifier.sol\":7337:7357  mulmod(x, x, P) != a */\n      eq\n        /* \".deps/github/succinctlabs/sp1-contracts/contracts/src/v5.0.0/Groth16Verifier.sol\":7333:7522  if (mulmod(x, x, P) != a) {... */\n      tag_262\n      jumpi\n        /* \".deps/github/succinctlabs/sp1-contracts/contracts/src/v5.0.0/Groth16Verifier.sol\":7497:7511  ProofInvalid() */\n      mload(0x40)\n      0x7fcdd1f400000000000000000000000000000000000000000000000000000000\n      dup2\n      mstore\n      0x04\n      add\n      mload(0x40)\n      dup1\n      swap2\n      sub\n      swap1\n      revert\n        /* \".deps/github/succinctlabs/sp1-contracts/contracts/src/v5.0.0/Groth16Verifier.sol\":7333:7522  if (mulmod(x, x, P) != a) {... */\n    tag_262:\n        /* \".deps/github/succinctlabs/sp1-contracts/contracts/src/v5.0.0/Groth16Verifier.sol\":7228:7528  function sqrt_Fp(uint256 a) internal view returns (uint256 x) {... */\n      swap2\n      swap1\n      pop\n      jump\t// out\n        /* \".deps/github/succinctlabs/sp1-contracts/contracts/src/v5.0.0/Groth16Verifier.sol\":5361:5530  function negate(uint256 a) internal pure returns (uint256 x) {... */\n    tag_145:\n        /* \".deps/github/succinctlabs/sp1-contracts/contracts/src/v5.0.0/Groth16Verifier.sol\":5411:5420  uint256 x */\n      0x00\n        /* \".deps/github/succinctlabs/sp1-contracts/contracts/src/v5.0.0/Groth16Verifier.sol\":1396:1462  0x30644e72e131a029b85045b68181585d97816a916871ca8d3c208c16d87cfd47 */\n      0x30644e72e131a029b85045b68181585d97816a916871ca8d3c208c16d87cfd47\n      dup1\n        /* \".deps/github/succinctlabs/sp1-contracts/contracts/src/v5.0.0/Groth16Verifier.sol\":5466:5467  a */\n      dup4\n        /* \".deps/github/succinctlabs/sp1-contracts/contracts/src/v5.0.0/Groth16Verifier.sol\":5466:5471  a % P */\n      dup2\n      tag_264\n      jumpi\n      tag_265\n      tag_136\n      jump\t// in\n    tag_265:\n    tag_264:\n      mod\n        /* \".deps/github/succinctlabs/sp1-contracts/contracts/src/v5.0.0/Groth16Verifier.sol\":1396:1462  0x30644e72e131a029b85045b68181585d97816a916871ca8d3c208c16d87cfd47 */\n      0x30644e72e131a029b85045b68181585d97816a916871ca8d3c208c16d87cfd47\n        /* \".deps/github/succinctlabs/sp1-contracts/contracts/src/v5.0.0/Groth16Verifier.sol\":5461:5472  P - (a % P) */\n      sub\n        /* \".deps/github/succinctlabs/sp1-contracts/contracts/src/v5.0.0/Groth16Verifier.sol\":5460:5477  (P - (a % P)) % P */\n      dup2\n      tag_266\n      jumpi\n      tag_267\n      tag_136\n      jump\t// in\n    tag_267:\n    tag_266:\n      mod\n        /* \".deps/github/succinctlabs/sp1-contracts/contracts/src/v5.0.0/Groth16Verifier.sol\":5456:5477  x = (P - (a % P)) % P */\n      swap1\n      pop\n        /* \".deps/github/succinctlabs/sp1-contracts/contracts/src/v5.0.0/Groth16Verifier.sol\":5361:5530  function negate(uint256 a) internal pure returns (uint256 x) {... */\n      swap2\n      swap1\n      pop\n      jump\t// out\n        /* \".deps/github/succinctlabs/sp1-contracts/contracts/src/v5.0.0/Groth16Verifier.sol\":7798:7944  function isSquare_Fp(uint256 a) internal view returns (bool) {... */\n    tag_193:\n        /* \".deps/github/succinctlabs/sp1-contracts/contracts/src/v5.0.0/Groth16Verifier.sol\":7853:7857  bool */\n      0x00\n        /* \".deps/github/succinctlabs/sp1-contracts/contracts/src/v5.0.0/Groth16Verifier.sol\":7869:7878  uint256 x */\n      0x00\n        /* \".deps/github/succinctlabs/sp1-contracts/contracts/src/v5.0.0/Groth16Verifier.sol\":7881:7900  exp(a, EXP_SQRT_FP) */\n      tag_269\n        /* \".deps/github/succinctlabs/sp1-contracts/contracts/src/v5.0.0/Groth16Verifier.sol\":7885:7886  a */\n      dup4\n        /* \".deps/github/succinctlabs/sp1-contracts/contracts/src/v5.0.0/Groth16Verifier.sol\":2597:2662  0xC19139CB84C680A6E14116DA060561765E05AA45A1C72A34F082305B61F3F52 */\n      0x0c19139cb84c680a6e14116da060561765e05aa45a1c72a34f082305b61f3f52\n        /* \".deps/github/succinctlabs/sp1-contracts/contracts/src/v5.0.0/Groth16Verifier.sol\":7881:7884  exp */\n      tag_259\n        /* \".deps/github/succinctlabs/sp1-contracts/contracts/src/v5.0.0/Groth16Verifier.sol\":7881:7900  exp(a, EXP_SQRT_FP) */\n      jump\t// in\n    tag_269:\n        /* \".deps/github/succinctlabs/sp1-contracts/contracts/src/v5.0.0/Groth16Verifier.sol\":7869:7900  uint256 x = exp(a, EXP_SQRT_FP) */\n      swap1\n      pop\n        /* \".deps/github/succinctlabs/sp1-contracts/contracts/src/v5.0.0/Groth16Verifier.sol\":7936:7937  a */\n      dup3\n        /* \".deps/github/succinctlabs/sp1-contracts/contracts/src/v5.0.0/Groth16Verifier.sol\":1396:1462  0x30644e72e131a029b85045b68181585d97816a916871ca8d3c208c16d87cfd47 */\n      0x30644e72e131a029b85045b68181585d97816a916871ca8d3c208c16d87cfd47\n        /* \".deps/github/succinctlabs/sp1-contracts/contracts/src/v5.0.0/Groth16Verifier.sol\":7917:7932  mulmod(x, x, P) */\n      dup1\n      tag_270\n      jumpi\n      tag_271\n      tag_136\n      jump\t// in\n    tag_271:\n    tag_270:\n        /* \".deps/github/succinctlabs/sp1-contracts/contracts/src/v5.0.0/Groth16Verifier.sol\":7927:7928  x */\n      dup3\n        /* \".deps/github/succinctlabs/sp1-contracts/contracts/src/v5.0.0/Groth16Verifier.sol\":7924:7925  x */\n      dup4\n        /* \".deps/github/succinctlabs/sp1-contracts/contracts/src/v5.0.0/Groth16Verifier.sol\":7917:7932  mulmod(x, x, P) */\n      mulmod\n        /* \".deps/github/succinctlabs/sp1-contracts/contracts/src/v5.0.0/Groth16Verifier.sol\":7917:7937  mulmod(x, x, P) == a */\n      eq\n        /* \".deps/github/succinctlabs/sp1-contracts/contracts/src/v5.0.0/Groth16Verifier.sol\":7910:7937  return mulmod(x, x, P) == a */\n      swap2\n      pop\n      pop\n        /* \".deps/github/succinctlabs/sp1-contracts/contracts/src/v5.0.0/Groth16Verifier.sol\":7798:7944  function isSquare_Fp(uint256 a) internal view returns (bool) {... */\n      swap2\n      swap1\n      pop\n      jump\t// out\n        /* \".deps/github/succinctlabs/sp1-contracts/contracts/src/v5.0.0/Groth16Verifier.sol\":8575:9366  function sqrt_Fp2(uint256 a0, uint256 a1, bool hint) internal view returns (uint256 x0, uint256 x1) {... */\n    tag_195:\n        /* \".deps/github/succinctlabs/sp1-contracts/contracts/src/v5.0.0/Groth16Verifier.sol\":8651:8661  uint256 x0 */\n      0x00\n        /* \".deps/github/succinctlabs/sp1-contracts/contracts/src/v5.0.0/Groth16Verifier.sol\":8663:8673  uint256 x1 */\n      0x00\n        /* \".deps/github/succinctlabs/sp1-contracts/contracts/src/v5.0.0/Groth16Verifier.sol\":8753:8762  uint256 d */\n      0x00\n        /* \".deps/github/succinctlabs/sp1-contracts/contracts/src/v5.0.0/Groth16Verifier.sol\":8765:8821  sqrt_Fp(addmod(mulmod(a0, a0, P), mulmod(a1, a1, P), P)) */\n      tag_273\n        /* \".deps/github/succinctlabs/sp1-contracts/contracts/src/v5.0.0/Groth16Verifier.sol\":1396:1462  0x30644e72e131a029b85045b68181585d97816a916871ca8d3c208c16d87cfd47 */\n      0x30644e72e131a029b85045b68181585d97816a916871ca8d3c208c16d87cfd47\n        /* \".deps/github/succinctlabs/sp1-contracts/contracts/src/v5.0.0/Groth16Verifier.sol\":8773:8820  addmod(mulmod(a0, a0, P), mulmod(a1, a1, P), P) */\n      dup1\n      tag_274\n      jumpi\n      tag_275\n      tag_136\n      jump\t// in\n    tag_275:\n    tag_274:\n        /* \".deps/github/succinctlabs/sp1-contracts/contracts/src/v5.0.0/Groth16Verifier.sol\":1396:1462  0x30644e72e131a029b85045b68181585d97816a916871ca8d3c208c16d87cfd47 */\n      0x30644e72e131a029b85045b68181585d97816a916871ca8d3c208c16d87cfd47\n        /* \".deps/github/succinctlabs/sp1-contracts/contracts/src/v5.0.0/Groth16Verifier.sol\":8799:8816  mulmod(a1, a1, P) */\n      dup1\n      tag_276\n      jumpi\n      tag_277\n      tag_136\n      jump\t// in\n    tag_277:\n    tag_276:\n        /* \".deps/github/succinctlabs/sp1-contracts/contracts/src/v5.0.0/Groth16Verifier.sol\":8810:8812  a1 */\n      dup8\n        /* \".deps/github/succinctlabs/sp1-contracts/contracts/src/v5.0.0/Groth16Verifier.sol\":8806:8808  a1 */\n      dup9\n        /* \".deps/github/succinctlabs/sp1-contracts/contracts/src/v5.0.0/Groth16Verifier.sol\":8799:8816  mulmod(a1, a1, P) */\n      mulmod\n        /* \".deps/github/succinctlabs/sp1-contracts/contracts/src/v5.0.0/Groth16Verifier.sol\":1396:1462  0x30644e72e131a029b85045b68181585d97816a916871ca8d3c208c16d87cfd47 */\n      0x30644e72e131a029b85045b68181585d97816a916871ca8d3c208c16d87cfd47\n        /* \".deps/github/succinctlabs/sp1-contracts/contracts/src/v5.0.0/Groth16Verifier.sol\":8780:8797  mulmod(a0, a0, P) */\n      dup1\n      tag_278\n      jumpi\n      tag_279\n      tag_136\n      jump\t// in\n    tag_279:\n    tag_278:\n        /* \".deps/github/succinctlabs/sp1-contracts/contracts/src/v5.0.0/Groth16Verifier.sol\":8791:8793  a0 */\n      dup10\n        /* \".deps/github/succinctlabs/sp1-contracts/contracts/src/v5.0.0/Groth16Verifier.sol\":8787:8789  a0 */\n      dup11\n        /* \".deps/github/succinctlabs/sp1-contracts/contracts/src/v5.0.0/Groth16Verifier.sol\":8780:8797  mulmod(a0, a0, P) */\n      mulmod\n        /* \".deps/github/succinctlabs/sp1-contracts/contracts/src/v5.0.0/Groth16Verifier.sol\":8773:8820  addmod(mulmod(a0, a0, P), mulmod(a1, a1, P), P) */\n      addmod\n        /* \".deps/github/succinctlabs/sp1-contracts/contracts/src/v5.0.0/Groth16Verifier.sol\":8765:8772  sqrt_Fp */\n      tag_141\n        /* \".deps/github/succinctlabs/sp1-contracts/contracts/src/v5.0.0/Groth16Verifier.sol\":8765:8821  sqrt_Fp(addmod(mulmod(a0, a0, P), mulmod(a1, a1, P), P)) */\n      jump\t// in\n    tag_273:\n        /* \".deps/github/succinctlabs/sp1-contracts/contracts/src/v5.0.0/Groth16Verifier.sol\":8753:8821  uint256 d = sqrt_Fp(addmod(mulmod(a0, a0, P), mulmod(a1, a1, P), P)) */\n      swap1\n      pop\n        /* \".deps/github/succinctlabs/sp1-contracts/contracts/src/v5.0.0/Groth16Verifier.sol\":8835:8839  hint */\n      dup4\n        /* \".deps/github/succinctlabs/sp1-contracts/contracts/src/v5.0.0/Groth16Verifier.sol\":8831:8879  if (hint) {... */\n      iszero\n      tag_280\n      jumpi\n        /* \".deps/github/succinctlabs/sp1-contracts/contracts/src/v5.0.0/Groth16Verifier.sol\":8859:8868  negate(d) */\n      tag_281\n        /* \".deps/github/succinctlabs/sp1-contracts/contracts/src/v5.0.0/Groth16Verifier.sol\":8866:8867  d */\n      dup2\n        /* \".deps/github/succinctlabs/sp1-contracts/contracts/src/v5.0.0/Groth16Verifier.sol\":8859:8865  negate */\n      tag_145\n        /* \".deps/github/succinctlabs/sp1-contracts/contracts/src/v5.0.0/Groth16Verifier.sol\":8859:8868  negate(d) */\n      jump\t// in\n    tag_281:\n        /* \".deps/github/succinctlabs/sp1-contracts/contracts/src/v5.0.0/Groth16Verifier.sol\":8855:8868  d = negate(d) */\n      swap1\n      pop\n        /* \".deps/github/succinctlabs/sp1-contracts/contracts/src/v5.0.0/Groth16Verifier.sol\":8831:8879  if (hint) {... */\n    tag_280:\n        /* \".deps/github/succinctlabs/sp1-contracts/contracts/src/v5.0.0/Groth16Verifier.sol\":8961:9014  sqrt_Fp(mulmod(addmod(a0, d, P), FRACTION_1_2_FP, P)) */\n      tag_282\n        /* \".deps/github/succinctlabs/sp1-contracts/contracts/src/v5.0.0/Groth16Verifier.sol\":1396:1462  0x30644e72e131a029b85045b68181585d97816a916871ca8d3c208c16d87cfd47 */\n      0x30644e72e131a029b85045b68181585d97816a916871ca8d3c208c16d87cfd47\n        /* \".deps/github/succinctlabs/sp1-contracts/contracts/src/v5.0.0/Groth16Verifier.sol\":8969:9013  mulmod(addmod(a0, d, P), FRACTION_1_2_FP, P) */\n      dup1\n      tag_283\n      jumpi\n      tag_284\n      tag_136\n      jump\t// in\n    tag_284:\n    tag_283:\n        /* \".deps/github/succinctlabs/sp1-contracts/contracts/src/v5.0.0/Groth16Verifier.sol\":2106:2172  0x183227397098d014dc2822db40c0ac2ecbc0b548b438e5469e10460b6c3e7ea4 */\n      0x183227397098d014dc2822db40c0ac2ecbc0b548b438e5469e10460b6c3e7ea4\n        /* \".deps/github/succinctlabs/sp1-contracts/contracts/src/v5.0.0/Groth16Verifier.sol\":1396:1462  0x30644e72e131a029b85045b68181585d97816a916871ca8d3c208c16d87cfd47 */\n      0x30644e72e131a029b85045b68181585d97816a916871ca8d3c208c16d87cfd47\n        /* \".deps/github/succinctlabs/sp1-contracts/contracts/src/v5.0.0/Groth16Verifier.sol\":8976:8992  addmod(a0, d, P) */\n      dup1\n      tag_285\n      jumpi\n      tag_286\n      tag_136\n      jump\t// in\n    tag_286:\n    tag_285:\n        /* \".deps/github/succinctlabs/sp1-contracts/contracts/src/v5.0.0/Groth16Verifier.sol\":8987:8988  d */\n      dup5\n        /* \".deps/github/succinctlabs/sp1-contracts/contracts/src/v5.0.0/Groth16Verifier.sol\":8983:8985  a0 */\n      dup11\n        /* \".deps/github/succinctlabs/sp1-contracts/contracts/src/v5.0.0/Groth16Verifier.sol\":8976:8992  addmod(a0, d, P) */\n      addmod\n        /* \".deps/github/succinctlabs/sp1-contracts/contracts/src/v5.0.0/Groth16Verifier.sol\":8969:9013  mulmod(addmod(a0, d, P), FRACTION_1_2_FP, P) */\n      mulmod\n        /* \".deps/github/succinctlabs/sp1-contracts/contracts/src/v5.0.0/Groth16Verifier.sol\":8961:8968  sqrt_Fp */\n      tag_141\n        /* \".deps/github/succinctlabs/sp1-contracts/contracts/src/v5.0.0/Groth16Verifier.sol\":8961:9014  sqrt_Fp(mulmod(addmod(a0, d, P), FRACTION_1_2_FP, P)) */\n      jump\t// in\n    tag_282:\n        /* \".deps/github/succinctlabs/sp1-contracts/contracts/src/v5.0.0/Groth16Verifier.sol\":8956:9014  x0 = sqrt_Fp(mulmod(addmod(a0, d, P), FRACTION_1_2_FP, P)) */\n      swap3\n      pop\n        /* \".deps/github/succinctlabs/sp1-contracts/contracts/src/v5.0.0/Groth16Verifier.sol\":1396:1462  0x30644e72e131a029b85045b68181585d97816a916871ca8d3c208c16d87cfd47 */\n      0x30644e72e131a029b85045b68181585d97816a916871ca8d3c208c16d87cfd47\n        /* \".deps/github/succinctlabs/sp1-contracts/contracts/src/v5.0.0/Groth16Verifier.sol\":9029:9071  mulmod(a1, invert_Fp(mulmod(x0, 2, P)), P) */\n      dup1\n      tag_287\n      jumpi\n      tag_288\n      tag_136\n      jump\t// in\n    tag_288:\n    tag_287:\n        /* \".deps/github/succinctlabs/sp1-contracts/contracts/src/v5.0.0/Groth16Verifier.sol\":9040:9067  invert_Fp(mulmod(x0, 2, P)) */\n      tag_289\n        /* \".deps/github/succinctlabs/sp1-contracts/contracts/src/v5.0.0/Groth16Verifier.sol\":1396:1462  0x30644e72e131a029b85045b68181585d97816a916871ca8d3c208c16d87cfd47 */\n      0x30644e72e131a029b85045b68181585d97816a916871ca8d3c208c16d87cfd47\n        /* \".deps/github/succinctlabs/sp1-contracts/contracts/src/v5.0.0/Groth16Verifier.sol\":9050:9066  mulmod(x0, 2, P) */\n      dup1\n      tag_290\n      jumpi\n      tag_291\n      tag_136\n      jump\t// in\n    tag_291:\n    tag_290:\n        /* \".deps/github/succinctlabs/sp1-contracts/contracts/src/v5.0.0/Groth16Verifier.sol\":9061:9062  2 */\n      0x02\n        /* \".deps/github/succinctlabs/sp1-contracts/contracts/src/v5.0.0/Groth16Verifier.sol\":9057:9059  x0 */\n      dup7\n        /* \".deps/github/succinctlabs/sp1-contracts/contracts/src/v5.0.0/Groth16Verifier.sol\":9050:9066  mulmod(x0, 2, P) */\n      mulmod\n        /* \".deps/github/succinctlabs/sp1-contracts/contracts/src/v5.0.0/Groth16Verifier.sol\":9040:9049  invert_Fp */\n      tag_292\n        /* \".deps/github/succinctlabs/sp1-contracts/contracts/src/v5.0.0/Groth16Verifier.sol\":9040:9067  invert_Fp(mulmod(x0, 2, P)) */\n      jump\t// in\n    tag_289:\n        /* \".deps/github/succinctlabs/sp1-contracts/contracts/src/v5.0.0/Groth16Verifier.sol\":9036:9038  a1 */\n      dup7\n        /* \".deps/github/succinctlabs/sp1-contracts/contracts/src/v5.0.0/Groth16Verifier.sol\":9029:9071  mulmod(a1, invert_Fp(mulmod(x0, 2, P)), P) */\n      mulmod\n        /* \".deps/github/succinctlabs/sp1-contracts/contracts/src/v5.0.0/Groth16Verifier.sol\":9024:9071  x1 = mulmod(a1, invert_Fp(mulmod(x0, 2, P)), P) */\n      swap2\n      pop\n        /* \".deps/github/succinctlabs/sp1-contracts/contracts/src/v5.0.0/Groth16Verifier.sol\":1396:1462  0x30644e72e131a029b85045b68181585d97816a916871ca8d3c208c16d87cfd47 */\n      0x30644e72e131a029b85045b68181585d97816a916871ca8d3c208c16d87cfd47\n        /* \".deps/github/succinctlabs/sp1-contracts/contracts/src/v5.0.0/Groth16Verifier.sol\":9207:9262  addmod(mulmod(x0, x0, P), negate(mulmod(x1, x1, P)), P) */\n      dup1\n      tag_293\n      jumpi\n      tag_294\n      tag_136\n      jump\t// in\n    tag_294:\n    tag_293:\n        /* \".deps/github/succinctlabs/sp1-contracts/contracts/src/v5.0.0/Groth16Verifier.sol\":9233:9258  negate(mulmod(x1, x1, P)) */\n      tag_295\n        /* \".deps/github/succinctlabs/sp1-contracts/contracts/src/v5.0.0/Groth16Verifier.sol\":1396:1462  0x30644e72e131a029b85045b68181585d97816a916871ca8d3c208c16d87cfd47 */\n      0x30644e72e131a029b85045b68181585d97816a916871ca8d3c208c16d87cfd47\n        /* \".deps/github/succinctlabs/sp1-contracts/contracts/src/v5.0.0/Groth16Verifier.sol\":9240:9257  mulmod(x1, x1, P) */\n      dup1\n      tag_296\n      jumpi\n      tag_297\n      tag_136\n      jump\t// in\n    tag_297:\n    tag_296:\n        /* \".deps/github/succinctlabs/sp1-contracts/contracts/src/v5.0.0/Groth16Verifier.sol\":9251:9253  x1 */\n      dup5\n        /* \".deps/github/succinctlabs/sp1-contracts/contracts/src/v5.0.0/Groth16Verifier.sol\":9247:9249  x1 */\n      dup6\n        /* \".deps/github/succinctlabs/sp1-contracts/contracts/src/v5.0.0/Groth16Verifier.sol\":9240:9257  mulmod(x1, x1, P) */\n      mulmod\n        /* \".deps/github/succinctlabs/sp1-contracts/contracts/src/v5.0.0/Groth16Verifier.sol\":9233:9239  negate */\n      tag_145\n        /* \".deps/github/succinctlabs/sp1-contracts/contracts/src/v5.0.0/Groth16Verifier.sol\":9233:9258  negate(mulmod(x1, x1, P)) */\n      jump\t// in\n    tag_295:\n        /* \".deps/github/succinctlabs/sp1-contracts/contracts/src/v5.0.0/Groth16Verifier.sol\":1396:1462  0x30644e72e131a029b85045b68181585d97816a916871ca8d3c208c16d87cfd47 */\n      0x30644e72e131a029b85045b68181585d97816a916871ca8d3c208c16d87cfd47\n        /* \".deps/github/succinctlabs/sp1-contracts/contracts/src/v5.0.0/Groth16Verifier.sol\":9214:9231  mulmod(x0, x0, P) */\n      dup1\n      tag_298\n      jumpi\n      tag_299\n      tag_136\n      jump\t// in\n    tag_299:\n    tag_298:\n        /* \".deps/github/succinctlabs/sp1-contracts/contracts/src/v5.0.0/Groth16Verifier.sol\":9225:9227  x0 */\n      dup6\n        /* \".deps/github/succinctlabs/sp1-contracts/contracts/src/v5.0.0/Groth16Verifier.sol\":9221:9223  x0 */\n      dup7\n        /* \".deps/github/succinctlabs/sp1-contracts/contracts/src/v5.0.0/Groth16Verifier.sol\":9214:9231  mulmod(x0, x0, P) */\n      mulmod\n        /* \".deps/github/succinctlabs/sp1-contracts/contracts/src/v5.0.0/Groth16Verifier.sol\":9207:9262  addmod(mulmod(x0, x0, P), negate(mulmod(x1, x1, P)), P) */\n      addmod\n        /* \".deps/github/succinctlabs/sp1-contracts/contracts/src/v5.0.0/Groth16Verifier.sol\":9201:9203  a0 */\n      dup7\n        /* \".deps/github/succinctlabs/sp1-contracts/contracts/src/v5.0.0/Groth16Verifier.sol\":9201:9262  a0 != addmod(mulmod(x0, x0, P), negate(mulmod(x1, x1, P)), P) */\n      eq\n      iszero\n        /* \".deps/github/succinctlabs/sp1-contracts/contracts/src/v5.0.0/Groth16Verifier.sol\":9201:9312  a0 != addmod(mulmod(x0, x0, P), negate(mulmod(x1, x1, P)), P)... */\n      dup1\n      tag_300\n      jumpi\n      pop\n        /* \".deps/github/succinctlabs/sp1-contracts/contracts/src/v5.0.0/Groth16Verifier.sol\":1396:1462  0x30644e72e131a029b85045b68181585d97816a916871ca8d3c208c16d87cfd47 */\n      0x30644e72e131a029b85045b68181585d97816a916871ca8d3c208c16d87cfd47\n        /* \".deps/github/succinctlabs/sp1-contracts/contracts/src/v5.0.0/Groth16Verifier.sol\":9281:9312  mulmod(2, mulmod(x0, x1, P), P) */\n      dup1\n      tag_301\n      jumpi\n      tag_302\n      tag_136\n      jump\t// in\n    tag_302:\n    tag_301:\n        /* \".deps/github/succinctlabs/sp1-contracts/contracts/src/v5.0.0/Groth16Verifier.sol\":1396:1462  0x30644e72e131a029b85045b68181585d97816a916871ca8d3c208c16d87cfd47 */\n      0x30644e72e131a029b85045b68181585d97816a916871ca8d3c208c16d87cfd47\n        /* \".deps/github/succinctlabs/sp1-contracts/contracts/src/v5.0.0/Groth16Verifier.sol\":9291:9308  mulmod(x0, x1, P) */\n      dup1\n      tag_303\n      jumpi\n      tag_304\n      tag_136\n      jump\t// in\n    tag_304:\n    tag_303:\n        /* \".deps/github/succinctlabs/sp1-contracts/contracts/src/v5.0.0/Groth16Verifier.sol\":9302:9304  x1 */\n      dup4\n        /* \".deps/github/succinctlabs/sp1-contracts/contracts/src/v5.0.0/Groth16Verifier.sol\":9298:9300  x0 */\n      dup6\n        /* \".deps/github/succinctlabs/sp1-contracts/contracts/src/v5.0.0/Groth16Verifier.sol\":9291:9308  mulmod(x0, x1, P) */\n      mulmod\n        /* \".deps/github/succinctlabs/sp1-contracts/contracts/src/v5.0.0/Groth16Verifier.sol\":9288:9289  2 */\n      0x02\n        /* \".deps/github/succinctlabs/sp1-contracts/contracts/src/v5.0.0/Groth16Verifier.sol\":9281:9312  mulmod(2, mulmod(x0, x1, P), P) */\n      mulmod\n        /* \".deps/github/succinctlabs/sp1-contracts/contracts/src/v5.0.0/Groth16Verifier.sol\":9275:9277  a1 */\n      dup6\n        /* \".deps/github/succinctlabs/sp1-contracts/contracts/src/v5.0.0/Groth16Verifier.sol\":9275:9312  a1 != mulmod(2, mulmod(x0, x1, P), P) */\n      eq\n      iszero\n        /* \".deps/github/succinctlabs/sp1-contracts/contracts/src/v5.0.0/Groth16Verifier.sol\":9201:9312  a0 != addmod(mulmod(x0, x0, P), negate(mulmod(x1, x1, P)), P)... */\n    tag_300:\n        /* \".deps/github/succinctlabs/sp1-contracts/contracts/src/v5.0.0/Groth16Verifier.sol\":9197:9360  if (a0 != addmod(mulmod(x0, x0, P), negate(mulmod(x1, x1, P)), P)... */\n      iszero\n      tag_305\n      jumpi\n        /* \".deps/github/succinctlabs/sp1-contracts/contracts/src/v5.0.0/Groth16Verifier.sol\":9335:9349  ProofInvalid() */\n      mload(0x40)\n      0x7fcdd1f400000000000000000000000000000000000000000000000000000000\n      dup2\n      mstore\n      0x04\n      add\n      mload(0x40)\n      dup1\n      swap2\n      sub\n      swap1\n      revert\n        /* \".deps/github/succinctlabs/sp1-contracts/contracts/src/v5.0.0/Groth16Verifier.sol\":9197:9360  if (a0 != addmod(mulmod(x0, x0, P), negate(mulmod(x1, x1, P)), P)... */\n    tag_305:\n        /* \".deps/github/succinctlabs/sp1-contracts/contracts/src/v5.0.0/Groth16Verifier.sol\":8675:9366  {... */\n      pop\n        /* \".deps/github/succinctlabs/sp1-contracts/contracts/src/v5.0.0/Groth16Verifier.sol\":8575:9366  function sqrt_Fp2(uint256 a0, uint256 a1, bool hint) internal view returns (uint256 x0, uint256 x1) {... */\n      swap4\n      pop\n      swap4\n      swap2\n      pop\n      pop\n      jump\t// out\n        /* \".deps/github/succinctlabs/sp1-contracts/contracts/src/v5.0.0/Groth16Verifier.sol\":5768:6403  function exp(uint256 a, uint256 e) internal view returns (uint256 x) {... */\n    tag_259:\n        /* \".deps/github/succinctlabs/sp1-contracts/contracts/src/v5.0.0/Groth16Verifier.sol\":5826:5835  uint256 x */\n      0x00\n        /* \".deps/github/succinctlabs/sp1-contracts/contracts/src/v5.0.0/Groth16Verifier.sol\":5847:5859  bool success */\n      0x00\n        /* \".deps/github/succinctlabs/sp1-contracts/contracts/src/v5.0.0/Groth16Verifier.sol\":5923:5927  0x40 */\n      0x40\n        /* \".deps/github/succinctlabs/sp1-contracts/contracts/src/v5.0.0/Groth16Verifier.sol\":5917:5928  mload(0x40) */\n      mload\n        /* \".deps/github/succinctlabs/sp1-contracts/contracts/src/v5.0.0/Groth16Verifier.sol\":5951:5955  0x20 */\n      0x20\n        /* \".deps/github/succinctlabs/sp1-contracts/contracts/src/v5.0.0/Groth16Verifier.sol\":5948:5949  f */\n      dup2\n        /* \".deps/github/succinctlabs/sp1-contracts/contracts/src/v5.0.0/Groth16Verifier.sol\":5941:5956  mstore(f, 0x20) */\n      mstore\n        /* \".deps/github/succinctlabs/sp1-contracts/contracts/src/v5.0.0/Groth16Verifier.sol\":5990:5994  0x20 */\n      0x20\n        /* \".deps/github/succinctlabs/sp1-contracts/contracts/src/v5.0.0/Groth16Verifier.sol\":5983:5987  0x20 */\n      dup1\n        /* \".deps/github/succinctlabs/sp1-contracts/contracts/src/v5.0.0/Groth16Verifier.sol\":5980:5981  f */\n      dup3\n        /* \".deps/github/succinctlabs/sp1-contracts/contracts/src/v5.0.0/Groth16Verifier.sol\":5976:5988  add(f, 0x20) */\n      add\n        /* \".deps/github/succinctlabs/sp1-contracts/contracts/src/v5.0.0/Groth16Verifier.sol\":5969:5995  mstore(add(f, 0x20), 0x20) */\n      mstore\n        /* \".deps/github/succinctlabs/sp1-contracts/contracts/src/v5.0.0/Groth16Verifier.sol\":6029:6033  0x20 */\n      0x20\n        /* \".deps/github/succinctlabs/sp1-contracts/contracts/src/v5.0.0/Groth16Verifier.sol\":6022:6026  0x40 */\n      0x40\n        /* \".deps/github/succinctlabs/sp1-contracts/contracts/src/v5.0.0/Groth16Verifier.sol\":6019:6020  f */\n      dup3\n        /* \".deps/github/succinctlabs/sp1-contracts/contracts/src/v5.0.0/Groth16Verifier.sol\":6015:6027  add(f, 0x40) */\n      add\n        /* \".deps/github/succinctlabs/sp1-contracts/contracts/src/v5.0.0/Groth16Verifier.sol\":6008:6034  mstore(add(f, 0x40), 0x20) */\n      mstore\n        /* \".deps/github/succinctlabs/sp1-contracts/contracts/src/v5.0.0/Groth16Verifier.sol\":6068:6069  a */\n      dup5\n        /* \".deps/github/succinctlabs/sp1-contracts/contracts/src/v5.0.0/Groth16Verifier.sol\":6061:6065  0x60 */\n      0x60\n        /* \".deps/github/succinctlabs/sp1-contracts/contracts/src/v5.0.0/Groth16Verifier.sol\":6058:6059  f */\n      dup3\n        /* \".deps/github/succinctlabs/sp1-contracts/contracts/src/v5.0.0/Groth16Verifier.sol\":6054:6066  add(f, 0x60) */\n      add\n        /* \".deps/github/succinctlabs/sp1-contracts/contracts/src/v5.0.0/Groth16Verifier.sol\":6047:6070  mstore(add(f, 0x60), a) */\n      mstore\n        /* \".deps/github/succinctlabs/sp1-contracts/contracts/src/v5.0.0/Groth16Verifier.sol\":6104:6105  e */\n      dup4\n        /* \".deps/github/succinctlabs/sp1-contracts/contracts/src/v5.0.0/Groth16Verifier.sol\":6097:6101  0x80 */\n      0x80\n        /* \".deps/github/succinctlabs/sp1-contracts/contracts/src/v5.0.0/Groth16Verifier.sol\":6094:6095  f */\n      dup3\n        /* \".deps/github/succinctlabs/sp1-contracts/contracts/src/v5.0.0/Groth16Verifier.sol\":6090:6102  add(f, 0x80) */\n      add\n        /* \".deps/github/succinctlabs/sp1-contracts/contracts/src/v5.0.0/Groth16Verifier.sol\":6083:6106  mstore(add(f, 0x80), e) */\n      mstore\n        /* \".deps/github/succinctlabs/sp1-contracts/contracts/src/v5.0.0/Groth16Verifier.sol\":6140:6141  P */\n      0x30644e72e131a029b85045b68181585d97816a916871ca8d3c208c16d87cfd47\n        /* \".deps/github/succinctlabs/sp1-contracts/contracts/src/v5.0.0/Groth16Verifier.sol\":6133:6137  0xa0 */\n      0xa0\n        /* \".deps/github/succinctlabs/sp1-contracts/contracts/src/v5.0.0/Groth16Verifier.sol\":6130:6131  f */\n      dup3\n        /* \".deps/github/succinctlabs/sp1-contracts/contracts/src/v5.0.0/Groth16Verifier.sol\":6126:6138  add(f, 0xa0) */\n      add\n        /* \".deps/github/succinctlabs/sp1-contracts/contracts/src/v5.0.0/Groth16Verifier.sol\":6119:6142  mstore(add(f, 0xa0), P) */\n      mstore\n        /* \".deps/github/succinctlabs/sp1-contracts/contracts/src/v5.0.0/Groth16Verifier.sol\":6215:6219  0x20 */\n      0x20\n        /* \".deps/github/succinctlabs/sp1-contracts/contracts/src/v5.0.0/Groth16Verifier.sol\":6212:6213  f */\n      dup2\n        /* \".deps/github/succinctlabs/sp1-contracts/contracts/src/v5.0.0/Groth16Verifier.sol\":6206:6210  0xc0 */\n      0xc0\n        /* \".deps/github/succinctlabs/sp1-contracts/contracts/src/v5.0.0/Groth16Verifier.sol\":6203:6204  f */\n      dup4\n        /* \".deps/github/succinctlabs/sp1-contracts/contracts/src/v5.0.0/Groth16Verifier.sol\":6184:6201  PRECOMPILE_MODEXP */\n      0x05\n        /* \".deps/github/succinctlabs/sp1-contracts/contracts/src/v5.0.0/Groth16Verifier.sol\":6177:6182  gas() */\n      gas\n        /* \".deps/github/succinctlabs/sp1-contracts/contracts/src/v5.0.0/Groth16Verifier.sol\":6166:6220  staticcall(gas(), PRECOMPILE_MODEXP, f, 0xc0, f, 0x20) */\n      staticcall\n        /* \".deps/github/succinctlabs/sp1-contracts/contracts/src/v5.0.0/Groth16Verifier.sol\":6155:6220  success := staticcall(gas(), PRECOMPILE_MODEXP, f, 0xc0, f, 0x20) */\n      swap2\n      pop\n        /* \".deps/github/succinctlabs/sp1-contracts/contracts/src/v5.0.0/Groth16Verifier.sol\":6244:6245  f */\n      dup1\n        /* \".deps/github/succinctlabs/sp1-contracts/contracts/src/v5.0.0/Groth16Verifier.sol\":6238:6246  mload(f) */\n      mload\n        /* \".deps/github/succinctlabs/sp1-contracts/contracts/src/v5.0.0/Groth16Verifier.sol\":6233:6246  x := mload(f) */\n      swap3\n      pop\n        /* \".deps/github/succinctlabs/sp1-contracts/contracts/src/v5.0.0/Groth16Verifier.sol\":5894:6256  {... */\n      pop\n        /* \".deps/github/succinctlabs/sp1-contracts/contracts/src/v5.0.0/Groth16Verifier.sol\":6270:6277  success */\n      dup1\n        /* \".deps/github/succinctlabs/sp1-contracts/contracts/src/v5.0.0/Groth16Verifier.sol\":6265:6397  if (!success) {... */\n      tag_307\n      jumpi\n        /* \".deps/github/succinctlabs/sp1-contracts/contracts/src/v5.0.0/Groth16Verifier.sol\":6372:6386  ProofInvalid() */\n      mload(0x40)\n      0x7fcdd1f400000000000000000000000000000000000000000000000000000000\n      dup2\n      mstore\n      0x04\n      add\n      mload(0x40)\n      dup1\n      swap2\n      sub\n      swap1\n      revert\n        /* \".deps/github/succinctlabs/sp1-contracts/contracts/src/v5.0.0/Groth16Verifier.sol\":6265:6397  if (!success) {... */\n    tag_307:\n        /* \".deps/github/succinctlabs/sp1-contracts/contracts/src/v5.0.0/Groth16Verifier.sol\":5837:6403  {... */\n      pop\n        /* \".deps/github/succinctlabs/sp1-contracts/contracts/src/v5.0.0/Groth16Verifier.sol\":5768:6403  function exp(uint256 a, uint256 e) internal view returns (uint256 x) {... */\n      swap3\n      swap2\n      pop\n      pop\n      jump\t// out\n        /* \".deps/github/succinctlabs/sp1-contracts/contracts/src/v5.0.0/Groth16Verifier.sol\":6684:6973  function invert_Fp(uint256 a) internal view returns (uint256 x) {... */\n    tag_292:\n        /* \".deps/github/succinctlabs/sp1-contracts/contracts/src/v5.0.0/Groth16Verifier.sol\":6737:6746  uint256 x */\n      0x00\n        /* \".deps/github/succinctlabs/sp1-contracts/contracts/src/v5.0.0/Groth16Verifier.sol\":6762:6784  exp(a, EXP_INVERSE_FP) */\n      tag_309\n        /* \".deps/github/succinctlabs/sp1-contracts/contracts/src/v5.0.0/Groth16Verifier.sol\":6766:6767  a */\n      dup3\n        /* \".deps/github/succinctlabs/sp1-contracts/contracts/src/v5.0.0/Groth16Verifier.sol\":2485:2551  0x30644E72E131A029B85045B68181585D97816A916871CA8D3C208C16D87CFD45 */\n      0x30644e72e131a029b85045b68181585d97816a916871ca8d3c208c16d87cfd45\n        /* \".deps/github/succinctlabs/sp1-contracts/contracts/src/v5.0.0/Groth16Verifier.sol\":6762:6765  exp */\n      tag_259\n        /* \".deps/github/succinctlabs/sp1-contracts/contracts/src/v5.0.0/Groth16Verifier.sol\":6762:6784  exp(a, EXP_INVERSE_FP) */\n      jump\t// in\n    tag_309:\n        /* \".deps/github/succinctlabs/sp1-contracts/contracts/src/v5.0.0/Groth16Verifier.sol\":6758:6784  x = exp(a, EXP_INVERSE_FP) */\n      swap1\n      pop\n        /* \".deps/github/succinctlabs/sp1-contracts/contracts/src/v5.0.0/Groth16Verifier.sol\":6817:6818  1 */\n      0x01\n        /* \".deps/github/succinctlabs/sp1-contracts/contracts/src/v5.0.0/Groth16Verifier.sol\":1396:1462  0x30644e72e131a029b85045b68181585d97816a916871ca8d3c208c16d87cfd47 */\n      0x30644e72e131a029b85045b68181585d97816a916871ca8d3c208c16d87cfd47\n        /* \".deps/github/succinctlabs/sp1-contracts/contracts/src/v5.0.0/Groth16Verifier.sol\":6798:6813  mulmod(a, x, P) */\n      dup1\n      tag_310\n      jumpi\n      tag_311\n      tag_136\n      jump\t// in\n    tag_311:\n    tag_310:\n        /* \".deps/github/succinctlabs/sp1-contracts/contracts/src/v5.0.0/Groth16Verifier.sol\":6808:6809  x */\n      dup3\n        /* \".deps/github/succinctlabs/sp1-contracts/contracts/src/v5.0.0/Groth16Verifier.sol\":6805:6806  a */\n      dup5\n        /* \".deps/github/succinctlabs/sp1-contracts/contracts/src/v5.0.0/Groth16Verifier.sol\":6798:6813  mulmod(a, x, P) */\n      mulmod\n        /* \".deps/github/succinctlabs/sp1-contracts/contracts/src/v5.0.0/Groth16Verifier.sol\":6798:6818  mulmod(a, x, P) != 1 */\n      eq\n        /* \".deps/github/succinctlabs/sp1-contracts/contracts/src/v5.0.0/Groth16Verifier.sol\":6794:6967  if (mulmod(a, x, P) != 1) {... */\n      tag_312\n      jumpi\n        /* \".deps/github/succinctlabs/sp1-contracts/contracts/src/v5.0.0/Groth16Verifier.sol\":6942:6956  ProofInvalid() */\n      mload(0x40)\n      0x7fcdd1f400000000000000000000000000000000000000000000000000000000\n      dup2\n      mstore\n      0x04\n      add\n      mload(0x40)\n      dup1\n      swap2\n      sub\n      swap1\n      revert\n        /* \".deps/github/succinctlabs/sp1-contracts/contracts/src/v5.0.0/Groth16Verifier.sol\":6794:6967  if (mulmod(a, x, P) != 1) {... */\n    tag_312:\n        /* \".deps/github/succinctlabs/sp1-contracts/contracts/src/v5.0.0/Groth16Verifier.sol\":6684:6973  function invert_Fp(uint256 a) internal view returns (uint256 x) {... */\n      swap2\n      swap1\n      pop\n      jump\t// out\n    tag_21:\n      mload(0x40)\n      dup1\n      0x80\n      add\n      0x40\n      mstore\n      dup1\n      0x04\n      swap1\n      0x20\n      dup3\n      mul\n      dup1\n      calldatasize\n      dup4\n      calldatacopy\n      dup1\n      dup3\n      add\n      swap2\n      pop\n      pop\n      swap1\n      pop\n      pop\n      swap1\n      jump\t// out\n    tag_59:\n      mload(0x40)\n      dup1\n      0x0300\n      add\n      0x40\n      mstore\n      dup1\n      0x18\n      swap1\n      0x20\n      dup3\n      mul\n      dup1\n      calldatasize\n      dup4\n      calldatacopy\n      dup1\n      dup3\n      add\n      swap2\n      pop\n      pop\n      swap1\n      pop\n      pop\n      swap1\n      jump\t// out\n    tag_123:\n      mload(0x40)\n      dup1\n      0x20\n      add\n      0x40\n      mstore\n      dup1\n      0x01\n      swap1\n      0x20\n      dup3\n      mul\n      dup1\n      calldatasize\n      dup4\n      calldatacopy\n      dup1\n      dup3\n      add\n      swap2\n      pop\n      pop\n      swap1\n      pop\n      pop\n      swap1\n      jump\t// out\n        /* \"#utility.yul\":88:205   */\n    tag_314:\n        /* \"#utility.yul\":197:198   */\n      0x00\n        /* \"#utility.yul\":194:195   */\n      0x00\n        /* \"#utility.yul\":187:199   */\n      revert\n        /* \"#utility.yul\":334:451   */\n    tag_316:\n        /* \"#utility.yul\":443:444   */\n      0x00\n        /* \"#utility.yul\":440:441   */\n      0x00\n        /* \"#utility.yul\":433:445   */\n      revert\n        /* \"#utility.yul\":475:724   */\n    tag_317:\n        /* \"#utility.yul\":546:554   */\n      0x00\n        /* \"#utility.yul\":577:583   */\n      dup2\n        /* \"#utility.yul\":565:583   */\n      swap1\n      pop\n        /* \"#utility.yul\":630:633   */\n      dup3\n        /* \"#utility.yul\":622:626   */\n      0x20\n        /* \"#utility.yul\":616:620   */\n      0x08\n        /* \"#utility.yul\":612:627   */\n      mul\n        /* \"#utility.yul\":602:610   */\n      dup3\n        /* \"#utility.yul\":598:628   */\n      add\n        /* \"#utility.yul\":595:634   */\n      gt\n        /* \"#utility.yul\":592:718   */\n      iszero\n      tag_335\n      jumpi\n        /* \"#utility.yul\":637:716   */\n      tag_336\n      tag_316\n      jump\t// in\n    tag_336:\n        /* \"#utility.yul\":592:718   */\n    tag_335:\n        /* \"#utility.yul\":475:724   */\n      swap3\n      swap2\n      pop\n      pop\n      jump\t// out\n        /* \"#utility.yul\":730:1110   */\n    tag_8:\n        /* \"#utility.yul\":814:820   */\n      0x00\n        /* \"#utility.yul\":863:866   */\n      0x0100\n        /* \"#utility.yul\":851:860   */\n      dup3\n        /* \"#utility.yul\":842:849   */\n      dup5\n        /* \"#utility.yul\":838:861   */\n      sub\n        /* \"#utility.yul\":834:867   */\n      slt\n        /* \"#utility.yul\":831:951   */\n      iszero\n      tag_338\n      jumpi\n        /* \"#utility.yul\":870:949   */\n      tag_339\n      tag_314\n      jump\t// in\n    tag_339:\n        /* \"#utility.yul\":831:951   */\n    tag_338:\n        /* \"#utility.yul\":990:991   */\n      0x00\n        /* \"#utility.yul\":1015:1093   */\n      tag_340\n        /* \"#utility.yul\":1085:1092   */\n      dup5\n        /* \"#utility.yul\":1076:1082   */\n      dup3\n        /* \"#utility.yul\":1065:1074   */\n      dup6\n        /* \"#utility.yul\":1061:1083   */\n      add\n        /* \"#utility.yul\":1015:1093   */\n      tag_317\n      jump\t// in\n    tag_340:\n        /* \"#utility.yul\":1005:1093   */\n      swap2\n      pop\n        /* \"#utility.yul\":961:1103   */\n      pop\n        /* \"#utility.yul\":730:1110   */\n      swap3\n      swap2\n      pop\n      pop\n      jump\t// out\n        /* \"#utility.yul\":1116:1220   */\n    tag_318:\n        /* \"#utility.yul\":1181:1187   */\n      0x00\n        /* \"#utility.yul\":1209:1213   */\n      0x04\n        /* \"#utility.yul\":1199:1213   */\n      swap1\n      pop\n        /* \"#utility.yul\":1116:1220   */\n      swap2\n      swap1\n      pop\n      jump\t// out\n        /* \"#utility.yul\":1226:1369   */\n    tag_319:\n        /* \"#utility.yul\":1323:1334   */\n      0x00\n        /* \"#utility.yul\":1360:1363   */\n      dup2\n        /* \"#utility.yul\":1345:1363   */\n      swap1\n      pop\n        /* \"#utility.yul\":1226:1369   */\n      swap3\n      swap2\n      pop\n      pop\n      jump\t// out\n        /* \"#utility.yul\":1375:1473   */\n    tag_320:\n        /* \"#utility.yul\":1440:1444   */\n      0x00\n        /* \"#utility.yul\":1463:1466   */\n      dup2\n        /* \"#utility.yul\":1455:1466   */\n      swap1\n      pop\n        /* \"#utility.yul\":1375:1473   */\n      swap2\n      swap1\n      pop\n      jump\t// out\n        /* \"#utility.yul\":1479:1556   */\n    tag_321:\n        /* \"#utility.yul\":1516:1523   */\n      0x00\n        /* \"#utility.yul\":1545:1550   */\n      dup2\n        /* \"#utility.yul\":1534:1550   */\n      swap1\n      pop\n        /* \"#utility.yul\":1479:1556   */\n      swap2\n      swap1\n      pop\n      jump\t// out\n        /* \"#utility.yul\":1562:1670   */\n    tag_322:\n        /* \"#utility.yul\":1639:1663   */\n      tag_346\n        /* \"#utility.yul\":1657:1662   */\n      dup2\n        /* \"#utility.yul\":1639:1663   */\n      tag_321\n      jump\t// in\n    tag_346:\n        /* \"#utility.yul\":1634:1637   */\n      dup3\n        /* \"#utility.yul\":1627:1664   */\n      mstore\n        /* \"#utility.yul\":1562:1670   */\n      pop\n      pop\n      jump\t// out\n        /* \"#utility.yul\":1676:1855   */\n    tag_323:\n        /* \"#utility.yul\":1745:1755   */\n      0x00\n        /* \"#utility.yul\":1766:1812   */\n      tag_348\n        /* \"#utility.yul\":1808:1811   */\n      dup4\n        /* \"#utility.yul\":1800:1806   */\n      dup4\n        /* \"#utility.yul\":1766:1812   */\n      tag_322\n      jump\t// in\n    tag_348:\n        /* \"#utility.yul\":1844:1848   */\n      0x20\n        /* \"#utility.yul\":1839:1842   */\n      dup4\n        /* \"#utility.yul\":1835:1849   */\n      add\n        /* \"#utility.yul\":1821:1849   */\n      swap1\n      pop\n        /* \"#utility.yul\":1676:1855   */\n      swap3\n      swap2\n      pop\n      pop\n      jump\t// out\n        /* \"#utility.yul\":1861:1972   */\n    tag_324:\n        /* \"#utility.yul\":1929:1933   */\n      0x00\n        /* \"#utility.yul\":1961:1965   */\n      0x20\n        /* \"#utility.yul\":1956:1959   */\n      dup3\n        /* \"#utility.yul\":1952:1966   */\n      add\n        /* \"#utility.yul\":1944:1966   */\n      swap1\n      pop\n        /* \"#utility.yul\":1861:1972   */\n      swap2\n      swap1\n      pop\n      jump\t// out\n        /* \"#utility.yul\":2010:2704   */\n    tag_325:\n        /* \"#utility.yul\":2146:2198   */\n      tag_351\n        /* \"#utility.yul\":2192:2197   */\n      dup2\n        /* \"#utility.yul\":2146:2198   */\n      tag_318\n      jump\t// in\n    tag_351:\n        /* \"#utility.yul\":2214:2298   */\n      tag_352\n        /* \"#utility.yul\":2291:2297   */\n      dup2\n        /* \"#utility.yul\":2286:2289   */\n      dup5\n        /* \"#utility.yul\":2214:2298   */\n      tag_319\n      jump\t// in\n    tag_352:\n        /* \"#utility.yul\":2207:2298   */\n      swap3\n      pop\n        /* \"#utility.yul\":2322:2376   */\n      tag_353\n        /* \"#utility.yul\":2370:2375   */\n      dup3\n        /* \"#utility.yul\":2322:2376   */\n      tag_320\n      jump\t// in\n    tag_353:\n        /* \"#utility.yul\":2399:2406   */\n      dup1\n        /* \"#utility.yul\":2430:2431   */\n      0x00\n        /* \"#utility.yul\":2415:2697   */\n    tag_354:\n        /* \"#utility.yul\":2440:2446   */\n      dup4\n        /* \"#utility.yul\":2437:2438   */\n      dup2\n        /* \"#utility.yul\":2434:2447   */\n      lt\n        /* \"#utility.yul\":2415:2697   */\n      iszero\n      tag_356\n      jumpi\n        /* \"#utility.yul\":2516:2522   */\n      dup2\n        /* \"#utility.yul\":2510:2523   */\n      mload\n        /* \"#utility.yul\":2543:2606   */\n      tag_357\n        /* \"#utility.yul\":2602:2605   */\n      dup8\n        /* \"#utility.yul\":2587:2600   */\n      dup3\n        /* \"#utility.yul\":2543:2606   */\n      tag_323\n      jump\t// in\n    tag_357:\n        /* \"#utility.yul\":2536:2606   */\n      swap7\n      pop\n        /* \"#utility.yul\":2629:2687   */\n      tag_358\n        /* \"#utility.yul\":2680:2686   */\n      dup4\n        /* \"#utility.yul\":2629:2687   */\n      tag_324\n      jump\t// in\n    tag_358:\n        /* \"#utility.yul\":2619:2687   */\n      swap3\n      pop\n        /* \"#utility.yul\":2475:2697   */\n      pop\n        /* \"#utility.yul\":2462:2463   */\n      0x01\n        /* \"#utility.yul\":2459:2460   */\n      dup2\n        /* \"#utility.yul\":2455:2464   */\n      add\n        /* \"#utility.yul\":2450:2464   */\n      swap1\n      pop\n        /* \"#utility.yul\":2415:2697   */\n      jump(tag_354)\n    tag_356:\n        /* \"#utility.yul\":2419:2433   */\n      pop\n        /* \"#utility.yul\":2122:2704   */\n      pop\n      pop\n      pop\n        /* \"#utility.yul\":2010:2704   */\n      pop\n      pop\n      jump\t// out\n        /* \"#utility.yul\":2710:3025   */\n    tag_11:\n        /* \"#utility.yul\":2849:2853   */\n      0x00\n        /* \"#utility.yul\":2887:2890   */\n      0x80\n        /* \"#utility.yul\":2876:2885   */\n      dup3\n        /* \"#utility.yul\":2872:2891   */\n      add\n        /* \"#utility.yul\":2864:2891   */\n      swap1\n      pop\n        /* \"#utility.yul\":2901:3018   */\n      tag_360\n        /* \"#utility.yul\":3015:3016   */\n      0x00\n        /* \"#utility.yul\":3004:3013   */\n      dup4\n        /* \"#utility.yul\":3000:3017   */\n      add\n        /* \"#utility.yul\":2991:2997   */\n      dup5\n        /* \"#utility.yul\":2901:3018   */\n      tag_325\n      jump\t// in\n    tag_360:\n        /* \"#utility.yul\":2710:3025   */\n      swap3\n      swap2\n      pop\n      pop\n      jump\t// out\n        /* \"#utility.yul\":3049:3298   */\n    tag_326:\n        /* \"#utility.yul\":3120:3128   */\n      0x00\n        /* \"#utility.yul\":3151:3157   */\n      dup2\n        /* \"#utility.yul\":3139:3157   */\n      swap1\n      pop\n        /* \"#utility.yul\":3204:3207   */\n      dup3\n        /* \"#utility.yul\":3196:3200   */\n      0x20\n        /* \"#utility.yul\":3190:3194   */\n      0x02\n        /* \"#utility.yul\":3186:3201   */\n      mul\n        /* \"#utility.yul\":3176:3184   */\n      dup3\n        /* \"#utility.yul\":3172:3202   */\n      add\n        /* \"#utility.yul\":3169:3208   */\n      gt\n        /* \"#utility.yul\":3166:3292   */\n      iszero\n      tag_362\n      jumpi\n        /* \"#utility.yul\":3211:3290   */\n      tag_363\n      tag_316\n      jump\t// in\n    tag_363:\n        /* \"#utility.yul\":3166:3292   */\n    tag_362:\n        /* \"#utility.yul\":3049:3298   */\n      swap3\n      swap2\n      pop\n      pop\n      jump\t// out\n        /* \"#utility.yul\":3304:3880   */\n    tag_14:\n        /* \"#utility.yul\":3422:3428   */\n      0x00\n        /* \"#utility.yul\":3430:3436   */\n      0x00\n        /* \"#utility.yul\":3479:3482   */\n      0x0140\n        /* \"#utility.yul\":3467:3476   */\n      dup4\n        /* \"#utility.yul\":3458:3465   */\n      dup6\n        /* \"#utility.yul\":3454:3477   */\n      sub\n        /* \"#utility.yul\":3450:3483   */\n      slt\n        /* \"#utility.yul\":3447:3567   */\n      iszero\n      tag_365\n      jumpi\n        /* \"#utility.yul\":3486:3565   */\n      tag_366\n      tag_314\n      jump\t// in\n    tag_366:\n        /* \"#utility.yul\":3447:3567   */\n    tag_365:\n        /* \"#utility.yul\":3606:3607   */\n      0x00\n        /* \"#utility.yul\":3631:3709   */\n      tag_367\n        /* \"#utility.yul\":3701:3708   */\n      dup6\n        /* \"#utility.yul\":3692:3698   */\n      dup3\n        /* \"#utility.yul\":3681:3690   */\n      dup7\n        /* \"#utility.yul\":3677:3699   */\n      add\n        /* \"#utility.yul\":3631:3709   */\n      tag_317\n      jump\t// in\n    tag_367:\n        /* \"#utility.yul\":3621:3709   */\n      swap3\n      pop\n        /* \"#utility.yul\":3577:3719   */\n      pop\n        /* \"#utility.yul\":3758:3761   */\n      0x0100\n        /* \"#utility.yul\":3785:3863   */\n      tag_368\n        /* \"#utility.yul\":3855:3862   */\n      dup6\n        /* \"#utility.yul\":3846:3852   */\n      dup3\n        /* \"#utility.yul\":3835:3844   */\n      dup7\n        /* \"#utility.yul\":3831:3853   */\n      add\n        /* \"#utility.yul\":3785:3863   */\n      tag_326\n      jump\t// in\n    tag_368:\n        /* \"#utility.yul\":3775:3863   */\n      swap2\n      pop\n        /* \"#utility.yul\":3729:3873   */\n      pop\n        /* \"#utility.yul\":3304:3880   */\n      swap3\n      pop\n      swap3\n      swap1\n      pop\n      jump\t// out\n        /* \"#utility.yul\":3904:4153   */\n    tag_327:\n        /* \"#utility.yul\":3975:3983   */\n      0x00\n        /* \"#utility.yul\":4006:4012   */\n      dup2\n        /* \"#utility.yul\":3994:4012   */\n      swap1\n      pop\n        /* \"#utility.yul\":4059:4062   */\n      dup3\n        /* \"#utility.yul\":4051:4055   */\n      0x20\n        /* \"#utility.yul\":4045:4049   */\n      0x04\n        /* \"#utility.yul\":4041:4056   */\n      mul\n        /* \"#utility.yul\":4031:4039   */\n      dup3\n        /* \"#utility.yul\":4027:4057   */\n      add\n        /* \"#utility.yul\":4024:4063   */\n      gt\n        /* \"#utility.yul\":4021:4147   */\n      iszero\n      tag_370\n      jumpi\n        /* \"#utility.yul\":4066:4145   */\n      tag_371\n      tag_316\n      jump\t// in\n    tag_371:\n        /* \"#utility.yul\":4021:4147   */\n    tag_370:\n        /* \"#utility.yul\":3904:4153   */\n      swap3\n      swap2\n      pop\n      pop\n      jump\t// out\n        /* \"#utility.yul\":4159:4735   */\n    tag_18:\n        /* \"#utility.yul\":4277:4283   */\n      0x00\n        /* \"#utility.yul\":4285:4291   */\n      0x00\n        /* \"#utility.yul\":4334:4337   */\n      0xc0\n        /* \"#utility.yul\":4322:4331   */\n      dup4\n        /* \"#utility.yul\":4313:4320   */\n      dup6\n        /* \"#utility.yul\":4309:4332   */\n      sub\n        /* \"#utility.yul\":4305:4338   */\n      slt\n        /* \"#utility.yul\":4302:4422   */\n      iszero\n      tag_373\n      jumpi\n        /* \"#utility.yul\":4341:4420   */\n      tag_374\n      tag_314\n      jump\t// in\n    tag_374:\n        /* \"#utility.yul\":4302:4422   */\n    tag_373:\n        /* \"#utility.yul\":4461:4462   */\n      0x00\n        /* \"#utility.yul\":4486:4564   */\n      tag_375\n        /* \"#utility.yul\":4556:4563   */\n      dup6\n        /* \"#utility.yul\":4547:4553   */\n      dup3\n        /* \"#utility.yul\":4536:4545   */\n      dup7\n        /* \"#utility.yul\":4532:4554   */\n      add\n        /* \"#utility.yul\":4486:4564   */\n      tag_327\n      jump\t// in\n    tag_375:\n        /* \"#utility.yul\":4476:4564   */\n      swap3\n      pop\n        /* \"#utility.yul\":4432:4574   */\n      pop\n        /* \"#utility.yul\":4613:4616   */\n      0x80\n        /* \"#utility.yul\":4640:4718   */\n      tag_376\n        /* \"#utility.yul\":4710:4717   */\n      dup6\n        /* \"#utility.yul\":4701:4707   */\n      dup3\n        /* \"#utility.yul\":4690:4699   */\n      dup7\n        /* \"#utility.yul\":4686:4708   */\n      add\n        /* \"#utility.yul\":4640:4718   */\n      tag_326\n      jump\t// in\n    tag_376:\n        /* \"#utility.yul\":4630:4718   */\n      swap2\n      pop\n        /* \"#utility.yul\":4584:4728   */\n      pop\n        /* \"#utility.yul\":4159:4735   */\n      swap3\n      pop\n      swap3\n      swap1\n      pop\n      jump\t// out\n        /* \"#utility.yul\":4741:4921   */\n    tag_26:\n        /* \"#utility.yul\":4789:4866   */\n      0x4e487b7100000000000000000000000000000000000000000000000000000000\n        /* \"#utility.yul\":4786:4787   */\n      0x00\n        /* \"#utility.yul\":4779:4867   */\n      mstore\n        /* \"#utility.yul\":4886:4890   */\n      0x32\n        /* \"#utility.yul\":4883:4884   */\n      0x04\n        /* \"#utility.yul\":4876:4891   */\n      mstore\n        /* \"#utility.yul\":4910:4914   */\n      0x24\n        /* \"#utility.yul\":4907:4908   */\n      0x00\n        /* \"#utility.yul\":4900:4915   */\n      revert\n        /* \"#utility.yul\":4927:5107   */\n    tag_136:\n        /* \"#utility.yul\":4975:5052   */\n      0x4e487b7100000000000000000000000000000000000000000000000000000000\n        /* \"#utility.yul\":4972:4973   */\n      0x00\n        /* \"#utility.yul\":4965:5053   */\n      mstore\n        /* \"#utility.yul\":5072:5076   */\n      0x12\n        /* \"#utility.yul\":5069:5070   */\n      0x04\n        /* \"#utility.yul\":5062:5077   */\n      mstore\n        /* \"#utility.yul\":5096:5100   */\n      0x24\n        /* \"#utility.yul\":5093:5094   */\n      0x00\n        /* \"#utility.yul\":5086:5101   */\n      revert\n        /* \"#utility.yul\":5113:5293   */\n    tag_328:\n        /* \"#utility.yul\":5161:5238   */\n      0x4e487b7100000000000000000000000000000000000000000000000000000000\n        /* \"#utility.yul\":5158:5159   */\n      0x00\n        /* \"#utility.yul\":5151:5239   */\n      mstore\n        /* \"#utility.yul\":5258:5262   */\n      0x11\n        /* \"#utility.yul\":5255:5256   */\n      0x04\n        /* \"#utility.yul\":5248:5263   */\n      mstore\n        /* \"#utility.yul\":5282:5286   */\n      0x24\n        /* \"#utility.yul\":5279:5280   */\n      0x00\n        /* \"#utility.yul\":5272:5287   */\n      revert\n        /* \"#utility.yul\":5299:5493   */\n    tag_157:\n        /* \"#utility.yul\":5339:5343   */\n      0x00\n        /* \"#utility.yul\":5359:5379   */\n      tag_381\n        /* \"#utility.yul\":5377:5378   */\n      dup3\n        /* \"#utility.yul\":5359:5379   */\n      tag_321\n      jump\t// in\n    tag_381:\n        /* \"#utility.yul\":5354:5379   */\n      swap2\n      pop\n        /* \"#utility.yul\":5393:5413   */\n      tag_382\n        /* \"#utility.yul\":5411:5412   */\n      dup4\n        /* \"#utility.yul\":5393:5413   */\n      tag_321\n      jump\t// in\n    tag_382:\n        /* \"#utility.yul\":5388:5413   */\n      swap3\n      pop\n        /* \"#utility.yul\":5437:5438   */\n      dup3\n        /* \"#utility.yul\":5434:5435   */\n      dup3\n        /* \"#utility.yul\":5430:5439   */\n      sub\n        /* \"#utility.yul\":5422:5439   */\n      swap1\n      pop\n        /* \"#utility.yul\":5461:5462   */\n      dup2\n        /* \"#utility.yul\":5455:5459   */\n      dup2\n        /* \"#utility.yul\":5452:5463   */\n      gt\n        /* \"#utility.yul\":5449:5486   */\n      iszero\n      tag_383\n      jumpi\n        /* \"#utility.yul\":5466:5484   */\n      tag_384\n      tag_328\n      jump\t// in\n    tag_384:\n        /* \"#utility.yul\":5449:5486   */\n    tag_383:\n        /* \"#utility.yul\":5299:5493   */\n      swap3\n      swap2\n      pop\n      pop\n      jump\t// out\n\n    auxdata: 0xa2646970667358221220e6e8d6b97f7d35a065f3f8ef233d7f33184ab1ad3d45a6089c71876f8c033b8264736f6c634300081e0033\n}\n",
				"bytecode": {
					"linkReferences": {},
					"object": "6080604052348015600e575f5ffd5b5061218d8061001c5f395ff3fe608060405234801561000f575f5ffd5b506004361061003f575f3560e01c806344f6369214610043578063eddf243c14610073578063f11817b21461008f575b5f5ffd5b61005d60048036038101906100589190611eea565b6100ab565b60405161006a9190611fc4565b60405180910390f35b61008d60048036038101906100889190611ffe565b61020a565b005b6100a960048036038101906100a4919061205f565b6104a4565b005b6100b3611e5a565b6100ec825f600881106100c9576100c861209d565b5b6020020135836001600881106100e2576100e161209d565b5b6020020135610a5f565b815f600481106100ff576100fe61209d565b5b6020020181815250506101748260036008811061011f5761011e61209d565b5b6020020135836002600881106101385761013761209d565b5b6020020135846005600881106101515761015061209d565b5b60200201358560046008811061016a5761016961209d565b5b6020020135610c0d565b826002600481106101885761018761209d565b5b60200201836001600481106101a05761019f61209d565b5b60200201828152508281525050506101e8826006600881106101c5576101c461209d565b5b6020020135836007600881106101de576101dd61209d565b5b6020020135610a5f565b816003600481106101fc576101fb61209d565b5b602002018181525050919050565b5f5f610215836111d9565b915091505f6040516101008682377f1cc7cb8de715675f21f01ecc9b46d236e0865e0cc020024521998269845f74e66101008201527f03ff41f4ba0c37fe2caf27354d28e4b8f83d3b76777a63b327d736bffb0122ed6101208201527f01909cd7827e0278e6b60843a4abc7b111d7f8b2725cd5902a6b20da7a2938fb6101408201527f192bd3274441670227b4f69a44005b8711266e474227c6439ca25ca8e1ec1fc26101608201527f2d4d9aa7e302d9df41749d5507949d05dbea33fbb16c643b22f599a2be6df2e26101808201527f14bedd503c37ceb061d8ec60209fe345ce89830a19230301f076caff004d19266101a08201527f0967032fcbf776d1afc985f88877f182d38480a653f2decaa9794cbc3bf3060c6101c08201527f0e187847ad4c798374d0d6732bf501847dd68bc0e071241e0213bc7fc13db7ab6101e08201527e1752a100a72fdf1e5a5d6ea841cc20ec838bccfcf7bd559e79f1c9c759b6a06102008201527f192a8cc13cd9f762871f21e43451c6ca9eeab2cb2987c4e366a185c25dac2e7f61022082015283610240820152826102608201527f198e9393920d483a7260bfb731fb5d25f1aa493335a9e71297e485b7aef312c26102808201527f1800deef121f1e76426a00665e5c4479674322d4f75edadd46debd5cd992f6ed6102a08201527f275dc4a288d1afb3cbb1ac09187524c7db36395df7be3b99e673b13a075a65ec6102c08201527f1d9befcd05a5323e6da4d435f3b617cdb3af83285c2df711ef39c01571827f9d6102e08201526020816103008360085afa9150805182169150508061049d576040517f7fcdd1f400000000000000000000000000000000000000000000000000000000815260040160405180910390fd5b5050505050565b6104ac611e7c565b5f5f6104ce855f600481106104c4576104c361209d565b5b60200201356113aa565b915091505f5f5f5f610510896002600481106104ed576104ec61209d565b5b60200201358a6001600481106105065761050561209d565b5b60200201356114df565b93509350935093505f5f61053b8b6003600481106105315761053061209d565b5b60200201356113aa565b915091505f5f61054a8c6111d9565b91509150898b5f601881106105625761056161209d565b5b602002018181525050888b6001601881106105805761057f61209d565b5b602002018181525050868b60026018811061059e5761059d61209d565b5b602002018181525050878b6003601881106105bc576105bb61209d565b5b602002018181525050848b6004601881106105da576105d961209d565b5b602002018181525050858b6005601881106105f8576105f761209d565b5b602002018181525050838b6006601881106106165761061561209d565b5b602002018181525050828b6007601881106106345761063361209d565b5b6020020181815250507f1cc7cb8de715675f21f01ecc9b46d236e0865e0cc020024521998269845f74e68b6008601881106106725761067161209d565b5b6020020181815250507f03ff41f4ba0c37fe2caf27354d28e4b8f83d3b76777a63b327d736bffb0122ed8b6009601881106106b0576106af61209d565b5b6020020181815250507f01909cd7827e0278e6b60843a4abc7b111d7f8b2725cd5902a6b20da7a2938fb8b600a601881106106ee576106ed61209d565b5b6020020181815250507f192bd3274441670227b4f69a44005b8711266e474227c6439ca25ca8e1ec1fc28b600b6018811061072c5761072b61209d565b5b6020020181815250507f2d4d9aa7e302d9df41749d5507949d05dbea33fbb16c643b22f599a2be6df2e28b600c6018811061076a5761076961209d565b5b6020020181815250507f14bedd503c37ceb061d8ec60209fe345ce89830a19230301f076caff004d19268b600d601881106107a8576107a761209d565b5b6020020181815250507f0967032fcbf776d1afc985f88877f182d38480a653f2decaa9794cbc3bf3060c8b600e601881106107e6576107e561209d565b5b6020020181815250507f0e187847ad4c798374d0d6732bf501847dd68bc0e071241e0213bc7fc13db7ab8b600f601881106108245761082361209d565b5b6020020181815250507e1752a100a72fdf1e5a5d6ea841cc20ec838bccfcf7bd559e79f1c9c759b6a08b6010601881106108615761086061209d565b5b6020020181815250507f192a8cc13cd9f762871f21e43451c6ca9eeab2cb2987c4e366a185c25dac2e7f8b60116018811061089f5761089e61209d565b5b602002018181525050818b6012601881106108bd576108bc61209d565b5b602002018181525050808b6013601881106108db576108da61209d565b5b6020020181815250507f198e9393920d483a7260bfb731fb5d25f1aa493335a9e71297e485b7aef312c28b6014601881106109195761091861209d565b5b6020020181815250507f1800deef121f1e76426a00665e5c4479674322d4f75edadd46debd5cd992f6ed8b6015601881106109575761095661209d565b5b6020020181815250507f275dc4a288d1afb3cbb1ac09187524c7db36395df7be3b99e673b13a075a65ec8b6016601881106109955761099461209d565b5b6020020181815250507f1d9befcd05a5323e6da4d435f3b617cdb3af83285c2df711ef39c01571827f9d8b6017601881106109d3576109d261209d565b5b6020020181815250505f6109e5611e9f565b6020816103008f60085afa9150811580610a1757506001815f60018110610a0f57610a0e61209d565b5b602002015114155b15610a4e576040517f7fcdd1f400000000000000000000000000000000000000000000000000000000815260040160405180910390fd5b505050505050505050505050505050565b5f7f30644e72e131a029b85045b68181585d97816a916871ca8d3c208c16d87cfd4783101580610aaf57507f30644e72e131a029b85045b68181585d97816a916871ca8d3c208c16d87cfd478210155b15610ae6576040517f7fcdd1f400000000000000000000000000000000000000000000000000000000815260040160405180910390fd5b5f83148015610af457505f82145b15610b01575f9050610c07565b5f610b9f7f30644e72e131a029b85045b68181585d97816a916871ca8d3c208c16d87cfd4780610b3457610b336120ca565b5b60037f30644e72e131a029b85045b68181585d97816a916871ca8d3c208c16d87cfd4780610b6557610b646120ca565b5b877f30644e72e131a029b85045b68181585d97816a916871ca8d3c208c16d87cfd4780610b9557610b946120ca565b5b898a0909086118ba565b9050808303610bb7575f600185901b17915050610c07565b610bc081611956565b8303610bd55760018085901b17915050610c07565b6040517f7fcdd1f400000000000000000000000000000000000000000000000000000000815260040160405180910390fd5b92915050565b5f5f7f30644e72e131a029b85045b68181585d97816a916871ca8d3c208c16d87cfd4786101580610c5e57507f30644e72e131a029b85045b68181585d97816a916871ca8d3c208c16d87cfd478510155b80610c8957507f30644e72e131a029b85045b68181585d97816a916871ca8d3c208c16d87cfd478410155b80610cb457507f30644e72e131a029b85045b68181585d97816a916871ca8d3c208c16d87cfd478310155b15610ceb576040517f7fcdd1f400000000000000000000000000000000000000000000000000000000815260040160405180910390fd5b5f8385878917171703610d03575f5f915091506111d0565b5f5f5f7f30644e72e131a029b85045b68181585d97816a916871ca8d3c208c16d87cfd4780610d3557610d346120ca565b5b60037f30644e72e131a029b85045b68181585d97816a916871ca8d3c208c16d87cfd47610d629190612124565b7f30644e72e131a029b85045b68181585d97816a916871ca8d3c208c16d87cfd4780610d9157610d906120ca565b5b8a8c090990505f7f30644e72e131a029b85045b68181585d97816a916871ca8d3c208c16d87cfd4780610dc757610dc66120ca565b5b8a7f30644e72e131a029b85045b68181585d97816a916871ca8d3c208c16d87cfd4780610df757610df66120ca565b5b8c8d090990505f7f30644e72e131a029b85045b68181585d97816a916871ca8d3c208c16d87cfd4780610e2d57610e2c6120ca565b5b8a7f30644e72e131a029b85045b68181585d97816a916871ca8d3c208c16d87cfd4780610e5d57610e5c6120ca565b5b8c8d090990507f30644e72e131a029b85045b68181585d97816a916871ca8d3c208c16d87cfd4780610e9257610e916120ca565b5b7f30644e72e131a029b85045b68181585d97816a916871ca8d3c208c16d87cfd4780610ec157610ec06120ca565b5b7f30644e72e131a029b85045b68181585d97816a916871ca8d3c208c16d87cfd4780610ef057610eef6120ca565b5b8c860984087f2b149d40ceb8aaae81be18991be06ac3b5b4c5e559dbefa33267e6dc24a138e5089450610fd57f30644e72e131a029b85045b68181585d97816a916871ca8d3c208c16d87cfd4780610f4b57610f4a6120ca565b5b7f30644e72e131a029b85045b68181585d97816a916871ca8d3c208c16d87cfd4780610f7a57610f796120ca565b5b7f30644e72e131a029b85045b68181585d97816a916871ca8d3c208c16d87cfd4780610fa957610fa86120ca565b5b8e870984087f2fcd3ac2a640a154eb23960892a85a68f031ca0c8344b23a577dcf1052b9e77508611956565b93505050505f5f6110787f30644e72e131a029b85045b68181585d97816a916871ca8d3c208c16d87cfd478061100e5761100d6120ca565b5b7f30644e72e131a029b85045b68181585d97816a916871ca8d3c208c16d87cfd478061103d5761103c6120ca565b5b8586097f30644e72e131a029b85045b68181585d97816a916871ca8d3c208c16d87cfd478061106f5761106e6120ca565b5b878809086118ba565b90506111057f30644e72e131a029b85045b68181585d97816a916871ca8d3c208c16d87cfd47806110ac576110ab6120ca565b5b7f183227397098d014dc2822db40c0ac2ecbc0b548b438e5469e10460b6c3e7ea47f30644e72e131a029b85045b68181585d97816a916871ca8d3c208c16d87cfd47806110fc576110fb6120ca565b5b848808096119c1565b15915050611114838383611a2b565b8093508194505050828714801561112a57508186145b15611152575f8161113b575f61113e565b60025b60ff1660028b901b171794508793506111cc565b61115b83611956565b87148015611170575061116d82611956565b86145b1561119957600181611182575f611185565b60025b60ff1660028b901b171794508793506111cb565b6040517f7fcdd1f400000000000000000000000000000000000000000000000000000000815260040160405180910390fd5b5b5050505b94509492505050565b5f5f5f60019050604051604081015f7f26091e1cafb0ad8a4ea0a694cd3743ebf524779233db734c451d28b58aa9758e83527e9ff50a6b8b11c3ca6fdb2690a124f8ce25489fefa65a3e782e7ba70b66690e60208401527f061c3fd0fd3da25d2607c227d090cca750ed36c6ec878755e537c1c48951fb4c82527f0fa17ae9c2033379df7b5c65eff0e107055e9a273e6119a212dd09eb517072196020830152863590508060408301527f30644e72e131a029b85045b68181585d2833e84879b9709143e1f593f000000181108416935060408260608460075afa8416935060408360808560065afa841693507f04eab241388a79817fe0e0e2ead0b2ec4ffdec51a16028dee020634fd129e71c82527f07236256d21c60d02f0bdbf95cff83e03ea9e16fca56b18d5544b0889a65c1f56020830152602087013590508060408301527f30644e72e131a029b85045b68181585d2833e84879b9709143e1f593f000000181108416935060408260608460075afa8416935060408360808560065afa841693508251955060208301519450505050806113a4576040517fa54f8e2700000000000000000000000000000000000000000000000000000000815260040160405180910390fd5b50915091565b5f5f5f83036113be575f5f915091506114da565b5f6001808516149050600184901c92507f30644e72e131a029b85045b68181585d97816a916871ca8d3c208c16d87cfd478310611427576040517f7fcdd1f400000000000000000000000000000000000000000000000000000000815260040160405180910390fd5b6114c47f30644e72e131a029b85045b68181585d97816a916871ca8d3c208c16d87cfd4780611459576114586120ca565b5b60037f30644e72e131a029b85045b68181585d97816a916871ca8d3c208c16d87cfd478061148a576114896120ca565b5b867f30644e72e131a029b85045b68181585d97816a916871ca8d3c208c16d87cfd47806114ba576114b96120ca565b5b88890909086118ba565b915080156114d8576114d582611956565b91505b505b915091565b5f5f5f5f5f861480156114f157505f85145b15611507575f5f5f5f93509350935093506118b1565b5f60018088161490505f6002808916149050600288901c95508694507f30644e72e131a029b85045b68181585d97816a916871ca8d3c208c16d87cfd478610158061157257507f30644e72e131a029b85045b68181585d97816a916871ca8d3c208c16d87cfd478510155b156115a9576040517f7fcdd1f400000000000000000000000000000000000000000000000000000000815260040160405180910390fd5b5f7f30644e72e131a029b85045b68181585d97816a916871ca8d3c208c16d87cfd47806115d9576115d86120ca565b5b60037f30644e72e131a029b85045b68181585d97816a916871ca8d3c208c16d87cfd476116069190612124565b7f30644e72e131a029b85045b68181585d97816a916871ca8d3c208c16d87cfd4780611635576116346120ca565b5b888a090990505f7f30644e72e131a029b85045b68181585d97816a916871ca8d3c208c16d87cfd478061166b5761166a6120ca565b5b887f30644e72e131a029b85045b68181585d97816a916871ca8d3c208c16d87cfd478061169b5761169a6120ca565b5b8a8b090990505f7f30644e72e131a029b85045b68181585d97816a916871ca8d3c208c16d87cfd47806116d1576116d06120ca565b5b887f30644e72e131a029b85045b68181585d97816a916871ca8d3c208c16d87cfd4780611701576117006120ca565b5b8a8b090990507f30644e72e131a029b85045b68181585d97816a916871ca8d3c208c16d87cfd4780611736576117356120ca565b5b7f30644e72e131a029b85045b68181585d97816a916871ca8d3c208c16d87cfd4780611765576117646120ca565b5b7f30644e72e131a029b85045b68181585d97816a916871ca8d3c208c16d87cfd4780611794576117936120ca565b5b8a860984087f2b149d40ceb8aaae81be18991be06ac3b5b4c5e559dbefa33267e6dc24a138e50896506118797f30644e72e131a029b85045b68181585d97816a916871ca8d3c208c16d87cfd47806117ef576117ee6120ca565b5b7f30644e72e131a029b85045b68181585d97816a916871ca8d3c208c16d87cfd478061181e5761181d6120ca565b5b7f30644e72e131a029b85045b68181585d97816a916871ca8d3c208c16d87cfd478061184d5761184c6120ca565b5b8c870984087f2fcd3ac2a640a154eb23960892a85a68f031ca0c8344b23a577dcf1052b9e77508611956565b9550611886878786611a2b565b809750819850505084156118ab5761189d87611956565b96506118a886611956565b95505b50505050505b92959194509250565b5f6118e5827f0c19139cb84c680a6e14116da060561765e05aa45a1c72a34f082305b61f3f52611d26565b9050817f30644e72e131a029b85045b68181585d97816a916871ca8d3c208c16d87cfd4780611917576119166120ca565b5b82830914611951576040517f7fcdd1f400000000000000000000000000000000000000000000000000000000815260040160405180910390fd5b919050565b5f7f30644e72e131a029b85045b68181585d97816a916871ca8d3c208c16d87cfd47808381611988576119876120ca565b5b067f30644e72e131a029b85045b68181585d97816a916871ca8d3c208c16d87cfd4703816119b9576119b86120ca565b5b069050919050565b5f5f6119ed837f0c19139cb84c680a6e14116da060561765e05aa45a1c72a34f082305b61f3f52611d26565b9050827f30644e72e131a029b85045b68181585d97816a916871ca8d3c208c16d87cfd4780611a1f57611a1e6120ca565b5b82830914915050919050565b5f5f5f611aca7f30644e72e131a029b85045b68181585d97816a916871ca8d3c208c16d87cfd4780611a6057611a5f6120ca565b5b7f30644e72e131a029b85045b68181585d97816a916871ca8d3c208c16d87cfd4780611a8f57611a8e6120ca565b5b8788097f30644e72e131a029b85045b68181585d97816a916871ca8d3c208c16d87cfd4780611ac157611ac06120ca565b5b898a09086118ba565b90508315611ade57611adb81611956565b90505b611b697f30644e72e131a029b85045b68181585d97816a916871ca8d3c208c16d87cfd4780611b1057611b0f6120ca565b5b7f183227397098d014dc2822db40c0ac2ecbc0b548b438e5469e10460b6c3e7ea47f30644e72e131a029b85045b68181585d97816a916871ca8d3c208c16d87cfd4780611b6057611b5f6120ca565b5b848a08096118ba565b92507f30644e72e131a029b85045b68181585d97816a916871ca8d3c208c16d87cfd4780611b9a57611b996120ca565b5b611bd57f30644e72e131a029b85045b68181585d97816a916871ca8d3c208c16d87cfd4780611bcc57611bcb6120ca565b5b60028609611dbd565b860991507f30644e72e131a029b85045b68181585d97816a916871ca8d3c208c16d87cfd4780611c0857611c076120ca565b5b611c427f30644e72e131a029b85045b68181585d97816a916871ca8d3c208c16d87cfd4780611c3a57611c396120ca565b5b848509611956565b7f30644e72e131a029b85045b68181585d97816a916871ca8d3c208c16d87cfd4780611c7157611c706120ca565b5b8586090886141580611ce657507f30644e72e131a029b85045b68181585d97816a916871ca8d3c208c16d87cfd4780611cad57611cac6120ca565b5b7f30644e72e131a029b85045b68181585d97816a916871ca8d3c208c16d87cfd4780611cdc57611cdb6120ca565b5b8385096002098514155b15611d1d576040517f7fcdd1f400000000000000000000000000000000000000000000000000000000815260040160405180910390fd5b50935093915050565b5f5f60405160208152602080820152602060408201528460608201528360808201527f30644e72e131a029b85045b68181585d97816a916871ca8d3c208c16d87cfd4760a082015260208160c08360055afa9150805192505080611db6576040517f7fcdd1f400000000000000000000000000000000000000000000000000000000815260040160405180910390fd5b5092915050565b5f611de8827f30644e72e131a029b85045b68181585d97816a916871ca8d3c208c16d87cfd45611d26565b905060017f30644e72e131a029b85045b68181585d97816a916871ca8d3c208c16d87cfd4780611e1b57611e1a6120ca565b5b82840914611e55576040517f7fcdd1f400000000000000000000000000000000000000000000000000000000815260040160405180910390fd5b919050565b6040518060800160405280600490602082028036833780820191505090505090565b604051806103000160405280601890602082028036833780820191505090505090565b6040518060200160405280600190602082028036833780820191505090505090565b5f5ffd5b5f5ffd5b5f81905082602060080282011115611ee457611ee3611ec5565b5b92915050565b5f6101008284031215611f0057611eff611ec1565b5b5f611f0d84828501611ec9565b91505092915050565b5f60049050919050565b5f81905092915050565b5f819050919050565b5f819050919050565b611f4581611f33565b82525050565b5f611f568383611f3c565b60208301905092915050565b5f602082019050919050565b611f7781611f16565b611f818184611f20565b9250611f8c82611f2a565b805f5b83811015611fbc578151611fa38782611f4b565b9650611fae83611f62565b925050600181019050611f8f565b505050505050565b5f608082019050611fd75f830184611f6e565b92915050565b5f81905082602060020282011115611ff857611ff7611ec5565b5b92915050565b5f5f610140838503121561201557612014611ec1565b5b5f61202285828601611ec9565b92505061010061203485828601611fdd565b9150509250929050565b5f8190508260206004028201111561205957612058611ec5565b5b92915050565b5f5f60c0838503121561207557612074611ec1565b5b5f6120828582860161203e565b925050608061209385828601611fdd565b9150509250929050565b7f4e487b71000000000000000000000000000000000000000000000000000000005f52603260045260245ffd5b7f4e487b71000000000000000000000000000000000000000000000000000000005f52601260045260245ffd5b7f4e487b71000000000000000000000000000000000000000000000000000000005f52601160045260245ffd5b5f61212e82611f33565b915061213983611f33565b9250828203905081811115612151576121506120f7565b5b9291505056fea2646970667358221220e6e8d6b97f7d35a065f3f8ef233d7f33184ab1ad3d45a6089c71876f8c033b8264736f6c634300081e0033",
					"opcodes": "PUSH1 0x80 PUSH1 0x40 MSTORE CALLVALUE DUP1 ISZERO PUSH1 0xE JUMPI PUSH0 PUSH0 REVERT JUMPDEST POP PUSH2 0x218D DUP1 PUSH2 0x1C PUSH0 CODECOPY PUSH0 RETURN INVALID PUSH1 0x80 PUSH1 0x40 MSTORE CALLVALUE DUP1 ISZERO PUSH2 0xF JUMPI PUSH0 PUSH0 REVERT JUMPDEST POP PUSH1 0x4 CALLDATASIZE LT PUSH2 0x3F JUMPI PUSH0 CALLDATALOAD PUSH1 0xE0 SHR DUP1 PUSH4 0x44F63692 EQ PUSH2 0x43 JUMPI DUP1 PUSH4 0xEDDF243C EQ PUSH2 0x73 JUMPI DUP1 PUSH4 0xF11817B2 EQ PUSH2 0x8F JUMPI JUMPDEST PUSH0 PUSH0 REVERT JUMPDEST PUSH2 0x5D PUSH1 0x4 DUP1 CALLDATASIZE SUB DUP2 ADD SWAP1 PUSH2 0x58 SWAP2 SWAP1 PUSH2 0x1EEA JUMP JUMPDEST PUSH2 0xAB JUMP JUMPDEST PUSH1 0x40 MLOAD PUSH2 0x6A SWAP2 SWAP1 PUSH2 0x1FC4 JUMP JUMPDEST PUSH1 0x40 MLOAD DUP1 SWAP2 SUB SWAP1 RETURN JUMPDEST PUSH2 0x8D PUSH1 0x4 DUP1 CALLDATASIZE SUB DUP2 ADD SWAP1 PUSH2 0x88 SWAP2 SWAP1 PUSH2 0x1FFE JUMP JUMPDEST PUSH2 0x20A JUMP JUMPDEST STOP JUMPDEST PUSH2 0xA9 PUSH1 0x4 DUP1 CALLDATASIZE SUB DUP2 ADD SWAP1 PUSH2 0xA4 SWAP2 SWAP1 PUSH2 0x205F JUMP JUMPDEST PUSH2 0x4A4 JUMP JUMPDEST STOP JUMPDEST PUSH2 0xB3 PUSH2 0x1E5A JUMP JUMPDEST PUSH2 0xEC DUP3 PUSH0 PUSH1 0x8 DUP2 LT PUSH2 0xC9 JUMPI PUSH2 0xC8 PUSH2 0x209D JUMP JUMPDEST JUMPDEST PUSH1 0x20 MUL ADD CALLDATALOAD DUP4 PUSH1 0x1 PUSH1 0x8 DUP2 LT PUSH2 0xE2 JUMPI PUSH2 0xE1 PUSH2 0x209D JUMP JUMPDEST JUMPDEST PUSH1 0x20 MUL ADD CALLDATALOAD PUSH2 0xA5F JUMP JUMPDEST DUP2 PUSH0 PUSH1 0x4 DUP2 LT PUSH2 0xFF JUMPI PUSH2 0xFE PUSH2 0x209D JUMP JUMPDEST JUMPDEST PUSH1 0x20 MUL ADD DUP2 DUP2 MSTORE POP POP PUSH2 0x174 DUP3 PUSH1 0x3 PUSH1 0x8 DUP2 LT PUSH2 0x11F JUMPI PUSH2 0x11E PUSH2 0x209D JUMP JUMPDEST JUMPDEST PUSH1 0x20 MUL ADD CALLDATALOAD DUP4 PUSH1 0x2 PUSH1 0x8 DUP2 LT PUSH2 0x138 JUMPI PUSH2 0x137 PUSH2 0x209D JUMP JUMPDEST JUMPDEST PUSH1 0x20 MUL ADD CALLDATALOAD DUP5 PUSH1 0x5 PUSH1 0x8 DUP2 LT PUSH2 0x151 JUMPI PUSH2 0x150 PUSH2 0x209D JUMP JUMPDEST JUMPDEST PUSH1 0x20 MUL ADD CALLDATALOAD DUP6 PUSH1 0x4 PUSH1 0x8 DUP2 LT PUSH2 0x16A JUMPI PUSH2 0x169 PUSH2 0x209D JUMP JUMPDEST JUMPDEST PUSH1 0x20 MUL ADD CALLDATALOAD PUSH2 0xC0D JUMP JUMPDEST DUP3 PUSH1 0x2 PUSH1 0x4 DUP2 LT PUSH2 0x188 JUMPI PUSH2 0x187 PUSH2 0x209D JUMP JUMPDEST JUMPDEST PUSH1 0x20 MUL ADD DUP4 PUSH1 0x1 PUSH1 0x4 DUP2 LT PUSH2 0x1A0 JUMPI PUSH2 0x19F PUSH2 0x209D JUMP JUMPDEST JUMPDEST PUSH1 0x20 MUL ADD DUP3 DUP2 MSTORE POP DUP3 DUP2 MSTORE POP POP POP PUSH2 0x1E8 DUP3 PUSH1 0x6 PUSH1 0x8 DUP2 LT PUSH2 0x1C5 JUMPI PUSH2 0x1C4 PUSH2 0x209D JUMP JUMPDEST JUMPDEST PUSH1 0x20 MUL ADD CALLDATALOAD DUP4 PUSH1 0x7 PUSH1 0x8 DUP2 LT PUSH2 0x1DE JUMPI PUSH2 0x1DD PUSH2 0x209D JUMP JUMPDEST JUMPDEST PUSH1 0x20 MUL ADD CALLDATALOAD PUSH2 0xA5F JUMP JUMPDEST DUP2 PUSH1 0x3 PUSH1 0x4 DUP2 LT PUSH2 0x1FC JUMPI PUSH2 0x1FB PUSH2 0x209D JUMP JUMPDEST JUMPDEST PUSH1 0x20 MUL ADD DUP2 DUP2 MSTORE POP POP SWAP2 SWAP1 POP JUMP JUMPDEST PUSH0 PUSH0 PUSH2 0x215 DUP4 PUSH2 0x11D9 JUMP JUMPDEST SWAP2 POP SWAP2 POP PUSH0 PUSH1 0x40 MLOAD PUSH2 0x100 DUP7 DUP3 CALLDATACOPY PUSH32 0x1CC7CB8DE715675F21F01ECC9B46D236E0865E0CC020024521998269845F74E6 PUSH2 0x100 DUP3 ADD MSTORE PUSH32 0x3FF41F4BA0C37FE2CAF27354D28E4B8F83D3B76777A63B327D736BFFB0122ED PUSH2 0x120 DUP3 ADD MSTORE PUSH32 0x1909CD7827E0278E6B60843A4ABC7B111D7F8B2725CD5902A6B20DA7A2938FB PUSH2 0x140 DUP3 ADD MSTORE PUSH32 0x192BD3274441670227B4F69A44005B8711266E474227C6439CA25CA8E1EC1FC2 PUSH2 0x160 DUP3 ADD MSTORE PUSH32 0x2D4D9AA7E302D9DF41749D5507949D05DBEA33FBB16C643B22F599A2BE6DF2E2 PUSH2 0x180 DUP3 ADD MSTORE PUSH32 0x14BEDD503C37CEB061D8EC60209FE345CE89830A19230301F076CAFF004D1926 PUSH2 0x1A0 DUP3 ADD MSTORE PUSH32 0x967032FCBF776D1AFC985F88877F182D38480A653F2DECAA9794CBC3BF3060C PUSH2 0x1C0 DUP3 ADD MSTORE PUSH32 0xE187847AD4C798374D0D6732BF501847DD68BC0E071241E0213BC7FC13DB7AB PUSH2 0x1E0 DUP3 ADD MSTORE PUSH31 0x1752A100A72FDF1E5A5D6EA841CC20EC838BCCFCF7BD559E79F1C9C759B6A0 PUSH2 0x200 DUP3 ADD MSTORE PUSH32 0x192A8CC13CD9F762871F21E43451C6CA9EEAB2CB2987C4E366A185C25DAC2E7F PUSH2 0x220 DUP3 ADD MSTORE DUP4 PUSH2 0x240 DUP3 ADD MSTORE DUP3 PUSH2 0x260 DUP3 ADD MSTORE PUSH32 0x198E9393920D483A7260BFB731FB5D25F1AA493335A9E71297E485B7AEF312C2 PUSH2 0x280 DUP3 ADD MSTORE PUSH32 0x1800DEEF121F1E76426A00665E5C4479674322D4F75EDADD46DEBD5CD992F6ED PUSH2 0x2A0 DUP3 ADD MSTORE PUSH32 0x275DC4A288D1AFB3CBB1AC09187524C7DB36395DF7BE3B99E673B13A075A65EC PUSH2 0x2C0 DUP3 ADD MSTORE PUSH32 0x1D9BEFCD05A5323E6DA4D435F3B617CDB3AF83285C2DF711EF39C01571827F9D PUSH2 0x2E0 DUP3 ADD MSTORE PUSH1 0x20 DUP2 PUSH2 0x300 DUP4 PUSH1 0x8 GAS STATICCALL SWAP2 POP DUP1 MLOAD DUP3 AND SWAP2 POP POP DUP1 PUSH2 0x49D JUMPI PUSH1 0x40 MLOAD PUSH32 0x7FCDD1F400000000000000000000000000000000000000000000000000000000 DUP2 MSTORE PUSH1 0x4 ADD PUSH1 0x40 MLOAD DUP1 SWAP2 SUB SWAP1 REVERT JUMPDEST POP POP POP POP POP JUMP JUMPDEST PUSH2 0x4AC PUSH2 0x1E7C JUMP JUMPDEST PUSH0 PUSH0 PUSH2 0x4CE DUP6 PUSH0 PUSH1 0x4 DUP2 LT PUSH2 0x4C4 JUMPI PUSH2 0x4C3 PUSH2 0x209D JUMP JUMPDEST JUMPDEST PUSH1 0x20 MUL ADD CALLDATALOAD PUSH2 0x13AA JUMP JUMPDEST SWAP2 POP SWAP2 POP PUSH0 PUSH0 PUSH0 PUSH0 PUSH2 0x510 DUP10 PUSH1 0x2 PUSH1 0x4 DUP2 LT PUSH2 0x4ED JUMPI PUSH2 0x4EC PUSH2 0x209D JUMP JUMPDEST JUMPDEST PUSH1 0x20 MUL ADD CALLDATALOAD DUP11 PUSH1 0x1 PUSH1 0x4 DUP2 LT PUSH2 0x506 JUMPI PUSH2 0x505 PUSH2 0x209D JUMP JUMPDEST JUMPDEST PUSH1 0x20 MUL ADD CALLDATALOAD PUSH2 0x14DF JUMP JUMPDEST SWAP4 POP SWAP4 POP SWAP4 POP SWAP4 POP PUSH0 PUSH0 PUSH2 0x53B DUP12 PUSH1 0x3 PUSH1 0x4 DUP2 LT PUSH2 0x531 JUMPI PUSH2 0x530 PUSH2 0x209D JUMP JUMPDEST JUMPDEST PUSH1 0x20 MUL ADD CALLDATALOAD PUSH2 0x13AA JUMP JUMPDEST SWAP2 POP SWAP2 POP PUSH0 PUSH0 PUSH2 0x54A DUP13 PUSH2 0x11D9 JUMP JUMPDEST SWAP2 POP SWAP2 POP DUP10 DUP12 PUSH0 PUSH1 0x18 DUP2 LT PUSH2 0x562 JUMPI PUSH2 0x561 PUSH2 0x209D JUMP JUMPDEST JUMPDEST PUSH1 0x20 MUL ADD DUP2 DUP2 MSTORE POP POP DUP9 DUP12 PUSH1 0x1 PUSH1 0x18 DUP2 LT PUSH2 0x580 JUMPI PUSH2 0x57F PUSH2 0x209D JUMP JUMPDEST JUMPDEST PUSH1 0x20 MUL ADD DUP2 DUP2 MSTORE POP POP DUP7 DUP12 PUSH1 0x2 PUSH1 0x18 DUP2 LT PUSH2 0x59E JUMPI PUSH2 0x59D PUSH2 0x209D JUMP JUMPDEST JUMPDEST PUSH1 0x20 MUL ADD DUP2 DUP2 MSTORE POP POP DUP8 DUP12 PUSH1 0x3 PUSH1 0x18 DUP2 LT PUSH2 0x5BC JUMPI PUSH2 0x5BB PUSH2 0x209D JUMP JUMPDEST JUMPDEST PUSH1 0x20 MUL ADD DUP2 DUP2 MSTORE POP POP DUP5 DUP12 PUSH1 0x4 PUSH1 0x18 DUP2 LT PUSH2 0x5DA JUMPI PUSH2 0x5D9 PUSH2 0x209D JUMP JUMPDEST JUMPDEST PUSH1 0x20 MUL ADD DUP2 DUP2 MSTORE POP POP DUP6 DUP12 PUSH1 0x5 PUSH1 0x18 DUP2 LT PUSH2 0x5F8 JUMPI PUSH2 0x5F7 PUSH2 0x209D JUMP JUMPDEST JUMPDEST PUSH1 0x20 MUL ADD DUP2 DUP2 MSTORE POP POP DUP4 DUP12 PUSH1 0x6 PUSH1 0x18 DUP2 LT PUSH2 0x616 JUMPI PUSH2 0x615 PUSH2 0x209D JUMP JUMPDEST JUMPDEST PUSH1 0x20 MUL ADD DUP2 DUP2 MSTORE POP POP DUP3 DUP12 PUSH1 0x7 PUSH1 0x18 DUP2 LT PUSH2 0x634 JUMPI PUSH2 0x633 PUSH2 0x209D JUMP JUMPDEST JUMPDEST PUSH1 0x20 MUL ADD DUP2 DUP2 MSTORE POP POP PUSH32 0x1CC7CB8DE715675F21F01ECC9B46D236E0865E0CC020024521998269845F74E6 DUP12 PUSH1 0x8 PUSH1 0x18 DUP2 LT PUSH2 0x672 JUMPI PUSH2 0x671 PUSH2 0x209D JUMP JUMPDEST JUMPDEST PUSH1 0x20 MUL ADD DUP2 DUP2 MSTORE POP POP PUSH32 0x3FF41F4BA0C37FE2CAF27354D28E4B8F83D3B76777A63B327D736BFFB0122ED DUP12 PUSH1 0x9 PUSH1 0x18 DUP2 LT PUSH2 0x6B0 JUMPI PUSH2 0x6AF PUSH2 0x209D JUMP JUMPDEST JUMPDEST PUSH1 0x20 MUL ADD DUP2 DUP2 MSTORE POP POP PUSH32 0x1909CD7827E0278E6B60843A4ABC7B111D7F8B2725CD5902A6B20DA7A2938FB DUP12 PUSH1 0xA PUSH1 0x18 DUP2 LT PUSH2 0x6EE JUMPI PUSH2 0x6ED PUSH2 0x209D JUMP JUMPDEST JUMPDEST PUSH1 0x20 MUL ADD DUP2 DUP2 MSTORE POP POP PUSH32 0x192BD3274441670227B4F69A44005B8711266E474227C6439CA25CA8E1EC1FC2 DUP12 PUSH1 0xB PUSH1 0x18 DUP2 LT PUSH2 0x72C JUMPI PUSH2 0x72B PUSH2 0x209D JUMP JUMPDEST JUMPDEST PUSH1 0x20 MUL ADD DUP2 DUP2 MSTORE POP POP PUSH32 0x2D4D9AA7E302D9DF41749D5507949D05DBEA33FBB16C643B22F599A2BE6DF2E2 DUP12 PUSH1 0xC PUSH1 0x18 DUP2 LT PUSH2 0x76A JUMPI PUSH2 0x769 PUSH2 0x209D JUMP JUMPDEST JUMPDEST PUSH1 0x20 MUL ADD DUP2 DUP2 MSTORE POP POP PUSH32 0x14BEDD503C37CEB061D8EC60209FE345CE89830A19230301F076CAFF004D1926 DUP12 PUSH1 0xD PUSH1 0x18 DUP2 LT PUSH2 0x7A8 JUMPI PUSH2 0x7A7 PUSH2 0x209D JUMP JUMPDEST JUMPDEST PUSH1 0x20 MUL ADD DUP2 DUP2 MSTORE POP POP PUSH32 0x967032FCBF776D1AFC985F88877F182D38480A653F2DECAA9794CBC3BF3060C DUP12 PUSH1 0xE PUSH1 0x18 DUP2 LT PUSH2 0x7E6 JUMPI PUSH2 0x7E5 PUSH2 0x209D JUMP JUMPDEST JUMPDEST PUSH1 0x20 MUL ADD DUP2 DUP2 MSTORE POP POP PUSH32 0xE187847AD4C798374D0D6732BF501847DD68BC0E071241E0213BC7FC13DB7AB DUP12 PUSH1 0xF PUSH1 0x18 DUP2 LT PUSH2 0x824 JUMPI PUSH2 0x823 PUSH2 0x209D JUMP JUMPDEST JUMPDEST PUSH1 0x20 MUL ADD DUP2 DUP2 MSTORE POP POP PUSH31 0x1752A100A72FDF1E5A5D6EA841CC20EC838BCCFCF7BD559E79F1C9C759B6A0 DUP12 PUSH1 0x10 PUSH1 0x18 DUP2 LT PUSH2 0x861 JUMPI PUSH2 0x860 PUSH2 0x209D JUMP JUMPDEST JUMPDEST PUSH1 0x20 MUL ADD DUP2 DUP2 MSTORE POP POP PUSH32 0x192A8CC13CD9F762871F21E43451C6CA9EEAB2CB2987C4E366A185C25DAC2E7F DUP12 PUSH1 0x11 PUSH1 0x18 DUP2 LT PUSH2 0x89F JUMPI PUSH2 0x89E PUSH2 0x209D JUMP JUMPDEST JUMPDEST PUSH1 0x20 MUL ADD DUP2 DUP2 MSTORE POP POP DUP2 DUP12 PUSH1 0x12 PUSH1 0x18 DUP2 LT PUSH2 0x8BD JUMPI PUSH2 0x8BC PUSH2 0x209D JUMP JUMPDEST JUMPDEST PUSH1 0x20 MUL ADD DUP2 DUP2 MSTORE POP POP DUP1 DUP12 PUSH1 0x13 PUSH1 0x18 DUP2 LT PUSH2 0x8DB JUMPI PUSH2 0x8DA PUSH2 0x209D JUMP JUMPDEST JUMPDEST PUSH1 0x20 MUL ADD DUP2 DUP2 MSTORE POP POP PUSH32 0x198E9393920D483A7260BFB731FB5D25F1AA493335A9E71297E485B7AEF312C2 DUP12 PUSH1 0x14 PUSH1 0x18 DUP2 LT PUSH2 0x919 JUMPI PUSH2 0x918 PUSH2 0x209D JUMP JUMPDEST JUMPDEST PUSH1 0x20 MUL ADD DUP2 DUP2 MSTORE POP POP PUSH32 0x1800DEEF121F1E76426A00665E5C4479674322D4F75EDADD46DEBD5CD992F6ED DUP12 PUSH1 0x15 PUSH1 0x18 DUP2 LT PUSH2 0x957 JUMPI PUSH2 0x956 PUSH2 0x209D JUMP JUMPDEST JUMPDEST PUSH1 0x20 MUL ADD DUP2 DUP2 MSTORE POP POP PUSH32 0x275DC4A288D1AFB3CBB1AC09187524C7DB36395DF7BE3B99E673B13A075A65EC DUP12 PUSH1 0x16 PUSH1 0x18 DUP2 LT PUSH2 0x995 JUMPI PUSH2 0x994 PUSH2 0x209D JUMP JUMPDEST JUMPDEST PUSH1 0x20 MUL ADD DUP2 DUP2 MSTORE POP POP PUSH32 0x1D9BEFCD05A5323E6DA4D435F3B617CDB3AF83285C2DF711EF39C01571827F9D DUP12 PUSH1 0x17 PUSH1 0x18 DUP2 LT PUSH2 0x9D3 JUMPI PUSH2 0x9D2 PUSH2 0x209D JUMP JUMPDEST JUMPDEST PUSH1 0x20 MUL ADD DUP2 DUP2 MSTORE POP POP PUSH0 PUSH2 0x9E5 PUSH2 0x1E9F JUMP JUMPDEST PUSH1 0x20 DUP2 PUSH2 0x300 DUP16 PUSH1 0x8 GAS STATICCALL SWAP2 POP DUP2 ISZERO DUP1 PUSH2 0xA17 JUMPI POP PUSH1 0x1 DUP2 PUSH0 PUSH1 0x1 DUP2 LT PUSH2 0xA0F JUMPI PUSH2 0xA0E PUSH2 0x209D JUMP JUMPDEST JUMPDEST PUSH1 0x20 MUL ADD MLOAD EQ ISZERO JUMPDEST ISZERO PUSH2 0xA4E JUMPI PUSH1 0x40 MLOAD PUSH32 0x7FCDD1F400000000000000000000000000000000000000000000000000000000 DUP2 MSTORE PUSH1 0x4 ADD PUSH1 0x40 MLOAD DUP1 SWAP2 SUB SWAP1 REVERT JUMPDEST POP POP POP POP POP POP POP POP POP POP POP POP POP POP POP JUMP JUMPDEST PUSH0 PUSH32 0x30644E72E131A029B85045B68181585D97816A916871CA8D3C208C16D87CFD47 DUP4 LT ISZERO DUP1 PUSH2 0xAAF JUMPI POP PUSH32 0x30644E72E131A029B85045B68181585D97816A916871CA8D3C208C16D87CFD47 DUP3 LT ISZERO JUMPDEST ISZERO PUSH2 0xAE6 JUMPI PUSH1 0x40 MLOAD PUSH32 0x7FCDD1F400000000000000000000000000000000000000000000000000000000 DUP2 MSTORE PUSH1 0x4 ADD PUSH1 0x40 MLOAD DUP1 SWAP2 SUB SWAP1 REVERT JUMPDEST PUSH0 DUP4 EQ DUP1 ISZERO PUSH2 0xAF4 JUMPI POP PUSH0 DUP3 EQ JUMPDEST ISZERO PUSH2 0xB01 JUMPI PUSH0 SWAP1 POP PUSH2 0xC07 JUMP JUMPDEST PUSH0 PUSH2 0xB9F PUSH32 0x30644E72E131A029B85045B68181585D97816A916871CA8D3C208C16D87CFD47 DUP1 PUSH2 0xB34 JUMPI PUSH2 0xB33 PUSH2 0x20CA JUMP JUMPDEST JUMPDEST PUSH1 0x3 PUSH32 0x30644E72E131A029B85045B68181585D97816A916871CA8D3C208C16D87CFD47 DUP1 PUSH2 0xB65 JUMPI PUSH2 0xB64 PUSH2 0x20CA JUMP JUMPDEST JUMPDEST DUP8 PUSH32 0x30644E72E131A029B85045B68181585D97816A916871CA8D3C208C16D87CFD47 DUP1 PUSH2 0xB95 JUMPI PUSH2 0xB94 PUSH2 0x20CA JUMP JUMPDEST JUMPDEST DUP10 DUP11 MULMOD MULMOD ADDMOD PUSH2 0x18BA JUMP JUMPDEST SWAP1 POP DUP1 DUP4 SUB PUSH2 0xBB7 JUMPI PUSH0 PUSH1 0x1 DUP6 SWAP1 SHL OR SWAP2 POP POP PUSH2 0xC07 JUMP JUMPDEST PUSH2 0xBC0 DUP2 PUSH2 0x1956 JUMP JUMPDEST DUP4 SUB PUSH2 0xBD5 JUMPI PUSH1 0x1 DUP1 DUP6 SWAP1 SHL OR SWAP2 POP POP PUSH2 0xC07 JUMP JUMPDEST PUSH1 0x40 MLOAD PUSH32 0x7FCDD1F400000000000000000000000000000000000000000000000000000000 DUP2 MSTORE PUSH1 0x4 ADD PUSH1 0x40 MLOAD DUP1 SWAP2 SUB SWAP1 REVERT JUMPDEST SWAP3 SWAP2 POP POP JUMP JUMPDEST PUSH0 PUSH0 PUSH32 0x30644E72E131A029B85045B68181585D97816A916871CA8D3C208C16D87CFD47 DUP7 LT ISZERO DUP1 PUSH2 0xC5E JUMPI POP PUSH32 0x30644E72E131A029B85045B68181585D97816A916871CA8D3C208C16D87CFD47 DUP6 LT ISZERO JUMPDEST DUP1 PUSH2 0xC89 JUMPI POP PUSH32 0x30644E72E131A029B85045B68181585D97816A916871CA8D3C208C16D87CFD47 DUP5 LT ISZERO JUMPDEST DUP1 PUSH2 0xCB4 JUMPI POP PUSH32 0x30644E72E131A029B85045B68181585D97816A916871CA8D3C208C16D87CFD47 DUP4 LT ISZERO JUMPDEST ISZERO PUSH2 0xCEB JUMPI PUSH1 0x40 MLOAD PUSH32 0x7FCDD1F400000000000000000000000000000000000000000000000000000000 DUP2 MSTORE PUSH1 0x4 ADD PUSH1 0x40 MLOAD DUP1 SWAP2 SUB SWAP1 REVERT JUMPDEST PUSH0 DUP4 DUP6 DUP8 DUP10 OR OR OR SUB PUSH2 0xD03 JUMPI PUSH0 PUSH0 SWAP2 POP SWAP2 POP PUSH2 0x11D0 JUMP JUMPDEST PUSH0 PUSH0 PUSH0 PUSH32 0x30644E72E131A029B85045B68181585D97816A916871CA8D3C208C16D87CFD47 DUP1 PUSH2 0xD35 JUMPI PUSH2 0xD34 PUSH2 0x20CA JUMP JUMPDEST JUMPDEST PUSH1 0x3 PUSH32 0x30644E72E131A029B85045B68181585D97816A916871CA8D3C208C16D87CFD47 PUSH2 0xD62 SWAP2 SWAP1 PUSH2 0x2124 JUMP JUMPDEST PUSH32 0x30644E72E131A029B85045B68181585D97816A916871CA8D3C208C16D87CFD47 DUP1 PUSH2 0xD91 JUMPI PUSH2 0xD90 PUSH2 0x20CA JUMP JUMPDEST JUMPDEST DUP11 DUP13 MULMOD MULMOD SWAP1 POP PUSH0 PUSH32 0x30644E72E131A029B85045B68181585D97816A916871CA8D3C208C16D87CFD47 DUP1 PUSH2 0xDC7 JUMPI PUSH2 0xDC6 PUSH2 0x20CA JUMP JUMPDEST JUMPDEST DUP11 PUSH32 0x30644E72E131A029B85045B68181585D97816A916871CA8D3C208C16D87CFD47 DUP1 PUSH2 0xDF7 JUMPI PUSH2 0xDF6 PUSH2 0x20CA JUMP JUMPDEST JUMPDEST DUP13 DUP14 MULMOD MULMOD SWAP1 POP PUSH0 PUSH32 0x30644E72E131A029B85045B68181585D97816A916871CA8D3C208C16D87CFD47 DUP1 PUSH2 0xE2D JUMPI PUSH2 0xE2C PUSH2 0x20CA JUMP JUMPDEST JUMPDEST DUP11 PUSH32 0x30644E72E131A029B85045B68181585D97816A916871CA8D3C208C16D87CFD47 DUP1 PUSH2 0xE5D JUMPI PUSH2 0xE5C PUSH2 0x20CA JUMP JUMPDEST JUMPDEST DUP13 DUP14 MULMOD MULMOD SWAP1 POP PUSH32 0x30644E72E131A029B85045B68181585D97816A916871CA8D3C208C16D87CFD47 DUP1 PUSH2 0xE92 JUMPI PUSH2 0xE91 PUSH2 0x20CA JUMP JUMPDEST JUMPDEST PUSH32 0x30644E72E131A029B85045B68181585D97816A916871CA8D3C208C16D87CFD47 DUP1 PUSH2 0xEC1 JUMPI PUSH2 0xEC0 PUSH2 0x20CA JUMP JUMPDEST JUMPDEST PUSH32 0x30644E72E131A029B85045B68181585D97816A916871CA8D3C208C16D87CFD47 DUP1 PUSH2 0xEF0 JUMPI PUSH2 0xEEF PUSH2 0x20CA JUMP JUMPDEST JUMPDEST DUP13 DUP7 MULMOD DUP5 ADDMOD PUSH32 0x2B149D40CEB8AAAE81BE18991BE06AC3B5B4C5E559DBEFA33267E6DC24A138E5 ADDMOD SWAP5 POP PUSH2 0xFD5 PUSH32 0x30644E72E131A029B85045B68181585D97816A916871CA8D3C208C16D87CFD47 DUP1 PUSH2 0xF4B JUMPI PUSH2 0xF4A PUSH2 0x20CA JUMP JUMPDEST JUMPDEST PUSH32 0x30644E72E131A029B85045B68181585D97816A916871CA8D3C208C16D87CFD47 DUP1 PUSH2 0xF7A JUMPI PUSH2 0xF79 PUSH2 0x20CA JUMP JUMPDEST JUMPDEST PUSH32 0x30644E72E131A029B85045B68181585D97816A916871CA8D3C208C16D87CFD47 DUP1 PUSH2 0xFA9 JUMPI PUSH2 0xFA8 PUSH2 0x20CA JUMP JUMPDEST JUMPDEST DUP15 DUP8 MULMOD DUP5 ADDMOD PUSH32 0x2FCD3AC2A640A154EB23960892A85A68F031CA0C8344B23A577DCF1052B9E775 ADDMOD PUSH2 0x1956 JUMP JUMPDEST SWAP4 POP POP POP POP PUSH0 PUSH0 PUSH2 0x1078 PUSH32 0x30644E72E131A029B85045B68181585D97816A916871CA8D3C208C16D87CFD47 DUP1 PUSH2 0x100E JUMPI PUSH2 0x100D PUSH2 0x20CA JUMP JUMPDEST JUMPDEST PUSH32 0x30644E72E131A029B85045B68181585D97816A916871CA8D3C208C16D87CFD47 DUP1 PUSH2 0x103D JUMPI PUSH2 0x103C PUSH2 0x20CA JUMP JUMPDEST JUMPDEST DUP6 DUP7 MULMOD PUSH32 0x30644E72E131A029B85045B68181585D97816A916871CA8D3C208C16D87CFD47 DUP1 PUSH2 0x106F JUMPI PUSH2 0x106E PUSH2 0x20CA JUMP JUMPDEST JUMPDEST DUP8 DUP9 MULMOD ADDMOD PUSH2 0x18BA JUMP JUMPDEST SWAP1 POP PUSH2 0x1105 PUSH32 0x30644E72E131A029B85045B68181585D97816A916871CA8D3C208C16D87CFD47 DUP1 PUSH2 0x10AC JUMPI PUSH2 0x10AB PUSH2 0x20CA JUMP JUMPDEST JUMPDEST PUSH32 0x183227397098D014DC2822DB40C0AC2ECBC0B548B438E5469E10460B6C3E7EA4 PUSH32 0x30644E72E131A029B85045B68181585D97816A916871CA8D3C208C16D87CFD47 DUP1 PUSH2 0x10FC JUMPI PUSH2 0x10FB PUSH2 0x20CA JUMP JUMPDEST JUMPDEST DUP5 DUP9 ADDMOD MULMOD PUSH2 0x19C1 JUMP JUMPDEST ISZERO SWAP2 POP POP PUSH2 0x1114 DUP4 DUP4 DUP4 PUSH2 0x1A2B JUMP JUMPDEST DUP1 SWAP4 POP DUP2 SWAP5 POP POP POP DUP3 DUP8 EQ DUP1 ISZERO PUSH2 0x112A JUMPI POP DUP2 DUP7 EQ JUMPDEST ISZERO PUSH2 0x1152 JUMPI PUSH0 DUP2 PUSH2 0x113B JUMPI PUSH0 PUSH2 0x113E JUMP JUMPDEST PUSH1 0x2 JUMPDEST PUSH1 0xFF AND PUSH1 0x2 DUP12 SWAP1 SHL OR OR SWAP5 POP DUP8 SWAP4 POP PUSH2 0x11CC JUMP JUMPDEST PUSH2 0x115B DUP4 PUSH2 0x1956 JUMP JUMPDEST DUP8 EQ DUP1 ISZERO PUSH2 0x1170 JUMPI POP PUSH2 0x116D DUP3 PUSH2 0x1956 JUMP JUMPDEST DUP7 EQ JUMPDEST ISZERO PUSH2 0x1199 JUMPI PUSH1 0x1 DUP2 PUSH2 0x1182 JUMPI PUSH0 PUSH2 0x1185 JUMP JUMPDEST PUSH1 0x2 JUMPDEST PUSH1 0xFF AND PUSH1 0x2 DUP12 SWAP1 SHL OR OR SWAP5 POP DUP8 SWAP4 POP PUSH2 0x11CB JUMP JUMPDEST PUSH1 0x40 MLOAD PUSH32 0x7FCDD1F400000000000000000000000000000000000000000000000000000000 DUP2 MSTORE PUSH1 0x4 ADD PUSH1 0x40 MLOAD DUP1 SWAP2 SUB SWAP1 REVERT JUMPDEST JUMPDEST POP POP POP JUMPDEST SWAP5 POP SWAP5 SWAP3 POP POP POP JUMP JUMPDEST PUSH0 PUSH0 PUSH0 PUSH1 0x1 SWAP1 POP PUSH1 0x40 MLOAD PUSH1 0x40 DUP2 ADD PUSH0 PUSH32 0x26091E1CAFB0AD8A4EA0A694CD3743EBF524779233DB734C451D28B58AA9758E DUP4 MSTORE PUSH31 0x9FF50A6B8B11C3CA6FDB2690A124F8CE25489FEFA65A3E782E7BA70B66690E PUSH1 0x20 DUP5 ADD MSTORE PUSH32 0x61C3FD0FD3DA25D2607C227D090CCA750ED36C6EC878755E537C1C48951FB4C DUP3 MSTORE PUSH32 0xFA17AE9C2033379DF7B5C65EFF0E107055E9A273E6119A212DD09EB51707219 PUSH1 0x20 DUP4 ADD MSTORE DUP7 CALLDATALOAD SWAP1 POP DUP1 PUSH1 0x40 DUP4 ADD MSTORE PUSH32 0x30644E72E131A029B85045B68181585D2833E84879B9709143E1F593F0000001 DUP2 LT DUP5 AND SWAP4 POP PUSH1 0x40 DUP3 PUSH1 0x60 DUP5 PUSH1 0x7 GAS STATICCALL DUP5 AND SWAP4 POP PUSH1 0x40 DUP4 PUSH1 0x80 DUP6 PUSH1 0x6 GAS STATICCALL DUP5 AND SWAP4 POP PUSH32 0x4EAB241388A79817FE0E0E2EAD0B2EC4FFDEC51A16028DEE020634FD129E71C DUP3 MSTORE PUSH32 0x7236256D21C60D02F0BDBF95CFF83E03EA9E16FCA56B18D5544B0889A65C1F5 PUSH1 0x20 DUP4 ADD MSTORE PUSH1 0x20 DUP8 ADD CALLDATALOAD SWAP1 POP DUP1 PUSH1 0x40 DUP4 ADD MSTORE PUSH32 0x30644E72E131A029B85045B68181585D2833E84879B9709143E1F593F0000001 DUP2 LT DUP5 AND SWAP4 POP PUSH1 0x40 DUP3 PUSH1 0x60 DUP5 PUSH1 0x7 GAS STATICCALL DUP5 AND SWAP4 POP PUSH1 0x40 DUP4 PUSH1 0x80 DUP6 PUSH1 0x6 GAS STATICCALL DUP5 AND SWAP4 POP DUP3 MLOAD SWAP6 POP PUSH1 0x20 DUP4 ADD MLOAD SWAP5 POP POP POP POP DUP1 PUSH2 0x13A4 JUMPI PUSH1 0x40 MLOAD PUSH32 0xA54F8E2700000000000000000000000000000000000000000000000000000000 DUP2 MSTORE PUSH1 0x4 ADD PUSH1 0x40 MLOAD DUP1 SWAP2 SUB SWAP1 REVERT JUMPDEST POP SWAP2 POP SWAP2 JUMP JUMPDEST PUSH0 PUSH0 PUSH0 DUP4 SUB PUSH2 0x13BE JUMPI PUSH0 PUSH0 SWAP2 POP SWAP2 POP PUSH2 0x14DA JUMP JUMPDEST PUSH0 PUSH1 0x1 DUP1 DUP6 AND EQ SWAP1 POP PUSH1 0x1 DUP5 SWAP1 SHR SWAP3 POP PUSH32 0x30644E72E131A029B85045B68181585D97816A916871CA8D3C208C16D87CFD47 DUP4 LT PUSH2 0x1427 JUMPI PUSH1 0x40 MLOAD PUSH32 0x7FCDD1F400000000000000000000000000000000000000000000000000000000 DUP2 MSTORE PUSH1 0x4 ADD PUSH1 0x40 MLOAD DUP1 SWAP2 SUB SWAP1 REVERT JUMPDEST PUSH2 0x14C4 PUSH32 0x30644E72E131A029B85045B68181585D97816A916871CA8D3C208C16D87CFD47 DUP1 PUSH2 0x1459 JUMPI PUSH2 0x1458 PUSH2 0x20CA JUMP JUMPDEST JUMPDEST PUSH1 0x3 PUSH32 0x30644E72E131A029B85045B68181585D97816A916871CA8D3C208C16D87CFD47 DUP1 PUSH2 0x148A JUMPI PUSH2 0x1489 PUSH2 0x20CA JUMP JUMPDEST JUMPDEST DUP7 PUSH32 0x30644E72E131A029B85045B68181585D97816A916871CA8D3C208C16D87CFD47 DUP1 PUSH2 0x14BA JUMPI PUSH2 0x14B9 PUSH2 0x20CA JUMP JUMPDEST JUMPDEST DUP9 DUP10 MULMOD MULMOD ADDMOD PUSH2 0x18BA JUMP JUMPDEST SWAP2 POP DUP1 ISZERO PUSH2 0x14D8 JUMPI PUSH2 0x14D5 DUP3 PUSH2 0x1956 JUMP JUMPDEST SWAP2 POP JUMPDEST POP JUMPDEST SWAP2 POP SWAP2 JUMP JUMPDEST PUSH0 PUSH0 PUSH0 PUSH0 PUSH0 DUP7 EQ DUP1 ISZERO PUSH2 0x14F1 JUMPI POP PUSH0 DUP6 EQ JUMPDEST ISZERO PUSH2 0x1507 JUMPI PUSH0 PUSH0 PUSH0 PUSH0 SWAP4 POP SWAP4 POP SWAP4 POP SWAP4 POP PUSH2 0x18B1 JUMP JUMPDEST PUSH0 PUSH1 0x1 DUP1 DUP9 AND EQ SWAP1 POP PUSH0 PUSH1 0x2 DUP1 DUP10 AND EQ SWAP1 POP PUSH1 0x2 DUP9 SWAP1 SHR SWAP6 POP DUP7 SWAP5 POP PUSH32 0x30644E72E131A029B85045B68181585D97816A916871CA8D3C208C16D87CFD47 DUP7 LT ISZERO DUP1 PUSH2 0x1572 JUMPI POP PUSH32 0x30644E72E131A029B85045B68181585D97816A916871CA8D3C208C16D87CFD47 DUP6 LT ISZERO JUMPDEST ISZERO PUSH2 0x15A9 JUMPI PUSH1 0x40 MLOAD PUSH32 0x7FCDD1F400000000000000000000000000000000000000000000000000000000 DUP2 MSTORE PUSH1 0x4 ADD PUSH1 0x40 MLOAD DUP1 SWAP2 SUB SWAP1 REVERT JUMPDEST PUSH0 PUSH32 0x30644E72E131A029B85045B68181585D97816A916871CA8D3C208C16D87CFD47 DUP1 PUSH2 0x15D9 JUMPI PUSH2 0x15D8 PUSH2 0x20CA JUMP JUMPDEST JUMPDEST PUSH1 0x3 PUSH32 0x30644E72E131A029B85045B68181585D97816A916871CA8D3C208C16D87CFD47 PUSH2 0x1606 SWAP2 SWAP1 PUSH2 0x2124 JUMP JUMPDEST PUSH32 0x30644E72E131A029B85045B68181585D97816A916871CA8D3C208C16D87CFD47 DUP1 PUSH2 0x1635 JUMPI PUSH2 0x1634 PUSH2 0x20CA JUMP JUMPDEST JUMPDEST DUP9 DUP11 MULMOD MULMOD SWAP1 POP PUSH0 PUSH32 0x30644E72E131A029B85045B68181585D97816A916871CA8D3C208C16D87CFD47 DUP1 PUSH2 0x166B JUMPI PUSH2 0x166A PUSH2 0x20CA JUMP JUMPDEST JUMPDEST DUP9 PUSH32 0x30644E72E131A029B85045B68181585D97816A916871CA8D3C208C16D87CFD47 DUP1 PUSH2 0x169B JUMPI PUSH2 0x169A PUSH2 0x20CA JUMP JUMPDEST JUMPDEST DUP11 DUP12 MULMOD MULMOD SWAP1 POP PUSH0 PUSH32 0x30644E72E131A029B85045B68181585D97816A916871CA8D3C208C16D87CFD47 DUP1 PUSH2 0x16D1 JUMPI PUSH2 0x16D0 PUSH2 0x20CA JUMP JUMPDEST JUMPDEST DUP9 PUSH32 0x30644E72E131A029B85045B68181585D97816A916871CA8D3C208C16D87CFD47 DUP1 PUSH2 0x1701 JUMPI PUSH2 0x1700 PUSH2 0x20CA JUMP JUMPDEST JUMPDEST DUP11 DUP12 MULMOD MULMOD SWAP1 POP PUSH32 0x30644E72E131A029B85045B68181585D97816A916871CA8D3C208C16D87CFD47 DUP1 PUSH2 0x1736 JUMPI PUSH2 0x1735 PUSH2 0x20CA JUMP JUMPDEST JUMPDEST PUSH32 0x30644E72E131A029B85045B68181585D97816A916871CA8D3C208C16D87CFD47 DUP1 PUSH2 0x1765 JUMPI PUSH2 0x1764 PUSH2 0x20CA JUMP JUMPDEST JUMPDEST PUSH32 0x30644E72E131A029B85045B68181585D97816A916871CA8D3C208C16D87CFD47 DUP1 PUSH2 0x1794 JUMPI PUSH2 0x1793 PUSH2 0x20CA JUMP JUMPDEST JUMPDEST DUP11 DUP7 MULMOD DUP5 ADDMOD PUSH32 0x2B149D40CEB8AAAE81BE18991BE06AC3B5B4C5E559DBEFA33267E6DC24A138E5 ADDMOD SWAP7 POP PUSH2 0x1879 PUSH32 0x30644E72E131A029B85045B68181585D97816A916871CA8D3C208C16D87CFD47 DUP1 PUSH2 0x17EF JUMPI PUSH2 0x17EE PUSH2 0x20CA JUMP JUMPDEST JUMPDEST PUSH32 0x30644E72E131A029B85045B68181585D97816A916871CA8D3C208C16D87CFD47 DUP1 PUSH2 0x181E JUMPI PUSH2 0x181D PUSH2 0x20CA JUMP JUMPDEST JUMPDEST PUSH32 0x30644E72E131A029B85045B68181585D97816A916871CA8D3C208C16D87CFD47 DUP1 PUSH2 0x184D JUMPI PUSH2 0x184C PUSH2 0x20CA JUMP JUMPDEST JUMPDEST DUP13 DUP8 MULMOD DUP5 ADDMOD PUSH32 0x2FCD3AC2A640A154EB23960892A85A68F031CA0C8344B23A577DCF1052B9E775 ADDMOD PUSH2 0x1956 JUMP JUMPDEST SWAP6 POP PUSH2 0x1886 DUP8 DUP8 DUP7 PUSH2 0x1A2B JUMP JUMPDEST DUP1 SWAP8 POP DUP2 SWAP9 POP POP POP DUP5 ISZERO PUSH2 0x18AB JUMPI PUSH2 0x189D DUP8 PUSH2 0x1956 JUMP JUMPDEST SWAP7 POP PUSH2 0x18A8 DUP7 PUSH2 0x1956 JUMP JUMPDEST SWAP6 POP JUMPDEST POP POP POP POP POP JUMPDEST SWAP3 SWAP6 SWAP2 SWAP5 POP SWAP3 POP JUMP JUMPDEST PUSH0 PUSH2 0x18E5 DUP3 PUSH32 0xC19139CB84C680A6E14116DA060561765E05AA45A1C72A34F082305B61F3F52 PUSH2 0x1D26 JUMP JUMPDEST SWAP1 POP DUP2 PUSH32 0x30644E72E131A029B85045B68181585D97816A916871CA8D3C208C16D87CFD47 DUP1 PUSH2 0x1917 JUMPI PUSH2 0x1916 PUSH2 0x20CA JUMP JUMPDEST JUMPDEST DUP3 DUP4 MULMOD EQ PUSH2 0x1951 JUMPI PUSH1 0x40 MLOAD PUSH32 0x7FCDD1F400000000000000000000000000000000000000000000000000000000 DUP2 MSTORE PUSH1 0x4 ADD PUSH1 0x40 MLOAD DUP1 SWAP2 SUB SWAP1 REVERT JUMPDEST SWAP2 SWAP1 POP JUMP JUMPDEST PUSH0 PUSH32 0x30644E72E131A029B85045B68181585D97816A916871CA8D3C208C16D87CFD47 DUP1 DUP4 DUP2 PUSH2 0x1988 JUMPI PUSH2 0x1987 PUSH2 0x20CA JUMP JUMPDEST JUMPDEST MOD PUSH32 0x30644E72E131A029B85045B68181585D97816A916871CA8D3C208C16D87CFD47 SUB DUP2 PUSH2 0x19B9 JUMPI PUSH2 0x19B8 PUSH2 0x20CA JUMP JUMPDEST JUMPDEST MOD SWAP1 POP SWAP2 SWAP1 POP JUMP JUMPDEST PUSH0 PUSH0 PUSH2 0x19ED DUP4 PUSH32 0xC19139CB84C680A6E14116DA060561765E05AA45A1C72A34F082305B61F3F52 PUSH2 0x1D26 JUMP JUMPDEST SWAP1 POP DUP3 PUSH32 0x30644E72E131A029B85045B68181585D97816A916871CA8D3C208C16D87CFD47 DUP1 PUSH2 0x1A1F JUMPI PUSH2 0x1A1E PUSH2 0x20CA JUMP JUMPDEST JUMPDEST DUP3 DUP4 MULMOD EQ SWAP2 POP POP SWAP2 SWAP1 POP JUMP JUMPDEST PUSH0 PUSH0 PUSH0 PUSH2 0x1ACA PUSH32 0x30644E72E131A029B85045B68181585D97816A916871CA8D3C208C16D87CFD47 DUP1 PUSH2 0x1A60 JUMPI PUSH2 0x1A5F PUSH2 0x20CA JUMP JUMPDEST JUMPDEST PUSH32 0x30644E72E131A029B85045B68181585D97816A916871CA8D3C208C16D87CFD47 DUP1 PUSH2 0x1A8F JUMPI PUSH2 0x1A8E PUSH2 0x20CA JUMP JUMPDEST JUMPDEST DUP8 DUP9 MULMOD PUSH32 0x30644E72E131A029B85045B68181585D97816A916871CA8D3C208C16D87CFD47 DUP1 PUSH2 0x1AC1 JUMPI PUSH2 0x1AC0 PUSH2 0x20CA JUMP JUMPDEST JUMPDEST DUP10 DUP11 MULMOD ADDMOD PUSH2 0x18BA JUMP JUMPDEST SWAP1 POP DUP4 ISZERO PUSH2 0x1ADE JUMPI PUSH2 0x1ADB DUP2 PUSH2 0x1956 JUMP JUMPDEST SWAP1 POP JUMPDEST PUSH2 0x1B69 PUSH32 0x30644E72E131A029B85045B68181585D97816A916871CA8D3C208C16D87CFD47 DUP1 PUSH2 0x1B10 JUMPI PUSH2 0x1B0F PUSH2 0x20CA JUMP JUMPDEST JUMPDEST PUSH32 0x183227397098D014DC2822DB40C0AC2ECBC0B548B438E5469E10460B6C3E7EA4 PUSH32 0x30644E72E131A029B85045B68181585D97816A916871CA8D3C208C16D87CFD47 DUP1 PUSH2 0x1B60 JUMPI PUSH2 0x1B5F PUSH2 0x20CA JUMP JUMPDEST JUMPDEST DUP5 DUP11 ADDMOD MULMOD PUSH2 0x18BA JUMP JUMPDEST SWAP3 POP PUSH32 0x30644E72E131A029B85045B68181585D97816A916871CA8D3C208C16D87CFD47 DUP1 PUSH2 0x1B9A JUMPI PUSH2 0x1B99 PUSH2 0x20CA JUMP JUMPDEST JUMPDEST PUSH2 0x1BD5 PUSH32 0x30644E72E131A029B85045B68181585D97816A916871CA8D3C208C16D87CFD47 DUP1 PUSH2 0x1BCC JUMPI PUSH2 0x1BCB PUSH2 0x20CA JUMP JUMPDEST JUMPDEST PUSH1 0x2 DUP7 MULMOD PUSH2 0x1DBD JUMP JUMPDEST DUP7 MULMOD SWAP2 POP PUSH32 0x30644E72E131A029B85045B68181585D97816A916871CA8D3C208C16D87CFD47 DUP1 PUSH2 0x1C08 JUMPI PUSH2 0x1C07 PUSH2 0x20CA JUMP JUMPDEST JUMPDEST PUSH2 0x1C42 PUSH32 0x30644E72E131A029B85045B68181585D97816A916871CA8D3C208C16D87CFD47 DUP1 PUSH2 0x1C3A JUMPI PUSH2 0x1C39 PUSH2 0x20CA JUMP JUMPDEST JUMPDEST DUP5 DUP6 MULMOD PUSH2 0x1956 JUMP JUMPDEST PUSH32 0x30644E72E131A029B85045B68181585D97816A916871CA8D3C208C16D87CFD47 DUP1 PUSH2 0x1C71 JUMPI PUSH2 0x1C70 PUSH2 0x20CA JUMP JUMPDEST JUMPDEST DUP6 DUP7 MULMOD ADDMOD DUP7 EQ ISZERO DUP1 PUSH2 0x1CE6 JUMPI POP PUSH32 0x30644E72E131A029B85045B68181585D97816A916871CA8D3C208C16D87CFD47 DUP1 PUSH2 0x1CAD JUMPI PUSH2 0x1CAC PUSH2 0x20CA JUMP JUMPDEST JUMPDEST PUSH32 0x30644E72E131A029B85045B68181585D97816A916871CA8D3C208C16D87CFD47 DUP1 PUSH2 0x1CDC JUMPI PUSH2 0x1CDB PUSH2 0x20CA JUMP JUMPDEST JUMPDEST DUP4 DUP6 MULMOD PUSH1 0x2 MULMOD DUP6 EQ ISZERO JUMPDEST ISZERO PUSH2 0x1D1D JUMPI PUSH1 0x40 MLOAD PUSH32 0x7FCDD1F400000000000000000000000000000000000000000000000000000000 DUP2 MSTORE PUSH1 0x4 ADD PUSH1 0x40 MLOAD DUP1 SWAP2 SUB SWAP1 REVERT JUMPDEST POP SWAP4 POP SWAP4 SWAP2 POP POP JUMP JUMPDEST PUSH0 PUSH0 PUSH1 0x40 MLOAD PUSH1 0x20 DUP2 MSTORE PUSH1 0x20 DUP1 DUP3 ADD MSTORE PUSH1 0x20 PUSH1 0x40 DUP3 ADD MSTORE DUP5 PUSH1 0x60 DUP3 ADD MSTORE DUP4 PUSH1 0x80 DUP3 ADD MSTORE PUSH32 0x30644E72E131A029B85045B68181585D97816A916871CA8D3C208C16D87CFD47 PUSH1 0xA0 DUP3 ADD MSTORE PUSH1 0x20 DUP2 PUSH1 0xC0 DUP4 PUSH1 0x5 GAS STATICCALL SWAP2 POP DUP1 MLOAD SWAP3 POP POP DUP1 PUSH2 0x1DB6 JUMPI PUSH1 0x40 MLOAD PUSH32 0x7FCDD1F400000000000000000000000000000000000000000000000000000000 DUP2 MSTORE PUSH1 0x4 ADD PUSH1 0x40 MLOAD DUP1 SWAP2 SUB SWAP1 REVERT JUMPDEST POP SWAP3 SWAP2 POP POP JUMP JUMPDEST PUSH0 PUSH2 0x1DE8 DUP3 PUSH32 0x30644E72E131A029B85045B68181585D97816A916871CA8D3C208C16D87CFD45 PUSH2 0x1D26 JUMP JUMPDEST SWAP1 POP PUSH1 0x1 PUSH32 0x30644E72E131A029B85045B68181585D97816A916871CA8D3C208C16D87CFD47 DUP1 PUSH2 0x1E1B JUMPI PUSH2 0x1E1A PUSH2 0x20CA JUMP JUMPDEST JUMPDEST DUP3 DUP5 MULMOD EQ PUSH2 0x1E55 JUMPI PUSH1 0x40 MLOAD PUSH32 0x7FCDD1F400000000000000000000000000000000000000000000000000000000 DUP2 MSTORE PUSH1 0x4 ADD PUSH1 0x40 MLOAD DUP1 SWAP2 SUB SWAP1 REVERT JUMPDEST SWAP2 SWAP1 POP JUMP JUMPDEST PUSH1 0x40 MLOAD DUP1 PUSH1 0x80 ADD PUSH1 0x40 MSTORE DUP1 PUSH1 0x4 SWAP1 PUSH1 0x20 DUP3 MUL DUP1 CALLDATASIZE DUP4 CALLDATACOPY DUP1 DUP3 ADD SWAP2 POP POP SWAP1 POP POP SWAP1 JUMP JUMPDEST PUSH1 0x40 MLOAD DUP1 PUSH2 0x300 ADD PUSH1 0x40 MSTORE DUP1 PUSH1 0x18 SWAP1 PUSH1 0x20 DUP3 MUL DUP1 CALLDATASIZE DUP4 CALLDATACOPY DUP1 DUP3 ADD SWAP2 POP POP SWAP1 POP POP SWAP1 JUMP JUMPDEST PUSH1 0x40 MLOAD DUP1 PUSH1 0x20 ADD PUSH1 0x40 MSTORE DUP1 PUSH1 0x1 SWAP1 PUSH1 0x20 DUP3 MUL DUP1 CALLDATASIZE DUP4 CALLDATACOPY DUP1 DUP3 ADD SWAP2 POP POP SWAP1 POP POP SWAP1 JUMP JUMPDEST PUSH0 PUSH0 REVERT JUMPDEST PUSH0 PUSH0 REVERT JUMPDEST PUSH0 DUP2 SWAP1 POP DUP3 PUSH1 0x20 PUSH1 0x8 MUL DUP3 ADD GT ISZERO PUSH2 0x1EE4 JUMPI PUSH2 0x1EE3 PUSH2 0x1EC5 JUMP JUMPDEST JUMPDEST SWAP3 SWAP2 POP POP JUMP JUMPDEST PUSH0 PUSH2 0x100 DUP3 DUP5 SUB SLT ISZERO PUSH2 0x1F00 JUMPI PUSH2 0x1EFF PUSH2 0x1EC1 JUMP JUMPDEST JUMPDEST PUSH0 PUSH2 0x1F0D DUP5 DUP3 DUP6 ADD PUSH2 0x1EC9 JUMP JUMPDEST SWAP2 POP POP SWAP3 SWAP2 POP POP JUMP JUMPDEST PUSH0 PUSH1 0x4 SWAP1 POP SWAP2 SWAP1 POP JUMP JUMPDEST PUSH0 DUP2 SWAP1 POP SWAP3 SWAP2 POP POP JUMP JUMPDEST PUSH0 DUP2 SWAP1 POP SWAP2 SWAP1 POP JUMP JUMPDEST PUSH0 DUP2 SWAP1 POP SWAP2 SWAP1 POP JUMP JUMPDEST PUSH2 0x1F45 DUP2 PUSH2 0x1F33 JUMP JUMPDEST DUP3 MSTORE POP POP JUMP JUMPDEST PUSH0 PUSH2 0x1F56 DUP4 DUP4 PUSH2 0x1F3C JUMP JUMPDEST PUSH1 0x20 DUP4 ADD SWAP1 POP SWAP3 SWAP2 POP POP JUMP JUMPDEST PUSH0 PUSH1 0x20 DUP3 ADD SWAP1 POP SWAP2 SWAP1 POP JUMP JUMPDEST PUSH2 0x1F77 DUP2 PUSH2 0x1F16 JUMP JUMPDEST PUSH2 0x1F81 DUP2 DUP5 PUSH2 0x1F20 JUMP JUMPDEST SWAP3 POP PUSH2 0x1F8C DUP3 PUSH2 0x1F2A JUMP JUMPDEST DUP1 PUSH0 JUMPDEST DUP4 DUP2 LT ISZERO PUSH2 0x1FBC JUMPI DUP2 MLOAD PUSH2 0x1FA3 DUP8 DUP3 PUSH2 0x1F4B JUMP JUMPDEST SWAP7 POP PUSH2 0x1FAE DUP4 PUSH2 0x1F62 JUMP JUMPDEST SWAP3 POP POP PUSH1 0x1 DUP2 ADD SWAP1 POP PUSH2 0x1F8F JUMP JUMPDEST POP POP POP POP POP POP JUMP JUMPDEST PUSH0 PUSH1 0x80 DUP3 ADD SWAP1 POP PUSH2 0x1FD7 PUSH0 DUP4 ADD DUP5 PUSH2 0x1F6E JUMP JUMPDEST SWAP3 SWAP2 POP POP JUMP JUMPDEST PUSH0 DUP2 SWAP1 POP DUP3 PUSH1 0x20 PUSH1 0x2 MUL DUP3 ADD GT ISZERO PUSH2 0x1FF8 JUMPI PUSH2 0x1FF7 PUSH2 0x1EC5 JUMP JUMPDEST JUMPDEST SWAP3 SWAP2 POP POP JUMP JUMPDEST PUSH0 PUSH0 PUSH2 0x140 DUP4 DUP6 SUB SLT ISZERO PUSH2 0x2015 JUMPI PUSH2 0x2014 PUSH2 0x1EC1 JUMP JUMPDEST JUMPDEST PUSH0 PUSH2 0x2022 DUP6 DUP3 DUP7 ADD PUSH2 0x1EC9 JUMP JUMPDEST SWAP3 POP POP PUSH2 0x100 PUSH2 0x2034 DUP6 DUP3 DUP7 ADD PUSH2 0x1FDD JUMP JUMPDEST SWAP2 POP POP SWAP3 POP SWAP3 SWAP1 POP JUMP JUMPDEST PUSH0 DUP2 SWAP1 POP DUP3 PUSH1 0x20 PUSH1 0x4 MUL DUP3 ADD GT ISZERO PUSH2 0x2059 JUMPI PUSH2 0x2058 PUSH2 0x1EC5 JUMP JUMPDEST JUMPDEST SWAP3 SWAP2 POP POP JUMP JUMPDEST PUSH0 PUSH0 PUSH1 0xC0 DUP4 DUP6 SUB SLT ISZERO PUSH2 0x2075 JUMPI PUSH2 0x2074 PUSH2 0x1EC1 JUMP JUMPDEST JUMPDEST PUSH0 PUSH2 0x2082 DUP6 DUP3 DUP7 ADD PUSH2 0x203E JUMP JUMPDEST SWAP3 POP POP PUSH1 0x80 PUSH2 0x2093 DUP6 DUP3 DUP7 ADD PUSH2 0x1FDD JUMP JUMPDEST SWAP2 POP POP SWAP3 POP SWAP3 SWAP1 POP JUMP JUMPDEST PUSH32 0x4E487B7100000000000000000000000000000000000000000000000000000000 PUSH0 MSTORE PUSH1 0x32 PUSH1 0x4 MSTORE PUSH1 0x24 PUSH0 REVERT JUMPDEST PUSH32 0x4E487B7100000000000000000000000000000000000000000000000000000000 PUSH0 MSTORE PUSH1 0x12 PUSH1 0x4 MSTORE PUSH1 0x24 PUSH0 REVERT JUMPDEST PUSH32 0x4E487B7100000000000000000000000000000000000000000000000000000000 PUSH0 MSTORE PUSH1 0x11 PUSH1 0x4 MSTORE PUSH1 0x24 PUSH0 REVERT JUMPDEST PUSH0 PUSH2 0x212E DUP3 PUSH2 0x1F33 JUMP JUMPDEST SWAP2 POP PUSH2 0x2139 DUP4 PUSH2 0x1F33 JUMP JUMPDEST SWAP3 POP DUP3 DUP3 SUB SWAP1 POP DUP2 DUP2 GT ISZERO PUSH2 0x2151 JUMPI PUSH2 0x2150 PUSH2 0x20F7 JUMP JUMPDEST JUMPDEST SWAP3 SWAP2 POP POP JUMP INVALID LOG2 PUSH5 0x6970667358 0x22 SLT KECCAK256 DUPN 0xE8 0xD6 0xB9 PUSH32 0x7D35A065F3F8EF233D7F33184AB1AD3D45A6089C71876F8C033B8264736F6C63 NUMBER STOP ADDMOD 0x1E STOP CALLER "
				},
				"gasEstimates": {
					"creation": {
						"codeDepositCost": "1717800",
						"executionCost": "1804",
						"totalCost": "1719604"
					},
					"external": {
						"Verify(uint256[8],uint256[2])": "infinite",
						"compressProof(uint256[8])": "infinite",
						"verifyCompressedProof(uint256[4],uint256[2])": "infinite"
					},
					"internal": {
						"compress_g1(uint256,uint256)": "infinite",
						"compress_g2(uint256,uint256,uint256,uint256)": "infinite",
						"decompress_g1(uint256)": "infinite",
						"decompress_g2(uint256,uint256)": "infinite",
						"exp(uint256,uint256)": "infinite",
						"invert_Fp(uint256)": "infinite",
						"isSquare_Fp(uint256)": "infinite",
						"negate(uint256)": "83",
						"publicInputMSM(uint256[2] calldata)": "infinite",
						"sqrt_Fp(uint256)": "infinite",
						"sqrt_Fp2(uint256,uint256,bool)": "infinite"
					}
				},
				"methodIdentifiers": {
					"Verify(uint256[8],uint256[2])": "eddf243c",
					"compressProof(uint256[8])": "44f63692",
					"verifyCompressedProof(uint256[4],uint256[2])": "f11817b2"
				}
			},
			"storageLayout": {
				"storage": [],
				"types": null
			},
			"userdoc": {
				"errors": {
					"ProofInvalid()": [
						{
							"notice": "The proof is invalid."
						}
					],
					"PublicInputNotInField()": [
						{
							"notice": "Some of the provided public input values are larger than the field modulus."
						}
					]
				},
				"kind": "user",
				"methods": {
					"Verify(uint256[8],uint256[2])": {
						"notice": "Verify an uncompressed Groth16 proof.Reverts with InvalidProof if the proof is invalid or with PublicInputNotInField the public input is not reduced.There is no return value. If the function does not revert, the proof was successfully verified."
					},
					"compressProof(uint256[8])": {
						"notice": "Compress a proof.Will revert with InvalidProof if the curve points are invalid, but does not verify the proof itself."
					},
					"verifyCompressedProof(uint256[4],uint256[2])": {
						"notice": "Verify a Groth16 proof with compressed points.Reverts with InvalidProof if the proof is invalid or with PublicInputNotInField the public input is not reduced.There is no return value. If the function does not revert, the proof was successfully verified."
					}
				},
				"notice": "Supports verifying Groth16 proofs. Proofs can be in uncompressed (256 bytes) and compressed (128 bytes) format. A view function is provided to compress proofs.See <https://2π.com/23/bn254-compression> for further explanation.",
				"version": 1
			}
		}
	}
}