{
	"data": {
		"bytecode": {
			"linkReferences": {},
			"object": "6080604052348015600e575f5ffd5b5061218d8061001c5f395ff3fe608060405234801561000f575f5ffd5b506004361061003f575f3560e01c806344f6369214610043578063eddf243c14610073578063f11817b21461008f575b5f5ffd5b61005d60048036038101906100589190611eea565b6100ab565b60405161006a9190611fc4565b60405180910390f35b61008d60048036038101906100889190611ffe565b61020a565b005b6100a960048036038101906100a4919061205f565b6104a4565b005b6100b3611e5a565b6100ec825f600881106100c9576100c861209d565b5b6020020135836001600881106100e2576100e161209d565b5b6020020135610a5f565b815f600481106100ff576100fe61209d565b5b6020020181815250506101748260036008811061011f5761011e61209d565b5b6020020135836002600881106101385761013761209d565b5b6020020135846005600881106101515761015061209d565b5b60200201358560046008811061016a5761016961209d565b5b6020020135610c0d565b826002600481106101885761018761209d565b5b60200201836001600481106101a05761019f61209d565b5b60200201828152508281525050506101e8826006600881106101c5576101c461209d565b5b6020020135836007600881106101de576101dd61209d565b5b6020020135610a5f565b816003600481106101fc576101fb61209d565b5b602002018181525050919050565b5f5f610215836111d9565b915091505f6040516101008682377f1cc7cb8de715675f21f01ecc9b46d236e0865e0cc020024521998269845f74e66101008201527f03ff41f4ba0c37fe2caf27354d28e4b8f83d3b76777a63b327d736bffb0122ed6101208201527f01909cd7827e0278e6b60843a4abc7b111d7f8b2725cd5902a6b20da7a2938fb6101408201527f192bd3274441670227b4f69a44005b8711266e474227c6439ca25ca8e1ec1fc26101608201527f2d4d9aa7e302d9df41749d5507949d05dbea33fbb16c643b22f599a2be6df2e26101808201527f14bedd503c37ceb061d8ec60209fe345ce89830a19230301f076caff004d19266101a08201527f0967032fcbf776d1afc985f88877f182d38480a653f2decaa9794cbc3bf3060c6101c08201527f0e187847ad4c798374d0d6732bf501847dd68bc0e071241e0213bc7fc13db7ab6101e08201527e1752a100a72fdf1e5a5d6ea841cc20ec838bccfcf7bd559e79f1c9c759b6a06102008201527f192a8cc13cd9f762871f21e43451c6ca9eeab2cb2987c4e366a185c25dac2e7f61022082015283610240820152826102608201527f198e9393920d483a7260bfb731fb5d25f1aa493335a9e71297e485b7aef312c26102808201527f1800deef121f1e76426a00665e5c4479674322d4f75edadd46debd5cd992f6ed6102a08201527f275dc4a288d1afb3cbb1ac09187524c7db36395df7be3b99e673b13a075a65ec6102c08201527f1d9befcd05a5323e6da4d435f3b617cdb3af83285c2df711ef39c01571827f9d6102e08201526020816103008360085afa9150805182169150508061049d576040517f7fcdd1f400000000000000000000000000000000000000000000000000000000815260040160405180910390fd5b5050505050565b6104ac611e7c565b5f5f6104ce855f600481106104c4576104c361209d565b5b60200201356113aa565b915091505f5f5f5f610510896002600481106104ed576104ec61209d565b5b60200201358a6001600481106105065761050561209d565b5b60200201356114df565b93509350935093505f5f61053b8b6003600481106105315761053061209d565b5b60200201356113aa565b915091505f5f61054a8c6111d9565b91509150898b5f601881106105625761056161209d565b5b602002018181525050888b6001601881106105805761057f61209d565b5b602002018181525050868b60026018811061059e5761059d61209d565b5b602002018181525050878b6003601881106105bc576105bb61209d565b5b602002018181525050848b6004601881106105da576105d961209d565b5b602002018181525050858b6005601881106105f8576105f761209d565b5b602002018181525050838b6006601881106106165761061561209d565b5b602002018181525050828b6007601881106106345761063361209d565b5b6020020181815250507f1cc7cb8de715675f21f01ecc9b46d236e0865e0cc020024521998269845f74e68b6008601881106106725761067161209d565b5b6020020181815250507f03ff41f4ba0c37fe2caf27354d28e4b8f83d3b76777a63b327d736bffb0122ed8b6009601881106106b0576106af61209d565b5b6020020181815250507f01909cd7827e0278e6b60843a4abc7b111d7f8b2725cd5902a6b20da7a2938fb8b600a601881106106ee576106ed61209d565b5b6020020181815250507f192bd3274441670227b4f69a44005b8711266e474227c6439ca25ca8e1ec1fc28b600b6018811061072c5761072b61209d565b5b6020020181815250507f2d4d9aa7e302d9df41749d5507949d05dbea33fbb16c643b22f599a2be6df2e28b600c6018811061076a5761076961209d565b5b6020020181815250507f14bedd503c37ceb061d8ec60209fe345ce89830a19230301f076caff004d19268b600d601881106107a8576107a761209d565b5b6020020181815250507f0967032fcbf776d1afc985f88877f182d38480a653f2decaa9794cbc3bf3060c8b600e601881106107e6576107e561209d565b5b6020020181815250507f0e187847ad4c798374d0d6732bf501847dd68bc0e071241e0213bc7fc13db7ab8b600f601881106108245761082361209d565b5b6020020181815250507e1752a100a72fdf1e5a5d6ea841cc20ec838bccfcf7bd559e79f1c9c759b6a08b6010601881106108615761086061209d565b5b6020020181815250507f192a8cc13cd9f762871f21e43451c6ca9eeab2cb2987c4e366a185c25dac2e7f8b60116018811061089f5761089e61209d565b5b602002018181525050818b6012601881106108bd576108bc61209d565b5b602002018181525050808b6013601881106108db576108da61209d565b5b6020020181815250507f198e9393920d483a7260bfb731fb5d25f1aa493335a9e71297e485b7aef312c28b6014601881106109195761091861209d565b5b6020020181815250507f1800deef121f1e76426a00665e5c4479674322d4f75edadd46debd5cd992f6ed8b6015601881106109575761095661209d565b5b6020020181815250507f275dc4a288d1afb3cbb1ac09187524c7db36395df7be3b99e673b13a075a65ec8b6016601881106109955761099461209d565b5b6020020181815250507f1d9befcd05a5323e6da4d435f3b617cdb3af83285c2df711ef39c01571827f9d8b6017601881106109d3576109d261209d565b5b6020020181815250505f6109e5611e9f565b6020816103008f60085afa9150811580610a1757506001815f60018110610a0f57610a0e61209d565b5b602002015114155b15610a4e576040517f7fcdd1f400000000000000000000000000000000000000000000000000000000815260040160405180910390fd5b505050505050505050505050505050565b5f7f30644e72e131a029b85045b68181585d97816a916871ca8d3c208c16d87cfd4783101580610aaf57507f30644e72e131a029b85045b68181585d97816a916871ca8d3c208c16d87cfd478210155b15610ae6576040517f7fcdd1f400000000000000000000000000000000000000000000000000000000815260040160405180910390fd5b5f83148015610af457505f82145b15610b01575f9050610c07565b5f610b9f7f30644e72e131a029b85045b68181585d97816a916871ca8d3c208c16d87cfd4780610b3457610b336120ca565b5b60037f30644e72e131a029b85045b68181585d97816a916871ca8d3c208c16d87cfd4780610b6557610b646120ca565b5b877f30644e72e131a029b85045b68181585d97816a916871ca8d3c208c16d87cfd4780610b9557610b946120ca565b5b898a0909086118ba565b9050808303610bb7575f600185901b17915050610c07565b610bc081611956565b8303610bd55760018085901b17915050610c07565b6040517f7fcdd1f400000000000000000000000000000000000000000000000000000000815260040160405180910390fd5b92915050565b5f5f7f30644e72e131a029b85045b68181585d97816a916871ca8d3c208c16d87cfd4786101580610c5e57507f30644e72e131a029b85045b68181585d97816a916871ca8d3c208c16d87cfd478510155b80610c8957507f30644e72e131a029b85045b68181585d97816a916871ca8d3c208c16d87cfd478410155b80610cb457507f30644e72e131a029b85045b68181585d97816a916871ca8d3c208c16d87cfd478310155b15610ceb576040517f7fcdd1f400000000000000000000000000000000000000000000000000000000815260040160405180910390fd5b5f8385878917171703610d03575f5f915091506111d0565b5f5f5f7f30644e72e131a029b85045b68181585d97816a916871ca8d3c208c16d87cfd4780610d3557610d346120ca565b5b60037f30644e72e131a029b85045b68181585d97816a916871ca8d3c208c16d87cfd47610d629190612124565b7f30644e72e131a029b85045b68181585d97816a916871ca8d3c208c16d87cfd4780610d9157610d906120ca565b5b8a8c090990505f7f30644e72e131a029b85045b68181585d97816a916871ca8d3c208c16d87cfd4780610dc757610dc66120ca565b5b8a7f30644e72e131a029b85045b68181585d97816a916871ca8d3c208c16d87cfd4780610df757610df66120ca565b5b8c8d090990505f7f30644e72e131a029b85045b68181585d97816a916871ca8d3c208c16d87cfd4780610e2d57610e2c6120ca565b5b8a7f30644e72e131a029b85045b68181585d97816a916871ca8d3c208c16d87cfd4780610e5d57610e5c6120ca565b5b8c8d090990507f30644e72e131a029b85045b68181585d97816a916871ca8d3c208c16d87cfd4780610e9257610e916120ca565b5b7f30644e72e131a029b85045b68181585d97816a916871ca8d3c208c16d87cfd4780610ec157610ec06120ca565b5b7f30644e72e131a029b85045b68181585d97816a916871ca8d3c208c16d87cfd4780610ef057610eef6120ca565b5b8c860984087f2b149d40ceb8aaae81be18991be06ac3b5b4c5e559dbefa33267e6dc24a138e5089450610fd57f30644e72e131a029b85045b68181585d97816a916871ca8d3c208c16d87cfd4780610f4b57610f4a6120ca565b5b7f30644e72e131a029b85045b68181585d97816a916871ca8d3c208c16d87cfd4780610f7a57610f796120ca565b5b7f30644e72e131a029b85045b68181585d97816a916871ca8d3c208c16d87cfd4780610fa957610fa86120ca565b5b8e870984087f2fcd3ac2a640a154eb23960892a85a68f031ca0c8344b23a577dcf1052b9e77508611956565b93505050505f5f6110787f30644e72e131a029b85045b68181585d97816a916871ca8d3c208c16d87cfd478061100e5761100d6120ca565b5b7f30644e72e131a029b85045b68181585d97816a916871ca8d3c208c16d87cfd478061103d5761103c6120ca565b5b8586097f30644e72e131a029b85045b68181585d97816a916871ca8d3c208c16d87cfd478061106f5761106e6120ca565b5b878809086118ba565b90506111057f30644e72e131a029b85045b68181585d97816a916871ca8d3c208c16d87cfd47806110ac576110ab6120ca565b5b7f183227397098d014dc2822db40c0ac2ecbc0b548b438e5469e10460b6c3e7ea47f30644e72e131a029b85045b68181585d97816a916871ca8d3c208c16d87cfd47806110fc576110fb6120ca565b5b848808096119c1565b15915050611114838383611a2b565b8093508194505050828714801561112a57508186145b15611152575f8161113b575f61113e565b60025b60ff1660028b901b171794508793506111cc565b61115b83611956565b87148015611170575061116d82611956565b86145b1561119957600181611182575f611185565b60025b60ff1660028b901b171794508793506111cb565b6040517f7fcdd1f400000000000000000000000000000000000000000000000000000000815260040160405180910390fd5b5b5050505b94509492505050565b5f5f5f60019050604051604081015f7f26091e1cafb0ad8a4ea0a694cd3743ebf524779233db734c451d28b58aa9758e83527e9ff50a6b8b11c3ca6fdb2690a124f8ce25489fefa65a3e782e7ba70b66690e60208401527f061c3fd0fd3da25d2607c227d090cca750ed36c6ec878755e537c1c48951fb4c82527f0fa17ae9c2033379df7b5c65eff0e107055e9a273e6119a212dd09eb517072196020830152863590508060408301527f30644e72e131a029b85045b68181585d2833e84879b9709143e1f593f000000181108416935060408260608460075afa8416935060408360808560065afa841693507f04eab241388a79817fe0e0e2ead0b2ec4ffdec51a16028dee020634fd129e71c82527f07236256d21c60d02f0bdbf95cff83e03ea9e16fca56b18d5544b0889a65c1f56020830152602087013590508060408301527f30644e72e131a029b85045b68181585d2833e84879b9709143e1f593f000000181108416935060408260608460075afa8416935060408360808560065afa841693508251955060208301519450505050806113a4576040517fa54f8e2700000000000000000000000000000000000000000000000000000000815260040160405180910390fd5b50915091565b5f5f5f83036113be575f5f915091506114da565b5f6001808516149050600184901c92507f30644e72e131a029b85045b68181585d97816a916871ca8d3c208c16d87cfd478310611427576040517f7fcdd1f400000000000000000000000000000000000000000000000000000000815260040160405180910390fd5b6114c47f30644e72e131a029b85045b68181585d97816a916871ca8d3c208c16d87cfd4780611459576114586120ca565b5b60037f30644e72e131a029b85045b68181585d97816a916871ca8d3c208c16d87cfd478061148a576114896120ca565b5b867f30644e72e131a029b85045b68181585d97816a916871ca8d3c208c16d87cfd47806114ba576114b96120ca565b5b88890909086118ba565b915080156114d8576114d582611956565b91505b505b915091565b5f5f5f5f5f861480156114f157505f85145b15611507575f5f5f5f93509350935093506118b1565b5f60018088161490505f6002808916149050600288901c95508694507f30644e72e131a029b85045b68181585d97816a916871ca8d3c208c16d87cfd478610158061157257507f30644e72e131a029b85045b68181585d97816a916871ca8d3c208c16d87cfd478510155b156115a9576040517f7fcdd1f400000000000000000000000000000000000000000000000000000000815260040160405180910390fd5b5f7f30644e72e131a029b85045b68181585d97816a916871ca8d3c208c16d87cfd47806115d9576115d86120ca565b5b60037f30644e72e131a029b85045b68181585d97816a916871ca8d3c208c16d87cfd476116069190612124565b7f30644e72e131a029b85045b68181585d97816a916871ca8d3c208c16d87cfd4780611635576116346120ca565b5b888a090990505f7f30644e72e131a029b85045b68181585d97816a916871ca8d3c208c16d87cfd478061166b5761166a6120ca565b5b887f30644e72e131a029b85045b68181585d97816a916871ca8d3c208c16d87cfd478061169b5761169a6120ca565b5b8a8b090990505f7f30644e72e131a029b85045b68181585d97816a916871ca8d3c208c16d87cfd47806116d1576116d06120ca565b5b887f30644e72e131a029b85045b68181585d97816a916871ca8d3c208c16d87cfd4780611701576117006120ca565b5b8a8b090990507f30644e72e131a029b85045b68181585d97816a916871ca8d3c208c16d87cfd4780611736576117356120ca565b5b7f30644e72e131a029b85045b68181585d97816a916871ca8d3c208c16d87cfd4780611765576117646120ca565b5b7f30644e72e131a029b85045b68181585d97816a916871ca8d3c208c16d87cfd4780611794576117936120ca565b5b8a860984087f2b149d40ceb8aaae81be18991be06ac3b5b4c5e559dbefa33267e6dc24a138e50896506118797f30644e72e131a029b85045b68181585d97816a916871ca8d3c208c16d87cfd47806117ef576117ee6120ca565b5b7f30644e72e131a029b85045b68181585d97816a916871ca8d3c208c16d87cfd478061181e5761181d6120ca565b5b7f30644e72e131a029b85045b68181585d97816a916871ca8d3c208c16d87cfd478061184d5761184c6120ca565b5b8c870984087f2fcd3ac2a640a154eb23960892a85a68f031ca0c8344b23a577dcf1052b9e77508611956565b9550611886878786611a2b565b809750819850505084156118ab5761189d87611956565b96506118a886611956565b95505b50505050505b92959194509250565b5f6118e5827f0c19139cb84c680a6e14116da060561765e05aa45a1c72a34f082305b61f3f52611d26565b9050817f30644e72e131a029b85045b68181585d97816a916871ca8d3c208c16d87cfd4780611917576119166120ca565b5b82830914611951576040517f7fcdd1f400000000000000000000000000000000000000000000000000000000815260040160405180910390fd5b919050565b5f7f30644e72e131a029b85045b68181585d97816a916871ca8d3c208c16d87cfd47808381611988576119876120ca565b5b067f30644e72e131a029b85045b68181585d97816a916871ca8d3c208c16d87cfd4703816119b9576119b86120ca565b5b069050919050565b5f5f6119ed837f0c19139cb84c680a6e14116da060561765e05aa45a1c72a34f082305b61f3f52611d26565b9050827f30644e72e131a029b85045b68181585d97816a916871ca8d3c208c16d87cfd4780611a1f57611a1e6120ca565b5b82830914915050919050565b5f5f5f611aca7f30644e72e131a029b85045b68181585d97816a916871ca8d3c208c16d87cfd4780611a6057611a5f6120ca565b5b7f30644e72e131a029b85045b68181585d97816a916871ca8d3c208c16d87cfd4780611a8f57611a8e6120ca565b5b8788097f30644e72e131a029b85045b68181585d97816a916871ca8d3c208c16d87cfd4780611ac157611ac06120ca565b5b898a09086118ba565b90508315611ade57611adb81611956565b90505b611b697f30644e72e131a029b85045b68181585d97816a916871ca8d3c208c16d87cfd4780611b1057611b0f6120ca565b5b7f183227397098d014dc2822db40c0ac2ecbc0b548b438e5469e10460b6c3e7ea47f30644e72e131a029b85045b68181585d97816a916871ca8d3c208c16d87cfd4780611b6057611b5f6120ca565b5b848a08096118ba565b92507f30644e72e131a029b85045b68181585d97816a916871ca8d3c208c16d87cfd4780611b9a57611b996120ca565b5b611bd57f30644e72e131a029b85045b68181585d97816a916871ca8d3c208c16d87cfd4780611bcc57611bcb6120ca565b5b60028609611dbd565b860991507f30644e72e131a029b85045b68181585d97816a916871ca8d3c208c16d87cfd4780611c0857611c076120ca565b5b611c427f30644e72e131a029b85045b68181585d97816a916871ca8d3c208c16d87cfd4780611c3a57611c396120ca565b5b848509611956565b7f30644e72e131a029b85045b68181585d97816a916871ca8d3c208c16d87cfd4780611c7157611c706120ca565b5b8586090886141580611ce657507f30644e72e131a029b85045b68181585d97816a916871ca8d3c208c16d87cfd4780611cad57611cac6120ca565b5b7f30644e72e131a029b85045b68181585d97816a916871ca8d3c208c16d87cfd4780611cdc57611cdb6120ca565b5b8385096002098514155b15611d1d576040517f7fcdd1f400000000000000000000000000000000000000000000000000000000815260040160405180910390fd5b50935093915050565b5f5f60405160208152602080820152602060408201528460608201528360808201527f30644e72e131a029b85045b68181585d97816a916871ca8d3c208c16d87cfd4760a082015260208160c08360055afa9150805192505080611db6576040517f7fcdd1f400000000000000000000000000000000000000000000000000000000815260040160405180910390fd5b5092915050565b5f611de8827f30644e72e131a029b85045b68181585d97816a916871ca8d3c208c16d87cfd45611d26565b905060017f30644e72e131a029b85045b68181585d97816a916871ca8d3c208c16d87cfd4780611e1b57611e1a6120ca565b5b82840914611e55576040517f7fcdd1f400000000000000000000000000000000000000000000000000000000815260040160405180910390fd5b919050565b6040518060800160405280600490602082028036833780820191505090505090565b604051806103000160405280601890602082028036833780820191505090505090565b6040518060200160405280600190602082028036833780820191505090505090565b5f5ffd5b5f5ffd5b5f81905082602060080282011115611ee457611ee3611ec5565b5b92915050565b5f6101008284031215611f0057611eff611ec1565b5b5f611f0d84828501611ec9565b91505092915050565b5f60049050919050565b5f81905092915050565b5f819050919050565b5f819050919050565b611f4581611f33565b82525050565b5f611f568383611f3c565b60208301905092915050565b5f602082019050919050565b611f7781611f16565b611f818184611f20565b9250611f8c82611f2a565b805f5b83811015611fbc578151611fa38782611f4b565b9650611fae83611f62565b925050600181019050611f8f565b505050505050565b5f608082019050611fd75f830184611f6e565b92915050565b5f81905082602060020282011115611ff857611ff7611ec5565b5b92915050565b5f5f610140838503121561201557612014611ec1565b5b5f61202285828601611ec9565b92505061010061203485828601611fdd565b9150509250929050565b5f8190508260206004028201111561205957612058611ec5565b5b92915050565b5f5f60c0838503121561207557612074611ec1565b5b5f6120828582860161203e565b925050608061209385828601611fdd565b9150509250929050565b7f4e487b71000000000000000000000000000000000000000000000000000000005f52603260045260245ffd5b7f4e487b71000000000000000000000000000000000000000000000000000000005f52601260045260245ffd5b7f4e487b71000000000000000000000000000000000000000000000000000000005f52601160045260245ffd5b5f61212e82611f33565b915061213983611f33565b9250828203905081811115612151576121506120f7565b5b9291505056fea2646970667358221220bca76f50e2691087c85f0cf3af4469e373f5e630b832ae60580ae436c50fedb764736f6c63430008210033",
			"opcodes": "PUSH1 0x80 PUSH1 0x40 MSTORE CALLVALUE DUP1 ISZERO PUSH1 0xE JUMPI PUSH0 PUSH0 REVERT JUMPDEST POP PUSH2 0x218D DUP1 PUSH2 0x1C PUSH0 CODECOPY PUSH0 RETURN INVALID PUSH1 0x80 PUSH1 0x40 MSTORE CALLVALUE DUP1 ISZERO PUSH2 0xF JUMPI PUSH0 PUSH0 REVERT JUMPDEST POP PUSH1 0x4 CALLDATASIZE LT PUSH2 0x3F JUMPI PUSH0 CALLDATALOAD PUSH1 0xE0 SHR DUP1 PUSH4 0x44F63692 EQ PUSH2 0x43 JUMPI DUP1 PUSH4 0xEDDF243C EQ PUSH2 0x73 JUMPI DUP1 PUSH4 0xF11817B2 EQ PUSH2 0x8F JUMPI JUMPDEST PUSH0 PUSH0 REVERT JUMPDEST PUSH2 0x5D PUSH1 0x4 DUP1 CALLDATASIZE SUB DUP2 ADD SWAP1 PUSH2 0x58 SWAP2 SWAP1 PUSH2 0x1EEA JUMP JUMPDEST PUSH2 0xAB JUMP JUMPDEST PUSH1 0x40 MLOAD PUSH2 0x6A SWAP2 SWAP1 PUSH2 0x1FC4 JUMP JUMPDEST PUSH1 0x40 MLOAD DUP1 SWAP2 SUB SWAP1 RETURN JUMPDEST PUSH2 0x8D PUSH1 0x4 DUP1 CALLDATASIZE SUB DUP2 ADD SWAP1 PUSH2 0x88 SWAP2 SWAP1 PUSH2 0x1FFE JUMP JUMPDEST PUSH2 0x20A JUMP JUMPDEST STOP JUMPDEST PUSH2 0xA9 PUSH1 0x4 DUP1 CALLDATASIZE SUB DUP2 ADD SWAP1 PUSH2 0xA4 SWAP2 SWAP1 PUSH2 0x205F JUMP JUMPDEST PUSH2 0x4A4 JUMP JUMPDEST STOP JUMPDEST PUSH2 0xB3 PUSH2 0x1E5A JUMP JUMPDEST PUSH2 0xEC DUP3 PUSH0 PUSH1 0x8 DUP2 LT PUSH2 0xC9 JUMPI PUSH2 0xC8 PUSH2 0x209D JUMP JUMPDEST JUMPDEST PUSH1 0x20 MUL ADD CALLDATALOAD DUP4 PUSH1 0x1 PUSH1 0x8 DUP2 LT PUSH2 0xE2 JUMPI PUSH2 0xE1 PUSH2 0x209D JUMP JUMPDEST JUMPDEST PUSH1 0x20 MUL ADD CALLDATALOAD PUSH2 0xA5F JUMP JUMPDEST DUP2 PUSH0 PUSH1 0x4 DUP2 LT PUSH2 0xFF JUMPI PUSH2 0xFE PUSH2 0x209D JUMP JUMPDEST JUMPDEST PUSH1 0x20 MUL ADD DUP2 DUP2 MSTORE POP POP PUSH2 0x174 DUP3 PUSH1 0x3 PUSH1 0x8 DUP2 LT PUSH2 0x11F JUMPI PUSH2 0x11E PUSH2 0x209D JUMP JUMPDEST JUMPDEST PUSH1 0x20 MUL ADD CALLDATALOAD DUP4 PUSH1 0x2 PUSH1 0x8 DUP2 LT PUSH2 0x138 JUMPI PUSH2 0x137 PUSH2 0x209D JUMP JUMPDEST JUMPDEST PUSH1 0x20 MUL ADD CALLDATALOAD DUP5 PUSH1 0x5 PUSH1 0x8 DUP2 LT PUSH2 0x151 JUMPI PUSH2 0x150 PUSH2 0x209D JUMP JUMPDEST JUMPDEST PUSH1 0x20 MUL ADD CALLDATALOAD DUP6 PUSH1 0x4 PUSH1 0x8 DUP2 LT PUSH2 0x16A JUMPI PUSH2 0x169 PUSH2 0x209D JUMP JUMPDEST JUMPDEST PUSH1 0x20 MUL ADD CALLDATALOAD PUSH2 0xC0D JUMP JUMPDEST DUP3 PUSH1 0x2 PUSH1 0x4 DUP2 LT PUSH2 0x188 JUMPI PUSH2 0x187 PUSH2 0x209D JUMP JUMPDEST JUMPDEST PUSH1 0x20 MUL ADD DUP4 PUSH1 0x1 PUSH1 0x4 DUP2 LT PUSH2 0x1A0 JUMPI PUSH2 0x19F PUSH2 0x209D JUMP JUMPDEST JUMPDEST PUSH1 0x20 MUL ADD DUP3 DUP2 MSTORE POP DUP3 DUP2 MSTORE POP POP POP PUSH2 0x1E8 DUP3 PUSH1 0x6 PUSH1 0x8 DUP2 LT PUSH2 0x1C5 JUMPI PUSH2 0x1C4 PUSH2 0x209D JUMP JUMPDEST JUMPDEST PUSH1 0x20 MUL ADD CALLDATALOAD DUP4 PUSH1 0x7 PUSH1 0x8 DUP2 LT PUSH2 0x1DE JUMPI PUSH2 0x1DD PUSH2 0x209D JUMP JUMPDEST JUMPDEST PUSH1 0x20 MUL ADD CALLDATALOAD PUSH2 0xA5F JUMP JUMPDEST DUP2 PUSH1 0x3 PUSH1 0x4 DUP2 LT PUSH2 0x1FC JUMPI PUSH2 0x1FB PUSH2 0x209D JUMP JUMPDEST JUMPDEST PUSH1 0x20 MUL ADD DUP2 DUP2 MSTORE POP POP SWAP2 SWAP1 POP JUMP JUMPDEST PUSH0 PUSH0 PUSH2 0x215 DUP4 PUSH2 0x11D9 JUMP JUMPDEST SWAP2 POP SWAP2 POP PUSH0 PUSH1 0x40 MLOAD PUSH2 0x100 DUP7 DUP3 CALLDATACOPY PUSH32 0x1CC7CB8DE715675F21F01ECC9B46D236E0865E0CC020024521998269845F74E6 PUSH2 0x100 DUP3 ADD MSTORE PUSH32 0x3FF41F4BA0C37FE2CAF27354D28E4B8F83D3B76777A63B327D736BFFB0122ED PUSH2 0x120 DUP3 ADD MSTORE PUSH32 0x1909CD7827E0278E6B60843A4ABC7B111D7F8B2725CD5902A6B20DA7A2938FB PUSH2 0x140 DUP3 ADD MSTORE PUSH32 0x192BD3274441670227B4F69A44005B8711266E474227C6439CA25CA8E1EC1FC2 PUSH2 0x160 DUP3 ADD MSTORE PUSH32 0x2D4D9AA7E302D9DF41749D5507949D05DBEA33FBB16C643B22F599A2BE6DF2E2 PUSH2 0x180 DUP3 ADD MSTORE PUSH32 0x14BEDD503C37CEB061D8EC60209FE345CE89830A19230301F076CAFF004D1926 PUSH2 0x1A0 DUP3 ADD MSTORE PUSH32 0x967032FCBF776D1AFC985F88877F182D38480A653F2DECAA9794CBC3BF3060C PUSH2 0x1C0 DUP3 ADD MSTORE PUSH32 0xE187847AD4C798374D0D6732BF501847DD68BC0E071241E0213BC7FC13DB7AB PUSH2 0x1E0 DUP3 ADD MSTORE PUSH31 0x1752A100A72FDF1E5A5D6EA841CC20EC838BCCFCF7BD559E79F1C9C759B6A0 PUSH2 0x200 DUP3 ADD MSTORE PUSH32 0x192A8CC13CD9F762871F21E43451C6CA9EEAB2CB2987C4E366A185C25DAC2E7F PUSH2 0x220 DUP3 ADD MSTORE DUP4 PUSH2 0x240 DUP3 ADD MSTORE DUP3 PUSH2 0x260 DUP3 ADD MSTORE PUSH32 0x198E9393920D483A7260BFB731FB5D25F1AA493335A9E71297E485B7AEF312C2 PUSH2 0x280 DUP3 ADD MSTORE PUSH32 0x1800DEEF121F1E76426A00665E5C4479674322D4F75EDADD46DEBD5CD992F6ED PUSH2 0x2A0 DUP3 ADD MSTORE PUSH32 0x275DC4A288D1AFB3CBB1AC09187524C7DB36395DF7BE3B99E673B13A075A65EC PUSH2 0x2C0 DUP3 ADD MSTORE PUSH32 0x1D9BEFCD05A5323E6DA4D435F3B617CDB3AF83285C2DF711EF39C01571827F9D PUSH2 0x2E0 DUP3 ADD MSTORE PUSH1 0x20 DUP2 PUSH2 0x300 DUP4 PUSH1 0x8 GAS STATICCALL SWAP2 POP DUP1 MLOAD DUP3 AND SWAP2 POP POP DUP1 PUSH2 0x49D JUMPI PUSH1 0x40 MLOAD PUSH32 0x7FCDD1F400000000000000000000000000000000000000000000000000000000 DUP2 MSTORE PUSH1 0x4 ADD PUSH1 0x40 MLOAD DUP1 SWAP2 SUB SWAP1 REVERT JUMPDEST POP POP POP POP POP JUMP JUMPDEST PUSH2 0x4AC PUSH2 0x1E7C JUMP JUMPDEST PUSH0 PUSH0 PUSH2 0x4CE DUP6 PUSH0 PUSH1 0x4 DUP2 LT PUSH2 0x4C4 JUMPI PUSH2 0x4C3 PUSH2 0x209D JUMP JUMPDEST JUMPDEST PUSH1 0x20 MUL ADD CALLDATALOAD PUSH2 0x13AA JUMP JUMPDEST SWAP2 POP SWAP2 POP PUSH0 PUSH0 PUSH0 PUSH0 PUSH2 0x510 DUP10 PUSH1 0x2 PUSH1 0x4 DUP2 LT PUSH2 0x4ED JUMPI PUSH2 0x4EC PUSH2 0x209D JUMP JUMPDEST JUMPDEST PUSH1 0x20 MUL ADD CALLDATALOAD DUP11 PUSH1 0x1 PUSH1 0x4 DUP2 LT PUSH2 0x506 JUMPI PUSH2 0x505 PUSH2 0x209D JUMP JUMPDEST JUMPDEST PUSH1 0x20 MUL ADD CALLDATALOAD PUSH2 0x14DF JUMP JUMPDEST SWAP4 POP SWAP4 POP SWAP4 POP SWAP4 POP PUSH0 PUSH0 PUSH2 0x53B DUP12 PUSH1 0x3 PUSH1 0x4 DUP2 LT PUSH2 0x531 JUMPI PUSH2 0x530 PUSH2 0x209D JUMP JUMPDEST JUMPDEST PUSH1 0x20 MUL ADD CALLDATALOAD PUSH2 0x13AA JUMP JUMPDEST SWAP2 POP SWAP2 POP PUSH0 PUSH0 PUSH2 0x54A DUP13 PUSH2 0x11D9 JUMP JUMPDEST SWAP2 POP SWAP2 POP DUP10 DUP12 PUSH0 PUSH1 0x18 DUP2 LT PUSH2 0x562 JUMPI PUSH2 0x561 PUSH2 0x209D JUMP JUMPDEST JUMPDEST PUSH1 0x20 MUL ADD DUP2 DUP2 MSTORE POP POP DUP9 DUP12 PUSH1 0x1 PUSH1 0x18 DUP2 LT PUSH2 0x580 JUMPI PUSH2 0x57F PUSH2 0x209D JUMP JUMPDEST JUMPDEST PUSH1 0x20 MUL ADD DUP2 DUP2 MSTORE POP POP DUP7 DUP12 PUSH1 0x2 PUSH1 0x18 DUP2 LT PUSH2 0x59E JUMPI PUSH2 0x59D PUSH2 0x209D JUMP JUMPDEST JUMPDEST PUSH1 0x20 MUL ADD DUP2 DUP2 MSTORE POP POP DUP8 DUP12 PUSH1 0x3 PUSH1 0x18 DUP2 LT PUSH2 0x5BC JUMPI PUSH2 0x5BB PUSH2 0x209D JUMP JUMPDEST JUMPDEST PUSH1 0x20 MUL ADD DUP2 DUP2 MSTORE POP POP DUP5 DUP12 PUSH1 0x4 PUSH1 0x18 DUP2 LT PUSH2 0x5DA JUMPI PUSH2 0x5D9 PUSH2 0x209D JUMP JUMPDEST JUMPDEST PUSH1 0x20 MUL ADD DUP2 DUP2 MSTORE POP POP DUP6 DUP12 PUSH1 0x5 PUSH1 0x18 DUP2 LT PUSH2 0x5F8 JUMPI PUSH2 0x5F7 PUSH2 0x209D JUMP JUMPDEST JUMPDEST PUSH1 0x20 MUL ADD DUP2 DUP2 MSTORE POP POP DUP4 DUP12 PUSH1 0x6 PUSH1 0x18 DUP2 LT PUSH2 0x616 JUMPI PUSH2 0x615 PUSH2 0x209D JUMP JUMPDEST JUMPDEST PUSH1 0x20 MUL ADD DUP2 DUP2 MSTORE POP POP DUP3 DUP12 PUSH1 0x7 PUSH1 0x18 DUP2 LT PUSH2 0x634 JUMPI PUSH2 0x633 PUSH2 0x209D JUMP JUMPDEST JUMPDEST PUSH1 0x20 MUL ADD DUP2 DUP2 MSTORE POP POP PUSH32 0x1CC7CB8DE715675F21F01ECC9B46D236E0865E0CC020024521998269845F74E6 DUP12 PUSH1 0x8 PUSH1 0x18 DUP2 LT PUSH2 0x672 JUMPI PUSH2 0x671 PUSH2 0x209D JUMP JUMPDEST JUMPDEST PUSH1 0x20 MUL ADD DUP2 DUP2 MSTORE POP POP PUSH32 0x3FF41F4BA0C37FE2CAF27354D28E4B8F83D3B76777A63B327D736BFFB0122ED DUP12 PUSH1 0x9 PUSH1 0x18 DUP2 LT PUSH2 0x6B0 JUMPI PUSH2 0x6AF PUSH2 0x209D JUMP JUMPDEST JUMPDEST PUSH1 0x20 MUL ADD DUP2 DUP2 MSTORE POP POP PUSH32 0x1909CD7827E0278E6B60843A4ABC7B111D7F8B2725CD5902A6B20DA7A2938FB DUP12 PUSH1 0xA PUSH1 0x18 DUP2 LT PUSH2 0x6EE JUMPI PUSH2 0x6ED PUSH2 0x209D JUMP JUMPDEST JUMPDEST PUSH1 0x20 MUL ADD DUP2 DUP2 MSTORE POP POP PUSH32 0x192BD3274441670227B4F69A44005B8711266E474227C6439CA25CA8E1EC1FC2 DUP12 PUSH1 0xB PUSH1 0x18 DUP2 LT PUSH2 0x72C JUMPI PUSH2 0x72B PUSH2 0x209D JUMP JUMPDEST JUMPDEST PUSH1 0x20 MUL ADD DUP2 DUP2 MSTORE POP POP PUSH32 0x2D4D9AA7E302D9DF41749D5507949D05DBEA33FBB16C643B22F599A2BE6DF2E2 DUP12 PUSH1 0xC PUSH1 0x18 DUP2 LT PUSH2 0x76A JUMPI PUSH2 0x769 PUSH2 0x209D JUMP JUMPDEST JUMPDEST PUSH1 0x20 MUL ADD DUP2 DUP2 MSTORE POP POP PUSH32 0x14BEDD503C37CEB061D8EC60209FE345CE89830A19230301F076CAFF004D1926 DUP12 PUSH1 0xD PUSH1 0x18 DUP2 LT PUSH2 0x7A8 JUMPI PUSH2 0x7A7 PUSH2 0x209D JUMP JUMPDEST JUMPDEST PUSH1 0x20 MUL ADD DUP2 DUP2 MSTORE POP POP PUSH32 0x967032FCBF776D1AFC985F88877F182D38480A653F2DECAA9794CBC3BF3060C DUP12 PUSH1 0xE PUSH1 0x18 DUP2 LT PUSH2 0x7E6 JUMPI PUSH2 0x7E5 PUSH2 0x209D JUMP JUMPDEST JUMPDEST PUSH1 0x20 MUL ADD DUP2 DUP2 MSTORE POP POP PUSH32 0xE187847AD4C798374D0D6732BF501847DD68BC0E071241E0213BC7FC13DB7AB DUP12 PUSH1 0xF PUSH1 0x18 DUP2 LT PUSH2 0x824 JUMPI PUSH2 0x823 PUSH2 0x209D JUMP JUMPDEST JUMPDEST PUSH1 0x20 MUL ADD DUP2 DUP2 MSTORE POP POP PUSH31 0x1752A100A72FDF1E5A5D6EA841CC20EC838BCCFCF7BD559E79F1C9C759B6A0 DUP12 PUSH1 0x10 PUSH1 0x18 DUP2 LT PUSH2 0x861 JUMPI PUSH2 0x860 PUSH2 0x209D JUMP JUMPDEST JUMPDEST PUSH1 0x20 MUL ADD DUP2 DUP2 MSTORE POP POP PUSH32 0x192A8CC13CD9F762871F21E43451C6CA9EEAB2CB2987C4E366A185C25DAC2E7F DUP12 PUSH1 0x11 PUSH1 0x18 DUP2 LT PUSH2 0x89F JUMPI PUSH2 0x89E PUSH2 0x209D JUMP JUMPDEST JUMPDEST PUSH1 0x20 MUL ADD DUP2 DUP2 MSTORE POP POP DUP2 DUP12 PUSH1 0x12 PUSH1 0x18 DUP2 LT PUSH2 0x8BD JUMPI PUSH2 0x8BC PUSH2 0x209D JUMP JUMPDEST JUMPDEST PUSH1 0x20 MUL ADD DUP2 DUP2 MSTORE POP POP DUP1 DUP12 PUSH1 0x13 PUSH1 0x18 DUP2 LT PUSH2 0x8DB JUMPI PUSH2 0x8DA PUSH2 0x209D JUMP JUMPDEST JUMPDEST PUSH1 0x20 MUL ADD DUP2 DUP2 MSTORE POP POP PUSH32 0x198E9393920D483A7260BFB731FB5D25F1AA493335A9E71297E485B7AEF312C2 DUP12 PUSH1 0x14 PUSH1 0x18 DUP2 LT PUSH2 0x919 JUMPI PUSH2 0x918 PUSH2 0x209D JUMP JUMPDEST JUMPDEST PUSH1 0x20 MUL ADD DUP2 DUP2 MSTORE POP POP PUSH32 0x1800DEEF121F1E76426A00665E5C4479674322D4F75EDADD46DEBD5CD992F6ED DUP12 PUSH1 0x15 PUSH1 0x18 DUP2 LT PUSH2 0x957 JUMPI PUSH2 0x956 PUSH2 0x209D JUMP JUMPDEST JUMPDEST PUSH1 0x20 MUL ADD DUP2 DUP2 MSTORE POP POP PUSH32 0x275DC4A288D1AFB3CBB1AC09187524C7DB36395DF7BE3B99E673B13A075A65EC DUP12 PUSH1 0x16 PUSH1 0x18 DUP2 LT PUSH2 0x995 JUMPI PUSH2 0x994 PUSH2 0x209D JUMP JUMPDEST JUMPDEST PUSH1 0x20 MUL ADD DUP2 DUP2 MSTORE POP POP PUSH32 0x1D9BEFCD05A5323E6DA4D435F3B617CDB3AF83285C2DF711EF39C01571827F9D DUP12 PUSH1 0x17 PUSH1 0x18 DUP2 LT PUSH2 0x9D3 JUMPI PUSH2 0x9D2 PUSH2 0x209D JUMP JUMPDEST JUMPDEST PUSH1 0x20 MUL ADD DUP2 DUP2 MSTORE POP POP PUSH0 PUSH2 0x9E5 PUSH2 0x1E9F JUMP JUMPDEST PUSH1 0x20 DUP2 PUSH2 0x300 DUP16 PUSH1 0x8 GAS STATICCALL SWAP2 POP DUP2 ISZERO DUP1 PUSH2 0xA17 JUMPI POP PUSH1 0x1 DUP2 PUSH0 PUSH1 0x1 DUP2 LT PUSH2 0xA0F JUMPI PUSH2 0xA0E PUSH2 0x209D JUMP JUMPDEST JUMPDEST PUSH1 0x20 MUL ADD MLOAD EQ ISZERO JUMPDEST ISZERO PUSH2 0xA4E JUMPI PUSH1 0x40 MLOAD PUSH32 0x7FCDD1F400000000000000000000000000000000000000000000000000000000 DUP2 MSTORE PUSH1 0x4 ADD PUSH1 0x40 MLOAD DUP1 SWAP2 SUB SWAP1 REVERT JUMPDEST POP POP POP POP POP POP POP POP POP POP POP POP POP POP POP JUMP JUMPDEST PUSH0 PUSH32 0x30644E72E131A029B85045B68181585D97816A916871CA8D3C208C16D87CFD47 DUP4 LT ISZERO DUP1 PUSH2 0xAAF JUMPI POP PUSH32 0x30644E72E131A029B85045B68181585D97816A916871CA8D3C208C16D87CFD47 DUP3 LT ISZERO JUMPDEST ISZERO PUSH2 0xAE6 JUMPI PUSH1 0x40 MLOAD PUSH32 0x7FCDD1F400000000000000000000000000000000000000000000000000000000 DUP2 MSTORE PUSH1 0x4 ADD PUSH1 0x40 MLOAD DUP1 SWAP2 SUB SWAP1 REVERT JUMPDEST PUSH0 DUP4 EQ DUP1 ISZERO PUSH2 0xAF4 JUMPI POP PUSH0 DUP3 EQ JUMPDEST ISZERO PUSH2 0xB01 JUMPI PUSH0 SWAP1 POP PUSH2 0xC07 JUMP JUMPDEST PUSH0 PUSH2 0xB9F PUSH32 0x30644E72E131A029B85045B68181585D97816A916871CA8D3C208C16D87CFD47 DUP1 PUSH2 0xB34 JUMPI PUSH2 0xB33 PUSH2 0x20CA JUMP JUMPDEST JUMPDEST PUSH1 0x3 PUSH32 0x30644E72E131A029B85045B68181585D97816A916871CA8D3C208C16D87CFD47 DUP1 PUSH2 0xB65 JUMPI PUSH2 0xB64 PUSH2 0x20CA JUMP JUMPDEST JUMPDEST DUP8 PUSH32 0x30644E72E131A029B85045B68181585D97816A916871CA8D3C208C16D87CFD47 DUP1 PUSH2 0xB95 JUMPI PUSH2 0xB94 PUSH2 0x20CA JUMP JUMPDEST JUMPDEST DUP10 DUP11 MULMOD MULMOD ADDMOD PUSH2 0x18BA JUMP JUMPDEST SWAP1 POP DUP1 DUP4 SUB PUSH2 0xBB7 JUMPI PUSH0 PUSH1 0x1 DUP6 SWAP1 SHL OR SWAP2 POP POP PUSH2 0xC07 JUMP JUMPDEST PUSH2 0xBC0 DUP2 PUSH2 0x1956 JUMP JUMPDEST DUP4 SUB PUSH2 0xBD5 JUMPI PUSH1 0x1 DUP1 DUP6 SWAP1 SHL OR SWAP2 POP POP PUSH2 0xC07 JUMP JUMPDEST PUSH1 0x40 MLOAD PUSH32 0x7FCDD1F400000000000000000000000000000000000000000000000000000000 DUP2 MSTORE PUSH1 0x4 ADD PUSH1 0x40 MLOAD DUP1 SWAP2 SUB SWAP1 REVERT JUMPDEST SWAP3 SWAP2 POP POP JUMP JUMPDEST PUSH0 PUSH0 PUSH32 0x30644E72E131A029B85045B68181585D97816A916871CA8D3C208C16D87CFD47 DUP7 LT ISZERO DUP1 PUSH2 0xC5E JUMPI POP PUSH32 0x30644E72E131A029B85045B68181585D97816A916871CA8D3C208C16D87CFD47 DUP6 LT ISZERO JUMPDEST DUP1 PUSH2 0xC89 JUMPI POP PUSH32 0x30644E72E131A029B85045B68181585D97816A916871CA8D3C208C16D87CFD47 DUP5 LT ISZERO JUMPDEST DUP1 PUSH2 0xCB4 JUMPI POP PUSH32 0x30644E72E131A029B85045B68181585D97816A916871CA8D3C208C16D87CFD47 DUP4 LT ISZERO JUMPDEST ISZERO PUSH2 0xCEB JUMPI PUSH1 0x40 MLOAD PUSH32 0x7FCDD1F400000000000000000000000000000000000000000000000000000000 DUP2 MSTORE PUSH1 0x4 ADD PUSH1 0x40 MLOAD DUP1 SWAP2 SUB SWAP1 REVERT JUMPDEST PUSH0 DUP4 DUP6 DUP8 DUP10 OR OR OR SUB PUSH2 0xD03 JUMPI PUSH0 PUSH0 SWAP2 POP SWAP2 POP PUSH2 0x11D0 JUMP JUMPDEST PUSH0 PUSH0 PUSH0 PUSH32 0x30644E72E131A029B85045B68181585D97816A916871CA8D3C208C16D87CFD47 DUP1 PUSH2 0xD35 JUMPI PUSH2 0xD34 PUSH2 0x20CA JUMP JUMPDEST JUMPDEST PUSH1 0x3 PUSH32 0x30644E72E131A029B85045B68181585D97816A916871CA8D3C208C16D87CFD47 PUSH2 0xD62 SWAP2 SWAP1 PUSH2 0x2124 JUMP JUMPDEST PUSH32 0x30644E72E131A029B85045B68181585D97816A916871CA8D3C208C16D87CFD47 DUP1 PUSH2 0xD91 JUMPI PUSH2 0xD90 PUSH2 0x20CA JUMP JUMPDEST JUMPDEST DUP11 DUP13 MULMOD MULMOD SWAP1 POP PUSH0 PUSH32 0x30644E72E131A029B85045B68181585D97816A916871CA8D3C208C16D87CFD47 DUP1 PUSH2 0xDC7 JUMPI PUSH2 0xDC6 PUSH2 0x20CA JUMP JUMPDEST JUMPDEST DUP11 PUSH32 0x30644E72E131A029B85045B68181585D97816A916871CA8D3C208C16D87CFD47 DUP1 PUSH2 0xDF7 JUMPI PUSH2 0xDF6 PUSH2 0x20CA JUMP JUMPDEST JUMPDEST DUP13 DUP14 MULMOD MULMOD SWAP1 POP PUSH0 PUSH32 0x30644E72E131A029B85045B68181585D97816A916871CA8D3C208C16D87CFD47 DUP1 PUSH2 0xE2D JUMPI PUSH2 0xE2C PUSH2 0x20CA JUMP JUMPDEST JUMPDEST DUP11 PUSH32 0x30644E72E131A029B85045B68181585D97816A916871CA8D3C208C16D87CFD47 DUP1 PUSH2 0xE5D JUMPI PUSH2 0xE5C PUSH2 0x20CA JUMP JUMPDEST JUMPDEST DUP13 DUP14 MULMOD MULMOD SWAP1 POP PUSH32 0x30644E72E131A029B85045B68181585D97816A916871CA8D3C208C16D87CFD47 DUP1 PUSH2 0xE92 JUMPI PUSH2 0xE91 PUSH2 0x20CA JUMP JUMPDEST JUMPDEST PUSH32 0x30644E72E131A029B85045B68181585D97816A916871CA8D3C208C16D87CFD47 DUP1 PUSH2 0xEC1 JUMPI PUSH2 0xEC0 PUSH2 0x20CA JUMP JUMPDEST JUMPDEST PUSH32 0x30644E72E131A029B85045B68181585D97816A916871CA8D3C208C16D87CFD47 DUP1 PUSH2 0xEF0 JUMPI PUSH2 0xEEF PUSH2 0x20CA JUMP JUMPDEST JUMPDEST DUP13 DUP7 MULMOD DUP5 ADDMOD PUSH32 0x2B149D40CEB8AAAE81BE18991BE06AC3B5B4C5E559DBEFA33267E6DC24A138E5 ADDMOD SWAP5 POP PUSH2 0xFD5 PUSH32 0x30644E72E131A029B85045B68181585D97816A916871CA8D3C208C16D87CFD47 DUP1 PUSH2 0xF4B JUMPI PUSH2 0xF4A PUSH2 0x20CA JUMP JUMPDEST JUMPDEST PUSH32 0x30644E72E131A029B85045B68181585D97816A916871CA8D3C208C16D87CFD47 DUP1 PUSH2 0xF7A JUMPI PUSH2 0xF79 PUSH2 0x20CA JUMP JUMPDEST JUMPDEST PUSH32 0x30644E72E131A029B85045B68181585D97816A916871CA8D3C208C16D87CFD47 DUP1 PUSH2 0xFA9 JUMPI PUSH2 0xFA8 PUSH2 0x20CA JUMP JUMPDEST JUMPDEST DUP15 DUP8 MULMOD DUP5 ADDMOD PUSH32 0x2FCD3AC2A640A154EB23960892A85A68F031CA0C8344B23A577DCF1052B9E775 ADDMOD PUSH2 0x1956 JUMP JUMPDEST SWAP4 POP POP POP POP PUSH0 PUSH0 PUSH2 0x1078 PUSH32 0x30644E72E131A029B85045B68181585D97816A916871CA8D3C208C16D87CFD47 DUP1 PUSH2 0x100E JUMPI PUSH2 0x100D PUSH2 0x20CA JUMP JUMPDEST JUMPDEST PUSH32 0x30644E72E131A029B85045B68181585D97816A916871CA8D3C208C16D87CFD47 DUP1 PUSH2 0x103D JUMPI PUSH2 0x103C PUSH2 0x20CA JUMP JUMPDEST JUMPDEST DUP6 DUP7 MULMOD PUSH32 0x30644E72E131A029B85045B68181585D97816A916871CA8D3C208C16D87CFD47 DUP1 PUSH2 0x106F JUMPI PUSH2 0x106E PUSH2 0x20CA JUMP JUMPDEST JUMPDEST DUP8 DUP9 MULMOD ADDMOD PUSH2 0x18BA JUMP JUMPDEST SWAP1 POP PUSH2 0x1105 PUSH32 0x30644E72E131A029B85045B68181585D97816A916871CA8D3C208C16D87CFD47 DUP1 PUSH2 0x10AC JUMPI PUSH2 0x10AB PUSH2 0x20CA JUMP JUMPDEST JUMPDEST PUSH32 0x183227397098D014DC2822DB40C0AC2ECBC0B548B438E5469E10460B6C3E7EA4 PUSH32 0x30644E72E131A029B85045B68181585D97816A916871CA8D3C208C16D87CFD47 DUP1 PUSH2 0x10FC JUMPI PUSH2 0x10FB PUSH2 0x20CA JUMP JUMPDEST JUMPDEST DUP5 DUP9 ADDMOD MULMOD PUSH2 0x19C1 JUMP JUMPDEST ISZERO SWAP2 POP POP PUSH2 0x1114 DUP4 DUP4 DUP4 PUSH2 0x1A2B JUMP JUMPDEST DUP1 SWAP4 POP DUP2 SWAP5 POP POP POP DUP3 DUP8 EQ DUP1 ISZERO PUSH2 0x112A JUMPI POP DUP2 DUP7 EQ JUMPDEST ISZERO PUSH2 0x1152 JUMPI PUSH0 DUP2 PUSH2 0x113B JUMPI PUSH0 PUSH2 0x113E JUMP JUMPDEST PUSH1 0x2 JUMPDEST PUSH1 0xFF AND PUSH1 0x2 DUP12 SWAP1 SHL OR OR SWAP5 POP DUP8 SWAP4 POP PUSH2 0x11CC JUMP JUMPDEST PUSH2 0x115B DUP4 PUSH2 0x1956 JUMP JUMPDEST DUP8 EQ DUP1 ISZERO PUSH2 0x1170 JUMPI POP PUSH2 0x116D DUP3 PUSH2 0x1956 JUMP JUMPDEST DUP7 EQ JUMPDEST ISZERO PUSH2 0x1199 JUMPI PUSH1 0x1 DUP2 PUSH2 0x1182 JUMPI PUSH0 PUSH2 0x1185 JUMP JUMPDEST PUSH1 0x2 JUMPDEST PUSH1 0xFF AND PUSH1 0x2 DUP12 SWAP1 SHL OR OR SWAP5 POP DUP8 SWAP4 POP PUSH2 0x11CB JUMP JUMPDEST PUSH1 0x40 MLOAD PUSH32 0x7FCDD1F400000000000000000000000000000000000000000000000000000000 DUP2 MSTORE PUSH1 0x4 ADD PUSH1 0x40 MLOAD DUP1 SWAP2 SUB SWAP1 REVERT JUMPDEST JUMPDEST POP POP POP JUMPDEST SWAP5 POP SWAP5 SWAP3 POP POP POP JUMP JUMPDEST PUSH0 PUSH0 PUSH0 PUSH1 0x1 SWAP1 POP PUSH1 0x40 MLOAD PUSH1 0x40 DUP2 ADD PUSH0 PUSH32 0x26091E1CAFB0AD8A4EA0A694CD3743EBF524779233DB734C451D28B58AA9758E DUP4 MSTORE PUSH31 0x9FF50A6B8B11C3CA6FDB2690A124F8CE25489FEFA65A3E782E7BA70B66690E PUSH1 0x20 DUP5 ADD MSTORE PUSH32 0x61C3FD0FD3DA25D2607C227D090CCA750ED36C6EC878755E537C1C48951FB4C DUP3 MSTORE PUSH32 0xFA17AE9C2033379DF7B5C65EFF0E107055E9A273E6119A212DD09EB51707219 PUSH1 0x20 DUP4 ADD MSTORE DUP7 CALLDATALOAD SWAP1 POP DUP1 PUSH1 0x40 DUP4 ADD MSTORE PUSH32 0x30644E72E131A029B85045B68181585D2833E84879B9709143E1F593F0000001 DUP2 LT DUP5 AND SWAP4 POP PUSH1 0x40 DUP3 PUSH1 0x60 DUP5 PUSH1 0x7 GAS STATICCALL DUP5 AND SWAP4 POP PUSH1 0x40 DUP4 PUSH1 0x80 DUP6 PUSH1 0x6 GAS STATICCALL DUP5 AND SWAP4 POP PUSH32 0x4EAB241388A79817FE0E0E2EAD0B2EC4FFDEC51A16028DEE020634FD129E71C DUP3 MSTORE PUSH32 0x7236256D21C60D02F0BDBF95CFF83E03EA9E16FCA56B18D5544B0889A65C1F5 PUSH1 0x20 DUP4 ADD MSTORE PUSH1 0x20 DUP8 ADD CALLDATALOAD SWAP1 POP DUP1 PUSH1 0x40 DUP4 ADD MSTORE PUSH32 0x30644E72E131A029B85045B68181585D2833E84879B9709143E1F593F0000001 DUP2 LT DUP5 AND SWAP4 POP PUSH1 0x40 DUP3 PUSH1 0x60 DUP5 PUSH1 0x7 GAS STATICCALL DUP5 AND SWAP4 POP PUSH1 0x40 DUP4 PUSH1 0x80 DUP6 PUSH1 0x6 GAS STATICCALL DUP5 AND SWAP4 POP DUP3 MLOAD SWAP6 POP PUSH1 0x20 DUP4 ADD MLOAD SWAP5 POP POP POP POP DUP1 PUSH2 0x13A4 JUMPI PUSH1 0x40 MLOAD PUSH32 0xA54F8E2700000000000000000000000000000000000000000000000000000000 DUP2 MSTORE PUSH1 0x4 ADD PUSH1 0x40 MLOAD DUP1 SWAP2 SUB SWAP1 REVERT JUMPDEST POP SWAP2 POP SWAP2 JUMP JUMPDEST PUSH0 PUSH0 PUSH0 DUP4 SUB PUSH2 0x13BE JUMPI PUSH0 PUSH0 SWAP2 POP SWAP2 POP PUSH2 0x14DA JUMP JUMPDEST PUSH0 PUSH1 0x1 DUP1 DUP6 AND EQ SWAP1 POP PUSH1 0x1 DUP5 SWAP1 SHR SWAP3 POP PUSH32 0x30644E72E131A029B85045B68181585D97816A916871CA8D3C208C16D87CFD47 DUP4 LT PUSH2 0x1427 JUMPI PUSH1 0x40 MLOAD PUSH32 0x7FCDD1F400000000000000000000000000000000000000000000000000000000 DUP2 MSTORE PUSH1 0x4 ADD PUSH1 0x40 MLOAD DUP1 SWAP2 SUB SWAP1 REVERT JUMPDEST PUSH2 0x14C4 PUSH32 0x30644E72E131A029B85045B68181585D97816A916871CA8D3C208C16D87CFD47 DUP1 PUSH2 0x1459 JUMPI PUSH2 0x1458 PUSH2 0x20CA JUMP JUMPDEST JUMPDEST PUSH1 0x3 PUSH32 0x30644E72E131A029B85045B68181585D97816A916871CA8D3C208C16D87CFD47 DUP1 PUSH2 0x148A JUMPI PUSH2 0x1489 PUSH2 0x20CA JUMP JUMPDEST JUMPDEST DUP7 PUSH32 0x30644E72E131A029B85045B68181585D97816A916871CA8D3C208C16D87CFD47 DUP1 PUSH2 0x14BA JUMPI PUSH2 0x14B9 PUSH2 0x20CA JUMP JUMPDEST JUMPDEST DUP9 DUP10 MULMOD MULMOD ADDMOD PUSH2 0x18BA JUMP JUMPDEST SWAP2 POP DUP1 ISZERO PUSH2 0x14D8 JUMPI PUSH2 0x14D5 DUP3 PUSH2 0x1956 JUMP JUMPDEST SWAP2 POP JUMPDEST POP JUMPDEST SWAP2 POP SWAP2 JUMP JUMPDEST PUSH0 PUSH0 PUSH0 PUSH0 PUSH0 DUP7 EQ DUP1 ISZERO PUSH2 0x14F1 JUMPI POP PUSH0 DUP6 EQ JUMPDEST ISZERO PUSH2 0x1507 JUMPI PUSH0 PUSH0 PUSH0 PUSH0 SWAP4 POP SWAP4 POP SWAP4 POP SWAP4 POP PUSH2 0x18B1 JUMP JUMPDEST PUSH0 PUSH1 0x1 DUP1 DUP9 AND EQ SWAP1 POP PUSH0 PUSH1 0x2 DUP1 DUP10 AND EQ SWAP1 POP PUSH1 0x2 DUP9 SWAP1 SHR SWAP6 POP DUP7 SWAP5 POP PUSH32 0x30644E72E131A029B85045B68181585D97816A916871CA8D3C208C16D87CFD47 DUP7 LT ISZERO DUP1 PUSH2 0x1572 JUMPI POP PUSH32 0x30644E72E131A029B85045B68181585D97816A916871CA8D3C208C16D87CFD47 DUP6 LT ISZERO JUMPDEST ISZERO PUSH2 0x15A9 JUMPI PUSH1 0x40 MLOAD PUSH32 0x7FCDD1F400000000000000000000000000000000000000000000000000000000 DUP2 MSTORE PUSH1 0x4 ADD PUSH1 0x40 MLOAD DUP1 SWAP2 SUB SWAP1 REVERT JUMPDEST PUSH0 PUSH32 0x30644E72E131A029B85045B68181585D97816A916871CA8D3C208C16D87CFD47 DUP1 PUSH2 0x15D9 JUMPI PUSH2 0x15D8 PUSH2 0x20CA JUMP JUMPDEST JUMPDEST PUSH1 0x3 PUSH32 0x30644E72E131A029B85045B68181585D97816A916871CA8D3C208C16D87CFD47 PUSH2 0x1606 SWAP2 SWAP1 PUSH2 0x2124 JUMP JUMPDEST PUSH32 0x30644E72E131A029B85045B68181585D97816A916871CA8D3C208C16D87CFD47 DUP1 PUSH2 0x1635 JUMPI PUSH2 0x1634 PUSH2 0x20CA JUMP JUMPDEST JUMPDEST DUP9 DUP11 MULMOD MULMOD SWAP1 POP PUSH0 PUSH32 0x30644E72E131A029B85045B68181585D97816A916871CA8D3C208C16D87CFD47 DUP1 PUSH2 0x166B JUMPI PUSH2 0x166A PUSH2 0x20CA JUMP JUMPDEST JUMPDEST DUP9 PUSH32 0x30644E72E131A029B85045B68181585D97816A916871CA8D3C208C16D87CFD47 DUP1 PUSH2 0x169B JUMPI PUSH2 0x169A PUSH2 0x20CA JUMP JUMPDEST JUMPDEST DUP11 DUP12 MULMOD MULMOD SWAP1 POP PUSH0 PUSH32 0x30644E72E131A029B85045B68181585D97816A916871CA8D3C208C16D87CFD47 DUP1 PUSH2 0x16D1 JUMPI PUSH2 0x16D0 PUSH2 0x20CA JUMP JUMPDEST JUMPDEST DUP9 PUSH32 0x30644E72E131A029B85045B68181585D97816A916871CA8D3C208C16D87CFD47 DUP1 PUSH2 0x1701 JUMPI PUSH2 0x1700 PUSH2 0x20CA JUMP JUMPDEST JUMPDEST DUP11 DUP12 MULMOD MULMOD SWAP1 POP PUSH32 0x30644E72E131A029B85045B68181585D97816A916871CA8D3C208C16D87CFD47 DUP1 PUSH2 0x1736 JUMPI PUSH2 0x1735 PUSH2 0x20CA JUMP JUMPDEST JUMPDEST PUSH32 0x30644E72E131A029B85045B68181585D97816A916871CA8D3C208C16D87CFD47 DUP1 PUSH2 0x1765 JUMPI PUSH2 0x1764 PUSH2 0x20CA JUMP JUMPDEST JUMPDEST PUSH32 0x30644E72E131A029B85045B68181585D97816A916871CA8D3C208C16D87CFD47 DUP1 PUSH2 0x1794 JUMPI PUSH2 0x1793 PUSH2 0x20CA JUMP JUMPDEST JUMPDEST DUP11 DUP7 MULMOD DUP5 ADDMOD PUSH32 0x2B149D40CEB8AAAE81BE18991BE06AC3B5B4C5E559DBEFA33267E6DC24A138E5 ADDMOD SWAP7 POP PUSH2 0x1879 PUSH32 0x30644E72E131A029B85045B68181585D97816A916871CA8D3C208C16D87CFD47 DUP1 PUSH2 0x17EF JUMPI PUSH2 0x17EE PUSH2 0x20CA JUMP JUMPDEST JUMPDEST PUSH32 0x30644E72E131A029B85045B68181585D97816A916871CA8D3C208C16D87CFD47 DUP1 PUSH2 0x181E JUMPI PUSH2 0x181D PUSH2 0x20CA JUMP JUMPDEST JUMPDEST PUSH32 0x30644E72E131A029B85045B68181585D97816A916871CA8D3C208C16D87CFD47 DUP1 PUSH2 0x184D JUMPI PUSH2 0x184C PUSH2 0x20CA JUMP JUMPDEST JUMPDEST DUP13 DUP8 MULMOD DUP5 ADDMOD PUSH32 0x2FCD3AC2A640A154EB23960892A85A68F031CA0C8344B23A577DCF1052B9E775 ADDMOD PUSH2 0x1956 JUMP JUMPDEST SWAP6 POP PUSH2 0x1886 DUP8 DUP8 DUP7 PUSH2 0x1A2B JUMP JUMPDEST DUP1 SWAP8 POP DUP2 SWAP9 POP POP POP DUP5 ISZERO PUSH2 0x18AB JUMPI PUSH2 0x189D DUP8 PUSH2 0x1956 JUMP JUMPDEST SWAP7 POP PUSH2 0x18A8 DUP7 PUSH2 0x1956 JUMP JUMPDEST SWAP6 POP JUMPDEST POP POP POP POP POP JUMPDEST SWAP3 SWAP6 SWAP2 SWAP5 POP SWAP3 POP JUMP JUMPDEST PUSH0 PUSH2 0x18E5 DUP3 PUSH32 0xC19139CB84C680A6E14116DA060561765E05AA45A1C72A34F082305B61F3F52 PUSH2 0x1D26 JUMP JUMPDEST SWAP1 POP DUP2 PUSH32 0x30644E72E131A029B85045B68181585D97816A916871CA8D3C208C16D87CFD47 DUP1 PUSH2 0x1917 JUMPI PUSH2 0x1916 PUSH2 0x20CA JUMP JUMPDEST JUMPDEST DUP3 DUP4 MULMOD EQ PUSH2 0x1951 JUMPI PUSH1 0x40 MLOAD PUSH32 0x7FCDD1F400000000000000000000000000000000000000000000000000000000 DUP2 MSTORE PUSH1 0x4 ADD PUSH1 0x40 MLOAD DUP1 SWAP2 SUB SWAP1 REVERT JUMPDEST SWAP2 SWAP1 POP JUMP JUMPDEST PUSH0 PUSH32 0x30644E72E131A029B85045B68181585D97816A916871CA8D3C208C16D87CFD47 DUP1 DUP4 DUP2 PUSH2 0x1988 JUMPI PUSH2 0x1987 PUSH2 0x20CA JUMP JUMPDEST JUMPDEST MOD PUSH32 0x30644E72E131A029B85045B68181585D97816A916871CA8D3C208C16D87CFD47 SUB DUP2 PUSH2 0x19B9 JUMPI PUSH2 0x19B8 PUSH2 0x20CA JUMP JUMPDEST JUMPDEST MOD SWAP1 POP SWAP2 SWAP1 POP JUMP JUMPDEST PUSH0 PUSH0 PUSH2 0x19ED DUP4 PUSH32 0xC19139CB84C680A6E14116DA060561765E05AA45A1C72A34F082305B61F3F52 PUSH2 0x1D26 JUMP JUMPDEST SWAP1 POP DUP3 PUSH32 0x30644E72E131A029B85045B68181585D97816A916871CA8D3C208C16D87CFD47 DUP1 PUSH2 0x1A1F JUMPI PUSH2 0x1A1E PUSH2 0x20CA JUMP JUMPDEST JUMPDEST DUP3 DUP4 MULMOD EQ SWAP2 POP POP SWAP2 SWAP1 POP JUMP JUMPDEST PUSH0 PUSH0 PUSH0 PUSH2 0x1ACA PUSH32 0x30644E72E131A029B85045B68181585D97816A916871CA8D3C208C16D87CFD47 DUP1 PUSH2 0x1A60 JUMPI PUSH2 0x1A5F PUSH2 0x20CA JUMP JUMPDEST JUMPDEST PUSH32 0x30644E72E131A029B85045B68181585D97816A916871CA8D3C208C16D87CFD47 DUP1 PUSH2 0x1A8F JUMPI PUSH2 0x1A8E PUSH2 0x20CA JUMP JUMPDEST JUMPDEST DUP8 DUP9 MULMOD PUSH32 0x30644E72E131A029B85045B68181585D97816A916871CA8D3C208C16D87CFD47 DUP1 PUSH2 0x1AC1 JUMPI PUSH2 0x1AC0 PUSH2 0x20CA JUMP JUMPDEST JUMPDEST DUP10 DUP11 MULMOD ADDMOD PUSH2 0x18BA JUMP JUMPDEST SWAP1 POP DUP4 ISZERO PUSH2 0x1ADE JUMPI PUSH2 0x1ADB DUP2 PUSH2 0x1956 JUMP JUMPDEST SWAP1 POP JUMPDEST PUSH2 0x1B69 PUSH32 0x30644E72E131A029B85045B68181585D97816A916871CA8D3C208C16D87CFD47 DUP1 PUSH2 0x1B10 JUMPI PUSH2 0x1B0F PUSH2 0x20CA JUMP JUMPDEST JUMPDEST PUSH32 0x183227397098D014DC2822DB40C0AC2ECBC0B548B438E5469E10460B6C3E7EA4 PUSH32 0x30644E72E131A029B85045B68181585D97816A916871CA8D3C208C16D87CFD47 DUP1 PUSH2 0x1B60 JUMPI PUSH2 0x1B5F PUSH2 0x20CA JUMP JUMPDEST JUMPDEST DUP5 DUP11 ADDMOD MULMOD PUSH2 0x18BA JUMP JUMPDEST SWAP3 POP PUSH32 0x30644E72E131A029B85045B68181585D97816A916871CA8D3C208C16D87CFD47 DUP1 PUSH2 0x1B9A JUMPI PUSH2 0x1B99 PUSH2 0x20CA JUMP JUMPDEST JUMPDEST PUSH2 0x1BD5 PUSH32 0x30644E72E131A029B85045B68181585D97816A916871CA8D3C208C16D87CFD47 DUP1 PUSH2 0x1BCC JUMPI PUSH2 0x1BCB PUSH2 0x20CA JUMP JUMPDEST JUMPDEST PUSH1 0x2 DUP7 MULMOD PUSH2 0x1DBD JUMP JUMPDEST DUP7 MULMOD SWAP2 POP PUSH32 0x30644E72E131A029B85045B68181585D97816A916871CA8D3C208C16D87CFD47 DUP1 PUSH2 0x1C08 JUMPI PUSH2 0x1C07 PUSH2 0x20CA JUMP JUMPDEST JUMPDEST PUSH2 0x1C42 PUSH32 0x30644E72E131A029B85045B68181585D97816A916871CA8D3C208C16D87CFD47 DUP1 PUSH2 0x1C3A JUMPI PUSH2 0x1C39 PUSH2 0x20CA JUMP JUMPDEST JUMPDEST DUP5 DUP6 MULMOD PUSH2 0x1956 JUMP JUMPDEST PUSH32 0x30644E72E131A029B85045B68181585D97816A916871CA8D3C208C16D87CFD47 DUP1 PUSH2 0x1C71 JUMPI PUSH2 0x1C70 PUSH2 0x20CA JUMP JUMPDEST JUMPDEST DUP6 DUP7 MULMOD ADDMOD DUP7 EQ ISZERO DUP1 PUSH2 0x1CE6 JUMPI POP PUSH32 0x30644E72E131A029B85045B68181585D97816A916871CA8D3C208C16D87CFD47 DUP1 PUSH2 0x1CAD JUMPI PUSH2 0x1CAC PUSH2 0x20CA JUMP JUMPDEST JUMPDEST PUSH32 0x30644E72E131A029B85045B68181585D97816A916871CA8D3C208C16D87CFD47 DUP1 PUSH2 0x1CDC JUMPI PUSH2 0x1CDB PUSH2 0x20CA JUMP JUMPDEST JUMPDEST DUP4 DUP6 MULMOD PUSH1 0x2 MULMOD DUP6 EQ ISZERO JUMPDEST ISZERO PUSH2 0x1D1D JUMPI PUSH1 0x40 MLOAD PUSH32 0x7FCDD1F400000000000000000000000000000000000000000000000000000000 DUP2 MSTORE PUSH1 0x4 ADD PUSH1 0x40 MLOAD DUP1 SWAP2 SUB SWAP1 REVERT JUMPDEST POP SWAP4 POP SWAP4 SWAP2 POP POP JUMP JUMPDEST PUSH0 PUSH0 PUSH1 0x40 MLOAD PUSH1 0x20 DUP2 MSTORE PUSH1 0x20 DUP1 DUP3 ADD MSTORE PUSH1 0x20 PUSH1 0x40 DUP3 ADD MSTORE DUP5 PUSH1 0x60 DUP3 ADD MSTORE DUP4 PUSH1 0x80 DUP3 ADD MSTORE PUSH32 0x30644E72E131A029B85045B68181585D97816A916871CA8D3C208C16D87CFD47 PUSH1 0xA0 DUP3 ADD MSTORE PUSH1 0x20 DUP2 PUSH1 0xC0 DUP4 PUSH1 0x5 GAS STATICCALL SWAP2 POP DUP1 MLOAD SWAP3 POP POP DUP1 PUSH2 0x1DB6 JUMPI PUSH1 0x40 MLOAD PUSH32 0x7FCDD1F400000000000000000000000000000000000000000000000000000000 DUP2 MSTORE PUSH1 0x4 ADD PUSH1 0x40 MLOAD DUP1 SWAP2 SUB SWAP1 REVERT JUMPDEST POP SWAP3 SWAP2 POP POP JUMP JUMPDEST PUSH0 PUSH2 0x1DE8 DUP3 PUSH32 0x30644E72E131A029B85045B68181585D97816A916871CA8D3C208C16D87CFD45 PUSH2 0x1D26 JUMP JUMPDEST SWAP1 POP PUSH1 0x1 PUSH32 0x30644E72E131A029B85045B68181585D97816A916871CA8D3C208C16D87CFD47 DUP1 PUSH2 0x1E1B JUMPI PUSH2 0x1E1A PUSH2 0x20CA JUMP JUMPDEST JUMPDEST DUP3 DUP5 MULMOD EQ PUSH2 0x1E55 JUMPI PUSH1 0x40 MLOAD PUSH32 0x7FCDD1F400000000000000000000000000000000000000000000000000000000 DUP2 MSTORE PUSH1 0x4 ADD PUSH1 0x40 MLOAD DUP1 SWAP2 SUB SWAP1 REVERT JUMPDEST SWAP2 SWAP1 POP JUMP JUMPDEST PUSH1 0x40 MLOAD DUP1 PUSH1 0x80 ADD PUSH1 0x40 MSTORE DUP1 PUSH1 0x4 SWAP1 PUSH1 0x20 DUP3 MUL DUP1 CALLDATASIZE DUP4 CALLDATACOPY DUP1 DUP3 ADD SWAP2 POP POP SWAP1 POP POP SWAP1 JUMP JUMPDEST PUSH1 0x40 MLOAD DUP1 PUSH2 0x300 ADD PUSH1 0x40 MSTORE DUP1 PUSH1 0x18 SWAP1 PUSH1 0x20 DUP3 MUL DUP1 CALLDATASIZE DUP4 CALLDATACOPY DUP1 DUP3 ADD SWAP2 POP POP SWAP1 POP POP SWAP1 JUMP JUMPDEST PUSH1 0x40 MLOAD DUP1 PUSH1 0x20 ADD PUSH1 0x40 MSTORE DUP1 PUSH1 0x1 SWAP1 PUSH1 0x20 DUP3 MUL DUP1 CALLDATASIZE DUP4 CALLDATACOPY DUP1 DUP3 ADD SWAP2 POP POP SWAP1 POP POP SWAP1 JUMP JUMPDEST PUSH0 PUSH0 REVERT JUMPDEST PUSH0 PUSH0 REVERT JUMPDEST PUSH0 DUP2 SWAP1 POP DUP3 PUSH1 0x20 PUSH1 0x8 MUL DUP3 ADD GT ISZERO PUSH2 0x1EE4 JUMPI PUSH2 0x1EE3 PUSH2 0x1EC5 JUMP JUMPDEST JUMPDEST SWAP3 SWAP2 POP POP JUMP JUMPDEST PUSH0 PUSH2 0x100 DUP3 DUP5 SUB SLT ISZERO PUSH2 0x1F00 JUMPI PUSH2 0x1EFF PUSH2 0x1EC1 JUMP JUMPDEST JUMPDEST PUSH0 PUSH2 0x1F0D DUP5 DUP3 DUP6 ADD PUSH2 0x1EC9 JUMP JUMPDEST SWAP2 POP POP SWAP3 SWAP2 POP POP JUMP JUMPDEST PUSH0 PUSH1 0x4 SWAP1 POP SWAP2 SWAP1 POP JUMP JUMPDEST PUSH0 DUP2 SWAP1 POP SWAP3 SWAP2 POP POP JUMP JUMPDEST PUSH0 DUP2 SWAP1 POP SWAP2 SWAP1 POP JUMP JUMPDEST PUSH0 DUP2 SWAP1 POP SWAP2 SWAP1 POP JUMP JUMPDEST PUSH2 0x1F45 DUP2 PUSH2 0x1F33 JUMP JUMPDEST DUP3 MSTORE POP POP JUMP JUMPDEST PUSH0 PUSH2 0x1F56 DUP4 DUP4 PUSH2 0x1F3C JUMP JUMPDEST PUSH1 0x20 DUP4 ADD SWAP1 POP SWAP3 SWAP2 POP POP JUMP JUMPDEST PUSH0 PUSH1 0x20 DUP3 ADD SWAP1 POP SWAP2 SWAP1 POP JUMP JUMPDEST PUSH2 0x1F77 DUP2 PUSH2 0x1F16 JUMP JUMPDEST PUSH2 0x1F81 DUP2 DUP5 PUSH2 0x1F20 JUMP JUMPDEST SWAP3 POP PUSH2 0x1F8C DUP3 PUSH2 0x1F2A JUMP JUMPDEST DUP1 PUSH0 JUMPDEST DUP4 DUP2 LT ISZERO PUSH2 0x1FBC JUMPI DUP2 MLOAD PUSH2 0x1FA3 DUP8 DUP3 PUSH2 0x1F4B JUMP JUMPDEST SWAP7 POP PUSH2 0x1FAE DUP4 PUSH2 0x1F62 JUMP JUMPDEST SWAP3 POP POP PUSH1 0x1 DUP2 ADD SWAP1 POP PUSH2 0x1F8F JUMP JUMPDEST POP POP POP POP POP POP JUMP JUMPDEST PUSH0 PUSH1 0x80 DUP3 ADD SWAP1 POP PUSH2 0x1FD7 PUSH0 DUP4 ADD DUP5 PUSH2 0x1F6E JUMP JUMPDEST SWAP3 SWAP2 POP POP JUMP JUMPDEST PUSH0 DUP2 SWAP1 POP DUP3 PUSH1 0x20 PUSH1 0x2 MUL DUP3 ADD GT ISZERO PUSH2 0x1FF8 JUMPI PUSH2 0x1FF7 PUSH2 0x1EC5 JUMP JUMPDEST JUMPDEST SWAP3 SWAP2 POP POP JUMP JUMPDEST PUSH0 PUSH0 PUSH2 0x140 DUP4 DUP6 SUB SLT ISZERO PUSH2 0x2015 JUMPI PUSH2 0x2014 PUSH2 0x1EC1 JUMP JUMPDEST JUMPDEST PUSH0 PUSH2 0x2022 DUP6 DUP3 DUP7 ADD PUSH2 0x1EC9 JUMP JUMPDEST SWAP3 POP POP PUSH2 0x100 PUSH2 0x2034 DUP6 DUP3 DUP7 ADD PUSH2 0x1FDD JUMP JUMPDEST SWAP2 POP POP SWAP3 POP SWAP3 SWAP1 POP JUMP JUMPDEST PUSH0 DUP2 SWAP1 POP DUP3 PUSH1 0x20 PUSH1 0x4 MUL DUP3 ADD GT ISZERO PUSH2 0x2059 JUMPI PUSH2 0x2058 PUSH2 0x1EC5 JUMP JUMPDEST JUMPDEST SWAP3 SWAP2 POP POP JUMP JUMPDEST PUSH0 PUSH0 PUSH1 0xC0 DUP4 DUP6 SUB SLT ISZERO PUSH2 0x2075 JUMPI PUSH2 0x2074 PUSH2 0x1EC1 JUMP JUMPDEST JUMPDEST PUSH0 PUSH2 0x2082 DUP6 DUP3 DUP7 ADD PUSH2 0x203E JUMP JUMPDEST SWAP3 POP POP PUSH1 0x80 PUSH2 0x2093 DUP6 DUP3 DUP7 ADD PUSH2 0x1FDD JUMP JUMPDEST SWAP2 POP POP SWAP3 POP SWAP3 SWAP1 POP JUMP JUMPDEST PUSH32 0x4E487B7100000000000000000000000000000000000000000000000000000000 PUSH0 MSTORE PUSH1 0x32 PUSH1 0x4 MSTORE PUSH1 0x24 PUSH0 REVERT JUMPDEST PUSH32 0x4E487B7100000000000000000000000000000000000000000000000000000000 PUSH0 MSTORE PUSH1 0x12 PUSH1 0x4 MSTORE PUSH1 0x24 PUSH0 REVERT JUMPDEST PUSH32 0x4E487B7100000000000000000000000000000000000000000000000000000000 PUSH0 MSTORE PUSH1 0x11 PUSH1 0x4 MSTORE PUSH1 0x24 PUSH0 REVERT JUMPDEST PUSH0 PUSH2 0x212E DUP3 PUSH2 0x1F33 JUMP JUMPDEST SWAP2 POP PUSH2 0x2139 DUP4 PUSH2 0x1F33 JUMP JUMPDEST SWAP3 POP DUP3 DUP3 SUB SWAP1 POP DUP2 DUP2 GT ISZERO PUSH2 0x2151 JUMPI PUSH2 0x2150 PUSH2 0x20F7 JUMP JUMPDEST JUMPDEST SWAP3 SWAP2 POP POP JUMP INVALID LOG2 PUSH5 0x6970667358 0x22 SLT KECCAK256 0xBC 0xA7 PUSH16 0x50E2691087C85F0CF3AF4469E373F5E6 ADDRESS 0xB8 ORIGIN 0xAE PUSH1 0x58 EXP RETF CALLDATASIZE 0xC5 0xF 0xED 0xB7 PUSH5 0x736F6C6343 STOP ADDMOD 0x21 STOP CALLER "
		},
		"gasEstimates": {
			"creation": {
				"codeDepositCost": "1717800",
				"executionCost": "1804",
				"totalCost": "1719604"
			},
			"external": {
				"Verify(uint256[8],uint256[2])": "infinite",
				"compressProof(uint256[8])": "infinite",
				"verifyCompressedProof(uint256[4],uint256[2])": "infinite"
			},
			"internal": {
				"compress_g1(uint256,uint256)": "infinite",
				"compress_g2(uint256,uint256,uint256,uint256)": "infinite",
				"decompress_g1(uint256)": "infinite",
				"decompress_g2(uint256,uint256)": "infinite",
				"exp(uint256,uint256)": "infinite",
				"invert_Fp(uint256)": "infinite",
				"isSquare_Fp(uint256)": "infinite",
				"negate(uint256)": "83",
				"publicInputMSM(uint256[2] calldata)": "infinite",
				"sqrt_Fp(uint256)": "infinite",
				"sqrt_Fp2(uint256,uint256,bool)": "infinite"
			}
		},
		"methodIdentifiers": {
			"Verify(uint256[8],uint256[2])": "eddf243c",
			"compressProof(uint256[8])": "44f63692",
			"verifyCompressedProof(uint256[4],uint256[2])": "f11817b2"
		}
	},
	"abi": [
		{
			"inputs": [],
			"name": "ProofInvalid",
			"type": "error"
		},
		{
			"inputs": [],
			"name": "PublicInputNotInField",
			"type": "error"
		},
		{
			"inputs": [
				{
					"internalType": "uint256[8]",
					"name": "proof",
					"type": "uint256[8]"
				},
				{
					"internalType": "uint256[2]",
					"name": "input",
					"type": "uint256[2]"
				}
			],
			"name": "Verify",
			"outputs": [],
			"stateMutability": "view",
			"type": "function"
		},
		{
			"inputs": [
				{
					"internalType": "uint256[8]",
					"name": "proof",
					"type": "uint256[8]"
				}
			],
			"name": "compressProof",
			"outputs": [
				{
					"internalType": "uint256[4]",
					"name": "compressed",
					"type": "uint256[4]"
				}
			],
			"stateMutability": "view",
			"type": "function"
		},
		{
			"inputs": [
				{
					"internalType": "uint256[4]",
					"name": "compressedProof",
					"type": "uint256[4]"
				},
				{
					"internalType": "uint256[2]",
					"name": "input",
					"type": "uint256[2]"
				}
			],
			"name": "verifyCompressedProof",
			"outputs": [],
			"stateMutability": "view",
			"type": "function"
		}
	]
}