{
	"data": {
		"bytecode": {
			"linkReferences": {},
			"object": "6080604052348015600e575f5ffd5b50612b6e8061001c5f395ff3fe608060405234801561000f575f5ffd5b506004361061007b575f3560e01c80636b61d8e7116100595780636b61d8e7146100e9578063eddf243c14610119578063f11817b214610135578063ffa1ad74146101515761007b565b80632a5104361461007f57806341493c601461009d57806344f63692146100b9575b5f5ffd5b61008761016f565b604051610094919061223c565b60405180910390f35b6100b760048036038101906100b291906122f1565b610198565b005b6100d360048036038101906100ce91906123a3565b610332565b6040516100e0919061247d565b60405180910390f35b61010360048036038101906100fe9190612496565b610491565b604051610110919061223c565b60405180910390f35b610133600480360381019061012e9190612502565b61050e565b005b61014f600480360381019061014a9190612563565b6107a8565b005b610159610d63565b6040516101669190612611565b60405180910390f35b5f7fa4594c59bbc142f3b81c3ecb7f50a7c34bc9af7c4c444b5d48b795427e2859135f1b905090565b5f82825f906004926101ac93929190612639565b906101b791906126b4565b90505f6101c261016f565b9050807bffffffffffffffffffffffffffffffffffffffffffffffffffffffff1916827bffffffffffffffffffffffffffffffffffffffffffffffffffffffff1916146102485781816040517f988066a100000000000000000000000000000000000000000000000000000000815260040161023f929190612721565b60405180910390fd5b5f6102538787610491565b905061025d61219b565b885f1c815f6002811061027357610272612748565b5b602002018181525050815f1c8160016002811061029357610292612748565b5b6020020181815250505f868660049080926102b093929190612639565b8101906102bd91906128c5565b90503073ffffffffffffffffffffffffffffffffffffffff1663eddf243c82846040518363ffffffff1660e01b81526004016102fa9291906129ef565b5f6040518083038186803b158015610310575f5ffd5b505afa158015610322573d5f5f3e3d5ffd5b5050505050505050505050505050565b61033a6121bd565b610373825f600881106103505761034f612748565b5b60200201358360016008811061036957610368612748565b5b6020020135610da0565b815f6004811061038657610385612748565b5b6020020181815250506103fb826003600881106103a6576103a5612748565b5b6020020135836002600881106103bf576103be612748565b5b6020020135846005600881106103d8576103d7612748565b5b6020020135856004600881106103f1576103f0612748565b5b6020020135610f4e565b8260026004811061040f5761040e612748565b5b602002018360016004811061042757610426612748565b5b602002018281525082815250505061046f8260066008811061044c5761044b612748565b5b60200201358360076008811061046557610464612748565b5b6020020135610da0565b8160036004811061048357610482612748565b5b602002018181525050919050565b5f7f1fffffffffffffffffffffffffffffffffffffffffffffffffffffffffffffff5f1b600284846040516104c7929190612a54565b602060405180830381855afa1580156104e2573d5f5f3e3d5ffd5b5050506040513d601f19601f820116820180604052508101906105059190612a80565b16905092915050565b5f5f6105198361151a565b915091505f6040516101008682377f1cc7cb8de715675f21f01ecc9b46d236e0865e0cc020024521998269845f74e66101008201527f03ff41f4ba0c37fe2caf27354d28e4b8f83d3b76777a63b327d736bffb0122ed6101208201527f01909cd7827e0278e6b60843a4abc7b111d7f8b2725cd5902a6b20da7a2938fb6101408201527f192bd3274441670227b4f69a44005b8711266e474227c6439ca25ca8e1ec1fc26101608201527f2d4d9aa7e302d9df41749d5507949d05dbea33fbb16c643b22f599a2be6df2e26101808201527f14bedd503c37ceb061d8ec60209fe345ce89830a19230301f076caff004d19266101a08201527f0967032fcbf776d1afc985f88877f182d38480a653f2decaa9794cbc3bf3060c6101c08201527f0e187847ad4c798374d0d6732bf501847dd68bc0e071241e0213bc7fc13db7ab6101e08201527e1752a100a72fdf1e5a5d6ea841cc20ec838bccfcf7bd559e79f1c9c759b6a06102008201527f192a8cc13cd9f762871f21e43451c6ca9eeab2cb2987c4e366a185c25dac2e7f61022082015283610240820152826102608201527f198e9393920d483a7260bfb731fb5d25f1aa493335a9e71297e485b7aef312c26102808201527f1800deef121f1e76426a00665e5c4479674322d4f75edadd46debd5cd992f6ed6102a08201527f275dc4a288d1afb3cbb1ac09187524c7db36395df7be3b99e673b13a075a65ec6102c08201527f1d9befcd05a5323e6da4d435f3b617cdb3af83285c2df711ef39c01571827f9d6102e08201526020816103008360085afa915080518216915050806107a1576040517f7fcdd1f400000000000000000000000000000000000000000000000000000000815260040160405180910390fd5b5050505050565b6107b06121df565b5f5f6107d2855f600481106107c8576107c7612748565b5b60200201356116eb565b915091505f5f5f5f610814896002600481106107f1576107f0612748565b5b60200201358a60016004811061080a57610809612748565b5b6020020135611820565b93509350935093505f5f61083f8b60036004811061083557610834612748565b5b60200201356116eb565b915091505f5f61084e8c61151a565b91509150898b5f6018811061086657610865612748565b5b602002018181525050888b60016018811061088457610883612748565b5b602002018181525050868b6002601881106108a2576108a1612748565b5b602002018181525050878b6003601881106108c0576108bf612748565b5b602002018181525050848b6004601881106108de576108dd612748565b5b602002018181525050858b6005601881106108fc576108fb612748565b5b602002018181525050838b60066018811061091a57610919612748565b5b602002018181525050828b60076018811061093857610937612748565b5b6020020181815250507f1cc7cb8de715675f21f01ecc9b46d236e0865e0cc020024521998269845f74e68b60086018811061097657610975612748565b5b6020020181815250507f03ff41f4ba0c37fe2caf27354d28e4b8f83d3b76777a63b327d736bffb0122ed8b6009601881106109b4576109b3612748565b5b6020020181815250507f01909cd7827e0278e6b60843a4abc7b111d7f8b2725cd5902a6b20da7a2938fb8b600a601881106109f2576109f1612748565b5b6020020181815250507f192bd3274441670227b4f69a44005b8711266e474227c6439ca25ca8e1ec1fc28b600b60188110610a3057610a2f612748565b5b6020020181815250507f2d4d9aa7e302d9df41749d5507949d05dbea33fbb16c643b22f599a2be6df2e28b600c60188110610a6e57610a6d612748565b5b6020020181815250507f14bedd503c37ceb061d8ec60209fe345ce89830a19230301f076caff004d19268b600d60188110610aac57610aab612748565b5b6020020181815250507f0967032fcbf776d1afc985f88877f182d38480a653f2decaa9794cbc3bf3060c8b600e60188110610aea57610ae9612748565b5b6020020181815250507f0e187847ad4c798374d0d6732bf501847dd68bc0e071241e0213bc7fc13db7ab8b600f60188110610b2857610b27612748565b5b6020020181815250507e1752a100a72fdf1e5a5d6ea841cc20ec838bccfcf7bd559e79f1c9c759b6a08b601060188110610b6557610b64612748565b5b6020020181815250507f192a8cc13cd9f762871f21e43451c6ca9eeab2cb2987c4e366a185c25dac2e7f8b601160188110610ba357610ba2612748565b5b602002018181525050818b601260188110610bc157610bc0612748565b5b602002018181525050808b601360188110610bdf57610bde612748565b5b6020020181815250507f198e9393920d483a7260bfb731fb5d25f1aa493335a9e71297e485b7aef312c28b601460188110610c1d57610c1c612748565b5b6020020181815250507f1800deef121f1e76426a00665e5c4479674322d4f75edadd46debd5cd992f6ed8b601560188110610c5b57610c5a612748565b5b6020020181815250507f275dc4a288d1afb3cbb1ac09187524c7db36395df7be3b99e673b13a075a65ec8b601660188110610c9957610c98612748565b5b6020020181815250507f1d9befcd05a5323e6da4d435f3b617cdb3af83285c2df711ef39c01571827f9d8b601760188110610cd757610cd6612748565b5b6020020181815250505f610ce9612202565b6020816103008f60085afa9150811580610d1b57506001815f60018110610d1357610d12612748565b5b602002015114155b15610d52576040517f7fcdd1f400000000000000000000000000000000000000000000000000000000815260040160405180910390fd5b505050505050505050505050505050565b60606040518060400160405280600681526020017f76352e302e300000000000000000000000000000000000000000000000000000815250905090565b5f7f30644e72e131a029b85045b68181585d97816a916871ca8d3c208c16d87cfd4783101580610df057507f30644e72e131a029b85045b68181585d97816a916871ca8d3c208c16d87cfd478210155b15610e27576040517f7fcdd1f400000000000000000000000000000000000000000000000000000000815260040160405180910390fd5b5f83148015610e3557505f82145b15610e42575f9050610f48565b5f610ee07f30644e72e131a029b85045b68181585d97816a916871ca8d3c208c16d87cfd4780610e7557610e74612aab565b5b60037f30644e72e131a029b85045b68181585d97816a916871ca8d3c208c16d87cfd4780610ea657610ea5612aab565b5b877f30644e72e131a029b85045b68181585d97816a916871ca8d3c208c16d87cfd4780610ed657610ed5612aab565b5b898a090908611bfb565b9050808303610ef8575f600185901b17915050610f48565b610f0181611c97565b8303610f165760018085901b17915050610f48565b6040517f7fcdd1f400000000000000000000000000000000000000000000000000000000815260040160405180910390fd5b92915050565b5f5f7f30644e72e131a029b85045b68181585d97816a916871ca8d3c208c16d87cfd4786101580610f9f57507f30644e72e131a029b85045b68181585d97816a916871ca8d3c208c16d87cfd478510155b80610fca57507f30644e72e131a029b85045b68181585d97816a916871ca8d3c208c16d87cfd478410155b80610ff557507f30644e72e131a029b85045b68181585d97816a916871ca8d3c208c16d87cfd478310155b1561102c576040517f7fcdd1f400000000000000000000000000000000000000000000000000000000815260040160405180910390fd5b5f8385878917171703611044575f5f91509150611511565b5f5f5f7f30644e72e131a029b85045b68181585d97816a916871ca8d3c208c16d87cfd478061107657611075612aab565b5b60037f30644e72e131a029b85045b68181585d97816a916871ca8d3c208c16d87cfd476110a39190612b05565b7f30644e72e131a029b85045b68181585d97816a916871ca8d3c208c16d87cfd47806110d2576110d1612aab565b5b8a8c090990505f7f30644e72e131a029b85045b68181585d97816a916871ca8d3c208c16d87cfd478061110857611107612aab565b5b8a7f30644e72e131a029b85045b68181585d97816a916871ca8d3c208c16d87cfd478061113857611137612aab565b5b8c8d090990505f7f30644e72e131a029b85045b68181585d97816a916871ca8d3c208c16d87cfd478061116e5761116d612aab565b5b8a7f30644e72e131a029b85045b68181585d97816a916871ca8d3c208c16d87cfd478061119e5761119d612aab565b5b8c8d090990507f30644e72e131a029b85045b68181585d97816a916871ca8d3c208c16d87cfd47806111d3576111d2612aab565b5b7f30644e72e131a029b85045b68181585d97816a916871ca8d3c208c16d87cfd478061120257611201612aab565b5b7f30644e72e131a029b85045b68181585d97816a916871ca8d3c208c16d87cfd478061123157611230612aab565b5b8c860984087f2b149d40ceb8aaae81be18991be06ac3b5b4c5e559dbefa33267e6dc24a138e50894506113167f30644e72e131a029b85045b68181585d97816a916871ca8d3c208c16d87cfd478061128c5761128b612aab565b5b7f30644e72e131a029b85045b68181585d97816a916871ca8d3c208c16d87cfd47806112bb576112ba612aab565b5b7f30644e72e131a029b85045b68181585d97816a916871ca8d3c208c16d87cfd47806112ea576112e9612aab565b5b8e870984087f2fcd3ac2a640a154eb23960892a85a68f031ca0c8344b23a577dcf1052b9e77508611c97565b93505050505f5f6113b97f30644e72e131a029b85045b68181585d97816a916871ca8d3c208c16d87cfd478061134f5761134e612aab565b5b7f30644e72e131a029b85045b68181585d97816a916871ca8d3c208c16d87cfd478061137e5761137d612aab565b5b8586097f30644e72e131a029b85045b68181585d97816a916871ca8d3c208c16d87cfd47806113b0576113af612aab565b5b87880908611bfb565b90506114467f30644e72e131a029b85045b68181585d97816a916871ca8d3c208c16d87cfd47806113ed576113ec612aab565b5b7f183227397098d014dc2822db40c0ac2ecbc0b548b438e5469e10460b6c3e7ea47f30644e72e131a029b85045b68181585d97816a916871ca8d3c208c16d87cfd478061143d5761143c612aab565b5b84880809611d02565b15915050611455838383611d6c565b8093508194505050828714801561146b57508186145b15611493575f8161147c575f61147f565b60025b60ff1660028b901b1717945087935061150d565b61149c83611c97565b871480156114b157506114ae82611c97565b86145b156114da576001816114c3575f6114c6565b60025b60ff1660028b901b1717945087935061150c565b6040517f7fcdd1f400000000000000000000000000000000000000000000000000000000815260040160405180910390fd5b5b5050505b94509492505050565b5f5f5f60019050604051604081015f7f26091e1cafb0ad8a4ea0a694cd3743ebf524779233db734c451d28b58aa9758e83527e9ff50a6b8b11c3ca6fdb2690a124f8ce25489fefa65a3e782e7ba70b66690e60208401527f061c3fd0fd3da25d2607c227d090cca750ed36c6ec878755e537c1c48951fb4c82527f0fa17ae9c2033379df7b5c65eff0e107055e9a273e6119a212dd09eb517072196020830152863590508060408301527f30644e72e131a029b85045b68181585d2833e84879b9709143e1f593f000000181108416935060408260608460075afa8416935060408360808560065afa841693507f04eab241388a79817fe0e0e2ead0b2ec4ffdec51a16028dee020634fd129e71c82527f07236256d21c60d02f0bdbf95cff83e03ea9e16fca56b18d5544b0889a65c1f56020830152602087013590508060408301527f30644e72e131a029b85045b68181585d2833e84879b9709143e1f593f000000181108416935060408260608460075afa8416935060408360808560065afa841693508251955060208301519450505050806116e5576040517fa54f8e2700000000000000000000000000000000000000000000000000000000815260040160405180910390fd5b50915091565b5f5f5f83036116ff575f5f9150915061181b565b5f6001808516149050600184901c92507f30644e72e131a029b85045b68181585d97816a916871ca8d3c208c16d87cfd478310611768576040517f7fcdd1f400000000000000000000000000000000000000000000000000000000815260040160405180910390fd5b6118057f30644e72e131a029b85045b68181585d97816a916871ca8d3c208c16d87cfd478061179a57611799612aab565b5b60037f30644e72e131a029b85045b68181585d97816a916871ca8d3c208c16d87cfd47806117cb576117ca612aab565b5b867f30644e72e131a029b85045b68181585d97816a916871ca8d3c208c16d87cfd47806117fb576117fa612aab565b5b8889090908611bfb565b915080156118195761181682611c97565b91505b505b915091565b5f5f5f5f5f8614801561183257505f85145b15611848575f5f5f5f9350935093509350611bf2565b5f60018088161490505f6002808916149050600288901c95508694507f30644e72e131a029b85045b68181585d97816a916871ca8d3c208c16d87cfd47861015806118b357507f30644e72e131a029b85045b68181585d97816a916871ca8d3c208c16d87cfd478510155b156118ea576040517f7fcdd1f400000000000000000000000000000000000000000000000000000000815260040160405180910390fd5b5f7f30644e72e131a029b85045b68181585d97816a916871ca8d3c208c16d87cfd478061191a57611919612aab565b5b60037f30644e72e131a029b85045b68181585d97816a916871ca8d3c208c16d87cfd476119479190612b05565b7f30644e72e131a029b85045b68181585d97816a916871ca8d3c208c16d87cfd478061197657611975612aab565b5b888a090990505f7f30644e72e131a029b85045b68181585d97816a916871ca8d3c208c16d87cfd47806119ac576119ab612aab565b5b887f30644e72e131a029b85045b68181585d97816a916871ca8d3c208c16d87cfd47806119dc576119db612aab565b5b8a8b090990505f7f30644e72e131a029b85045b68181585d97816a916871ca8d3c208c16d87cfd4780611a1257611a11612aab565b5b887f30644e72e131a029b85045b68181585d97816a916871ca8d3c208c16d87cfd4780611a4257611a41612aab565b5b8a8b090990507f30644e72e131a029b85045b68181585d97816a916871ca8d3c208c16d87cfd4780611a7757611a76612aab565b5b7f30644e72e131a029b85045b68181585d97816a916871ca8d3c208c16d87cfd4780611aa657611aa5612aab565b5b7f30644e72e131a029b85045b68181585d97816a916871ca8d3c208c16d87cfd4780611ad557611ad4612aab565b5b8a860984087f2b149d40ceb8aaae81be18991be06ac3b5b4c5e559dbefa33267e6dc24a138e5089650611bba7f30644e72e131a029b85045b68181585d97816a916871ca8d3c208c16d87cfd4780611b3057611b2f612aab565b5b7f30644e72e131a029b85045b68181585d97816a916871ca8d3c208c16d87cfd4780611b5f57611b5e612aab565b5b7f30644e72e131a029b85045b68181585d97816a916871ca8d3c208c16d87cfd4780611b8e57611b8d612aab565b5b8c870984087f2fcd3ac2a640a154eb23960892a85a68f031ca0c8344b23a577dcf1052b9e77508611c97565b9550611bc7878786611d6c565b80975081985050508415611bec57611bde87611c97565b9650611be986611c97565b95505b50505050505b92959194509250565b5f611c26827f0c19139cb84c680a6e14116da060561765e05aa45a1c72a34f082305b61f3f52612067565b9050817f30644e72e131a029b85045b68181585d97816a916871ca8d3c208c16d87cfd4780611c5857611c57612aab565b5b82830914611c92576040517f7fcdd1f400000000000000000000000000000000000000000000000000000000815260040160405180910390fd5b919050565b5f7f30644e72e131a029b85045b68181585d97816a916871ca8d3c208c16d87cfd47808381611cc957611cc8612aab565b5b067f30644e72e131a029b85045b68181585d97816a916871ca8d3c208c16d87cfd470381611cfa57611cf9612aab565b5b069050919050565b5f5f611d2e837f0c19139cb84c680a6e14116da060561765e05aa45a1c72a34f082305b61f3f52612067565b9050827f30644e72e131a029b85045b68181585d97816a916871ca8d3c208c16d87cfd4780611d6057611d5f612aab565b5b82830914915050919050565b5f5f5f611e0b7f30644e72e131a029b85045b68181585d97816a916871ca8d3c208c16d87cfd4780611da157611da0612aab565b5b7f30644e72e131a029b85045b68181585d97816a916871ca8d3c208c16d87cfd4780611dd057611dcf612aab565b5b8788097f30644e72e131a029b85045b68181585d97816a916871ca8d3c208c16d87cfd4780611e0257611e01612aab565b5b898a0908611bfb565b90508315611e1f57611e1c81611c97565b90505b611eaa7f30644e72e131a029b85045b68181585d97816a916871ca8d3c208c16d87cfd4780611e5157611e50612aab565b5b7f183227397098d014dc2822db40c0ac2ecbc0b548b438e5469e10460b6c3e7ea47f30644e72e131a029b85045b68181585d97816a916871ca8d3c208c16d87cfd4780611ea157611ea0612aab565b5b848a0809611bfb565b92507f30644e72e131a029b85045b68181585d97816a916871ca8d3c208c16d87cfd4780611edb57611eda612aab565b5b611f167f30644e72e131a029b85045b68181585d97816a916871ca8d3c208c16d87cfd4780611f0d57611f0c612aab565b5b600286096120fe565b860991507f30644e72e131a029b85045b68181585d97816a916871ca8d3c208c16d87cfd4780611f4957611f48612aab565b5b611f837f30644e72e131a029b85045b68181585d97816a916871ca8d3c208c16d87cfd4780611f7b57611f7a612aab565b5b848509611c97565b7f30644e72e131a029b85045b68181585d97816a916871ca8d3c208c16d87cfd4780611fb257611fb1612aab565b5b858609088614158061202757507f30644e72e131a029b85045b68181585d97816a916871ca8d3c208c16d87cfd4780611fee57611fed612aab565b5b7f30644e72e131a029b85045b68181585d97816a916871ca8d3c208c16d87cfd478061201d5761201c612aab565b5b8385096002098514155b1561205e576040517f7fcdd1f400000000000000000000000000000000000000000000000000000000815260040160405180910390fd5b50935093915050565b5f5f60405160208152602080820152602060408201528460608201528360808201527f30644e72e131a029b85045b68181585d97816a916871ca8d3c208c16d87cfd4760a082015260208160c08360055afa91508051925050806120f7576040517f7fcdd1f400000000000000000000000000000000000000000000000000000000815260040160405180910390fd5b5092915050565b5f612129827f30644e72e131a029b85045b68181585d97816a916871ca8d3c208c16d87cfd45612067565b905060017f30644e72e131a029b85045b68181585d97816a916871ca8d3c208c16d87cfd478061215c5761215b612aab565b5b82840914612196576040517f7fcdd1f400000000000000000000000000000000000000000000000000000000815260040160405180910390fd5b919050565b6040518060400160405280600290602082028036833780820191505090505090565b6040518060800160405280600490602082028036833780820191505090505090565b604051806103000160405280601890602082028036833780820191505090505090565b6040518060200160405280600190602082028036833780820191505090505090565b5f819050919050565b61223681612224565b82525050565b5f60208201905061224f5f83018461222d565b92915050565b5f604051905090565b5f5ffd5b5f5ffd5b61226f81612224565b8114612279575f5ffd5b50565b5f8135905061228a81612266565b92915050565b5f5ffd5b5f5ffd5b5f5ffd5b5f5f83601f8401126122b1576122b0612290565b5b8235905067ffffffffffffffff8111156122ce576122cd612294565b5b6020830191508360018202830111156122ea576122e9612298565b5b9250929050565b5f5f5f5f5f6060868803121561230a5761230961225e565b5b5f6123178882890161227c565b955050602086013567ffffffffffffffff81111561233857612337612262565b5b6123448882890161229c565b9450945050604086013567ffffffffffffffff81111561236757612366612262565b5b6123738882890161229c565b92509250509295509295909350565b5f8190508260206008028201111561239d5761239c612298565b5b92915050565b5f61010082840312156123b9576123b861225e565b5b5f6123c684828501612382565b91505092915050565b5f60049050919050565b5f81905092915050565b5f819050919050565b5f819050919050565b6123fe816123ec565b82525050565b5f61240f83836123f5565b60208301905092915050565b5f602082019050919050565b612430816123cf565b61243a81846123d9565b9250612445826123e3565b805f5b8381101561247557815161245c8782612404565b96506124678361241b565b925050600181019050612448565b505050505050565b5f6080820190506124905f830184612427565b92915050565b5f5f602083850312156124ac576124ab61225e565b5b5f83013567ffffffffffffffff8111156124c9576124c8612262565b5b6124d58582860161229c565b92509250509250929050565b5f819050826020600202820111156124fc576124fb612298565b5b92915050565b5f5f61014083850312156125195761251861225e565b5b5f61252685828601612382565b925050610100612538858286016124e1565b9150509250929050565b5f8190508260206004028201111561255d5761255c612298565b5b92915050565b5f5f60c083850312156125795761257861225e565b5b5f61258685828601612542565b9250506080612597858286016124e1565b9150509250929050565b5f81519050919050565b5f82825260208201905092915050565b8281835e5f83830152505050565b5f601f19601f8301169050919050565b5f6125e3826125a1565b6125ed81856125ab565b93506125fd8185602086016125bb565b612606816125c9565b840191505092915050565b5f6020820190508181035f83015261262981846125d9565b905092915050565b5f5ffd5b5f5ffd5b5f5f8585111561264c5761264b612631565b5b8386111561265d5761265c612635565b5b6001850283019150848603905094509492505050565b5f82905092915050565b5f7fffffffff0000000000000000000000000000000000000000000000000000000082169050919050565b5f82821b905092915050565b5f6126bf8383612673565b826126ca813561267d565b9250600482101561270a576127057fffffffff00000000000000000000000000000000000000000000000000000000836004036008026126a8565b831692505b505092915050565b61271b8161267d565b82525050565b5f6040820190506127345f830185612712565b6127416020830184612712565b9392505050565b7f4e487b71000000000000000000000000000000000000000000000000000000005f52603260045260245ffd5b7f4e487b71000000000000000000000000000000000000000000000000000000005f52604160045260245ffd5b6127ab826125c9565b810181811067ffffffffffffffff821117156127ca576127c9612775565b5b80604052505050565b5f6127dc612255565b90506127e882826127a2565b919050565b5f67ffffffffffffffff82111561280757612806612775565b5b602082029050919050565b61281b816123ec565b8114612825575f5ffd5b50565b5f8135905061283681612812565b92915050565b5f61284e612849846127ed565b6127d3565b9050806020840283018581111561286857612867612298565b5b835b81811015612891578061287d8882612828565b84526020840193505060208101905061286a565b5050509392505050565b5f82601f8301126128af576128ae612290565b5b60086128bc84828561283c565b91505092915050565b5f61010082840312156128db576128da61225e565b5b5f6128e88482850161289b565b91505092915050565b5f60089050919050565b5f81905092915050565b5f819050919050565b5f602082019050919050565b612923816128f1565b61292d81846128fb565b925061293882612905565b805f5b8381101561296857815161294f8782612404565b965061295a8361290e565b92505060018101905061293b565b505050505050565b5f60029050919050565b5f81905092915050565b5f819050919050565b5f602082019050919050565b6129a281612970565b6129ac818461297a565b92506129b782612984565b805f5b838110156129e75781516129ce8782612404565b96506129d98361298d565b9250506001810190506129ba565b505050505050565b5f61014082019050612a035f83018561291a565b612a11610100830184612999565b9392505050565b5f81905092915050565b828183375f83830152505050565b5f612a3b8385612a18565b9350612a48838584612a22565b82840190509392505050565b5f612a60828486612a30565b91508190509392505050565b5f81519050612a7a81612266565b92915050565b5f60208284031215612a9557612a9461225e565b5b5f612aa284828501612a6c565b91505092915050565b7f4e487b71000000000000000000000000000000000000000000000000000000005f52601260045260245ffd5b7f4e487b71000000000000000000000000000000000000000000000000000000005f52601160045260245ffd5b5f612b0f826123ec565b9150612b1a836123ec565b9250828203905081811115612b3257612b31612ad8565b5b9291505056fea264697066735822122006ec72ea95bb94241f8ca5b761ff86a736b956a54518f59c337192c12da72a8164736f6c634300081e0033",
			"opcodes": "PUSH1 0x80 PUSH1 0x40 MSTORE CALLVALUE DUP1 ISZERO PUSH1 0xE JUMPI PUSH0 PUSH0 REVERT JUMPDEST POP PUSH2 0x2B6E DUP1 PUSH2 0x1C PUSH0 CODECOPY PUSH0 RETURN INVALID PUSH1 0x80 PUSH1 0x40 MSTORE CALLVALUE DUP1 ISZERO PUSH2 0xF JUMPI PUSH0 PUSH0 REVERT JUMPDEST POP PUSH1 0x4 CALLDATASIZE LT PUSH2 0x7B JUMPI PUSH0 CALLDATALOAD PUSH1 0xE0 SHR DUP1 PUSH4 0x6B61D8E7 GT PUSH2 0x59 JUMPI DUP1 PUSH4 0x6B61D8E7 EQ PUSH2 0xE9 JUMPI DUP1 PUSH4 0xEDDF243C EQ PUSH2 0x119 JUMPI DUP1 PUSH4 0xF11817B2 EQ PUSH2 0x135 JUMPI DUP1 PUSH4 0xFFA1AD74 EQ PUSH2 0x151 JUMPI PUSH2 0x7B JUMP JUMPDEST DUP1 PUSH4 0x2A510436 EQ PUSH2 0x7F JUMPI DUP1 PUSH4 0x41493C60 EQ PUSH2 0x9D JUMPI DUP1 PUSH4 0x44F63692 EQ PUSH2 0xB9 JUMPI JUMPDEST PUSH0 PUSH0 REVERT JUMPDEST PUSH2 0x87 PUSH2 0x16F JUMP JUMPDEST PUSH1 0x40 MLOAD PUSH2 0x94 SWAP2 SWAP1 PUSH2 0x223C JUMP JUMPDEST PUSH1 0x40 MLOAD DUP1 SWAP2 SUB SWAP1 RETURN JUMPDEST PUSH2 0xB7 PUSH1 0x4 DUP1 CALLDATASIZE SUB DUP2 ADD SWAP1 PUSH2 0xB2 SWAP2 SWAP1 PUSH2 0x22F1 JUMP JUMPDEST PUSH2 0x198 JUMP JUMPDEST STOP JUMPDEST PUSH2 0xD3 PUSH1 0x4 DUP1 CALLDATASIZE SUB DUP2 ADD SWAP1 PUSH2 0xCE SWAP2 SWAP1 PUSH2 0x23A3 JUMP JUMPDEST PUSH2 0x332 JUMP JUMPDEST PUSH1 0x40 MLOAD PUSH2 0xE0 SWAP2 SWAP1 PUSH2 0x247D JUMP JUMPDEST PUSH1 0x40 MLOAD DUP1 SWAP2 SUB SWAP1 RETURN JUMPDEST PUSH2 0x103 PUSH1 0x4 DUP1 CALLDATASIZE SUB DUP2 ADD SWAP1 PUSH2 0xFE SWAP2 SWAP1 PUSH2 0x2496 JUMP JUMPDEST PUSH2 0x491 JUMP JUMPDEST PUSH1 0x40 MLOAD PUSH2 0x110 SWAP2 SWAP1 PUSH2 0x223C JUMP JUMPDEST PUSH1 0x40 MLOAD DUP1 SWAP2 SUB SWAP1 RETURN JUMPDEST PUSH2 0x133 PUSH1 0x4 DUP1 CALLDATASIZE SUB DUP2 ADD SWAP1 PUSH2 0x12E SWAP2 SWAP1 PUSH2 0x2502 JUMP JUMPDEST PUSH2 0x50E JUMP JUMPDEST STOP JUMPDEST PUSH2 0x14F PUSH1 0x4 DUP1 CALLDATASIZE SUB DUP2 ADD SWAP1 PUSH2 0x14A SWAP2 SWAP1 PUSH2 0x2563 JUMP JUMPDEST PUSH2 0x7A8 JUMP JUMPDEST STOP JUMPDEST PUSH2 0x159 PUSH2 0xD63 JUMP JUMPDEST PUSH1 0x40 MLOAD PUSH2 0x166 SWAP2 SWAP1 PUSH2 0x2611 JUMP JUMPDEST PUSH1 0x40 MLOAD DUP1 SWAP2 SUB SWAP1 RETURN JUMPDEST PUSH0 PUSH32 0xA4594C59BBC142F3B81C3ECB7F50A7C34BC9AF7C4C444B5D48B795427E285913 PUSH0 SHL SWAP1 POP SWAP1 JUMP JUMPDEST PUSH0 DUP3 DUP3 PUSH0 SWAP1 PUSH1 0x4 SWAP3 PUSH2 0x1AC SWAP4 SWAP3 SWAP2 SWAP1 PUSH2 0x2639 JUMP JUMPDEST SWAP1 PUSH2 0x1B7 SWAP2 SWAP1 PUSH2 0x26B4 JUMP JUMPDEST SWAP1 POP PUSH0 PUSH2 0x1C2 PUSH2 0x16F JUMP JUMPDEST SWAP1 POP DUP1 PUSH28 0xFFFFFFFFFFFFFFFFFFFFFFFFFFFFFFFFFFFFFFFFFFFFFFFFFFFFFFFF NOT AND DUP3 PUSH28 0xFFFFFFFFFFFFFFFFFFFFFFFFFFFFFFFFFFFFFFFFFFFFFFFFFFFFFFFF NOT AND EQ PUSH2 0x248 JUMPI DUP2 DUP2 PUSH1 0x40 MLOAD PUSH32 0x988066A100000000000000000000000000000000000000000000000000000000 DUP2 MSTORE PUSH1 0x4 ADD PUSH2 0x23F SWAP3 SWAP2 SWAP1 PUSH2 0x2721 JUMP JUMPDEST PUSH1 0x40 MLOAD DUP1 SWAP2 SUB SWAP1 REVERT JUMPDEST PUSH0 PUSH2 0x253 DUP8 DUP8 PUSH2 0x491 JUMP JUMPDEST SWAP1 POP PUSH2 0x25D PUSH2 0x219B JUMP JUMPDEST DUP9 PUSH0 SHR DUP2 PUSH0 PUSH1 0x2 DUP2 LT PUSH2 0x273 JUMPI PUSH2 0x272 PUSH2 0x2748 JUMP JUMPDEST JUMPDEST PUSH1 0x20 MUL ADD DUP2 DUP2 MSTORE POP POP DUP2 PUSH0 SHR DUP2 PUSH1 0x1 PUSH1 0x2 DUP2 LT PUSH2 0x293 JUMPI PUSH2 0x292 PUSH2 0x2748 JUMP JUMPDEST JUMPDEST PUSH1 0x20 MUL ADD DUP2 DUP2 MSTORE POP POP PUSH0 DUP7 DUP7 PUSH1 0x4 SWAP1 DUP1 SWAP3 PUSH2 0x2B0 SWAP4 SWAP3 SWAP2 SWAP1 PUSH2 0x2639 JUMP JUMPDEST DUP2 ADD SWAP1 PUSH2 0x2BD SWAP2 SWAP1 PUSH2 0x28C5 JUMP JUMPDEST SWAP1 POP ADDRESS PUSH20 0xFFFFFFFFFFFFFFFFFFFFFFFFFFFFFFFFFFFFFFFF AND PUSH4 0xEDDF243C DUP3 DUP5 PUSH1 0x40 MLOAD DUP4 PUSH4 0xFFFFFFFF AND PUSH1 0xE0 SHL DUP2 MSTORE PUSH1 0x4 ADD PUSH2 0x2FA SWAP3 SWAP2 SWAP1 PUSH2 0x29EF JUMP JUMPDEST PUSH0 PUSH1 0x40 MLOAD DUP1 DUP4 SUB DUP2 DUP7 DUP1 EXTCODESIZE ISZERO DUP1 ISZERO PUSH2 0x310 JUMPI PUSH0 PUSH0 REVERT JUMPDEST POP GAS STATICCALL ISZERO DUP1 ISZERO PUSH2 0x322 JUMPI RETURNDATASIZE PUSH0 PUSH0 RETURNDATACOPY RETURNDATASIZE PUSH0 REVERT JUMPDEST POP POP POP POP POP POP POP POP POP POP POP POP POP POP JUMP JUMPDEST PUSH2 0x33A PUSH2 0x21BD JUMP JUMPDEST PUSH2 0x373 DUP3 PUSH0 PUSH1 0x8 DUP2 LT PUSH2 0x350 JUMPI PUSH2 0x34F PUSH2 0x2748 JUMP JUMPDEST JUMPDEST PUSH1 0x20 MUL ADD CALLDATALOAD DUP4 PUSH1 0x1 PUSH1 0x8 DUP2 LT PUSH2 0x369 JUMPI PUSH2 0x368 PUSH2 0x2748 JUMP JUMPDEST JUMPDEST PUSH1 0x20 MUL ADD CALLDATALOAD PUSH2 0xDA0 JUMP JUMPDEST DUP2 PUSH0 PUSH1 0x4 DUP2 LT PUSH2 0x386 JUMPI PUSH2 0x385 PUSH2 0x2748 JUMP JUMPDEST JUMPDEST PUSH1 0x20 MUL ADD DUP2 DUP2 MSTORE POP POP PUSH2 0x3FB DUP3 PUSH1 0x3 PUSH1 0x8 DUP2 LT PUSH2 0x3A6 JUMPI PUSH2 0x3A5 PUSH2 0x2748 JUMP JUMPDEST JUMPDEST PUSH1 0x20 MUL ADD CALLDATALOAD DUP4 PUSH1 0x2 PUSH1 0x8 DUP2 LT PUSH2 0x3BF JUMPI PUSH2 0x3BE PUSH2 0x2748 JUMP JUMPDEST JUMPDEST PUSH1 0x20 MUL ADD CALLDATALOAD DUP5 PUSH1 0x5 PUSH1 0x8 DUP2 LT PUSH2 0x3D8 JUMPI PUSH2 0x3D7 PUSH2 0x2748 JUMP JUMPDEST JUMPDEST PUSH1 0x20 MUL ADD CALLDATALOAD DUP6 PUSH1 0x4 PUSH1 0x8 DUP2 LT PUSH2 0x3F1 JUMPI PUSH2 0x3F0 PUSH2 0x2748 JUMP JUMPDEST JUMPDEST PUSH1 0x20 MUL ADD CALLDATALOAD PUSH2 0xF4E JUMP JUMPDEST DUP3 PUSH1 0x2 PUSH1 0x4 DUP2 LT PUSH2 0x40F JUMPI PUSH2 0x40E PUSH2 0x2748 JUMP JUMPDEST JUMPDEST PUSH1 0x20 MUL ADD DUP4 PUSH1 0x1 PUSH1 0x4 DUP2 LT PUSH2 0x427 JUMPI PUSH2 0x426 PUSH2 0x2748 JUMP JUMPDEST JUMPDEST PUSH1 0x20 MUL ADD DUP3 DUP2 MSTORE POP DUP3 DUP2 MSTORE POP POP POP PUSH2 0x46F DUP3 PUSH1 0x6 PUSH1 0x8 DUP2 LT PUSH2 0x44C JUMPI PUSH2 0x44B PUSH2 0x2748 JUMP JUMPDEST JUMPDEST PUSH1 0x20 MUL ADD CALLDATALOAD DUP4 PUSH1 0x7 PUSH1 0x8 DUP2 LT PUSH2 0x465 JUMPI PUSH2 0x464 PUSH2 0x2748 JUMP JUMPDEST JUMPDEST PUSH1 0x20 MUL ADD CALLDATALOAD PUSH2 0xDA0 JUMP JUMPDEST DUP2 PUSH1 0x3 PUSH1 0x4 DUP2 LT PUSH2 0x483 JUMPI PUSH2 0x482 PUSH2 0x2748 JUMP JUMPDEST JUMPDEST PUSH1 0x20 MUL ADD DUP2 DUP2 MSTORE POP POP SWAP2 SWAP1 POP JUMP JUMPDEST PUSH0 PUSH32 0x1FFFFFFFFFFFFFFFFFFFFFFFFFFFFFFFFFFFFFFFFFFFFFFFFFFFFFFFFFFFFFFF PUSH0 SHL PUSH1 0x2 DUP5 DUP5 PUSH1 0x40 MLOAD PUSH2 0x4C7 SWAP3 SWAP2 SWAP1 PUSH2 0x2A54 JUMP JUMPDEST PUSH1 0x20 PUSH1 0x40 MLOAD DUP1 DUP4 SUB DUP2 DUP6 GAS STATICCALL ISZERO DUP1 ISZERO PUSH2 0x4E2 JUMPI RETURNDATASIZE PUSH0 PUSH0 RETURNDATACOPY RETURNDATASIZE PUSH0 REVERT JUMPDEST POP POP POP PUSH1 0x40 MLOAD RETURNDATASIZE PUSH1 0x1F NOT PUSH1 0x1F DUP3 ADD AND DUP3 ADD DUP1 PUSH1 0x40 MSTORE POP DUP2 ADD SWAP1 PUSH2 0x505 SWAP2 SWAP1 PUSH2 0x2A80 JUMP JUMPDEST AND SWAP1 POP SWAP3 SWAP2 POP POP JUMP JUMPDEST PUSH0 PUSH0 PUSH2 0x519 DUP4 PUSH2 0x151A JUMP JUMPDEST SWAP2 POP SWAP2 POP PUSH0 PUSH1 0x40 MLOAD PUSH2 0x100 DUP7 DUP3 CALLDATACOPY PUSH32 0x1CC7CB8DE715675F21F01ECC9B46D236E0865E0CC020024521998269845F74E6 PUSH2 0x100 DUP3 ADD MSTORE PUSH32 0x3FF41F4BA0C37FE2CAF27354D28E4B8F83D3B76777A63B327D736BFFB0122ED PUSH2 0x120 DUP3 ADD MSTORE PUSH32 0x1909CD7827E0278E6B60843A4ABC7B111D7F8B2725CD5902A6B20DA7A2938FB PUSH2 0x140 DUP3 ADD MSTORE PUSH32 0x192BD3274441670227B4F69A44005B8711266E474227C6439CA25CA8E1EC1FC2 PUSH2 0x160 DUP3 ADD MSTORE PUSH32 0x2D4D9AA7E302D9DF41749D5507949D05DBEA33FBB16C643B22F599A2BE6DF2E2 PUSH2 0x180 DUP3 ADD MSTORE PUSH32 0x14BEDD503C37CEB061D8EC60209FE345CE89830A19230301F076CAFF004D1926 PUSH2 0x1A0 DUP3 ADD MSTORE PUSH32 0x967032FCBF776D1AFC985F88877F182D38480A653F2DECAA9794CBC3BF3060C PUSH2 0x1C0 DUP3 ADD MSTORE PUSH32 0xE187847AD4C798374D0D6732BF501847DD68BC0E071241E0213BC7FC13DB7AB PUSH2 0x1E0 DUP3 ADD MSTORE PUSH31 0x1752A100A72FDF1E5A5D6EA841CC20EC838BCCFCF7BD559E79F1C9C759B6A0 PUSH2 0x200 DUP3 ADD MSTORE PUSH32 0x192A8CC13CD9F762871F21E43451C6CA9EEAB2CB2987C4E366A185C25DAC2E7F PUSH2 0x220 DUP3 ADD MSTORE DUP4 PUSH2 0x240 DUP3 ADD MSTORE DUP3 PUSH2 0x260 DUP3 ADD MSTORE PUSH32 0x198E9393920D483A7260BFB731FB5D25F1AA493335A9E71297E485B7AEF312C2 PUSH2 0x280 DUP3 ADD MSTORE PUSH32 0x1800DEEF121F1E76426A00665E5C4479674322D4F75EDADD46DEBD5CD992F6ED PUSH2 0x2A0 DUP3 ADD MSTORE PUSH32 0x275DC4A288D1AFB3CBB1AC09187524C7DB36395DF7BE3B99E673B13A075A65EC PUSH2 0x2C0 DUP3 ADD MSTORE PUSH32 0x1D9BEFCD05A5323E6DA4D435F3B617CDB3AF83285C2DF711EF39C01571827F9D PUSH2 0x2E0 DUP3 ADD MSTORE PUSH1 0x20 DUP2 PUSH2 0x300 DUP4 PUSH1 0x8 GAS STATICCALL SWAP2 POP DUP1 MLOAD DUP3 AND SWAP2 POP POP DUP1 PUSH2 0x7A1 JUMPI PUSH1 0x40 MLOAD PUSH32 0x7FCDD1F400000000000000000000000000000000000000000000000000000000 DUP2 MSTORE PUSH1 0x4 ADD PUSH1 0x40 MLOAD DUP1 SWAP2 SUB SWAP1 REVERT JUMPDEST POP POP POP POP POP JUMP JUMPDEST PUSH2 0x7B0 PUSH2 0x21DF JUMP JUMPDEST PUSH0 PUSH0 PUSH2 0x7D2 DUP6 PUSH0 PUSH1 0x4 DUP2 LT PUSH2 0x7C8 JUMPI PUSH2 0x7C7 PUSH2 0x2748 JUMP JUMPDEST JUMPDEST PUSH1 0x20 MUL ADD CALLDATALOAD PUSH2 0x16EB JUMP JUMPDEST SWAP2 POP SWAP2 POP PUSH0 PUSH0 PUSH0 PUSH0 PUSH2 0x814 DUP10 PUSH1 0x2 PUSH1 0x4 DUP2 LT PUSH2 0x7F1 JUMPI PUSH2 0x7F0 PUSH2 0x2748 JUMP JUMPDEST JUMPDEST PUSH1 0x20 MUL ADD CALLDATALOAD DUP11 PUSH1 0x1 PUSH1 0x4 DUP2 LT PUSH2 0x80A JUMPI PUSH2 0x809 PUSH2 0x2748 JUMP JUMPDEST JUMPDEST PUSH1 0x20 MUL ADD CALLDATALOAD PUSH2 0x1820 JUMP JUMPDEST SWAP4 POP SWAP4 POP SWAP4 POP SWAP4 POP PUSH0 PUSH0 PUSH2 0x83F DUP12 PUSH1 0x3 PUSH1 0x4 DUP2 LT PUSH2 0x835 JUMPI PUSH2 0x834 PUSH2 0x2748 JUMP JUMPDEST JUMPDEST PUSH1 0x20 MUL ADD CALLDATALOAD PUSH2 0x16EB JUMP JUMPDEST SWAP2 POP SWAP2 POP PUSH0 PUSH0 PUSH2 0x84E DUP13 PUSH2 0x151A JUMP JUMPDEST SWAP2 POP SWAP2 POP DUP10 DUP12 PUSH0 PUSH1 0x18 DUP2 LT PUSH2 0x866 JUMPI PUSH2 0x865 PUSH2 0x2748 JUMP JUMPDEST JUMPDEST PUSH1 0x20 MUL ADD DUP2 DUP2 MSTORE POP POP DUP9 DUP12 PUSH1 0x1 PUSH1 0x18 DUP2 LT PUSH2 0x884 JUMPI PUSH2 0x883 PUSH2 0x2748 JUMP JUMPDEST JUMPDEST PUSH1 0x20 MUL ADD DUP2 DUP2 MSTORE POP POP DUP7 DUP12 PUSH1 0x2 PUSH1 0x18 DUP2 LT PUSH2 0x8A2 JUMPI PUSH2 0x8A1 PUSH2 0x2748 JUMP JUMPDEST JUMPDEST PUSH1 0x20 MUL ADD DUP2 DUP2 MSTORE POP POP DUP8 DUP12 PUSH1 0x3 PUSH1 0x18 DUP2 LT PUSH2 0x8C0 JUMPI PUSH2 0x8BF PUSH2 0x2748 JUMP JUMPDEST JUMPDEST PUSH1 0x20 MUL ADD DUP2 DUP2 MSTORE POP POP DUP5 DUP12 PUSH1 0x4 PUSH1 0x18 DUP2 LT PUSH2 0x8DE JUMPI PUSH2 0x8DD PUSH2 0x2748 JUMP JUMPDEST JUMPDEST PUSH1 0x20 MUL ADD DUP2 DUP2 MSTORE POP POP DUP6 DUP12 PUSH1 0x5 PUSH1 0x18 DUP2 LT PUSH2 0x8FC JUMPI PUSH2 0x8FB PUSH2 0x2748 JUMP JUMPDEST JUMPDEST PUSH1 0x20 MUL ADD DUP2 DUP2 MSTORE POP POP DUP4 DUP12 PUSH1 0x6 PUSH1 0x18 DUP2 LT PUSH2 0x91A JUMPI PUSH2 0x919 PUSH2 0x2748 JUMP JUMPDEST JUMPDEST PUSH1 0x20 MUL ADD DUP2 DUP2 MSTORE POP POP DUP3 DUP12 PUSH1 0x7 PUSH1 0x18 DUP2 LT PUSH2 0x938 JUMPI PUSH2 0x937 PUSH2 0x2748 JUMP JUMPDEST JUMPDEST PUSH1 0x20 MUL ADD DUP2 DUP2 MSTORE POP POP PUSH32 0x1CC7CB8DE715675F21F01ECC9B46D236E0865E0CC020024521998269845F74E6 DUP12 PUSH1 0x8 PUSH1 0x18 DUP2 LT PUSH2 0x976 JUMPI PUSH2 0x975 PUSH2 0x2748 JUMP JUMPDEST JUMPDEST PUSH1 0x20 MUL ADD DUP2 DUP2 MSTORE POP POP PUSH32 0x3FF41F4BA0C37FE2CAF27354D28E4B8F83D3B76777A63B327D736BFFB0122ED DUP12 PUSH1 0x9 PUSH1 0x18 DUP2 LT PUSH2 0x9B4 JUMPI PUSH2 0x9B3 PUSH2 0x2748 JUMP JUMPDEST JUMPDEST PUSH1 0x20 MUL ADD DUP2 DUP2 MSTORE POP POP PUSH32 0x1909CD7827E0278E6B60843A4ABC7B111D7F8B2725CD5902A6B20DA7A2938FB DUP12 PUSH1 0xA PUSH1 0x18 DUP2 LT PUSH2 0x9F2 JUMPI PUSH2 0x9F1 PUSH2 0x2748 JUMP JUMPDEST JUMPDEST PUSH1 0x20 MUL ADD DUP2 DUP2 MSTORE POP POP PUSH32 0x192BD3274441670227B4F69A44005B8711266E474227C6439CA25CA8E1EC1FC2 DUP12 PUSH1 0xB PUSH1 0x18 DUP2 LT PUSH2 0xA30 JUMPI PUSH2 0xA2F PUSH2 0x2748 JUMP JUMPDEST JUMPDEST PUSH1 0x20 MUL ADD DUP2 DUP2 MSTORE POP POP PUSH32 0x2D4D9AA7E302D9DF41749D5507949D05DBEA33FBB16C643B22F599A2BE6DF2E2 DUP12 PUSH1 0xC PUSH1 0x18 DUP2 LT PUSH2 0xA6E JUMPI PUSH2 0xA6D PUSH2 0x2748 JUMP JUMPDEST JUMPDEST PUSH1 0x20 MUL ADD DUP2 DUP2 MSTORE POP POP PUSH32 0x14BEDD503C37CEB061D8EC60209FE345CE89830A19230301F076CAFF004D1926 DUP12 PUSH1 0xD PUSH1 0x18 DUP2 LT PUSH2 0xAAC JUMPI PUSH2 0xAAB PUSH2 0x2748 JUMP JUMPDEST JUMPDEST PUSH1 0x20 MUL ADD DUP2 DUP2 MSTORE POP POP PUSH32 0x967032FCBF776D1AFC985F88877F182D38480A653F2DECAA9794CBC3BF3060C DUP12 PUSH1 0xE PUSH1 0x18 DUP2 LT PUSH2 0xAEA JUMPI PUSH2 0xAE9 PUSH2 0x2748 JUMP JUMPDEST JUMPDEST PUSH1 0x20 MUL ADD DUP2 DUP2 MSTORE POP POP PUSH32 0xE187847AD4C798374D0D6732BF501847DD68BC0E071241E0213BC7FC13DB7AB DUP12 PUSH1 0xF PUSH1 0x18 DUP2 LT PUSH2 0xB28 JUMPI PUSH2 0xB27 PUSH2 0x2748 JUMP JUMPDEST JUMPDEST PUSH1 0x20 MUL ADD DUP2 DUP2 MSTORE POP POP PUSH31 0x1752A100A72FDF1E5A5D6EA841CC20EC838BCCFCF7BD559E79F1C9C759B6A0 DUP12 PUSH1 0x10 PUSH1 0x18 DUP2 LT PUSH2 0xB65 JUMPI PUSH2 0xB64 PUSH2 0x2748 JUMP JUMPDEST JUMPDEST PUSH1 0x20 MUL ADD DUP2 DUP2 MSTORE POP POP PUSH32 0x192A8CC13CD9F762871F21E43451C6CA9EEAB2CB2987C4E366A185C25DAC2E7F DUP12 PUSH1 0x11 PUSH1 0x18 DUP2 LT PUSH2 0xBA3 JUMPI PUSH2 0xBA2 PUSH2 0x2748 JUMP JUMPDEST JUMPDEST PUSH1 0x20 MUL ADD DUP2 DUP2 MSTORE POP POP DUP2 DUP12 PUSH1 0x12 PUSH1 0x18 DUP2 LT PUSH2 0xBC1 JUMPI PUSH2 0xBC0 PUSH2 0x2748 JUMP JUMPDEST JUMPDEST PUSH1 0x20 MUL ADD DUP2 DUP2 MSTORE POP POP DUP1 DUP12 PUSH1 0x13 PUSH1 0x18 DUP2 LT PUSH2 0xBDF JUMPI PUSH2 0xBDE PUSH2 0x2748 JUMP JUMPDEST JUMPDEST PUSH1 0x20 MUL ADD DUP2 DUP2 MSTORE POP POP PUSH32 0x198E9393920D483A7260BFB731FB5D25F1AA493335A9E71297E485B7AEF312C2 DUP12 PUSH1 0x14 PUSH1 0x18 DUP2 LT PUSH2 0xC1D JUMPI PUSH2 0xC1C PUSH2 0x2748 JUMP JUMPDEST JUMPDEST PUSH1 0x20 MUL ADD DUP2 DUP2 MSTORE POP POP PUSH32 0x1800DEEF121F1E76426A00665E5C4479674322D4F75EDADD46DEBD5CD992F6ED DUP12 PUSH1 0x15 PUSH1 0x18 DUP2 LT PUSH2 0xC5B JUMPI PUSH2 0xC5A PUSH2 0x2748 JUMP JUMPDEST JUMPDEST PUSH1 0x20 MUL ADD DUP2 DUP2 MSTORE POP POP PUSH32 0x275DC4A288D1AFB3CBB1AC09187524C7DB36395DF7BE3B99E673B13A075A65EC DUP12 PUSH1 0x16 PUSH1 0x18 DUP2 LT PUSH2 0xC99 JUMPI PUSH2 0xC98 PUSH2 0x2748 JUMP JUMPDEST JUMPDEST PUSH1 0x20 MUL ADD DUP2 DUP2 MSTORE POP POP PUSH32 0x1D9BEFCD05A5323E6DA4D435F3B617CDB3AF83285C2DF711EF39C01571827F9D DUP12 PUSH1 0x17 PUSH1 0x18 DUP2 LT PUSH2 0xCD7 JUMPI PUSH2 0xCD6 PUSH2 0x2748 JUMP JUMPDEST JUMPDEST PUSH1 0x20 MUL ADD DUP2 DUP2 MSTORE POP POP PUSH0 PUSH2 0xCE9 PUSH2 0x2202 JUMP JUMPDEST PUSH1 0x20 DUP2 PUSH2 0x300 DUP16 PUSH1 0x8 GAS STATICCALL SWAP2 POP DUP2 ISZERO DUP1 PUSH2 0xD1B JUMPI POP PUSH1 0x1 DUP2 PUSH0 PUSH1 0x1 DUP2 LT PUSH2 0xD13 JUMPI PUSH2 0xD12 PUSH2 0x2748 JUMP JUMPDEST JUMPDEST PUSH1 0x20 MUL ADD MLOAD EQ ISZERO JUMPDEST ISZERO PUSH2 0xD52 JUMPI PUSH1 0x40 MLOAD PUSH32 0x7FCDD1F400000000000000000000000000000000000000000000000000000000 DUP2 MSTORE PUSH1 0x4 ADD PUSH1 0x40 MLOAD DUP1 SWAP2 SUB SWAP1 REVERT JUMPDEST POP POP POP POP POP POP POP POP POP POP POP POP POP POP POP JUMP JUMPDEST PUSH1 0x60 PUSH1 0x40 MLOAD DUP1 PUSH1 0x40 ADD PUSH1 0x40 MSTORE DUP1 PUSH1 0x6 DUP2 MSTORE PUSH1 0x20 ADD PUSH32 0x76352E302E300000000000000000000000000000000000000000000000000000 DUP2 MSTORE POP SWAP1 POP SWAP1 JUMP JUMPDEST PUSH0 PUSH32 0x30644E72E131A029B85045B68181585D97816A916871CA8D3C208C16D87CFD47 DUP4 LT ISZERO DUP1 PUSH2 0xDF0 JUMPI POP PUSH32 0x30644E72E131A029B85045B68181585D97816A916871CA8D3C208C16D87CFD47 DUP3 LT ISZERO JUMPDEST ISZERO PUSH2 0xE27 JUMPI PUSH1 0x40 MLOAD PUSH32 0x7FCDD1F400000000000000000000000000000000000000000000000000000000 DUP2 MSTORE PUSH1 0x4 ADD PUSH1 0x40 MLOAD DUP1 SWAP2 SUB SWAP1 REVERT JUMPDEST PUSH0 DUP4 EQ DUP1 ISZERO PUSH2 0xE35 JUMPI POP PUSH0 DUP3 EQ JUMPDEST ISZERO PUSH2 0xE42 JUMPI PUSH0 SWAP1 POP PUSH2 0xF48 JUMP JUMPDEST PUSH0 PUSH2 0xEE0 PUSH32 0x30644E72E131A029B85045B68181585D97816A916871CA8D3C208C16D87CFD47 DUP1 PUSH2 0xE75 JUMPI PUSH2 0xE74 PUSH2 0x2AAB JUMP JUMPDEST JUMPDEST PUSH1 0x3 PUSH32 0x30644E72E131A029B85045B68181585D97816A916871CA8D3C208C16D87CFD47 DUP1 PUSH2 0xEA6 JUMPI PUSH2 0xEA5 PUSH2 0x2AAB JUMP JUMPDEST JUMPDEST DUP8 PUSH32 0x30644E72E131A029B85045B68181585D97816A916871CA8D3C208C16D87CFD47 DUP1 PUSH2 0xED6 JUMPI PUSH2 0xED5 PUSH2 0x2AAB JUMP JUMPDEST JUMPDEST DUP10 DUP11 MULMOD MULMOD ADDMOD PUSH2 0x1BFB JUMP JUMPDEST SWAP1 POP DUP1 DUP4 SUB PUSH2 0xEF8 JUMPI PUSH0 PUSH1 0x1 DUP6 SWAP1 SHL OR SWAP2 POP POP PUSH2 0xF48 JUMP JUMPDEST PUSH2 0xF01 DUP2 PUSH2 0x1C97 JUMP JUMPDEST DUP4 SUB PUSH2 0xF16 JUMPI PUSH1 0x1 DUP1 DUP6 SWAP1 SHL OR SWAP2 POP POP PUSH2 0xF48 JUMP JUMPDEST PUSH1 0x40 MLOAD PUSH32 0x7FCDD1F400000000000000000000000000000000000000000000000000000000 DUP2 MSTORE PUSH1 0x4 ADD PUSH1 0x40 MLOAD DUP1 SWAP2 SUB SWAP1 REVERT JUMPDEST SWAP3 SWAP2 POP POP JUMP JUMPDEST PUSH0 PUSH0 PUSH32 0x30644E72E131A029B85045B68181585D97816A916871CA8D3C208C16D87CFD47 DUP7 LT ISZERO DUP1 PUSH2 0xF9F JUMPI POP PUSH32 0x30644E72E131A029B85045B68181585D97816A916871CA8D3C208C16D87CFD47 DUP6 LT ISZERO JUMPDEST DUP1 PUSH2 0xFCA JUMPI POP PUSH32 0x30644E72E131A029B85045B68181585D97816A916871CA8D3C208C16D87CFD47 DUP5 LT ISZERO JUMPDEST DUP1 PUSH2 0xFF5 JUMPI POP PUSH32 0x30644E72E131A029B85045B68181585D97816A916871CA8D3C208C16D87CFD47 DUP4 LT ISZERO JUMPDEST ISZERO PUSH2 0x102C JUMPI PUSH1 0x40 MLOAD PUSH32 0x7FCDD1F400000000000000000000000000000000000000000000000000000000 DUP2 MSTORE PUSH1 0x4 ADD PUSH1 0x40 MLOAD DUP1 SWAP2 SUB SWAP1 REVERT JUMPDEST PUSH0 DUP4 DUP6 DUP8 DUP10 OR OR OR SUB PUSH2 0x1044 JUMPI PUSH0 PUSH0 SWAP2 POP SWAP2 POP PUSH2 0x1511 JUMP JUMPDEST PUSH0 PUSH0 PUSH0 PUSH32 0x30644E72E131A029B85045B68181585D97816A916871CA8D3C208C16D87CFD47 DUP1 PUSH2 0x1076 JUMPI PUSH2 0x1075 PUSH2 0x2AAB JUMP JUMPDEST JUMPDEST PUSH1 0x3 PUSH32 0x30644E72E131A029B85045B68181585D97816A916871CA8D3C208C16D87CFD47 PUSH2 0x10A3 SWAP2 SWAP1 PUSH2 0x2B05 JUMP JUMPDEST PUSH32 0x30644E72E131A029B85045B68181585D97816A916871CA8D3C208C16D87CFD47 DUP1 PUSH2 0x10D2 JUMPI PUSH2 0x10D1 PUSH2 0x2AAB JUMP JUMPDEST JUMPDEST DUP11 DUP13 MULMOD MULMOD SWAP1 POP PUSH0 PUSH32 0x30644E72E131A029B85045B68181585D97816A916871CA8D3C208C16D87CFD47 DUP1 PUSH2 0x1108 JUMPI PUSH2 0x1107 PUSH2 0x2AAB JUMP JUMPDEST JUMPDEST DUP11 PUSH32 0x30644E72E131A029B85045B68181585D97816A916871CA8D3C208C16D87CFD47 DUP1 PUSH2 0x1138 JUMPI PUSH2 0x1137 PUSH2 0x2AAB JUMP JUMPDEST JUMPDEST DUP13 DUP14 MULMOD MULMOD SWAP1 POP PUSH0 PUSH32 0x30644E72E131A029B85045B68181585D97816A916871CA8D3C208C16D87CFD47 DUP1 PUSH2 0x116E JUMPI PUSH2 0x116D PUSH2 0x2AAB JUMP JUMPDEST JUMPDEST DUP11 PUSH32 0x30644E72E131A029B85045B68181585D97816A916871CA8D3C208C16D87CFD47 DUP1 PUSH2 0x119E JUMPI PUSH2 0x119D PUSH2 0x2AAB JUMP JUMPDEST JUMPDEST DUP13 DUP14 MULMOD MULMOD SWAP1 POP PUSH32 0x30644E72E131A029B85045B68181585D97816A916871CA8D3C208C16D87CFD47 DUP1 PUSH2 0x11D3 JUMPI PUSH2 0x11D2 PUSH2 0x2AAB JUMP JUMPDEST JUMPDEST PUSH32 0x30644E72E131A029B85045B68181585D97816A916871CA8D3C208C16D87CFD47 DUP1 PUSH2 0x1202 JUMPI PUSH2 0x1201 PUSH2 0x2AAB JUMP JUMPDEST JUMPDEST PUSH32 0x30644E72E131A029B85045B68181585D97816A916871CA8D3C208C16D87CFD47 DUP1 PUSH2 0x1231 JUMPI PUSH2 0x1230 PUSH2 0x2AAB JUMP JUMPDEST JUMPDEST DUP13 DUP7 MULMOD DUP5 ADDMOD PUSH32 0x2B149D40CEB8AAAE81BE18991BE06AC3B5B4C5E559DBEFA33267E6DC24A138E5 ADDMOD SWAP5 POP PUSH2 0x1316 PUSH32 0x30644E72E131A029B85045B68181585D97816A916871CA8D3C208C16D87CFD47 DUP1 PUSH2 0x128C JUMPI PUSH2 0x128B PUSH2 0x2AAB JUMP JUMPDEST JUMPDEST PUSH32 0x30644E72E131A029B85045B68181585D97816A916871CA8D3C208C16D87CFD47 DUP1 PUSH2 0x12BB JUMPI PUSH2 0x12BA PUSH2 0x2AAB JUMP JUMPDEST JUMPDEST PUSH32 0x30644E72E131A029B85045B68181585D97816A916871CA8D3C208C16D87CFD47 DUP1 PUSH2 0x12EA JUMPI PUSH2 0x12E9 PUSH2 0x2AAB JUMP JUMPDEST JUMPDEST DUP15 DUP8 MULMOD DUP5 ADDMOD PUSH32 0x2FCD3AC2A640A154EB23960892A85A68F031CA0C8344B23A577DCF1052B9E775 ADDMOD PUSH2 0x1C97 JUMP JUMPDEST SWAP4 POP POP POP POP PUSH0 PUSH0 PUSH2 0x13B9 PUSH32 0x30644E72E131A029B85045B68181585D97816A916871CA8D3C208C16D87CFD47 DUP1 PUSH2 0x134F JUMPI PUSH2 0x134E PUSH2 0x2AAB JUMP JUMPDEST JUMPDEST PUSH32 0x30644E72E131A029B85045B68181585D97816A916871CA8D3C208C16D87CFD47 DUP1 PUSH2 0x137E JUMPI PUSH2 0x137D PUSH2 0x2AAB JUMP JUMPDEST JUMPDEST DUP6 DUP7 MULMOD PUSH32 0x30644E72E131A029B85045B68181585D97816A916871CA8D3C208C16D87CFD47 DUP1 PUSH2 0x13B0 JUMPI PUSH2 0x13AF PUSH2 0x2AAB JUMP JUMPDEST JUMPDEST DUP8 DUP9 MULMOD ADDMOD PUSH2 0x1BFB JUMP JUMPDEST SWAP1 POP PUSH2 0x1446 PUSH32 0x30644E72E131A029B85045B68181585D97816A916871CA8D3C208C16D87CFD47 DUP1 PUSH2 0x13ED JUMPI PUSH2 0x13EC PUSH2 0x2AAB JUMP JUMPDEST JUMPDEST PUSH32 0x183227397098D014DC2822DB40C0AC2ECBC0B548B438E5469E10460B6C3E7EA4 PUSH32 0x30644E72E131A029B85045B68181585D97816A916871CA8D3C208C16D87CFD47 DUP1 PUSH2 0x143D JUMPI PUSH2 0x143C PUSH2 0x2AAB JUMP JUMPDEST JUMPDEST DUP5 DUP9 ADDMOD MULMOD PUSH2 0x1D02 JUMP JUMPDEST ISZERO SWAP2 POP POP PUSH2 0x1455 DUP4 DUP4 DUP4 PUSH2 0x1D6C JUMP JUMPDEST DUP1 SWAP4 POP DUP2 SWAP5 POP POP POP DUP3 DUP8 EQ DUP1 ISZERO PUSH2 0x146B JUMPI POP DUP2 DUP7 EQ JUMPDEST ISZERO PUSH2 0x1493 JUMPI PUSH0 DUP2 PUSH2 0x147C JUMPI PUSH0 PUSH2 0x147F JUMP JUMPDEST PUSH1 0x2 JUMPDEST PUSH1 0xFF AND PUSH1 0x2 DUP12 SWAP1 SHL OR OR SWAP5 POP DUP8 SWAP4 POP PUSH2 0x150D JUMP JUMPDEST PUSH2 0x149C DUP4 PUSH2 0x1C97 JUMP JUMPDEST DUP8 EQ DUP1 ISZERO PUSH2 0x14B1 JUMPI POP PUSH2 0x14AE DUP3 PUSH2 0x1C97 JUMP JUMPDEST DUP7 EQ JUMPDEST ISZERO PUSH2 0x14DA JUMPI PUSH1 0x1 DUP2 PUSH2 0x14C3 JUMPI PUSH0 PUSH2 0x14C6 JUMP JUMPDEST PUSH1 0x2 JUMPDEST PUSH1 0xFF AND PUSH1 0x2 DUP12 SWAP1 SHL OR OR SWAP5 POP DUP8 SWAP4 POP PUSH2 0x150C JUMP JUMPDEST PUSH1 0x40 MLOAD PUSH32 0x7FCDD1F400000000000000000000000000000000000000000000000000000000 DUP2 MSTORE PUSH1 0x4 ADD PUSH1 0x40 MLOAD DUP1 SWAP2 SUB SWAP1 REVERT JUMPDEST JUMPDEST POP POP POP JUMPDEST SWAP5 POP SWAP5 SWAP3 POP POP POP JUMP JUMPDEST PUSH0 PUSH0 PUSH0 PUSH1 0x1 SWAP1 POP PUSH1 0x40 MLOAD PUSH1 0x40 DUP2 ADD PUSH0 PUSH32 0x26091E1CAFB0AD8A4EA0A694CD3743EBF524779233DB734C451D28B58AA9758E DUP4 MSTORE PUSH31 0x9FF50A6B8B11C3CA6FDB2690A124F8CE25489FEFA65A3E782E7BA70B66690E PUSH1 0x20 DUP5 ADD MSTORE PUSH32 0x61C3FD0FD3DA25D2607C227D090CCA750ED36C6EC878755E537C1C48951FB4C DUP3 MSTORE PUSH32 0xFA17AE9C2033379DF7B5C65EFF0E107055E9A273E6119A212DD09EB51707219 PUSH1 0x20 DUP4 ADD MSTORE DUP7 CALLDATALOAD SWAP1 POP DUP1 PUSH1 0x40 DUP4 ADD MSTORE PUSH32 0x30644E72E131A029B85045B68181585D2833E84879B9709143E1F593F0000001 DUP2 LT DUP5 AND SWAP4 POP PUSH1 0x40 DUP3 PUSH1 0x60 DUP5 PUSH1 0x7 GAS STATICCALL DUP5 AND SWAP4 POP PUSH1 0x40 DUP4 PUSH1 0x80 DUP6 PUSH1 0x6 GAS STATICCALL DUP5 AND SWAP4 POP PUSH32 0x4EAB241388A79817FE0E0E2EAD0B2EC4FFDEC51A16028DEE020634FD129E71C DUP3 MSTORE PUSH32 0x7236256D21C60D02F0BDBF95CFF83E03EA9E16FCA56B18D5544B0889A65C1F5 PUSH1 0x20 DUP4 ADD MSTORE PUSH1 0x20 DUP8 ADD CALLDATALOAD SWAP1 POP DUP1 PUSH1 0x40 DUP4 ADD MSTORE PUSH32 0x30644E72E131A029B85045B68181585D2833E84879B9709143E1F593F0000001 DUP2 LT DUP5 AND SWAP4 POP PUSH1 0x40 DUP3 PUSH1 0x60 DUP5 PUSH1 0x7 GAS STATICCALL DUP5 AND SWAP4 POP PUSH1 0x40 DUP4 PUSH1 0x80 DUP6 PUSH1 0x6 GAS STATICCALL DUP5 AND SWAP4 POP DUP3 MLOAD SWAP6 POP PUSH1 0x20 DUP4 ADD MLOAD SWAP5 POP POP POP POP DUP1 PUSH2 0x16E5 JUMPI PUSH1 0x40 MLOAD PUSH32 0xA54F8E2700000000000000000000000000000000000000000000000000000000 DUP2 MSTORE PUSH1 0x4 ADD PUSH1 0x40 MLOAD DUP1 SWAP2 SUB SWAP1 REVERT JUMPDEST POP SWAP2 POP SWAP2 JUMP JUMPDEST PUSH0 PUSH0 PUSH0 DUP4 SUB PUSH2 0x16FF JUMPI PUSH0 PUSH0 SWAP2 POP SWAP2 POP PUSH2 0x181B JUMP JUMPDEST PUSH0 PUSH1 0x1 DUP1 DUP6 AND EQ SWAP1 POP PUSH1 0x1 DUP5 SWAP1 SHR SWAP3 POP PUSH32 0x30644E72E131A029B85045B68181585D97816A916871CA8D3C208C16D87CFD47 DUP4 LT PUSH2 0x1768 JUMPI PUSH1 0x40 MLOAD PUSH32 0x7FCDD1F400000000000000000000000000000000000000000000000000000000 DUP2 MSTORE PUSH1 0x4 ADD PUSH1 0x40 MLOAD DUP1 SWAP2 SUB SWAP1 REVERT JUMPDEST PUSH2 0x1805 PUSH32 0x30644E72E131A029B85045B68181585D97816A916871CA8D3C208C16D87CFD47 DUP1 PUSH2 0x179A JUMPI PUSH2 0x1799 PUSH2 0x2AAB JUMP JUMPDEST JUMPDEST PUSH1 0x3 PUSH32 0x30644E72E131A029B85045B68181585D97816A916871CA8D3C208C16D87CFD47 DUP1 PUSH2 0x17CB JUMPI PUSH2 0x17CA PUSH2 0x2AAB JUMP JUMPDEST JUMPDEST DUP7 PUSH32 0x30644E72E131A029B85045B68181585D97816A916871CA8D3C208C16D87CFD47 DUP1 PUSH2 0x17FB JUMPI PUSH2 0x17FA PUSH2 0x2AAB JUMP JUMPDEST JUMPDEST DUP9 DUP10 MULMOD MULMOD ADDMOD PUSH2 0x1BFB JUMP JUMPDEST SWAP2 POP DUP1 ISZERO PUSH2 0x1819 JUMPI PUSH2 0x1816 DUP3 PUSH2 0x1C97 JUMP JUMPDEST SWAP2 POP JUMPDEST POP JUMPDEST SWAP2 POP SWAP2 JUMP JUMPDEST PUSH0 PUSH0 PUSH0 PUSH0 PUSH0 DUP7 EQ DUP1 ISZERO PUSH2 0x1832 JUMPI POP PUSH0 DUP6 EQ JUMPDEST ISZERO PUSH2 0x1848 JUMPI PUSH0 PUSH0 PUSH0 PUSH0 SWAP4 POP SWAP4 POP SWAP4 POP SWAP4 POP PUSH2 0x1BF2 JUMP JUMPDEST PUSH0 PUSH1 0x1 DUP1 DUP9 AND EQ SWAP1 POP PUSH0 PUSH1 0x2 DUP1 DUP10 AND EQ SWAP1 POP PUSH1 0x2 DUP9 SWAP1 SHR SWAP6 POP DUP7 SWAP5 POP PUSH32 0x30644E72E131A029B85045B68181585D97816A916871CA8D3C208C16D87CFD47 DUP7 LT ISZERO DUP1 PUSH2 0x18B3 JUMPI POP PUSH32 0x30644E72E131A029B85045B68181585D97816A916871CA8D3C208C16D87CFD47 DUP6 LT ISZERO JUMPDEST ISZERO PUSH2 0x18EA JUMPI PUSH1 0x40 MLOAD PUSH32 0x7FCDD1F400000000000000000000000000000000000000000000000000000000 DUP2 MSTORE PUSH1 0x4 ADD PUSH1 0x40 MLOAD DUP1 SWAP2 SUB SWAP1 REVERT JUMPDEST PUSH0 PUSH32 0x30644E72E131A029B85045B68181585D97816A916871CA8D3C208C16D87CFD47 DUP1 PUSH2 0x191A JUMPI PUSH2 0x1919 PUSH2 0x2AAB JUMP JUMPDEST JUMPDEST PUSH1 0x3 PUSH32 0x30644E72E131A029B85045B68181585D97816A916871CA8D3C208C16D87CFD47 PUSH2 0x1947 SWAP2 SWAP1 PUSH2 0x2B05 JUMP JUMPDEST PUSH32 0x30644E72E131A029B85045B68181585D97816A916871CA8D3C208C16D87CFD47 DUP1 PUSH2 0x1976 JUMPI PUSH2 0x1975 PUSH2 0x2AAB JUMP JUMPDEST JUMPDEST DUP9 DUP11 MULMOD MULMOD SWAP1 POP PUSH0 PUSH32 0x30644E72E131A029B85045B68181585D97816A916871CA8D3C208C16D87CFD47 DUP1 PUSH2 0x19AC JUMPI PUSH2 0x19AB PUSH2 0x2AAB JUMP JUMPDEST JUMPDEST DUP9 PUSH32 0x30644E72E131A029B85045B68181585D97816A916871CA8D3C208C16D87CFD47 DUP1 PUSH2 0x19DC JUMPI PUSH2 0x19DB PUSH2 0x2AAB JUMP JUMPDEST JUMPDEST DUP11 DUP12 MULMOD MULMOD SWAP1 POP PUSH0 PUSH32 0x30644E72E131A029B85045B68181585D97816A916871CA8D3C208C16D87CFD47 DUP1 PUSH2 0x1A12 JUMPI PUSH2 0x1A11 PUSH2 0x2AAB JUMP JUMPDEST JUMPDEST DUP9 PUSH32 0x30644E72E131A029B85045B68181585D97816A916871CA8D3C208C16D87CFD47 DUP1 PUSH2 0x1A42 JUMPI PUSH2 0x1A41 PUSH2 0x2AAB JUMP JUMPDEST JUMPDEST DUP11 DUP12 MULMOD MULMOD SWAP1 POP PUSH32 0x30644E72E131A029B85045B68181585D97816A916871CA8D3C208C16D87CFD47 DUP1 PUSH2 0x1A77 JUMPI PUSH2 0x1A76 PUSH2 0x2AAB JUMP JUMPDEST JUMPDEST PUSH32 0x30644E72E131A029B85045B68181585D97816A916871CA8D3C208C16D87CFD47 DUP1 PUSH2 0x1AA6 JUMPI PUSH2 0x1AA5 PUSH2 0x2AAB JUMP JUMPDEST JUMPDEST PUSH32 0x30644E72E131A029B85045B68181585D97816A916871CA8D3C208C16D87CFD47 DUP1 PUSH2 0x1AD5 JUMPI PUSH2 0x1AD4 PUSH2 0x2AAB JUMP JUMPDEST JUMPDEST DUP11 DUP7 MULMOD DUP5 ADDMOD PUSH32 0x2B149D40CEB8AAAE81BE18991BE06AC3B5B4C5E559DBEFA33267E6DC24A138E5 ADDMOD SWAP7 POP PUSH2 0x1BBA PUSH32 0x30644E72E131A029B85045B68181585D97816A916871CA8D3C208C16D87CFD47 DUP1 PUSH2 0x1B30 JUMPI PUSH2 0x1B2F PUSH2 0x2AAB JUMP JUMPDEST JUMPDEST PUSH32 0x30644E72E131A029B85045B68181585D97816A916871CA8D3C208C16D87CFD47 DUP1 PUSH2 0x1B5F JUMPI PUSH2 0x1B5E PUSH2 0x2AAB JUMP JUMPDEST JUMPDEST PUSH32 0x30644E72E131A029B85045B68181585D97816A916871CA8D3C208C16D87CFD47 DUP1 PUSH2 0x1B8E JUMPI PUSH2 0x1B8D PUSH2 0x2AAB JUMP JUMPDEST JUMPDEST DUP13 DUP8 MULMOD DUP5 ADDMOD PUSH32 0x2FCD3AC2A640A154EB23960892A85A68F031CA0C8344B23A577DCF1052B9E775 ADDMOD PUSH2 0x1C97 JUMP JUMPDEST SWAP6 POP PUSH2 0x1BC7 DUP8 DUP8 DUP7 PUSH2 0x1D6C JUMP JUMPDEST DUP1 SWAP8 POP DUP2 SWAP9 POP POP POP DUP5 ISZERO PUSH2 0x1BEC JUMPI PUSH2 0x1BDE DUP8 PUSH2 0x1C97 JUMP JUMPDEST SWAP7 POP PUSH2 0x1BE9 DUP7 PUSH2 0x1C97 JUMP JUMPDEST SWAP6 POP JUMPDEST POP POP POP POP POP JUMPDEST SWAP3 SWAP6 SWAP2 SWAP5 POP SWAP3 POP JUMP JUMPDEST PUSH0 PUSH2 0x1C26 DUP3 PUSH32 0xC19139CB84C680A6E14116DA060561765E05AA45A1C72A34F082305B61F3F52 PUSH2 0x2067 JUMP JUMPDEST SWAP1 POP DUP2 PUSH32 0x30644E72E131A029B85045B68181585D97816A916871CA8D3C208C16D87CFD47 DUP1 PUSH2 0x1C58 JUMPI PUSH2 0x1C57 PUSH2 0x2AAB JUMP JUMPDEST JUMPDEST DUP3 DUP4 MULMOD EQ PUSH2 0x1C92 JUMPI PUSH1 0x40 MLOAD PUSH32 0x7FCDD1F400000000000000000000000000000000000000000000000000000000 DUP2 MSTORE PUSH1 0x4 ADD PUSH1 0x40 MLOAD DUP1 SWAP2 SUB SWAP1 REVERT JUMPDEST SWAP2 SWAP1 POP JUMP JUMPDEST PUSH0 PUSH32 0x30644E72E131A029B85045B68181585D97816A916871CA8D3C208C16D87CFD47 DUP1 DUP4 DUP2 PUSH2 0x1CC9 JUMPI PUSH2 0x1CC8 PUSH2 0x2AAB JUMP JUMPDEST JUMPDEST MOD PUSH32 0x30644E72E131A029B85045B68181585D97816A916871CA8D3C208C16D87CFD47 SUB DUP2 PUSH2 0x1CFA JUMPI PUSH2 0x1CF9 PUSH2 0x2AAB JUMP JUMPDEST JUMPDEST MOD SWAP1 POP SWAP2 SWAP1 POP JUMP JUMPDEST PUSH0 PUSH0 PUSH2 0x1D2E DUP4 PUSH32 0xC19139CB84C680A6E14116DA060561765E05AA45A1C72A34F082305B61F3F52 PUSH2 0x2067 JUMP JUMPDEST SWAP1 POP DUP3 PUSH32 0x30644E72E131A029B85045B68181585D97816A916871CA8D3C208C16D87CFD47 DUP1 PUSH2 0x1D60 JUMPI PUSH2 0x1D5F PUSH2 0x2AAB JUMP JUMPDEST JUMPDEST DUP3 DUP4 MULMOD EQ SWAP2 POP POP SWAP2 SWAP1 POP JUMP JUMPDEST PUSH0 PUSH0 PUSH0 PUSH2 0x1E0B PUSH32 0x30644E72E131A029B85045B68181585D97816A916871CA8D3C208C16D87CFD47 DUP1 PUSH2 0x1DA1 JUMPI PUSH2 0x1DA0 PUSH2 0x2AAB JUMP JUMPDEST JUMPDEST PUSH32 0x30644E72E131A029B85045B68181585D97816A916871CA8D3C208C16D87CFD47 DUP1 PUSH2 0x1DD0 JUMPI PUSH2 0x1DCF PUSH2 0x2AAB JUMP JUMPDEST JUMPDEST DUP8 DUP9 MULMOD PUSH32 0x30644E72E131A029B85045B68181585D97816A916871CA8D3C208C16D87CFD47 DUP1 PUSH2 0x1E02 JUMPI PUSH2 0x1E01 PUSH2 0x2AAB JUMP JUMPDEST JUMPDEST DUP10 DUP11 MULMOD ADDMOD PUSH2 0x1BFB JUMP JUMPDEST SWAP1 POP DUP4 ISZERO PUSH2 0x1E1F JUMPI PUSH2 0x1E1C DUP2 PUSH2 0x1C97 JUMP JUMPDEST SWAP1 POP JUMPDEST PUSH2 0x1EAA PUSH32 0x30644E72E131A029B85045B68181585D97816A916871CA8D3C208C16D87CFD47 DUP1 PUSH2 0x1E51 JUMPI PUSH2 0x1E50 PUSH2 0x2AAB JUMP JUMPDEST JUMPDEST PUSH32 0x183227397098D014DC2822DB40C0AC2ECBC0B548B438E5469E10460B6C3E7EA4 PUSH32 0x30644E72E131A029B85045B68181585D97816A916871CA8D3C208C16D87CFD47 DUP1 PUSH2 0x1EA1 JUMPI PUSH2 0x1EA0 PUSH2 0x2AAB JUMP JUMPDEST JUMPDEST DUP5 DUP11 ADDMOD MULMOD PUSH2 0x1BFB JUMP JUMPDEST SWAP3 POP PUSH32 0x30644E72E131A029B85045B68181585D97816A916871CA8D3C208C16D87CFD47 DUP1 PUSH2 0x1EDB JUMPI PUSH2 0x1EDA PUSH2 0x2AAB JUMP JUMPDEST JUMPDEST PUSH2 0x1F16 PUSH32 0x30644E72E131A029B85045B68181585D97816A916871CA8D3C208C16D87CFD47 DUP1 PUSH2 0x1F0D JUMPI PUSH2 0x1F0C PUSH2 0x2AAB JUMP JUMPDEST JUMPDEST PUSH1 0x2 DUP7 MULMOD PUSH2 0x20FE JUMP JUMPDEST DUP7 MULMOD SWAP2 POP PUSH32 0x30644E72E131A029B85045B68181585D97816A916871CA8D3C208C16D87CFD47 DUP1 PUSH2 0x1F49 JUMPI PUSH2 0x1F48 PUSH2 0x2AAB JUMP JUMPDEST JUMPDEST PUSH2 0x1F83 PUSH32 0x30644E72E131A029B85045B68181585D97816A916871CA8D3C208C16D87CFD47 DUP1 PUSH2 0x1F7B JUMPI PUSH2 0x1F7A PUSH2 0x2AAB JUMP JUMPDEST JUMPDEST DUP5 DUP6 MULMOD PUSH2 0x1C97 JUMP JUMPDEST PUSH32 0x30644E72E131A029B85045B68181585D97816A916871CA8D3C208C16D87CFD47 DUP1 PUSH2 0x1FB2 JUMPI PUSH2 0x1FB1 PUSH2 0x2AAB JUMP JUMPDEST JUMPDEST DUP6 DUP7 MULMOD ADDMOD DUP7 EQ ISZERO DUP1 PUSH2 0x2027 JUMPI POP PUSH32 0x30644E72E131A029B85045B68181585D97816A916871CA8D3C208C16D87CFD47 DUP1 PUSH2 0x1FEE JUMPI PUSH2 0x1FED PUSH2 0x2AAB JUMP JUMPDEST JUMPDEST PUSH32 0x30644E72E131A029B85045B68181585D97816A916871CA8D3C208C16D87CFD47 DUP1 PUSH2 0x201D JUMPI PUSH2 0x201C PUSH2 0x2AAB JUMP JUMPDEST JUMPDEST DUP4 DUP6 MULMOD PUSH1 0x2 MULMOD DUP6 EQ ISZERO JUMPDEST ISZERO PUSH2 0x205E JUMPI PUSH1 0x40 MLOAD PUSH32 0x7FCDD1F400000000000000000000000000000000000000000000000000000000 DUP2 MSTORE PUSH1 0x4 ADD PUSH1 0x40 MLOAD DUP1 SWAP2 SUB SWAP1 REVERT JUMPDEST POP SWAP4 POP SWAP4 SWAP2 POP POP JUMP JUMPDEST PUSH0 PUSH0 PUSH1 0x40 MLOAD PUSH1 0x20 DUP2 MSTORE PUSH1 0x20 DUP1 DUP3 ADD MSTORE PUSH1 0x20 PUSH1 0x40 DUP3 ADD MSTORE DUP5 PUSH1 0x60 DUP3 ADD MSTORE DUP4 PUSH1 0x80 DUP3 ADD MSTORE PUSH32 0x30644E72E131A029B85045B68181585D97816A916871CA8D3C208C16D87CFD47 PUSH1 0xA0 DUP3 ADD MSTORE PUSH1 0x20 DUP2 PUSH1 0xC0 DUP4 PUSH1 0x5 GAS STATICCALL SWAP2 POP DUP1 MLOAD SWAP3 POP POP DUP1 PUSH2 0x20F7 JUMPI PUSH1 0x40 MLOAD PUSH32 0x7FCDD1F400000000000000000000000000000000000000000000000000000000 DUP2 MSTORE PUSH1 0x4 ADD PUSH1 0x40 MLOAD DUP1 SWAP2 SUB SWAP1 REVERT JUMPDEST POP SWAP3 SWAP2 POP POP JUMP JUMPDEST PUSH0 PUSH2 0x2129 DUP3 PUSH32 0x30644E72E131A029B85045B68181585D97816A916871CA8D3C208C16D87CFD45 PUSH2 0x2067 JUMP JUMPDEST SWAP1 POP PUSH1 0x1 PUSH32 0x30644E72E131A029B85045B68181585D97816A916871CA8D3C208C16D87CFD47 DUP1 PUSH2 0x215C JUMPI PUSH2 0x215B PUSH2 0x2AAB JUMP JUMPDEST JUMPDEST DUP3 DUP5 MULMOD EQ PUSH2 0x2196 JUMPI PUSH1 0x40 MLOAD PUSH32 0x7FCDD1F400000000000000000000000000000000000000000000000000000000 DUP2 MSTORE PUSH1 0x4 ADD PUSH1 0x40 MLOAD DUP1 SWAP2 SUB SWAP1 REVERT JUMPDEST SWAP2 SWAP1 POP JUMP JUMPDEST PUSH1 0x40 MLOAD DUP1 PUSH1 0x40 ADD PUSH1 0x40 MSTORE DUP1 PUSH1 0x2 SWAP1 PUSH1 0x20 DUP3 MUL DUP1 CALLDATASIZE DUP4 CALLDATACOPY DUP1 DUP3 ADD SWAP2 POP POP SWAP1 POP POP SWAP1 JUMP JUMPDEST PUSH1 0x40 MLOAD DUP1 PUSH1 0x80 ADD PUSH1 0x40 MSTORE DUP1 PUSH1 0x4 SWAP1 PUSH1 0x20 DUP3 MUL DUP1 CALLDATASIZE DUP4 CALLDATACOPY DUP1 DUP3 ADD SWAP2 POP POP SWAP1 POP POP SWAP1 JUMP JUMPDEST PUSH1 0x40 MLOAD DUP1 PUSH2 0x300 ADD PUSH1 0x40 MSTORE DUP1 PUSH1 0x18 SWAP1 PUSH1 0x20 DUP3 MUL DUP1 CALLDATASIZE DUP4 CALLDATACOPY DUP1 DUP3 ADD SWAP2 POP POP SWAP1 POP POP SWAP1 JUMP JUMPDEST PUSH1 0x40 MLOAD DUP1 PUSH1 0x20 ADD PUSH1 0x40 MSTORE DUP1 PUSH1 0x1 SWAP1 PUSH1 0x20 DUP3 MUL DUP1 CALLDATASIZE DUP4 CALLDATACOPY DUP1 DUP3 ADD SWAP2 POP POP SWAP1 POP POP SWAP1 JUMP JUMPDEST PUSH0 DUP2 SWAP1 POP SWAP2 SWAP1 POP JUMP JUMPDEST PUSH2 0x2236 DUP2 PUSH2 0x2224 JUMP JUMPDEST DUP3 MSTORE POP POP JUMP JUMPDEST PUSH0 PUSH1 0x20 DUP3 ADD SWAP1 POP PUSH2 0x224F PUSH0 DUP4 ADD DUP5 PUSH2 0x222D JUMP JUMPDEST SWAP3 SWAP2 POP POP JUMP JUMPDEST PUSH0 PUSH1 0x40 MLOAD SWAP1 POP SWAP1 JUMP JUMPDEST PUSH0 PUSH0 REVERT JUMPDEST PUSH0 PUSH0 REVERT JUMPDEST PUSH2 0x226F DUP2 PUSH2 0x2224 JUMP JUMPDEST DUP2 EQ PUSH2 0x2279 JUMPI PUSH0 PUSH0 REVERT JUMPDEST POP JUMP JUMPDEST PUSH0 DUP2 CALLDATALOAD SWAP1 POP PUSH2 0x228A DUP2 PUSH2 0x2266 JUMP JUMPDEST SWAP3 SWAP2 POP POP JUMP JUMPDEST PUSH0 PUSH0 REVERT JUMPDEST PUSH0 PUSH0 REVERT JUMPDEST PUSH0 PUSH0 REVERT JUMPDEST PUSH0 PUSH0 DUP4 PUSH1 0x1F DUP5 ADD SLT PUSH2 0x22B1 JUMPI PUSH2 0x22B0 PUSH2 0x2290 JUMP JUMPDEST JUMPDEST DUP3 CALLDATALOAD SWAP1 POP PUSH8 0xFFFFFFFFFFFFFFFF DUP2 GT ISZERO PUSH2 0x22CE JUMPI PUSH2 0x22CD PUSH2 0x2294 JUMP JUMPDEST JUMPDEST PUSH1 0x20 DUP4 ADD SWAP2 POP DUP4 PUSH1 0x1 DUP3 MUL DUP4 ADD GT ISZERO PUSH2 0x22EA JUMPI PUSH2 0x22E9 PUSH2 0x2298 JUMP JUMPDEST JUMPDEST SWAP3 POP SWAP3 SWAP1 POP JUMP JUMPDEST PUSH0 PUSH0 PUSH0 PUSH0 PUSH0 PUSH1 0x60 DUP7 DUP9 SUB SLT ISZERO PUSH2 0x230A JUMPI PUSH2 0x2309 PUSH2 0x225E JUMP JUMPDEST JUMPDEST PUSH0 PUSH2 0x2317 DUP9 DUP3 DUP10 ADD PUSH2 0x227C JUMP JUMPDEST SWAP6 POP POP PUSH1 0x20 DUP7 ADD CALLDATALOAD PUSH8 0xFFFFFFFFFFFFFFFF DUP2 GT ISZERO PUSH2 0x2338 JUMPI PUSH2 0x2337 PUSH2 0x2262 JUMP JUMPDEST JUMPDEST PUSH2 0x2344 DUP9 DUP3 DUP10 ADD PUSH2 0x229C JUMP JUMPDEST SWAP5 POP SWAP5 POP POP PUSH1 0x40 DUP7 ADD CALLDATALOAD PUSH8 0xFFFFFFFFFFFFFFFF DUP2 GT ISZERO PUSH2 0x2367 JUMPI PUSH2 0x2366 PUSH2 0x2262 JUMP JUMPDEST JUMPDEST PUSH2 0x2373 DUP9 DUP3 DUP10 ADD PUSH2 0x229C JUMP JUMPDEST SWAP3 POP SWAP3 POP POP SWAP3 SWAP6 POP SWAP3 SWAP6 SWAP1 SWAP4 POP JUMP JUMPDEST PUSH0 DUP2 SWAP1 POP DUP3 PUSH1 0x20 PUSH1 0x8 MUL DUP3 ADD GT ISZERO PUSH2 0x239D JUMPI PUSH2 0x239C PUSH2 0x2298 JUMP JUMPDEST JUMPDEST SWAP3 SWAP2 POP POP JUMP JUMPDEST PUSH0 PUSH2 0x100 DUP3 DUP5 SUB SLT ISZERO PUSH2 0x23B9 JUMPI PUSH2 0x23B8 PUSH2 0x225E JUMP JUMPDEST JUMPDEST PUSH0 PUSH2 0x23C6 DUP5 DUP3 DUP6 ADD PUSH2 0x2382 JUMP JUMPDEST SWAP2 POP POP SWAP3 SWAP2 POP POP JUMP JUMPDEST PUSH0 PUSH1 0x4 SWAP1 POP SWAP2 SWAP1 POP JUMP JUMPDEST PUSH0 DUP2 SWAP1 POP SWAP3 SWAP2 POP POP JUMP JUMPDEST PUSH0 DUP2 SWAP1 POP SWAP2 SWAP1 POP JUMP JUMPDEST PUSH0 DUP2 SWAP1 POP SWAP2 SWAP1 POP JUMP JUMPDEST PUSH2 0x23FE DUP2 PUSH2 0x23EC JUMP JUMPDEST DUP3 MSTORE POP POP JUMP JUMPDEST PUSH0 PUSH2 0x240F DUP4 DUP4 PUSH2 0x23F5 JUMP JUMPDEST PUSH1 0x20 DUP4 ADD SWAP1 POP SWAP3 SWAP2 POP POP JUMP JUMPDEST PUSH0 PUSH1 0x20 DUP3 ADD SWAP1 POP SWAP2 SWAP1 POP JUMP JUMPDEST PUSH2 0x2430 DUP2 PUSH2 0x23CF JUMP JUMPDEST PUSH2 0x243A DUP2 DUP5 PUSH2 0x23D9 JUMP JUMPDEST SWAP3 POP PUSH2 0x2445 DUP3 PUSH2 0x23E3 JUMP JUMPDEST DUP1 PUSH0 JUMPDEST DUP4 DUP2 LT ISZERO PUSH2 0x2475 JUMPI DUP2 MLOAD PUSH2 0x245C DUP8 DUP3 PUSH2 0x2404 JUMP JUMPDEST SWAP7 POP PUSH2 0x2467 DUP4 PUSH2 0x241B JUMP JUMPDEST SWAP3 POP POP PUSH1 0x1 DUP2 ADD SWAP1 POP PUSH2 0x2448 JUMP JUMPDEST POP POP POP POP POP POP JUMP JUMPDEST PUSH0 PUSH1 0x80 DUP3 ADD SWAP1 POP PUSH2 0x2490 PUSH0 DUP4 ADD DUP5 PUSH2 0x2427 JUMP JUMPDEST SWAP3 SWAP2 POP POP JUMP JUMPDEST PUSH0 PUSH0 PUSH1 0x20 DUP4 DUP6 SUB SLT ISZERO PUSH2 0x24AC JUMPI PUSH2 0x24AB PUSH2 0x225E JUMP JUMPDEST JUMPDEST PUSH0 DUP4 ADD CALLDATALOAD PUSH8 0xFFFFFFFFFFFFFFFF DUP2 GT ISZERO PUSH2 0x24C9 JUMPI PUSH2 0x24C8 PUSH2 0x2262 JUMP JUMPDEST JUMPDEST PUSH2 0x24D5 DUP6 DUP3 DUP7 ADD PUSH2 0x229C JUMP JUMPDEST SWAP3 POP SWAP3 POP POP SWAP3 POP SWAP3 SWAP1 POP JUMP JUMPDEST PUSH0 DUP2 SWAP1 POP DUP3 PUSH1 0x20 PUSH1 0x2 MUL DUP3 ADD GT ISZERO PUSH2 0x24FC JUMPI PUSH2 0x24FB PUSH2 0x2298 JUMP JUMPDEST JUMPDEST SWAP3 SWAP2 POP POP JUMP JUMPDEST PUSH0 PUSH0 PUSH2 0x140 DUP4 DUP6 SUB SLT ISZERO PUSH2 0x2519 JUMPI PUSH2 0x2518 PUSH2 0x225E JUMP JUMPDEST JUMPDEST PUSH0 PUSH2 0x2526 DUP6 DUP3 DUP7 ADD PUSH2 0x2382 JUMP JUMPDEST SWAP3 POP POP PUSH2 0x100 PUSH2 0x2538 DUP6 DUP3 DUP7 ADD PUSH2 0x24E1 JUMP JUMPDEST SWAP2 POP POP SWAP3 POP SWAP3 SWAP1 POP JUMP JUMPDEST PUSH0 DUP2 SWAP1 POP DUP3 PUSH1 0x20 PUSH1 0x4 MUL DUP3 ADD GT ISZERO PUSH2 0x255D JUMPI PUSH2 0x255C PUSH2 0x2298 JUMP JUMPDEST JUMPDEST SWAP3 SWAP2 POP POP JUMP JUMPDEST PUSH0 PUSH0 PUSH1 0xC0 DUP4 DUP6 SUB SLT ISZERO PUSH2 0x2579 JUMPI PUSH2 0x2578 PUSH2 0x225E JUMP JUMPDEST JUMPDEST PUSH0 PUSH2 0x2586 DUP6 DUP3 DUP7 ADD PUSH2 0x2542 JUMP JUMPDEST SWAP3 POP POP PUSH1 0x80 PUSH2 0x2597 DUP6 DUP3 DUP7 ADD PUSH2 0x24E1 JUMP JUMPDEST SWAP2 POP POP SWAP3 POP SWAP3 SWAP1 POP JUMP JUMPDEST PUSH0 DUP2 MLOAD SWAP1 POP SWAP2 SWAP1 POP JUMP JUMPDEST PUSH0 DUP3 DUP3 MSTORE PUSH1 0x20 DUP3 ADD SWAP1 POP SWAP3 SWAP2 POP POP JUMP JUMPDEST DUP3 DUP2 DUP4 MCOPY PUSH0 DUP4 DUP4 ADD MSTORE POP POP POP JUMP JUMPDEST PUSH0 PUSH1 0x1F NOT PUSH1 0x1F DUP4 ADD AND SWAP1 POP SWAP2 SWAP1 POP JUMP JUMPDEST PUSH0 PUSH2 0x25E3 DUP3 PUSH2 0x25A1 JUMP JUMPDEST PUSH2 0x25ED DUP2 DUP6 PUSH2 0x25AB JUMP JUMPDEST SWAP4 POP PUSH2 0x25FD DUP2 DUP6 PUSH1 0x20 DUP7 ADD PUSH2 0x25BB JUMP JUMPDEST PUSH2 0x2606 DUP2 PUSH2 0x25C9 JUMP JUMPDEST DUP5 ADD SWAP2 POP POP SWAP3 SWAP2 POP POP JUMP JUMPDEST PUSH0 PUSH1 0x20 DUP3 ADD SWAP1 POP DUP2 DUP2 SUB PUSH0 DUP4 ADD MSTORE PUSH2 0x2629 DUP2 DUP5 PUSH2 0x25D9 JUMP JUMPDEST SWAP1 POP SWAP3 SWAP2 POP POP JUMP JUMPDEST PUSH0 PUSH0 REVERT JUMPDEST PUSH0 PUSH0 REVERT JUMPDEST PUSH0 PUSH0 DUP6 DUP6 GT ISZERO PUSH2 0x264C JUMPI PUSH2 0x264B PUSH2 0x2631 JUMP JUMPDEST JUMPDEST DUP4 DUP7 GT ISZERO PUSH2 0x265D JUMPI PUSH2 0x265C PUSH2 0x2635 JUMP JUMPDEST JUMPDEST PUSH1 0x1 DUP6 MUL DUP4 ADD SWAP2 POP DUP5 DUP7 SUB SWAP1 POP SWAP5 POP SWAP5 SWAP3 POP POP POP JUMP JUMPDEST PUSH0 DUP3 SWAP1 POP SWAP3 SWAP2 POP POP JUMP JUMPDEST PUSH0 PUSH32 0xFFFFFFFF00000000000000000000000000000000000000000000000000000000 DUP3 AND SWAP1 POP SWAP2 SWAP1 POP JUMP JUMPDEST PUSH0 DUP3 DUP3 SHL SWAP1 POP SWAP3 SWAP2 POP POP JUMP JUMPDEST PUSH0 PUSH2 0x26BF DUP4 DUP4 PUSH2 0x2673 JUMP JUMPDEST DUP3 PUSH2 0x26CA DUP2 CALLDATALOAD PUSH2 0x267D JUMP JUMPDEST SWAP3 POP PUSH1 0x4 DUP3 LT ISZERO PUSH2 0x270A JUMPI PUSH2 0x2705 PUSH32 0xFFFFFFFF00000000000000000000000000000000000000000000000000000000 DUP4 PUSH1 0x4 SUB PUSH1 0x8 MUL PUSH2 0x26A8 JUMP JUMPDEST DUP4 AND SWAP3 POP JUMPDEST POP POP SWAP3 SWAP2 POP POP JUMP JUMPDEST PUSH2 0x271B DUP2 PUSH2 0x267D JUMP JUMPDEST DUP3 MSTORE POP POP JUMP JUMPDEST PUSH0 PUSH1 0x40 DUP3 ADD SWAP1 POP PUSH2 0x2734 PUSH0 DUP4 ADD DUP6 PUSH2 0x2712 JUMP JUMPDEST PUSH2 0x2741 PUSH1 0x20 DUP4 ADD DUP5 PUSH2 0x2712 JUMP JUMPDEST SWAP4 SWAP3 POP POP POP JUMP JUMPDEST PUSH32 0x4E487B7100000000000000000000000000000000000000000000000000000000 PUSH0 MSTORE PUSH1 0x32 PUSH1 0x4 MSTORE PUSH1 0x24 PUSH0 REVERT JUMPDEST PUSH32 0x4E487B7100000000000000000000000000000000000000000000000000000000 PUSH0 MSTORE PUSH1 0x41 PUSH1 0x4 MSTORE PUSH1 0x24 PUSH0 REVERT JUMPDEST PUSH2 0x27AB DUP3 PUSH2 0x25C9 JUMP JUMPDEST DUP2 ADD DUP2 DUP2 LT PUSH8 0xFFFFFFFFFFFFFFFF DUP3 GT OR ISZERO PUSH2 0x27CA JUMPI PUSH2 0x27C9 PUSH2 0x2775 JUMP JUMPDEST JUMPDEST DUP1 PUSH1 0x40 MSTORE POP POP POP JUMP JUMPDEST PUSH0 PUSH2 0x27DC PUSH2 0x2255 JUMP JUMPDEST SWAP1 POP PUSH2 0x27E8 DUP3 DUP3 PUSH2 0x27A2 JUMP JUMPDEST SWAP2 SWAP1 POP JUMP JUMPDEST PUSH0 PUSH8 0xFFFFFFFFFFFFFFFF DUP3 GT ISZERO PUSH2 0x2807 JUMPI PUSH2 0x2806 PUSH2 0x2775 JUMP JUMPDEST JUMPDEST PUSH1 0x20 DUP3 MUL SWAP1 POP SWAP2 SWAP1 POP JUMP JUMPDEST PUSH2 0x281B DUP2 PUSH2 0x23EC JUMP JUMPDEST DUP2 EQ PUSH2 0x2825 JUMPI PUSH0 PUSH0 REVERT JUMPDEST POP JUMP JUMPDEST PUSH0 DUP2 CALLDATALOAD SWAP1 POP PUSH2 0x2836 DUP2 PUSH2 0x2812 JUMP JUMPDEST SWAP3 SWAP2 POP POP JUMP JUMPDEST PUSH0 PUSH2 0x284E PUSH2 0x2849 DUP5 PUSH2 0x27ED JUMP JUMPDEST PUSH2 0x27D3 JUMP JUMPDEST SWAP1 POP DUP1 PUSH1 0x20 DUP5 MUL DUP4 ADD DUP6 DUP2 GT ISZERO PUSH2 0x2868 JUMPI PUSH2 0x2867 PUSH2 0x2298 JUMP JUMPDEST JUMPDEST DUP4 JUMPDEST DUP2 DUP2 LT ISZERO PUSH2 0x2891 JUMPI DUP1 PUSH2 0x287D DUP9 DUP3 PUSH2 0x2828 JUMP JUMPDEST DUP5 MSTORE PUSH1 0x20 DUP5 ADD SWAP4 POP POP PUSH1 0x20 DUP2 ADD SWAP1 POP PUSH2 0x286A JUMP JUMPDEST POP POP POP SWAP4 SWAP3 POP POP POP JUMP JUMPDEST PUSH0 DUP3 PUSH1 0x1F DUP4 ADD SLT PUSH2 0x28AF JUMPI PUSH2 0x28AE PUSH2 0x2290 JUMP JUMPDEST JUMPDEST PUSH1 0x8 PUSH2 0x28BC DUP5 DUP3 DUP6 PUSH2 0x283C JUMP JUMPDEST SWAP2 POP POP SWAP3 SWAP2 POP POP JUMP JUMPDEST PUSH0 PUSH2 0x100 DUP3 DUP5 SUB SLT ISZERO PUSH2 0x28DB JUMPI PUSH2 0x28DA PUSH2 0x225E JUMP JUMPDEST JUMPDEST PUSH0 PUSH2 0x28E8 DUP5 DUP3 DUP6 ADD PUSH2 0x289B JUMP JUMPDEST SWAP2 POP POP SWAP3 SWAP2 POP POP JUMP JUMPDEST PUSH0 PUSH1 0x8 SWAP1 POP SWAP2 SWAP1 POP JUMP JUMPDEST PUSH0 DUP2 SWAP1 POP SWAP3 SWAP2 POP POP JUMP JUMPDEST PUSH0 DUP2 SWAP1 POP SWAP2 SWAP1 POP JUMP JUMPDEST PUSH0 PUSH1 0x20 DUP3 ADD SWAP1 POP SWAP2 SWAP1 POP JUMP JUMPDEST PUSH2 0x2923 DUP2 PUSH2 0x28F1 JUMP JUMPDEST PUSH2 0x292D DUP2 DUP5 PUSH2 0x28FB JUMP JUMPDEST SWAP3 POP PUSH2 0x2938 DUP3 PUSH2 0x2905 JUMP JUMPDEST DUP1 PUSH0 JUMPDEST DUP4 DUP2 LT ISZERO PUSH2 0x2968 JUMPI DUP2 MLOAD PUSH2 0x294F DUP8 DUP3 PUSH2 0x2404 JUMP JUMPDEST SWAP7 POP PUSH2 0x295A DUP4 PUSH2 0x290E JUMP JUMPDEST SWAP3 POP POP PUSH1 0x1 DUP2 ADD SWAP1 POP PUSH2 0x293B JUMP JUMPDEST POP POP POP POP POP POP JUMP JUMPDEST PUSH0 PUSH1 0x2 SWAP1 POP SWAP2 SWAP1 POP JUMP JUMPDEST PUSH0 DUP2 SWAP1 POP SWAP3 SWAP2 POP POP JUMP JUMPDEST PUSH0 DUP2 SWAP1 POP SWAP2 SWAP1 POP JUMP JUMPDEST PUSH0 PUSH1 0x20 DUP3 ADD SWAP1 POP SWAP2 SWAP1 POP JUMP JUMPDEST PUSH2 0x29A2 DUP2 PUSH2 0x2970 JUMP JUMPDEST PUSH2 0x29AC DUP2 DUP5 PUSH2 0x297A JUMP JUMPDEST SWAP3 POP PUSH2 0x29B7 DUP3 PUSH2 0x2984 JUMP JUMPDEST DUP1 PUSH0 JUMPDEST DUP4 DUP2 LT ISZERO PUSH2 0x29E7 JUMPI DUP2 MLOAD PUSH2 0x29CE DUP8 DUP3 PUSH2 0x2404 JUMP JUMPDEST SWAP7 POP PUSH2 0x29D9 DUP4 PUSH2 0x298D JUMP JUMPDEST SWAP3 POP POP PUSH1 0x1 DUP2 ADD SWAP1 POP PUSH2 0x29BA JUMP JUMPDEST POP POP POP POP POP POP JUMP JUMPDEST PUSH0 PUSH2 0x140 DUP3 ADD SWAP1 POP PUSH2 0x2A03 PUSH0 DUP4 ADD DUP6 PUSH2 0x291A JUMP JUMPDEST PUSH2 0x2A11 PUSH2 0x100 DUP4 ADD DUP5 PUSH2 0x2999 JUMP JUMPDEST SWAP4 SWAP3 POP POP POP JUMP JUMPDEST PUSH0 DUP2 SWAP1 POP SWAP3 SWAP2 POP POP JUMP JUMPDEST DUP3 DUP2 DUP4 CALLDATACOPY PUSH0 DUP4 DUP4 ADD MSTORE POP POP POP JUMP JUMPDEST PUSH0 PUSH2 0x2A3B DUP4 DUP6 PUSH2 0x2A18 JUMP JUMPDEST SWAP4 POP PUSH2 0x2A48 DUP4 DUP6 DUP5 PUSH2 0x2A22 JUMP JUMPDEST DUP3 DUP5 ADD SWAP1 POP SWAP4 SWAP3 POP POP POP JUMP JUMPDEST PUSH0 PUSH2 0x2A60 DUP3 DUP5 DUP7 PUSH2 0x2A30 JUMP JUMPDEST SWAP2 POP DUP2 SWAP1 POP SWAP4 SWAP3 POP POP POP JUMP JUMPDEST PUSH0 DUP2 MLOAD SWAP1 POP PUSH2 0x2A7A DUP2 PUSH2 0x2266 JUMP JUMPDEST SWAP3 SWAP2 POP POP JUMP JUMPDEST PUSH0 PUSH1 0x20 DUP3 DUP5 SUB SLT ISZERO PUSH2 0x2A95 JUMPI PUSH2 0x2A94 PUSH2 0x225E JUMP JUMPDEST JUMPDEST PUSH0 PUSH2 0x2AA2 DUP5 DUP3 DUP6 ADD PUSH2 0x2A6C JUMP JUMPDEST SWAP2 POP POP SWAP3 SWAP2 POP POP JUMP JUMPDEST PUSH32 0x4E487B7100000000000000000000000000000000000000000000000000000000 PUSH0 MSTORE PUSH1 0x12 PUSH1 0x4 MSTORE PUSH1 0x24 PUSH0 REVERT JUMPDEST PUSH32 0x4E487B7100000000000000000000000000000000000000000000000000000000 PUSH0 MSTORE PUSH1 0x11 PUSH1 0x4 MSTORE PUSH1 0x24 PUSH0 REVERT JUMPDEST PUSH0 PUSH2 0x2B0F DUP3 PUSH2 0x23EC JUMP JUMPDEST SWAP2 POP PUSH2 0x2B1A DUP4 PUSH2 0x23EC JUMP JUMPDEST SWAP3 POP DUP3 DUP3 SUB SWAP1 POP DUP2 DUP2 GT ISZERO PUSH2 0x2B32 JUMPI PUSH2 0x2B31 PUSH2 0x2AD8 JUMP JUMPDEST JUMPDEST SWAP3 SWAP2 POP POP JUMP INVALID LOG2 PUSH5 0x6970667358 0x22 SLT KECCAK256 MOD EOFCREATE 0x72 0xEA SWAP6 0xBB SWAP5 0x24 0x1F DUP13 0xA5 0xB7 PUSH2 0xFF86 0xA7 CALLDATASIZE 0xB9 JUMP 0xA5 GASLIMIT XOR CREATE2 SWAP13 CALLER PUSH18 0x92C12DA72A8164736F6C634300081E003300 "
		},
		"gasEstimates": {
			"creation": {
				"codeDepositCost": "2223600",
				"executionCost": "2373",
				"totalCost": "2225973"
			},
			"external": {
				"VERIFIER_HASH()": "338",
				"VERSION()": "infinite",
				"Verify(uint256[8],uint256[2])": "infinite",
				"compressProof(uint256[8])": "infinite",
				"hashPublicValues(bytes)": "infinite",
				"verifyCompressedProof(uint256[4],uint256[2])": "infinite",
				"verifyProof(bytes32,bytes,bytes)": "infinite"
			}
		},
		"methodIdentifiers": {
			"VERIFIER_HASH()": "2a510436",
			"VERSION()": "ffa1ad74",
			"Verify(uint256[8],uint256[2])": "eddf243c",
			"compressProof(uint256[8])": "44f63692",
			"hashPublicValues(bytes)": "6b61d8e7",
			"verifyCompressedProof(uint256[4],uint256[2])": "f11817b2",
			"verifyProof(bytes32,bytes,bytes)": "41493c60"
		}
	},
	"abi": [
		{
			"inputs": [],
			"name": "InvalidProof",
			"type": "error"
		},
		{
			"inputs": [],
			"name": "ProofInvalid",
			"type": "error"
		},
		{
			"inputs": [],
			"name": "PublicInputNotInField",
			"type": "error"
		},
		{
			"inputs": [
				{
					"internalType": "bytes4",
					"name": "received",
					"type": "bytes4"
				},
				{
					"internalType": "bytes4",
					"name": "expected",
					"type": "bytes4"
				}
			],
			"name": "WrongVerifierSelector",
			"type": "error"
		},
		{
			"inputs": [],
			"name": "VERIFIER_HASH",
			"outputs": [
				{
					"internalType": "bytes32",
					"name": "",
					"type": "bytes32"
				}
			],
			"stateMutability": "pure",
			"type": "function"
		},
		{
			"inputs": [],
			"name": "VERSION",
			"outputs": [
				{
					"internalType": "string",
					"name": "",
					"type": "string"
				}
			],
			"stateMutability": "pure",
			"type": "function"
		},
		{
			"inputs": [
				{
					"internalType": "uint256[8]",
					"name": "proof",
					"type": "uint256[8]"
				},
				{
					"internalType": "uint256[2]",
					"name": "input",
					"type": "uint256[2]"
				}
			],
			"name": "Verify",
			"outputs": [],
			"stateMutability": "view",
			"type": "function"
		},
		{
			"inputs": [
				{
					"internalType": "uint256[8]",
					"name": "proof",
					"type": "uint256[8]"
				}
			],
			"name": "compressProof",
			"outputs": [
				{
					"internalType": "uint256[4]",
					"name": "compressed",
					"type": "uint256[4]"
				}
			],
			"stateMutability": "view",
			"type": "function"
		},
		{
			"inputs": [
				{
					"internalType": "bytes",
					"name": "publicValues",
					"type": "bytes"
				}
			],
			"name": "hashPublicValues",
			"outputs": [
				{
					"internalType": "bytes32",
					"name": "",
					"type": "bytes32"
				}
			],
			"stateMutability": "pure",
			"type": "function"
		},
		{
			"inputs": [
				{
					"internalType": "uint256[4]",
					"name": "compressedProof",
					"type": "uint256[4]"
				},
				{
					"internalType": "uint256[2]",
					"name": "input",
					"type": "uint256[2]"
				}
			],
			"name": "verifyCompressedProof",
			"outputs": [],
			"stateMutability": "view",
			"type": "function"
		},
		{
			"inputs": [
				{
					"internalType": "bytes32",
					"name": "programVKey",
					"type": "bytes32"
				},
				{
					"internalType": "bytes",
					"name": "publicValues",
					"type": "bytes"
				},
				{
					"internalType": "bytes",
					"name": "proofBytes",
					"type": "bytes"
				}
			],
			"name": "verifyProof",
			"outputs": [],
			"stateMutability": "view",
			"type": "function"
		}
	]
}